{
  "_format": "hh-sol-artifact-1",
  "contractName": "BigFiniteField",
  "sourceName": "contracts/field/bigFiniteField.sol",
  "abi": [
    {
      "inputs": [
        {
          "components": [
            {
              "internalType": "bytes",
              "name": "val",
              "type": "bytes"
            },
            {
              "internalType": "bool",
              "name": "neg",
              "type": "bool"
            },
            {
              "internalType": "uint256",
              "name": "bitlen",
              "type": "uint256"
            }
          ],
          "internalType": "struct BigNumber",
          "name": "prime",
          "type": "tuple"
        }
      ],
      "stateMutability": "nonpayable",
      "type": "constructor"
    },
    {
      "inputs": [
        {
          "components": [
            {
              "internalType": "bytes",
              "name": "val",
              "type": "bytes"
            },
            {
              "internalType": "bool",
              "name": "neg",
              "type": "bool"
            },
            {
              "internalType": "uint256",
              "name": "bitlen",
              "type": "uint256"
            }
          ],
          "internalType": "struct BigNumber",
          "name": "value",
          "type": "tuple"
        }
      ],
      "name": "createElement",
      "outputs": [
        {
          "components": [
            {
              "components": [
                {
                  "internalType": "bytes",
                  "name": "val",
                  "type": "bytes"
                },
                {
                  "internalType": "bool",
                  "name": "neg",
                  "type": "bool"
                },
                {
                  "internalType": "uint256",
                  "name": "bitlen",
                  "type": "uint256"
                }
              ],
              "internalType": "struct BigNumber",
              "name": "value",
              "type": "tuple"
            }
          ],
          "internalType": "struct Zp",
          "name": "",
          "type": "tuple"
        }
      ],
      "stateMutability": "view",
      "type": "function"
    },
    {
      "inputs": [
        {
          "components": [
            {
              "components": [
                {
                  "internalType": "bytes",
                  "name": "val",
                  "type": "bytes"
                },
                {
                  "internalType": "bool",
                  "name": "neg",
                  "type": "bool"
                },
                {
                  "internalType": "uint256",
                  "name": "bitlen",
                  "type": "uint256"
                }
              ],
              "internalType": "struct BigNumber",
              "name": "value",
              "type": "tuple"
            }
          ],
          "internalType": "struct Zp",
          "name": "x",
          "type": "tuple"
        },
        {
          "components": [
            {
              "components": [
                {
                  "internalType": "bytes",
                  "name": "val",
                  "type": "bytes"
                },
                {
                  "internalType": "bool",
                  "name": "neg",
                  "type": "bool"
                },
                {
                  "internalType": "uint256",
                  "name": "bitlen",
                  "type": "uint256"
                }
              ],
              "internalType": "struct BigNumber",
              "name": "value",
              "type": "tuple"
            }
          ],
          "internalType": "struct Zp",
          "name": "y",
          "type": "tuple"
        }
      ],
      "name": "div",
      "outputs": [
        {
          "components": [
            {
              "components": [
                {
                  "internalType": "bytes",
                  "name": "val",
                  "type": "bytes"
                },
                {
                  "internalType": "bool",
                  "name": "neg",
                  "type": "bool"
                },
                {
                  "internalType": "uint256",
                  "name": "bitlen",
                  "type": "uint256"
                }
              ],
              "internalType": "struct BigNumber",
              "name": "value",
              "type": "tuple"
            }
          ],
          "internalType": "struct Zp",
          "name": "",
          "type": "tuple"
        }
      ],
      "stateMutability": "view",
      "type": "function"
    },
    {
      "inputs": [
        {
          "components": [
            {
              "components": [
                {
                  "internalType": "bytes",
                  "name": "val",
                  "type": "bytes"
                },
                {
                  "internalType": "bool",
                  "name": "neg",
                  "type": "bool"
                },
                {
                  "internalType": "uint256",
                  "name": "bitlen",
                  "type": "uint256"
                }
              ],
              "internalType": "struct BigNumber",
              "name": "value",
              "type": "tuple"
            }
          ],
          "internalType": "struct Zp",
          "name": "x",
          "type": "tuple"
        },
        {
          "components": [
            {
              "components": [
                {
                  "internalType": "bytes",
                  "name": "val",
                  "type": "bytes"
                },
                {
                  "internalType": "bool",
                  "name": "neg",
                  "type": "bool"
                },
                {
                  "internalType": "uint256",
                  "name": "bitlen",
                  "type": "uint256"
                }
              ],
              "internalType": "struct BigNumber",
              "name": "value",
              "type": "tuple"
            }
          ],
          "internalType": "struct Zp",
          "name": "y",
          "type": "tuple"
        }
      ],
      "name": "equals",
      "outputs": [
        {
          "internalType": "bool",
          "name": "",
          "type": "bool"
        }
      ],
      "stateMutability": "pure",
      "type": "function"
    },
    {
      "inputs": [],
      "name": "four",
      "outputs": [
        {
          "components": [
            {
              "components": [
                {
                  "internalType": "bytes",
                  "name": "val",
                  "type": "bytes"
                },
                {
                  "internalType": "bool",
                  "name": "neg",
                  "type": "bool"
                },
                {
                  "internalType": "uint256",
                  "name": "bitlen",
                  "type": "uint256"
                }
              ],
              "internalType": "struct BigNumber",
              "name": "value",
              "type": "tuple"
            }
          ],
          "internalType": "struct Zp",
          "name": "",
          "type": "tuple"
        }
      ],
      "stateMutability": "view",
      "type": "function"
    },
    {
      "inputs": [],
      "name": "get_p",
      "outputs": [
        {
          "components": [
            {
              "internalType": "bytes",
              "name": "val",
              "type": "bytes"
            },
            {
              "internalType": "bool",
              "name": "neg",
              "type": "bool"
            },
            {
              "internalType": "uint256",
              "name": "bitlen",
              "type": "uint256"
            }
          ],
          "internalType": "struct BigNumber",
          "name": "",
          "type": "tuple"
        }
      ],
      "stateMutability": "view",
      "type": "function"
    },
    {
      "inputs": [
        {
          "components": [
            {
              "components": [
                {
                  "internalType": "bytes",
                  "name": "val",
                  "type": "bytes"
                },
                {
                  "internalType": "bool",
                  "name": "neg",
                  "type": "bool"
                },
                {
                  "internalType": "uint256",
                  "name": "bitlen",
                  "type": "uint256"
                }
              ],
              "internalType": "struct BigNumber",
              "name": "value",
              "type": "tuple"
            }
          ],
          "internalType": "struct Zp",
          "name": "x",
          "type": "tuple"
        }
      ],
      "name": "inverse",
      "outputs": [
        {
          "components": [
            {
              "components": [
                {
                  "internalType": "bytes",
                  "name": "val",
                  "type": "bytes"
                },
                {
                  "internalType": "bool",
                  "name": "neg",
                  "type": "bool"
                },
                {
                  "internalType": "uint256",
                  "name": "bitlen",
                  "type": "uint256"
                }
              ],
              "internalType": "struct BigNumber",
              "name": "value",
              "type": "tuple"
            }
          ],
          "internalType": "struct Zp",
          "name": "",
          "type": "tuple"
        }
      ],
      "stateMutability": "view",
      "type": "function"
    },
    {
      "inputs": [
        {
          "components": [
            {
              "components": [
                {
                  "internalType": "bytes",
                  "name": "val",
                  "type": "bytes"
                },
                {
                  "internalType": "bool",
                  "name": "neg",
                  "type": "bool"
                },
                {
                  "internalType": "uint256",
                  "name": "bitlen",
                  "type": "uint256"
                }
              ],
              "internalType": "struct BigNumber",
              "name": "value",
              "type": "tuple"
            }
          ],
          "internalType": "struct Zp",
          "name": "x",
          "type": "tuple"
        },
        {
          "components": [
            {
              "components": [
                {
                  "internalType": "bytes",
                  "name": "val",
                  "type": "bytes"
                },
                {
                  "internalType": "bool",
                  "name": "neg",
                  "type": "bool"
                },
                {
                  "internalType": "uint256",
                  "name": "bitlen",
                  "type": "uint256"
                }
              ],
              "internalType": "struct BigNumber",
              "name": "value",
              "type": "tuple"
            }
          ],
          "internalType": "struct Zp",
          "name": "y",
          "type": "tuple"
        }
      ],
      "name": "mul",
      "outputs": [
        {
          "components": [
            {
              "components": [
                {
                  "internalType": "bytes",
                  "name": "val",
                  "type": "bytes"
                },
                {
                  "internalType": "bool",
                  "name": "neg",
                  "type": "bool"
                },
                {
                  "internalType": "uint256",
                  "name": "bitlen",
                  "type": "uint256"
                }
              ],
              "internalType": "struct BigNumber",
              "name": "value",
              "type": "tuple"
            }
          ],
          "internalType": "struct Zp",
          "name": "",
          "type": "tuple"
        }
      ],
      "stateMutability": "view",
      "type": "function"
    },
    {
      "inputs": [
        {
          "components": [
            {
              "components": [
                {
                  "internalType": "bytes",
                  "name": "val",
                  "type": "bytes"
                },
                {
                  "internalType": "bool",
                  "name": "neg",
                  "type": "bool"
                },
                {
                  "internalType": "uint256",
                  "name": "bitlen",
                  "type": "uint256"
                }
              ],
              "internalType": "struct BigNumber",
              "name": "value",
              "type": "tuple"
            }
          ],
          "internalType": "struct Zp",
          "name": "x",
          "type": "tuple"
        }
      ],
      "name": "mul_nonres",
      "outputs": [
        {
          "components": [
            {
              "components": [
                {
                  "internalType": "bytes",
                  "name": "val",
                  "type": "bytes"
                },
                {
                  "internalType": "bool",
                  "name": "neg",
                  "type": "bool"
                },
                {
                  "internalType": "uint256",
                  "name": "bitlen",
                  "type": "uint256"
                }
              ],
              "internalType": "struct BigNumber",
              "name": "value",
              "type": "tuple"
            }
          ],
          "internalType": "struct Zp",
          "name": "",
          "type": "tuple"
        }
      ],
      "stateMutability": "pure",
      "type": "function"
    },
    {
      "inputs": [],
      "name": "one",
      "outputs": [
        {
          "components": [
            {
              "components": [
                {
                  "internalType": "bytes",
                  "name": "val",
                  "type": "bytes"
                },
                {
                  "internalType": "bool",
                  "name": "neg",
                  "type": "bool"
                },
                {
                  "internalType": "uint256",
                  "name": "bitlen",
                  "type": "uint256"
                }
              ],
              "internalType": "struct BigNumber",
              "name": "value",
              "type": "tuple"
            }
          ],
          "internalType": "struct Zp",
          "name": "",
          "type": "tuple"
        }
      ],
      "stateMutability": "pure",
      "type": "function"
    },
    {
      "inputs": [
        {
          "components": [
            {
              "components": [
                {
                  "internalType": "bytes",
                  "name": "val",
                  "type": "bytes"
                },
                {
                  "internalType": "bool",
                  "name": "neg",
                  "type": "bool"
                },
                {
                  "internalType": "uint256",
                  "name": "bitlen",
                  "type": "uint256"
                }
              ],
              "internalType": "struct BigNumber",
              "name": "value",
              "type": "tuple"
            }
          ],
          "internalType": "struct Zp",
          "name": "x",
          "type": "tuple"
        },
        {
          "components": [
            {
              "components": [
                {
                  "internalType": "bytes",
                  "name": "val",
                  "type": "bytes"
                },
                {
                  "internalType": "bool",
                  "name": "neg",
                  "type": "bool"
                },
                {
                  "internalType": "uint256",
                  "name": "bitlen",
                  "type": "uint256"
                }
              ],
              "internalType": "struct BigNumber",
              "name": "value",
              "type": "tuple"
            }
          ],
          "internalType": "struct Zp",
          "name": "y",
          "type": "tuple"
        }
      ],
      "name": "sub",
      "outputs": [
        {
          "components": [
            {
              "components": [
                {
                  "internalType": "bytes",
                  "name": "val",
                  "type": "bytes"
                },
                {
                  "internalType": "bool",
                  "name": "neg",
                  "type": "bool"
                },
                {
                  "internalType": "uint256",
                  "name": "bitlen",
                  "type": "uint256"
                }
              ],
              "internalType": "struct BigNumber",
              "name": "value",
              "type": "tuple"
            }
          ],
          "internalType": "struct Zp",
          "name": "",
          "type": "tuple"
        }
      ],
      "stateMutability": "view",
      "type": "function"
    },
    {
      "inputs": [
        {
          "components": [
            {
              "components": [
                {
                  "internalType": "bytes",
                  "name": "val",
                  "type": "bytes"
                },
                {
                  "internalType": "bool",
                  "name": "neg",
                  "type": "bool"
                },
                {
                  "internalType": "uint256",
                  "name": "bitlen",
                  "type": "uint256"
                }
              ],
              "internalType": "struct BigNumber",
              "name": "value",
              "type": "tuple"
            }
          ],
          "internalType": "struct Zp",
          "name": "x",
          "type": "tuple"
        },
        {
          "components": [
            {
              "components": [
                {
                  "internalType": "bytes",
                  "name": "val",
                  "type": "bytes"
                },
                {
                  "internalType": "bool",
                  "name": "neg",
                  "type": "bool"
                },
                {
                  "internalType": "uint256",
                  "name": "bitlen",
                  "type": "uint256"
                }
              ],
              "internalType": "struct BigNumber",
              "name": "value",
              "type": "tuple"
            }
          ],
          "internalType": "struct Zp",
          "name": "y",
          "type": "tuple"
        }
      ],
      "name": "sum",
      "outputs": [
        {
          "components": [
            {
              "components": [
                {
                  "internalType": "bytes",
                  "name": "val",
                  "type": "bytes"
                },
                {
                  "internalType": "bool",
                  "name": "neg",
                  "type": "bool"
                },
                {
                  "internalType": "uint256",
                  "name": "bitlen",
                  "type": "uint256"
                }
              ],
              "internalType": "struct BigNumber",
              "name": "value",
              "type": "tuple"
            }
          ],
          "internalType": "struct Zp",
          "name": "",
          "type": "tuple"
        }
      ],
      "stateMutability": "view",
      "type": "function"
    },
    {
      "inputs": [],
      "name": "three",
      "outputs": [
        {
          "components": [
            {
              "components": [
                {
                  "internalType": "bytes",
                  "name": "val",
                  "type": "bytes"
                },
                {
                  "internalType": "bool",
                  "name": "neg",
                  "type": "bool"
                },
                {
                  "internalType": "uint256",
                  "name": "bitlen",
                  "type": "uint256"
                }
              ],
              "internalType": "struct BigNumber",
              "name": "value",
              "type": "tuple"
            }
          ],
          "internalType": "struct Zp",
          "name": "",
          "type": "tuple"
        }
      ],
      "stateMutability": "view",
      "type": "function"
    },
    {
      "inputs": [],
      "name": "two",
      "outputs": [
        {
          "components": [
            {
              "components": [
                {
                  "internalType": "bytes",
                  "name": "val",
                  "type": "bytes"
                },
                {
                  "internalType": "bool",
                  "name": "neg",
                  "type": "bool"
                },
                {
                  "internalType": "uint256",
                  "name": "bitlen",
                  "type": "uint256"
                }
              ],
              "internalType": "struct BigNumber",
              "name": "value",
              "type": "tuple"
            }
          ],
          "internalType": "struct Zp",
          "name": "",
          "type": "tuple"
        }
      ],
      "stateMutability": "pure",
      "type": "function"
    },
    {
      "inputs": [],
      "name": "zero",
      "outputs": [
        {
          "components": [
            {
              "components": [
                {
                  "internalType": "bytes",
                  "name": "val",
                  "type": "bytes"
                },
                {
                  "internalType": "bool",
                  "name": "neg",
                  "type": "bool"
                },
                {
                  "internalType": "uint256",
                  "name": "bitlen",
                  "type": "uint256"
                }
              ],
              "internalType": "struct BigNumber",
              "name": "value",
              "type": "tuple"
            }
          ],
          "internalType": "struct Zp",
          "name": "",
          "type": "tuple"
        }
      ],
      "stateMutability": "pure",
      "type": "function"
    }
  ],
  "bytecode": "0x608060405234801561001057600080fd5b50604051612edf380380612edf833981810160405281019061003291906103d8565b806000808260000151905060208101519150600082036100d25773__$7db5d2dbc3ae63372df6c39d501ad0f72a$__6308d78767846040518263ffffffff1660e01b815260040161008391906104e4565b602060405180830381865af41580156100a0573d6000803e3d6000fd5b505050506040513d601f19601f820116820180604052508101906100c49190610506565b6100cd57600080fd5b61011d565b600060208460000151516100e69190610562565b148015610113575060016101006001856040015161010491906105c2565b61010e9190610562565b83901c145b61011c57600080fd5b5b836000808201518160000190816101349190610802565b5060208201518160010160006101000a81548160ff02191690831515021790555060408201518160020155905050505050506108d4565b6000604051905090565b600080fd5b600080fd5b600080fd5b6000601f19601f8301169050919050565b7f4e487b7100000000000000000000000000000000000000000000000000000000600052604160045260246000fd5b6101cd82610184565b810181811067ffffffffffffffff821117156101ec576101eb610195565b5b80604052505050565b60006101ff61016b565b905061020b82826101c4565b919050565b600080fd5b600080fd5b600080fd5b600067ffffffffffffffff82111561023a57610239610195565b5b61024382610184565b9050602081019050919050565b60005b8381101561026e578082015181840152602081019050610253565b60008484015250505050565b600061028d6102888461021f565b6101f5565b9050828152602081018484840111156102a9576102a861021a565b5b6102b4848285610250565b509392505050565b600082601f8301126102d1576102d0610215565b5b81516102e184826020860161027a565b91505092915050565b60008115159050919050565b6102ff816102ea565b811461030a57600080fd5b50565b60008151905061031c816102f6565b92915050565b6000819050919050565b61033581610322565b811461034057600080fd5b50565b6000815190506103528161032c565b92915050565b60006060828403121561036e5761036d61017f565b5b61037860606101f5565b9050600082015167ffffffffffffffff81111561039857610397610210565b5b6103a4848285016102bc565b60008301525060206103b88482850161030d565b60208301525060406103cc84828501610343565b60408301525092915050565b6000602082840312156103ee576103ed610175565b5b600082015167ffffffffffffffff81111561040c5761040b61017a565b5b61041884828501610358565b91505092915050565b600081519050919050565b600082825260208201905092915050565b600061044882610421565b610452818561042c565b9350610462818560208601610250565b61046b81610184565b840191505092915050565b61047f816102ea565b82525050565b61048e81610322565b82525050565b600060608301600083015184820360008601526104b1828261043d565b91505060208301516104c66020860182610476565b5060408301516104d96040860182610485565b508091505092915050565b600060208201905081810360008301526104fe8184610494565b905092915050565b60006020828403121561051c5761051b610175565b5b600061052a8482850161030d565b91505092915050565b7f4e487b7100000000000000000000000000000000000000000000000000000000600052601260045260246000fd5b600061056d82610322565b915061057883610322565b92508261058857610587610533565b5b828206905092915050565b7f4e487b7100000000000000000000000000000000000000000000000000000000600052601160045260246000fd5b60006105cd82610322565b91506105d883610322565b92508282039050818111156105f0576105ef610593565b5b92915050565b7f4e487b7100000000000000000000000000000000000000000000000000000000600052602260045260246000fd5b6000600282049050600182168061063d57607f821691505b6020821081036106505761064f6105f6565b5b50919050565b60008190508160005260206000209050919050565b60006020601f8301049050919050565b600082821b905092915050565b6000600883026106b87fffffffffffffffffffffffffffffffffffffffffffffffffffffffffffffffff8261067b565b6106c2868361067b565b95508019841693508086168417925050509392505050565b6000819050919050565b60006106ff6106fa6106f584610322565b6106da565b610322565b9050919050565b6000819050919050565b610719836106e4565b61072d61072582610706565b848454610688565b825550505050565b600090565b610742610735565b61074d818484610710565b505050565b5b818110156107715761076660008261073a565b600181019050610753565b5050565b601f8211156107b65761078781610656565b6107908461066b565b8101602085101561079f578190505b6107b36107ab8561066b565b830182610752565b50505b505050565b600082821c905092915050565b60006107d9600019846008026107bb565b1980831691505092915050565b60006107f283836107c8565b9150826002028217905092915050565b61080b82610421565b67ffffffffffffffff81111561082457610823610195565b5b61082e8254610625565b610839828285610775565b600060209050601f83116001811461086c576000841561085a578287015190505b61086485826107e6565b8655506108cc565b601f19841661087a86610656565b60005b828110156108a25784890151825560018201915060208501945060208101905061087d565b868310156108bf57848901516108bb601f8916826107c8565b8355505b6001600288020188555050505b505050505050565b6125fc806108e36000396000f3fe608060405234801561001057600080fd5b50600436106100ea5760003560e01c8063a672d1001161008c578063bc1b392d11610066578063bc1b392d14610287578063d4d45554146102a5578063f2388acb146102d5578063fb2bedad146102f3576100ea565b8063a672d100146101f7578063a9a52e7e14610227578063b5e2832514610257576100ea565b806345caa117116100c857806345caa1171461017f5780635fdf05d71461019d578063901717d1146101bb578063a1fca2b6146101d9576100ea565b8063085eb2b9146100ef57806312f7411b1461011f578063170147421461014f575b600080fd5b61010960048036038101906101049190611bdd565b610323565b6040516101169190611d3d565b60405180910390f35b61013960048036038101906101349190611d5f565b610425565b6040516101469190611d3d565b60405180910390f35b61016960048036038101906101649190611dd7565b61062b565b6040516101769190611d3d565b60405180910390f35b6101876107b6565b6040516101949190611d3d565b60405180910390f35b6101a5610843565b6040516101b29190611d3d565b60405180910390f35b6101c36108d0565b6040516101d09190611d3d565b60405180910390f35b6101e161095d565b6040516101ee9190611d3d565b60405180910390f35b610211600480360381019061020c9190611bdd565b6109ea565b60405161021e9190611d3d565b60405180910390f35b610241600480360381019061023c9190611d5f565b610d9d565b60405161024e9190611d3d565b60405180910390f35b610271600480360381019061026c9190611d5f565b611020565b60405161027e9190611d3d565b60405180910390f35b61028f6112a6565b60405161029c9190611d3d565b60405180910390f35b6102bf60048036038101906102ba9190611d5f565b611333565b6040516102cc9190611e2f565b60405180910390f35b6102dd6115a3565b6040516102ea9190611e9a565b60405180910390f35b61030d60048036038101906103089190611d5f565b611674565b60405161031a9190611d3d565b60405180910390f35b61032b6118f7565b81600001516000808260000151905060208101519150600082036103cf5773__$7db5d2dbc3ae63372df6c39d501ad0f72a$__6308d78767846040518263ffffffff1660e01b81526004016103809190611f74565b602060405180830381865af415801561039d573d6000803e3d6000fd5b505050506040513d601f19601f820116820180604052508101906103c19190611fab565b6103ca57600080fd5b61041a565b600060208460000151516103e39190612007565b14801561041057506001610100600185604001516104019190612067565b61040b9190612007565b83901c145b61041957600080fd5b5b849350505050919050565b61042d6118f7565b82600001516000808260000151905060208101519150600082036104d15773__$7db5d2dbc3ae63372df6c39d501ad0f72a$__6308d78767846040518263ffffffff1660e01b81526004016104829190611f74565b602060405180830381865af415801561049f573d6000803e3d6000fd5b505050506040513d601f19601f820116820180604052508101906104c39190611fab565b6104cc57600080fd5b61051c565b600060208460000151516104e59190612007565b14801561051257506001610100600185604001516105039190612067565b61050d9190612007565b83901c145b61051b57600080fd5b5b84600001516000808260000151905060208101519150600082036105c05773__$7db5d2dbc3ae63372df6c39d501ad0f72a$__6308d78767846040518263ffffffff1660e01b81526004016105719190611f74565b602060405180830381865af415801561058e573d6000803e3d6000fd5b505050506040513d601f19601f820116820180604052508101906105b29190611fab565b6105bb57600080fd5b61060b565b600060208460000151516105d49190612007565b14801561060157506001610100600185604001516105f29190612067565b6105fc9190612007565b83901c145b61060a57600080fd5b5b61061d896106188a6109ea565b611020565b965050505050505092915050565b6106336118f7565b816000808260000151905060208101519150600082036106d35773__$7db5d2dbc3ae63372df6c39d501ad0f72a$__6308d78767846040518263ffffffff1660e01b81526004016106849190611f74565b602060405180830381865af41580156106a1573d6000803e3d6000fd5b505050506040513d601f19601f820116820180604052508101906106c59190611fab565b6106ce57600080fd5b61071e565b600060208460000151516106e79190612007565b14801561071457506001610100600185604001516107059190612067565b61070f9190612007565b83901c145b61071d57600080fd5b5b604051806020016040528073__$7db5d2dbc3ae63372df6c39d501ad0f72a$__637afa85538860006040518363ffffffff1660e01b8152600401610763929190612253565b600060405180830381865af4158015610780573d6000803e3d6000fd5b505050506040513d6000823e3d601f19601f820116820180604052508101906107a9919061238f565b8152509350505050919050565b6107be6118f7565b604051806020016040528073__$7db5d2dbc3ae63372df6c39d501ad0f72a$__6345caa1176040518163ffffffff1660e01b8152600401600060405180830381865af4158015610812573d6000803e3d6000fd5b505050506040513d6000823e3d601f19601f8201168201806040525081019061083b919061238f565b815250905090565b61084b6118f7565b604051806020016040528073__$7db5d2dbc3ae63372df6c39d501ad0f72a$__635fdf05d76040518163ffffffff1660e01b8152600401600060405180830381865af415801561089f573d6000803e3d6000fd5b505050506040513d6000823e3d601f19601f820116820180604052508101906108c8919061238f565b815250905090565b6108d86118f7565b604051806020016040528073__$7db5d2dbc3ae63372df6c39d501ad0f72a$__63901717d16040518163ffffffff1660e01b8152600401600060405180830381865af415801561092c573d6000803e3d6000fd5b505050506040513d6000823e3d601f19601f82011682018060405250810190610955919061238f565b815250905090565b6109656118f7565b604051806020016040528073__$7db5d2dbc3ae63372df6c39d501ad0f72a$__63a1fca2b66040518163ffffffff1660e01b8152600401600060405180830381865af41580156109b9573d6000803e3d6000fd5b505050506040513d6000823e3d601f19601f820116820180604052508101906109e2919061238f565b815250905090565b6109f26118f7565b8160000151600080826000015190506020810151915060008203610a965773__$7db5d2dbc3ae63372df6c39d501ad0f72a$__6308d78767846040518263ffffffff1660e01b8152600401610a479190611f74565b602060405180830381865af4158015610a64573d6000803e3d6000fd5b505050506040513d601f19601f82011682018060405250810190610a889190611fab565b610a9157600080fd5b610ae1565b60006020846000015151610aaa9190612007565b148015610ad75750600161010060018560400151610ac89190612067565b610ad29190612007565b83901c145b610ae057600080fd5b5b600073__$7db5d2dbc3ae63372df6c39d501ad0f72a$__63bc39804e876000015173__$7db5d2dbc3ae63372df6c39d501ad0f72a$__63bc1b392d6040518163ffffffff1660e01b8152600401600060405180830381865af4158015610b4b573d6000803e3d6000fd5b505050506040513d6000823e3d601f19601f82011682018060405250810190610b74919061238f565b60006040518463ffffffff1660e01b8152600401610b94939291906123e7565b602060405180830381865af4158015610bb1573d6000803e3d6000fd5b505050506040513d601f19601f82011682018060405250810190610bd59190612462565b03610c15576040517f08c379a0000000000000000000000000000000000000000000000000000000008152600401610c0c906124ec565b60405180910390fd5b610d9373__$7db5d2dbc3ae63372df6c39d501ad0f72a$__630e7671f2876000015173__$7db5d2dbc3ae63372df6c39d501ad0f72a$__630a4638fd600073__$7db5d2dbc3ae63372df6c39d501ad0f72a$__635fdf05d76040518163ffffffff1660e01b8152600401600060405180830381865af4158015610c9c573d6000803e3d6000fd5b505050506040513d6000823e3d601f19601f82011682018060405250810190610cc5919061238f565b6040518363ffffffff1660e01b8152600401610ce292919061250c565b600060405180830381865af4158015610cff573d6000803e3d6000fd5b505050506040513d6000823e3d601f19601f82011682018060405250810190610d28919061238f565b60006040518463ffffffff1660e01b8152600401610d4893929190612543565b600060405180830381865af4158015610d65573d6000803e3d6000fd5b505050506040513d6000823e3d601f19601f82011682018060405250810190610d8e919061238f565b61062b565b9350505050919050565b610da56118f7565b8260000151600080826000015190506020810151915060008203610e495773__$7db5d2dbc3ae63372df6c39d501ad0f72a$__6308d78767846040518263ffffffff1660e01b8152600401610dfa9190611f74565b602060405180830381865af4158015610e17573d6000803e3d6000fd5b505050506040513d601f19601f82011682018060405250810190610e3b9190611fab565b610e4457600080fd5b610e94565b60006020846000015151610e5d9190612007565b148015610e8a5750600161010060018560400151610e7b9190612067565b610e859190612007565b83901c145b610e9357600080fd5b5b8460000151600080826000015190506020810151915060008203610f385773__$7db5d2dbc3ae63372df6c39d501ad0f72a$__6308d78767846040518263ffffffff1660e01b8152600401610ee99190611f74565b602060405180830381865af4158015610f06573d6000803e3d6000fd5b505050506040513d601f19601f82011682018060405250810190610f2a9190611fab565b610f3357600080fd5b610f83565b60006020846000015151610f4c9190612007565b148015610f795750600161010060018560400151610f6a9190612067565b610f749190612007565b83901c145b610f8257600080fd5b5b61101273__$7db5d2dbc3ae63372df6c39d501ad0f72a$__6398cdcfb28b600001518b600001516040518363ffffffff1660e01b8152600401610fc792919061258f565b600060405180830381865af4158015610fe4573d6000803e3d6000fd5b505050506040513d6000823e3d601f19601f8201168201806040525081019061100d919061238f565b61062b565b965050505050505092915050565b6110286118f7565b82600001516000808260000151905060208101519150600082036110cc5773__$7db5d2dbc3ae63372df6c39d501ad0f72a$__6308d78767846040518263ffffffff1660e01b815260040161107d9190611f74565b602060405180830381865af415801561109a573d6000803e3d6000fd5b505050506040513d601f19601f820116820180604052508101906110be9190611fab565b6110c757600080fd5b611117565b600060208460000151516110e09190612007565b14801561110d57506001610100600185604001516110fe9190612067565b6111089190612007565b83901c145b61111657600080fd5b5b84600001516000808260000151905060208101519150600082036111bb5773__$7db5d2dbc3ae63372df6c39d501ad0f72a$__6308d78767846040518263ffffffff1660e01b815260040161116c9190611f74565b602060405180830381865af4158015611189573d6000803e3d6000fd5b505050506040513d601f19601f820116820180604052508101906111ad9190611fab565b6111b657600080fd5b611206565b600060208460000151516111cf9190612007565b1480156111fc57506001610100600185604001516111ed9190612067565b6111f79190612007565b83901c145b61120557600080fd5b5b61129873__$7db5d2dbc3ae63372df6c39d501ad0f72a$__63a5d4ca5b8b600001518b6000015160006040518463ffffffff1660e01b815260040161124d93929190612543565b600060405180830381865af415801561126a573d6000803e3d6000fd5b505050506040513d6000823e3d601f19601f82011682018060405250810190611293919061238f565b61062b565b965050505050505092915050565b6112ae6118f7565b604051806020016040528073__$7db5d2dbc3ae63372df6c39d501ad0f72a$__63bc1b392d6040518163ffffffff1660e01b8152600401600060405180830381865af4158015611302573d6000803e3d6000fd5b505050506040513d6000823e3d601f19601f8201168201806040525081019061132b919061238f565b815250905090565b600082600001516000808260000151905060208101519150600082036113d95773__$7db5d2dbc3ae63372df6c39d501ad0f72a$__6308d78767846040518263ffffffff1660e01b815260040161138a9190611f74565b602060405180830381865af41580156113a7573d6000803e3d6000fd5b505050506040513d601f19601f820116820180604052508101906113cb9190611fab565b6113d457600080fd5b611424565b600060208460000151516113ed9190612007565b14801561141a575060016101006001856040015161140b9190612067565b6114159190612007565b83901c145b61142357600080fd5b5b84600001516000808260000151905060208101519150600082036114c85773__$7db5d2dbc3ae63372df6c39d501ad0f72a$__6308d78767846040518263ffffffff1660e01b81526004016114799190611f74565b602060405180830381865af4158015611496573d6000803e3d6000fd5b505050506040513d601f19601f820116820180604052508101906114ba9190611fab565b6114c357600080fd5b611513565b600060208460000151516114dc9190612007565b14801561150957506001610100600185604001516114fa9190612067565b6115049190612007565b83901c145b61151257600080fd5b5b73__$7db5d2dbc3ae63372df6c39d501ad0f72a$__63cd8e0ef78a600001518a600001516040518363ffffffff1660e01b815260040161155492919061258f565b602060405180830381865af4158015611571573d6000803e3d6000fd5b505050506040513d601f19601f820116820180604052508101906115959190611fab565b965050505050505092915050565b6115ab611910565b60006040518060600160405290816000820180546115c8906120ca565b80601f01602080910402602001604051908101604052809291908181526020018280546115f4906120ca565b80156116415780601f1061161657610100808354040283529160200191611641565b820191906000526020600020905b81548152906001019060200180831161162457829003601f168201915b505050505081526020016001820160009054906101000a900460ff16151515158152602001600282015481525050905090565b61167c6118f7565b82600001516000808260000151905060208101519150600082036117205773__$7db5d2dbc3ae63372df6c39d501ad0f72a$__6308d78767846040518263ffffffff1660e01b81526004016116d19190611f74565b602060405180830381865af41580156116ee573d6000803e3d6000fd5b505050506040513d601f19601f820116820180604052508101906117129190611fab565b61171b57600080fd5b61176b565b600060208460000151516117349190612007565b14801561176157506001610100600185604001516117529190612067565b61175c9190612007565b83901c145b61176a57600080fd5b5b846000015160008082600001519050602081015191506000820361180f5773__$7db5d2dbc3ae63372df6c39d501ad0f72a$__6308d78767846040518263ffffffff1660e01b81526004016117c09190611f74565b602060405180830381865af41580156117dd573d6000803e3d6000fd5b505050506040513d601f19601f820116820180604052508101906118019190611fab565b61180a57600080fd5b61185a565b600060208460000151516118239190612007565b14801561185057506001610100600185604001516118419190612067565b61184b9190612007565b83901c145b61185957600080fd5b5b6118e973__$7db5d2dbc3ae63372df6c39d501ad0f72a$__630a4638fd8b600001518b600001516040518363ffffffff1660e01b815260040161189e92919061258f565b600060405180830381865af41580156118bb573d6000803e3d6000fd5b505050506040513d6000823e3d601f19601f820116820180604052508101906118e4919061238f565b61062b565b965050505050505092915050565b604051806020016040528061190a611910565b81525090565b604051806060016040528060608152602001600015158152602001600081525090565b6000604051905090565b600080fd5b600080fd5b600080fd5b6000601f19601f8301169050919050565b7f4e487b7100000000000000000000000000000000000000000000000000000000600052604160045260246000fd5b6119958261194c565b810181811067ffffffffffffffff821117156119b4576119b361195d565b5b80604052505050565b60006119c7611933565b90506119d3828261198c565b919050565b600080fd5b600080fd5b600080fd5b600067ffffffffffffffff821115611a0257611a0161195d565b5b611a0b8261194c565b9050602081019050919050565b82818337600083830152505050565b6000611a3a611a35846119e7565b6119bd565b905082815260208101848484011115611a5657611a556119e2565b5b611a61848285611a18565b509392505050565b600082601f830112611a7e57611a7d6119dd565b5b8135611a8e848260208601611a27565b91505092915050565b60008115159050919050565b611aac81611a97565b8114611ab757600080fd5b50565b600081359050611ac981611aa3565b92915050565b6000819050919050565b611ae281611acf565b8114611aed57600080fd5b50565b600081359050611aff81611ad9565b92915050565b600060608284031215611b1b57611b1a611947565b5b611b2560606119bd565b9050600082013567ffffffffffffffff811115611b4557611b446119d8565b5b611b5184828501611a69565b6000830152506020611b6584828501611aba565b6020830152506040611b7984828501611af0565b60408301525092915050565b600060208284031215611b9b57611b9a611947565b5b611ba560206119bd565b9050600082013567ffffffffffffffff811115611bc557611bc46119d8565b5b611bd184828501611b05565b60008301525092915050565b600060208284031215611bf357611bf261193d565b5b600082013567ffffffffffffffff811115611c1157611c10611942565b5b611c1d84828501611b85565b91505092915050565b600081519050919050565b600082825260208201905092915050565b60005b83811015611c60578082015181840152602081019050611c45565b60008484015250505050565b6000611c7782611c26565b611c818185611c31565b9350611c91818560208601611c42565b611c9a8161194c565b840191505092915050565b611cae81611a97565b82525050565b611cbd81611acf565b82525050565b60006060830160008301518482036000860152611ce08282611c6c565b9150506020830151611cf56020860182611ca5565b506040830151611d086040860182611cb4565b508091505092915050565b60006020830160008301518482036000860152611d308282611cc3565b9150508091505092915050565b60006020820190508181036000830152611d578184611d13565b905092915050565b60008060408385031215611d7657611d7561193d565b5b600083013567ffffffffffffffff811115611d9457611d93611942565b5b611da085828601611b85565b925050602083013567ffffffffffffffff811115611dc157611dc0611942565b5b611dcd85828601611b85565b9150509250929050565b600060208284031215611ded57611dec61193d565b5b600082013567ffffffffffffffff811115611e0b57611e0a611942565b5b611e1784828501611b05565b91505092915050565b611e2981611a97565b82525050565b6000602082019050611e446000830184611e20565b92915050565b60006060830160008301518482036000860152611e678282611c6c565b9150506020830151611e7c6020860182611ca5565b506040830151611e8f6040860182611cb4565b508091505092915050565b60006020820190508181036000830152611eb48184611e4a565b905092915050565b600082825260208201905092915050565b6000611ed882611c26565b611ee28185611ebc565b9350611ef2818560208601611c42565b611efb8161194c565b840191505092915050565b611f0f81611a97565b82525050565b611f1e81611acf565b82525050565b60006060830160008301518482036000860152611f418282611ecd565b9150506020830151611f566020860182611f06565b506040830151611f696040860182611f15565b508091505092915050565b60006020820190508181036000830152611f8e8184611f24565b905092915050565b600081519050611fa581611aa3565b92915050565b600060208284031215611fc157611fc061193d565b5b6000611fcf84828501611f96565b91505092915050565b7f4e487b7100000000000000000000000000000000000000000000000000000000600052601260045260246000fd5b600061201282611acf565b915061201d83611acf565b92508261202d5761202c611fd8565b5b828206905092915050565b7f4e487b7100000000000000000000000000000000000000000000000000000000600052601160045260246000fd5b600061207282611acf565b915061207d83611acf565b925082820390508181111561209557612094612038565b5b92915050565b7f4e487b7100000000000000000000000000000000000000000000000000000000600052602260045260246000fd5b600060028204905060018216806120e257607f821691505b6020821081036120f5576120f461209b565b5b50919050565b60008190508160005260206000209050919050565b6000815461211d816120ca565b6121278186611ebc565b9450600182166000811461214257600181146121585761218b565b60ff19831686528115156020028601935061218b565b612161856120fb565b60005b8381101561218357815481890152600182019150602081019050612164565b808801955050505b50505092915050565b60008160001c9050919050565b600060ff82169050919050565b60006121c16121bc83612194565b6121a1565b9050919050565b6000819050919050565b60006121e56121e083612194565b6121c8565b9050919050565b600060608301600080840185830360008701526122098382612110565b9250506001840154905061221c816121ae565b6122296020870182611f06565b506002840154905061223a816121d2565b6122476040870182611f15565b50819250505092915050565b6000604082019050818103600083015261226d8185611f24565b9050818103602083015261228181846121ec565b90509392505050565b600061229d612298846119e7565b6119bd565b9050828152602081018484840111156122b9576122b86119e2565b5b6122c4848285611c42565b509392505050565b600082601f8301126122e1576122e06119dd565b5b81516122f184826020860161228a565b91505092915050565b60008151905061230981611ad9565b92915050565b60006060828403121561232557612324611947565b5b61232f60606119bd565b9050600082015167ffffffffffffffff81111561234f5761234e6119d8565b5b61235b848285016122cc565b600083015250602061236f84828501611f96565b6020830152506040612383848285016122fa565b60408301525092915050565b6000602082840312156123a5576123a461193d565b5b600082015167ffffffffffffffff8111156123c3576123c2611942565b5b6123cf8482850161230f565b91505092915050565b6123e181611a97565b82525050565b600060608201905081810360008301526124018186611f24565b905081810360208301526124158185611f24565b905061242460408301846123d8565b949350505050565b6000819050919050565b61243f8161242c565b811461244a57600080fd5b50565b60008151905061245c81612436565b92915050565b6000602082840312156124785761247761193d565b5b60006124868482850161244d565b91505092915050565b600082825260208201905092915050565b7f496e766572736f206469207a65726f206e6f6e20646566696e69746f2e000000600082015250565b60006124d6601d8361248f565b91506124e1826124a0565b602082019050919050565b60006020820190508181036000830152612505816124c9565b9050919050565b6000604082019050818103600083015261252681856121ec565b9050818103602083015261253a8184611f24565b90509392505050565b6000606082019050818103600083015261255d8186611f24565b905081810360208301526125718185611f24565b9050818103604083015261258581846121ec565b9050949350505050565b600060408201905081810360008301526125a98185611f24565b905081810360208301526125bd8184611f24565b9050939250505056fea2646970667358221220b8982caff5a8b9cc6d079e0e6e5fa60071925c1a15bca8e5faa38e1ac31bba0b64736f6c634300081b0033",
  "linkReferences": {
    "contracts/BigNumber.sol": {
      "BigNumbers": [
        {
          "length": 20,
          "start": 78
        },
        {
          "length": 20,
          "start": 3118
        },
        {
          "length": 20,
          "start": 3376
        },
        {
          "length": 20,
          "start": 3615
        },
        {
          "length": 20,
          "start": 3890
        },
        {
          "length": 20,
          "start": 4110
        },
        {
          "length": 20,
          "start": 4270
        },
        {
          "length": 20,
          "start": 4411
        },
        {
          "length": 20,
          "start": 4552
        },
        {
          "length": 20,
          "start": 4693
        },
        {
          "length": 20,
          "start": 4853
        },
        {
          "length": 20,
          "start": 5064
        },
        {
          "length": 20,
          "start": 5095
        },
        {
          "length": 20,
          "start": 5373
        },
        {
          "length": 20,
          "start": 5404
        },
        {
          "length": 20,
          "start": 5432
        },
        {
          "length": 20,
          "start": 5800
        },
        {
          "length": 20,
          "start": 6039
        },
        {
          "length": 20,
          "start": 6251
        },
        {
          "length": 20,
          "start": 6443
        },
        {
          "length": 20,
          "start": 6682
        },
        {
          "length": 20,
          "start": 6894
        },
        {
          "length": 20,
          "start": 7070
        },
        {
          "length": 20,
          "start": 7224
        },
        {
          "length": 20,
          "start": 7463
        },
        {
          "length": 20,
          "start": 7672
        },
        {
          "length": 20,
          "start": 8063
        },
        {
          "length": 20,
          "start": 8302
        },
        {
          "length": 20,
          "start": 8514
        }
      ]
    }
  },
  "deployedLinkReferences": {
    "contracts/BigNumber.sol": {
      "BigNumbers": [
        {
          "length": 20,
          "start": 843
        },
        {
          "length": 20,
          "start": 1101
        },
        {
          "length": 20,
          "start": 1340
        },
        {
          "length": 20,
          "start": 1615
        },
        {
          "length": 20,
          "start": 1835
        },
        {
          "length": 20,
          "start": 1995
        },
        {
          "length": 20,
          "start": 2136
        },
        {
          "length": 20,
          "start": 2277
        },
        {
          "length": 20,
          "start": 2418
        },
        {
          "length": 20,
          "start": 2578
        },
        {
          "length": 20,
          "start": 2789
        },
        {
          "length": 20,
          "start": 2820
        },
        {
          "length": 20,
          "start": 3098
        },
        {
          "length": 20,
          "start": 3129
        },
        {
          "length": 20,
          "start": 3157
        },
        {
          "length": 20,
          "start": 3525
        },
        {
          "length": 20,
          "start": 3764
        },
        {
          "length": 20,
          "start": 3976
        },
        {
          "length": 20,
          "start": 4168
        },
        {
          "length": 20,
          "start": 4407
        },
        {
          "length": 20,
          "start": 4619
        },
        {
          "length": 20,
          "start": 4795
        },
        {
          "length": 20,
          "start": 4949
        },
        {
          "length": 20,
          "start": 5188
        },
        {
          "length": 20,
          "start": 5397
        },
        {
          "length": 20,
          "start": 5788
        },
        {
          "length": 20,
          "start": 6027
        },
        {
          "length": 20,
          "start": 6239
        }
      ]
    }
  }
}