{"contracts/BigNumber.sol":{"BigNumbers":{"abi":[{"inputs":[{"components":[{"internalType":"bytes","name":"val","type":"bytes"},{"internalType":"bool","name":"neg","type":"bool"},{"internalType":"uint256","name":"bitlen","type":"uint256"}],"internalType":"struct BigNumber","name":"bn","type":"tuple"},{"internalType":"uint256","name":"bits","type":"uint256"}],"name":"_shr","outputs":[{"components":[{"internalType":"bytes","name":"val","type":"bytes"},{"internalType":"bool","name":"neg","type":"bool"},{"internalType":"uint256","name":"bitlen","type":"uint256"}],"internalType":"struct BigNumber","name":"","type":"tuple"}],"stateMutability":"view","type":"function"},{"inputs":[{"internalType":"bytes","name":"max","type":"bytes"},{"internalType":"bytes","name":"min","type":"bytes"}],"name":"_sub","outputs":[{"internalType":"bytes","name":"","type":"bytes"},{"internalType":"uint256","name":"","type":"uint256"}],"stateMutability":"pure","type":"function"},{"inputs":[{"components":[{"internalType":"bytes","name":"val","type":"bytes"},{"internalType":"bool","name":"neg","type":"bool"},{"internalType":"uint256","name":"bitlen","type":"uint256"}],"internalType":"struct BigNumber","name":"a","type":"tuple"},{"components":[{"internalType":"bytes","name":"val","type":"bytes"},{"internalType":"bool","name":"neg","type":"bool"},{"internalType":"uint256","name":"bitlen","type":"uint256"}],"internalType":"struct BigNumber","name":"b","type":"tuple"}],"name":"add","outputs":[{"components":[{"internalType":"bytes","name":"val","type":"bytes"},{"internalType":"bool","name":"neg","type":"bool"},{"internalType":"uint256","name":"bitlen","type":"uint256"}],"internalType":"struct BigNumber","name":"r","type":"tuple"}],"stateMutability":"pure","type":"function"},{"inputs":[{"components":[{"internalType":"bytes","name":"val","type":"bytes"},{"internalType":"bool","name":"neg","type":"bool"},{"internalType":"uint256","name":"bitlen","type":"uint256"}],"internalType":"struct BigNumber","name":"a","type":"tuple"}],"name":"bitLength","outputs":[{"internalType":"uint256","name":"","type":"uint256"}],"stateMutability":"pure","type":"function"},{"inputs":[{"internalType":"bytes","name":"a","type":"bytes"}],"name":"bitLength","outputs":[{"internalType":"uint256","name":"r","type":"uint256"}],"stateMutability":"pure","type":"function"},{"inputs":[{"internalType":"uint256","name":"a","type":"uint256"}],"name":"bitLength","outputs":[{"internalType":"uint256","name":"r","type":"uint256"}],"stateMutability":"pure","type":"function"},{"inputs":[{"components":[{"internalType":"bytes","name":"val","type":"bytes"},{"internalType":"bool","name":"neg","type":"bool"},{"internalType":"uint256","name":"bitlen","type":"uint256"}],"internalType":"struct BigNumber","name":"a","type":"tuple"},{"components":[{"internalType":"bytes","name":"val","type":"bytes"},{"internalType":"bool","name":"neg","type":"bool"},{"internalType":"uint256","name":"bitlen","type":"uint256"}],"internalType":"struct BigNumber","name":"b","type":"tuple"},{"internalType":"bool","name":"signed","type":"bool"}],"name":"cmp","outputs":[{"internalType":"int256","name":"","type":"int256"}],"stateMutability":"pure","type":"function"},{"inputs":[{"components":[{"internalType":"bytes","name":"val","type":"bytes"},{"internalType":"bool","name":"neg","type":"bool"},{"internalType":"uint256","name":"bitlen","type":"uint256"}],"internalType":"struct BigNumber","name":"a","type":"tuple"},{"components":[{"internalType":"bytes","name":"val","type":"bytes"},{"internalType":"bool","name":"neg","type":"bool"},{"internalType":"uint256","name":"bitlen","type":"uint256"}],"internalType":"struct BigNumber","name":"b","type":"tuple"},{"components":[{"internalType":"bytes","name":"val","type":"bytes"},{"internalType":"bool","name":"neg","type":"bool"},{"internalType":"uint256","name":"bitlen","type":"uint256"}],"internalType":"struct BigNumber","name":"r","type":"tuple"}],"name":"divVerify","outputs":[{"internalType":"bool","name":"","type":"bool"}],"stateMutability":"view","type":"function"},{"inputs":[{"components":[{"internalType":"bytes","name":"val","type":"bytes"},{"internalType":"bool","name":"neg","type":"bool"},{"internalType":"uint256","name":"bitlen","type":"uint256"}],"internalType":"struct BigNumber","name":"a","type":"tuple"},{"components":[{"internalType":"bytes","name":"val","type":"bytes"},{"internalType":"bool","name":"neg","type":"bool"},{"internalType":"uint256","name":"bitlen","type":"uint256"}],"internalType":"struct BigNumber","name":"b","type":"tuple"}],"name":"eq","outputs":[{"internalType":"bool","name":"","type":"bool"}],"stateMutability":"pure","type":"function"},{"inputs":[{"components":[{"internalType":"bytes","name":"val","type":"bytes"},{"internalType":"bool","name":"neg","type":"bool"},{"internalType":"uint256","name":"bitlen","type":"uint256"}],"internalType":"struct BigNumber","name":"a","type":"tuple"},{"components":[{"internalType":"bytes","name":"val","type":"bytes"},{"internalType":"bool","name":"neg","type":"bool"},{"internalType":"uint256","name":"bitlen","type":"uint256"}],"internalType":"struct BigNumber","name":"b","type":"tuple"}],"name":"gt","outputs":[{"internalType":"bool","name":"","type":"bool"}],"stateMutability":"pure","type":"function"},{"inputs":[{"components":[{"internalType":"bytes","name":"val","type":"bytes"},{"internalType":"bool","name":"neg","type":"bool"},{"internalType":"uint256","name":"bitlen","type":"uint256"}],"internalType":"struct BigNumber","name":"a","type":"tuple"},{"components":[{"internalType":"bytes","name":"val","type":"bytes"},{"internalType":"bool","name":"neg","type":"bool"},{"internalType":"uint256","name":"bitlen","type":"uint256"}],"internalType":"struct BigNumber","name":"b","type":"tuple"}],"name":"gte","outputs":[{"internalType":"bool","name":"","type":"bool"}],"stateMutability":"pure","type":"function"},{"inputs":[{"components":[{"internalType":"bytes","name":"val","type":"bytes"},{"internalType":"bool","name":"neg","type":"bool"},{"internalType":"uint256","name":"bitlen","type":"uint256"}],"internalType":"struct BigNumber","name":"a","type":"tuple"}],"name":"hash","outputs":[{"internalType":"bytes32","name":"h","type":"bytes32"}],"stateMutability":"pure","type":"function"},{"inputs":[{"internalType":"uint256","name":"val","type":"uint256"},{"internalType":"bool","name":"neg","type":"bool"}],"name":"init","outputs":[{"components":[{"internalType":"bytes","name":"val","type":"bytes"},{"internalType":"bool","name":"neg","type":"bool"},{"internalType":"uint256","name":"bitlen","type":"uint256"}],"internalType":"struct BigNumber","name":"","type":"tuple"}],"stateMutability":"view","type":"function"},{"inputs":[{"internalType":"bytes","name":"val","type":"bytes"},{"internalType":"bool","name":"neg","type":"bool"},{"internalType":"uint256","name":"bitlen","type":"uint256"}],"name":"init_","outputs":[{"components":[{"internalType":"bytes","name":"val","type":"bytes"},{"internalType":"bool","name":"neg","type":"bool"},{"internalType":"uint256","name":"bitlen","type":"uint256"}],"internalType":"struct BigNumber","name":"","type":"tuple"}],"stateMutability":"view","type":"function"},{"inputs":[{"internalType":"bytes","name":"val","type":"bytes"},{"internalType":"bool","name":"neg","type":"bool"}],"name":"init__","outputs":[{"components":[{"internalType":"bytes","name":"val","type":"bytes"},{"internalType":"bool","name":"neg","type":"bool"},{"internalType":"uint256","name":"bitlen","type":"uint256"}],"internalType":"struct BigNumber","name":"","type":"tuple"}],"stateMutability":"view","type":"function"},{"inputs":[{"components":[{"internalType":"bytes","name":"val","type":"bytes"},{"internalType":"bool","name":"neg","type":"bool"},{"internalType":"uint256","name":"bitlen","type":"uint256"}],"internalType":"struct BigNumber","name":"a","type":"tuple"}],"name":"isOdd","outputs":[{"internalType":"bool","name":"r","type":"bool"}],"stateMutability":"pure","type":"function"},{"inputs":[{"components":[{"internalType":"bytes","name":"val","type":"bytes"},{"internalType":"bool","name":"neg","type":"bool"},{"internalType":"uint256","name":"bitlen","type":"uint256"}],"internalType":"struct BigNumber","name":"a","type":"tuple"}],"name":"isZero","outputs":[{"internalType":"bool","name":"","type":"bool"}],"stateMutability":"pure","type":"function"},{"inputs":[{"internalType":"bytes","name":"a","type":"bytes"}],"name":"isZero","outputs":[{"internalType":"bool","name":"","type":"bool"}],"stateMutability":"pure","type":"function"},{"inputs":[{"components":[{"internalType":"bytes","name":"val","type":"bytes"},{"internalType":"bool","name":"neg","type":"bool"},{"internalType":"uint256","name":"bitlen","type":"uint256"}],"internalType":"struct BigNumber","name":"a","type":"tuple"},{"components":[{"internalType":"bytes","name":"val","type":"bytes"},{"internalType":"bool","name":"neg","type":"bool"},{"internalType":"uint256","name":"bitlen","type":"uint256"}],"internalType":"struct BigNumber","name":"b","type":"tuple"}],"name":"lt","outputs":[{"internalType":"bool","name":"","type":"bool"}],"stateMutability":"pure","type":"function"},{"inputs":[{"components":[{"internalType":"bytes","name":"val","type":"bytes"},{"internalType":"bool","name":"neg","type":"bool"},{"internalType":"uint256","name":"bitlen","type":"uint256"}],"internalType":"struct BigNumber","name":"a","type":"tuple"},{"components":[{"internalType":"bytes","name":"val","type":"bytes"},{"internalType":"bool","name":"neg","type":"bool"},{"internalType":"uint256","name":"bitlen","type":"uint256"}],"internalType":"struct BigNumber","name":"b","type":"tuple"}],"name":"lte","outputs":[{"internalType":"bool","name":"","type":"bool"}],"stateMutability":"pure","type":"function"},{"inputs":[{"components":[{"internalType":"bytes","name":"val","type":"bytes"},{"internalType":"bool","name":"neg","type":"bool"},{"internalType":"uint256","name":"bitlen","type":"uint256"}],"internalType":"struct BigNumber","name":"a","type":"tuple"},{"components":[{"internalType":"bytes","name":"val","type":"bytes"},{"internalType":"bool","name":"neg","type":"bool"},{"internalType":"uint256","name":"bitlen","type":"uint256"}],"internalType":"struct BigNumber","name":"n","type":"tuple"}],"name":"mod","outputs":[{"components":[{"internalType":"bytes","name":"val","type":"bytes"},{"internalType":"bool","name":"neg","type":"bool"},{"internalType":"uint256","name":"bitlen","type":"uint256"}],"internalType":"struct BigNumber","name":"","type":"tuple"}],"stateMutability":"view","type":"function"},{"inputs":[{"components":[{"internalType":"bytes","name":"val","type":"bytes"},{"internalType":"bool","name":"neg","type":"bool"},{"internalType":"uint256","name":"bitlen","type":"uint256"}],"internalType":"struct BigNumber","name":"a","type":"tuple"},{"components":[{"internalType":"bytes","name":"val","type":"bytes"},{"internalType":"bool","name":"neg","type":"bool"},{"internalType":"uint256","name":"bitlen","type":"uint256"}],"internalType":"struct BigNumber","name":"e","type":"tuple"},{"components":[{"internalType":"bytes","name":"val","type":"bytes"},{"internalType":"bool","name":"neg","type":"bool"},{"internalType":"uint256","name":"bitlen","type":"uint256"}],"internalType":"struct BigNumber","name":"n","type":"tuple"}],"name":"modexp","outputs":[{"components":[{"internalType":"bytes","name":"val","type":"bytes"},{"internalType":"bool","name":"neg","type":"bool"},{"internalType":"uint256","name":"bitlen","type":"uint256"}],"internalType":"struct BigNumber","name":"","type":"tuple"}],"stateMutability":"view","type":"function"},{"inputs":[{"components":[{"internalType":"bytes","name":"val","type":"bytes"},{"internalType":"bool","name":"neg","type":"bool"},{"internalType":"uint256","name":"bitlen","type":"uint256"}],"internalType":"struct BigNumber","name":"a","type":"tuple"},{"components":[{"internalType":"bytes","name":"val","type":"bytes"},{"internalType":"bool","name":"neg","type":"bool"},{"internalType":"uint256","name":"bitlen","type":"uint256"}],"internalType":"struct BigNumber","name":"ai","type":"tuple"},{"components":[{"internalType":"bytes","name":"val","type":"bytes"},{"internalType":"bool","name":"neg","type":"bool"},{"internalType":"uint256","name":"bitlen","type":"uint256"}],"internalType":"struct BigNumber","name":"e","type":"tuple"},{"components":[{"internalType":"bytes","name":"val","type":"bytes"},{"internalType":"bool","name":"neg","type":"bool"},{"internalType":"uint256","name":"bitlen","type":"uint256"}],"internalType":"struct BigNumber","name":"n","type":"tuple"}],"name":"modexp","outputs":[{"components":[{"internalType":"bytes","name":"val","type":"bytes"},{"internalType":"bool","name":"neg","type":"bool"},{"internalType":"uint256","name":"bitlen","type":"uint256"}],"internalType":"struct BigNumber","name":"","type":"tuple"}],"stateMutability":"view","type":"function"},{"inputs":[{"components":[{"internalType":"bytes","name":"val","type":"bytes"},{"internalType":"bool","name":"neg","type":"bool"},{"internalType":"uint256","name":"bitlen","type":"uint256"}],"internalType":"struct BigNumber","name":"a","type":"tuple"},{"components":[{"internalType":"bytes","name":"val","type":"bytes"},{"internalType":"bool","name":"neg","type":"bool"},{"internalType":"uint256","name":"bitlen","type":"uint256"}],"internalType":"struct BigNumber","name":"n","type":"tuple"},{"components":[{"internalType":"bytes","name":"val","type":"bytes"},{"internalType":"bool","name":"neg","type":"bool"},{"internalType":"uint256","name":"bitlen","type":"uint256"}],"internalType":"struct BigNumber","name":"r","type":"tuple"}],"name":"modinvVerify","outputs":[{"internalType":"bool","name":"","type":"bool"}],"stateMutability":"view","type":"function"},{"inputs":[{"components":[{"internalType":"bytes","name":"val","type":"bytes"},{"internalType":"bool","name":"neg","type":"bool"},{"internalType":"uint256","name":"bitlen","type":"uint256"}],"internalType":"struct BigNumber","name":"a","type":"tuple"},{"components":[{"internalType":"bytes","name":"val","type":"bytes"},{"internalType":"bool","name":"neg","type":"bool"},{"internalType":"uint256","name":"bitlen","type":"uint256"}],"internalType":"struct BigNumber","name":"b","type":"tuple"},{"components":[{"internalType":"bytes","name":"val","type":"bytes"},{"internalType":"bool","name":"neg","type":"bool"},{"internalType":"uint256","name":"bitlen","type":"uint256"}],"internalType":"struct BigNumber","name":"n","type":"tuple"}],"name":"modmul","outputs":[{"components":[{"internalType":"bytes","name":"val","type":"bytes"},{"internalType":"bool","name":"neg","type":"bool"},{"internalType":"uint256","name":"bitlen","type":"uint256"}],"internalType":"struct BigNumber","name":"","type":"tuple"}],"stateMutability":"view","type":"function"},{"inputs":[{"components":[{"internalType":"bytes","name":"val","type":"bytes"},{"internalType":"bool","name":"neg","type":"bool"},{"internalType":"uint256","name":"bitlen","type":"uint256"}],"internalType":"struct BigNumber","name":"a","type":"tuple"},{"components":[{"internalType":"bytes","name":"val","type":"bytes"},{"internalType":"bool","name":"neg","type":"bool"},{"internalType":"uint256","name":"bitlen","type":"uint256"}],"internalType":"struct BigNumber","name":"b","type":"tuple"}],"name":"mul","outputs":[{"components":[{"internalType":"bytes","name":"val","type":"bytes"},{"internalType":"bool","name":"neg","type":"bool"},{"internalType":"uint256","name":"bitlen","type":"uint256"}],"internalType":"struct BigNumber","name":"r","type":"tuple"}],"stateMutability":"view","type":"function"},{"inputs":[],"name":"one","outputs":[{"components":[{"internalType":"bytes","name":"val","type":"bytes"},{"internalType":"bool","name":"neg","type":"bool"},{"internalType":"uint256","name":"bitlen","type":"uint256"}],"internalType":"struct BigNumber","name":"","type":"tuple"}],"stateMutability":"pure","type":"function"},{"inputs":[{"components":[{"internalType":"bytes","name":"val","type":"bytes"},{"internalType":"bool","name":"neg","type":"bool"},{"internalType":"uint256","name":"bitlen","type":"uint256"}],"internalType":"struct BigNumber","name":"a","type":"tuple"},{"internalType":"uint256","name":"e","type":"uint256"}],"name":"pow","outputs":[{"components":[{"internalType":"bytes","name":"val","type":"bytes"},{"internalType":"bool","name":"neg","type":"bool"},{"internalType":"uint256","name":"bitlen","type":"uint256"}],"internalType":"struct BigNumber","name":"","type":"tuple"}],"stateMutability":"view","type":"function"},{"inputs":[{"components":[{"internalType":"bytes","name":"val","type":"bytes"},{"internalType":"bool","name":"neg","type":"bool"},{"internalType":"uint256","name":"bitlen","type":"uint256"}],"internalType":"struct BigNumber","name":"a","type":"tuple"},{"internalType":"uint256","name":"bits","type":"uint256"}],"name":"shl","outputs":[{"components":[{"internalType":"bytes","name":"val","type":"bytes"},{"internalType":"bool","name":"neg","type":"bool"},{"internalType":"uint256","name":"bitlen","type":"uint256"}],"internalType":"struct BigNumber","name":"","type":"tuple"}],"stateMutability":"view","type":"function"},{"inputs":[{"components":[{"internalType":"bytes","name":"val","type":"bytes"},{"internalType":"bool","name":"neg","type":"bool"},{"internalType":"uint256","name":"bitlen","type":"uint256"}],"internalType":"struct BigNumber","name":"a","type":"tuple"},{"internalType":"uint256","name":"bits","type":"uint256"}],"name":"shr","outputs":[{"components":[{"internalType":"bytes","name":"val","type":"bytes"},{"internalType":"bool","name":"neg","type":"bool"},{"internalType":"uint256","name":"bitlen","type":"uint256"}],"internalType":"struct BigNumber","name":"","type":"tuple"}],"stateMutability":"view","type":"function"},{"inputs":[{"components":[{"internalType":"bytes","name":"val","type":"bytes"},{"internalType":"bool","name":"neg","type":"bool"},{"internalType":"uint256","name":"bitlen","type":"uint256"}],"internalType":"struct BigNumber","name":"a","type":"tuple"},{"components":[{"internalType":"bytes","name":"val","type":"bytes"},{"internalType":"bool","name":"neg","type":"bool"},{"internalType":"uint256","name":"bitlen","type":"uint256"}],"internalType":"struct BigNumber","name":"b","type":"tuple"}],"name":"sub","outputs":[{"components":[{"internalType":"bytes","name":"val","type":"bytes"},{"internalType":"bool","name":"neg","type":"bool"},{"internalType":"uint256","name":"bitlen","type":"uint256"}],"internalType":"struct BigNumber","name":"r","type":"tuple"}],"stateMutability":"pure","type":"function"},{"inputs":[],"name":"two","outputs":[{"components":[{"internalType":"bytes","name":"val","type":"bytes"},{"internalType":"bool","name":"neg","type":"bool"},{"internalType":"uint256","name":"bitlen","type":"uint256"}],"internalType":"struct BigNumber","name":"","type":"tuple"}],"stateMutability":"pure","type":"function"},{"inputs":[{"components":[{"internalType":"bytes","name":"val","type":"bytes"},{"internalType":"bool","name":"neg","type":"bool"},{"internalType":"uint256","name":"bitlen","type":"uint256"}],"internalType":"struct BigNumber","name":"bn","type":"tuple"}],"name":"verify","outputs":[],"stateMutability":"pure","type":"function"},{"inputs":[],"name":"zero","outputs":[{"components":[{"internalType":"bytes","name":"val","type":"bytes"},{"internalType":"bool","name":"neg","type":"bool"},{"internalType":"uint256","name":"bitlen","type":"uint256"}],"internalType":"struct BigNumber","name":"","type":"tuple"}],"stateMutability":"pure","type":"function"}],"evm":{"bytecode":{"linkReferences":{},"object":"612fd1610052600b82828239805160001a6073146045577f4e487b7100000000000000000000000000000000000000000000000000000000600052600060045260246000fd5b30600052607381538281f3fe73000000000000000000000000000000000000000030146080604052600436106102105760003560e01c8063901717d111610124578063bc39804e116100b7578063eb11d32e11610086578063eb11d32e1461073c578063ecdafa1f1461076c578063ee4a4e4e1461079c578063f6b508ff146107cc578063fad242a8146107fc57610210565b8063bc39804e1461067c578063cb5c2316146106ac578063cd8e0ef7146106dc578063e41bbcf81461070c57610210565b8063a5d4ca5b116100f3578063a5d4ca5b146105ce578063aa7312f6146105fe578063b1d74ee91461062e578063bc1b392d1461065e57610210565b8063901717d114610520578063904a94991461053e57806398cdcfb21461056e578063a48a622a1461059e57610210565b806363300952116101a757806375a01da51161017657806375a01da5146104305780637afa8553146104605780637b19cc9a1461049057806380147a8e146104c05780638b78e386146104f057610210565b806363300952146103705780636efac6c7146103a057806371f83991146103d057806372864ff31461040057610210565b806340957f72116101e357806340957f72146102d657806344b41c37146103065780635bb65d1a146103365780635fdf05d71461035257610210565b806308d78767146102155780630a4638fd146102455780630e7671f2146102755780632d577201146102a5575b600080fd5b61022f600480360381019061022a91906125ea565b61082c565b60405161023c9190612642565b60405180910390f35b61025f600480360381019061025a919061265d565b610871565b60405161026c91906127c2565b60405180910390f35b61028f600480360381019061028a91906127e4565b610ac0565b60405161029c91906127c2565b60405180910390f35b6102bf60048036038101906102ba919061288b565b610bbd565b6040516102cd92919061295c565b60405180910390f35b6102f060048036038101906102eb919061298c565b610ce8565b6040516102fd91906127c2565b60405180910390f35b610320600480360381019061031b91906125ea565b610d23565b60405161032d91906129cc565b60405180910390f35b610350600480360381019061034b91906125ea565b610d39565b005b61035a610db9565b60405161036791906127c2565b60405180910390f35b61038a600480360381019061038591906129e7565b610dfb565b60405161039791906127c2565b60405180910390f35b6103ba60048036038101906103b591906129e7565b610f5d565b6040516103c791906127c2565b60405180910390f35b6103ea60048036038101906103e5919061265d565b610f86565b6040516103f79190612642565b60405180910390f35b61041a60048036038101906104159190612a43565b610fdc565b60405161042791906127c2565b60405180910390f35b61044a600480360381019061044591906129e7565b6110f0565b60405161045791906127c2565b60405180910390f35b61047a6004803603810190610475919061265d565b61111e565b60405161048791906127c2565b60405180910390f35b6104aa60048036038101906104a59190612b1a565b611140565b6040516104b791906129cc565b60405180910390f35b6104da60048036038101906104d5919061265d565b611180565b6040516104e79190612642565b60405180910390f35b61050a600480360381019061050591906127e4565b6111b7565b6040516105179190612642565b60405180910390f35b6105286113d8565b60405161053591906127c2565b60405180910390f35b610558600480360381019061055391906125ea565b61141a565b6040516105659190612b7c565b60405180910390f35b6105886004803603810190610583919061265d565b61142e565b60405161059591906127c2565b60405180910390f35b6105b860048036038101906105b39190612b97565b611656565b6040516105c591906127c2565b60405180910390f35b6105e860048036038101906105e391906127e4565b611672565b6040516105f591906127c2565b60405180910390f35b6106186004803603810190610613919061265d565b611696565b6040516106259190612642565b60405180910390f35b6106486004803603810190610643919061265d565b6116c2565b60405161065591906127c2565b60405180910390f35b610666611767565b60405161067391906127c2565b60405180910390f35b61069660048036038101906106919190612bf3565b6117a9565b6040516106a39190612c97565b60405180910390f35b6106c660048036038101906106c191906127e4565b611986565b6040516106d39190612642565b60405180910390f35b6106f660048036038101906106f1919061265d565b6119d9565b6040516107039190612642565b60405180910390f35b61072660048036038101906107219190612cb2565b611a05565b60405161073391906129cc565b60405180910390f35b610756600480360381019061075191906129e7565b611c5b565b60405161076391906127c2565b60405180910390f35b6107866004803603810190610781919061265d565b611c84565b6040516107939190612642565b60405180910390f35b6107b660048036038101906107b191906125ea565b611ccf565b6040516107c39190612642565b60405180910390f35b6107e660048036038101906107e19190612cdf565b611ce4565b6040516107f391906127c2565b60405180910390f35b61081660048036038101906108119190612b1a565b611d00565b6040516108239190612642565b60405180910390f35b600061083b8260000151611d00565b801561084c57506020826000015151145b801561085a57508160200151155b801561086a575060008260400151145b9050919050565b610879612375565b60008360400151148015610891575060008260400151145b156108a55761089e611767565b9050610aba565b60606000806108b6868660006117a9565b91508560200151806108c9575084602001515b15610a0057856020015180156108e0575084602001515b1561098c576001820361091d576108ff86600001518660000151610bbd565b80925081945050506001846020019015159081151581525050610987565b7fffffffffffffffffffffffffffffffffffffffffffffffffffffffffffffffff82036109745761095685600001518760000151610bbd565b80925081945050506000846020019015159081151581525050610986565b61097c611767565b9350505050610aba565b5b6109fb565b600082126109b8576109ab866000015186600001518860400151611d57565b80925081945050506109d8565b6109cf856000015187600001518760400151611d57565b80925081945050505b85602001516109e85760006109eb565b60015b8460200190151590811515815250505b610aa3565b60018203610a3857610a1a86600001518660000151610bbd565b80925081945050506000846020019015159081151581525050610aa2565b7fffffffffffffffffffffffffffffffffffffffffffffffffffffffffffffffff8203610a8f57610a7185600001518760000151610bbd565b80925081945050506001846020019015159081151581525050610aa1565b610a97611767565b9350505050610aba565b5b5b828460000181905250808460400181815250505050505b92915050565b610ac8612375565b6000151583602001511515148015610ae857506000151582602001511515145b8015610afe5750610afc8260000151611d00565b155b610b0757600080fd5b6000610b20856000015185600001518560000151611e8d565b90506000610b2d82611140565b905060008103610b4857610b3f611767565b92505050610bb6565b85602001518015610b5e5750610b5d85611ccf565b5b15610b9357610b8a6040518060600160405280848152602001600115158152602001838152508561142e565b92505050610bb6565b604051806060016040528083815260200160001515815260200182815250925050505b9392505050565b6060600060606000807fffffffffffffffffffffffffffffffffffffffffffffffffffffffffffffffff90505987518751808203828b01828b0184860160208101865b600080821403610c9057845186821160018114610c41578c8203855260018d14600083141660018114610c365760009d50610c3b565b60019d505b50610c77565b85518d81840303865260018e148d8214168e820184101760018114610c695760009e50610c6e565b60019e505b50602087039650505b5060208403935060208603955050602081039050610c00565b506020820191505b6000825103610cb857602088019750602087039650602082019150610c98565b879a50868b528060405250505050505050506000610cd584611140565b9050838195509550505050509250929050565b610cf0612375565b610d1b83604051602001610d049190612d6f565b604051602081830303815290604052836000611f67565b905092915050565b6000610d328260000151611140565b9050919050565b600080826000015190506020810151915060008203610d6957610d5b8361082c565b610d6457600080fd5b610db4565b60006020846000015151610d7d9190612db9565b148015610daa5750600161010060018560400151610d9b9190612e19565b610da59190612db9565b83901c145b610db357600080fd5b5b505050565b610dc1612375565b6040518060600160405280604051806040016040528060208152602001600281525081526020016000151581526020016002815250905090565b610e03612375565b6000835151905083604001518310610e52576040518060600160405280604051806040016040528060208152602001600081525081526020016000151581526020016000815250915050610f57565b828460400151610e629190612e19565b846040018181525050610100831461010084111715610e935760206101008404028103905080845152610100830692505b83516000600885061460018114610f04576000808661010003858501865b600080821403610efa576020811460018114610ed35760208303519550610ed8565b600095505b5081518a1c935084831b94508484178252602082039150602081039050610eb1565b5050505050610f32565b6008850486518051602081018383018482038282848760046101c2fa6000601f840153848652505050505050505b5060208101600081511460018103610f4f57602083510382528187525b505050839150505b92915050565b610f65612375565b826020015115610f7457600080fd5b610f7e8383610dfb565b905092915050565b600080610f95848460016117a9565b90507fffffffffffffffffffffffffffffffffffffffffffffffffffffffffffffffff811480610fc55750600081145b610fd0576000610fd3565b60015b91505092915050565b610fe4612375565b8460200151158015610ff7575082602001515b61100057600080fd5b816020015115801561101c575061101a8260000151611d00565b155b61102557600080fd5b611030858386611986565b61103957600080fd5b6000611052856000015185600001518560000151611e8d565b9050600061105f82611140565b90506000810361107a57611071611767565b925050506110e8565b85602001518015611090575061108f85611ccf565b5b156110c5576110bc6040518060600160405280848152602001600115158152602001838152508561142e565b925050506110e8565b604051806060016040528083815260200160001515815260200182815250925050505b949350505050565b6110f8612375565b61111683611107846000610ce8565b6111118686612034565b610ac0565b905092915050565b611126612375565b611138836111326113d8565b84610ac0565b905092915050565b600061114b82611d00565b15611159576000905061117b565b60006020830151905061116b81611a05565b9150600860208451030282019150505b919050565b60008061118f848460016117a9565b905060018114806111a05750600081145b6111ab5760006111ae565b60015b91505092915050565b60007fffffffffffffffffffffffffffffffffffffffffffffffffffffffffffffffff6111e6858560006117a9565b036112135760006112006111f8611767565b8460006117a9565b1461120a57600080fd5b600190506113d1565b600084602001518015611227575083602001515b806112425750846020015115801561124157508360200151155b5b90508061125357826020015161125a565b8260200151155b61126357600080fd5b600061127885611271611767565b60016117a9565b0361128257600080fd5b6000604051806060016040528087602001511515151581526020018660200151151515158152602001856020015115151515815250905060008660200190151590811515815250506000856020019015159081151581525050600084602001901515908115158152505060006112f886866116c2565b90506000611308828960016117a9565b0361131957600193505050506113d1565b600061132d886113276113d8565b84610ac0565b9050600061134661133e848461142e565b8a60016117a9565b1461135057600080fd5b8260006003811061136457611363612e4d565b5b60200201518860200190151590811515815250508260016003811061138c5761138b612e4d565b5b6020020151876020019015159081151581525050826002600381106113b4576113b3612e4d565b5b602002015186602001901515908115158152505060019450505050505b9392505050565b6113e0612375565b6040518060600160405280604051806040016040528060208152602001600181525081526020016000151581526020016001815250905090565b600060608251510160208301209050919050565b611436612375565b6000836040015114801561144e575060008260400151145b156114625761145b611767565b9050611650565b600083604001510361147657819050611650565b600082604001510361148a57829050611650565b606060008061149b868660006117a9565b90508560200151806114ae575084602001515b156115db57856020015180156114c5575084602001515b1561152c57600081126114f6576114e9866000015186600001518860400151611d57565b8093508194505050611516565b61150d856000015187600001518760400151611d57565b80935081945050505b60018460200190151590811515815250506115d6565b600181036115675761154686600001518660000151610bbd565b809350819450505085602001518460200190151590811515815250506115d5565b7fffffffffffffffffffffffffffffffffffffffffffffffffffffffffffffffff81036115c2576115a085600001518760000151610bbd565b80935081945050508560200151158460200190151590811515815250506115d4565b6115ca611767565b9350505050611650565b5b5b611639565b60008112611607576115fa866000015186600001518860400151611d57565b8093508194505050611627565b61161e856000015187600001518760400151611d57565b80935081945050505b60008460200190151590811515815250505b828460000181905250818460400181815250505050505b92915050565b61165e612375565b61166a83836000611f67565b905092915050565b61167a612375565b61168d61168785856116c2565b8361111e565b90509392505050565b6000806116a5848460016117a9565b9050600181146116b65760006116b9565b60015b91505092915050565b6116ca612375565b60006116d6848461142e565b905060006116f6826116e6610db9565b6116f1856002612034565b610ac0565b905061170285856119d9565b6117515760006117128686610871565b9050600061173282611722610db9565b61172d856002612034565b610ac0565b90506117486117418483610871565b6002610dfb565b9450505061175f565b61175c816002610dfb565b92505b505092915050565b61176f612375565b6040518060600160405280604051806040016040528060208152602001600081525081526020016000151581526020016000815250905090565b60008060019050821561187457846020015180156117c8575083602001515b156117f5577fffffffffffffffffffffffffffffffffffffffffffffffffffffffffffffffff9050611873565b600015158560200151151514801561181557506001151584602001511515145b1561182457600191505061197f565b600115158560200151151514801561184457506000151584602001511515145b15611872577fffffffffffffffffffffffffffffffffffffffffffffffffffffffffffffffff91505061197f565b5b5b83604001518560400151111561188d578091505061197f565b8460400151846040015111156118d157807fffffffffffffffffffffffffffffffffffffffffffffffffffffffffffffffff6118c99190612e7c565b91505061197f565b6000806000806000896000015151905060208a510194506020895101935060005b81811015611973578086015193508085015192508284111561191d578697505050505050505061197f565b8383111561195f57867fffffffffffffffffffffffffffffffffffffffffffffffffffffffffffffffff6119519190612e7c565b97505050505050505061197f565b60208161196c9190612ef4565b90506118f2565b50600096505050505050505b9392505050565b6000836020015115801561199c57508260200151155b6119a557600080fd5b60006119c46119b5868587611672565b6119bd6113d8565b60016117a9565b146119ce57600080fd5b600190509392505050565b6000806119e8848460016117a9565b9050600081146119f95760006119fc565b60015b91505092915050565b600080821460018114611c50578260018403935060028404841793506004840484179350601084048417935061010084048417935062010000840484179350640100000000840484179350680100000000000000008404841793507001000000000000000000000000000000008404841793506001840193506040517ff8f9cbfae6cc78fbefe7cdc3a1793dfcf4f0e8bbd8cec470b6a28a7a5a3e1efd81527ff5ecf1b3e9debc68e1d9cfabc5997135bfb7a7a3938b7b606b5b4b3f2f1f0ffe60208201527ff6e4ed9ff2d6b458eadcdf97bd91692de2d4da8fd2d0ac50c6ae9a827252361660408201527fc8c0b887b0a8a4489c948c7f847c6125746c645c544c444038302820181008ff60608201527ff7cae577eec2a03cf3bad76fb589591debb2dd67e0aa9834bea6925f6a4a2e0e60808201527fe39ed557db96902cd38ed14fad815115c786af479b7e8324736353433727170760a08201527fc976c13bb96e881cb166a933a55e490d9d56952b8d4e801485467d236242260660c08201527f753a6d1b65325d0c552a4d1345224105391a310b29122104190a11030902010060e082015261010081016040527e818283848586878898a8b8c8d8e8f929395969799a9b9d9e9faaeb6bedeeff7f01000000000000000000000000000000000000000000000000000000000000008082880204818160ff038501510496507f800000000000000000000000000000000000000000000000000000000000000085116101000287019650600060018603861603611c46576001870196505b5050505050611c55565b600091505b50919050565b611c63612375565b826020015115611c7257600080fd5b611c7c83836120b0565b905092915050565b600080611c93848460016117a9565b90507fffffffffffffffffffffffffffffffffffffffffffffffffffffffffffffffff8114611cc3576000611cc6565b60015b91505092915050565b60008151518251016002815106915050919050565b611cec612375565b611cf7848484611f67565b90509392505050565b600080600060208401905060005b8451811015611d4a57815192506000831115611d305760009350505050611d52565b602082019150602081611d439190612ef4565b9050611d0e565b506001925050505b919050565b606060006060596000600160000388518901885189018a5160208601018b515b600080821403611e235783518c518e5103821160018114611dbb578782018452600188148288141660018114611db05760009850611db5565b600198505b50611e0a565b8451888184010185528881038803831160018114611dfc576000821160008b11178985141660018114611df15760009a50611df6565b60019a505b50611e01565b600199505b50602086039550505b5060208303925060208503945050602081039050611d77565b506000851460018114611e395760018252611e40565b6020870196505b50859650846020028c510187526020875101870160405260208701516001816101008d061c14600182141715611e775760018b019a505b5050505050505080849250925050935093915050565b606083518351835160405183815282602082015281604082015283606082018560208b0160046101c2fa84606001848184018660208c0160046101c2fa91508481019050838184018560208b0160046101c2fa91508160008103611eed57fe5b5083810190508360608401828560056105465a03fa91508160008103611f0f57fe5b5083606084015b60006020831403611f4657600081511460018114611f345750611f46565b60208201915050602082039150611f16565b60208103985081895285856060010160405250505050505050509392505050565b611f6f612375565b6020840184516000596000602084061460018114611fa157602084066020036020818401019350808501835250611fab565b6020820192508382525b508282848660046101c2fa506020815101810160405280515b60006020821403611ff757600060208301511460018114611fe55750611ff7565b60208301925050602081039050611fc4565b8082528186528760208701525050505050600082146120165781612024565b6120238160000151611140565b5b8160400181815250509392505050565b61203c612375565b6000604051806040016040528060208152602001600081525090506000836040860151029050600161010082061b6020600161010084040102835280602084015260208351018301604052506040518060600160405280838152602001600015158152602001828152509250505092915050565b6120b8612375565b60008214806120cb575060008360400151145b156120d85782905061236f565b6000836000015151905060006001610100600187604001516120fa9190612e19565b6121049190612db9565b61210e9190612ef4565b90506000816101006121209190612e19565b6101008661212e9190612db9565b101561213b57600061213e565b60015b60ff166101008661214f9190612f28565b6121599190612ef4565b9050600060208261216a9190612f59565b846121759190612ef4565b90508587604001516121879190612ef4565b8560400181815250508660200151856020019015159081151581525050610100866121b29190612db9565b9550606060006040518381528381016000815281935060208401925060208101604052505060006008896121e69190612db9565b036122b4576000600860016101008b60018e604001516122069190612e19565b6122109190612ef4565b61221a9190612db9565b6101006122279190612e19565b6122319190612e19565b61223b9190612f28565b905060008060088c604001516122519190612db9565b0361225d576000612260565b60015b60ff1660088c604001516122749190612f28565b61227e9190612ef4565b9050600887610100030460208c5101018284018981848460046101c2fa505050838960000181905250505050505050505061236f565b600080896101006122c59190612e19565b905060008060208d510190506101008c8a6122e09190612ef4565b11156122f6578051915081831c85526020850194505b60008d600001515190505b6000811461235a57815192506020811460018114612325576020830151955061232a565b600095505b50828d1b925084841c945084831786526020820191506020860195506020816123539190612e19565b9050612301565b50858b60000181905250505050505050505050505b92915050565b604051806060016040528060608152602001600015158152602001600081525090565b6000604051905090565b600080fd5b600080fd5b600080fd5b6000601f19601f8301169050919050565b7f4e487b7100000000000000000000000000000000000000000000000000000000600052604160045260246000fd5b6123fa826123b1565b810181811067ffffffffffffffff82111715612419576124186123c2565b5b80604052505050565b600061242c612398565b905061243882826123f1565b919050565b600080fd5b600080fd5b600080fd5b600067ffffffffffffffff821115612467576124666123c2565b5b612470826123b1565b9050602081019050919050565b82818337600083830152505050565b600061249f61249a8461244c565b612422565b9050828152602081018484840111156124bb576124ba612447565b5b6124c684828561247d565b509392505050565b600082601f8301126124e3576124e2612442565b5b81356124f384826020860161248c565b91505092915050565b60008115159050919050565b612511816124fc565b811461251c57600080fd5b50565b60008135905061252e81612508565b92915050565b6000819050919050565b61254781612534565b811461255257600080fd5b50565b6000813590506125648161253e565b92915050565b6000606082840312156125805761257f6123ac565b5b61258a6060612422565b9050600082013567ffffffffffffffff8111156125aa576125a961243d565b5b6125b6848285016124ce565b60008301525060206125ca8482850161251f565b60208301525060406125de84828501612555565b60408301525092915050565b600060208284031215612600576125ff6123a2565b5b600082013567ffffffffffffffff81111561261e5761261d6123a7565b5b61262a8482850161256a565b91505092915050565b61263c816124fc565b82525050565b60006020820190506126576000830184612633565b92915050565b60008060408385031215612674576126736123a2565b5b600083013567ffffffffffffffff811115612692576126916123a7565b5b61269e8582860161256a565b925050602083013567ffffffffffffffff8111156126bf576126be6123a7565b5b6126cb8582860161256a565b9150509250929050565b600081519050919050565b600082825260208201905092915050565b60005b8381101561270f5780820151818401526020810190506126f4565b60008484015250505050565b6000612726826126d5565b61273081856126e0565b93506127408185602086016126f1565b612749816123b1565b840191505092915050565b61275d816124fc565b82525050565b61276c81612534565b82525050565b6000606083016000830151848203600086015261278f828261271b565b91505060208301516127a46020860182612754565b5060408301516127b76040860182612763565b508091505092915050565b600060208201905081810360008301526127dc8184612772565b905092915050565b6000806000606084860312156127fd576127fc6123a2565b5b600084013567ffffffffffffffff81111561281b5761281a6123a7565b5b6128278682870161256a565b935050602084013567ffffffffffffffff811115612848576128476123a7565b5b6128548682870161256a565b925050604084013567ffffffffffffffff811115612875576128746123a7565b5b6128818682870161256a565b9150509250925092565b600080604083850312156128a2576128a16123a2565b5b600083013567ffffffffffffffff8111156128c0576128bf6123a7565b5b6128cc858286016124ce565b925050602083013567ffffffffffffffff8111156128ed576128ec6123a7565b5b6128f9858286016124ce565b9150509250929050565b600082825260208201905092915050565b600061291f826126d5565b6129298185612903565b93506129398185602086016126f1565b612942816123b1565b840191505092915050565b61295681612534565b82525050565b600060408201905081810360008301526129768185612914565b9050612985602083018461294d565b9392505050565b600080604083850312156129a3576129a26123a2565b5b60006129b185828601612555565b92505060206129c28582860161251f565b9150509250929050565b60006020820190506129e1600083018461294d565b92915050565b600080604083850312156129fe576129fd6123a2565b5b600083013567ffffffffffffffff811115612a1c57612a1b6123a7565b5b612a288582860161256a565b9250506020612a3985828601612555565b9150509250929050565b60008060008060808587031215612a5d57612a5c6123a2565b5b600085013567ffffffffffffffff811115612a7b57612a7a6123a7565b5b612a878782880161256a565b945050602085013567ffffffffffffffff811115612aa857612aa76123a7565b5b612ab48782880161256a565b935050604085013567ffffffffffffffff811115612ad557612ad46123a7565b5b612ae18782880161256a565b925050606085013567ffffffffffffffff811115612b0257612b016123a7565b5b612b0e8782880161256a565b91505092959194509250565b600060208284031215612b3057612b2f6123a2565b5b600082013567ffffffffffffffff811115612b4e57612b4d6123a7565b5b612b5a848285016124ce565b91505092915050565b6000819050919050565b612b7681612b63565b82525050565b6000602082019050612b916000830184612b6d565b92915050565b60008060408385031215612bae57612bad6123a2565b5b600083013567ffffffffffffffff811115612bcc57612bcb6123a7565b5b612bd8858286016124ce565b9250506020612be98582860161251f565b9150509250929050565b600080600060608486031215612c0c57612c0b6123a2565b5b600084013567ffffffffffffffff811115612c2a57612c296123a7565b5b612c368682870161256a565b935050602084013567ffffffffffffffff811115612c5757612c566123a7565b5b612c638682870161256a565b9250506040612c748682870161251f565b9150509250925092565b6000819050919050565b612c9181612c7e565b82525050565b6000602082019050612cac6000830184612c88565b92915050565b600060208284031215612cc857612cc76123a2565b5b6000612cd684828501612555565b91505092915050565b600080600060608486031215612cf857612cf76123a2565b5b600084013567ffffffffffffffff811115612d1657612d156123a7565b5b612d22868287016124ce565b9350506020612d338682870161251f565b9250506040612d4486828701612555565b9150509250925092565b6000819050919050565b612d69612d6482612534565b612d4e565b82525050565b6000612d7b8284612d58565b60208201915081905092915050565b7f4e487b7100000000000000000000000000000000000000000000000000000000600052601260045260246000fd5b6000612dc482612534565b9150612dcf83612534565b925082612ddf57612dde612d8a565b5b828206905092915050565b7f4e487b7100000000000000000000000000000000000000000000000000000000600052601160045260246000fd5b6000612e2482612534565b9150612e2f83612534565b9250828203905081811115612e4757612e46612dea565b5b92915050565b7f4e487b7100000000000000000000000000000000000000000000000000000000600052603260045260246000fd5b6000612e8782612c7e565b9150612e9283612c7e565b9250828202612ea081612c7e565b91507f80000000000000000000000000000000000000000000000000000000000000008414600084121615612ed857612ed7612dea565b5b8282058414831517612eed57612eec612dea565b5b5092915050565b6000612eff82612534565b9150612f0a83612534565b9250828201905080821115612f2257612f21612dea565b5b92915050565b6000612f3382612534565b9150612f3e83612534565b925082612f4e57612f4d612d8a565b5b828204905092915050565b6000612f6482612534565b9150612f6f83612534565b9250828202612f7d81612534565b91508282048414831517612f9457612f93612dea565b5b509291505056fea26469706673582212202af9226ed073281fd63d856ec0db8769d495e847bd003eabdd2ac60666cbcdd464736f6c634300081b0033","opcodes":"PUSH2 0x2FD1 PUSH2 0x52 PUSH1 0xB DUP3 DUP3 DUP3 CODECOPY DUP1 MLOAD PUSH1 0x0 BYTE PUSH1 0x73 EQ PUSH1 0x45 JUMPI PUSH32 0x4E487B7100000000000000000000000000000000000000000000000000000000 PUSH1 0x0 MSTORE PUSH1 0x0 PUSH1 0x4 MSTORE PUSH1 0x24 PUSH1 0x0 REVERT JUMPDEST ADDRESS PUSH1 0x0 MSTORE PUSH1 0x73 DUP2 MSTORE8 DUP3 DUP2 RETURN INVALID PUSH20 0x0 ADDRESS EQ PUSH1 0x80 PUSH1 0x40 MSTORE PUSH1 0x4 CALLDATASIZE LT PUSH2 0x210 JUMPI PUSH1 0x0 CALLDATALOAD PUSH1 0xE0 SHR DUP1 PUSH4 0x901717D1 GT PUSH2 0x124 JUMPI DUP1 PUSH4 0xBC39804E GT PUSH2 0xB7 JUMPI DUP1 PUSH4 0xEB11D32E GT PUSH2 0x86 JUMPI DUP1 PUSH4 0xEB11D32E EQ PUSH2 0x73C JUMPI DUP1 PUSH4 0xECDAFA1F EQ PUSH2 0x76C JUMPI DUP1 PUSH4 0xEE4A4E4E EQ PUSH2 0x79C JUMPI DUP1 PUSH4 0xF6B508FF EQ PUSH2 0x7CC JUMPI DUP1 PUSH4 0xFAD242A8 EQ PUSH2 0x7FC JUMPI PUSH2 0x210 JUMP JUMPDEST DUP1 PUSH4 0xBC39804E EQ PUSH2 0x67C JUMPI DUP1 PUSH4 0xCB5C2316 EQ PUSH2 0x6AC JUMPI DUP1 PUSH4 0xCD8E0EF7 EQ PUSH2 0x6DC JUMPI DUP1 PUSH4 0xE41BBCF8 EQ PUSH2 0x70C JUMPI PUSH2 0x210 JUMP JUMPDEST DUP1 PUSH4 0xA5D4CA5B GT PUSH2 0xF3 JUMPI DUP1 PUSH4 0xA5D4CA5B EQ PUSH2 0x5CE JUMPI DUP1 PUSH4 0xAA7312F6 EQ PUSH2 0x5FE JUMPI DUP1 PUSH4 0xB1D74EE9 EQ PUSH2 0x62E JUMPI DUP1 PUSH4 0xBC1B392D EQ PUSH2 0x65E JUMPI PUSH2 0x210 JUMP JUMPDEST DUP1 PUSH4 0x901717D1 EQ PUSH2 0x520 JUMPI DUP1 PUSH4 0x904A9499 EQ PUSH2 0x53E JUMPI DUP1 PUSH4 0x98CDCFB2 EQ PUSH2 0x56E JUMPI DUP1 PUSH4 0xA48A622A EQ PUSH2 0x59E JUMPI PUSH2 0x210 JUMP JUMPDEST DUP1 PUSH4 0x63300952 GT PUSH2 0x1A7 JUMPI DUP1 PUSH4 0x75A01DA5 GT PUSH2 0x176 JUMPI DUP1 PUSH4 0x75A01DA5 EQ PUSH2 0x430 JUMPI DUP1 PUSH4 0x7AFA8553 EQ PUSH2 0x460 JUMPI DUP1 PUSH4 0x7B19CC9A EQ PUSH2 0x490 JUMPI DUP1 PUSH4 0x80147A8E EQ PUSH2 0x4C0 JUMPI DUP1 PUSH4 0x8B78E386 EQ PUSH2 0x4F0 JUMPI PUSH2 0x210 JUMP JUMPDEST DUP1 PUSH4 0x63300952 EQ PUSH2 0x370 JUMPI DUP1 PUSH4 0x6EFAC6C7 EQ PUSH2 0x3A0 JUMPI DUP1 PUSH4 0x71F83991 EQ PUSH2 0x3D0 JUMPI DUP1 PUSH4 0x72864FF3 EQ PUSH2 0x400 JUMPI PUSH2 0x210 JUMP JUMPDEST DUP1 PUSH4 0x40957F72 GT PUSH2 0x1E3 JUMPI DUP1 PUSH4 0x40957F72 EQ PUSH2 0x2D6 JUMPI DUP1 PUSH4 0x44B41C37 EQ PUSH2 0x306 JUMPI DUP1 PUSH4 0x5BB65D1A EQ PUSH2 0x336 JUMPI DUP1 PUSH4 0x5FDF05D7 EQ PUSH2 0x352 JUMPI PUSH2 0x210 JUMP JUMPDEST DUP1 PUSH4 0x8D78767 EQ PUSH2 0x215 JUMPI DUP1 PUSH4 0xA4638FD EQ PUSH2 0x245 JUMPI DUP1 PUSH4 0xE7671F2 EQ PUSH2 0x275 JUMPI DUP1 PUSH4 0x2D577201 EQ PUSH2 0x2A5 JUMPI JUMPDEST PUSH1 0x0 DUP1 REVERT JUMPDEST PUSH2 0x22F PUSH1 0x4 DUP1 CALLDATASIZE SUB DUP2 ADD SWAP1 PUSH2 0x22A SWAP2 SWAP1 PUSH2 0x25EA JUMP JUMPDEST PUSH2 0x82C JUMP JUMPDEST PUSH1 0x40 MLOAD PUSH2 0x23C SWAP2 SWAP1 PUSH2 0x2642 JUMP JUMPDEST PUSH1 0x40 MLOAD DUP1 SWAP2 SUB SWAP1 RETURN JUMPDEST PUSH2 0x25F PUSH1 0x4 DUP1 CALLDATASIZE SUB DUP2 ADD SWAP1 PUSH2 0x25A SWAP2 SWAP1 PUSH2 0x265D JUMP JUMPDEST PUSH2 0x871 JUMP JUMPDEST PUSH1 0x40 MLOAD PUSH2 0x26C SWAP2 SWAP1 PUSH2 0x27C2 JUMP JUMPDEST PUSH1 0x40 MLOAD DUP1 SWAP2 SUB SWAP1 RETURN JUMPDEST PUSH2 0x28F PUSH1 0x4 DUP1 CALLDATASIZE SUB DUP2 ADD SWAP1 PUSH2 0x28A SWAP2 SWAP1 PUSH2 0x27E4 JUMP JUMPDEST PUSH2 0xAC0 JUMP JUMPDEST PUSH1 0x40 MLOAD PUSH2 0x29C SWAP2 SWAP1 PUSH2 0x27C2 JUMP JUMPDEST PUSH1 0x40 MLOAD DUP1 SWAP2 SUB SWAP1 RETURN JUMPDEST PUSH2 0x2BF PUSH1 0x4 DUP1 CALLDATASIZE SUB DUP2 ADD SWAP1 PUSH2 0x2BA SWAP2 SWAP1 PUSH2 0x288B JUMP JUMPDEST PUSH2 0xBBD JUMP JUMPDEST PUSH1 0x40 MLOAD PUSH2 0x2CD SWAP3 SWAP2 SWAP1 PUSH2 0x295C JUMP JUMPDEST PUSH1 0x40 MLOAD DUP1 SWAP2 SUB SWAP1 RETURN JUMPDEST PUSH2 0x2F0 PUSH1 0x4 DUP1 CALLDATASIZE SUB DUP2 ADD SWAP1 PUSH2 0x2EB SWAP2 SWAP1 PUSH2 0x298C JUMP JUMPDEST PUSH2 0xCE8 JUMP JUMPDEST PUSH1 0x40 MLOAD PUSH2 0x2FD SWAP2 SWAP1 PUSH2 0x27C2 JUMP JUMPDEST PUSH1 0x40 MLOAD DUP1 SWAP2 SUB SWAP1 RETURN JUMPDEST PUSH2 0x320 PUSH1 0x4 DUP1 CALLDATASIZE SUB DUP2 ADD SWAP1 PUSH2 0x31B SWAP2 SWAP1 PUSH2 0x25EA JUMP JUMPDEST PUSH2 0xD23 JUMP JUMPDEST PUSH1 0x40 MLOAD PUSH2 0x32D SWAP2 SWAP1 PUSH2 0x29CC JUMP JUMPDEST PUSH1 0x40 MLOAD DUP1 SWAP2 SUB SWAP1 RETURN JUMPDEST PUSH2 0x350 PUSH1 0x4 DUP1 CALLDATASIZE SUB DUP2 ADD SWAP1 PUSH2 0x34B SWAP2 SWAP1 PUSH2 0x25EA JUMP JUMPDEST PUSH2 0xD39 JUMP JUMPDEST STOP JUMPDEST PUSH2 0x35A PUSH2 0xDB9 JUMP JUMPDEST PUSH1 0x40 MLOAD PUSH2 0x367 SWAP2 SWAP1 PUSH2 0x27C2 JUMP JUMPDEST PUSH1 0x40 MLOAD DUP1 SWAP2 SUB SWAP1 RETURN JUMPDEST PUSH2 0x38A PUSH1 0x4 DUP1 CALLDATASIZE SUB DUP2 ADD SWAP1 PUSH2 0x385 SWAP2 SWAP1 PUSH2 0x29E7 JUMP JUMPDEST PUSH2 0xDFB JUMP JUMPDEST PUSH1 0x40 MLOAD PUSH2 0x397 SWAP2 SWAP1 PUSH2 0x27C2 JUMP JUMPDEST PUSH1 0x40 MLOAD DUP1 SWAP2 SUB SWAP1 RETURN JUMPDEST PUSH2 0x3BA PUSH1 0x4 DUP1 CALLDATASIZE SUB DUP2 ADD SWAP1 PUSH2 0x3B5 SWAP2 SWAP1 PUSH2 0x29E7 JUMP JUMPDEST PUSH2 0xF5D JUMP JUMPDEST PUSH1 0x40 MLOAD PUSH2 0x3C7 SWAP2 SWAP1 PUSH2 0x27C2 JUMP JUMPDEST PUSH1 0x40 MLOAD DUP1 SWAP2 SUB SWAP1 RETURN JUMPDEST PUSH2 0x3EA PUSH1 0x4 DUP1 CALLDATASIZE SUB DUP2 ADD SWAP1 PUSH2 0x3E5 SWAP2 SWAP1 PUSH2 0x265D JUMP JUMPDEST PUSH2 0xF86 JUMP JUMPDEST PUSH1 0x40 MLOAD PUSH2 0x3F7 SWAP2 SWAP1 PUSH2 0x2642 JUMP JUMPDEST PUSH1 0x40 MLOAD DUP1 SWAP2 SUB SWAP1 RETURN JUMPDEST PUSH2 0x41A PUSH1 0x4 DUP1 CALLDATASIZE SUB DUP2 ADD SWAP1 PUSH2 0x415 SWAP2 SWAP1 PUSH2 0x2A43 JUMP JUMPDEST PUSH2 0xFDC JUMP JUMPDEST PUSH1 0x40 MLOAD PUSH2 0x427 SWAP2 SWAP1 PUSH2 0x27C2 JUMP JUMPDEST PUSH1 0x40 MLOAD DUP1 SWAP2 SUB SWAP1 RETURN JUMPDEST PUSH2 0x44A PUSH1 0x4 DUP1 CALLDATASIZE SUB DUP2 ADD SWAP1 PUSH2 0x445 SWAP2 SWAP1 PUSH2 0x29E7 JUMP JUMPDEST PUSH2 0x10F0 JUMP JUMPDEST PUSH1 0x40 MLOAD PUSH2 0x457 SWAP2 SWAP1 PUSH2 0x27C2 JUMP JUMPDEST PUSH1 0x40 MLOAD DUP1 SWAP2 SUB SWAP1 RETURN JUMPDEST PUSH2 0x47A PUSH1 0x4 DUP1 CALLDATASIZE SUB DUP2 ADD SWAP1 PUSH2 0x475 SWAP2 SWAP1 PUSH2 0x265D JUMP JUMPDEST PUSH2 0x111E JUMP JUMPDEST PUSH1 0x40 MLOAD PUSH2 0x487 SWAP2 SWAP1 PUSH2 0x27C2 JUMP JUMPDEST PUSH1 0x40 MLOAD DUP1 SWAP2 SUB SWAP1 RETURN JUMPDEST PUSH2 0x4AA PUSH1 0x4 DUP1 CALLDATASIZE SUB DUP2 ADD SWAP1 PUSH2 0x4A5 SWAP2 SWAP1 PUSH2 0x2B1A JUMP JUMPDEST PUSH2 0x1140 JUMP JUMPDEST PUSH1 0x40 MLOAD PUSH2 0x4B7 SWAP2 SWAP1 PUSH2 0x29CC JUMP JUMPDEST PUSH1 0x40 MLOAD DUP1 SWAP2 SUB SWAP1 RETURN JUMPDEST PUSH2 0x4DA PUSH1 0x4 DUP1 CALLDATASIZE SUB DUP2 ADD SWAP1 PUSH2 0x4D5 SWAP2 SWAP1 PUSH2 0x265D JUMP JUMPDEST PUSH2 0x1180 JUMP JUMPDEST PUSH1 0x40 MLOAD PUSH2 0x4E7 SWAP2 SWAP1 PUSH2 0x2642 JUMP JUMPDEST PUSH1 0x40 MLOAD DUP1 SWAP2 SUB SWAP1 RETURN JUMPDEST PUSH2 0x50A PUSH1 0x4 DUP1 CALLDATASIZE SUB DUP2 ADD SWAP1 PUSH2 0x505 SWAP2 SWAP1 PUSH2 0x27E4 JUMP JUMPDEST PUSH2 0x11B7 JUMP JUMPDEST PUSH1 0x40 MLOAD PUSH2 0x517 SWAP2 SWAP1 PUSH2 0x2642 JUMP JUMPDEST PUSH1 0x40 MLOAD DUP1 SWAP2 SUB SWAP1 RETURN JUMPDEST PUSH2 0x528 PUSH2 0x13D8 JUMP JUMPDEST PUSH1 0x40 MLOAD PUSH2 0x535 SWAP2 SWAP1 PUSH2 0x27C2 JUMP JUMPDEST PUSH1 0x40 MLOAD DUP1 SWAP2 SUB SWAP1 RETURN JUMPDEST PUSH2 0x558 PUSH1 0x4 DUP1 CALLDATASIZE SUB DUP2 ADD SWAP1 PUSH2 0x553 SWAP2 SWAP1 PUSH2 0x25EA JUMP JUMPDEST PUSH2 0x141A JUMP JUMPDEST PUSH1 0x40 MLOAD PUSH2 0x565 SWAP2 SWAP1 PUSH2 0x2B7C JUMP JUMPDEST PUSH1 0x40 MLOAD DUP1 SWAP2 SUB SWAP1 RETURN JUMPDEST PUSH2 0x588 PUSH1 0x4 DUP1 CALLDATASIZE SUB DUP2 ADD SWAP1 PUSH2 0x583 SWAP2 SWAP1 PUSH2 0x265D JUMP JUMPDEST PUSH2 0x142E JUMP JUMPDEST PUSH1 0x40 MLOAD PUSH2 0x595 SWAP2 SWAP1 PUSH2 0x27C2 JUMP JUMPDEST PUSH1 0x40 MLOAD DUP1 SWAP2 SUB SWAP1 RETURN JUMPDEST PUSH2 0x5B8 PUSH1 0x4 DUP1 CALLDATASIZE SUB DUP2 ADD SWAP1 PUSH2 0x5B3 SWAP2 SWAP1 PUSH2 0x2B97 JUMP JUMPDEST PUSH2 0x1656 JUMP JUMPDEST PUSH1 0x40 MLOAD PUSH2 0x5C5 SWAP2 SWAP1 PUSH2 0x27C2 JUMP JUMPDEST PUSH1 0x40 MLOAD DUP1 SWAP2 SUB SWAP1 RETURN JUMPDEST PUSH2 0x5E8 PUSH1 0x4 DUP1 CALLDATASIZE SUB DUP2 ADD SWAP1 PUSH2 0x5E3 SWAP2 SWAP1 PUSH2 0x27E4 JUMP JUMPDEST PUSH2 0x1672 JUMP JUMPDEST PUSH1 0x40 MLOAD PUSH2 0x5F5 SWAP2 SWAP1 PUSH2 0x27C2 JUMP JUMPDEST PUSH1 0x40 MLOAD DUP1 SWAP2 SUB SWAP1 RETURN JUMPDEST PUSH2 0x618 PUSH1 0x4 DUP1 CALLDATASIZE SUB DUP2 ADD SWAP1 PUSH2 0x613 SWAP2 SWAP1 PUSH2 0x265D JUMP JUMPDEST PUSH2 0x1696 JUMP JUMPDEST PUSH1 0x40 MLOAD PUSH2 0x625 SWAP2 SWAP1 PUSH2 0x2642 JUMP JUMPDEST PUSH1 0x40 MLOAD DUP1 SWAP2 SUB SWAP1 RETURN JUMPDEST PUSH2 0x648 PUSH1 0x4 DUP1 CALLDATASIZE SUB DUP2 ADD SWAP1 PUSH2 0x643 SWAP2 SWAP1 PUSH2 0x265D JUMP JUMPDEST PUSH2 0x16C2 JUMP JUMPDEST PUSH1 0x40 MLOAD PUSH2 0x655 SWAP2 SWAP1 PUSH2 0x27C2 JUMP JUMPDEST PUSH1 0x40 MLOAD DUP1 SWAP2 SUB SWAP1 RETURN JUMPDEST PUSH2 0x666 PUSH2 0x1767 JUMP JUMPDEST PUSH1 0x40 MLOAD PUSH2 0x673 SWAP2 SWAP1 PUSH2 0x27C2 JUMP JUMPDEST PUSH1 0x40 MLOAD DUP1 SWAP2 SUB SWAP1 RETURN JUMPDEST PUSH2 0x696 PUSH1 0x4 DUP1 CALLDATASIZE SUB DUP2 ADD SWAP1 PUSH2 0x691 SWAP2 SWAP1 PUSH2 0x2BF3 JUMP JUMPDEST PUSH2 0x17A9 JUMP JUMPDEST PUSH1 0x40 MLOAD PUSH2 0x6A3 SWAP2 SWAP1 PUSH2 0x2C97 JUMP JUMPDEST PUSH1 0x40 MLOAD DUP1 SWAP2 SUB SWAP1 RETURN JUMPDEST PUSH2 0x6C6 PUSH1 0x4 DUP1 CALLDATASIZE SUB DUP2 ADD SWAP1 PUSH2 0x6C1 SWAP2 SWAP1 PUSH2 0x27E4 JUMP JUMPDEST PUSH2 0x1986 JUMP JUMPDEST PUSH1 0x40 MLOAD PUSH2 0x6D3 SWAP2 SWAP1 PUSH2 0x2642 JUMP JUMPDEST PUSH1 0x40 MLOAD DUP1 SWAP2 SUB SWAP1 RETURN JUMPDEST PUSH2 0x6F6 PUSH1 0x4 DUP1 CALLDATASIZE SUB DUP2 ADD SWAP1 PUSH2 0x6F1 SWAP2 SWAP1 PUSH2 0x265D JUMP JUMPDEST PUSH2 0x19D9 JUMP JUMPDEST PUSH1 0x40 MLOAD PUSH2 0x703 SWAP2 SWAP1 PUSH2 0x2642 JUMP JUMPDEST PUSH1 0x40 MLOAD DUP1 SWAP2 SUB SWAP1 RETURN JUMPDEST PUSH2 0x726 PUSH1 0x4 DUP1 CALLDATASIZE SUB DUP2 ADD SWAP1 PUSH2 0x721 SWAP2 SWAP1 PUSH2 0x2CB2 JUMP JUMPDEST PUSH2 0x1A05 JUMP JUMPDEST PUSH1 0x40 MLOAD PUSH2 0x733 SWAP2 SWAP1 PUSH2 0x29CC JUMP JUMPDEST PUSH1 0x40 MLOAD DUP1 SWAP2 SUB SWAP1 RETURN JUMPDEST PUSH2 0x756 PUSH1 0x4 DUP1 CALLDATASIZE SUB DUP2 ADD SWAP1 PUSH2 0x751 SWAP2 SWAP1 PUSH2 0x29E7 JUMP JUMPDEST PUSH2 0x1C5B JUMP JUMPDEST PUSH1 0x40 MLOAD PUSH2 0x763 SWAP2 SWAP1 PUSH2 0x27C2 JUMP JUMPDEST PUSH1 0x40 MLOAD DUP1 SWAP2 SUB SWAP1 RETURN JUMPDEST PUSH2 0x786 PUSH1 0x4 DUP1 CALLDATASIZE SUB DUP2 ADD SWAP1 PUSH2 0x781 SWAP2 SWAP1 PUSH2 0x265D JUMP JUMPDEST PUSH2 0x1C84 JUMP JUMPDEST PUSH1 0x40 MLOAD PUSH2 0x793 SWAP2 SWAP1 PUSH2 0x2642 JUMP JUMPDEST PUSH1 0x40 MLOAD DUP1 SWAP2 SUB SWAP1 RETURN JUMPDEST PUSH2 0x7B6 PUSH1 0x4 DUP1 CALLDATASIZE SUB DUP2 ADD SWAP1 PUSH2 0x7B1 SWAP2 SWAP1 PUSH2 0x25EA JUMP JUMPDEST PUSH2 0x1CCF JUMP JUMPDEST PUSH1 0x40 MLOAD PUSH2 0x7C3 SWAP2 SWAP1 PUSH2 0x2642 JUMP JUMPDEST PUSH1 0x40 MLOAD DUP1 SWAP2 SUB SWAP1 RETURN JUMPDEST PUSH2 0x7E6 PUSH1 0x4 DUP1 CALLDATASIZE SUB DUP2 ADD SWAP1 PUSH2 0x7E1 SWAP2 SWAP1 PUSH2 0x2CDF JUMP JUMPDEST PUSH2 0x1CE4 JUMP JUMPDEST PUSH1 0x40 MLOAD PUSH2 0x7F3 SWAP2 SWAP1 PUSH2 0x27C2 JUMP JUMPDEST PUSH1 0x40 MLOAD DUP1 SWAP2 SUB SWAP1 RETURN JUMPDEST PUSH2 0x816 PUSH1 0x4 DUP1 CALLDATASIZE SUB DUP2 ADD SWAP1 PUSH2 0x811 SWAP2 SWAP1 PUSH2 0x2B1A JUMP JUMPDEST PUSH2 0x1D00 JUMP JUMPDEST PUSH1 0x40 MLOAD PUSH2 0x823 SWAP2 SWAP1 PUSH2 0x2642 JUMP JUMPDEST PUSH1 0x40 MLOAD DUP1 SWAP2 SUB SWAP1 RETURN JUMPDEST PUSH1 0x0 PUSH2 0x83B DUP3 PUSH1 0x0 ADD MLOAD PUSH2 0x1D00 JUMP JUMPDEST DUP1 ISZERO PUSH2 0x84C JUMPI POP PUSH1 0x20 DUP3 PUSH1 0x0 ADD MLOAD MLOAD EQ JUMPDEST DUP1 ISZERO PUSH2 0x85A JUMPI POP DUP2 PUSH1 0x20 ADD MLOAD ISZERO JUMPDEST DUP1 ISZERO PUSH2 0x86A JUMPI POP PUSH1 0x0 DUP3 PUSH1 0x40 ADD MLOAD EQ JUMPDEST SWAP1 POP SWAP2 SWAP1 POP JUMP JUMPDEST PUSH2 0x879 PUSH2 0x2375 JUMP JUMPDEST PUSH1 0x0 DUP4 PUSH1 0x40 ADD MLOAD EQ DUP1 ISZERO PUSH2 0x891 JUMPI POP PUSH1 0x0 DUP3 PUSH1 0x40 ADD MLOAD EQ JUMPDEST ISZERO PUSH2 0x8A5 JUMPI PUSH2 0x89E PUSH2 0x1767 JUMP JUMPDEST SWAP1 POP PUSH2 0xABA JUMP JUMPDEST PUSH1 0x60 PUSH1 0x0 DUP1 PUSH2 0x8B6 DUP7 DUP7 PUSH1 0x0 PUSH2 0x17A9 JUMP JUMPDEST SWAP2 POP DUP6 PUSH1 0x20 ADD MLOAD DUP1 PUSH2 0x8C9 JUMPI POP DUP5 PUSH1 0x20 ADD MLOAD JUMPDEST ISZERO PUSH2 0xA00 JUMPI DUP6 PUSH1 0x20 ADD MLOAD DUP1 ISZERO PUSH2 0x8E0 JUMPI POP DUP5 PUSH1 0x20 ADD MLOAD JUMPDEST ISZERO PUSH2 0x98C JUMPI PUSH1 0x1 DUP3 SUB PUSH2 0x91D JUMPI PUSH2 0x8FF DUP7 PUSH1 0x0 ADD MLOAD DUP7 PUSH1 0x0 ADD MLOAD PUSH2 0xBBD JUMP JUMPDEST DUP1 SWAP3 POP DUP2 SWAP5 POP POP POP PUSH1 0x1 DUP5 PUSH1 0x20 ADD SWAP1 ISZERO ISZERO SWAP1 DUP2 ISZERO ISZERO DUP2 MSTORE POP POP PUSH2 0x987 JUMP JUMPDEST PUSH32 0xFFFFFFFFFFFFFFFFFFFFFFFFFFFFFFFFFFFFFFFFFFFFFFFFFFFFFFFFFFFFFFFF DUP3 SUB PUSH2 0x974 JUMPI PUSH2 0x956 DUP6 PUSH1 0x0 ADD MLOAD DUP8 PUSH1 0x0 ADD MLOAD PUSH2 0xBBD JUMP JUMPDEST DUP1 SWAP3 POP DUP2 SWAP5 POP POP POP PUSH1 0x0 DUP5 PUSH1 0x20 ADD SWAP1 ISZERO ISZERO SWAP1 DUP2 ISZERO ISZERO DUP2 MSTORE POP POP PUSH2 0x986 JUMP JUMPDEST PUSH2 0x97C PUSH2 0x1767 JUMP JUMPDEST SWAP4 POP POP POP POP PUSH2 0xABA JUMP JUMPDEST JUMPDEST PUSH2 0x9FB JUMP JUMPDEST PUSH1 0x0 DUP3 SLT PUSH2 0x9B8 JUMPI PUSH2 0x9AB DUP7 PUSH1 0x0 ADD MLOAD DUP7 PUSH1 0x0 ADD MLOAD DUP9 PUSH1 0x40 ADD MLOAD PUSH2 0x1D57 JUMP JUMPDEST DUP1 SWAP3 POP DUP2 SWAP5 POP POP POP PUSH2 0x9D8 JUMP JUMPDEST PUSH2 0x9CF DUP6 PUSH1 0x0 ADD MLOAD DUP8 PUSH1 0x0 ADD MLOAD DUP8 PUSH1 0x40 ADD MLOAD PUSH2 0x1D57 JUMP JUMPDEST DUP1 SWAP3 POP DUP2 SWAP5 POP POP POP JUMPDEST DUP6 PUSH1 0x20 ADD MLOAD PUSH2 0x9E8 JUMPI PUSH1 0x0 PUSH2 0x9EB JUMP JUMPDEST PUSH1 0x1 JUMPDEST DUP5 PUSH1 0x20 ADD SWAP1 ISZERO ISZERO SWAP1 DUP2 ISZERO ISZERO DUP2 MSTORE POP POP JUMPDEST PUSH2 0xAA3 JUMP JUMPDEST PUSH1 0x1 DUP3 SUB PUSH2 0xA38 JUMPI PUSH2 0xA1A DUP7 PUSH1 0x0 ADD MLOAD DUP7 PUSH1 0x0 ADD MLOAD PUSH2 0xBBD JUMP JUMPDEST DUP1 SWAP3 POP DUP2 SWAP5 POP POP POP PUSH1 0x0 DUP5 PUSH1 0x20 ADD SWAP1 ISZERO ISZERO SWAP1 DUP2 ISZERO ISZERO DUP2 MSTORE POP POP PUSH2 0xAA2 JUMP JUMPDEST PUSH32 0xFFFFFFFFFFFFFFFFFFFFFFFFFFFFFFFFFFFFFFFFFFFFFFFFFFFFFFFFFFFFFFFF DUP3 SUB PUSH2 0xA8F JUMPI PUSH2 0xA71 DUP6 PUSH1 0x0 ADD MLOAD DUP8 PUSH1 0x0 ADD MLOAD PUSH2 0xBBD JUMP JUMPDEST DUP1 SWAP3 POP DUP2 SWAP5 POP POP POP PUSH1 0x1 DUP5 PUSH1 0x20 ADD SWAP1 ISZERO ISZERO SWAP1 DUP2 ISZERO ISZERO DUP2 MSTORE POP POP PUSH2 0xAA1 JUMP JUMPDEST PUSH2 0xA97 PUSH2 0x1767 JUMP JUMPDEST SWAP4 POP POP POP POP PUSH2 0xABA JUMP JUMPDEST JUMPDEST JUMPDEST DUP3 DUP5 PUSH1 0x0 ADD DUP2 SWAP1 MSTORE POP DUP1 DUP5 PUSH1 0x40 ADD DUP2 DUP2 MSTORE POP POP POP POP POP JUMPDEST SWAP3 SWAP2 POP POP JUMP JUMPDEST PUSH2 0xAC8 PUSH2 0x2375 JUMP JUMPDEST PUSH1 0x0 ISZERO ISZERO DUP4 PUSH1 0x20 ADD MLOAD ISZERO ISZERO EQ DUP1 ISZERO PUSH2 0xAE8 JUMPI POP PUSH1 0x0 ISZERO ISZERO DUP3 PUSH1 0x20 ADD MLOAD ISZERO ISZERO EQ JUMPDEST DUP1 ISZERO PUSH2 0xAFE JUMPI POP PUSH2 0xAFC DUP3 PUSH1 0x0 ADD MLOAD PUSH2 0x1D00 JUMP JUMPDEST ISZERO JUMPDEST PUSH2 0xB07 JUMPI PUSH1 0x0 DUP1 REVERT JUMPDEST PUSH1 0x0 PUSH2 0xB20 DUP6 PUSH1 0x0 ADD MLOAD DUP6 PUSH1 0x0 ADD MLOAD DUP6 PUSH1 0x0 ADD MLOAD PUSH2 0x1E8D JUMP JUMPDEST SWAP1 POP PUSH1 0x0 PUSH2 0xB2D DUP3 PUSH2 0x1140 JUMP JUMPDEST SWAP1 POP PUSH1 0x0 DUP2 SUB PUSH2 0xB48 JUMPI PUSH2 0xB3F PUSH2 0x1767 JUMP JUMPDEST SWAP3 POP POP POP PUSH2 0xBB6 JUMP JUMPDEST DUP6 PUSH1 0x20 ADD MLOAD DUP1 ISZERO PUSH2 0xB5E JUMPI POP PUSH2 0xB5D DUP6 PUSH2 0x1CCF JUMP JUMPDEST JUMPDEST ISZERO PUSH2 0xB93 JUMPI PUSH2 0xB8A PUSH1 0x40 MLOAD DUP1 PUSH1 0x60 ADD PUSH1 0x40 MSTORE DUP1 DUP5 DUP2 MSTORE PUSH1 0x20 ADD PUSH1 0x1 ISZERO ISZERO DUP2 MSTORE PUSH1 0x20 ADD DUP4 DUP2 MSTORE POP DUP6 PUSH2 0x142E JUMP JUMPDEST SWAP3 POP POP POP PUSH2 0xBB6 JUMP JUMPDEST PUSH1 0x40 MLOAD DUP1 PUSH1 0x60 ADD PUSH1 0x40 MSTORE DUP1 DUP4 DUP2 MSTORE PUSH1 0x20 ADD PUSH1 0x0 ISZERO ISZERO DUP2 MSTORE PUSH1 0x20 ADD DUP3 DUP2 MSTORE POP SWAP3 POP POP POP JUMPDEST SWAP4 SWAP3 POP POP POP JUMP JUMPDEST PUSH1 0x60 PUSH1 0x0 PUSH1 0x60 PUSH1 0x0 DUP1 PUSH32 0xFFFFFFFFFFFFFFFFFFFFFFFFFFFFFFFFFFFFFFFFFFFFFFFFFFFFFFFFFFFFFFFF SWAP1 POP MSIZE DUP8 MLOAD DUP8 MLOAD DUP1 DUP3 SUB DUP3 DUP12 ADD DUP3 DUP12 ADD DUP5 DUP7 ADD PUSH1 0x20 DUP2 ADD DUP7 JUMPDEST PUSH1 0x0 DUP1 DUP3 EQ SUB PUSH2 0xC90 JUMPI DUP5 MLOAD DUP7 DUP3 GT PUSH1 0x1 DUP2 EQ PUSH2 0xC41 JUMPI DUP13 DUP3 SUB DUP6 MSTORE PUSH1 0x1 DUP14 EQ PUSH1 0x0 DUP4 EQ AND PUSH1 0x1 DUP2 EQ PUSH2 0xC36 JUMPI PUSH1 0x0 SWAP14 POP PUSH2 0xC3B JUMP JUMPDEST PUSH1 0x1 SWAP14 POP JUMPDEST POP PUSH2 0xC77 JUMP JUMPDEST DUP6 MLOAD DUP14 DUP2 DUP5 SUB SUB DUP7 MSTORE PUSH1 0x1 DUP15 EQ DUP14 DUP3 EQ AND DUP15 DUP3 ADD DUP5 LT OR PUSH1 0x1 DUP2 EQ PUSH2 0xC69 JUMPI PUSH1 0x0 SWAP15 POP PUSH2 0xC6E JUMP JUMPDEST PUSH1 0x1 SWAP15 POP JUMPDEST POP PUSH1 0x20 DUP8 SUB SWAP7 POP POP JUMPDEST POP PUSH1 0x20 DUP5 SUB SWAP4 POP PUSH1 0x20 DUP7 SUB SWAP6 POP POP PUSH1 0x20 DUP2 SUB SWAP1 POP PUSH2 0xC00 JUMP JUMPDEST POP PUSH1 0x20 DUP3 ADD SWAP2 POP JUMPDEST PUSH1 0x0 DUP3 MLOAD SUB PUSH2 0xCB8 JUMPI PUSH1 0x20 DUP9 ADD SWAP8 POP PUSH1 0x20 DUP8 SUB SWAP7 POP PUSH1 0x20 DUP3 ADD SWAP2 POP PUSH2 0xC98 JUMP JUMPDEST DUP8 SWAP11 POP DUP7 DUP12 MSTORE DUP1 PUSH1 0x40 MSTORE POP POP POP POP POP POP POP POP PUSH1 0x0 PUSH2 0xCD5 DUP5 PUSH2 0x1140 JUMP JUMPDEST SWAP1 POP DUP4 DUP2 SWAP6 POP SWAP6 POP POP POP POP POP SWAP3 POP SWAP3 SWAP1 POP JUMP JUMPDEST PUSH2 0xCF0 PUSH2 0x2375 JUMP JUMPDEST PUSH2 0xD1B DUP4 PUSH1 0x40 MLOAD PUSH1 0x20 ADD PUSH2 0xD04 SWAP2 SWAP1 PUSH2 0x2D6F JUMP JUMPDEST PUSH1 0x40 MLOAD PUSH1 0x20 DUP2 DUP4 SUB SUB DUP2 MSTORE SWAP1 PUSH1 0x40 MSTORE DUP4 PUSH1 0x0 PUSH2 0x1F67 JUMP JUMPDEST SWAP1 POP SWAP3 SWAP2 POP POP JUMP JUMPDEST PUSH1 0x0 PUSH2 0xD32 DUP3 PUSH1 0x0 ADD MLOAD PUSH2 0x1140 JUMP JUMPDEST SWAP1 POP SWAP2 SWAP1 POP JUMP JUMPDEST PUSH1 0x0 DUP1 DUP3 PUSH1 0x0 ADD MLOAD SWAP1 POP PUSH1 0x20 DUP2 ADD MLOAD SWAP2 POP PUSH1 0x0 DUP3 SUB PUSH2 0xD69 JUMPI PUSH2 0xD5B DUP4 PUSH2 0x82C JUMP JUMPDEST PUSH2 0xD64 JUMPI PUSH1 0x0 DUP1 REVERT JUMPDEST PUSH2 0xDB4 JUMP JUMPDEST PUSH1 0x0 PUSH1 0x20 DUP5 PUSH1 0x0 ADD MLOAD MLOAD PUSH2 0xD7D SWAP2 SWAP1 PUSH2 0x2DB9 JUMP JUMPDEST EQ DUP1 ISZERO PUSH2 0xDAA JUMPI POP PUSH1 0x1 PUSH2 0x100 PUSH1 0x1 DUP6 PUSH1 0x40 ADD MLOAD PUSH2 0xD9B SWAP2 SWAP1 PUSH2 0x2E19 JUMP JUMPDEST PUSH2 0xDA5 SWAP2 SWAP1 PUSH2 0x2DB9 JUMP JUMPDEST DUP4 SWAP1 SHR EQ JUMPDEST PUSH2 0xDB3 JUMPI PUSH1 0x0 DUP1 REVERT JUMPDEST JUMPDEST POP POP POP JUMP JUMPDEST PUSH2 0xDC1 PUSH2 0x2375 JUMP JUMPDEST PUSH1 0x40 MLOAD DUP1 PUSH1 0x60 ADD PUSH1 0x40 MSTORE DUP1 PUSH1 0x40 MLOAD DUP1 PUSH1 0x40 ADD PUSH1 0x40 MSTORE DUP1 PUSH1 0x20 DUP2 MSTORE PUSH1 0x20 ADD PUSH1 0x2 DUP2 MSTORE POP DUP2 MSTORE PUSH1 0x20 ADD PUSH1 0x0 ISZERO ISZERO DUP2 MSTORE PUSH1 0x20 ADD PUSH1 0x2 DUP2 MSTORE POP SWAP1 POP SWAP1 JUMP JUMPDEST PUSH2 0xE03 PUSH2 0x2375 JUMP JUMPDEST PUSH1 0x0 DUP4 MLOAD MLOAD SWAP1 POP DUP4 PUSH1 0x40 ADD MLOAD DUP4 LT PUSH2 0xE52 JUMPI PUSH1 0x40 MLOAD DUP1 PUSH1 0x60 ADD PUSH1 0x40 MSTORE DUP1 PUSH1 0x40 MLOAD DUP1 PUSH1 0x40 ADD PUSH1 0x40 MSTORE DUP1 PUSH1 0x20 DUP2 MSTORE PUSH1 0x20 ADD PUSH1 0x0 DUP2 MSTORE POP DUP2 MSTORE PUSH1 0x20 ADD PUSH1 0x0 ISZERO ISZERO DUP2 MSTORE PUSH1 0x20 ADD PUSH1 0x0 DUP2 MSTORE POP SWAP2 POP POP PUSH2 0xF57 JUMP JUMPDEST DUP3 DUP5 PUSH1 0x40 ADD MLOAD PUSH2 0xE62 SWAP2 SWAP1 PUSH2 0x2E19 JUMP JUMPDEST DUP5 PUSH1 0x40 ADD DUP2 DUP2 MSTORE POP POP PUSH2 0x100 DUP4 EQ PUSH2 0x100 DUP5 GT OR ISZERO PUSH2 0xE93 JUMPI PUSH1 0x20 PUSH2 0x100 DUP5 DIV MUL DUP2 SUB SWAP1 POP DUP1 DUP5 MLOAD MSTORE PUSH2 0x100 DUP4 MOD SWAP3 POP JUMPDEST DUP4 MLOAD PUSH1 0x0 PUSH1 0x8 DUP6 MOD EQ PUSH1 0x1 DUP2 EQ PUSH2 0xF04 JUMPI PUSH1 0x0 DUP1 DUP7 PUSH2 0x100 SUB DUP6 DUP6 ADD DUP7 JUMPDEST PUSH1 0x0 DUP1 DUP3 EQ SUB PUSH2 0xEFA JUMPI PUSH1 0x20 DUP2 EQ PUSH1 0x1 DUP2 EQ PUSH2 0xED3 JUMPI PUSH1 0x20 DUP4 SUB MLOAD SWAP6 POP PUSH2 0xED8 JUMP JUMPDEST PUSH1 0x0 SWAP6 POP JUMPDEST POP DUP2 MLOAD DUP11 SHR SWAP4 POP DUP5 DUP4 SHL SWAP5 POP DUP5 DUP5 OR DUP3 MSTORE PUSH1 0x20 DUP3 SUB SWAP2 POP PUSH1 0x20 DUP2 SUB SWAP1 POP PUSH2 0xEB1 JUMP JUMPDEST POP POP POP POP POP PUSH2 0xF32 JUMP JUMPDEST PUSH1 0x8 DUP6 DIV DUP7 MLOAD DUP1 MLOAD PUSH1 0x20 DUP2 ADD DUP4 DUP4 ADD DUP5 DUP3 SUB DUP3 DUP3 DUP5 DUP8 PUSH1 0x4 PUSH2 0x1C2 STATICCALL PUSH1 0x0 PUSH1 0x1F DUP5 ADD MSTORE8 DUP5 DUP7 MSTORE POP POP POP POP POP POP POP JUMPDEST POP PUSH1 0x20 DUP2 ADD PUSH1 0x0 DUP2 MLOAD EQ PUSH1 0x1 DUP2 SUB PUSH2 0xF4F JUMPI PUSH1 0x20 DUP4 MLOAD SUB DUP3 MSTORE DUP2 DUP8 MSTORE JUMPDEST POP POP POP DUP4 SWAP2 POP POP JUMPDEST SWAP3 SWAP2 POP POP JUMP JUMPDEST PUSH2 0xF65 PUSH2 0x2375 JUMP JUMPDEST DUP3 PUSH1 0x20 ADD MLOAD ISZERO PUSH2 0xF74 JUMPI PUSH1 0x0 DUP1 REVERT JUMPDEST PUSH2 0xF7E DUP4 DUP4 PUSH2 0xDFB JUMP JUMPDEST SWAP1 POP SWAP3 SWAP2 POP POP JUMP JUMPDEST PUSH1 0x0 DUP1 PUSH2 0xF95 DUP5 DUP5 PUSH1 0x1 PUSH2 0x17A9 JUMP JUMPDEST SWAP1 POP PUSH32 0xFFFFFFFFFFFFFFFFFFFFFFFFFFFFFFFFFFFFFFFFFFFFFFFFFFFFFFFFFFFFFFFF DUP2 EQ DUP1 PUSH2 0xFC5 JUMPI POP PUSH1 0x0 DUP2 EQ JUMPDEST PUSH2 0xFD0 JUMPI PUSH1 0x0 PUSH2 0xFD3 JUMP JUMPDEST PUSH1 0x1 JUMPDEST SWAP2 POP POP SWAP3 SWAP2 POP POP JUMP JUMPDEST PUSH2 0xFE4 PUSH2 0x2375 JUMP JUMPDEST DUP5 PUSH1 0x20 ADD MLOAD ISZERO DUP1 ISZERO PUSH2 0xFF7 JUMPI POP DUP3 PUSH1 0x20 ADD MLOAD JUMPDEST PUSH2 0x1000 JUMPI PUSH1 0x0 DUP1 REVERT JUMPDEST DUP2 PUSH1 0x20 ADD MLOAD ISZERO DUP1 ISZERO PUSH2 0x101C JUMPI POP PUSH2 0x101A DUP3 PUSH1 0x0 ADD MLOAD PUSH2 0x1D00 JUMP JUMPDEST ISZERO JUMPDEST PUSH2 0x1025 JUMPI PUSH1 0x0 DUP1 REVERT JUMPDEST PUSH2 0x1030 DUP6 DUP4 DUP7 PUSH2 0x1986 JUMP JUMPDEST PUSH2 0x1039 JUMPI PUSH1 0x0 DUP1 REVERT JUMPDEST PUSH1 0x0 PUSH2 0x1052 DUP6 PUSH1 0x0 ADD MLOAD DUP6 PUSH1 0x0 ADD MLOAD DUP6 PUSH1 0x0 ADD MLOAD PUSH2 0x1E8D JUMP JUMPDEST SWAP1 POP PUSH1 0x0 PUSH2 0x105F DUP3 PUSH2 0x1140 JUMP JUMPDEST SWAP1 POP PUSH1 0x0 DUP2 SUB PUSH2 0x107A JUMPI PUSH2 0x1071 PUSH2 0x1767 JUMP JUMPDEST SWAP3 POP POP POP PUSH2 0x10E8 JUMP JUMPDEST DUP6 PUSH1 0x20 ADD MLOAD DUP1 ISZERO PUSH2 0x1090 JUMPI POP PUSH2 0x108F DUP6 PUSH2 0x1CCF JUMP JUMPDEST JUMPDEST ISZERO PUSH2 0x10C5 JUMPI PUSH2 0x10BC PUSH1 0x40 MLOAD DUP1 PUSH1 0x60 ADD PUSH1 0x40 MSTORE DUP1 DUP5 DUP2 MSTORE PUSH1 0x20 ADD PUSH1 0x1 ISZERO ISZERO DUP2 MSTORE PUSH1 0x20 ADD DUP4 DUP2 MSTORE POP DUP6 PUSH2 0x142E JUMP JUMPDEST SWAP3 POP POP POP PUSH2 0x10E8 JUMP JUMPDEST PUSH1 0x40 MLOAD DUP1 PUSH1 0x60 ADD PUSH1 0x40 MSTORE DUP1 DUP4 DUP2 MSTORE PUSH1 0x20 ADD PUSH1 0x0 ISZERO ISZERO DUP2 MSTORE PUSH1 0x20 ADD DUP3 DUP2 MSTORE POP SWAP3 POP POP POP JUMPDEST SWAP5 SWAP4 POP POP POP POP JUMP JUMPDEST PUSH2 0x10F8 PUSH2 0x2375 JUMP JUMPDEST PUSH2 0x1116 DUP4 PUSH2 0x1107 DUP5 PUSH1 0x0 PUSH2 0xCE8 JUMP JUMPDEST PUSH2 0x1111 DUP7 DUP7 PUSH2 0x2034 JUMP JUMPDEST PUSH2 0xAC0 JUMP JUMPDEST SWAP1 POP SWAP3 SWAP2 POP POP JUMP JUMPDEST PUSH2 0x1126 PUSH2 0x2375 JUMP JUMPDEST PUSH2 0x1138 DUP4 PUSH2 0x1132 PUSH2 0x13D8 JUMP JUMPDEST DUP5 PUSH2 0xAC0 JUMP JUMPDEST SWAP1 POP SWAP3 SWAP2 POP POP JUMP JUMPDEST PUSH1 0x0 PUSH2 0x114B DUP3 PUSH2 0x1D00 JUMP JUMPDEST ISZERO PUSH2 0x1159 JUMPI PUSH1 0x0 SWAP1 POP PUSH2 0x117B JUMP JUMPDEST PUSH1 0x0 PUSH1 0x20 DUP4 ADD MLOAD SWAP1 POP PUSH2 0x116B DUP2 PUSH2 0x1A05 JUMP JUMPDEST SWAP2 POP PUSH1 0x8 PUSH1 0x20 DUP5 MLOAD SUB MUL DUP3 ADD SWAP2 POP POP JUMPDEST SWAP2 SWAP1 POP JUMP JUMPDEST PUSH1 0x0 DUP1 PUSH2 0x118F DUP5 DUP5 PUSH1 0x1 PUSH2 0x17A9 JUMP JUMPDEST SWAP1 POP PUSH1 0x1 DUP2 EQ DUP1 PUSH2 0x11A0 JUMPI POP PUSH1 0x0 DUP2 EQ JUMPDEST PUSH2 0x11AB JUMPI PUSH1 0x0 PUSH2 0x11AE JUMP JUMPDEST PUSH1 0x1 JUMPDEST SWAP2 POP POP SWAP3 SWAP2 POP POP JUMP JUMPDEST PUSH1 0x0 PUSH32 0xFFFFFFFFFFFFFFFFFFFFFFFFFFFFFFFFFFFFFFFFFFFFFFFFFFFFFFFFFFFFFFFF PUSH2 0x11E6 DUP6 DUP6 PUSH1 0x0 PUSH2 0x17A9 JUMP JUMPDEST SUB PUSH2 0x1213 JUMPI PUSH1 0x0 PUSH2 0x1200 PUSH2 0x11F8 PUSH2 0x1767 JUMP JUMPDEST DUP5 PUSH1 0x0 PUSH2 0x17A9 JUMP JUMPDEST EQ PUSH2 0x120A JUMPI PUSH1 0x0 DUP1 REVERT JUMPDEST PUSH1 0x1 SWAP1 POP PUSH2 0x13D1 JUMP JUMPDEST PUSH1 0x0 DUP5 PUSH1 0x20 ADD MLOAD DUP1 ISZERO PUSH2 0x1227 JUMPI POP DUP4 PUSH1 0x20 ADD MLOAD JUMPDEST DUP1 PUSH2 0x1242 JUMPI POP DUP5 PUSH1 0x20 ADD MLOAD ISZERO DUP1 ISZERO PUSH2 0x1241 JUMPI POP DUP4 PUSH1 0x20 ADD MLOAD ISZERO JUMPDEST JUMPDEST SWAP1 POP DUP1 PUSH2 0x1253 JUMPI DUP3 PUSH1 0x20 ADD MLOAD PUSH2 0x125A JUMP JUMPDEST DUP3 PUSH1 0x20 ADD MLOAD ISZERO JUMPDEST PUSH2 0x1263 JUMPI PUSH1 0x0 DUP1 REVERT JUMPDEST PUSH1 0x0 PUSH2 0x1278 DUP6 PUSH2 0x1271 PUSH2 0x1767 JUMP JUMPDEST PUSH1 0x1 PUSH2 0x17A9 JUMP JUMPDEST SUB PUSH2 0x1282 JUMPI PUSH1 0x0 DUP1 REVERT JUMPDEST PUSH1 0x0 PUSH1 0x40 MLOAD DUP1 PUSH1 0x60 ADD PUSH1 0x40 MSTORE DUP1 DUP8 PUSH1 0x20 ADD MLOAD ISZERO ISZERO ISZERO ISZERO DUP2 MSTORE PUSH1 0x20 ADD DUP7 PUSH1 0x20 ADD MLOAD ISZERO ISZERO ISZERO ISZERO DUP2 MSTORE PUSH1 0x20 ADD DUP6 PUSH1 0x20 ADD MLOAD ISZERO ISZERO ISZERO ISZERO DUP2 MSTORE POP SWAP1 POP PUSH1 0x0 DUP7 PUSH1 0x20 ADD SWAP1 ISZERO ISZERO SWAP1 DUP2 ISZERO ISZERO DUP2 MSTORE POP POP PUSH1 0x0 DUP6 PUSH1 0x20 ADD SWAP1 ISZERO ISZERO SWAP1 DUP2 ISZERO ISZERO DUP2 MSTORE POP POP PUSH1 0x0 DUP5 PUSH1 0x20 ADD SWAP1 ISZERO ISZERO SWAP1 DUP2 ISZERO ISZERO DUP2 MSTORE POP POP PUSH1 0x0 PUSH2 0x12F8 DUP7 DUP7 PUSH2 0x16C2 JUMP JUMPDEST SWAP1 POP PUSH1 0x0 PUSH2 0x1308 DUP3 DUP10 PUSH1 0x1 PUSH2 0x17A9 JUMP JUMPDEST SUB PUSH2 0x1319 JUMPI PUSH1 0x1 SWAP4 POP POP POP POP PUSH2 0x13D1 JUMP JUMPDEST PUSH1 0x0 PUSH2 0x132D DUP9 PUSH2 0x1327 PUSH2 0x13D8 JUMP JUMPDEST DUP5 PUSH2 0xAC0 JUMP JUMPDEST SWAP1 POP PUSH1 0x0 PUSH2 0x1346 PUSH2 0x133E DUP5 DUP5 PUSH2 0x142E JUMP JUMPDEST DUP11 PUSH1 0x1 PUSH2 0x17A9 JUMP JUMPDEST EQ PUSH2 0x1350 JUMPI PUSH1 0x0 DUP1 REVERT JUMPDEST DUP3 PUSH1 0x0 PUSH1 0x3 DUP2 LT PUSH2 0x1364 JUMPI PUSH2 0x1363 PUSH2 0x2E4D JUMP JUMPDEST JUMPDEST PUSH1 0x20 MUL ADD MLOAD DUP9 PUSH1 0x20 ADD SWAP1 ISZERO ISZERO SWAP1 DUP2 ISZERO ISZERO DUP2 MSTORE POP POP DUP3 PUSH1 0x1 PUSH1 0x3 DUP2 LT PUSH2 0x138C JUMPI PUSH2 0x138B PUSH2 0x2E4D JUMP JUMPDEST JUMPDEST PUSH1 0x20 MUL ADD MLOAD DUP8 PUSH1 0x20 ADD SWAP1 ISZERO ISZERO SWAP1 DUP2 ISZERO ISZERO DUP2 MSTORE POP POP DUP3 PUSH1 0x2 PUSH1 0x3 DUP2 LT PUSH2 0x13B4 JUMPI PUSH2 0x13B3 PUSH2 0x2E4D JUMP JUMPDEST JUMPDEST PUSH1 0x20 MUL ADD MLOAD DUP7 PUSH1 0x20 ADD SWAP1 ISZERO ISZERO SWAP1 DUP2 ISZERO ISZERO DUP2 MSTORE POP POP PUSH1 0x1 SWAP5 POP POP POP POP POP JUMPDEST SWAP4 SWAP3 POP POP POP JUMP JUMPDEST PUSH2 0x13E0 PUSH2 0x2375 JUMP JUMPDEST PUSH1 0x40 MLOAD DUP1 PUSH1 0x60 ADD PUSH1 0x40 MSTORE DUP1 PUSH1 0x40 MLOAD DUP1 PUSH1 0x40 ADD PUSH1 0x40 MSTORE DUP1 PUSH1 0x20 DUP2 MSTORE PUSH1 0x20 ADD PUSH1 0x1 DUP2 MSTORE POP DUP2 MSTORE PUSH1 0x20 ADD PUSH1 0x0 ISZERO ISZERO DUP2 MSTORE PUSH1 0x20 ADD PUSH1 0x1 DUP2 MSTORE POP SWAP1 POP SWAP1 JUMP JUMPDEST PUSH1 0x0 PUSH1 0x60 DUP3 MLOAD MLOAD ADD PUSH1 0x20 DUP4 ADD KECCAK256 SWAP1 POP SWAP2 SWAP1 POP JUMP JUMPDEST PUSH2 0x1436 PUSH2 0x2375 JUMP JUMPDEST PUSH1 0x0 DUP4 PUSH1 0x40 ADD MLOAD EQ DUP1 ISZERO PUSH2 0x144E JUMPI POP PUSH1 0x0 DUP3 PUSH1 0x40 ADD MLOAD EQ JUMPDEST ISZERO PUSH2 0x1462 JUMPI PUSH2 0x145B PUSH2 0x1767 JUMP JUMPDEST SWAP1 POP PUSH2 0x1650 JUMP JUMPDEST PUSH1 0x0 DUP4 PUSH1 0x40 ADD MLOAD SUB PUSH2 0x1476 JUMPI DUP2 SWAP1 POP PUSH2 0x1650 JUMP JUMPDEST PUSH1 0x0 DUP3 PUSH1 0x40 ADD MLOAD SUB PUSH2 0x148A JUMPI DUP3 SWAP1 POP PUSH2 0x1650 JUMP JUMPDEST PUSH1 0x60 PUSH1 0x0 DUP1 PUSH2 0x149B DUP7 DUP7 PUSH1 0x0 PUSH2 0x17A9 JUMP JUMPDEST SWAP1 POP DUP6 PUSH1 0x20 ADD MLOAD DUP1 PUSH2 0x14AE JUMPI POP DUP5 PUSH1 0x20 ADD MLOAD JUMPDEST ISZERO PUSH2 0x15DB JUMPI DUP6 PUSH1 0x20 ADD MLOAD DUP1 ISZERO PUSH2 0x14C5 JUMPI POP DUP5 PUSH1 0x20 ADD MLOAD JUMPDEST ISZERO PUSH2 0x152C JUMPI PUSH1 0x0 DUP2 SLT PUSH2 0x14F6 JUMPI PUSH2 0x14E9 DUP7 PUSH1 0x0 ADD MLOAD DUP7 PUSH1 0x0 ADD MLOAD DUP9 PUSH1 0x40 ADD MLOAD PUSH2 0x1D57 JUMP JUMPDEST DUP1 SWAP4 POP DUP2 SWAP5 POP POP POP PUSH2 0x1516 JUMP JUMPDEST PUSH2 0x150D DUP6 PUSH1 0x0 ADD MLOAD DUP8 PUSH1 0x0 ADD MLOAD DUP8 PUSH1 0x40 ADD MLOAD PUSH2 0x1D57 JUMP JUMPDEST DUP1 SWAP4 POP DUP2 SWAP5 POP POP POP JUMPDEST PUSH1 0x1 DUP5 PUSH1 0x20 ADD SWAP1 ISZERO ISZERO SWAP1 DUP2 ISZERO ISZERO DUP2 MSTORE POP POP PUSH2 0x15D6 JUMP JUMPDEST PUSH1 0x1 DUP2 SUB PUSH2 0x1567 JUMPI PUSH2 0x1546 DUP7 PUSH1 0x0 ADD MLOAD DUP7 PUSH1 0x0 ADD MLOAD PUSH2 0xBBD JUMP JUMPDEST DUP1 SWAP4 POP DUP2 SWAP5 POP POP POP DUP6 PUSH1 0x20 ADD MLOAD DUP5 PUSH1 0x20 ADD SWAP1 ISZERO ISZERO SWAP1 DUP2 ISZERO ISZERO DUP2 MSTORE POP POP PUSH2 0x15D5 JUMP JUMPDEST PUSH32 0xFFFFFFFFFFFFFFFFFFFFFFFFFFFFFFFFFFFFFFFFFFFFFFFFFFFFFFFFFFFFFFFF DUP2 SUB PUSH2 0x15C2 JUMPI PUSH2 0x15A0 DUP6 PUSH1 0x0 ADD MLOAD DUP8 PUSH1 0x0 ADD MLOAD PUSH2 0xBBD JUMP JUMPDEST DUP1 SWAP4 POP DUP2 SWAP5 POP POP POP DUP6 PUSH1 0x20 ADD MLOAD ISZERO DUP5 PUSH1 0x20 ADD SWAP1 ISZERO ISZERO SWAP1 DUP2 ISZERO ISZERO DUP2 MSTORE POP POP PUSH2 0x15D4 JUMP JUMPDEST PUSH2 0x15CA PUSH2 0x1767 JUMP JUMPDEST SWAP4 POP POP POP POP PUSH2 0x1650 JUMP JUMPDEST JUMPDEST JUMPDEST PUSH2 0x1639 JUMP JUMPDEST PUSH1 0x0 DUP2 SLT PUSH2 0x1607 JUMPI PUSH2 0x15FA DUP7 PUSH1 0x0 ADD MLOAD DUP7 PUSH1 0x0 ADD MLOAD DUP9 PUSH1 0x40 ADD MLOAD PUSH2 0x1D57 JUMP JUMPDEST DUP1 SWAP4 POP DUP2 SWAP5 POP POP POP PUSH2 0x1627 JUMP JUMPDEST PUSH2 0x161E DUP6 PUSH1 0x0 ADD MLOAD DUP8 PUSH1 0x0 ADD MLOAD DUP8 PUSH1 0x40 ADD MLOAD PUSH2 0x1D57 JUMP JUMPDEST DUP1 SWAP4 POP DUP2 SWAP5 POP POP POP JUMPDEST PUSH1 0x0 DUP5 PUSH1 0x20 ADD SWAP1 ISZERO ISZERO SWAP1 DUP2 ISZERO ISZERO DUP2 MSTORE POP POP JUMPDEST DUP3 DUP5 PUSH1 0x0 ADD DUP2 SWAP1 MSTORE POP DUP2 DUP5 PUSH1 0x40 ADD DUP2 DUP2 MSTORE POP POP POP POP POP JUMPDEST SWAP3 SWAP2 POP POP JUMP JUMPDEST PUSH2 0x165E PUSH2 0x2375 JUMP JUMPDEST PUSH2 0x166A DUP4 DUP4 PUSH1 0x0 PUSH2 0x1F67 JUMP JUMPDEST SWAP1 POP SWAP3 SWAP2 POP POP JUMP JUMPDEST PUSH2 0x167A PUSH2 0x2375 JUMP JUMPDEST PUSH2 0x168D PUSH2 0x1687 DUP6 DUP6 PUSH2 0x16C2 JUMP JUMPDEST DUP4 PUSH2 0x111E JUMP JUMPDEST SWAP1 POP SWAP4 SWAP3 POP POP POP JUMP JUMPDEST PUSH1 0x0 DUP1 PUSH2 0x16A5 DUP5 DUP5 PUSH1 0x1 PUSH2 0x17A9 JUMP JUMPDEST SWAP1 POP PUSH1 0x1 DUP2 EQ PUSH2 0x16B6 JUMPI PUSH1 0x0 PUSH2 0x16B9 JUMP JUMPDEST PUSH1 0x1 JUMPDEST SWAP2 POP POP SWAP3 SWAP2 POP POP JUMP JUMPDEST PUSH2 0x16CA PUSH2 0x2375 JUMP JUMPDEST PUSH1 0x0 PUSH2 0x16D6 DUP5 DUP5 PUSH2 0x142E JUMP JUMPDEST SWAP1 POP PUSH1 0x0 PUSH2 0x16F6 DUP3 PUSH2 0x16E6 PUSH2 0xDB9 JUMP JUMPDEST PUSH2 0x16F1 DUP6 PUSH1 0x2 PUSH2 0x2034 JUMP JUMPDEST PUSH2 0xAC0 JUMP JUMPDEST SWAP1 POP PUSH2 0x1702 DUP6 DUP6 PUSH2 0x19D9 JUMP JUMPDEST PUSH2 0x1751 JUMPI PUSH1 0x0 PUSH2 0x1712 DUP7 DUP7 PUSH2 0x871 JUMP JUMPDEST SWAP1 POP PUSH1 0x0 PUSH2 0x1732 DUP3 PUSH2 0x1722 PUSH2 0xDB9 JUMP JUMPDEST PUSH2 0x172D DUP6 PUSH1 0x2 PUSH2 0x2034 JUMP JUMPDEST PUSH2 0xAC0 JUMP JUMPDEST SWAP1 POP PUSH2 0x1748 PUSH2 0x1741 DUP5 DUP4 PUSH2 0x871 JUMP JUMPDEST PUSH1 0x2 PUSH2 0xDFB JUMP JUMPDEST SWAP5 POP POP POP PUSH2 0x175F JUMP JUMPDEST PUSH2 0x175C DUP2 PUSH1 0x2 PUSH2 0xDFB JUMP JUMPDEST SWAP3 POP JUMPDEST POP POP SWAP3 SWAP2 POP POP JUMP JUMPDEST PUSH2 0x176F PUSH2 0x2375 JUMP JUMPDEST PUSH1 0x40 MLOAD DUP1 PUSH1 0x60 ADD PUSH1 0x40 MSTORE DUP1 PUSH1 0x40 MLOAD DUP1 PUSH1 0x40 ADD PUSH1 0x40 MSTORE DUP1 PUSH1 0x20 DUP2 MSTORE PUSH1 0x20 ADD PUSH1 0x0 DUP2 MSTORE POP DUP2 MSTORE PUSH1 0x20 ADD PUSH1 0x0 ISZERO ISZERO DUP2 MSTORE PUSH1 0x20 ADD PUSH1 0x0 DUP2 MSTORE POP SWAP1 POP SWAP1 JUMP JUMPDEST PUSH1 0x0 DUP1 PUSH1 0x1 SWAP1 POP DUP3 ISZERO PUSH2 0x1874 JUMPI DUP5 PUSH1 0x20 ADD MLOAD DUP1 ISZERO PUSH2 0x17C8 JUMPI POP DUP4 PUSH1 0x20 ADD MLOAD JUMPDEST ISZERO PUSH2 0x17F5 JUMPI PUSH32 0xFFFFFFFFFFFFFFFFFFFFFFFFFFFFFFFFFFFFFFFFFFFFFFFFFFFFFFFFFFFFFFFF SWAP1 POP PUSH2 0x1873 JUMP JUMPDEST PUSH1 0x0 ISZERO ISZERO DUP6 PUSH1 0x20 ADD MLOAD ISZERO ISZERO EQ DUP1 ISZERO PUSH2 0x1815 JUMPI POP PUSH1 0x1 ISZERO ISZERO DUP5 PUSH1 0x20 ADD MLOAD ISZERO ISZERO EQ JUMPDEST ISZERO PUSH2 0x1824 JUMPI PUSH1 0x1 SWAP2 POP POP PUSH2 0x197F JUMP JUMPDEST PUSH1 0x1 ISZERO ISZERO DUP6 PUSH1 0x20 ADD MLOAD ISZERO ISZERO EQ DUP1 ISZERO PUSH2 0x1844 JUMPI POP PUSH1 0x0 ISZERO ISZERO DUP5 PUSH1 0x20 ADD MLOAD ISZERO ISZERO EQ JUMPDEST ISZERO PUSH2 0x1872 JUMPI PUSH32 0xFFFFFFFFFFFFFFFFFFFFFFFFFFFFFFFFFFFFFFFFFFFFFFFFFFFFFFFFFFFFFFFF SWAP2 POP POP PUSH2 0x197F JUMP JUMPDEST JUMPDEST JUMPDEST DUP4 PUSH1 0x40 ADD MLOAD DUP6 PUSH1 0x40 ADD MLOAD GT ISZERO PUSH2 0x188D JUMPI DUP1 SWAP2 POP POP PUSH2 0x197F JUMP JUMPDEST DUP5 PUSH1 0x40 ADD MLOAD DUP5 PUSH1 0x40 ADD MLOAD GT ISZERO PUSH2 0x18D1 JUMPI DUP1 PUSH32 0xFFFFFFFFFFFFFFFFFFFFFFFFFFFFFFFFFFFFFFFFFFFFFFFFFFFFFFFFFFFFFFFF PUSH2 0x18C9 SWAP2 SWAP1 PUSH2 0x2E7C JUMP JUMPDEST SWAP2 POP POP PUSH2 0x197F JUMP JUMPDEST PUSH1 0x0 DUP1 PUSH1 0x0 DUP1 PUSH1 0x0 DUP10 PUSH1 0x0 ADD MLOAD MLOAD SWAP1 POP PUSH1 0x20 DUP11 MLOAD ADD SWAP5 POP PUSH1 0x20 DUP10 MLOAD ADD SWAP4 POP PUSH1 0x0 JUMPDEST DUP2 DUP2 LT ISZERO PUSH2 0x1973 JUMPI DUP1 DUP7 ADD MLOAD SWAP4 POP DUP1 DUP6 ADD MLOAD SWAP3 POP DUP3 DUP5 GT ISZERO PUSH2 0x191D JUMPI DUP7 SWAP8 POP POP POP POP POP POP POP POP PUSH2 0x197F JUMP JUMPDEST DUP4 DUP4 GT ISZERO PUSH2 0x195F JUMPI DUP7 PUSH32 0xFFFFFFFFFFFFFFFFFFFFFFFFFFFFFFFFFFFFFFFFFFFFFFFFFFFFFFFFFFFFFFFF PUSH2 0x1951 SWAP2 SWAP1 PUSH2 0x2E7C JUMP JUMPDEST SWAP8 POP POP POP POP POP POP POP POP PUSH2 0x197F JUMP JUMPDEST PUSH1 0x20 DUP2 PUSH2 0x196C SWAP2 SWAP1 PUSH2 0x2EF4 JUMP JUMPDEST SWAP1 POP PUSH2 0x18F2 JUMP JUMPDEST POP PUSH1 0x0 SWAP7 POP POP POP POP POP POP POP JUMPDEST SWAP4 SWAP3 POP POP POP JUMP JUMPDEST PUSH1 0x0 DUP4 PUSH1 0x20 ADD MLOAD ISZERO DUP1 ISZERO PUSH2 0x199C JUMPI POP DUP3 PUSH1 0x20 ADD MLOAD ISZERO JUMPDEST PUSH2 0x19A5 JUMPI PUSH1 0x0 DUP1 REVERT JUMPDEST PUSH1 0x0 PUSH2 0x19C4 PUSH2 0x19B5 DUP7 DUP6 DUP8 PUSH2 0x1672 JUMP JUMPDEST PUSH2 0x19BD PUSH2 0x13D8 JUMP JUMPDEST PUSH1 0x1 PUSH2 0x17A9 JUMP JUMPDEST EQ PUSH2 0x19CE JUMPI PUSH1 0x0 DUP1 REVERT JUMPDEST PUSH1 0x1 SWAP1 POP SWAP4 SWAP3 POP POP POP JUMP JUMPDEST PUSH1 0x0 DUP1 PUSH2 0x19E8 DUP5 DUP5 PUSH1 0x1 PUSH2 0x17A9 JUMP JUMPDEST SWAP1 POP PUSH1 0x0 DUP2 EQ PUSH2 0x19F9 JUMPI PUSH1 0x0 PUSH2 0x19FC JUMP JUMPDEST PUSH1 0x1 JUMPDEST SWAP2 POP POP SWAP3 SWAP2 POP POP JUMP JUMPDEST PUSH1 0x0 DUP1 DUP3 EQ PUSH1 0x1 DUP2 EQ PUSH2 0x1C50 JUMPI DUP3 PUSH1 0x1 DUP5 SUB SWAP4 POP PUSH1 0x2 DUP5 DIV DUP5 OR SWAP4 POP PUSH1 0x4 DUP5 DIV DUP5 OR SWAP4 POP PUSH1 0x10 DUP5 DIV DUP5 OR SWAP4 POP PUSH2 0x100 DUP5 DIV DUP5 OR SWAP4 POP PUSH3 0x10000 DUP5 DIV DUP5 OR SWAP4 POP PUSH5 0x100000000 DUP5 DIV DUP5 OR SWAP4 POP PUSH9 0x10000000000000000 DUP5 DIV DUP5 OR SWAP4 POP PUSH17 0x100000000000000000000000000000000 DUP5 DIV DUP5 OR SWAP4 POP PUSH1 0x1 DUP5 ADD SWAP4 POP PUSH1 0x40 MLOAD PUSH32 0xF8F9CBFAE6CC78FBEFE7CDC3A1793DFCF4F0E8BBD8CEC470B6A28A7A5A3E1EFD DUP2 MSTORE PUSH32 0xF5ECF1B3E9DEBC68E1D9CFABC5997135BFB7A7A3938B7B606B5B4B3F2F1F0FFE PUSH1 0x20 DUP3 ADD MSTORE PUSH32 0xF6E4ED9FF2D6B458EADCDF97BD91692DE2D4DA8FD2D0AC50C6AE9A8272523616 PUSH1 0x40 DUP3 ADD MSTORE PUSH32 0xC8C0B887B0A8A4489C948C7F847C6125746C645C544C444038302820181008FF PUSH1 0x60 DUP3 ADD MSTORE PUSH32 0xF7CAE577EEC2A03CF3BAD76FB589591DEBB2DD67E0AA9834BEA6925F6A4A2E0E PUSH1 0x80 DUP3 ADD MSTORE PUSH32 0xE39ED557DB96902CD38ED14FAD815115C786AF479B7E83247363534337271707 PUSH1 0xA0 DUP3 ADD MSTORE PUSH32 0xC976C13BB96E881CB166A933A55E490D9D56952B8D4E801485467D2362422606 PUSH1 0xC0 DUP3 ADD MSTORE PUSH32 0x753A6D1B65325D0C552A4D1345224105391A310B29122104190A110309020100 PUSH1 0xE0 DUP3 ADD MSTORE PUSH2 0x100 DUP2 ADD PUSH1 0x40 MSTORE PUSH31 0x818283848586878898A8B8C8D8E8F929395969799A9B9D9E9FAAEB6BEDEEFF PUSH32 0x100000000000000000000000000000000000000000000000000000000000000 DUP1 DUP3 DUP9 MUL DIV DUP2 DUP2 PUSH1 0xFF SUB DUP6 ADD MLOAD DIV SWAP7 POP PUSH32 0x8000000000000000000000000000000000000000000000000000000000000000 DUP6 GT PUSH2 0x100 MUL DUP8 ADD SWAP7 POP PUSH1 0x0 PUSH1 0x1 DUP7 SUB DUP7 AND SUB PUSH2 0x1C46 JUMPI PUSH1 0x1 DUP8 ADD SWAP7 POP JUMPDEST POP POP POP POP POP PUSH2 0x1C55 JUMP JUMPDEST PUSH1 0x0 SWAP2 POP JUMPDEST POP SWAP2 SWAP1 POP JUMP JUMPDEST PUSH2 0x1C63 PUSH2 0x2375 JUMP JUMPDEST DUP3 PUSH1 0x20 ADD MLOAD ISZERO PUSH2 0x1C72 JUMPI PUSH1 0x0 DUP1 REVERT JUMPDEST PUSH2 0x1C7C DUP4 DUP4 PUSH2 0x20B0 JUMP JUMPDEST SWAP1 POP SWAP3 SWAP2 POP POP JUMP JUMPDEST PUSH1 0x0 DUP1 PUSH2 0x1C93 DUP5 DUP5 PUSH1 0x1 PUSH2 0x17A9 JUMP JUMPDEST SWAP1 POP PUSH32 0xFFFFFFFFFFFFFFFFFFFFFFFFFFFFFFFFFFFFFFFFFFFFFFFFFFFFFFFFFFFFFFFF DUP2 EQ PUSH2 0x1CC3 JUMPI PUSH1 0x0 PUSH2 0x1CC6 JUMP JUMPDEST PUSH1 0x1 JUMPDEST SWAP2 POP POP SWAP3 SWAP2 POP POP JUMP JUMPDEST PUSH1 0x0 DUP2 MLOAD MLOAD DUP3 MLOAD ADD PUSH1 0x2 DUP2 MLOAD MOD SWAP2 POP POP SWAP2 SWAP1 POP JUMP JUMPDEST PUSH2 0x1CEC PUSH2 0x2375 JUMP JUMPDEST PUSH2 0x1CF7 DUP5 DUP5 DUP5 PUSH2 0x1F67 JUMP JUMPDEST SWAP1 POP SWAP4 SWAP3 POP POP POP JUMP JUMPDEST PUSH1 0x0 DUP1 PUSH1 0x0 PUSH1 0x20 DUP5 ADD SWAP1 POP PUSH1 0x0 JUMPDEST DUP5 MLOAD DUP2 LT ISZERO PUSH2 0x1D4A JUMPI DUP2 MLOAD SWAP3 POP PUSH1 0x0 DUP4 GT ISZERO PUSH2 0x1D30 JUMPI PUSH1 0x0 SWAP4 POP POP POP POP PUSH2 0x1D52 JUMP JUMPDEST PUSH1 0x20 DUP3 ADD SWAP2 POP PUSH1 0x20 DUP2 PUSH2 0x1D43 SWAP2 SWAP1 PUSH2 0x2EF4 JUMP JUMPDEST SWAP1 POP PUSH2 0x1D0E JUMP JUMPDEST POP PUSH1 0x1 SWAP3 POP POP POP JUMPDEST SWAP2 SWAP1 POP JUMP JUMPDEST PUSH1 0x60 PUSH1 0x0 PUSH1 0x60 MSIZE PUSH1 0x0 PUSH1 0x1 PUSH1 0x0 SUB DUP9 MLOAD DUP10 ADD DUP9 MLOAD DUP10 ADD DUP11 MLOAD PUSH1 0x20 DUP7 ADD ADD DUP12 MLOAD JUMPDEST PUSH1 0x0 DUP1 DUP3 EQ SUB PUSH2 0x1E23 JUMPI DUP4 MLOAD DUP13 MLOAD DUP15 MLOAD SUB DUP3 GT PUSH1 0x1 DUP2 EQ PUSH2 0x1DBB JUMPI DUP8 DUP3 ADD DUP5 MSTORE PUSH1 0x1 DUP9 EQ DUP3 DUP9 EQ AND PUSH1 0x1 DUP2 EQ PUSH2 0x1DB0 JUMPI PUSH1 0x0 SWAP9 POP PUSH2 0x1DB5 JUMP JUMPDEST PUSH1 0x1 SWAP9 POP JUMPDEST POP PUSH2 0x1E0A JUMP JUMPDEST DUP5 MLOAD DUP9 DUP2 DUP5 ADD ADD DUP6 MSTORE DUP9 DUP2 SUB DUP9 SUB DUP4 GT PUSH1 0x1 DUP2 EQ PUSH2 0x1DFC JUMPI PUSH1 0x0 DUP3 GT PUSH1 0x0 DUP12 GT OR DUP10 DUP6 EQ AND PUSH1 0x1 DUP2 EQ PUSH2 0x1DF1 JUMPI PUSH1 0x0 SWAP11 POP PUSH2 0x1DF6 JUMP JUMPDEST PUSH1 0x1 SWAP11 POP JUMPDEST POP PUSH2 0x1E01 JUMP JUMPDEST PUSH1 0x1 SWAP10 POP JUMPDEST POP PUSH1 0x20 DUP7 SUB SWAP6 POP POP JUMPDEST POP PUSH1 0x20 DUP4 SUB SWAP3 POP PUSH1 0x20 DUP6 SUB SWAP5 POP POP PUSH1 0x20 DUP2 SUB SWAP1 POP PUSH2 0x1D77 JUMP JUMPDEST POP PUSH1 0x0 DUP6 EQ PUSH1 0x1 DUP2 EQ PUSH2 0x1E39 JUMPI PUSH1 0x1 DUP3 MSTORE PUSH2 0x1E40 JUMP JUMPDEST PUSH1 0x20 DUP8 ADD SWAP7 POP JUMPDEST POP DUP6 SWAP7 POP DUP5 PUSH1 0x20 MUL DUP13 MLOAD ADD DUP8 MSTORE PUSH1 0x20 DUP8 MLOAD ADD DUP8 ADD PUSH1 0x40 MSTORE PUSH1 0x20 DUP8 ADD MLOAD PUSH1 0x1 DUP2 PUSH2 0x100 DUP14 MOD SHR EQ PUSH1 0x1 DUP3 EQ OR ISZERO PUSH2 0x1E77 JUMPI PUSH1 0x1 DUP12 ADD SWAP11 POP JUMPDEST POP POP POP POP POP POP POP DUP1 DUP5 SWAP3 POP SWAP3 POP POP SWAP4 POP SWAP4 SWAP2 POP POP JUMP JUMPDEST PUSH1 0x60 DUP4 MLOAD DUP4 MLOAD DUP4 MLOAD PUSH1 0x40 MLOAD DUP4 DUP2 MSTORE DUP3 PUSH1 0x20 DUP3 ADD MSTORE DUP2 PUSH1 0x40 DUP3 ADD MSTORE DUP4 PUSH1 0x60 DUP3 ADD DUP6 PUSH1 0x20 DUP12 ADD PUSH1 0x4 PUSH2 0x1C2 STATICCALL DUP5 PUSH1 0x60 ADD DUP5 DUP2 DUP5 ADD DUP7 PUSH1 0x20 DUP13 ADD PUSH1 0x4 PUSH2 0x1C2 STATICCALL SWAP2 POP DUP5 DUP2 ADD SWAP1 POP DUP4 DUP2 DUP5 ADD DUP6 PUSH1 0x20 DUP12 ADD PUSH1 0x4 PUSH2 0x1C2 STATICCALL SWAP2 POP DUP2 PUSH1 0x0 DUP2 SUB PUSH2 0x1EED JUMPI INVALID JUMPDEST POP DUP4 DUP2 ADD SWAP1 POP DUP4 PUSH1 0x60 DUP5 ADD DUP3 DUP6 PUSH1 0x5 PUSH2 0x546 GAS SUB STATICCALL SWAP2 POP DUP2 PUSH1 0x0 DUP2 SUB PUSH2 0x1F0F JUMPI INVALID JUMPDEST POP DUP4 PUSH1 0x60 DUP5 ADD JUMPDEST PUSH1 0x0 PUSH1 0x20 DUP4 EQ SUB PUSH2 0x1F46 JUMPI PUSH1 0x0 DUP2 MLOAD EQ PUSH1 0x1 DUP2 EQ PUSH2 0x1F34 JUMPI POP PUSH2 0x1F46 JUMP JUMPDEST PUSH1 0x20 DUP3 ADD SWAP2 POP POP PUSH1 0x20 DUP3 SUB SWAP2 POP PUSH2 0x1F16 JUMP JUMPDEST PUSH1 0x20 DUP2 SUB SWAP9 POP DUP2 DUP10 MSTORE DUP6 DUP6 PUSH1 0x60 ADD ADD PUSH1 0x40 MSTORE POP POP POP POP POP POP POP POP SWAP4 SWAP3 POP POP POP JUMP JUMPDEST PUSH2 0x1F6F PUSH2 0x2375 JUMP JUMPDEST PUSH1 0x20 DUP5 ADD DUP5 MLOAD PUSH1 0x0 MSIZE PUSH1 0x0 PUSH1 0x20 DUP5 MOD EQ PUSH1 0x1 DUP2 EQ PUSH2 0x1FA1 JUMPI PUSH1 0x20 DUP5 MOD PUSH1 0x20 SUB PUSH1 0x20 DUP2 DUP5 ADD ADD SWAP4 POP DUP1 DUP6 ADD DUP4 MSTORE POP PUSH2 0x1FAB JUMP JUMPDEST PUSH1 0x20 DUP3 ADD SWAP3 POP DUP4 DUP3 MSTORE JUMPDEST POP DUP3 DUP3 DUP5 DUP7 PUSH1 0x4 PUSH2 0x1C2 STATICCALL POP PUSH1 0x20 DUP2 MLOAD ADD DUP2 ADD PUSH1 0x40 MSTORE DUP1 MLOAD JUMPDEST PUSH1 0x0 PUSH1 0x20 DUP3 EQ SUB PUSH2 0x1FF7 JUMPI PUSH1 0x0 PUSH1 0x20 DUP4 ADD MLOAD EQ PUSH1 0x1 DUP2 EQ PUSH2 0x1FE5 JUMPI POP PUSH2 0x1FF7 JUMP JUMPDEST PUSH1 0x20 DUP4 ADD SWAP3 POP POP PUSH1 0x20 DUP2 SUB SWAP1 POP PUSH2 0x1FC4 JUMP JUMPDEST DUP1 DUP3 MSTORE DUP2 DUP7 MSTORE DUP8 PUSH1 0x20 DUP8 ADD MSTORE POP POP POP POP POP PUSH1 0x0 DUP3 EQ PUSH2 0x2016 JUMPI DUP2 PUSH2 0x2024 JUMP JUMPDEST PUSH2 0x2023 DUP2 PUSH1 0x0 ADD MLOAD PUSH2 0x1140 JUMP JUMPDEST JUMPDEST DUP2 PUSH1 0x40 ADD DUP2 DUP2 MSTORE POP POP SWAP4 SWAP3 POP POP POP JUMP JUMPDEST PUSH2 0x203C PUSH2 0x2375 JUMP JUMPDEST PUSH1 0x0 PUSH1 0x40 MLOAD DUP1 PUSH1 0x40 ADD PUSH1 0x40 MSTORE DUP1 PUSH1 0x20 DUP2 MSTORE PUSH1 0x20 ADD PUSH1 0x0 DUP2 MSTORE POP SWAP1 POP PUSH1 0x0 DUP4 PUSH1 0x40 DUP7 ADD MLOAD MUL SWAP1 POP PUSH1 0x1 PUSH2 0x100 DUP3 MOD SHL PUSH1 0x20 PUSH1 0x1 PUSH2 0x100 DUP5 DIV ADD MUL DUP4 MSTORE DUP1 PUSH1 0x20 DUP5 ADD MSTORE PUSH1 0x20 DUP4 MLOAD ADD DUP4 ADD PUSH1 0x40 MSTORE POP PUSH1 0x40 MLOAD DUP1 PUSH1 0x60 ADD PUSH1 0x40 MSTORE DUP1 DUP4 DUP2 MSTORE PUSH1 0x20 ADD PUSH1 0x0 ISZERO ISZERO DUP2 MSTORE PUSH1 0x20 ADD DUP3 DUP2 MSTORE POP SWAP3 POP POP POP SWAP3 SWAP2 POP POP JUMP JUMPDEST PUSH2 0x20B8 PUSH2 0x2375 JUMP JUMPDEST PUSH1 0x0 DUP3 EQ DUP1 PUSH2 0x20CB JUMPI POP PUSH1 0x0 DUP4 PUSH1 0x40 ADD MLOAD EQ JUMPDEST ISZERO PUSH2 0x20D8 JUMPI DUP3 SWAP1 POP PUSH2 0x236F JUMP JUMPDEST PUSH1 0x0 DUP4 PUSH1 0x0 ADD MLOAD MLOAD SWAP1 POP PUSH1 0x0 PUSH1 0x1 PUSH2 0x100 PUSH1 0x1 DUP8 PUSH1 0x40 ADD MLOAD PUSH2 0x20FA SWAP2 SWAP1 PUSH2 0x2E19 JUMP JUMPDEST PUSH2 0x2104 SWAP2 SWAP1 PUSH2 0x2DB9 JUMP JUMPDEST PUSH2 0x210E SWAP2 SWAP1 PUSH2 0x2EF4 JUMP JUMPDEST SWAP1 POP PUSH1 0x0 DUP2 PUSH2 0x100 PUSH2 0x2120 SWAP2 SWAP1 PUSH2 0x2E19 JUMP JUMPDEST PUSH2 0x100 DUP7 PUSH2 0x212E SWAP2 SWAP1 PUSH2 0x2DB9 JUMP JUMPDEST LT ISZERO PUSH2 0x213B JUMPI PUSH1 0x0 PUSH2 0x213E JUMP JUMPDEST PUSH1 0x1 JUMPDEST PUSH1 0xFF AND PUSH2 0x100 DUP7 PUSH2 0x214F SWAP2 SWAP1 PUSH2 0x2F28 JUMP JUMPDEST PUSH2 0x2159 SWAP2 SWAP1 PUSH2 0x2EF4 JUMP JUMPDEST SWAP1 POP PUSH1 0x0 PUSH1 0x20 DUP3 PUSH2 0x216A SWAP2 SWAP1 PUSH2 0x2F59 JUMP JUMPDEST DUP5 PUSH2 0x2175 SWAP2 SWAP1 PUSH2 0x2EF4 JUMP JUMPDEST SWAP1 POP DUP6 DUP8 PUSH1 0x40 ADD MLOAD PUSH2 0x2187 SWAP2 SWAP1 PUSH2 0x2EF4 JUMP JUMPDEST DUP6 PUSH1 0x40 ADD DUP2 DUP2 MSTORE POP POP DUP7 PUSH1 0x20 ADD MLOAD DUP6 PUSH1 0x20 ADD SWAP1 ISZERO ISZERO SWAP1 DUP2 ISZERO ISZERO DUP2 MSTORE POP POP PUSH2 0x100 DUP7 PUSH2 0x21B2 SWAP2 SWAP1 PUSH2 0x2DB9 JUMP JUMPDEST SWAP6 POP PUSH1 0x60 PUSH1 0x0 PUSH1 0x40 MLOAD DUP4 DUP2 MSTORE DUP4 DUP2 ADD PUSH1 0x0 DUP2 MSTORE DUP2 SWAP4 POP PUSH1 0x20 DUP5 ADD SWAP3 POP PUSH1 0x20 DUP2 ADD PUSH1 0x40 MSTORE POP POP PUSH1 0x0 PUSH1 0x8 DUP10 PUSH2 0x21E6 SWAP2 SWAP1 PUSH2 0x2DB9 JUMP JUMPDEST SUB PUSH2 0x22B4 JUMPI PUSH1 0x0 PUSH1 0x8 PUSH1 0x1 PUSH2 0x100 DUP12 PUSH1 0x1 DUP15 PUSH1 0x40 ADD MLOAD PUSH2 0x2206 SWAP2 SWAP1 PUSH2 0x2E19 JUMP JUMPDEST PUSH2 0x2210 SWAP2 SWAP1 PUSH2 0x2EF4 JUMP JUMPDEST PUSH2 0x221A SWAP2 SWAP1 PUSH2 0x2DB9 JUMP JUMPDEST PUSH2 0x100 PUSH2 0x2227 SWAP2 SWAP1 PUSH2 0x2E19 JUMP JUMPDEST PUSH2 0x2231 SWAP2 SWAP1 PUSH2 0x2E19 JUMP JUMPDEST PUSH2 0x223B SWAP2 SWAP1 PUSH2 0x2F28 JUMP JUMPDEST SWAP1 POP PUSH1 0x0 DUP1 PUSH1 0x8 DUP13 PUSH1 0x40 ADD MLOAD PUSH2 0x2251 SWAP2 SWAP1 PUSH2 0x2DB9 JUMP JUMPDEST SUB PUSH2 0x225D JUMPI PUSH1 0x0 PUSH2 0x2260 JUMP JUMPDEST PUSH1 0x1 JUMPDEST PUSH1 0xFF AND PUSH1 0x8 DUP13 PUSH1 0x40 ADD MLOAD PUSH2 0x2274 SWAP2 SWAP1 PUSH2 0x2F28 JUMP JUMPDEST PUSH2 0x227E SWAP2 SWAP1 PUSH2 0x2EF4 JUMP JUMPDEST SWAP1 POP PUSH1 0x8 DUP8 PUSH2 0x100 SUB DIV PUSH1 0x20 DUP13 MLOAD ADD ADD DUP3 DUP5 ADD DUP10 DUP2 DUP5 DUP5 PUSH1 0x4 PUSH2 0x1C2 STATICCALL POP POP POP DUP4 DUP10 PUSH1 0x0 ADD DUP2 SWAP1 MSTORE POP POP POP POP POP POP POP POP POP PUSH2 0x236F JUMP JUMPDEST PUSH1 0x0 DUP1 DUP10 PUSH2 0x100 PUSH2 0x22C5 SWAP2 SWAP1 PUSH2 0x2E19 JUMP JUMPDEST SWAP1 POP PUSH1 0x0 DUP1 PUSH1 0x20 DUP14 MLOAD ADD SWAP1 POP PUSH2 0x100 DUP13 DUP11 PUSH2 0x22E0 SWAP2 SWAP1 PUSH2 0x2EF4 JUMP JUMPDEST GT ISZERO PUSH2 0x22F6 JUMPI DUP1 MLOAD SWAP2 POP DUP2 DUP4 SHR DUP6 MSTORE PUSH1 0x20 DUP6 ADD SWAP5 POP JUMPDEST PUSH1 0x0 DUP14 PUSH1 0x0 ADD MLOAD MLOAD SWAP1 POP JUMPDEST PUSH1 0x0 DUP2 EQ PUSH2 0x235A JUMPI DUP2 MLOAD SWAP3 POP PUSH1 0x20 DUP2 EQ PUSH1 0x1 DUP2 EQ PUSH2 0x2325 JUMPI PUSH1 0x20 DUP4 ADD MLOAD SWAP6 POP PUSH2 0x232A JUMP JUMPDEST PUSH1 0x0 SWAP6 POP JUMPDEST POP DUP3 DUP14 SHL SWAP3 POP DUP5 DUP5 SHR SWAP5 POP DUP5 DUP4 OR DUP7 MSTORE PUSH1 0x20 DUP3 ADD SWAP2 POP PUSH1 0x20 DUP7 ADD SWAP6 POP PUSH1 0x20 DUP2 PUSH2 0x2353 SWAP2 SWAP1 PUSH2 0x2E19 JUMP JUMPDEST SWAP1 POP PUSH2 0x2301 JUMP JUMPDEST POP DUP6 DUP12 PUSH1 0x0 ADD DUP2 SWAP1 MSTORE POP POP POP POP POP POP POP POP POP POP POP JUMPDEST SWAP3 SWAP2 POP POP JUMP JUMPDEST PUSH1 0x40 MLOAD DUP1 PUSH1 0x60 ADD PUSH1 0x40 MSTORE DUP1 PUSH1 0x60 DUP2 MSTORE PUSH1 0x20 ADD PUSH1 0x0 ISZERO ISZERO DUP2 MSTORE PUSH1 0x20 ADD PUSH1 0x0 DUP2 MSTORE POP SWAP1 JUMP JUMPDEST PUSH1 0x0 PUSH1 0x40 MLOAD SWAP1 POP SWAP1 JUMP JUMPDEST PUSH1 0x0 DUP1 REVERT JUMPDEST PUSH1 0x0 DUP1 REVERT JUMPDEST PUSH1 0x0 DUP1 REVERT JUMPDEST PUSH1 0x0 PUSH1 0x1F NOT PUSH1 0x1F DUP4 ADD AND SWAP1 POP SWAP2 SWAP1 POP JUMP JUMPDEST PUSH32 0x4E487B7100000000000000000000000000000000000000000000000000000000 PUSH1 0x0 MSTORE PUSH1 0x41 PUSH1 0x4 MSTORE PUSH1 0x24 PUSH1 0x0 REVERT JUMPDEST PUSH2 0x23FA DUP3 PUSH2 0x23B1 JUMP JUMPDEST DUP2 ADD DUP2 DUP2 LT PUSH8 0xFFFFFFFFFFFFFFFF DUP3 GT OR ISZERO PUSH2 0x2419 JUMPI PUSH2 0x2418 PUSH2 0x23C2 JUMP JUMPDEST JUMPDEST DUP1 PUSH1 0x40 MSTORE POP POP POP JUMP JUMPDEST PUSH1 0x0 PUSH2 0x242C PUSH2 0x2398 JUMP JUMPDEST SWAP1 POP PUSH2 0x2438 DUP3 DUP3 PUSH2 0x23F1 JUMP JUMPDEST SWAP2 SWAP1 POP JUMP JUMPDEST PUSH1 0x0 DUP1 REVERT JUMPDEST PUSH1 0x0 DUP1 REVERT JUMPDEST PUSH1 0x0 DUP1 REVERT JUMPDEST PUSH1 0x0 PUSH8 0xFFFFFFFFFFFFFFFF DUP3 GT ISZERO PUSH2 0x2467 JUMPI PUSH2 0x2466 PUSH2 0x23C2 JUMP JUMPDEST JUMPDEST PUSH2 0x2470 DUP3 PUSH2 0x23B1 JUMP JUMPDEST SWAP1 POP PUSH1 0x20 DUP2 ADD SWAP1 POP SWAP2 SWAP1 POP JUMP JUMPDEST DUP3 DUP2 DUP4 CALLDATACOPY PUSH1 0x0 DUP4 DUP4 ADD MSTORE POP POP POP JUMP JUMPDEST PUSH1 0x0 PUSH2 0x249F PUSH2 0x249A DUP5 PUSH2 0x244C JUMP JUMPDEST PUSH2 0x2422 JUMP JUMPDEST SWAP1 POP DUP3 DUP2 MSTORE PUSH1 0x20 DUP2 ADD DUP5 DUP5 DUP5 ADD GT ISZERO PUSH2 0x24BB JUMPI PUSH2 0x24BA PUSH2 0x2447 JUMP JUMPDEST JUMPDEST PUSH2 0x24C6 DUP5 DUP3 DUP6 PUSH2 0x247D JUMP JUMPDEST POP SWAP4 SWAP3 POP POP POP JUMP JUMPDEST PUSH1 0x0 DUP3 PUSH1 0x1F DUP4 ADD SLT PUSH2 0x24E3 JUMPI PUSH2 0x24E2 PUSH2 0x2442 JUMP JUMPDEST JUMPDEST DUP2 CALLDATALOAD PUSH2 0x24F3 DUP5 DUP3 PUSH1 0x20 DUP7 ADD PUSH2 0x248C JUMP JUMPDEST SWAP2 POP POP SWAP3 SWAP2 POP POP JUMP JUMPDEST PUSH1 0x0 DUP2 ISZERO ISZERO SWAP1 POP SWAP2 SWAP1 POP JUMP JUMPDEST PUSH2 0x2511 DUP2 PUSH2 0x24FC JUMP JUMPDEST DUP2 EQ PUSH2 0x251C JUMPI PUSH1 0x0 DUP1 REVERT JUMPDEST POP JUMP JUMPDEST PUSH1 0x0 DUP2 CALLDATALOAD SWAP1 POP PUSH2 0x252E DUP2 PUSH2 0x2508 JUMP JUMPDEST SWAP3 SWAP2 POP POP JUMP JUMPDEST PUSH1 0x0 DUP2 SWAP1 POP SWAP2 SWAP1 POP JUMP JUMPDEST PUSH2 0x2547 DUP2 PUSH2 0x2534 JUMP JUMPDEST DUP2 EQ PUSH2 0x2552 JUMPI PUSH1 0x0 DUP1 REVERT JUMPDEST POP JUMP JUMPDEST PUSH1 0x0 DUP2 CALLDATALOAD SWAP1 POP PUSH2 0x2564 DUP2 PUSH2 0x253E JUMP JUMPDEST SWAP3 SWAP2 POP POP JUMP JUMPDEST PUSH1 0x0 PUSH1 0x60 DUP3 DUP5 SUB SLT ISZERO PUSH2 0x2580 JUMPI PUSH2 0x257F PUSH2 0x23AC JUMP JUMPDEST JUMPDEST PUSH2 0x258A PUSH1 0x60 PUSH2 0x2422 JUMP JUMPDEST SWAP1 POP PUSH1 0x0 DUP3 ADD CALLDATALOAD PUSH8 0xFFFFFFFFFFFFFFFF DUP2 GT ISZERO PUSH2 0x25AA JUMPI PUSH2 0x25A9 PUSH2 0x243D JUMP JUMPDEST JUMPDEST PUSH2 0x25B6 DUP5 DUP3 DUP6 ADD PUSH2 0x24CE JUMP JUMPDEST PUSH1 0x0 DUP4 ADD MSTORE POP PUSH1 0x20 PUSH2 0x25CA DUP5 DUP3 DUP6 ADD PUSH2 0x251F JUMP JUMPDEST PUSH1 0x20 DUP4 ADD MSTORE POP PUSH1 0x40 PUSH2 0x25DE DUP5 DUP3 DUP6 ADD PUSH2 0x2555 JUMP JUMPDEST PUSH1 0x40 DUP4 ADD MSTORE POP SWAP3 SWAP2 POP POP JUMP JUMPDEST PUSH1 0x0 PUSH1 0x20 DUP3 DUP5 SUB SLT ISZERO PUSH2 0x2600 JUMPI PUSH2 0x25FF PUSH2 0x23A2 JUMP JUMPDEST JUMPDEST PUSH1 0x0 DUP3 ADD CALLDATALOAD PUSH8 0xFFFFFFFFFFFFFFFF DUP2 GT ISZERO PUSH2 0x261E JUMPI PUSH2 0x261D PUSH2 0x23A7 JUMP JUMPDEST JUMPDEST PUSH2 0x262A DUP5 DUP3 DUP6 ADD PUSH2 0x256A JUMP JUMPDEST SWAP2 POP POP SWAP3 SWAP2 POP POP JUMP JUMPDEST PUSH2 0x263C DUP2 PUSH2 0x24FC JUMP JUMPDEST DUP3 MSTORE POP POP JUMP JUMPDEST PUSH1 0x0 PUSH1 0x20 DUP3 ADD SWAP1 POP PUSH2 0x2657 PUSH1 0x0 DUP4 ADD DUP5 PUSH2 0x2633 JUMP JUMPDEST SWAP3 SWAP2 POP POP JUMP JUMPDEST PUSH1 0x0 DUP1 PUSH1 0x40 DUP4 DUP6 SUB SLT ISZERO PUSH2 0x2674 JUMPI PUSH2 0x2673 PUSH2 0x23A2 JUMP JUMPDEST JUMPDEST PUSH1 0x0 DUP4 ADD CALLDATALOAD PUSH8 0xFFFFFFFFFFFFFFFF DUP2 GT ISZERO PUSH2 0x2692 JUMPI PUSH2 0x2691 PUSH2 0x23A7 JUMP JUMPDEST JUMPDEST PUSH2 0x269E DUP6 DUP3 DUP7 ADD PUSH2 0x256A JUMP JUMPDEST SWAP3 POP POP PUSH1 0x20 DUP4 ADD CALLDATALOAD PUSH8 0xFFFFFFFFFFFFFFFF DUP2 GT ISZERO PUSH2 0x26BF JUMPI PUSH2 0x26BE PUSH2 0x23A7 JUMP JUMPDEST JUMPDEST PUSH2 0x26CB DUP6 DUP3 DUP7 ADD PUSH2 0x256A JUMP JUMPDEST SWAP2 POP POP SWAP3 POP SWAP3 SWAP1 POP JUMP JUMPDEST PUSH1 0x0 DUP2 MLOAD SWAP1 POP SWAP2 SWAP1 POP JUMP JUMPDEST PUSH1 0x0 DUP3 DUP3 MSTORE PUSH1 0x20 DUP3 ADD SWAP1 POP SWAP3 SWAP2 POP POP JUMP JUMPDEST PUSH1 0x0 JUMPDEST DUP4 DUP2 LT ISZERO PUSH2 0x270F JUMPI DUP1 DUP3 ADD MLOAD DUP2 DUP5 ADD MSTORE PUSH1 0x20 DUP2 ADD SWAP1 POP PUSH2 0x26F4 JUMP JUMPDEST PUSH1 0x0 DUP5 DUP5 ADD MSTORE POP POP POP POP JUMP JUMPDEST PUSH1 0x0 PUSH2 0x2726 DUP3 PUSH2 0x26D5 JUMP JUMPDEST PUSH2 0x2730 DUP2 DUP6 PUSH2 0x26E0 JUMP JUMPDEST SWAP4 POP PUSH2 0x2740 DUP2 DUP6 PUSH1 0x20 DUP7 ADD PUSH2 0x26F1 JUMP JUMPDEST PUSH2 0x2749 DUP2 PUSH2 0x23B1 JUMP JUMPDEST DUP5 ADD SWAP2 POP POP SWAP3 SWAP2 POP POP JUMP JUMPDEST PUSH2 0x275D DUP2 PUSH2 0x24FC JUMP JUMPDEST DUP3 MSTORE POP POP JUMP JUMPDEST PUSH2 0x276C DUP2 PUSH2 0x2534 JUMP JUMPDEST DUP3 MSTORE POP POP JUMP JUMPDEST PUSH1 0x0 PUSH1 0x60 DUP4 ADD PUSH1 0x0 DUP4 ADD MLOAD DUP5 DUP3 SUB PUSH1 0x0 DUP7 ADD MSTORE PUSH2 0x278F DUP3 DUP3 PUSH2 0x271B JUMP JUMPDEST SWAP2 POP POP PUSH1 0x20 DUP4 ADD MLOAD PUSH2 0x27A4 PUSH1 0x20 DUP7 ADD DUP3 PUSH2 0x2754 JUMP JUMPDEST POP PUSH1 0x40 DUP4 ADD MLOAD PUSH2 0x27B7 PUSH1 0x40 DUP7 ADD DUP3 PUSH2 0x2763 JUMP JUMPDEST POP DUP1 SWAP2 POP POP SWAP3 SWAP2 POP POP JUMP JUMPDEST PUSH1 0x0 PUSH1 0x20 DUP3 ADD SWAP1 POP DUP2 DUP2 SUB PUSH1 0x0 DUP4 ADD MSTORE PUSH2 0x27DC DUP2 DUP5 PUSH2 0x2772 JUMP JUMPDEST SWAP1 POP SWAP3 SWAP2 POP POP JUMP JUMPDEST PUSH1 0x0 DUP1 PUSH1 0x0 PUSH1 0x60 DUP5 DUP7 SUB SLT ISZERO PUSH2 0x27FD JUMPI PUSH2 0x27FC PUSH2 0x23A2 JUMP JUMPDEST JUMPDEST PUSH1 0x0 DUP5 ADD CALLDATALOAD PUSH8 0xFFFFFFFFFFFFFFFF DUP2 GT ISZERO PUSH2 0x281B JUMPI PUSH2 0x281A PUSH2 0x23A7 JUMP JUMPDEST JUMPDEST PUSH2 0x2827 DUP7 DUP3 DUP8 ADD PUSH2 0x256A JUMP JUMPDEST SWAP4 POP POP PUSH1 0x20 DUP5 ADD CALLDATALOAD PUSH8 0xFFFFFFFFFFFFFFFF DUP2 GT ISZERO PUSH2 0x2848 JUMPI PUSH2 0x2847 PUSH2 0x23A7 JUMP JUMPDEST JUMPDEST PUSH2 0x2854 DUP7 DUP3 DUP8 ADD PUSH2 0x256A JUMP JUMPDEST SWAP3 POP POP PUSH1 0x40 DUP5 ADD CALLDATALOAD PUSH8 0xFFFFFFFFFFFFFFFF DUP2 GT ISZERO PUSH2 0x2875 JUMPI PUSH2 0x2874 PUSH2 0x23A7 JUMP JUMPDEST JUMPDEST PUSH2 0x2881 DUP7 DUP3 DUP8 ADD PUSH2 0x256A JUMP JUMPDEST SWAP2 POP POP SWAP3 POP SWAP3 POP SWAP3 JUMP JUMPDEST PUSH1 0x0 DUP1 PUSH1 0x40 DUP4 DUP6 SUB SLT ISZERO PUSH2 0x28A2 JUMPI PUSH2 0x28A1 PUSH2 0x23A2 JUMP JUMPDEST JUMPDEST PUSH1 0x0 DUP4 ADD CALLDATALOAD PUSH8 0xFFFFFFFFFFFFFFFF DUP2 GT ISZERO PUSH2 0x28C0 JUMPI PUSH2 0x28BF PUSH2 0x23A7 JUMP JUMPDEST JUMPDEST PUSH2 0x28CC DUP6 DUP3 DUP7 ADD PUSH2 0x24CE JUMP JUMPDEST SWAP3 POP POP PUSH1 0x20 DUP4 ADD CALLDATALOAD PUSH8 0xFFFFFFFFFFFFFFFF DUP2 GT ISZERO PUSH2 0x28ED JUMPI PUSH2 0x28EC PUSH2 0x23A7 JUMP JUMPDEST JUMPDEST PUSH2 0x28F9 DUP6 DUP3 DUP7 ADD PUSH2 0x24CE JUMP JUMPDEST SWAP2 POP POP SWAP3 POP SWAP3 SWAP1 POP JUMP JUMPDEST PUSH1 0x0 DUP3 DUP3 MSTORE PUSH1 0x20 DUP3 ADD SWAP1 POP SWAP3 SWAP2 POP POP JUMP JUMPDEST PUSH1 0x0 PUSH2 0x291F DUP3 PUSH2 0x26D5 JUMP JUMPDEST PUSH2 0x2929 DUP2 DUP6 PUSH2 0x2903 JUMP JUMPDEST SWAP4 POP PUSH2 0x2939 DUP2 DUP6 PUSH1 0x20 DUP7 ADD PUSH2 0x26F1 JUMP JUMPDEST PUSH2 0x2942 DUP2 PUSH2 0x23B1 JUMP JUMPDEST DUP5 ADD SWAP2 POP POP SWAP3 SWAP2 POP POP JUMP JUMPDEST PUSH2 0x2956 DUP2 PUSH2 0x2534 JUMP JUMPDEST DUP3 MSTORE POP POP JUMP JUMPDEST PUSH1 0x0 PUSH1 0x40 DUP3 ADD SWAP1 POP DUP2 DUP2 SUB PUSH1 0x0 DUP4 ADD MSTORE PUSH2 0x2976 DUP2 DUP6 PUSH2 0x2914 JUMP JUMPDEST SWAP1 POP PUSH2 0x2985 PUSH1 0x20 DUP4 ADD DUP5 PUSH2 0x294D JUMP JUMPDEST SWAP4 SWAP3 POP POP POP JUMP JUMPDEST PUSH1 0x0 DUP1 PUSH1 0x40 DUP4 DUP6 SUB SLT ISZERO PUSH2 0x29A3 JUMPI PUSH2 0x29A2 PUSH2 0x23A2 JUMP JUMPDEST JUMPDEST PUSH1 0x0 PUSH2 0x29B1 DUP6 DUP3 DUP7 ADD PUSH2 0x2555 JUMP JUMPDEST SWAP3 POP POP PUSH1 0x20 PUSH2 0x29C2 DUP6 DUP3 DUP7 ADD PUSH2 0x251F JUMP JUMPDEST SWAP2 POP POP SWAP3 POP SWAP3 SWAP1 POP JUMP JUMPDEST PUSH1 0x0 PUSH1 0x20 DUP3 ADD SWAP1 POP PUSH2 0x29E1 PUSH1 0x0 DUP4 ADD DUP5 PUSH2 0x294D JUMP JUMPDEST SWAP3 SWAP2 POP POP JUMP JUMPDEST PUSH1 0x0 DUP1 PUSH1 0x40 DUP4 DUP6 SUB SLT ISZERO PUSH2 0x29FE JUMPI PUSH2 0x29FD PUSH2 0x23A2 JUMP JUMPDEST JUMPDEST PUSH1 0x0 DUP4 ADD CALLDATALOAD PUSH8 0xFFFFFFFFFFFFFFFF DUP2 GT ISZERO PUSH2 0x2A1C JUMPI PUSH2 0x2A1B PUSH2 0x23A7 JUMP JUMPDEST JUMPDEST PUSH2 0x2A28 DUP6 DUP3 DUP7 ADD PUSH2 0x256A JUMP JUMPDEST SWAP3 POP POP PUSH1 0x20 PUSH2 0x2A39 DUP6 DUP3 DUP7 ADD PUSH2 0x2555 JUMP JUMPDEST SWAP2 POP POP SWAP3 POP SWAP3 SWAP1 POP JUMP JUMPDEST PUSH1 0x0 DUP1 PUSH1 0x0 DUP1 PUSH1 0x80 DUP6 DUP8 SUB SLT ISZERO PUSH2 0x2A5D JUMPI PUSH2 0x2A5C PUSH2 0x23A2 JUMP JUMPDEST JUMPDEST PUSH1 0x0 DUP6 ADD CALLDATALOAD PUSH8 0xFFFFFFFFFFFFFFFF DUP2 GT ISZERO PUSH2 0x2A7B JUMPI PUSH2 0x2A7A PUSH2 0x23A7 JUMP JUMPDEST JUMPDEST PUSH2 0x2A87 DUP8 DUP3 DUP9 ADD PUSH2 0x256A JUMP JUMPDEST SWAP5 POP POP PUSH1 0x20 DUP6 ADD CALLDATALOAD PUSH8 0xFFFFFFFFFFFFFFFF DUP2 GT ISZERO PUSH2 0x2AA8 JUMPI PUSH2 0x2AA7 PUSH2 0x23A7 JUMP JUMPDEST JUMPDEST PUSH2 0x2AB4 DUP8 DUP3 DUP9 ADD PUSH2 0x256A JUMP JUMPDEST SWAP4 POP POP PUSH1 0x40 DUP6 ADD CALLDATALOAD PUSH8 0xFFFFFFFFFFFFFFFF DUP2 GT ISZERO PUSH2 0x2AD5 JUMPI PUSH2 0x2AD4 PUSH2 0x23A7 JUMP JUMPDEST JUMPDEST PUSH2 0x2AE1 DUP8 DUP3 DUP9 ADD PUSH2 0x256A JUMP JUMPDEST SWAP3 POP POP PUSH1 0x60 DUP6 ADD CALLDATALOAD PUSH8 0xFFFFFFFFFFFFFFFF DUP2 GT ISZERO PUSH2 0x2B02 JUMPI PUSH2 0x2B01 PUSH2 0x23A7 JUMP JUMPDEST JUMPDEST PUSH2 0x2B0E DUP8 DUP3 DUP9 ADD PUSH2 0x256A JUMP JUMPDEST SWAP2 POP POP SWAP3 SWAP6 SWAP2 SWAP5 POP SWAP3 POP JUMP JUMPDEST PUSH1 0x0 PUSH1 0x20 DUP3 DUP5 SUB SLT ISZERO PUSH2 0x2B30 JUMPI PUSH2 0x2B2F PUSH2 0x23A2 JUMP JUMPDEST JUMPDEST PUSH1 0x0 DUP3 ADD CALLDATALOAD PUSH8 0xFFFFFFFFFFFFFFFF DUP2 GT ISZERO PUSH2 0x2B4E JUMPI PUSH2 0x2B4D PUSH2 0x23A7 JUMP JUMPDEST JUMPDEST PUSH2 0x2B5A DUP5 DUP3 DUP6 ADD PUSH2 0x24CE JUMP JUMPDEST SWAP2 POP POP SWAP3 SWAP2 POP POP JUMP JUMPDEST PUSH1 0x0 DUP2 SWAP1 POP SWAP2 SWAP1 POP JUMP JUMPDEST PUSH2 0x2B76 DUP2 PUSH2 0x2B63 JUMP JUMPDEST DUP3 MSTORE POP POP JUMP JUMPDEST PUSH1 0x0 PUSH1 0x20 DUP3 ADD SWAP1 POP PUSH2 0x2B91 PUSH1 0x0 DUP4 ADD DUP5 PUSH2 0x2B6D JUMP JUMPDEST SWAP3 SWAP2 POP POP JUMP JUMPDEST PUSH1 0x0 DUP1 PUSH1 0x40 DUP4 DUP6 SUB SLT ISZERO PUSH2 0x2BAE JUMPI PUSH2 0x2BAD PUSH2 0x23A2 JUMP JUMPDEST JUMPDEST PUSH1 0x0 DUP4 ADD CALLDATALOAD PUSH8 0xFFFFFFFFFFFFFFFF DUP2 GT ISZERO PUSH2 0x2BCC JUMPI PUSH2 0x2BCB PUSH2 0x23A7 JUMP JUMPDEST JUMPDEST PUSH2 0x2BD8 DUP6 DUP3 DUP7 ADD PUSH2 0x24CE JUMP JUMPDEST SWAP3 POP POP PUSH1 0x20 PUSH2 0x2BE9 DUP6 DUP3 DUP7 ADD PUSH2 0x251F JUMP JUMPDEST SWAP2 POP POP SWAP3 POP SWAP3 SWAP1 POP JUMP JUMPDEST PUSH1 0x0 DUP1 PUSH1 0x0 PUSH1 0x60 DUP5 DUP7 SUB SLT ISZERO PUSH2 0x2C0C JUMPI PUSH2 0x2C0B PUSH2 0x23A2 JUMP JUMPDEST JUMPDEST PUSH1 0x0 DUP5 ADD CALLDATALOAD PUSH8 0xFFFFFFFFFFFFFFFF DUP2 GT ISZERO PUSH2 0x2C2A JUMPI PUSH2 0x2C29 PUSH2 0x23A7 JUMP JUMPDEST JUMPDEST PUSH2 0x2C36 DUP7 DUP3 DUP8 ADD PUSH2 0x256A JUMP JUMPDEST SWAP4 POP POP PUSH1 0x20 DUP5 ADD CALLDATALOAD PUSH8 0xFFFFFFFFFFFFFFFF DUP2 GT ISZERO PUSH2 0x2C57 JUMPI PUSH2 0x2C56 PUSH2 0x23A7 JUMP JUMPDEST JUMPDEST PUSH2 0x2C63 DUP7 DUP3 DUP8 ADD PUSH2 0x256A JUMP JUMPDEST SWAP3 POP POP PUSH1 0x40 PUSH2 0x2C74 DUP7 DUP3 DUP8 ADD PUSH2 0x251F JUMP JUMPDEST SWAP2 POP POP SWAP3 POP SWAP3 POP SWAP3 JUMP JUMPDEST PUSH1 0x0 DUP2 SWAP1 POP SWAP2 SWAP1 POP JUMP JUMPDEST PUSH2 0x2C91 DUP2 PUSH2 0x2C7E JUMP JUMPDEST DUP3 MSTORE POP POP JUMP JUMPDEST PUSH1 0x0 PUSH1 0x20 DUP3 ADD SWAP1 POP PUSH2 0x2CAC PUSH1 0x0 DUP4 ADD DUP5 PUSH2 0x2C88 JUMP JUMPDEST SWAP3 SWAP2 POP POP JUMP JUMPDEST PUSH1 0x0 PUSH1 0x20 DUP3 DUP5 SUB SLT ISZERO PUSH2 0x2CC8 JUMPI PUSH2 0x2CC7 PUSH2 0x23A2 JUMP JUMPDEST JUMPDEST PUSH1 0x0 PUSH2 0x2CD6 DUP5 DUP3 DUP6 ADD PUSH2 0x2555 JUMP JUMPDEST SWAP2 POP POP SWAP3 SWAP2 POP POP JUMP JUMPDEST PUSH1 0x0 DUP1 PUSH1 0x0 PUSH1 0x60 DUP5 DUP7 SUB SLT ISZERO PUSH2 0x2CF8 JUMPI PUSH2 0x2CF7 PUSH2 0x23A2 JUMP JUMPDEST JUMPDEST PUSH1 0x0 DUP5 ADD CALLDATALOAD PUSH8 0xFFFFFFFFFFFFFFFF DUP2 GT ISZERO PUSH2 0x2D16 JUMPI PUSH2 0x2D15 PUSH2 0x23A7 JUMP JUMPDEST JUMPDEST PUSH2 0x2D22 DUP7 DUP3 DUP8 ADD PUSH2 0x24CE JUMP JUMPDEST SWAP4 POP POP PUSH1 0x20 PUSH2 0x2D33 DUP7 DUP3 DUP8 ADD PUSH2 0x251F JUMP JUMPDEST SWAP3 POP POP PUSH1 0x40 PUSH2 0x2D44 DUP7 DUP3 DUP8 ADD PUSH2 0x2555 JUMP JUMPDEST SWAP2 POP POP SWAP3 POP SWAP3 POP SWAP3 JUMP JUMPDEST PUSH1 0x0 DUP2 SWAP1 POP SWAP2 SWAP1 POP JUMP JUMPDEST PUSH2 0x2D69 PUSH2 0x2D64 DUP3 PUSH2 0x2534 JUMP JUMPDEST PUSH2 0x2D4E JUMP JUMPDEST DUP3 MSTORE POP POP JUMP JUMPDEST PUSH1 0x0 PUSH2 0x2D7B DUP3 DUP5 PUSH2 0x2D58 JUMP JUMPDEST PUSH1 0x20 DUP3 ADD SWAP2 POP DUP2 SWAP1 POP SWAP3 SWAP2 POP POP JUMP JUMPDEST PUSH32 0x4E487B7100000000000000000000000000000000000000000000000000000000 PUSH1 0x0 MSTORE PUSH1 0x12 PUSH1 0x4 MSTORE PUSH1 0x24 PUSH1 0x0 REVERT JUMPDEST PUSH1 0x0 PUSH2 0x2DC4 DUP3 PUSH2 0x2534 JUMP JUMPDEST SWAP2 POP PUSH2 0x2DCF DUP4 PUSH2 0x2534 JUMP JUMPDEST SWAP3 POP DUP3 PUSH2 0x2DDF JUMPI PUSH2 0x2DDE PUSH2 0x2D8A JUMP JUMPDEST JUMPDEST DUP3 DUP3 MOD SWAP1 POP SWAP3 SWAP2 POP POP JUMP JUMPDEST PUSH32 0x4E487B7100000000000000000000000000000000000000000000000000000000 PUSH1 0x0 MSTORE PUSH1 0x11 PUSH1 0x4 MSTORE PUSH1 0x24 PUSH1 0x0 REVERT JUMPDEST PUSH1 0x0 PUSH2 0x2E24 DUP3 PUSH2 0x2534 JUMP JUMPDEST SWAP2 POP PUSH2 0x2E2F DUP4 PUSH2 0x2534 JUMP JUMPDEST SWAP3 POP DUP3 DUP3 SUB SWAP1 POP DUP2 DUP2 GT ISZERO PUSH2 0x2E47 JUMPI PUSH2 0x2E46 PUSH2 0x2DEA JUMP JUMPDEST JUMPDEST SWAP3 SWAP2 POP POP JUMP JUMPDEST PUSH32 0x4E487B7100000000000000000000000000000000000000000000000000000000 PUSH1 0x0 MSTORE PUSH1 0x32 PUSH1 0x4 MSTORE PUSH1 0x24 PUSH1 0x0 REVERT JUMPDEST PUSH1 0x0 PUSH2 0x2E87 DUP3 PUSH2 0x2C7E JUMP JUMPDEST SWAP2 POP PUSH2 0x2E92 DUP4 PUSH2 0x2C7E JUMP JUMPDEST SWAP3 POP DUP3 DUP3 MUL PUSH2 0x2EA0 DUP2 PUSH2 0x2C7E JUMP JUMPDEST SWAP2 POP PUSH32 0x8000000000000000000000000000000000000000000000000000000000000000 DUP5 EQ PUSH1 0x0 DUP5 SLT AND ISZERO PUSH2 0x2ED8 JUMPI PUSH2 0x2ED7 PUSH2 0x2DEA JUMP JUMPDEST JUMPDEST DUP3 DUP3 SDIV DUP5 EQ DUP4 ISZERO OR PUSH2 0x2EED JUMPI PUSH2 0x2EEC PUSH2 0x2DEA JUMP JUMPDEST JUMPDEST POP SWAP3 SWAP2 POP POP JUMP JUMPDEST PUSH1 0x0 PUSH2 0x2EFF DUP3 PUSH2 0x2534 JUMP JUMPDEST SWAP2 POP PUSH2 0x2F0A DUP4 PUSH2 0x2534 JUMP JUMPDEST SWAP3 POP DUP3 DUP3 ADD SWAP1 POP DUP1 DUP3 GT ISZERO PUSH2 0x2F22 JUMPI PUSH2 0x2F21 PUSH2 0x2DEA JUMP JUMPDEST JUMPDEST SWAP3 SWAP2 POP POP JUMP JUMPDEST PUSH1 0x0 PUSH2 0x2F33 DUP3 PUSH2 0x2534 JUMP JUMPDEST SWAP2 POP PUSH2 0x2F3E DUP4 PUSH2 0x2534 JUMP JUMPDEST SWAP3 POP DUP3 PUSH2 0x2F4E JUMPI PUSH2 0x2F4D PUSH2 0x2D8A JUMP JUMPDEST JUMPDEST DUP3 DUP3 DIV SWAP1 POP SWAP3 SWAP2 POP POP JUMP JUMPDEST PUSH1 0x0 PUSH2 0x2F64 DUP3 PUSH2 0x2534 JUMP JUMPDEST SWAP2 POP PUSH2 0x2F6F DUP4 PUSH2 0x2534 JUMP JUMPDEST SWAP3 POP DUP3 DUP3 MUL PUSH2 0x2F7D DUP2 PUSH2 0x2534 JUMP JUMPDEST SWAP2 POP DUP3 DUP3 DIV DUP5 EQ DUP4 ISZERO OR PUSH2 0x2F94 JUMPI PUSH2 0x2F93 PUSH2 0x2DEA JUMP JUMPDEST JUMPDEST POP SWAP3 SWAP2 POP POP JUMP INVALID LOG2 PUSH5 0x6970667358 0x22 SLT KECCAK256 0x2A 0xF9 0x22 PUSH15 0xD073281FD63D856EC0DB8769D495E8 SELFBALANCE 0xBD STOP RETURNDATACOPY 0xAB 0xDD 0x2A 0xC6 MOD PUSH7 0xCBCDD464736F6C PUSH4 0x4300081B STOP CALLER "},"methodIdentifiers":{"_shr(BigNumber,uint256)":"63300952","_sub(bytes,bytes)":"2d577201","add(BigNumber,BigNumber)":"98cdcfb2","bitLength(BigNumber)":"44b41c37","bitLength(bytes)":"7b19cc9a","bitLength(uint256)":"e41bbcf8","cmp(BigNumber,BigNumber,bool)":"bc39804e","divVerify(BigNumber,BigNumber,BigNumber)":"8b78e386","eq(BigNumber,BigNumber)":"cd8e0ef7","gt(BigNumber,BigNumber)":"aa7312f6","gte(BigNumber,BigNumber)":"80147a8e","hash(BigNumber)":"904a9499","init(uint256,bool)":"40957f72","init_(bytes,bool,uint256)":"f6b508ff","init__(bytes,bool)":"a48a622a","isOdd(BigNumber)":"ee4a4e4e","isZero(BigNumber)":"08d78767","isZero(bytes)":"fad242a8","lt(BigNumber,BigNumber)":"ecdafa1f","lte(BigNumber,BigNumber)":"71f83991","mod(BigNumber,BigNumber)":"7afa8553","modexp(BigNumber,BigNumber,BigNumber)":"0e7671f2","modexp(BigNumber,BigNumber,BigNumber,BigNumber)":"72864ff3","modinvVerify(BigNumber,BigNumber,BigNumber)":"cb5c2316","modmul(BigNumber,BigNumber,BigNumber)":"a5d4ca5b","mul(BigNumber,BigNumber)":"b1d74ee9","one()":"901717d1","pow(BigNumber,uint256)":"75a01da5","shl(BigNumber,uint256)":"eb11d32e","shr(BigNumber,uint256)":"6efac6c7","sub(BigNumber,BigNumber)":"0a4638fd","two()":"5fdf05d7","verify(BigNumber)":"5bb65d1a","zero()":"bc1b392d"}}}}}