{"contracts/field/bigFiniteField.sol":{"BigFiniteField":{"abi":[{"inputs":[{"internalType":"bytes","name":"prime","type":"bytes"}],"stateMutability":"nonpayable","type":"constructor"},{"inputs":[{"internalType":"bytes","name":"b","type":"bytes"}],"name":"bytesToUint256","outputs":[{"internalType":"uint256","name":"","type":"uint256"}],"stateMutability":"pure","type":"function"},{"inputs":[{"components":[{"internalType":"bytes","name":"val","type":"bytes"},{"internalType":"bool","name":"neg","type":"bool"},{"internalType":"uint256","name":"bitlen","type":"uint256"}],"internalType":"struct BigNumber","name":"value","type":"tuple"}],"name":"createElement","outputs":[{"components":[{"components":[{"internalType":"bytes","name":"val","type":"bytes"},{"internalType":"bool","name":"neg","type":"bool"},{"internalType":"uint256","name":"bitlen","type":"uint256"}],"internalType":"struct BigNumber","name":"value","type":"tuple"}],"internalType":"struct Zp","name":"","type":"tuple"}],"stateMutability":"view","type":"function"},{"inputs":[{"components":[{"components":[{"internalType":"bytes","name":"val","type":"bytes"},{"internalType":"bool","name":"neg","type":"bool"},{"internalType":"uint256","name":"bitlen","type":"uint256"}],"internalType":"struct BigNumber","name":"value","type":"tuple"}],"internalType":"struct Zp","name":"x","type":"tuple"},{"components":[{"components":[{"internalType":"bytes","name":"val","type":"bytes"},{"internalType":"bool","name":"neg","type":"bool"},{"internalType":"uint256","name":"bitlen","type":"uint256"}],"internalType":"struct BigNumber","name":"value","type":"tuple"}],"internalType":"struct Zp","name":"y","type":"tuple"}],"name":"div","outputs":[{"components":[{"components":[{"internalType":"bytes","name":"val","type":"bytes"},{"internalType":"bool","name":"neg","type":"bool"},{"internalType":"uint256","name":"bitlen","type":"uint256"}],"internalType":"struct BigNumber","name":"value","type":"tuple"}],"internalType":"struct Zp","name":"","type":"tuple"}],"stateMutability":"view","type":"function"},{"inputs":[{"components":[{"components":[{"internalType":"bytes","name":"val","type":"bytes"},{"internalType":"bool","name":"neg","type":"bool"},{"internalType":"uint256","name":"bitlen","type":"uint256"}],"internalType":"struct BigNumber","name":"value","type":"tuple"}],"internalType":"struct Zp","name":"x","type":"tuple"},{"components":[{"components":[{"internalType":"bytes","name":"val","type":"bytes"},{"internalType":"bool","name":"neg","type":"bool"},{"internalType":"uint256","name":"bitlen","type":"uint256"}],"internalType":"struct BigNumber","name":"value","type":"tuple"}],"internalType":"struct Zp","name":"y","type":"tuple"}],"name":"equals","outputs":[{"internalType":"bool","name":"","type":"bool"}],"stateMutability":"pure","type":"function"},{"inputs":[{"components":[{"components":[{"internalType":"bytes","name":"val","type":"bytes"},{"internalType":"bool","name":"neg","type":"bool"},{"internalType":"uint256","name":"bitlen","type":"uint256"}],"internalType":"struct BigNumber","name":"value","type":"tuple"}],"internalType":"struct Zp","name":"x","type":"tuple"}],"name":"inverse","outputs":[{"components":[{"components":[{"internalType":"bytes","name":"val","type":"bytes"},{"internalType":"bool","name":"neg","type":"bool"},{"internalType":"uint256","name":"bitlen","type":"uint256"}],"internalType":"struct BigNumber","name":"value","type":"tuple"}],"internalType":"struct Zp","name":"","type":"tuple"}],"stateMutability":"view","type":"function"},{"inputs":[{"components":[{"components":[{"internalType":"bytes","name":"val","type":"bytes"},{"internalType":"bool","name":"neg","type":"bool"},{"internalType":"uint256","name":"bitlen","type":"uint256"}],"internalType":"struct BigNumber","name":"value","type":"tuple"}],"internalType":"struct Zp","name":"x","type":"tuple"},{"components":[{"components":[{"internalType":"bytes","name":"val","type":"bytes"},{"internalType":"bool","name":"neg","type":"bool"},{"internalType":"uint256","name":"bitlen","type":"uint256"}],"internalType":"struct BigNumber","name":"value","type":"tuple"}],"internalType":"struct Zp","name":"y","type":"tuple"}],"name":"mul","outputs":[{"components":[{"components":[{"internalType":"bytes","name":"val","type":"bytes"},{"internalType":"bool","name":"neg","type":"bool"},{"internalType":"uint256","name":"bitlen","type":"uint256"}],"internalType":"struct BigNumber","name":"value","type":"tuple"}],"internalType":"struct Zp","name":"","type":"tuple"}],"stateMutability":"view","type":"function"},{"inputs":[{"components":[{"components":[{"internalType":"bytes","name":"val","type":"bytes"},{"internalType":"bool","name":"neg","type":"bool"},{"internalType":"uint256","name":"bitlen","type":"uint256"}],"internalType":"struct BigNumber","name":"value","type":"tuple"}],"internalType":"struct Zp","name":"x","type":"tuple"}],"name":"mul_nonres","outputs":[{"components":[{"components":[{"internalType":"bytes","name":"val","type":"bytes"},{"internalType":"bool","name":"neg","type":"bool"},{"internalType":"uint256","name":"bitlen","type":"uint256"}],"internalType":"struct BigNumber","name":"value","type":"tuple"}],"internalType":"struct Zp","name":"","type":"tuple"}],"stateMutability":"pure","type":"function"},{"inputs":[],"name":"p","outputs":[{"internalType":"bytes","name":"val","type":"bytes"},{"internalType":"bool","name":"neg","type":"bool"},{"internalType":"uint256","name":"bitlen","type":"uint256"}],"stateMutability":"view","type":"function"},{"inputs":[{"components":[{"components":[{"internalType":"bytes","name":"val","type":"bytes"},{"internalType":"bool","name":"neg","type":"bool"},{"internalType":"uint256","name":"bitlen","type":"uint256"}],"internalType":"struct BigNumber","name":"value","type":"tuple"}],"internalType":"struct Zp","name":"x","type":"tuple"},{"components":[{"components":[{"internalType":"bytes","name":"val","type":"bytes"},{"internalType":"bool","name":"neg","type":"bool"},{"internalType":"uint256","name":"bitlen","type":"uint256"}],"internalType":"struct BigNumber","name":"value","type":"tuple"}],"internalType":"struct Zp","name":"y","type":"tuple"}],"name":"sub","outputs":[{"components":[{"components":[{"internalType":"bytes","name":"val","type":"bytes"},{"internalType":"bool","name":"neg","type":"bool"},{"internalType":"uint256","name":"bitlen","type":"uint256"}],"internalType":"struct BigNumber","name":"value","type":"tuple"}],"internalType":"struct Zp","name":"","type":"tuple"}],"stateMutability":"view","type":"function"},{"inputs":[{"components":[{"components":[{"internalType":"bytes","name":"val","type":"bytes"},{"internalType":"bool","name":"neg","type":"bool"},{"internalType":"uint256","name":"bitlen","type":"uint256"}],"internalType":"struct BigNumber","name":"value","type":"tuple"}],"internalType":"struct Zp","name":"x","type":"tuple"},{"components":[{"components":[{"internalType":"bytes","name":"val","type":"bytes"},{"internalType":"bool","name":"neg","type":"bool"},{"internalType":"uint256","name":"bitlen","type":"uint256"}],"internalType":"struct BigNumber","name":"value","type":"tuple"}],"internalType":"struct Zp","name":"y","type":"tuple"}],"name":"sum","outputs":[{"components":[{"components":[{"internalType":"bytes","name":"val","type":"bytes"},{"internalType":"bool","name":"neg","type":"bool"},{"internalType":"uint256","name":"bitlen","type":"uint256"}],"internalType":"struct BigNumber","name":"value","type":"tuple"}],"internalType":"struct Zp","name":"","type":"tuple"}],"stateMutability":"view","type":"function"},{"inputs":[],"name":"zero","outputs":[{"components":[{"components":[{"internalType":"bytes","name":"val","type":"bytes"},{"internalType":"bool","name":"neg","type":"bool"},{"internalType":"uint256","name":"bitlen","type":"uint256"}],"internalType":"struct BigNumber","name":"value","type":"tuple"}],"internalType":"struct Zp","name":"","type":"tuple"}],"stateMutability":"pure","type":"function"}],"evm":{"bytecode":{"linkReferences":{"contracts/BigNumber.sol":{"BigNumbers":[{"length":20,"start":52},{"length":20,"start":2645},{"length":20,"start":2924},{"length":20,"start":3184},{"length":20,"start":3480},{"length":20,"start":3700},{"length":20,"start":4073},{"length":20,"start":4284},{"length":20,"start":4315},{"length":20,"start":4593},{"length":20,"start":4624},{"length":20,"start":4652},{"length":20,"start":5041},{"length":20,"start":5301},{"length":20,"start":5513},{"length":20,"start":5726},{"length":20,"start":5986},{"length":20,"start":6198},{"length":20,"start":6374},{"length":20,"start":6637},{"length":20,"start":6897},{"length":20,"start":7108},{"length":20,"start":7315},{"length":20,"start":7575},{"length":20,"start":7787},{"length":20,"start":7813}]}},"object":"608060405234801561001057600080fd5b50604051612da2380380612da283398181016040528101906100329190610271565b73__$7db5d2dbc3ae63372df6c39d501ad0f72a$__63a48a622a8260006040518363ffffffff1660e01b815260040161006c92919061032a565b600060405180830381865af4158015610089573d6000803e3d6000fd5b505050506040513d6000823e3d601f19601f820116820180604052508101906100b29190610446565b6000808201518160000190816100c8919061069b565b5060208201518160010160006101000a81548160ff021916908315150217905550604082015181600201559050505061076d565b6000604051905090565b600080fd5b600080fd5b600080fd5b600080fd5b6000601f19601f8301169050919050565b7f4e487b7100000000000000000000000000000000000000000000000000000000600052604160045260246000fd5b6101638261011a565b810181811067ffffffffffffffff821117156101825761018161012b565b5b80604052505050565b60006101956100fc565b90506101a1828261015a565b919050565b600067ffffffffffffffff8211156101c1576101c061012b565b5b6101ca8261011a565b9050602081019050919050565b60005b838110156101f55780820151818401526020810190506101da565b60008484015250505050565b600061021461020f846101a6565b61018b565b9050828152602081018484840111156102305761022f610115565b5b61023b8482856101d7565b509392505050565b600082601f83011261025857610257610110565b5b8151610268848260208601610201565b91505092915050565b60006020828403121561028757610286610106565b5b600082015167ffffffffffffffff8111156102a5576102a461010b565b5b6102b184828501610243565b91505092915050565b600081519050919050565b600082825260208201905092915050565b60006102e1826102ba565b6102eb81856102c5565b93506102fb8185602086016101d7565b6103048161011a565b840191505092915050565b60008115159050919050565b6103248161030f565b82525050565b6000604082019050818103600083015261034481856102d6565b9050610353602083018461031b565b9392505050565b600080fd5b600080fd5b61036d8161030f565b811461037857600080fd5b50565b60008151905061038a81610364565b92915050565b6000819050919050565b6103a381610390565b81146103ae57600080fd5b50565b6000815190506103c08161039a565b92915050565b6000606082840312156103dc576103db61035a565b5b6103e6606061018b565b9050600082015167ffffffffffffffff8111156104065761040561035f565b5b61041284828501610243565b60008301525060206104268482850161037b565b602083015250604061043a848285016103b1565b60408301525092915050565b60006020828403121561045c5761045b610106565b5b600082015167ffffffffffffffff81111561047a5761047961010b565b5b610486848285016103c6565b91505092915050565b7f4e487b7100000000000000000000000000000000000000000000000000000000600052602260045260246000fd5b600060028204905060018216806104d657607f821691505b6020821081036104e9576104e861048f565b5b50919050565b60008190508160005260206000209050919050565b60006020601f8301049050919050565b600082821b905092915050565b6000600883026105517fffffffffffffffffffffffffffffffffffffffffffffffffffffffffffffffff82610514565b61055b8683610514565b95508019841693508086168417925050509392505050565b6000819050919050565b600061059861059361058e84610390565b610573565b610390565b9050919050565b6000819050919050565b6105b28361057d565b6105c66105be8261059f565b848454610521565b825550505050565b600090565b6105db6105ce565b6105e68184846105a9565b505050565b5b8181101561060a576105ff6000826105d3565b6001810190506105ec565b5050565b601f82111561064f57610620816104ef565b61062984610504565b81016020851015610638578190505b61064c61064485610504565b8301826105eb565b50505b505050565b600082821c905092915050565b600061067260001984600802610654565b1980831691505092915050565b600061068b8383610661565b9150826002028217905092915050565b6106a4826102ba565b67ffffffffffffffff8111156106bd576106bc61012b565b5b6106c782546104be565b6106d282828561060e565b600060209050601f83116001811461070557600084156106f3578287015190505b6106fd858261067f565b865550610765565b601f198416610713866104ef565b60005b8281101561073b57848901518255600182019150602085019450602081019050610716565b868310156107585784890151610754601f891682610661565b8355505b6001600288020188555050505b505050505050565b6126268061077c6000396000f3fe608060405234801561001057600080fd5b50600436106100a95760003560e01c8063a9a52e7e11610071578063a9a52e7e1461018e578063b5e28325146101be578063bc1b392d146101ee578063cc9de25d1461020c578063d4d455541461023c578063fb2bedad1461026c576100a9565b8063085eb2b9146100ae57806312f7411b146100de578063170147421461010e5780639ae8886a1461013e578063a672d1001461015e575b600080fd5b6100c860048036038101906100c39190611aec565b61029c565b6040516100d59190611c4c565b60405180910390f35b6100f860048036038101906100f39190611c6e565b6103b3565b6040516101059190611c4c565b60405180910390f35b61012860048036038101906101239190611ce6565b6105e3565b6040516101359190611c4c565b60405180910390f35b610146610783565b60405161015593929190611d97565b60405180910390f35b61017860048036038101906101739190611aec565b610830565b6040516101859190611c4c565b60405180910390f35b6101a860048036038101906101a39190611c6e565b610bf8565b6040516101b59190611c4c565b60405180910390f35b6101d860048036038101906101d39190611c6e565b610ea5565b6040516101e59190611c4c565b60405180910390f35b6101f6611155565b6040516102039190611c4c565b60405180910390f35b61022660048036038101906102219190611dd5565b6111e2565b6040516102339190611e1e565b60405180910390f35b61025660048036038101906102519190611c6e565b61123a565b6040516102639190611e39565b60405180910390f35b61028660048036038101906102819190611c6e565b6114da565b6040516102939190611c4c565b60405180910390f35b6102a4611806565b81600001516000151581602001511515146102be57600080fd5b60008082600001519050602081015191506000820361035d5773__$7db5d2dbc3ae63372df6c39d501ad0f72a$__6308d78767846040518263ffffffff1660e01b815260040161030e9190611f0c565b602060405180830381865af415801561032b573d6000803e3d6000fd5b505050506040513d601f19601f8201168201806040525081019061034f9190611f43565b61035857600080fd5b6103a8565b600060208460000151516103719190611f9f565b14801561039e575060016101006001856040015161038f9190611fff565b6103999190611f9f565b83901c145b6103a757600080fd5b5b849350505050919050565b6103bb611806565b82600001516000151581602001511515146103d557600080fd5b6000808260000151905060208101519150600082036104745773__$7db5d2dbc3ae63372df6c39d501ad0f72a$__6308d78767846040518263ffffffff1660e01b81526004016104259190611f0c565b602060405180830381865af4158015610442573d6000803e3d6000fd5b505050506040513d601f19601f820116820180604052508101906104669190611f43565b61046f57600080fd5b6104bf565b600060208460000151516104889190611f9f565b1480156104b557506001610100600185604001516104a69190611fff565b6104b09190611f9f565b83901c145b6104be57600080fd5b5b84600001516000151581602001511515146104d957600080fd5b6000808260000151905060208101519150600082036105785773__$7db5d2dbc3ae63372df6c39d501ad0f72a$__6308d78767846040518263ffffffff1660e01b81526004016105299190611f0c565b602060405180830381865af4158015610546573d6000803e3d6000fd5b505050506040513d601f19601f8201168201806040525081019061056a9190611f43565b61057357600080fd5b6105c3565b6000602084600001515161058c9190611f9f565b1480156105b957506001610100600185604001516105aa9190611fff565b6105b49190611f9f565b83901c145b6105c257600080fd5b5b6105d5896105d08a610830565b610ea5565b965050505050505092915050565b6105eb611806565b8160001515816020015115151461060157600080fd5b6000808260000151905060208101519150600082036106a05773__$7db5d2dbc3ae63372df6c39d501ad0f72a$__6308d78767846040518263ffffffff1660e01b81526004016106519190611f0c565b602060405180830381865af415801561066e573d6000803e3d6000fd5b505050506040513d601f19601f820116820180604052508101906106929190611f43565b61069b57600080fd5b6106eb565b600060208460000151516106b49190611f9f565b1480156106e157506001610100600185604001516106d29190611fff565b6106dc9190611f9f565b83901c145b6106ea57600080fd5b5b604051806020016040528073__$7db5d2dbc3ae63372df6c39d501ad0f72a$__637afa85538860006040518363ffffffff1660e01b81526004016107309291906121eb565b600060405180830381865af415801561074d573d6000803e3d6000fd5b505050506040513d6000823e3d601f19601f820116820180604052508101906107769190612327565b8152509350505050919050565b600080600001805461079490612062565b80601f01602080910402602001604051908101604052809291908181526020018280546107c090612062565b801561080d5780601f106107e25761010080835404028352916020019161080d565b820191906000526020600020905b8154815290600101906020018083116107f057829003601f168201915b5050505050908060010160009054906101000a900460ff16908060020154905083565b610838611806565b816000015160001515816020015115151461085257600080fd5b6000808260000151905060208101519150600082036108f15773__$7db5d2dbc3ae63372df6c39d501ad0f72a$__6308d78767846040518263ffffffff1660e01b81526004016108a29190611f0c565b602060405180830381865af41580156108bf573d6000803e3d6000fd5b505050506040513d601f19601f820116820180604052508101906108e39190611f43565b6108ec57600080fd5b61093c565b600060208460000151516109059190611f9f565b14801561093257506001610100600185604001516109239190611fff565b61092d9190611f9f565b83901c145b61093b57600080fd5b5b600073__$7db5d2dbc3ae63372df6c39d501ad0f72a$__63bc39804e876000015173__$7db5d2dbc3ae63372df6c39d501ad0f72a$__63bc1b392d6040518163ffffffff1660e01b8152600401600060405180830381865af41580156109a6573d6000803e3d6000fd5b505050506040513d6000823e3d601f19601f820116820180604052508101906109cf9190612327565b60006040518463ffffffff1660e01b81526004016109ef9392919061237f565b602060405180830381865af4158015610a0c573d6000803e3d6000fd5b505050506040513d601f19601f82011682018060405250810190610a3091906123fa565b03610a70576040517f08c379a0000000000000000000000000000000000000000000000000000000008152600401610a6790612484565b60405180910390fd5b610bee73__$7db5d2dbc3ae63372df6c39d501ad0f72a$__630e7671f2876000015173__$7db5d2dbc3ae63372df6c39d501ad0f72a$__630a4638fd600073__$7db5d2dbc3ae63372df6c39d501ad0f72a$__635fdf05d76040518163ffffffff1660e01b8152600401600060405180830381865af4158015610af7573d6000803e3d6000fd5b505050506040513d6000823e3d601f19601f82011682018060405250810190610b209190612327565b6040518363ffffffff1660e01b8152600401610b3d9291906124a4565b600060405180830381865af4158015610b5a573d6000803e3d6000fd5b505050506040513d6000823e3d601f19601f82011682018060405250810190610b839190612327565b60006040518463ffffffff1660e01b8152600401610ba3939291906124db565b600060405180830381865af4158015610bc0573d6000803e3d6000fd5b505050506040513d6000823e3d601f19601f82011682018060405250810190610be99190612327565b6105e3565b9350505050919050565b610c00611806565b8260000151600015158160200151151514610c1a57600080fd5b600080826000015190506020810151915060008203610cb95773__$7db5d2dbc3ae63372df6c39d501ad0f72a$__6308d78767846040518263ffffffff1660e01b8152600401610c6a9190611f0c565b602060405180830381865af4158015610c87573d6000803e3d6000fd5b505050506040513d601f19601f82011682018060405250810190610cab9190611f43565b610cb457600080fd5b610d04565b60006020846000015151610ccd9190611f9f565b148015610cfa5750600161010060018560400151610ceb9190611fff565b610cf59190611f9f565b83901c145b610d0357600080fd5b5b8460000151600015158160200151151514610d1e57600080fd5b600080826000015190506020810151915060008203610dbd5773__$7db5d2dbc3ae63372df6c39d501ad0f72a$__6308d78767846040518263ffffffff1660e01b8152600401610d6e9190611f0c565b602060405180830381865af4158015610d8b573d6000803e3d6000fd5b505050506040513d601f19601f82011682018060405250810190610daf9190611f43565b610db857600080fd5b610e08565b60006020846000015151610dd19190611f9f565b148015610dfe5750600161010060018560400151610def9190611fff565b610df99190611f9f565b83901c145b610e0757600080fd5b5b610e9773__$7db5d2dbc3ae63372df6c39d501ad0f72a$__6398cdcfb28b600001518b600001516040518363ffffffff1660e01b8152600401610e4c929190612527565b600060405180830381865af4158015610e69573d6000803e3d6000fd5b505050506040513d6000823e3d601f19601f82011682018060405250810190610e929190612327565b6105e3565b965050505050505092915050565b610ead611806565b8260000151600015158160200151151514610ec757600080fd5b600080826000015190506020810151915060008203610f665773__$7db5d2dbc3ae63372df6c39d501ad0f72a$__6308d78767846040518263ffffffff1660e01b8152600401610f179190611f0c565b602060405180830381865af4158015610f34573d6000803e3d6000fd5b505050506040513d601f19601f82011682018060405250810190610f589190611f43565b610f6157600080fd5b610fb1565b60006020846000015151610f7a9190611f9f565b148015610fa75750600161010060018560400151610f989190611fff565b610fa29190611f9f565b83901c145b610fb057600080fd5b5b8460000151600015158160200151151514610fcb57600080fd5b60008082600001519050602081015191506000820361106a5773__$7db5d2dbc3ae63372df6c39d501ad0f72a$__6308d78767846040518263ffffffff1660e01b815260040161101b9190611f0c565b602060405180830381865af4158015611038573d6000803e3d6000fd5b505050506040513d601f19601f8201168201806040525081019061105c9190611f43565b61106557600080fd5b6110b5565b6000602084600001515161107e9190611f9f565b1480156110ab575060016101006001856040015161109c9190611fff565b6110a69190611f9f565b83901c145b6110b457600080fd5b5b61114773__$7db5d2dbc3ae63372df6c39d501ad0f72a$__63a5d4ca5b8b600001518b6000015160006040518463ffffffff1660e01b81526004016110fc939291906124db565b600060405180830381865af4158015611119573d6000803e3d6000fd5b505050506040513d6000823e3d601f19601f820116820180604052508101906111429190612327565b6105e3565b965050505050505092915050565b61115d611806565b604051806020016040528073__$7db5d2dbc3ae63372df6c39d501ad0f72a$__63bc1b392d6040518163ffffffff1660e01b8152600401600060405180830381865af41580156111b1573d6000803e3d6000fd5b505050506040513d6000823e3d601f19601f820116820180604052508101906111da9190612327565b815250905090565b60006020825114611228576040517f08c379a000000000000000000000000000000000000000000000000000000000815260040161121f906125d0565b60405180910390fd5b60006020830151905080915050919050565b6000826000015160001515816020015115151461125657600080fd5b6000808260000151905060208101519150600082036112f55773__$7db5d2dbc3ae63372df6c39d501ad0f72a$__6308d78767846040518263ffffffff1660e01b81526004016112a69190611f0c565b602060405180830381865af41580156112c3573d6000803e3d6000fd5b505050506040513d601f19601f820116820180604052508101906112e79190611f43565b6112f057600080fd5b611340565b600060208460000151516113099190611f9f565b14801561133657506001610100600185604001516113279190611fff565b6113319190611f9f565b83901c145b61133f57600080fd5b5b846000015160001515816020015115151461135a57600080fd5b6000808260000151905060208101519150600082036113f95773__$7db5d2dbc3ae63372df6c39d501ad0f72a$__6308d78767846040518263ffffffff1660e01b81526004016113aa9190611f0c565b602060405180830381865af41580156113c7573d6000803e3d6000fd5b505050506040513d601f19601f820116820180604052508101906113eb9190611f43565b6113f457600080fd5b611444565b6000602084600001515161140d9190611f9f565b14801561143a575060016101006001856040015161142b9190611fff565b6114359190611f9f565b83901c145b61144357600080fd5b5b600073__$7db5d2dbc3ae63372df6c39d501ad0f72a$__63bc39804e8b600001518b6000015160006040518463ffffffff1660e01b815260040161148a9392919061237f565b602060405180830381865af41580156114a7573d6000803e3d6000fd5b505050506040513d601f19601f820116820180604052508101906114cb91906123fa565b14965050505050505092915050565b6114e2611806565b82600001516000151581602001511515146114fc57600080fd5b60008082600001519050602081015191506000820361159b5773__$7db5d2dbc3ae63372df6c39d501ad0f72a$__6308d78767846040518263ffffffff1660e01b815260040161154c9190611f0c565b602060405180830381865af4158015611569573d6000803e3d6000fd5b505050506040513d601f19601f8201168201806040525081019061158d9190611f43565b61159657600080fd5b6115e6565b600060208460000151516115af9190611f9f565b1480156115dc57506001610100600185604001516115cd9190611fff565b6115d79190611f9f565b83901c145b6115e557600080fd5b5b846000015160001515816020015115151461160057600080fd5b60008082600001519050602081015191506000820361169f5773__$7db5d2dbc3ae63372df6c39d501ad0f72a$__6308d78767846040518263ffffffff1660e01b81526004016116509190611f0c565b602060405180830381865af415801561166d573d6000803e3d6000fd5b505050506040513d601f19601f820116820180604052508101906116919190611f43565b61169a57600080fd5b6116ea565b600060208460000151516116b39190611f9f565b1480156116e057506001610100600185604001516116d19190611fff565b6116db9190611f9f565b83901c145b6116e957600080fd5b5b6117f873__$7db5d2dbc3ae63372df6c39d501ad0f72a$__637afa855373__$7db5d2dbc3ae63372df6c39d501ad0f72a$__630a4638fd8d600001518d600001516040518363ffffffff1660e01b8152600401611748929190612527565b600060405180830381865af4158015611765573d6000803e3d6000fd5b505050506040513d6000823e3d601f19601f8201168201806040525081019061178e9190612327565b60006040518363ffffffff1660e01b81526004016117ad9291906121eb565b600060405180830381865af41580156117ca573d6000803e3d6000fd5b505050506040513d6000823e3d601f19601f820116820180604052508101906117f39190612327565b6105e3565b965050505050505092915050565b604051806020016040528061181961181f565b81525090565b604051806060016040528060608152602001600015158152602001600081525090565b6000604051905090565b600080fd5b600080fd5b600080fd5b6000601f19601f8301169050919050565b7f4e487b7100000000000000000000000000000000000000000000000000000000600052604160045260246000fd5b6118a48261185b565b810181811067ffffffffffffffff821117156118c3576118c261186c565b5b80604052505050565b60006118d6611842565b90506118e2828261189b565b919050565b600080fd5b600080fd5b600080fd5b600067ffffffffffffffff8211156119115761191061186c565b5b61191a8261185b565b9050602081019050919050565b82818337600083830152505050565b6000611949611944846118f6565b6118cc565b905082815260208101848484011115611965576119646118f1565b5b611970848285611927565b509392505050565b600082601f83011261198d5761198c6118ec565b5b813561199d848260208601611936565b91505092915050565b60008115159050919050565b6119bb816119a6565b81146119c657600080fd5b50565b6000813590506119d8816119b2565b92915050565b6000819050919050565b6119f1816119de565b81146119fc57600080fd5b50565b600081359050611a0e816119e8565b92915050565b600060608284031215611a2a57611a29611856565b5b611a3460606118cc565b9050600082013567ffffffffffffffff811115611a5457611a536118e7565b5b611a6084828501611978565b6000830152506020611a74848285016119c9565b6020830152506040611a88848285016119ff565b60408301525092915050565b600060208284031215611aaa57611aa9611856565b5b611ab460206118cc565b9050600082013567ffffffffffffffff811115611ad457611ad36118e7565b5b611ae084828501611a14565b60008301525092915050565b600060208284031215611b0257611b0161184c565b5b600082013567ffffffffffffffff811115611b2057611b1f611851565b5b611b2c84828501611a94565b91505092915050565b600081519050919050565b600082825260208201905092915050565b60005b83811015611b6f578082015181840152602081019050611b54565b60008484015250505050565b6000611b8682611b35565b611b908185611b40565b9350611ba0818560208601611b51565b611ba98161185b565b840191505092915050565b611bbd816119a6565b82525050565b611bcc816119de565b82525050565b60006060830160008301518482036000860152611bef8282611b7b565b9150506020830151611c046020860182611bb4565b506040830151611c176040860182611bc3565b508091505092915050565b60006020830160008301518482036000860152611c3f8282611bd2565b9150508091505092915050565b60006020820190508181036000830152611c668184611c22565b905092915050565b60008060408385031215611c8557611c8461184c565b5b600083013567ffffffffffffffff811115611ca357611ca2611851565b5b611caf85828601611a94565b925050602083013567ffffffffffffffff811115611cd057611ccf611851565b5b611cdc85828601611a94565b9150509250929050565b600060208284031215611cfc57611cfb61184c565b5b600082013567ffffffffffffffff811115611d1a57611d19611851565b5b611d2684828501611a14565b91505092915050565b600082825260208201905092915050565b6000611d4b82611b35565b611d558185611d2f565b9350611d65818560208601611b51565b611d6e8161185b565b840191505092915050565b611d82816119a6565b82525050565b611d91816119de565b82525050565b60006060820190508181036000830152611db18186611d40565b9050611dc06020830185611d79565b611dcd6040830184611d88565b949350505050565b600060208284031215611deb57611dea61184c565b5b600082013567ffffffffffffffff811115611e0957611e08611851565b5b611e1584828501611978565b91505092915050565b6000602082019050611e336000830184611d88565b92915050565b6000602082019050611e4e6000830184611d79565b92915050565b600082825260208201905092915050565b6000611e7082611b35565b611e7a8185611e54565b9350611e8a818560208601611b51565b611e938161185b565b840191505092915050565b611ea7816119a6565b82525050565b611eb6816119de565b82525050565b60006060830160008301518482036000860152611ed98282611e65565b9150506020830151611eee6020860182611e9e565b506040830151611f016040860182611ead565b508091505092915050565b60006020820190508181036000830152611f268184611ebc565b905092915050565b600081519050611f3d816119b2565b92915050565b600060208284031215611f5957611f5861184c565b5b6000611f6784828501611f2e565b91505092915050565b7f4e487b7100000000000000000000000000000000000000000000000000000000600052601260045260246000fd5b6000611faa826119de565b9150611fb5836119de565b925082611fc557611fc4611f70565b5b828206905092915050565b7f4e487b7100000000000000000000000000000000000000000000000000000000600052601160045260246000fd5b600061200a826119de565b9150612015836119de565b925082820390508181111561202d5761202c611fd0565b5b92915050565b7f4e487b7100000000000000000000000000000000000000000000000000000000600052602260045260246000fd5b6000600282049050600182168061207a57607f821691505b60208210810361208d5761208c612033565b5b50919050565b60008190508160005260206000209050919050565b600081546120b581612062565b6120bf8186611e54565b945060018216600081146120da57600181146120f057612123565b60ff198316865281151560200286019350612123565b6120f985612093565b60005b8381101561211b578154818901526001820191506020810190506120fc565b808801955050505b50505092915050565b60008160001c9050919050565b600060ff82169050919050565b60006121596121548361212c565b612139565b9050919050565b6000819050919050565b600061217d6121788361212c565b612160565b9050919050565b600060608301600080840185830360008701526121a183826120a8565b925050600184015490506121b481612146565b6121c16020870182611e9e565b50600284015490506121d28161216a565b6121df6040870182611ead565b50819250505092915050565b600060408201905081810360008301526122058185611ebc565b905081810360208301526122198184612184565b90509392505050565b6000612235612230846118f6565b6118cc565b905082815260208101848484011115612251576122506118f1565b5b61225c848285611b51565b509392505050565b600082601f830112612279576122786118ec565b5b8151612289848260208601612222565b91505092915050565b6000815190506122a1816119e8565b92915050565b6000606082840312156122bd576122bc611856565b5b6122c760606118cc565b9050600082015167ffffffffffffffff8111156122e7576122e66118e7565b5b6122f384828501612264565b600083015250602061230784828501611f2e565b602083015250604061231b84828501612292565b60408301525092915050565b60006020828403121561233d5761233c61184c565b5b600082015167ffffffffffffffff81111561235b5761235a611851565b5b612367848285016122a7565b91505092915050565b612379816119a6565b82525050565b600060608201905081810360008301526123998186611ebc565b905081810360208301526123ad8185611ebc565b90506123bc6040830184612370565b949350505050565b6000819050919050565b6123d7816123c4565b81146123e257600080fd5b50565b6000815190506123f4816123ce565b92915050565b6000602082840312156124105761240f61184c565b5b600061241e848285016123e5565b91505092915050565b600082825260208201905092915050565b7f496e766572736f20706572207a65726f206e6f6e20646566696e69746f2e0000600082015250565b600061246e601e83612427565b915061247982612438565b602082019050919050565b6000602082019050818103600083015261249d81612461565b9050919050565b600060408201905081810360008301526124be8185612184565b905081810360208301526124d28184611ebc565b90509392505050565b600060608201905081810360008301526124f58186611ebc565b905081810360208301526125098185611ebc565b9050818103604083015261251d8184612184565b9050949350505050565b600060408201905081810360008301526125418185611ebc565b905081810360208301526125558184611ebc565b90509392505050565b7f496e76616c6964206279746573206c656e6774682e204d75737420626520333260008201527f2062797465732e00000000000000000000000000000000000000000000000000602082015250565b60006125ba602783612427565b91506125c58261255e565b604082019050919050565b600060208201905081810360008301526125e9816125ad565b905091905056fea2646970667358221220f59bf874dc57dbb40595f50610dcb03cc2ba29d8ee403b24b278fb4e61934bbd64736f6c634300081b0033","opcodes":"PUSH1 0x80 PUSH1 0x40 MSTORE CALLVALUE DUP1 ISZERO PUSH2 0x10 JUMPI PUSH1 0x0 DUP1 REVERT JUMPDEST POP PUSH1 0x40 MLOAD PUSH2 0x2DA2 CODESIZE SUB DUP1 PUSH2 0x2DA2 DUP4 CODECOPY DUP2 DUP2 ADD PUSH1 0x40 MSTORE DUP2 ADD SWAP1 PUSH2 0x32 SWAP2 SWAP1 PUSH2 0x271 JUMP JUMPDEST PUSH20 0x0 PUSH4 0xA48A622A DUP3 PUSH1 0x0 PUSH1 0x40 MLOAD DUP4 PUSH4 0xFFFFFFFF AND PUSH1 0xE0 SHL DUP2 MSTORE PUSH1 0x4 ADD PUSH2 0x6C SWAP3 SWAP2 SWAP1 PUSH2 0x32A JUMP JUMPDEST PUSH1 0x0 PUSH1 0x40 MLOAD DUP1 DUP4 SUB DUP2 DUP7 GAS DELEGATECALL ISZERO DUP1 ISZERO PUSH2 0x89 JUMPI RETURNDATASIZE PUSH1 0x0 DUP1 RETURNDATACOPY RETURNDATASIZE PUSH1 0x0 REVERT JUMPDEST POP POP POP POP PUSH1 0x40 MLOAD RETURNDATASIZE PUSH1 0x0 DUP3 RETURNDATACOPY RETURNDATASIZE PUSH1 0x1F NOT PUSH1 0x1F DUP3 ADD AND DUP3 ADD DUP1 PUSH1 0x40 MSTORE POP DUP2 ADD SWAP1 PUSH2 0xB2 SWAP2 SWAP1 PUSH2 0x446 JUMP JUMPDEST PUSH1 0x0 DUP1 DUP3 ADD MLOAD DUP2 PUSH1 0x0 ADD SWAP1 DUP2 PUSH2 0xC8 SWAP2 SWAP1 PUSH2 0x69B JUMP JUMPDEST POP PUSH1 0x20 DUP3 ADD MLOAD DUP2 PUSH1 0x1 ADD PUSH1 0x0 PUSH2 0x100 EXP DUP2 SLOAD DUP2 PUSH1 0xFF MUL NOT AND SWAP1 DUP4 ISZERO ISZERO MUL OR SWAP1 SSTORE POP PUSH1 0x40 DUP3 ADD MLOAD DUP2 PUSH1 0x2 ADD SSTORE SWAP1 POP POP POP PUSH2 0x76D JUMP JUMPDEST PUSH1 0x0 PUSH1 0x40 MLOAD SWAP1 POP SWAP1 JUMP JUMPDEST PUSH1 0x0 DUP1 REVERT JUMPDEST PUSH1 0x0 DUP1 REVERT JUMPDEST PUSH1 0x0 DUP1 REVERT JUMPDEST PUSH1 0x0 DUP1 REVERT JUMPDEST PUSH1 0x0 PUSH1 0x1F NOT PUSH1 0x1F DUP4 ADD AND SWAP1 POP SWAP2 SWAP1 POP JUMP JUMPDEST PUSH32 0x4E487B7100000000000000000000000000000000000000000000000000000000 PUSH1 0x0 MSTORE PUSH1 0x41 PUSH1 0x4 MSTORE PUSH1 0x24 PUSH1 0x0 REVERT JUMPDEST PUSH2 0x163 DUP3 PUSH2 0x11A JUMP JUMPDEST DUP2 ADD DUP2 DUP2 LT PUSH8 0xFFFFFFFFFFFFFFFF DUP3 GT OR ISZERO PUSH2 0x182 JUMPI PUSH2 0x181 PUSH2 0x12B JUMP JUMPDEST JUMPDEST DUP1 PUSH1 0x40 MSTORE POP POP POP JUMP JUMPDEST PUSH1 0x0 PUSH2 0x195 PUSH2 0xFC JUMP JUMPDEST SWAP1 POP PUSH2 0x1A1 DUP3 DUP3 PUSH2 0x15A JUMP JUMPDEST SWAP2 SWAP1 POP JUMP JUMPDEST PUSH1 0x0 PUSH8 0xFFFFFFFFFFFFFFFF DUP3 GT ISZERO PUSH2 0x1C1 JUMPI PUSH2 0x1C0 PUSH2 0x12B JUMP JUMPDEST JUMPDEST PUSH2 0x1CA DUP3 PUSH2 0x11A JUMP JUMPDEST SWAP1 POP PUSH1 0x20 DUP2 ADD SWAP1 POP SWAP2 SWAP1 POP JUMP JUMPDEST PUSH1 0x0 JUMPDEST DUP4 DUP2 LT ISZERO PUSH2 0x1F5 JUMPI DUP1 DUP3 ADD MLOAD DUP2 DUP5 ADD MSTORE PUSH1 0x20 DUP2 ADD SWAP1 POP PUSH2 0x1DA JUMP JUMPDEST PUSH1 0x0 DUP5 DUP5 ADD MSTORE POP POP POP POP JUMP JUMPDEST PUSH1 0x0 PUSH2 0x214 PUSH2 0x20F DUP5 PUSH2 0x1A6 JUMP JUMPDEST PUSH2 0x18B JUMP JUMPDEST SWAP1 POP DUP3 DUP2 MSTORE PUSH1 0x20 DUP2 ADD DUP5 DUP5 DUP5 ADD GT ISZERO PUSH2 0x230 JUMPI PUSH2 0x22F PUSH2 0x115 JUMP JUMPDEST JUMPDEST PUSH2 0x23B DUP5 DUP3 DUP6 PUSH2 0x1D7 JUMP JUMPDEST POP SWAP4 SWAP3 POP POP POP JUMP JUMPDEST PUSH1 0x0 DUP3 PUSH1 0x1F DUP4 ADD SLT PUSH2 0x258 JUMPI PUSH2 0x257 PUSH2 0x110 JUMP JUMPDEST JUMPDEST DUP2 MLOAD PUSH2 0x268 DUP5 DUP3 PUSH1 0x20 DUP7 ADD PUSH2 0x201 JUMP JUMPDEST SWAP2 POP POP SWAP3 SWAP2 POP POP JUMP JUMPDEST PUSH1 0x0 PUSH1 0x20 DUP3 DUP5 SUB SLT ISZERO PUSH2 0x287 JUMPI PUSH2 0x286 PUSH2 0x106 JUMP JUMPDEST JUMPDEST PUSH1 0x0 DUP3 ADD MLOAD PUSH8 0xFFFFFFFFFFFFFFFF DUP2 GT ISZERO PUSH2 0x2A5 JUMPI PUSH2 0x2A4 PUSH2 0x10B JUMP JUMPDEST JUMPDEST PUSH2 0x2B1 DUP5 DUP3 DUP6 ADD PUSH2 0x243 JUMP JUMPDEST SWAP2 POP POP SWAP3 SWAP2 POP POP JUMP JUMPDEST PUSH1 0x0 DUP2 MLOAD SWAP1 POP SWAP2 SWAP1 POP JUMP JUMPDEST PUSH1 0x0 DUP3 DUP3 MSTORE PUSH1 0x20 DUP3 ADD SWAP1 POP SWAP3 SWAP2 POP POP JUMP JUMPDEST PUSH1 0x0 PUSH2 0x2E1 DUP3 PUSH2 0x2BA JUMP JUMPDEST PUSH2 0x2EB DUP2 DUP6 PUSH2 0x2C5 JUMP JUMPDEST SWAP4 POP PUSH2 0x2FB DUP2 DUP6 PUSH1 0x20 DUP7 ADD PUSH2 0x1D7 JUMP JUMPDEST PUSH2 0x304 DUP2 PUSH2 0x11A JUMP JUMPDEST DUP5 ADD SWAP2 POP POP SWAP3 SWAP2 POP POP JUMP JUMPDEST PUSH1 0x0 DUP2 ISZERO ISZERO SWAP1 POP SWAP2 SWAP1 POP JUMP JUMPDEST PUSH2 0x324 DUP2 PUSH2 0x30F JUMP JUMPDEST DUP3 MSTORE POP POP JUMP JUMPDEST PUSH1 0x0 PUSH1 0x40 DUP3 ADD SWAP1 POP DUP2 DUP2 SUB PUSH1 0x0 DUP4 ADD MSTORE PUSH2 0x344 DUP2 DUP6 PUSH2 0x2D6 JUMP JUMPDEST SWAP1 POP PUSH2 0x353 PUSH1 0x20 DUP4 ADD DUP5 PUSH2 0x31B JUMP JUMPDEST SWAP4 SWAP3 POP POP POP JUMP JUMPDEST PUSH1 0x0 DUP1 REVERT JUMPDEST PUSH1 0x0 DUP1 REVERT JUMPDEST PUSH2 0x36D DUP2 PUSH2 0x30F JUMP JUMPDEST DUP2 EQ PUSH2 0x378 JUMPI PUSH1 0x0 DUP1 REVERT JUMPDEST POP JUMP JUMPDEST PUSH1 0x0 DUP2 MLOAD SWAP1 POP PUSH2 0x38A DUP2 PUSH2 0x364 JUMP JUMPDEST SWAP3 SWAP2 POP POP JUMP JUMPDEST PUSH1 0x0 DUP2 SWAP1 POP SWAP2 SWAP1 POP JUMP JUMPDEST PUSH2 0x3A3 DUP2 PUSH2 0x390 JUMP JUMPDEST DUP2 EQ PUSH2 0x3AE JUMPI PUSH1 0x0 DUP1 REVERT JUMPDEST POP JUMP JUMPDEST PUSH1 0x0 DUP2 MLOAD SWAP1 POP PUSH2 0x3C0 DUP2 PUSH2 0x39A JUMP JUMPDEST SWAP3 SWAP2 POP POP JUMP JUMPDEST PUSH1 0x0 PUSH1 0x60 DUP3 DUP5 SUB SLT ISZERO PUSH2 0x3DC JUMPI PUSH2 0x3DB PUSH2 0x35A JUMP JUMPDEST JUMPDEST PUSH2 0x3E6 PUSH1 0x60 PUSH2 0x18B JUMP JUMPDEST SWAP1 POP PUSH1 0x0 DUP3 ADD MLOAD PUSH8 0xFFFFFFFFFFFFFFFF DUP2 GT ISZERO PUSH2 0x406 JUMPI PUSH2 0x405 PUSH2 0x35F JUMP JUMPDEST JUMPDEST PUSH2 0x412 DUP5 DUP3 DUP6 ADD PUSH2 0x243 JUMP JUMPDEST PUSH1 0x0 DUP4 ADD MSTORE POP PUSH1 0x20 PUSH2 0x426 DUP5 DUP3 DUP6 ADD PUSH2 0x37B JUMP JUMPDEST PUSH1 0x20 DUP4 ADD MSTORE POP PUSH1 0x40 PUSH2 0x43A DUP5 DUP3 DUP6 ADD PUSH2 0x3B1 JUMP JUMPDEST PUSH1 0x40 DUP4 ADD MSTORE POP SWAP3 SWAP2 POP POP JUMP JUMPDEST PUSH1 0x0 PUSH1 0x20 DUP3 DUP5 SUB SLT ISZERO PUSH2 0x45C JUMPI PUSH2 0x45B PUSH2 0x106 JUMP JUMPDEST JUMPDEST PUSH1 0x0 DUP3 ADD MLOAD PUSH8 0xFFFFFFFFFFFFFFFF DUP2 GT ISZERO PUSH2 0x47A JUMPI PUSH2 0x479 PUSH2 0x10B JUMP JUMPDEST JUMPDEST PUSH2 0x486 DUP5 DUP3 DUP6 ADD PUSH2 0x3C6 JUMP JUMPDEST SWAP2 POP POP SWAP3 SWAP2 POP POP JUMP JUMPDEST PUSH32 0x4E487B7100000000000000000000000000000000000000000000000000000000 PUSH1 0x0 MSTORE PUSH1 0x22 PUSH1 0x4 MSTORE PUSH1 0x24 PUSH1 0x0 REVERT JUMPDEST PUSH1 0x0 PUSH1 0x2 DUP3 DIV SWAP1 POP PUSH1 0x1 DUP3 AND DUP1 PUSH2 0x4D6 JUMPI PUSH1 0x7F DUP3 AND SWAP2 POP JUMPDEST PUSH1 0x20 DUP3 LT DUP2 SUB PUSH2 0x4E9 JUMPI PUSH2 0x4E8 PUSH2 0x48F JUMP JUMPDEST JUMPDEST POP SWAP2 SWAP1 POP JUMP JUMPDEST PUSH1 0x0 DUP2 SWAP1 POP DUP2 PUSH1 0x0 MSTORE PUSH1 0x20 PUSH1 0x0 KECCAK256 SWAP1 POP SWAP2 SWAP1 POP JUMP JUMPDEST PUSH1 0x0 PUSH1 0x20 PUSH1 0x1F DUP4 ADD DIV SWAP1 POP SWAP2 SWAP1 POP JUMP JUMPDEST PUSH1 0x0 DUP3 DUP3 SHL SWAP1 POP SWAP3 SWAP2 POP POP JUMP JUMPDEST PUSH1 0x0 PUSH1 0x8 DUP4 MUL PUSH2 0x551 PUSH32 0xFFFFFFFFFFFFFFFFFFFFFFFFFFFFFFFFFFFFFFFFFFFFFFFFFFFFFFFFFFFFFFFF DUP3 PUSH2 0x514 JUMP JUMPDEST PUSH2 0x55B DUP7 DUP4 PUSH2 0x514 JUMP JUMPDEST SWAP6 POP DUP1 NOT DUP5 AND SWAP4 POP DUP1 DUP7 AND DUP5 OR SWAP3 POP POP POP SWAP4 SWAP3 POP POP POP JUMP JUMPDEST PUSH1 0x0 DUP2 SWAP1 POP SWAP2 SWAP1 POP JUMP JUMPDEST PUSH1 0x0 PUSH2 0x598 PUSH2 0x593 PUSH2 0x58E DUP5 PUSH2 0x390 JUMP JUMPDEST PUSH2 0x573 JUMP JUMPDEST PUSH2 0x390 JUMP JUMPDEST SWAP1 POP SWAP2 SWAP1 POP JUMP JUMPDEST PUSH1 0x0 DUP2 SWAP1 POP SWAP2 SWAP1 POP JUMP JUMPDEST PUSH2 0x5B2 DUP4 PUSH2 0x57D JUMP JUMPDEST PUSH2 0x5C6 PUSH2 0x5BE DUP3 PUSH2 0x59F JUMP JUMPDEST DUP5 DUP5 SLOAD PUSH2 0x521 JUMP JUMPDEST DUP3 SSTORE POP POP POP POP JUMP JUMPDEST PUSH1 0x0 SWAP1 JUMP JUMPDEST PUSH2 0x5DB PUSH2 0x5CE JUMP JUMPDEST PUSH2 0x5E6 DUP2 DUP5 DUP5 PUSH2 0x5A9 JUMP JUMPDEST POP POP POP JUMP JUMPDEST JUMPDEST DUP2 DUP2 LT ISZERO PUSH2 0x60A JUMPI PUSH2 0x5FF PUSH1 0x0 DUP3 PUSH2 0x5D3 JUMP JUMPDEST PUSH1 0x1 DUP2 ADD SWAP1 POP PUSH2 0x5EC JUMP JUMPDEST POP POP JUMP JUMPDEST PUSH1 0x1F DUP3 GT ISZERO PUSH2 0x64F JUMPI PUSH2 0x620 DUP2 PUSH2 0x4EF JUMP JUMPDEST PUSH2 0x629 DUP5 PUSH2 0x504 JUMP JUMPDEST DUP2 ADD PUSH1 0x20 DUP6 LT ISZERO PUSH2 0x638 JUMPI DUP2 SWAP1 POP JUMPDEST PUSH2 0x64C PUSH2 0x644 DUP6 PUSH2 0x504 JUMP JUMPDEST DUP4 ADD DUP3 PUSH2 0x5EB JUMP JUMPDEST POP POP JUMPDEST POP POP POP JUMP JUMPDEST PUSH1 0x0 DUP3 DUP3 SHR SWAP1 POP SWAP3 SWAP2 POP POP JUMP JUMPDEST PUSH1 0x0 PUSH2 0x672 PUSH1 0x0 NOT DUP5 PUSH1 0x8 MUL PUSH2 0x654 JUMP JUMPDEST NOT DUP1 DUP4 AND SWAP2 POP POP SWAP3 SWAP2 POP POP JUMP JUMPDEST PUSH1 0x0 PUSH2 0x68B DUP4 DUP4 PUSH2 0x661 JUMP JUMPDEST SWAP2 POP DUP3 PUSH1 0x2 MUL DUP3 OR SWAP1 POP SWAP3 SWAP2 POP POP JUMP JUMPDEST PUSH2 0x6A4 DUP3 PUSH2 0x2BA JUMP JUMPDEST PUSH8 0xFFFFFFFFFFFFFFFF DUP2 GT ISZERO PUSH2 0x6BD JUMPI PUSH2 0x6BC PUSH2 0x12B JUMP JUMPDEST JUMPDEST PUSH2 0x6C7 DUP3 SLOAD PUSH2 0x4BE JUMP JUMPDEST PUSH2 0x6D2 DUP3 DUP3 DUP6 PUSH2 0x60E JUMP JUMPDEST PUSH1 0x0 PUSH1 0x20 SWAP1 POP PUSH1 0x1F DUP4 GT PUSH1 0x1 DUP2 EQ PUSH2 0x705 JUMPI PUSH1 0x0 DUP5 ISZERO PUSH2 0x6F3 JUMPI DUP3 DUP8 ADD MLOAD SWAP1 POP JUMPDEST PUSH2 0x6FD DUP6 DUP3 PUSH2 0x67F JUMP JUMPDEST DUP7 SSTORE POP PUSH2 0x765 JUMP JUMPDEST PUSH1 0x1F NOT DUP5 AND PUSH2 0x713 DUP7 PUSH2 0x4EF JUMP JUMPDEST PUSH1 0x0 JUMPDEST DUP3 DUP2 LT ISZERO PUSH2 0x73B JUMPI DUP5 DUP10 ADD MLOAD DUP3 SSTORE PUSH1 0x1 DUP3 ADD SWAP2 POP PUSH1 0x20 DUP6 ADD SWAP5 POP PUSH1 0x20 DUP2 ADD SWAP1 POP PUSH2 0x716 JUMP JUMPDEST DUP7 DUP4 LT ISZERO PUSH2 0x758 JUMPI DUP5 DUP10 ADD MLOAD PUSH2 0x754 PUSH1 0x1F DUP10 AND DUP3 PUSH2 0x661 JUMP JUMPDEST DUP4 SSTORE POP JUMPDEST PUSH1 0x1 PUSH1 0x2 DUP9 MUL ADD DUP9 SSTORE POP POP POP JUMPDEST POP POP POP POP POP POP JUMP JUMPDEST PUSH2 0x2626 DUP1 PUSH2 0x77C PUSH1 0x0 CODECOPY PUSH1 0x0 RETURN INVALID PUSH1 0x80 PUSH1 0x40 MSTORE CALLVALUE DUP1 ISZERO PUSH2 0x10 JUMPI PUSH1 0x0 DUP1 REVERT JUMPDEST POP PUSH1 0x4 CALLDATASIZE LT PUSH2 0xA9 JUMPI PUSH1 0x0 CALLDATALOAD PUSH1 0xE0 SHR DUP1 PUSH4 0xA9A52E7E GT PUSH2 0x71 JUMPI DUP1 PUSH4 0xA9A52E7E EQ PUSH2 0x18E JUMPI DUP1 PUSH4 0xB5E28325 EQ PUSH2 0x1BE JUMPI DUP1 PUSH4 0xBC1B392D EQ PUSH2 0x1EE JUMPI DUP1 PUSH4 0xCC9DE25D EQ PUSH2 0x20C JUMPI DUP1 PUSH4 0xD4D45554 EQ PUSH2 0x23C JUMPI DUP1 PUSH4 0xFB2BEDAD EQ PUSH2 0x26C JUMPI PUSH2 0xA9 JUMP JUMPDEST DUP1 PUSH4 0x85EB2B9 EQ PUSH2 0xAE JUMPI DUP1 PUSH4 0x12F7411B EQ PUSH2 0xDE JUMPI DUP1 PUSH4 0x17014742 EQ PUSH2 0x10E JUMPI DUP1 PUSH4 0x9AE8886A EQ PUSH2 0x13E JUMPI DUP1 PUSH4 0xA672D100 EQ PUSH2 0x15E JUMPI JUMPDEST PUSH1 0x0 DUP1 REVERT JUMPDEST PUSH2 0xC8 PUSH1 0x4 DUP1 CALLDATASIZE SUB DUP2 ADD SWAP1 PUSH2 0xC3 SWAP2 SWAP1 PUSH2 0x1AEC JUMP JUMPDEST PUSH2 0x29C JUMP JUMPDEST PUSH1 0x40 MLOAD PUSH2 0xD5 SWAP2 SWAP1 PUSH2 0x1C4C JUMP JUMPDEST PUSH1 0x40 MLOAD DUP1 SWAP2 SUB SWAP1 RETURN JUMPDEST PUSH2 0xF8 PUSH1 0x4 DUP1 CALLDATASIZE SUB DUP2 ADD SWAP1 PUSH2 0xF3 SWAP2 SWAP1 PUSH2 0x1C6E JUMP JUMPDEST PUSH2 0x3B3 JUMP JUMPDEST PUSH1 0x40 MLOAD PUSH2 0x105 SWAP2 SWAP1 PUSH2 0x1C4C JUMP JUMPDEST PUSH1 0x40 MLOAD DUP1 SWAP2 SUB SWAP1 RETURN JUMPDEST PUSH2 0x128 PUSH1 0x4 DUP1 CALLDATASIZE SUB DUP2 ADD SWAP1 PUSH2 0x123 SWAP2 SWAP1 PUSH2 0x1CE6 JUMP JUMPDEST PUSH2 0x5E3 JUMP JUMPDEST PUSH1 0x40 MLOAD PUSH2 0x135 SWAP2 SWAP1 PUSH2 0x1C4C JUMP JUMPDEST PUSH1 0x40 MLOAD DUP1 SWAP2 SUB SWAP1 RETURN JUMPDEST PUSH2 0x146 PUSH2 0x783 JUMP JUMPDEST PUSH1 0x40 MLOAD PUSH2 0x155 SWAP4 SWAP3 SWAP2 SWAP1 PUSH2 0x1D97 JUMP JUMPDEST PUSH1 0x40 MLOAD DUP1 SWAP2 SUB SWAP1 RETURN JUMPDEST PUSH2 0x178 PUSH1 0x4 DUP1 CALLDATASIZE SUB DUP2 ADD SWAP1 PUSH2 0x173 SWAP2 SWAP1 PUSH2 0x1AEC JUMP JUMPDEST PUSH2 0x830 JUMP JUMPDEST PUSH1 0x40 MLOAD PUSH2 0x185 SWAP2 SWAP1 PUSH2 0x1C4C JUMP JUMPDEST PUSH1 0x40 MLOAD DUP1 SWAP2 SUB SWAP1 RETURN JUMPDEST PUSH2 0x1A8 PUSH1 0x4 DUP1 CALLDATASIZE SUB DUP2 ADD SWAP1 PUSH2 0x1A3 SWAP2 SWAP1 PUSH2 0x1C6E JUMP JUMPDEST PUSH2 0xBF8 JUMP JUMPDEST PUSH1 0x40 MLOAD PUSH2 0x1B5 SWAP2 SWAP1 PUSH2 0x1C4C JUMP JUMPDEST PUSH1 0x40 MLOAD DUP1 SWAP2 SUB SWAP1 RETURN JUMPDEST PUSH2 0x1D8 PUSH1 0x4 DUP1 CALLDATASIZE SUB DUP2 ADD SWAP1 PUSH2 0x1D3 SWAP2 SWAP1 PUSH2 0x1C6E JUMP JUMPDEST PUSH2 0xEA5 JUMP JUMPDEST PUSH1 0x40 MLOAD PUSH2 0x1E5 SWAP2 SWAP1 PUSH2 0x1C4C JUMP JUMPDEST PUSH1 0x40 MLOAD DUP1 SWAP2 SUB SWAP1 RETURN JUMPDEST PUSH2 0x1F6 PUSH2 0x1155 JUMP JUMPDEST PUSH1 0x40 MLOAD PUSH2 0x203 SWAP2 SWAP1 PUSH2 0x1C4C JUMP JUMPDEST PUSH1 0x40 MLOAD DUP1 SWAP2 SUB SWAP1 RETURN JUMPDEST PUSH2 0x226 PUSH1 0x4 DUP1 CALLDATASIZE SUB DUP2 ADD SWAP1 PUSH2 0x221 SWAP2 SWAP1 PUSH2 0x1DD5 JUMP JUMPDEST PUSH2 0x11E2 JUMP JUMPDEST PUSH1 0x40 MLOAD PUSH2 0x233 SWAP2 SWAP1 PUSH2 0x1E1E JUMP JUMPDEST PUSH1 0x40 MLOAD DUP1 SWAP2 SUB SWAP1 RETURN JUMPDEST PUSH2 0x256 PUSH1 0x4 DUP1 CALLDATASIZE SUB DUP2 ADD SWAP1 PUSH2 0x251 SWAP2 SWAP1 PUSH2 0x1C6E JUMP JUMPDEST PUSH2 0x123A JUMP JUMPDEST PUSH1 0x40 MLOAD PUSH2 0x263 SWAP2 SWAP1 PUSH2 0x1E39 JUMP JUMPDEST PUSH1 0x40 MLOAD DUP1 SWAP2 SUB SWAP1 RETURN JUMPDEST PUSH2 0x286 PUSH1 0x4 DUP1 CALLDATASIZE SUB DUP2 ADD SWAP1 PUSH2 0x281 SWAP2 SWAP1 PUSH2 0x1C6E JUMP JUMPDEST PUSH2 0x14DA JUMP JUMPDEST PUSH1 0x40 MLOAD PUSH2 0x293 SWAP2 SWAP1 PUSH2 0x1C4C JUMP JUMPDEST PUSH1 0x40 MLOAD DUP1 SWAP2 SUB SWAP1 RETURN JUMPDEST PUSH2 0x2A4 PUSH2 0x1806 JUMP JUMPDEST DUP2 PUSH1 0x0 ADD MLOAD PUSH1 0x0 ISZERO ISZERO DUP2 PUSH1 0x20 ADD MLOAD ISZERO ISZERO EQ PUSH2 0x2BE JUMPI PUSH1 0x0 DUP1 REVERT JUMPDEST PUSH1 0x0 DUP1 DUP3 PUSH1 0x0 ADD MLOAD SWAP1 POP PUSH1 0x20 DUP2 ADD MLOAD SWAP2 POP PUSH1 0x0 DUP3 SUB PUSH2 0x35D JUMPI PUSH20 0x0 PUSH4 0x8D78767 DUP5 PUSH1 0x40 MLOAD DUP3 PUSH4 0xFFFFFFFF AND PUSH1 0xE0 SHL DUP2 MSTORE PUSH1 0x4 ADD PUSH2 0x30E SWAP2 SWAP1 PUSH2 0x1F0C JUMP JUMPDEST PUSH1 0x20 PUSH1 0x40 MLOAD DUP1 DUP4 SUB DUP2 DUP7 GAS DELEGATECALL ISZERO DUP1 ISZERO PUSH2 0x32B JUMPI RETURNDATASIZE PUSH1 0x0 DUP1 RETURNDATACOPY RETURNDATASIZE PUSH1 0x0 REVERT JUMPDEST POP POP POP POP PUSH1 0x40 MLOAD RETURNDATASIZE PUSH1 0x1F NOT PUSH1 0x1F DUP3 ADD AND DUP3 ADD DUP1 PUSH1 0x40 MSTORE POP DUP2 ADD SWAP1 PUSH2 0x34F SWAP2 SWAP1 PUSH2 0x1F43 JUMP JUMPDEST PUSH2 0x358 JUMPI PUSH1 0x0 DUP1 REVERT JUMPDEST PUSH2 0x3A8 JUMP JUMPDEST PUSH1 0x0 PUSH1 0x20 DUP5 PUSH1 0x0 ADD MLOAD MLOAD PUSH2 0x371 SWAP2 SWAP1 PUSH2 0x1F9F JUMP JUMPDEST EQ DUP1 ISZERO PUSH2 0x39E JUMPI POP PUSH1 0x1 PUSH2 0x100 PUSH1 0x1 DUP6 PUSH1 0x40 ADD MLOAD PUSH2 0x38F SWAP2 SWAP1 PUSH2 0x1FFF JUMP JUMPDEST PUSH2 0x399 SWAP2 SWAP1 PUSH2 0x1F9F JUMP JUMPDEST DUP4 SWAP1 SHR EQ JUMPDEST PUSH2 0x3A7 JUMPI PUSH1 0x0 DUP1 REVERT JUMPDEST JUMPDEST DUP5 SWAP4 POP POP POP POP SWAP2 SWAP1 POP JUMP JUMPDEST PUSH2 0x3BB PUSH2 0x1806 JUMP JUMPDEST DUP3 PUSH1 0x0 ADD MLOAD PUSH1 0x0 ISZERO ISZERO DUP2 PUSH1 0x20 ADD MLOAD ISZERO ISZERO EQ PUSH2 0x3D5 JUMPI PUSH1 0x0 DUP1 REVERT JUMPDEST PUSH1 0x0 DUP1 DUP3 PUSH1 0x0 ADD MLOAD SWAP1 POP PUSH1 0x20 DUP2 ADD MLOAD SWAP2 POP PUSH1 0x0 DUP3 SUB PUSH2 0x474 JUMPI PUSH20 0x0 PUSH4 0x8D78767 DUP5 PUSH1 0x40 MLOAD DUP3 PUSH4 0xFFFFFFFF AND PUSH1 0xE0 SHL DUP2 MSTORE PUSH1 0x4 ADD PUSH2 0x425 SWAP2 SWAP1 PUSH2 0x1F0C JUMP JUMPDEST PUSH1 0x20 PUSH1 0x40 MLOAD DUP1 DUP4 SUB DUP2 DUP7 GAS DELEGATECALL ISZERO DUP1 ISZERO PUSH2 0x442 JUMPI RETURNDATASIZE PUSH1 0x0 DUP1 RETURNDATACOPY RETURNDATASIZE PUSH1 0x0 REVERT JUMPDEST POP POP POP POP PUSH1 0x40 MLOAD RETURNDATASIZE PUSH1 0x1F NOT PUSH1 0x1F DUP3 ADD AND DUP3 ADD DUP1 PUSH1 0x40 MSTORE POP DUP2 ADD SWAP1 PUSH2 0x466 SWAP2 SWAP1 PUSH2 0x1F43 JUMP JUMPDEST PUSH2 0x46F JUMPI PUSH1 0x0 DUP1 REVERT JUMPDEST PUSH2 0x4BF JUMP JUMPDEST PUSH1 0x0 PUSH1 0x20 DUP5 PUSH1 0x0 ADD MLOAD MLOAD PUSH2 0x488 SWAP2 SWAP1 PUSH2 0x1F9F JUMP JUMPDEST EQ DUP1 ISZERO PUSH2 0x4B5 JUMPI POP PUSH1 0x1 PUSH2 0x100 PUSH1 0x1 DUP6 PUSH1 0x40 ADD MLOAD PUSH2 0x4A6 SWAP2 SWAP1 PUSH2 0x1FFF JUMP JUMPDEST PUSH2 0x4B0 SWAP2 SWAP1 PUSH2 0x1F9F JUMP JUMPDEST DUP4 SWAP1 SHR EQ JUMPDEST PUSH2 0x4BE JUMPI PUSH1 0x0 DUP1 REVERT JUMPDEST JUMPDEST DUP5 PUSH1 0x0 ADD MLOAD PUSH1 0x0 ISZERO ISZERO DUP2 PUSH1 0x20 ADD MLOAD ISZERO ISZERO EQ PUSH2 0x4D9 JUMPI PUSH1 0x0 DUP1 REVERT JUMPDEST PUSH1 0x0 DUP1 DUP3 PUSH1 0x0 ADD MLOAD SWAP1 POP PUSH1 0x20 DUP2 ADD MLOAD SWAP2 POP PUSH1 0x0 DUP3 SUB PUSH2 0x578 JUMPI PUSH20 0x0 PUSH4 0x8D78767 DUP5 PUSH1 0x40 MLOAD DUP3 PUSH4 0xFFFFFFFF AND PUSH1 0xE0 SHL DUP2 MSTORE PUSH1 0x4 ADD PUSH2 0x529 SWAP2 SWAP1 PUSH2 0x1F0C JUMP JUMPDEST PUSH1 0x20 PUSH1 0x40 MLOAD DUP1 DUP4 SUB DUP2 DUP7 GAS DELEGATECALL ISZERO DUP1 ISZERO PUSH2 0x546 JUMPI RETURNDATASIZE PUSH1 0x0 DUP1 RETURNDATACOPY RETURNDATASIZE PUSH1 0x0 REVERT JUMPDEST POP POP POP POP PUSH1 0x40 MLOAD RETURNDATASIZE PUSH1 0x1F NOT PUSH1 0x1F DUP3 ADD AND DUP3 ADD DUP1 PUSH1 0x40 MSTORE POP DUP2 ADD SWAP1 PUSH2 0x56A SWAP2 SWAP1 PUSH2 0x1F43 JUMP JUMPDEST PUSH2 0x573 JUMPI PUSH1 0x0 DUP1 REVERT JUMPDEST PUSH2 0x5C3 JUMP JUMPDEST PUSH1 0x0 PUSH1 0x20 DUP5 PUSH1 0x0 ADD MLOAD MLOAD PUSH2 0x58C SWAP2 SWAP1 PUSH2 0x1F9F JUMP JUMPDEST EQ DUP1 ISZERO PUSH2 0x5B9 JUMPI POP PUSH1 0x1 PUSH2 0x100 PUSH1 0x1 DUP6 PUSH1 0x40 ADD MLOAD PUSH2 0x5AA SWAP2 SWAP1 PUSH2 0x1FFF JUMP JUMPDEST PUSH2 0x5B4 SWAP2 SWAP1 PUSH2 0x1F9F JUMP JUMPDEST DUP4 SWAP1 SHR EQ JUMPDEST PUSH2 0x5C2 JUMPI PUSH1 0x0 DUP1 REVERT JUMPDEST JUMPDEST PUSH2 0x5D5 DUP10 PUSH2 0x5D0 DUP11 PUSH2 0x830 JUMP JUMPDEST PUSH2 0xEA5 JUMP JUMPDEST SWAP7 POP POP POP POP POP POP POP SWAP3 SWAP2 POP POP JUMP JUMPDEST PUSH2 0x5EB PUSH2 0x1806 JUMP JUMPDEST DUP2 PUSH1 0x0 ISZERO ISZERO DUP2 PUSH1 0x20 ADD MLOAD ISZERO ISZERO EQ PUSH2 0x601 JUMPI PUSH1 0x0 DUP1 REVERT JUMPDEST PUSH1 0x0 DUP1 DUP3 PUSH1 0x0 ADD MLOAD SWAP1 POP PUSH1 0x20 DUP2 ADD MLOAD SWAP2 POP PUSH1 0x0 DUP3 SUB PUSH2 0x6A0 JUMPI PUSH20 0x0 PUSH4 0x8D78767 DUP5 PUSH1 0x40 MLOAD DUP3 PUSH4 0xFFFFFFFF AND PUSH1 0xE0 SHL DUP2 MSTORE PUSH1 0x4 ADD PUSH2 0x651 SWAP2 SWAP1 PUSH2 0x1F0C JUMP JUMPDEST PUSH1 0x20 PUSH1 0x40 MLOAD DUP1 DUP4 SUB DUP2 DUP7 GAS DELEGATECALL ISZERO DUP1 ISZERO PUSH2 0x66E JUMPI RETURNDATASIZE PUSH1 0x0 DUP1 RETURNDATACOPY RETURNDATASIZE PUSH1 0x0 REVERT JUMPDEST POP POP POP POP PUSH1 0x40 MLOAD RETURNDATASIZE PUSH1 0x1F NOT PUSH1 0x1F DUP3 ADD AND DUP3 ADD DUP1 PUSH1 0x40 MSTORE POP DUP2 ADD SWAP1 PUSH2 0x692 SWAP2 SWAP1 PUSH2 0x1F43 JUMP JUMPDEST PUSH2 0x69B JUMPI PUSH1 0x0 DUP1 REVERT JUMPDEST PUSH2 0x6EB JUMP JUMPDEST PUSH1 0x0 PUSH1 0x20 DUP5 PUSH1 0x0 ADD MLOAD MLOAD PUSH2 0x6B4 SWAP2 SWAP1 PUSH2 0x1F9F JUMP JUMPDEST EQ DUP1 ISZERO PUSH2 0x6E1 JUMPI POP PUSH1 0x1 PUSH2 0x100 PUSH1 0x1 DUP6 PUSH1 0x40 ADD MLOAD PUSH2 0x6D2 SWAP2 SWAP1 PUSH2 0x1FFF JUMP JUMPDEST PUSH2 0x6DC SWAP2 SWAP1 PUSH2 0x1F9F JUMP JUMPDEST DUP4 SWAP1 SHR EQ JUMPDEST PUSH2 0x6EA JUMPI PUSH1 0x0 DUP1 REVERT JUMPDEST JUMPDEST PUSH1 0x40 MLOAD DUP1 PUSH1 0x20 ADD PUSH1 0x40 MSTORE DUP1 PUSH20 0x0 PUSH4 0x7AFA8553 DUP9 PUSH1 0x0 PUSH1 0x40 MLOAD DUP4 PUSH4 0xFFFFFFFF AND PUSH1 0xE0 SHL DUP2 MSTORE PUSH1 0x4 ADD PUSH2 0x730 SWAP3 SWAP2 SWAP1 PUSH2 0x21EB JUMP JUMPDEST PUSH1 0x0 PUSH1 0x40 MLOAD DUP1 DUP4 SUB DUP2 DUP7 GAS DELEGATECALL ISZERO DUP1 ISZERO PUSH2 0x74D JUMPI RETURNDATASIZE PUSH1 0x0 DUP1 RETURNDATACOPY RETURNDATASIZE PUSH1 0x0 REVERT JUMPDEST POP POP POP POP PUSH1 0x40 MLOAD RETURNDATASIZE PUSH1 0x0 DUP3 RETURNDATACOPY RETURNDATASIZE PUSH1 0x1F NOT PUSH1 0x1F DUP3 ADD AND DUP3 ADD DUP1 PUSH1 0x40 MSTORE POP DUP2 ADD SWAP1 PUSH2 0x776 SWAP2 SWAP1 PUSH2 0x2327 JUMP JUMPDEST DUP2 MSTORE POP SWAP4 POP POP POP POP SWAP2 SWAP1 POP JUMP JUMPDEST PUSH1 0x0 DUP1 PUSH1 0x0 ADD DUP1 SLOAD PUSH2 0x794 SWAP1 PUSH2 0x2062 JUMP JUMPDEST DUP1 PUSH1 0x1F ADD PUSH1 0x20 DUP1 SWAP2 DIV MUL PUSH1 0x20 ADD PUSH1 0x40 MLOAD SWAP1 DUP2 ADD PUSH1 0x40 MSTORE DUP1 SWAP3 SWAP2 SWAP1 DUP2 DUP2 MSTORE PUSH1 0x20 ADD DUP3 DUP1 SLOAD PUSH2 0x7C0 SWAP1 PUSH2 0x2062 JUMP JUMPDEST DUP1 ISZERO PUSH2 0x80D JUMPI DUP1 PUSH1 0x1F LT PUSH2 0x7E2 JUMPI PUSH2 0x100 DUP1 DUP4 SLOAD DIV MUL DUP4 MSTORE SWAP2 PUSH1 0x20 ADD SWAP2 PUSH2 0x80D JUMP JUMPDEST DUP3 ADD SWAP2 SWAP1 PUSH1 0x0 MSTORE PUSH1 0x20 PUSH1 0x0 KECCAK256 SWAP1 JUMPDEST DUP2 SLOAD DUP2 MSTORE SWAP1 PUSH1 0x1 ADD SWAP1 PUSH1 0x20 ADD DUP1 DUP4 GT PUSH2 0x7F0 JUMPI DUP3 SWAP1 SUB PUSH1 0x1F AND DUP3 ADD SWAP2 JUMPDEST POP POP POP POP POP SWAP1 DUP1 PUSH1 0x1 ADD PUSH1 0x0 SWAP1 SLOAD SWAP1 PUSH2 0x100 EXP SWAP1 DIV PUSH1 0xFF AND SWAP1 DUP1 PUSH1 0x2 ADD SLOAD SWAP1 POP DUP4 JUMP JUMPDEST PUSH2 0x838 PUSH2 0x1806 JUMP JUMPDEST DUP2 PUSH1 0x0 ADD MLOAD PUSH1 0x0 ISZERO ISZERO DUP2 PUSH1 0x20 ADD MLOAD ISZERO ISZERO EQ PUSH2 0x852 JUMPI PUSH1 0x0 DUP1 REVERT JUMPDEST PUSH1 0x0 DUP1 DUP3 PUSH1 0x0 ADD MLOAD SWAP1 POP PUSH1 0x20 DUP2 ADD MLOAD SWAP2 POP PUSH1 0x0 DUP3 SUB PUSH2 0x8F1 JUMPI PUSH20 0x0 PUSH4 0x8D78767 DUP5 PUSH1 0x40 MLOAD DUP3 PUSH4 0xFFFFFFFF AND PUSH1 0xE0 SHL DUP2 MSTORE PUSH1 0x4 ADD PUSH2 0x8A2 SWAP2 SWAP1 PUSH2 0x1F0C JUMP JUMPDEST PUSH1 0x20 PUSH1 0x40 MLOAD DUP1 DUP4 SUB DUP2 DUP7 GAS DELEGATECALL ISZERO DUP1 ISZERO PUSH2 0x8BF JUMPI RETURNDATASIZE PUSH1 0x0 DUP1 RETURNDATACOPY RETURNDATASIZE PUSH1 0x0 REVERT JUMPDEST POP POP POP POP PUSH1 0x40 MLOAD RETURNDATASIZE PUSH1 0x1F NOT PUSH1 0x1F DUP3 ADD AND DUP3 ADD DUP1 PUSH1 0x40 MSTORE POP DUP2 ADD SWAP1 PUSH2 0x8E3 SWAP2 SWAP1 PUSH2 0x1F43 JUMP JUMPDEST PUSH2 0x8EC JUMPI PUSH1 0x0 DUP1 REVERT JUMPDEST PUSH2 0x93C JUMP JUMPDEST PUSH1 0x0 PUSH1 0x20 DUP5 PUSH1 0x0 ADD MLOAD MLOAD PUSH2 0x905 SWAP2 SWAP1 PUSH2 0x1F9F JUMP JUMPDEST EQ DUP1 ISZERO PUSH2 0x932 JUMPI POP PUSH1 0x1 PUSH2 0x100 PUSH1 0x1 DUP6 PUSH1 0x40 ADD MLOAD PUSH2 0x923 SWAP2 SWAP1 PUSH2 0x1FFF JUMP JUMPDEST PUSH2 0x92D SWAP2 SWAP1 PUSH2 0x1F9F JUMP JUMPDEST DUP4 SWAP1 SHR EQ JUMPDEST PUSH2 0x93B JUMPI PUSH1 0x0 DUP1 REVERT JUMPDEST JUMPDEST PUSH1 0x0 PUSH20 0x0 PUSH4 0xBC39804E DUP8 PUSH1 0x0 ADD MLOAD PUSH20 0x0 PUSH4 0xBC1B392D PUSH1 0x40 MLOAD DUP2 PUSH4 0xFFFFFFFF AND PUSH1 0xE0 SHL DUP2 MSTORE PUSH1 0x4 ADD PUSH1 0x0 PUSH1 0x40 MLOAD DUP1 DUP4 SUB DUP2 DUP7 GAS DELEGATECALL ISZERO DUP1 ISZERO PUSH2 0x9A6 JUMPI RETURNDATASIZE PUSH1 0x0 DUP1 RETURNDATACOPY RETURNDATASIZE PUSH1 0x0 REVERT JUMPDEST POP POP POP POP PUSH1 0x40 MLOAD RETURNDATASIZE PUSH1 0x0 DUP3 RETURNDATACOPY RETURNDATASIZE PUSH1 0x1F NOT PUSH1 0x1F DUP3 ADD AND DUP3 ADD DUP1 PUSH1 0x40 MSTORE POP DUP2 ADD SWAP1 PUSH2 0x9CF SWAP2 SWAP1 PUSH2 0x2327 JUMP JUMPDEST PUSH1 0x0 PUSH1 0x40 MLOAD DUP5 PUSH4 0xFFFFFFFF AND PUSH1 0xE0 SHL DUP2 MSTORE PUSH1 0x4 ADD PUSH2 0x9EF SWAP4 SWAP3 SWAP2 SWAP1 PUSH2 0x237F JUMP JUMPDEST PUSH1 0x20 PUSH1 0x40 MLOAD DUP1 DUP4 SUB DUP2 DUP7 GAS DELEGATECALL ISZERO DUP1 ISZERO PUSH2 0xA0C JUMPI RETURNDATASIZE PUSH1 0x0 DUP1 RETURNDATACOPY RETURNDATASIZE PUSH1 0x0 REVERT JUMPDEST POP POP POP POP PUSH1 0x40 MLOAD RETURNDATASIZE PUSH1 0x1F NOT PUSH1 0x1F DUP3 ADD AND DUP3 ADD DUP1 PUSH1 0x40 MSTORE POP DUP2 ADD SWAP1 PUSH2 0xA30 SWAP2 SWAP1 PUSH2 0x23FA JUMP JUMPDEST SUB PUSH2 0xA70 JUMPI PUSH1 0x40 MLOAD PUSH32 0x8C379A000000000000000000000000000000000000000000000000000000000 DUP2 MSTORE PUSH1 0x4 ADD PUSH2 0xA67 SWAP1 PUSH2 0x2484 JUMP JUMPDEST PUSH1 0x40 MLOAD DUP1 SWAP2 SUB SWAP1 REVERT JUMPDEST PUSH2 0xBEE PUSH20 0x0 PUSH4 0xE7671F2 DUP8 PUSH1 0x0 ADD MLOAD PUSH20 0x0 PUSH4 0xA4638FD PUSH1 0x0 PUSH20 0x0 PUSH4 0x5FDF05D7 PUSH1 0x40 MLOAD DUP2 PUSH4 0xFFFFFFFF AND PUSH1 0xE0 SHL DUP2 MSTORE PUSH1 0x4 ADD PUSH1 0x0 PUSH1 0x40 MLOAD DUP1 DUP4 SUB DUP2 DUP7 GAS DELEGATECALL ISZERO DUP1 ISZERO PUSH2 0xAF7 JUMPI RETURNDATASIZE PUSH1 0x0 DUP1 RETURNDATACOPY RETURNDATASIZE PUSH1 0x0 REVERT JUMPDEST POP POP POP POP PUSH1 0x40 MLOAD RETURNDATASIZE PUSH1 0x0 DUP3 RETURNDATACOPY RETURNDATASIZE PUSH1 0x1F NOT PUSH1 0x1F DUP3 ADD AND DUP3 ADD DUP1 PUSH1 0x40 MSTORE POP DUP2 ADD SWAP1 PUSH2 0xB20 SWAP2 SWAP1 PUSH2 0x2327 JUMP JUMPDEST PUSH1 0x40 MLOAD DUP4 PUSH4 0xFFFFFFFF AND PUSH1 0xE0 SHL DUP2 MSTORE PUSH1 0x4 ADD PUSH2 0xB3D SWAP3 SWAP2 SWAP1 PUSH2 0x24A4 JUMP JUMPDEST PUSH1 0x0 PUSH1 0x40 MLOAD DUP1 DUP4 SUB DUP2 DUP7 GAS DELEGATECALL ISZERO DUP1 ISZERO PUSH2 0xB5A JUMPI RETURNDATASIZE PUSH1 0x0 DUP1 RETURNDATACOPY RETURNDATASIZE PUSH1 0x0 REVERT JUMPDEST POP POP POP POP PUSH1 0x40 MLOAD RETURNDATASIZE PUSH1 0x0 DUP3 RETURNDATACOPY RETURNDATASIZE PUSH1 0x1F NOT PUSH1 0x1F DUP3 ADD AND DUP3 ADD DUP1 PUSH1 0x40 MSTORE POP DUP2 ADD SWAP1 PUSH2 0xB83 SWAP2 SWAP1 PUSH2 0x2327 JUMP JUMPDEST PUSH1 0x0 PUSH1 0x40 MLOAD DUP5 PUSH4 0xFFFFFFFF AND PUSH1 0xE0 SHL DUP2 MSTORE PUSH1 0x4 ADD PUSH2 0xBA3 SWAP4 SWAP3 SWAP2 SWAP1 PUSH2 0x24DB JUMP JUMPDEST PUSH1 0x0 PUSH1 0x40 MLOAD DUP1 DUP4 SUB DUP2 DUP7 GAS DELEGATECALL ISZERO DUP1 ISZERO PUSH2 0xBC0 JUMPI RETURNDATASIZE PUSH1 0x0 DUP1 RETURNDATACOPY RETURNDATASIZE PUSH1 0x0 REVERT JUMPDEST POP POP POP POP PUSH1 0x40 MLOAD RETURNDATASIZE PUSH1 0x0 DUP3 RETURNDATACOPY RETURNDATASIZE PUSH1 0x1F NOT PUSH1 0x1F DUP3 ADD AND DUP3 ADD DUP1 PUSH1 0x40 MSTORE POP DUP2 ADD SWAP1 PUSH2 0xBE9 SWAP2 SWAP1 PUSH2 0x2327 JUMP JUMPDEST PUSH2 0x5E3 JUMP JUMPDEST SWAP4 POP POP POP POP SWAP2 SWAP1 POP JUMP JUMPDEST PUSH2 0xC00 PUSH2 0x1806 JUMP JUMPDEST DUP3 PUSH1 0x0 ADD MLOAD PUSH1 0x0 ISZERO ISZERO DUP2 PUSH1 0x20 ADD MLOAD ISZERO ISZERO EQ PUSH2 0xC1A JUMPI PUSH1 0x0 DUP1 REVERT JUMPDEST PUSH1 0x0 DUP1 DUP3 PUSH1 0x0 ADD MLOAD SWAP1 POP PUSH1 0x20 DUP2 ADD MLOAD SWAP2 POP PUSH1 0x0 DUP3 SUB PUSH2 0xCB9 JUMPI PUSH20 0x0 PUSH4 0x8D78767 DUP5 PUSH1 0x40 MLOAD DUP3 PUSH4 0xFFFFFFFF AND PUSH1 0xE0 SHL DUP2 MSTORE PUSH1 0x4 ADD PUSH2 0xC6A SWAP2 SWAP1 PUSH2 0x1F0C JUMP JUMPDEST PUSH1 0x20 PUSH1 0x40 MLOAD DUP1 DUP4 SUB DUP2 DUP7 GAS DELEGATECALL ISZERO DUP1 ISZERO PUSH2 0xC87 JUMPI RETURNDATASIZE PUSH1 0x0 DUP1 RETURNDATACOPY RETURNDATASIZE PUSH1 0x0 REVERT JUMPDEST POP POP POP POP PUSH1 0x40 MLOAD RETURNDATASIZE PUSH1 0x1F NOT PUSH1 0x1F DUP3 ADD AND DUP3 ADD DUP1 PUSH1 0x40 MSTORE POP DUP2 ADD SWAP1 PUSH2 0xCAB SWAP2 SWAP1 PUSH2 0x1F43 JUMP JUMPDEST PUSH2 0xCB4 JUMPI PUSH1 0x0 DUP1 REVERT JUMPDEST PUSH2 0xD04 JUMP JUMPDEST PUSH1 0x0 PUSH1 0x20 DUP5 PUSH1 0x0 ADD MLOAD MLOAD PUSH2 0xCCD SWAP2 SWAP1 PUSH2 0x1F9F JUMP JUMPDEST EQ DUP1 ISZERO PUSH2 0xCFA JUMPI POP PUSH1 0x1 PUSH2 0x100 PUSH1 0x1 DUP6 PUSH1 0x40 ADD MLOAD PUSH2 0xCEB SWAP2 SWAP1 PUSH2 0x1FFF JUMP JUMPDEST PUSH2 0xCF5 SWAP2 SWAP1 PUSH2 0x1F9F JUMP JUMPDEST DUP4 SWAP1 SHR EQ JUMPDEST PUSH2 0xD03 JUMPI PUSH1 0x0 DUP1 REVERT JUMPDEST JUMPDEST DUP5 PUSH1 0x0 ADD MLOAD PUSH1 0x0 ISZERO ISZERO DUP2 PUSH1 0x20 ADD MLOAD ISZERO ISZERO EQ PUSH2 0xD1E JUMPI PUSH1 0x0 DUP1 REVERT JUMPDEST PUSH1 0x0 DUP1 DUP3 PUSH1 0x0 ADD MLOAD SWAP1 POP PUSH1 0x20 DUP2 ADD MLOAD SWAP2 POP PUSH1 0x0 DUP3 SUB PUSH2 0xDBD JUMPI PUSH20 0x0 PUSH4 0x8D78767 DUP5 PUSH1 0x40 MLOAD DUP3 PUSH4 0xFFFFFFFF AND PUSH1 0xE0 SHL DUP2 MSTORE PUSH1 0x4 ADD PUSH2 0xD6E SWAP2 SWAP1 PUSH2 0x1F0C JUMP JUMPDEST PUSH1 0x20 PUSH1 0x40 MLOAD DUP1 DUP4 SUB DUP2 DUP7 GAS DELEGATECALL ISZERO DUP1 ISZERO PUSH2 0xD8B JUMPI RETURNDATASIZE PUSH1 0x0 DUP1 RETURNDATACOPY RETURNDATASIZE PUSH1 0x0 REVERT JUMPDEST POP POP POP POP PUSH1 0x40 MLOAD RETURNDATASIZE PUSH1 0x1F NOT PUSH1 0x1F DUP3 ADD AND DUP3 ADD DUP1 PUSH1 0x40 MSTORE POP DUP2 ADD SWAP1 PUSH2 0xDAF SWAP2 SWAP1 PUSH2 0x1F43 JUMP JUMPDEST PUSH2 0xDB8 JUMPI PUSH1 0x0 DUP1 REVERT JUMPDEST PUSH2 0xE08 JUMP JUMPDEST PUSH1 0x0 PUSH1 0x20 DUP5 PUSH1 0x0 ADD MLOAD MLOAD PUSH2 0xDD1 SWAP2 SWAP1 PUSH2 0x1F9F JUMP JUMPDEST EQ DUP1 ISZERO PUSH2 0xDFE JUMPI POP PUSH1 0x1 PUSH2 0x100 PUSH1 0x1 DUP6 PUSH1 0x40 ADD MLOAD PUSH2 0xDEF SWAP2 SWAP1 PUSH2 0x1FFF JUMP JUMPDEST PUSH2 0xDF9 SWAP2 SWAP1 PUSH2 0x1F9F JUMP JUMPDEST DUP4 SWAP1 SHR EQ JUMPDEST PUSH2 0xE07 JUMPI PUSH1 0x0 DUP1 REVERT JUMPDEST JUMPDEST PUSH2 0xE97 PUSH20 0x0 PUSH4 0x98CDCFB2 DUP12 PUSH1 0x0 ADD MLOAD DUP12 PUSH1 0x0 ADD MLOAD PUSH1 0x40 MLOAD DUP4 PUSH4 0xFFFFFFFF AND PUSH1 0xE0 SHL DUP2 MSTORE PUSH1 0x4 ADD PUSH2 0xE4C SWAP3 SWAP2 SWAP1 PUSH2 0x2527 JUMP JUMPDEST PUSH1 0x0 PUSH1 0x40 MLOAD DUP1 DUP4 SUB DUP2 DUP7 GAS DELEGATECALL ISZERO DUP1 ISZERO PUSH2 0xE69 JUMPI RETURNDATASIZE PUSH1 0x0 DUP1 RETURNDATACOPY RETURNDATASIZE PUSH1 0x0 REVERT JUMPDEST POP POP POP POP PUSH1 0x40 MLOAD RETURNDATASIZE PUSH1 0x0 DUP3 RETURNDATACOPY RETURNDATASIZE PUSH1 0x1F NOT PUSH1 0x1F DUP3 ADD AND DUP3 ADD DUP1 PUSH1 0x40 MSTORE POP DUP2 ADD SWAP1 PUSH2 0xE92 SWAP2 SWAP1 PUSH2 0x2327 JUMP JUMPDEST PUSH2 0x5E3 JUMP JUMPDEST SWAP7 POP POP POP POP POP POP POP SWAP3 SWAP2 POP POP JUMP JUMPDEST PUSH2 0xEAD PUSH2 0x1806 JUMP JUMPDEST DUP3 PUSH1 0x0 ADD MLOAD PUSH1 0x0 ISZERO ISZERO DUP2 PUSH1 0x20 ADD MLOAD ISZERO ISZERO EQ PUSH2 0xEC7 JUMPI PUSH1 0x0 DUP1 REVERT JUMPDEST PUSH1 0x0 DUP1 DUP3 PUSH1 0x0 ADD MLOAD SWAP1 POP PUSH1 0x20 DUP2 ADD MLOAD SWAP2 POP PUSH1 0x0 DUP3 SUB PUSH2 0xF66 JUMPI PUSH20 0x0 PUSH4 0x8D78767 DUP5 PUSH1 0x40 MLOAD DUP3 PUSH4 0xFFFFFFFF AND PUSH1 0xE0 SHL DUP2 MSTORE PUSH1 0x4 ADD PUSH2 0xF17 SWAP2 SWAP1 PUSH2 0x1F0C JUMP JUMPDEST PUSH1 0x20 PUSH1 0x40 MLOAD DUP1 DUP4 SUB DUP2 DUP7 GAS DELEGATECALL ISZERO DUP1 ISZERO PUSH2 0xF34 JUMPI RETURNDATASIZE PUSH1 0x0 DUP1 RETURNDATACOPY RETURNDATASIZE PUSH1 0x0 REVERT JUMPDEST POP POP POP POP PUSH1 0x40 MLOAD RETURNDATASIZE PUSH1 0x1F NOT PUSH1 0x1F DUP3 ADD AND DUP3 ADD DUP1 PUSH1 0x40 MSTORE POP DUP2 ADD SWAP1 PUSH2 0xF58 SWAP2 SWAP1 PUSH2 0x1F43 JUMP JUMPDEST PUSH2 0xF61 JUMPI PUSH1 0x0 DUP1 REVERT JUMPDEST PUSH2 0xFB1 JUMP JUMPDEST PUSH1 0x0 PUSH1 0x20 DUP5 PUSH1 0x0 ADD MLOAD MLOAD PUSH2 0xF7A SWAP2 SWAP1 PUSH2 0x1F9F JUMP JUMPDEST EQ DUP1 ISZERO PUSH2 0xFA7 JUMPI POP PUSH1 0x1 PUSH2 0x100 PUSH1 0x1 DUP6 PUSH1 0x40 ADD MLOAD PUSH2 0xF98 SWAP2 SWAP1 PUSH2 0x1FFF JUMP JUMPDEST PUSH2 0xFA2 SWAP2 SWAP1 PUSH2 0x1F9F JUMP JUMPDEST DUP4 SWAP1 SHR EQ JUMPDEST PUSH2 0xFB0 JUMPI PUSH1 0x0 DUP1 REVERT JUMPDEST JUMPDEST DUP5 PUSH1 0x0 ADD MLOAD PUSH1 0x0 ISZERO ISZERO DUP2 PUSH1 0x20 ADD MLOAD ISZERO ISZERO EQ PUSH2 0xFCB JUMPI PUSH1 0x0 DUP1 REVERT JUMPDEST PUSH1 0x0 DUP1 DUP3 PUSH1 0x0 ADD MLOAD SWAP1 POP PUSH1 0x20 DUP2 ADD MLOAD SWAP2 POP PUSH1 0x0 DUP3 SUB PUSH2 0x106A JUMPI PUSH20 0x0 PUSH4 0x8D78767 DUP5 PUSH1 0x40 MLOAD DUP3 PUSH4 0xFFFFFFFF AND PUSH1 0xE0 SHL DUP2 MSTORE PUSH1 0x4 ADD PUSH2 0x101B SWAP2 SWAP1 PUSH2 0x1F0C JUMP JUMPDEST PUSH1 0x20 PUSH1 0x40 MLOAD DUP1 DUP4 SUB DUP2 DUP7 GAS DELEGATECALL ISZERO DUP1 ISZERO PUSH2 0x1038 JUMPI RETURNDATASIZE PUSH1 0x0 DUP1 RETURNDATACOPY RETURNDATASIZE PUSH1 0x0 REVERT JUMPDEST POP POP POP POP PUSH1 0x40 MLOAD RETURNDATASIZE PUSH1 0x1F NOT PUSH1 0x1F DUP3 ADD AND DUP3 ADD DUP1 PUSH1 0x40 MSTORE POP DUP2 ADD SWAP1 PUSH2 0x105C SWAP2 SWAP1 PUSH2 0x1F43 JUMP JUMPDEST PUSH2 0x1065 JUMPI PUSH1 0x0 DUP1 REVERT JUMPDEST PUSH2 0x10B5 JUMP JUMPDEST PUSH1 0x0 PUSH1 0x20 DUP5 PUSH1 0x0 ADD MLOAD MLOAD PUSH2 0x107E SWAP2 SWAP1 PUSH2 0x1F9F JUMP JUMPDEST EQ DUP1 ISZERO PUSH2 0x10AB JUMPI POP PUSH1 0x1 PUSH2 0x100 PUSH1 0x1 DUP6 PUSH1 0x40 ADD MLOAD PUSH2 0x109C SWAP2 SWAP1 PUSH2 0x1FFF JUMP JUMPDEST PUSH2 0x10A6 SWAP2 SWAP1 PUSH2 0x1F9F JUMP JUMPDEST DUP4 SWAP1 SHR EQ JUMPDEST PUSH2 0x10B4 JUMPI PUSH1 0x0 DUP1 REVERT JUMPDEST JUMPDEST PUSH2 0x1147 PUSH20 0x0 PUSH4 0xA5D4CA5B DUP12 PUSH1 0x0 ADD MLOAD DUP12 PUSH1 0x0 ADD MLOAD PUSH1 0x0 PUSH1 0x40 MLOAD DUP5 PUSH4 0xFFFFFFFF AND PUSH1 0xE0 SHL DUP2 MSTORE PUSH1 0x4 ADD PUSH2 0x10FC SWAP4 SWAP3 SWAP2 SWAP1 PUSH2 0x24DB JUMP JUMPDEST PUSH1 0x0 PUSH1 0x40 MLOAD DUP1 DUP4 SUB DUP2 DUP7 GAS DELEGATECALL ISZERO DUP1 ISZERO PUSH2 0x1119 JUMPI RETURNDATASIZE PUSH1 0x0 DUP1 RETURNDATACOPY RETURNDATASIZE PUSH1 0x0 REVERT JUMPDEST POP POP POP POP PUSH1 0x40 MLOAD RETURNDATASIZE PUSH1 0x0 DUP3 RETURNDATACOPY RETURNDATASIZE PUSH1 0x1F NOT PUSH1 0x1F DUP3 ADD AND DUP3 ADD DUP1 PUSH1 0x40 MSTORE POP DUP2 ADD SWAP1 PUSH2 0x1142 SWAP2 SWAP1 PUSH2 0x2327 JUMP JUMPDEST PUSH2 0x5E3 JUMP JUMPDEST SWAP7 POP POP POP POP POP POP POP SWAP3 SWAP2 POP POP JUMP JUMPDEST PUSH2 0x115D PUSH2 0x1806 JUMP JUMPDEST PUSH1 0x40 MLOAD DUP1 PUSH1 0x20 ADD PUSH1 0x40 MSTORE DUP1 PUSH20 0x0 PUSH4 0xBC1B392D PUSH1 0x40 MLOAD DUP2 PUSH4 0xFFFFFFFF AND PUSH1 0xE0 SHL DUP2 MSTORE PUSH1 0x4 ADD PUSH1 0x0 PUSH1 0x40 MLOAD DUP1 DUP4 SUB DUP2 DUP7 GAS DELEGATECALL ISZERO DUP1 ISZERO PUSH2 0x11B1 JUMPI RETURNDATASIZE PUSH1 0x0 DUP1 RETURNDATACOPY RETURNDATASIZE PUSH1 0x0 REVERT JUMPDEST POP POP POP POP PUSH1 0x40 MLOAD RETURNDATASIZE PUSH1 0x0 DUP3 RETURNDATACOPY RETURNDATASIZE PUSH1 0x1F NOT PUSH1 0x1F DUP3 ADD AND DUP3 ADD DUP1 PUSH1 0x40 MSTORE POP DUP2 ADD SWAP1 PUSH2 0x11DA SWAP2 SWAP1 PUSH2 0x2327 JUMP JUMPDEST DUP2 MSTORE POP SWAP1 POP SWAP1 JUMP JUMPDEST PUSH1 0x0 PUSH1 0x20 DUP3 MLOAD EQ PUSH2 0x1228 JUMPI PUSH1 0x40 MLOAD PUSH32 0x8C379A000000000000000000000000000000000000000000000000000000000 DUP2 MSTORE PUSH1 0x4 ADD PUSH2 0x121F SWAP1 PUSH2 0x25D0 JUMP JUMPDEST PUSH1 0x40 MLOAD DUP1 SWAP2 SUB SWAP1 REVERT JUMPDEST PUSH1 0x0 PUSH1 0x20 DUP4 ADD MLOAD SWAP1 POP DUP1 SWAP2 POP POP SWAP2 SWAP1 POP JUMP JUMPDEST PUSH1 0x0 DUP3 PUSH1 0x0 ADD MLOAD PUSH1 0x0 ISZERO ISZERO DUP2 PUSH1 0x20 ADD MLOAD ISZERO ISZERO EQ PUSH2 0x1256 JUMPI PUSH1 0x0 DUP1 REVERT JUMPDEST PUSH1 0x0 DUP1 DUP3 PUSH1 0x0 ADD MLOAD SWAP1 POP PUSH1 0x20 DUP2 ADD MLOAD SWAP2 POP PUSH1 0x0 DUP3 SUB PUSH2 0x12F5 JUMPI PUSH20 0x0 PUSH4 0x8D78767 DUP5 PUSH1 0x40 MLOAD DUP3 PUSH4 0xFFFFFFFF AND PUSH1 0xE0 SHL DUP2 MSTORE PUSH1 0x4 ADD PUSH2 0x12A6 SWAP2 SWAP1 PUSH2 0x1F0C JUMP JUMPDEST PUSH1 0x20 PUSH1 0x40 MLOAD DUP1 DUP4 SUB DUP2 DUP7 GAS DELEGATECALL ISZERO DUP1 ISZERO PUSH2 0x12C3 JUMPI RETURNDATASIZE PUSH1 0x0 DUP1 RETURNDATACOPY RETURNDATASIZE PUSH1 0x0 REVERT JUMPDEST POP POP POP POP PUSH1 0x40 MLOAD RETURNDATASIZE PUSH1 0x1F NOT PUSH1 0x1F DUP3 ADD AND DUP3 ADD DUP1 PUSH1 0x40 MSTORE POP DUP2 ADD SWAP1 PUSH2 0x12E7 SWAP2 SWAP1 PUSH2 0x1F43 JUMP JUMPDEST PUSH2 0x12F0 JUMPI PUSH1 0x0 DUP1 REVERT JUMPDEST PUSH2 0x1340 JUMP JUMPDEST PUSH1 0x0 PUSH1 0x20 DUP5 PUSH1 0x0 ADD MLOAD MLOAD PUSH2 0x1309 SWAP2 SWAP1 PUSH2 0x1F9F JUMP JUMPDEST EQ DUP1 ISZERO PUSH2 0x1336 JUMPI POP PUSH1 0x1 PUSH2 0x100 PUSH1 0x1 DUP6 PUSH1 0x40 ADD MLOAD PUSH2 0x1327 SWAP2 SWAP1 PUSH2 0x1FFF JUMP JUMPDEST PUSH2 0x1331 SWAP2 SWAP1 PUSH2 0x1F9F JUMP JUMPDEST DUP4 SWAP1 SHR EQ JUMPDEST PUSH2 0x133F JUMPI PUSH1 0x0 DUP1 REVERT JUMPDEST JUMPDEST DUP5 PUSH1 0x0 ADD MLOAD PUSH1 0x0 ISZERO ISZERO DUP2 PUSH1 0x20 ADD MLOAD ISZERO ISZERO EQ PUSH2 0x135A JUMPI PUSH1 0x0 DUP1 REVERT JUMPDEST PUSH1 0x0 DUP1 DUP3 PUSH1 0x0 ADD MLOAD SWAP1 POP PUSH1 0x20 DUP2 ADD MLOAD SWAP2 POP PUSH1 0x0 DUP3 SUB PUSH2 0x13F9 JUMPI PUSH20 0x0 PUSH4 0x8D78767 DUP5 PUSH1 0x40 MLOAD DUP3 PUSH4 0xFFFFFFFF AND PUSH1 0xE0 SHL DUP2 MSTORE PUSH1 0x4 ADD PUSH2 0x13AA SWAP2 SWAP1 PUSH2 0x1F0C JUMP JUMPDEST PUSH1 0x20 PUSH1 0x40 MLOAD DUP1 DUP4 SUB DUP2 DUP7 GAS DELEGATECALL ISZERO DUP1 ISZERO PUSH2 0x13C7 JUMPI RETURNDATASIZE PUSH1 0x0 DUP1 RETURNDATACOPY RETURNDATASIZE PUSH1 0x0 REVERT JUMPDEST POP POP POP POP PUSH1 0x40 MLOAD RETURNDATASIZE PUSH1 0x1F NOT PUSH1 0x1F DUP3 ADD AND DUP3 ADD DUP1 PUSH1 0x40 MSTORE POP DUP2 ADD SWAP1 PUSH2 0x13EB SWAP2 SWAP1 PUSH2 0x1F43 JUMP JUMPDEST PUSH2 0x13F4 JUMPI PUSH1 0x0 DUP1 REVERT JUMPDEST PUSH2 0x1444 JUMP JUMPDEST PUSH1 0x0 PUSH1 0x20 DUP5 PUSH1 0x0 ADD MLOAD MLOAD PUSH2 0x140D SWAP2 SWAP1 PUSH2 0x1F9F JUMP JUMPDEST EQ DUP1 ISZERO PUSH2 0x143A JUMPI POP PUSH1 0x1 PUSH2 0x100 PUSH1 0x1 DUP6 PUSH1 0x40 ADD MLOAD PUSH2 0x142B SWAP2 SWAP1 PUSH2 0x1FFF JUMP JUMPDEST PUSH2 0x1435 SWAP2 SWAP1 PUSH2 0x1F9F JUMP JUMPDEST DUP4 SWAP1 SHR EQ JUMPDEST PUSH2 0x1443 JUMPI PUSH1 0x0 DUP1 REVERT JUMPDEST JUMPDEST PUSH1 0x0 PUSH20 0x0 PUSH4 0xBC39804E DUP12 PUSH1 0x0 ADD MLOAD DUP12 PUSH1 0x0 ADD MLOAD PUSH1 0x0 PUSH1 0x40 MLOAD DUP5 PUSH4 0xFFFFFFFF AND PUSH1 0xE0 SHL DUP2 MSTORE PUSH1 0x4 ADD PUSH2 0x148A SWAP4 SWAP3 SWAP2 SWAP1 PUSH2 0x237F JUMP JUMPDEST PUSH1 0x20 PUSH1 0x40 MLOAD DUP1 DUP4 SUB DUP2 DUP7 GAS DELEGATECALL ISZERO DUP1 ISZERO PUSH2 0x14A7 JUMPI RETURNDATASIZE PUSH1 0x0 DUP1 RETURNDATACOPY RETURNDATASIZE PUSH1 0x0 REVERT JUMPDEST POP POP POP POP PUSH1 0x40 MLOAD RETURNDATASIZE PUSH1 0x1F NOT PUSH1 0x1F DUP3 ADD AND DUP3 ADD DUP1 PUSH1 0x40 MSTORE POP DUP2 ADD SWAP1 PUSH2 0x14CB SWAP2 SWAP1 PUSH2 0x23FA JUMP JUMPDEST EQ SWAP7 POP POP POP POP POP POP POP SWAP3 SWAP2 POP POP JUMP JUMPDEST PUSH2 0x14E2 PUSH2 0x1806 JUMP JUMPDEST DUP3 PUSH1 0x0 ADD MLOAD PUSH1 0x0 ISZERO ISZERO DUP2 PUSH1 0x20 ADD MLOAD ISZERO ISZERO EQ PUSH2 0x14FC JUMPI PUSH1 0x0 DUP1 REVERT JUMPDEST PUSH1 0x0 DUP1 DUP3 PUSH1 0x0 ADD MLOAD SWAP1 POP PUSH1 0x20 DUP2 ADD MLOAD SWAP2 POP PUSH1 0x0 DUP3 SUB PUSH2 0x159B JUMPI PUSH20 0x0 PUSH4 0x8D78767 DUP5 PUSH1 0x40 MLOAD DUP3 PUSH4 0xFFFFFFFF AND PUSH1 0xE0 SHL DUP2 MSTORE PUSH1 0x4 ADD PUSH2 0x154C SWAP2 SWAP1 PUSH2 0x1F0C JUMP JUMPDEST PUSH1 0x20 PUSH1 0x40 MLOAD DUP1 DUP4 SUB DUP2 DUP7 GAS DELEGATECALL ISZERO DUP1 ISZERO PUSH2 0x1569 JUMPI RETURNDATASIZE PUSH1 0x0 DUP1 RETURNDATACOPY RETURNDATASIZE PUSH1 0x0 REVERT JUMPDEST POP POP POP POP PUSH1 0x40 MLOAD RETURNDATASIZE PUSH1 0x1F NOT PUSH1 0x1F DUP3 ADD AND DUP3 ADD DUP1 PUSH1 0x40 MSTORE POP DUP2 ADD SWAP1 PUSH2 0x158D SWAP2 SWAP1 PUSH2 0x1F43 JUMP JUMPDEST PUSH2 0x1596 JUMPI PUSH1 0x0 DUP1 REVERT JUMPDEST PUSH2 0x15E6 JUMP JUMPDEST PUSH1 0x0 PUSH1 0x20 DUP5 PUSH1 0x0 ADD MLOAD MLOAD PUSH2 0x15AF SWAP2 SWAP1 PUSH2 0x1F9F JUMP JUMPDEST EQ DUP1 ISZERO PUSH2 0x15DC JUMPI POP PUSH1 0x1 PUSH2 0x100 PUSH1 0x1 DUP6 PUSH1 0x40 ADD MLOAD PUSH2 0x15CD SWAP2 SWAP1 PUSH2 0x1FFF JUMP JUMPDEST PUSH2 0x15D7 SWAP2 SWAP1 PUSH2 0x1F9F JUMP JUMPDEST DUP4 SWAP1 SHR EQ JUMPDEST PUSH2 0x15E5 JUMPI PUSH1 0x0 DUP1 REVERT JUMPDEST JUMPDEST DUP5 PUSH1 0x0 ADD MLOAD PUSH1 0x0 ISZERO ISZERO DUP2 PUSH1 0x20 ADD MLOAD ISZERO ISZERO EQ PUSH2 0x1600 JUMPI PUSH1 0x0 DUP1 REVERT JUMPDEST PUSH1 0x0 DUP1 DUP3 PUSH1 0x0 ADD MLOAD SWAP1 POP PUSH1 0x20 DUP2 ADD MLOAD SWAP2 POP PUSH1 0x0 DUP3 SUB PUSH2 0x169F JUMPI PUSH20 0x0 PUSH4 0x8D78767 DUP5 PUSH1 0x40 MLOAD DUP3 PUSH4 0xFFFFFFFF AND PUSH1 0xE0 SHL DUP2 MSTORE PUSH1 0x4 ADD PUSH2 0x1650 SWAP2 SWAP1 PUSH2 0x1F0C JUMP JUMPDEST PUSH1 0x20 PUSH1 0x40 MLOAD DUP1 DUP4 SUB DUP2 DUP7 GAS DELEGATECALL ISZERO DUP1 ISZERO PUSH2 0x166D JUMPI RETURNDATASIZE PUSH1 0x0 DUP1 RETURNDATACOPY RETURNDATASIZE PUSH1 0x0 REVERT JUMPDEST POP POP POP POP PUSH1 0x40 MLOAD RETURNDATASIZE PUSH1 0x1F NOT PUSH1 0x1F DUP3 ADD AND DUP3 ADD DUP1 PUSH1 0x40 MSTORE POP DUP2 ADD SWAP1 PUSH2 0x1691 SWAP2 SWAP1 PUSH2 0x1F43 JUMP JUMPDEST PUSH2 0x169A JUMPI PUSH1 0x0 DUP1 REVERT JUMPDEST PUSH2 0x16EA JUMP JUMPDEST PUSH1 0x0 PUSH1 0x20 DUP5 PUSH1 0x0 ADD MLOAD MLOAD PUSH2 0x16B3 SWAP2 SWAP1 PUSH2 0x1F9F JUMP JUMPDEST EQ DUP1 ISZERO PUSH2 0x16E0 JUMPI POP PUSH1 0x1 PUSH2 0x100 PUSH1 0x1 DUP6 PUSH1 0x40 ADD MLOAD PUSH2 0x16D1 SWAP2 SWAP1 PUSH2 0x1FFF JUMP JUMPDEST PUSH2 0x16DB SWAP2 SWAP1 PUSH2 0x1F9F JUMP JUMPDEST DUP4 SWAP1 SHR EQ JUMPDEST PUSH2 0x16E9 JUMPI PUSH1 0x0 DUP1 REVERT JUMPDEST JUMPDEST PUSH2 0x17F8 PUSH20 0x0 PUSH4 0x7AFA8553 PUSH20 0x0 PUSH4 0xA4638FD DUP14 PUSH1 0x0 ADD MLOAD DUP14 PUSH1 0x0 ADD MLOAD PUSH1 0x40 MLOAD DUP4 PUSH4 0xFFFFFFFF AND PUSH1 0xE0 SHL DUP2 MSTORE PUSH1 0x4 ADD PUSH2 0x1748 SWAP3 SWAP2 SWAP1 PUSH2 0x2527 JUMP JUMPDEST PUSH1 0x0 PUSH1 0x40 MLOAD DUP1 DUP4 SUB DUP2 DUP7 GAS DELEGATECALL ISZERO DUP1 ISZERO PUSH2 0x1765 JUMPI RETURNDATASIZE PUSH1 0x0 DUP1 RETURNDATACOPY RETURNDATASIZE PUSH1 0x0 REVERT JUMPDEST POP POP POP POP PUSH1 0x40 MLOAD RETURNDATASIZE PUSH1 0x0 DUP3 RETURNDATACOPY RETURNDATASIZE PUSH1 0x1F NOT PUSH1 0x1F DUP3 ADD AND DUP3 ADD DUP1 PUSH1 0x40 MSTORE POP DUP2 ADD SWAP1 PUSH2 0x178E SWAP2 SWAP1 PUSH2 0x2327 JUMP JUMPDEST PUSH1 0x0 PUSH1 0x40 MLOAD DUP4 PUSH4 0xFFFFFFFF AND PUSH1 0xE0 SHL DUP2 MSTORE PUSH1 0x4 ADD PUSH2 0x17AD SWAP3 SWAP2 SWAP1 PUSH2 0x21EB JUMP JUMPDEST PUSH1 0x0 PUSH1 0x40 MLOAD DUP1 DUP4 SUB DUP2 DUP7 GAS DELEGATECALL ISZERO DUP1 ISZERO PUSH2 0x17CA JUMPI RETURNDATASIZE PUSH1 0x0 DUP1 RETURNDATACOPY RETURNDATASIZE PUSH1 0x0 REVERT JUMPDEST POP POP POP POP PUSH1 0x40 MLOAD RETURNDATASIZE PUSH1 0x0 DUP3 RETURNDATACOPY RETURNDATASIZE PUSH1 0x1F NOT PUSH1 0x1F DUP3 ADD AND DUP3 ADD DUP1 PUSH1 0x40 MSTORE POP DUP2 ADD SWAP1 PUSH2 0x17F3 SWAP2 SWAP1 PUSH2 0x2327 JUMP JUMPDEST PUSH2 0x5E3 JUMP JUMPDEST SWAP7 POP POP POP POP POP POP POP SWAP3 SWAP2 POP POP JUMP JUMPDEST PUSH1 0x40 MLOAD DUP1 PUSH1 0x20 ADD PUSH1 0x40 MSTORE DUP1 PUSH2 0x1819 PUSH2 0x181F JUMP JUMPDEST DUP2 MSTORE POP SWAP1 JUMP JUMPDEST PUSH1 0x40 MLOAD DUP1 PUSH1 0x60 ADD PUSH1 0x40 MSTORE DUP1 PUSH1 0x60 DUP2 MSTORE PUSH1 0x20 ADD PUSH1 0x0 ISZERO ISZERO DUP2 MSTORE PUSH1 0x20 ADD PUSH1 0x0 DUP2 MSTORE POP SWAP1 JUMP JUMPDEST PUSH1 0x0 PUSH1 0x40 MLOAD SWAP1 POP SWAP1 JUMP JUMPDEST PUSH1 0x0 DUP1 REVERT JUMPDEST PUSH1 0x0 DUP1 REVERT JUMPDEST PUSH1 0x0 DUP1 REVERT JUMPDEST PUSH1 0x0 PUSH1 0x1F NOT PUSH1 0x1F DUP4 ADD AND SWAP1 POP SWAP2 SWAP1 POP JUMP JUMPDEST PUSH32 0x4E487B7100000000000000000000000000000000000000000000000000000000 PUSH1 0x0 MSTORE PUSH1 0x41 PUSH1 0x4 MSTORE PUSH1 0x24 PUSH1 0x0 REVERT JUMPDEST PUSH2 0x18A4 DUP3 PUSH2 0x185B JUMP JUMPDEST DUP2 ADD DUP2 DUP2 LT PUSH8 0xFFFFFFFFFFFFFFFF DUP3 GT OR ISZERO PUSH2 0x18C3 JUMPI PUSH2 0x18C2 PUSH2 0x186C JUMP JUMPDEST JUMPDEST DUP1 PUSH1 0x40 MSTORE POP POP POP JUMP JUMPDEST PUSH1 0x0 PUSH2 0x18D6 PUSH2 0x1842 JUMP JUMPDEST SWAP1 POP PUSH2 0x18E2 DUP3 DUP3 PUSH2 0x189B JUMP JUMPDEST SWAP2 SWAP1 POP JUMP JUMPDEST PUSH1 0x0 DUP1 REVERT JUMPDEST PUSH1 0x0 DUP1 REVERT JUMPDEST PUSH1 0x0 DUP1 REVERT JUMPDEST PUSH1 0x0 PUSH8 0xFFFFFFFFFFFFFFFF DUP3 GT ISZERO PUSH2 0x1911 JUMPI PUSH2 0x1910 PUSH2 0x186C JUMP JUMPDEST JUMPDEST PUSH2 0x191A DUP3 PUSH2 0x185B JUMP JUMPDEST SWAP1 POP PUSH1 0x20 DUP2 ADD SWAP1 POP SWAP2 SWAP1 POP JUMP JUMPDEST DUP3 DUP2 DUP4 CALLDATACOPY PUSH1 0x0 DUP4 DUP4 ADD MSTORE POP POP POP JUMP JUMPDEST PUSH1 0x0 PUSH2 0x1949 PUSH2 0x1944 DUP5 PUSH2 0x18F6 JUMP JUMPDEST PUSH2 0x18CC JUMP JUMPDEST SWAP1 POP DUP3 DUP2 MSTORE PUSH1 0x20 DUP2 ADD DUP5 DUP5 DUP5 ADD GT ISZERO PUSH2 0x1965 JUMPI PUSH2 0x1964 PUSH2 0x18F1 JUMP JUMPDEST JUMPDEST PUSH2 0x1970 DUP5 DUP3 DUP6 PUSH2 0x1927 JUMP JUMPDEST POP SWAP4 SWAP3 POP POP POP JUMP JUMPDEST PUSH1 0x0 DUP3 PUSH1 0x1F DUP4 ADD SLT PUSH2 0x198D JUMPI PUSH2 0x198C PUSH2 0x18EC JUMP JUMPDEST JUMPDEST DUP2 CALLDATALOAD PUSH2 0x199D DUP5 DUP3 PUSH1 0x20 DUP7 ADD PUSH2 0x1936 JUMP JUMPDEST SWAP2 POP POP SWAP3 SWAP2 POP POP JUMP JUMPDEST PUSH1 0x0 DUP2 ISZERO ISZERO SWAP1 POP SWAP2 SWAP1 POP JUMP JUMPDEST PUSH2 0x19BB DUP2 PUSH2 0x19A6 JUMP JUMPDEST DUP2 EQ PUSH2 0x19C6 JUMPI PUSH1 0x0 DUP1 REVERT JUMPDEST POP JUMP JUMPDEST PUSH1 0x0 DUP2 CALLDATALOAD SWAP1 POP PUSH2 0x19D8 DUP2 PUSH2 0x19B2 JUMP JUMPDEST SWAP3 SWAP2 POP POP JUMP JUMPDEST PUSH1 0x0 DUP2 SWAP1 POP SWAP2 SWAP1 POP JUMP JUMPDEST PUSH2 0x19F1 DUP2 PUSH2 0x19DE JUMP JUMPDEST DUP2 EQ PUSH2 0x19FC JUMPI PUSH1 0x0 DUP1 REVERT JUMPDEST POP JUMP JUMPDEST PUSH1 0x0 DUP2 CALLDATALOAD SWAP1 POP PUSH2 0x1A0E DUP2 PUSH2 0x19E8 JUMP JUMPDEST SWAP3 SWAP2 POP POP JUMP JUMPDEST PUSH1 0x0 PUSH1 0x60 DUP3 DUP5 SUB SLT ISZERO PUSH2 0x1A2A JUMPI PUSH2 0x1A29 PUSH2 0x1856 JUMP JUMPDEST JUMPDEST PUSH2 0x1A34 PUSH1 0x60 PUSH2 0x18CC JUMP JUMPDEST SWAP1 POP PUSH1 0x0 DUP3 ADD CALLDATALOAD PUSH8 0xFFFFFFFFFFFFFFFF DUP2 GT ISZERO PUSH2 0x1A54 JUMPI PUSH2 0x1A53 PUSH2 0x18E7 JUMP JUMPDEST JUMPDEST PUSH2 0x1A60 DUP5 DUP3 DUP6 ADD PUSH2 0x1978 JUMP JUMPDEST PUSH1 0x0 DUP4 ADD MSTORE POP PUSH1 0x20 PUSH2 0x1A74 DUP5 DUP3 DUP6 ADD PUSH2 0x19C9 JUMP JUMPDEST PUSH1 0x20 DUP4 ADD MSTORE POP PUSH1 0x40 PUSH2 0x1A88 DUP5 DUP3 DUP6 ADD PUSH2 0x19FF JUMP JUMPDEST PUSH1 0x40 DUP4 ADD MSTORE POP SWAP3 SWAP2 POP POP JUMP JUMPDEST PUSH1 0x0 PUSH1 0x20 DUP3 DUP5 SUB SLT ISZERO PUSH2 0x1AAA JUMPI PUSH2 0x1AA9 PUSH2 0x1856 JUMP JUMPDEST JUMPDEST PUSH2 0x1AB4 PUSH1 0x20 PUSH2 0x18CC JUMP JUMPDEST SWAP1 POP PUSH1 0x0 DUP3 ADD CALLDATALOAD PUSH8 0xFFFFFFFFFFFFFFFF DUP2 GT ISZERO PUSH2 0x1AD4 JUMPI PUSH2 0x1AD3 PUSH2 0x18E7 JUMP JUMPDEST JUMPDEST PUSH2 0x1AE0 DUP5 DUP3 DUP6 ADD PUSH2 0x1A14 JUMP JUMPDEST PUSH1 0x0 DUP4 ADD MSTORE POP SWAP3 SWAP2 POP POP JUMP JUMPDEST PUSH1 0x0 PUSH1 0x20 DUP3 DUP5 SUB SLT ISZERO PUSH2 0x1B02 JUMPI PUSH2 0x1B01 PUSH2 0x184C JUMP JUMPDEST JUMPDEST PUSH1 0x0 DUP3 ADD CALLDATALOAD PUSH8 0xFFFFFFFFFFFFFFFF DUP2 GT ISZERO PUSH2 0x1B20 JUMPI PUSH2 0x1B1F PUSH2 0x1851 JUMP JUMPDEST JUMPDEST PUSH2 0x1B2C DUP5 DUP3 DUP6 ADD PUSH2 0x1A94 JUMP JUMPDEST SWAP2 POP POP SWAP3 SWAP2 POP POP JUMP JUMPDEST PUSH1 0x0 DUP2 MLOAD SWAP1 POP SWAP2 SWAP1 POP JUMP JUMPDEST PUSH1 0x0 DUP3 DUP3 MSTORE PUSH1 0x20 DUP3 ADD SWAP1 POP SWAP3 SWAP2 POP POP JUMP JUMPDEST PUSH1 0x0 JUMPDEST DUP4 DUP2 LT ISZERO PUSH2 0x1B6F JUMPI DUP1 DUP3 ADD MLOAD DUP2 DUP5 ADD MSTORE PUSH1 0x20 DUP2 ADD SWAP1 POP PUSH2 0x1B54 JUMP JUMPDEST PUSH1 0x0 DUP5 DUP5 ADD MSTORE POP POP POP POP JUMP JUMPDEST PUSH1 0x0 PUSH2 0x1B86 DUP3 PUSH2 0x1B35 JUMP JUMPDEST PUSH2 0x1B90 DUP2 DUP6 PUSH2 0x1B40 JUMP JUMPDEST SWAP4 POP PUSH2 0x1BA0 DUP2 DUP6 PUSH1 0x20 DUP7 ADD PUSH2 0x1B51 JUMP JUMPDEST PUSH2 0x1BA9 DUP2 PUSH2 0x185B JUMP JUMPDEST DUP5 ADD SWAP2 POP POP SWAP3 SWAP2 POP POP JUMP JUMPDEST PUSH2 0x1BBD DUP2 PUSH2 0x19A6 JUMP JUMPDEST DUP3 MSTORE POP POP JUMP JUMPDEST PUSH2 0x1BCC DUP2 PUSH2 0x19DE JUMP JUMPDEST DUP3 MSTORE POP POP JUMP JUMPDEST PUSH1 0x0 PUSH1 0x60 DUP4 ADD PUSH1 0x0 DUP4 ADD MLOAD DUP5 DUP3 SUB PUSH1 0x0 DUP7 ADD MSTORE PUSH2 0x1BEF DUP3 DUP3 PUSH2 0x1B7B JUMP JUMPDEST SWAP2 POP POP PUSH1 0x20 DUP4 ADD MLOAD PUSH2 0x1C04 PUSH1 0x20 DUP7 ADD DUP3 PUSH2 0x1BB4 JUMP JUMPDEST POP PUSH1 0x40 DUP4 ADD MLOAD PUSH2 0x1C17 PUSH1 0x40 DUP7 ADD DUP3 PUSH2 0x1BC3 JUMP JUMPDEST POP DUP1 SWAP2 POP POP SWAP3 SWAP2 POP POP JUMP JUMPDEST PUSH1 0x0 PUSH1 0x20 DUP4 ADD PUSH1 0x0 DUP4 ADD MLOAD DUP5 DUP3 SUB PUSH1 0x0 DUP7 ADD MSTORE PUSH2 0x1C3F DUP3 DUP3 PUSH2 0x1BD2 JUMP JUMPDEST SWAP2 POP POP DUP1 SWAP2 POP POP SWAP3 SWAP2 POP POP JUMP JUMPDEST PUSH1 0x0 PUSH1 0x20 DUP3 ADD SWAP1 POP DUP2 DUP2 SUB PUSH1 0x0 DUP4 ADD MSTORE PUSH2 0x1C66 DUP2 DUP5 PUSH2 0x1C22 JUMP JUMPDEST SWAP1 POP SWAP3 SWAP2 POP POP JUMP JUMPDEST PUSH1 0x0 DUP1 PUSH1 0x40 DUP4 DUP6 SUB SLT ISZERO PUSH2 0x1C85 JUMPI PUSH2 0x1C84 PUSH2 0x184C JUMP JUMPDEST JUMPDEST PUSH1 0x0 DUP4 ADD CALLDATALOAD PUSH8 0xFFFFFFFFFFFFFFFF DUP2 GT ISZERO PUSH2 0x1CA3 JUMPI PUSH2 0x1CA2 PUSH2 0x1851 JUMP JUMPDEST JUMPDEST PUSH2 0x1CAF DUP6 DUP3 DUP7 ADD PUSH2 0x1A94 JUMP JUMPDEST SWAP3 POP POP PUSH1 0x20 DUP4 ADD CALLDATALOAD PUSH8 0xFFFFFFFFFFFFFFFF DUP2 GT ISZERO PUSH2 0x1CD0 JUMPI PUSH2 0x1CCF PUSH2 0x1851 JUMP JUMPDEST JUMPDEST PUSH2 0x1CDC DUP6 DUP3 DUP7 ADD PUSH2 0x1A94 JUMP JUMPDEST SWAP2 POP POP SWAP3 POP SWAP3 SWAP1 POP JUMP JUMPDEST PUSH1 0x0 PUSH1 0x20 DUP3 DUP5 SUB SLT ISZERO PUSH2 0x1CFC JUMPI PUSH2 0x1CFB PUSH2 0x184C JUMP JUMPDEST JUMPDEST PUSH1 0x0 DUP3 ADD CALLDATALOAD PUSH8 0xFFFFFFFFFFFFFFFF DUP2 GT ISZERO PUSH2 0x1D1A JUMPI PUSH2 0x1D19 PUSH2 0x1851 JUMP JUMPDEST JUMPDEST PUSH2 0x1D26 DUP5 DUP3 DUP6 ADD PUSH2 0x1A14 JUMP JUMPDEST SWAP2 POP POP SWAP3 SWAP2 POP POP JUMP JUMPDEST PUSH1 0x0 DUP3 DUP3 MSTORE PUSH1 0x20 DUP3 ADD SWAP1 POP SWAP3 SWAP2 POP POP JUMP JUMPDEST PUSH1 0x0 PUSH2 0x1D4B DUP3 PUSH2 0x1B35 JUMP JUMPDEST PUSH2 0x1D55 DUP2 DUP6 PUSH2 0x1D2F JUMP JUMPDEST SWAP4 POP PUSH2 0x1D65 DUP2 DUP6 PUSH1 0x20 DUP7 ADD PUSH2 0x1B51 JUMP JUMPDEST PUSH2 0x1D6E DUP2 PUSH2 0x185B JUMP JUMPDEST DUP5 ADD SWAP2 POP POP SWAP3 SWAP2 POP POP JUMP JUMPDEST PUSH2 0x1D82 DUP2 PUSH2 0x19A6 JUMP JUMPDEST DUP3 MSTORE POP POP JUMP JUMPDEST PUSH2 0x1D91 DUP2 PUSH2 0x19DE JUMP JUMPDEST DUP3 MSTORE POP POP JUMP JUMPDEST PUSH1 0x0 PUSH1 0x60 DUP3 ADD SWAP1 POP DUP2 DUP2 SUB PUSH1 0x0 DUP4 ADD MSTORE PUSH2 0x1DB1 DUP2 DUP7 PUSH2 0x1D40 JUMP JUMPDEST SWAP1 POP PUSH2 0x1DC0 PUSH1 0x20 DUP4 ADD DUP6 PUSH2 0x1D79 JUMP JUMPDEST PUSH2 0x1DCD PUSH1 0x40 DUP4 ADD DUP5 PUSH2 0x1D88 JUMP JUMPDEST SWAP5 SWAP4 POP POP POP POP JUMP JUMPDEST PUSH1 0x0 PUSH1 0x20 DUP3 DUP5 SUB SLT ISZERO PUSH2 0x1DEB JUMPI PUSH2 0x1DEA PUSH2 0x184C JUMP JUMPDEST JUMPDEST PUSH1 0x0 DUP3 ADD CALLDATALOAD PUSH8 0xFFFFFFFFFFFFFFFF DUP2 GT ISZERO PUSH2 0x1E09 JUMPI PUSH2 0x1E08 PUSH2 0x1851 JUMP JUMPDEST JUMPDEST PUSH2 0x1E15 DUP5 DUP3 DUP6 ADD PUSH2 0x1978 JUMP JUMPDEST SWAP2 POP POP SWAP3 SWAP2 POP POP JUMP JUMPDEST PUSH1 0x0 PUSH1 0x20 DUP3 ADD SWAP1 POP PUSH2 0x1E33 PUSH1 0x0 DUP4 ADD DUP5 PUSH2 0x1D88 JUMP JUMPDEST SWAP3 SWAP2 POP POP JUMP JUMPDEST PUSH1 0x0 PUSH1 0x20 DUP3 ADD SWAP1 POP PUSH2 0x1E4E PUSH1 0x0 DUP4 ADD DUP5 PUSH2 0x1D79 JUMP JUMPDEST SWAP3 SWAP2 POP POP JUMP JUMPDEST PUSH1 0x0 DUP3 DUP3 MSTORE PUSH1 0x20 DUP3 ADD SWAP1 POP SWAP3 SWAP2 POP POP JUMP JUMPDEST PUSH1 0x0 PUSH2 0x1E70 DUP3 PUSH2 0x1B35 JUMP JUMPDEST PUSH2 0x1E7A DUP2 DUP6 PUSH2 0x1E54 JUMP JUMPDEST SWAP4 POP PUSH2 0x1E8A DUP2 DUP6 PUSH1 0x20 DUP7 ADD PUSH2 0x1B51 JUMP JUMPDEST PUSH2 0x1E93 DUP2 PUSH2 0x185B JUMP JUMPDEST DUP5 ADD SWAP2 POP POP SWAP3 SWAP2 POP POP JUMP JUMPDEST PUSH2 0x1EA7 DUP2 PUSH2 0x19A6 JUMP JUMPDEST DUP3 MSTORE POP POP JUMP JUMPDEST PUSH2 0x1EB6 DUP2 PUSH2 0x19DE JUMP JUMPDEST DUP3 MSTORE POP POP JUMP JUMPDEST PUSH1 0x0 PUSH1 0x60 DUP4 ADD PUSH1 0x0 DUP4 ADD MLOAD DUP5 DUP3 SUB PUSH1 0x0 DUP7 ADD MSTORE PUSH2 0x1ED9 DUP3 DUP3 PUSH2 0x1E65 JUMP JUMPDEST SWAP2 POP POP PUSH1 0x20 DUP4 ADD MLOAD PUSH2 0x1EEE PUSH1 0x20 DUP7 ADD DUP3 PUSH2 0x1E9E JUMP JUMPDEST POP PUSH1 0x40 DUP4 ADD MLOAD PUSH2 0x1F01 PUSH1 0x40 DUP7 ADD DUP3 PUSH2 0x1EAD JUMP JUMPDEST POP DUP1 SWAP2 POP POP SWAP3 SWAP2 POP POP JUMP JUMPDEST PUSH1 0x0 PUSH1 0x20 DUP3 ADD SWAP1 POP DUP2 DUP2 SUB PUSH1 0x0 DUP4 ADD MSTORE PUSH2 0x1F26 DUP2 DUP5 PUSH2 0x1EBC JUMP JUMPDEST SWAP1 POP SWAP3 SWAP2 POP POP JUMP JUMPDEST PUSH1 0x0 DUP2 MLOAD SWAP1 POP PUSH2 0x1F3D DUP2 PUSH2 0x19B2 JUMP JUMPDEST SWAP3 SWAP2 POP POP JUMP JUMPDEST PUSH1 0x0 PUSH1 0x20 DUP3 DUP5 SUB SLT ISZERO PUSH2 0x1F59 JUMPI PUSH2 0x1F58 PUSH2 0x184C JUMP JUMPDEST JUMPDEST PUSH1 0x0 PUSH2 0x1F67 DUP5 DUP3 DUP6 ADD PUSH2 0x1F2E JUMP JUMPDEST SWAP2 POP POP SWAP3 SWAP2 POP POP JUMP JUMPDEST PUSH32 0x4E487B7100000000000000000000000000000000000000000000000000000000 PUSH1 0x0 MSTORE PUSH1 0x12 PUSH1 0x4 MSTORE PUSH1 0x24 PUSH1 0x0 REVERT JUMPDEST PUSH1 0x0 PUSH2 0x1FAA DUP3 PUSH2 0x19DE JUMP JUMPDEST SWAP2 POP PUSH2 0x1FB5 DUP4 PUSH2 0x19DE JUMP JUMPDEST SWAP3 POP DUP3 PUSH2 0x1FC5 JUMPI PUSH2 0x1FC4 PUSH2 0x1F70 JUMP JUMPDEST JUMPDEST DUP3 DUP3 MOD SWAP1 POP SWAP3 SWAP2 POP POP JUMP JUMPDEST PUSH32 0x4E487B7100000000000000000000000000000000000000000000000000000000 PUSH1 0x0 MSTORE PUSH1 0x11 PUSH1 0x4 MSTORE PUSH1 0x24 PUSH1 0x0 REVERT JUMPDEST PUSH1 0x0 PUSH2 0x200A DUP3 PUSH2 0x19DE JUMP JUMPDEST SWAP2 POP PUSH2 0x2015 DUP4 PUSH2 0x19DE JUMP JUMPDEST SWAP3 POP DUP3 DUP3 SUB SWAP1 POP DUP2 DUP2 GT ISZERO PUSH2 0x202D JUMPI PUSH2 0x202C PUSH2 0x1FD0 JUMP JUMPDEST JUMPDEST SWAP3 SWAP2 POP POP JUMP JUMPDEST PUSH32 0x4E487B7100000000000000000000000000000000000000000000000000000000 PUSH1 0x0 MSTORE PUSH1 0x22 PUSH1 0x4 MSTORE PUSH1 0x24 PUSH1 0x0 REVERT JUMPDEST PUSH1 0x0 PUSH1 0x2 DUP3 DIV SWAP1 POP PUSH1 0x1 DUP3 AND DUP1 PUSH2 0x207A JUMPI PUSH1 0x7F DUP3 AND SWAP2 POP JUMPDEST PUSH1 0x20 DUP3 LT DUP2 SUB PUSH2 0x208D JUMPI PUSH2 0x208C PUSH2 0x2033 JUMP JUMPDEST JUMPDEST POP SWAP2 SWAP1 POP JUMP JUMPDEST PUSH1 0x0 DUP2 SWAP1 POP DUP2 PUSH1 0x0 MSTORE PUSH1 0x20 PUSH1 0x0 KECCAK256 SWAP1 POP SWAP2 SWAP1 POP JUMP JUMPDEST PUSH1 0x0 DUP2 SLOAD PUSH2 0x20B5 DUP2 PUSH2 0x2062 JUMP JUMPDEST PUSH2 0x20BF DUP2 DUP7 PUSH2 0x1E54 JUMP JUMPDEST SWAP5 POP PUSH1 0x1 DUP3 AND PUSH1 0x0 DUP2 EQ PUSH2 0x20DA JUMPI PUSH1 0x1 DUP2 EQ PUSH2 0x20F0 JUMPI PUSH2 0x2123 JUMP JUMPDEST PUSH1 0xFF NOT DUP4 AND DUP7 MSTORE DUP2 ISZERO ISZERO PUSH1 0x20 MUL DUP7 ADD SWAP4 POP PUSH2 0x2123 JUMP JUMPDEST PUSH2 0x20F9 DUP6 PUSH2 0x2093 JUMP JUMPDEST PUSH1 0x0 JUMPDEST DUP4 DUP2 LT ISZERO PUSH2 0x211B JUMPI DUP2 SLOAD DUP2 DUP10 ADD MSTORE PUSH1 0x1 DUP3 ADD SWAP2 POP PUSH1 0x20 DUP2 ADD SWAP1 POP PUSH2 0x20FC JUMP JUMPDEST DUP1 DUP9 ADD SWAP6 POP POP POP JUMPDEST POP POP POP SWAP3 SWAP2 POP POP JUMP JUMPDEST PUSH1 0x0 DUP2 PUSH1 0x0 SHR SWAP1 POP SWAP2 SWAP1 POP JUMP JUMPDEST PUSH1 0x0 PUSH1 0xFF DUP3 AND SWAP1 POP SWAP2 SWAP1 POP JUMP JUMPDEST PUSH1 0x0 PUSH2 0x2159 PUSH2 0x2154 DUP4 PUSH2 0x212C JUMP JUMPDEST PUSH2 0x2139 JUMP JUMPDEST SWAP1 POP SWAP2 SWAP1 POP JUMP JUMPDEST PUSH1 0x0 DUP2 SWAP1 POP SWAP2 SWAP1 POP JUMP JUMPDEST PUSH1 0x0 PUSH2 0x217D PUSH2 0x2178 DUP4 PUSH2 0x212C JUMP JUMPDEST PUSH2 0x2160 JUMP JUMPDEST SWAP1 POP SWAP2 SWAP1 POP JUMP JUMPDEST PUSH1 0x0 PUSH1 0x60 DUP4 ADD PUSH1 0x0 DUP1 DUP5 ADD DUP6 DUP4 SUB PUSH1 0x0 DUP8 ADD MSTORE PUSH2 0x21A1 DUP4 DUP3 PUSH2 0x20A8 JUMP JUMPDEST SWAP3 POP POP PUSH1 0x1 DUP5 ADD SLOAD SWAP1 POP PUSH2 0x21B4 DUP2 PUSH2 0x2146 JUMP JUMPDEST PUSH2 0x21C1 PUSH1 0x20 DUP8 ADD DUP3 PUSH2 0x1E9E JUMP JUMPDEST POP PUSH1 0x2 DUP5 ADD SLOAD SWAP1 POP PUSH2 0x21D2 DUP2 PUSH2 0x216A JUMP JUMPDEST PUSH2 0x21DF PUSH1 0x40 DUP8 ADD DUP3 PUSH2 0x1EAD JUMP JUMPDEST POP DUP2 SWAP3 POP POP POP SWAP3 SWAP2 POP POP JUMP JUMPDEST PUSH1 0x0 PUSH1 0x40 DUP3 ADD SWAP1 POP DUP2 DUP2 SUB PUSH1 0x0 DUP4 ADD MSTORE PUSH2 0x2205 DUP2 DUP6 PUSH2 0x1EBC JUMP JUMPDEST SWAP1 POP DUP2 DUP2 SUB PUSH1 0x20 DUP4 ADD MSTORE PUSH2 0x2219 DUP2 DUP5 PUSH2 0x2184 JUMP JUMPDEST SWAP1 POP SWAP4 SWAP3 POP POP POP JUMP JUMPDEST PUSH1 0x0 PUSH2 0x2235 PUSH2 0x2230 DUP5 PUSH2 0x18F6 JUMP JUMPDEST PUSH2 0x18CC JUMP JUMPDEST SWAP1 POP DUP3 DUP2 MSTORE PUSH1 0x20 DUP2 ADD DUP5 DUP5 DUP5 ADD GT ISZERO PUSH2 0x2251 JUMPI PUSH2 0x2250 PUSH2 0x18F1 JUMP JUMPDEST JUMPDEST PUSH2 0x225C DUP5 DUP3 DUP6 PUSH2 0x1B51 JUMP JUMPDEST POP SWAP4 SWAP3 POP POP POP JUMP JUMPDEST PUSH1 0x0 DUP3 PUSH1 0x1F DUP4 ADD SLT PUSH2 0x2279 JUMPI PUSH2 0x2278 PUSH2 0x18EC JUMP JUMPDEST JUMPDEST DUP2 MLOAD PUSH2 0x2289 DUP5 DUP3 PUSH1 0x20 DUP7 ADD PUSH2 0x2222 JUMP JUMPDEST SWAP2 POP POP SWAP3 SWAP2 POP POP JUMP JUMPDEST PUSH1 0x0 DUP2 MLOAD SWAP1 POP PUSH2 0x22A1 DUP2 PUSH2 0x19E8 JUMP JUMPDEST SWAP3 SWAP2 POP POP JUMP JUMPDEST PUSH1 0x0 PUSH1 0x60 DUP3 DUP5 SUB SLT ISZERO PUSH2 0x22BD JUMPI PUSH2 0x22BC PUSH2 0x1856 JUMP JUMPDEST JUMPDEST PUSH2 0x22C7 PUSH1 0x60 PUSH2 0x18CC JUMP JUMPDEST SWAP1 POP PUSH1 0x0 DUP3 ADD MLOAD PUSH8 0xFFFFFFFFFFFFFFFF DUP2 GT ISZERO PUSH2 0x22E7 JUMPI PUSH2 0x22E6 PUSH2 0x18E7 JUMP JUMPDEST JUMPDEST PUSH2 0x22F3 DUP5 DUP3 DUP6 ADD PUSH2 0x2264 JUMP JUMPDEST PUSH1 0x0 DUP4 ADD MSTORE POP PUSH1 0x20 PUSH2 0x2307 DUP5 DUP3 DUP6 ADD PUSH2 0x1F2E JUMP JUMPDEST PUSH1 0x20 DUP4 ADD MSTORE POP PUSH1 0x40 PUSH2 0x231B DUP5 DUP3 DUP6 ADD PUSH2 0x2292 JUMP JUMPDEST PUSH1 0x40 DUP4 ADD MSTORE POP SWAP3 SWAP2 POP POP JUMP JUMPDEST PUSH1 0x0 PUSH1 0x20 DUP3 DUP5 SUB SLT ISZERO PUSH2 0x233D JUMPI PUSH2 0x233C PUSH2 0x184C JUMP JUMPDEST JUMPDEST PUSH1 0x0 DUP3 ADD MLOAD PUSH8 0xFFFFFFFFFFFFFFFF DUP2 GT ISZERO PUSH2 0x235B JUMPI PUSH2 0x235A PUSH2 0x1851 JUMP JUMPDEST JUMPDEST PUSH2 0x2367 DUP5 DUP3 DUP6 ADD PUSH2 0x22A7 JUMP JUMPDEST SWAP2 POP POP SWAP3 SWAP2 POP POP JUMP JUMPDEST PUSH2 0x2379 DUP2 PUSH2 0x19A6 JUMP JUMPDEST DUP3 MSTORE POP POP JUMP JUMPDEST PUSH1 0x0 PUSH1 0x60 DUP3 ADD SWAP1 POP DUP2 DUP2 SUB PUSH1 0x0 DUP4 ADD MSTORE PUSH2 0x2399 DUP2 DUP7 PUSH2 0x1EBC JUMP JUMPDEST SWAP1 POP DUP2 DUP2 SUB PUSH1 0x20 DUP4 ADD MSTORE PUSH2 0x23AD DUP2 DUP6 PUSH2 0x1EBC JUMP JUMPDEST SWAP1 POP PUSH2 0x23BC PUSH1 0x40 DUP4 ADD DUP5 PUSH2 0x2370 JUMP JUMPDEST SWAP5 SWAP4 POP POP POP POP JUMP JUMPDEST PUSH1 0x0 DUP2 SWAP1 POP SWAP2 SWAP1 POP JUMP JUMPDEST PUSH2 0x23D7 DUP2 PUSH2 0x23C4 JUMP JUMPDEST DUP2 EQ PUSH2 0x23E2 JUMPI PUSH1 0x0 DUP1 REVERT JUMPDEST POP JUMP JUMPDEST PUSH1 0x0 DUP2 MLOAD SWAP1 POP PUSH2 0x23F4 DUP2 PUSH2 0x23CE JUMP JUMPDEST SWAP3 SWAP2 POP POP JUMP JUMPDEST PUSH1 0x0 PUSH1 0x20 DUP3 DUP5 SUB SLT ISZERO PUSH2 0x2410 JUMPI PUSH2 0x240F PUSH2 0x184C JUMP JUMPDEST JUMPDEST PUSH1 0x0 PUSH2 0x241E DUP5 DUP3 DUP6 ADD PUSH2 0x23E5 JUMP JUMPDEST SWAP2 POP POP SWAP3 SWAP2 POP POP JUMP JUMPDEST PUSH1 0x0 DUP3 DUP3 MSTORE PUSH1 0x20 DUP3 ADD SWAP1 POP SWAP3 SWAP2 POP POP JUMP JUMPDEST PUSH32 0x496E766572736F20706572207A65726F206E6F6E20646566696E69746F2E0000 PUSH1 0x0 DUP3 ADD MSTORE POP JUMP JUMPDEST PUSH1 0x0 PUSH2 0x246E PUSH1 0x1E DUP4 PUSH2 0x2427 JUMP JUMPDEST SWAP2 POP PUSH2 0x2479 DUP3 PUSH2 0x2438 JUMP JUMPDEST PUSH1 0x20 DUP3 ADD SWAP1 POP SWAP2 SWAP1 POP JUMP JUMPDEST PUSH1 0x0 PUSH1 0x20 DUP3 ADD SWAP1 POP DUP2 DUP2 SUB PUSH1 0x0 DUP4 ADD MSTORE PUSH2 0x249D DUP2 PUSH2 0x2461 JUMP JUMPDEST SWAP1 POP SWAP2 SWAP1 POP JUMP JUMPDEST PUSH1 0x0 PUSH1 0x40 DUP3 ADD SWAP1 POP DUP2 DUP2 SUB PUSH1 0x0 DUP4 ADD MSTORE PUSH2 0x24BE DUP2 DUP6 PUSH2 0x2184 JUMP JUMPDEST SWAP1 POP DUP2 DUP2 SUB PUSH1 0x20 DUP4 ADD MSTORE PUSH2 0x24D2 DUP2 DUP5 PUSH2 0x1EBC JUMP JUMPDEST SWAP1 POP SWAP4 SWAP3 POP POP POP JUMP JUMPDEST PUSH1 0x0 PUSH1 0x60 DUP3 ADD SWAP1 POP DUP2 DUP2 SUB PUSH1 0x0 DUP4 ADD MSTORE PUSH2 0x24F5 DUP2 DUP7 PUSH2 0x1EBC JUMP JUMPDEST SWAP1 POP DUP2 DUP2 SUB PUSH1 0x20 DUP4 ADD MSTORE PUSH2 0x2509 DUP2 DUP6 PUSH2 0x1EBC JUMP JUMPDEST SWAP1 POP DUP2 DUP2 SUB PUSH1 0x40 DUP4 ADD MSTORE PUSH2 0x251D DUP2 DUP5 PUSH2 0x2184 JUMP JUMPDEST SWAP1 POP SWAP5 SWAP4 POP POP POP POP JUMP JUMPDEST PUSH1 0x0 PUSH1 0x40 DUP3 ADD SWAP1 POP DUP2 DUP2 SUB PUSH1 0x0 DUP4 ADD MSTORE PUSH2 0x2541 DUP2 DUP6 PUSH2 0x1EBC JUMP JUMPDEST SWAP1 POP DUP2 DUP2 SUB PUSH1 0x20 DUP4 ADD MSTORE PUSH2 0x2555 DUP2 DUP5 PUSH2 0x1EBC JUMP JUMPDEST SWAP1 POP SWAP4 SWAP3 POP POP POP JUMP JUMPDEST PUSH32 0x496E76616C6964206279746573206C656E6774682E204D757374206265203332 PUSH1 0x0 DUP3 ADD MSTORE PUSH32 0x2062797465732E00000000000000000000000000000000000000000000000000 PUSH1 0x20 DUP3 ADD MSTORE POP JUMP JUMPDEST PUSH1 0x0 PUSH2 0x25BA PUSH1 0x27 DUP4 PUSH2 0x2427 JUMP JUMPDEST SWAP2 POP PUSH2 0x25C5 DUP3 PUSH2 0x255E JUMP JUMPDEST PUSH1 0x40 DUP3 ADD SWAP1 POP SWAP2 SWAP1 POP JUMP JUMPDEST PUSH1 0x0 PUSH1 0x20 DUP3 ADD SWAP1 POP DUP2 DUP2 SUB PUSH1 0x0 DUP4 ADD MSTORE PUSH2 0x25E9 DUP2 PUSH2 0x25AD JUMP JUMPDEST SWAP1 POP SWAP2 SWAP1 POP JUMP INVALID LOG2 PUSH5 0x6970667358 0x22 SLT KECCAK256 CREATE2 SWAP12 0xF8 PUSH21 0xDC57DBB40595F50610DCB03CC2BA29D8EE403B24B2 PUSH25 0xFB4E61934BBD64736F6C634300081B00330000000000000000 "},"methodIdentifiers":{"bytesToUint256(bytes)":"cc9de25d","createElement((bytes,bool,uint256))":"17014742","div(((bytes,bool,uint256)),((bytes,bool,uint256)))":"12f7411b","equals(((bytes,bool,uint256)),((bytes,bool,uint256)))":"d4d45554","inverse(((bytes,bool,uint256)))":"a672d100","mul(((bytes,bool,uint256)),((bytes,bool,uint256)))":"b5e28325","mul_nonres(((bytes,bool,uint256)))":"085eb2b9","p()":"9ae8886a","sub(((bytes,bool,uint256)),((bytes,bool,uint256)))":"fb2bedad","sum(((bytes,bool,uint256)),((bytes,bool,uint256)))":"a9a52e7e","zero()":"bc1b392d"}}}}}