{"contracts/field/bigFiniteField.sol":{"bigFiniteField":{"abi":[{"inputs":[{"internalType":"bytes","name":"prime","type":"bytes"}],"stateMutability":"nonpayable","type":"constructor"},{"inputs":[{"components":[{"internalType":"bytes","name":"val","type":"bytes"},{"internalType":"bool","name":"neg","type":"bool"},{"internalType":"uint256","name":"bitlen","type":"uint256"}],"internalType":"struct BigNumber","name":"value","type":"tuple"}],"name":"createElement","outputs":[{"components":[{"components":[{"internalType":"bytes","name":"val","type":"bytes"},{"internalType":"bool","name":"neg","type":"bool"},{"internalType":"uint256","name":"bitlen","type":"uint256"}],"internalType":"struct BigNumber","name":"value","type":"tuple"}],"internalType":"struct Zp","name":"","type":"tuple"}],"stateMutability":"view","type":"function"},{"inputs":[{"components":[{"components":[{"internalType":"bytes","name":"val","type":"bytes"},{"internalType":"bool","name":"neg","type":"bool"},{"internalType":"uint256","name":"bitlen","type":"uint256"}],"internalType":"struct BigNumber","name":"value","type":"tuple"}],"internalType":"struct Zp","name":"x","type":"tuple"},{"components":[{"components":[{"internalType":"bytes","name":"val","type":"bytes"},{"internalType":"bool","name":"neg","type":"bool"},{"internalType":"uint256","name":"bitlen","type":"uint256"}],"internalType":"struct BigNumber","name":"value","type":"tuple"}],"internalType":"struct Zp","name":"y","type":"tuple"}],"name":"div","outputs":[{"components":[{"components":[{"internalType":"bytes","name":"val","type":"bytes"},{"internalType":"bool","name":"neg","type":"bool"},{"internalType":"uint256","name":"bitlen","type":"uint256"}],"internalType":"struct BigNumber","name":"value","type":"tuple"}],"internalType":"struct Zp","name":"","type":"tuple"}],"stateMutability":"view","type":"function"},{"inputs":[{"components":[{"components":[{"internalType":"bytes","name":"val","type":"bytes"},{"internalType":"bool","name":"neg","type":"bool"},{"internalType":"uint256","name":"bitlen","type":"uint256"}],"internalType":"struct BigNumber","name":"value","type":"tuple"}],"internalType":"struct Zp","name":"x","type":"tuple"},{"components":[{"components":[{"internalType":"bytes","name":"val","type":"bytes"},{"internalType":"bool","name":"neg","type":"bool"},{"internalType":"uint256","name":"bitlen","type":"uint256"}],"internalType":"struct BigNumber","name":"value","type":"tuple"}],"internalType":"struct Zp","name":"y","type":"tuple"}],"name":"equals","outputs":[{"internalType":"bool","name":"","type":"bool"}],"stateMutability":"pure","type":"function"},{"inputs":[{"components":[{"components":[{"internalType":"bytes","name":"val","type":"bytes"},{"internalType":"bool","name":"neg","type":"bool"},{"internalType":"uint256","name":"bitlen","type":"uint256"}],"internalType":"struct BigNumber","name":"value","type":"tuple"}],"internalType":"struct Zp","name":"x","type":"tuple"}],"name":"inverse","outputs":[{"components":[{"components":[{"internalType":"bytes","name":"val","type":"bytes"},{"internalType":"bool","name":"neg","type":"bool"},{"internalType":"uint256","name":"bitlen","type":"uint256"}],"internalType":"struct BigNumber","name":"value","type":"tuple"}],"internalType":"struct Zp","name":"","type":"tuple"}],"stateMutability":"view","type":"function"},{"inputs":[{"components":[{"components":[{"internalType":"bytes","name":"val","type":"bytes"},{"internalType":"bool","name":"neg","type":"bool"},{"internalType":"uint256","name":"bitlen","type":"uint256"}],"internalType":"struct BigNumber","name":"value","type":"tuple"}],"internalType":"struct Zp","name":"x","type":"tuple"},{"components":[{"components":[{"internalType":"bytes","name":"val","type":"bytes"},{"internalType":"bool","name":"neg","type":"bool"},{"internalType":"uint256","name":"bitlen","type":"uint256"}],"internalType":"struct BigNumber","name":"value","type":"tuple"}],"internalType":"struct Zp","name":"y","type":"tuple"}],"name":"mul","outputs":[{"components":[{"components":[{"internalType":"bytes","name":"val","type":"bytes"},{"internalType":"bool","name":"neg","type":"bool"},{"internalType":"uint256","name":"bitlen","type":"uint256"}],"internalType":"struct BigNumber","name":"value","type":"tuple"}],"internalType":"struct Zp","name":"","type":"tuple"}],"stateMutability":"view","type":"function"},{"inputs":[{"components":[{"components":[{"internalType":"bytes","name":"val","type":"bytes"},{"internalType":"bool","name":"neg","type":"bool"},{"internalType":"uint256","name":"bitlen","type":"uint256"}],"internalType":"struct BigNumber","name":"value","type":"tuple"}],"internalType":"struct Zp","name":"x","type":"tuple"}],"name":"mul_nonres","outputs":[{"components":[{"components":[{"internalType":"bytes","name":"val","type":"bytes"},{"internalType":"bool","name":"neg","type":"bool"},{"internalType":"uint256","name":"bitlen","type":"uint256"}],"internalType":"struct BigNumber","name":"value","type":"tuple"}],"internalType":"struct Zp","name":"","type":"tuple"}],"stateMutability":"pure","type":"function"},{"inputs":[],"name":"p","outputs":[{"internalType":"bytes","name":"val","type":"bytes"},{"internalType":"bool","name":"neg","type":"bool"},{"internalType":"uint256","name":"bitlen","type":"uint256"}],"stateMutability":"view","type":"function"},{"inputs":[{"components":[{"components":[{"internalType":"bytes","name":"val","type":"bytes"},{"internalType":"bool","name":"neg","type":"bool"},{"internalType":"uint256","name":"bitlen","type":"uint256"}],"internalType":"struct BigNumber","name":"value","type":"tuple"}],"internalType":"struct Zp","name":"x","type":"tuple"},{"components":[{"components":[{"internalType":"bytes","name":"val","type":"bytes"},{"internalType":"bool","name":"neg","type":"bool"},{"internalType":"uint256","name":"bitlen","type":"uint256"}],"internalType":"struct BigNumber","name":"value","type":"tuple"}],"internalType":"struct Zp","name":"y","type":"tuple"}],"name":"sub","outputs":[{"components":[{"components":[{"internalType":"bytes","name":"val","type":"bytes"},{"internalType":"bool","name":"neg","type":"bool"},{"internalType":"uint256","name":"bitlen","type":"uint256"}],"internalType":"struct BigNumber","name":"value","type":"tuple"}],"internalType":"struct Zp","name":"","type":"tuple"}],"stateMutability":"view","type":"function"},{"inputs":[{"components":[{"components":[{"internalType":"bytes","name":"val","type":"bytes"},{"internalType":"bool","name":"neg","type":"bool"},{"internalType":"uint256","name":"bitlen","type":"uint256"}],"internalType":"struct BigNumber","name":"value","type":"tuple"}],"internalType":"struct Zp","name":"x","type":"tuple"},{"components":[{"components":[{"internalType":"bytes","name":"val","type":"bytes"},{"internalType":"bool","name":"neg","type":"bool"},{"internalType":"uint256","name":"bitlen","type":"uint256"}],"internalType":"struct BigNumber","name":"value","type":"tuple"}],"internalType":"struct Zp","name":"y","type":"tuple"}],"name":"sum","outputs":[{"components":[{"components":[{"internalType":"bytes","name":"val","type":"bytes"},{"internalType":"bool","name":"neg","type":"bool"},{"internalType":"uint256","name":"bitlen","type":"uint256"}],"internalType":"struct BigNumber","name":"value","type":"tuple"}],"internalType":"struct Zp","name":"","type":"tuple"}],"stateMutability":"view","type":"function"},{"inputs":[],"name":"zero","outputs":[{"components":[{"components":[{"internalType":"bytes","name":"val","type":"bytes"},{"internalType":"bool","name":"neg","type":"bool"},{"internalType":"uint256","name":"bitlen","type":"uint256"}],"internalType":"struct BigNumber","name":"value","type":"tuple"}],"internalType":"struct Zp","name":"","type":"tuple"}],"stateMutability":"pure","type":"function"}],"evm":{"bytecode":{"linkReferences":{"contracts/BigNumber.sol":{"BigNumbers":[{"length":20,"start":52},{"length":20,"start":2586},{"length":20,"start":2865},{"length":20,"start":3125},{"length":20,"start":3421},{"length":20,"start":3641},{"length":20,"start":4014},{"length":20,"start":4225},{"length":20,"start":4256},{"length":20,"start":4534},{"length":20,"start":4565},{"length":20,"start":4593},{"length":20,"start":4982},{"length":20,"start":5242},{"length":20,"start":5454},{"length":20,"start":5480},{"length":20,"start":5794},{"length":20,"start":6054},{"length":20,"start":6266},{"length":20,"start":6442},{"length":20,"start":6617},{"length":20,"start":6877},{"length":20,"start":7088},{"length":20,"start":7295},{"length":20,"start":7555},{"length":20,"start":7767},{"length":20,"start":7793}]}},"object":"608060405234801561001057600080fd5b50604051612c98380380612c9883398181016040528101906100329190610271565b73__$7db5d2dbc3ae63372df6c39d501ad0f72a$__63f33d58568260006040518363ffffffff1660e01b815260040161006c92919061032a565b600060405180830381865af4158015610089573d6000803e3d6000fd5b505050506040513d6000823e3d601f19601f820116820180604052508101906100b29190610446565b6000808201518160000190816100c8919061069b565b5060208201518160010160006101000a81548160ff021916908315150217905550604082015181600201559050505061076d565b6000604051905090565b600080fd5b600080fd5b600080fd5b600080fd5b6000601f19601f8301169050919050565b7f4e487b7100000000000000000000000000000000000000000000000000000000600052604160045260246000fd5b6101638261011a565b810181811067ffffffffffffffff821117156101825761018161012b565b5b80604052505050565b60006101956100fc565b90506101a1828261015a565b919050565b600067ffffffffffffffff8211156101c1576101c061012b565b5b6101ca8261011a565b9050602081019050919050565b60005b838110156101f55780820151818401526020810190506101da565b60008484015250505050565b600061021461020f846101a6565b61018b565b9050828152602081018484840111156102305761022f610115565b5b61023b8482856101d7565b509392505050565b600082601f83011261025857610257610110565b5b8151610268848260208601610201565b91505092915050565b60006020828403121561028757610286610106565b5b600082015167ffffffffffffffff8111156102a5576102a461010b565b5b6102b184828501610243565b91505092915050565b600081519050919050565b600082825260208201905092915050565b60006102e1826102ba565b6102eb81856102c5565b93506102fb8185602086016101d7565b6103048161011a565b840191505092915050565b60008115159050919050565b6103248161030f565b82525050565b6000604082019050818103600083015261034481856102d6565b9050610353602083018461031b565b9392505050565b600080fd5b600080fd5b61036d8161030f565b811461037857600080fd5b50565b60008151905061038a81610364565b92915050565b6000819050919050565b6103a381610390565b81146103ae57600080fd5b50565b6000815190506103c08161039a565b92915050565b6000606082840312156103dc576103db61035a565b5b6103e6606061018b565b9050600082015167ffffffffffffffff8111156104065761040561035f565b5b61041284828501610243565b60008301525060206104268482850161037b565b602083015250604061043a848285016103b1565b60408301525092915050565b60006020828403121561045c5761045b610106565b5b600082015167ffffffffffffffff81111561047a5761047961010b565b5b610486848285016103c6565b91505092915050565b7f4e487b7100000000000000000000000000000000000000000000000000000000600052602260045260246000fd5b600060028204905060018216806104d657607f821691505b6020821081036104e9576104e861048f565b5b50919050565b60008190508160005260206000209050919050565b60006020601f8301049050919050565b600082821b905092915050565b6000600883026105517fffffffffffffffffffffffffffffffffffffffffffffffffffffffffffffffff82610514565b61055b8683610514565b95508019841693508086168417925050509392505050565b6000819050919050565b600061059861059361058e84610390565b610573565b610390565b9050919050565b6000819050919050565b6105b28361057d565b6105c66105be8261059f565b848454610521565b825550505050565b600090565b6105db6105ce565b6105e68184846105a9565b505050565b5b8181101561060a576105ff6000826105d3565b6001810190506105ec565b5050565b601f82111561064f57610620816104ef565b61062984610504565b81016020851015610638578190505b61064c61064485610504565b8301826105eb565b50505b505050565b600082821c905092915050565b600061067260001984600802610654565b1980831691505092915050565b600061068b8383610661565b9150826002028217905092915050565b6106a4826102ba565b67ffffffffffffffff8111156106bd576106bc61012b565b5b6106c782546104be565b6106d282828561060e565b600060209050601f83116001811461070557600084156106f3578287015190505b6106fd858261067f565b865550610765565b601f198416610713866104ef565b60005b8281101561073b57848901518255600182019150602085019450602081019050610716565b868310156107585784890151610754601f891682610661565b8355505b6001600288020188555050505b505050505050565b61251c8061077c6000396000f3fe608060405234801561001057600080fd5b506004361061009e5760003560e01c8063a9a52e7e11610066578063a9a52e7e14610183578063b5e28325146101b3578063bc1b392d146101e3578063d4d4555414610201578063fb2bedad146102315761009e565b8063085eb2b9146100a357806312f7411b146100d357806317014742146101035780639ae8886a14610133578063a672d10014610153575b600080fd5b6100bd60048036038101906100b89190611ad8565b610261565b6040516100ca9190611c38565b60405180910390f35b6100ed60048036038101906100e89190611c5a565b610378565b6040516100fa9190611c38565b60405180910390f35b61011d60048036038101906101189190611cd2565b6105a8565b60405161012a9190611c38565b60405180910390f35b61013b610748565b60405161014a93929190611d83565b60405180910390f35b61016d60048036038101906101689190611ad8565b6107f5565b60405161017a9190611c38565b60405180910390f35b61019d60048036038101906101989190611c5a565b610bbd565b6040516101aa9190611c38565b60405180910390f35b6101cd60048036038101906101c89190611c5a565b610ee9565b6040516101da9190611c38565b60405180910390f35b6101eb611199565b6040516101f89190611c38565b60405180910390f35b61021b60048036038101906102169190611c5a565b611226565b6040516102289190611dc1565b60405180910390f35b61024b60048036038101906102469190611c5a565b6114c6565b6040516102589190611c38565b60405180910390f35b6102696117f2565b816000015160001515816020015115151461028357600080fd5b6000808260000151905060208101519150600082036103225773__$7db5d2dbc3ae63372df6c39d501ad0f72a$__6308d78767846040518263ffffffff1660e01b81526004016102d39190611e94565b602060405180830381865af41580156102f0573d6000803e3d6000fd5b505050506040513d601f19601f820116820180604052508101906103149190611ecb565b61031d57600080fd5b61036d565b600060208460000151516103369190611f27565b14801561036357506001610100600185604001516103549190611f87565b61035e9190611f27565b83901c145b61036c57600080fd5b5b849350505050919050565b6103806117f2565b826000015160001515816020015115151461039a57600080fd5b6000808260000151905060208101519150600082036104395773__$7db5d2dbc3ae63372df6c39d501ad0f72a$__6308d78767846040518263ffffffff1660e01b81526004016103ea9190611e94565b602060405180830381865af4158015610407573d6000803e3d6000fd5b505050506040513d601f19601f8201168201806040525081019061042b9190611ecb565b61043457600080fd5b610484565b6000602084600001515161044d9190611f27565b14801561047a575060016101006001856040015161046b9190611f87565b6104759190611f27565b83901c145b61048357600080fd5b5b846000015160001515816020015115151461049e57600080fd5b60008082600001519050602081015191506000820361053d5773__$7db5d2dbc3ae63372df6c39d501ad0f72a$__6308d78767846040518263ffffffff1660e01b81526004016104ee9190611e94565b602060405180830381865af415801561050b573d6000803e3d6000fd5b505050506040513d601f19601f8201168201806040525081019061052f9190611ecb565b61053857600080fd5b610588565b600060208460000151516105519190611f27565b14801561057e575060016101006001856040015161056f9190611f87565b6105799190611f27565b83901c145b61058757600080fd5b5b61059a896105958a6107f5565b610ee9565b965050505050505092915050565b6105b06117f2565b816000151581602001511515146105c657600080fd5b6000808260000151905060208101519150600082036106655773__$7db5d2dbc3ae63372df6c39d501ad0f72a$__6308d78767846040518263ffffffff1660e01b81526004016106169190611e94565b602060405180830381865af4158015610633573d6000803e3d6000fd5b505050506040513d601f19601f820116820180604052508101906106579190611ecb565b61066057600080fd5b6106b0565b600060208460000151516106799190611f27565b1480156106a657506001610100600185604001516106979190611f87565b6106a19190611f27565b83901c145b6106af57600080fd5b5b604051806020016040528073__$7db5d2dbc3ae63372df6c39d501ad0f72a$__637afa85538860006040518363ffffffff1660e01b81526004016106f5929190612173565b600060405180830381865af4158015610712573d6000803e3d6000fd5b505050506040513d6000823e3d601f19601f8201168201806040525081019061073b91906122af565b8152509350505050919050565b600080600001805461075990611fea565b80601f016020809104026020016040519081016040528092919081815260200182805461078590611fea565b80156107d25780601f106107a7576101008083540402835291602001916107d2565b820191906000526020600020905b8154815290600101906020018083116107b557829003601f168201915b5050505050908060010160009054906101000a900460ff16908060020154905083565b6107fd6117f2565b816000015160001515816020015115151461081757600080fd5b6000808260000151905060208101519150600082036108b65773__$7db5d2dbc3ae63372df6c39d501ad0f72a$__6308d78767846040518263ffffffff1660e01b81526004016108679190611e94565b602060405180830381865af4158015610884573d6000803e3d6000fd5b505050506040513d601f19601f820116820180604052508101906108a89190611ecb565b6108b157600080fd5b610901565b600060208460000151516108ca9190611f27565b1480156108f757506001610100600185604001516108e89190611f87565b6108f29190611f27565b83901c145b61090057600080fd5b5b600073__$7db5d2dbc3ae63372df6c39d501ad0f72a$__63bc39804e876000015173__$7db5d2dbc3ae63372df6c39d501ad0f72a$__63bc1b392d6040518163ffffffff1660e01b8152600401600060405180830381865af415801561096b573d6000803e3d6000fd5b505050506040513d6000823e3d601f19601f8201168201806040525081019061099491906122af565b60006040518463ffffffff1660e01b81526004016109b493929190612307565b602060405180830381865af41580156109d1573d6000803e3d6000fd5b505050506040513d601f19601f820116820180604052508101906109f59190612382565b03610a35576040517f08c379a0000000000000000000000000000000000000000000000000000000008152600401610a2c9061240c565b60405180910390fd5b610bb373__$7db5d2dbc3ae63372df6c39d501ad0f72a$__630e7671f2876000015173__$7db5d2dbc3ae63372df6c39d501ad0f72a$__630a4638fd600073__$7db5d2dbc3ae63372df6c39d501ad0f72a$__635fdf05d76040518163ffffffff1660e01b8152600401600060405180830381865af4158015610abc573d6000803e3d6000fd5b505050506040513d6000823e3d601f19601f82011682018060405250810190610ae591906122af565b6040518363ffffffff1660e01b8152600401610b0292919061242c565b600060405180830381865af4158015610b1f573d6000803e3d6000fd5b505050506040513d6000823e3d601f19601f82011682018060405250810190610b4891906122af565b60006040518463ffffffff1660e01b8152600401610b6893929190612463565b600060405180830381865af4158015610b85573d6000803e3d6000fd5b505050506040513d6000823e3d601f19601f82011682018060405250810190610bae91906122af565b6105a8565b9350505050919050565b610bc56117f2565b8260000151600015158160200151151514610bdf57600080fd5b600080826000015190506020810151915060008203610c7e5773__$7db5d2dbc3ae63372df6c39d501ad0f72a$__6308d78767846040518263ffffffff1660e01b8152600401610c2f9190611e94565b602060405180830381865af4158015610c4c573d6000803e3d6000fd5b505050506040513d601f19601f82011682018060405250810190610c709190611ecb565b610c7957600080fd5b610cc9565b60006020846000015151610c929190611f27565b148015610cbf5750600161010060018560400151610cb09190611f87565b610cba9190611f27565b83901c145b610cc857600080fd5b5b8460000151600015158160200151151514610ce357600080fd5b600080826000015190506020810151915060008203610d825773__$7db5d2dbc3ae63372df6c39d501ad0f72a$__6308d78767846040518263ffffffff1660e01b8152600401610d339190611e94565b602060405180830381865af4158015610d50573d6000803e3d6000fd5b505050506040513d601f19601f82011682018060405250810190610d749190611ecb565b610d7d57600080fd5b610dcd565b60006020846000015151610d969190611f27565b148015610dc35750600161010060018560400151610db49190611f87565b610dbe9190611f27565b83901c145b610dcc57600080fd5b5b610edb73__$7db5d2dbc3ae63372df6c39d501ad0f72a$__637afa855373__$7db5d2dbc3ae63372df6c39d501ad0f72a$__6398cdcfb28d600001518d600001516040518363ffffffff1660e01b8152600401610e2b9291906124af565b600060405180830381865af4158015610e48573d6000803e3d6000fd5b505050506040513d6000823e3d601f19601f82011682018060405250810190610e7191906122af565b60006040518363ffffffff1660e01b8152600401610e90929190612173565b600060405180830381865af4158015610ead573d6000803e3d6000fd5b505050506040513d6000823e3d601f19601f82011682018060405250810190610ed691906122af565b6105a8565b965050505050505092915050565b610ef16117f2565b8260000151600015158160200151151514610f0b57600080fd5b600080826000015190506020810151915060008203610faa5773__$7db5d2dbc3ae63372df6c39d501ad0f72a$__6308d78767846040518263ffffffff1660e01b8152600401610f5b9190611e94565b602060405180830381865af4158015610f78573d6000803e3d6000fd5b505050506040513d601f19601f82011682018060405250810190610f9c9190611ecb565b610fa557600080fd5b610ff5565b60006020846000015151610fbe9190611f27565b148015610feb5750600161010060018560400151610fdc9190611f87565b610fe69190611f27565b83901c145b610ff457600080fd5b5b846000015160001515816020015115151461100f57600080fd5b6000808260000151905060208101519150600082036110ae5773__$7db5d2dbc3ae63372df6c39d501ad0f72a$__6308d78767846040518263ffffffff1660e01b815260040161105f9190611e94565b602060405180830381865af415801561107c573d6000803e3d6000fd5b505050506040513d601f19601f820116820180604052508101906110a09190611ecb565b6110a957600080fd5b6110f9565b600060208460000151516110c29190611f27565b1480156110ef57506001610100600185604001516110e09190611f87565b6110ea9190611f27565b83901c145b6110f857600080fd5b5b61118b73__$7db5d2dbc3ae63372df6c39d501ad0f72a$__63a5d4ca5b8b600001518b6000015160006040518463ffffffff1660e01b815260040161114093929190612463565b600060405180830381865af415801561115d573d6000803e3d6000fd5b505050506040513d6000823e3d601f19601f8201168201806040525081019061118691906122af565b6105a8565b965050505050505092915050565b6111a16117f2565b604051806020016040528073__$7db5d2dbc3ae63372df6c39d501ad0f72a$__63bc1b392d6040518163ffffffff1660e01b8152600401600060405180830381865af41580156111f5573d6000803e3d6000fd5b505050506040513d6000823e3d601f19601f8201168201806040525081019061121e91906122af565b815250905090565b6000826000015160001515816020015115151461124257600080fd5b6000808260000151905060208101519150600082036112e15773__$7db5d2dbc3ae63372df6c39d501ad0f72a$__6308d78767846040518263ffffffff1660e01b81526004016112929190611e94565b602060405180830381865af41580156112af573d6000803e3d6000fd5b505050506040513d601f19601f820116820180604052508101906112d39190611ecb565b6112dc57600080fd5b61132c565b600060208460000151516112f59190611f27565b14801561132257506001610100600185604001516113139190611f87565b61131d9190611f27565b83901c145b61132b57600080fd5b5b846000015160001515816020015115151461134657600080fd5b6000808260000151905060208101519150600082036113e55773__$7db5d2dbc3ae63372df6c39d501ad0f72a$__6308d78767846040518263ffffffff1660e01b81526004016113969190611e94565b602060405180830381865af41580156113b3573d6000803e3d6000fd5b505050506040513d601f19601f820116820180604052508101906113d79190611ecb565b6113e057600080fd5b611430565b600060208460000151516113f99190611f27565b14801561142657506001610100600185604001516114179190611f87565b6114219190611f27565b83901c145b61142f57600080fd5b5b600073__$7db5d2dbc3ae63372df6c39d501ad0f72a$__63bc39804e8b600001518b6000015160006040518463ffffffff1660e01b815260040161147693929190612307565b602060405180830381865af4158015611493573d6000803e3d6000fd5b505050506040513d601f19601f820116820180604052508101906114b79190612382565b14965050505050505092915050565b6114ce6117f2565b82600001516000151581602001511515146114e857600080fd5b6000808260000151905060208101519150600082036115875773__$7db5d2dbc3ae63372df6c39d501ad0f72a$__6308d78767846040518263ffffffff1660e01b81526004016115389190611e94565b602060405180830381865af4158015611555573d6000803e3d6000fd5b505050506040513d601f19601f820116820180604052508101906115799190611ecb565b61158257600080fd5b6115d2565b6000602084600001515161159b9190611f27565b1480156115c857506001610100600185604001516115b99190611f87565b6115c39190611f27565b83901c145b6115d157600080fd5b5b84600001516000151581602001511515146115ec57600080fd5b60008082600001519050602081015191506000820361168b5773__$7db5d2dbc3ae63372df6c39d501ad0f72a$__6308d78767846040518263ffffffff1660e01b815260040161163c9190611e94565b602060405180830381865af4158015611659573d6000803e3d6000fd5b505050506040513d601f19601f8201168201806040525081019061167d9190611ecb565b61168657600080fd5b6116d6565b6000602084600001515161169f9190611f27565b1480156116cc57506001610100600185604001516116bd9190611f87565b6116c79190611f27565b83901c145b6116d557600080fd5b5b6117e473__$7db5d2dbc3ae63372df6c39d501ad0f72a$__637afa855373__$7db5d2dbc3ae63372df6c39d501ad0f72a$__630a4638fd8d600001518d600001516040518363ffffffff1660e01b81526004016117349291906124af565b600060405180830381865af4158015611751573d6000803e3d6000fd5b505050506040513d6000823e3d601f19601f8201168201806040525081019061177a91906122af565b60006040518363ffffffff1660e01b8152600401611799929190612173565b600060405180830381865af41580156117b6573d6000803e3d6000fd5b505050506040513d6000823e3d601f19601f820116820180604052508101906117df91906122af565b6105a8565b965050505050505092915050565b604051806020016040528061180561180b565b81525090565b604051806060016040528060608152602001600015158152602001600081525090565b6000604051905090565b600080fd5b600080fd5b600080fd5b6000601f19601f8301169050919050565b7f4e487b7100000000000000000000000000000000000000000000000000000000600052604160045260246000fd5b61189082611847565b810181811067ffffffffffffffff821117156118af576118ae611858565b5b80604052505050565b60006118c261182e565b90506118ce8282611887565b919050565b600080fd5b600080fd5b600080fd5b600067ffffffffffffffff8211156118fd576118fc611858565b5b61190682611847565b9050602081019050919050565b82818337600083830152505050565b6000611935611930846118e2565b6118b8565b905082815260208101848484011115611951576119506118dd565b5b61195c848285611913565b509392505050565b600082601f830112611979576119786118d8565b5b8135611989848260208601611922565b91505092915050565b60008115159050919050565b6119a781611992565b81146119b257600080fd5b50565b6000813590506119c48161199e565b92915050565b6000819050919050565b6119dd816119ca565b81146119e857600080fd5b50565b6000813590506119fa816119d4565b92915050565b600060608284031215611a1657611a15611842565b5b611a2060606118b8565b9050600082013567ffffffffffffffff811115611a4057611a3f6118d3565b5b611a4c84828501611964565b6000830152506020611a60848285016119b5565b6020830152506040611a74848285016119eb565b60408301525092915050565b600060208284031215611a9657611a95611842565b5b611aa060206118b8565b9050600082013567ffffffffffffffff811115611ac057611abf6118d3565b5b611acc84828501611a00565b60008301525092915050565b600060208284031215611aee57611aed611838565b5b600082013567ffffffffffffffff811115611b0c57611b0b61183d565b5b611b1884828501611a80565b91505092915050565b600081519050919050565b600082825260208201905092915050565b60005b83811015611b5b578082015181840152602081019050611b40565b60008484015250505050565b6000611b7282611b21565b611b7c8185611b2c565b9350611b8c818560208601611b3d565b611b9581611847565b840191505092915050565b611ba981611992565b82525050565b611bb8816119ca565b82525050565b60006060830160008301518482036000860152611bdb8282611b67565b9150506020830151611bf06020860182611ba0565b506040830151611c036040860182611baf565b508091505092915050565b60006020830160008301518482036000860152611c2b8282611bbe565b9150508091505092915050565b60006020820190508181036000830152611c528184611c0e565b905092915050565b60008060408385031215611c7157611c70611838565b5b600083013567ffffffffffffffff811115611c8f57611c8e61183d565b5b611c9b85828601611a80565b925050602083013567ffffffffffffffff811115611cbc57611cbb61183d565b5b611cc885828601611a80565b9150509250929050565b600060208284031215611ce857611ce7611838565b5b600082013567ffffffffffffffff811115611d0657611d0561183d565b5b611d1284828501611a00565b91505092915050565b600082825260208201905092915050565b6000611d3782611b21565b611d418185611d1b565b9350611d51818560208601611b3d565b611d5a81611847565b840191505092915050565b611d6e81611992565b82525050565b611d7d816119ca565b82525050565b60006060820190508181036000830152611d9d8186611d2c565b9050611dac6020830185611d65565b611db96040830184611d74565b949350505050565b6000602082019050611dd66000830184611d65565b92915050565b600082825260208201905092915050565b6000611df882611b21565b611e028185611ddc565b9350611e12818560208601611b3d565b611e1b81611847565b840191505092915050565b611e2f81611992565b82525050565b611e3e816119ca565b82525050565b60006060830160008301518482036000860152611e618282611ded565b9150506020830151611e766020860182611e26565b506040830151611e896040860182611e35565b508091505092915050565b60006020820190508181036000830152611eae8184611e44565b905092915050565b600081519050611ec58161199e565b92915050565b600060208284031215611ee157611ee0611838565b5b6000611eef84828501611eb6565b91505092915050565b7f4e487b7100000000000000000000000000000000000000000000000000000000600052601260045260246000fd5b6000611f32826119ca565b9150611f3d836119ca565b925082611f4d57611f4c611ef8565b5b828206905092915050565b7f4e487b7100000000000000000000000000000000000000000000000000000000600052601160045260246000fd5b6000611f92826119ca565b9150611f9d836119ca565b9250828203905081811115611fb557611fb4611f58565b5b92915050565b7f4e487b7100000000000000000000000000000000000000000000000000000000600052602260045260246000fd5b6000600282049050600182168061200257607f821691505b60208210810361201557612014611fbb565b5b50919050565b60008190508160005260206000209050919050565b6000815461203d81611fea565b6120478186611ddc565b945060018216600081146120625760018114612078576120ab565b60ff1983168652811515602002860193506120ab565b6120818561201b565b60005b838110156120a357815481890152600182019150602081019050612084565b808801955050505b50505092915050565b60008160001c9050919050565b600060ff82169050919050565b60006120e16120dc836120b4565b6120c1565b9050919050565b6000819050919050565b6000612105612100836120b4565b6120e8565b9050919050565b600060608301600080840185830360008701526121298382612030565b9250506001840154905061213c816120ce565b6121496020870182611e26565b506002840154905061215a816120f2565b6121676040870182611e35565b50819250505092915050565b6000604082019050818103600083015261218d8185611e44565b905081810360208301526121a1818461210c565b90509392505050565b60006121bd6121b8846118e2565b6118b8565b9050828152602081018484840111156121d9576121d86118dd565b5b6121e4848285611b3d565b509392505050565b600082601f830112612201576122006118d8565b5b81516122118482602086016121aa565b91505092915050565b600081519050612229816119d4565b92915050565b60006060828403121561224557612244611842565b5b61224f60606118b8565b9050600082015167ffffffffffffffff81111561226f5761226e6118d3565b5b61227b848285016121ec565b600083015250602061228f84828501611eb6565b60208301525060406122a38482850161221a565b60408301525092915050565b6000602082840312156122c5576122c4611838565b5b600082015167ffffffffffffffff8111156122e3576122e261183d565b5b6122ef8482850161222f565b91505092915050565b61230181611992565b82525050565b600060608201905081810360008301526123218186611e44565b905081810360208301526123358185611e44565b905061234460408301846122f8565b949350505050565b6000819050919050565b61235f8161234c565b811461236a57600080fd5b50565b60008151905061237c81612356565b92915050565b60006020828403121561239857612397611838565b5b60006123a68482850161236d565b91505092915050565b600082825260208201905092915050565b7f496e766572736f20706572207a65726f206e6f6e20646566696e69746f2e0000600082015250565b60006123f6601e836123af565b9150612401826123c0565b602082019050919050565b60006020820190508181036000830152612425816123e9565b9050919050565b60006040820190508181036000830152612446818561210c565b9050818103602083015261245a8184611e44565b90509392505050565b6000606082019050818103600083015261247d8186611e44565b905081810360208301526124918185611e44565b905081810360408301526124a5818461210c565b9050949350505050565b600060408201905081810360008301526124c98185611e44565b905081810360208301526124dd8184611e44565b9050939250505056fea2646970667358221220f38c826d7b35171a4ad4b810eded1ace3ff00601d2196e1cc1dfe9910b9b07b164736f6c634300081b0033","opcodes":"PUSH1 0x80 PUSH1 0x40 MSTORE CALLVALUE DUP1 ISZERO PUSH2 0x10 JUMPI PUSH1 0x0 DUP1 REVERT JUMPDEST POP PUSH1 0x40 MLOAD PUSH2 0x2C98 CODESIZE SUB DUP1 PUSH2 0x2C98 DUP4 CODECOPY DUP2 DUP2 ADD PUSH1 0x40 MSTORE DUP2 ADD SWAP1 PUSH2 0x32 SWAP2 SWAP1 PUSH2 0x271 JUMP JUMPDEST PUSH20 0x0 PUSH4 0xF33D5856 DUP3 PUSH1 0x0 PUSH1 0x40 MLOAD DUP4 PUSH4 0xFFFFFFFF AND PUSH1 0xE0 SHL DUP2 MSTORE PUSH1 0x4 ADD PUSH2 0x6C SWAP3 SWAP2 SWAP1 PUSH2 0x32A JUMP JUMPDEST PUSH1 0x0 PUSH1 0x40 MLOAD DUP1 DUP4 SUB DUP2 DUP7 GAS DELEGATECALL ISZERO DUP1 ISZERO PUSH2 0x89 JUMPI RETURNDATASIZE PUSH1 0x0 DUP1 RETURNDATACOPY RETURNDATASIZE PUSH1 0x0 REVERT JUMPDEST POP POP POP POP PUSH1 0x40 MLOAD RETURNDATASIZE PUSH1 0x0 DUP3 RETURNDATACOPY RETURNDATASIZE PUSH1 0x1F NOT PUSH1 0x1F DUP3 ADD AND DUP3 ADD DUP1 PUSH1 0x40 MSTORE POP DUP2 ADD SWAP1 PUSH2 0xB2 SWAP2 SWAP1 PUSH2 0x446 JUMP JUMPDEST PUSH1 0x0 DUP1 DUP3 ADD MLOAD DUP2 PUSH1 0x0 ADD SWAP1 DUP2 PUSH2 0xC8 SWAP2 SWAP1 PUSH2 0x69B JUMP JUMPDEST POP PUSH1 0x20 DUP3 ADD MLOAD DUP2 PUSH1 0x1 ADD PUSH1 0x0 PUSH2 0x100 EXP DUP2 SLOAD DUP2 PUSH1 0xFF MUL NOT AND SWAP1 DUP4 ISZERO ISZERO MUL OR SWAP1 SSTORE POP PUSH1 0x40 DUP3 ADD MLOAD DUP2 PUSH1 0x2 ADD SSTORE SWAP1 POP POP POP PUSH2 0x76D JUMP JUMPDEST PUSH1 0x0 PUSH1 0x40 MLOAD SWAP1 POP SWAP1 JUMP JUMPDEST PUSH1 0x0 DUP1 REVERT JUMPDEST PUSH1 0x0 DUP1 REVERT JUMPDEST PUSH1 0x0 DUP1 REVERT JUMPDEST PUSH1 0x0 DUP1 REVERT JUMPDEST PUSH1 0x0 PUSH1 0x1F NOT PUSH1 0x1F DUP4 ADD AND SWAP1 POP SWAP2 SWAP1 POP JUMP JUMPDEST PUSH32 0x4E487B7100000000000000000000000000000000000000000000000000000000 PUSH1 0x0 MSTORE PUSH1 0x41 PUSH1 0x4 MSTORE PUSH1 0x24 PUSH1 0x0 REVERT JUMPDEST PUSH2 0x163 DUP3 PUSH2 0x11A JUMP JUMPDEST DUP2 ADD DUP2 DUP2 LT PUSH8 0xFFFFFFFFFFFFFFFF DUP3 GT OR ISZERO PUSH2 0x182 JUMPI PUSH2 0x181 PUSH2 0x12B JUMP JUMPDEST JUMPDEST DUP1 PUSH1 0x40 MSTORE POP POP POP JUMP JUMPDEST PUSH1 0x0 PUSH2 0x195 PUSH2 0xFC JUMP JUMPDEST SWAP1 POP PUSH2 0x1A1 DUP3 DUP3 PUSH2 0x15A JUMP JUMPDEST SWAP2 SWAP1 POP JUMP JUMPDEST PUSH1 0x0 PUSH8 0xFFFFFFFFFFFFFFFF DUP3 GT ISZERO PUSH2 0x1C1 JUMPI PUSH2 0x1C0 PUSH2 0x12B JUMP JUMPDEST JUMPDEST PUSH2 0x1CA DUP3 PUSH2 0x11A JUMP JUMPDEST SWAP1 POP PUSH1 0x20 DUP2 ADD SWAP1 POP SWAP2 SWAP1 POP JUMP JUMPDEST PUSH1 0x0 JUMPDEST DUP4 DUP2 LT ISZERO PUSH2 0x1F5 JUMPI DUP1 DUP3 ADD MLOAD DUP2 DUP5 ADD MSTORE PUSH1 0x20 DUP2 ADD SWAP1 POP PUSH2 0x1DA JUMP JUMPDEST PUSH1 0x0 DUP5 DUP5 ADD MSTORE POP POP POP POP JUMP JUMPDEST PUSH1 0x0 PUSH2 0x214 PUSH2 0x20F DUP5 PUSH2 0x1A6 JUMP JUMPDEST PUSH2 0x18B JUMP JUMPDEST SWAP1 POP DUP3 DUP2 MSTORE PUSH1 0x20 DUP2 ADD DUP5 DUP5 DUP5 ADD GT ISZERO PUSH2 0x230 JUMPI PUSH2 0x22F PUSH2 0x115 JUMP JUMPDEST JUMPDEST PUSH2 0x23B DUP5 DUP3 DUP6 PUSH2 0x1D7 JUMP JUMPDEST POP SWAP4 SWAP3 POP POP POP JUMP JUMPDEST PUSH1 0x0 DUP3 PUSH1 0x1F DUP4 ADD SLT PUSH2 0x258 JUMPI PUSH2 0x257 PUSH2 0x110 JUMP JUMPDEST JUMPDEST DUP2 MLOAD PUSH2 0x268 DUP5 DUP3 PUSH1 0x20 DUP7 ADD PUSH2 0x201 JUMP JUMPDEST SWAP2 POP POP SWAP3 SWAP2 POP POP JUMP JUMPDEST PUSH1 0x0 PUSH1 0x20 DUP3 DUP5 SUB SLT ISZERO PUSH2 0x287 JUMPI PUSH2 0x286 PUSH2 0x106 JUMP JUMPDEST JUMPDEST PUSH1 0x0 DUP3 ADD MLOAD PUSH8 0xFFFFFFFFFFFFFFFF DUP2 GT ISZERO PUSH2 0x2A5 JUMPI PUSH2 0x2A4 PUSH2 0x10B JUMP JUMPDEST JUMPDEST PUSH2 0x2B1 DUP5 DUP3 DUP6 ADD PUSH2 0x243 JUMP JUMPDEST SWAP2 POP POP SWAP3 SWAP2 POP POP JUMP JUMPDEST PUSH1 0x0 DUP2 MLOAD SWAP1 POP SWAP2 SWAP1 POP JUMP JUMPDEST PUSH1 0x0 DUP3 DUP3 MSTORE PUSH1 0x20 DUP3 ADD SWAP1 POP SWAP3 SWAP2 POP POP JUMP JUMPDEST PUSH1 0x0 PUSH2 0x2E1 DUP3 PUSH2 0x2BA JUMP JUMPDEST PUSH2 0x2EB DUP2 DUP6 PUSH2 0x2C5 JUMP JUMPDEST SWAP4 POP PUSH2 0x2FB DUP2 DUP6 PUSH1 0x20 DUP7 ADD PUSH2 0x1D7 JUMP JUMPDEST PUSH2 0x304 DUP2 PUSH2 0x11A JUMP JUMPDEST DUP5 ADD SWAP2 POP POP SWAP3 SWAP2 POP POP JUMP JUMPDEST PUSH1 0x0 DUP2 ISZERO ISZERO SWAP1 POP SWAP2 SWAP1 POP JUMP JUMPDEST PUSH2 0x324 DUP2 PUSH2 0x30F JUMP JUMPDEST DUP3 MSTORE POP POP JUMP JUMPDEST PUSH1 0x0 PUSH1 0x40 DUP3 ADD SWAP1 POP DUP2 DUP2 SUB PUSH1 0x0 DUP4 ADD MSTORE PUSH2 0x344 DUP2 DUP6 PUSH2 0x2D6 JUMP JUMPDEST SWAP1 POP PUSH2 0x353 PUSH1 0x20 DUP4 ADD DUP5 PUSH2 0x31B JUMP JUMPDEST SWAP4 SWAP3 POP POP POP JUMP JUMPDEST PUSH1 0x0 DUP1 REVERT JUMPDEST PUSH1 0x0 DUP1 REVERT JUMPDEST PUSH2 0x36D DUP2 PUSH2 0x30F JUMP JUMPDEST DUP2 EQ PUSH2 0x378 JUMPI PUSH1 0x0 DUP1 REVERT JUMPDEST POP JUMP JUMPDEST PUSH1 0x0 DUP2 MLOAD SWAP1 POP PUSH2 0x38A DUP2 PUSH2 0x364 JUMP JUMPDEST SWAP3 SWAP2 POP POP JUMP JUMPDEST PUSH1 0x0 DUP2 SWAP1 POP SWAP2 SWAP1 POP JUMP JUMPDEST PUSH2 0x3A3 DUP2 PUSH2 0x390 JUMP JUMPDEST DUP2 EQ PUSH2 0x3AE JUMPI PUSH1 0x0 DUP1 REVERT JUMPDEST POP JUMP JUMPDEST PUSH1 0x0 DUP2 MLOAD SWAP1 POP PUSH2 0x3C0 DUP2 PUSH2 0x39A JUMP JUMPDEST SWAP3 SWAP2 POP POP JUMP JUMPDEST PUSH1 0x0 PUSH1 0x60 DUP3 DUP5 SUB SLT ISZERO PUSH2 0x3DC JUMPI PUSH2 0x3DB PUSH2 0x35A JUMP JUMPDEST JUMPDEST PUSH2 0x3E6 PUSH1 0x60 PUSH2 0x18B JUMP JUMPDEST SWAP1 POP PUSH1 0x0 DUP3 ADD MLOAD PUSH8 0xFFFFFFFFFFFFFFFF DUP2 GT ISZERO PUSH2 0x406 JUMPI PUSH2 0x405 PUSH2 0x35F JUMP JUMPDEST JUMPDEST PUSH2 0x412 DUP5 DUP3 DUP6 ADD PUSH2 0x243 JUMP JUMPDEST PUSH1 0x0 DUP4 ADD MSTORE POP PUSH1 0x20 PUSH2 0x426 DUP5 DUP3 DUP6 ADD PUSH2 0x37B JUMP JUMPDEST PUSH1 0x20 DUP4 ADD MSTORE POP PUSH1 0x40 PUSH2 0x43A DUP5 DUP3 DUP6 ADD PUSH2 0x3B1 JUMP JUMPDEST PUSH1 0x40 DUP4 ADD MSTORE POP SWAP3 SWAP2 POP POP JUMP JUMPDEST PUSH1 0x0 PUSH1 0x20 DUP3 DUP5 SUB SLT ISZERO PUSH2 0x45C JUMPI PUSH2 0x45B PUSH2 0x106 JUMP JUMPDEST JUMPDEST PUSH1 0x0 DUP3 ADD MLOAD PUSH8 0xFFFFFFFFFFFFFFFF DUP2 GT ISZERO PUSH2 0x47A JUMPI PUSH2 0x479 PUSH2 0x10B JUMP JUMPDEST JUMPDEST PUSH2 0x486 DUP5 DUP3 DUP6 ADD PUSH2 0x3C6 JUMP JUMPDEST SWAP2 POP POP SWAP3 SWAP2 POP POP JUMP JUMPDEST PUSH32 0x4E487B7100000000000000000000000000000000000000000000000000000000 PUSH1 0x0 MSTORE PUSH1 0x22 PUSH1 0x4 MSTORE PUSH1 0x24 PUSH1 0x0 REVERT JUMPDEST PUSH1 0x0 PUSH1 0x2 DUP3 DIV SWAP1 POP PUSH1 0x1 DUP3 AND DUP1 PUSH2 0x4D6 JUMPI PUSH1 0x7F DUP3 AND SWAP2 POP JUMPDEST PUSH1 0x20 DUP3 LT DUP2 SUB PUSH2 0x4E9 JUMPI PUSH2 0x4E8 PUSH2 0x48F JUMP JUMPDEST JUMPDEST POP SWAP2 SWAP1 POP JUMP JUMPDEST PUSH1 0x0 DUP2 SWAP1 POP DUP2 PUSH1 0x0 MSTORE PUSH1 0x20 PUSH1 0x0 KECCAK256 SWAP1 POP SWAP2 SWAP1 POP JUMP JUMPDEST PUSH1 0x0 PUSH1 0x20 PUSH1 0x1F DUP4 ADD DIV SWAP1 POP SWAP2 SWAP1 POP JUMP JUMPDEST PUSH1 0x0 DUP3 DUP3 SHL SWAP1 POP SWAP3 SWAP2 POP POP JUMP JUMPDEST PUSH1 0x0 PUSH1 0x8 DUP4 MUL PUSH2 0x551 PUSH32 0xFFFFFFFFFFFFFFFFFFFFFFFFFFFFFFFFFFFFFFFFFFFFFFFFFFFFFFFFFFFFFFFF DUP3 PUSH2 0x514 JUMP JUMPDEST PUSH2 0x55B DUP7 DUP4 PUSH2 0x514 JUMP JUMPDEST SWAP6 POP DUP1 NOT DUP5 AND SWAP4 POP DUP1 DUP7 AND DUP5 OR SWAP3 POP POP POP SWAP4 SWAP3 POP POP POP JUMP JUMPDEST PUSH1 0x0 DUP2 SWAP1 POP SWAP2 SWAP1 POP JUMP JUMPDEST PUSH1 0x0 PUSH2 0x598 PUSH2 0x593 PUSH2 0x58E DUP5 PUSH2 0x390 JUMP JUMPDEST PUSH2 0x573 JUMP JUMPDEST PUSH2 0x390 JUMP JUMPDEST SWAP1 POP SWAP2 SWAP1 POP JUMP JUMPDEST PUSH1 0x0 DUP2 SWAP1 POP SWAP2 SWAP1 POP JUMP JUMPDEST PUSH2 0x5B2 DUP4 PUSH2 0x57D JUMP JUMPDEST PUSH2 0x5C6 PUSH2 0x5BE DUP3 PUSH2 0x59F JUMP JUMPDEST DUP5 DUP5 SLOAD PUSH2 0x521 JUMP JUMPDEST DUP3 SSTORE POP POP POP POP JUMP JUMPDEST PUSH1 0x0 SWAP1 JUMP JUMPDEST PUSH2 0x5DB PUSH2 0x5CE JUMP JUMPDEST PUSH2 0x5E6 DUP2 DUP5 DUP5 PUSH2 0x5A9 JUMP JUMPDEST POP POP POP JUMP JUMPDEST JUMPDEST DUP2 DUP2 LT ISZERO PUSH2 0x60A JUMPI PUSH2 0x5FF PUSH1 0x0 DUP3 PUSH2 0x5D3 JUMP JUMPDEST PUSH1 0x1 DUP2 ADD SWAP1 POP PUSH2 0x5EC JUMP JUMPDEST POP POP JUMP JUMPDEST PUSH1 0x1F DUP3 GT ISZERO PUSH2 0x64F JUMPI PUSH2 0x620 DUP2 PUSH2 0x4EF JUMP JUMPDEST PUSH2 0x629 DUP5 PUSH2 0x504 JUMP JUMPDEST DUP2 ADD PUSH1 0x20 DUP6 LT ISZERO PUSH2 0x638 JUMPI DUP2 SWAP1 POP JUMPDEST PUSH2 0x64C PUSH2 0x644 DUP6 PUSH2 0x504 JUMP JUMPDEST DUP4 ADD DUP3 PUSH2 0x5EB JUMP JUMPDEST POP POP JUMPDEST POP POP POP JUMP JUMPDEST PUSH1 0x0 DUP3 DUP3 SHR SWAP1 POP SWAP3 SWAP2 POP POP JUMP JUMPDEST PUSH1 0x0 PUSH2 0x672 PUSH1 0x0 NOT DUP5 PUSH1 0x8 MUL PUSH2 0x654 JUMP JUMPDEST NOT DUP1 DUP4 AND SWAP2 POP POP SWAP3 SWAP2 POP POP JUMP JUMPDEST PUSH1 0x0 PUSH2 0x68B DUP4 DUP4 PUSH2 0x661 JUMP JUMPDEST SWAP2 POP DUP3 PUSH1 0x2 MUL DUP3 OR SWAP1 POP SWAP3 SWAP2 POP POP JUMP JUMPDEST PUSH2 0x6A4 DUP3 PUSH2 0x2BA JUMP JUMPDEST PUSH8 0xFFFFFFFFFFFFFFFF DUP2 GT ISZERO PUSH2 0x6BD JUMPI PUSH2 0x6BC PUSH2 0x12B JUMP JUMPDEST JUMPDEST PUSH2 0x6C7 DUP3 SLOAD PUSH2 0x4BE JUMP JUMPDEST PUSH2 0x6D2 DUP3 DUP3 DUP6 PUSH2 0x60E JUMP JUMPDEST PUSH1 0x0 PUSH1 0x20 SWAP1 POP PUSH1 0x1F DUP4 GT PUSH1 0x1 DUP2 EQ PUSH2 0x705 JUMPI PUSH1 0x0 DUP5 ISZERO PUSH2 0x6F3 JUMPI DUP3 DUP8 ADD MLOAD SWAP1 POP JUMPDEST PUSH2 0x6FD DUP6 DUP3 PUSH2 0x67F JUMP JUMPDEST DUP7 SSTORE POP PUSH2 0x765 JUMP JUMPDEST PUSH1 0x1F NOT DUP5 AND PUSH2 0x713 DUP7 PUSH2 0x4EF JUMP JUMPDEST PUSH1 0x0 JUMPDEST DUP3 DUP2 LT ISZERO PUSH2 0x73B JUMPI DUP5 DUP10 ADD MLOAD DUP3 SSTORE PUSH1 0x1 DUP3 ADD SWAP2 POP PUSH1 0x20 DUP6 ADD SWAP5 POP PUSH1 0x20 DUP2 ADD SWAP1 POP PUSH2 0x716 JUMP JUMPDEST DUP7 DUP4 LT ISZERO PUSH2 0x758 JUMPI DUP5 DUP10 ADD MLOAD PUSH2 0x754 PUSH1 0x1F DUP10 AND DUP3 PUSH2 0x661 JUMP JUMPDEST DUP4 SSTORE POP JUMPDEST PUSH1 0x1 PUSH1 0x2 DUP9 MUL ADD DUP9 SSTORE POP POP POP JUMPDEST POP POP POP POP POP POP JUMP JUMPDEST PUSH2 0x251C DUP1 PUSH2 0x77C PUSH1 0x0 CODECOPY PUSH1 0x0 RETURN INVALID PUSH1 0x80 PUSH1 0x40 MSTORE CALLVALUE DUP1 ISZERO PUSH2 0x10 JUMPI PUSH1 0x0 DUP1 REVERT JUMPDEST POP PUSH1 0x4 CALLDATASIZE LT PUSH2 0x9E JUMPI PUSH1 0x0 CALLDATALOAD PUSH1 0xE0 SHR DUP1 PUSH4 0xA9A52E7E GT PUSH2 0x66 JUMPI DUP1 PUSH4 0xA9A52E7E EQ PUSH2 0x183 JUMPI DUP1 PUSH4 0xB5E28325 EQ PUSH2 0x1B3 JUMPI DUP1 PUSH4 0xBC1B392D EQ PUSH2 0x1E3 JUMPI DUP1 PUSH4 0xD4D45554 EQ PUSH2 0x201 JUMPI DUP1 PUSH4 0xFB2BEDAD EQ PUSH2 0x231 JUMPI PUSH2 0x9E JUMP JUMPDEST DUP1 PUSH4 0x85EB2B9 EQ PUSH2 0xA3 JUMPI DUP1 PUSH4 0x12F7411B EQ PUSH2 0xD3 JUMPI DUP1 PUSH4 0x17014742 EQ PUSH2 0x103 JUMPI DUP1 PUSH4 0x9AE8886A EQ PUSH2 0x133 JUMPI DUP1 PUSH4 0xA672D100 EQ PUSH2 0x153 JUMPI JUMPDEST PUSH1 0x0 DUP1 REVERT JUMPDEST PUSH2 0xBD PUSH1 0x4 DUP1 CALLDATASIZE SUB DUP2 ADD SWAP1 PUSH2 0xB8 SWAP2 SWAP1 PUSH2 0x1AD8 JUMP JUMPDEST PUSH2 0x261 JUMP JUMPDEST PUSH1 0x40 MLOAD PUSH2 0xCA SWAP2 SWAP1 PUSH2 0x1C38 JUMP JUMPDEST PUSH1 0x40 MLOAD DUP1 SWAP2 SUB SWAP1 RETURN JUMPDEST PUSH2 0xED PUSH1 0x4 DUP1 CALLDATASIZE SUB DUP2 ADD SWAP1 PUSH2 0xE8 SWAP2 SWAP1 PUSH2 0x1C5A JUMP JUMPDEST PUSH2 0x378 JUMP JUMPDEST PUSH1 0x40 MLOAD PUSH2 0xFA SWAP2 SWAP1 PUSH2 0x1C38 JUMP JUMPDEST PUSH1 0x40 MLOAD DUP1 SWAP2 SUB SWAP1 RETURN JUMPDEST PUSH2 0x11D PUSH1 0x4 DUP1 CALLDATASIZE SUB DUP2 ADD SWAP1 PUSH2 0x118 SWAP2 SWAP1 PUSH2 0x1CD2 JUMP JUMPDEST PUSH2 0x5A8 JUMP JUMPDEST PUSH1 0x40 MLOAD PUSH2 0x12A SWAP2 SWAP1 PUSH2 0x1C38 JUMP JUMPDEST PUSH1 0x40 MLOAD DUP1 SWAP2 SUB SWAP1 RETURN JUMPDEST PUSH2 0x13B PUSH2 0x748 JUMP JUMPDEST PUSH1 0x40 MLOAD PUSH2 0x14A SWAP4 SWAP3 SWAP2 SWAP1 PUSH2 0x1D83 JUMP JUMPDEST PUSH1 0x40 MLOAD DUP1 SWAP2 SUB SWAP1 RETURN JUMPDEST PUSH2 0x16D PUSH1 0x4 DUP1 CALLDATASIZE SUB DUP2 ADD SWAP1 PUSH2 0x168 SWAP2 SWAP1 PUSH2 0x1AD8 JUMP JUMPDEST PUSH2 0x7F5 JUMP JUMPDEST PUSH1 0x40 MLOAD PUSH2 0x17A SWAP2 SWAP1 PUSH2 0x1C38 JUMP JUMPDEST PUSH1 0x40 MLOAD DUP1 SWAP2 SUB SWAP1 RETURN JUMPDEST PUSH2 0x19D PUSH1 0x4 DUP1 CALLDATASIZE SUB DUP2 ADD SWAP1 PUSH2 0x198 SWAP2 SWAP1 PUSH2 0x1C5A JUMP JUMPDEST PUSH2 0xBBD JUMP JUMPDEST PUSH1 0x40 MLOAD PUSH2 0x1AA SWAP2 SWAP1 PUSH2 0x1C38 JUMP JUMPDEST PUSH1 0x40 MLOAD DUP1 SWAP2 SUB SWAP1 RETURN JUMPDEST PUSH2 0x1CD PUSH1 0x4 DUP1 CALLDATASIZE SUB DUP2 ADD SWAP1 PUSH2 0x1C8 SWAP2 SWAP1 PUSH2 0x1C5A JUMP JUMPDEST PUSH2 0xEE9 JUMP JUMPDEST PUSH1 0x40 MLOAD PUSH2 0x1DA SWAP2 SWAP1 PUSH2 0x1C38 JUMP JUMPDEST PUSH1 0x40 MLOAD DUP1 SWAP2 SUB SWAP1 RETURN JUMPDEST PUSH2 0x1EB PUSH2 0x1199 JUMP JUMPDEST PUSH1 0x40 MLOAD PUSH2 0x1F8 SWAP2 SWAP1 PUSH2 0x1C38 JUMP JUMPDEST PUSH1 0x40 MLOAD DUP1 SWAP2 SUB SWAP1 RETURN JUMPDEST PUSH2 0x21B PUSH1 0x4 DUP1 CALLDATASIZE SUB DUP2 ADD SWAP1 PUSH2 0x216 SWAP2 SWAP1 PUSH2 0x1C5A JUMP JUMPDEST PUSH2 0x1226 JUMP JUMPDEST PUSH1 0x40 MLOAD PUSH2 0x228 SWAP2 SWAP1 PUSH2 0x1DC1 JUMP JUMPDEST PUSH1 0x40 MLOAD DUP1 SWAP2 SUB SWAP1 RETURN JUMPDEST PUSH2 0x24B PUSH1 0x4 DUP1 CALLDATASIZE SUB DUP2 ADD SWAP1 PUSH2 0x246 SWAP2 SWAP1 PUSH2 0x1C5A JUMP JUMPDEST PUSH2 0x14C6 JUMP JUMPDEST PUSH1 0x40 MLOAD PUSH2 0x258 SWAP2 SWAP1 PUSH2 0x1C38 JUMP JUMPDEST PUSH1 0x40 MLOAD DUP1 SWAP2 SUB SWAP1 RETURN JUMPDEST PUSH2 0x269 PUSH2 0x17F2 JUMP JUMPDEST DUP2 PUSH1 0x0 ADD MLOAD PUSH1 0x0 ISZERO ISZERO DUP2 PUSH1 0x20 ADD MLOAD ISZERO ISZERO EQ PUSH2 0x283 JUMPI PUSH1 0x0 DUP1 REVERT JUMPDEST PUSH1 0x0 DUP1 DUP3 PUSH1 0x0 ADD MLOAD SWAP1 POP PUSH1 0x20 DUP2 ADD MLOAD SWAP2 POP PUSH1 0x0 DUP3 SUB PUSH2 0x322 JUMPI PUSH20 0x0 PUSH4 0x8D78767 DUP5 PUSH1 0x40 MLOAD DUP3 PUSH4 0xFFFFFFFF AND PUSH1 0xE0 SHL DUP2 MSTORE PUSH1 0x4 ADD PUSH2 0x2D3 SWAP2 SWAP1 PUSH2 0x1E94 JUMP JUMPDEST PUSH1 0x20 PUSH1 0x40 MLOAD DUP1 DUP4 SUB DUP2 DUP7 GAS DELEGATECALL ISZERO DUP1 ISZERO PUSH2 0x2F0 JUMPI RETURNDATASIZE PUSH1 0x0 DUP1 RETURNDATACOPY RETURNDATASIZE PUSH1 0x0 REVERT JUMPDEST POP POP POP POP PUSH1 0x40 MLOAD RETURNDATASIZE PUSH1 0x1F NOT PUSH1 0x1F DUP3 ADD AND DUP3 ADD DUP1 PUSH1 0x40 MSTORE POP DUP2 ADD SWAP1 PUSH2 0x314 SWAP2 SWAP1 PUSH2 0x1ECB JUMP JUMPDEST PUSH2 0x31D JUMPI PUSH1 0x0 DUP1 REVERT JUMPDEST PUSH2 0x36D JUMP JUMPDEST PUSH1 0x0 PUSH1 0x20 DUP5 PUSH1 0x0 ADD MLOAD MLOAD PUSH2 0x336 SWAP2 SWAP1 PUSH2 0x1F27 JUMP JUMPDEST EQ DUP1 ISZERO PUSH2 0x363 JUMPI POP PUSH1 0x1 PUSH2 0x100 PUSH1 0x1 DUP6 PUSH1 0x40 ADD MLOAD PUSH2 0x354 SWAP2 SWAP1 PUSH2 0x1F87 JUMP JUMPDEST PUSH2 0x35E SWAP2 SWAP1 PUSH2 0x1F27 JUMP JUMPDEST DUP4 SWAP1 SHR EQ JUMPDEST PUSH2 0x36C JUMPI PUSH1 0x0 DUP1 REVERT JUMPDEST JUMPDEST DUP5 SWAP4 POP POP POP POP SWAP2 SWAP1 POP JUMP JUMPDEST PUSH2 0x380 PUSH2 0x17F2 JUMP JUMPDEST DUP3 PUSH1 0x0 ADD MLOAD PUSH1 0x0 ISZERO ISZERO DUP2 PUSH1 0x20 ADD MLOAD ISZERO ISZERO EQ PUSH2 0x39A JUMPI PUSH1 0x0 DUP1 REVERT JUMPDEST PUSH1 0x0 DUP1 DUP3 PUSH1 0x0 ADD MLOAD SWAP1 POP PUSH1 0x20 DUP2 ADD MLOAD SWAP2 POP PUSH1 0x0 DUP3 SUB PUSH2 0x439 JUMPI PUSH20 0x0 PUSH4 0x8D78767 DUP5 PUSH1 0x40 MLOAD DUP3 PUSH4 0xFFFFFFFF AND PUSH1 0xE0 SHL DUP2 MSTORE PUSH1 0x4 ADD PUSH2 0x3EA SWAP2 SWAP1 PUSH2 0x1E94 JUMP JUMPDEST PUSH1 0x20 PUSH1 0x40 MLOAD DUP1 DUP4 SUB DUP2 DUP7 GAS DELEGATECALL ISZERO DUP1 ISZERO PUSH2 0x407 JUMPI RETURNDATASIZE PUSH1 0x0 DUP1 RETURNDATACOPY RETURNDATASIZE PUSH1 0x0 REVERT JUMPDEST POP POP POP POP PUSH1 0x40 MLOAD RETURNDATASIZE PUSH1 0x1F NOT PUSH1 0x1F DUP3 ADD AND DUP3 ADD DUP1 PUSH1 0x40 MSTORE POP DUP2 ADD SWAP1 PUSH2 0x42B SWAP2 SWAP1 PUSH2 0x1ECB JUMP JUMPDEST PUSH2 0x434 JUMPI PUSH1 0x0 DUP1 REVERT JUMPDEST PUSH2 0x484 JUMP JUMPDEST PUSH1 0x0 PUSH1 0x20 DUP5 PUSH1 0x0 ADD MLOAD MLOAD PUSH2 0x44D SWAP2 SWAP1 PUSH2 0x1F27 JUMP JUMPDEST EQ DUP1 ISZERO PUSH2 0x47A JUMPI POP PUSH1 0x1 PUSH2 0x100 PUSH1 0x1 DUP6 PUSH1 0x40 ADD MLOAD PUSH2 0x46B SWAP2 SWAP1 PUSH2 0x1F87 JUMP JUMPDEST PUSH2 0x475 SWAP2 SWAP1 PUSH2 0x1F27 JUMP JUMPDEST DUP4 SWAP1 SHR EQ JUMPDEST PUSH2 0x483 JUMPI PUSH1 0x0 DUP1 REVERT JUMPDEST JUMPDEST DUP5 PUSH1 0x0 ADD MLOAD PUSH1 0x0 ISZERO ISZERO DUP2 PUSH1 0x20 ADD MLOAD ISZERO ISZERO EQ PUSH2 0x49E JUMPI PUSH1 0x0 DUP1 REVERT JUMPDEST PUSH1 0x0 DUP1 DUP3 PUSH1 0x0 ADD MLOAD SWAP1 POP PUSH1 0x20 DUP2 ADD MLOAD SWAP2 POP PUSH1 0x0 DUP3 SUB PUSH2 0x53D JUMPI PUSH20 0x0 PUSH4 0x8D78767 DUP5 PUSH1 0x40 MLOAD DUP3 PUSH4 0xFFFFFFFF AND PUSH1 0xE0 SHL DUP2 MSTORE PUSH1 0x4 ADD PUSH2 0x4EE SWAP2 SWAP1 PUSH2 0x1E94 JUMP JUMPDEST PUSH1 0x20 PUSH1 0x40 MLOAD DUP1 DUP4 SUB DUP2 DUP7 GAS DELEGATECALL ISZERO DUP1 ISZERO PUSH2 0x50B JUMPI RETURNDATASIZE PUSH1 0x0 DUP1 RETURNDATACOPY RETURNDATASIZE PUSH1 0x0 REVERT JUMPDEST POP POP POP POP PUSH1 0x40 MLOAD RETURNDATASIZE PUSH1 0x1F NOT PUSH1 0x1F DUP3 ADD AND DUP3 ADD DUP1 PUSH1 0x40 MSTORE POP DUP2 ADD SWAP1 PUSH2 0x52F SWAP2 SWAP1 PUSH2 0x1ECB JUMP JUMPDEST PUSH2 0x538 JUMPI PUSH1 0x0 DUP1 REVERT JUMPDEST PUSH2 0x588 JUMP JUMPDEST PUSH1 0x0 PUSH1 0x20 DUP5 PUSH1 0x0 ADD MLOAD MLOAD PUSH2 0x551 SWAP2 SWAP1 PUSH2 0x1F27 JUMP JUMPDEST EQ DUP1 ISZERO PUSH2 0x57E JUMPI POP PUSH1 0x1 PUSH2 0x100 PUSH1 0x1 DUP6 PUSH1 0x40 ADD MLOAD PUSH2 0x56F SWAP2 SWAP1 PUSH2 0x1F87 JUMP JUMPDEST PUSH2 0x579 SWAP2 SWAP1 PUSH2 0x1F27 JUMP JUMPDEST DUP4 SWAP1 SHR EQ JUMPDEST PUSH2 0x587 JUMPI PUSH1 0x0 DUP1 REVERT JUMPDEST JUMPDEST PUSH2 0x59A DUP10 PUSH2 0x595 DUP11 PUSH2 0x7F5 JUMP JUMPDEST PUSH2 0xEE9 JUMP JUMPDEST SWAP7 POP POP POP POP POP POP POP SWAP3 SWAP2 POP POP JUMP JUMPDEST PUSH2 0x5B0 PUSH2 0x17F2 JUMP JUMPDEST DUP2 PUSH1 0x0 ISZERO ISZERO DUP2 PUSH1 0x20 ADD MLOAD ISZERO ISZERO EQ PUSH2 0x5C6 JUMPI PUSH1 0x0 DUP1 REVERT JUMPDEST PUSH1 0x0 DUP1 DUP3 PUSH1 0x0 ADD MLOAD SWAP1 POP PUSH1 0x20 DUP2 ADD MLOAD SWAP2 POP PUSH1 0x0 DUP3 SUB PUSH2 0x665 JUMPI PUSH20 0x0 PUSH4 0x8D78767 DUP5 PUSH1 0x40 MLOAD DUP3 PUSH4 0xFFFFFFFF AND PUSH1 0xE0 SHL DUP2 MSTORE PUSH1 0x4 ADD PUSH2 0x616 SWAP2 SWAP1 PUSH2 0x1E94 JUMP JUMPDEST PUSH1 0x20 PUSH1 0x40 MLOAD DUP1 DUP4 SUB DUP2 DUP7 GAS DELEGATECALL ISZERO DUP1 ISZERO PUSH2 0x633 JUMPI RETURNDATASIZE PUSH1 0x0 DUP1 RETURNDATACOPY RETURNDATASIZE PUSH1 0x0 REVERT JUMPDEST POP POP POP POP PUSH1 0x40 MLOAD RETURNDATASIZE PUSH1 0x1F NOT PUSH1 0x1F DUP3 ADD AND DUP3 ADD DUP1 PUSH1 0x40 MSTORE POP DUP2 ADD SWAP1 PUSH2 0x657 SWAP2 SWAP1 PUSH2 0x1ECB JUMP JUMPDEST PUSH2 0x660 JUMPI PUSH1 0x0 DUP1 REVERT JUMPDEST PUSH2 0x6B0 JUMP JUMPDEST PUSH1 0x0 PUSH1 0x20 DUP5 PUSH1 0x0 ADD MLOAD MLOAD PUSH2 0x679 SWAP2 SWAP1 PUSH2 0x1F27 JUMP JUMPDEST EQ DUP1 ISZERO PUSH2 0x6A6 JUMPI POP PUSH1 0x1 PUSH2 0x100 PUSH1 0x1 DUP6 PUSH1 0x40 ADD MLOAD PUSH2 0x697 SWAP2 SWAP1 PUSH2 0x1F87 JUMP JUMPDEST PUSH2 0x6A1 SWAP2 SWAP1 PUSH2 0x1F27 JUMP JUMPDEST DUP4 SWAP1 SHR EQ JUMPDEST PUSH2 0x6AF JUMPI PUSH1 0x0 DUP1 REVERT JUMPDEST JUMPDEST PUSH1 0x40 MLOAD DUP1 PUSH1 0x20 ADD PUSH1 0x40 MSTORE DUP1 PUSH20 0x0 PUSH4 0x7AFA8553 DUP9 PUSH1 0x0 PUSH1 0x40 MLOAD DUP4 PUSH4 0xFFFFFFFF AND PUSH1 0xE0 SHL DUP2 MSTORE PUSH1 0x4 ADD PUSH2 0x6F5 SWAP3 SWAP2 SWAP1 PUSH2 0x2173 JUMP JUMPDEST PUSH1 0x0 PUSH1 0x40 MLOAD DUP1 DUP4 SUB DUP2 DUP7 GAS DELEGATECALL ISZERO DUP1 ISZERO PUSH2 0x712 JUMPI RETURNDATASIZE PUSH1 0x0 DUP1 RETURNDATACOPY RETURNDATASIZE PUSH1 0x0 REVERT JUMPDEST POP POP POP POP PUSH1 0x40 MLOAD RETURNDATASIZE PUSH1 0x0 DUP3 RETURNDATACOPY RETURNDATASIZE PUSH1 0x1F NOT PUSH1 0x1F DUP3 ADD AND DUP3 ADD DUP1 PUSH1 0x40 MSTORE POP DUP2 ADD SWAP1 PUSH2 0x73B SWAP2 SWAP1 PUSH2 0x22AF JUMP JUMPDEST DUP2 MSTORE POP SWAP4 POP POP POP POP SWAP2 SWAP1 POP JUMP JUMPDEST PUSH1 0x0 DUP1 PUSH1 0x0 ADD DUP1 SLOAD PUSH2 0x759 SWAP1 PUSH2 0x1FEA JUMP JUMPDEST DUP1 PUSH1 0x1F ADD PUSH1 0x20 DUP1 SWAP2 DIV MUL PUSH1 0x20 ADD PUSH1 0x40 MLOAD SWAP1 DUP2 ADD PUSH1 0x40 MSTORE DUP1 SWAP3 SWAP2 SWAP1 DUP2 DUP2 MSTORE PUSH1 0x20 ADD DUP3 DUP1 SLOAD PUSH2 0x785 SWAP1 PUSH2 0x1FEA JUMP JUMPDEST DUP1 ISZERO PUSH2 0x7D2 JUMPI DUP1 PUSH1 0x1F LT PUSH2 0x7A7 JUMPI PUSH2 0x100 DUP1 DUP4 SLOAD DIV MUL DUP4 MSTORE SWAP2 PUSH1 0x20 ADD SWAP2 PUSH2 0x7D2 JUMP JUMPDEST DUP3 ADD SWAP2 SWAP1 PUSH1 0x0 MSTORE PUSH1 0x20 PUSH1 0x0 KECCAK256 SWAP1 JUMPDEST DUP2 SLOAD DUP2 MSTORE SWAP1 PUSH1 0x1 ADD SWAP1 PUSH1 0x20 ADD DUP1 DUP4 GT PUSH2 0x7B5 JUMPI DUP3 SWAP1 SUB PUSH1 0x1F AND DUP3 ADD SWAP2 JUMPDEST POP POP POP POP POP SWAP1 DUP1 PUSH1 0x1 ADD PUSH1 0x0 SWAP1 SLOAD SWAP1 PUSH2 0x100 EXP SWAP1 DIV PUSH1 0xFF AND SWAP1 DUP1 PUSH1 0x2 ADD SLOAD SWAP1 POP DUP4 JUMP JUMPDEST PUSH2 0x7FD PUSH2 0x17F2 JUMP JUMPDEST DUP2 PUSH1 0x0 ADD MLOAD PUSH1 0x0 ISZERO ISZERO DUP2 PUSH1 0x20 ADD MLOAD ISZERO ISZERO EQ PUSH2 0x817 JUMPI PUSH1 0x0 DUP1 REVERT JUMPDEST PUSH1 0x0 DUP1 DUP3 PUSH1 0x0 ADD MLOAD SWAP1 POP PUSH1 0x20 DUP2 ADD MLOAD SWAP2 POP PUSH1 0x0 DUP3 SUB PUSH2 0x8B6 JUMPI PUSH20 0x0 PUSH4 0x8D78767 DUP5 PUSH1 0x40 MLOAD DUP3 PUSH4 0xFFFFFFFF AND PUSH1 0xE0 SHL DUP2 MSTORE PUSH1 0x4 ADD PUSH2 0x867 SWAP2 SWAP1 PUSH2 0x1E94 JUMP JUMPDEST PUSH1 0x20 PUSH1 0x40 MLOAD DUP1 DUP4 SUB DUP2 DUP7 GAS DELEGATECALL ISZERO DUP1 ISZERO PUSH2 0x884 JUMPI RETURNDATASIZE PUSH1 0x0 DUP1 RETURNDATACOPY RETURNDATASIZE PUSH1 0x0 REVERT JUMPDEST POP POP POP POP PUSH1 0x40 MLOAD RETURNDATASIZE PUSH1 0x1F NOT PUSH1 0x1F DUP3 ADD AND DUP3 ADD DUP1 PUSH1 0x40 MSTORE POP DUP2 ADD SWAP1 PUSH2 0x8A8 SWAP2 SWAP1 PUSH2 0x1ECB JUMP JUMPDEST PUSH2 0x8B1 JUMPI PUSH1 0x0 DUP1 REVERT JUMPDEST PUSH2 0x901 JUMP JUMPDEST PUSH1 0x0 PUSH1 0x20 DUP5 PUSH1 0x0 ADD MLOAD MLOAD PUSH2 0x8CA SWAP2 SWAP1 PUSH2 0x1F27 JUMP JUMPDEST EQ DUP1 ISZERO PUSH2 0x8F7 JUMPI POP PUSH1 0x1 PUSH2 0x100 PUSH1 0x1 DUP6 PUSH1 0x40 ADD MLOAD PUSH2 0x8E8 SWAP2 SWAP1 PUSH2 0x1F87 JUMP JUMPDEST PUSH2 0x8F2 SWAP2 SWAP1 PUSH2 0x1F27 JUMP JUMPDEST DUP4 SWAP1 SHR EQ JUMPDEST PUSH2 0x900 JUMPI PUSH1 0x0 DUP1 REVERT JUMPDEST JUMPDEST PUSH1 0x0 PUSH20 0x0 PUSH4 0xBC39804E DUP8 PUSH1 0x0 ADD MLOAD PUSH20 0x0 PUSH4 0xBC1B392D PUSH1 0x40 MLOAD DUP2 PUSH4 0xFFFFFFFF AND PUSH1 0xE0 SHL DUP2 MSTORE PUSH1 0x4 ADD PUSH1 0x0 PUSH1 0x40 MLOAD DUP1 DUP4 SUB DUP2 DUP7 GAS DELEGATECALL ISZERO DUP1 ISZERO PUSH2 0x96B JUMPI RETURNDATASIZE PUSH1 0x0 DUP1 RETURNDATACOPY RETURNDATASIZE PUSH1 0x0 REVERT JUMPDEST POP POP POP POP PUSH1 0x40 MLOAD RETURNDATASIZE PUSH1 0x0 DUP3 RETURNDATACOPY RETURNDATASIZE PUSH1 0x1F NOT PUSH1 0x1F DUP3 ADD AND DUP3 ADD DUP1 PUSH1 0x40 MSTORE POP DUP2 ADD SWAP1 PUSH2 0x994 SWAP2 SWAP1 PUSH2 0x22AF JUMP JUMPDEST PUSH1 0x0 PUSH1 0x40 MLOAD DUP5 PUSH4 0xFFFFFFFF AND PUSH1 0xE0 SHL DUP2 MSTORE PUSH1 0x4 ADD PUSH2 0x9B4 SWAP4 SWAP3 SWAP2 SWAP1 PUSH2 0x2307 JUMP JUMPDEST PUSH1 0x20 PUSH1 0x40 MLOAD DUP1 DUP4 SUB DUP2 DUP7 GAS DELEGATECALL ISZERO DUP1 ISZERO PUSH2 0x9D1 JUMPI RETURNDATASIZE PUSH1 0x0 DUP1 RETURNDATACOPY RETURNDATASIZE PUSH1 0x0 REVERT JUMPDEST POP POP POP POP PUSH1 0x40 MLOAD RETURNDATASIZE PUSH1 0x1F NOT PUSH1 0x1F DUP3 ADD AND DUP3 ADD DUP1 PUSH1 0x40 MSTORE POP DUP2 ADD SWAP1 PUSH2 0x9F5 SWAP2 SWAP1 PUSH2 0x2382 JUMP JUMPDEST SUB PUSH2 0xA35 JUMPI PUSH1 0x40 MLOAD PUSH32 0x8C379A000000000000000000000000000000000000000000000000000000000 DUP2 MSTORE PUSH1 0x4 ADD PUSH2 0xA2C SWAP1 PUSH2 0x240C JUMP JUMPDEST PUSH1 0x40 MLOAD DUP1 SWAP2 SUB SWAP1 REVERT JUMPDEST PUSH2 0xBB3 PUSH20 0x0 PUSH4 0xE7671F2 DUP8 PUSH1 0x0 ADD MLOAD PUSH20 0x0 PUSH4 0xA4638FD PUSH1 0x0 PUSH20 0x0 PUSH4 0x5FDF05D7 PUSH1 0x40 MLOAD DUP2 PUSH4 0xFFFFFFFF AND PUSH1 0xE0 SHL DUP2 MSTORE PUSH1 0x4 ADD PUSH1 0x0 PUSH1 0x40 MLOAD DUP1 DUP4 SUB DUP2 DUP7 GAS DELEGATECALL ISZERO DUP1 ISZERO PUSH2 0xABC JUMPI RETURNDATASIZE PUSH1 0x0 DUP1 RETURNDATACOPY RETURNDATASIZE PUSH1 0x0 REVERT JUMPDEST POP POP POP POP PUSH1 0x40 MLOAD RETURNDATASIZE PUSH1 0x0 DUP3 RETURNDATACOPY RETURNDATASIZE PUSH1 0x1F NOT PUSH1 0x1F DUP3 ADD AND DUP3 ADD DUP1 PUSH1 0x40 MSTORE POP DUP2 ADD SWAP1 PUSH2 0xAE5 SWAP2 SWAP1 PUSH2 0x22AF JUMP JUMPDEST PUSH1 0x40 MLOAD DUP4 PUSH4 0xFFFFFFFF AND PUSH1 0xE0 SHL DUP2 MSTORE PUSH1 0x4 ADD PUSH2 0xB02 SWAP3 SWAP2 SWAP1 PUSH2 0x242C JUMP JUMPDEST PUSH1 0x0 PUSH1 0x40 MLOAD DUP1 DUP4 SUB DUP2 DUP7 GAS DELEGATECALL ISZERO DUP1 ISZERO PUSH2 0xB1F JUMPI RETURNDATASIZE PUSH1 0x0 DUP1 RETURNDATACOPY RETURNDATASIZE PUSH1 0x0 REVERT JUMPDEST POP POP POP POP PUSH1 0x40 MLOAD RETURNDATASIZE PUSH1 0x0 DUP3 RETURNDATACOPY RETURNDATASIZE PUSH1 0x1F NOT PUSH1 0x1F DUP3 ADD AND DUP3 ADD DUP1 PUSH1 0x40 MSTORE POP DUP2 ADD SWAP1 PUSH2 0xB48 SWAP2 SWAP1 PUSH2 0x22AF JUMP JUMPDEST PUSH1 0x0 PUSH1 0x40 MLOAD DUP5 PUSH4 0xFFFFFFFF AND PUSH1 0xE0 SHL DUP2 MSTORE PUSH1 0x4 ADD PUSH2 0xB68 SWAP4 SWAP3 SWAP2 SWAP1 PUSH2 0x2463 JUMP JUMPDEST PUSH1 0x0 PUSH1 0x40 MLOAD DUP1 DUP4 SUB DUP2 DUP7 GAS DELEGATECALL ISZERO DUP1 ISZERO PUSH2 0xB85 JUMPI RETURNDATASIZE PUSH1 0x0 DUP1 RETURNDATACOPY RETURNDATASIZE PUSH1 0x0 REVERT JUMPDEST POP POP POP POP PUSH1 0x40 MLOAD RETURNDATASIZE PUSH1 0x0 DUP3 RETURNDATACOPY RETURNDATASIZE PUSH1 0x1F NOT PUSH1 0x1F DUP3 ADD AND DUP3 ADD DUP1 PUSH1 0x40 MSTORE POP DUP2 ADD SWAP1 PUSH2 0xBAE SWAP2 SWAP1 PUSH2 0x22AF JUMP JUMPDEST PUSH2 0x5A8 JUMP JUMPDEST SWAP4 POP POP POP POP SWAP2 SWAP1 POP JUMP JUMPDEST PUSH2 0xBC5 PUSH2 0x17F2 JUMP JUMPDEST DUP3 PUSH1 0x0 ADD MLOAD PUSH1 0x0 ISZERO ISZERO DUP2 PUSH1 0x20 ADD MLOAD ISZERO ISZERO EQ PUSH2 0xBDF JUMPI PUSH1 0x0 DUP1 REVERT JUMPDEST PUSH1 0x0 DUP1 DUP3 PUSH1 0x0 ADD MLOAD SWAP1 POP PUSH1 0x20 DUP2 ADD MLOAD SWAP2 POP PUSH1 0x0 DUP3 SUB PUSH2 0xC7E JUMPI PUSH20 0x0 PUSH4 0x8D78767 DUP5 PUSH1 0x40 MLOAD DUP3 PUSH4 0xFFFFFFFF AND PUSH1 0xE0 SHL DUP2 MSTORE PUSH1 0x4 ADD PUSH2 0xC2F SWAP2 SWAP1 PUSH2 0x1E94 JUMP JUMPDEST PUSH1 0x20 PUSH1 0x40 MLOAD DUP1 DUP4 SUB DUP2 DUP7 GAS DELEGATECALL ISZERO DUP1 ISZERO PUSH2 0xC4C JUMPI RETURNDATASIZE PUSH1 0x0 DUP1 RETURNDATACOPY RETURNDATASIZE PUSH1 0x0 REVERT JUMPDEST POP POP POP POP PUSH1 0x40 MLOAD RETURNDATASIZE PUSH1 0x1F NOT PUSH1 0x1F DUP3 ADD AND DUP3 ADD DUP1 PUSH1 0x40 MSTORE POP DUP2 ADD SWAP1 PUSH2 0xC70 SWAP2 SWAP1 PUSH2 0x1ECB JUMP JUMPDEST PUSH2 0xC79 JUMPI PUSH1 0x0 DUP1 REVERT JUMPDEST PUSH2 0xCC9 JUMP JUMPDEST PUSH1 0x0 PUSH1 0x20 DUP5 PUSH1 0x0 ADD MLOAD MLOAD PUSH2 0xC92 SWAP2 SWAP1 PUSH2 0x1F27 JUMP JUMPDEST EQ DUP1 ISZERO PUSH2 0xCBF JUMPI POP PUSH1 0x1 PUSH2 0x100 PUSH1 0x1 DUP6 PUSH1 0x40 ADD MLOAD PUSH2 0xCB0 SWAP2 SWAP1 PUSH2 0x1F87 JUMP JUMPDEST PUSH2 0xCBA SWAP2 SWAP1 PUSH2 0x1F27 JUMP JUMPDEST DUP4 SWAP1 SHR EQ JUMPDEST PUSH2 0xCC8 JUMPI PUSH1 0x0 DUP1 REVERT JUMPDEST JUMPDEST DUP5 PUSH1 0x0 ADD MLOAD PUSH1 0x0 ISZERO ISZERO DUP2 PUSH1 0x20 ADD MLOAD ISZERO ISZERO EQ PUSH2 0xCE3 JUMPI PUSH1 0x0 DUP1 REVERT JUMPDEST PUSH1 0x0 DUP1 DUP3 PUSH1 0x0 ADD MLOAD SWAP1 POP PUSH1 0x20 DUP2 ADD MLOAD SWAP2 POP PUSH1 0x0 DUP3 SUB PUSH2 0xD82 JUMPI PUSH20 0x0 PUSH4 0x8D78767 DUP5 PUSH1 0x40 MLOAD DUP3 PUSH4 0xFFFFFFFF AND PUSH1 0xE0 SHL DUP2 MSTORE PUSH1 0x4 ADD PUSH2 0xD33 SWAP2 SWAP1 PUSH2 0x1E94 JUMP JUMPDEST PUSH1 0x20 PUSH1 0x40 MLOAD DUP1 DUP4 SUB DUP2 DUP7 GAS DELEGATECALL ISZERO DUP1 ISZERO PUSH2 0xD50 JUMPI RETURNDATASIZE PUSH1 0x0 DUP1 RETURNDATACOPY RETURNDATASIZE PUSH1 0x0 REVERT JUMPDEST POP POP POP POP PUSH1 0x40 MLOAD RETURNDATASIZE PUSH1 0x1F NOT PUSH1 0x1F DUP3 ADD AND DUP3 ADD DUP1 PUSH1 0x40 MSTORE POP DUP2 ADD SWAP1 PUSH2 0xD74 SWAP2 SWAP1 PUSH2 0x1ECB JUMP JUMPDEST PUSH2 0xD7D JUMPI PUSH1 0x0 DUP1 REVERT JUMPDEST PUSH2 0xDCD JUMP JUMPDEST PUSH1 0x0 PUSH1 0x20 DUP5 PUSH1 0x0 ADD MLOAD MLOAD PUSH2 0xD96 SWAP2 SWAP1 PUSH2 0x1F27 JUMP JUMPDEST EQ DUP1 ISZERO PUSH2 0xDC3 JUMPI POP PUSH1 0x1 PUSH2 0x100 PUSH1 0x1 DUP6 PUSH1 0x40 ADD MLOAD PUSH2 0xDB4 SWAP2 SWAP1 PUSH2 0x1F87 JUMP JUMPDEST PUSH2 0xDBE SWAP2 SWAP1 PUSH2 0x1F27 JUMP JUMPDEST DUP4 SWAP1 SHR EQ JUMPDEST PUSH2 0xDCC JUMPI PUSH1 0x0 DUP1 REVERT JUMPDEST JUMPDEST PUSH2 0xEDB PUSH20 0x0 PUSH4 0x7AFA8553 PUSH20 0x0 PUSH4 0x98CDCFB2 DUP14 PUSH1 0x0 ADD MLOAD DUP14 PUSH1 0x0 ADD MLOAD PUSH1 0x40 MLOAD DUP4 PUSH4 0xFFFFFFFF AND PUSH1 0xE0 SHL DUP2 MSTORE PUSH1 0x4 ADD PUSH2 0xE2B SWAP3 SWAP2 SWAP1 PUSH2 0x24AF JUMP JUMPDEST PUSH1 0x0 PUSH1 0x40 MLOAD DUP1 DUP4 SUB DUP2 DUP7 GAS DELEGATECALL ISZERO DUP1 ISZERO PUSH2 0xE48 JUMPI RETURNDATASIZE PUSH1 0x0 DUP1 RETURNDATACOPY RETURNDATASIZE PUSH1 0x0 REVERT JUMPDEST POP POP POP POP PUSH1 0x40 MLOAD RETURNDATASIZE PUSH1 0x0 DUP3 RETURNDATACOPY RETURNDATASIZE PUSH1 0x1F NOT PUSH1 0x1F DUP3 ADD AND DUP3 ADD DUP1 PUSH1 0x40 MSTORE POP DUP2 ADD SWAP1 PUSH2 0xE71 SWAP2 SWAP1 PUSH2 0x22AF JUMP JUMPDEST PUSH1 0x0 PUSH1 0x40 MLOAD DUP4 PUSH4 0xFFFFFFFF AND PUSH1 0xE0 SHL DUP2 MSTORE PUSH1 0x4 ADD PUSH2 0xE90 SWAP3 SWAP2 SWAP1 PUSH2 0x2173 JUMP JUMPDEST PUSH1 0x0 PUSH1 0x40 MLOAD DUP1 DUP4 SUB DUP2 DUP7 GAS DELEGATECALL ISZERO DUP1 ISZERO PUSH2 0xEAD JUMPI RETURNDATASIZE PUSH1 0x0 DUP1 RETURNDATACOPY RETURNDATASIZE PUSH1 0x0 REVERT JUMPDEST POP POP POP POP PUSH1 0x40 MLOAD RETURNDATASIZE PUSH1 0x0 DUP3 RETURNDATACOPY RETURNDATASIZE PUSH1 0x1F NOT PUSH1 0x1F DUP3 ADD AND DUP3 ADD DUP1 PUSH1 0x40 MSTORE POP DUP2 ADD SWAP1 PUSH2 0xED6 SWAP2 SWAP1 PUSH2 0x22AF JUMP JUMPDEST PUSH2 0x5A8 JUMP JUMPDEST SWAP7 POP POP POP POP POP POP POP SWAP3 SWAP2 POP POP JUMP JUMPDEST PUSH2 0xEF1 PUSH2 0x17F2 JUMP JUMPDEST DUP3 PUSH1 0x0 ADD MLOAD PUSH1 0x0 ISZERO ISZERO DUP2 PUSH1 0x20 ADD MLOAD ISZERO ISZERO EQ PUSH2 0xF0B JUMPI PUSH1 0x0 DUP1 REVERT JUMPDEST PUSH1 0x0 DUP1 DUP3 PUSH1 0x0 ADD MLOAD SWAP1 POP PUSH1 0x20 DUP2 ADD MLOAD SWAP2 POP PUSH1 0x0 DUP3 SUB PUSH2 0xFAA JUMPI PUSH20 0x0 PUSH4 0x8D78767 DUP5 PUSH1 0x40 MLOAD DUP3 PUSH4 0xFFFFFFFF AND PUSH1 0xE0 SHL DUP2 MSTORE PUSH1 0x4 ADD PUSH2 0xF5B SWAP2 SWAP1 PUSH2 0x1E94 JUMP JUMPDEST PUSH1 0x20 PUSH1 0x40 MLOAD DUP1 DUP4 SUB DUP2 DUP7 GAS DELEGATECALL ISZERO DUP1 ISZERO PUSH2 0xF78 JUMPI RETURNDATASIZE PUSH1 0x0 DUP1 RETURNDATACOPY RETURNDATASIZE PUSH1 0x0 REVERT JUMPDEST POP POP POP POP PUSH1 0x40 MLOAD RETURNDATASIZE PUSH1 0x1F NOT PUSH1 0x1F DUP3 ADD AND DUP3 ADD DUP1 PUSH1 0x40 MSTORE POP DUP2 ADD SWAP1 PUSH2 0xF9C SWAP2 SWAP1 PUSH2 0x1ECB JUMP JUMPDEST PUSH2 0xFA5 JUMPI PUSH1 0x0 DUP1 REVERT JUMPDEST PUSH2 0xFF5 JUMP JUMPDEST PUSH1 0x0 PUSH1 0x20 DUP5 PUSH1 0x0 ADD MLOAD MLOAD PUSH2 0xFBE SWAP2 SWAP1 PUSH2 0x1F27 JUMP JUMPDEST EQ DUP1 ISZERO PUSH2 0xFEB JUMPI POP PUSH1 0x1 PUSH2 0x100 PUSH1 0x1 DUP6 PUSH1 0x40 ADD MLOAD PUSH2 0xFDC SWAP2 SWAP1 PUSH2 0x1F87 JUMP JUMPDEST PUSH2 0xFE6 SWAP2 SWAP1 PUSH2 0x1F27 JUMP JUMPDEST DUP4 SWAP1 SHR EQ JUMPDEST PUSH2 0xFF4 JUMPI PUSH1 0x0 DUP1 REVERT JUMPDEST JUMPDEST DUP5 PUSH1 0x0 ADD MLOAD PUSH1 0x0 ISZERO ISZERO DUP2 PUSH1 0x20 ADD MLOAD ISZERO ISZERO EQ PUSH2 0x100F JUMPI PUSH1 0x0 DUP1 REVERT JUMPDEST PUSH1 0x0 DUP1 DUP3 PUSH1 0x0 ADD MLOAD SWAP1 POP PUSH1 0x20 DUP2 ADD MLOAD SWAP2 POP PUSH1 0x0 DUP3 SUB PUSH2 0x10AE JUMPI PUSH20 0x0 PUSH4 0x8D78767 DUP5 PUSH1 0x40 MLOAD DUP3 PUSH4 0xFFFFFFFF AND PUSH1 0xE0 SHL DUP2 MSTORE PUSH1 0x4 ADD PUSH2 0x105F SWAP2 SWAP1 PUSH2 0x1E94 JUMP JUMPDEST PUSH1 0x20 PUSH1 0x40 MLOAD DUP1 DUP4 SUB DUP2 DUP7 GAS DELEGATECALL ISZERO DUP1 ISZERO PUSH2 0x107C JUMPI RETURNDATASIZE PUSH1 0x0 DUP1 RETURNDATACOPY RETURNDATASIZE PUSH1 0x0 REVERT JUMPDEST POP POP POP POP PUSH1 0x40 MLOAD RETURNDATASIZE PUSH1 0x1F NOT PUSH1 0x1F DUP3 ADD AND DUP3 ADD DUP1 PUSH1 0x40 MSTORE POP DUP2 ADD SWAP1 PUSH2 0x10A0 SWAP2 SWAP1 PUSH2 0x1ECB JUMP JUMPDEST PUSH2 0x10A9 JUMPI PUSH1 0x0 DUP1 REVERT JUMPDEST PUSH2 0x10F9 JUMP JUMPDEST PUSH1 0x0 PUSH1 0x20 DUP5 PUSH1 0x0 ADD MLOAD MLOAD PUSH2 0x10C2 SWAP2 SWAP1 PUSH2 0x1F27 JUMP JUMPDEST EQ DUP1 ISZERO PUSH2 0x10EF JUMPI POP PUSH1 0x1 PUSH2 0x100 PUSH1 0x1 DUP6 PUSH1 0x40 ADD MLOAD PUSH2 0x10E0 SWAP2 SWAP1 PUSH2 0x1F87 JUMP JUMPDEST PUSH2 0x10EA SWAP2 SWAP1 PUSH2 0x1F27 JUMP JUMPDEST DUP4 SWAP1 SHR EQ JUMPDEST PUSH2 0x10F8 JUMPI PUSH1 0x0 DUP1 REVERT JUMPDEST JUMPDEST PUSH2 0x118B PUSH20 0x0 PUSH4 0xA5D4CA5B DUP12 PUSH1 0x0 ADD MLOAD DUP12 PUSH1 0x0 ADD MLOAD PUSH1 0x0 PUSH1 0x40 MLOAD DUP5 PUSH4 0xFFFFFFFF AND PUSH1 0xE0 SHL DUP2 MSTORE PUSH1 0x4 ADD PUSH2 0x1140 SWAP4 SWAP3 SWAP2 SWAP1 PUSH2 0x2463 JUMP JUMPDEST PUSH1 0x0 PUSH1 0x40 MLOAD DUP1 DUP4 SUB DUP2 DUP7 GAS DELEGATECALL ISZERO DUP1 ISZERO PUSH2 0x115D JUMPI RETURNDATASIZE PUSH1 0x0 DUP1 RETURNDATACOPY RETURNDATASIZE PUSH1 0x0 REVERT JUMPDEST POP POP POP POP PUSH1 0x40 MLOAD RETURNDATASIZE PUSH1 0x0 DUP3 RETURNDATACOPY RETURNDATASIZE PUSH1 0x1F NOT PUSH1 0x1F DUP3 ADD AND DUP3 ADD DUP1 PUSH1 0x40 MSTORE POP DUP2 ADD SWAP1 PUSH2 0x1186 SWAP2 SWAP1 PUSH2 0x22AF JUMP JUMPDEST PUSH2 0x5A8 JUMP JUMPDEST SWAP7 POP POP POP POP POP POP POP SWAP3 SWAP2 POP POP JUMP JUMPDEST PUSH2 0x11A1 PUSH2 0x17F2 JUMP JUMPDEST PUSH1 0x40 MLOAD DUP1 PUSH1 0x20 ADD PUSH1 0x40 MSTORE DUP1 PUSH20 0x0 PUSH4 0xBC1B392D PUSH1 0x40 MLOAD DUP2 PUSH4 0xFFFFFFFF AND PUSH1 0xE0 SHL DUP2 MSTORE PUSH1 0x4 ADD PUSH1 0x0 PUSH1 0x40 MLOAD DUP1 DUP4 SUB DUP2 DUP7 GAS DELEGATECALL ISZERO DUP1 ISZERO PUSH2 0x11F5 JUMPI RETURNDATASIZE PUSH1 0x0 DUP1 RETURNDATACOPY RETURNDATASIZE PUSH1 0x0 REVERT JUMPDEST POP POP POP POP PUSH1 0x40 MLOAD RETURNDATASIZE PUSH1 0x0 DUP3 RETURNDATACOPY RETURNDATASIZE PUSH1 0x1F NOT PUSH1 0x1F DUP3 ADD AND DUP3 ADD DUP1 PUSH1 0x40 MSTORE POP DUP2 ADD SWAP1 PUSH2 0x121E SWAP2 SWAP1 PUSH2 0x22AF JUMP JUMPDEST DUP2 MSTORE POP SWAP1 POP SWAP1 JUMP JUMPDEST PUSH1 0x0 DUP3 PUSH1 0x0 ADD MLOAD PUSH1 0x0 ISZERO ISZERO DUP2 PUSH1 0x20 ADD MLOAD ISZERO ISZERO EQ PUSH2 0x1242 JUMPI PUSH1 0x0 DUP1 REVERT JUMPDEST PUSH1 0x0 DUP1 DUP3 PUSH1 0x0 ADD MLOAD SWAP1 POP PUSH1 0x20 DUP2 ADD MLOAD SWAP2 POP PUSH1 0x0 DUP3 SUB PUSH2 0x12E1 JUMPI PUSH20 0x0 PUSH4 0x8D78767 DUP5 PUSH1 0x40 MLOAD DUP3 PUSH4 0xFFFFFFFF AND PUSH1 0xE0 SHL DUP2 MSTORE PUSH1 0x4 ADD PUSH2 0x1292 SWAP2 SWAP1 PUSH2 0x1E94 JUMP JUMPDEST PUSH1 0x20 PUSH1 0x40 MLOAD DUP1 DUP4 SUB DUP2 DUP7 GAS DELEGATECALL ISZERO DUP1 ISZERO PUSH2 0x12AF JUMPI RETURNDATASIZE PUSH1 0x0 DUP1 RETURNDATACOPY RETURNDATASIZE PUSH1 0x0 REVERT JUMPDEST POP POP POP POP PUSH1 0x40 MLOAD RETURNDATASIZE PUSH1 0x1F NOT PUSH1 0x1F DUP3 ADD AND DUP3 ADD DUP1 PUSH1 0x40 MSTORE POP DUP2 ADD SWAP1 PUSH2 0x12D3 SWAP2 SWAP1 PUSH2 0x1ECB JUMP JUMPDEST PUSH2 0x12DC JUMPI PUSH1 0x0 DUP1 REVERT JUMPDEST PUSH2 0x132C JUMP JUMPDEST PUSH1 0x0 PUSH1 0x20 DUP5 PUSH1 0x0 ADD MLOAD MLOAD PUSH2 0x12F5 SWAP2 SWAP1 PUSH2 0x1F27 JUMP JUMPDEST EQ DUP1 ISZERO PUSH2 0x1322 JUMPI POP PUSH1 0x1 PUSH2 0x100 PUSH1 0x1 DUP6 PUSH1 0x40 ADD MLOAD PUSH2 0x1313 SWAP2 SWAP1 PUSH2 0x1F87 JUMP JUMPDEST PUSH2 0x131D SWAP2 SWAP1 PUSH2 0x1F27 JUMP JUMPDEST DUP4 SWAP1 SHR EQ JUMPDEST PUSH2 0x132B JUMPI PUSH1 0x0 DUP1 REVERT JUMPDEST JUMPDEST DUP5 PUSH1 0x0 ADD MLOAD PUSH1 0x0 ISZERO ISZERO DUP2 PUSH1 0x20 ADD MLOAD ISZERO ISZERO EQ PUSH2 0x1346 JUMPI PUSH1 0x0 DUP1 REVERT JUMPDEST PUSH1 0x0 DUP1 DUP3 PUSH1 0x0 ADD MLOAD SWAP1 POP PUSH1 0x20 DUP2 ADD MLOAD SWAP2 POP PUSH1 0x0 DUP3 SUB PUSH2 0x13E5 JUMPI PUSH20 0x0 PUSH4 0x8D78767 DUP5 PUSH1 0x40 MLOAD DUP3 PUSH4 0xFFFFFFFF AND PUSH1 0xE0 SHL DUP2 MSTORE PUSH1 0x4 ADD PUSH2 0x1396 SWAP2 SWAP1 PUSH2 0x1E94 JUMP JUMPDEST PUSH1 0x20 PUSH1 0x40 MLOAD DUP1 DUP4 SUB DUP2 DUP7 GAS DELEGATECALL ISZERO DUP1 ISZERO PUSH2 0x13B3 JUMPI RETURNDATASIZE PUSH1 0x0 DUP1 RETURNDATACOPY RETURNDATASIZE PUSH1 0x0 REVERT JUMPDEST POP POP POP POP PUSH1 0x40 MLOAD RETURNDATASIZE PUSH1 0x1F NOT PUSH1 0x1F DUP3 ADD AND DUP3 ADD DUP1 PUSH1 0x40 MSTORE POP DUP2 ADD SWAP1 PUSH2 0x13D7 SWAP2 SWAP1 PUSH2 0x1ECB JUMP JUMPDEST PUSH2 0x13E0 JUMPI PUSH1 0x0 DUP1 REVERT JUMPDEST PUSH2 0x1430 JUMP JUMPDEST PUSH1 0x0 PUSH1 0x20 DUP5 PUSH1 0x0 ADD MLOAD MLOAD PUSH2 0x13F9 SWAP2 SWAP1 PUSH2 0x1F27 JUMP JUMPDEST EQ DUP1 ISZERO PUSH2 0x1426 JUMPI POP PUSH1 0x1 PUSH2 0x100 PUSH1 0x1 DUP6 PUSH1 0x40 ADD MLOAD PUSH2 0x1417 SWAP2 SWAP1 PUSH2 0x1F87 JUMP JUMPDEST PUSH2 0x1421 SWAP2 SWAP1 PUSH2 0x1F27 JUMP JUMPDEST DUP4 SWAP1 SHR EQ JUMPDEST PUSH2 0x142F JUMPI PUSH1 0x0 DUP1 REVERT JUMPDEST JUMPDEST PUSH1 0x0 PUSH20 0x0 PUSH4 0xBC39804E DUP12 PUSH1 0x0 ADD MLOAD DUP12 PUSH1 0x0 ADD MLOAD PUSH1 0x0 PUSH1 0x40 MLOAD DUP5 PUSH4 0xFFFFFFFF AND PUSH1 0xE0 SHL DUP2 MSTORE PUSH1 0x4 ADD PUSH2 0x1476 SWAP4 SWAP3 SWAP2 SWAP1 PUSH2 0x2307 JUMP JUMPDEST PUSH1 0x20 PUSH1 0x40 MLOAD DUP1 DUP4 SUB DUP2 DUP7 GAS DELEGATECALL ISZERO DUP1 ISZERO PUSH2 0x1493 JUMPI RETURNDATASIZE PUSH1 0x0 DUP1 RETURNDATACOPY RETURNDATASIZE PUSH1 0x0 REVERT JUMPDEST POP POP POP POP PUSH1 0x40 MLOAD RETURNDATASIZE PUSH1 0x1F NOT PUSH1 0x1F DUP3 ADD AND DUP3 ADD DUP1 PUSH1 0x40 MSTORE POP DUP2 ADD SWAP1 PUSH2 0x14B7 SWAP2 SWAP1 PUSH2 0x2382 JUMP JUMPDEST EQ SWAP7 POP POP POP POP POP POP POP SWAP3 SWAP2 POP POP JUMP JUMPDEST PUSH2 0x14CE PUSH2 0x17F2 JUMP JUMPDEST DUP3 PUSH1 0x0 ADD MLOAD PUSH1 0x0 ISZERO ISZERO DUP2 PUSH1 0x20 ADD MLOAD ISZERO ISZERO EQ PUSH2 0x14E8 JUMPI PUSH1 0x0 DUP1 REVERT JUMPDEST PUSH1 0x0 DUP1 DUP3 PUSH1 0x0 ADD MLOAD SWAP1 POP PUSH1 0x20 DUP2 ADD MLOAD SWAP2 POP PUSH1 0x0 DUP3 SUB PUSH2 0x1587 JUMPI PUSH20 0x0 PUSH4 0x8D78767 DUP5 PUSH1 0x40 MLOAD DUP3 PUSH4 0xFFFFFFFF AND PUSH1 0xE0 SHL DUP2 MSTORE PUSH1 0x4 ADD PUSH2 0x1538 SWAP2 SWAP1 PUSH2 0x1E94 JUMP JUMPDEST PUSH1 0x20 PUSH1 0x40 MLOAD DUP1 DUP4 SUB DUP2 DUP7 GAS DELEGATECALL ISZERO DUP1 ISZERO PUSH2 0x1555 JUMPI RETURNDATASIZE PUSH1 0x0 DUP1 RETURNDATACOPY RETURNDATASIZE PUSH1 0x0 REVERT JUMPDEST POP POP POP POP PUSH1 0x40 MLOAD RETURNDATASIZE PUSH1 0x1F NOT PUSH1 0x1F DUP3 ADD AND DUP3 ADD DUP1 PUSH1 0x40 MSTORE POP DUP2 ADD SWAP1 PUSH2 0x1579 SWAP2 SWAP1 PUSH2 0x1ECB JUMP JUMPDEST PUSH2 0x1582 JUMPI PUSH1 0x0 DUP1 REVERT JUMPDEST PUSH2 0x15D2 JUMP JUMPDEST PUSH1 0x0 PUSH1 0x20 DUP5 PUSH1 0x0 ADD MLOAD MLOAD PUSH2 0x159B SWAP2 SWAP1 PUSH2 0x1F27 JUMP JUMPDEST EQ DUP1 ISZERO PUSH2 0x15C8 JUMPI POP PUSH1 0x1 PUSH2 0x100 PUSH1 0x1 DUP6 PUSH1 0x40 ADD MLOAD PUSH2 0x15B9 SWAP2 SWAP1 PUSH2 0x1F87 JUMP JUMPDEST PUSH2 0x15C3 SWAP2 SWAP1 PUSH2 0x1F27 JUMP JUMPDEST DUP4 SWAP1 SHR EQ JUMPDEST PUSH2 0x15D1 JUMPI PUSH1 0x0 DUP1 REVERT JUMPDEST JUMPDEST DUP5 PUSH1 0x0 ADD MLOAD PUSH1 0x0 ISZERO ISZERO DUP2 PUSH1 0x20 ADD MLOAD ISZERO ISZERO EQ PUSH2 0x15EC JUMPI PUSH1 0x0 DUP1 REVERT JUMPDEST PUSH1 0x0 DUP1 DUP3 PUSH1 0x0 ADD MLOAD SWAP1 POP PUSH1 0x20 DUP2 ADD MLOAD SWAP2 POP PUSH1 0x0 DUP3 SUB PUSH2 0x168B JUMPI PUSH20 0x0 PUSH4 0x8D78767 DUP5 PUSH1 0x40 MLOAD DUP3 PUSH4 0xFFFFFFFF AND PUSH1 0xE0 SHL DUP2 MSTORE PUSH1 0x4 ADD PUSH2 0x163C SWAP2 SWAP1 PUSH2 0x1E94 JUMP JUMPDEST PUSH1 0x20 PUSH1 0x40 MLOAD DUP1 DUP4 SUB DUP2 DUP7 GAS DELEGATECALL ISZERO DUP1 ISZERO PUSH2 0x1659 JUMPI RETURNDATASIZE PUSH1 0x0 DUP1 RETURNDATACOPY RETURNDATASIZE PUSH1 0x0 REVERT JUMPDEST POP POP POP POP PUSH1 0x40 MLOAD RETURNDATASIZE PUSH1 0x1F NOT PUSH1 0x1F DUP3 ADD AND DUP3 ADD DUP1 PUSH1 0x40 MSTORE POP DUP2 ADD SWAP1 PUSH2 0x167D SWAP2 SWAP1 PUSH2 0x1ECB JUMP JUMPDEST PUSH2 0x1686 JUMPI PUSH1 0x0 DUP1 REVERT JUMPDEST PUSH2 0x16D6 JUMP JUMPDEST PUSH1 0x0 PUSH1 0x20 DUP5 PUSH1 0x0 ADD MLOAD MLOAD PUSH2 0x169F SWAP2 SWAP1 PUSH2 0x1F27 JUMP JUMPDEST EQ DUP1 ISZERO PUSH2 0x16CC JUMPI POP PUSH1 0x1 PUSH2 0x100 PUSH1 0x1 DUP6 PUSH1 0x40 ADD MLOAD PUSH2 0x16BD SWAP2 SWAP1 PUSH2 0x1F87 JUMP JUMPDEST PUSH2 0x16C7 SWAP2 SWAP1 PUSH2 0x1F27 JUMP JUMPDEST DUP4 SWAP1 SHR EQ JUMPDEST PUSH2 0x16D5 JUMPI PUSH1 0x0 DUP1 REVERT JUMPDEST JUMPDEST PUSH2 0x17E4 PUSH20 0x0 PUSH4 0x7AFA8553 PUSH20 0x0 PUSH4 0xA4638FD DUP14 PUSH1 0x0 ADD MLOAD DUP14 PUSH1 0x0 ADD MLOAD PUSH1 0x40 MLOAD DUP4 PUSH4 0xFFFFFFFF AND PUSH1 0xE0 SHL DUP2 MSTORE PUSH1 0x4 ADD PUSH2 0x1734 SWAP3 SWAP2 SWAP1 PUSH2 0x24AF JUMP JUMPDEST PUSH1 0x0 PUSH1 0x40 MLOAD DUP1 DUP4 SUB DUP2 DUP7 GAS DELEGATECALL ISZERO DUP1 ISZERO PUSH2 0x1751 JUMPI RETURNDATASIZE PUSH1 0x0 DUP1 RETURNDATACOPY RETURNDATASIZE PUSH1 0x0 REVERT JUMPDEST POP POP POP POP PUSH1 0x40 MLOAD RETURNDATASIZE PUSH1 0x0 DUP3 RETURNDATACOPY RETURNDATASIZE PUSH1 0x1F NOT PUSH1 0x1F DUP3 ADD AND DUP3 ADD DUP1 PUSH1 0x40 MSTORE POP DUP2 ADD SWAP1 PUSH2 0x177A SWAP2 SWAP1 PUSH2 0x22AF JUMP JUMPDEST PUSH1 0x0 PUSH1 0x40 MLOAD DUP4 PUSH4 0xFFFFFFFF AND PUSH1 0xE0 SHL DUP2 MSTORE PUSH1 0x4 ADD PUSH2 0x1799 SWAP3 SWAP2 SWAP1 PUSH2 0x2173 JUMP JUMPDEST PUSH1 0x0 PUSH1 0x40 MLOAD DUP1 DUP4 SUB DUP2 DUP7 GAS DELEGATECALL ISZERO DUP1 ISZERO PUSH2 0x17B6 JUMPI RETURNDATASIZE PUSH1 0x0 DUP1 RETURNDATACOPY RETURNDATASIZE PUSH1 0x0 REVERT JUMPDEST POP POP POP POP PUSH1 0x40 MLOAD RETURNDATASIZE PUSH1 0x0 DUP3 RETURNDATACOPY RETURNDATASIZE PUSH1 0x1F NOT PUSH1 0x1F DUP3 ADD AND DUP3 ADD DUP1 PUSH1 0x40 MSTORE POP DUP2 ADD SWAP1 PUSH2 0x17DF SWAP2 SWAP1 PUSH2 0x22AF JUMP JUMPDEST PUSH2 0x5A8 JUMP JUMPDEST SWAP7 POP POP POP POP POP POP POP SWAP3 SWAP2 POP POP JUMP JUMPDEST PUSH1 0x40 MLOAD DUP1 PUSH1 0x20 ADD PUSH1 0x40 MSTORE DUP1 PUSH2 0x1805 PUSH2 0x180B JUMP JUMPDEST DUP2 MSTORE POP SWAP1 JUMP JUMPDEST PUSH1 0x40 MLOAD DUP1 PUSH1 0x60 ADD PUSH1 0x40 MSTORE DUP1 PUSH1 0x60 DUP2 MSTORE PUSH1 0x20 ADD PUSH1 0x0 ISZERO ISZERO DUP2 MSTORE PUSH1 0x20 ADD PUSH1 0x0 DUP2 MSTORE POP SWAP1 JUMP JUMPDEST PUSH1 0x0 PUSH1 0x40 MLOAD SWAP1 POP SWAP1 JUMP JUMPDEST PUSH1 0x0 DUP1 REVERT JUMPDEST PUSH1 0x0 DUP1 REVERT JUMPDEST PUSH1 0x0 DUP1 REVERT JUMPDEST PUSH1 0x0 PUSH1 0x1F NOT PUSH1 0x1F DUP4 ADD AND SWAP1 POP SWAP2 SWAP1 POP JUMP JUMPDEST PUSH32 0x4E487B7100000000000000000000000000000000000000000000000000000000 PUSH1 0x0 MSTORE PUSH1 0x41 PUSH1 0x4 MSTORE PUSH1 0x24 PUSH1 0x0 REVERT JUMPDEST PUSH2 0x1890 DUP3 PUSH2 0x1847 JUMP JUMPDEST DUP2 ADD DUP2 DUP2 LT PUSH8 0xFFFFFFFFFFFFFFFF DUP3 GT OR ISZERO PUSH2 0x18AF JUMPI PUSH2 0x18AE PUSH2 0x1858 JUMP JUMPDEST JUMPDEST DUP1 PUSH1 0x40 MSTORE POP POP POP JUMP JUMPDEST PUSH1 0x0 PUSH2 0x18C2 PUSH2 0x182E JUMP JUMPDEST SWAP1 POP PUSH2 0x18CE DUP3 DUP3 PUSH2 0x1887 JUMP JUMPDEST SWAP2 SWAP1 POP JUMP JUMPDEST PUSH1 0x0 DUP1 REVERT JUMPDEST PUSH1 0x0 DUP1 REVERT JUMPDEST PUSH1 0x0 DUP1 REVERT JUMPDEST PUSH1 0x0 PUSH8 0xFFFFFFFFFFFFFFFF DUP3 GT ISZERO PUSH2 0x18FD JUMPI PUSH2 0x18FC PUSH2 0x1858 JUMP JUMPDEST JUMPDEST PUSH2 0x1906 DUP3 PUSH2 0x1847 JUMP JUMPDEST SWAP1 POP PUSH1 0x20 DUP2 ADD SWAP1 POP SWAP2 SWAP1 POP JUMP JUMPDEST DUP3 DUP2 DUP4 CALLDATACOPY PUSH1 0x0 DUP4 DUP4 ADD MSTORE POP POP POP JUMP JUMPDEST PUSH1 0x0 PUSH2 0x1935 PUSH2 0x1930 DUP5 PUSH2 0x18E2 JUMP JUMPDEST PUSH2 0x18B8 JUMP JUMPDEST SWAP1 POP DUP3 DUP2 MSTORE PUSH1 0x20 DUP2 ADD DUP5 DUP5 DUP5 ADD GT ISZERO PUSH2 0x1951 JUMPI PUSH2 0x1950 PUSH2 0x18DD JUMP JUMPDEST JUMPDEST PUSH2 0x195C DUP5 DUP3 DUP6 PUSH2 0x1913 JUMP JUMPDEST POP SWAP4 SWAP3 POP POP POP JUMP JUMPDEST PUSH1 0x0 DUP3 PUSH1 0x1F DUP4 ADD SLT PUSH2 0x1979 JUMPI PUSH2 0x1978 PUSH2 0x18D8 JUMP JUMPDEST JUMPDEST DUP2 CALLDATALOAD PUSH2 0x1989 DUP5 DUP3 PUSH1 0x20 DUP7 ADD PUSH2 0x1922 JUMP JUMPDEST SWAP2 POP POP SWAP3 SWAP2 POP POP JUMP JUMPDEST PUSH1 0x0 DUP2 ISZERO ISZERO SWAP1 POP SWAP2 SWAP1 POP JUMP JUMPDEST PUSH2 0x19A7 DUP2 PUSH2 0x1992 JUMP JUMPDEST DUP2 EQ PUSH2 0x19B2 JUMPI PUSH1 0x0 DUP1 REVERT JUMPDEST POP JUMP JUMPDEST PUSH1 0x0 DUP2 CALLDATALOAD SWAP1 POP PUSH2 0x19C4 DUP2 PUSH2 0x199E JUMP JUMPDEST SWAP3 SWAP2 POP POP JUMP JUMPDEST PUSH1 0x0 DUP2 SWAP1 POP SWAP2 SWAP1 POP JUMP JUMPDEST PUSH2 0x19DD DUP2 PUSH2 0x19CA JUMP JUMPDEST DUP2 EQ PUSH2 0x19E8 JUMPI PUSH1 0x0 DUP1 REVERT JUMPDEST POP JUMP JUMPDEST PUSH1 0x0 DUP2 CALLDATALOAD SWAP1 POP PUSH2 0x19FA DUP2 PUSH2 0x19D4 JUMP JUMPDEST SWAP3 SWAP2 POP POP JUMP JUMPDEST PUSH1 0x0 PUSH1 0x60 DUP3 DUP5 SUB SLT ISZERO PUSH2 0x1A16 JUMPI PUSH2 0x1A15 PUSH2 0x1842 JUMP JUMPDEST JUMPDEST PUSH2 0x1A20 PUSH1 0x60 PUSH2 0x18B8 JUMP JUMPDEST SWAP1 POP PUSH1 0x0 DUP3 ADD CALLDATALOAD PUSH8 0xFFFFFFFFFFFFFFFF DUP2 GT ISZERO PUSH2 0x1A40 JUMPI PUSH2 0x1A3F PUSH2 0x18D3 JUMP JUMPDEST JUMPDEST PUSH2 0x1A4C DUP5 DUP3 DUP6 ADD PUSH2 0x1964 JUMP JUMPDEST PUSH1 0x0 DUP4 ADD MSTORE POP PUSH1 0x20 PUSH2 0x1A60 DUP5 DUP3 DUP6 ADD PUSH2 0x19B5 JUMP JUMPDEST PUSH1 0x20 DUP4 ADD MSTORE POP PUSH1 0x40 PUSH2 0x1A74 DUP5 DUP3 DUP6 ADD PUSH2 0x19EB JUMP JUMPDEST PUSH1 0x40 DUP4 ADD MSTORE POP SWAP3 SWAP2 POP POP JUMP JUMPDEST PUSH1 0x0 PUSH1 0x20 DUP3 DUP5 SUB SLT ISZERO PUSH2 0x1A96 JUMPI PUSH2 0x1A95 PUSH2 0x1842 JUMP JUMPDEST JUMPDEST PUSH2 0x1AA0 PUSH1 0x20 PUSH2 0x18B8 JUMP JUMPDEST SWAP1 POP PUSH1 0x0 DUP3 ADD CALLDATALOAD PUSH8 0xFFFFFFFFFFFFFFFF DUP2 GT ISZERO PUSH2 0x1AC0 JUMPI PUSH2 0x1ABF PUSH2 0x18D3 JUMP JUMPDEST JUMPDEST PUSH2 0x1ACC DUP5 DUP3 DUP6 ADD PUSH2 0x1A00 JUMP JUMPDEST PUSH1 0x0 DUP4 ADD MSTORE POP SWAP3 SWAP2 POP POP JUMP JUMPDEST PUSH1 0x0 PUSH1 0x20 DUP3 DUP5 SUB SLT ISZERO PUSH2 0x1AEE JUMPI PUSH2 0x1AED PUSH2 0x1838 JUMP JUMPDEST JUMPDEST PUSH1 0x0 DUP3 ADD CALLDATALOAD PUSH8 0xFFFFFFFFFFFFFFFF DUP2 GT ISZERO PUSH2 0x1B0C JUMPI PUSH2 0x1B0B PUSH2 0x183D JUMP JUMPDEST JUMPDEST PUSH2 0x1B18 DUP5 DUP3 DUP6 ADD PUSH2 0x1A80 JUMP JUMPDEST SWAP2 POP POP SWAP3 SWAP2 POP POP JUMP JUMPDEST PUSH1 0x0 DUP2 MLOAD SWAP1 POP SWAP2 SWAP1 POP JUMP JUMPDEST PUSH1 0x0 DUP3 DUP3 MSTORE PUSH1 0x20 DUP3 ADD SWAP1 POP SWAP3 SWAP2 POP POP JUMP JUMPDEST PUSH1 0x0 JUMPDEST DUP4 DUP2 LT ISZERO PUSH2 0x1B5B JUMPI DUP1 DUP3 ADD MLOAD DUP2 DUP5 ADD MSTORE PUSH1 0x20 DUP2 ADD SWAP1 POP PUSH2 0x1B40 JUMP JUMPDEST PUSH1 0x0 DUP5 DUP5 ADD MSTORE POP POP POP POP JUMP JUMPDEST PUSH1 0x0 PUSH2 0x1B72 DUP3 PUSH2 0x1B21 JUMP JUMPDEST PUSH2 0x1B7C DUP2 DUP6 PUSH2 0x1B2C JUMP JUMPDEST SWAP4 POP PUSH2 0x1B8C DUP2 DUP6 PUSH1 0x20 DUP7 ADD PUSH2 0x1B3D JUMP JUMPDEST PUSH2 0x1B95 DUP2 PUSH2 0x1847 JUMP JUMPDEST DUP5 ADD SWAP2 POP POP SWAP3 SWAP2 POP POP JUMP JUMPDEST PUSH2 0x1BA9 DUP2 PUSH2 0x1992 JUMP JUMPDEST DUP3 MSTORE POP POP JUMP JUMPDEST PUSH2 0x1BB8 DUP2 PUSH2 0x19CA JUMP JUMPDEST DUP3 MSTORE POP POP JUMP JUMPDEST PUSH1 0x0 PUSH1 0x60 DUP4 ADD PUSH1 0x0 DUP4 ADD MLOAD DUP5 DUP3 SUB PUSH1 0x0 DUP7 ADD MSTORE PUSH2 0x1BDB DUP3 DUP3 PUSH2 0x1B67 JUMP JUMPDEST SWAP2 POP POP PUSH1 0x20 DUP4 ADD MLOAD PUSH2 0x1BF0 PUSH1 0x20 DUP7 ADD DUP3 PUSH2 0x1BA0 JUMP JUMPDEST POP PUSH1 0x40 DUP4 ADD MLOAD PUSH2 0x1C03 PUSH1 0x40 DUP7 ADD DUP3 PUSH2 0x1BAF JUMP JUMPDEST POP DUP1 SWAP2 POP POP SWAP3 SWAP2 POP POP JUMP JUMPDEST PUSH1 0x0 PUSH1 0x20 DUP4 ADD PUSH1 0x0 DUP4 ADD MLOAD DUP5 DUP3 SUB PUSH1 0x0 DUP7 ADD MSTORE PUSH2 0x1C2B DUP3 DUP3 PUSH2 0x1BBE JUMP JUMPDEST SWAP2 POP POP DUP1 SWAP2 POP POP SWAP3 SWAP2 POP POP JUMP JUMPDEST PUSH1 0x0 PUSH1 0x20 DUP3 ADD SWAP1 POP DUP2 DUP2 SUB PUSH1 0x0 DUP4 ADD MSTORE PUSH2 0x1C52 DUP2 DUP5 PUSH2 0x1C0E JUMP JUMPDEST SWAP1 POP SWAP3 SWAP2 POP POP JUMP JUMPDEST PUSH1 0x0 DUP1 PUSH1 0x40 DUP4 DUP6 SUB SLT ISZERO PUSH2 0x1C71 JUMPI PUSH2 0x1C70 PUSH2 0x1838 JUMP JUMPDEST JUMPDEST PUSH1 0x0 DUP4 ADD CALLDATALOAD PUSH8 0xFFFFFFFFFFFFFFFF DUP2 GT ISZERO PUSH2 0x1C8F JUMPI PUSH2 0x1C8E PUSH2 0x183D JUMP JUMPDEST JUMPDEST PUSH2 0x1C9B DUP6 DUP3 DUP7 ADD PUSH2 0x1A80 JUMP JUMPDEST SWAP3 POP POP PUSH1 0x20 DUP4 ADD CALLDATALOAD PUSH8 0xFFFFFFFFFFFFFFFF DUP2 GT ISZERO PUSH2 0x1CBC JUMPI PUSH2 0x1CBB PUSH2 0x183D JUMP JUMPDEST JUMPDEST PUSH2 0x1CC8 DUP6 DUP3 DUP7 ADD PUSH2 0x1A80 JUMP JUMPDEST SWAP2 POP POP SWAP3 POP SWAP3 SWAP1 POP JUMP JUMPDEST PUSH1 0x0 PUSH1 0x20 DUP3 DUP5 SUB SLT ISZERO PUSH2 0x1CE8 JUMPI PUSH2 0x1CE7 PUSH2 0x1838 JUMP JUMPDEST JUMPDEST PUSH1 0x0 DUP3 ADD CALLDATALOAD PUSH8 0xFFFFFFFFFFFFFFFF DUP2 GT ISZERO PUSH2 0x1D06 JUMPI PUSH2 0x1D05 PUSH2 0x183D JUMP JUMPDEST JUMPDEST PUSH2 0x1D12 DUP5 DUP3 DUP6 ADD PUSH2 0x1A00 JUMP JUMPDEST SWAP2 POP POP SWAP3 SWAP2 POP POP JUMP JUMPDEST PUSH1 0x0 DUP3 DUP3 MSTORE PUSH1 0x20 DUP3 ADD SWAP1 POP SWAP3 SWAP2 POP POP JUMP JUMPDEST PUSH1 0x0 PUSH2 0x1D37 DUP3 PUSH2 0x1B21 JUMP JUMPDEST PUSH2 0x1D41 DUP2 DUP6 PUSH2 0x1D1B JUMP JUMPDEST SWAP4 POP PUSH2 0x1D51 DUP2 DUP6 PUSH1 0x20 DUP7 ADD PUSH2 0x1B3D JUMP JUMPDEST PUSH2 0x1D5A DUP2 PUSH2 0x1847 JUMP JUMPDEST DUP5 ADD SWAP2 POP POP SWAP3 SWAP2 POP POP JUMP JUMPDEST PUSH2 0x1D6E DUP2 PUSH2 0x1992 JUMP JUMPDEST DUP3 MSTORE POP POP JUMP JUMPDEST PUSH2 0x1D7D DUP2 PUSH2 0x19CA JUMP JUMPDEST DUP3 MSTORE POP POP JUMP JUMPDEST PUSH1 0x0 PUSH1 0x60 DUP3 ADD SWAP1 POP DUP2 DUP2 SUB PUSH1 0x0 DUP4 ADD MSTORE PUSH2 0x1D9D DUP2 DUP7 PUSH2 0x1D2C JUMP JUMPDEST SWAP1 POP PUSH2 0x1DAC PUSH1 0x20 DUP4 ADD DUP6 PUSH2 0x1D65 JUMP JUMPDEST PUSH2 0x1DB9 PUSH1 0x40 DUP4 ADD DUP5 PUSH2 0x1D74 JUMP JUMPDEST SWAP5 SWAP4 POP POP POP POP JUMP JUMPDEST PUSH1 0x0 PUSH1 0x20 DUP3 ADD SWAP1 POP PUSH2 0x1DD6 PUSH1 0x0 DUP4 ADD DUP5 PUSH2 0x1D65 JUMP JUMPDEST SWAP3 SWAP2 POP POP JUMP JUMPDEST PUSH1 0x0 DUP3 DUP3 MSTORE PUSH1 0x20 DUP3 ADD SWAP1 POP SWAP3 SWAP2 POP POP JUMP JUMPDEST PUSH1 0x0 PUSH2 0x1DF8 DUP3 PUSH2 0x1B21 JUMP JUMPDEST PUSH2 0x1E02 DUP2 DUP6 PUSH2 0x1DDC JUMP JUMPDEST SWAP4 POP PUSH2 0x1E12 DUP2 DUP6 PUSH1 0x20 DUP7 ADD PUSH2 0x1B3D JUMP JUMPDEST PUSH2 0x1E1B DUP2 PUSH2 0x1847 JUMP JUMPDEST DUP5 ADD SWAP2 POP POP SWAP3 SWAP2 POP POP JUMP JUMPDEST PUSH2 0x1E2F DUP2 PUSH2 0x1992 JUMP JUMPDEST DUP3 MSTORE POP POP JUMP JUMPDEST PUSH2 0x1E3E DUP2 PUSH2 0x19CA JUMP JUMPDEST DUP3 MSTORE POP POP JUMP JUMPDEST PUSH1 0x0 PUSH1 0x60 DUP4 ADD PUSH1 0x0 DUP4 ADD MLOAD DUP5 DUP3 SUB PUSH1 0x0 DUP7 ADD MSTORE PUSH2 0x1E61 DUP3 DUP3 PUSH2 0x1DED JUMP JUMPDEST SWAP2 POP POP PUSH1 0x20 DUP4 ADD MLOAD PUSH2 0x1E76 PUSH1 0x20 DUP7 ADD DUP3 PUSH2 0x1E26 JUMP JUMPDEST POP PUSH1 0x40 DUP4 ADD MLOAD PUSH2 0x1E89 PUSH1 0x40 DUP7 ADD DUP3 PUSH2 0x1E35 JUMP JUMPDEST POP DUP1 SWAP2 POP POP SWAP3 SWAP2 POP POP JUMP JUMPDEST PUSH1 0x0 PUSH1 0x20 DUP3 ADD SWAP1 POP DUP2 DUP2 SUB PUSH1 0x0 DUP4 ADD MSTORE PUSH2 0x1EAE DUP2 DUP5 PUSH2 0x1E44 JUMP JUMPDEST SWAP1 POP SWAP3 SWAP2 POP POP JUMP JUMPDEST PUSH1 0x0 DUP2 MLOAD SWAP1 POP PUSH2 0x1EC5 DUP2 PUSH2 0x199E JUMP JUMPDEST SWAP3 SWAP2 POP POP JUMP JUMPDEST PUSH1 0x0 PUSH1 0x20 DUP3 DUP5 SUB SLT ISZERO PUSH2 0x1EE1 JUMPI PUSH2 0x1EE0 PUSH2 0x1838 JUMP JUMPDEST JUMPDEST PUSH1 0x0 PUSH2 0x1EEF DUP5 DUP3 DUP6 ADD PUSH2 0x1EB6 JUMP JUMPDEST SWAP2 POP POP SWAP3 SWAP2 POP POP JUMP JUMPDEST PUSH32 0x4E487B7100000000000000000000000000000000000000000000000000000000 PUSH1 0x0 MSTORE PUSH1 0x12 PUSH1 0x4 MSTORE PUSH1 0x24 PUSH1 0x0 REVERT JUMPDEST PUSH1 0x0 PUSH2 0x1F32 DUP3 PUSH2 0x19CA JUMP JUMPDEST SWAP2 POP PUSH2 0x1F3D DUP4 PUSH2 0x19CA JUMP JUMPDEST SWAP3 POP DUP3 PUSH2 0x1F4D JUMPI PUSH2 0x1F4C PUSH2 0x1EF8 JUMP JUMPDEST JUMPDEST DUP3 DUP3 MOD SWAP1 POP SWAP3 SWAP2 POP POP JUMP JUMPDEST PUSH32 0x4E487B7100000000000000000000000000000000000000000000000000000000 PUSH1 0x0 MSTORE PUSH1 0x11 PUSH1 0x4 MSTORE PUSH1 0x24 PUSH1 0x0 REVERT JUMPDEST PUSH1 0x0 PUSH2 0x1F92 DUP3 PUSH2 0x19CA JUMP JUMPDEST SWAP2 POP PUSH2 0x1F9D DUP4 PUSH2 0x19CA JUMP JUMPDEST SWAP3 POP DUP3 DUP3 SUB SWAP1 POP DUP2 DUP2 GT ISZERO PUSH2 0x1FB5 JUMPI PUSH2 0x1FB4 PUSH2 0x1F58 JUMP JUMPDEST JUMPDEST SWAP3 SWAP2 POP POP JUMP JUMPDEST PUSH32 0x4E487B7100000000000000000000000000000000000000000000000000000000 PUSH1 0x0 MSTORE PUSH1 0x22 PUSH1 0x4 MSTORE PUSH1 0x24 PUSH1 0x0 REVERT JUMPDEST PUSH1 0x0 PUSH1 0x2 DUP3 DIV SWAP1 POP PUSH1 0x1 DUP3 AND DUP1 PUSH2 0x2002 JUMPI PUSH1 0x7F DUP3 AND SWAP2 POP JUMPDEST PUSH1 0x20 DUP3 LT DUP2 SUB PUSH2 0x2015 JUMPI PUSH2 0x2014 PUSH2 0x1FBB JUMP JUMPDEST JUMPDEST POP SWAP2 SWAP1 POP JUMP JUMPDEST PUSH1 0x0 DUP2 SWAP1 POP DUP2 PUSH1 0x0 MSTORE PUSH1 0x20 PUSH1 0x0 KECCAK256 SWAP1 POP SWAP2 SWAP1 POP JUMP JUMPDEST PUSH1 0x0 DUP2 SLOAD PUSH2 0x203D DUP2 PUSH2 0x1FEA JUMP JUMPDEST PUSH2 0x2047 DUP2 DUP7 PUSH2 0x1DDC JUMP JUMPDEST SWAP5 POP PUSH1 0x1 DUP3 AND PUSH1 0x0 DUP2 EQ PUSH2 0x2062 JUMPI PUSH1 0x1 DUP2 EQ PUSH2 0x2078 JUMPI PUSH2 0x20AB JUMP JUMPDEST PUSH1 0xFF NOT DUP4 AND DUP7 MSTORE DUP2 ISZERO ISZERO PUSH1 0x20 MUL DUP7 ADD SWAP4 POP PUSH2 0x20AB JUMP JUMPDEST PUSH2 0x2081 DUP6 PUSH2 0x201B JUMP JUMPDEST PUSH1 0x0 JUMPDEST DUP4 DUP2 LT ISZERO PUSH2 0x20A3 JUMPI DUP2 SLOAD DUP2 DUP10 ADD MSTORE PUSH1 0x1 DUP3 ADD SWAP2 POP PUSH1 0x20 DUP2 ADD SWAP1 POP PUSH2 0x2084 JUMP JUMPDEST DUP1 DUP9 ADD SWAP6 POP POP POP JUMPDEST POP POP POP SWAP3 SWAP2 POP POP JUMP JUMPDEST PUSH1 0x0 DUP2 PUSH1 0x0 SHR SWAP1 POP SWAP2 SWAP1 POP JUMP JUMPDEST PUSH1 0x0 PUSH1 0xFF DUP3 AND SWAP1 POP SWAP2 SWAP1 POP JUMP JUMPDEST PUSH1 0x0 PUSH2 0x20E1 PUSH2 0x20DC DUP4 PUSH2 0x20B4 JUMP JUMPDEST PUSH2 0x20C1 JUMP JUMPDEST SWAP1 POP SWAP2 SWAP1 POP JUMP JUMPDEST PUSH1 0x0 DUP2 SWAP1 POP SWAP2 SWAP1 POP JUMP JUMPDEST PUSH1 0x0 PUSH2 0x2105 PUSH2 0x2100 DUP4 PUSH2 0x20B4 JUMP JUMPDEST PUSH2 0x20E8 JUMP JUMPDEST SWAP1 POP SWAP2 SWAP1 POP JUMP JUMPDEST PUSH1 0x0 PUSH1 0x60 DUP4 ADD PUSH1 0x0 DUP1 DUP5 ADD DUP6 DUP4 SUB PUSH1 0x0 DUP8 ADD MSTORE PUSH2 0x2129 DUP4 DUP3 PUSH2 0x2030 JUMP JUMPDEST SWAP3 POP POP PUSH1 0x1 DUP5 ADD SLOAD SWAP1 POP PUSH2 0x213C DUP2 PUSH2 0x20CE JUMP JUMPDEST PUSH2 0x2149 PUSH1 0x20 DUP8 ADD DUP3 PUSH2 0x1E26 JUMP JUMPDEST POP PUSH1 0x2 DUP5 ADD SLOAD SWAP1 POP PUSH2 0x215A DUP2 PUSH2 0x20F2 JUMP JUMPDEST PUSH2 0x2167 PUSH1 0x40 DUP8 ADD DUP3 PUSH2 0x1E35 JUMP JUMPDEST POP DUP2 SWAP3 POP POP POP SWAP3 SWAP2 POP POP JUMP JUMPDEST PUSH1 0x0 PUSH1 0x40 DUP3 ADD SWAP1 POP DUP2 DUP2 SUB PUSH1 0x0 DUP4 ADD MSTORE PUSH2 0x218D DUP2 DUP6 PUSH2 0x1E44 JUMP JUMPDEST SWAP1 POP DUP2 DUP2 SUB PUSH1 0x20 DUP4 ADD MSTORE PUSH2 0x21A1 DUP2 DUP5 PUSH2 0x210C JUMP JUMPDEST SWAP1 POP SWAP4 SWAP3 POP POP POP JUMP JUMPDEST PUSH1 0x0 PUSH2 0x21BD PUSH2 0x21B8 DUP5 PUSH2 0x18E2 JUMP JUMPDEST PUSH2 0x18B8 JUMP JUMPDEST SWAP1 POP DUP3 DUP2 MSTORE PUSH1 0x20 DUP2 ADD DUP5 DUP5 DUP5 ADD GT ISZERO PUSH2 0x21D9 JUMPI PUSH2 0x21D8 PUSH2 0x18DD JUMP JUMPDEST JUMPDEST PUSH2 0x21E4 DUP5 DUP3 DUP6 PUSH2 0x1B3D JUMP JUMPDEST POP SWAP4 SWAP3 POP POP POP JUMP JUMPDEST PUSH1 0x0 DUP3 PUSH1 0x1F DUP4 ADD SLT PUSH2 0x2201 JUMPI PUSH2 0x2200 PUSH2 0x18D8 JUMP JUMPDEST JUMPDEST DUP2 MLOAD PUSH2 0x2211 DUP5 DUP3 PUSH1 0x20 DUP7 ADD PUSH2 0x21AA JUMP JUMPDEST SWAP2 POP POP SWAP3 SWAP2 POP POP JUMP JUMPDEST PUSH1 0x0 DUP2 MLOAD SWAP1 POP PUSH2 0x2229 DUP2 PUSH2 0x19D4 JUMP JUMPDEST SWAP3 SWAP2 POP POP JUMP JUMPDEST PUSH1 0x0 PUSH1 0x60 DUP3 DUP5 SUB SLT ISZERO PUSH2 0x2245 JUMPI PUSH2 0x2244 PUSH2 0x1842 JUMP JUMPDEST JUMPDEST PUSH2 0x224F PUSH1 0x60 PUSH2 0x18B8 JUMP JUMPDEST SWAP1 POP PUSH1 0x0 DUP3 ADD MLOAD PUSH8 0xFFFFFFFFFFFFFFFF DUP2 GT ISZERO PUSH2 0x226F JUMPI PUSH2 0x226E PUSH2 0x18D3 JUMP JUMPDEST JUMPDEST PUSH2 0x227B DUP5 DUP3 DUP6 ADD PUSH2 0x21EC JUMP JUMPDEST PUSH1 0x0 DUP4 ADD MSTORE POP PUSH1 0x20 PUSH2 0x228F DUP5 DUP3 DUP6 ADD PUSH2 0x1EB6 JUMP JUMPDEST PUSH1 0x20 DUP4 ADD MSTORE POP PUSH1 0x40 PUSH2 0x22A3 DUP5 DUP3 DUP6 ADD PUSH2 0x221A JUMP JUMPDEST PUSH1 0x40 DUP4 ADD MSTORE POP SWAP3 SWAP2 POP POP JUMP JUMPDEST PUSH1 0x0 PUSH1 0x20 DUP3 DUP5 SUB SLT ISZERO PUSH2 0x22C5 JUMPI PUSH2 0x22C4 PUSH2 0x1838 JUMP JUMPDEST JUMPDEST PUSH1 0x0 DUP3 ADD MLOAD PUSH8 0xFFFFFFFFFFFFFFFF DUP2 GT ISZERO PUSH2 0x22E3 JUMPI PUSH2 0x22E2 PUSH2 0x183D JUMP JUMPDEST JUMPDEST PUSH2 0x22EF DUP5 DUP3 DUP6 ADD PUSH2 0x222F JUMP JUMPDEST SWAP2 POP POP SWAP3 SWAP2 POP POP JUMP JUMPDEST PUSH2 0x2301 DUP2 PUSH2 0x1992 JUMP JUMPDEST DUP3 MSTORE POP POP JUMP JUMPDEST PUSH1 0x0 PUSH1 0x60 DUP3 ADD SWAP1 POP DUP2 DUP2 SUB PUSH1 0x0 DUP4 ADD MSTORE PUSH2 0x2321 DUP2 DUP7 PUSH2 0x1E44 JUMP JUMPDEST SWAP1 POP DUP2 DUP2 SUB PUSH1 0x20 DUP4 ADD MSTORE PUSH2 0x2335 DUP2 DUP6 PUSH2 0x1E44 JUMP JUMPDEST SWAP1 POP PUSH2 0x2344 PUSH1 0x40 DUP4 ADD DUP5 PUSH2 0x22F8 JUMP JUMPDEST SWAP5 SWAP4 POP POP POP POP JUMP JUMPDEST PUSH1 0x0 DUP2 SWAP1 POP SWAP2 SWAP1 POP JUMP JUMPDEST PUSH2 0x235F DUP2 PUSH2 0x234C JUMP JUMPDEST DUP2 EQ PUSH2 0x236A JUMPI PUSH1 0x0 DUP1 REVERT JUMPDEST POP JUMP JUMPDEST PUSH1 0x0 DUP2 MLOAD SWAP1 POP PUSH2 0x237C DUP2 PUSH2 0x2356 JUMP JUMPDEST SWAP3 SWAP2 POP POP JUMP JUMPDEST PUSH1 0x0 PUSH1 0x20 DUP3 DUP5 SUB SLT ISZERO PUSH2 0x2398 JUMPI PUSH2 0x2397 PUSH2 0x1838 JUMP JUMPDEST JUMPDEST PUSH1 0x0 PUSH2 0x23A6 DUP5 DUP3 DUP6 ADD PUSH2 0x236D JUMP JUMPDEST SWAP2 POP POP SWAP3 SWAP2 POP POP JUMP JUMPDEST PUSH1 0x0 DUP3 DUP3 MSTORE PUSH1 0x20 DUP3 ADD SWAP1 POP SWAP3 SWAP2 POP POP JUMP JUMPDEST PUSH32 0x496E766572736F20706572207A65726F206E6F6E20646566696E69746F2E0000 PUSH1 0x0 DUP3 ADD MSTORE POP JUMP JUMPDEST PUSH1 0x0 PUSH2 0x23F6 PUSH1 0x1E DUP4 PUSH2 0x23AF JUMP JUMPDEST SWAP2 POP PUSH2 0x2401 DUP3 PUSH2 0x23C0 JUMP JUMPDEST PUSH1 0x20 DUP3 ADD SWAP1 POP SWAP2 SWAP1 POP JUMP JUMPDEST PUSH1 0x0 PUSH1 0x20 DUP3 ADD SWAP1 POP DUP2 DUP2 SUB PUSH1 0x0 DUP4 ADD MSTORE PUSH2 0x2425 DUP2 PUSH2 0x23E9 JUMP JUMPDEST SWAP1 POP SWAP2 SWAP1 POP JUMP JUMPDEST PUSH1 0x0 PUSH1 0x40 DUP3 ADD SWAP1 POP DUP2 DUP2 SUB PUSH1 0x0 DUP4 ADD MSTORE PUSH2 0x2446 DUP2 DUP6 PUSH2 0x210C JUMP JUMPDEST SWAP1 POP DUP2 DUP2 SUB PUSH1 0x20 DUP4 ADD MSTORE PUSH2 0x245A DUP2 DUP5 PUSH2 0x1E44 JUMP JUMPDEST SWAP1 POP SWAP4 SWAP3 POP POP POP JUMP JUMPDEST PUSH1 0x0 PUSH1 0x60 DUP3 ADD SWAP1 POP DUP2 DUP2 SUB PUSH1 0x0 DUP4 ADD MSTORE PUSH2 0x247D DUP2 DUP7 PUSH2 0x1E44 JUMP JUMPDEST SWAP1 POP DUP2 DUP2 SUB PUSH1 0x20 DUP4 ADD MSTORE PUSH2 0x2491 DUP2 DUP6 PUSH2 0x1E44 JUMP JUMPDEST SWAP1 POP DUP2 DUP2 SUB PUSH1 0x40 DUP4 ADD MSTORE PUSH2 0x24A5 DUP2 DUP5 PUSH2 0x210C JUMP JUMPDEST SWAP1 POP SWAP5 SWAP4 POP POP POP POP JUMP JUMPDEST PUSH1 0x0 PUSH1 0x40 DUP3 ADD SWAP1 POP DUP2 DUP2 SUB PUSH1 0x0 DUP4 ADD MSTORE PUSH2 0x24C9 DUP2 DUP6 PUSH2 0x1E44 JUMP JUMPDEST SWAP1 POP DUP2 DUP2 SUB PUSH1 0x20 DUP4 ADD MSTORE PUSH2 0x24DD DUP2 DUP5 PUSH2 0x1E44 JUMP JUMPDEST SWAP1 POP SWAP4 SWAP3 POP POP POP JUMP INVALID LOG2 PUSH5 0x6970667358 0x22 SLT KECCAK256 RETURN DUP13 DUP3 PUSH14 0x7B35171A4AD4B810EDED1ACE3FF0 MOD ADD 0xD2 NOT PUSH15 0x1CC1DFE9910B9B07B164736F6C6343 STOP ADDMOD SHL STOP CALLER "},"methodIdentifiers":{"createElement((bytes,bool,uint256))":"17014742","div(((bytes,bool,uint256)),((bytes,bool,uint256)))":"12f7411b","equals(((bytes,bool,uint256)),((bytes,bool,uint256)))":"d4d45554","inverse(((bytes,bool,uint256)))":"a672d100","mul(((bytes,bool,uint256)),((bytes,bool,uint256)))":"b5e28325","mul_nonres(((bytes,bool,uint256)))":"085eb2b9","p()":"9ae8886a","sub(((bytes,bool,uint256)),((bytes,bool,uint256)))":"fb2bedad","sum(((bytes,bool,uint256)),((bytes,bool,uint256)))":"a9a52e7e","zero()":"bc1b392d"}}}}}