{"contracts/finiteField.sol":{"FiniteField":{"abi":[{"inputs":[{"internalType":"uint256","name":"prime","type":"uint256"}],"stateMutability":"nonpayable","type":"constructor"},{"inputs":[{"components":[{"internalType":"uint256","name":"value","type":"uint256"}],"internalType":"struct FiniteField.Zp","name":"a","type":"tuple"},{"components":[{"internalType":"uint256","name":"value","type":"uint256"}],"internalType":"struct FiniteField.Zp","name":"b","type":"tuple"}],"name":"add","outputs":[{"components":[{"internalType":"uint256","name":"value","type":"uint256"}],"internalType":"struct FiniteField.Zp","name":"","type":"tuple"}],"stateMutability":"view","type":"function"},{"inputs":[{"internalType":"uint256","name":"value","type":"uint256"}],"name":"createElement","outputs":[{"components":[{"internalType":"uint256","name":"value","type":"uint256"}],"internalType":"struct FiniteField.Zp","name":"","type":"tuple"}],"stateMutability":"view","type":"function"},{"inputs":[{"components":[{"internalType":"uint256","name":"value","type":"uint256"}],"internalType":"struct FiniteField.Zp","name":"a","type":"tuple"},{"components":[{"internalType":"uint256","name":"value","type":"uint256"}],"internalType":"struct FiniteField.Zp","name":"b","type":"tuple"}],"name":"div","outputs":[{"components":[{"internalType":"uint256","name":"value","type":"uint256"}],"internalType":"struct FiniteField.Zp","name":"","type":"tuple"}],"stateMutability":"view","type":"function"},{"inputs":[{"components":[{"internalType":"uint256","name":"value","type":"uint256"}],"internalType":"struct FiniteField.Zp","name":"a","type":"tuple"}],"name":"inverse","outputs":[{"components":[{"internalType":"uint256","name":"value","type":"uint256"}],"internalType":"struct FiniteField.Zp","name":"","type":"tuple"}],"stateMutability":"view","type":"function"},{"inputs":[{"components":[{"internalType":"uint256","name":"value","type":"uint256"}],"internalType":"struct FiniteField.Zp","name":"a","type":"tuple"},{"components":[{"internalType":"uint256","name":"value","type":"uint256"}],"internalType":"struct FiniteField.Zp","name":"b","type":"tuple"}],"name":"multiply","outputs":[{"components":[{"internalType":"uint256","name":"value","type":"uint256"}],"internalType":"struct FiniteField.Zp","name":"","type":"tuple"}],"stateMutability":"view","type":"function"},{"inputs":[],"name":"p","outputs":[{"internalType":"uint256","name":"","type":"uint256"}],"stateMutability":"view","type":"function"},{"inputs":[{"components":[{"internalType":"uint256","name":"value","type":"uint256"}],"internalType":"struct FiniteField.Zp","name":"a","type":"tuple"},{"components":[{"internalType":"uint256","name":"value","type":"uint256"}],"internalType":"struct FiniteField.Zp","name":"b","type":"tuple"}],"name":"subtract","outputs":[{"components":[{"internalType":"uint256","name":"value","type":"uint256"}],"internalType":"struct FiniteField.Zp","name":"","type":"tuple"}],"stateMutability":"view","type":"function"}],"evm":{"bytecode":{"linkReferences":{},"object":"608060405234801561001057600080fd5b5060405161101b38038061101b83398181016040528101906100329190610130565b6100418161008d60201b60201c565b610080576040517f08c379a0000000000000000000000000000000000000000000000000000000008152600401610077906101ba565b60405180910390fd5b80600081905550506102f3565b600060028210156100a157600090506100f0565b6000600290505b8281826100b59190610209565b116100ea57600081846100c8919061027a565b036100d75760009150506100f0565b80806100e2906102ab565b9150506100a8565b50600190505b919050565b600080fd5b6000819050919050565b61010d816100fa565b811461011857600080fd5b50565b60008151905061012a81610104565b92915050565b600060208284031215610146576101456100f5565b5b60006101548482850161011b565b91505092915050565b600082825260208201905092915050565b7f7020646576652065737365726520756e206e756d65726f207072696d6f2e0000600082015250565b60006101a4601e8361015d565b91506101af8261016e565b602082019050919050565b600060208201905081810360008301526101d381610197565b9050919050565b7f4e487b7100000000000000000000000000000000000000000000000000000000600052601160045260246000fd5b6000610214826100fa565b915061021f836100fa565b925082820261022d816100fa565b91508282048414831517610244576102436101da565b5b5092915050565b7f4e487b7100000000000000000000000000000000000000000000000000000000600052601260045260246000fd5b6000610285826100fa565b9150610290836100fa565b9250826102a05761029f61024b565b5b828206905092915050565b60006102b6826100fa565b91507fffffffffffffffffffffffffffffffffffffffffffffffffffffffffffffffff82036102e8576102e76101da565b5b600182019050919050565b610d19806103026000396000f3fe608060405234801561001057600080fd5b506004361061007d5760003560e01c8063b0df7c1d1161005b578063b0df7c1d14610100578063c045ffab14610130578063c452494714610160578063f6509dd6146101905761007d565b80636887d2d51461008257806379d88ae0146100b25780639ae8886a146100e2575b600080fd5b61009c60048036038101906100979190610804565b6101c0565b6040516100a9919061086f565b60405180910390f35b6100cc60048036038101906100c791906108ae565b6101f3565b6040516100d9919061086f565b60405180910390f35b6100ea6102ad565b6040516100f791906108fd565b60405180910390f35b61011a60048036038101906101159190610804565b6102b3565b604051610127919061086f565b60405180910390f35b61014a60048036038101906101459190610804565b6102d5565b604051610157919061086f565b60405180910390f35b61017a60048036038101906101759190610918565b610308565b604051610187919061086f565b60405180910390f35b6101aa60048036038101906101a59190610945565b610372565b6040516101b7919061086f565b60405180910390f35b6101c86106d5565b6101eb6101e68360000151856000015161042e90919063ffffffff16565b610308565b905092915050565b6101fb6106d5565b6102396040518060400160405280600381526020017f7175690000000000000000000000000000000000000000000000000000000000815250610455565b600061025e610259846000013586600001356104ee90919063ffffffff16565b610308565b90506102a36040518060400160405280600281526020017f25730000000000000000000000000000000000000000000000000000000000008152508260000151610515565b8091505092915050565b60005481565b6102bb6106d5565b6102cd836102c884610372565b6102d5565b905092915050565b6102dd6106d5565b6103006102fb836000015185600001516105b190919063ffffffff16565b610308565b905092915050565b6103106106d5565b61034f6040518060400160405280601d81526020017f6372656174656420656c656d656e7420776974682076616c756520257300000081525083610515565b60405180602001604052806000548461036891906109a1565b8152509050919050565b61037a6106d5565b60008260000151036103c1576040517f08c379a00000000000000000000000000000000000000000000000000000000081526004016103b890610a2f565b60405180910390fd5b6000806103d484600001516000546105f3565b92505091506001811461041c576040517f08c379a000000000000000000000000000000000000000000000000000000000815260040161041390610a9b565b60405180910390fd5b61042582610308565b92505050919050565b60008282111561044157610440610abb565b5b818361044d9190610b19565b905092915050565b6104eb816040516024016104699190610bbb565b6040516020818303038152906040527f41304fac000000000000000000000000000000000000000000000000000000007bffffffffffffffffffffffffffffffffffffffffffffffffffffffff19166020820180517bffffffffffffffffffffffffffffffffffffffffffffffffffffffff8381831617835250505050610679565b50565b600081836104fc9190610bdd565b90508281101561050f5761050e610abb565b5b92915050565b6105ad828260405160240161052b929190610c11565b6040516020818303038152906040527fb60e72cc000000000000000000000000000000000000000000000000000000007bffffffffffffffffffffffffffffffffffffffffffffffffffffffff19166020820180517bffffffffffffffffffffffffffffffffffffffffffffffffffffffff8381831617835250505050610679565b5050565b60008083036105c357600090506105ed565b81836105cf9190610c41565b90508183826105de9190610c83565b146105ec576105eb610abb565b5b5b92915050565b600080600080840361060f576001600086925092509250610672565b600080600061062987888a61062491906109a1565b6105f3565b925092509250816106678361065961064a8b8d61069390919063ffffffff16565b8761042e90919063ffffffff16565b6105b190919063ffffffff16565b829550955095505050505b9250925092565b610690816106886106a96106ca565b63ffffffff16565b50565b600081836106a19190610c83565b905092915050565b60006a636f6e736f6c652e6c6f679050600080835160208501845afa505050565b6106e8819050919050565b6040518060200160405280600081525090565b6106f0610cb4565b565b6000604051905090565b600080fd5b600080fd5b6000601f19601f8301169050919050565b7f4e487b7100000000000000000000000000000000000000000000000000000000600052604160045260246000fd5b61074f82610706565b810181811067ffffffffffffffff8211171561076e5761076d610717565b5b80604052505050565b60006107816106f2565b905061078d8282610746565b919050565b6000819050919050565b6107a581610792565b81146107b057600080fd5b50565b6000813590506107c28161079c565b92915050565b6000602082840312156107de576107dd610701565b5b6107e86020610777565b905060006107f8848285016107b3565b60008301525092915050565b6000806040838503121561081b5761081a6106fc565b5b6000610829858286016107c8565b925050602061083a858286016107c8565b9150509250929050565b61084d81610792565b82525050565b6020820160008201516108696000850182610844565b50505050565b60006020820190506108846000830184610853565b92915050565b600080fd5b6000602082840312156108a5576108a461088a565b5b81905092915050565b600080604083850312156108c5576108c46106fc565b5b60006108d38582860161088f565b92505060206108e48582860161088f565b9150509250929050565b6108f781610792565b82525050565b600060208201905061091260008301846108ee565b92915050565b60006020828403121561092e5761092d6106fc565b5b600061093c848285016107b3565b91505092915050565b60006020828403121561095b5761095a6106fc565b5b6000610969848285016107c8565b91505092915050565b7f4e487b7100000000000000000000000000000000000000000000000000000000600052601260045260246000fd5b60006109ac82610792565b91506109b783610792565b9250826109c7576109c6610972565b5b828206905092915050565b600082825260208201905092915050565b7f4469766973696f6e6520706572207a65726f206e6f6e207065726d657373612e600082015250565b6000610a196020836109d2565b9150610a24826109e3565b602082019050919050565b60006020820190508181036000830152610a4881610a0c565b9050919050565b7f4c27696e766572736f206e6f6e20657369737465000000000000000000000000600082015250565b6000610a856014836109d2565b9150610a9082610a4f565b602082019050919050565b60006020820190508181036000830152610ab481610a78565b9050919050565b7f4e487b7100000000000000000000000000000000000000000000000000000000600052600160045260246000fd5b7f4e487b7100000000000000000000000000000000000000000000000000000000600052601160045260246000fd5b6000610b2482610792565b9150610b2f83610792565b9250828203905081811115610b4757610b46610aea565b5b92915050565b600081519050919050565b60005b83811015610b76578082015181840152602081019050610b5b565b60008484015250505050565b6000610b8d82610b4d565b610b9781856109d2565b9350610ba7818560208601610b58565b610bb081610706565b840191505092915050565b60006020820190508181036000830152610bd58184610b82565b905092915050565b6000610be882610792565b9150610bf383610792565b9250828201905080821115610c0b57610c0a610aea565b5b92915050565b60006040820190508181036000830152610c2b8185610b82565b9050610c3a60208301846108ee565b9392505050565b6000610c4c82610792565b9150610c5783610792565b9250828202610c6581610792565b91508282048414831517610c7c57610c7b610aea565b5b5092915050565b6000610c8e82610792565b9150610c9983610792565b925082610ca957610ca8610972565b5b828204905092915050565b7f4e487b7100000000000000000000000000000000000000000000000000000000600052605160045260246000fdfea2646970667358221220ac54e0369c1300b4f24caf8467e1095840c0c6faf1292e9c8c53e6b588c3920b64736f6c634300081b0033","opcodes":"PUSH1 0x80 PUSH1 0x40 MSTORE CALLVALUE DUP1 ISZERO PUSH2 0x10 JUMPI PUSH1 0x0 DUP1 REVERT JUMPDEST POP PUSH1 0x40 MLOAD PUSH2 0x101B CODESIZE SUB DUP1 PUSH2 0x101B DUP4 CODECOPY DUP2 DUP2 ADD PUSH1 0x40 MSTORE DUP2 ADD SWAP1 PUSH2 0x32 SWAP2 SWAP1 PUSH2 0x130 JUMP JUMPDEST PUSH2 0x41 DUP2 PUSH2 0x8D PUSH1 0x20 SHL PUSH1 0x20 SHR JUMP JUMPDEST PUSH2 0x80 JUMPI PUSH1 0x40 MLOAD PUSH32 0x8C379A000000000000000000000000000000000000000000000000000000000 DUP2 MSTORE PUSH1 0x4 ADD PUSH2 0x77 SWAP1 PUSH2 0x1BA JUMP JUMPDEST PUSH1 0x40 MLOAD DUP1 SWAP2 SUB SWAP1 REVERT JUMPDEST DUP1 PUSH1 0x0 DUP2 SWAP1 SSTORE POP POP PUSH2 0x2F3 JUMP JUMPDEST PUSH1 0x0 PUSH1 0x2 DUP3 LT ISZERO PUSH2 0xA1 JUMPI PUSH1 0x0 SWAP1 POP PUSH2 0xF0 JUMP JUMPDEST PUSH1 0x0 PUSH1 0x2 SWAP1 POP JUMPDEST DUP3 DUP2 DUP3 PUSH2 0xB5 SWAP2 SWAP1 PUSH2 0x209 JUMP JUMPDEST GT PUSH2 0xEA JUMPI PUSH1 0x0 DUP2 DUP5 PUSH2 0xC8 SWAP2 SWAP1 PUSH2 0x27A JUMP JUMPDEST SUB PUSH2 0xD7 JUMPI PUSH1 0x0 SWAP2 POP POP PUSH2 0xF0 JUMP JUMPDEST DUP1 DUP1 PUSH2 0xE2 SWAP1 PUSH2 0x2AB JUMP JUMPDEST SWAP2 POP POP PUSH2 0xA8 JUMP JUMPDEST POP PUSH1 0x1 SWAP1 POP JUMPDEST SWAP2 SWAP1 POP JUMP JUMPDEST PUSH1 0x0 DUP1 REVERT JUMPDEST PUSH1 0x0 DUP2 SWAP1 POP SWAP2 SWAP1 POP JUMP JUMPDEST PUSH2 0x10D DUP2 PUSH2 0xFA JUMP JUMPDEST DUP2 EQ PUSH2 0x118 JUMPI PUSH1 0x0 DUP1 REVERT JUMPDEST POP JUMP JUMPDEST PUSH1 0x0 DUP2 MLOAD SWAP1 POP PUSH2 0x12A DUP2 PUSH2 0x104 JUMP JUMPDEST SWAP3 SWAP2 POP POP JUMP JUMPDEST PUSH1 0x0 PUSH1 0x20 DUP3 DUP5 SUB SLT ISZERO PUSH2 0x146 JUMPI PUSH2 0x145 PUSH2 0xF5 JUMP JUMPDEST JUMPDEST PUSH1 0x0 PUSH2 0x154 DUP5 DUP3 DUP6 ADD PUSH2 0x11B JUMP JUMPDEST SWAP2 POP POP SWAP3 SWAP2 POP POP JUMP JUMPDEST PUSH1 0x0 DUP3 DUP3 MSTORE PUSH1 0x20 DUP3 ADD SWAP1 POP SWAP3 SWAP2 POP POP JUMP JUMPDEST PUSH32 0x7020646576652065737365726520756E206E756D65726F207072696D6F2E0000 PUSH1 0x0 DUP3 ADD MSTORE POP JUMP JUMPDEST PUSH1 0x0 PUSH2 0x1A4 PUSH1 0x1E DUP4 PUSH2 0x15D JUMP JUMPDEST SWAP2 POP PUSH2 0x1AF DUP3 PUSH2 0x16E JUMP JUMPDEST PUSH1 0x20 DUP3 ADD SWAP1 POP SWAP2 SWAP1 POP JUMP JUMPDEST PUSH1 0x0 PUSH1 0x20 DUP3 ADD SWAP1 POP DUP2 DUP2 SUB PUSH1 0x0 DUP4 ADD MSTORE PUSH2 0x1D3 DUP2 PUSH2 0x197 JUMP JUMPDEST SWAP1 POP SWAP2 SWAP1 POP JUMP JUMPDEST PUSH32 0x4E487B7100000000000000000000000000000000000000000000000000000000 PUSH1 0x0 MSTORE PUSH1 0x11 PUSH1 0x4 MSTORE PUSH1 0x24 PUSH1 0x0 REVERT JUMPDEST PUSH1 0x0 PUSH2 0x214 DUP3 PUSH2 0xFA JUMP JUMPDEST SWAP2 POP PUSH2 0x21F DUP4 PUSH2 0xFA JUMP JUMPDEST SWAP3 POP DUP3 DUP3 MUL PUSH2 0x22D DUP2 PUSH2 0xFA JUMP JUMPDEST SWAP2 POP DUP3 DUP3 DIV DUP5 EQ DUP4 ISZERO OR PUSH2 0x244 JUMPI PUSH2 0x243 PUSH2 0x1DA JUMP JUMPDEST JUMPDEST POP SWAP3 SWAP2 POP POP JUMP JUMPDEST PUSH32 0x4E487B7100000000000000000000000000000000000000000000000000000000 PUSH1 0x0 MSTORE PUSH1 0x12 PUSH1 0x4 MSTORE PUSH1 0x24 PUSH1 0x0 REVERT JUMPDEST PUSH1 0x0 PUSH2 0x285 DUP3 PUSH2 0xFA JUMP JUMPDEST SWAP2 POP PUSH2 0x290 DUP4 PUSH2 0xFA JUMP JUMPDEST SWAP3 POP DUP3 PUSH2 0x2A0 JUMPI PUSH2 0x29F PUSH2 0x24B JUMP JUMPDEST JUMPDEST DUP3 DUP3 MOD SWAP1 POP SWAP3 SWAP2 POP POP JUMP JUMPDEST PUSH1 0x0 PUSH2 0x2B6 DUP3 PUSH2 0xFA JUMP JUMPDEST SWAP2 POP PUSH32 0xFFFFFFFFFFFFFFFFFFFFFFFFFFFFFFFFFFFFFFFFFFFFFFFFFFFFFFFFFFFFFFFF DUP3 SUB PUSH2 0x2E8 JUMPI PUSH2 0x2E7 PUSH2 0x1DA JUMP JUMPDEST JUMPDEST PUSH1 0x1 DUP3 ADD SWAP1 POP SWAP2 SWAP1 POP JUMP JUMPDEST PUSH2 0xD19 DUP1 PUSH2 0x302 PUSH1 0x0 CODECOPY PUSH1 0x0 RETURN INVALID PUSH1 0x80 PUSH1 0x40 MSTORE CALLVALUE DUP1 ISZERO PUSH2 0x10 JUMPI PUSH1 0x0 DUP1 REVERT JUMPDEST POP PUSH1 0x4 CALLDATASIZE LT PUSH2 0x7D JUMPI PUSH1 0x0 CALLDATALOAD PUSH1 0xE0 SHR DUP1 PUSH4 0xB0DF7C1D GT PUSH2 0x5B JUMPI DUP1 PUSH4 0xB0DF7C1D EQ PUSH2 0x100 JUMPI DUP1 PUSH4 0xC045FFAB EQ PUSH2 0x130 JUMPI DUP1 PUSH4 0xC4524947 EQ PUSH2 0x160 JUMPI DUP1 PUSH4 0xF6509DD6 EQ PUSH2 0x190 JUMPI PUSH2 0x7D JUMP JUMPDEST DUP1 PUSH4 0x6887D2D5 EQ PUSH2 0x82 JUMPI DUP1 PUSH4 0x79D88AE0 EQ PUSH2 0xB2 JUMPI DUP1 PUSH4 0x9AE8886A EQ PUSH2 0xE2 JUMPI JUMPDEST PUSH1 0x0 DUP1 REVERT JUMPDEST PUSH2 0x9C PUSH1 0x4 DUP1 CALLDATASIZE SUB DUP2 ADD SWAP1 PUSH2 0x97 SWAP2 SWAP1 PUSH2 0x804 JUMP JUMPDEST PUSH2 0x1C0 JUMP JUMPDEST PUSH1 0x40 MLOAD PUSH2 0xA9 SWAP2 SWAP1 PUSH2 0x86F JUMP JUMPDEST PUSH1 0x40 MLOAD DUP1 SWAP2 SUB SWAP1 RETURN JUMPDEST PUSH2 0xCC PUSH1 0x4 DUP1 CALLDATASIZE SUB DUP2 ADD SWAP1 PUSH2 0xC7 SWAP2 SWAP1 PUSH2 0x8AE JUMP JUMPDEST PUSH2 0x1F3 JUMP JUMPDEST PUSH1 0x40 MLOAD PUSH2 0xD9 SWAP2 SWAP1 PUSH2 0x86F JUMP JUMPDEST PUSH1 0x40 MLOAD DUP1 SWAP2 SUB SWAP1 RETURN JUMPDEST PUSH2 0xEA PUSH2 0x2AD JUMP JUMPDEST PUSH1 0x40 MLOAD PUSH2 0xF7 SWAP2 SWAP1 PUSH2 0x8FD JUMP JUMPDEST PUSH1 0x40 MLOAD DUP1 SWAP2 SUB SWAP1 RETURN JUMPDEST PUSH2 0x11A PUSH1 0x4 DUP1 CALLDATASIZE SUB DUP2 ADD SWAP1 PUSH2 0x115 SWAP2 SWAP1 PUSH2 0x804 JUMP JUMPDEST PUSH2 0x2B3 JUMP JUMPDEST PUSH1 0x40 MLOAD PUSH2 0x127 SWAP2 SWAP1 PUSH2 0x86F JUMP JUMPDEST PUSH1 0x40 MLOAD DUP1 SWAP2 SUB SWAP1 RETURN JUMPDEST PUSH2 0x14A PUSH1 0x4 DUP1 CALLDATASIZE SUB DUP2 ADD SWAP1 PUSH2 0x145 SWAP2 SWAP1 PUSH2 0x804 JUMP JUMPDEST PUSH2 0x2D5 JUMP JUMPDEST PUSH1 0x40 MLOAD PUSH2 0x157 SWAP2 SWAP1 PUSH2 0x86F JUMP JUMPDEST PUSH1 0x40 MLOAD DUP1 SWAP2 SUB SWAP1 RETURN JUMPDEST PUSH2 0x17A PUSH1 0x4 DUP1 CALLDATASIZE SUB DUP2 ADD SWAP1 PUSH2 0x175 SWAP2 SWAP1 PUSH2 0x918 JUMP JUMPDEST PUSH2 0x308 JUMP JUMPDEST PUSH1 0x40 MLOAD PUSH2 0x187 SWAP2 SWAP1 PUSH2 0x86F JUMP JUMPDEST PUSH1 0x40 MLOAD DUP1 SWAP2 SUB SWAP1 RETURN JUMPDEST PUSH2 0x1AA PUSH1 0x4 DUP1 CALLDATASIZE SUB DUP2 ADD SWAP1 PUSH2 0x1A5 SWAP2 SWAP1 PUSH2 0x945 JUMP JUMPDEST PUSH2 0x372 JUMP JUMPDEST PUSH1 0x40 MLOAD PUSH2 0x1B7 SWAP2 SWAP1 PUSH2 0x86F JUMP JUMPDEST PUSH1 0x40 MLOAD DUP1 SWAP2 SUB SWAP1 RETURN JUMPDEST PUSH2 0x1C8 PUSH2 0x6D5 JUMP JUMPDEST PUSH2 0x1EB PUSH2 0x1E6 DUP4 PUSH1 0x0 ADD MLOAD DUP6 PUSH1 0x0 ADD MLOAD PUSH2 0x42E SWAP1 SWAP2 SWAP1 PUSH4 0xFFFFFFFF AND JUMP JUMPDEST PUSH2 0x308 JUMP JUMPDEST SWAP1 POP SWAP3 SWAP2 POP POP JUMP JUMPDEST PUSH2 0x1FB PUSH2 0x6D5 JUMP JUMPDEST PUSH2 0x239 PUSH1 0x40 MLOAD DUP1 PUSH1 0x40 ADD PUSH1 0x40 MSTORE DUP1 PUSH1 0x3 DUP2 MSTORE PUSH1 0x20 ADD PUSH32 0x7175690000000000000000000000000000000000000000000000000000000000 DUP2 MSTORE POP PUSH2 0x455 JUMP JUMPDEST PUSH1 0x0 PUSH2 0x25E PUSH2 0x259 DUP5 PUSH1 0x0 ADD CALLDATALOAD DUP7 PUSH1 0x0 ADD CALLDATALOAD PUSH2 0x4EE SWAP1 SWAP2 SWAP1 PUSH4 0xFFFFFFFF AND JUMP JUMPDEST PUSH2 0x308 JUMP JUMPDEST SWAP1 POP PUSH2 0x2A3 PUSH1 0x40 MLOAD DUP1 PUSH1 0x40 ADD PUSH1 0x40 MSTORE DUP1 PUSH1 0x2 DUP2 MSTORE PUSH1 0x20 ADD PUSH32 0x2573000000000000000000000000000000000000000000000000000000000000 DUP2 MSTORE POP DUP3 PUSH1 0x0 ADD MLOAD PUSH2 0x515 JUMP JUMPDEST DUP1 SWAP2 POP POP SWAP3 SWAP2 POP POP JUMP JUMPDEST PUSH1 0x0 SLOAD DUP2 JUMP JUMPDEST PUSH2 0x2BB PUSH2 0x6D5 JUMP JUMPDEST PUSH2 0x2CD DUP4 PUSH2 0x2C8 DUP5 PUSH2 0x372 JUMP JUMPDEST PUSH2 0x2D5 JUMP JUMPDEST SWAP1 POP SWAP3 SWAP2 POP POP JUMP JUMPDEST PUSH2 0x2DD PUSH2 0x6D5 JUMP JUMPDEST PUSH2 0x300 PUSH2 0x2FB DUP4 PUSH1 0x0 ADD MLOAD DUP6 PUSH1 0x0 ADD MLOAD PUSH2 0x5B1 SWAP1 SWAP2 SWAP1 PUSH4 0xFFFFFFFF AND JUMP JUMPDEST PUSH2 0x308 JUMP JUMPDEST SWAP1 POP SWAP3 SWAP2 POP POP JUMP JUMPDEST PUSH2 0x310 PUSH2 0x6D5 JUMP JUMPDEST PUSH2 0x34F PUSH1 0x40 MLOAD DUP1 PUSH1 0x40 ADD PUSH1 0x40 MSTORE DUP1 PUSH1 0x1D DUP2 MSTORE PUSH1 0x20 ADD PUSH32 0x6372656174656420656C656D656E7420776974682076616C7565202573000000 DUP2 MSTORE POP DUP4 PUSH2 0x515 JUMP JUMPDEST PUSH1 0x40 MLOAD DUP1 PUSH1 0x20 ADD PUSH1 0x40 MSTORE DUP1 PUSH1 0x0 SLOAD DUP5 PUSH2 0x368 SWAP2 SWAP1 PUSH2 0x9A1 JUMP JUMPDEST DUP2 MSTORE POP SWAP1 POP SWAP2 SWAP1 POP JUMP JUMPDEST PUSH2 0x37A PUSH2 0x6D5 JUMP JUMPDEST PUSH1 0x0 DUP3 PUSH1 0x0 ADD MLOAD SUB PUSH2 0x3C1 JUMPI PUSH1 0x40 MLOAD PUSH32 0x8C379A000000000000000000000000000000000000000000000000000000000 DUP2 MSTORE PUSH1 0x4 ADD PUSH2 0x3B8 SWAP1 PUSH2 0xA2F JUMP JUMPDEST PUSH1 0x40 MLOAD DUP1 SWAP2 SUB SWAP1 REVERT JUMPDEST PUSH1 0x0 DUP1 PUSH2 0x3D4 DUP5 PUSH1 0x0 ADD MLOAD PUSH1 0x0 SLOAD PUSH2 0x5F3 JUMP JUMPDEST SWAP3 POP POP SWAP2 POP PUSH1 0x1 DUP2 EQ PUSH2 0x41C JUMPI PUSH1 0x40 MLOAD PUSH32 0x8C379A000000000000000000000000000000000000000000000000000000000 DUP2 MSTORE PUSH1 0x4 ADD PUSH2 0x413 SWAP1 PUSH2 0xA9B JUMP JUMPDEST PUSH1 0x40 MLOAD DUP1 SWAP2 SUB SWAP1 REVERT JUMPDEST PUSH2 0x425 DUP3 PUSH2 0x308 JUMP JUMPDEST SWAP3 POP POP POP SWAP2 SWAP1 POP JUMP JUMPDEST PUSH1 0x0 DUP3 DUP3 GT ISZERO PUSH2 0x441 JUMPI PUSH2 0x440 PUSH2 0xABB JUMP JUMPDEST JUMPDEST DUP2 DUP4 PUSH2 0x44D SWAP2 SWAP1 PUSH2 0xB19 JUMP JUMPDEST SWAP1 POP SWAP3 SWAP2 POP POP JUMP JUMPDEST PUSH2 0x4EB DUP2 PUSH1 0x40 MLOAD PUSH1 0x24 ADD PUSH2 0x469 SWAP2 SWAP1 PUSH2 0xBBB JUMP JUMPDEST PUSH1 0x40 MLOAD PUSH1 0x20 DUP2 DUP4 SUB SUB DUP2 MSTORE SWAP1 PUSH1 0x40 MSTORE PUSH32 0x41304FAC00000000000000000000000000000000000000000000000000000000 PUSH28 0xFFFFFFFFFFFFFFFFFFFFFFFFFFFFFFFFFFFFFFFFFFFFFFFFFFFFFFFF NOT AND PUSH1 0x20 DUP3 ADD DUP1 MLOAD PUSH28 0xFFFFFFFFFFFFFFFFFFFFFFFFFFFFFFFFFFFFFFFFFFFFFFFFFFFFFFFF DUP4 DUP2 DUP4 AND OR DUP4 MSTORE POP POP POP POP PUSH2 0x679 JUMP JUMPDEST POP JUMP JUMPDEST PUSH1 0x0 DUP2 DUP4 PUSH2 0x4FC SWAP2 SWAP1 PUSH2 0xBDD JUMP JUMPDEST SWAP1 POP DUP3 DUP2 LT ISZERO PUSH2 0x50F JUMPI PUSH2 0x50E PUSH2 0xABB JUMP JUMPDEST JUMPDEST SWAP3 SWAP2 POP POP JUMP JUMPDEST PUSH2 0x5AD DUP3 DUP3 PUSH1 0x40 MLOAD PUSH1 0x24 ADD PUSH2 0x52B SWAP3 SWAP2 SWAP1 PUSH2 0xC11 JUMP JUMPDEST PUSH1 0x40 MLOAD PUSH1 0x20 DUP2 DUP4 SUB SUB DUP2 MSTORE SWAP1 PUSH1 0x40 MSTORE PUSH32 0xB60E72CC00000000000000000000000000000000000000000000000000000000 PUSH28 0xFFFFFFFFFFFFFFFFFFFFFFFFFFFFFFFFFFFFFFFFFFFFFFFFFFFFFFFF NOT AND PUSH1 0x20 DUP3 ADD DUP1 MLOAD PUSH28 0xFFFFFFFFFFFFFFFFFFFFFFFFFFFFFFFFFFFFFFFFFFFFFFFFFFFFFFFF DUP4 DUP2 DUP4 AND OR DUP4 MSTORE POP POP POP POP PUSH2 0x679 JUMP JUMPDEST POP POP JUMP JUMPDEST PUSH1 0x0 DUP1 DUP4 SUB PUSH2 0x5C3 JUMPI PUSH1 0x0 SWAP1 POP PUSH2 0x5ED JUMP JUMPDEST DUP2 DUP4 PUSH2 0x5CF SWAP2 SWAP1 PUSH2 0xC41 JUMP JUMPDEST SWAP1 POP DUP2 DUP4 DUP3 PUSH2 0x5DE SWAP2 SWAP1 PUSH2 0xC83 JUMP JUMPDEST EQ PUSH2 0x5EC JUMPI PUSH2 0x5EB PUSH2 0xABB JUMP JUMPDEST JUMPDEST JUMPDEST SWAP3 SWAP2 POP POP JUMP JUMPDEST PUSH1 0x0 DUP1 PUSH1 0x0 DUP1 DUP5 SUB PUSH2 0x60F JUMPI PUSH1 0x1 PUSH1 0x0 DUP7 SWAP3 POP SWAP3 POP SWAP3 POP PUSH2 0x672 JUMP JUMPDEST PUSH1 0x0 DUP1 PUSH1 0x0 PUSH2 0x629 DUP8 DUP9 DUP11 PUSH2 0x624 SWAP2 SWAP1 PUSH2 0x9A1 JUMP JUMPDEST PUSH2 0x5F3 JUMP JUMPDEST SWAP3 POP SWAP3 POP SWAP3 POP DUP2 PUSH2 0x667 DUP4 PUSH2 0x659 PUSH2 0x64A DUP12 DUP14 PUSH2 0x693 SWAP1 SWAP2 SWAP1 PUSH4 0xFFFFFFFF AND JUMP JUMPDEST DUP8 PUSH2 0x42E SWAP1 SWAP2 SWAP1 PUSH4 0xFFFFFFFF AND JUMP JUMPDEST PUSH2 0x5B1 SWAP1 SWAP2 SWAP1 PUSH4 0xFFFFFFFF AND JUMP JUMPDEST DUP3 SWAP6 POP SWAP6 POP SWAP6 POP POP POP POP JUMPDEST SWAP3 POP SWAP3 POP SWAP3 JUMP JUMPDEST PUSH2 0x690 DUP2 PUSH2 0x688 PUSH2 0x6A9 PUSH2 0x6CA JUMP JUMPDEST PUSH4 0xFFFFFFFF AND JUMP JUMPDEST POP JUMP JUMPDEST PUSH1 0x0 DUP2 DUP4 PUSH2 0x6A1 SWAP2 SWAP1 PUSH2 0xC83 JUMP JUMPDEST SWAP1 POP SWAP3 SWAP2 POP POP JUMP JUMPDEST PUSH1 0x0 PUSH11 0x636F6E736F6C652E6C6F67 SWAP1 POP PUSH1 0x0 DUP1 DUP4 MLOAD PUSH1 0x20 DUP6 ADD DUP5 GAS STATICCALL POP POP POP JUMP JUMPDEST PUSH2 0x6E8 DUP2 SWAP1 POP SWAP2 SWAP1 POP JUMP JUMPDEST PUSH1 0x40 MLOAD DUP1 PUSH1 0x20 ADD PUSH1 0x40 MSTORE DUP1 PUSH1 0x0 DUP2 MSTORE POP SWAP1 JUMP JUMPDEST PUSH2 0x6F0 PUSH2 0xCB4 JUMP JUMPDEST JUMP JUMPDEST PUSH1 0x0 PUSH1 0x40 MLOAD SWAP1 POP SWAP1 JUMP JUMPDEST PUSH1 0x0 DUP1 REVERT JUMPDEST PUSH1 0x0 DUP1 REVERT JUMPDEST PUSH1 0x0 PUSH1 0x1F NOT PUSH1 0x1F DUP4 ADD AND SWAP1 POP SWAP2 SWAP1 POP JUMP JUMPDEST PUSH32 0x4E487B7100000000000000000000000000000000000000000000000000000000 PUSH1 0x0 MSTORE PUSH1 0x41 PUSH1 0x4 MSTORE PUSH1 0x24 PUSH1 0x0 REVERT JUMPDEST PUSH2 0x74F DUP3 PUSH2 0x706 JUMP JUMPDEST DUP2 ADD DUP2 DUP2 LT PUSH8 0xFFFFFFFFFFFFFFFF DUP3 GT OR ISZERO PUSH2 0x76E JUMPI PUSH2 0x76D PUSH2 0x717 JUMP JUMPDEST JUMPDEST DUP1 PUSH1 0x40 MSTORE POP POP POP JUMP JUMPDEST PUSH1 0x0 PUSH2 0x781 PUSH2 0x6F2 JUMP JUMPDEST SWAP1 POP PUSH2 0x78D DUP3 DUP3 PUSH2 0x746 JUMP JUMPDEST SWAP2 SWAP1 POP JUMP JUMPDEST PUSH1 0x0 DUP2 SWAP1 POP SWAP2 SWAP1 POP JUMP JUMPDEST PUSH2 0x7A5 DUP2 PUSH2 0x792 JUMP JUMPDEST DUP2 EQ PUSH2 0x7B0 JUMPI PUSH1 0x0 DUP1 REVERT JUMPDEST POP JUMP JUMPDEST PUSH1 0x0 DUP2 CALLDATALOAD SWAP1 POP PUSH2 0x7C2 DUP2 PUSH2 0x79C JUMP JUMPDEST SWAP3 SWAP2 POP POP JUMP JUMPDEST PUSH1 0x0 PUSH1 0x20 DUP3 DUP5 SUB SLT ISZERO PUSH2 0x7DE JUMPI PUSH2 0x7DD PUSH2 0x701 JUMP JUMPDEST JUMPDEST PUSH2 0x7E8 PUSH1 0x20 PUSH2 0x777 JUMP JUMPDEST SWAP1 POP PUSH1 0x0 PUSH2 0x7F8 DUP5 DUP3 DUP6 ADD PUSH2 0x7B3 JUMP JUMPDEST PUSH1 0x0 DUP4 ADD MSTORE POP SWAP3 SWAP2 POP POP JUMP JUMPDEST PUSH1 0x0 DUP1 PUSH1 0x40 DUP4 DUP6 SUB SLT ISZERO PUSH2 0x81B JUMPI PUSH2 0x81A PUSH2 0x6FC JUMP JUMPDEST JUMPDEST PUSH1 0x0 PUSH2 0x829 DUP6 DUP3 DUP7 ADD PUSH2 0x7C8 JUMP JUMPDEST SWAP3 POP POP PUSH1 0x20 PUSH2 0x83A DUP6 DUP3 DUP7 ADD PUSH2 0x7C8 JUMP JUMPDEST SWAP2 POP POP SWAP3 POP SWAP3 SWAP1 POP JUMP JUMPDEST PUSH2 0x84D DUP2 PUSH2 0x792 JUMP JUMPDEST DUP3 MSTORE POP POP JUMP JUMPDEST PUSH1 0x20 DUP3 ADD PUSH1 0x0 DUP3 ADD MLOAD PUSH2 0x869 PUSH1 0x0 DUP6 ADD DUP3 PUSH2 0x844 JUMP JUMPDEST POP POP POP POP JUMP JUMPDEST PUSH1 0x0 PUSH1 0x20 DUP3 ADD SWAP1 POP PUSH2 0x884 PUSH1 0x0 DUP4 ADD DUP5 PUSH2 0x853 JUMP JUMPDEST SWAP3 SWAP2 POP POP JUMP JUMPDEST PUSH1 0x0 DUP1 REVERT JUMPDEST PUSH1 0x0 PUSH1 0x20 DUP3 DUP5 SUB SLT ISZERO PUSH2 0x8A5 JUMPI PUSH2 0x8A4 PUSH2 0x88A JUMP JUMPDEST JUMPDEST DUP2 SWAP1 POP SWAP3 SWAP2 POP POP JUMP JUMPDEST PUSH1 0x0 DUP1 PUSH1 0x40 DUP4 DUP6 SUB SLT ISZERO PUSH2 0x8C5 JUMPI PUSH2 0x8C4 PUSH2 0x6FC JUMP JUMPDEST JUMPDEST PUSH1 0x0 PUSH2 0x8D3 DUP6 DUP3 DUP7 ADD PUSH2 0x88F JUMP JUMPDEST SWAP3 POP POP PUSH1 0x20 PUSH2 0x8E4 DUP6 DUP3 DUP7 ADD PUSH2 0x88F JUMP JUMPDEST SWAP2 POP POP SWAP3 POP SWAP3 SWAP1 POP JUMP JUMPDEST PUSH2 0x8F7 DUP2 PUSH2 0x792 JUMP JUMPDEST DUP3 MSTORE POP POP JUMP JUMPDEST PUSH1 0x0 PUSH1 0x20 DUP3 ADD SWAP1 POP PUSH2 0x912 PUSH1 0x0 DUP4 ADD DUP5 PUSH2 0x8EE JUMP JUMPDEST SWAP3 SWAP2 POP POP JUMP JUMPDEST PUSH1 0x0 PUSH1 0x20 DUP3 DUP5 SUB SLT ISZERO PUSH2 0x92E JUMPI PUSH2 0x92D PUSH2 0x6FC JUMP JUMPDEST JUMPDEST PUSH1 0x0 PUSH2 0x93C DUP5 DUP3 DUP6 ADD PUSH2 0x7B3 JUMP JUMPDEST SWAP2 POP POP SWAP3 SWAP2 POP POP JUMP JUMPDEST PUSH1 0x0 PUSH1 0x20 DUP3 DUP5 SUB SLT ISZERO PUSH2 0x95B JUMPI PUSH2 0x95A PUSH2 0x6FC JUMP JUMPDEST JUMPDEST PUSH1 0x0 PUSH2 0x969 DUP5 DUP3 DUP6 ADD PUSH2 0x7C8 JUMP JUMPDEST SWAP2 POP POP SWAP3 SWAP2 POP POP JUMP JUMPDEST PUSH32 0x4E487B7100000000000000000000000000000000000000000000000000000000 PUSH1 0x0 MSTORE PUSH1 0x12 PUSH1 0x4 MSTORE PUSH1 0x24 PUSH1 0x0 REVERT JUMPDEST PUSH1 0x0 PUSH2 0x9AC DUP3 PUSH2 0x792 JUMP JUMPDEST SWAP2 POP PUSH2 0x9B7 DUP4 PUSH2 0x792 JUMP JUMPDEST SWAP3 POP DUP3 PUSH2 0x9C7 JUMPI PUSH2 0x9C6 PUSH2 0x972 JUMP JUMPDEST JUMPDEST DUP3 DUP3 MOD SWAP1 POP SWAP3 SWAP2 POP POP JUMP JUMPDEST PUSH1 0x0 DUP3 DUP3 MSTORE PUSH1 0x20 DUP3 ADD SWAP1 POP SWAP3 SWAP2 POP POP JUMP JUMPDEST PUSH32 0x4469766973696F6E6520706572207A65726F206E6F6E207065726D657373612E PUSH1 0x0 DUP3 ADD MSTORE POP JUMP JUMPDEST PUSH1 0x0 PUSH2 0xA19 PUSH1 0x20 DUP4 PUSH2 0x9D2 JUMP JUMPDEST SWAP2 POP PUSH2 0xA24 DUP3 PUSH2 0x9E3 JUMP JUMPDEST PUSH1 0x20 DUP3 ADD SWAP1 POP SWAP2 SWAP1 POP JUMP JUMPDEST PUSH1 0x0 PUSH1 0x20 DUP3 ADD SWAP1 POP DUP2 DUP2 SUB PUSH1 0x0 DUP4 ADD MSTORE PUSH2 0xA48 DUP2 PUSH2 0xA0C JUMP JUMPDEST SWAP1 POP SWAP2 SWAP1 POP JUMP JUMPDEST PUSH32 0x4C27696E766572736F206E6F6E20657369737465000000000000000000000000 PUSH1 0x0 DUP3 ADD MSTORE POP JUMP JUMPDEST PUSH1 0x0 PUSH2 0xA85 PUSH1 0x14 DUP4 PUSH2 0x9D2 JUMP JUMPDEST SWAP2 POP PUSH2 0xA90 DUP3 PUSH2 0xA4F JUMP JUMPDEST PUSH1 0x20 DUP3 ADD SWAP1 POP SWAP2 SWAP1 POP JUMP JUMPDEST PUSH1 0x0 PUSH1 0x20 DUP3 ADD SWAP1 POP DUP2 DUP2 SUB PUSH1 0x0 DUP4 ADD MSTORE PUSH2 0xAB4 DUP2 PUSH2 0xA78 JUMP JUMPDEST SWAP1 POP SWAP2 SWAP1 POP JUMP JUMPDEST PUSH32 0x4E487B7100000000000000000000000000000000000000000000000000000000 PUSH1 0x0 MSTORE PUSH1 0x1 PUSH1 0x4 MSTORE PUSH1 0x24 PUSH1 0x0 REVERT JUMPDEST PUSH32 0x4E487B7100000000000000000000000000000000000000000000000000000000 PUSH1 0x0 MSTORE PUSH1 0x11 PUSH1 0x4 MSTORE PUSH1 0x24 PUSH1 0x0 REVERT JUMPDEST PUSH1 0x0 PUSH2 0xB24 DUP3 PUSH2 0x792 JUMP JUMPDEST SWAP2 POP PUSH2 0xB2F DUP4 PUSH2 0x792 JUMP JUMPDEST SWAP3 POP DUP3 DUP3 SUB SWAP1 POP DUP2 DUP2 GT ISZERO PUSH2 0xB47 JUMPI PUSH2 0xB46 PUSH2 0xAEA JUMP JUMPDEST JUMPDEST SWAP3 SWAP2 POP POP JUMP JUMPDEST PUSH1 0x0 DUP2 MLOAD SWAP1 POP SWAP2 SWAP1 POP JUMP JUMPDEST PUSH1 0x0 JUMPDEST DUP4 DUP2 LT ISZERO PUSH2 0xB76 JUMPI DUP1 DUP3 ADD MLOAD DUP2 DUP5 ADD MSTORE PUSH1 0x20 DUP2 ADD SWAP1 POP PUSH2 0xB5B JUMP JUMPDEST PUSH1 0x0 DUP5 DUP5 ADD MSTORE POP POP POP POP JUMP JUMPDEST PUSH1 0x0 PUSH2 0xB8D DUP3 PUSH2 0xB4D JUMP JUMPDEST PUSH2 0xB97 DUP2 DUP6 PUSH2 0x9D2 JUMP JUMPDEST SWAP4 POP PUSH2 0xBA7 DUP2 DUP6 PUSH1 0x20 DUP7 ADD PUSH2 0xB58 JUMP JUMPDEST PUSH2 0xBB0 DUP2 PUSH2 0x706 JUMP JUMPDEST DUP5 ADD SWAP2 POP POP SWAP3 SWAP2 POP POP JUMP JUMPDEST PUSH1 0x0 PUSH1 0x20 DUP3 ADD SWAP1 POP DUP2 DUP2 SUB PUSH1 0x0 DUP4 ADD MSTORE PUSH2 0xBD5 DUP2 DUP5 PUSH2 0xB82 JUMP JUMPDEST SWAP1 POP SWAP3 SWAP2 POP POP JUMP JUMPDEST PUSH1 0x0 PUSH2 0xBE8 DUP3 PUSH2 0x792 JUMP JUMPDEST SWAP2 POP PUSH2 0xBF3 DUP4 PUSH2 0x792 JUMP JUMPDEST SWAP3 POP DUP3 DUP3 ADD SWAP1 POP DUP1 DUP3 GT ISZERO PUSH2 0xC0B JUMPI PUSH2 0xC0A PUSH2 0xAEA JUMP JUMPDEST JUMPDEST SWAP3 SWAP2 POP POP JUMP JUMPDEST PUSH1 0x0 PUSH1 0x40 DUP3 ADD SWAP1 POP DUP2 DUP2 SUB PUSH1 0x0 DUP4 ADD MSTORE PUSH2 0xC2B DUP2 DUP6 PUSH2 0xB82 JUMP JUMPDEST SWAP1 POP PUSH2 0xC3A PUSH1 0x20 DUP4 ADD DUP5 PUSH2 0x8EE JUMP JUMPDEST SWAP4 SWAP3 POP POP POP JUMP JUMPDEST PUSH1 0x0 PUSH2 0xC4C DUP3 PUSH2 0x792 JUMP JUMPDEST SWAP2 POP PUSH2 0xC57 DUP4 PUSH2 0x792 JUMP JUMPDEST SWAP3 POP DUP3 DUP3 MUL PUSH2 0xC65 DUP2 PUSH2 0x792 JUMP JUMPDEST SWAP2 POP DUP3 DUP3 DIV DUP5 EQ DUP4 ISZERO OR PUSH2 0xC7C JUMPI PUSH2 0xC7B PUSH2 0xAEA JUMP JUMPDEST JUMPDEST POP SWAP3 SWAP2 POP POP JUMP JUMPDEST PUSH1 0x0 PUSH2 0xC8E DUP3 PUSH2 0x792 JUMP JUMPDEST SWAP2 POP PUSH2 0xC99 DUP4 PUSH2 0x792 JUMP JUMPDEST SWAP3 POP DUP3 PUSH2 0xCA9 JUMPI PUSH2 0xCA8 PUSH2 0x972 JUMP JUMPDEST JUMPDEST DUP3 DUP3 DIV SWAP1 POP SWAP3 SWAP2 POP POP JUMP JUMPDEST PUSH32 0x4E487B7100000000000000000000000000000000000000000000000000000000 PUSH1 0x0 MSTORE PUSH1 0x51 PUSH1 0x4 MSTORE PUSH1 0x24 PUSH1 0x0 REVERT INVALID LOG2 PUSH5 0x6970667358 0x22 SLT KECCAK256 0xAC SLOAD 0xE0 CALLDATASIZE SWAP13 SGT STOP 0xB4 CALLCODE 0x4C 0xAF DUP5 PUSH8 0xE1095840C0C6FAF1 0x29 0x2E SWAP13 DUP13 MSTORE8 0xE6 0xB5 DUP9 0xC3 SWAP3 SIGNEXTEND PUSH5 0x736F6C6343 STOP ADDMOD SHL STOP CALLER "},"methodIdentifiers":{"add((uint256),(uint256))":"79d88ae0","createElement(uint256)":"c4524947","div((uint256),(uint256))":"b0df7c1d","inverse((uint256))":"f6509dd6","multiply((uint256),(uint256))":"c045ffab","p()":"9ae8886a","subtract((uint256),(uint256))":"6887d2d5"}}}}}