{"contracts/bls.sol":{"Bls":{"abi":[{"inputs":[{"internalType":"uint256[]","name":"_keys","type":"uint256[]"}],"name":"aggregateKeys","outputs":[],"stateMutability":"nonpayable","type":"function"},{"inputs":[{"internalType":"uint256[]","name":"_sigs","type":"uint256[]"}],"name":"aggregateSignature","outputs":[{"internalType":"uint256","name":"","type":"uint256"}],"stateMutability":"nonpayable","type":"function"},{"inputs":[],"name":"keyGen","outputs":[{"internalType":"bytes","name":"","type":"bytes"}],"stateMutability":"nonpayable","type":"function"},{"inputs":[{"internalType":"uint256","name":"_hash","type":"uint256"}],"name":"sign","outputs":[{"internalType":"uint256","name":"","type":"uint256"}],"stateMutability":"nonpayable","type":"function"},{"inputs":[{"internalType":"uint256","name":"_sig","type":"uint256"},{"internalType":"uint256","name":"_hash","type":"uint256"},{"internalType":"uint256","name":"_pk","type":"uint256"}],"name":"verify","outputs":[{"internalType":"bool","name":"","type":"bool"}],"stateMutability":"nonpayable","type":"function"}],"evm":{"bytecode":{"linkReferences":{},"object":"60806040526040518060a00160405280606281526020016109be606291396000908161002b9190610310565b5060405180608001604052806042815260200161097c60429139600190816100539190610310565b5060405180606001604052806022815260200161095a602291396002908161007b9190610310565b506040518060c00160405280608181526020016108d960819139600390816100a39190610310565b50600160045560046005553480156100ba57600080fd5b506103e2565b600081519050919050565b7f4e487b7100000000000000000000000000000000000000000000000000000000600052604160045260246000fd5b7f4e487b7100000000000000000000000000000000000000000000000000000000600052602260045260246000fd5b6000600282049050600182168061014157607f821691505b602082108103610154576101536100fa565b5b50919050565b60008190508160005260206000209050919050565b60006020601f8301049050919050565b600082821b905092915050565b6000600883026101bc7fffffffffffffffffffffffffffffffffffffffffffffffffffffffffffffffff8261017f565b6101c6868361017f565b95508019841693508086168417925050509392505050565b6000819050919050565b6000819050919050565b600061020d610208610203846101de565b6101e8565b6101de565b9050919050565b6000819050919050565b610227836101f2565b61023b61023382610214565b84845461018c565b825550505050565b600090565b610250610243565b61025b81848461021e565b505050565b5b8181101561027f57610274600082610248565b600181019050610261565b5050565b601f8211156102c4576102958161015a565b61029e8461016f565b810160208510156102ad578190505b6102c16102b98561016f565b830182610260565b50505b505050565b600082821c905092915050565b60006102e7600019846008026102c9565b1980831691505092915050565b600061030083836102d6565b9150826002028217905092915050565b610319826100c0565b67ffffffffffffffff811115610332576103316100cb565b5b61033c8254610129565b610347828285610283565b600060209050601f83116001811461037a5760008415610368578287015190505b61037285826102f4565b8655506103da565b601f1984166103888661015a565b60005b828110156103b05784890151825560018201915060208501945060208101905061038b565b868310156103cd57848901516103c9601f8916826102d6565b8355505b6001600288020188555050505b505050505050565b6104e8806103f16000396000f3fe608060405234801561001057600080fd5b50600436106100575760003560e01c80630fa900021461005c57806322a5973e1461007a5780632fb1b25f146100aa57806330430402146100da578063afacb0c61461010a575b600080fd5b610064610126565b60405161007191906101d5565b60405180910390f35b610094600480360381019061008f9190610389565b61012b565b6040516100a191906103e1565b60405180910390f35b6100c460048036038101906100bf91906103fc565b610132565b6040516100d191906103e1565b60405180910390f35b6100f460048036038101906100ef9190610429565b610139565b6040516101019190610497565b60405180910390f35b610124600480360381019061011f9190610389565b610142565b005b606090565b6000919050565b6000919050565b60009392505050565b50565b600081519050919050565b600082825260208201905092915050565b60005b8381101561017f578082015181840152602081019050610164565b60008484015250505050565b6000601f19601f8301169050919050565b60006101a782610145565b6101b18185610150565b93506101c1818560208601610161565b6101ca8161018b565b840191505092915050565b600060208201905081810360008301526101ef818461019c565b905092915050565b6000604051905090565b600080fd5b600080fd5b600080fd5b7f4e487b7100000000000000000000000000000000000000000000000000000000600052604160045260246000fd5b6102488261018b565b810181811067ffffffffffffffff8211171561026757610266610210565b5b80604052505050565b600061027a6101f7565b9050610286828261023f565b919050565b600067ffffffffffffffff8211156102a6576102a5610210565b5b602082029050602081019050919050565b600080fd5b6000819050919050565b6102cf816102bc565b81146102da57600080fd5b50565b6000813590506102ec816102c6565b92915050565b60006103056103008461028b565b610270565b90508083825260208201905060208402830185811115610328576103276102b7565b5b835b81811015610351578061033d88826102dd565b84526020840193505060208101905061032a565b5050509392505050565b600082601f8301126103705761036f61020b565b5b81356103808482602086016102f2565b91505092915050565b60006020828403121561039f5761039e610201565b5b600082013567ffffffffffffffff8111156103bd576103bc610206565b5b6103c98482850161035b565b91505092915050565b6103db816102bc565b82525050565b60006020820190506103f660008301846103d2565b92915050565b60006020828403121561041257610411610201565b5b6000610420848285016102dd565b91505092915050565b60008060006060848603121561044257610441610201565b5b6000610450868287016102dd565b9350506020610461868287016102dd565b9250506040610472868287016102dd565b9150509250925092565b60008115159050919050565b6104918161047c565b82525050565b60006020820190506104ac6000830184610488565b9291505056fea264697066735822122078aabcff223259ea25d6475ee30b34cadd45e3eed457f17884091906285b57b664736f6c634300081b0033307835643534336139353431346537663130393164353037393238373661323032636439316465343534373038356162616136386132303562326535613764646661363238663163623464396538326566323135333765323933613636393161653136313665633665373836663063373063663163333865333163373233386535307833393663386330303535353565313536386330306161616230303030616161623078373365646137353332393964376434383333333964383038303961316438303535336264613430326666666535626665666666666666666630303030303030313078316130313131656133393766653639613462316261376236343334626163643736343737346238346633383531326266363733306432613066366230663632343165616266666665623135336666666662396665666666666666666661616162","opcodes":"PUSH1 0x80 PUSH1 0x40 MSTORE PUSH1 0x40 MLOAD DUP1 PUSH1 0xA0 ADD PUSH1 0x40 MSTORE DUP1 PUSH1 0x62 DUP2 MSTORE PUSH1 0x20 ADD PUSH2 0x9BE PUSH1 0x62 SWAP2 CODECOPY PUSH1 0x0 SWAP1 DUP2 PUSH2 0x2B SWAP2 SWAP1 PUSH2 0x310 JUMP JUMPDEST POP PUSH1 0x40 MLOAD DUP1 PUSH1 0x80 ADD PUSH1 0x40 MSTORE DUP1 PUSH1 0x42 DUP2 MSTORE PUSH1 0x20 ADD PUSH2 0x97C PUSH1 0x42 SWAP2 CODECOPY PUSH1 0x1 SWAP1 DUP2 PUSH2 0x53 SWAP2 SWAP1 PUSH2 0x310 JUMP JUMPDEST POP PUSH1 0x40 MLOAD DUP1 PUSH1 0x60 ADD PUSH1 0x40 MSTORE DUP1 PUSH1 0x22 DUP2 MSTORE PUSH1 0x20 ADD PUSH2 0x95A PUSH1 0x22 SWAP2 CODECOPY PUSH1 0x2 SWAP1 DUP2 PUSH2 0x7B SWAP2 SWAP1 PUSH2 0x310 JUMP JUMPDEST POP PUSH1 0x40 MLOAD DUP1 PUSH1 0xC0 ADD PUSH1 0x40 MSTORE DUP1 PUSH1 0x81 DUP2 MSTORE PUSH1 0x20 ADD PUSH2 0x8D9 PUSH1 0x81 SWAP2 CODECOPY PUSH1 0x3 SWAP1 DUP2 PUSH2 0xA3 SWAP2 SWAP1 PUSH2 0x310 JUMP JUMPDEST POP PUSH1 0x1 PUSH1 0x4 SSTORE PUSH1 0x4 PUSH1 0x5 SSTORE CALLVALUE DUP1 ISZERO PUSH2 0xBA JUMPI PUSH1 0x0 DUP1 REVERT JUMPDEST POP PUSH2 0x3E2 JUMP JUMPDEST PUSH1 0x0 DUP2 MLOAD SWAP1 POP SWAP2 SWAP1 POP JUMP JUMPDEST PUSH32 0x4E487B7100000000000000000000000000000000000000000000000000000000 PUSH1 0x0 MSTORE PUSH1 0x41 PUSH1 0x4 MSTORE PUSH1 0x24 PUSH1 0x0 REVERT JUMPDEST PUSH32 0x4E487B7100000000000000000000000000000000000000000000000000000000 PUSH1 0x0 MSTORE PUSH1 0x22 PUSH1 0x4 MSTORE PUSH1 0x24 PUSH1 0x0 REVERT JUMPDEST PUSH1 0x0 PUSH1 0x2 DUP3 DIV SWAP1 POP PUSH1 0x1 DUP3 AND DUP1 PUSH2 0x141 JUMPI PUSH1 0x7F DUP3 AND SWAP2 POP JUMPDEST PUSH1 0x20 DUP3 LT DUP2 SUB PUSH2 0x154 JUMPI PUSH2 0x153 PUSH2 0xFA JUMP JUMPDEST JUMPDEST POP SWAP2 SWAP1 POP JUMP JUMPDEST PUSH1 0x0 DUP2 SWAP1 POP DUP2 PUSH1 0x0 MSTORE PUSH1 0x20 PUSH1 0x0 KECCAK256 SWAP1 POP SWAP2 SWAP1 POP JUMP JUMPDEST PUSH1 0x0 PUSH1 0x20 PUSH1 0x1F DUP4 ADD DIV SWAP1 POP SWAP2 SWAP1 POP JUMP JUMPDEST PUSH1 0x0 DUP3 DUP3 SHL SWAP1 POP SWAP3 SWAP2 POP POP JUMP JUMPDEST PUSH1 0x0 PUSH1 0x8 DUP4 MUL PUSH2 0x1BC PUSH32 0xFFFFFFFFFFFFFFFFFFFFFFFFFFFFFFFFFFFFFFFFFFFFFFFFFFFFFFFFFFFFFFFF DUP3 PUSH2 0x17F JUMP JUMPDEST PUSH2 0x1C6 DUP7 DUP4 PUSH2 0x17F JUMP JUMPDEST SWAP6 POP DUP1 NOT DUP5 AND SWAP4 POP DUP1 DUP7 AND DUP5 OR SWAP3 POP POP POP SWAP4 SWAP3 POP POP POP JUMP JUMPDEST PUSH1 0x0 DUP2 SWAP1 POP SWAP2 SWAP1 POP JUMP JUMPDEST PUSH1 0x0 DUP2 SWAP1 POP SWAP2 SWAP1 POP JUMP JUMPDEST PUSH1 0x0 PUSH2 0x20D PUSH2 0x208 PUSH2 0x203 DUP5 PUSH2 0x1DE JUMP JUMPDEST PUSH2 0x1E8 JUMP JUMPDEST PUSH2 0x1DE JUMP JUMPDEST SWAP1 POP SWAP2 SWAP1 POP JUMP JUMPDEST PUSH1 0x0 DUP2 SWAP1 POP SWAP2 SWAP1 POP JUMP JUMPDEST PUSH2 0x227 DUP4 PUSH2 0x1F2 JUMP JUMPDEST PUSH2 0x23B PUSH2 0x233 DUP3 PUSH2 0x214 JUMP JUMPDEST DUP5 DUP5 SLOAD PUSH2 0x18C JUMP JUMPDEST DUP3 SSTORE POP POP POP POP JUMP JUMPDEST PUSH1 0x0 SWAP1 JUMP JUMPDEST PUSH2 0x250 PUSH2 0x243 JUMP JUMPDEST PUSH2 0x25B DUP2 DUP5 DUP5 PUSH2 0x21E JUMP JUMPDEST POP POP POP JUMP JUMPDEST JUMPDEST DUP2 DUP2 LT ISZERO PUSH2 0x27F JUMPI PUSH2 0x274 PUSH1 0x0 DUP3 PUSH2 0x248 JUMP JUMPDEST PUSH1 0x1 DUP2 ADD SWAP1 POP PUSH2 0x261 JUMP JUMPDEST POP POP JUMP JUMPDEST PUSH1 0x1F DUP3 GT ISZERO PUSH2 0x2C4 JUMPI PUSH2 0x295 DUP2 PUSH2 0x15A JUMP JUMPDEST PUSH2 0x29E DUP5 PUSH2 0x16F JUMP JUMPDEST DUP2 ADD PUSH1 0x20 DUP6 LT ISZERO PUSH2 0x2AD JUMPI DUP2 SWAP1 POP JUMPDEST PUSH2 0x2C1 PUSH2 0x2B9 DUP6 PUSH2 0x16F JUMP JUMPDEST DUP4 ADD DUP3 PUSH2 0x260 JUMP JUMPDEST POP POP JUMPDEST POP POP POP JUMP JUMPDEST PUSH1 0x0 DUP3 DUP3 SHR SWAP1 POP SWAP3 SWAP2 POP POP JUMP JUMPDEST PUSH1 0x0 PUSH2 0x2E7 PUSH1 0x0 NOT DUP5 PUSH1 0x8 MUL PUSH2 0x2C9 JUMP JUMPDEST NOT DUP1 DUP4 AND SWAP2 POP POP SWAP3 SWAP2 POP POP JUMP JUMPDEST PUSH1 0x0 PUSH2 0x300 DUP4 DUP4 PUSH2 0x2D6 JUMP JUMPDEST SWAP2 POP DUP3 PUSH1 0x2 MUL DUP3 OR SWAP1 POP SWAP3 SWAP2 POP POP JUMP JUMPDEST PUSH2 0x319 DUP3 PUSH2 0xC0 JUMP JUMPDEST PUSH8 0xFFFFFFFFFFFFFFFF DUP2 GT ISZERO PUSH2 0x332 JUMPI PUSH2 0x331 PUSH2 0xCB JUMP JUMPDEST JUMPDEST PUSH2 0x33C DUP3 SLOAD PUSH2 0x129 JUMP JUMPDEST PUSH2 0x347 DUP3 DUP3 DUP6 PUSH2 0x283 JUMP JUMPDEST PUSH1 0x0 PUSH1 0x20 SWAP1 POP PUSH1 0x1F DUP4 GT PUSH1 0x1 DUP2 EQ PUSH2 0x37A JUMPI PUSH1 0x0 DUP5 ISZERO PUSH2 0x368 JUMPI DUP3 DUP8 ADD MLOAD SWAP1 POP JUMPDEST PUSH2 0x372 DUP6 DUP3 PUSH2 0x2F4 JUMP JUMPDEST DUP7 SSTORE POP PUSH2 0x3DA JUMP JUMPDEST PUSH1 0x1F NOT DUP5 AND PUSH2 0x388 DUP7 PUSH2 0x15A JUMP JUMPDEST PUSH1 0x0 JUMPDEST DUP3 DUP2 LT ISZERO PUSH2 0x3B0 JUMPI DUP5 DUP10 ADD MLOAD DUP3 SSTORE PUSH1 0x1 DUP3 ADD SWAP2 POP PUSH1 0x20 DUP6 ADD SWAP5 POP PUSH1 0x20 DUP2 ADD SWAP1 POP PUSH2 0x38B JUMP JUMPDEST DUP7 DUP4 LT ISZERO PUSH2 0x3CD JUMPI DUP5 DUP10 ADD MLOAD PUSH2 0x3C9 PUSH1 0x1F DUP10 AND DUP3 PUSH2 0x2D6 JUMP JUMPDEST DUP4 SSTORE POP JUMPDEST PUSH1 0x1 PUSH1 0x2 DUP9 MUL ADD DUP9 SSTORE POP POP POP JUMPDEST POP POP POP POP POP POP JUMP JUMPDEST PUSH2 0x4E8 DUP1 PUSH2 0x3F1 PUSH1 0x0 CODECOPY PUSH1 0x0 RETURN INVALID PUSH1 0x80 PUSH1 0x40 MSTORE CALLVALUE DUP1 ISZERO PUSH2 0x10 JUMPI PUSH1 0x0 DUP1 REVERT JUMPDEST POP PUSH1 0x4 CALLDATASIZE LT PUSH2 0x57 JUMPI PUSH1 0x0 CALLDATALOAD PUSH1 0xE0 SHR DUP1 PUSH4 0xFA90002 EQ PUSH2 0x5C JUMPI DUP1 PUSH4 0x22A5973E EQ PUSH2 0x7A JUMPI DUP1 PUSH4 0x2FB1B25F EQ PUSH2 0xAA JUMPI DUP1 PUSH4 0x30430402 EQ PUSH2 0xDA JUMPI DUP1 PUSH4 0xAFACB0C6 EQ PUSH2 0x10A JUMPI JUMPDEST PUSH1 0x0 DUP1 REVERT JUMPDEST PUSH2 0x64 PUSH2 0x126 JUMP JUMPDEST PUSH1 0x40 MLOAD PUSH2 0x71 SWAP2 SWAP1 PUSH2 0x1D5 JUMP JUMPDEST PUSH1 0x40 MLOAD DUP1 SWAP2 SUB SWAP1 RETURN JUMPDEST PUSH2 0x94 PUSH1 0x4 DUP1 CALLDATASIZE SUB DUP2 ADD SWAP1 PUSH2 0x8F SWAP2 SWAP1 PUSH2 0x389 JUMP JUMPDEST PUSH2 0x12B JUMP JUMPDEST PUSH1 0x40 MLOAD PUSH2 0xA1 SWAP2 SWAP1 PUSH2 0x3E1 JUMP JUMPDEST PUSH1 0x40 MLOAD DUP1 SWAP2 SUB SWAP1 RETURN JUMPDEST PUSH2 0xC4 PUSH1 0x4 DUP1 CALLDATASIZE SUB DUP2 ADD SWAP1 PUSH2 0xBF SWAP2 SWAP1 PUSH2 0x3FC JUMP JUMPDEST PUSH2 0x132 JUMP JUMPDEST PUSH1 0x40 MLOAD PUSH2 0xD1 SWAP2 SWAP1 PUSH2 0x3E1 JUMP JUMPDEST PUSH1 0x40 MLOAD DUP1 SWAP2 SUB SWAP1 RETURN JUMPDEST PUSH2 0xF4 PUSH1 0x4 DUP1 CALLDATASIZE SUB DUP2 ADD SWAP1 PUSH2 0xEF SWAP2 SWAP1 PUSH2 0x429 JUMP JUMPDEST PUSH2 0x139 JUMP JUMPDEST PUSH1 0x40 MLOAD PUSH2 0x101 SWAP2 SWAP1 PUSH2 0x497 JUMP JUMPDEST PUSH1 0x40 MLOAD DUP1 SWAP2 SUB SWAP1 RETURN JUMPDEST PUSH2 0x124 PUSH1 0x4 DUP1 CALLDATASIZE SUB DUP2 ADD SWAP1 PUSH2 0x11F SWAP2 SWAP1 PUSH2 0x389 JUMP JUMPDEST PUSH2 0x142 JUMP JUMPDEST STOP JUMPDEST PUSH1 0x60 SWAP1 JUMP JUMPDEST PUSH1 0x0 SWAP2 SWAP1 POP JUMP JUMPDEST PUSH1 0x0 SWAP2 SWAP1 POP JUMP JUMPDEST PUSH1 0x0 SWAP4 SWAP3 POP POP POP JUMP JUMPDEST POP JUMP JUMPDEST PUSH1 0x0 DUP2 MLOAD SWAP1 POP SWAP2 SWAP1 POP JUMP JUMPDEST PUSH1 0x0 DUP3 DUP3 MSTORE PUSH1 0x20 DUP3 ADD SWAP1 POP SWAP3 SWAP2 POP POP JUMP JUMPDEST PUSH1 0x0 JUMPDEST DUP4 DUP2 LT ISZERO PUSH2 0x17F JUMPI DUP1 DUP3 ADD MLOAD DUP2 DUP5 ADD MSTORE PUSH1 0x20 DUP2 ADD SWAP1 POP PUSH2 0x164 JUMP JUMPDEST PUSH1 0x0 DUP5 DUP5 ADD MSTORE POP POP POP POP JUMP JUMPDEST PUSH1 0x0 PUSH1 0x1F NOT PUSH1 0x1F DUP4 ADD AND SWAP1 POP SWAP2 SWAP1 POP JUMP JUMPDEST PUSH1 0x0 PUSH2 0x1A7 DUP3 PUSH2 0x145 JUMP JUMPDEST PUSH2 0x1B1 DUP2 DUP6 PUSH2 0x150 JUMP JUMPDEST SWAP4 POP PUSH2 0x1C1 DUP2 DUP6 PUSH1 0x20 DUP7 ADD PUSH2 0x161 JUMP JUMPDEST PUSH2 0x1CA DUP2 PUSH2 0x18B JUMP JUMPDEST DUP5 ADD SWAP2 POP POP SWAP3 SWAP2 POP POP JUMP JUMPDEST PUSH1 0x0 PUSH1 0x20 DUP3 ADD SWAP1 POP DUP2 DUP2 SUB PUSH1 0x0 DUP4 ADD MSTORE PUSH2 0x1EF DUP2 DUP5 PUSH2 0x19C JUMP JUMPDEST SWAP1 POP SWAP3 SWAP2 POP POP JUMP JUMPDEST PUSH1 0x0 PUSH1 0x40 MLOAD SWAP1 POP SWAP1 JUMP JUMPDEST PUSH1 0x0 DUP1 REVERT JUMPDEST PUSH1 0x0 DUP1 REVERT JUMPDEST PUSH1 0x0 DUP1 REVERT JUMPDEST PUSH32 0x4E487B7100000000000000000000000000000000000000000000000000000000 PUSH1 0x0 MSTORE PUSH1 0x41 PUSH1 0x4 MSTORE PUSH1 0x24 PUSH1 0x0 REVERT JUMPDEST PUSH2 0x248 DUP3 PUSH2 0x18B JUMP JUMPDEST DUP2 ADD DUP2 DUP2 LT PUSH8 0xFFFFFFFFFFFFFFFF DUP3 GT OR ISZERO PUSH2 0x267 JUMPI PUSH2 0x266 PUSH2 0x210 JUMP JUMPDEST JUMPDEST DUP1 PUSH1 0x40 MSTORE POP POP POP JUMP JUMPDEST PUSH1 0x0 PUSH2 0x27A PUSH2 0x1F7 JUMP JUMPDEST SWAP1 POP PUSH2 0x286 DUP3 DUP3 PUSH2 0x23F JUMP JUMPDEST SWAP2 SWAP1 POP JUMP JUMPDEST PUSH1 0x0 PUSH8 0xFFFFFFFFFFFFFFFF DUP3 GT ISZERO PUSH2 0x2A6 JUMPI PUSH2 0x2A5 PUSH2 0x210 JUMP JUMPDEST JUMPDEST PUSH1 0x20 DUP3 MUL SWAP1 POP PUSH1 0x20 DUP2 ADD SWAP1 POP SWAP2 SWAP1 POP JUMP JUMPDEST PUSH1 0x0 DUP1 REVERT JUMPDEST PUSH1 0x0 DUP2 SWAP1 POP SWAP2 SWAP1 POP JUMP JUMPDEST PUSH2 0x2CF DUP2 PUSH2 0x2BC JUMP JUMPDEST DUP2 EQ PUSH2 0x2DA JUMPI PUSH1 0x0 DUP1 REVERT JUMPDEST POP JUMP JUMPDEST PUSH1 0x0 DUP2 CALLDATALOAD SWAP1 POP PUSH2 0x2EC DUP2 PUSH2 0x2C6 JUMP JUMPDEST SWAP3 SWAP2 POP POP JUMP JUMPDEST PUSH1 0x0 PUSH2 0x305 PUSH2 0x300 DUP5 PUSH2 0x28B JUMP JUMPDEST PUSH2 0x270 JUMP JUMPDEST SWAP1 POP DUP1 DUP4 DUP3 MSTORE PUSH1 0x20 DUP3 ADD SWAP1 POP PUSH1 0x20 DUP5 MUL DUP4 ADD DUP6 DUP2 GT ISZERO PUSH2 0x328 JUMPI PUSH2 0x327 PUSH2 0x2B7 JUMP JUMPDEST JUMPDEST DUP4 JUMPDEST DUP2 DUP2 LT ISZERO PUSH2 0x351 JUMPI DUP1 PUSH2 0x33D DUP9 DUP3 PUSH2 0x2DD JUMP JUMPDEST DUP5 MSTORE PUSH1 0x20 DUP5 ADD SWAP4 POP POP PUSH1 0x20 DUP2 ADD SWAP1 POP PUSH2 0x32A JUMP JUMPDEST POP POP POP SWAP4 SWAP3 POP POP POP JUMP JUMPDEST PUSH1 0x0 DUP3 PUSH1 0x1F DUP4 ADD SLT PUSH2 0x370 JUMPI PUSH2 0x36F PUSH2 0x20B JUMP JUMPDEST JUMPDEST DUP2 CALLDATALOAD PUSH2 0x380 DUP5 DUP3 PUSH1 0x20 DUP7 ADD PUSH2 0x2F2 JUMP JUMPDEST SWAP2 POP POP SWAP3 SWAP2 POP POP JUMP JUMPDEST PUSH1 0x0 PUSH1 0x20 DUP3 DUP5 SUB SLT ISZERO PUSH2 0x39F JUMPI PUSH2 0x39E PUSH2 0x201 JUMP JUMPDEST JUMPDEST PUSH1 0x0 DUP3 ADD CALLDATALOAD PUSH8 0xFFFFFFFFFFFFFFFF DUP2 GT ISZERO PUSH2 0x3BD JUMPI PUSH2 0x3BC PUSH2 0x206 JUMP JUMPDEST JUMPDEST PUSH2 0x3C9 DUP5 DUP3 DUP6 ADD PUSH2 0x35B JUMP JUMPDEST SWAP2 POP POP SWAP3 SWAP2 POP POP JUMP JUMPDEST PUSH2 0x3DB DUP2 PUSH2 0x2BC JUMP JUMPDEST DUP3 MSTORE POP POP JUMP JUMPDEST PUSH1 0x0 PUSH1 0x20 DUP3 ADD SWAP1 POP PUSH2 0x3F6 PUSH1 0x0 DUP4 ADD DUP5 PUSH2 0x3D2 JUMP JUMPDEST SWAP3 SWAP2 POP POP JUMP JUMPDEST PUSH1 0x0 PUSH1 0x20 DUP3 DUP5 SUB SLT ISZERO PUSH2 0x412 JUMPI PUSH2 0x411 PUSH2 0x201 JUMP JUMPDEST JUMPDEST PUSH1 0x0 PUSH2 0x420 DUP5 DUP3 DUP6 ADD PUSH2 0x2DD JUMP JUMPDEST SWAP2 POP POP SWAP3 SWAP2 POP POP JUMP JUMPDEST PUSH1 0x0 DUP1 PUSH1 0x0 PUSH1 0x60 DUP5 DUP7 SUB SLT ISZERO PUSH2 0x442 JUMPI PUSH2 0x441 PUSH2 0x201 JUMP JUMPDEST JUMPDEST PUSH1 0x0 PUSH2 0x450 DUP7 DUP3 DUP8 ADD PUSH2 0x2DD JUMP JUMPDEST SWAP4 POP POP PUSH1 0x20 PUSH2 0x461 DUP7 DUP3 DUP8 ADD PUSH2 0x2DD JUMP JUMPDEST SWAP3 POP POP PUSH1 0x40 PUSH2 0x472 DUP7 DUP3 DUP8 ADD PUSH2 0x2DD JUMP JUMPDEST SWAP2 POP POP SWAP3 POP SWAP3 POP SWAP3 JUMP JUMPDEST PUSH1 0x0 DUP2 ISZERO ISZERO SWAP1 POP SWAP2 SWAP1 POP JUMP JUMPDEST PUSH2 0x491 DUP2 PUSH2 0x47C JUMP JUMPDEST DUP3 MSTORE POP POP JUMP JUMPDEST PUSH1 0x0 PUSH1 0x20 DUP3 ADD SWAP1 POP PUSH2 0x4AC PUSH1 0x0 DUP4 ADD DUP5 PUSH2 0x488 JUMP JUMPDEST SWAP3 SWAP2 POP POP JUMP INVALID LOG2 PUSH5 0x6970667358 0x22 SLT KECCAK256 PUSH25 0xAABCFF223259EA25D6475EE30B34CADD45E3EED457F1788409 NOT MOD 0x28 JUMPDEST JUMPI 0xB6 PUSH5 0x736F6C6343 STOP ADDMOD SHL STOP CALLER ADDRESS PUSH25 0x35643534336139353431346537663130393164353037393238 CALLDATACOPY CALLDATASIZE PUSH2 0x3230 ORIGIN PUSH4 0x64393164 PUSH6 0x343534373038 CALLDATALOAD PUSH2 0x6261 PUSH2 0x3638 PUSH2 0x3230 CALLDATALOAD PUSH3 0x326535 PUSH2 0x3764 PUSH5 0x6661363238 PUSH7 0x31636234643965 CODESIZE ORIGIN PUSH6 0x663231353337 PUSH6 0x323933613636 CODECOPY BALANCE PUSH2 0x6531 CALLDATASIZE BALANCE CALLDATASIZE PUSH6 0x633665373836 PUSH7 0x30633730636631 PUSH4 0x33386533 BALANCE PUSH4 0x37323338 PUSH6 0x353078333936 PUSH4 0x38633030 CALLDATALOAD CALLDATALOAD CALLDATALOAD CALLDATALOAD PUSH6 0x313536386330 ADDRESS PUSH2 0x6161 PUSH3 0x303030 ADDRESS PUSH2 0x6161 PUSH3 0x307837 CALLER PUSH6 0x646137353332 CODECOPY CODECOPY PUSH5 0x3764343833 CALLER CALLER CODECOPY PUSH5 0x3830383039 PUSH2 0x3164 CODESIZE ADDRESS CALLDATALOAD CALLDATALOAD CALLER PUSH3 0x646134 ADDRESS ORIGIN PUSH7 0x66666535626665 PUSH7 0x66666666666666 ADDRESS ADDRESS ADDRESS ADDRESS ADDRESS ADDRESS ADDRESS BALANCE ADDRESS PUSH25 0x31613031313165613339376665363961346231626137623634 CALLER CALLVALUE PUSH3 0x616364 CALLDATACOPY CALLDATASIZE CALLVALUE CALLDATACOPY CALLDATACOPY CALLVALUE PUSH3 0x383466 CALLER CODESIZE CALLDATALOAD BALANCE ORIGIN PUSH3 0x663637 CALLER ADDRESS PUSH5 0x3261306636 PUSH3 0x306636 ORIGIN CALLVALUE BALANCE PUSH6 0x616266666665 PUSH3 0x313533 PUSH7 0x66666662396665 PUSH7 0x66666666666666 PUSH2 0x6161 PUSH3 0x0 "},"methodIdentifiers":{"aggregateKeys(uint256[])":"afacb0c6","aggregateSignature(uint256[])":"22a5973e","keyGen()":"0fa90002","sign(uint256)":"2fb1b25f","verify(uint256,uint256,uint256)":"30430402"}}}}}