{"contracts/field/finiteField.sol":{"FiniteField":{"abi":[{"inputs":[{"internalType":"uint256","name":"prime","type":"uint256"}],"stateMutability":"nonpayable","type":"constructor"},{"inputs":[{"internalType":"uint256","name":"value","type":"uint256"}],"name":"createElement","outputs":[{"components":[{"internalType":"uint256","name":"value","type":"uint256"}],"internalType":"struct Zp","name":"","type":"tuple"}],"stateMutability":"view","type":"function"},{"inputs":[{"components":[{"internalType":"uint256","name":"value","type":"uint256"}],"internalType":"struct Zp","name":"a","type":"tuple"},{"components":[{"internalType":"uint256","name":"value","type":"uint256"}],"internalType":"struct Zp","name":"b","type":"tuple"}],"name":"div","outputs":[{"components":[{"internalType":"uint256","name":"value","type":"uint256"}],"internalType":"struct Zp","name":"","type":"tuple"}],"stateMutability":"view","type":"function"},{"inputs":[{"components":[{"internalType":"uint256","name":"value","type":"uint256"}],"internalType":"struct Zp","name":"a","type":"tuple"},{"components":[{"internalType":"uint256","name":"value","type":"uint256"}],"internalType":"struct Zp","name":"b","type":"tuple"}],"name":"equals","outputs":[{"internalType":"bool","name":"","type":"bool"}],"stateMutability":"pure","type":"function"},{"inputs":[{"internalType":"uint256","name":"base","type":"uint256"},{"internalType":"uint256","name":"exponent","type":"uint256"}],"name":"exp","outputs":[{"internalType":"uint256","name":"","type":"uint256"}],"stateMutability":"view","type":"function"},{"inputs":[{"components":[{"internalType":"uint256","name":"value","type":"uint256"}],"internalType":"struct Zp","name":"a","type":"tuple"}],"name":"inverse","outputs":[{"components":[{"internalType":"uint256","name":"value","type":"uint256"}],"internalType":"struct Zp","name":"","type":"tuple"}],"stateMutability":"view","type":"function"},{"inputs":[{"components":[{"internalType":"uint256","name":"value","type":"uint256"}],"internalType":"struct Zp","name":"a","type":"tuple"},{"components":[{"internalType":"uint256","name":"value","type":"uint256"}],"internalType":"struct Zp","name":"b","type":"tuple"}],"name":"mul","outputs":[{"components":[{"internalType":"uint256","name":"value","type":"uint256"}],"internalType":"struct Zp","name":"","type":"tuple"}],"stateMutability":"view","type":"function"},{"inputs":[{"components":[{"internalType":"uint256","name":"value","type":"uint256"}],"internalType":"struct Zp","name":"a","type":"tuple"}],"name":"mul_nonres","outputs":[{"components":[{"internalType":"uint256","name":"value","type":"uint256"}],"internalType":"struct Zp","name":"","type":"tuple"}],"stateMutability":"pure","type":"function"},{"inputs":[],"name":"p","outputs":[{"internalType":"uint256","name":"","type":"uint256"}],"stateMutability":"view","type":"function"},{"inputs":[{"components":[{"internalType":"uint256","name":"value","type":"uint256"}],"internalType":"struct Zp","name":"a","type":"tuple"},{"components":[{"internalType":"uint256","name":"value","type":"uint256"}],"internalType":"struct Zp","name":"b","type":"tuple"}],"name":"sub","outputs":[{"components":[{"internalType":"uint256","name":"value","type":"uint256"}],"internalType":"struct Zp","name":"","type":"tuple"}],"stateMutability":"view","type":"function"},{"inputs":[{"components":[{"internalType":"uint256","name":"value","type":"uint256"}],"internalType":"struct Zp","name":"a","type":"tuple"},{"components":[{"internalType":"uint256","name":"value","type":"uint256"}],"internalType":"struct Zp","name":"b","type":"tuple"}],"name":"sum","outputs":[{"components":[{"internalType":"uint256","name":"value","type":"uint256"}],"internalType":"struct Zp","name":"","type":"tuple"}],"stateMutability":"view","type":"function"},{"inputs":[],"name":"zero","outputs":[{"components":[{"internalType":"uint256","name":"value","type":"uint256"}],"internalType":"struct Zp","name":"","type":"tuple"}],"stateMutability":"pure","type":"function"}],"evm":{"bytecode":{"linkReferences":{},"object":"6080604052348015600f57600080fd5b506040516109ed3803806109ed8339818101604052810190602f91906071565b80600081905550506099565b600080fd5b6000819050919050565b6051816040565b8114605b57600080fd5b50565b600081519050606b81604a565b92915050565b6000602082840312156084576083603b565b5b6000609084828501605e565b91505092915050565b610945806100a86000396000f3fe608060405234801561001057600080fd5b50600436106100a95760003560e01c8063bc1b392d11610071578063bc1b392d1461018c578063c4524947146101aa578063c870cbda146101da578063d629f5281461020a578063f5f565f81461023a578063f6509dd61461026a576100a9565b80639ae8886a146100ae578063a253aeee146100cc578063aa28c5be146100fc578063b0df7c1d1461012c578063b2eb1a5a1461015c575b600080fd5b6100b661029a565b6040516100c39190610522565b60405180910390f35b6100e660048036038101906100e19190610645565b6102a0565b6040516100f391906106b0565b60405180910390f35b610116600480360381019061011191906106cb565b6102d4565b60405161012391906106b0565b60405180910390f35b61014660048036038101906101419190610645565b6102e4565b60405161015391906106b0565b60405180910390f35b61017660048036038101906101719190610645565b610306565b60405161018391906106b0565b60405180910390f35b61019461033a565b6040516101a191906106b0565b60405180910390f35b6101c460048036038101906101bf91906106f8565b610357565b6040516101d191906106b0565b60405180910390f35b6101f460048036038101906101ef9190610645565b610382565b60405161020191906106b0565b60405180910390f35b610224600480360381019061021f9190610645565b6103eb565b6040516102319190610740565b60405180910390f35b610254600480360381019061024f919061075b565b610400565b6040516102619190610522565b60405180910390f35b610284600480360381019061027f91906106cb565b610476565b60405161029191906106b0565b60405180910390f35b60005481565b6102a86104f6565b6102cc600054806102bc576102bb61079b565b5b8360000151856000015108610357565b905092915050565b6102dc6104f6565b819050919050565b6102ec6104f6565b6102fe836102f984610476565b610306565b905092915050565b61030e6104f6565b610332600054806103225761032161079b565b5b8360000151856000015109610357565b905092915050565b6103426104f6565b60405180602001604052806000815250905090565b61035f6104f6565b60405180602001604052806000548461037891906107ca565b8152509050919050565b61038a6104f6565b60008260000151846000015110156103c257826000015184600001516000546103b3919061082a565b6103bd919061085e565b6103d7565b826000015184600001516103d6919061085e565b5b90506103e281610357565b91505092915050565b60008160000151836000015114905092915050565b60008060019050600080548561041691906107ca565b905060008490505b600081111561046a5760018082160361044857600054806104425761044161079b565b5b82840992505b600054806104595761045861079b565b5b8283099150600181901c905061041e565b82935050505092915050565b61047e6104f6565b60008260000151036104c5576040517f08c379a00000000000000000000000000000000000000000000000000000000081526004016104bc906108ef565b60405180910390fd5b60006104e3836000015160026000546104de919061085e565b610400565b90506104ee81610357565b915050919050565b6040518060200160405280600081525090565b6000819050919050565b61051c81610509565b82525050565b60006020820190506105376000830184610513565b92915050565b6000604051905090565b600080fd5b600080fd5b6000601f19601f8301169050919050565b7f4e487b7100000000000000000000000000000000000000000000000000000000600052604160045260246000fd5b61059a82610551565b810181811067ffffffffffffffff821117156105b9576105b8610562565b5b80604052505050565b60006105cc61053d565b90506105d88282610591565b919050565b6105e681610509565b81146105f157600080fd5b50565b600081359050610603816105dd565b92915050565b60006020828403121561061f5761061e61054c565b5b61062960206105c2565b90506000610639848285016105f4565b60008301525092915050565b6000806040838503121561065c5761065b610547565b5b600061066a85828601610609565b925050602061067b85828601610609565b9150509250929050565b61068e81610509565b82525050565b6020820160008201516106aa6000850182610685565b50505050565b60006020820190506106c56000830184610694565b92915050565b6000602082840312156106e1576106e0610547565b5b60006106ef84828501610609565b91505092915050565b60006020828403121561070e5761070d610547565b5b600061071c848285016105f4565b91505092915050565b60008115159050919050565b61073a81610725565b82525050565b60006020820190506107556000830184610731565b92915050565b6000806040838503121561077257610771610547565b5b6000610780858286016105f4565b9250506020610791858286016105f4565b9150509250929050565b7f4e487b7100000000000000000000000000000000000000000000000000000000600052601260045260246000fd5b60006107d582610509565b91506107e083610509565b9250826107f0576107ef61079b565b5b828206905092915050565b7f4e487b7100000000000000000000000000000000000000000000000000000000600052601160045260246000fd5b600061083582610509565b915061084083610509565b9250828201905080821115610858576108576107fb565b5b92915050565b600061086982610509565b915061087483610509565b925082820390508181111561088c5761088b6107fb565b5b92915050565b600082825260208201905092915050565b7f4469766973696f6e6520706572207a65726f206e6f6e207065726d657373612e600082015250565b60006108d9602083610892565b91506108e4826108a3565b602082019050919050565b60006020820190508181036000830152610908816108cc565b905091905056fea2646970667358221220e82b7f1d1ee2366ad375cfa61825d3b08d0db66f7ff451d10f0c7e31537fde1864736f6c634300081b0033","opcodes":"PUSH1 0x80 PUSH1 0x40 MSTORE CALLVALUE DUP1 ISZERO PUSH1 0xF JUMPI PUSH1 0x0 DUP1 REVERT JUMPDEST POP PUSH1 0x40 MLOAD PUSH2 0x9ED CODESIZE SUB DUP1 PUSH2 0x9ED DUP4 CODECOPY DUP2 DUP2 ADD PUSH1 0x40 MSTORE DUP2 ADD SWAP1 PUSH1 0x2F SWAP2 SWAP1 PUSH1 0x71 JUMP JUMPDEST DUP1 PUSH1 0x0 DUP2 SWAP1 SSTORE POP POP PUSH1 0x99 JUMP JUMPDEST PUSH1 0x0 DUP1 REVERT JUMPDEST PUSH1 0x0 DUP2 SWAP1 POP SWAP2 SWAP1 POP JUMP JUMPDEST PUSH1 0x51 DUP2 PUSH1 0x40 JUMP JUMPDEST DUP2 EQ PUSH1 0x5B JUMPI PUSH1 0x0 DUP1 REVERT JUMPDEST POP JUMP JUMPDEST PUSH1 0x0 DUP2 MLOAD SWAP1 POP PUSH1 0x6B DUP2 PUSH1 0x4A JUMP JUMPDEST SWAP3 SWAP2 POP POP JUMP JUMPDEST PUSH1 0x0 PUSH1 0x20 DUP3 DUP5 SUB SLT ISZERO PUSH1 0x84 JUMPI PUSH1 0x83 PUSH1 0x3B JUMP JUMPDEST JUMPDEST PUSH1 0x0 PUSH1 0x90 DUP5 DUP3 DUP6 ADD PUSH1 0x5E JUMP JUMPDEST SWAP2 POP POP SWAP3 SWAP2 POP POP JUMP JUMPDEST PUSH2 0x945 DUP1 PUSH2 0xA8 PUSH1 0x0 CODECOPY PUSH1 0x0 RETURN INVALID PUSH1 0x80 PUSH1 0x40 MSTORE CALLVALUE DUP1 ISZERO PUSH2 0x10 JUMPI PUSH1 0x0 DUP1 REVERT JUMPDEST POP PUSH1 0x4 CALLDATASIZE LT PUSH2 0xA9 JUMPI PUSH1 0x0 CALLDATALOAD PUSH1 0xE0 SHR DUP1 PUSH4 0xBC1B392D GT PUSH2 0x71 JUMPI DUP1 PUSH4 0xBC1B392D EQ PUSH2 0x18C JUMPI DUP1 PUSH4 0xC4524947 EQ PUSH2 0x1AA JUMPI DUP1 PUSH4 0xC870CBDA EQ PUSH2 0x1DA JUMPI DUP1 PUSH4 0xD629F528 EQ PUSH2 0x20A JUMPI DUP1 PUSH4 0xF5F565F8 EQ PUSH2 0x23A JUMPI DUP1 PUSH4 0xF6509DD6 EQ PUSH2 0x26A JUMPI PUSH2 0xA9 JUMP JUMPDEST DUP1 PUSH4 0x9AE8886A EQ PUSH2 0xAE JUMPI DUP1 PUSH4 0xA253AEEE EQ PUSH2 0xCC JUMPI DUP1 PUSH4 0xAA28C5BE EQ PUSH2 0xFC JUMPI DUP1 PUSH4 0xB0DF7C1D EQ PUSH2 0x12C JUMPI DUP1 PUSH4 0xB2EB1A5A EQ PUSH2 0x15C JUMPI JUMPDEST PUSH1 0x0 DUP1 REVERT JUMPDEST PUSH2 0xB6 PUSH2 0x29A JUMP JUMPDEST PUSH1 0x40 MLOAD PUSH2 0xC3 SWAP2 SWAP1 PUSH2 0x522 JUMP JUMPDEST PUSH1 0x40 MLOAD DUP1 SWAP2 SUB SWAP1 RETURN JUMPDEST PUSH2 0xE6 PUSH1 0x4 DUP1 CALLDATASIZE SUB DUP2 ADD SWAP1 PUSH2 0xE1 SWAP2 SWAP1 PUSH2 0x645 JUMP JUMPDEST PUSH2 0x2A0 JUMP JUMPDEST PUSH1 0x40 MLOAD PUSH2 0xF3 SWAP2 SWAP1 PUSH2 0x6B0 JUMP JUMPDEST PUSH1 0x40 MLOAD DUP1 SWAP2 SUB SWAP1 RETURN JUMPDEST PUSH2 0x116 PUSH1 0x4 DUP1 CALLDATASIZE SUB DUP2 ADD SWAP1 PUSH2 0x111 SWAP2 SWAP1 PUSH2 0x6CB JUMP JUMPDEST PUSH2 0x2D4 JUMP JUMPDEST PUSH1 0x40 MLOAD PUSH2 0x123 SWAP2 SWAP1 PUSH2 0x6B0 JUMP JUMPDEST PUSH1 0x40 MLOAD DUP1 SWAP2 SUB SWAP1 RETURN JUMPDEST PUSH2 0x146 PUSH1 0x4 DUP1 CALLDATASIZE SUB DUP2 ADD SWAP1 PUSH2 0x141 SWAP2 SWAP1 PUSH2 0x645 JUMP JUMPDEST PUSH2 0x2E4 JUMP JUMPDEST PUSH1 0x40 MLOAD PUSH2 0x153 SWAP2 SWAP1 PUSH2 0x6B0 JUMP JUMPDEST PUSH1 0x40 MLOAD DUP1 SWAP2 SUB SWAP1 RETURN JUMPDEST PUSH2 0x176 PUSH1 0x4 DUP1 CALLDATASIZE SUB DUP2 ADD SWAP1 PUSH2 0x171 SWAP2 SWAP1 PUSH2 0x645 JUMP JUMPDEST PUSH2 0x306 JUMP JUMPDEST PUSH1 0x40 MLOAD PUSH2 0x183 SWAP2 SWAP1 PUSH2 0x6B0 JUMP JUMPDEST PUSH1 0x40 MLOAD DUP1 SWAP2 SUB SWAP1 RETURN JUMPDEST PUSH2 0x194 PUSH2 0x33A JUMP JUMPDEST PUSH1 0x40 MLOAD PUSH2 0x1A1 SWAP2 SWAP1 PUSH2 0x6B0 JUMP JUMPDEST PUSH1 0x40 MLOAD DUP1 SWAP2 SUB SWAP1 RETURN JUMPDEST PUSH2 0x1C4 PUSH1 0x4 DUP1 CALLDATASIZE SUB DUP2 ADD SWAP1 PUSH2 0x1BF SWAP2 SWAP1 PUSH2 0x6F8 JUMP JUMPDEST PUSH2 0x357 JUMP JUMPDEST PUSH1 0x40 MLOAD PUSH2 0x1D1 SWAP2 SWAP1 PUSH2 0x6B0 JUMP JUMPDEST PUSH1 0x40 MLOAD DUP1 SWAP2 SUB SWAP1 RETURN JUMPDEST PUSH2 0x1F4 PUSH1 0x4 DUP1 CALLDATASIZE SUB DUP2 ADD SWAP1 PUSH2 0x1EF SWAP2 SWAP1 PUSH2 0x645 JUMP JUMPDEST PUSH2 0x382 JUMP JUMPDEST PUSH1 0x40 MLOAD PUSH2 0x201 SWAP2 SWAP1 PUSH2 0x6B0 JUMP JUMPDEST PUSH1 0x40 MLOAD DUP1 SWAP2 SUB SWAP1 RETURN JUMPDEST PUSH2 0x224 PUSH1 0x4 DUP1 CALLDATASIZE SUB DUP2 ADD SWAP1 PUSH2 0x21F SWAP2 SWAP1 PUSH2 0x645 JUMP JUMPDEST PUSH2 0x3EB JUMP JUMPDEST PUSH1 0x40 MLOAD PUSH2 0x231 SWAP2 SWAP1 PUSH2 0x740 JUMP JUMPDEST PUSH1 0x40 MLOAD DUP1 SWAP2 SUB SWAP1 RETURN JUMPDEST PUSH2 0x254 PUSH1 0x4 DUP1 CALLDATASIZE SUB DUP2 ADD SWAP1 PUSH2 0x24F SWAP2 SWAP1 PUSH2 0x75B JUMP JUMPDEST PUSH2 0x400 JUMP JUMPDEST PUSH1 0x40 MLOAD PUSH2 0x261 SWAP2 SWAP1 PUSH2 0x522 JUMP JUMPDEST PUSH1 0x40 MLOAD DUP1 SWAP2 SUB SWAP1 RETURN JUMPDEST PUSH2 0x284 PUSH1 0x4 DUP1 CALLDATASIZE SUB DUP2 ADD SWAP1 PUSH2 0x27F SWAP2 SWAP1 PUSH2 0x6CB JUMP JUMPDEST PUSH2 0x476 JUMP JUMPDEST PUSH1 0x40 MLOAD PUSH2 0x291 SWAP2 SWAP1 PUSH2 0x6B0 JUMP JUMPDEST PUSH1 0x40 MLOAD DUP1 SWAP2 SUB SWAP1 RETURN JUMPDEST PUSH1 0x0 SLOAD DUP2 JUMP JUMPDEST PUSH2 0x2A8 PUSH2 0x4F6 JUMP JUMPDEST PUSH2 0x2CC PUSH1 0x0 SLOAD DUP1 PUSH2 0x2BC JUMPI PUSH2 0x2BB PUSH2 0x79B JUMP JUMPDEST JUMPDEST DUP4 PUSH1 0x0 ADD MLOAD DUP6 PUSH1 0x0 ADD MLOAD ADDMOD PUSH2 0x357 JUMP JUMPDEST SWAP1 POP SWAP3 SWAP2 POP POP JUMP JUMPDEST PUSH2 0x2DC PUSH2 0x4F6 JUMP JUMPDEST DUP2 SWAP1 POP SWAP2 SWAP1 POP JUMP JUMPDEST PUSH2 0x2EC PUSH2 0x4F6 JUMP JUMPDEST PUSH2 0x2FE DUP4 PUSH2 0x2F9 DUP5 PUSH2 0x476 JUMP JUMPDEST PUSH2 0x306 JUMP JUMPDEST SWAP1 POP SWAP3 SWAP2 POP POP JUMP JUMPDEST PUSH2 0x30E PUSH2 0x4F6 JUMP JUMPDEST PUSH2 0x332 PUSH1 0x0 SLOAD DUP1 PUSH2 0x322 JUMPI PUSH2 0x321 PUSH2 0x79B JUMP JUMPDEST JUMPDEST DUP4 PUSH1 0x0 ADD MLOAD DUP6 PUSH1 0x0 ADD MLOAD MULMOD PUSH2 0x357 JUMP JUMPDEST SWAP1 POP SWAP3 SWAP2 POP POP JUMP JUMPDEST PUSH2 0x342 PUSH2 0x4F6 JUMP JUMPDEST PUSH1 0x40 MLOAD DUP1 PUSH1 0x20 ADD PUSH1 0x40 MSTORE DUP1 PUSH1 0x0 DUP2 MSTORE POP SWAP1 POP SWAP1 JUMP JUMPDEST PUSH2 0x35F PUSH2 0x4F6 JUMP JUMPDEST PUSH1 0x40 MLOAD DUP1 PUSH1 0x20 ADD PUSH1 0x40 MSTORE DUP1 PUSH1 0x0 SLOAD DUP5 PUSH2 0x378 SWAP2 SWAP1 PUSH2 0x7CA JUMP JUMPDEST DUP2 MSTORE POP SWAP1 POP SWAP2 SWAP1 POP JUMP JUMPDEST PUSH2 0x38A PUSH2 0x4F6 JUMP JUMPDEST PUSH1 0x0 DUP3 PUSH1 0x0 ADD MLOAD DUP5 PUSH1 0x0 ADD MLOAD LT ISZERO PUSH2 0x3C2 JUMPI DUP3 PUSH1 0x0 ADD MLOAD DUP5 PUSH1 0x0 ADD MLOAD PUSH1 0x0 SLOAD PUSH2 0x3B3 SWAP2 SWAP1 PUSH2 0x82A JUMP JUMPDEST PUSH2 0x3BD SWAP2 SWAP1 PUSH2 0x85E JUMP JUMPDEST PUSH2 0x3D7 JUMP JUMPDEST DUP3 PUSH1 0x0 ADD MLOAD DUP5 PUSH1 0x0 ADD MLOAD PUSH2 0x3D6 SWAP2 SWAP1 PUSH2 0x85E JUMP JUMPDEST JUMPDEST SWAP1 POP PUSH2 0x3E2 DUP2 PUSH2 0x357 JUMP JUMPDEST SWAP2 POP POP SWAP3 SWAP2 POP POP JUMP JUMPDEST PUSH1 0x0 DUP2 PUSH1 0x0 ADD MLOAD DUP4 PUSH1 0x0 ADD MLOAD EQ SWAP1 POP SWAP3 SWAP2 POP POP JUMP JUMPDEST PUSH1 0x0 DUP1 PUSH1 0x1 SWAP1 POP PUSH1 0x0 DUP1 SLOAD DUP6 PUSH2 0x416 SWAP2 SWAP1 PUSH2 0x7CA JUMP JUMPDEST SWAP1 POP PUSH1 0x0 DUP5 SWAP1 POP JUMPDEST PUSH1 0x0 DUP2 GT ISZERO PUSH2 0x46A JUMPI PUSH1 0x1 DUP1 DUP3 AND SUB PUSH2 0x448 JUMPI PUSH1 0x0 SLOAD DUP1 PUSH2 0x442 JUMPI PUSH2 0x441 PUSH2 0x79B JUMP JUMPDEST JUMPDEST DUP3 DUP5 MULMOD SWAP3 POP JUMPDEST PUSH1 0x0 SLOAD DUP1 PUSH2 0x459 JUMPI PUSH2 0x458 PUSH2 0x79B JUMP JUMPDEST JUMPDEST DUP3 DUP4 MULMOD SWAP2 POP PUSH1 0x1 DUP2 SWAP1 SHR SWAP1 POP PUSH2 0x41E JUMP JUMPDEST DUP3 SWAP4 POP POP POP POP SWAP3 SWAP2 POP POP JUMP JUMPDEST PUSH2 0x47E PUSH2 0x4F6 JUMP JUMPDEST PUSH1 0x0 DUP3 PUSH1 0x0 ADD MLOAD SUB PUSH2 0x4C5 JUMPI PUSH1 0x40 MLOAD PUSH32 0x8C379A000000000000000000000000000000000000000000000000000000000 DUP2 MSTORE PUSH1 0x4 ADD PUSH2 0x4BC SWAP1 PUSH2 0x8EF JUMP JUMPDEST PUSH1 0x40 MLOAD DUP1 SWAP2 SUB SWAP1 REVERT JUMPDEST PUSH1 0x0 PUSH2 0x4E3 DUP4 PUSH1 0x0 ADD MLOAD PUSH1 0x2 PUSH1 0x0 SLOAD PUSH2 0x4DE SWAP2 SWAP1 PUSH2 0x85E JUMP JUMPDEST PUSH2 0x400 JUMP JUMPDEST SWAP1 POP PUSH2 0x4EE DUP2 PUSH2 0x357 JUMP JUMPDEST SWAP2 POP POP SWAP2 SWAP1 POP JUMP JUMPDEST PUSH1 0x40 MLOAD DUP1 PUSH1 0x20 ADD PUSH1 0x40 MSTORE DUP1 PUSH1 0x0 DUP2 MSTORE POP SWAP1 JUMP JUMPDEST PUSH1 0x0 DUP2 SWAP1 POP SWAP2 SWAP1 POP JUMP JUMPDEST PUSH2 0x51C DUP2 PUSH2 0x509 JUMP JUMPDEST DUP3 MSTORE POP POP JUMP JUMPDEST PUSH1 0x0 PUSH1 0x20 DUP3 ADD SWAP1 POP PUSH2 0x537 PUSH1 0x0 DUP4 ADD DUP5 PUSH2 0x513 JUMP JUMPDEST SWAP3 SWAP2 POP POP JUMP JUMPDEST PUSH1 0x0 PUSH1 0x40 MLOAD SWAP1 POP SWAP1 JUMP JUMPDEST PUSH1 0x0 DUP1 REVERT JUMPDEST PUSH1 0x0 DUP1 REVERT JUMPDEST PUSH1 0x0 PUSH1 0x1F NOT PUSH1 0x1F DUP4 ADD AND SWAP1 POP SWAP2 SWAP1 POP JUMP JUMPDEST PUSH32 0x4E487B7100000000000000000000000000000000000000000000000000000000 PUSH1 0x0 MSTORE PUSH1 0x41 PUSH1 0x4 MSTORE PUSH1 0x24 PUSH1 0x0 REVERT JUMPDEST PUSH2 0x59A DUP3 PUSH2 0x551 JUMP JUMPDEST DUP2 ADD DUP2 DUP2 LT PUSH8 0xFFFFFFFFFFFFFFFF DUP3 GT OR ISZERO PUSH2 0x5B9 JUMPI PUSH2 0x5B8 PUSH2 0x562 JUMP JUMPDEST JUMPDEST DUP1 PUSH1 0x40 MSTORE POP POP POP JUMP JUMPDEST PUSH1 0x0 PUSH2 0x5CC PUSH2 0x53D JUMP JUMPDEST SWAP1 POP PUSH2 0x5D8 DUP3 DUP3 PUSH2 0x591 JUMP JUMPDEST SWAP2 SWAP1 POP JUMP JUMPDEST PUSH2 0x5E6 DUP2 PUSH2 0x509 JUMP JUMPDEST DUP2 EQ PUSH2 0x5F1 JUMPI PUSH1 0x0 DUP1 REVERT JUMPDEST POP JUMP JUMPDEST PUSH1 0x0 DUP2 CALLDATALOAD SWAP1 POP PUSH2 0x603 DUP2 PUSH2 0x5DD JUMP JUMPDEST SWAP3 SWAP2 POP POP JUMP JUMPDEST PUSH1 0x0 PUSH1 0x20 DUP3 DUP5 SUB SLT ISZERO PUSH2 0x61F JUMPI PUSH2 0x61E PUSH2 0x54C JUMP JUMPDEST JUMPDEST PUSH2 0x629 PUSH1 0x20 PUSH2 0x5C2 JUMP JUMPDEST SWAP1 POP PUSH1 0x0 PUSH2 0x639 DUP5 DUP3 DUP6 ADD PUSH2 0x5F4 JUMP JUMPDEST PUSH1 0x0 DUP4 ADD MSTORE POP SWAP3 SWAP2 POP POP JUMP JUMPDEST PUSH1 0x0 DUP1 PUSH1 0x40 DUP4 DUP6 SUB SLT ISZERO PUSH2 0x65C JUMPI PUSH2 0x65B PUSH2 0x547 JUMP JUMPDEST JUMPDEST PUSH1 0x0 PUSH2 0x66A DUP6 DUP3 DUP7 ADD PUSH2 0x609 JUMP JUMPDEST SWAP3 POP POP PUSH1 0x20 PUSH2 0x67B DUP6 DUP3 DUP7 ADD PUSH2 0x609 JUMP JUMPDEST SWAP2 POP POP SWAP3 POP SWAP3 SWAP1 POP JUMP JUMPDEST PUSH2 0x68E DUP2 PUSH2 0x509 JUMP JUMPDEST DUP3 MSTORE POP POP JUMP JUMPDEST PUSH1 0x20 DUP3 ADD PUSH1 0x0 DUP3 ADD MLOAD PUSH2 0x6AA PUSH1 0x0 DUP6 ADD DUP3 PUSH2 0x685 JUMP JUMPDEST POP POP POP POP JUMP JUMPDEST PUSH1 0x0 PUSH1 0x20 DUP3 ADD SWAP1 POP PUSH2 0x6C5 PUSH1 0x0 DUP4 ADD DUP5 PUSH2 0x694 JUMP JUMPDEST SWAP3 SWAP2 POP POP JUMP JUMPDEST PUSH1 0x0 PUSH1 0x20 DUP3 DUP5 SUB SLT ISZERO PUSH2 0x6E1 JUMPI PUSH2 0x6E0 PUSH2 0x547 JUMP JUMPDEST JUMPDEST PUSH1 0x0 PUSH2 0x6EF DUP5 DUP3 DUP6 ADD PUSH2 0x609 JUMP JUMPDEST SWAP2 POP POP SWAP3 SWAP2 POP POP JUMP JUMPDEST PUSH1 0x0 PUSH1 0x20 DUP3 DUP5 SUB SLT ISZERO PUSH2 0x70E JUMPI PUSH2 0x70D PUSH2 0x547 JUMP JUMPDEST JUMPDEST PUSH1 0x0 PUSH2 0x71C DUP5 DUP3 DUP6 ADD PUSH2 0x5F4 JUMP JUMPDEST SWAP2 POP POP SWAP3 SWAP2 POP POP JUMP JUMPDEST PUSH1 0x0 DUP2 ISZERO ISZERO SWAP1 POP SWAP2 SWAP1 POP JUMP JUMPDEST PUSH2 0x73A DUP2 PUSH2 0x725 JUMP JUMPDEST DUP3 MSTORE POP POP JUMP JUMPDEST PUSH1 0x0 PUSH1 0x20 DUP3 ADD SWAP1 POP PUSH2 0x755 PUSH1 0x0 DUP4 ADD DUP5 PUSH2 0x731 JUMP JUMPDEST SWAP3 SWAP2 POP POP JUMP JUMPDEST PUSH1 0x0 DUP1 PUSH1 0x40 DUP4 DUP6 SUB SLT ISZERO PUSH2 0x772 JUMPI PUSH2 0x771 PUSH2 0x547 JUMP JUMPDEST JUMPDEST PUSH1 0x0 PUSH2 0x780 DUP6 DUP3 DUP7 ADD PUSH2 0x5F4 JUMP JUMPDEST SWAP3 POP POP PUSH1 0x20 PUSH2 0x791 DUP6 DUP3 DUP7 ADD PUSH2 0x5F4 JUMP JUMPDEST SWAP2 POP POP SWAP3 POP SWAP3 SWAP1 POP JUMP JUMPDEST PUSH32 0x4E487B7100000000000000000000000000000000000000000000000000000000 PUSH1 0x0 MSTORE PUSH1 0x12 PUSH1 0x4 MSTORE PUSH1 0x24 PUSH1 0x0 REVERT JUMPDEST PUSH1 0x0 PUSH2 0x7D5 DUP3 PUSH2 0x509 JUMP JUMPDEST SWAP2 POP PUSH2 0x7E0 DUP4 PUSH2 0x509 JUMP JUMPDEST SWAP3 POP DUP3 PUSH2 0x7F0 JUMPI PUSH2 0x7EF PUSH2 0x79B JUMP JUMPDEST JUMPDEST DUP3 DUP3 MOD SWAP1 POP SWAP3 SWAP2 POP POP JUMP JUMPDEST PUSH32 0x4E487B7100000000000000000000000000000000000000000000000000000000 PUSH1 0x0 MSTORE PUSH1 0x11 PUSH1 0x4 MSTORE PUSH1 0x24 PUSH1 0x0 REVERT JUMPDEST PUSH1 0x0 PUSH2 0x835 DUP3 PUSH2 0x509 JUMP JUMPDEST SWAP2 POP PUSH2 0x840 DUP4 PUSH2 0x509 JUMP JUMPDEST SWAP3 POP DUP3 DUP3 ADD SWAP1 POP DUP1 DUP3 GT ISZERO PUSH2 0x858 JUMPI PUSH2 0x857 PUSH2 0x7FB JUMP JUMPDEST JUMPDEST SWAP3 SWAP2 POP POP JUMP JUMPDEST PUSH1 0x0 PUSH2 0x869 DUP3 PUSH2 0x509 JUMP JUMPDEST SWAP2 POP PUSH2 0x874 DUP4 PUSH2 0x509 JUMP JUMPDEST SWAP3 POP DUP3 DUP3 SUB SWAP1 POP DUP2 DUP2 GT ISZERO PUSH2 0x88C JUMPI PUSH2 0x88B PUSH2 0x7FB JUMP JUMPDEST JUMPDEST SWAP3 SWAP2 POP POP JUMP JUMPDEST PUSH1 0x0 DUP3 DUP3 MSTORE PUSH1 0x20 DUP3 ADD SWAP1 POP SWAP3 SWAP2 POP POP JUMP JUMPDEST PUSH32 0x4469766973696F6E6520706572207A65726F206E6F6E207065726D657373612E PUSH1 0x0 DUP3 ADD MSTORE POP JUMP JUMPDEST PUSH1 0x0 PUSH2 0x8D9 PUSH1 0x20 DUP4 PUSH2 0x892 JUMP JUMPDEST SWAP2 POP PUSH2 0x8E4 DUP3 PUSH2 0x8A3 JUMP JUMPDEST PUSH1 0x20 DUP3 ADD SWAP1 POP SWAP2 SWAP1 POP JUMP JUMPDEST PUSH1 0x0 PUSH1 0x20 DUP3 ADD SWAP1 POP DUP2 DUP2 SUB PUSH1 0x0 DUP4 ADD MSTORE PUSH2 0x908 DUP2 PUSH2 0x8CC JUMP JUMPDEST SWAP1 POP SWAP2 SWAP1 POP JUMP INVALID LOG2 PUSH5 0x6970667358 0x22 SLT KECCAK256 0xE8 0x2B PUSH32 0x1D1EE2366AD375CFA61825D3B08D0DB66F7FF451D10F0C7E31537FDE1864736F PUSH13 0x634300081B0033000000000000 "},"methodIdentifiers":{"createElement(uint256)":"c4524947","div((uint256),(uint256))":"b0df7c1d","equals((uint256),(uint256))":"d629f528","exp(uint256,uint256)":"f5f565f8","inverse((uint256))":"f6509dd6","mul((uint256),(uint256))":"b2eb1a5a","mul_nonres((uint256))":"aa28c5be","p()":"9ae8886a","sub((uint256),(uint256))":"c870cbda","sum((uint256),(uint256))":"a253aeee","zero()":"bc1b392d"}}}}}