{"contracts/field/twelveExtension.sol":{"TwelveExtension":{"abi":[{"inputs":[{"internalType":"contract SexticExtension","name":"six","type":"address"}],"stateMutability":"nonpayable","type":"constructor"},{"inputs":[{"components":[{"components":[{"components":[{"internalType":"uint256","name":"value","type":"uint256"}],"internalType":"struct FiniteField.Zp","name":"a","type":"tuple"},{"components":[{"internalType":"uint256","name":"value","type":"uint256"}],"internalType":"struct FiniteField.Zp","name":"b","type":"tuple"}],"internalType":"struct QuadraticExtension.Zp_2","name":"a","type":"tuple"},{"components":[{"components":[{"internalType":"uint256","name":"value","type":"uint256"}],"internalType":"struct FiniteField.Zp","name":"a","type":"tuple"},{"components":[{"internalType":"uint256","name":"value","type":"uint256"}],"internalType":"struct FiniteField.Zp","name":"b","type":"tuple"}],"internalType":"struct QuadraticExtension.Zp_2","name":"b","type":"tuple"},{"components":[{"components":[{"internalType":"uint256","name":"value","type":"uint256"}],"internalType":"struct FiniteField.Zp","name":"a","type":"tuple"},{"components":[{"internalType":"uint256","name":"value","type":"uint256"}],"internalType":"struct FiniteField.Zp","name":"b","type":"tuple"}],"internalType":"struct QuadraticExtension.Zp_2","name":"c","type":"tuple"}],"internalType":"struct SexticExtension.Zp_6","name":"x","type":"tuple"},{"components":[{"components":[{"components":[{"internalType":"uint256","name":"value","type":"uint256"}],"internalType":"struct FiniteField.Zp","name":"a","type":"tuple"},{"components":[{"internalType":"uint256","name":"value","type":"uint256"}],"internalType":"struct FiniteField.Zp","name":"b","type":"tuple"}],"internalType":"struct QuadraticExtension.Zp_2","name":"a","type":"tuple"},{"components":[{"components":[{"internalType":"uint256","name":"value","type":"uint256"}],"internalType":"struct FiniteField.Zp","name":"a","type":"tuple"},{"components":[{"internalType":"uint256","name":"value","type":"uint256"}],"internalType":"struct FiniteField.Zp","name":"b","type":"tuple"}],"internalType":"struct QuadraticExtension.Zp_2","name":"b","type":"tuple"},{"components":[{"components":[{"internalType":"uint256","name":"value","type":"uint256"}],"internalType":"struct FiniteField.Zp","name":"a","type":"tuple"},{"components":[{"internalType":"uint256","name":"value","type":"uint256"}],"internalType":"struct FiniteField.Zp","name":"b","type":"tuple"}],"internalType":"struct QuadraticExtension.Zp_2","name":"c","type":"tuple"}],"internalType":"struct SexticExtension.Zp_6","name":"y","type":"tuple"}],"name":"createElement","outputs":[{"components":[{"components":[{"components":[{"components":[{"internalType":"uint256","name":"value","type":"uint256"}],"internalType":"struct FiniteField.Zp","name":"a","type":"tuple"},{"components":[{"internalType":"uint256","name":"value","type":"uint256"}],"internalType":"struct FiniteField.Zp","name":"b","type":"tuple"}],"internalType":"struct QuadraticExtension.Zp_2","name":"a","type":"tuple"},{"components":[{"components":[{"internalType":"uint256","name":"value","type":"uint256"}],"internalType":"struct FiniteField.Zp","name":"a","type":"tuple"},{"components":[{"internalType":"uint256","name":"value","type":"uint256"}],"internalType":"struct FiniteField.Zp","name":"b","type":"tuple"}],"internalType":"struct QuadraticExtension.Zp_2","name":"b","type":"tuple"},{"components":[{"components":[{"internalType":"uint256","name":"value","type":"uint256"}],"internalType":"struct FiniteField.Zp","name":"a","type":"tuple"},{"components":[{"internalType":"uint256","name":"value","type":"uint256"}],"internalType":"struct FiniteField.Zp","name":"b","type":"tuple"}],"internalType":"struct QuadraticExtension.Zp_2","name":"c","type":"tuple"}],"internalType":"struct SexticExtension.Zp_6","name":"a","type":"tuple"},{"components":[{"components":[{"components":[{"internalType":"uint256","name":"value","type":"uint256"}],"internalType":"struct FiniteField.Zp","name":"a","type":"tuple"},{"components":[{"internalType":"uint256","name":"value","type":"uint256"}],"internalType":"struct FiniteField.Zp","name":"b","type":"tuple"}],"internalType":"struct QuadraticExtension.Zp_2","name":"a","type":"tuple"},{"components":[{"components":[{"internalType":"uint256","name":"value","type":"uint256"}],"internalType":"struct FiniteField.Zp","name":"a","type":"tuple"},{"components":[{"internalType":"uint256","name":"value","type":"uint256"}],"internalType":"struct FiniteField.Zp","name":"b","type":"tuple"}],"internalType":"struct QuadraticExtension.Zp_2","name":"b","type":"tuple"},{"components":[{"components":[{"internalType":"uint256","name":"value","type":"uint256"}],"internalType":"struct FiniteField.Zp","name":"a","type":"tuple"},{"components":[{"internalType":"uint256","name":"value","type":"uint256"}],"internalType":"struct FiniteField.Zp","name":"b","type":"tuple"}],"internalType":"struct QuadraticExtension.Zp_2","name":"c","type":"tuple"}],"internalType":"struct SexticExtension.Zp_6","name":"b","type":"tuple"}],"internalType":"struct TwelveExtension.Zp_12","name":"","type":"tuple"}],"stateMutability":"pure","type":"function"},{"inputs":[{"components":[{"components":[{"components":[{"components":[{"internalType":"uint256","name":"value","type":"uint256"}],"internalType":"struct FiniteField.Zp","name":"a","type":"tuple"},{"components":[{"internalType":"uint256","name":"value","type":"uint256"}],"internalType":"struct FiniteField.Zp","name":"b","type":"tuple"}],"internalType":"struct QuadraticExtension.Zp_2","name":"a","type":"tuple"},{"components":[{"components":[{"internalType":"uint256","name":"value","type":"uint256"}],"internalType":"struct FiniteField.Zp","name":"a","type":"tuple"},{"components":[{"internalType":"uint256","name":"value","type":"uint256"}],"internalType":"struct FiniteField.Zp","name":"b","type":"tuple"}],"internalType":"struct QuadraticExtension.Zp_2","name":"b","type":"tuple"},{"components":[{"components":[{"internalType":"uint256","name":"value","type":"uint256"}],"internalType":"struct FiniteField.Zp","name":"a","type":"tuple"},{"components":[{"internalType":"uint256","name":"value","type":"uint256"}],"internalType":"struct FiniteField.Zp","name":"b","type":"tuple"}],"internalType":"struct QuadraticExtension.Zp_2","name":"c","type":"tuple"}],"internalType":"struct SexticExtension.Zp_6","name":"a","type":"tuple"},{"components":[{"components":[{"components":[{"internalType":"uint256","name":"value","type":"uint256"}],"internalType":"struct FiniteField.Zp","name":"a","type":"tuple"},{"components":[{"internalType":"uint256","name":"value","type":"uint256"}],"internalType":"struct FiniteField.Zp","name":"b","type":"tuple"}],"internalType":"struct QuadraticExtension.Zp_2","name":"a","type":"tuple"},{"components":[{"components":[{"internalType":"uint256","name":"value","type":"uint256"}],"internalType":"struct FiniteField.Zp","name":"a","type":"tuple"},{"components":[{"internalType":"uint256","name":"value","type":"uint256"}],"internalType":"struct FiniteField.Zp","name":"b","type":"tuple"}],"internalType":"struct QuadraticExtension.Zp_2","name":"b","type":"tuple"},{"components":[{"components":[{"internalType":"uint256","name":"value","type":"uint256"}],"internalType":"struct FiniteField.Zp","name":"a","type":"tuple"},{"components":[{"internalType":"uint256","name":"value","type":"uint256"}],"internalType":"struct FiniteField.Zp","name":"b","type":"tuple"}],"internalType":"struct QuadraticExtension.Zp_2","name":"c","type":"tuple"}],"internalType":"struct SexticExtension.Zp_6","name":"b","type":"tuple"}],"internalType":"struct TwelveExtension.Zp_12","name":"x","type":"tuple"}],"name":"inverse","outputs":[{"components":[{"components":[{"components":[{"components":[{"internalType":"uint256","name":"value","type":"uint256"}],"internalType":"struct FiniteField.Zp","name":"a","type":"tuple"},{"components":[{"internalType":"uint256","name":"value","type":"uint256"}],"internalType":"struct FiniteField.Zp","name":"b","type":"tuple"}],"internalType":"struct QuadraticExtension.Zp_2","name":"a","type":"tuple"},{"components":[{"components":[{"internalType":"uint256","name":"value","type":"uint256"}],"internalType":"struct FiniteField.Zp","name":"a","type":"tuple"},{"components":[{"internalType":"uint256","name":"value","type":"uint256"}],"internalType":"struct FiniteField.Zp","name":"b","type":"tuple"}],"internalType":"struct QuadraticExtension.Zp_2","name":"b","type":"tuple"},{"components":[{"components":[{"internalType":"uint256","name":"value","type":"uint256"}],"internalType":"struct FiniteField.Zp","name":"a","type":"tuple"},{"components":[{"internalType":"uint256","name":"value","type":"uint256"}],"internalType":"struct FiniteField.Zp","name":"b","type":"tuple"}],"internalType":"struct QuadraticExtension.Zp_2","name":"c","type":"tuple"}],"internalType":"struct SexticExtension.Zp_6","name":"a","type":"tuple"},{"components":[{"components":[{"components":[{"internalType":"uint256","name":"value","type":"uint256"}],"internalType":"struct FiniteField.Zp","name":"a","type":"tuple"},{"components":[{"internalType":"uint256","name":"value","type":"uint256"}],"internalType":"struct FiniteField.Zp","name":"b","type":"tuple"}],"internalType":"struct QuadraticExtension.Zp_2","name":"a","type":"tuple"},{"components":[{"components":[{"internalType":"uint256","name":"value","type":"uint256"}],"internalType":"struct FiniteField.Zp","name":"a","type":"tuple"},{"components":[{"internalType":"uint256","name":"value","type":"uint256"}],"internalType":"struct FiniteField.Zp","name":"b","type":"tuple"}],"internalType":"struct QuadraticExtension.Zp_2","name":"b","type":"tuple"},{"components":[{"components":[{"internalType":"uint256","name":"value","type":"uint256"}],"internalType":"struct FiniteField.Zp","name":"a","type":"tuple"},{"components":[{"internalType":"uint256","name":"value","type":"uint256"}],"internalType":"struct FiniteField.Zp","name":"b","type":"tuple"}],"internalType":"struct QuadraticExtension.Zp_2","name":"c","type":"tuple"}],"internalType":"struct SexticExtension.Zp_6","name":"b","type":"tuple"}],"internalType":"struct TwelveExtension.Zp_12","name":"","type":"tuple"}],"stateMutability":"view","type":"function"},{"inputs":[{"components":[{"components":[{"components":[{"components":[{"internalType":"uint256","name":"value","type":"uint256"}],"internalType":"struct FiniteField.Zp","name":"a","type":"tuple"},{"components":[{"internalType":"uint256","name":"value","type":"uint256"}],"internalType":"struct FiniteField.Zp","name":"b","type":"tuple"}],"internalType":"struct QuadraticExtension.Zp_2","name":"a","type":"tuple"},{"components":[{"components":[{"internalType":"uint256","name":"value","type":"uint256"}],"internalType":"struct FiniteField.Zp","name":"a","type":"tuple"},{"components":[{"internalType":"uint256","name":"value","type":"uint256"}],"internalType":"struct FiniteField.Zp","name":"b","type":"tuple"}],"internalType":"struct QuadraticExtension.Zp_2","name":"b","type":"tuple"},{"components":[{"components":[{"internalType":"uint256","name":"value","type":"uint256"}],"internalType":"struct FiniteField.Zp","name":"a","type":"tuple"},{"components":[{"internalType":"uint256","name":"value","type":"uint256"}],"internalType":"struct FiniteField.Zp","name":"b","type":"tuple"}],"internalType":"struct QuadraticExtension.Zp_2","name":"c","type":"tuple"}],"internalType":"struct SexticExtension.Zp_6","name":"a","type":"tuple"},{"components":[{"components":[{"components":[{"internalType":"uint256","name":"value","type":"uint256"}],"internalType":"struct FiniteField.Zp","name":"a","type":"tuple"},{"components":[{"internalType":"uint256","name":"value","type":"uint256"}],"internalType":"struct FiniteField.Zp","name":"b","type":"tuple"}],"internalType":"struct QuadraticExtension.Zp_2","name":"a","type":"tuple"},{"components":[{"components":[{"internalType":"uint256","name":"value","type":"uint256"}],"internalType":"struct FiniteField.Zp","name":"a","type":"tuple"},{"components":[{"internalType":"uint256","name":"value","type":"uint256"}],"internalType":"struct FiniteField.Zp","name":"b","type":"tuple"}],"internalType":"struct QuadraticExtension.Zp_2","name":"b","type":"tuple"},{"components":[{"components":[{"internalType":"uint256","name":"value","type":"uint256"}],"internalType":"struct FiniteField.Zp","name":"a","type":"tuple"},{"components":[{"internalType":"uint256","name":"value","type":"uint256"}],"internalType":"struct FiniteField.Zp","name":"b","type":"tuple"}],"internalType":"struct QuadraticExtension.Zp_2","name":"c","type":"tuple"}],"internalType":"struct SexticExtension.Zp_6","name":"b","type":"tuple"}],"internalType":"struct TwelveExtension.Zp_12","name":"x","type":"tuple"},{"components":[{"components":[{"components":[{"components":[{"internalType":"uint256","name":"value","type":"uint256"}],"internalType":"struct FiniteField.Zp","name":"a","type":"tuple"},{"components":[{"internalType":"uint256","name":"value","type":"uint256"}],"internalType":"struct FiniteField.Zp","name":"b","type":"tuple"}],"internalType":"struct QuadraticExtension.Zp_2","name":"a","type":"tuple"},{"components":[{"components":[{"internalType":"uint256","name":"value","type":"uint256"}],"internalType":"struct FiniteField.Zp","name":"a","type":"tuple"},{"components":[{"internalType":"uint256","name":"value","type":"uint256"}],"internalType":"struct FiniteField.Zp","name":"b","type":"tuple"}],"internalType":"struct QuadraticExtension.Zp_2","name":"b","type":"tuple"},{"components":[{"components":[{"internalType":"uint256","name":"value","type":"uint256"}],"internalType":"struct FiniteField.Zp","name":"a","type":"tuple"},{"components":[{"internalType":"uint256","name":"value","type":"uint256"}],"internalType":"struct FiniteField.Zp","name":"b","type":"tuple"}],"internalType":"struct QuadraticExtension.Zp_2","name":"c","type":"tuple"}],"internalType":"struct SexticExtension.Zp_6","name":"a","type":"tuple"},{"components":[{"components":[{"components":[{"internalType":"uint256","name":"value","type":"uint256"}],"internalType":"struct FiniteField.Zp","name":"a","type":"tuple"},{"components":[{"internalType":"uint256","name":"value","type":"uint256"}],"internalType":"struct FiniteField.Zp","name":"b","type":"tuple"}],"internalType":"struct QuadraticExtension.Zp_2","name":"a","type":"tuple"},{"components":[{"components":[{"internalType":"uint256","name":"value","type":"uint256"}],"internalType":"struct FiniteField.Zp","name":"a","type":"tuple"},{"components":[{"internalType":"uint256","name":"value","type":"uint256"}],"internalType":"struct FiniteField.Zp","name":"b","type":"tuple"}],"internalType":"struct QuadraticExtension.Zp_2","name":"b","type":"tuple"},{"components":[{"components":[{"internalType":"uint256","name":"value","type":"uint256"}],"internalType":"struct FiniteField.Zp","name":"a","type":"tuple"},{"components":[{"internalType":"uint256","name":"value","type":"uint256"}],"internalType":"struct FiniteField.Zp","name":"b","type":"tuple"}],"internalType":"struct QuadraticExtension.Zp_2","name":"c","type":"tuple"}],"internalType":"struct SexticExtension.Zp_6","name":"b","type":"tuple"}],"internalType":"struct TwelveExtension.Zp_12","name":"y","type":"tuple"}],"name":"mul","outputs":[{"components":[{"components":[{"components":[{"components":[{"internalType":"uint256","name":"value","type":"uint256"}],"internalType":"struct FiniteField.Zp","name":"a","type":"tuple"},{"components":[{"internalType":"uint256","name":"value","type":"uint256"}],"internalType":"struct FiniteField.Zp","name":"b","type":"tuple"}],"internalType":"struct QuadraticExtension.Zp_2","name":"a","type":"tuple"},{"components":[{"components":[{"internalType":"uint256","name":"value","type":"uint256"}],"internalType":"struct FiniteField.Zp","name":"a","type":"tuple"},{"components":[{"internalType":"uint256","name":"value","type":"uint256"}],"internalType":"struct FiniteField.Zp","name":"b","type":"tuple"}],"internalType":"struct QuadraticExtension.Zp_2","name":"b","type":"tuple"},{"components":[{"components":[{"internalType":"uint256","name":"value","type":"uint256"}],"internalType":"struct FiniteField.Zp","name":"a","type":"tuple"},{"components":[{"internalType":"uint256","name":"value","type":"uint256"}],"internalType":"struct FiniteField.Zp","name":"b","type":"tuple"}],"internalType":"struct QuadraticExtension.Zp_2","name":"c","type":"tuple"}],"internalType":"struct SexticExtension.Zp_6","name":"a","type":"tuple"},{"components":[{"components":[{"components":[{"internalType":"uint256","name":"value","type":"uint256"}],"internalType":"struct FiniteField.Zp","name":"a","type":"tuple"},{"components":[{"internalType":"uint256","name":"value","type":"uint256"}],"internalType":"struct FiniteField.Zp","name":"b","type":"tuple"}],"internalType":"struct QuadraticExtension.Zp_2","name":"a","type":"tuple"},{"components":[{"components":[{"internalType":"uint256","name":"value","type":"uint256"}],"internalType":"struct FiniteField.Zp","name":"a","type":"tuple"},{"components":[{"internalType":"uint256","name":"value","type":"uint256"}],"internalType":"struct FiniteField.Zp","name":"b","type":"tuple"}],"internalType":"struct QuadraticExtension.Zp_2","name":"b","type":"tuple"},{"components":[{"components":[{"internalType":"uint256","name":"value","type":"uint256"}],"internalType":"struct FiniteField.Zp","name":"a","type":"tuple"},{"components":[{"internalType":"uint256","name":"value","type":"uint256"}],"internalType":"struct FiniteField.Zp","name":"b","type":"tuple"}],"internalType":"struct QuadraticExtension.Zp_2","name":"c","type":"tuple"}],"internalType":"struct SexticExtension.Zp_6","name":"b","type":"tuple"}],"internalType":"struct TwelveExtension.Zp_12","name":"","type":"tuple"}],"stateMutability":"view","type":"function"},{"inputs":[{"components":[{"components":[{"components":[{"components":[{"internalType":"uint256","name":"value","type":"uint256"}],"internalType":"struct FiniteField.Zp","name":"a","type":"tuple"},{"components":[{"internalType":"uint256","name":"value","type":"uint256"}],"internalType":"struct FiniteField.Zp","name":"b","type":"tuple"}],"internalType":"struct QuadraticExtension.Zp_2","name":"a","type":"tuple"},{"components":[{"components":[{"internalType":"uint256","name":"value","type":"uint256"}],"internalType":"struct FiniteField.Zp","name":"a","type":"tuple"},{"components":[{"internalType":"uint256","name":"value","type":"uint256"}],"internalType":"struct FiniteField.Zp","name":"b","type":"tuple"}],"internalType":"struct QuadraticExtension.Zp_2","name":"b","type":"tuple"},{"components":[{"components":[{"internalType":"uint256","name":"value","type":"uint256"}],"internalType":"struct FiniteField.Zp","name":"a","type":"tuple"},{"components":[{"internalType":"uint256","name":"value","type":"uint256"}],"internalType":"struct FiniteField.Zp","name":"b","type":"tuple"}],"internalType":"struct QuadraticExtension.Zp_2","name":"c","type":"tuple"}],"internalType":"struct SexticExtension.Zp_6","name":"a","type":"tuple"},{"components":[{"components":[{"components":[{"internalType":"uint256","name":"value","type":"uint256"}],"internalType":"struct FiniteField.Zp","name":"a","type":"tuple"},{"components":[{"internalType":"uint256","name":"value","type":"uint256"}],"internalType":"struct FiniteField.Zp","name":"b","type":"tuple"}],"internalType":"struct QuadraticExtension.Zp_2","name":"a","type":"tuple"},{"components":[{"components":[{"internalType":"uint256","name":"value","type":"uint256"}],"internalType":"struct FiniteField.Zp","name":"a","type":"tuple"},{"components":[{"internalType":"uint256","name":"value","type":"uint256"}],"internalType":"struct FiniteField.Zp","name":"b","type":"tuple"}],"internalType":"struct QuadraticExtension.Zp_2","name":"b","type":"tuple"},{"components":[{"components":[{"internalType":"uint256","name":"value","type":"uint256"}],"internalType":"struct FiniteField.Zp","name":"a","type":"tuple"},{"components":[{"internalType":"uint256","name":"value","type":"uint256"}],"internalType":"struct FiniteField.Zp","name":"b","type":"tuple"}],"internalType":"struct QuadraticExtension.Zp_2","name":"c","type":"tuple"}],"internalType":"struct SexticExtension.Zp_6","name":"b","type":"tuple"}],"internalType":"struct TwelveExtension.Zp_12","name":"x","type":"tuple"},{"components":[{"components":[{"components":[{"components":[{"internalType":"uint256","name":"value","type":"uint256"}],"internalType":"struct FiniteField.Zp","name":"a","type":"tuple"},{"components":[{"internalType":"uint256","name":"value","type":"uint256"}],"internalType":"struct FiniteField.Zp","name":"b","type":"tuple"}],"internalType":"struct QuadraticExtension.Zp_2","name":"a","type":"tuple"},{"components":[{"components":[{"internalType":"uint256","name":"value","type":"uint256"}],"internalType":"struct FiniteField.Zp","name":"a","type":"tuple"},{"components":[{"internalType":"uint256","name":"value","type":"uint256"}],"internalType":"struct FiniteField.Zp","name":"b","type":"tuple"}],"internalType":"struct QuadraticExtension.Zp_2","name":"b","type":"tuple"},{"components":[{"components":[{"internalType":"uint256","name":"value","type":"uint256"}],"internalType":"struct FiniteField.Zp","name":"a","type":"tuple"},{"components":[{"internalType":"uint256","name":"value","type":"uint256"}],"internalType":"struct FiniteField.Zp","name":"b","type":"tuple"}],"internalType":"struct QuadraticExtension.Zp_2","name":"c","type":"tuple"}],"internalType":"struct SexticExtension.Zp_6","name":"a","type":"tuple"},{"components":[{"components":[{"components":[{"internalType":"uint256","name":"value","type":"uint256"}],"internalType":"struct FiniteField.Zp","name":"a","type":"tuple"},{"components":[{"internalType":"uint256","name":"value","type":"uint256"}],"internalType":"struct FiniteField.Zp","name":"b","type":"tuple"}],"internalType":"struct QuadraticExtension.Zp_2","name":"a","type":"tuple"},{"components":[{"components":[{"internalType":"uint256","name":"value","type":"uint256"}],"internalType":"struct FiniteField.Zp","name":"a","type":"tuple"},{"components":[{"internalType":"uint256","name":"value","type":"uint256"}],"internalType":"struct FiniteField.Zp","name":"b","type":"tuple"}],"internalType":"struct QuadraticExtension.Zp_2","name":"b","type":"tuple"},{"components":[{"components":[{"internalType":"uint256","name":"value","type":"uint256"}],"internalType":"struct FiniteField.Zp","name":"a","type":"tuple"},{"components":[{"internalType":"uint256","name":"value","type":"uint256"}],"internalType":"struct FiniteField.Zp","name":"b","type":"tuple"}],"internalType":"struct QuadraticExtension.Zp_2","name":"c","type":"tuple"}],"internalType":"struct SexticExtension.Zp_6","name":"b","type":"tuple"}],"internalType":"struct TwelveExtension.Zp_12","name":"y","type":"tuple"}],"name":"sub","outputs":[{"components":[{"components":[{"components":[{"components":[{"internalType":"uint256","name":"value","type":"uint256"}],"internalType":"struct FiniteField.Zp","name":"a","type":"tuple"},{"components":[{"internalType":"uint256","name":"value","type":"uint256"}],"internalType":"struct FiniteField.Zp","name":"b","type":"tuple"}],"internalType":"struct QuadraticExtension.Zp_2","name":"a","type":"tuple"},{"components":[{"components":[{"internalType":"uint256","name":"value","type":"uint256"}],"internalType":"struct FiniteField.Zp","name":"a","type":"tuple"},{"components":[{"internalType":"uint256","name":"value","type":"uint256"}],"internalType":"struct FiniteField.Zp","name":"b","type":"tuple"}],"internalType":"struct QuadraticExtension.Zp_2","name":"b","type":"tuple"},{"components":[{"components":[{"internalType":"uint256","name":"value","type":"uint256"}],"internalType":"struct FiniteField.Zp","name":"a","type":"tuple"},{"components":[{"internalType":"uint256","name":"value","type":"uint256"}],"internalType":"struct FiniteField.Zp","name":"b","type":"tuple"}],"internalType":"struct QuadraticExtension.Zp_2","name":"c","type":"tuple"}],"internalType":"struct SexticExtension.Zp_6","name":"a","type":"tuple"},{"components":[{"components":[{"components":[{"internalType":"uint256","name":"value","type":"uint256"}],"internalType":"struct FiniteField.Zp","name":"a","type":"tuple"},{"components":[{"internalType":"uint256","name":"value","type":"uint256"}],"internalType":"struct FiniteField.Zp","name":"b","type":"tuple"}],"internalType":"struct QuadraticExtension.Zp_2","name":"a","type":"tuple"},{"components":[{"components":[{"internalType":"uint256","name":"value","type":"uint256"}],"internalType":"struct FiniteField.Zp","name":"a","type":"tuple"},{"components":[{"internalType":"uint256","name":"value","type":"uint256"}],"internalType":"struct FiniteField.Zp","name":"b","type":"tuple"}],"internalType":"struct QuadraticExtension.Zp_2","name":"b","type":"tuple"},{"components":[{"components":[{"internalType":"uint256","name":"value","type":"uint256"}],"internalType":"struct FiniteField.Zp","name":"a","type":"tuple"},{"components":[{"internalType":"uint256","name":"value","type":"uint256"}],"internalType":"struct FiniteField.Zp","name":"b","type":"tuple"}],"internalType":"struct QuadraticExtension.Zp_2","name":"c","type":"tuple"}],"internalType":"struct SexticExtension.Zp_6","name":"b","type":"tuple"}],"internalType":"struct TwelveExtension.Zp_12","name":"","type":"tuple"}],"stateMutability":"view","type":"function"},{"inputs":[{"components":[{"components":[{"components":[{"components":[{"internalType":"uint256","name":"value","type":"uint256"}],"internalType":"struct FiniteField.Zp","name":"a","type":"tuple"},{"components":[{"internalType":"uint256","name":"value","type":"uint256"}],"internalType":"struct FiniteField.Zp","name":"b","type":"tuple"}],"internalType":"struct QuadraticExtension.Zp_2","name":"a","type":"tuple"},{"components":[{"components":[{"internalType":"uint256","name":"value","type":"uint256"}],"internalType":"struct FiniteField.Zp","name":"a","type":"tuple"},{"components":[{"internalType":"uint256","name":"value","type":"uint256"}],"internalType":"struct FiniteField.Zp","name":"b","type":"tuple"}],"internalType":"struct QuadraticExtension.Zp_2","name":"b","type":"tuple"},{"components":[{"components":[{"internalType":"uint256","name":"value","type":"uint256"}],"internalType":"struct FiniteField.Zp","name":"a","type":"tuple"},{"components":[{"internalType":"uint256","name":"value","type":"uint256"}],"internalType":"struct FiniteField.Zp","name":"b","type":"tuple"}],"internalType":"struct QuadraticExtension.Zp_2","name":"c","type":"tuple"}],"internalType":"struct SexticExtension.Zp_6","name":"a","type":"tuple"},{"components":[{"components":[{"components":[{"internalType":"uint256","name":"value","type":"uint256"}],"internalType":"struct FiniteField.Zp","name":"a","type":"tuple"},{"components":[{"internalType":"uint256","name":"value","type":"uint256"}],"internalType":"struct FiniteField.Zp","name":"b","type":"tuple"}],"internalType":"struct QuadraticExtension.Zp_2","name":"a","type":"tuple"},{"components":[{"components":[{"internalType":"uint256","name":"value","type":"uint256"}],"internalType":"struct FiniteField.Zp","name":"a","type":"tuple"},{"components":[{"internalType":"uint256","name":"value","type":"uint256"}],"internalType":"struct FiniteField.Zp","name":"b","type":"tuple"}],"internalType":"struct QuadraticExtension.Zp_2","name":"b","type":"tuple"},{"components":[{"components":[{"internalType":"uint256","name":"value","type":"uint256"}],"internalType":"struct FiniteField.Zp","name":"a","type":"tuple"},{"components":[{"internalType":"uint256","name":"value","type":"uint256"}],"internalType":"struct FiniteField.Zp","name":"b","type":"tuple"}],"internalType":"struct QuadraticExtension.Zp_2","name":"c","type":"tuple"}],"internalType":"struct SexticExtension.Zp_6","name":"b","type":"tuple"}],"internalType":"struct TwelveExtension.Zp_12","name":"x","type":"tuple"},{"components":[{"components":[{"components":[{"components":[{"internalType":"uint256","name":"value","type":"uint256"}],"internalType":"struct FiniteField.Zp","name":"a","type":"tuple"},{"components":[{"internalType":"uint256","name":"value","type":"uint256"}],"internalType":"struct FiniteField.Zp","name":"b","type":"tuple"}],"internalType":"struct QuadraticExtension.Zp_2","name":"a","type":"tuple"},{"components":[{"components":[{"internalType":"uint256","name":"value","type":"uint256"}],"internalType":"struct FiniteField.Zp","name":"a","type":"tuple"},{"components":[{"internalType":"uint256","name":"value","type":"uint256"}],"internalType":"struct FiniteField.Zp","name":"b","type":"tuple"}],"internalType":"struct QuadraticExtension.Zp_2","name":"b","type":"tuple"},{"components":[{"components":[{"internalType":"uint256","name":"value","type":"uint256"}],"internalType":"struct FiniteField.Zp","name":"a","type":"tuple"},{"components":[{"internalType":"uint256","name":"value","type":"uint256"}],"internalType":"struct FiniteField.Zp","name":"b","type":"tuple"}],"internalType":"struct QuadraticExtension.Zp_2","name":"c","type":"tuple"}],"internalType":"struct SexticExtension.Zp_6","name":"a","type":"tuple"},{"components":[{"components":[{"components":[{"internalType":"uint256","name":"value","type":"uint256"}],"internalType":"struct FiniteField.Zp","name":"a","type":"tuple"},{"components":[{"internalType":"uint256","name":"value","type":"uint256"}],"internalType":"struct FiniteField.Zp","name":"b","type":"tuple"}],"internalType":"struct QuadraticExtension.Zp_2","name":"a","type":"tuple"},{"components":[{"components":[{"internalType":"uint256","name":"value","type":"uint256"}],"internalType":"struct FiniteField.Zp","name":"a","type":"tuple"},{"components":[{"internalType":"uint256","name":"value","type":"uint256"}],"internalType":"struct FiniteField.Zp","name":"b","type":"tuple"}],"internalType":"struct QuadraticExtension.Zp_2","name":"b","type":"tuple"},{"components":[{"components":[{"internalType":"uint256","name":"value","type":"uint256"}],"internalType":"struct FiniteField.Zp","name":"a","type":"tuple"},{"components":[{"internalType":"uint256","name":"value","type":"uint256"}],"internalType":"struct FiniteField.Zp","name":"b","type":"tuple"}],"internalType":"struct QuadraticExtension.Zp_2","name":"c","type":"tuple"}],"internalType":"struct SexticExtension.Zp_6","name":"b","type":"tuple"}],"internalType":"struct TwelveExtension.Zp_12","name":"y","type":"tuple"}],"name":"sum","outputs":[{"components":[{"components":[{"components":[{"components":[{"internalType":"uint256","name":"value","type":"uint256"}],"internalType":"struct FiniteField.Zp","name":"a","type":"tuple"},{"components":[{"internalType":"uint256","name":"value","type":"uint256"}],"internalType":"struct FiniteField.Zp","name":"b","type":"tuple"}],"internalType":"struct QuadraticExtension.Zp_2","name":"a","type":"tuple"},{"components":[{"components":[{"internalType":"uint256","name":"value","type":"uint256"}],"internalType":"struct FiniteField.Zp","name":"a","type":"tuple"},{"components":[{"internalType":"uint256","name":"value","type":"uint256"}],"internalType":"struct FiniteField.Zp","name":"b","type":"tuple"}],"internalType":"struct QuadraticExtension.Zp_2","name":"b","type":"tuple"},{"components":[{"components":[{"internalType":"uint256","name":"value","type":"uint256"}],"internalType":"struct FiniteField.Zp","name":"a","type":"tuple"},{"components":[{"internalType":"uint256","name":"value","type":"uint256"}],"internalType":"struct FiniteField.Zp","name":"b","type":"tuple"}],"internalType":"struct QuadraticExtension.Zp_2","name":"c","type":"tuple"}],"internalType":"struct SexticExtension.Zp_6","name":"a","type":"tuple"},{"components":[{"components":[{"components":[{"internalType":"uint256","name":"value","type":"uint256"}],"internalType":"struct FiniteField.Zp","name":"a","type":"tuple"},{"components":[{"internalType":"uint256","name":"value","type":"uint256"}],"internalType":"struct FiniteField.Zp","name":"b","type":"tuple"}],"internalType":"struct QuadraticExtension.Zp_2","name":"a","type":"tuple"},{"components":[{"components":[{"internalType":"uint256","name":"value","type":"uint256"}],"internalType":"struct FiniteField.Zp","name":"a","type":"tuple"},{"components":[{"internalType":"uint256","name":"value","type":"uint256"}],"internalType":"struct FiniteField.Zp","name":"b","type":"tuple"}],"internalType":"struct QuadraticExtension.Zp_2","name":"b","type":"tuple"},{"components":[{"components":[{"internalType":"uint256","name":"value","type":"uint256"}],"internalType":"struct FiniteField.Zp","name":"a","type":"tuple"},{"components":[{"internalType":"uint256","name":"value","type":"uint256"}],"internalType":"struct FiniteField.Zp","name":"b","type":"tuple"}],"internalType":"struct QuadraticExtension.Zp_2","name":"c","type":"tuple"}],"internalType":"struct SexticExtension.Zp_6","name":"b","type":"tuple"}],"internalType":"struct TwelveExtension.Zp_12","name":"","type":"tuple"}],"stateMutability":"view","type":"function"}],"evm":{"bytecode":{"linkReferences":{},"object":"608060405234801561001057600080fd5b5060405161152b38038061152b833981810160405281019061003291906100ed565b806000806101000a81548173ffffffffffffffffffffffffffffffffffffffff021916908373ffffffffffffffffffffffffffffffffffffffff1602179055505061011a565b600080fd5b600073ffffffffffffffffffffffffffffffffffffffff82169050919050565b60006100a88261007d565b9050919050565b60006100ba8261009d565b9050919050565b6100ca816100af565b81146100d557600080fd5b50565b6000815190506100e7816100c1565b92915050565b60006020828403121561010357610102610078565b5b6000610111848285016100d8565b91505092915050565b611402806101296000396000f3fe608060405234801561001057600080fd5b50600436106100575760003560e01c8063169469991461005c5780637212f8e41461008c57806391a1dc78146100bc5780639bf7f9d9146100ec578063a6fbfdb41461011c575b600080fd5b6100766004803603810190610071919061107a565b61014c565b6040516100839190611188565b60405180910390f35b6100a660048036038101906100a191906111a4565b6105dd565b6040516100b39190611188565b60405180910390f35b6100d660048036038101906100d191906111e5565b610602565b6040516100e39190611188565b60405180910390f35b6101066004803603810190610101919061107a565b610b11565b6040516101139190611188565b60405180910390f35b6101366004803603810190610131919061107a565b610c71565b6040516101439190611188565b60405180910390f35b610154610dd1565b60008060009054906101000a900473ffffffffffffffffffffffffffffffffffffffff1673ffffffffffffffffffffffffffffffffffffffff1663c73f46bf60008054906101000a900473ffffffffffffffffffffffffffffffffffffffff1673ffffffffffffffffffffffffffffffffffffffff16632e02cb02876020015187602001516040518363ffffffff1660e01b81526004016101f6929190611255565b60c060405180830381865afa158015610213573d6000803e3d6000fd5b505050506040513d601f19601f820116820180604052508101906102379190611384565b6040518263ffffffff1660e01b815260040161025391906113b1565b60c060405180830381865afa158015610270573d6000803e3d6000fd5b505050506040513d601f19601f820116820180604052508101906102949190611384565b905060008060009054906101000a900473ffffffffffffffffffffffffffffffffffffffff1673ffffffffffffffffffffffffffffffffffffffff16632e02cb02866000015186600001516040518363ffffffff1660e01b81526004016102fc929190611255565b60c060405180830381865afa158015610319573d6000803e3d6000fd5b505050506040513d601f19601f8201168201806040525081019061033d9190611384565b905060008060009054906101000a900473ffffffffffffffffffffffffffffffffffffffff1673ffffffffffffffffffffffffffffffffffffffff16632e02cb02876020015187600001516040518363ffffffff1660e01b81526004016103a5929190611255565b60c060405180830381865afa1580156103c2573d6000803e3d6000fd5b505050506040513d601f19601f820116820180604052508101906103e69190611384565b905060008060009054906101000a900473ffffffffffffffffffffffffffffffffffffffff1673ffffffffffffffffffffffffffffffffffffffff16632e02cb02886000015188602001516040518363ffffffff1660e01b815260040161044e929190611255565b60c060405180830381865afa15801561046b573d6000803e3d6000fd5b505050506040513d601f19601f8201168201806040525081019061048f9190611384565b90506105d160008054906101000a900473ffffffffffffffffffffffffffffffffffffffff1673ffffffffffffffffffffffffffffffffffffffff1663d5a9bbde86866040518363ffffffff1660e01b81526004016104ef929190611255565b60c060405180830381865afa15801561050c573d6000803e3d6000fd5b505050506040513d601f19601f820116820180604052508101906105309190611384565b60008054906101000a900473ffffffffffffffffffffffffffffffffffffffff1673ffffffffffffffffffffffffffffffffffffffff1663d5a9bbde85856040518363ffffffff1660e01b815260040161058b929190611255565b60c060405180830381865afa1580156105a8573d6000803e3d6000fd5b505050506040513d601f19601f820116820180604052508101906105cc9190611384565b6105dd565b94505050505092915050565b6105e5610dd1565b604051806040016040528084815260200183815250905092915050565b61060a610dd1565b60008060009054906101000a900473ffffffffffffffffffffffffffffffffffffffff1673ffffffffffffffffffffffffffffffffffffffff1663c73f46bf60008054906101000a900473ffffffffffffffffffffffffffffffffffffffff1673ffffffffffffffffffffffffffffffffffffffff16632e02cb02866020015187602001516040518363ffffffff1660e01b81526004016106ac929190611255565b60c060405180830381865afa1580156106c9573d6000803e3d6000fd5b505050506040513d601f19601f820116820180604052508101906106ed9190611384565b6040518263ffffffff1660e01b815260040161070991906113b1565b60c060405180830381865afa158015610726573d6000803e3d6000fd5b505050506040513d601f19601f8201168201806040525081019061074a9190611384565b905060008060009054906101000a900473ffffffffffffffffffffffffffffffffffffffff1673ffffffffffffffffffffffffffffffffffffffff16632e02cb02856000015186600001516040518363ffffffff1660e01b81526004016107b2929190611255565b60c060405180830381865afa1580156107cf573d6000803e3d6000fd5b505050506040513d601f19601f820116820180604052508101906107f39190611384565b905060008060009054906101000a900473ffffffffffffffffffffffffffffffffffffffff1673ffffffffffffffffffffffffffffffffffffffff1663c4f7438e83856040518363ffffffff1660e01b8152600401610853929190611255565b60c060405180830381865afa158015610870573d6000803e3d6000fd5b505050506040513d601f19601f820116820180604052508101906108949190611384565b9050610b0760008054906101000a900473ffffffffffffffffffffffffffffffffffffffff1673ffffffffffffffffffffffffffffffffffffffff1663752d6e1a8760000151846040518363ffffffff1660e01b81526004016108f8929190611255565b60c060405180830381865afa158015610915573d6000803e3d6000fd5b505050506040513d601f19601f820116820180604052508101906109399190611384565b60008054906101000a900473ffffffffffffffffffffffffffffffffffffffff1673ffffffffffffffffffffffffffffffffffffffff1663752d6e1a60008054906101000a900473ffffffffffffffffffffffffffffffffffffffff1673ffffffffffffffffffffffffffffffffffffffff1663c4f7438e60008054906101000a900473ffffffffffffffffffffffffffffffffffffffff1673ffffffffffffffffffffffffffffffffffffffff1663bc1b392d6040518163ffffffff1660e01b815260040160c060405180830381865afa158015610a1c573d6000803e3d6000fd5b505050506040513d601f19601f82011682018060405250810190610a409190611384565b8b602001516040518363ffffffff1660e01b8152600401610a62929190611255565b60c060405180830381865afa158015610a7f573d6000803e3d6000fd5b505050506040513d601f19601f82011682018060405250810190610aa39190611384565b856040518363ffffffff1660e01b8152600401610ac1929190611255565b60c060405180830381865afa158015610ade573d6000803e3d6000fd5b505050506040513d601f19601f82011682018060405250810190610b029190611384565b6105dd565b9350505050919050565b610b19610dd1565b610c6960008054906101000a900473ffffffffffffffffffffffffffffffffffffffff1673ffffffffffffffffffffffffffffffffffffffff1663d5a9bbde856000015185600001516040518363ffffffff1660e01b8152600401610b7f929190611255565b60c060405180830381865afa158015610b9c573d6000803e3d6000fd5b505050506040513d601f19601f82011682018060405250810190610bc09190611384565b60008054906101000a900473ffffffffffffffffffffffffffffffffffffffff1673ffffffffffffffffffffffffffffffffffffffff1663d5a9bbde866020015186602001516040518363ffffffff1660e01b8152600401610c23929190611255565b60c060405180830381865afa158015610c40573d6000803e3d6000fd5b505050506040513d601f19601f82011682018060405250810190610c649190611384565b6105dd565b905092915050565b610c79610dd1565b610dc960008054906101000a900473ffffffffffffffffffffffffffffffffffffffff1673ffffffffffffffffffffffffffffffffffffffff1663c4f7438e856000015185600001516040518363ffffffff1660e01b8152600401610cdf929190611255565b60c060405180830381865afa158015610cfc573d6000803e3d6000fd5b505050506040513d601f19601f82011682018060405250810190610d209190611384565b60008054906101000a900473ffffffffffffffffffffffffffffffffffffffff1673ffffffffffffffffffffffffffffffffffffffff1663c4f7438e866020015186602001516040518363ffffffff1660e01b8152600401610d83929190611255565b60c060405180830381865afa158015610da0573d6000803e3d6000fd5b505050506040513d601f19601f82011682018060405250810190610dc49190611384565b6105dd565b905092915050565b6040518060400160405280610de4610df7565b8152602001610df1610df7565b81525090565b6040518060600160405280610e0a610e2a565b8152602001610e17610e2a565b8152602001610e24610e2a565b81525090565b6040518060400160405280610e3d610e50565b8152602001610e4a610e50565b81525090565b6040518060200160405280600081525090565b6000604051905090565b600080fd5b600080fd5b6000601f19601f8301169050919050565b7f4e487b7100000000000000000000000000000000000000000000000000000000600052604160045260246000fd5b610ec082610e77565b810181811067ffffffffffffffff82111715610edf57610ede610e88565b5b80604052505050565b6000610ef2610e63565b9050610efe8282610eb7565b919050565b6000819050919050565b610f1681610f03565b8114610f2157600080fd5b50565b600081359050610f3381610f0d565b92915050565b600060208284031215610f4f57610f4e610e72565b5b610f596020610ee8565b90506000610f6984828501610f24565b60008301525092915050565b600060408284031215610f8b57610f8a610e72565b5b610f956040610ee8565b90506000610fa584828501610f39565b6000830152506020610fb984828501610f39565b60208301525092915050565b600060c08284031215610fdb57610fda610e72565b5b610fe56060610ee8565b90506000610ff584828501610f75565b600083015250604061100984828501610f75565b602083015250608061101d84828501610f75565b60408301525092915050565b600061018082840312156110405761103f610e72565b5b61104a6040610ee8565b9050600061105a84828501610fc5565b60008301525060c061106e84828501610fc5565b60208301525092915050565b600080610300838503121561109257611091610e6d565b5b60006110a085828601611029565b9250506101806110b285828601611029565b9150509250929050565b6110c581610f03565b82525050565b6020820160008201516110e160008501826110bc565b50505050565b6040820160008201516110fd60008501826110cb565b50602082015161111060208501826110cb565b50505050565b60c08201600082015161112c60008501826110e7565b50602082015161113f60408501826110e7565b50604082015161115260808501826110e7565b50505050565b6101808201600082015161116f6000850182611116565b50602082015161118260c0850182611116565b50505050565b60006101808201905061119e6000830184611158565b92915050565b60008061018083850312156111bc576111bb610e6d565b5b60006111ca85828601610fc5565b92505060c06111db85828601610fc5565b9150509250929050565b600061018082840312156111fc576111fb610e6d565b5b600061120a84828501611029565b91505092915050565b60c08201600082015161122960008501826110e7565b50602082015161123c60408501826110e7565b50604082015161124f60808501826110e7565b50505050565b60006101808201905061126b6000830185611213565b61127860c0830184611213565b9392505050565b60008151905061128e81610f0d565b92915050565b6000602082840312156112aa576112a9610e72565b5b6112b46020610ee8565b905060006112c48482850161127f565b60008301525092915050565b6000604082840312156112e6576112e5610e72565b5b6112f06040610ee8565b9050600061130084828501611294565b600083015250602061131484828501611294565b60208301525092915050565b600060c0828403121561133657611335610e72565b5b6113406060610ee8565b90506000611350848285016112d0565b6000830152506040611364848285016112d0565b6020830152506080611378848285016112d0565b60408301525092915050565b600060c0828403121561139a57611399610e6d565b5b60006113a884828501611320565b91505092915050565b600060c0820190506113c66000830184611213565b9291505056fea264697066735822122077e25ce2cd805143cf968ab0a4fbcaceb83db377a69f3c2e08cd5a5794050e0264736f6c634300081b0033","opcodes":"PUSH1 0x80 PUSH1 0x40 MSTORE CALLVALUE DUP1 ISZERO PUSH2 0x10 JUMPI PUSH1 0x0 DUP1 REVERT JUMPDEST POP PUSH1 0x40 MLOAD PUSH2 0x152B CODESIZE SUB DUP1 PUSH2 0x152B DUP4 CODECOPY DUP2 DUP2 ADD PUSH1 0x40 MSTORE DUP2 ADD SWAP1 PUSH2 0x32 SWAP2 SWAP1 PUSH2 0xED JUMP JUMPDEST DUP1 PUSH1 0x0 DUP1 PUSH2 0x100 EXP DUP2 SLOAD DUP2 PUSH20 0xFFFFFFFFFFFFFFFFFFFFFFFFFFFFFFFFFFFFFFFF MUL NOT AND SWAP1 DUP4 PUSH20 0xFFFFFFFFFFFFFFFFFFFFFFFFFFFFFFFFFFFFFFFF AND MUL OR SWAP1 SSTORE POP POP PUSH2 0x11A JUMP JUMPDEST PUSH1 0x0 DUP1 REVERT JUMPDEST PUSH1 0x0 PUSH20 0xFFFFFFFFFFFFFFFFFFFFFFFFFFFFFFFFFFFFFFFF DUP3 AND SWAP1 POP SWAP2 SWAP1 POP JUMP JUMPDEST PUSH1 0x0 PUSH2 0xA8 DUP3 PUSH2 0x7D JUMP JUMPDEST SWAP1 POP SWAP2 SWAP1 POP JUMP JUMPDEST PUSH1 0x0 PUSH2 0xBA DUP3 PUSH2 0x9D JUMP JUMPDEST SWAP1 POP SWAP2 SWAP1 POP JUMP JUMPDEST PUSH2 0xCA DUP2 PUSH2 0xAF JUMP JUMPDEST DUP2 EQ PUSH2 0xD5 JUMPI PUSH1 0x0 DUP1 REVERT JUMPDEST POP JUMP JUMPDEST PUSH1 0x0 DUP2 MLOAD SWAP1 POP PUSH2 0xE7 DUP2 PUSH2 0xC1 JUMP JUMPDEST SWAP3 SWAP2 POP POP JUMP JUMPDEST PUSH1 0x0 PUSH1 0x20 DUP3 DUP5 SUB SLT ISZERO PUSH2 0x103 JUMPI PUSH2 0x102 PUSH2 0x78 JUMP JUMPDEST JUMPDEST PUSH1 0x0 PUSH2 0x111 DUP5 DUP3 DUP6 ADD PUSH2 0xD8 JUMP JUMPDEST SWAP2 POP POP SWAP3 SWAP2 POP POP JUMP JUMPDEST PUSH2 0x1402 DUP1 PUSH2 0x129 PUSH1 0x0 CODECOPY PUSH1 0x0 RETURN INVALID PUSH1 0x80 PUSH1 0x40 MSTORE CALLVALUE DUP1 ISZERO PUSH2 0x10 JUMPI PUSH1 0x0 DUP1 REVERT JUMPDEST POP PUSH1 0x4 CALLDATASIZE LT PUSH2 0x57 JUMPI PUSH1 0x0 CALLDATALOAD PUSH1 0xE0 SHR DUP1 PUSH4 0x16946999 EQ PUSH2 0x5C JUMPI DUP1 PUSH4 0x7212F8E4 EQ PUSH2 0x8C JUMPI DUP1 PUSH4 0x91A1DC78 EQ PUSH2 0xBC JUMPI DUP1 PUSH4 0x9BF7F9D9 EQ PUSH2 0xEC JUMPI DUP1 PUSH4 0xA6FBFDB4 EQ PUSH2 0x11C JUMPI JUMPDEST PUSH1 0x0 DUP1 REVERT JUMPDEST PUSH2 0x76 PUSH1 0x4 DUP1 CALLDATASIZE SUB DUP2 ADD SWAP1 PUSH2 0x71 SWAP2 SWAP1 PUSH2 0x107A JUMP JUMPDEST PUSH2 0x14C JUMP JUMPDEST PUSH1 0x40 MLOAD PUSH2 0x83 SWAP2 SWAP1 PUSH2 0x1188 JUMP JUMPDEST PUSH1 0x40 MLOAD DUP1 SWAP2 SUB SWAP1 RETURN JUMPDEST PUSH2 0xA6 PUSH1 0x4 DUP1 CALLDATASIZE SUB DUP2 ADD SWAP1 PUSH2 0xA1 SWAP2 SWAP1 PUSH2 0x11A4 JUMP JUMPDEST PUSH2 0x5DD JUMP JUMPDEST PUSH1 0x40 MLOAD PUSH2 0xB3 SWAP2 SWAP1 PUSH2 0x1188 JUMP JUMPDEST PUSH1 0x40 MLOAD DUP1 SWAP2 SUB SWAP1 RETURN JUMPDEST PUSH2 0xD6 PUSH1 0x4 DUP1 CALLDATASIZE SUB DUP2 ADD SWAP1 PUSH2 0xD1 SWAP2 SWAP1 PUSH2 0x11E5 JUMP JUMPDEST PUSH2 0x602 JUMP JUMPDEST PUSH1 0x40 MLOAD PUSH2 0xE3 SWAP2 SWAP1 PUSH2 0x1188 JUMP JUMPDEST PUSH1 0x40 MLOAD DUP1 SWAP2 SUB SWAP1 RETURN JUMPDEST PUSH2 0x106 PUSH1 0x4 DUP1 CALLDATASIZE SUB DUP2 ADD SWAP1 PUSH2 0x101 SWAP2 SWAP1 PUSH2 0x107A JUMP JUMPDEST PUSH2 0xB11 JUMP JUMPDEST PUSH1 0x40 MLOAD PUSH2 0x113 SWAP2 SWAP1 PUSH2 0x1188 JUMP JUMPDEST PUSH1 0x40 MLOAD DUP1 SWAP2 SUB SWAP1 RETURN JUMPDEST PUSH2 0x136 PUSH1 0x4 DUP1 CALLDATASIZE SUB DUP2 ADD SWAP1 PUSH2 0x131 SWAP2 SWAP1 PUSH2 0x107A JUMP JUMPDEST PUSH2 0xC71 JUMP JUMPDEST PUSH1 0x40 MLOAD PUSH2 0x143 SWAP2 SWAP1 PUSH2 0x1188 JUMP JUMPDEST PUSH1 0x40 MLOAD DUP1 SWAP2 SUB SWAP1 RETURN JUMPDEST PUSH2 0x154 PUSH2 0xDD1 JUMP JUMPDEST PUSH1 0x0 DUP1 PUSH1 0x0 SWAP1 SLOAD SWAP1 PUSH2 0x100 EXP SWAP1 DIV PUSH20 0xFFFFFFFFFFFFFFFFFFFFFFFFFFFFFFFFFFFFFFFF AND PUSH20 0xFFFFFFFFFFFFFFFFFFFFFFFFFFFFFFFFFFFFFFFF AND PUSH4 0xC73F46BF PUSH1 0x0 DUP1 SLOAD SWAP1 PUSH2 0x100 EXP SWAP1 DIV PUSH20 0xFFFFFFFFFFFFFFFFFFFFFFFFFFFFFFFFFFFFFFFF AND PUSH20 0xFFFFFFFFFFFFFFFFFFFFFFFFFFFFFFFFFFFFFFFF AND PUSH4 0x2E02CB02 DUP8 PUSH1 0x20 ADD MLOAD DUP8 PUSH1 0x20 ADD MLOAD PUSH1 0x40 MLOAD DUP4 PUSH4 0xFFFFFFFF AND PUSH1 0xE0 SHL DUP2 MSTORE PUSH1 0x4 ADD PUSH2 0x1F6 SWAP3 SWAP2 SWAP1 PUSH2 0x1255 JUMP JUMPDEST PUSH1 0xC0 PUSH1 0x40 MLOAD DUP1 DUP4 SUB DUP2 DUP7 GAS STATICCALL ISZERO DUP1 ISZERO PUSH2 0x213 JUMPI RETURNDATASIZE PUSH1 0x0 DUP1 RETURNDATACOPY RETURNDATASIZE PUSH1 0x0 REVERT JUMPDEST POP POP POP POP PUSH1 0x40 MLOAD RETURNDATASIZE PUSH1 0x1F NOT PUSH1 0x1F DUP3 ADD AND DUP3 ADD DUP1 PUSH1 0x40 MSTORE POP DUP2 ADD SWAP1 PUSH2 0x237 SWAP2 SWAP1 PUSH2 0x1384 JUMP JUMPDEST PUSH1 0x40 MLOAD DUP3 PUSH4 0xFFFFFFFF AND PUSH1 0xE0 SHL DUP2 MSTORE PUSH1 0x4 ADD PUSH2 0x253 SWAP2 SWAP1 PUSH2 0x13B1 JUMP JUMPDEST PUSH1 0xC0 PUSH1 0x40 MLOAD DUP1 DUP4 SUB DUP2 DUP7 GAS STATICCALL ISZERO DUP1 ISZERO PUSH2 0x270 JUMPI RETURNDATASIZE PUSH1 0x0 DUP1 RETURNDATACOPY RETURNDATASIZE PUSH1 0x0 REVERT JUMPDEST POP POP POP POP PUSH1 0x40 MLOAD RETURNDATASIZE PUSH1 0x1F NOT PUSH1 0x1F DUP3 ADD AND DUP3 ADD DUP1 PUSH1 0x40 MSTORE POP DUP2 ADD SWAP1 PUSH2 0x294 SWAP2 SWAP1 PUSH2 0x1384 JUMP JUMPDEST SWAP1 POP PUSH1 0x0 DUP1 PUSH1 0x0 SWAP1 SLOAD SWAP1 PUSH2 0x100 EXP SWAP1 DIV PUSH20 0xFFFFFFFFFFFFFFFFFFFFFFFFFFFFFFFFFFFFFFFF AND PUSH20 0xFFFFFFFFFFFFFFFFFFFFFFFFFFFFFFFFFFFFFFFF AND PUSH4 0x2E02CB02 DUP7 PUSH1 0x0 ADD MLOAD DUP7 PUSH1 0x0 ADD MLOAD PUSH1 0x40 MLOAD DUP4 PUSH4 0xFFFFFFFF AND PUSH1 0xE0 SHL DUP2 MSTORE PUSH1 0x4 ADD PUSH2 0x2FC SWAP3 SWAP2 SWAP1 PUSH2 0x1255 JUMP JUMPDEST PUSH1 0xC0 PUSH1 0x40 MLOAD DUP1 DUP4 SUB DUP2 DUP7 GAS STATICCALL ISZERO DUP1 ISZERO PUSH2 0x319 JUMPI RETURNDATASIZE PUSH1 0x0 DUP1 RETURNDATACOPY RETURNDATASIZE PUSH1 0x0 REVERT JUMPDEST POP POP POP POP PUSH1 0x40 MLOAD RETURNDATASIZE PUSH1 0x1F NOT PUSH1 0x1F DUP3 ADD AND DUP3 ADD DUP1 PUSH1 0x40 MSTORE POP DUP2 ADD SWAP1 PUSH2 0x33D SWAP2 SWAP1 PUSH2 0x1384 JUMP JUMPDEST SWAP1 POP PUSH1 0x0 DUP1 PUSH1 0x0 SWAP1 SLOAD SWAP1 PUSH2 0x100 EXP SWAP1 DIV PUSH20 0xFFFFFFFFFFFFFFFFFFFFFFFFFFFFFFFFFFFFFFFF AND PUSH20 0xFFFFFFFFFFFFFFFFFFFFFFFFFFFFFFFFFFFFFFFF AND PUSH4 0x2E02CB02 DUP8 PUSH1 0x20 ADD MLOAD DUP8 PUSH1 0x0 ADD MLOAD PUSH1 0x40 MLOAD DUP4 PUSH4 0xFFFFFFFF AND PUSH1 0xE0 SHL DUP2 MSTORE PUSH1 0x4 ADD PUSH2 0x3A5 SWAP3 SWAP2 SWAP1 PUSH2 0x1255 JUMP JUMPDEST PUSH1 0xC0 PUSH1 0x40 MLOAD DUP1 DUP4 SUB DUP2 DUP7 GAS STATICCALL ISZERO DUP1 ISZERO PUSH2 0x3C2 JUMPI RETURNDATASIZE PUSH1 0x0 DUP1 RETURNDATACOPY RETURNDATASIZE PUSH1 0x0 REVERT JUMPDEST POP POP POP POP PUSH1 0x40 MLOAD RETURNDATASIZE PUSH1 0x1F NOT PUSH1 0x1F DUP3 ADD AND DUP3 ADD DUP1 PUSH1 0x40 MSTORE POP DUP2 ADD SWAP1 PUSH2 0x3E6 SWAP2 SWAP1 PUSH2 0x1384 JUMP JUMPDEST SWAP1 POP PUSH1 0x0 DUP1 PUSH1 0x0 SWAP1 SLOAD SWAP1 PUSH2 0x100 EXP SWAP1 DIV PUSH20 0xFFFFFFFFFFFFFFFFFFFFFFFFFFFFFFFFFFFFFFFF AND PUSH20 0xFFFFFFFFFFFFFFFFFFFFFFFFFFFFFFFFFFFFFFFF AND PUSH4 0x2E02CB02 DUP9 PUSH1 0x0 ADD MLOAD DUP9 PUSH1 0x20 ADD MLOAD PUSH1 0x40 MLOAD DUP4 PUSH4 0xFFFFFFFF AND PUSH1 0xE0 SHL DUP2 MSTORE PUSH1 0x4 ADD PUSH2 0x44E SWAP3 SWAP2 SWAP1 PUSH2 0x1255 JUMP JUMPDEST PUSH1 0xC0 PUSH1 0x40 MLOAD DUP1 DUP4 SUB DUP2 DUP7 GAS STATICCALL ISZERO DUP1 ISZERO PUSH2 0x46B JUMPI RETURNDATASIZE PUSH1 0x0 DUP1 RETURNDATACOPY RETURNDATASIZE PUSH1 0x0 REVERT JUMPDEST POP POP POP POP PUSH1 0x40 MLOAD RETURNDATASIZE PUSH1 0x1F NOT PUSH1 0x1F DUP3 ADD AND DUP3 ADD DUP1 PUSH1 0x40 MSTORE POP DUP2 ADD SWAP1 PUSH2 0x48F SWAP2 SWAP1 PUSH2 0x1384 JUMP JUMPDEST SWAP1 POP PUSH2 0x5D1 PUSH1 0x0 DUP1 SLOAD SWAP1 PUSH2 0x100 EXP SWAP1 DIV PUSH20 0xFFFFFFFFFFFFFFFFFFFFFFFFFFFFFFFFFFFFFFFF AND PUSH20 0xFFFFFFFFFFFFFFFFFFFFFFFFFFFFFFFFFFFFFFFF AND PUSH4 0xD5A9BBDE DUP7 DUP7 PUSH1 0x40 MLOAD DUP4 PUSH4 0xFFFFFFFF AND PUSH1 0xE0 SHL DUP2 MSTORE PUSH1 0x4 ADD PUSH2 0x4EF SWAP3 SWAP2 SWAP1 PUSH2 0x1255 JUMP JUMPDEST PUSH1 0xC0 PUSH1 0x40 MLOAD DUP1 DUP4 SUB DUP2 DUP7 GAS STATICCALL ISZERO DUP1 ISZERO PUSH2 0x50C JUMPI RETURNDATASIZE PUSH1 0x0 DUP1 RETURNDATACOPY RETURNDATASIZE PUSH1 0x0 REVERT JUMPDEST POP POP POP POP PUSH1 0x40 MLOAD RETURNDATASIZE PUSH1 0x1F NOT PUSH1 0x1F DUP3 ADD AND DUP3 ADD DUP1 PUSH1 0x40 MSTORE POP DUP2 ADD SWAP1 PUSH2 0x530 SWAP2 SWAP1 PUSH2 0x1384 JUMP JUMPDEST PUSH1 0x0 DUP1 SLOAD SWAP1 PUSH2 0x100 EXP SWAP1 DIV PUSH20 0xFFFFFFFFFFFFFFFFFFFFFFFFFFFFFFFFFFFFFFFF AND PUSH20 0xFFFFFFFFFFFFFFFFFFFFFFFFFFFFFFFFFFFFFFFF AND PUSH4 0xD5A9BBDE DUP6 DUP6 PUSH1 0x40 MLOAD DUP4 PUSH4 0xFFFFFFFF AND PUSH1 0xE0 SHL DUP2 MSTORE PUSH1 0x4 ADD PUSH2 0x58B SWAP3 SWAP2 SWAP1 PUSH2 0x1255 JUMP JUMPDEST PUSH1 0xC0 PUSH1 0x40 MLOAD DUP1 DUP4 SUB DUP2 DUP7 GAS STATICCALL ISZERO DUP1 ISZERO PUSH2 0x5A8 JUMPI RETURNDATASIZE PUSH1 0x0 DUP1 RETURNDATACOPY RETURNDATASIZE PUSH1 0x0 REVERT JUMPDEST POP POP POP POP PUSH1 0x40 MLOAD RETURNDATASIZE PUSH1 0x1F NOT PUSH1 0x1F DUP3 ADD AND DUP3 ADD DUP1 PUSH1 0x40 MSTORE POP DUP2 ADD SWAP1 PUSH2 0x5CC SWAP2 SWAP1 PUSH2 0x1384 JUMP JUMPDEST PUSH2 0x5DD JUMP JUMPDEST SWAP5 POP POP POP POP POP SWAP3 SWAP2 POP POP JUMP JUMPDEST PUSH2 0x5E5 PUSH2 0xDD1 JUMP JUMPDEST PUSH1 0x40 MLOAD DUP1 PUSH1 0x40 ADD PUSH1 0x40 MSTORE DUP1 DUP5 DUP2 MSTORE PUSH1 0x20 ADD DUP4 DUP2 MSTORE POP SWAP1 POP SWAP3 SWAP2 POP POP JUMP JUMPDEST PUSH2 0x60A PUSH2 0xDD1 JUMP JUMPDEST PUSH1 0x0 DUP1 PUSH1 0x0 SWAP1 SLOAD SWAP1 PUSH2 0x100 EXP SWAP1 DIV PUSH20 0xFFFFFFFFFFFFFFFFFFFFFFFFFFFFFFFFFFFFFFFF AND PUSH20 0xFFFFFFFFFFFFFFFFFFFFFFFFFFFFFFFFFFFFFFFF AND PUSH4 0xC73F46BF PUSH1 0x0 DUP1 SLOAD SWAP1 PUSH2 0x100 EXP SWAP1 DIV PUSH20 0xFFFFFFFFFFFFFFFFFFFFFFFFFFFFFFFFFFFFFFFF AND PUSH20 0xFFFFFFFFFFFFFFFFFFFFFFFFFFFFFFFFFFFFFFFF AND PUSH4 0x2E02CB02 DUP7 PUSH1 0x20 ADD MLOAD DUP8 PUSH1 0x20 ADD MLOAD PUSH1 0x40 MLOAD DUP4 PUSH4 0xFFFFFFFF AND PUSH1 0xE0 SHL DUP2 MSTORE PUSH1 0x4 ADD PUSH2 0x6AC SWAP3 SWAP2 SWAP1 PUSH2 0x1255 JUMP JUMPDEST PUSH1 0xC0 PUSH1 0x40 MLOAD DUP1 DUP4 SUB DUP2 DUP7 GAS STATICCALL ISZERO DUP1 ISZERO PUSH2 0x6C9 JUMPI RETURNDATASIZE PUSH1 0x0 DUP1 RETURNDATACOPY RETURNDATASIZE PUSH1 0x0 REVERT JUMPDEST POP POP POP POP PUSH1 0x40 MLOAD RETURNDATASIZE PUSH1 0x1F NOT PUSH1 0x1F DUP3 ADD AND DUP3 ADD DUP1 PUSH1 0x40 MSTORE POP DUP2 ADD SWAP1 PUSH2 0x6ED SWAP2 SWAP1 PUSH2 0x1384 JUMP JUMPDEST PUSH1 0x40 MLOAD DUP3 PUSH4 0xFFFFFFFF AND PUSH1 0xE0 SHL DUP2 MSTORE PUSH1 0x4 ADD PUSH2 0x709 SWAP2 SWAP1 PUSH2 0x13B1 JUMP JUMPDEST PUSH1 0xC0 PUSH1 0x40 MLOAD DUP1 DUP4 SUB DUP2 DUP7 GAS STATICCALL ISZERO DUP1 ISZERO PUSH2 0x726 JUMPI RETURNDATASIZE PUSH1 0x0 DUP1 RETURNDATACOPY RETURNDATASIZE PUSH1 0x0 REVERT JUMPDEST POP POP POP POP PUSH1 0x40 MLOAD RETURNDATASIZE PUSH1 0x1F NOT PUSH1 0x1F DUP3 ADD AND DUP3 ADD DUP1 PUSH1 0x40 MSTORE POP DUP2 ADD SWAP1 PUSH2 0x74A SWAP2 SWAP1 PUSH2 0x1384 JUMP JUMPDEST SWAP1 POP PUSH1 0x0 DUP1 PUSH1 0x0 SWAP1 SLOAD SWAP1 PUSH2 0x100 EXP SWAP1 DIV PUSH20 0xFFFFFFFFFFFFFFFFFFFFFFFFFFFFFFFFFFFFFFFF AND PUSH20 0xFFFFFFFFFFFFFFFFFFFFFFFFFFFFFFFFFFFFFFFF AND PUSH4 0x2E02CB02 DUP6 PUSH1 0x0 ADD MLOAD DUP7 PUSH1 0x0 ADD MLOAD PUSH1 0x40 MLOAD DUP4 PUSH4 0xFFFFFFFF AND PUSH1 0xE0 SHL DUP2 MSTORE PUSH1 0x4 ADD PUSH2 0x7B2 SWAP3 SWAP2 SWAP1 PUSH2 0x1255 JUMP JUMPDEST PUSH1 0xC0 PUSH1 0x40 MLOAD DUP1 DUP4 SUB DUP2 DUP7 GAS STATICCALL ISZERO DUP1 ISZERO PUSH2 0x7CF JUMPI RETURNDATASIZE PUSH1 0x0 DUP1 RETURNDATACOPY RETURNDATASIZE PUSH1 0x0 REVERT JUMPDEST POP POP POP POP PUSH1 0x40 MLOAD RETURNDATASIZE PUSH1 0x1F NOT PUSH1 0x1F DUP3 ADD AND DUP3 ADD DUP1 PUSH1 0x40 MSTORE POP DUP2 ADD SWAP1 PUSH2 0x7F3 SWAP2 SWAP1 PUSH2 0x1384 JUMP JUMPDEST SWAP1 POP PUSH1 0x0 DUP1 PUSH1 0x0 SWAP1 SLOAD SWAP1 PUSH2 0x100 EXP SWAP1 DIV PUSH20 0xFFFFFFFFFFFFFFFFFFFFFFFFFFFFFFFFFFFFFFFF AND PUSH20 0xFFFFFFFFFFFFFFFFFFFFFFFFFFFFFFFFFFFFFFFF AND PUSH4 0xC4F7438E DUP4 DUP6 PUSH1 0x40 MLOAD DUP4 PUSH4 0xFFFFFFFF AND PUSH1 0xE0 SHL DUP2 MSTORE PUSH1 0x4 ADD PUSH2 0x853 SWAP3 SWAP2 SWAP1 PUSH2 0x1255 JUMP JUMPDEST PUSH1 0xC0 PUSH1 0x40 MLOAD DUP1 DUP4 SUB DUP2 DUP7 GAS STATICCALL ISZERO DUP1 ISZERO PUSH2 0x870 JUMPI RETURNDATASIZE PUSH1 0x0 DUP1 RETURNDATACOPY RETURNDATASIZE PUSH1 0x0 REVERT JUMPDEST POP POP POP POP PUSH1 0x40 MLOAD RETURNDATASIZE PUSH1 0x1F NOT PUSH1 0x1F DUP3 ADD AND DUP3 ADD DUP1 PUSH1 0x40 MSTORE POP DUP2 ADD SWAP1 PUSH2 0x894 SWAP2 SWAP1 PUSH2 0x1384 JUMP JUMPDEST SWAP1 POP PUSH2 0xB07 PUSH1 0x0 DUP1 SLOAD SWAP1 PUSH2 0x100 EXP SWAP1 DIV PUSH20 0xFFFFFFFFFFFFFFFFFFFFFFFFFFFFFFFFFFFFFFFF AND PUSH20 0xFFFFFFFFFFFFFFFFFFFFFFFFFFFFFFFFFFFFFFFF AND PUSH4 0x752D6E1A DUP8 PUSH1 0x0 ADD MLOAD DUP5 PUSH1 0x40 MLOAD DUP4 PUSH4 0xFFFFFFFF AND PUSH1 0xE0 SHL DUP2 MSTORE PUSH1 0x4 ADD PUSH2 0x8F8 SWAP3 SWAP2 SWAP1 PUSH2 0x1255 JUMP JUMPDEST PUSH1 0xC0 PUSH1 0x40 MLOAD DUP1 DUP4 SUB DUP2 DUP7 GAS STATICCALL ISZERO DUP1 ISZERO PUSH2 0x915 JUMPI RETURNDATASIZE PUSH1 0x0 DUP1 RETURNDATACOPY RETURNDATASIZE PUSH1 0x0 REVERT JUMPDEST POP POP POP POP PUSH1 0x40 MLOAD RETURNDATASIZE PUSH1 0x1F NOT PUSH1 0x1F DUP3 ADD AND DUP3 ADD DUP1 PUSH1 0x40 MSTORE POP DUP2 ADD SWAP1 PUSH2 0x939 SWAP2 SWAP1 PUSH2 0x1384 JUMP JUMPDEST PUSH1 0x0 DUP1 SLOAD SWAP1 PUSH2 0x100 EXP SWAP1 DIV PUSH20 0xFFFFFFFFFFFFFFFFFFFFFFFFFFFFFFFFFFFFFFFF AND PUSH20 0xFFFFFFFFFFFFFFFFFFFFFFFFFFFFFFFFFFFFFFFF AND PUSH4 0x752D6E1A PUSH1 0x0 DUP1 SLOAD SWAP1 PUSH2 0x100 EXP SWAP1 DIV PUSH20 0xFFFFFFFFFFFFFFFFFFFFFFFFFFFFFFFFFFFFFFFF AND PUSH20 0xFFFFFFFFFFFFFFFFFFFFFFFFFFFFFFFFFFFFFFFF AND PUSH4 0xC4F7438E PUSH1 0x0 DUP1 SLOAD SWAP1 PUSH2 0x100 EXP SWAP1 DIV PUSH20 0xFFFFFFFFFFFFFFFFFFFFFFFFFFFFFFFFFFFFFFFF AND PUSH20 0xFFFFFFFFFFFFFFFFFFFFFFFFFFFFFFFFFFFFFFFF AND PUSH4 0xBC1B392D PUSH1 0x40 MLOAD DUP2 PUSH4 0xFFFFFFFF AND PUSH1 0xE0 SHL DUP2 MSTORE PUSH1 0x4 ADD PUSH1 0xC0 PUSH1 0x40 MLOAD DUP1 DUP4 SUB DUP2 DUP7 GAS STATICCALL ISZERO DUP1 ISZERO PUSH2 0xA1C JUMPI RETURNDATASIZE PUSH1 0x0 DUP1 RETURNDATACOPY RETURNDATASIZE PUSH1 0x0 REVERT JUMPDEST POP POP POP POP PUSH1 0x40 MLOAD RETURNDATASIZE PUSH1 0x1F NOT PUSH1 0x1F DUP3 ADD AND DUP3 ADD DUP1 PUSH1 0x40 MSTORE POP DUP2 ADD SWAP1 PUSH2 0xA40 SWAP2 SWAP1 PUSH2 0x1384 JUMP JUMPDEST DUP12 PUSH1 0x20 ADD MLOAD PUSH1 0x40 MLOAD DUP4 PUSH4 0xFFFFFFFF AND PUSH1 0xE0 SHL DUP2 MSTORE PUSH1 0x4 ADD PUSH2 0xA62 SWAP3 SWAP2 SWAP1 PUSH2 0x1255 JUMP JUMPDEST PUSH1 0xC0 PUSH1 0x40 MLOAD DUP1 DUP4 SUB DUP2 DUP7 GAS STATICCALL ISZERO DUP1 ISZERO PUSH2 0xA7F JUMPI RETURNDATASIZE PUSH1 0x0 DUP1 RETURNDATACOPY RETURNDATASIZE PUSH1 0x0 REVERT JUMPDEST POP POP POP POP PUSH1 0x40 MLOAD RETURNDATASIZE PUSH1 0x1F NOT PUSH1 0x1F DUP3 ADD AND DUP3 ADD DUP1 PUSH1 0x40 MSTORE POP DUP2 ADD SWAP1 PUSH2 0xAA3 SWAP2 SWAP1 PUSH2 0x1384 JUMP JUMPDEST DUP6 PUSH1 0x40 MLOAD DUP4 PUSH4 0xFFFFFFFF AND PUSH1 0xE0 SHL DUP2 MSTORE PUSH1 0x4 ADD PUSH2 0xAC1 SWAP3 SWAP2 SWAP1 PUSH2 0x1255 JUMP JUMPDEST PUSH1 0xC0 PUSH1 0x40 MLOAD DUP1 DUP4 SUB DUP2 DUP7 GAS STATICCALL ISZERO DUP1 ISZERO PUSH2 0xADE JUMPI RETURNDATASIZE PUSH1 0x0 DUP1 RETURNDATACOPY RETURNDATASIZE PUSH1 0x0 REVERT JUMPDEST POP POP POP POP PUSH1 0x40 MLOAD RETURNDATASIZE PUSH1 0x1F NOT PUSH1 0x1F DUP3 ADD AND DUP3 ADD DUP1 PUSH1 0x40 MSTORE POP DUP2 ADD SWAP1 PUSH2 0xB02 SWAP2 SWAP1 PUSH2 0x1384 JUMP JUMPDEST PUSH2 0x5DD JUMP JUMPDEST SWAP4 POP POP POP POP SWAP2 SWAP1 POP JUMP JUMPDEST PUSH2 0xB19 PUSH2 0xDD1 JUMP JUMPDEST PUSH2 0xC69 PUSH1 0x0 DUP1 SLOAD SWAP1 PUSH2 0x100 EXP SWAP1 DIV PUSH20 0xFFFFFFFFFFFFFFFFFFFFFFFFFFFFFFFFFFFFFFFF AND PUSH20 0xFFFFFFFFFFFFFFFFFFFFFFFFFFFFFFFFFFFFFFFF AND PUSH4 0xD5A9BBDE DUP6 PUSH1 0x0 ADD MLOAD DUP6 PUSH1 0x0 ADD MLOAD PUSH1 0x40 MLOAD DUP4 PUSH4 0xFFFFFFFF AND PUSH1 0xE0 SHL DUP2 MSTORE PUSH1 0x4 ADD PUSH2 0xB7F SWAP3 SWAP2 SWAP1 PUSH2 0x1255 JUMP JUMPDEST PUSH1 0xC0 PUSH1 0x40 MLOAD DUP1 DUP4 SUB DUP2 DUP7 GAS STATICCALL ISZERO DUP1 ISZERO PUSH2 0xB9C JUMPI RETURNDATASIZE PUSH1 0x0 DUP1 RETURNDATACOPY RETURNDATASIZE PUSH1 0x0 REVERT JUMPDEST POP POP POP POP PUSH1 0x40 MLOAD RETURNDATASIZE PUSH1 0x1F NOT PUSH1 0x1F DUP3 ADD AND DUP3 ADD DUP1 PUSH1 0x40 MSTORE POP DUP2 ADD SWAP1 PUSH2 0xBC0 SWAP2 SWAP1 PUSH2 0x1384 JUMP JUMPDEST PUSH1 0x0 DUP1 SLOAD SWAP1 PUSH2 0x100 EXP SWAP1 DIV PUSH20 0xFFFFFFFFFFFFFFFFFFFFFFFFFFFFFFFFFFFFFFFF AND PUSH20 0xFFFFFFFFFFFFFFFFFFFFFFFFFFFFFFFFFFFFFFFF AND PUSH4 0xD5A9BBDE DUP7 PUSH1 0x20 ADD MLOAD DUP7 PUSH1 0x20 ADD MLOAD PUSH1 0x40 MLOAD DUP4 PUSH4 0xFFFFFFFF AND PUSH1 0xE0 SHL DUP2 MSTORE PUSH1 0x4 ADD PUSH2 0xC23 SWAP3 SWAP2 SWAP1 PUSH2 0x1255 JUMP JUMPDEST PUSH1 0xC0 PUSH1 0x40 MLOAD DUP1 DUP4 SUB DUP2 DUP7 GAS STATICCALL ISZERO DUP1 ISZERO PUSH2 0xC40 JUMPI RETURNDATASIZE PUSH1 0x0 DUP1 RETURNDATACOPY RETURNDATASIZE PUSH1 0x0 REVERT JUMPDEST POP POP POP POP PUSH1 0x40 MLOAD RETURNDATASIZE PUSH1 0x1F NOT PUSH1 0x1F DUP3 ADD AND DUP3 ADD DUP1 PUSH1 0x40 MSTORE POP DUP2 ADD SWAP1 PUSH2 0xC64 SWAP2 SWAP1 PUSH2 0x1384 JUMP JUMPDEST PUSH2 0x5DD JUMP JUMPDEST SWAP1 POP SWAP3 SWAP2 POP POP JUMP JUMPDEST PUSH2 0xC79 PUSH2 0xDD1 JUMP JUMPDEST PUSH2 0xDC9 PUSH1 0x0 DUP1 SLOAD SWAP1 PUSH2 0x100 EXP SWAP1 DIV PUSH20 0xFFFFFFFFFFFFFFFFFFFFFFFFFFFFFFFFFFFFFFFF AND PUSH20 0xFFFFFFFFFFFFFFFFFFFFFFFFFFFFFFFFFFFFFFFF AND PUSH4 0xC4F7438E DUP6 PUSH1 0x0 ADD MLOAD DUP6 PUSH1 0x0 ADD MLOAD PUSH1 0x40 MLOAD DUP4 PUSH4 0xFFFFFFFF AND PUSH1 0xE0 SHL DUP2 MSTORE PUSH1 0x4 ADD PUSH2 0xCDF SWAP3 SWAP2 SWAP1 PUSH2 0x1255 JUMP JUMPDEST PUSH1 0xC0 PUSH1 0x40 MLOAD DUP1 DUP4 SUB DUP2 DUP7 GAS STATICCALL ISZERO DUP1 ISZERO PUSH2 0xCFC JUMPI RETURNDATASIZE PUSH1 0x0 DUP1 RETURNDATACOPY RETURNDATASIZE PUSH1 0x0 REVERT JUMPDEST POP POP POP POP PUSH1 0x40 MLOAD RETURNDATASIZE PUSH1 0x1F NOT PUSH1 0x1F DUP3 ADD AND DUP3 ADD DUP1 PUSH1 0x40 MSTORE POP DUP2 ADD SWAP1 PUSH2 0xD20 SWAP2 SWAP1 PUSH2 0x1384 JUMP JUMPDEST PUSH1 0x0 DUP1 SLOAD SWAP1 PUSH2 0x100 EXP SWAP1 DIV PUSH20 0xFFFFFFFFFFFFFFFFFFFFFFFFFFFFFFFFFFFFFFFF AND PUSH20 0xFFFFFFFFFFFFFFFFFFFFFFFFFFFFFFFFFFFFFFFF AND PUSH4 0xC4F7438E DUP7 PUSH1 0x20 ADD MLOAD DUP7 PUSH1 0x20 ADD MLOAD PUSH1 0x40 MLOAD DUP4 PUSH4 0xFFFFFFFF AND PUSH1 0xE0 SHL DUP2 MSTORE PUSH1 0x4 ADD PUSH2 0xD83 SWAP3 SWAP2 SWAP1 PUSH2 0x1255 JUMP JUMPDEST PUSH1 0xC0 PUSH1 0x40 MLOAD DUP1 DUP4 SUB DUP2 DUP7 GAS STATICCALL ISZERO DUP1 ISZERO PUSH2 0xDA0 JUMPI RETURNDATASIZE PUSH1 0x0 DUP1 RETURNDATACOPY RETURNDATASIZE PUSH1 0x0 REVERT JUMPDEST POP POP POP POP PUSH1 0x40 MLOAD RETURNDATASIZE PUSH1 0x1F NOT PUSH1 0x1F DUP3 ADD AND DUP3 ADD DUP1 PUSH1 0x40 MSTORE POP DUP2 ADD SWAP1 PUSH2 0xDC4 SWAP2 SWAP1 PUSH2 0x1384 JUMP JUMPDEST PUSH2 0x5DD JUMP JUMPDEST SWAP1 POP SWAP3 SWAP2 POP POP JUMP JUMPDEST PUSH1 0x40 MLOAD DUP1 PUSH1 0x40 ADD PUSH1 0x40 MSTORE DUP1 PUSH2 0xDE4 PUSH2 0xDF7 JUMP JUMPDEST DUP2 MSTORE PUSH1 0x20 ADD PUSH2 0xDF1 PUSH2 0xDF7 JUMP JUMPDEST DUP2 MSTORE POP SWAP1 JUMP JUMPDEST PUSH1 0x40 MLOAD DUP1 PUSH1 0x60 ADD PUSH1 0x40 MSTORE DUP1 PUSH2 0xE0A PUSH2 0xE2A JUMP JUMPDEST DUP2 MSTORE PUSH1 0x20 ADD PUSH2 0xE17 PUSH2 0xE2A JUMP JUMPDEST DUP2 MSTORE PUSH1 0x20 ADD PUSH2 0xE24 PUSH2 0xE2A JUMP JUMPDEST DUP2 MSTORE POP SWAP1 JUMP JUMPDEST PUSH1 0x40 MLOAD DUP1 PUSH1 0x40 ADD PUSH1 0x40 MSTORE DUP1 PUSH2 0xE3D PUSH2 0xE50 JUMP JUMPDEST DUP2 MSTORE PUSH1 0x20 ADD PUSH2 0xE4A PUSH2 0xE50 JUMP JUMPDEST DUP2 MSTORE POP SWAP1 JUMP JUMPDEST PUSH1 0x40 MLOAD DUP1 PUSH1 0x20 ADD PUSH1 0x40 MSTORE DUP1 PUSH1 0x0 DUP2 MSTORE POP SWAP1 JUMP JUMPDEST PUSH1 0x0 PUSH1 0x40 MLOAD SWAP1 POP SWAP1 JUMP JUMPDEST PUSH1 0x0 DUP1 REVERT JUMPDEST PUSH1 0x0 DUP1 REVERT JUMPDEST PUSH1 0x0 PUSH1 0x1F NOT PUSH1 0x1F DUP4 ADD AND SWAP1 POP SWAP2 SWAP1 POP JUMP JUMPDEST PUSH32 0x4E487B7100000000000000000000000000000000000000000000000000000000 PUSH1 0x0 MSTORE PUSH1 0x41 PUSH1 0x4 MSTORE PUSH1 0x24 PUSH1 0x0 REVERT JUMPDEST PUSH2 0xEC0 DUP3 PUSH2 0xE77 JUMP JUMPDEST DUP2 ADD DUP2 DUP2 LT PUSH8 0xFFFFFFFFFFFFFFFF DUP3 GT OR ISZERO PUSH2 0xEDF JUMPI PUSH2 0xEDE PUSH2 0xE88 JUMP JUMPDEST JUMPDEST DUP1 PUSH1 0x40 MSTORE POP POP POP JUMP JUMPDEST PUSH1 0x0 PUSH2 0xEF2 PUSH2 0xE63 JUMP JUMPDEST SWAP1 POP PUSH2 0xEFE DUP3 DUP3 PUSH2 0xEB7 JUMP JUMPDEST SWAP2 SWAP1 POP JUMP JUMPDEST PUSH1 0x0 DUP2 SWAP1 POP SWAP2 SWAP1 POP JUMP JUMPDEST PUSH2 0xF16 DUP2 PUSH2 0xF03 JUMP JUMPDEST DUP2 EQ PUSH2 0xF21 JUMPI PUSH1 0x0 DUP1 REVERT JUMPDEST POP JUMP JUMPDEST PUSH1 0x0 DUP2 CALLDATALOAD SWAP1 POP PUSH2 0xF33 DUP2 PUSH2 0xF0D JUMP JUMPDEST SWAP3 SWAP2 POP POP JUMP JUMPDEST PUSH1 0x0 PUSH1 0x20 DUP3 DUP5 SUB SLT ISZERO PUSH2 0xF4F JUMPI PUSH2 0xF4E PUSH2 0xE72 JUMP JUMPDEST JUMPDEST PUSH2 0xF59 PUSH1 0x20 PUSH2 0xEE8 JUMP JUMPDEST SWAP1 POP PUSH1 0x0 PUSH2 0xF69 DUP5 DUP3 DUP6 ADD PUSH2 0xF24 JUMP JUMPDEST PUSH1 0x0 DUP4 ADD MSTORE POP SWAP3 SWAP2 POP POP JUMP JUMPDEST PUSH1 0x0 PUSH1 0x40 DUP3 DUP5 SUB SLT ISZERO PUSH2 0xF8B JUMPI PUSH2 0xF8A PUSH2 0xE72 JUMP JUMPDEST JUMPDEST PUSH2 0xF95 PUSH1 0x40 PUSH2 0xEE8 JUMP JUMPDEST SWAP1 POP PUSH1 0x0 PUSH2 0xFA5 DUP5 DUP3 DUP6 ADD PUSH2 0xF39 JUMP JUMPDEST PUSH1 0x0 DUP4 ADD MSTORE POP PUSH1 0x20 PUSH2 0xFB9 DUP5 DUP3 DUP6 ADD PUSH2 0xF39 JUMP JUMPDEST PUSH1 0x20 DUP4 ADD MSTORE POP SWAP3 SWAP2 POP POP JUMP JUMPDEST PUSH1 0x0 PUSH1 0xC0 DUP3 DUP5 SUB SLT ISZERO PUSH2 0xFDB JUMPI PUSH2 0xFDA PUSH2 0xE72 JUMP JUMPDEST JUMPDEST PUSH2 0xFE5 PUSH1 0x60 PUSH2 0xEE8 JUMP JUMPDEST SWAP1 POP PUSH1 0x0 PUSH2 0xFF5 DUP5 DUP3 DUP6 ADD PUSH2 0xF75 JUMP JUMPDEST PUSH1 0x0 DUP4 ADD MSTORE POP PUSH1 0x40 PUSH2 0x1009 DUP5 DUP3 DUP6 ADD PUSH2 0xF75 JUMP JUMPDEST PUSH1 0x20 DUP4 ADD MSTORE POP PUSH1 0x80 PUSH2 0x101D DUP5 DUP3 DUP6 ADD PUSH2 0xF75 JUMP JUMPDEST PUSH1 0x40 DUP4 ADD MSTORE POP SWAP3 SWAP2 POP POP JUMP JUMPDEST PUSH1 0x0 PUSH2 0x180 DUP3 DUP5 SUB SLT ISZERO PUSH2 0x1040 JUMPI PUSH2 0x103F PUSH2 0xE72 JUMP JUMPDEST JUMPDEST PUSH2 0x104A PUSH1 0x40 PUSH2 0xEE8 JUMP JUMPDEST SWAP1 POP PUSH1 0x0 PUSH2 0x105A DUP5 DUP3 DUP6 ADD PUSH2 0xFC5 JUMP JUMPDEST PUSH1 0x0 DUP4 ADD MSTORE POP PUSH1 0xC0 PUSH2 0x106E DUP5 DUP3 DUP6 ADD PUSH2 0xFC5 JUMP JUMPDEST PUSH1 0x20 DUP4 ADD MSTORE POP SWAP3 SWAP2 POP POP JUMP JUMPDEST PUSH1 0x0 DUP1 PUSH2 0x300 DUP4 DUP6 SUB SLT ISZERO PUSH2 0x1092 JUMPI PUSH2 0x1091 PUSH2 0xE6D JUMP JUMPDEST JUMPDEST PUSH1 0x0 PUSH2 0x10A0 DUP6 DUP3 DUP7 ADD PUSH2 0x1029 JUMP JUMPDEST SWAP3 POP POP PUSH2 0x180 PUSH2 0x10B2 DUP6 DUP3 DUP7 ADD PUSH2 0x1029 JUMP JUMPDEST SWAP2 POP POP SWAP3 POP SWAP3 SWAP1 POP JUMP JUMPDEST PUSH2 0x10C5 DUP2 PUSH2 0xF03 JUMP JUMPDEST DUP3 MSTORE POP POP JUMP JUMPDEST PUSH1 0x20 DUP3 ADD PUSH1 0x0 DUP3 ADD MLOAD PUSH2 0x10E1 PUSH1 0x0 DUP6 ADD DUP3 PUSH2 0x10BC JUMP JUMPDEST POP POP POP POP JUMP JUMPDEST PUSH1 0x40 DUP3 ADD PUSH1 0x0 DUP3 ADD MLOAD PUSH2 0x10FD PUSH1 0x0 DUP6 ADD DUP3 PUSH2 0x10CB JUMP JUMPDEST POP PUSH1 0x20 DUP3 ADD MLOAD PUSH2 0x1110 PUSH1 0x20 DUP6 ADD DUP3 PUSH2 0x10CB JUMP JUMPDEST POP POP POP POP JUMP JUMPDEST PUSH1 0xC0 DUP3 ADD PUSH1 0x0 DUP3 ADD MLOAD PUSH2 0x112C PUSH1 0x0 DUP6 ADD DUP3 PUSH2 0x10E7 JUMP JUMPDEST POP PUSH1 0x20 DUP3 ADD MLOAD PUSH2 0x113F PUSH1 0x40 DUP6 ADD DUP3 PUSH2 0x10E7 JUMP JUMPDEST POP PUSH1 0x40 DUP3 ADD MLOAD PUSH2 0x1152 PUSH1 0x80 DUP6 ADD DUP3 PUSH2 0x10E7 JUMP JUMPDEST POP POP POP POP JUMP JUMPDEST PUSH2 0x180 DUP3 ADD PUSH1 0x0 DUP3 ADD MLOAD PUSH2 0x116F PUSH1 0x0 DUP6 ADD DUP3 PUSH2 0x1116 JUMP JUMPDEST POP PUSH1 0x20 DUP3 ADD MLOAD PUSH2 0x1182 PUSH1 0xC0 DUP6 ADD DUP3 PUSH2 0x1116 JUMP JUMPDEST POP POP POP POP JUMP JUMPDEST PUSH1 0x0 PUSH2 0x180 DUP3 ADD SWAP1 POP PUSH2 0x119E PUSH1 0x0 DUP4 ADD DUP5 PUSH2 0x1158 JUMP JUMPDEST SWAP3 SWAP2 POP POP JUMP JUMPDEST PUSH1 0x0 DUP1 PUSH2 0x180 DUP4 DUP6 SUB SLT ISZERO PUSH2 0x11BC JUMPI PUSH2 0x11BB PUSH2 0xE6D JUMP JUMPDEST JUMPDEST PUSH1 0x0 PUSH2 0x11CA DUP6 DUP3 DUP7 ADD PUSH2 0xFC5 JUMP JUMPDEST SWAP3 POP POP PUSH1 0xC0 PUSH2 0x11DB DUP6 DUP3 DUP7 ADD PUSH2 0xFC5 JUMP JUMPDEST SWAP2 POP POP SWAP3 POP SWAP3 SWAP1 POP JUMP JUMPDEST PUSH1 0x0 PUSH2 0x180 DUP3 DUP5 SUB SLT ISZERO PUSH2 0x11FC JUMPI PUSH2 0x11FB PUSH2 0xE6D JUMP JUMPDEST JUMPDEST PUSH1 0x0 PUSH2 0x120A DUP5 DUP3 DUP6 ADD PUSH2 0x1029 JUMP JUMPDEST SWAP2 POP POP SWAP3 SWAP2 POP POP JUMP JUMPDEST PUSH1 0xC0 DUP3 ADD PUSH1 0x0 DUP3 ADD MLOAD PUSH2 0x1229 PUSH1 0x0 DUP6 ADD DUP3 PUSH2 0x10E7 JUMP JUMPDEST POP PUSH1 0x20 DUP3 ADD MLOAD PUSH2 0x123C PUSH1 0x40 DUP6 ADD DUP3 PUSH2 0x10E7 JUMP JUMPDEST POP PUSH1 0x40 DUP3 ADD MLOAD PUSH2 0x124F PUSH1 0x80 DUP6 ADD DUP3 PUSH2 0x10E7 JUMP JUMPDEST POP POP POP POP JUMP JUMPDEST PUSH1 0x0 PUSH2 0x180 DUP3 ADD SWAP1 POP PUSH2 0x126B PUSH1 0x0 DUP4 ADD DUP6 PUSH2 0x1213 JUMP JUMPDEST PUSH2 0x1278 PUSH1 0xC0 DUP4 ADD DUP5 PUSH2 0x1213 JUMP JUMPDEST SWAP4 SWAP3 POP POP POP JUMP JUMPDEST PUSH1 0x0 DUP2 MLOAD SWAP1 POP PUSH2 0x128E DUP2 PUSH2 0xF0D JUMP JUMPDEST SWAP3 SWAP2 POP POP JUMP JUMPDEST PUSH1 0x0 PUSH1 0x20 DUP3 DUP5 SUB SLT ISZERO PUSH2 0x12AA JUMPI PUSH2 0x12A9 PUSH2 0xE72 JUMP JUMPDEST JUMPDEST PUSH2 0x12B4 PUSH1 0x20 PUSH2 0xEE8 JUMP JUMPDEST SWAP1 POP PUSH1 0x0 PUSH2 0x12C4 DUP5 DUP3 DUP6 ADD PUSH2 0x127F JUMP JUMPDEST PUSH1 0x0 DUP4 ADD MSTORE POP SWAP3 SWAP2 POP POP JUMP JUMPDEST PUSH1 0x0 PUSH1 0x40 DUP3 DUP5 SUB SLT ISZERO PUSH2 0x12E6 JUMPI PUSH2 0x12E5 PUSH2 0xE72 JUMP JUMPDEST JUMPDEST PUSH2 0x12F0 PUSH1 0x40 PUSH2 0xEE8 JUMP JUMPDEST SWAP1 POP PUSH1 0x0 PUSH2 0x1300 DUP5 DUP3 DUP6 ADD PUSH2 0x1294 JUMP JUMPDEST PUSH1 0x0 DUP4 ADD MSTORE POP PUSH1 0x20 PUSH2 0x1314 DUP5 DUP3 DUP6 ADD PUSH2 0x1294 JUMP JUMPDEST PUSH1 0x20 DUP4 ADD MSTORE POP SWAP3 SWAP2 POP POP JUMP JUMPDEST PUSH1 0x0 PUSH1 0xC0 DUP3 DUP5 SUB SLT ISZERO PUSH2 0x1336 JUMPI PUSH2 0x1335 PUSH2 0xE72 JUMP JUMPDEST JUMPDEST PUSH2 0x1340 PUSH1 0x60 PUSH2 0xEE8 JUMP JUMPDEST SWAP1 POP PUSH1 0x0 PUSH2 0x1350 DUP5 DUP3 DUP6 ADD PUSH2 0x12D0 JUMP JUMPDEST PUSH1 0x0 DUP4 ADD MSTORE POP PUSH1 0x40 PUSH2 0x1364 DUP5 DUP3 DUP6 ADD PUSH2 0x12D0 JUMP JUMPDEST PUSH1 0x20 DUP4 ADD MSTORE POP PUSH1 0x80 PUSH2 0x1378 DUP5 DUP3 DUP6 ADD PUSH2 0x12D0 JUMP JUMPDEST PUSH1 0x40 DUP4 ADD MSTORE POP SWAP3 SWAP2 POP POP JUMP JUMPDEST PUSH1 0x0 PUSH1 0xC0 DUP3 DUP5 SUB SLT ISZERO PUSH2 0x139A JUMPI PUSH2 0x1399 PUSH2 0xE6D JUMP JUMPDEST JUMPDEST PUSH1 0x0 PUSH2 0x13A8 DUP5 DUP3 DUP6 ADD PUSH2 0x1320 JUMP JUMPDEST SWAP2 POP POP SWAP3 SWAP2 POP POP JUMP JUMPDEST PUSH1 0x0 PUSH1 0xC0 DUP3 ADD SWAP1 POP PUSH2 0x13C6 PUSH1 0x0 DUP4 ADD DUP5 PUSH2 0x1213 JUMP JUMPDEST SWAP3 SWAP2 POP POP JUMP INVALID LOG2 PUSH5 0x6970667358 0x22 SLT KECCAK256 PUSH24 0xE25CE2CD805143CF968AB0A4FBCACEB83DB377A69F3C2E08 0xCD GAS JUMPI SWAP5 SDIV 0xE MUL PUSH5 0x736F6C6343 STOP ADDMOD SHL STOP CALLER "},"methodIdentifiers":{"createElement((((uint256),(uint256)),((uint256),(uint256)),((uint256),(uint256))),(((uint256),(uint256)),((uint256),(uint256)),((uint256),(uint256))))":"7212f8e4","inverse(((((uint256),(uint256)),((uint256),(uint256)),((uint256),(uint256))),(((uint256),(uint256)),((uint256),(uint256)),((uint256),(uint256)))))":"91a1dc78","mul(((((uint256),(uint256)),((uint256),(uint256)),((uint256),(uint256))),(((uint256),(uint256)),((uint256),(uint256)),((uint256),(uint256)))),((((uint256),(uint256)),((uint256),(uint256)),((uint256),(uint256))),(((uint256),(uint256)),((uint256),(uint256)),((uint256),(uint256)))))":"16946999","sub(((((uint256),(uint256)),((uint256),(uint256)),((uint256),(uint256))),(((uint256),(uint256)),((uint256),(uint256)),((uint256),(uint256)))),((((uint256),(uint256)),((uint256),(uint256)),((uint256),(uint256))),(((uint256),(uint256)),((uint256),(uint256)),((uint256),(uint256)))))":"a6fbfdb4","sum(((((uint256),(uint256)),((uint256),(uint256)),((uint256),(uint256))),(((uint256),(uint256)),((uint256),(uint256)),((uint256),(uint256)))),((((uint256),(uint256)),((uint256),(uint256)),((uint256),(uint256))),(((uint256),(uint256)),((uint256),(uint256)),((uint256),(uint256)))))":"9bf7f9d9"}}}}}