{"contracts/field/finiteField.sol":{"FiniteField":{"abi":[{"inputs":[{"internalType":"uint256","name":"prime","type":"uint256"}],"stateMutability":"nonpayable","type":"constructor"},{"inputs":[{"internalType":"uint256","name":"value","type":"uint256"}],"name":"createElement","outputs":[{"components":[{"internalType":"uint256","name":"value","type":"uint256"}],"internalType":"struct FiniteField.Zp","name":"","type":"tuple"}],"stateMutability":"view","type":"function"},{"inputs":[{"components":[{"internalType":"uint256","name":"value","type":"uint256"}],"internalType":"struct FiniteField.Zp","name":"a","type":"tuple"},{"components":[{"internalType":"uint256","name":"value","type":"uint256"}],"internalType":"struct FiniteField.Zp","name":"b","type":"tuple"}],"name":"div","outputs":[{"components":[{"internalType":"uint256","name":"value","type":"uint256"}],"internalType":"struct FiniteField.Zp","name":"","type":"tuple"}],"stateMutability":"view","type":"function"},{"inputs":[{"components":[{"internalType":"uint256","name":"value","type":"uint256"}],"internalType":"struct FiniteField.Zp","name":"a","type":"tuple"},{"components":[{"internalType":"uint256","name":"value","type":"uint256"}],"internalType":"struct FiniteField.Zp","name":"b","type":"tuple"}],"name":"equals","outputs":[{"internalType":"bool","name":"","type":"bool"}],"stateMutability":"pure","type":"function"},{"inputs":[{"internalType":"uint256","name":"base","type":"uint256"},{"internalType":"uint256","name":"exponent","type":"uint256"}],"name":"exp","outputs":[{"internalType":"uint256","name":"","type":"uint256"}],"stateMutability":"view","type":"function"},{"inputs":[{"components":[{"internalType":"uint256","name":"value","type":"uint256"}],"internalType":"struct FiniteField.Zp","name":"a","type":"tuple"}],"name":"inverse","outputs":[{"components":[{"internalType":"uint256","name":"value","type":"uint256"}],"internalType":"struct FiniteField.Zp","name":"","type":"tuple"}],"stateMutability":"view","type":"function"},{"inputs":[{"internalType":"uint256","name":"num","type":"uint256"}],"name":"isPrime","outputs":[{"internalType":"bool","name":"","type":"bool"}],"stateMutability":"pure","type":"function"},{"inputs":[{"components":[{"internalType":"uint256","name":"value","type":"uint256"}],"internalType":"struct FiniteField.Zp","name":"a","type":"tuple"},{"components":[{"internalType":"uint256","name":"value","type":"uint256"}],"internalType":"struct FiniteField.Zp","name":"b","type":"tuple"}],"name":"mul","outputs":[{"components":[{"internalType":"uint256","name":"value","type":"uint256"}],"internalType":"struct FiniteField.Zp","name":"","type":"tuple"}],"stateMutability":"view","type":"function"},{"inputs":[{"components":[{"internalType":"uint256","name":"value","type":"uint256"}],"internalType":"struct FiniteField.Zp","name":"a","type":"tuple"}],"name":"mul_nonres","outputs":[{"components":[{"internalType":"uint256","name":"value","type":"uint256"}],"internalType":"struct FiniteField.Zp","name":"","type":"tuple"}],"stateMutability":"pure","type":"function"},{"inputs":[],"name":"p","outputs":[{"internalType":"uint256","name":"","type":"uint256"}],"stateMutability":"view","type":"function"},{"inputs":[{"components":[{"internalType":"uint256","name":"value","type":"uint256"}],"internalType":"struct FiniteField.Zp","name":"a","type":"tuple"},{"components":[{"internalType":"uint256","name":"value","type":"uint256"}],"internalType":"struct FiniteField.Zp","name":"b","type":"tuple"}],"name":"sub","outputs":[{"components":[{"internalType":"uint256","name":"value","type":"uint256"}],"internalType":"struct FiniteField.Zp","name":"","type":"tuple"}],"stateMutability":"view","type":"function"},{"inputs":[{"components":[{"internalType":"uint256","name":"value","type":"uint256"}],"internalType":"struct FiniteField.Zp","name":"a","type":"tuple"},{"components":[{"internalType":"uint256","name":"value","type":"uint256"}],"internalType":"struct FiniteField.Zp","name":"b","type":"tuple"}],"name":"sum","outputs":[{"components":[{"internalType":"uint256","name":"value","type":"uint256"}],"internalType":"struct FiniteField.Zp","name":"","type":"tuple"}],"stateMutability":"view","type":"function"},{"inputs":[],"name":"zero","outputs":[{"components":[{"internalType":"uint256","name":"value","type":"uint256"}],"internalType":"struct FiniteField.Zp","name":"","type":"tuple"}],"stateMutability":"pure","type":"function"}],"evm":{"bytecode":{"linkReferences":{},"object":"608060405234801561001057600080fd5b50604051610d74380380610d7483398181016040528101906100329190610130565b6100418161008d60201b60201c565b610080576040517f08c379a0000000000000000000000000000000000000000000000000000000008152600401610077906101ba565b60405180910390fd5b80600081905550506102f3565b600060028210156100a157600090506100f0565b6000600290505b8281826100b59190610209565b116100ea57600081846100c8919061027a565b036100d75760009150506100f0565b80806100e2906102ab565b9150506100a8565b50600190505b919050565b600080fd5b6000819050919050565b61010d816100fa565b811461011857600080fd5b50565b60008151905061012a81610104565b92915050565b600060208284031215610146576101456100f5565b5b60006101548482850161011b565b91505092915050565b600082825260208201905092915050565b7f7020646576652065737365726520756e206e756d65726f207072696d6f2e0000600082015250565b60006101a4601e8361015d565b91506101af8261016e565b602082019050919050565b600060208201905081810360008301526101d381610197565b9050919050565b7f4e487b7100000000000000000000000000000000000000000000000000000000600052601160045260246000fd5b6000610214826100fa565b915061021f836100fa565b925082820261022d816100fa565b91508282048414831517610244576102436101da565b5b5092915050565b7f4e487b7100000000000000000000000000000000000000000000000000000000600052601260045260246000fd5b6000610285826100fa565b9150610290836100fa565b9250826102a05761029f61024b565b5b828206905092915050565b60006102b6826100fa565b91507fffffffffffffffffffffffffffffffffffffffffffffffffffffffffffffffff82036102e8576102e76101da565b5b600182019050919050565b610a72806103026000396000f3fe608060405234801561001057600080fd5b50600436106100b45760003560e01c8063bc1b392d11610071578063bc1b392d146101c7578063c4524947146101e5578063c870cbda14610215578063d629f52814610245578063f5f565f814610275578063f6509dd6146102a5576100b4565b806342703494146100b95780639ae8886a146100e9578063a253aeee14610107578063aa28c5be14610137578063b0df7c1d14610167578063b2eb1a5a14610197575b600080fd5b6100d360048036038101906100ce91906105f1565b6102d5565b6040516100e09190610639565b60405180910390f35b6100f161033d565b6040516100fe9190610663565b60405180910390f35b610121600480360381019061011c919061074b565b610343565b60405161012e91906107b6565b60405180910390f35b610151600480360381019061014c91906107d1565b610377565b60405161015e91906107b6565b60405180910390f35b610181600480360381019061017c919061074b565b610387565b60405161018e91906107b6565b60405180910390f35b6101b160048036038101906101ac919061074b565b6103a9565b6040516101be91906107b6565b60405180910390f35b6101cf6103dd565b6040516101dc91906107b6565b60405180910390f35b6101ff60048036038101906101fa91906105f1565b6103fa565b60405161020c91906107b6565b60405180910390f35b61022f600480360381019061022a919061074b565b610425565b60405161023c91906107b6565b60405180910390f35b61025f600480360381019061025a919061074b565b61048e565b60405161026c9190610639565b60405180910390f35b61028f600480360381019061028a91906107fe565b6104a3565b60405161029c9190610663565b60405180910390f35b6102bf60048036038101906102ba91906107d1565b610519565b6040516102cc91906107b6565b60405180910390f35b600060028210156102e95760009050610338565b6000600290505b8281826102fd919061086d565b11610332576000818461031091906108de565b0361031f576000915050610338565b808061032a9061090f565b9150506102f0565b50600190505b919050565b60005481565b61034b610599565b61036f6000548061035f5761035e6108af565b5b83600001518560000151086103fa565b905092915050565b61037f610599565b819050919050565b61038f610599565b6103a18361039c84610519565b6103a9565b905092915050565b6103b1610599565b6103d5600054806103c5576103c46108af565b5b83600001518560000151096103fa565b905092915050565b6103e5610599565b60405180602001604052806000815250905090565b610402610599565b60405180602001604052806000548461041b91906108de565b8152509050919050565b61042d610599565b600082600001518460000151101561046557826000015184600001516000546104569190610957565b610460919061098b565b61047a565b82600001518460000151610479919061098b565b5b9050610485816103fa565b91505092915050565b60008160000151836000015114905092915050565b6000806001905060008054856104b991906108de565b905060008490505b600081111561050d576001808216036104eb57600054806104e5576104e46108af565b5b82840992505b600054806104fc576104fb6108af565b5b8283099150600181901c90506104c1565b82935050505092915050565b610521610599565b6000826000015103610568576040517f08c379a000000000000000000000000000000000000000000000000000000000815260040161055f90610a1c565b60405180910390fd5b600061058683600001516002600054610581919061098b565b6104a3565b9050610591816103fa565b915050919050565b6040518060200160405280600081525090565b6000604051905090565b600080fd5b6000819050919050565b6105ce816105bb565b81146105d957600080fd5b50565b6000813590506105eb816105c5565b92915050565b600060208284031215610607576106066105b6565b5b6000610615848285016105dc565b91505092915050565b60008115159050919050565b6106338161061e565b82525050565b600060208201905061064e600083018461062a565b92915050565b61065d816105bb565b82525050565b60006020820190506106786000830184610654565b92915050565b600080fd5b6000601f19601f8301169050919050565b7f4e487b7100000000000000000000000000000000000000000000000000000000600052604160045260246000fd5b6106cc82610683565b810181811067ffffffffffffffff821117156106eb576106ea610694565b5b80604052505050565b60006106fe6105ac565b905061070a82826106c3565b919050565b6000602082840312156107255761072461067e565b5b61072f60206106f4565b9050600061073f848285016105dc565b60008301525092915050565b60008060408385031215610762576107616105b6565b5b60006107708582860161070f565b92505060206107818582860161070f565b9150509250929050565b610794816105bb565b82525050565b6020820160008201516107b0600085018261078b565b50505050565b60006020820190506107cb600083018461079a565b92915050565b6000602082840312156107e7576107e66105b6565b5b60006107f58482850161070f565b91505092915050565b60008060408385031215610815576108146105b6565b5b6000610823858286016105dc565b9250506020610834858286016105dc565b9150509250929050565b7f4e487b7100000000000000000000000000000000000000000000000000000000600052601160045260246000fd5b6000610878826105bb565b9150610883836105bb565b9250828202610891816105bb565b915082820484148315176108a8576108a761083e565b5b5092915050565b7f4e487b7100000000000000000000000000000000000000000000000000000000600052601260045260246000fd5b60006108e9826105bb565b91506108f4836105bb565b925082610904576109036108af565b5b828206905092915050565b600061091a826105bb565b91507fffffffffffffffffffffffffffffffffffffffffffffffffffffffffffffffff820361094c5761094b61083e565b5b600182019050919050565b6000610962826105bb565b915061096d836105bb565b92508282019050808211156109855761098461083e565b5b92915050565b6000610996826105bb565b91506109a1836105bb565b92508282039050818111156109b9576109b861083e565b5b92915050565b600082825260208201905092915050565b7f4469766973696f6e6520706572207a65726f206e6f6e207065726d657373612e600082015250565b6000610a066020836109bf565b9150610a11826109d0565b602082019050919050565b60006020820190508181036000830152610a35816109f9565b905091905056fea264697066735822122055fc2bed4071feba6e88fb1b4beb15b0eb659907623269d7fd91128e2ecd362064736f6c634300081b0033","opcodes":"PUSH1 0x80 PUSH1 0x40 MSTORE CALLVALUE DUP1 ISZERO PUSH2 0x10 JUMPI PUSH1 0x0 DUP1 REVERT JUMPDEST POP PUSH1 0x40 MLOAD PUSH2 0xD74 CODESIZE SUB DUP1 PUSH2 0xD74 DUP4 CODECOPY DUP2 DUP2 ADD PUSH1 0x40 MSTORE DUP2 ADD SWAP1 PUSH2 0x32 SWAP2 SWAP1 PUSH2 0x130 JUMP JUMPDEST PUSH2 0x41 DUP2 PUSH2 0x8D PUSH1 0x20 SHL PUSH1 0x20 SHR JUMP JUMPDEST PUSH2 0x80 JUMPI PUSH1 0x40 MLOAD PUSH32 0x8C379A000000000000000000000000000000000000000000000000000000000 DUP2 MSTORE PUSH1 0x4 ADD PUSH2 0x77 SWAP1 PUSH2 0x1BA JUMP JUMPDEST PUSH1 0x40 MLOAD DUP1 SWAP2 SUB SWAP1 REVERT JUMPDEST DUP1 PUSH1 0x0 DUP2 SWAP1 SSTORE POP POP PUSH2 0x2F3 JUMP JUMPDEST PUSH1 0x0 PUSH1 0x2 DUP3 LT ISZERO PUSH2 0xA1 JUMPI PUSH1 0x0 SWAP1 POP PUSH2 0xF0 JUMP JUMPDEST PUSH1 0x0 PUSH1 0x2 SWAP1 POP JUMPDEST DUP3 DUP2 DUP3 PUSH2 0xB5 SWAP2 SWAP1 PUSH2 0x209 JUMP JUMPDEST GT PUSH2 0xEA JUMPI PUSH1 0x0 DUP2 DUP5 PUSH2 0xC8 SWAP2 SWAP1 PUSH2 0x27A JUMP JUMPDEST SUB PUSH2 0xD7 JUMPI PUSH1 0x0 SWAP2 POP POP PUSH2 0xF0 JUMP JUMPDEST DUP1 DUP1 PUSH2 0xE2 SWAP1 PUSH2 0x2AB JUMP JUMPDEST SWAP2 POP POP PUSH2 0xA8 JUMP JUMPDEST POP PUSH1 0x1 SWAP1 POP JUMPDEST SWAP2 SWAP1 POP JUMP JUMPDEST PUSH1 0x0 DUP1 REVERT JUMPDEST PUSH1 0x0 DUP2 SWAP1 POP SWAP2 SWAP1 POP JUMP JUMPDEST PUSH2 0x10D DUP2 PUSH2 0xFA JUMP JUMPDEST DUP2 EQ PUSH2 0x118 JUMPI PUSH1 0x0 DUP1 REVERT JUMPDEST POP JUMP JUMPDEST PUSH1 0x0 DUP2 MLOAD SWAP1 POP PUSH2 0x12A DUP2 PUSH2 0x104 JUMP JUMPDEST SWAP3 SWAP2 POP POP JUMP JUMPDEST PUSH1 0x0 PUSH1 0x20 DUP3 DUP5 SUB SLT ISZERO PUSH2 0x146 JUMPI PUSH2 0x145 PUSH2 0xF5 JUMP JUMPDEST JUMPDEST PUSH1 0x0 PUSH2 0x154 DUP5 DUP3 DUP6 ADD PUSH2 0x11B JUMP JUMPDEST SWAP2 POP POP SWAP3 SWAP2 POP POP JUMP JUMPDEST PUSH1 0x0 DUP3 DUP3 MSTORE PUSH1 0x20 DUP3 ADD SWAP1 POP SWAP3 SWAP2 POP POP JUMP JUMPDEST PUSH32 0x7020646576652065737365726520756E206E756D65726F207072696D6F2E0000 PUSH1 0x0 DUP3 ADD MSTORE POP JUMP JUMPDEST PUSH1 0x0 PUSH2 0x1A4 PUSH1 0x1E DUP4 PUSH2 0x15D JUMP JUMPDEST SWAP2 POP PUSH2 0x1AF DUP3 PUSH2 0x16E JUMP JUMPDEST PUSH1 0x20 DUP3 ADD SWAP1 POP SWAP2 SWAP1 POP JUMP JUMPDEST PUSH1 0x0 PUSH1 0x20 DUP3 ADD SWAP1 POP DUP2 DUP2 SUB PUSH1 0x0 DUP4 ADD MSTORE PUSH2 0x1D3 DUP2 PUSH2 0x197 JUMP JUMPDEST SWAP1 POP SWAP2 SWAP1 POP JUMP JUMPDEST PUSH32 0x4E487B7100000000000000000000000000000000000000000000000000000000 PUSH1 0x0 MSTORE PUSH1 0x11 PUSH1 0x4 MSTORE PUSH1 0x24 PUSH1 0x0 REVERT JUMPDEST PUSH1 0x0 PUSH2 0x214 DUP3 PUSH2 0xFA JUMP JUMPDEST SWAP2 POP PUSH2 0x21F DUP4 PUSH2 0xFA JUMP JUMPDEST SWAP3 POP DUP3 DUP3 MUL PUSH2 0x22D DUP2 PUSH2 0xFA JUMP JUMPDEST SWAP2 POP DUP3 DUP3 DIV DUP5 EQ DUP4 ISZERO OR PUSH2 0x244 JUMPI PUSH2 0x243 PUSH2 0x1DA JUMP JUMPDEST JUMPDEST POP SWAP3 SWAP2 POP POP JUMP JUMPDEST PUSH32 0x4E487B7100000000000000000000000000000000000000000000000000000000 PUSH1 0x0 MSTORE PUSH1 0x12 PUSH1 0x4 MSTORE PUSH1 0x24 PUSH1 0x0 REVERT JUMPDEST PUSH1 0x0 PUSH2 0x285 DUP3 PUSH2 0xFA JUMP JUMPDEST SWAP2 POP PUSH2 0x290 DUP4 PUSH2 0xFA JUMP JUMPDEST SWAP3 POP DUP3 PUSH2 0x2A0 JUMPI PUSH2 0x29F PUSH2 0x24B JUMP JUMPDEST JUMPDEST DUP3 DUP3 MOD SWAP1 POP SWAP3 SWAP2 POP POP JUMP JUMPDEST PUSH1 0x0 PUSH2 0x2B6 DUP3 PUSH2 0xFA JUMP JUMPDEST SWAP2 POP PUSH32 0xFFFFFFFFFFFFFFFFFFFFFFFFFFFFFFFFFFFFFFFFFFFFFFFFFFFFFFFFFFFFFFFF DUP3 SUB PUSH2 0x2E8 JUMPI PUSH2 0x2E7 PUSH2 0x1DA JUMP JUMPDEST JUMPDEST PUSH1 0x1 DUP3 ADD SWAP1 POP SWAP2 SWAP1 POP JUMP JUMPDEST PUSH2 0xA72 DUP1 PUSH2 0x302 PUSH1 0x0 CODECOPY PUSH1 0x0 RETURN INVALID PUSH1 0x80 PUSH1 0x40 MSTORE CALLVALUE DUP1 ISZERO PUSH2 0x10 JUMPI PUSH1 0x0 DUP1 REVERT JUMPDEST POP PUSH1 0x4 CALLDATASIZE LT PUSH2 0xB4 JUMPI PUSH1 0x0 CALLDATALOAD PUSH1 0xE0 SHR DUP1 PUSH4 0xBC1B392D GT PUSH2 0x71 JUMPI DUP1 PUSH4 0xBC1B392D EQ PUSH2 0x1C7 JUMPI DUP1 PUSH4 0xC4524947 EQ PUSH2 0x1E5 JUMPI DUP1 PUSH4 0xC870CBDA EQ PUSH2 0x215 JUMPI DUP1 PUSH4 0xD629F528 EQ PUSH2 0x245 JUMPI DUP1 PUSH4 0xF5F565F8 EQ PUSH2 0x275 JUMPI DUP1 PUSH4 0xF6509DD6 EQ PUSH2 0x2A5 JUMPI PUSH2 0xB4 JUMP JUMPDEST DUP1 PUSH4 0x42703494 EQ PUSH2 0xB9 JUMPI DUP1 PUSH4 0x9AE8886A EQ PUSH2 0xE9 JUMPI DUP1 PUSH4 0xA253AEEE EQ PUSH2 0x107 JUMPI DUP1 PUSH4 0xAA28C5BE EQ PUSH2 0x137 JUMPI DUP1 PUSH4 0xB0DF7C1D EQ PUSH2 0x167 JUMPI DUP1 PUSH4 0xB2EB1A5A EQ PUSH2 0x197 JUMPI JUMPDEST PUSH1 0x0 DUP1 REVERT JUMPDEST PUSH2 0xD3 PUSH1 0x4 DUP1 CALLDATASIZE SUB DUP2 ADD SWAP1 PUSH2 0xCE SWAP2 SWAP1 PUSH2 0x5F1 JUMP JUMPDEST PUSH2 0x2D5 JUMP JUMPDEST PUSH1 0x40 MLOAD PUSH2 0xE0 SWAP2 SWAP1 PUSH2 0x639 JUMP JUMPDEST PUSH1 0x40 MLOAD DUP1 SWAP2 SUB SWAP1 RETURN JUMPDEST PUSH2 0xF1 PUSH2 0x33D JUMP JUMPDEST PUSH1 0x40 MLOAD PUSH2 0xFE SWAP2 SWAP1 PUSH2 0x663 JUMP JUMPDEST PUSH1 0x40 MLOAD DUP1 SWAP2 SUB SWAP1 RETURN JUMPDEST PUSH2 0x121 PUSH1 0x4 DUP1 CALLDATASIZE SUB DUP2 ADD SWAP1 PUSH2 0x11C SWAP2 SWAP1 PUSH2 0x74B JUMP JUMPDEST PUSH2 0x343 JUMP JUMPDEST PUSH1 0x40 MLOAD PUSH2 0x12E SWAP2 SWAP1 PUSH2 0x7B6 JUMP JUMPDEST PUSH1 0x40 MLOAD DUP1 SWAP2 SUB SWAP1 RETURN JUMPDEST PUSH2 0x151 PUSH1 0x4 DUP1 CALLDATASIZE SUB DUP2 ADD SWAP1 PUSH2 0x14C SWAP2 SWAP1 PUSH2 0x7D1 JUMP JUMPDEST PUSH2 0x377 JUMP JUMPDEST PUSH1 0x40 MLOAD PUSH2 0x15E SWAP2 SWAP1 PUSH2 0x7B6 JUMP JUMPDEST PUSH1 0x40 MLOAD DUP1 SWAP2 SUB SWAP1 RETURN JUMPDEST PUSH2 0x181 PUSH1 0x4 DUP1 CALLDATASIZE SUB DUP2 ADD SWAP1 PUSH2 0x17C SWAP2 SWAP1 PUSH2 0x74B JUMP JUMPDEST PUSH2 0x387 JUMP JUMPDEST PUSH1 0x40 MLOAD PUSH2 0x18E SWAP2 SWAP1 PUSH2 0x7B6 JUMP JUMPDEST PUSH1 0x40 MLOAD DUP1 SWAP2 SUB SWAP1 RETURN JUMPDEST PUSH2 0x1B1 PUSH1 0x4 DUP1 CALLDATASIZE SUB DUP2 ADD SWAP1 PUSH2 0x1AC SWAP2 SWAP1 PUSH2 0x74B JUMP JUMPDEST PUSH2 0x3A9 JUMP JUMPDEST PUSH1 0x40 MLOAD PUSH2 0x1BE SWAP2 SWAP1 PUSH2 0x7B6 JUMP JUMPDEST PUSH1 0x40 MLOAD DUP1 SWAP2 SUB SWAP1 RETURN JUMPDEST PUSH2 0x1CF PUSH2 0x3DD JUMP JUMPDEST PUSH1 0x40 MLOAD PUSH2 0x1DC SWAP2 SWAP1 PUSH2 0x7B6 JUMP JUMPDEST PUSH1 0x40 MLOAD DUP1 SWAP2 SUB SWAP1 RETURN JUMPDEST PUSH2 0x1FF PUSH1 0x4 DUP1 CALLDATASIZE SUB DUP2 ADD SWAP1 PUSH2 0x1FA SWAP2 SWAP1 PUSH2 0x5F1 JUMP JUMPDEST PUSH2 0x3FA JUMP JUMPDEST PUSH1 0x40 MLOAD PUSH2 0x20C SWAP2 SWAP1 PUSH2 0x7B6 JUMP JUMPDEST PUSH1 0x40 MLOAD DUP1 SWAP2 SUB SWAP1 RETURN JUMPDEST PUSH2 0x22F PUSH1 0x4 DUP1 CALLDATASIZE SUB DUP2 ADD SWAP1 PUSH2 0x22A SWAP2 SWAP1 PUSH2 0x74B JUMP JUMPDEST PUSH2 0x425 JUMP JUMPDEST PUSH1 0x40 MLOAD PUSH2 0x23C SWAP2 SWAP1 PUSH2 0x7B6 JUMP JUMPDEST PUSH1 0x40 MLOAD DUP1 SWAP2 SUB SWAP1 RETURN JUMPDEST PUSH2 0x25F PUSH1 0x4 DUP1 CALLDATASIZE SUB DUP2 ADD SWAP1 PUSH2 0x25A SWAP2 SWAP1 PUSH2 0x74B JUMP JUMPDEST PUSH2 0x48E JUMP JUMPDEST PUSH1 0x40 MLOAD PUSH2 0x26C SWAP2 SWAP1 PUSH2 0x639 JUMP JUMPDEST PUSH1 0x40 MLOAD DUP1 SWAP2 SUB SWAP1 RETURN JUMPDEST PUSH2 0x28F PUSH1 0x4 DUP1 CALLDATASIZE SUB DUP2 ADD SWAP1 PUSH2 0x28A SWAP2 SWAP1 PUSH2 0x7FE JUMP JUMPDEST PUSH2 0x4A3 JUMP JUMPDEST PUSH1 0x40 MLOAD PUSH2 0x29C SWAP2 SWAP1 PUSH2 0x663 JUMP JUMPDEST PUSH1 0x40 MLOAD DUP1 SWAP2 SUB SWAP1 RETURN JUMPDEST PUSH2 0x2BF PUSH1 0x4 DUP1 CALLDATASIZE SUB DUP2 ADD SWAP1 PUSH2 0x2BA SWAP2 SWAP1 PUSH2 0x7D1 JUMP JUMPDEST PUSH2 0x519 JUMP JUMPDEST PUSH1 0x40 MLOAD PUSH2 0x2CC SWAP2 SWAP1 PUSH2 0x7B6 JUMP JUMPDEST PUSH1 0x40 MLOAD DUP1 SWAP2 SUB SWAP1 RETURN JUMPDEST PUSH1 0x0 PUSH1 0x2 DUP3 LT ISZERO PUSH2 0x2E9 JUMPI PUSH1 0x0 SWAP1 POP PUSH2 0x338 JUMP JUMPDEST PUSH1 0x0 PUSH1 0x2 SWAP1 POP JUMPDEST DUP3 DUP2 DUP3 PUSH2 0x2FD SWAP2 SWAP1 PUSH2 0x86D JUMP JUMPDEST GT PUSH2 0x332 JUMPI PUSH1 0x0 DUP2 DUP5 PUSH2 0x310 SWAP2 SWAP1 PUSH2 0x8DE JUMP JUMPDEST SUB PUSH2 0x31F JUMPI PUSH1 0x0 SWAP2 POP POP PUSH2 0x338 JUMP JUMPDEST DUP1 DUP1 PUSH2 0x32A SWAP1 PUSH2 0x90F JUMP JUMPDEST SWAP2 POP POP PUSH2 0x2F0 JUMP JUMPDEST POP PUSH1 0x1 SWAP1 POP JUMPDEST SWAP2 SWAP1 POP JUMP JUMPDEST PUSH1 0x0 SLOAD DUP2 JUMP JUMPDEST PUSH2 0x34B PUSH2 0x599 JUMP JUMPDEST PUSH2 0x36F PUSH1 0x0 SLOAD DUP1 PUSH2 0x35F JUMPI PUSH2 0x35E PUSH2 0x8AF JUMP JUMPDEST JUMPDEST DUP4 PUSH1 0x0 ADD MLOAD DUP6 PUSH1 0x0 ADD MLOAD ADDMOD PUSH2 0x3FA JUMP JUMPDEST SWAP1 POP SWAP3 SWAP2 POP POP JUMP JUMPDEST PUSH2 0x37F PUSH2 0x599 JUMP JUMPDEST DUP2 SWAP1 POP SWAP2 SWAP1 POP JUMP JUMPDEST PUSH2 0x38F PUSH2 0x599 JUMP JUMPDEST PUSH2 0x3A1 DUP4 PUSH2 0x39C DUP5 PUSH2 0x519 JUMP JUMPDEST PUSH2 0x3A9 JUMP JUMPDEST SWAP1 POP SWAP3 SWAP2 POP POP JUMP JUMPDEST PUSH2 0x3B1 PUSH2 0x599 JUMP JUMPDEST PUSH2 0x3D5 PUSH1 0x0 SLOAD DUP1 PUSH2 0x3C5 JUMPI PUSH2 0x3C4 PUSH2 0x8AF JUMP JUMPDEST JUMPDEST DUP4 PUSH1 0x0 ADD MLOAD DUP6 PUSH1 0x0 ADD MLOAD MULMOD PUSH2 0x3FA JUMP JUMPDEST SWAP1 POP SWAP3 SWAP2 POP POP JUMP JUMPDEST PUSH2 0x3E5 PUSH2 0x599 JUMP JUMPDEST PUSH1 0x40 MLOAD DUP1 PUSH1 0x20 ADD PUSH1 0x40 MSTORE DUP1 PUSH1 0x0 DUP2 MSTORE POP SWAP1 POP SWAP1 JUMP JUMPDEST PUSH2 0x402 PUSH2 0x599 JUMP JUMPDEST PUSH1 0x40 MLOAD DUP1 PUSH1 0x20 ADD PUSH1 0x40 MSTORE DUP1 PUSH1 0x0 SLOAD DUP5 PUSH2 0x41B SWAP2 SWAP1 PUSH2 0x8DE JUMP JUMPDEST DUP2 MSTORE POP SWAP1 POP SWAP2 SWAP1 POP JUMP JUMPDEST PUSH2 0x42D PUSH2 0x599 JUMP JUMPDEST PUSH1 0x0 DUP3 PUSH1 0x0 ADD MLOAD DUP5 PUSH1 0x0 ADD MLOAD LT ISZERO PUSH2 0x465 JUMPI DUP3 PUSH1 0x0 ADD MLOAD DUP5 PUSH1 0x0 ADD MLOAD PUSH1 0x0 SLOAD PUSH2 0x456 SWAP2 SWAP1 PUSH2 0x957 JUMP JUMPDEST PUSH2 0x460 SWAP2 SWAP1 PUSH2 0x98B JUMP JUMPDEST PUSH2 0x47A JUMP JUMPDEST DUP3 PUSH1 0x0 ADD MLOAD DUP5 PUSH1 0x0 ADD MLOAD PUSH2 0x479 SWAP2 SWAP1 PUSH2 0x98B JUMP JUMPDEST JUMPDEST SWAP1 POP PUSH2 0x485 DUP2 PUSH2 0x3FA JUMP JUMPDEST SWAP2 POP POP SWAP3 SWAP2 POP POP JUMP JUMPDEST PUSH1 0x0 DUP2 PUSH1 0x0 ADD MLOAD DUP4 PUSH1 0x0 ADD MLOAD EQ SWAP1 POP SWAP3 SWAP2 POP POP JUMP JUMPDEST PUSH1 0x0 DUP1 PUSH1 0x1 SWAP1 POP PUSH1 0x0 DUP1 SLOAD DUP6 PUSH2 0x4B9 SWAP2 SWAP1 PUSH2 0x8DE JUMP JUMPDEST SWAP1 POP PUSH1 0x0 DUP5 SWAP1 POP JUMPDEST PUSH1 0x0 DUP2 GT ISZERO PUSH2 0x50D JUMPI PUSH1 0x1 DUP1 DUP3 AND SUB PUSH2 0x4EB JUMPI PUSH1 0x0 SLOAD DUP1 PUSH2 0x4E5 JUMPI PUSH2 0x4E4 PUSH2 0x8AF JUMP JUMPDEST JUMPDEST DUP3 DUP5 MULMOD SWAP3 POP JUMPDEST PUSH1 0x0 SLOAD DUP1 PUSH2 0x4FC JUMPI PUSH2 0x4FB PUSH2 0x8AF JUMP JUMPDEST JUMPDEST DUP3 DUP4 MULMOD SWAP2 POP PUSH1 0x1 DUP2 SWAP1 SHR SWAP1 POP PUSH2 0x4C1 JUMP JUMPDEST DUP3 SWAP4 POP POP POP POP SWAP3 SWAP2 POP POP JUMP JUMPDEST PUSH2 0x521 PUSH2 0x599 JUMP JUMPDEST PUSH1 0x0 DUP3 PUSH1 0x0 ADD MLOAD SUB PUSH2 0x568 JUMPI PUSH1 0x40 MLOAD PUSH32 0x8C379A000000000000000000000000000000000000000000000000000000000 DUP2 MSTORE PUSH1 0x4 ADD PUSH2 0x55F SWAP1 PUSH2 0xA1C JUMP JUMPDEST PUSH1 0x40 MLOAD DUP1 SWAP2 SUB SWAP1 REVERT JUMPDEST PUSH1 0x0 PUSH2 0x586 DUP4 PUSH1 0x0 ADD MLOAD PUSH1 0x2 PUSH1 0x0 SLOAD PUSH2 0x581 SWAP2 SWAP1 PUSH2 0x98B JUMP JUMPDEST PUSH2 0x4A3 JUMP JUMPDEST SWAP1 POP PUSH2 0x591 DUP2 PUSH2 0x3FA JUMP JUMPDEST SWAP2 POP POP SWAP2 SWAP1 POP JUMP JUMPDEST PUSH1 0x40 MLOAD DUP1 PUSH1 0x20 ADD PUSH1 0x40 MSTORE DUP1 PUSH1 0x0 DUP2 MSTORE POP SWAP1 JUMP JUMPDEST PUSH1 0x0 PUSH1 0x40 MLOAD SWAP1 POP SWAP1 JUMP JUMPDEST PUSH1 0x0 DUP1 REVERT JUMPDEST PUSH1 0x0 DUP2 SWAP1 POP SWAP2 SWAP1 POP JUMP JUMPDEST PUSH2 0x5CE DUP2 PUSH2 0x5BB JUMP JUMPDEST DUP2 EQ PUSH2 0x5D9 JUMPI PUSH1 0x0 DUP1 REVERT JUMPDEST POP JUMP JUMPDEST PUSH1 0x0 DUP2 CALLDATALOAD SWAP1 POP PUSH2 0x5EB DUP2 PUSH2 0x5C5 JUMP JUMPDEST SWAP3 SWAP2 POP POP JUMP JUMPDEST PUSH1 0x0 PUSH1 0x20 DUP3 DUP5 SUB SLT ISZERO PUSH2 0x607 JUMPI PUSH2 0x606 PUSH2 0x5B6 JUMP JUMPDEST JUMPDEST PUSH1 0x0 PUSH2 0x615 DUP5 DUP3 DUP6 ADD PUSH2 0x5DC JUMP JUMPDEST SWAP2 POP POP SWAP3 SWAP2 POP POP JUMP JUMPDEST PUSH1 0x0 DUP2 ISZERO ISZERO SWAP1 POP SWAP2 SWAP1 POP JUMP JUMPDEST PUSH2 0x633 DUP2 PUSH2 0x61E JUMP JUMPDEST DUP3 MSTORE POP POP JUMP JUMPDEST PUSH1 0x0 PUSH1 0x20 DUP3 ADD SWAP1 POP PUSH2 0x64E PUSH1 0x0 DUP4 ADD DUP5 PUSH2 0x62A JUMP JUMPDEST SWAP3 SWAP2 POP POP JUMP JUMPDEST PUSH2 0x65D DUP2 PUSH2 0x5BB JUMP JUMPDEST DUP3 MSTORE POP POP JUMP JUMPDEST PUSH1 0x0 PUSH1 0x20 DUP3 ADD SWAP1 POP PUSH2 0x678 PUSH1 0x0 DUP4 ADD DUP5 PUSH2 0x654 JUMP JUMPDEST SWAP3 SWAP2 POP POP JUMP JUMPDEST PUSH1 0x0 DUP1 REVERT JUMPDEST PUSH1 0x0 PUSH1 0x1F NOT PUSH1 0x1F DUP4 ADD AND SWAP1 POP SWAP2 SWAP1 POP JUMP JUMPDEST PUSH32 0x4E487B7100000000000000000000000000000000000000000000000000000000 PUSH1 0x0 MSTORE PUSH1 0x41 PUSH1 0x4 MSTORE PUSH1 0x24 PUSH1 0x0 REVERT JUMPDEST PUSH2 0x6CC DUP3 PUSH2 0x683 JUMP JUMPDEST DUP2 ADD DUP2 DUP2 LT PUSH8 0xFFFFFFFFFFFFFFFF DUP3 GT OR ISZERO PUSH2 0x6EB JUMPI PUSH2 0x6EA PUSH2 0x694 JUMP JUMPDEST JUMPDEST DUP1 PUSH1 0x40 MSTORE POP POP POP JUMP JUMPDEST PUSH1 0x0 PUSH2 0x6FE PUSH2 0x5AC JUMP JUMPDEST SWAP1 POP PUSH2 0x70A DUP3 DUP3 PUSH2 0x6C3 JUMP JUMPDEST SWAP2 SWAP1 POP JUMP JUMPDEST PUSH1 0x0 PUSH1 0x20 DUP3 DUP5 SUB SLT ISZERO PUSH2 0x725 JUMPI PUSH2 0x724 PUSH2 0x67E JUMP JUMPDEST JUMPDEST PUSH2 0x72F PUSH1 0x20 PUSH2 0x6F4 JUMP JUMPDEST SWAP1 POP PUSH1 0x0 PUSH2 0x73F DUP5 DUP3 DUP6 ADD PUSH2 0x5DC JUMP JUMPDEST PUSH1 0x0 DUP4 ADD MSTORE POP SWAP3 SWAP2 POP POP JUMP JUMPDEST PUSH1 0x0 DUP1 PUSH1 0x40 DUP4 DUP6 SUB SLT ISZERO PUSH2 0x762 JUMPI PUSH2 0x761 PUSH2 0x5B6 JUMP JUMPDEST JUMPDEST PUSH1 0x0 PUSH2 0x770 DUP6 DUP3 DUP7 ADD PUSH2 0x70F JUMP JUMPDEST SWAP3 POP POP PUSH1 0x20 PUSH2 0x781 DUP6 DUP3 DUP7 ADD PUSH2 0x70F JUMP JUMPDEST SWAP2 POP POP SWAP3 POP SWAP3 SWAP1 POP JUMP JUMPDEST PUSH2 0x794 DUP2 PUSH2 0x5BB JUMP JUMPDEST DUP3 MSTORE POP POP JUMP JUMPDEST PUSH1 0x20 DUP3 ADD PUSH1 0x0 DUP3 ADD MLOAD PUSH2 0x7B0 PUSH1 0x0 DUP6 ADD DUP3 PUSH2 0x78B JUMP JUMPDEST POP POP POP POP JUMP JUMPDEST PUSH1 0x0 PUSH1 0x20 DUP3 ADD SWAP1 POP PUSH2 0x7CB PUSH1 0x0 DUP4 ADD DUP5 PUSH2 0x79A JUMP JUMPDEST SWAP3 SWAP2 POP POP JUMP JUMPDEST PUSH1 0x0 PUSH1 0x20 DUP3 DUP5 SUB SLT ISZERO PUSH2 0x7E7 JUMPI PUSH2 0x7E6 PUSH2 0x5B6 JUMP JUMPDEST JUMPDEST PUSH1 0x0 PUSH2 0x7F5 DUP5 DUP3 DUP6 ADD PUSH2 0x70F JUMP JUMPDEST SWAP2 POP POP SWAP3 SWAP2 POP POP JUMP JUMPDEST PUSH1 0x0 DUP1 PUSH1 0x40 DUP4 DUP6 SUB SLT ISZERO PUSH2 0x815 JUMPI PUSH2 0x814 PUSH2 0x5B6 JUMP JUMPDEST JUMPDEST PUSH1 0x0 PUSH2 0x823 DUP6 DUP3 DUP7 ADD PUSH2 0x5DC JUMP JUMPDEST SWAP3 POP POP PUSH1 0x20 PUSH2 0x834 DUP6 DUP3 DUP7 ADD PUSH2 0x5DC JUMP JUMPDEST SWAP2 POP POP SWAP3 POP SWAP3 SWAP1 POP JUMP JUMPDEST PUSH32 0x4E487B7100000000000000000000000000000000000000000000000000000000 PUSH1 0x0 MSTORE PUSH1 0x11 PUSH1 0x4 MSTORE PUSH1 0x24 PUSH1 0x0 REVERT JUMPDEST PUSH1 0x0 PUSH2 0x878 DUP3 PUSH2 0x5BB JUMP JUMPDEST SWAP2 POP PUSH2 0x883 DUP4 PUSH2 0x5BB JUMP JUMPDEST SWAP3 POP DUP3 DUP3 MUL PUSH2 0x891 DUP2 PUSH2 0x5BB JUMP JUMPDEST SWAP2 POP DUP3 DUP3 DIV DUP5 EQ DUP4 ISZERO OR PUSH2 0x8A8 JUMPI PUSH2 0x8A7 PUSH2 0x83E JUMP JUMPDEST JUMPDEST POP SWAP3 SWAP2 POP POP JUMP JUMPDEST PUSH32 0x4E487B7100000000000000000000000000000000000000000000000000000000 PUSH1 0x0 MSTORE PUSH1 0x12 PUSH1 0x4 MSTORE PUSH1 0x24 PUSH1 0x0 REVERT JUMPDEST PUSH1 0x0 PUSH2 0x8E9 DUP3 PUSH2 0x5BB JUMP JUMPDEST SWAP2 POP PUSH2 0x8F4 DUP4 PUSH2 0x5BB JUMP JUMPDEST SWAP3 POP DUP3 PUSH2 0x904 JUMPI PUSH2 0x903 PUSH2 0x8AF JUMP JUMPDEST JUMPDEST DUP3 DUP3 MOD SWAP1 POP SWAP3 SWAP2 POP POP JUMP JUMPDEST PUSH1 0x0 PUSH2 0x91A DUP3 PUSH2 0x5BB JUMP JUMPDEST SWAP2 POP PUSH32 0xFFFFFFFFFFFFFFFFFFFFFFFFFFFFFFFFFFFFFFFFFFFFFFFFFFFFFFFFFFFFFFFF DUP3 SUB PUSH2 0x94C JUMPI PUSH2 0x94B PUSH2 0x83E JUMP JUMPDEST JUMPDEST PUSH1 0x1 DUP3 ADD SWAP1 POP SWAP2 SWAP1 POP JUMP JUMPDEST PUSH1 0x0 PUSH2 0x962 DUP3 PUSH2 0x5BB JUMP JUMPDEST SWAP2 POP PUSH2 0x96D DUP4 PUSH2 0x5BB JUMP JUMPDEST SWAP3 POP DUP3 DUP3 ADD SWAP1 POP DUP1 DUP3 GT ISZERO PUSH2 0x985 JUMPI PUSH2 0x984 PUSH2 0x83E JUMP JUMPDEST JUMPDEST SWAP3 SWAP2 POP POP JUMP JUMPDEST PUSH1 0x0 PUSH2 0x996 DUP3 PUSH2 0x5BB JUMP JUMPDEST SWAP2 POP PUSH2 0x9A1 DUP4 PUSH2 0x5BB JUMP JUMPDEST SWAP3 POP DUP3 DUP3 SUB SWAP1 POP DUP2 DUP2 GT ISZERO PUSH2 0x9B9 JUMPI PUSH2 0x9B8 PUSH2 0x83E JUMP JUMPDEST JUMPDEST SWAP3 SWAP2 POP POP JUMP JUMPDEST PUSH1 0x0 DUP3 DUP3 MSTORE PUSH1 0x20 DUP3 ADD SWAP1 POP SWAP3 SWAP2 POP POP JUMP JUMPDEST PUSH32 0x4469766973696F6E6520706572207A65726F206E6F6E207065726D657373612E PUSH1 0x0 DUP3 ADD MSTORE POP JUMP JUMPDEST PUSH1 0x0 PUSH2 0xA06 PUSH1 0x20 DUP4 PUSH2 0x9BF JUMP JUMPDEST SWAP2 POP PUSH2 0xA11 DUP3 PUSH2 0x9D0 JUMP JUMPDEST PUSH1 0x20 DUP3 ADD SWAP1 POP SWAP2 SWAP1 POP JUMP JUMPDEST PUSH1 0x0 PUSH1 0x20 DUP3 ADD SWAP1 POP DUP2 DUP2 SUB PUSH1 0x0 DUP4 ADD MSTORE PUSH2 0xA35 DUP2 PUSH2 0x9F9 JUMP JUMPDEST SWAP1 POP SWAP2 SWAP1 POP JUMP INVALID LOG2 PUSH5 0x6970667358 0x22 SLT KECCAK256 SSTORE 0xFC 0x2B 0xED BLOCKHASH PUSH18 0xFEBA6E88FB1B4BEB15B0EB659907623269D7 REVERT SWAP2 SLT DUP15 0x2E 0xCD CALLDATASIZE KECCAK256 PUSH5 0x736F6C6343 STOP ADDMOD SHL STOP CALLER "},"methodIdentifiers":{"createElement(uint256)":"c4524947","div((uint256),(uint256))":"b0df7c1d","equals((uint256),(uint256))":"d629f528","exp(uint256,uint256)":"f5f565f8","inverse((uint256))":"f6509dd6","isPrime(uint256)":"42703494","mul((uint256),(uint256))":"b2eb1a5a","mul_nonres((uint256))":"aa28c5be","p()":"9ae8886a","sub((uint256),(uint256))":"c870cbda","sum((uint256),(uint256))":"a253aeee","zero()":"bc1b392d"}}}}}