{
  "_format": "hh-sol-artifact-1",
  "contractName": "TwelveExtension",
  "sourceName": "contracts/field/twelveExtension.sol",
  "abi": [
    {
      "inputs": [
        {
          "internalType": "contract SexticExtension",
          "name": "six",
          "type": "address"
        }
      ],
      "stateMutability": "nonpayable",
      "type": "constructor"
    },
    {
      "inputs": [
        {
          "components": [
            {
              "components": [
                {
                  "components": [
                    {
                      "components": [
                        {
                          "internalType": "bytes",
                          "name": "val",
                          "type": "bytes"
                        },
                        {
                          "internalType": "bool",
                          "name": "neg",
                          "type": "bool"
                        },
                        {
                          "internalType": "uint256",
                          "name": "bitlen",
                          "type": "uint256"
                        }
                      ],
                      "internalType": "struct BigNumber",
                      "name": "value",
                      "type": "tuple"
                    }
                  ],
                  "internalType": "struct Zp",
                  "name": "a",
                  "type": "tuple"
                },
                {
                  "components": [
                    {
                      "components": [
                        {
                          "internalType": "bytes",
                          "name": "val",
                          "type": "bytes"
                        },
                        {
                          "internalType": "bool",
                          "name": "neg",
                          "type": "bool"
                        },
                        {
                          "internalType": "uint256",
                          "name": "bitlen",
                          "type": "uint256"
                        }
                      ],
                      "internalType": "struct BigNumber",
                      "name": "value",
                      "type": "tuple"
                    }
                  ],
                  "internalType": "struct Zp",
                  "name": "b",
                  "type": "tuple"
                }
              ],
              "internalType": "struct Zp_2",
              "name": "a",
              "type": "tuple"
            },
            {
              "components": [
                {
                  "components": [
                    {
                      "components": [
                        {
                          "internalType": "bytes",
                          "name": "val",
                          "type": "bytes"
                        },
                        {
                          "internalType": "bool",
                          "name": "neg",
                          "type": "bool"
                        },
                        {
                          "internalType": "uint256",
                          "name": "bitlen",
                          "type": "uint256"
                        }
                      ],
                      "internalType": "struct BigNumber",
                      "name": "value",
                      "type": "tuple"
                    }
                  ],
                  "internalType": "struct Zp",
                  "name": "a",
                  "type": "tuple"
                },
                {
                  "components": [
                    {
                      "components": [
                        {
                          "internalType": "bytes",
                          "name": "val",
                          "type": "bytes"
                        },
                        {
                          "internalType": "bool",
                          "name": "neg",
                          "type": "bool"
                        },
                        {
                          "internalType": "uint256",
                          "name": "bitlen",
                          "type": "uint256"
                        }
                      ],
                      "internalType": "struct BigNumber",
                      "name": "value",
                      "type": "tuple"
                    }
                  ],
                  "internalType": "struct Zp",
                  "name": "b",
                  "type": "tuple"
                }
              ],
              "internalType": "struct Zp_2",
              "name": "b",
              "type": "tuple"
            },
            {
              "components": [
                {
                  "components": [
                    {
                      "components": [
                        {
                          "internalType": "bytes",
                          "name": "val",
                          "type": "bytes"
                        },
                        {
                          "internalType": "bool",
                          "name": "neg",
                          "type": "bool"
                        },
                        {
                          "internalType": "uint256",
                          "name": "bitlen",
                          "type": "uint256"
                        }
                      ],
                      "internalType": "struct BigNumber",
                      "name": "value",
                      "type": "tuple"
                    }
                  ],
                  "internalType": "struct Zp",
                  "name": "a",
                  "type": "tuple"
                },
                {
                  "components": [
                    {
                      "components": [
                        {
                          "internalType": "bytes",
                          "name": "val",
                          "type": "bytes"
                        },
                        {
                          "internalType": "bool",
                          "name": "neg",
                          "type": "bool"
                        },
                        {
                          "internalType": "uint256",
                          "name": "bitlen",
                          "type": "uint256"
                        }
                      ],
                      "internalType": "struct BigNumber",
                      "name": "value",
                      "type": "tuple"
                    }
                  ],
                  "internalType": "struct Zp",
                  "name": "b",
                  "type": "tuple"
                }
              ],
              "internalType": "struct Zp_2",
              "name": "c",
              "type": "tuple"
            }
          ],
          "internalType": "struct Zp_6",
          "name": "x",
          "type": "tuple"
        },
        {
          "components": [
            {
              "components": [
                {
                  "components": [
                    {
                      "components": [
                        {
                          "internalType": "bytes",
                          "name": "val",
                          "type": "bytes"
                        },
                        {
                          "internalType": "bool",
                          "name": "neg",
                          "type": "bool"
                        },
                        {
                          "internalType": "uint256",
                          "name": "bitlen",
                          "type": "uint256"
                        }
                      ],
                      "internalType": "struct BigNumber",
                      "name": "value",
                      "type": "tuple"
                    }
                  ],
                  "internalType": "struct Zp",
                  "name": "a",
                  "type": "tuple"
                },
                {
                  "components": [
                    {
                      "components": [
                        {
                          "internalType": "bytes",
                          "name": "val",
                          "type": "bytes"
                        },
                        {
                          "internalType": "bool",
                          "name": "neg",
                          "type": "bool"
                        },
                        {
                          "internalType": "uint256",
                          "name": "bitlen",
                          "type": "uint256"
                        }
                      ],
                      "internalType": "struct BigNumber",
                      "name": "value",
                      "type": "tuple"
                    }
                  ],
                  "internalType": "struct Zp",
                  "name": "b",
                  "type": "tuple"
                }
              ],
              "internalType": "struct Zp_2",
              "name": "a",
              "type": "tuple"
            },
            {
              "components": [
                {
                  "components": [
                    {
                      "components": [
                        {
                          "internalType": "bytes",
                          "name": "val",
                          "type": "bytes"
                        },
                        {
                          "internalType": "bool",
                          "name": "neg",
                          "type": "bool"
                        },
                        {
                          "internalType": "uint256",
                          "name": "bitlen",
                          "type": "uint256"
                        }
                      ],
                      "internalType": "struct BigNumber",
                      "name": "value",
                      "type": "tuple"
                    }
                  ],
                  "internalType": "struct Zp",
                  "name": "a",
                  "type": "tuple"
                },
                {
                  "components": [
                    {
                      "components": [
                        {
                          "internalType": "bytes",
                          "name": "val",
                          "type": "bytes"
                        },
                        {
                          "internalType": "bool",
                          "name": "neg",
                          "type": "bool"
                        },
                        {
                          "internalType": "uint256",
                          "name": "bitlen",
                          "type": "uint256"
                        }
                      ],
                      "internalType": "struct BigNumber",
                      "name": "value",
                      "type": "tuple"
                    }
                  ],
                  "internalType": "struct Zp",
                  "name": "b",
                  "type": "tuple"
                }
              ],
              "internalType": "struct Zp_2",
              "name": "b",
              "type": "tuple"
            },
            {
              "components": [
                {
                  "components": [
                    {
                      "components": [
                        {
                          "internalType": "bytes",
                          "name": "val",
                          "type": "bytes"
                        },
                        {
                          "internalType": "bool",
                          "name": "neg",
                          "type": "bool"
                        },
                        {
                          "internalType": "uint256",
                          "name": "bitlen",
                          "type": "uint256"
                        }
                      ],
                      "internalType": "struct BigNumber",
                      "name": "value",
                      "type": "tuple"
                    }
                  ],
                  "internalType": "struct Zp",
                  "name": "a",
                  "type": "tuple"
                },
                {
                  "components": [
                    {
                      "components": [
                        {
                          "internalType": "bytes",
                          "name": "val",
                          "type": "bytes"
                        },
                        {
                          "internalType": "bool",
                          "name": "neg",
                          "type": "bool"
                        },
                        {
                          "internalType": "uint256",
                          "name": "bitlen",
                          "type": "uint256"
                        }
                      ],
                      "internalType": "struct BigNumber",
                      "name": "value",
                      "type": "tuple"
                    }
                  ],
                  "internalType": "struct Zp",
                  "name": "b",
                  "type": "tuple"
                }
              ],
              "internalType": "struct Zp_2",
              "name": "c",
              "type": "tuple"
            }
          ],
          "internalType": "struct Zp_6",
          "name": "y",
          "type": "tuple"
        }
      ],
      "name": "createElement",
      "outputs": [
        {
          "components": [
            {
              "components": [
                {
                  "components": [
                    {
                      "components": [
                        {
                          "components": [
                            {
                              "internalType": "bytes",
                              "name": "val",
                              "type": "bytes"
                            },
                            {
                              "internalType": "bool",
                              "name": "neg",
                              "type": "bool"
                            },
                            {
                              "internalType": "uint256",
                              "name": "bitlen",
                              "type": "uint256"
                            }
                          ],
                          "internalType": "struct BigNumber",
                          "name": "value",
                          "type": "tuple"
                        }
                      ],
                      "internalType": "struct Zp",
                      "name": "a",
                      "type": "tuple"
                    },
                    {
                      "components": [
                        {
                          "components": [
                            {
                              "internalType": "bytes",
                              "name": "val",
                              "type": "bytes"
                            },
                            {
                              "internalType": "bool",
                              "name": "neg",
                              "type": "bool"
                            },
                            {
                              "internalType": "uint256",
                              "name": "bitlen",
                              "type": "uint256"
                            }
                          ],
                          "internalType": "struct BigNumber",
                          "name": "value",
                          "type": "tuple"
                        }
                      ],
                      "internalType": "struct Zp",
                      "name": "b",
                      "type": "tuple"
                    }
                  ],
                  "internalType": "struct Zp_2",
                  "name": "a",
                  "type": "tuple"
                },
                {
                  "components": [
                    {
                      "components": [
                        {
                          "components": [
                            {
                              "internalType": "bytes",
                              "name": "val",
                              "type": "bytes"
                            },
                            {
                              "internalType": "bool",
                              "name": "neg",
                              "type": "bool"
                            },
                            {
                              "internalType": "uint256",
                              "name": "bitlen",
                              "type": "uint256"
                            }
                          ],
                          "internalType": "struct BigNumber",
                          "name": "value",
                          "type": "tuple"
                        }
                      ],
                      "internalType": "struct Zp",
                      "name": "a",
                      "type": "tuple"
                    },
                    {
                      "components": [
                        {
                          "components": [
                            {
                              "internalType": "bytes",
                              "name": "val",
                              "type": "bytes"
                            },
                            {
                              "internalType": "bool",
                              "name": "neg",
                              "type": "bool"
                            },
                            {
                              "internalType": "uint256",
                              "name": "bitlen",
                              "type": "uint256"
                            }
                          ],
                          "internalType": "struct BigNumber",
                          "name": "value",
                          "type": "tuple"
                        }
                      ],
                      "internalType": "struct Zp",
                      "name": "b",
                      "type": "tuple"
                    }
                  ],
                  "internalType": "struct Zp_2",
                  "name": "b",
                  "type": "tuple"
                },
                {
                  "components": [
                    {
                      "components": [
                        {
                          "components": [
                            {
                              "internalType": "bytes",
                              "name": "val",
                              "type": "bytes"
                            },
                            {
                              "internalType": "bool",
                              "name": "neg",
                              "type": "bool"
                            },
                            {
                              "internalType": "uint256",
                              "name": "bitlen",
                              "type": "uint256"
                            }
                          ],
                          "internalType": "struct BigNumber",
                          "name": "value",
                          "type": "tuple"
                        }
                      ],
                      "internalType": "struct Zp",
                      "name": "a",
                      "type": "tuple"
                    },
                    {
                      "components": [
                        {
                          "components": [
                            {
                              "internalType": "bytes",
                              "name": "val",
                              "type": "bytes"
                            },
                            {
                              "internalType": "bool",
                              "name": "neg",
                              "type": "bool"
                            },
                            {
                              "internalType": "uint256",
                              "name": "bitlen",
                              "type": "uint256"
                            }
                          ],
                          "internalType": "struct BigNumber",
                          "name": "value",
                          "type": "tuple"
                        }
                      ],
                      "internalType": "struct Zp",
                      "name": "b",
                      "type": "tuple"
                    }
                  ],
                  "internalType": "struct Zp_2",
                  "name": "c",
                  "type": "tuple"
                }
              ],
              "internalType": "struct Zp_6",
              "name": "a",
              "type": "tuple"
            },
            {
              "components": [
                {
                  "components": [
                    {
                      "components": [
                        {
                          "components": [
                            {
                              "internalType": "bytes",
                              "name": "val",
                              "type": "bytes"
                            },
                            {
                              "internalType": "bool",
                              "name": "neg",
                              "type": "bool"
                            },
                            {
                              "internalType": "uint256",
                              "name": "bitlen",
                              "type": "uint256"
                            }
                          ],
                          "internalType": "struct BigNumber",
                          "name": "value",
                          "type": "tuple"
                        }
                      ],
                      "internalType": "struct Zp",
                      "name": "a",
                      "type": "tuple"
                    },
                    {
                      "components": [
                        {
                          "components": [
                            {
                              "internalType": "bytes",
                              "name": "val",
                              "type": "bytes"
                            },
                            {
                              "internalType": "bool",
                              "name": "neg",
                              "type": "bool"
                            },
                            {
                              "internalType": "uint256",
                              "name": "bitlen",
                              "type": "uint256"
                            }
                          ],
                          "internalType": "struct BigNumber",
                          "name": "value",
                          "type": "tuple"
                        }
                      ],
                      "internalType": "struct Zp",
                      "name": "b",
                      "type": "tuple"
                    }
                  ],
                  "internalType": "struct Zp_2",
                  "name": "a",
                  "type": "tuple"
                },
                {
                  "components": [
                    {
                      "components": [
                        {
                          "components": [
                            {
                              "internalType": "bytes",
                              "name": "val",
                              "type": "bytes"
                            },
                            {
                              "internalType": "bool",
                              "name": "neg",
                              "type": "bool"
                            },
                            {
                              "internalType": "uint256",
                              "name": "bitlen",
                              "type": "uint256"
                            }
                          ],
                          "internalType": "struct BigNumber",
                          "name": "value",
                          "type": "tuple"
                        }
                      ],
                      "internalType": "struct Zp",
                      "name": "a",
                      "type": "tuple"
                    },
                    {
                      "components": [
                        {
                          "components": [
                            {
                              "internalType": "bytes",
                              "name": "val",
                              "type": "bytes"
                            },
                            {
                              "internalType": "bool",
                              "name": "neg",
                              "type": "bool"
                            },
                            {
                              "internalType": "uint256",
                              "name": "bitlen",
                              "type": "uint256"
                            }
                          ],
                          "internalType": "struct BigNumber",
                          "name": "value",
                          "type": "tuple"
                        }
                      ],
                      "internalType": "struct Zp",
                      "name": "b",
                      "type": "tuple"
                    }
                  ],
                  "internalType": "struct Zp_2",
                  "name": "b",
                  "type": "tuple"
                },
                {
                  "components": [
                    {
                      "components": [
                        {
                          "components": [
                            {
                              "internalType": "bytes",
                              "name": "val",
                              "type": "bytes"
                            },
                            {
                              "internalType": "bool",
                              "name": "neg",
                              "type": "bool"
                            },
                            {
                              "internalType": "uint256",
                              "name": "bitlen",
                              "type": "uint256"
                            }
                          ],
                          "internalType": "struct BigNumber",
                          "name": "value",
                          "type": "tuple"
                        }
                      ],
                      "internalType": "struct Zp",
                      "name": "a",
                      "type": "tuple"
                    },
                    {
                      "components": [
                        {
                          "components": [
                            {
                              "internalType": "bytes",
                              "name": "val",
                              "type": "bytes"
                            },
                            {
                              "internalType": "bool",
                              "name": "neg",
                              "type": "bool"
                            },
                            {
                              "internalType": "uint256",
                              "name": "bitlen",
                              "type": "uint256"
                            }
                          ],
                          "internalType": "struct BigNumber",
                          "name": "value",
                          "type": "tuple"
                        }
                      ],
                      "internalType": "struct Zp",
                      "name": "b",
                      "type": "tuple"
                    }
                  ],
                  "internalType": "struct Zp_2",
                  "name": "c",
                  "type": "tuple"
                }
              ],
              "internalType": "struct Zp_6",
              "name": "b",
              "type": "tuple"
            }
          ],
          "internalType": "struct Zp_12",
          "name": "",
          "type": "tuple"
        }
      ],
      "stateMutability": "pure",
      "type": "function"
    },
    {
      "inputs": [
        {
          "components": [
            {
              "components": [
                {
                  "components": [
                    {
                      "components": [
                        {
                          "components": [
                            {
                              "internalType": "bytes",
                              "name": "val",
                              "type": "bytes"
                            },
                            {
                              "internalType": "bool",
                              "name": "neg",
                              "type": "bool"
                            },
                            {
                              "internalType": "uint256",
                              "name": "bitlen",
                              "type": "uint256"
                            }
                          ],
                          "internalType": "struct BigNumber",
                          "name": "value",
                          "type": "tuple"
                        }
                      ],
                      "internalType": "struct Zp",
                      "name": "a",
                      "type": "tuple"
                    },
                    {
                      "components": [
                        {
                          "components": [
                            {
                              "internalType": "bytes",
                              "name": "val",
                              "type": "bytes"
                            },
                            {
                              "internalType": "bool",
                              "name": "neg",
                              "type": "bool"
                            },
                            {
                              "internalType": "uint256",
                              "name": "bitlen",
                              "type": "uint256"
                            }
                          ],
                          "internalType": "struct BigNumber",
                          "name": "value",
                          "type": "tuple"
                        }
                      ],
                      "internalType": "struct Zp",
                      "name": "b",
                      "type": "tuple"
                    }
                  ],
                  "internalType": "struct Zp_2",
                  "name": "a",
                  "type": "tuple"
                },
                {
                  "components": [
                    {
                      "components": [
                        {
                          "components": [
                            {
                              "internalType": "bytes",
                              "name": "val",
                              "type": "bytes"
                            },
                            {
                              "internalType": "bool",
                              "name": "neg",
                              "type": "bool"
                            },
                            {
                              "internalType": "uint256",
                              "name": "bitlen",
                              "type": "uint256"
                            }
                          ],
                          "internalType": "struct BigNumber",
                          "name": "value",
                          "type": "tuple"
                        }
                      ],
                      "internalType": "struct Zp",
                      "name": "a",
                      "type": "tuple"
                    },
                    {
                      "components": [
                        {
                          "components": [
                            {
                              "internalType": "bytes",
                              "name": "val",
                              "type": "bytes"
                            },
                            {
                              "internalType": "bool",
                              "name": "neg",
                              "type": "bool"
                            },
                            {
                              "internalType": "uint256",
                              "name": "bitlen",
                              "type": "uint256"
                            }
                          ],
                          "internalType": "struct BigNumber",
                          "name": "value",
                          "type": "tuple"
                        }
                      ],
                      "internalType": "struct Zp",
                      "name": "b",
                      "type": "tuple"
                    }
                  ],
                  "internalType": "struct Zp_2",
                  "name": "b",
                  "type": "tuple"
                },
                {
                  "components": [
                    {
                      "components": [
                        {
                          "components": [
                            {
                              "internalType": "bytes",
                              "name": "val",
                              "type": "bytes"
                            },
                            {
                              "internalType": "bool",
                              "name": "neg",
                              "type": "bool"
                            },
                            {
                              "internalType": "uint256",
                              "name": "bitlen",
                              "type": "uint256"
                            }
                          ],
                          "internalType": "struct BigNumber",
                          "name": "value",
                          "type": "tuple"
                        }
                      ],
                      "internalType": "struct Zp",
                      "name": "a",
                      "type": "tuple"
                    },
                    {
                      "components": [
                        {
                          "components": [
                            {
                              "internalType": "bytes",
                              "name": "val",
                              "type": "bytes"
                            },
                            {
                              "internalType": "bool",
                              "name": "neg",
                              "type": "bool"
                            },
                            {
                              "internalType": "uint256",
                              "name": "bitlen",
                              "type": "uint256"
                            }
                          ],
                          "internalType": "struct BigNumber",
                          "name": "value",
                          "type": "tuple"
                        }
                      ],
                      "internalType": "struct Zp",
                      "name": "b",
                      "type": "tuple"
                    }
                  ],
                  "internalType": "struct Zp_2",
                  "name": "c",
                  "type": "tuple"
                }
              ],
              "internalType": "struct Zp_6",
              "name": "a",
              "type": "tuple"
            },
            {
              "components": [
                {
                  "components": [
                    {
                      "components": [
                        {
                          "components": [
                            {
                              "internalType": "bytes",
                              "name": "val",
                              "type": "bytes"
                            },
                            {
                              "internalType": "bool",
                              "name": "neg",
                              "type": "bool"
                            },
                            {
                              "internalType": "uint256",
                              "name": "bitlen",
                              "type": "uint256"
                            }
                          ],
                          "internalType": "struct BigNumber",
                          "name": "value",
                          "type": "tuple"
                        }
                      ],
                      "internalType": "struct Zp",
                      "name": "a",
                      "type": "tuple"
                    },
                    {
                      "components": [
                        {
                          "components": [
                            {
                              "internalType": "bytes",
                              "name": "val",
                              "type": "bytes"
                            },
                            {
                              "internalType": "bool",
                              "name": "neg",
                              "type": "bool"
                            },
                            {
                              "internalType": "uint256",
                              "name": "bitlen",
                              "type": "uint256"
                            }
                          ],
                          "internalType": "struct BigNumber",
                          "name": "value",
                          "type": "tuple"
                        }
                      ],
                      "internalType": "struct Zp",
                      "name": "b",
                      "type": "tuple"
                    }
                  ],
                  "internalType": "struct Zp_2",
                  "name": "a",
                  "type": "tuple"
                },
                {
                  "components": [
                    {
                      "components": [
                        {
                          "components": [
                            {
                              "internalType": "bytes",
                              "name": "val",
                              "type": "bytes"
                            },
                            {
                              "internalType": "bool",
                              "name": "neg",
                              "type": "bool"
                            },
                            {
                              "internalType": "uint256",
                              "name": "bitlen",
                              "type": "uint256"
                            }
                          ],
                          "internalType": "struct BigNumber",
                          "name": "value",
                          "type": "tuple"
                        }
                      ],
                      "internalType": "struct Zp",
                      "name": "a",
                      "type": "tuple"
                    },
                    {
                      "components": [
                        {
                          "components": [
                            {
                              "internalType": "bytes",
                              "name": "val",
                              "type": "bytes"
                            },
                            {
                              "internalType": "bool",
                              "name": "neg",
                              "type": "bool"
                            },
                            {
                              "internalType": "uint256",
                              "name": "bitlen",
                              "type": "uint256"
                            }
                          ],
                          "internalType": "struct BigNumber",
                          "name": "value",
                          "type": "tuple"
                        }
                      ],
                      "internalType": "struct Zp",
                      "name": "b",
                      "type": "tuple"
                    }
                  ],
                  "internalType": "struct Zp_2",
                  "name": "b",
                  "type": "tuple"
                },
                {
                  "components": [
                    {
                      "components": [
                        {
                          "components": [
                            {
                              "internalType": "bytes",
                              "name": "val",
                              "type": "bytes"
                            },
                            {
                              "internalType": "bool",
                              "name": "neg",
                              "type": "bool"
                            },
                            {
                              "internalType": "uint256",
                              "name": "bitlen",
                              "type": "uint256"
                            }
                          ],
                          "internalType": "struct BigNumber",
                          "name": "value",
                          "type": "tuple"
                        }
                      ],
                      "internalType": "struct Zp",
                      "name": "a",
                      "type": "tuple"
                    },
                    {
                      "components": [
                        {
                          "components": [
                            {
                              "internalType": "bytes",
                              "name": "val",
                              "type": "bytes"
                            },
                            {
                              "internalType": "bool",
                              "name": "neg",
                              "type": "bool"
                            },
                            {
                              "internalType": "uint256",
                              "name": "bitlen",
                              "type": "uint256"
                            }
                          ],
                          "internalType": "struct BigNumber",
                          "name": "value",
                          "type": "tuple"
                        }
                      ],
                      "internalType": "struct Zp",
                      "name": "b",
                      "type": "tuple"
                    }
                  ],
                  "internalType": "struct Zp_2",
                  "name": "c",
                  "type": "tuple"
                }
              ],
              "internalType": "struct Zp_6",
              "name": "b",
              "type": "tuple"
            }
          ],
          "internalType": "struct Zp_12",
          "name": "x",
          "type": "tuple"
        },
        {
          "components": [
            {
              "components": [
                {
                  "components": [
                    {
                      "components": [
                        {
                          "components": [
                            {
                              "internalType": "bytes",
                              "name": "val",
                              "type": "bytes"
                            },
                            {
                              "internalType": "bool",
                              "name": "neg",
                              "type": "bool"
                            },
                            {
                              "internalType": "uint256",
                              "name": "bitlen",
                              "type": "uint256"
                            }
                          ],
                          "internalType": "struct BigNumber",
                          "name": "value",
                          "type": "tuple"
                        }
                      ],
                      "internalType": "struct Zp",
                      "name": "a",
                      "type": "tuple"
                    },
                    {
                      "components": [
                        {
                          "components": [
                            {
                              "internalType": "bytes",
                              "name": "val",
                              "type": "bytes"
                            },
                            {
                              "internalType": "bool",
                              "name": "neg",
                              "type": "bool"
                            },
                            {
                              "internalType": "uint256",
                              "name": "bitlen",
                              "type": "uint256"
                            }
                          ],
                          "internalType": "struct BigNumber",
                          "name": "value",
                          "type": "tuple"
                        }
                      ],
                      "internalType": "struct Zp",
                      "name": "b",
                      "type": "tuple"
                    }
                  ],
                  "internalType": "struct Zp_2",
                  "name": "a",
                  "type": "tuple"
                },
                {
                  "components": [
                    {
                      "components": [
                        {
                          "components": [
                            {
                              "internalType": "bytes",
                              "name": "val",
                              "type": "bytes"
                            },
                            {
                              "internalType": "bool",
                              "name": "neg",
                              "type": "bool"
                            },
                            {
                              "internalType": "uint256",
                              "name": "bitlen",
                              "type": "uint256"
                            }
                          ],
                          "internalType": "struct BigNumber",
                          "name": "value",
                          "type": "tuple"
                        }
                      ],
                      "internalType": "struct Zp",
                      "name": "a",
                      "type": "tuple"
                    },
                    {
                      "components": [
                        {
                          "components": [
                            {
                              "internalType": "bytes",
                              "name": "val",
                              "type": "bytes"
                            },
                            {
                              "internalType": "bool",
                              "name": "neg",
                              "type": "bool"
                            },
                            {
                              "internalType": "uint256",
                              "name": "bitlen",
                              "type": "uint256"
                            }
                          ],
                          "internalType": "struct BigNumber",
                          "name": "value",
                          "type": "tuple"
                        }
                      ],
                      "internalType": "struct Zp",
                      "name": "b",
                      "type": "tuple"
                    }
                  ],
                  "internalType": "struct Zp_2",
                  "name": "b",
                  "type": "tuple"
                },
                {
                  "components": [
                    {
                      "components": [
                        {
                          "components": [
                            {
                              "internalType": "bytes",
                              "name": "val",
                              "type": "bytes"
                            },
                            {
                              "internalType": "bool",
                              "name": "neg",
                              "type": "bool"
                            },
                            {
                              "internalType": "uint256",
                              "name": "bitlen",
                              "type": "uint256"
                            }
                          ],
                          "internalType": "struct BigNumber",
                          "name": "value",
                          "type": "tuple"
                        }
                      ],
                      "internalType": "struct Zp",
                      "name": "a",
                      "type": "tuple"
                    },
                    {
                      "components": [
                        {
                          "components": [
                            {
                              "internalType": "bytes",
                              "name": "val",
                              "type": "bytes"
                            },
                            {
                              "internalType": "bool",
                              "name": "neg",
                              "type": "bool"
                            },
                            {
                              "internalType": "uint256",
                              "name": "bitlen",
                              "type": "uint256"
                            }
                          ],
                          "internalType": "struct BigNumber",
                          "name": "value",
                          "type": "tuple"
                        }
                      ],
                      "internalType": "struct Zp",
                      "name": "b",
                      "type": "tuple"
                    }
                  ],
                  "internalType": "struct Zp_2",
                  "name": "c",
                  "type": "tuple"
                }
              ],
              "internalType": "struct Zp_6",
              "name": "a",
              "type": "tuple"
            },
            {
              "components": [
                {
                  "components": [
                    {
                      "components": [
                        {
                          "components": [
                            {
                              "internalType": "bytes",
                              "name": "val",
                              "type": "bytes"
                            },
                            {
                              "internalType": "bool",
                              "name": "neg",
                              "type": "bool"
                            },
                            {
                              "internalType": "uint256",
                              "name": "bitlen",
                              "type": "uint256"
                            }
                          ],
                          "internalType": "struct BigNumber",
                          "name": "value",
                          "type": "tuple"
                        }
                      ],
                      "internalType": "struct Zp",
                      "name": "a",
                      "type": "tuple"
                    },
                    {
                      "components": [
                        {
                          "components": [
                            {
                              "internalType": "bytes",
                              "name": "val",
                              "type": "bytes"
                            },
                            {
                              "internalType": "bool",
                              "name": "neg",
                              "type": "bool"
                            },
                            {
                              "internalType": "uint256",
                              "name": "bitlen",
                              "type": "uint256"
                            }
                          ],
                          "internalType": "struct BigNumber",
                          "name": "value",
                          "type": "tuple"
                        }
                      ],
                      "internalType": "struct Zp",
                      "name": "b",
                      "type": "tuple"
                    }
                  ],
                  "internalType": "struct Zp_2",
                  "name": "a",
                  "type": "tuple"
                },
                {
                  "components": [
                    {
                      "components": [
                        {
                          "components": [
                            {
                              "internalType": "bytes",
                              "name": "val",
                              "type": "bytes"
                            },
                            {
                              "internalType": "bool",
                              "name": "neg",
                              "type": "bool"
                            },
                            {
                              "internalType": "uint256",
                              "name": "bitlen",
                              "type": "uint256"
                            }
                          ],
                          "internalType": "struct BigNumber",
                          "name": "value",
                          "type": "tuple"
                        }
                      ],
                      "internalType": "struct Zp",
                      "name": "a",
                      "type": "tuple"
                    },
                    {
                      "components": [
                        {
                          "components": [
                            {
                              "internalType": "bytes",
                              "name": "val",
                              "type": "bytes"
                            },
                            {
                              "internalType": "bool",
                              "name": "neg",
                              "type": "bool"
                            },
                            {
                              "internalType": "uint256",
                              "name": "bitlen",
                              "type": "uint256"
                            }
                          ],
                          "internalType": "struct BigNumber",
                          "name": "value",
                          "type": "tuple"
                        }
                      ],
                      "internalType": "struct Zp",
                      "name": "b",
                      "type": "tuple"
                    }
                  ],
                  "internalType": "struct Zp_2",
                  "name": "b",
                  "type": "tuple"
                },
                {
                  "components": [
                    {
                      "components": [
                        {
                          "components": [
                            {
                              "internalType": "bytes",
                              "name": "val",
                              "type": "bytes"
                            },
                            {
                              "internalType": "bool",
                              "name": "neg",
                              "type": "bool"
                            },
                            {
                              "internalType": "uint256",
                              "name": "bitlen",
                              "type": "uint256"
                            }
                          ],
                          "internalType": "struct BigNumber",
                          "name": "value",
                          "type": "tuple"
                        }
                      ],
                      "internalType": "struct Zp",
                      "name": "a",
                      "type": "tuple"
                    },
                    {
                      "components": [
                        {
                          "components": [
                            {
                              "internalType": "bytes",
                              "name": "val",
                              "type": "bytes"
                            },
                            {
                              "internalType": "bool",
                              "name": "neg",
                              "type": "bool"
                            },
                            {
                              "internalType": "uint256",
                              "name": "bitlen",
                              "type": "uint256"
                            }
                          ],
                          "internalType": "struct BigNumber",
                          "name": "value",
                          "type": "tuple"
                        }
                      ],
                      "internalType": "struct Zp",
                      "name": "b",
                      "type": "tuple"
                    }
                  ],
                  "internalType": "struct Zp_2",
                  "name": "c",
                  "type": "tuple"
                }
              ],
              "internalType": "struct Zp_6",
              "name": "b",
              "type": "tuple"
            }
          ],
          "internalType": "struct Zp_12",
          "name": "y",
          "type": "tuple"
        }
      ],
      "name": "div",
      "outputs": [
        {
          "components": [
            {
              "components": [
                {
                  "components": [
                    {
                      "components": [
                        {
                          "components": [
                            {
                              "internalType": "bytes",
                              "name": "val",
                              "type": "bytes"
                            },
                            {
                              "internalType": "bool",
                              "name": "neg",
                              "type": "bool"
                            },
                            {
                              "internalType": "uint256",
                              "name": "bitlen",
                              "type": "uint256"
                            }
                          ],
                          "internalType": "struct BigNumber",
                          "name": "value",
                          "type": "tuple"
                        }
                      ],
                      "internalType": "struct Zp",
                      "name": "a",
                      "type": "tuple"
                    },
                    {
                      "components": [
                        {
                          "components": [
                            {
                              "internalType": "bytes",
                              "name": "val",
                              "type": "bytes"
                            },
                            {
                              "internalType": "bool",
                              "name": "neg",
                              "type": "bool"
                            },
                            {
                              "internalType": "uint256",
                              "name": "bitlen",
                              "type": "uint256"
                            }
                          ],
                          "internalType": "struct BigNumber",
                          "name": "value",
                          "type": "tuple"
                        }
                      ],
                      "internalType": "struct Zp",
                      "name": "b",
                      "type": "tuple"
                    }
                  ],
                  "internalType": "struct Zp_2",
                  "name": "a",
                  "type": "tuple"
                },
                {
                  "components": [
                    {
                      "components": [
                        {
                          "components": [
                            {
                              "internalType": "bytes",
                              "name": "val",
                              "type": "bytes"
                            },
                            {
                              "internalType": "bool",
                              "name": "neg",
                              "type": "bool"
                            },
                            {
                              "internalType": "uint256",
                              "name": "bitlen",
                              "type": "uint256"
                            }
                          ],
                          "internalType": "struct BigNumber",
                          "name": "value",
                          "type": "tuple"
                        }
                      ],
                      "internalType": "struct Zp",
                      "name": "a",
                      "type": "tuple"
                    },
                    {
                      "components": [
                        {
                          "components": [
                            {
                              "internalType": "bytes",
                              "name": "val",
                              "type": "bytes"
                            },
                            {
                              "internalType": "bool",
                              "name": "neg",
                              "type": "bool"
                            },
                            {
                              "internalType": "uint256",
                              "name": "bitlen",
                              "type": "uint256"
                            }
                          ],
                          "internalType": "struct BigNumber",
                          "name": "value",
                          "type": "tuple"
                        }
                      ],
                      "internalType": "struct Zp",
                      "name": "b",
                      "type": "tuple"
                    }
                  ],
                  "internalType": "struct Zp_2",
                  "name": "b",
                  "type": "tuple"
                },
                {
                  "components": [
                    {
                      "components": [
                        {
                          "components": [
                            {
                              "internalType": "bytes",
                              "name": "val",
                              "type": "bytes"
                            },
                            {
                              "internalType": "bool",
                              "name": "neg",
                              "type": "bool"
                            },
                            {
                              "internalType": "uint256",
                              "name": "bitlen",
                              "type": "uint256"
                            }
                          ],
                          "internalType": "struct BigNumber",
                          "name": "value",
                          "type": "tuple"
                        }
                      ],
                      "internalType": "struct Zp",
                      "name": "a",
                      "type": "tuple"
                    },
                    {
                      "components": [
                        {
                          "components": [
                            {
                              "internalType": "bytes",
                              "name": "val",
                              "type": "bytes"
                            },
                            {
                              "internalType": "bool",
                              "name": "neg",
                              "type": "bool"
                            },
                            {
                              "internalType": "uint256",
                              "name": "bitlen",
                              "type": "uint256"
                            }
                          ],
                          "internalType": "struct BigNumber",
                          "name": "value",
                          "type": "tuple"
                        }
                      ],
                      "internalType": "struct Zp",
                      "name": "b",
                      "type": "tuple"
                    }
                  ],
                  "internalType": "struct Zp_2",
                  "name": "c",
                  "type": "tuple"
                }
              ],
              "internalType": "struct Zp_6",
              "name": "a",
              "type": "tuple"
            },
            {
              "components": [
                {
                  "components": [
                    {
                      "components": [
                        {
                          "components": [
                            {
                              "internalType": "bytes",
                              "name": "val",
                              "type": "bytes"
                            },
                            {
                              "internalType": "bool",
                              "name": "neg",
                              "type": "bool"
                            },
                            {
                              "internalType": "uint256",
                              "name": "bitlen",
                              "type": "uint256"
                            }
                          ],
                          "internalType": "struct BigNumber",
                          "name": "value",
                          "type": "tuple"
                        }
                      ],
                      "internalType": "struct Zp",
                      "name": "a",
                      "type": "tuple"
                    },
                    {
                      "components": [
                        {
                          "components": [
                            {
                              "internalType": "bytes",
                              "name": "val",
                              "type": "bytes"
                            },
                            {
                              "internalType": "bool",
                              "name": "neg",
                              "type": "bool"
                            },
                            {
                              "internalType": "uint256",
                              "name": "bitlen",
                              "type": "uint256"
                            }
                          ],
                          "internalType": "struct BigNumber",
                          "name": "value",
                          "type": "tuple"
                        }
                      ],
                      "internalType": "struct Zp",
                      "name": "b",
                      "type": "tuple"
                    }
                  ],
                  "internalType": "struct Zp_2",
                  "name": "a",
                  "type": "tuple"
                },
                {
                  "components": [
                    {
                      "components": [
                        {
                          "components": [
                            {
                              "internalType": "bytes",
                              "name": "val",
                              "type": "bytes"
                            },
                            {
                              "internalType": "bool",
                              "name": "neg",
                              "type": "bool"
                            },
                            {
                              "internalType": "uint256",
                              "name": "bitlen",
                              "type": "uint256"
                            }
                          ],
                          "internalType": "struct BigNumber",
                          "name": "value",
                          "type": "tuple"
                        }
                      ],
                      "internalType": "struct Zp",
                      "name": "a",
                      "type": "tuple"
                    },
                    {
                      "components": [
                        {
                          "components": [
                            {
                              "internalType": "bytes",
                              "name": "val",
                              "type": "bytes"
                            },
                            {
                              "internalType": "bool",
                              "name": "neg",
                              "type": "bool"
                            },
                            {
                              "internalType": "uint256",
                              "name": "bitlen",
                              "type": "uint256"
                            }
                          ],
                          "internalType": "struct BigNumber",
                          "name": "value",
                          "type": "tuple"
                        }
                      ],
                      "internalType": "struct Zp",
                      "name": "b",
                      "type": "tuple"
                    }
                  ],
                  "internalType": "struct Zp_2",
                  "name": "b",
                  "type": "tuple"
                },
                {
                  "components": [
                    {
                      "components": [
                        {
                          "components": [
                            {
                              "internalType": "bytes",
                              "name": "val",
                              "type": "bytes"
                            },
                            {
                              "internalType": "bool",
                              "name": "neg",
                              "type": "bool"
                            },
                            {
                              "internalType": "uint256",
                              "name": "bitlen",
                              "type": "uint256"
                            }
                          ],
                          "internalType": "struct BigNumber",
                          "name": "value",
                          "type": "tuple"
                        }
                      ],
                      "internalType": "struct Zp",
                      "name": "a",
                      "type": "tuple"
                    },
                    {
                      "components": [
                        {
                          "components": [
                            {
                              "internalType": "bytes",
                              "name": "val",
                              "type": "bytes"
                            },
                            {
                              "internalType": "bool",
                              "name": "neg",
                              "type": "bool"
                            },
                            {
                              "internalType": "uint256",
                              "name": "bitlen",
                              "type": "uint256"
                            }
                          ],
                          "internalType": "struct BigNumber",
                          "name": "value",
                          "type": "tuple"
                        }
                      ],
                      "internalType": "struct Zp",
                      "name": "b",
                      "type": "tuple"
                    }
                  ],
                  "internalType": "struct Zp_2",
                  "name": "c",
                  "type": "tuple"
                }
              ],
              "internalType": "struct Zp_6",
              "name": "b",
              "type": "tuple"
            }
          ],
          "internalType": "struct Zp_12",
          "name": "",
          "type": "tuple"
        }
      ],
      "stateMutability": "view",
      "type": "function"
    },
    {
      "inputs": [
        {
          "components": [
            {
              "components": [
                {
                  "components": [
                    {
                      "components": [
                        {
                          "components": [
                            {
                              "internalType": "bytes",
                              "name": "val",
                              "type": "bytes"
                            },
                            {
                              "internalType": "bool",
                              "name": "neg",
                              "type": "bool"
                            },
                            {
                              "internalType": "uint256",
                              "name": "bitlen",
                              "type": "uint256"
                            }
                          ],
                          "internalType": "struct BigNumber",
                          "name": "value",
                          "type": "tuple"
                        }
                      ],
                      "internalType": "struct Zp",
                      "name": "a",
                      "type": "tuple"
                    },
                    {
                      "components": [
                        {
                          "components": [
                            {
                              "internalType": "bytes",
                              "name": "val",
                              "type": "bytes"
                            },
                            {
                              "internalType": "bool",
                              "name": "neg",
                              "type": "bool"
                            },
                            {
                              "internalType": "uint256",
                              "name": "bitlen",
                              "type": "uint256"
                            }
                          ],
                          "internalType": "struct BigNumber",
                          "name": "value",
                          "type": "tuple"
                        }
                      ],
                      "internalType": "struct Zp",
                      "name": "b",
                      "type": "tuple"
                    }
                  ],
                  "internalType": "struct Zp_2",
                  "name": "a",
                  "type": "tuple"
                },
                {
                  "components": [
                    {
                      "components": [
                        {
                          "components": [
                            {
                              "internalType": "bytes",
                              "name": "val",
                              "type": "bytes"
                            },
                            {
                              "internalType": "bool",
                              "name": "neg",
                              "type": "bool"
                            },
                            {
                              "internalType": "uint256",
                              "name": "bitlen",
                              "type": "uint256"
                            }
                          ],
                          "internalType": "struct BigNumber",
                          "name": "value",
                          "type": "tuple"
                        }
                      ],
                      "internalType": "struct Zp",
                      "name": "a",
                      "type": "tuple"
                    },
                    {
                      "components": [
                        {
                          "components": [
                            {
                              "internalType": "bytes",
                              "name": "val",
                              "type": "bytes"
                            },
                            {
                              "internalType": "bool",
                              "name": "neg",
                              "type": "bool"
                            },
                            {
                              "internalType": "uint256",
                              "name": "bitlen",
                              "type": "uint256"
                            }
                          ],
                          "internalType": "struct BigNumber",
                          "name": "value",
                          "type": "tuple"
                        }
                      ],
                      "internalType": "struct Zp",
                      "name": "b",
                      "type": "tuple"
                    }
                  ],
                  "internalType": "struct Zp_2",
                  "name": "b",
                  "type": "tuple"
                },
                {
                  "components": [
                    {
                      "components": [
                        {
                          "components": [
                            {
                              "internalType": "bytes",
                              "name": "val",
                              "type": "bytes"
                            },
                            {
                              "internalType": "bool",
                              "name": "neg",
                              "type": "bool"
                            },
                            {
                              "internalType": "uint256",
                              "name": "bitlen",
                              "type": "uint256"
                            }
                          ],
                          "internalType": "struct BigNumber",
                          "name": "value",
                          "type": "tuple"
                        }
                      ],
                      "internalType": "struct Zp",
                      "name": "a",
                      "type": "tuple"
                    },
                    {
                      "components": [
                        {
                          "components": [
                            {
                              "internalType": "bytes",
                              "name": "val",
                              "type": "bytes"
                            },
                            {
                              "internalType": "bool",
                              "name": "neg",
                              "type": "bool"
                            },
                            {
                              "internalType": "uint256",
                              "name": "bitlen",
                              "type": "uint256"
                            }
                          ],
                          "internalType": "struct BigNumber",
                          "name": "value",
                          "type": "tuple"
                        }
                      ],
                      "internalType": "struct Zp",
                      "name": "b",
                      "type": "tuple"
                    }
                  ],
                  "internalType": "struct Zp_2",
                  "name": "c",
                  "type": "tuple"
                }
              ],
              "internalType": "struct Zp_6",
              "name": "a",
              "type": "tuple"
            },
            {
              "components": [
                {
                  "components": [
                    {
                      "components": [
                        {
                          "components": [
                            {
                              "internalType": "bytes",
                              "name": "val",
                              "type": "bytes"
                            },
                            {
                              "internalType": "bool",
                              "name": "neg",
                              "type": "bool"
                            },
                            {
                              "internalType": "uint256",
                              "name": "bitlen",
                              "type": "uint256"
                            }
                          ],
                          "internalType": "struct BigNumber",
                          "name": "value",
                          "type": "tuple"
                        }
                      ],
                      "internalType": "struct Zp",
                      "name": "a",
                      "type": "tuple"
                    },
                    {
                      "components": [
                        {
                          "components": [
                            {
                              "internalType": "bytes",
                              "name": "val",
                              "type": "bytes"
                            },
                            {
                              "internalType": "bool",
                              "name": "neg",
                              "type": "bool"
                            },
                            {
                              "internalType": "uint256",
                              "name": "bitlen",
                              "type": "uint256"
                            }
                          ],
                          "internalType": "struct BigNumber",
                          "name": "value",
                          "type": "tuple"
                        }
                      ],
                      "internalType": "struct Zp",
                      "name": "b",
                      "type": "tuple"
                    }
                  ],
                  "internalType": "struct Zp_2",
                  "name": "a",
                  "type": "tuple"
                },
                {
                  "components": [
                    {
                      "components": [
                        {
                          "components": [
                            {
                              "internalType": "bytes",
                              "name": "val",
                              "type": "bytes"
                            },
                            {
                              "internalType": "bool",
                              "name": "neg",
                              "type": "bool"
                            },
                            {
                              "internalType": "uint256",
                              "name": "bitlen",
                              "type": "uint256"
                            }
                          ],
                          "internalType": "struct BigNumber",
                          "name": "value",
                          "type": "tuple"
                        }
                      ],
                      "internalType": "struct Zp",
                      "name": "a",
                      "type": "tuple"
                    },
                    {
                      "components": [
                        {
                          "components": [
                            {
                              "internalType": "bytes",
                              "name": "val",
                              "type": "bytes"
                            },
                            {
                              "internalType": "bool",
                              "name": "neg",
                              "type": "bool"
                            },
                            {
                              "internalType": "uint256",
                              "name": "bitlen",
                              "type": "uint256"
                            }
                          ],
                          "internalType": "struct BigNumber",
                          "name": "value",
                          "type": "tuple"
                        }
                      ],
                      "internalType": "struct Zp",
                      "name": "b",
                      "type": "tuple"
                    }
                  ],
                  "internalType": "struct Zp_2",
                  "name": "b",
                  "type": "tuple"
                },
                {
                  "components": [
                    {
                      "components": [
                        {
                          "components": [
                            {
                              "internalType": "bytes",
                              "name": "val",
                              "type": "bytes"
                            },
                            {
                              "internalType": "bool",
                              "name": "neg",
                              "type": "bool"
                            },
                            {
                              "internalType": "uint256",
                              "name": "bitlen",
                              "type": "uint256"
                            }
                          ],
                          "internalType": "struct BigNumber",
                          "name": "value",
                          "type": "tuple"
                        }
                      ],
                      "internalType": "struct Zp",
                      "name": "a",
                      "type": "tuple"
                    },
                    {
                      "components": [
                        {
                          "components": [
                            {
                              "internalType": "bytes",
                              "name": "val",
                              "type": "bytes"
                            },
                            {
                              "internalType": "bool",
                              "name": "neg",
                              "type": "bool"
                            },
                            {
                              "internalType": "uint256",
                              "name": "bitlen",
                              "type": "uint256"
                            }
                          ],
                          "internalType": "struct BigNumber",
                          "name": "value",
                          "type": "tuple"
                        }
                      ],
                      "internalType": "struct Zp",
                      "name": "b",
                      "type": "tuple"
                    }
                  ],
                  "internalType": "struct Zp_2",
                  "name": "c",
                  "type": "tuple"
                }
              ],
              "internalType": "struct Zp_6",
              "name": "b",
              "type": "tuple"
            }
          ],
          "internalType": "struct Zp_12",
          "name": "x",
          "type": "tuple"
        },
        {
          "components": [
            {
              "components": [
                {
                  "components": [
                    {
                      "components": [
                        {
                          "components": [
                            {
                              "internalType": "bytes",
                              "name": "val",
                              "type": "bytes"
                            },
                            {
                              "internalType": "bool",
                              "name": "neg",
                              "type": "bool"
                            },
                            {
                              "internalType": "uint256",
                              "name": "bitlen",
                              "type": "uint256"
                            }
                          ],
                          "internalType": "struct BigNumber",
                          "name": "value",
                          "type": "tuple"
                        }
                      ],
                      "internalType": "struct Zp",
                      "name": "a",
                      "type": "tuple"
                    },
                    {
                      "components": [
                        {
                          "components": [
                            {
                              "internalType": "bytes",
                              "name": "val",
                              "type": "bytes"
                            },
                            {
                              "internalType": "bool",
                              "name": "neg",
                              "type": "bool"
                            },
                            {
                              "internalType": "uint256",
                              "name": "bitlen",
                              "type": "uint256"
                            }
                          ],
                          "internalType": "struct BigNumber",
                          "name": "value",
                          "type": "tuple"
                        }
                      ],
                      "internalType": "struct Zp",
                      "name": "b",
                      "type": "tuple"
                    }
                  ],
                  "internalType": "struct Zp_2",
                  "name": "a",
                  "type": "tuple"
                },
                {
                  "components": [
                    {
                      "components": [
                        {
                          "components": [
                            {
                              "internalType": "bytes",
                              "name": "val",
                              "type": "bytes"
                            },
                            {
                              "internalType": "bool",
                              "name": "neg",
                              "type": "bool"
                            },
                            {
                              "internalType": "uint256",
                              "name": "bitlen",
                              "type": "uint256"
                            }
                          ],
                          "internalType": "struct BigNumber",
                          "name": "value",
                          "type": "tuple"
                        }
                      ],
                      "internalType": "struct Zp",
                      "name": "a",
                      "type": "tuple"
                    },
                    {
                      "components": [
                        {
                          "components": [
                            {
                              "internalType": "bytes",
                              "name": "val",
                              "type": "bytes"
                            },
                            {
                              "internalType": "bool",
                              "name": "neg",
                              "type": "bool"
                            },
                            {
                              "internalType": "uint256",
                              "name": "bitlen",
                              "type": "uint256"
                            }
                          ],
                          "internalType": "struct BigNumber",
                          "name": "value",
                          "type": "tuple"
                        }
                      ],
                      "internalType": "struct Zp",
                      "name": "b",
                      "type": "tuple"
                    }
                  ],
                  "internalType": "struct Zp_2",
                  "name": "b",
                  "type": "tuple"
                },
                {
                  "components": [
                    {
                      "components": [
                        {
                          "components": [
                            {
                              "internalType": "bytes",
                              "name": "val",
                              "type": "bytes"
                            },
                            {
                              "internalType": "bool",
                              "name": "neg",
                              "type": "bool"
                            },
                            {
                              "internalType": "uint256",
                              "name": "bitlen",
                              "type": "uint256"
                            }
                          ],
                          "internalType": "struct BigNumber",
                          "name": "value",
                          "type": "tuple"
                        }
                      ],
                      "internalType": "struct Zp",
                      "name": "a",
                      "type": "tuple"
                    },
                    {
                      "components": [
                        {
                          "components": [
                            {
                              "internalType": "bytes",
                              "name": "val",
                              "type": "bytes"
                            },
                            {
                              "internalType": "bool",
                              "name": "neg",
                              "type": "bool"
                            },
                            {
                              "internalType": "uint256",
                              "name": "bitlen",
                              "type": "uint256"
                            }
                          ],
                          "internalType": "struct BigNumber",
                          "name": "value",
                          "type": "tuple"
                        }
                      ],
                      "internalType": "struct Zp",
                      "name": "b",
                      "type": "tuple"
                    }
                  ],
                  "internalType": "struct Zp_2",
                  "name": "c",
                  "type": "tuple"
                }
              ],
              "internalType": "struct Zp_6",
              "name": "a",
              "type": "tuple"
            },
            {
              "components": [
                {
                  "components": [
                    {
                      "components": [
                        {
                          "components": [
                            {
                              "internalType": "bytes",
                              "name": "val",
                              "type": "bytes"
                            },
                            {
                              "internalType": "bool",
                              "name": "neg",
                              "type": "bool"
                            },
                            {
                              "internalType": "uint256",
                              "name": "bitlen",
                              "type": "uint256"
                            }
                          ],
                          "internalType": "struct BigNumber",
                          "name": "value",
                          "type": "tuple"
                        }
                      ],
                      "internalType": "struct Zp",
                      "name": "a",
                      "type": "tuple"
                    },
                    {
                      "components": [
                        {
                          "components": [
                            {
                              "internalType": "bytes",
                              "name": "val",
                              "type": "bytes"
                            },
                            {
                              "internalType": "bool",
                              "name": "neg",
                              "type": "bool"
                            },
                            {
                              "internalType": "uint256",
                              "name": "bitlen",
                              "type": "uint256"
                            }
                          ],
                          "internalType": "struct BigNumber",
                          "name": "value",
                          "type": "tuple"
                        }
                      ],
                      "internalType": "struct Zp",
                      "name": "b",
                      "type": "tuple"
                    }
                  ],
                  "internalType": "struct Zp_2",
                  "name": "a",
                  "type": "tuple"
                },
                {
                  "components": [
                    {
                      "components": [
                        {
                          "components": [
                            {
                              "internalType": "bytes",
                              "name": "val",
                              "type": "bytes"
                            },
                            {
                              "internalType": "bool",
                              "name": "neg",
                              "type": "bool"
                            },
                            {
                              "internalType": "uint256",
                              "name": "bitlen",
                              "type": "uint256"
                            }
                          ],
                          "internalType": "struct BigNumber",
                          "name": "value",
                          "type": "tuple"
                        }
                      ],
                      "internalType": "struct Zp",
                      "name": "a",
                      "type": "tuple"
                    },
                    {
                      "components": [
                        {
                          "components": [
                            {
                              "internalType": "bytes",
                              "name": "val",
                              "type": "bytes"
                            },
                            {
                              "internalType": "bool",
                              "name": "neg",
                              "type": "bool"
                            },
                            {
                              "internalType": "uint256",
                              "name": "bitlen",
                              "type": "uint256"
                            }
                          ],
                          "internalType": "struct BigNumber",
                          "name": "value",
                          "type": "tuple"
                        }
                      ],
                      "internalType": "struct Zp",
                      "name": "b",
                      "type": "tuple"
                    }
                  ],
                  "internalType": "struct Zp_2",
                  "name": "b",
                  "type": "tuple"
                },
                {
                  "components": [
                    {
                      "components": [
                        {
                          "components": [
                            {
                              "internalType": "bytes",
                              "name": "val",
                              "type": "bytes"
                            },
                            {
                              "internalType": "bool",
                              "name": "neg",
                              "type": "bool"
                            },
                            {
                              "internalType": "uint256",
                              "name": "bitlen",
                              "type": "uint256"
                            }
                          ],
                          "internalType": "struct BigNumber",
                          "name": "value",
                          "type": "tuple"
                        }
                      ],
                      "internalType": "struct Zp",
                      "name": "a",
                      "type": "tuple"
                    },
                    {
                      "components": [
                        {
                          "components": [
                            {
                              "internalType": "bytes",
                              "name": "val",
                              "type": "bytes"
                            },
                            {
                              "internalType": "bool",
                              "name": "neg",
                              "type": "bool"
                            },
                            {
                              "internalType": "uint256",
                              "name": "bitlen",
                              "type": "uint256"
                            }
                          ],
                          "internalType": "struct BigNumber",
                          "name": "value",
                          "type": "tuple"
                        }
                      ],
                      "internalType": "struct Zp",
                      "name": "b",
                      "type": "tuple"
                    }
                  ],
                  "internalType": "struct Zp_2",
                  "name": "c",
                  "type": "tuple"
                }
              ],
              "internalType": "struct Zp_6",
              "name": "b",
              "type": "tuple"
            }
          ],
          "internalType": "struct Zp_12",
          "name": "y",
          "type": "tuple"
        }
      ],
      "name": "equals",
      "outputs": [
        {
          "internalType": "bool",
          "name": "",
          "type": "bool"
        }
      ],
      "stateMutability": "view",
      "type": "function"
    },
    {
      "inputs": [],
      "name": "four",
      "outputs": [
        {
          "components": [
            {
              "components": [
                {
                  "components": [
                    {
                      "components": [
                        {
                          "components": [
                            {
                              "internalType": "bytes",
                              "name": "val",
                              "type": "bytes"
                            },
                            {
                              "internalType": "bool",
                              "name": "neg",
                              "type": "bool"
                            },
                            {
                              "internalType": "uint256",
                              "name": "bitlen",
                              "type": "uint256"
                            }
                          ],
                          "internalType": "struct BigNumber",
                          "name": "value",
                          "type": "tuple"
                        }
                      ],
                      "internalType": "struct Zp",
                      "name": "a",
                      "type": "tuple"
                    },
                    {
                      "components": [
                        {
                          "components": [
                            {
                              "internalType": "bytes",
                              "name": "val",
                              "type": "bytes"
                            },
                            {
                              "internalType": "bool",
                              "name": "neg",
                              "type": "bool"
                            },
                            {
                              "internalType": "uint256",
                              "name": "bitlen",
                              "type": "uint256"
                            }
                          ],
                          "internalType": "struct BigNumber",
                          "name": "value",
                          "type": "tuple"
                        }
                      ],
                      "internalType": "struct Zp",
                      "name": "b",
                      "type": "tuple"
                    }
                  ],
                  "internalType": "struct Zp_2",
                  "name": "a",
                  "type": "tuple"
                },
                {
                  "components": [
                    {
                      "components": [
                        {
                          "components": [
                            {
                              "internalType": "bytes",
                              "name": "val",
                              "type": "bytes"
                            },
                            {
                              "internalType": "bool",
                              "name": "neg",
                              "type": "bool"
                            },
                            {
                              "internalType": "uint256",
                              "name": "bitlen",
                              "type": "uint256"
                            }
                          ],
                          "internalType": "struct BigNumber",
                          "name": "value",
                          "type": "tuple"
                        }
                      ],
                      "internalType": "struct Zp",
                      "name": "a",
                      "type": "tuple"
                    },
                    {
                      "components": [
                        {
                          "components": [
                            {
                              "internalType": "bytes",
                              "name": "val",
                              "type": "bytes"
                            },
                            {
                              "internalType": "bool",
                              "name": "neg",
                              "type": "bool"
                            },
                            {
                              "internalType": "uint256",
                              "name": "bitlen",
                              "type": "uint256"
                            }
                          ],
                          "internalType": "struct BigNumber",
                          "name": "value",
                          "type": "tuple"
                        }
                      ],
                      "internalType": "struct Zp",
                      "name": "b",
                      "type": "tuple"
                    }
                  ],
                  "internalType": "struct Zp_2",
                  "name": "b",
                  "type": "tuple"
                },
                {
                  "components": [
                    {
                      "components": [
                        {
                          "components": [
                            {
                              "internalType": "bytes",
                              "name": "val",
                              "type": "bytes"
                            },
                            {
                              "internalType": "bool",
                              "name": "neg",
                              "type": "bool"
                            },
                            {
                              "internalType": "uint256",
                              "name": "bitlen",
                              "type": "uint256"
                            }
                          ],
                          "internalType": "struct BigNumber",
                          "name": "value",
                          "type": "tuple"
                        }
                      ],
                      "internalType": "struct Zp",
                      "name": "a",
                      "type": "tuple"
                    },
                    {
                      "components": [
                        {
                          "components": [
                            {
                              "internalType": "bytes",
                              "name": "val",
                              "type": "bytes"
                            },
                            {
                              "internalType": "bool",
                              "name": "neg",
                              "type": "bool"
                            },
                            {
                              "internalType": "uint256",
                              "name": "bitlen",
                              "type": "uint256"
                            }
                          ],
                          "internalType": "struct BigNumber",
                          "name": "value",
                          "type": "tuple"
                        }
                      ],
                      "internalType": "struct Zp",
                      "name": "b",
                      "type": "tuple"
                    }
                  ],
                  "internalType": "struct Zp_2",
                  "name": "c",
                  "type": "tuple"
                }
              ],
              "internalType": "struct Zp_6",
              "name": "a",
              "type": "tuple"
            },
            {
              "components": [
                {
                  "components": [
                    {
                      "components": [
                        {
                          "components": [
                            {
                              "internalType": "bytes",
                              "name": "val",
                              "type": "bytes"
                            },
                            {
                              "internalType": "bool",
                              "name": "neg",
                              "type": "bool"
                            },
                            {
                              "internalType": "uint256",
                              "name": "bitlen",
                              "type": "uint256"
                            }
                          ],
                          "internalType": "struct BigNumber",
                          "name": "value",
                          "type": "tuple"
                        }
                      ],
                      "internalType": "struct Zp",
                      "name": "a",
                      "type": "tuple"
                    },
                    {
                      "components": [
                        {
                          "components": [
                            {
                              "internalType": "bytes",
                              "name": "val",
                              "type": "bytes"
                            },
                            {
                              "internalType": "bool",
                              "name": "neg",
                              "type": "bool"
                            },
                            {
                              "internalType": "uint256",
                              "name": "bitlen",
                              "type": "uint256"
                            }
                          ],
                          "internalType": "struct BigNumber",
                          "name": "value",
                          "type": "tuple"
                        }
                      ],
                      "internalType": "struct Zp",
                      "name": "b",
                      "type": "tuple"
                    }
                  ],
                  "internalType": "struct Zp_2",
                  "name": "a",
                  "type": "tuple"
                },
                {
                  "components": [
                    {
                      "components": [
                        {
                          "components": [
                            {
                              "internalType": "bytes",
                              "name": "val",
                              "type": "bytes"
                            },
                            {
                              "internalType": "bool",
                              "name": "neg",
                              "type": "bool"
                            },
                            {
                              "internalType": "uint256",
                              "name": "bitlen",
                              "type": "uint256"
                            }
                          ],
                          "internalType": "struct BigNumber",
                          "name": "value",
                          "type": "tuple"
                        }
                      ],
                      "internalType": "struct Zp",
                      "name": "a",
                      "type": "tuple"
                    },
                    {
                      "components": [
                        {
                          "components": [
                            {
                              "internalType": "bytes",
                              "name": "val",
                              "type": "bytes"
                            },
                            {
                              "internalType": "bool",
                              "name": "neg",
                              "type": "bool"
                            },
                            {
                              "internalType": "uint256",
                              "name": "bitlen",
                              "type": "uint256"
                            }
                          ],
                          "internalType": "struct BigNumber",
                          "name": "value",
                          "type": "tuple"
                        }
                      ],
                      "internalType": "struct Zp",
                      "name": "b",
                      "type": "tuple"
                    }
                  ],
                  "internalType": "struct Zp_2",
                  "name": "b",
                  "type": "tuple"
                },
                {
                  "components": [
                    {
                      "components": [
                        {
                          "components": [
                            {
                              "internalType": "bytes",
                              "name": "val",
                              "type": "bytes"
                            },
                            {
                              "internalType": "bool",
                              "name": "neg",
                              "type": "bool"
                            },
                            {
                              "internalType": "uint256",
                              "name": "bitlen",
                              "type": "uint256"
                            }
                          ],
                          "internalType": "struct BigNumber",
                          "name": "value",
                          "type": "tuple"
                        }
                      ],
                      "internalType": "struct Zp",
                      "name": "a",
                      "type": "tuple"
                    },
                    {
                      "components": [
                        {
                          "components": [
                            {
                              "internalType": "bytes",
                              "name": "val",
                              "type": "bytes"
                            },
                            {
                              "internalType": "bool",
                              "name": "neg",
                              "type": "bool"
                            },
                            {
                              "internalType": "uint256",
                              "name": "bitlen",
                              "type": "uint256"
                            }
                          ],
                          "internalType": "struct BigNumber",
                          "name": "value",
                          "type": "tuple"
                        }
                      ],
                      "internalType": "struct Zp",
                      "name": "b",
                      "type": "tuple"
                    }
                  ],
                  "internalType": "struct Zp_2",
                  "name": "c",
                  "type": "tuple"
                }
              ],
              "internalType": "struct Zp_6",
              "name": "b",
              "type": "tuple"
            }
          ],
          "internalType": "struct Zp_12",
          "name": "",
          "type": "tuple"
        }
      ],
      "stateMutability": "view",
      "type": "function"
    },
    {
      "inputs": [
        {
          "components": [
            {
              "components": [
                {
                  "internalType": "bytes",
                  "name": "val",
                  "type": "bytes"
                },
                {
                  "internalType": "bool",
                  "name": "neg",
                  "type": "bool"
                },
                {
                  "internalType": "uint256",
                  "name": "bitlen",
                  "type": "uint256"
                }
              ],
              "internalType": "struct BigNumber",
              "name": "value",
              "type": "tuple"
            }
          ],
          "internalType": "struct Zp",
          "name": "value",
          "type": "tuple"
        }
      ],
      "name": "fromZp",
      "outputs": [
        {
          "components": [
            {
              "components": [
                {
                  "components": [
                    {
                      "components": [
                        {
                          "components": [
                            {
                              "internalType": "bytes",
                              "name": "val",
                              "type": "bytes"
                            },
                            {
                              "internalType": "bool",
                              "name": "neg",
                              "type": "bool"
                            },
                            {
                              "internalType": "uint256",
                              "name": "bitlen",
                              "type": "uint256"
                            }
                          ],
                          "internalType": "struct BigNumber",
                          "name": "value",
                          "type": "tuple"
                        }
                      ],
                      "internalType": "struct Zp",
                      "name": "a",
                      "type": "tuple"
                    },
                    {
                      "components": [
                        {
                          "components": [
                            {
                              "internalType": "bytes",
                              "name": "val",
                              "type": "bytes"
                            },
                            {
                              "internalType": "bool",
                              "name": "neg",
                              "type": "bool"
                            },
                            {
                              "internalType": "uint256",
                              "name": "bitlen",
                              "type": "uint256"
                            }
                          ],
                          "internalType": "struct BigNumber",
                          "name": "value",
                          "type": "tuple"
                        }
                      ],
                      "internalType": "struct Zp",
                      "name": "b",
                      "type": "tuple"
                    }
                  ],
                  "internalType": "struct Zp_2",
                  "name": "a",
                  "type": "tuple"
                },
                {
                  "components": [
                    {
                      "components": [
                        {
                          "components": [
                            {
                              "internalType": "bytes",
                              "name": "val",
                              "type": "bytes"
                            },
                            {
                              "internalType": "bool",
                              "name": "neg",
                              "type": "bool"
                            },
                            {
                              "internalType": "uint256",
                              "name": "bitlen",
                              "type": "uint256"
                            }
                          ],
                          "internalType": "struct BigNumber",
                          "name": "value",
                          "type": "tuple"
                        }
                      ],
                      "internalType": "struct Zp",
                      "name": "a",
                      "type": "tuple"
                    },
                    {
                      "components": [
                        {
                          "components": [
                            {
                              "internalType": "bytes",
                              "name": "val",
                              "type": "bytes"
                            },
                            {
                              "internalType": "bool",
                              "name": "neg",
                              "type": "bool"
                            },
                            {
                              "internalType": "uint256",
                              "name": "bitlen",
                              "type": "uint256"
                            }
                          ],
                          "internalType": "struct BigNumber",
                          "name": "value",
                          "type": "tuple"
                        }
                      ],
                      "internalType": "struct Zp",
                      "name": "b",
                      "type": "tuple"
                    }
                  ],
                  "internalType": "struct Zp_2",
                  "name": "b",
                  "type": "tuple"
                },
                {
                  "components": [
                    {
                      "components": [
                        {
                          "components": [
                            {
                              "internalType": "bytes",
                              "name": "val",
                              "type": "bytes"
                            },
                            {
                              "internalType": "bool",
                              "name": "neg",
                              "type": "bool"
                            },
                            {
                              "internalType": "uint256",
                              "name": "bitlen",
                              "type": "uint256"
                            }
                          ],
                          "internalType": "struct BigNumber",
                          "name": "value",
                          "type": "tuple"
                        }
                      ],
                      "internalType": "struct Zp",
                      "name": "a",
                      "type": "tuple"
                    },
                    {
                      "components": [
                        {
                          "components": [
                            {
                              "internalType": "bytes",
                              "name": "val",
                              "type": "bytes"
                            },
                            {
                              "internalType": "bool",
                              "name": "neg",
                              "type": "bool"
                            },
                            {
                              "internalType": "uint256",
                              "name": "bitlen",
                              "type": "uint256"
                            }
                          ],
                          "internalType": "struct BigNumber",
                          "name": "value",
                          "type": "tuple"
                        }
                      ],
                      "internalType": "struct Zp",
                      "name": "b",
                      "type": "tuple"
                    }
                  ],
                  "internalType": "struct Zp_2",
                  "name": "c",
                  "type": "tuple"
                }
              ],
              "internalType": "struct Zp_6",
              "name": "a",
              "type": "tuple"
            },
            {
              "components": [
                {
                  "components": [
                    {
                      "components": [
                        {
                          "components": [
                            {
                              "internalType": "bytes",
                              "name": "val",
                              "type": "bytes"
                            },
                            {
                              "internalType": "bool",
                              "name": "neg",
                              "type": "bool"
                            },
                            {
                              "internalType": "uint256",
                              "name": "bitlen",
                              "type": "uint256"
                            }
                          ],
                          "internalType": "struct BigNumber",
                          "name": "value",
                          "type": "tuple"
                        }
                      ],
                      "internalType": "struct Zp",
                      "name": "a",
                      "type": "tuple"
                    },
                    {
                      "components": [
                        {
                          "components": [
                            {
                              "internalType": "bytes",
                              "name": "val",
                              "type": "bytes"
                            },
                            {
                              "internalType": "bool",
                              "name": "neg",
                              "type": "bool"
                            },
                            {
                              "internalType": "uint256",
                              "name": "bitlen",
                              "type": "uint256"
                            }
                          ],
                          "internalType": "struct BigNumber",
                          "name": "value",
                          "type": "tuple"
                        }
                      ],
                      "internalType": "struct Zp",
                      "name": "b",
                      "type": "tuple"
                    }
                  ],
                  "internalType": "struct Zp_2",
                  "name": "a",
                  "type": "tuple"
                },
                {
                  "components": [
                    {
                      "components": [
                        {
                          "components": [
                            {
                              "internalType": "bytes",
                              "name": "val",
                              "type": "bytes"
                            },
                            {
                              "internalType": "bool",
                              "name": "neg",
                              "type": "bool"
                            },
                            {
                              "internalType": "uint256",
                              "name": "bitlen",
                              "type": "uint256"
                            }
                          ],
                          "internalType": "struct BigNumber",
                          "name": "value",
                          "type": "tuple"
                        }
                      ],
                      "internalType": "struct Zp",
                      "name": "a",
                      "type": "tuple"
                    },
                    {
                      "components": [
                        {
                          "components": [
                            {
                              "internalType": "bytes",
                              "name": "val",
                              "type": "bytes"
                            },
                            {
                              "internalType": "bool",
                              "name": "neg",
                              "type": "bool"
                            },
                            {
                              "internalType": "uint256",
                              "name": "bitlen",
                              "type": "uint256"
                            }
                          ],
                          "internalType": "struct BigNumber",
                          "name": "value",
                          "type": "tuple"
                        }
                      ],
                      "internalType": "struct Zp",
                      "name": "b",
                      "type": "tuple"
                    }
                  ],
                  "internalType": "struct Zp_2",
                  "name": "b",
                  "type": "tuple"
                },
                {
                  "components": [
                    {
                      "components": [
                        {
                          "components": [
                            {
                              "internalType": "bytes",
                              "name": "val",
                              "type": "bytes"
                            },
                            {
                              "internalType": "bool",
                              "name": "neg",
                              "type": "bool"
                            },
                            {
                              "internalType": "uint256",
                              "name": "bitlen",
                              "type": "uint256"
                            }
                          ],
                          "internalType": "struct BigNumber",
                          "name": "value",
                          "type": "tuple"
                        }
                      ],
                      "internalType": "struct Zp",
                      "name": "a",
                      "type": "tuple"
                    },
                    {
                      "components": [
                        {
                          "components": [
                            {
                              "internalType": "bytes",
                              "name": "val",
                              "type": "bytes"
                            },
                            {
                              "internalType": "bool",
                              "name": "neg",
                              "type": "bool"
                            },
                            {
                              "internalType": "uint256",
                              "name": "bitlen",
                              "type": "uint256"
                            }
                          ],
                          "internalType": "struct BigNumber",
                          "name": "value",
                          "type": "tuple"
                        }
                      ],
                      "internalType": "struct Zp",
                      "name": "b",
                      "type": "tuple"
                    }
                  ],
                  "internalType": "struct Zp_2",
                  "name": "c",
                  "type": "tuple"
                }
              ],
              "internalType": "struct Zp_6",
              "name": "b",
              "type": "tuple"
            }
          ],
          "internalType": "struct Zp_12",
          "name": "",
          "type": "tuple"
        }
      ],
      "stateMutability": "view",
      "type": "function"
    },
    {
      "inputs": [
        {
          "components": [
            {
              "components": [
                {
                  "components": [
                    {
                      "components": [
                        {
                          "components": [
                            {
                              "internalType": "bytes",
                              "name": "val",
                              "type": "bytes"
                            },
                            {
                              "internalType": "bool",
                              "name": "neg",
                              "type": "bool"
                            },
                            {
                              "internalType": "uint256",
                              "name": "bitlen",
                              "type": "uint256"
                            }
                          ],
                          "internalType": "struct BigNumber",
                          "name": "value",
                          "type": "tuple"
                        }
                      ],
                      "internalType": "struct Zp",
                      "name": "a",
                      "type": "tuple"
                    },
                    {
                      "components": [
                        {
                          "components": [
                            {
                              "internalType": "bytes",
                              "name": "val",
                              "type": "bytes"
                            },
                            {
                              "internalType": "bool",
                              "name": "neg",
                              "type": "bool"
                            },
                            {
                              "internalType": "uint256",
                              "name": "bitlen",
                              "type": "uint256"
                            }
                          ],
                          "internalType": "struct BigNumber",
                          "name": "value",
                          "type": "tuple"
                        }
                      ],
                      "internalType": "struct Zp",
                      "name": "b",
                      "type": "tuple"
                    }
                  ],
                  "internalType": "struct Zp_2",
                  "name": "a",
                  "type": "tuple"
                },
                {
                  "components": [
                    {
                      "components": [
                        {
                          "components": [
                            {
                              "internalType": "bytes",
                              "name": "val",
                              "type": "bytes"
                            },
                            {
                              "internalType": "bool",
                              "name": "neg",
                              "type": "bool"
                            },
                            {
                              "internalType": "uint256",
                              "name": "bitlen",
                              "type": "uint256"
                            }
                          ],
                          "internalType": "struct BigNumber",
                          "name": "value",
                          "type": "tuple"
                        }
                      ],
                      "internalType": "struct Zp",
                      "name": "a",
                      "type": "tuple"
                    },
                    {
                      "components": [
                        {
                          "components": [
                            {
                              "internalType": "bytes",
                              "name": "val",
                              "type": "bytes"
                            },
                            {
                              "internalType": "bool",
                              "name": "neg",
                              "type": "bool"
                            },
                            {
                              "internalType": "uint256",
                              "name": "bitlen",
                              "type": "uint256"
                            }
                          ],
                          "internalType": "struct BigNumber",
                          "name": "value",
                          "type": "tuple"
                        }
                      ],
                      "internalType": "struct Zp",
                      "name": "b",
                      "type": "tuple"
                    }
                  ],
                  "internalType": "struct Zp_2",
                  "name": "b",
                  "type": "tuple"
                },
                {
                  "components": [
                    {
                      "components": [
                        {
                          "components": [
                            {
                              "internalType": "bytes",
                              "name": "val",
                              "type": "bytes"
                            },
                            {
                              "internalType": "bool",
                              "name": "neg",
                              "type": "bool"
                            },
                            {
                              "internalType": "uint256",
                              "name": "bitlen",
                              "type": "uint256"
                            }
                          ],
                          "internalType": "struct BigNumber",
                          "name": "value",
                          "type": "tuple"
                        }
                      ],
                      "internalType": "struct Zp",
                      "name": "a",
                      "type": "tuple"
                    },
                    {
                      "components": [
                        {
                          "components": [
                            {
                              "internalType": "bytes",
                              "name": "val",
                              "type": "bytes"
                            },
                            {
                              "internalType": "bool",
                              "name": "neg",
                              "type": "bool"
                            },
                            {
                              "internalType": "uint256",
                              "name": "bitlen",
                              "type": "uint256"
                            }
                          ],
                          "internalType": "struct BigNumber",
                          "name": "value",
                          "type": "tuple"
                        }
                      ],
                      "internalType": "struct Zp",
                      "name": "b",
                      "type": "tuple"
                    }
                  ],
                  "internalType": "struct Zp_2",
                  "name": "c",
                  "type": "tuple"
                }
              ],
              "internalType": "struct Zp_6",
              "name": "a",
              "type": "tuple"
            },
            {
              "components": [
                {
                  "components": [
                    {
                      "components": [
                        {
                          "components": [
                            {
                              "internalType": "bytes",
                              "name": "val",
                              "type": "bytes"
                            },
                            {
                              "internalType": "bool",
                              "name": "neg",
                              "type": "bool"
                            },
                            {
                              "internalType": "uint256",
                              "name": "bitlen",
                              "type": "uint256"
                            }
                          ],
                          "internalType": "struct BigNumber",
                          "name": "value",
                          "type": "tuple"
                        }
                      ],
                      "internalType": "struct Zp",
                      "name": "a",
                      "type": "tuple"
                    },
                    {
                      "components": [
                        {
                          "components": [
                            {
                              "internalType": "bytes",
                              "name": "val",
                              "type": "bytes"
                            },
                            {
                              "internalType": "bool",
                              "name": "neg",
                              "type": "bool"
                            },
                            {
                              "internalType": "uint256",
                              "name": "bitlen",
                              "type": "uint256"
                            }
                          ],
                          "internalType": "struct BigNumber",
                          "name": "value",
                          "type": "tuple"
                        }
                      ],
                      "internalType": "struct Zp",
                      "name": "b",
                      "type": "tuple"
                    }
                  ],
                  "internalType": "struct Zp_2",
                  "name": "a",
                  "type": "tuple"
                },
                {
                  "components": [
                    {
                      "components": [
                        {
                          "components": [
                            {
                              "internalType": "bytes",
                              "name": "val",
                              "type": "bytes"
                            },
                            {
                              "internalType": "bool",
                              "name": "neg",
                              "type": "bool"
                            },
                            {
                              "internalType": "uint256",
                              "name": "bitlen",
                              "type": "uint256"
                            }
                          ],
                          "internalType": "struct BigNumber",
                          "name": "value",
                          "type": "tuple"
                        }
                      ],
                      "internalType": "struct Zp",
                      "name": "a",
                      "type": "tuple"
                    },
                    {
                      "components": [
                        {
                          "components": [
                            {
                              "internalType": "bytes",
                              "name": "val",
                              "type": "bytes"
                            },
                            {
                              "internalType": "bool",
                              "name": "neg",
                              "type": "bool"
                            },
                            {
                              "internalType": "uint256",
                              "name": "bitlen",
                              "type": "uint256"
                            }
                          ],
                          "internalType": "struct BigNumber",
                          "name": "value",
                          "type": "tuple"
                        }
                      ],
                      "internalType": "struct Zp",
                      "name": "b",
                      "type": "tuple"
                    }
                  ],
                  "internalType": "struct Zp_2",
                  "name": "b",
                  "type": "tuple"
                },
                {
                  "components": [
                    {
                      "components": [
                        {
                          "components": [
                            {
                              "internalType": "bytes",
                              "name": "val",
                              "type": "bytes"
                            },
                            {
                              "internalType": "bool",
                              "name": "neg",
                              "type": "bool"
                            },
                            {
                              "internalType": "uint256",
                              "name": "bitlen",
                              "type": "uint256"
                            }
                          ],
                          "internalType": "struct BigNumber",
                          "name": "value",
                          "type": "tuple"
                        }
                      ],
                      "internalType": "struct Zp",
                      "name": "a",
                      "type": "tuple"
                    },
                    {
                      "components": [
                        {
                          "components": [
                            {
                              "internalType": "bytes",
                              "name": "val",
                              "type": "bytes"
                            },
                            {
                              "internalType": "bool",
                              "name": "neg",
                              "type": "bool"
                            },
                            {
                              "internalType": "uint256",
                              "name": "bitlen",
                              "type": "uint256"
                            }
                          ],
                          "internalType": "struct BigNumber",
                          "name": "value",
                          "type": "tuple"
                        }
                      ],
                      "internalType": "struct Zp",
                      "name": "b",
                      "type": "tuple"
                    }
                  ],
                  "internalType": "struct Zp_2",
                  "name": "c",
                  "type": "tuple"
                }
              ],
              "internalType": "struct Zp_6",
              "name": "b",
              "type": "tuple"
            }
          ],
          "internalType": "struct Zp_12",
          "name": "x",
          "type": "tuple"
        }
      ],
      "name": "inverse",
      "outputs": [
        {
          "components": [
            {
              "components": [
                {
                  "components": [
                    {
                      "components": [
                        {
                          "components": [
                            {
                              "internalType": "bytes",
                              "name": "val",
                              "type": "bytes"
                            },
                            {
                              "internalType": "bool",
                              "name": "neg",
                              "type": "bool"
                            },
                            {
                              "internalType": "uint256",
                              "name": "bitlen",
                              "type": "uint256"
                            }
                          ],
                          "internalType": "struct BigNumber",
                          "name": "value",
                          "type": "tuple"
                        }
                      ],
                      "internalType": "struct Zp",
                      "name": "a",
                      "type": "tuple"
                    },
                    {
                      "components": [
                        {
                          "components": [
                            {
                              "internalType": "bytes",
                              "name": "val",
                              "type": "bytes"
                            },
                            {
                              "internalType": "bool",
                              "name": "neg",
                              "type": "bool"
                            },
                            {
                              "internalType": "uint256",
                              "name": "bitlen",
                              "type": "uint256"
                            }
                          ],
                          "internalType": "struct BigNumber",
                          "name": "value",
                          "type": "tuple"
                        }
                      ],
                      "internalType": "struct Zp",
                      "name": "b",
                      "type": "tuple"
                    }
                  ],
                  "internalType": "struct Zp_2",
                  "name": "a",
                  "type": "tuple"
                },
                {
                  "components": [
                    {
                      "components": [
                        {
                          "components": [
                            {
                              "internalType": "bytes",
                              "name": "val",
                              "type": "bytes"
                            },
                            {
                              "internalType": "bool",
                              "name": "neg",
                              "type": "bool"
                            },
                            {
                              "internalType": "uint256",
                              "name": "bitlen",
                              "type": "uint256"
                            }
                          ],
                          "internalType": "struct BigNumber",
                          "name": "value",
                          "type": "tuple"
                        }
                      ],
                      "internalType": "struct Zp",
                      "name": "a",
                      "type": "tuple"
                    },
                    {
                      "components": [
                        {
                          "components": [
                            {
                              "internalType": "bytes",
                              "name": "val",
                              "type": "bytes"
                            },
                            {
                              "internalType": "bool",
                              "name": "neg",
                              "type": "bool"
                            },
                            {
                              "internalType": "uint256",
                              "name": "bitlen",
                              "type": "uint256"
                            }
                          ],
                          "internalType": "struct BigNumber",
                          "name": "value",
                          "type": "tuple"
                        }
                      ],
                      "internalType": "struct Zp",
                      "name": "b",
                      "type": "tuple"
                    }
                  ],
                  "internalType": "struct Zp_2",
                  "name": "b",
                  "type": "tuple"
                },
                {
                  "components": [
                    {
                      "components": [
                        {
                          "components": [
                            {
                              "internalType": "bytes",
                              "name": "val",
                              "type": "bytes"
                            },
                            {
                              "internalType": "bool",
                              "name": "neg",
                              "type": "bool"
                            },
                            {
                              "internalType": "uint256",
                              "name": "bitlen",
                              "type": "uint256"
                            }
                          ],
                          "internalType": "struct BigNumber",
                          "name": "value",
                          "type": "tuple"
                        }
                      ],
                      "internalType": "struct Zp",
                      "name": "a",
                      "type": "tuple"
                    },
                    {
                      "components": [
                        {
                          "components": [
                            {
                              "internalType": "bytes",
                              "name": "val",
                              "type": "bytes"
                            },
                            {
                              "internalType": "bool",
                              "name": "neg",
                              "type": "bool"
                            },
                            {
                              "internalType": "uint256",
                              "name": "bitlen",
                              "type": "uint256"
                            }
                          ],
                          "internalType": "struct BigNumber",
                          "name": "value",
                          "type": "tuple"
                        }
                      ],
                      "internalType": "struct Zp",
                      "name": "b",
                      "type": "tuple"
                    }
                  ],
                  "internalType": "struct Zp_2",
                  "name": "c",
                  "type": "tuple"
                }
              ],
              "internalType": "struct Zp_6",
              "name": "a",
              "type": "tuple"
            },
            {
              "components": [
                {
                  "components": [
                    {
                      "components": [
                        {
                          "components": [
                            {
                              "internalType": "bytes",
                              "name": "val",
                              "type": "bytes"
                            },
                            {
                              "internalType": "bool",
                              "name": "neg",
                              "type": "bool"
                            },
                            {
                              "internalType": "uint256",
                              "name": "bitlen",
                              "type": "uint256"
                            }
                          ],
                          "internalType": "struct BigNumber",
                          "name": "value",
                          "type": "tuple"
                        }
                      ],
                      "internalType": "struct Zp",
                      "name": "a",
                      "type": "tuple"
                    },
                    {
                      "components": [
                        {
                          "components": [
                            {
                              "internalType": "bytes",
                              "name": "val",
                              "type": "bytes"
                            },
                            {
                              "internalType": "bool",
                              "name": "neg",
                              "type": "bool"
                            },
                            {
                              "internalType": "uint256",
                              "name": "bitlen",
                              "type": "uint256"
                            }
                          ],
                          "internalType": "struct BigNumber",
                          "name": "value",
                          "type": "tuple"
                        }
                      ],
                      "internalType": "struct Zp",
                      "name": "b",
                      "type": "tuple"
                    }
                  ],
                  "internalType": "struct Zp_2",
                  "name": "a",
                  "type": "tuple"
                },
                {
                  "components": [
                    {
                      "components": [
                        {
                          "components": [
                            {
                              "internalType": "bytes",
                              "name": "val",
                              "type": "bytes"
                            },
                            {
                              "internalType": "bool",
                              "name": "neg",
                              "type": "bool"
                            },
                            {
                              "internalType": "uint256",
                              "name": "bitlen",
                              "type": "uint256"
                            }
                          ],
                          "internalType": "struct BigNumber",
                          "name": "value",
                          "type": "tuple"
                        }
                      ],
                      "internalType": "struct Zp",
                      "name": "a",
                      "type": "tuple"
                    },
                    {
                      "components": [
                        {
                          "components": [
                            {
                              "internalType": "bytes",
                              "name": "val",
                              "type": "bytes"
                            },
                            {
                              "internalType": "bool",
                              "name": "neg",
                              "type": "bool"
                            },
                            {
                              "internalType": "uint256",
                              "name": "bitlen",
                              "type": "uint256"
                            }
                          ],
                          "internalType": "struct BigNumber",
                          "name": "value",
                          "type": "tuple"
                        }
                      ],
                      "internalType": "struct Zp",
                      "name": "b",
                      "type": "tuple"
                    }
                  ],
                  "internalType": "struct Zp_2",
                  "name": "b",
                  "type": "tuple"
                },
                {
                  "components": [
                    {
                      "components": [
                        {
                          "components": [
                            {
                              "internalType": "bytes",
                              "name": "val",
                              "type": "bytes"
                            },
                            {
                              "internalType": "bool",
                              "name": "neg",
                              "type": "bool"
                            },
                            {
                              "internalType": "uint256",
                              "name": "bitlen",
                              "type": "uint256"
                            }
                          ],
                          "internalType": "struct BigNumber",
                          "name": "value",
                          "type": "tuple"
                        }
                      ],
                      "internalType": "struct Zp",
                      "name": "a",
                      "type": "tuple"
                    },
                    {
                      "components": [
                        {
                          "components": [
                            {
                              "internalType": "bytes",
                              "name": "val",
                              "type": "bytes"
                            },
                            {
                              "internalType": "bool",
                              "name": "neg",
                              "type": "bool"
                            },
                            {
                              "internalType": "uint256",
                              "name": "bitlen",
                              "type": "uint256"
                            }
                          ],
                          "internalType": "struct BigNumber",
                          "name": "value",
                          "type": "tuple"
                        }
                      ],
                      "internalType": "struct Zp",
                      "name": "b",
                      "type": "tuple"
                    }
                  ],
                  "internalType": "struct Zp_2",
                  "name": "c",
                  "type": "tuple"
                }
              ],
              "internalType": "struct Zp_6",
              "name": "b",
              "type": "tuple"
            }
          ],
          "internalType": "struct Zp_12",
          "name": "",
          "type": "tuple"
        }
      ],
      "stateMutability": "view",
      "type": "function"
    },
    {
      "inputs": [
        {
          "components": [
            {
              "components": [
                {
                  "components": [
                    {
                      "components": [
                        {
                          "components": [
                            {
                              "internalType": "bytes",
                              "name": "val",
                              "type": "bytes"
                            },
                            {
                              "internalType": "bool",
                              "name": "neg",
                              "type": "bool"
                            },
                            {
                              "internalType": "uint256",
                              "name": "bitlen",
                              "type": "uint256"
                            }
                          ],
                          "internalType": "struct BigNumber",
                          "name": "value",
                          "type": "tuple"
                        }
                      ],
                      "internalType": "struct Zp",
                      "name": "a",
                      "type": "tuple"
                    },
                    {
                      "components": [
                        {
                          "components": [
                            {
                              "internalType": "bytes",
                              "name": "val",
                              "type": "bytes"
                            },
                            {
                              "internalType": "bool",
                              "name": "neg",
                              "type": "bool"
                            },
                            {
                              "internalType": "uint256",
                              "name": "bitlen",
                              "type": "uint256"
                            }
                          ],
                          "internalType": "struct BigNumber",
                          "name": "value",
                          "type": "tuple"
                        }
                      ],
                      "internalType": "struct Zp",
                      "name": "b",
                      "type": "tuple"
                    }
                  ],
                  "internalType": "struct Zp_2",
                  "name": "a",
                  "type": "tuple"
                },
                {
                  "components": [
                    {
                      "components": [
                        {
                          "components": [
                            {
                              "internalType": "bytes",
                              "name": "val",
                              "type": "bytes"
                            },
                            {
                              "internalType": "bool",
                              "name": "neg",
                              "type": "bool"
                            },
                            {
                              "internalType": "uint256",
                              "name": "bitlen",
                              "type": "uint256"
                            }
                          ],
                          "internalType": "struct BigNumber",
                          "name": "value",
                          "type": "tuple"
                        }
                      ],
                      "internalType": "struct Zp",
                      "name": "a",
                      "type": "tuple"
                    },
                    {
                      "components": [
                        {
                          "components": [
                            {
                              "internalType": "bytes",
                              "name": "val",
                              "type": "bytes"
                            },
                            {
                              "internalType": "bool",
                              "name": "neg",
                              "type": "bool"
                            },
                            {
                              "internalType": "uint256",
                              "name": "bitlen",
                              "type": "uint256"
                            }
                          ],
                          "internalType": "struct BigNumber",
                          "name": "value",
                          "type": "tuple"
                        }
                      ],
                      "internalType": "struct Zp",
                      "name": "b",
                      "type": "tuple"
                    }
                  ],
                  "internalType": "struct Zp_2",
                  "name": "b",
                  "type": "tuple"
                },
                {
                  "components": [
                    {
                      "components": [
                        {
                          "components": [
                            {
                              "internalType": "bytes",
                              "name": "val",
                              "type": "bytes"
                            },
                            {
                              "internalType": "bool",
                              "name": "neg",
                              "type": "bool"
                            },
                            {
                              "internalType": "uint256",
                              "name": "bitlen",
                              "type": "uint256"
                            }
                          ],
                          "internalType": "struct BigNumber",
                          "name": "value",
                          "type": "tuple"
                        }
                      ],
                      "internalType": "struct Zp",
                      "name": "a",
                      "type": "tuple"
                    },
                    {
                      "components": [
                        {
                          "components": [
                            {
                              "internalType": "bytes",
                              "name": "val",
                              "type": "bytes"
                            },
                            {
                              "internalType": "bool",
                              "name": "neg",
                              "type": "bool"
                            },
                            {
                              "internalType": "uint256",
                              "name": "bitlen",
                              "type": "uint256"
                            }
                          ],
                          "internalType": "struct BigNumber",
                          "name": "value",
                          "type": "tuple"
                        }
                      ],
                      "internalType": "struct Zp",
                      "name": "b",
                      "type": "tuple"
                    }
                  ],
                  "internalType": "struct Zp_2",
                  "name": "c",
                  "type": "tuple"
                }
              ],
              "internalType": "struct Zp_6",
              "name": "a",
              "type": "tuple"
            },
            {
              "components": [
                {
                  "components": [
                    {
                      "components": [
                        {
                          "components": [
                            {
                              "internalType": "bytes",
                              "name": "val",
                              "type": "bytes"
                            },
                            {
                              "internalType": "bool",
                              "name": "neg",
                              "type": "bool"
                            },
                            {
                              "internalType": "uint256",
                              "name": "bitlen",
                              "type": "uint256"
                            }
                          ],
                          "internalType": "struct BigNumber",
                          "name": "value",
                          "type": "tuple"
                        }
                      ],
                      "internalType": "struct Zp",
                      "name": "a",
                      "type": "tuple"
                    },
                    {
                      "components": [
                        {
                          "components": [
                            {
                              "internalType": "bytes",
                              "name": "val",
                              "type": "bytes"
                            },
                            {
                              "internalType": "bool",
                              "name": "neg",
                              "type": "bool"
                            },
                            {
                              "internalType": "uint256",
                              "name": "bitlen",
                              "type": "uint256"
                            }
                          ],
                          "internalType": "struct BigNumber",
                          "name": "value",
                          "type": "tuple"
                        }
                      ],
                      "internalType": "struct Zp",
                      "name": "b",
                      "type": "tuple"
                    }
                  ],
                  "internalType": "struct Zp_2",
                  "name": "a",
                  "type": "tuple"
                },
                {
                  "components": [
                    {
                      "components": [
                        {
                          "components": [
                            {
                              "internalType": "bytes",
                              "name": "val",
                              "type": "bytes"
                            },
                            {
                              "internalType": "bool",
                              "name": "neg",
                              "type": "bool"
                            },
                            {
                              "internalType": "uint256",
                              "name": "bitlen",
                              "type": "uint256"
                            }
                          ],
                          "internalType": "struct BigNumber",
                          "name": "value",
                          "type": "tuple"
                        }
                      ],
                      "internalType": "struct Zp",
                      "name": "a",
                      "type": "tuple"
                    },
                    {
                      "components": [
                        {
                          "components": [
                            {
                              "internalType": "bytes",
                              "name": "val",
                              "type": "bytes"
                            },
                            {
                              "internalType": "bool",
                              "name": "neg",
                              "type": "bool"
                            },
                            {
                              "internalType": "uint256",
                              "name": "bitlen",
                              "type": "uint256"
                            }
                          ],
                          "internalType": "struct BigNumber",
                          "name": "value",
                          "type": "tuple"
                        }
                      ],
                      "internalType": "struct Zp",
                      "name": "b",
                      "type": "tuple"
                    }
                  ],
                  "internalType": "struct Zp_2",
                  "name": "b",
                  "type": "tuple"
                },
                {
                  "components": [
                    {
                      "components": [
                        {
                          "components": [
                            {
                              "internalType": "bytes",
                              "name": "val",
                              "type": "bytes"
                            },
                            {
                              "internalType": "bool",
                              "name": "neg",
                              "type": "bool"
                            },
                            {
                              "internalType": "uint256",
                              "name": "bitlen",
                              "type": "uint256"
                            }
                          ],
                          "internalType": "struct BigNumber",
                          "name": "value",
                          "type": "tuple"
                        }
                      ],
                      "internalType": "struct Zp",
                      "name": "a",
                      "type": "tuple"
                    },
                    {
                      "components": [
                        {
                          "components": [
                            {
                              "internalType": "bytes",
                              "name": "val",
                              "type": "bytes"
                            },
                            {
                              "internalType": "bool",
                              "name": "neg",
                              "type": "bool"
                            },
                            {
                              "internalType": "uint256",
                              "name": "bitlen",
                              "type": "uint256"
                            }
                          ],
                          "internalType": "struct BigNumber",
                          "name": "value",
                          "type": "tuple"
                        }
                      ],
                      "internalType": "struct Zp",
                      "name": "b",
                      "type": "tuple"
                    }
                  ],
                  "internalType": "struct Zp_2",
                  "name": "c",
                  "type": "tuple"
                }
              ],
              "internalType": "struct Zp_6",
              "name": "b",
              "type": "tuple"
            }
          ],
          "internalType": "struct Zp_12",
          "name": "acc",
          "type": "tuple"
        },
        {
          "components": [
            {
              "components": [
                {
                  "components": [
                    {
                      "components": [
                        {
                          "components": [
                            {
                              "internalType": "bytes",
                              "name": "val",
                              "type": "bytes"
                            },
                            {
                              "internalType": "bool",
                              "name": "neg",
                              "type": "bool"
                            },
                            {
                              "internalType": "uint256",
                              "name": "bitlen",
                              "type": "uint256"
                            }
                          ],
                          "internalType": "struct BigNumber",
                          "name": "value",
                          "type": "tuple"
                        }
                      ],
                      "internalType": "struct Zp",
                      "name": "a",
                      "type": "tuple"
                    },
                    {
                      "components": [
                        {
                          "components": [
                            {
                              "internalType": "bytes",
                              "name": "val",
                              "type": "bytes"
                            },
                            {
                              "internalType": "bool",
                              "name": "neg",
                              "type": "bool"
                            },
                            {
                              "internalType": "uint256",
                              "name": "bitlen",
                              "type": "uint256"
                            }
                          ],
                          "internalType": "struct BigNumber",
                          "name": "value",
                          "type": "tuple"
                        }
                      ],
                      "internalType": "struct Zp",
                      "name": "b",
                      "type": "tuple"
                    }
                  ],
                  "internalType": "struct Zp_2",
                  "name": "a",
                  "type": "tuple"
                },
                {
                  "components": [
                    {
                      "components": [
                        {
                          "components": [
                            {
                              "internalType": "bytes",
                              "name": "val",
                              "type": "bytes"
                            },
                            {
                              "internalType": "bool",
                              "name": "neg",
                              "type": "bool"
                            },
                            {
                              "internalType": "uint256",
                              "name": "bitlen",
                              "type": "uint256"
                            }
                          ],
                          "internalType": "struct BigNumber",
                          "name": "value",
                          "type": "tuple"
                        }
                      ],
                      "internalType": "struct Zp",
                      "name": "a",
                      "type": "tuple"
                    },
                    {
                      "components": [
                        {
                          "components": [
                            {
                              "internalType": "bytes",
                              "name": "val",
                              "type": "bytes"
                            },
                            {
                              "internalType": "bool",
                              "name": "neg",
                              "type": "bool"
                            },
                            {
                              "internalType": "uint256",
                              "name": "bitlen",
                              "type": "uint256"
                            }
                          ],
                          "internalType": "struct BigNumber",
                          "name": "value",
                          "type": "tuple"
                        }
                      ],
                      "internalType": "struct Zp",
                      "name": "b",
                      "type": "tuple"
                    }
                  ],
                  "internalType": "struct Zp_2",
                  "name": "b",
                  "type": "tuple"
                },
                {
                  "components": [
                    {
                      "components": [
                        {
                          "components": [
                            {
                              "internalType": "bytes",
                              "name": "val",
                              "type": "bytes"
                            },
                            {
                              "internalType": "bool",
                              "name": "neg",
                              "type": "bool"
                            },
                            {
                              "internalType": "uint256",
                              "name": "bitlen",
                              "type": "uint256"
                            }
                          ],
                          "internalType": "struct BigNumber",
                          "name": "value",
                          "type": "tuple"
                        }
                      ],
                      "internalType": "struct Zp",
                      "name": "a",
                      "type": "tuple"
                    },
                    {
                      "components": [
                        {
                          "components": [
                            {
                              "internalType": "bytes",
                              "name": "val",
                              "type": "bytes"
                            },
                            {
                              "internalType": "bool",
                              "name": "neg",
                              "type": "bool"
                            },
                            {
                              "internalType": "uint256",
                              "name": "bitlen",
                              "type": "uint256"
                            }
                          ],
                          "internalType": "struct BigNumber",
                          "name": "value",
                          "type": "tuple"
                        }
                      ],
                      "internalType": "struct Zp",
                      "name": "b",
                      "type": "tuple"
                    }
                  ],
                  "internalType": "struct Zp_2",
                  "name": "c",
                  "type": "tuple"
                }
              ],
              "internalType": "struct Zp_6",
              "name": "a",
              "type": "tuple"
            },
            {
              "components": [
                {
                  "components": [
                    {
                      "components": [
                        {
                          "components": [
                            {
                              "internalType": "bytes",
                              "name": "val",
                              "type": "bytes"
                            },
                            {
                              "internalType": "bool",
                              "name": "neg",
                              "type": "bool"
                            },
                            {
                              "internalType": "uint256",
                              "name": "bitlen",
                              "type": "uint256"
                            }
                          ],
                          "internalType": "struct BigNumber",
                          "name": "value",
                          "type": "tuple"
                        }
                      ],
                      "internalType": "struct Zp",
                      "name": "a",
                      "type": "tuple"
                    },
                    {
                      "components": [
                        {
                          "components": [
                            {
                              "internalType": "bytes",
                              "name": "val",
                              "type": "bytes"
                            },
                            {
                              "internalType": "bool",
                              "name": "neg",
                              "type": "bool"
                            },
                            {
                              "internalType": "uint256",
                              "name": "bitlen",
                              "type": "uint256"
                            }
                          ],
                          "internalType": "struct BigNumber",
                          "name": "value",
                          "type": "tuple"
                        }
                      ],
                      "internalType": "struct Zp",
                      "name": "b",
                      "type": "tuple"
                    }
                  ],
                  "internalType": "struct Zp_2",
                  "name": "a",
                  "type": "tuple"
                },
                {
                  "components": [
                    {
                      "components": [
                        {
                          "components": [
                            {
                              "internalType": "bytes",
                              "name": "val",
                              "type": "bytes"
                            },
                            {
                              "internalType": "bool",
                              "name": "neg",
                              "type": "bool"
                            },
                            {
                              "internalType": "uint256",
                              "name": "bitlen",
                              "type": "uint256"
                            }
                          ],
                          "internalType": "struct BigNumber",
                          "name": "value",
                          "type": "tuple"
                        }
                      ],
                      "internalType": "struct Zp",
                      "name": "a",
                      "type": "tuple"
                    },
                    {
                      "components": [
                        {
                          "components": [
                            {
                              "internalType": "bytes",
                              "name": "val",
                              "type": "bytes"
                            },
                            {
                              "internalType": "bool",
                              "name": "neg",
                              "type": "bool"
                            },
                            {
                              "internalType": "uint256",
                              "name": "bitlen",
                              "type": "uint256"
                            }
                          ],
                          "internalType": "struct BigNumber",
                          "name": "value",
                          "type": "tuple"
                        }
                      ],
                      "internalType": "struct Zp",
                      "name": "b",
                      "type": "tuple"
                    }
                  ],
                  "internalType": "struct Zp_2",
                  "name": "b",
                  "type": "tuple"
                },
                {
                  "components": [
                    {
                      "components": [
                        {
                          "components": [
                            {
                              "internalType": "bytes",
                              "name": "val",
                              "type": "bytes"
                            },
                            {
                              "internalType": "bool",
                              "name": "neg",
                              "type": "bool"
                            },
                            {
                              "internalType": "uint256",
                              "name": "bitlen",
                              "type": "uint256"
                            }
                          ],
                          "internalType": "struct BigNumber",
                          "name": "value",
                          "type": "tuple"
                        }
                      ],
                      "internalType": "struct Zp",
                      "name": "a",
                      "type": "tuple"
                    },
                    {
                      "components": [
                        {
                          "components": [
                            {
                              "internalType": "bytes",
                              "name": "val",
                              "type": "bytes"
                            },
                            {
                              "internalType": "bool",
                              "name": "neg",
                              "type": "bool"
                            },
                            {
                              "internalType": "uint256",
                              "name": "bitlen",
                              "type": "uint256"
                            }
                          ],
                          "internalType": "struct BigNumber",
                          "name": "value",
                          "type": "tuple"
                        }
                      ],
                      "internalType": "struct Zp",
                      "name": "b",
                      "type": "tuple"
                    }
                  ],
                  "internalType": "struct Zp_2",
                  "name": "c",
                  "type": "tuple"
                }
              ],
              "internalType": "struct Zp_6",
              "name": "b",
              "type": "tuple"
            }
          ],
          "internalType": "struct Zp_12",
          "name": "x",
          "type": "tuple"
        },
        {
          "components": [
            {
              "components": [
                {
                  "components": [
                    {
                      "components": [
                        {
                          "components": [
                            {
                              "internalType": "bytes",
                              "name": "val",
                              "type": "bytes"
                            },
                            {
                              "internalType": "bool",
                              "name": "neg",
                              "type": "bool"
                            },
                            {
                              "internalType": "uint256",
                              "name": "bitlen",
                              "type": "uint256"
                            }
                          ],
                          "internalType": "struct BigNumber",
                          "name": "value",
                          "type": "tuple"
                        }
                      ],
                      "internalType": "struct Zp",
                      "name": "a",
                      "type": "tuple"
                    },
                    {
                      "components": [
                        {
                          "components": [
                            {
                              "internalType": "bytes",
                              "name": "val",
                              "type": "bytes"
                            },
                            {
                              "internalType": "bool",
                              "name": "neg",
                              "type": "bool"
                            },
                            {
                              "internalType": "uint256",
                              "name": "bitlen",
                              "type": "uint256"
                            }
                          ],
                          "internalType": "struct BigNumber",
                          "name": "value",
                          "type": "tuple"
                        }
                      ],
                      "internalType": "struct Zp",
                      "name": "b",
                      "type": "tuple"
                    }
                  ],
                  "internalType": "struct Zp_2",
                  "name": "a",
                  "type": "tuple"
                },
                {
                  "components": [
                    {
                      "components": [
                        {
                          "components": [
                            {
                              "internalType": "bytes",
                              "name": "val",
                              "type": "bytes"
                            },
                            {
                              "internalType": "bool",
                              "name": "neg",
                              "type": "bool"
                            },
                            {
                              "internalType": "uint256",
                              "name": "bitlen",
                              "type": "uint256"
                            }
                          ],
                          "internalType": "struct BigNumber",
                          "name": "value",
                          "type": "tuple"
                        }
                      ],
                      "internalType": "struct Zp",
                      "name": "a",
                      "type": "tuple"
                    },
                    {
                      "components": [
                        {
                          "components": [
                            {
                              "internalType": "bytes",
                              "name": "val",
                              "type": "bytes"
                            },
                            {
                              "internalType": "bool",
                              "name": "neg",
                              "type": "bool"
                            },
                            {
                              "internalType": "uint256",
                              "name": "bitlen",
                              "type": "uint256"
                            }
                          ],
                          "internalType": "struct BigNumber",
                          "name": "value",
                          "type": "tuple"
                        }
                      ],
                      "internalType": "struct Zp",
                      "name": "b",
                      "type": "tuple"
                    }
                  ],
                  "internalType": "struct Zp_2",
                  "name": "b",
                  "type": "tuple"
                },
                {
                  "components": [
                    {
                      "components": [
                        {
                          "components": [
                            {
                              "internalType": "bytes",
                              "name": "val",
                              "type": "bytes"
                            },
                            {
                              "internalType": "bool",
                              "name": "neg",
                              "type": "bool"
                            },
                            {
                              "internalType": "uint256",
                              "name": "bitlen",
                              "type": "uint256"
                            }
                          ],
                          "internalType": "struct BigNumber",
                          "name": "value",
                          "type": "tuple"
                        }
                      ],
                      "internalType": "struct Zp",
                      "name": "a",
                      "type": "tuple"
                    },
                    {
                      "components": [
                        {
                          "components": [
                            {
                              "internalType": "bytes",
                              "name": "val",
                              "type": "bytes"
                            },
                            {
                              "internalType": "bool",
                              "name": "neg",
                              "type": "bool"
                            },
                            {
                              "internalType": "uint256",
                              "name": "bitlen",
                              "type": "uint256"
                            }
                          ],
                          "internalType": "struct BigNumber",
                          "name": "value",
                          "type": "tuple"
                        }
                      ],
                      "internalType": "struct Zp",
                      "name": "b",
                      "type": "tuple"
                    }
                  ],
                  "internalType": "struct Zp_2",
                  "name": "c",
                  "type": "tuple"
                }
              ],
              "internalType": "struct Zp_6",
              "name": "a",
              "type": "tuple"
            },
            {
              "components": [
                {
                  "components": [
                    {
                      "components": [
                        {
                          "components": [
                            {
                              "internalType": "bytes",
                              "name": "val",
                              "type": "bytes"
                            },
                            {
                              "internalType": "bool",
                              "name": "neg",
                              "type": "bool"
                            },
                            {
                              "internalType": "uint256",
                              "name": "bitlen",
                              "type": "uint256"
                            }
                          ],
                          "internalType": "struct BigNumber",
                          "name": "value",
                          "type": "tuple"
                        }
                      ],
                      "internalType": "struct Zp",
                      "name": "a",
                      "type": "tuple"
                    },
                    {
                      "components": [
                        {
                          "components": [
                            {
                              "internalType": "bytes",
                              "name": "val",
                              "type": "bytes"
                            },
                            {
                              "internalType": "bool",
                              "name": "neg",
                              "type": "bool"
                            },
                            {
                              "internalType": "uint256",
                              "name": "bitlen",
                              "type": "uint256"
                            }
                          ],
                          "internalType": "struct BigNumber",
                          "name": "value",
                          "type": "tuple"
                        }
                      ],
                      "internalType": "struct Zp",
                      "name": "b",
                      "type": "tuple"
                    }
                  ],
                  "internalType": "struct Zp_2",
                  "name": "a",
                  "type": "tuple"
                },
                {
                  "components": [
                    {
                      "components": [
                        {
                          "components": [
                            {
                              "internalType": "bytes",
                              "name": "val",
                              "type": "bytes"
                            },
                            {
                              "internalType": "bool",
                              "name": "neg",
                              "type": "bool"
                            },
                            {
                              "internalType": "uint256",
                              "name": "bitlen",
                              "type": "uint256"
                            }
                          ],
                          "internalType": "struct BigNumber",
                          "name": "value",
                          "type": "tuple"
                        }
                      ],
                      "internalType": "struct Zp",
                      "name": "a",
                      "type": "tuple"
                    },
                    {
                      "components": [
                        {
                          "components": [
                            {
                              "internalType": "bytes",
                              "name": "val",
                              "type": "bytes"
                            },
                            {
                              "internalType": "bool",
                              "name": "neg",
                              "type": "bool"
                            },
                            {
                              "internalType": "uint256",
                              "name": "bitlen",
                              "type": "uint256"
                            }
                          ],
                          "internalType": "struct BigNumber",
                          "name": "value",
                          "type": "tuple"
                        }
                      ],
                      "internalType": "struct Zp",
                      "name": "b",
                      "type": "tuple"
                    }
                  ],
                  "internalType": "struct Zp_2",
                  "name": "b",
                  "type": "tuple"
                },
                {
                  "components": [
                    {
                      "components": [
                        {
                          "components": [
                            {
                              "internalType": "bytes",
                              "name": "val",
                              "type": "bytes"
                            },
                            {
                              "internalType": "bool",
                              "name": "neg",
                              "type": "bool"
                            },
                            {
                              "internalType": "uint256",
                              "name": "bitlen",
                              "type": "uint256"
                            }
                          ],
                          "internalType": "struct BigNumber",
                          "name": "value",
                          "type": "tuple"
                        }
                      ],
                      "internalType": "struct Zp",
                      "name": "a",
                      "type": "tuple"
                    },
                    {
                      "components": [
                        {
                          "components": [
                            {
                              "internalType": "bytes",
                              "name": "val",
                              "type": "bytes"
                            },
                            {
                              "internalType": "bool",
                              "name": "neg",
                              "type": "bool"
                            },
                            {
                              "internalType": "uint256",
                              "name": "bitlen",
                              "type": "uint256"
                            }
                          ],
                          "internalType": "struct BigNumber",
                          "name": "value",
                          "type": "tuple"
                        }
                      ],
                      "internalType": "struct Zp",
                      "name": "b",
                      "type": "tuple"
                    }
                  ],
                  "internalType": "struct Zp_2",
                  "name": "c",
                  "type": "tuple"
                }
              ],
              "internalType": "struct Zp_6",
              "name": "b",
              "type": "tuple"
            }
          ],
          "internalType": "struct Zp_12",
          "name": "y",
          "type": "tuple"
        }
      ],
      "name": "loc_mul",
      "outputs": [],
      "stateMutability": "view",
      "type": "function"
    },
    {
      "inputs": [
        {
          "components": [
            {
              "components": [
                {
                  "components": [
                    {
                      "components": [
                        {
                          "components": [
                            {
                              "internalType": "bytes",
                              "name": "val",
                              "type": "bytes"
                            },
                            {
                              "internalType": "bool",
                              "name": "neg",
                              "type": "bool"
                            },
                            {
                              "internalType": "uint256",
                              "name": "bitlen",
                              "type": "uint256"
                            }
                          ],
                          "internalType": "struct BigNumber",
                          "name": "value",
                          "type": "tuple"
                        }
                      ],
                      "internalType": "struct Zp",
                      "name": "a",
                      "type": "tuple"
                    },
                    {
                      "components": [
                        {
                          "components": [
                            {
                              "internalType": "bytes",
                              "name": "val",
                              "type": "bytes"
                            },
                            {
                              "internalType": "bool",
                              "name": "neg",
                              "type": "bool"
                            },
                            {
                              "internalType": "uint256",
                              "name": "bitlen",
                              "type": "uint256"
                            }
                          ],
                          "internalType": "struct BigNumber",
                          "name": "value",
                          "type": "tuple"
                        }
                      ],
                      "internalType": "struct Zp",
                      "name": "b",
                      "type": "tuple"
                    }
                  ],
                  "internalType": "struct Zp_2",
                  "name": "a",
                  "type": "tuple"
                },
                {
                  "components": [
                    {
                      "components": [
                        {
                          "components": [
                            {
                              "internalType": "bytes",
                              "name": "val",
                              "type": "bytes"
                            },
                            {
                              "internalType": "bool",
                              "name": "neg",
                              "type": "bool"
                            },
                            {
                              "internalType": "uint256",
                              "name": "bitlen",
                              "type": "uint256"
                            }
                          ],
                          "internalType": "struct BigNumber",
                          "name": "value",
                          "type": "tuple"
                        }
                      ],
                      "internalType": "struct Zp",
                      "name": "a",
                      "type": "tuple"
                    },
                    {
                      "components": [
                        {
                          "components": [
                            {
                              "internalType": "bytes",
                              "name": "val",
                              "type": "bytes"
                            },
                            {
                              "internalType": "bool",
                              "name": "neg",
                              "type": "bool"
                            },
                            {
                              "internalType": "uint256",
                              "name": "bitlen",
                              "type": "uint256"
                            }
                          ],
                          "internalType": "struct BigNumber",
                          "name": "value",
                          "type": "tuple"
                        }
                      ],
                      "internalType": "struct Zp",
                      "name": "b",
                      "type": "tuple"
                    }
                  ],
                  "internalType": "struct Zp_2",
                  "name": "b",
                  "type": "tuple"
                },
                {
                  "components": [
                    {
                      "components": [
                        {
                          "components": [
                            {
                              "internalType": "bytes",
                              "name": "val",
                              "type": "bytes"
                            },
                            {
                              "internalType": "bool",
                              "name": "neg",
                              "type": "bool"
                            },
                            {
                              "internalType": "uint256",
                              "name": "bitlen",
                              "type": "uint256"
                            }
                          ],
                          "internalType": "struct BigNumber",
                          "name": "value",
                          "type": "tuple"
                        }
                      ],
                      "internalType": "struct Zp",
                      "name": "a",
                      "type": "tuple"
                    },
                    {
                      "components": [
                        {
                          "components": [
                            {
                              "internalType": "bytes",
                              "name": "val",
                              "type": "bytes"
                            },
                            {
                              "internalType": "bool",
                              "name": "neg",
                              "type": "bool"
                            },
                            {
                              "internalType": "uint256",
                              "name": "bitlen",
                              "type": "uint256"
                            }
                          ],
                          "internalType": "struct BigNumber",
                          "name": "value",
                          "type": "tuple"
                        }
                      ],
                      "internalType": "struct Zp",
                      "name": "b",
                      "type": "tuple"
                    }
                  ],
                  "internalType": "struct Zp_2",
                  "name": "c",
                  "type": "tuple"
                }
              ],
              "internalType": "struct Zp_6",
              "name": "a",
              "type": "tuple"
            },
            {
              "components": [
                {
                  "components": [
                    {
                      "components": [
                        {
                          "components": [
                            {
                              "internalType": "bytes",
                              "name": "val",
                              "type": "bytes"
                            },
                            {
                              "internalType": "bool",
                              "name": "neg",
                              "type": "bool"
                            },
                            {
                              "internalType": "uint256",
                              "name": "bitlen",
                              "type": "uint256"
                            }
                          ],
                          "internalType": "struct BigNumber",
                          "name": "value",
                          "type": "tuple"
                        }
                      ],
                      "internalType": "struct Zp",
                      "name": "a",
                      "type": "tuple"
                    },
                    {
                      "components": [
                        {
                          "components": [
                            {
                              "internalType": "bytes",
                              "name": "val",
                              "type": "bytes"
                            },
                            {
                              "internalType": "bool",
                              "name": "neg",
                              "type": "bool"
                            },
                            {
                              "internalType": "uint256",
                              "name": "bitlen",
                              "type": "uint256"
                            }
                          ],
                          "internalType": "struct BigNumber",
                          "name": "value",
                          "type": "tuple"
                        }
                      ],
                      "internalType": "struct Zp",
                      "name": "b",
                      "type": "tuple"
                    }
                  ],
                  "internalType": "struct Zp_2",
                  "name": "a",
                  "type": "tuple"
                },
                {
                  "components": [
                    {
                      "components": [
                        {
                          "components": [
                            {
                              "internalType": "bytes",
                              "name": "val",
                              "type": "bytes"
                            },
                            {
                              "internalType": "bool",
                              "name": "neg",
                              "type": "bool"
                            },
                            {
                              "internalType": "uint256",
                              "name": "bitlen",
                              "type": "uint256"
                            }
                          ],
                          "internalType": "struct BigNumber",
                          "name": "value",
                          "type": "tuple"
                        }
                      ],
                      "internalType": "struct Zp",
                      "name": "a",
                      "type": "tuple"
                    },
                    {
                      "components": [
                        {
                          "components": [
                            {
                              "internalType": "bytes",
                              "name": "val",
                              "type": "bytes"
                            },
                            {
                              "internalType": "bool",
                              "name": "neg",
                              "type": "bool"
                            },
                            {
                              "internalType": "uint256",
                              "name": "bitlen",
                              "type": "uint256"
                            }
                          ],
                          "internalType": "struct BigNumber",
                          "name": "value",
                          "type": "tuple"
                        }
                      ],
                      "internalType": "struct Zp",
                      "name": "b",
                      "type": "tuple"
                    }
                  ],
                  "internalType": "struct Zp_2",
                  "name": "b",
                  "type": "tuple"
                },
                {
                  "components": [
                    {
                      "components": [
                        {
                          "components": [
                            {
                              "internalType": "bytes",
                              "name": "val",
                              "type": "bytes"
                            },
                            {
                              "internalType": "bool",
                              "name": "neg",
                              "type": "bool"
                            },
                            {
                              "internalType": "uint256",
                              "name": "bitlen",
                              "type": "uint256"
                            }
                          ],
                          "internalType": "struct BigNumber",
                          "name": "value",
                          "type": "tuple"
                        }
                      ],
                      "internalType": "struct Zp",
                      "name": "a",
                      "type": "tuple"
                    },
                    {
                      "components": [
                        {
                          "components": [
                            {
                              "internalType": "bytes",
                              "name": "val",
                              "type": "bytes"
                            },
                            {
                              "internalType": "bool",
                              "name": "neg",
                              "type": "bool"
                            },
                            {
                              "internalType": "uint256",
                              "name": "bitlen",
                              "type": "uint256"
                            }
                          ],
                          "internalType": "struct BigNumber",
                          "name": "value",
                          "type": "tuple"
                        }
                      ],
                      "internalType": "struct Zp",
                      "name": "b",
                      "type": "tuple"
                    }
                  ],
                  "internalType": "struct Zp_2",
                  "name": "c",
                  "type": "tuple"
                }
              ],
              "internalType": "struct Zp_6",
              "name": "b",
              "type": "tuple"
            }
          ],
          "internalType": "struct Zp_12",
          "name": "x",
          "type": "tuple"
        },
        {
          "components": [
            {
              "components": [
                {
                  "components": [
                    {
                      "components": [
                        {
                          "components": [
                            {
                              "internalType": "bytes",
                              "name": "val",
                              "type": "bytes"
                            },
                            {
                              "internalType": "bool",
                              "name": "neg",
                              "type": "bool"
                            },
                            {
                              "internalType": "uint256",
                              "name": "bitlen",
                              "type": "uint256"
                            }
                          ],
                          "internalType": "struct BigNumber",
                          "name": "value",
                          "type": "tuple"
                        }
                      ],
                      "internalType": "struct Zp",
                      "name": "a",
                      "type": "tuple"
                    },
                    {
                      "components": [
                        {
                          "components": [
                            {
                              "internalType": "bytes",
                              "name": "val",
                              "type": "bytes"
                            },
                            {
                              "internalType": "bool",
                              "name": "neg",
                              "type": "bool"
                            },
                            {
                              "internalType": "uint256",
                              "name": "bitlen",
                              "type": "uint256"
                            }
                          ],
                          "internalType": "struct BigNumber",
                          "name": "value",
                          "type": "tuple"
                        }
                      ],
                      "internalType": "struct Zp",
                      "name": "b",
                      "type": "tuple"
                    }
                  ],
                  "internalType": "struct Zp_2",
                  "name": "a",
                  "type": "tuple"
                },
                {
                  "components": [
                    {
                      "components": [
                        {
                          "components": [
                            {
                              "internalType": "bytes",
                              "name": "val",
                              "type": "bytes"
                            },
                            {
                              "internalType": "bool",
                              "name": "neg",
                              "type": "bool"
                            },
                            {
                              "internalType": "uint256",
                              "name": "bitlen",
                              "type": "uint256"
                            }
                          ],
                          "internalType": "struct BigNumber",
                          "name": "value",
                          "type": "tuple"
                        }
                      ],
                      "internalType": "struct Zp",
                      "name": "a",
                      "type": "tuple"
                    },
                    {
                      "components": [
                        {
                          "components": [
                            {
                              "internalType": "bytes",
                              "name": "val",
                              "type": "bytes"
                            },
                            {
                              "internalType": "bool",
                              "name": "neg",
                              "type": "bool"
                            },
                            {
                              "internalType": "uint256",
                              "name": "bitlen",
                              "type": "uint256"
                            }
                          ],
                          "internalType": "struct BigNumber",
                          "name": "value",
                          "type": "tuple"
                        }
                      ],
                      "internalType": "struct Zp",
                      "name": "b",
                      "type": "tuple"
                    }
                  ],
                  "internalType": "struct Zp_2",
                  "name": "b",
                  "type": "tuple"
                },
                {
                  "components": [
                    {
                      "components": [
                        {
                          "components": [
                            {
                              "internalType": "bytes",
                              "name": "val",
                              "type": "bytes"
                            },
                            {
                              "internalType": "bool",
                              "name": "neg",
                              "type": "bool"
                            },
                            {
                              "internalType": "uint256",
                              "name": "bitlen",
                              "type": "uint256"
                            }
                          ],
                          "internalType": "struct BigNumber",
                          "name": "value",
                          "type": "tuple"
                        }
                      ],
                      "internalType": "struct Zp",
                      "name": "a",
                      "type": "tuple"
                    },
                    {
                      "components": [
                        {
                          "components": [
                            {
                              "internalType": "bytes",
                              "name": "val",
                              "type": "bytes"
                            },
                            {
                              "internalType": "bool",
                              "name": "neg",
                              "type": "bool"
                            },
                            {
                              "internalType": "uint256",
                              "name": "bitlen",
                              "type": "uint256"
                            }
                          ],
                          "internalType": "struct BigNumber",
                          "name": "value",
                          "type": "tuple"
                        }
                      ],
                      "internalType": "struct Zp",
                      "name": "b",
                      "type": "tuple"
                    }
                  ],
                  "internalType": "struct Zp_2",
                  "name": "c",
                  "type": "tuple"
                }
              ],
              "internalType": "struct Zp_6",
              "name": "a",
              "type": "tuple"
            },
            {
              "components": [
                {
                  "components": [
                    {
                      "components": [
                        {
                          "components": [
                            {
                              "internalType": "bytes",
                              "name": "val",
                              "type": "bytes"
                            },
                            {
                              "internalType": "bool",
                              "name": "neg",
                              "type": "bool"
                            },
                            {
                              "internalType": "uint256",
                              "name": "bitlen",
                              "type": "uint256"
                            }
                          ],
                          "internalType": "struct BigNumber",
                          "name": "value",
                          "type": "tuple"
                        }
                      ],
                      "internalType": "struct Zp",
                      "name": "a",
                      "type": "tuple"
                    },
                    {
                      "components": [
                        {
                          "components": [
                            {
                              "internalType": "bytes",
                              "name": "val",
                              "type": "bytes"
                            },
                            {
                              "internalType": "bool",
                              "name": "neg",
                              "type": "bool"
                            },
                            {
                              "internalType": "uint256",
                              "name": "bitlen",
                              "type": "uint256"
                            }
                          ],
                          "internalType": "struct BigNumber",
                          "name": "value",
                          "type": "tuple"
                        }
                      ],
                      "internalType": "struct Zp",
                      "name": "b",
                      "type": "tuple"
                    }
                  ],
                  "internalType": "struct Zp_2",
                  "name": "a",
                  "type": "tuple"
                },
                {
                  "components": [
                    {
                      "components": [
                        {
                          "components": [
                            {
                              "internalType": "bytes",
                              "name": "val",
                              "type": "bytes"
                            },
                            {
                              "internalType": "bool",
                              "name": "neg",
                              "type": "bool"
                            },
                            {
                              "internalType": "uint256",
                              "name": "bitlen",
                              "type": "uint256"
                            }
                          ],
                          "internalType": "struct BigNumber",
                          "name": "value",
                          "type": "tuple"
                        }
                      ],
                      "internalType": "struct Zp",
                      "name": "a",
                      "type": "tuple"
                    },
                    {
                      "components": [
                        {
                          "components": [
                            {
                              "internalType": "bytes",
                              "name": "val",
                              "type": "bytes"
                            },
                            {
                              "internalType": "bool",
                              "name": "neg",
                              "type": "bool"
                            },
                            {
                              "internalType": "uint256",
                              "name": "bitlen",
                              "type": "uint256"
                            }
                          ],
                          "internalType": "struct BigNumber",
                          "name": "value",
                          "type": "tuple"
                        }
                      ],
                      "internalType": "struct Zp",
                      "name": "b",
                      "type": "tuple"
                    }
                  ],
                  "internalType": "struct Zp_2",
                  "name": "b",
                  "type": "tuple"
                },
                {
                  "components": [
                    {
                      "components": [
                        {
                          "components": [
                            {
                              "internalType": "bytes",
                              "name": "val",
                              "type": "bytes"
                            },
                            {
                              "internalType": "bool",
                              "name": "neg",
                              "type": "bool"
                            },
                            {
                              "internalType": "uint256",
                              "name": "bitlen",
                              "type": "uint256"
                            }
                          ],
                          "internalType": "struct BigNumber",
                          "name": "value",
                          "type": "tuple"
                        }
                      ],
                      "internalType": "struct Zp",
                      "name": "a",
                      "type": "tuple"
                    },
                    {
                      "components": [
                        {
                          "components": [
                            {
                              "internalType": "bytes",
                              "name": "val",
                              "type": "bytes"
                            },
                            {
                              "internalType": "bool",
                              "name": "neg",
                              "type": "bool"
                            },
                            {
                              "internalType": "uint256",
                              "name": "bitlen",
                              "type": "uint256"
                            }
                          ],
                          "internalType": "struct BigNumber",
                          "name": "value",
                          "type": "tuple"
                        }
                      ],
                      "internalType": "struct Zp",
                      "name": "b",
                      "type": "tuple"
                    }
                  ],
                  "internalType": "struct Zp_2",
                  "name": "c",
                  "type": "tuple"
                }
              ],
              "internalType": "struct Zp_6",
              "name": "b",
              "type": "tuple"
            }
          ],
          "internalType": "struct Zp_12",
          "name": "y",
          "type": "tuple"
        }
      ],
      "name": "mul",
      "outputs": [
        {
          "components": [
            {
              "components": [
                {
                  "components": [
                    {
                      "components": [
                        {
                          "components": [
                            {
                              "internalType": "bytes",
                              "name": "val",
                              "type": "bytes"
                            },
                            {
                              "internalType": "bool",
                              "name": "neg",
                              "type": "bool"
                            },
                            {
                              "internalType": "uint256",
                              "name": "bitlen",
                              "type": "uint256"
                            }
                          ],
                          "internalType": "struct BigNumber",
                          "name": "value",
                          "type": "tuple"
                        }
                      ],
                      "internalType": "struct Zp",
                      "name": "a",
                      "type": "tuple"
                    },
                    {
                      "components": [
                        {
                          "components": [
                            {
                              "internalType": "bytes",
                              "name": "val",
                              "type": "bytes"
                            },
                            {
                              "internalType": "bool",
                              "name": "neg",
                              "type": "bool"
                            },
                            {
                              "internalType": "uint256",
                              "name": "bitlen",
                              "type": "uint256"
                            }
                          ],
                          "internalType": "struct BigNumber",
                          "name": "value",
                          "type": "tuple"
                        }
                      ],
                      "internalType": "struct Zp",
                      "name": "b",
                      "type": "tuple"
                    }
                  ],
                  "internalType": "struct Zp_2",
                  "name": "a",
                  "type": "tuple"
                },
                {
                  "components": [
                    {
                      "components": [
                        {
                          "components": [
                            {
                              "internalType": "bytes",
                              "name": "val",
                              "type": "bytes"
                            },
                            {
                              "internalType": "bool",
                              "name": "neg",
                              "type": "bool"
                            },
                            {
                              "internalType": "uint256",
                              "name": "bitlen",
                              "type": "uint256"
                            }
                          ],
                          "internalType": "struct BigNumber",
                          "name": "value",
                          "type": "tuple"
                        }
                      ],
                      "internalType": "struct Zp",
                      "name": "a",
                      "type": "tuple"
                    },
                    {
                      "components": [
                        {
                          "components": [
                            {
                              "internalType": "bytes",
                              "name": "val",
                              "type": "bytes"
                            },
                            {
                              "internalType": "bool",
                              "name": "neg",
                              "type": "bool"
                            },
                            {
                              "internalType": "uint256",
                              "name": "bitlen",
                              "type": "uint256"
                            }
                          ],
                          "internalType": "struct BigNumber",
                          "name": "value",
                          "type": "tuple"
                        }
                      ],
                      "internalType": "struct Zp",
                      "name": "b",
                      "type": "tuple"
                    }
                  ],
                  "internalType": "struct Zp_2",
                  "name": "b",
                  "type": "tuple"
                },
                {
                  "components": [
                    {
                      "components": [
                        {
                          "components": [
                            {
                              "internalType": "bytes",
                              "name": "val",
                              "type": "bytes"
                            },
                            {
                              "internalType": "bool",
                              "name": "neg",
                              "type": "bool"
                            },
                            {
                              "internalType": "uint256",
                              "name": "bitlen",
                              "type": "uint256"
                            }
                          ],
                          "internalType": "struct BigNumber",
                          "name": "value",
                          "type": "tuple"
                        }
                      ],
                      "internalType": "struct Zp",
                      "name": "a",
                      "type": "tuple"
                    },
                    {
                      "components": [
                        {
                          "components": [
                            {
                              "internalType": "bytes",
                              "name": "val",
                              "type": "bytes"
                            },
                            {
                              "internalType": "bool",
                              "name": "neg",
                              "type": "bool"
                            },
                            {
                              "internalType": "uint256",
                              "name": "bitlen",
                              "type": "uint256"
                            }
                          ],
                          "internalType": "struct BigNumber",
                          "name": "value",
                          "type": "tuple"
                        }
                      ],
                      "internalType": "struct Zp",
                      "name": "b",
                      "type": "tuple"
                    }
                  ],
                  "internalType": "struct Zp_2",
                  "name": "c",
                  "type": "tuple"
                }
              ],
              "internalType": "struct Zp_6",
              "name": "a",
              "type": "tuple"
            },
            {
              "components": [
                {
                  "components": [
                    {
                      "components": [
                        {
                          "components": [
                            {
                              "internalType": "bytes",
                              "name": "val",
                              "type": "bytes"
                            },
                            {
                              "internalType": "bool",
                              "name": "neg",
                              "type": "bool"
                            },
                            {
                              "internalType": "uint256",
                              "name": "bitlen",
                              "type": "uint256"
                            }
                          ],
                          "internalType": "struct BigNumber",
                          "name": "value",
                          "type": "tuple"
                        }
                      ],
                      "internalType": "struct Zp",
                      "name": "a",
                      "type": "tuple"
                    },
                    {
                      "components": [
                        {
                          "components": [
                            {
                              "internalType": "bytes",
                              "name": "val",
                              "type": "bytes"
                            },
                            {
                              "internalType": "bool",
                              "name": "neg",
                              "type": "bool"
                            },
                            {
                              "internalType": "uint256",
                              "name": "bitlen",
                              "type": "uint256"
                            }
                          ],
                          "internalType": "struct BigNumber",
                          "name": "value",
                          "type": "tuple"
                        }
                      ],
                      "internalType": "struct Zp",
                      "name": "b",
                      "type": "tuple"
                    }
                  ],
                  "internalType": "struct Zp_2",
                  "name": "a",
                  "type": "tuple"
                },
                {
                  "components": [
                    {
                      "components": [
                        {
                          "components": [
                            {
                              "internalType": "bytes",
                              "name": "val",
                              "type": "bytes"
                            },
                            {
                              "internalType": "bool",
                              "name": "neg",
                              "type": "bool"
                            },
                            {
                              "internalType": "uint256",
                              "name": "bitlen",
                              "type": "uint256"
                            }
                          ],
                          "internalType": "struct BigNumber",
                          "name": "value",
                          "type": "tuple"
                        }
                      ],
                      "internalType": "struct Zp",
                      "name": "a",
                      "type": "tuple"
                    },
                    {
                      "components": [
                        {
                          "components": [
                            {
                              "internalType": "bytes",
                              "name": "val",
                              "type": "bytes"
                            },
                            {
                              "internalType": "bool",
                              "name": "neg",
                              "type": "bool"
                            },
                            {
                              "internalType": "uint256",
                              "name": "bitlen",
                              "type": "uint256"
                            }
                          ],
                          "internalType": "struct BigNumber",
                          "name": "value",
                          "type": "tuple"
                        }
                      ],
                      "internalType": "struct Zp",
                      "name": "b",
                      "type": "tuple"
                    }
                  ],
                  "internalType": "struct Zp_2",
                  "name": "b",
                  "type": "tuple"
                },
                {
                  "components": [
                    {
                      "components": [
                        {
                          "components": [
                            {
                              "internalType": "bytes",
                              "name": "val",
                              "type": "bytes"
                            },
                            {
                              "internalType": "bool",
                              "name": "neg",
                              "type": "bool"
                            },
                            {
                              "internalType": "uint256",
                              "name": "bitlen",
                              "type": "uint256"
                            }
                          ],
                          "internalType": "struct BigNumber",
                          "name": "value",
                          "type": "tuple"
                        }
                      ],
                      "internalType": "struct Zp",
                      "name": "a",
                      "type": "tuple"
                    },
                    {
                      "components": [
                        {
                          "components": [
                            {
                              "internalType": "bytes",
                              "name": "val",
                              "type": "bytes"
                            },
                            {
                              "internalType": "bool",
                              "name": "neg",
                              "type": "bool"
                            },
                            {
                              "internalType": "uint256",
                              "name": "bitlen",
                              "type": "uint256"
                            }
                          ],
                          "internalType": "struct BigNumber",
                          "name": "value",
                          "type": "tuple"
                        }
                      ],
                      "internalType": "struct Zp",
                      "name": "b",
                      "type": "tuple"
                    }
                  ],
                  "internalType": "struct Zp_2",
                  "name": "c",
                  "type": "tuple"
                }
              ],
              "internalType": "struct Zp_6",
              "name": "b",
              "type": "tuple"
            }
          ],
          "internalType": "struct Zp_12",
          "name": "",
          "type": "tuple"
        }
      ],
      "stateMutability": "view",
      "type": "function"
    },
    {
      "inputs": [],
      "name": "one",
      "outputs": [
        {
          "components": [
            {
              "components": [
                {
                  "components": [
                    {
                      "components": [
                        {
                          "components": [
                            {
                              "internalType": "bytes",
                              "name": "val",
                              "type": "bytes"
                            },
                            {
                              "internalType": "bool",
                              "name": "neg",
                              "type": "bool"
                            },
                            {
                              "internalType": "uint256",
                              "name": "bitlen",
                              "type": "uint256"
                            }
                          ],
                          "internalType": "struct BigNumber",
                          "name": "value",
                          "type": "tuple"
                        }
                      ],
                      "internalType": "struct Zp",
                      "name": "a",
                      "type": "tuple"
                    },
                    {
                      "components": [
                        {
                          "components": [
                            {
                              "internalType": "bytes",
                              "name": "val",
                              "type": "bytes"
                            },
                            {
                              "internalType": "bool",
                              "name": "neg",
                              "type": "bool"
                            },
                            {
                              "internalType": "uint256",
                              "name": "bitlen",
                              "type": "uint256"
                            }
                          ],
                          "internalType": "struct BigNumber",
                          "name": "value",
                          "type": "tuple"
                        }
                      ],
                      "internalType": "struct Zp",
                      "name": "b",
                      "type": "tuple"
                    }
                  ],
                  "internalType": "struct Zp_2",
                  "name": "a",
                  "type": "tuple"
                },
                {
                  "components": [
                    {
                      "components": [
                        {
                          "components": [
                            {
                              "internalType": "bytes",
                              "name": "val",
                              "type": "bytes"
                            },
                            {
                              "internalType": "bool",
                              "name": "neg",
                              "type": "bool"
                            },
                            {
                              "internalType": "uint256",
                              "name": "bitlen",
                              "type": "uint256"
                            }
                          ],
                          "internalType": "struct BigNumber",
                          "name": "value",
                          "type": "tuple"
                        }
                      ],
                      "internalType": "struct Zp",
                      "name": "a",
                      "type": "tuple"
                    },
                    {
                      "components": [
                        {
                          "components": [
                            {
                              "internalType": "bytes",
                              "name": "val",
                              "type": "bytes"
                            },
                            {
                              "internalType": "bool",
                              "name": "neg",
                              "type": "bool"
                            },
                            {
                              "internalType": "uint256",
                              "name": "bitlen",
                              "type": "uint256"
                            }
                          ],
                          "internalType": "struct BigNumber",
                          "name": "value",
                          "type": "tuple"
                        }
                      ],
                      "internalType": "struct Zp",
                      "name": "b",
                      "type": "tuple"
                    }
                  ],
                  "internalType": "struct Zp_2",
                  "name": "b",
                  "type": "tuple"
                },
                {
                  "components": [
                    {
                      "components": [
                        {
                          "components": [
                            {
                              "internalType": "bytes",
                              "name": "val",
                              "type": "bytes"
                            },
                            {
                              "internalType": "bool",
                              "name": "neg",
                              "type": "bool"
                            },
                            {
                              "internalType": "uint256",
                              "name": "bitlen",
                              "type": "uint256"
                            }
                          ],
                          "internalType": "struct BigNumber",
                          "name": "value",
                          "type": "tuple"
                        }
                      ],
                      "internalType": "struct Zp",
                      "name": "a",
                      "type": "tuple"
                    },
                    {
                      "components": [
                        {
                          "components": [
                            {
                              "internalType": "bytes",
                              "name": "val",
                              "type": "bytes"
                            },
                            {
                              "internalType": "bool",
                              "name": "neg",
                              "type": "bool"
                            },
                            {
                              "internalType": "uint256",
                              "name": "bitlen",
                              "type": "uint256"
                            }
                          ],
                          "internalType": "struct BigNumber",
                          "name": "value",
                          "type": "tuple"
                        }
                      ],
                      "internalType": "struct Zp",
                      "name": "b",
                      "type": "tuple"
                    }
                  ],
                  "internalType": "struct Zp_2",
                  "name": "c",
                  "type": "tuple"
                }
              ],
              "internalType": "struct Zp_6",
              "name": "a",
              "type": "tuple"
            },
            {
              "components": [
                {
                  "components": [
                    {
                      "components": [
                        {
                          "components": [
                            {
                              "internalType": "bytes",
                              "name": "val",
                              "type": "bytes"
                            },
                            {
                              "internalType": "bool",
                              "name": "neg",
                              "type": "bool"
                            },
                            {
                              "internalType": "uint256",
                              "name": "bitlen",
                              "type": "uint256"
                            }
                          ],
                          "internalType": "struct BigNumber",
                          "name": "value",
                          "type": "tuple"
                        }
                      ],
                      "internalType": "struct Zp",
                      "name": "a",
                      "type": "tuple"
                    },
                    {
                      "components": [
                        {
                          "components": [
                            {
                              "internalType": "bytes",
                              "name": "val",
                              "type": "bytes"
                            },
                            {
                              "internalType": "bool",
                              "name": "neg",
                              "type": "bool"
                            },
                            {
                              "internalType": "uint256",
                              "name": "bitlen",
                              "type": "uint256"
                            }
                          ],
                          "internalType": "struct BigNumber",
                          "name": "value",
                          "type": "tuple"
                        }
                      ],
                      "internalType": "struct Zp",
                      "name": "b",
                      "type": "tuple"
                    }
                  ],
                  "internalType": "struct Zp_2",
                  "name": "a",
                  "type": "tuple"
                },
                {
                  "components": [
                    {
                      "components": [
                        {
                          "components": [
                            {
                              "internalType": "bytes",
                              "name": "val",
                              "type": "bytes"
                            },
                            {
                              "internalType": "bool",
                              "name": "neg",
                              "type": "bool"
                            },
                            {
                              "internalType": "uint256",
                              "name": "bitlen",
                              "type": "uint256"
                            }
                          ],
                          "internalType": "struct BigNumber",
                          "name": "value",
                          "type": "tuple"
                        }
                      ],
                      "internalType": "struct Zp",
                      "name": "a",
                      "type": "tuple"
                    },
                    {
                      "components": [
                        {
                          "components": [
                            {
                              "internalType": "bytes",
                              "name": "val",
                              "type": "bytes"
                            },
                            {
                              "internalType": "bool",
                              "name": "neg",
                              "type": "bool"
                            },
                            {
                              "internalType": "uint256",
                              "name": "bitlen",
                              "type": "uint256"
                            }
                          ],
                          "internalType": "struct BigNumber",
                          "name": "value",
                          "type": "tuple"
                        }
                      ],
                      "internalType": "struct Zp",
                      "name": "b",
                      "type": "tuple"
                    }
                  ],
                  "internalType": "struct Zp_2",
                  "name": "b",
                  "type": "tuple"
                },
                {
                  "components": [
                    {
                      "components": [
                        {
                          "components": [
                            {
                              "internalType": "bytes",
                              "name": "val",
                              "type": "bytes"
                            },
                            {
                              "internalType": "bool",
                              "name": "neg",
                              "type": "bool"
                            },
                            {
                              "internalType": "uint256",
                              "name": "bitlen",
                              "type": "uint256"
                            }
                          ],
                          "internalType": "struct BigNumber",
                          "name": "value",
                          "type": "tuple"
                        }
                      ],
                      "internalType": "struct Zp",
                      "name": "a",
                      "type": "tuple"
                    },
                    {
                      "components": [
                        {
                          "components": [
                            {
                              "internalType": "bytes",
                              "name": "val",
                              "type": "bytes"
                            },
                            {
                              "internalType": "bool",
                              "name": "neg",
                              "type": "bool"
                            },
                            {
                              "internalType": "uint256",
                              "name": "bitlen",
                              "type": "uint256"
                            }
                          ],
                          "internalType": "struct BigNumber",
                          "name": "value",
                          "type": "tuple"
                        }
                      ],
                      "internalType": "struct Zp",
                      "name": "b",
                      "type": "tuple"
                    }
                  ],
                  "internalType": "struct Zp_2",
                  "name": "c",
                  "type": "tuple"
                }
              ],
              "internalType": "struct Zp_6",
              "name": "b",
              "type": "tuple"
            }
          ],
          "internalType": "struct Zp_12",
          "name": "",
          "type": "tuple"
        }
      ],
      "stateMutability": "view",
      "type": "function"
    },
    {
      "inputs": [
        {
          "components": [
            {
              "components": [
                {
                  "components": [
                    {
                      "components": [
                        {
                          "components": [
                            {
                              "internalType": "bytes",
                              "name": "val",
                              "type": "bytes"
                            },
                            {
                              "internalType": "bool",
                              "name": "neg",
                              "type": "bool"
                            },
                            {
                              "internalType": "uint256",
                              "name": "bitlen",
                              "type": "uint256"
                            }
                          ],
                          "internalType": "struct BigNumber",
                          "name": "value",
                          "type": "tuple"
                        }
                      ],
                      "internalType": "struct Zp",
                      "name": "a",
                      "type": "tuple"
                    },
                    {
                      "components": [
                        {
                          "components": [
                            {
                              "internalType": "bytes",
                              "name": "val",
                              "type": "bytes"
                            },
                            {
                              "internalType": "bool",
                              "name": "neg",
                              "type": "bool"
                            },
                            {
                              "internalType": "uint256",
                              "name": "bitlen",
                              "type": "uint256"
                            }
                          ],
                          "internalType": "struct BigNumber",
                          "name": "value",
                          "type": "tuple"
                        }
                      ],
                      "internalType": "struct Zp",
                      "name": "b",
                      "type": "tuple"
                    }
                  ],
                  "internalType": "struct Zp_2",
                  "name": "a",
                  "type": "tuple"
                },
                {
                  "components": [
                    {
                      "components": [
                        {
                          "components": [
                            {
                              "internalType": "bytes",
                              "name": "val",
                              "type": "bytes"
                            },
                            {
                              "internalType": "bool",
                              "name": "neg",
                              "type": "bool"
                            },
                            {
                              "internalType": "uint256",
                              "name": "bitlen",
                              "type": "uint256"
                            }
                          ],
                          "internalType": "struct BigNumber",
                          "name": "value",
                          "type": "tuple"
                        }
                      ],
                      "internalType": "struct Zp",
                      "name": "a",
                      "type": "tuple"
                    },
                    {
                      "components": [
                        {
                          "components": [
                            {
                              "internalType": "bytes",
                              "name": "val",
                              "type": "bytes"
                            },
                            {
                              "internalType": "bool",
                              "name": "neg",
                              "type": "bool"
                            },
                            {
                              "internalType": "uint256",
                              "name": "bitlen",
                              "type": "uint256"
                            }
                          ],
                          "internalType": "struct BigNumber",
                          "name": "value",
                          "type": "tuple"
                        }
                      ],
                      "internalType": "struct Zp",
                      "name": "b",
                      "type": "tuple"
                    }
                  ],
                  "internalType": "struct Zp_2",
                  "name": "b",
                  "type": "tuple"
                },
                {
                  "components": [
                    {
                      "components": [
                        {
                          "components": [
                            {
                              "internalType": "bytes",
                              "name": "val",
                              "type": "bytes"
                            },
                            {
                              "internalType": "bool",
                              "name": "neg",
                              "type": "bool"
                            },
                            {
                              "internalType": "uint256",
                              "name": "bitlen",
                              "type": "uint256"
                            }
                          ],
                          "internalType": "struct BigNumber",
                          "name": "value",
                          "type": "tuple"
                        }
                      ],
                      "internalType": "struct Zp",
                      "name": "a",
                      "type": "tuple"
                    },
                    {
                      "components": [
                        {
                          "components": [
                            {
                              "internalType": "bytes",
                              "name": "val",
                              "type": "bytes"
                            },
                            {
                              "internalType": "bool",
                              "name": "neg",
                              "type": "bool"
                            },
                            {
                              "internalType": "uint256",
                              "name": "bitlen",
                              "type": "uint256"
                            }
                          ],
                          "internalType": "struct BigNumber",
                          "name": "value",
                          "type": "tuple"
                        }
                      ],
                      "internalType": "struct Zp",
                      "name": "b",
                      "type": "tuple"
                    }
                  ],
                  "internalType": "struct Zp_2",
                  "name": "c",
                  "type": "tuple"
                }
              ],
              "internalType": "struct Zp_6",
              "name": "a",
              "type": "tuple"
            },
            {
              "components": [
                {
                  "components": [
                    {
                      "components": [
                        {
                          "components": [
                            {
                              "internalType": "bytes",
                              "name": "val",
                              "type": "bytes"
                            },
                            {
                              "internalType": "bool",
                              "name": "neg",
                              "type": "bool"
                            },
                            {
                              "internalType": "uint256",
                              "name": "bitlen",
                              "type": "uint256"
                            }
                          ],
                          "internalType": "struct BigNumber",
                          "name": "value",
                          "type": "tuple"
                        }
                      ],
                      "internalType": "struct Zp",
                      "name": "a",
                      "type": "tuple"
                    },
                    {
                      "components": [
                        {
                          "components": [
                            {
                              "internalType": "bytes",
                              "name": "val",
                              "type": "bytes"
                            },
                            {
                              "internalType": "bool",
                              "name": "neg",
                              "type": "bool"
                            },
                            {
                              "internalType": "uint256",
                              "name": "bitlen",
                              "type": "uint256"
                            }
                          ],
                          "internalType": "struct BigNumber",
                          "name": "value",
                          "type": "tuple"
                        }
                      ],
                      "internalType": "struct Zp",
                      "name": "b",
                      "type": "tuple"
                    }
                  ],
                  "internalType": "struct Zp_2",
                  "name": "a",
                  "type": "tuple"
                },
                {
                  "components": [
                    {
                      "components": [
                        {
                          "components": [
                            {
                              "internalType": "bytes",
                              "name": "val",
                              "type": "bytes"
                            },
                            {
                              "internalType": "bool",
                              "name": "neg",
                              "type": "bool"
                            },
                            {
                              "internalType": "uint256",
                              "name": "bitlen",
                              "type": "uint256"
                            }
                          ],
                          "internalType": "struct BigNumber",
                          "name": "value",
                          "type": "tuple"
                        }
                      ],
                      "internalType": "struct Zp",
                      "name": "a",
                      "type": "tuple"
                    },
                    {
                      "components": [
                        {
                          "components": [
                            {
                              "internalType": "bytes",
                              "name": "val",
                              "type": "bytes"
                            },
                            {
                              "internalType": "bool",
                              "name": "neg",
                              "type": "bool"
                            },
                            {
                              "internalType": "uint256",
                              "name": "bitlen",
                              "type": "uint256"
                            }
                          ],
                          "internalType": "struct BigNumber",
                          "name": "value",
                          "type": "tuple"
                        }
                      ],
                      "internalType": "struct Zp",
                      "name": "b",
                      "type": "tuple"
                    }
                  ],
                  "internalType": "struct Zp_2",
                  "name": "b",
                  "type": "tuple"
                },
                {
                  "components": [
                    {
                      "components": [
                        {
                          "components": [
                            {
                              "internalType": "bytes",
                              "name": "val",
                              "type": "bytes"
                            },
                            {
                              "internalType": "bool",
                              "name": "neg",
                              "type": "bool"
                            },
                            {
                              "internalType": "uint256",
                              "name": "bitlen",
                              "type": "uint256"
                            }
                          ],
                          "internalType": "struct BigNumber",
                          "name": "value",
                          "type": "tuple"
                        }
                      ],
                      "internalType": "struct Zp",
                      "name": "a",
                      "type": "tuple"
                    },
                    {
                      "components": [
                        {
                          "components": [
                            {
                              "internalType": "bytes",
                              "name": "val",
                              "type": "bytes"
                            },
                            {
                              "internalType": "bool",
                              "name": "neg",
                              "type": "bool"
                            },
                            {
                              "internalType": "uint256",
                              "name": "bitlen",
                              "type": "uint256"
                            }
                          ],
                          "internalType": "struct BigNumber",
                          "name": "value",
                          "type": "tuple"
                        }
                      ],
                      "internalType": "struct Zp",
                      "name": "b",
                      "type": "tuple"
                    }
                  ],
                  "internalType": "struct Zp_2",
                  "name": "c",
                  "type": "tuple"
                }
              ],
              "internalType": "struct Zp_6",
              "name": "b",
              "type": "tuple"
            }
          ],
          "internalType": "struct Zp_12",
          "name": "x",
          "type": "tuple"
        },
        {
          "components": [
            {
              "components": [
                {
                  "components": [
                    {
                      "components": [
                        {
                          "components": [
                            {
                              "internalType": "bytes",
                              "name": "val",
                              "type": "bytes"
                            },
                            {
                              "internalType": "bool",
                              "name": "neg",
                              "type": "bool"
                            },
                            {
                              "internalType": "uint256",
                              "name": "bitlen",
                              "type": "uint256"
                            }
                          ],
                          "internalType": "struct BigNumber",
                          "name": "value",
                          "type": "tuple"
                        }
                      ],
                      "internalType": "struct Zp",
                      "name": "a",
                      "type": "tuple"
                    },
                    {
                      "components": [
                        {
                          "components": [
                            {
                              "internalType": "bytes",
                              "name": "val",
                              "type": "bytes"
                            },
                            {
                              "internalType": "bool",
                              "name": "neg",
                              "type": "bool"
                            },
                            {
                              "internalType": "uint256",
                              "name": "bitlen",
                              "type": "uint256"
                            }
                          ],
                          "internalType": "struct BigNumber",
                          "name": "value",
                          "type": "tuple"
                        }
                      ],
                      "internalType": "struct Zp",
                      "name": "b",
                      "type": "tuple"
                    }
                  ],
                  "internalType": "struct Zp_2",
                  "name": "a",
                  "type": "tuple"
                },
                {
                  "components": [
                    {
                      "components": [
                        {
                          "components": [
                            {
                              "internalType": "bytes",
                              "name": "val",
                              "type": "bytes"
                            },
                            {
                              "internalType": "bool",
                              "name": "neg",
                              "type": "bool"
                            },
                            {
                              "internalType": "uint256",
                              "name": "bitlen",
                              "type": "uint256"
                            }
                          ],
                          "internalType": "struct BigNumber",
                          "name": "value",
                          "type": "tuple"
                        }
                      ],
                      "internalType": "struct Zp",
                      "name": "a",
                      "type": "tuple"
                    },
                    {
                      "components": [
                        {
                          "components": [
                            {
                              "internalType": "bytes",
                              "name": "val",
                              "type": "bytes"
                            },
                            {
                              "internalType": "bool",
                              "name": "neg",
                              "type": "bool"
                            },
                            {
                              "internalType": "uint256",
                              "name": "bitlen",
                              "type": "uint256"
                            }
                          ],
                          "internalType": "struct BigNumber",
                          "name": "value",
                          "type": "tuple"
                        }
                      ],
                      "internalType": "struct Zp",
                      "name": "b",
                      "type": "tuple"
                    }
                  ],
                  "internalType": "struct Zp_2",
                  "name": "b",
                  "type": "tuple"
                },
                {
                  "components": [
                    {
                      "components": [
                        {
                          "components": [
                            {
                              "internalType": "bytes",
                              "name": "val",
                              "type": "bytes"
                            },
                            {
                              "internalType": "bool",
                              "name": "neg",
                              "type": "bool"
                            },
                            {
                              "internalType": "uint256",
                              "name": "bitlen",
                              "type": "uint256"
                            }
                          ],
                          "internalType": "struct BigNumber",
                          "name": "value",
                          "type": "tuple"
                        }
                      ],
                      "internalType": "struct Zp",
                      "name": "a",
                      "type": "tuple"
                    },
                    {
                      "components": [
                        {
                          "components": [
                            {
                              "internalType": "bytes",
                              "name": "val",
                              "type": "bytes"
                            },
                            {
                              "internalType": "bool",
                              "name": "neg",
                              "type": "bool"
                            },
                            {
                              "internalType": "uint256",
                              "name": "bitlen",
                              "type": "uint256"
                            }
                          ],
                          "internalType": "struct BigNumber",
                          "name": "value",
                          "type": "tuple"
                        }
                      ],
                      "internalType": "struct Zp",
                      "name": "b",
                      "type": "tuple"
                    }
                  ],
                  "internalType": "struct Zp_2",
                  "name": "c",
                  "type": "tuple"
                }
              ],
              "internalType": "struct Zp_6",
              "name": "a",
              "type": "tuple"
            },
            {
              "components": [
                {
                  "components": [
                    {
                      "components": [
                        {
                          "components": [
                            {
                              "internalType": "bytes",
                              "name": "val",
                              "type": "bytes"
                            },
                            {
                              "internalType": "bool",
                              "name": "neg",
                              "type": "bool"
                            },
                            {
                              "internalType": "uint256",
                              "name": "bitlen",
                              "type": "uint256"
                            }
                          ],
                          "internalType": "struct BigNumber",
                          "name": "value",
                          "type": "tuple"
                        }
                      ],
                      "internalType": "struct Zp",
                      "name": "a",
                      "type": "tuple"
                    },
                    {
                      "components": [
                        {
                          "components": [
                            {
                              "internalType": "bytes",
                              "name": "val",
                              "type": "bytes"
                            },
                            {
                              "internalType": "bool",
                              "name": "neg",
                              "type": "bool"
                            },
                            {
                              "internalType": "uint256",
                              "name": "bitlen",
                              "type": "uint256"
                            }
                          ],
                          "internalType": "struct BigNumber",
                          "name": "value",
                          "type": "tuple"
                        }
                      ],
                      "internalType": "struct Zp",
                      "name": "b",
                      "type": "tuple"
                    }
                  ],
                  "internalType": "struct Zp_2",
                  "name": "a",
                  "type": "tuple"
                },
                {
                  "components": [
                    {
                      "components": [
                        {
                          "components": [
                            {
                              "internalType": "bytes",
                              "name": "val",
                              "type": "bytes"
                            },
                            {
                              "internalType": "bool",
                              "name": "neg",
                              "type": "bool"
                            },
                            {
                              "internalType": "uint256",
                              "name": "bitlen",
                              "type": "uint256"
                            }
                          ],
                          "internalType": "struct BigNumber",
                          "name": "value",
                          "type": "tuple"
                        }
                      ],
                      "internalType": "struct Zp",
                      "name": "a",
                      "type": "tuple"
                    },
                    {
                      "components": [
                        {
                          "components": [
                            {
                              "internalType": "bytes",
                              "name": "val",
                              "type": "bytes"
                            },
                            {
                              "internalType": "bool",
                              "name": "neg",
                              "type": "bool"
                            },
                            {
                              "internalType": "uint256",
                              "name": "bitlen",
                              "type": "uint256"
                            }
                          ],
                          "internalType": "struct BigNumber",
                          "name": "value",
                          "type": "tuple"
                        }
                      ],
                      "internalType": "struct Zp",
                      "name": "b",
                      "type": "tuple"
                    }
                  ],
                  "internalType": "struct Zp_2",
                  "name": "b",
                  "type": "tuple"
                },
                {
                  "components": [
                    {
                      "components": [
                        {
                          "components": [
                            {
                              "internalType": "bytes",
                              "name": "val",
                              "type": "bytes"
                            },
                            {
                              "internalType": "bool",
                              "name": "neg",
                              "type": "bool"
                            },
                            {
                              "internalType": "uint256",
                              "name": "bitlen",
                              "type": "uint256"
                            }
                          ],
                          "internalType": "struct BigNumber",
                          "name": "value",
                          "type": "tuple"
                        }
                      ],
                      "internalType": "struct Zp",
                      "name": "a",
                      "type": "tuple"
                    },
                    {
                      "components": [
                        {
                          "components": [
                            {
                              "internalType": "bytes",
                              "name": "val",
                              "type": "bytes"
                            },
                            {
                              "internalType": "bool",
                              "name": "neg",
                              "type": "bool"
                            },
                            {
                              "internalType": "uint256",
                              "name": "bitlen",
                              "type": "uint256"
                            }
                          ],
                          "internalType": "struct BigNumber",
                          "name": "value",
                          "type": "tuple"
                        }
                      ],
                      "internalType": "struct Zp",
                      "name": "b",
                      "type": "tuple"
                    }
                  ],
                  "internalType": "struct Zp_2",
                  "name": "c",
                  "type": "tuple"
                }
              ],
              "internalType": "struct Zp_6",
              "name": "b",
              "type": "tuple"
            }
          ],
          "internalType": "struct Zp_12",
          "name": "y",
          "type": "tuple"
        }
      ],
      "name": "sub",
      "outputs": [
        {
          "components": [
            {
              "components": [
                {
                  "components": [
                    {
                      "components": [
                        {
                          "components": [
                            {
                              "internalType": "bytes",
                              "name": "val",
                              "type": "bytes"
                            },
                            {
                              "internalType": "bool",
                              "name": "neg",
                              "type": "bool"
                            },
                            {
                              "internalType": "uint256",
                              "name": "bitlen",
                              "type": "uint256"
                            }
                          ],
                          "internalType": "struct BigNumber",
                          "name": "value",
                          "type": "tuple"
                        }
                      ],
                      "internalType": "struct Zp",
                      "name": "a",
                      "type": "tuple"
                    },
                    {
                      "components": [
                        {
                          "components": [
                            {
                              "internalType": "bytes",
                              "name": "val",
                              "type": "bytes"
                            },
                            {
                              "internalType": "bool",
                              "name": "neg",
                              "type": "bool"
                            },
                            {
                              "internalType": "uint256",
                              "name": "bitlen",
                              "type": "uint256"
                            }
                          ],
                          "internalType": "struct BigNumber",
                          "name": "value",
                          "type": "tuple"
                        }
                      ],
                      "internalType": "struct Zp",
                      "name": "b",
                      "type": "tuple"
                    }
                  ],
                  "internalType": "struct Zp_2",
                  "name": "a",
                  "type": "tuple"
                },
                {
                  "components": [
                    {
                      "components": [
                        {
                          "components": [
                            {
                              "internalType": "bytes",
                              "name": "val",
                              "type": "bytes"
                            },
                            {
                              "internalType": "bool",
                              "name": "neg",
                              "type": "bool"
                            },
                            {
                              "internalType": "uint256",
                              "name": "bitlen",
                              "type": "uint256"
                            }
                          ],
                          "internalType": "struct BigNumber",
                          "name": "value",
                          "type": "tuple"
                        }
                      ],
                      "internalType": "struct Zp",
                      "name": "a",
                      "type": "tuple"
                    },
                    {
                      "components": [
                        {
                          "components": [
                            {
                              "internalType": "bytes",
                              "name": "val",
                              "type": "bytes"
                            },
                            {
                              "internalType": "bool",
                              "name": "neg",
                              "type": "bool"
                            },
                            {
                              "internalType": "uint256",
                              "name": "bitlen",
                              "type": "uint256"
                            }
                          ],
                          "internalType": "struct BigNumber",
                          "name": "value",
                          "type": "tuple"
                        }
                      ],
                      "internalType": "struct Zp",
                      "name": "b",
                      "type": "tuple"
                    }
                  ],
                  "internalType": "struct Zp_2",
                  "name": "b",
                  "type": "tuple"
                },
                {
                  "components": [
                    {
                      "components": [
                        {
                          "components": [
                            {
                              "internalType": "bytes",
                              "name": "val",
                              "type": "bytes"
                            },
                            {
                              "internalType": "bool",
                              "name": "neg",
                              "type": "bool"
                            },
                            {
                              "internalType": "uint256",
                              "name": "bitlen",
                              "type": "uint256"
                            }
                          ],
                          "internalType": "struct BigNumber",
                          "name": "value",
                          "type": "tuple"
                        }
                      ],
                      "internalType": "struct Zp",
                      "name": "a",
                      "type": "tuple"
                    },
                    {
                      "components": [
                        {
                          "components": [
                            {
                              "internalType": "bytes",
                              "name": "val",
                              "type": "bytes"
                            },
                            {
                              "internalType": "bool",
                              "name": "neg",
                              "type": "bool"
                            },
                            {
                              "internalType": "uint256",
                              "name": "bitlen",
                              "type": "uint256"
                            }
                          ],
                          "internalType": "struct BigNumber",
                          "name": "value",
                          "type": "tuple"
                        }
                      ],
                      "internalType": "struct Zp",
                      "name": "b",
                      "type": "tuple"
                    }
                  ],
                  "internalType": "struct Zp_2",
                  "name": "c",
                  "type": "tuple"
                }
              ],
              "internalType": "struct Zp_6",
              "name": "a",
              "type": "tuple"
            },
            {
              "components": [
                {
                  "components": [
                    {
                      "components": [
                        {
                          "components": [
                            {
                              "internalType": "bytes",
                              "name": "val",
                              "type": "bytes"
                            },
                            {
                              "internalType": "bool",
                              "name": "neg",
                              "type": "bool"
                            },
                            {
                              "internalType": "uint256",
                              "name": "bitlen",
                              "type": "uint256"
                            }
                          ],
                          "internalType": "struct BigNumber",
                          "name": "value",
                          "type": "tuple"
                        }
                      ],
                      "internalType": "struct Zp",
                      "name": "a",
                      "type": "tuple"
                    },
                    {
                      "components": [
                        {
                          "components": [
                            {
                              "internalType": "bytes",
                              "name": "val",
                              "type": "bytes"
                            },
                            {
                              "internalType": "bool",
                              "name": "neg",
                              "type": "bool"
                            },
                            {
                              "internalType": "uint256",
                              "name": "bitlen",
                              "type": "uint256"
                            }
                          ],
                          "internalType": "struct BigNumber",
                          "name": "value",
                          "type": "tuple"
                        }
                      ],
                      "internalType": "struct Zp",
                      "name": "b",
                      "type": "tuple"
                    }
                  ],
                  "internalType": "struct Zp_2",
                  "name": "a",
                  "type": "tuple"
                },
                {
                  "components": [
                    {
                      "components": [
                        {
                          "components": [
                            {
                              "internalType": "bytes",
                              "name": "val",
                              "type": "bytes"
                            },
                            {
                              "internalType": "bool",
                              "name": "neg",
                              "type": "bool"
                            },
                            {
                              "internalType": "uint256",
                              "name": "bitlen",
                              "type": "uint256"
                            }
                          ],
                          "internalType": "struct BigNumber",
                          "name": "value",
                          "type": "tuple"
                        }
                      ],
                      "internalType": "struct Zp",
                      "name": "a",
                      "type": "tuple"
                    },
                    {
                      "components": [
                        {
                          "components": [
                            {
                              "internalType": "bytes",
                              "name": "val",
                              "type": "bytes"
                            },
                            {
                              "internalType": "bool",
                              "name": "neg",
                              "type": "bool"
                            },
                            {
                              "internalType": "uint256",
                              "name": "bitlen",
                              "type": "uint256"
                            }
                          ],
                          "internalType": "struct BigNumber",
                          "name": "value",
                          "type": "tuple"
                        }
                      ],
                      "internalType": "struct Zp",
                      "name": "b",
                      "type": "tuple"
                    }
                  ],
                  "internalType": "struct Zp_2",
                  "name": "b",
                  "type": "tuple"
                },
                {
                  "components": [
                    {
                      "components": [
                        {
                          "components": [
                            {
                              "internalType": "bytes",
                              "name": "val",
                              "type": "bytes"
                            },
                            {
                              "internalType": "bool",
                              "name": "neg",
                              "type": "bool"
                            },
                            {
                              "internalType": "uint256",
                              "name": "bitlen",
                              "type": "uint256"
                            }
                          ],
                          "internalType": "struct BigNumber",
                          "name": "value",
                          "type": "tuple"
                        }
                      ],
                      "internalType": "struct Zp",
                      "name": "a",
                      "type": "tuple"
                    },
                    {
                      "components": [
                        {
                          "components": [
                            {
                              "internalType": "bytes",
                              "name": "val",
                              "type": "bytes"
                            },
                            {
                              "internalType": "bool",
                              "name": "neg",
                              "type": "bool"
                            },
                            {
                              "internalType": "uint256",
                              "name": "bitlen",
                              "type": "uint256"
                            }
                          ],
                          "internalType": "struct BigNumber",
                          "name": "value",
                          "type": "tuple"
                        }
                      ],
                      "internalType": "struct Zp",
                      "name": "b",
                      "type": "tuple"
                    }
                  ],
                  "internalType": "struct Zp_2",
                  "name": "c",
                  "type": "tuple"
                }
              ],
              "internalType": "struct Zp_6",
              "name": "b",
              "type": "tuple"
            }
          ],
          "internalType": "struct Zp_12",
          "name": "",
          "type": "tuple"
        }
      ],
      "stateMutability": "view",
      "type": "function"
    },
    {
      "inputs": [
        {
          "components": [
            {
              "components": [
                {
                  "components": [
                    {
                      "components": [
                        {
                          "components": [
                            {
                              "internalType": "bytes",
                              "name": "val",
                              "type": "bytes"
                            },
                            {
                              "internalType": "bool",
                              "name": "neg",
                              "type": "bool"
                            },
                            {
                              "internalType": "uint256",
                              "name": "bitlen",
                              "type": "uint256"
                            }
                          ],
                          "internalType": "struct BigNumber",
                          "name": "value",
                          "type": "tuple"
                        }
                      ],
                      "internalType": "struct Zp",
                      "name": "a",
                      "type": "tuple"
                    },
                    {
                      "components": [
                        {
                          "components": [
                            {
                              "internalType": "bytes",
                              "name": "val",
                              "type": "bytes"
                            },
                            {
                              "internalType": "bool",
                              "name": "neg",
                              "type": "bool"
                            },
                            {
                              "internalType": "uint256",
                              "name": "bitlen",
                              "type": "uint256"
                            }
                          ],
                          "internalType": "struct BigNumber",
                          "name": "value",
                          "type": "tuple"
                        }
                      ],
                      "internalType": "struct Zp",
                      "name": "b",
                      "type": "tuple"
                    }
                  ],
                  "internalType": "struct Zp_2",
                  "name": "a",
                  "type": "tuple"
                },
                {
                  "components": [
                    {
                      "components": [
                        {
                          "components": [
                            {
                              "internalType": "bytes",
                              "name": "val",
                              "type": "bytes"
                            },
                            {
                              "internalType": "bool",
                              "name": "neg",
                              "type": "bool"
                            },
                            {
                              "internalType": "uint256",
                              "name": "bitlen",
                              "type": "uint256"
                            }
                          ],
                          "internalType": "struct BigNumber",
                          "name": "value",
                          "type": "tuple"
                        }
                      ],
                      "internalType": "struct Zp",
                      "name": "a",
                      "type": "tuple"
                    },
                    {
                      "components": [
                        {
                          "components": [
                            {
                              "internalType": "bytes",
                              "name": "val",
                              "type": "bytes"
                            },
                            {
                              "internalType": "bool",
                              "name": "neg",
                              "type": "bool"
                            },
                            {
                              "internalType": "uint256",
                              "name": "bitlen",
                              "type": "uint256"
                            }
                          ],
                          "internalType": "struct BigNumber",
                          "name": "value",
                          "type": "tuple"
                        }
                      ],
                      "internalType": "struct Zp",
                      "name": "b",
                      "type": "tuple"
                    }
                  ],
                  "internalType": "struct Zp_2",
                  "name": "b",
                  "type": "tuple"
                },
                {
                  "components": [
                    {
                      "components": [
                        {
                          "components": [
                            {
                              "internalType": "bytes",
                              "name": "val",
                              "type": "bytes"
                            },
                            {
                              "internalType": "bool",
                              "name": "neg",
                              "type": "bool"
                            },
                            {
                              "internalType": "uint256",
                              "name": "bitlen",
                              "type": "uint256"
                            }
                          ],
                          "internalType": "struct BigNumber",
                          "name": "value",
                          "type": "tuple"
                        }
                      ],
                      "internalType": "struct Zp",
                      "name": "a",
                      "type": "tuple"
                    },
                    {
                      "components": [
                        {
                          "components": [
                            {
                              "internalType": "bytes",
                              "name": "val",
                              "type": "bytes"
                            },
                            {
                              "internalType": "bool",
                              "name": "neg",
                              "type": "bool"
                            },
                            {
                              "internalType": "uint256",
                              "name": "bitlen",
                              "type": "uint256"
                            }
                          ],
                          "internalType": "struct BigNumber",
                          "name": "value",
                          "type": "tuple"
                        }
                      ],
                      "internalType": "struct Zp",
                      "name": "b",
                      "type": "tuple"
                    }
                  ],
                  "internalType": "struct Zp_2",
                  "name": "c",
                  "type": "tuple"
                }
              ],
              "internalType": "struct Zp_6",
              "name": "a",
              "type": "tuple"
            },
            {
              "components": [
                {
                  "components": [
                    {
                      "components": [
                        {
                          "components": [
                            {
                              "internalType": "bytes",
                              "name": "val",
                              "type": "bytes"
                            },
                            {
                              "internalType": "bool",
                              "name": "neg",
                              "type": "bool"
                            },
                            {
                              "internalType": "uint256",
                              "name": "bitlen",
                              "type": "uint256"
                            }
                          ],
                          "internalType": "struct BigNumber",
                          "name": "value",
                          "type": "tuple"
                        }
                      ],
                      "internalType": "struct Zp",
                      "name": "a",
                      "type": "tuple"
                    },
                    {
                      "components": [
                        {
                          "components": [
                            {
                              "internalType": "bytes",
                              "name": "val",
                              "type": "bytes"
                            },
                            {
                              "internalType": "bool",
                              "name": "neg",
                              "type": "bool"
                            },
                            {
                              "internalType": "uint256",
                              "name": "bitlen",
                              "type": "uint256"
                            }
                          ],
                          "internalType": "struct BigNumber",
                          "name": "value",
                          "type": "tuple"
                        }
                      ],
                      "internalType": "struct Zp",
                      "name": "b",
                      "type": "tuple"
                    }
                  ],
                  "internalType": "struct Zp_2",
                  "name": "a",
                  "type": "tuple"
                },
                {
                  "components": [
                    {
                      "components": [
                        {
                          "components": [
                            {
                              "internalType": "bytes",
                              "name": "val",
                              "type": "bytes"
                            },
                            {
                              "internalType": "bool",
                              "name": "neg",
                              "type": "bool"
                            },
                            {
                              "internalType": "uint256",
                              "name": "bitlen",
                              "type": "uint256"
                            }
                          ],
                          "internalType": "struct BigNumber",
                          "name": "value",
                          "type": "tuple"
                        }
                      ],
                      "internalType": "struct Zp",
                      "name": "a",
                      "type": "tuple"
                    },
                    {
                      "components": [
                        {
                          "components": [
                            {
                              "internalType": "bytes",
                              "name": "val",
                              "type": "bytes"
                            },
                            {
                              "internalType": "bool",
                              "name": "neg",
                              "type": "bool"
                            },
                            {
                              "internalType": "uint256",
                              "name": "bitlen",
                              "type": "uint256"
                            }
                          ],
                          "internalType": "struct BigNumber",
                          "name": "value",
                          "type": "tuple"
                        }
                      ],
                      "internalType": "struct Zp",
                      "name": "b",
                      "type": "tuple"
                    }
                  ],
                  "internalType": "struct Zp_2",
                  "name": "b",
                  "type": "tuple"
                },
                {
                  "components": [
                    {
                      "components": [
                        {
                          "components": [
                            {
                              "internalType": "bytes",
                              "name": "val",
                              "type": "bytes"
                            },
                            {
                              "internalType": "bool",
                              "name": "neg",
                              "type": "bool"
                            },
                            {
                              "internalType": "uint256",
                              "name": "bitlen",
                              "type": "uint256"
                            }
                          ],
                          "internalType": "struct BigNumber",
                          "name": "value",
                          "type": "tuple"
                        }
                      ],
                      "internalType": "struct Zp",
                      "name": "a",
                      "type": "tuple"
                    },
                    {
                      "components": [
                        {
                          "components": [
                            {
                              "internalType": "bytes",
                              "name": "val",
                              "type": "bytes"
                            },
                            {
                              "internalType": "bool",
                              "name": "neg",
                              "type": "bool"
                            },
                            {
                              "internalType": "uint256",
                              "name": "bitlen",
                              "type": "uint256"
                            }
                          ],
                          "internalType": "struct BigNumber",
                          "name": "value",
                          "type": "tuple"
                        }
                      ],
                      "internalType": "struct Zp",
                      "name": "b",
                      "type": "tuple"
                    }
                  ],
                  "internalType": "struct Zp_2",
                  "name": "c",
                  "type": "tuple"
                }
              ],
              "internalType": "struct Zp_6",
              "name": "b",
              "type": "tuple"
            }
          ],
          "internalType": "struct Zp_12",
          "name": "x",
          "type": "tuple"
        },
        {
          "components": [
            {
              "components": [
                {
                  "components": [
                    {
                      "components": [
                        {
                          "components": [
                            {
                              "internalType": "bytes",
                              "name": "val",
                              "type": "bytes"
                            },
                            {
                              "internalType": "bool",
                              "name": "neg",
                              "type": "bool"
                            },
                            {
                              "internalType": "uint256",
                              "name": "bitlen",
                              "type": "uint256"
                            }
                          ],
                          "internalType": "struct BigNumber",
                          "name": "value",
                          "type": "tuple"
                        }
                      ],
                      "internalType": "struct Zp",
                      "name": "a",
                      "type": "tuple"
                    },
                    {
                      "components": [
                        {
                          "components": [
                            {
                              "internalType": "bytes",
                              "name": "val",
                              "type": "bytes"
                            },
                            {
                              "internalType": "bool",
                              "name": "neg",
                              "type": "bool"
                            },
                            {
                              "internalType": "uint256",
                              "name": "bitlen",
                              "type": "uint256"
                            }
                          ],
                          "internalType": "struct BigNumber",
                          "name": "value",
                          "type": "tuple"
                        }
                      ],
                      "internalType": "struct Zp",
                      "name": "b",
                      "type": "tuple"
                    }
                  ],
                  "internalType": "struct Zp_2",
                  "name": "a",
                  "type": "tuple"
                },
                {
                  "components": [
                    {
                      "components": [
                        {
                          "components": [
                            {
                              "internalType": "bytes",
                              "name": "val",
                              "type": "bytes"
                            },
                            {
                              "internalType": "bool",
                              "name": "neg",
                              "type": "bool"
                            },
                            {
                              "internalType": "uint256",
                              "name": "bitlen",
                              "type": "uint256"
                            }
                          ],
                          "internalType": "struct BigNumber",
                          "name": "value",
                          "type": "tuple"
                        }
                      ],
                      "internalType": "struct Zp",
                      "name": "a",
                      "type": "tuple"
                    },
                    {
                      "components": [
                        {
                          "components": [
                            {
                              "internalType": "bytes",
                              "name": "val",
                              "type": "bytes"
                            },
                            {
                              "internalType": "bool",
                              "name": "neg",
                              "type": "bool"
                            },
                            {
                              "internalType": "uint256",
                              "name": "bitlen",
                              "type": "uint256"
                            }
                          ],
                          "internalType": "struct BigNumber",
                          "name": "value",
                          "type": "tuple"
                        }
                      ],
                      "internalType": "struct Zp",
                      "name": "b",
                      "type": "tuple"
                    }
                  ],
                  "internalType": "struct Zp_2",
                  "name": "b",
                  "type": "tuple"
                },
                {
                  "components": [
                    {
                      "components": [
                        {
                          "components": [
                            {
                              "internalType": "bytes",
                              "name": "val",
                              "type": "bytes"
                            },
                            {
                              "internalType": "bool",
                              "name": "neg",
                              "type": "bool"
                            },
                            {
                              "internalType": "uint256",
                              "name": "bitlen",
                              "type": "uint256"
                            }
                          ],
                          "internalType": "struct BigNumber",
                          "name": "value",
                          "type": "tuple"
                        }
                      ],
                      "internalType": "struct Zp",
                      "name": "a",
                      "type": "tuple"
                    },
                    {
                      "components": [
                        {
                          "components": [
                            {
                              "internalType": "bytes",
                              "name": "val",
                              "type": "bytes"
                            },
                            {
                              "internalType": "bool",
                              "name": "neg",
                              "type": "bool"
                            },
                            {
                              "internalType": "uint256",
                              "name": "bitlen",
                              "type": "uint256"
                            }
                          ],
                          "internalType": "struct BigNumber",
                          "name": "value",
                          "type": "tuple"
                        }
                      ],
                      "internalType": "struct Zp",
                      "name": "b",
                      "type": "tuple"
                    }
                  ],
                  "internalType": "struct Zp_2",
                  "name": "c",
                  "type": "tuple"
                }
              ],
              "internalType": "struct Zp_6",
              "name": "a",
              "type": "tuple"
            },
            {
              "components": [
                {
                  "components": [
                    {
                      "components": [
                        {
                          "components": [
                            {
                              "internalType": "bytes",
                              "name": "val",
                              "type": "bytes"
                            },
                            {
                              "internalType": "bool",
                              "name": "neg",
                              "type": "bool"
                            },
                            {
                              "internalType": "uint256",
                              "name": "bitlen",
                              "type": "uint256"
                            }
                          ],
                          "internalType": "struct BigNumber",
                          "name": "value",
                          "type": "tuple"
                        }
                      ],
                      "internalType": "struct Zp",
                      "name": "a",
                      "type": "tuple"
                    },
                    {
                      "components": [
                        {
                          "components": [
                            {
                              "internalType": "bytes",
                              "name": "val",
                              "type": "bytes"
                            },
                            {
                              "internalType": "bool",
                              "name": "neg",
                              "type": "bool"
                            },
                            {
                              "internalType": "uint256",
                              "name": "bitlen",
                              "type": "uint256"
                            }
                          ],
                          "internalType": "struct BigNumber",
                          "name": "value",
                          "type": "tuple"
                        }
                      ],
                      "internalType": "struct Zp",
                      "name": "b",
                      "type": "tuple"
                    }
                  ],
                  "internalType": "struct Zp_2",
                  "name": "a",
                  "type": "tuple"
                },
                {
                  "components": [
                    {
                      "components": [
                        {
                          "components": [
                            {
                              "internalType": "bytes",
                              "name": "val",
                              "type": "bytes"
                            },
                            {
                              "internalType": "bool",
                              "name": "neg",
                              "type": "bool"
                            },
                            {
                              "internalType": "uint256",
                              "name": "bitlen",
                              "type": "uint256"
                            }
                          ],
                          "internalType": "struct BigNumber",
                          "name": "value",
                          "type": "tuple"
                        }
                      ],
                      "internalType": "struct Zp",
                      "name": "a",
                      "type": "tuple"
                    },
                    {
                      "components": [
                        {
                          "components": [
                            {
                              "internalType": "bytes",
                              "name": "val",
                              "type": "bytes"
                            },
                            {
                              "internalType": "bool",
                              "name": "neg",
                              "type": "bool"
                            },
                            {
                              "internalType": "uint256",
                              "name": "bitlen",
                              "type": "uint256"
                            }
                          ],
                          "internalType": "struct BigNumber",
                          "name": "value",
                          "type": "tuple"
                        }
                      ],
                      "internalType": "struct Zp",
                      "name": "b",
                      "type": "tuple"
                    }
                  ],
                  "internalType": "struct Zp_2",
                  "name": "b",
                  "type": "tuple"
                },
                {
                  "components": [
                    {
                      "components": [
                        {
                          "components": [
                            {
                              "internalType": "bytes",
                              "name": "val",
                              "type": "bytes"
                            },
                            {
                              "internalType": "bool",
                              "name": "neg",
                              "type": "bool"
                            },
                            {
                              "internalType": "uint256",
                              "name": "bitlen",
                              "type": "uint256"
                            }
                          ],
                          "internalType": "struct BigNumber",
                          "name": "value",
                          "type": "tuple"
                        }
                      ],
                      "internalType": "struct Zp",
                      "name": "a",
                      "type": "tuple"
                    },
                    {
                      "components": [
                        {
                          "components": [
                            {
                              "internalType": "bytes",
                              "name": "val",
                              "type": "bytes"
                            },
                            {
                              "internalType": "bool",
                              "name": "neg",
                              "type": "bool"
                            },
                            {
                              "internalType": "uint256",
                              "name": "bitlen",
                              "type": "uint256"
                            }
                          ],
                          "internalType": "struct BigNumber",
                          "name": "value",
                          "type": "tuple"
                        }
                      ],
                      "internalType": "struct Zp",
                      "name": "b",
                      "type": "tuple"
                    }
                  ],
                  "internalType": "struct Zp_2",
                  "name": "c",
                  "type": "tuple"
                }
              ],
              "internalType": "struct Zp_6",
              "name": "b",
              "type": "tuple"
            }
          ],
          "internalType": "struct Zp_12",
          "name": "y",
          "type": "tuple"
        }
      ],
      "name": "sum",
      "outputs": [
        {
          "components": [
            {
              "components": [
                {
                  "components": [
                    {
                      "components": [
                        {
                          "components": [
                            {
                              "internalType": "bytes",
                              "name": "val",
                              "type": "bytes"
                            },
                            {
                              "internalType": "bool",
                              "name": "neg",
                              "type": "bool"
                            },
                            {
                              "internalType": "uint256",
                              "name": "bitlen",
                              "type": "uint256"
                            }
                          ],
                          "internalType": "struct BigNumber",
                          "name": "value",
                          "type": "tuple"
                        }
                      ],
                      "internalType": "struct Zp",
                      "name": "a",
                      "type": "tuple"
                    },
                    {
                      "components": [
                        {
                          "components": [
                            {
                              "internalType": "bytes",
                              "name": "val",
                              "type": "bytes"
                            },
                            {
                              "internalType": "bool",
                              "name": "neg",
                              "type": "bool"
                            },
                            {
                              "internalType": "uint256",
                              "name": "bitlen",
                              "type": "uint256"
                            }
                          ],
                          "internalType": "struct BigNumber",
                          "name": "value",
                          "type": "tuple"
                        }
                      ],
                      "internalType": "struct Zp",
                      "name": "b",
                      "type": "tuple"
                    }
                  ],
                  "internalType": "struct Zp_2",
                  "name": "a",
                  "type": "tuple"
                },
                {
                  "components": [
                    {
                      "components": [
                        {
                          "components": [
                            {
                              "internalType": "bytes",
                              "name": "val",
                              "type": "bytes"
                            },
                            {
                              "internalType": "bool",
                              "name": "neg",
                              "type": "bool"
                            },
                            {
                              "internalType": "uint256",
                              "name": "bitlen",
                              "type": "uint256"
                            }
                          ],
                          "internalType": "struct BigNumber",
                          "name": "value",
                          "type": "tuple"
                        }
                      ],
                      "internalType": "struct Zp",
                      "name": "a",
                      "type": "tuple"
                    },
                    {
                      "components": [
                        {
                          "components": [
                            {
                              "internalType": "bytes",
                              "name": "val",
                              "type": "bytes"
                            },
                            {
                              "internalType": "bool",
                              "name": "neg",
                              "type": "bool"
                            },
                            {
                              "internalType": "uint256",
                              "name": "bitlen",
                              "type": "uint256"
                            }
                          ],
                          "internalType": "struct BigNumber",
                          "name": "value",
                          "type": "tuple"
                        }
                      ],
                      "internalType": "struct Zp",
                      "name": "b",
                      "type": "tuple"
                    }
                  ],
                  "internalType": "struct Zp_2",
                  "name": "b",
                  "type": "tuple"
                },
                {
                  "components": [
                    {
                      "components": [
                        {
                          "components": [
                            {
                              "internalType": "bytes",
                              "name": "val",
                              "type": "bytes"
                            },
                            {
                              "internalType": "bool",
                              "name": "neg",
                              "type": "bool"
                            },
                            {
                              "internalType": "uint256",
                              "name": "bitlen",
                              "type": "uint256"
                            }
                          ],
                          "internalType": "struct BigNumber",
                          "name": "value",
                          "type": "tuple"
                        }
                      ],
                      "internalType": "struct Zp",
                      "name": "a",
                      "type": "tuple"
                    },
                    {
                      "components": [
                        {
                          "components": [
                            {
                              "internalType": "bytes",
                              "name": "val",
                              "type": "bytes"
                            },
                            {
                              "internalType": "bool",
                              "name": "neg",
                              "type": "bool"
                            },
                            {
                              "internalType": "uint256",
                              "name": "bitlen",
                              "type": "uint256"
                            }
                          ],
                          "internalType": "struct BigNumber",
                          "name": "value",
                          "type": "tuple"
                        }
                      ],
                      "internalType": "struct Zp",
                      "name": "b",
                      "type": "tuple"
                    }
                  ],
                  "internalType": "struct Zp_2",
                  "name": "c",
                  "type": "tuple"
                }
              ],
              "internalType": "struct Zp_6",
              "name": "a",
              "type": "tuple"
            },
            {
              "components": [
                {
                  "components": [
                    {
                      "components": [
                        {
                          "components": [
                            {
                              "internalType": "bytes",
                              "name": "val",
                              "type": "bytes"
                            },
                            {
                              "internalType": "bool",
                              "name": "neg",
                              "type": "bool"
                            },
                            {
                              "internalType": "uint256",
                              "name": "bitlen",
                              "type": "uint256"
                            }
                          ],
                          "internalType": "struct BigNumber",
                          "name": "value",
                          "type": "tuple"
                        }
                      ],
                      "internalType": "struct Zp",
                      "name": "a",
                      "type": "tuple"
                    },
                    {
                      "components": [
                        {
                          "components": [
                            {
                              "internalType": "bytes",
                              "name": "val",
                              "type": "bytes"
                            },
                            {
                              "internalType": "bool",
                              "name": "neg",
                              "type": "bool"
                            },
                            {
                              "internalType": "uint256",
                              "name": "bitlen",
                              "type": "uint256"
                            }
                          ],
                          "internalType": "struct BigNumber",
                          "name": "value",
                          "type": "tuple"
                        }
                      ],
                      "internalType": "struct Zp",
                      "name": "b",
                      "type": "tuple"
                    }
                  ],
                  "internalType": "struct Zp_2",
                  "name": "a",
                  "type": "tuple"
                },
                {
                  "components": [
                    {
                      "components": [
                        {
                          "components": [
                            {
                              "internalType": "bytes",
                              "name": "val",
                              "type": "bytes"
                            },
                            {
                              "internalType": "bool",
                              "name": "neg",
                              "type": "bool"
                            },
                            {
                              "internalType": "uint256",
                              "name": "bitlen",
                              "type": "uint256"
                            }
                          ],
                          "internalType": "struct BigNumber",
                          "name": "value",
                          "type": "tuple"
                        }
                      ],
                      "internalType": "struct Zp",
                      "name": "a",
                      "type": "tuple"
                    },
                    {
                      "components": [
                        {
                          "components": [
                            {
                              "internalType": "bytes",
                              "name": "val",
                              "type": "bytes"
                            },
                            {
                              "internalType": "bool",
                              "name": "neg",
                              "type": "bool"
                            },
                            {
                              "internalType": "uint256",
                              "name": "bitlen",
                              "type": "uint256"
                            }
                          ],
                          "internalType": "struct BigNumber",
                          "name": "value",
                          "type": "tuple"
                        }
                      ],
                      "internalType": "struct Zp",
                      "name": "b",
                      "type": "tuple"
                    }
                  ],
                  "internalType": "struct Zp_2",
                  "name": "b",
                  "type": "tuple"
                },
                {
                  "components": [
                    {
                      "components": [
                        {
                          "components": [
                            {
                              "internalType": "bytes",
                              "name": "val",
                              "type": "bytes"
                            },
                            {
                              "internalType": "bool",
                              "name": "neg",
                              "type": "bool"
                            },
                            {
                              "internalType": "uint256",
                              "name": "bitlen",
                              "type": "uint256"
                            }
                          ],
                          "internalType": "struct BigNumber",
                          "name": "value",
                          "type": "tuple"
                        }
                      ],
                      "internalType": "struct Zp",
                      "name": "a",
                      "type": "tuple"
                    },
                    {
                      "components": [
                        {
                          "components": [
                            {
                              "internalType": "bytes",
                              "name": "val",
                              "type": "bytes"
                            },
                            {
                              "internalType": "bool",
                              "name": "neg",
                              "type": "bool"
                            },
                            {
                              "internalType": "uint256",
                              "name": "bitlen",
                              "type": "uint256"
                            }
                          ],
                          "internalType": "struct BigNumber",
                          "name": "value",
                          "type": "tuple"
                        }
                      ],
                      "internalType": "struct Zp",
                      "name": "b",
                      "type": "tuple"
                    }
                  ],
                  "internalType": "struct Zp_2",
                  "name": "c",
                  "type": "tuple"
                }
              ],
              "internalType": "struct Zp_6",
              "name": "b",
              "type": "tuple"
            }
          ],
          "internalType": "struct Zp_12",
          "name": "",
          "type": "tuple"
        }
      ],
      "stateMutability": "view",
      "type": "function"
    },
    {
      "inputs": [],
      "name": "three",
      "outputs": [
        {
          "components": [
            {
              "components": [
                {
                  "components": [
                    {
                      "components": [
                        {
                          "components": [
                            {
                              "internalType": "bytes",
                              "name": "val",
                              "type": "bytes"
                            },
                            {
                              "internalType": "bool",
                              "name": "neg",
                              "type": "bool"
                            },
                            {
                              "internalType": "uint256",
                              "name": "bitlen",
                              "type": "uint256"
                            }
                          ],
                          "internalType": "struct BigNumber",
                          "name": "value",
                          "type": "tuple"
                        }
                      ],
                      "internalType": "struct Zp",
                      "name": "a",
                      "type": "tuple"
                    },
                    {
                      "components": [
                        {
                          "components": [
                            {
                              "internalType": "bytes",
                              "name": "val",
                              "type": "bytes"
                            },
                            {
                              "internalType": "bool",
                              "name": "neg",
                              "type": "bool"
                            },
                            {
                              "internalType": "uint256",
                              "name": "bitlen",
                              "type": "uint256"
                            }
                          ],
                          "internalType": "struct BigNumber",
                          "name": "value",
                          "type": "tuple"
                        }
                      ],
                      "internalType": "struct Zp",
                      "name": "b",
                      "type": "tuple"
                    }
                  ],
                  "internalType": "struct Zp_2",
                  "name": "a",
                  "type": "tuple"
                },
                {
                  "components": [
                    {
                      "components": [
                        {
                          "components": [
                            {
                              "internalType": "bytes",
                              "name": "val",
                              "type": "bytes"
                            },
                            {
                              "internalType": "bool",
                              "name": "neg",
                              "type": "bool"
                            },
                            {
                              "internalType": "uint256",
                              "name": "bitlen",
                              "type": "uint256"
                            }
                          ],
                          "internalType": "struct BigNumber",
                          "name": "value",
                          "type": "tuple"
                        }
                      ],
                      "internalType": "struct Zp",
                      "name": "a",
                      "type": "tuple"
                    },
                    {
                      "components": [
                        {
                          "components": [
                            {
                              "internalType": "bytes",
                              "name": "val",
                              "type": "bytes"
                            },
                            {
                              "internalType": "bool",
                              "name": "neg",
                              "type": "bool"
                            },
                            {
                              "internalType": "uint256",
                              "name": "bitlen",
                              "type": "uint256"
                            }
                          ],
                          "internalType": "struct BigNumber",
                          "name": "value",
                          "type": "tuple"
                        }
                      ],
                      "internalType": "struct Zp",
                      "name": "b",
                      "type": "tuple"
                    }
                  ],
                  "internalType": "struct Zp_2",
                  "name": "b",
                  "type": "tuple"
                },
                {
                  "components": [
                    {
                      "components": [
                        {
                          "components": [
                            {
                              "internalType": "bytes",
                              "name": "val",
                              "type": "bytes"
                            },
                            {
                              "internalType": "bool",
                              "name": "neg",
                              "type": "bool"
                            },
                            {
                              "internalType": "uint256",
                              "name": "bitlen",
                              "type": "uint256"
                            }
                          ],
                          "internalType": "struct BigNumber",
                          "name": "value",
                          "type": "tuple"
                        }
                      ],
                      "internalType": "struct Zp",
                      "name": "a",
                      "type": "tuple"
                    },
                    {
                      "components": [
                        {
                          "components": [
                            {
                              "internalType": "bytes",
                              "name": "val",
                              "type": "bytes"
                            },
                            {
                              "internalType": "bool",
                              "name": "neg",
                              "type": "bool"
                            },
                            {
                              "internalType": "uint256",
                              "name": "bitlen",
                              "type": "uint256"
                            }
                          ],
                          "internalType": "struct BigNumber",
                          "name": "value",
                          "type": "tuple"
                        }
                      ],
                      "internalType": "struct Zp",
                      "name": "b",
                      "type": "tuple"
                    }
                  ],
                  "internalType": "struct Zp_2",
                  "name": "c",
                  "type": "tuple"
                }
              ],
              "internalType": "struct Zp_6",
              "name": "a",
              "type": "tuple"
            },
            {
              "components": [
                {
                  "components": [
                    {
                      "components": [
                        {
                          "components": [
                            {
                              "internalType": "bytes",
                              "name": "val",
                              "type": "bytes"
                            },
                            {
                              "internalType": "bool",
                              "name": "neg",
                              "type": "bool"
                            },
                            {
                              "internalType": "uint256",
                              "name": "bitlen",
                              "type": "uint256"
                            }
                          ],
                          "internalType": "struct BigNumber",
                          "name": "value",
                          "type": "tuple"
                        }
                      ],
                      "internalType": "struct Zp",
                      "name": "a",
                      "type": "tuple"
                    },
                    {
                      "components": [
                        {
                          "components": [
                            {
                              "internalType": "bytes",
                              "name": "val",
                              "type": "bytes"
                            },
                            {
                              "internalType": "bool",
                              "name": "neg",
                              "type": "bool"
                            },
                            {
                              "internalType": "uint256",
                              "name": "bitlen",
                              "type": "uint256"
                            }
                          ],
                          "internalType": "struct BigNumber",
                          "name": "value",
                          "type": "tuple"
                        }
                      ],
                      "internalType": "struct Zp",
                      "name": "b",
                      "type": "tuple"
                    }
                  ],
                  "internalType": "struct Zp_2",
                  "name": "a",
                  "type": "tuple"
                },
                {
                  "components": [
                    {
                      "components": [
                        {
                          "components": [
                            {
                              "internalType": "bytes",
                              "name": "val",
                              "type": "bytes"
                            },
                            {
                              "internalType": "bool",
                              "name": "neg",
                              "type": "bool"
                            },
                            {
                              "internalType": "uint256",
                              "name": "bitlen",
                              "type": "uint256"
                            }
                          ],
                          "internalType": "struct BigNumber",
                          "name": "value",
                          "type": "tuple"
                        }
                      ],
                      "internalType": "struct Zp",
                      "name": "a",
                      "type": "tuple"
                    },
                    {
                      "components": [
                        {
                          "components": [
                            {
                              "internalType": "bytes",
                              "name": "val",
                              "type": "bytes"
                            },
                            {
                              "internalType": "bool",
                              "name": "neg",
                              "type": "bool"
                            },
                            {
                              "internalType": "uint256",
                              "name": "bitlen",
                              "type": "uint256"
                            }
                          ],
                          "internalType": "struct BigNumber",
                          "name": "value",
                          "type": "tuple"
                        }
                      ],
                      "internalType": "struct Zp",
                      "name": "b",
                      "type": "tuple"
                    }
                  ],
                  "internalType": "struct Zp_2",
                  "name": "b",
                  "type": "tuple"
                },
                {
                  "components": [
                    {
                      "components": [
                        {
                          "components": [
                            {
                              "internalType": "bytes",
                              "name": "val",
                              "type": "bytes"
                            },
                            {
                              "internalType": "bool",
                              "name": "neg",
                              "type": "bool"
                            },
                            {
                              "internalType": "uint256",
                              "name": "bitlen",
                              "type": "uint256"
                            }
                          ],
                          "internalType": "struct BigNumber",
                          "name": "value",
                          "type": "tuple"
                        }
                      ],
                      "internalType": "struct Zp",
                      "name": "a",
                      "type": "tuple"
                    },
                    {
                      "components": [
                        {
                          "components": [
                            {
                              "internalType": "bytes",
                              "name": "val",
                              "type": "bytes"
                            },
                            {
                              "internalType": "bool",
                              "name": "neg",
                              "type": "bool"
                            },
                            {
                              "internalType": "uint256",
                              "name": "bitlen",
                              "type": "uint256"
                            }
                          ],
                          "internalType": "struct BigNumber",
                          "name": "value",
                          "type": "tuple"
                        }
                      ],
                      "internalType": "struct Zp",
                      "name": "b",
                      "type": "tuple"
                    }
                  ],
                  "internalType": "struct Zp_2",
                  "name": "c",
                  "type": "tuple"
                }
              ],
              "internalType": "struct Zp_6",
              "name": "b",
              "type": "tuple"
            }
          ],
          "internalType": "struct Zp_12",
          "name": "",
          "type": "tuple"
        }
      ],
      "stateMutability": "view",
      "type": "function"
    },
    {
      "inputs": [],
      "name": "two",
      "outputs": [
        {
          "components": [
            {
              "components": [
                {
                  "components": [
                    {
                      "components": [
                        {
                          "components": [
                            {
                              "internalType": "bytes",
                              "name": "val",
                              "type": "bytes"
                            },
                            {
                              "internalType": "bool",
                              "name": "neg",
                              "type": "bool"
                            },
                            {
                              "internalType": "uint256",
                              "name": "bitlen",
                              "type": "uint256"
                            }
                          ],
                          "internalType": "struct BigNumber",
                          "name": "value",
                          "type": "tuple"
                        }
                      ],
                      "internalType": "struct Zp",
                      "name": "a",
                      "type": "tuple"
                    },
                    {
                      "components": [
                        {
                          "components": [
                            {
                              "internalType": "bytes",
                              "name": "val",
                              "type": "bytes"
                            },
                            {
                              "internalType": "bool",
                              "name": "neg",
                              "type": "bool"
                            },
                            {
                              "internalType": "uint256",
                              "name": "bitlen",
                              "type": "uint256"
                            }
                          ],
                          "internalType": "struct BigNumber",
                          "name": "value",
                          "type": "tuple"
                        }
                      ],
                      "internalType": "struct Zp",
                      "name": "b",
                      "type": "tuple"
                    }
                  ],
                  "internalType": "struct Zp_2",
                  "name": "a",
                  "type": "tuple"
                },
                {
                  "components": [
                    {
                      "components": [
                        {
                          "components": [
                            {
                              "internalType": "bytes",
                              "name": "val",
                              "type": "bytes"
                            },
                            {
                              "internalType": "bool",
                              "name": "neg",
                              "type": "bool"
                            },
                            {
                              "internalType": "uint256",
                              "name": "bitlen",
                              "type": "uint256"
                            }
                          ],
                          "internalType": "struct BigNumber",
                          "name": "value",
                          "type": "tuple"
                        }
                      ],
                      "internalType": "struct Zp",
                      "name": "a",
                      "type": "tuple"
                    },
                    {
                      "components": [
                        {
                          "components": [
                            {
                              "internalType": "bytes",
                              "name": "val",
                              "type": "bytes"
                            },
                            {
                              "internalType": "bool",
                              "name": "neg",
                              "type": "bool"
                            },
                            {
                              "internalType": "uint256",
                              "name": "bitlen",
                              "type": "uint256"
                            }
                          ],
                          "internalType": "struct BigNumber",
                          "name": "value",
                          "type": "tuple"
                        }
                      ],
                      "internalType": "struct Zp",
                      "name": "b",
                      "type": "tuple"
                    }
                  ],
                  "internalType": "struct Zp_2",
                  "name": "b",
                  "type": "tuple"
                },
                {
                  "components": [
                    {
                      "components": [
                        {
                          "components": [
                            {
                              "internalType": "bytes",
                              "name": "val",
                              "type": "bytes"
                            },
                            {
                              "internalType": "bool",
                              "name": "neg",
                              "type": "bool"
                            },
                            {
                              "internalType": "uint256",
                              "name": "bitlen",
                              "type": "uint256"
                            }
                          ],
                          "internalType": "struct BigNumber",
                          "name": "value",
                          "type": "tuple"
                        }
                      ],
                      "internalType": "struct Zp",
                      "name": "a",
                      "type": "tuple"
                    },
                    {
                      "components": [
                        {
                          "components": [
                            {
                              "internalType": "bytes",
                              "name": "val",
                              "type": "bytes"
                            },
                            {
                              "internalType": "bool",
                              "name": "neg",
                              "type": "bool"
                            },
                            {
                              "internalType": "uint256",
                              "name": "bitlen",
                              "type": "uint256"
                            }
                          ],
                          "internalType": "struct BigNumber",
                          "name": "value",
                          "type": "tuple"
                        }
                      ],
                      "internalType": "struct Zp",
                      "name": "b",
                      "type": "tuple"
                    }
                  ],
                  "internalType": "struct Zp_2",
                  "name": "c",
                  "type": "tuple"
                }
              ],
              "internalType": "struct Zp_6",
              "name": "a",
              "type": "tuple"
            },
            {
              "components": [
                {
                  "components": [
                    {
                      "components": [
                        {
                          "components": [
                            {
                              "internalType": "bytes",
                              "name": "val",
                              "type": "bytes"
                            },
                            {
                              "internalType": "bool",
                              "name": "neg",
                              "type": "bool"
                            },
                            {
                              "internalType": "uint256",
                              "name": "bitlen",
                              "type": "uint256"
                            }
                          ],
                          "internalType": "struct BigNumber",
                          "name": "value",
                          "type": "tuple"
                        }
                      ],
                      "internalType": "struct Zp",
                      "name": "a",
                      "type": "tuple"
                    },
                    {
                      "components": [
                        {
                          "components": [
                            {
                              "internalType": "bytes",
                              "name": "val",
                              "type": "bytes"
                            },
                            {
                              "internalType": "bool",
                              "name": "neg",
                              "type": "bool"
                            },
                            {
                              "internalType": "uint256",
                              "name": "bitlen",
                              "type": "uint256"
                            }
                          ],
                          "internalType": "struct BigNumber",
                          "name": "value",
                          "type": "tuple"
                        }
                      ],
                      "internalType": "struct Zp",
                      "name": "b",
                      "type": "tuple"
                    }
                  ],
                  "internalType": "struct Zp_2",
                  "name": "a",
                  "type": "tuple"
                },
                {
                  "components": [
                    {
                      "components": [
                        {
                          "components": [
                            {
                              "internalType": "bytes",
                              "name": "val",
                              "type": "bytes"
                            },
                            {
                              "internalType": "bool",
                              "name": "neg",
                              "type": "bool"
                            },
                            {
                              "internalType": "uint256",
                              "name": "bitlen",
                              "type": "uint256"
                            }
                          ],
                          "internalType": "struct BigNumber",
                          "name": "value",
                          "type": "tuple"
                        }
                      ],
                      "internalType": "struct Zp",
                      "name": "a",
                      "type": "tuple"
                    },
                    {
                      "components": [
                        {
                          "components": [
                            {
                              "internalType": "bytes",
                              "name": "val",
                              "type": "bytes"
                            },
                            {
                              "internalType": "bool",
                              "name": "neg",
                              "type": "bool"
                            },
                            {
                              "internalType": "uint256",
                              "name": "bitlen",
                              "type": "uint256"
                            }
                          ],
                          "internalType": "struct BigNumber",
                          "name": "value",
                          "type": "tuple"
                        }
                      ],
                      "internalType": "struct Zp",
                      "name": "b",
                      "type": "tuple"
                    }
                  ],
                  "internalType": "struct Zp_2",
                  "name": "b",
                  "type": "tuple"
                },
                {
                  "components": [
                    {
                      "components": [
                        {
                          "components": [
                            {
                              "internalType": "bytes",
                              "name": "val",
                              "type": "bytes"
                            },
                            {
                              "internalType": "bool",
                              "name": "neg",
                              "type": "bool"
                            },
                            {
                              "internalType": "uint256",
                              "name": "bitlen",
                              "type": "uint256"
                            }
                          ],
                          "internalType": "struct BigNumber",
                          "name": "value",
                          "type": "tuple"
                        }
                      ],
                      "internalType": "struct Zp",
                      "name": "a",
                      "type": "tuple"
                    },
                    {
                      "components": [
                        {
                          "components": [
                            {
                              "internalType": "bytes",
                              "name": "val",
                              "type": "bytes"
                            },
                            {
                              "internalType": "bool",
                              "name": "neg",
                              "type": "bool"
                            },
                            {
                              "internalType": "uint256",
                              "name": "bitlen",
                              "type": "uint256"
                            }
                          ],
                          "internalType": "struct BigNumber",
                          "name": "value",
                          "type": "tuple"
                        }
                      ],
                      "internalType": "struct Zp",
                      "name": "b",
                      "type": "tuple"
                    }
                  ],
                  "internalType": "struct Zp_2",
                  "name": "c",
                  "type": "tuple"
                }
              ],
              "internalType": "struct Zp_6",
              "name": "b",
              "type": "tuple"
            }
          ],
          "internalType": "struct Zp_12",
          "name": "",
          "type": "tuple"
        }
      ],
      "stateMutability": "view",
      "type": "function"
    },
    {
      "inputs": [],
      "name": "zero",
      "outputs": [
        {
          "components": [
            {
              "components": [
                {
                  "components": [
                    {
                      "components": [
                        {
                          "components": [
                            {
                              "internalType": "bytes",
                              "name": "val",
                              "type": "bytes"
                            },
                            {
                              "internalType": "bool",
                              "name": "neg",
                              "type": "bool"
                            },
                            {
                              "internalType": "uint256",
                              "name": "bitlen",
                              "type": "uint256"
                            }
                          ],
                          "internalType": "struct BigNumber",
                          "name": "value",
                          "type": "tuple"
                        }
                      ],
                      "internalType": "struct Zp",
                      "name": "a",
                      "type": "tuple"
                    },
                    {
                      "components": [
                        {
                          "components": [
                            {
                              "internalType": "bytes",
                              "name": "val",
                              "type": "bytes"
                            },
                            {
                              "internalType": "bool",
                              "name": "neg",
                              "type": "bool"
                            },
                            {
                              "internalType": "uint256",
                              "name": "bitlen",
                              "type": "uint256"
                            }
                          ],
                          "internalType": "struct BigNumber",
                          "name": "value",
                          "type": "tuple"
                        }
                      ],
                      "internalType": "struct Zp",
                      "name": "b",
                      "type": "tuple"
                    }
                  ],
                  "internalType": "struct Zp_2",
                  "name": "a",
                  "type": "tuple"
                },
                {
                  "components": [
                    {
                      "components": [
                        {
                          "components": [
                            {
                              "internalType": "bytes",
                              "name": "val",
                              "type": "bytes"
                            },
                            {
                              "internalType": "bool",
                              "name": "neg",
                              "type": "bool"
                            },
                            {
                              "internalType": "uint256",
                              "name": "bitlen",
                              "type": "uint256"
                            }
                          ],
                          "internalType": "struct BigNumber",
                          "name": "value",
                          "type": "tuple"
                        }
                      ],
                      "internalType": "struct Zp",
                      "name": "a",
                      "type": "tuple"
                    },
                    {
                      "components": [
                        {
                          "components": [
                            {
                              "internalType": "bytes",
                              "name": "val",
                              "type": "bytes"
                            },
                            {
                              "internalType": "bool",
                              "name": "neg",
                              "type": "bool"
                            },
                            {
                              "internalType": "uint256",
                              "name": "bitlen",
                              "type": "uint256"
                            }
                          ],
                          "internalType": "struct BigNumber",
                          "name": "value",
                          "type": "tuple"
                        }
                      ],
                      "internalType": "struct Zp",
                      "name": "b",
                      "type": "tuple"
                    }
                  ],
                  "internalType": "struct Zp_2",
                  "name": "b",
                  "type": "tuple"
                },
                {
                  "components": [
                    {
                      "components": [
                        {
                          "components": [
                            {
                              "internalType": "bytes",
                              "name": "val",
                              "type": "bytes"
                            },
                            {
                              "internalType": "bool",
                              "name": "neg",
                              "type": "bool"
                            },
                            {
                              "internalType": "uint256",
                              "name": "bitlen",
                              "type": "uint256"
                            }
                          ],
                          "internalType": "struct BigNumber",
                          "name": "value",
                          "type": "tuple"
                        }
                      ],
                      "internalType": "struct Zp",
                      "name": "a",
                      "type": "tuple"
                    },
                    {
                      "components": [
                        {
                          "components": [
                            {
                              "internalType": "bytes",
                              "name": "val",
                              "type": "bytes"
                            },
                            {
                              "internalType": "bool",
                              "name": "neg",
                              "type": "bool"
                            },
                            {
                              "internalType": "uint256",
                              "name": "bitlen",
                              "type": "uint256"
                            }
                          ],
                          "internalType": "struct BigNumber",
                          "name": "value",
                          "type": "tuple"
                        }
                      ],
                      "internalType": "struct Zp",
                      "name": "b",
                      "type": "tuple"
                    }
                  ],
                  "internalType": "struct Zp_2",
                  "name": "c",
                  "type": "tuple"
                }
              ],
              "internalType": "struct Zp_6",
              "name": "a",
              "type": "tuple"
            },
            {
              "components": [
                {
                  "components": [
                    {
                      "components": [
                        {
                          "components": [
                            {
                              "internalType": "bytes",
                              "name": "val",
                              "type": "bytes"
                            },
                            {
                              "internalType": "bool",
                              "name": "neg",
                              "type": "bool"
                            },
                            {
                              "internalType": "uint256",
                              "name": "bitlen",
                              "type": "uint256"
                            }
                          ],
                          "internalType": "struct BigNumber",
                          "name": "value",
                          "type": "tuple"
                        }
                      ],
                      "internalType": "struct Zp",
                      "name": "a",
                      "type": "tuple"
                    },
                    {
                      "components": [
                        {
                          "components": [
                            {
                              "internalType": "bytes",
                              "name": "val",
                              "type": "bytes"
                            },
                            {
                              "internalType": "bool",
                              "name": "neg",
                              "type": "bool"
                            },
                            {
                              "internalType": "uint256",
                              "name": "bitlen",
                              "type": "uint256"
                            }
                          ],
                          "internalType": "struct BigNumber",
                          "name": "value",
                          "type": "tuple"
                        }
                      ],
                      "internalType": "struct Zp",
                      "name": "b",
                      "type": "tuple"
                    }
                  ],
                  "internalType": "struct Zp_2",
                  "name": "a",
                  "type": "tuple"
                },
                {
                  "components": [
                    {
                      "components": [
                        {
                          "components": [
                            {
                              "internalType": "bytes",
                              "name": "val",
                              "type": "bytes"
                            },
                            {
                              "internalType": "bool",
                              "name": "neg",
                              "type": "bool"
                            },
                            {
                              "internalType": "uint256",
                              "name": "bitlen",
                              "type": "uint256"
                            }
                          ],
                          "internalType": "struct BigNumber",
                          "name": "value",
                          "type": "tuple"
                        }
                      ],
                      "internalType": "struct Zp",
                      "name": "a",
                      "type": "tuple"
                    },
                    {
                      "components": [
                        {
                          "components": [
                            {
                              "internalType": "bytes",
                              "name": "val",
                              "type": "bytes"
                            },
                            {
                              "internalType": "bool",
                              "name": "neg",
                              "type": "bool"
                            },
                            {
                              "internalType": "uint256",
                              "name": "bitlen",
                              "type": "uint256"
                            }
                          ],
                          "internalType": "struct BigNumber",
                          "name": "value",
                          "type": "tuple"
                        }
                      ],
                      "internalType": "struct Zp",
                      "name": "b",
                      "type": "tuple"
                    }
                  ],
                  "internalType": "struct Zp_2",
                  "name": "b",
                  "type": "tuple"
                },
                {
                  "components": [
                    {
                      "components": [
                        {
                          "components": [
                            {
                              "internalType": "bytes",
                              "name": "val",
                              "type": "bytes"
                            },
                            {
                              "internalType": "bool",
                              "name": "neg",
                              "type": "bool"
                            },
                            {
                              "internalType": "uint256",
                              "name": "bitlen",
                              "type": "uint256"
                            }
                          ],
                          "internalType": "struct BigNumber",
                          "name": "value",
                          "type": "tuple"
                        }
                      ],
                      "internalType": "struct Zp",
                      "name": "a",
                      "type": "tuple"
                    },
                    {
                      "components": [
                        {
                          "components": [
                            {
                              "internalType": "bytes",
                              "name": "val",
                              "type": "bytes"
                            },
                            {
                              "internalType": "bool",
                              "name": "neg",
                              "type": "bool"
                            },
                            {
                              "internalType": "uint256",
                              "name": "bitlen",
                              "type": "uint256"
                            }
                          ],
                          "internalType": "struct BigNumber",
                          "name": "value",
                          "type": "tuple"
                        }
                      ],
                      "internalType": "struct Zp",
                      "name": "b",
                      "type": "tuple"
                    }
                  ],
                  "internalType": "struct Zp_2",
                  "name": "c",
                  "type": "tuple"
                }
              ],
              "internalType": "struct Zp_6",
              "name": "b",
              "type": "tuple"
            }
          ],
          "internalType": "struct Zp_12",
          "name": "",
          "type": "tuple"
        }
      ],
      "stateMutability": "view",
      "type": "function"
    }
  ],
  "bytecode": "0x608060405234801561001057600080fd5b50604051612cfd380380612cfd833981810160405281019061003291906100ed565b806000806101000a81548173ffffffffffffffffffffffffffffffffffffffff021916908373ffffffffffffffffffffffffffffffffffffffff1602179055505061011a565b600080fd5b600073ffffffffffffffffffffffffffffffffffffffff82169050919050565b60006100a88261007d565b9050919050565b60006100ba8261009d565b9050919050565b6100ca816100af565b81146100d557600080fd5b50565b6000815190506100e7816100c1565b92915050565b60006020828403121561010357610102610078565b5b6000610111848285016100d8565b91505092915050565b612bd4806101296000396000f3fe608060405234801561001057600080fd5b50600436106100ea5760003560e01c80639e0ddc501161008c578063ac70f2af11610066578063ac70f2af14610273578063bc1b392d146102a3578063f6700795146102c1578063f87386c3146102f1576100ea565b80639e0ddc50146101f55780639eea8ce814610225578063a1fca2b614610255576100ea565b8063765cc67a116100c8578063765cc67a1461015b57806376cfdd661461017757806377839c69146101a7578063901717d1146101d7576100ea565b806345caa117146100ef5780635fdf05d71461010d5780636bc90c281461012b575b600080fd5b6100f7610321565b60405161010491906120b3565b60405180910390f35b61011561045e565b60405161012291906120b3565b60405180910390f35b61014560048036038101906101409190612520565b61059b565b60405161015291906120b3565b60405180910390f35b61017560048036038101906101709190612598565b610705565b005b610191600480360381019061018c919061263f565b610bb6565b60405161019e91906120b3565b60405180910390f35b6101c160048036038101906101bc9190612520565b610d0b565b6040516101ce91906120b3565b60405180910390f35b6101df6111bf565b6040516101ec91906120b3565b60405180910390f35b61020f600480360381019061020a9190612520565b6112fc565b60405161021c91906120b3565b60405180910390f35b61023f600480360381019061023a9190612520565b611466565b60405161024c9190612697565b60405180910390f35b61025d6115c1565b60405161026a91906120b3565b60405180910390f35b61028d60048036038101906102889190612520565b6116fe565b60405161029a91906120b3565b60405180910390f35b6102ab611720565b6040516102b891906120b3565b60405180910390f35b6102db60048036038101906102d691906126b2565b61185d565b6040516102e891906120b3565b60405180910390f35b61030b600480360381019061030691906126fb565b611daf565b60405161031891906120b3565b60405180910390f35b610329611dd4565b61045960008054906101000a900473ffffffffffffffffffffffffffffffffffffffff1673ffffffffffffffffffffffffffffffffffffffff166345caa1176040518163ffffffff1660e01b8152600401600060405180830381865afa158015610397573d6000803e3d6000fd5b505050506040513d6000823e3d601f19601f820116820180604052508101906103c09190612a25565b60008054906101000a900473ffffffffffffffffffffffffffffffffffffffff1673ffffffffffffffffffffffffffffffffffffffff1663bc1b392d6040518163ffffffff1660e01b8152600401600060405180830381865afa15801561042b573d6000803e3d6000fd5b505050506040513d6000823e3d601f19601f820116820180604052508101906104549190612a25565b611daf565b905090565b610466611dd4565b61059660008054906101000a900473ffffffffffffffffffffffffffffffffffffffff1673ffffffffffffffffffffffffffffffffffffffff16635fdf05d76040518163ffffffff1660e01b8152600401600060405180830381865afa1580156104d4573d6000803e3d6000fd5b505050506040513d6000823e3d601f19601f820116820180604052508101906104fd9190612a25565b60008054906101000a900473ffffffffffffffffffffffffffffffffffffffff1673ffffffffffffffffffffffffffffffffffffffff1663bc1b392d6040518163ffffffff1660e01b8152600401600060405180830381865afa158015610568573d6000803e3d6000fd5b505050506040513d6000823e3d601f19601f820116820180604052508101906105919190612a25565b611daf565b905090565b6105a3611dd4565b6106fd60008054906101000a900473ffffffffffffffffffffffffffffffffffffffff1673ffffffffffffffffffffffffffffffffffffffff1663f7052ed6856000015185600001516040518363ffffffff1660e01b8152600401610609929190612acc565b600060405180830381865afa158015610626573d6000803e3d6000fd5b505050506040513d6000823e3d601f19601f8201168201806040525081019061064f9190612a25565b60008054906101000a900473ffffffffffffffffffffffffffffffffffffffff1673ffffffffffffffffffffffffffffffffffffffff1663f7052ed6866020015186602001516040518363ffffffff1660e01b81526004016106b2929190612acc565b600060405180830381865afa1580156106cf573d6000803e3d6000fd5b505050506040513d6000823e3d601f19601f820116820180604052508101906106f89190612a25565b611daf565b905092915050565b60008060009054906101000a900473ffffffffffffffffffffffffffffffffffffffff1673ffffffffffffffffffffffffffffffffffffffff1663b52ab3b160008054906101000a900473ffffffffffffffffffffffffffffffffffffffff1673ffffffffffffffffffffffffffffffffffffffff16634aa28cb5866020015186602001516040518363ffffffff1660e01b81526004016107a7929190612acc565b600060405180830381865afa1580156107c4573d6000803e3d6000fd5b505050506040513d6000823e3d601f19601f820116820180604052508101906107ed9190612a25565b6040518263ffffffff1660e01b81526004016108099190612b03565b600060405180830381865afa158015610826573d6000803e3d6000fd5b505050506040513d6000823e3d601f19601f8201168201806040525081019061084f9190612a25565b905060008060009054906101000a900473ffffffffffffffffffffffffffffffffffffffff1673ffffffffffffffffffffffffffffffffffffffff16634aa28cb5856000015185600001516040518363ffffffff1660e01b81526004016108b7929190612acc565b600060405180830381865afa1580156108d4573d6000803e3d6000fd5b505050506040513d6000823e3d601f19601f820116820180604052508101906108fd9190612a25565b905060008060009054906101000a900473ffffffffffffffffffffffffffffffffffffffff1673ffffffffffffffffffffffffffffffffffffffff16634aa28cb5866020015186600001516040518363ffffffff1660e01b8152600401610965929190612acc565b600060405180830381865afa158015610982573d6000803e3d6000fd5b505050506040513d6000823e3d601f19601f820116820180604052508101906109ab9190612a25565b905060008060009054906101000a900473ffffffffffffffffffffffffffffffffffffffff1673ffffffffffffffffffffffffffffffffffffffff16634aa28cb5876000015187602001516040518363ffffffff1660e01b8152600401610a13929190612acc565b600060405180830381865afa158015610a30573d6000803e3d6000fd5b505050506040513d6000823e3d601f19601f82011682018060405250810190610a599190612a25565b905060008054906101000a900473ffffffffffffffffffffffffffffffffffffffff1673ffffffffffffffffffffffffffffffffffffffff16637e28928085856040518363ffffffff1660e01b8152600401610ab6929190612acc565b600060405180830381865afa158015610ad3573d6000803e3d6000fd5b505050506040513d6000823e3d601f19601f82011682018060405250810190610afc9190612a25565b876000018190525060008054906101000a900473ffffffffffffffffffffffffffffffffffffffff1673ffffffffffffffffffffffffffffffffffffffff16637e28928083836040518363ffffffff1660e01b8152600401610b5f929190612acc565b600060405180830381865afa158015610b7c573d6000803e3d6000fd5b505050506040513d6000823e3d601f19601f82011682018060405250810190610ba59190612a25565b876020018190525050505050505050565b610bbe611dd4565b604051806040016040528060008054906101000a900473ffffffffffffffffffffffffffffffffffffffff1673ffffffffffffffffffffffffffffffffffffffff166376cfdd66856040518263ffffffff1660e01b8152600401610c229190612b4f565b600060405180830381865afa158015610c3f573d6000803e3d6000fd5b505050506040513d6000823e3d601f19601f82011682018060405250810190610c689190612a25565b815260200160008054906101000a900473ffffffffffffffffffffffffffffffffffffffff1673ffffffffffffffffffffffffffffffffffffffff1663bc1b392d6040518163ffffffff1660e01b8152600401600060405180830381865afa158015610cd8573d6000803e3d6000fd5b505050506040513d6000823e3d601f19601f82011682018060405250810190610d019190612a25565b8152509050919050565b610d13611dd4565b60008060009054906101000a900473ffffffffffffffffffffffffffffffffffffffff1673ffffffffffffffffffffffffffffffffffffffff1663b52ab3b160008054906101000a900473ffffffffffffffffffffffffffffffffffffffff1673ffffffffffffffffffffffffffffffffffffffff16634aa28cb5876020015187602001516040518363ffffffff1660e01b8152600401610db5929190612acc565b600060405180830381865afa158015610dd2573d6000803e3d6000fd5b505050506040513d6000823e3d601f19601f82011682018060405250810190610dfb9190612a25565b6040518263ffffffff1660e01b8152600401610e179190612b03565b600060405180830381865afa158015610e34573d6000803e3d6000fd5b505050506040513d6000823e3d601f19601f82011682018060405250810190610e5d9190612a25565b905060008060009054906101000a900473ffffffffffffffffffffffffffffffffffffffff1673ffffffffffffffffffffffffffffffffffffffff16634aa28cb5866000015186600001516040518363ffffffff1660e01b8152600401610ec5929190612acc565b600060405180830381865afa158015610ee2573d6000803e3d6000fd5b505050506040513d6000823e3d601f19601f82011682018060405250810190610f0b9190612a25565b905060008060009054906101000a900473ffffffffffffffffffffffffffffffffffffffff1673ffffffffffffffffffffffffffffffffffffffff16634aa28cb5876020015187600001516040518363ffffffff1660e01b8152600401610f73929190612acc565b600060405180830381865afa158015610f90573d6000803e3d6000fd5b505050506040513d6000823e3d601f19601f82011682018060405250810190610fb99190612a25565b905060008060009054906101000a900473ffffffffffffffffffffffffffffffffffffffff1673ffffffffffffffffffffffffffffffffffffffff16634aa28cb5886000015188602001516040518363ffffffff1660e01b8152600401611021929190612acc565b600060405180830381865afa15801561103e573d6000803e3d6000fd5b505050506040513d6000823e3d601f19601f820116820180604052508101906110679190612a25565b90506111b360008054906101000a900473ffffffffffffffffffffffffffffffffffffffff1673ffffffffffffffffffffffffffffffffffffffff16637e28928086866040518363ffffffff1660e01b81526004016110c7929190612acc565b600060405180830381865afa1580156110e4573d6000803e3d6000fd5b505050506040513d6000823e3d601f19601f8201168201806040525081019061110d9190612a25565b60008054906101000a900473ffffffffffffffffffffffffffffffffffffffff1673ffffffffffffffffffffffffffffffffffffffff16637e28928085856040518363ffffffff1660e01b8152600401611168929190612acc565b600060405180830381865afa158015611185573d6000803e3d6000fd5b505050506040513d6000823e3d601f19601f820116820180604052508101906111ae9190612a25565b611daf565b94505050505092915050565b6111c7611dd4565b6112f760008054906101000a900473ffffffffffffffffffffffffffffffffffffffff1673ffffffffffffffffffffffffffffffffffffffff1663901717d16040518163ffffffff1660e01b8152600401600060405180830381865afa158015611235573d6000803e3d6000fd5b505050506040513d6000823e3d601f19601f8201168201806040525081019061125e9190612a25565b60008054906101000a900473ffffffffffffffffffffffffffffffffffffffff1673ffffffffffffffffffffffffffffffffffffffff1663bc1b392d6040518163ffffffff1660e01b8152600401600060405180830381865afa1580156112c9573d6000803e3d6000fd5b505050506040513d6000823e3d601f19601f820116820180604052508101906112f29190612a25565b611daf565b905090565b611304611dd4565b61145e60008054906101000a900473ffffffffffffffffffffffffffffffffffffffff1673ffffffffffffffffffffffffffffffffffffffff16637e289280856000015185600001516040518363ffffffff1660e01b815260040161136a929190612acc565b600060405180830381865afa158015611387573d6000803e3d6000fd5b505050506040513d6000823e3d601f19601f820116820180604052508101906113b09190612a25565b60008054906101000a900473ffffffffffffffffffffffffffffffffffffffff1673ffffffffffffffffffffffffffffffffffffffff16637e289280866020015186602001516040518363ffffffff1660e01b8152600401611413929190612acc565b600060405180830381865afa158015611430573d6000803e3d6000fd5b505050506040513d6000823e3d601f19601f820116820180604052508101906114599190612a25565b611daf565b905092915050565b60008060009054906101000a900473ffffffffffffffffffffffffffffffffffffffff1673ffffffffffffffffffffffffffffffffffffffff1663a0382305846000015184600001516040518363ffffffff1660e01b81526004016114cc929190612acc565b602060405180830381865afa1580156114e9573d6000803e3d6000fd5b505050506040513d601f19601f8201168201806040525081019061150d9190612b71565b80156115b9575060008054906101000a900473ffffffffffffffffffffffffffffffffffffffff1673ffffffffffffffffffffffffffffffffffffffff1663a0382305846020015184602001516040518363ffffffff1660e01b8152600401611577929190612acc565b602060405180830381865afa158015611594573d6000803e3d6000fd5b505050506040513d601f19601f820116820180604052508101906115b89190612b71565b5b905092915050565b6115c9611dd4565b6116f960008054906101000a900473ffffffffffffffffffffffffffffffffffffffff1673ffffffffffffffffffffffffffffffffffffffff1663a1fca2b66040518163ffffffff1660e01b8152600401600060405180830381865afa158015611637573d6000803e3d6000fd5b505050506040513d6000823e3d601f19601f820116820180604052508101906116609190612a25565b60008054906101000a900473ffffffffffffffffffffffffffffffffffffffff1673ffffffffffffffffffffffffffffffffffffffff1663bc1b392d6040518163ffffffff1660e01b8152600401600060405180830381865afa1580156116cb573d6000803e3d6000fd5b505050506040513d6000823e3d601f19601f820116820180604052508101906116f49190612a25565b611daf565b905090565b611706611dd4565b611718836117138461185d565b610d0b565b905092915050565b611728611dd4565b61185860008054906101000a900473ffffffffffffffffffffffffffffffffffffffff1673ffffffffffffffffffffffffffffffffffffffff1663bc1b392d6040518163ffffffff1660e01b8152600401600060405180830381865afa158015611796573d6000803e3d6000fd5b505050506040513d6000823e3d601f19601f820116820180604052508101906117bf9190612a25565b60008054906101000a900473ffffffffffffffffffffffffffffffffffffffff1673ffffffffffffffffffffffffffffffffffffffff1663bc1b392d6040518163ffffffff1660e01b8152600401600060405180830381865afa15801561182a573d6000803e3d6000fd5b505050506040513d6000823e3d601f19601f820116820180604052508101906118539190612a25565b611daf565b905090565b611865611dd4565b61187682611871611720565b611466565b1561188057600080fd5b60008060009054906101000a900473ffffffffffffffffffffffffffffffffffffffff1673ffffffffffffffffffffffffffffffffffffffff1663b52ab3b160008054906101000a900473ffffffffffffffffffffffffffffffffffffffff1673ffffffffffffffffffffffffffffffffffffffff16634aa28cb5866020015187602001516040518363ffffffff1660e01b8152600401611922929190612acc565b600060405180830381865afa15801561193f573d6000803e3d6000fd5b505050506040513d6000823e3d601f19601f820116820180604052508101906119689190612a25565b6040518263ffffffff1660e01b81526004016119849190612b03565b600060405180830381865afa1580156119a1573d6000803e3d6000fd5b505050506040513d6000823e3d601f19601f820116820180604052508101906119ca9190612a25565b905060008060009054906101000a900473ffffffffffffffffffffffffffffffffffffffff1673ffffffffffffffffffffffffffffffffffffffff16634aa28cb5856000015186600001516040518363ffffffff1660e01b8152600401611a32929190612acc565b600060405180830381865afa158015611a4f573d6000803e3d6000fd5b505050506040513d6000823e3d601f19601f82011682018060405250810190611a789190612a25565b905060008060009054906101000a900473ffffffffffffffffffffffffffffffffffffffff1673ffffffffffffffffffffffffffffffffffffffff1663f7052ed683856040518363ffffffff1660e01b8152600401611ad8929190612acc565b600060405180830381865afa158015611af5573d6000803e3d6000fd5b505050506040513d6000823e3d601f19601f82011682018060405250810190611b1e9190612a25565b9050611da560008054906101000a900473ffffffffffffffffffffffffffffffffffffffff1673ffffffffffffffffffffffffffffffffffffffff1663ba510cc38760000151846040518363ffffffff1660e01b8152600401611b82929190612acc565b600060405180830381865afa158015611b9f573d6000803e3d6000fd5b505050506040513d6000823e3d601f19601f82011682018060405250810190611bc89190612a25565b60008054906101000a900473ffffffffffffffffffffffffffffffffffffffff1673ffffffffffffffffffffffffffffffffffffffff1663ba510cc360008054906101000a900473ffffffffffffffffffffffffffffffffffffffff1673ffffffffffffffffffffffffffffffffffffffff1663f7052ed660008054906101000a900473ffffffffffffffffffffffffffffffffffffffff1673ffffffffffffffffffffffffffffffffffffffff1663bc1b392d6040518163ffffffff1660e01b8152600401600060405180830381865afa158015611cab573d6000803e3d6000fd5b505050506040513d6000823e3d601f19601f82011682018060405250810190611cd49190612a25565b8b602001516040518363ffffffff1660e01b8152600401611cf6929190612acc565b600060405180830381865afa158015611d13573d6000803e3d6000fd5b505050506040513d6000823e3d601f19601f82011682018060405250810190611d3c9190612a25565b856040518363ffffffff1660e01b8152600401611d5a929190612acc565b600060405180830381865afa158015611d77573d6000803e3d6000fd5b505050506040513d6000823e3d601f19601f82011682018060405250810190611da09190612a25565b611daf565b9350505050919050565b611db7611dd4565b604051806040016040528084815260200183815250905092915050565b6040518060400160405280611de7611dfa565b8152602001611df4611dfa565b81525090565b6040518060600160405280611e0d611e2d565b8152602001611e1a611e2d565b8152602001611e27611e2d565b81525090565b6040518060400160405280611e40611e53565b8152602001611e4d611e53565b81525090565b6040518060200160405280611e66611e6c565b81525090565b604051806060016040528060608152602001600015158152602001600081525090565b600081519050919050565b600082825260208201905092915050565b60005b83811015611ec9578082015181840152602081019050611eae565b60008484015250505050565b6000601f19601f8301169050919050565b6000611ef182611e8f565b611efb8185611e9a565b9350611f0b818560208601611eab565b611f1481611ed5565b840191505092915050565b60008115159050919050565b611f3481611f1f565b82525050565b6000819050919050565b611f4d81611f3a565b82525050565b60006060830160008301518482036000860152611f708282611ee6565b9150506020830151611f856020860182611f2b565b506040830151611f986040860182611f44565b508091505092915050565b60006020830160008301518482036000860152611fc08282611f53565b9150508091505092915050565b60006040830160008301518482036000860152611fea8282611fa3565b915050602083015184820360208601526120048282611fa3565b9150508091505092915050565b6000606083016000830151848203600086015261202e8282611fcd565b915050602083015184820360208601526120488282611fcd565b915050604083015184820360408601526120628282611fcd565b9150508091505092915050565b6000604083016000830151848203600086015261208c8282612011565b915050602083015184820360208601526120a68282612011565b9150508091505092915050565b600060208201905081810360008301526120cd818461206f565b905092915050565b6000604051905090565b600080fd5b600080fd5b600080fd5b7f4e487b7100000000000000000000000000000000000000000000000000000000600052604160045260246000fd5b61212682611ed5565b810181811067ffffffffffffffff82111715612145576121446120ee565b5b80604052505050565b60006121586120d5565b9050612164828261211d565b919050565b600080fd5b600080fd5b600080fd5b600067ffffffffffffffff821115612193576121926120ee565b5b61219c82611ed5565b9050602081019050919050565b82818337600083830152505050565b60006121cb6121c684612178565b61214e565b9050828152602081018484840111156121e7576121e6612173565b5b6121f28482856121a9565b509392505050565b600082601f83011261220f5761220e61216e565b5b813561221f8482602086016121b8565b91505092915050565b61223181611f1f565b811461223c57600080fd5b50565b60008135905061224e81612228565b92915050565b61225d81611f3a565b811461226857600080fd5b50565b60008135905061227a81612254565b92915050565b600060608284031215612296576122956120e9565b5b6122a0606061214e565b9050600082013567ffffffffffffffff8111156122c0576122bf612169565b5b6122cc848285016121fa565b60008301525060206122e08482850161223f565b60208301525060406122f48482850161226b565b60408301525092915050565b600060208284031215612316576123156120e9565b5b612320602061214e565b9050600082013567ffffffffffffffff8111156123405761233f612169565b5b61234c84828501612280565b60008301525092915050565b60006040828403121561236e5761236d6120e9565b5b612378604061214e565b9050600082013567ffffffffffffffff81111561239857612397612169565b5b6123a484828501612300565b600083015250602082013567ffffffffffffffff8111156123c8576123c7612169565b5b6123d484828501612300565b60208301525092915050565b6000606082840312156123f6576123f56120e9565b5b612400606061214e565b9050600082013567ffffffffffffffff8111156124205761241f612169565b5b61242c84828501612358565b600083015250602082013567ffffffffffffffff8111156124505761244f612169565b5b61245c84828501612358565b602083015250604082013567ffffffffffffffff8111156124805761247f612169565b5b61248c84828501612358565b60408301525092915050565b6000604082840312156124ae576124ad6120e9565b5b6124b8604061214e565b9050600082013567ffffffffffffffff8111156124d8576124d7612169565b5b6124e4848285016123e0565b600083015250602082013567ffffffffffffffff81111561250857612507612169565b5b612514848285016123e0565b60208301525092915050565b60008060408385031215612537576125366120df565b5b600083013567ffffffffffffffff811115612555576125546120e4565b5b61256185828601612498565b925050602083013567ffffffffffffffff811115612582576125816120e4565b5b61258e85828601612498565b9150509250929050565b6000806000606084860312156125b1576125b06120df565b5b600084013567ffffffffffffffff8111156125cf576125ce6120e4565b5b6125db86828701612498565b935050602084013567ffffffffffffffff8111156125fc576125fb6120e4565b5b61260886828701612498565b925050604084013567ffffffffffffffff811115612629576126286120e4565b5b61263586828701612498565b9150509250925092565b600060208284031215612655576126546120df565b5b600082013567ffffffffffffffff811115612673576126726120e4565b5b61267f84828501612300565b91505092915050565b61269181611f1f565b82525050565b60006020820190506126ac6000830184612688565b92915050565b6000602082840312156126c8576126c76120df565b5b600082013567ffffffffffffffff8111156126e6576126e56120e4565b5b6126f284828501612498565b91505092915050565b60008060408385031215612712576127116120df565b5b600083013567ffffffffffffffff8111156127305761272f6120e4565b5b61273c858286016123e0565b925050602083013567ffffffffffffffff81111561275d5761275c6120e4565b5b612769858286016123e0565b9150509250929050565b600061278661278184612178565b61214e565b9050828152602081018484840111156127a2576127a1612173565b5b6127ad848285611eab565b509392505050565b600082601f8301126127ca576127c961216e565b5b81516127da848260208601612773565b91505092915050565b6000815190506127f281612228565b92915050565b60008151905061280781612254565b92915050565b600060608284031215612823576128226120e9565b5b61282d606061214e565b9050600082015167ffffffffffffffff81111561284d5761284c612169565b5b612859848285016127b5565b600083015250602061286d848285016127e3565b6020830152506040612881848285016127f8565b60408301525092915050565b6000602082840312156128a3576128a26120e9565b5b6128ad602061214e565b9050600082015167ffffffffffffffff8111156128cd576128cc612169565b5b6128d98482850161280d565b60008301525092915050565b6000604082840312156128fb576128fa6120e9565b5b612905604061214e565b9050600082015167ffffffffffffffff81111561292557612924612169565b5b6129318482850161288d565b600083015250602082015167ffffffffffffffff81111561295557612954612169565b5b6129618482850161288d565b60208301525092915050565b600060608284031215612983576129826120e9565b5b61298d606061214e565b9050600082015167ffffffffffffffff8111156129ad576129ac612169565b5b6129b9848285016128e5565b600083015250602082015167ffffffffffffffff8111156129dd576129dc612169565b5b6129e9848285016128e5565b602083015250604082015167ffffffffffffffff811115612a0d57612a0c612169565b5b612a19848285016128e5565b60408301525092915050565b600060208284031215612a3b57612a3a6120df565b5b600082015167ffffffffffffffff811115612a5957612a586120e4565b5b612a658482850161296d565b91505092915050565b60006060830160008301518482036000860152612a8b8282611fcd565b91505060208301518482036020860152612aa58282611fcd565b91505060408301518482036040860152612abf8282611fcd565b9150508091505092915050565b60006040820190508181036000830152612ae68185612a6e565b90508181036020830152612afa8184612a6e565b90509392505050565b60006020820190508181036000830152612b1d8184612a6e565b905092915050565b60006020830160008301518482036000860152612b428282611f53565b9150508091505092915050565b60006020820190508181036000830152612b698184612b25565b905092915050565b600060208284031215612b8757612b866120df565b5b6000612b95848285016127e3565b9150509291505056fea264697066735822122015466b38491fbfdd34a51a145f568ee36fe5ebba287ed9e83c6ef9d3eb19c92864736f6c634300081b0033",
  "linkReferences": {},
  "deployedLinkReferences": {}
}