{
  "_format": "hh-sol-artifact-1",
  "contractName": "TwelveExtension",
  "sourceName": "contracts/field/twelveExtension.sol",
  "abi": [
    {
      "inputs": [
        {
          "internalType": "contract SexticExtension",
          "name": "six",
          "type": "address"
        }
      ],
      "stateMutability": "nonpayable",
      "type": "constructor"
    },
    {
      "inputs": [
        {
          "components": [
            {
              "components": [
                {
                  "components": [
                    {
                      "components": [
                        {
                          "internalType": "bytes",
                          "name": "val",
                          "type": "bytes"
                        },
                        {
                          "internalType": "bool",
                          "name": "neg",
                          "type": "bool"
                        },
                        {
                          "internalType": "uint256",
                          "name": "bitlen",
                          "type": "uint256"
                        }
                      ],
                      "internalType": "struct BigNumber",
                      "name": "value",
                      "type": "tuple"
                    }
                  ],
                  "internalType": "struct Zp",
                  "name": "a",
                  "type": "tuple"
                },
                {
                  "components": [
                    {
                      "components": [
                        {
                          "internalType": "bytes",
                          "name": "val",
                          "type": "bytes"
                        },
                        {
                          "internalType": "bool",
                          "name": "neg",
                          "type": "bool"
                        },
                        {
                          "internalType": "uint256",
                          "name": "bitlen",
                          "type": "uint256"
                        }
                      ],
                      "internalType": "struct BigNumber",
                      "name": "value",
                      "type": "tuple"
                    }
                  ],
                  "internalType": "struct Zp",
                  "name": "b",
                  "type": "tuple"
                }
              ],
              "internalType": "struct Zp_2",
              "name": "a",
              "type": "tuple"
            },
            {
              "components": [
                {
                  "components": [
                    {
                      "components": [
                        {
                          "internalType": "bytes",
                          "name": "val",
                          "type": "bytes"
                        },
                        {
                          "internalType": "bool",
                          "name": "neg",
                          "type": "bool"
                        },
                        {
                          "internalType": "uint256",
                          "name": "bitlen",
                          "type": "uint256"
                        }
                      ],
                      "internalType": "struct BigNumber",
                      "name": "value",
                      "type": "tuple"
                    }
                  ],
                  "internalType": "struct Zp",
                  "name": "a",
                  "type": "tuple"
                },
                {
                  "components": [
                    {
                      "components": [
                        {
                          "internalType": "bytes",
                          "name": "val",
                          "type": "bytes"
                        },
                        {
                          "internalType": "bool",
                          "name": "neg",
                          "type": "bool"
                        },
                        {
                          "internalType": "uint256",
                          "name": "bitlen",
                          "type": "uint256"
                        }
                      ],
                      "internalType": "struct BigNumber",
                      "name": "value",
                      "type": "tuple"
                    }
                  ],
                  "internalType": "struct Zp",
                  "name": "b",
                  "type": "tuple"
                }
              ],
              "internalType": "struct Zp_2",
              "name": "b",
              "type": "tuple"
            },
            {
              "components": [
                {
                  "components": [
                    {
                      "components": [
                        {
                          "internalType": "bytes",
                          "name": "val",
                          "type": "bytes"
                        },
                        {
                          "internalType": "bool",
                          "name": "neg",
                          "type": "bool"
                        },
                        {
                          "internalType": "uint256",
                          "name": "bitlen",
                          "type": "uint256"
                        }
                      ],
                      "internalType": "struct BigNumber",
                      "name": "value",
                      "type": "tuple"
                    }
                  ],
                  "internalType": "struct Zp",
                  "name": "a",
                  "type": "tuple"
                },
                {
                  "components": [
                    {
                      "components": [
                        {
                          "internalType": "bytes",
                          "name": "val",
                          "type": "bytes"
                        },
                        {
                          "internalType": "bool",
                          "name": "neg",
                          "type": "bool"
                        },
                        {
                          "internalType": "uint256",
                          "name": "bitlen",
                          "type": "uint256"
                        }
                      ],
                      "internalType": "struct BigNumber",
                      "name": "value",
                      "type": "tuple"
                    }
                  ],
                  "internalType": "struct Zp",
                  "name": "b",
                  "type": "tuple"
                }
              ],
              "internalType": "struct Zp_2",
              "name": "c",
              "type": "tuple"
            }
          ],
          "internalType": "struct Zp_6",
          "name": "x",
          "type": "tuple"
        },
        {
          "components": [
            {
              "components": [
                {
                  "components": [
                    {
                      "components": [
                        {
                          "internalType": "bytes",
                          "name": "val",
                          "type": "bytes"
                        },
                        {
                          "internalType": "bool",
                          "name": "neg",
                          "type": "bool"
                        },
                        {
                          "internalType": "uint256",
                          "name": "bitlen",
                          "type": "uint256"
                        }
                      ],
                      "internalType": "struct BigNumber",
                      "name": "value",
                      "type": "tuple"
                    }
                  ],
                  "internalType": "struct Zp",
                  "name": "a",
                  "type": "tuple"
                },
                {
                  "components": [
                    {
                      "components": [
                        {
                          "internalType": "bytes",
                          "name": "val",
                          "type": "bytes"
                        },
                        {
                          "internalType": "bool",
                          "name": "neg",
                          "type": "bool"
                        },
                        {
                          "internalType": "uint256",
                          "name": "bitlen",
                          "type": "uint256"
                        }
                      ],
                      "internalType": "struct BigNumber",
                      "name": "value",
                      "type": "tuple"
                    }
                  ],
                  "internalType": "struct Zp",
                  "name": "b",
                  "type": "tuple"
                }
              ],
              "internalType": "struct Zp_2",
              "name": "a",
              "type": "tuple"
            },
            {
              "components": [
                {
                  "components": [
                    {
                      "components": [
                        {
                          "internalType": "bytes",
                          "name": "val",
                          "type": "bytes"
                        },
                        {
                          "internalType": "bool",
                          "name": "neg",
                          "type": "bool"
                        },
                        {
                          "internalType": "uint256",
                          "name": "bitlen",
                          "type": "uint256"
                        }
                      ],
                      "internalType": "struct BigNumber",
                      "name": "value",
                      "type": "tuple"
                    }
                  ],
                  "internalType": "struct Zp",
                  "name": "a",
                  "type": "tuple"
                },
                {
                  "components": [
                    {
                      "components": [
                        {
                          "internalType": "bytes",
                          "name": "val",
                          "type": "bytes"
                        },
                        {
                          "internalType": "bool",
                          "name": "neg",
                          "type": "bool"
                        },
                        {
                          "internalType": "uint256",
                          "name": "bitlen",
                          "type": "uint256"
                        }
                      ],
                      "internalType": "struct BigNumber",
                      "name": "value",
                      "type": "tuple"
                    }
                  ],
                  "internalType": "struct Zp",
                  "name": "b",
                  "type": "tuple"
                }
              ],
              "internalType": "struct Zp_2",
              "name": "b",
              "type": "tuple"
            },
            {
              "components": [
                {
                  "components": [
                    {
                      "components": [
                        {
                          "internalType": "bytes",
                          "name": "val",
                          "type": "bytes"
                        },
                        {
                          "internalType": "bool",
                          "name": "neg",
                          "type": "bool"
                        },
                        {
                          "internalType": "uint256",
                          "name": "bitlen",
                          "type": "uint256"
                        }
                      ],
                      "internalType": "struct BigNumber",
                      "name": "value",
                      "type": "tuple"
                    }
                  ],
                  "internalType": "struct Zp",
                  "name": "a",
                  "type": "tuple"
                },
                {
                  "components": [
                    {
                      "components": [
                        {
                          "internalType": "bytes",
                          "name": "val",
                          "type": "bytes"
                        },
                        {
                          "internalType": "bool",
                          "name": "neg",
                          "type": "bool"
                        },
                        {
                          "internalType": "uint256",
                          "name": "bitlen",
                          "type": "uint256"
                        }
                      ],
                      "internalType": "struct BigNumber",
                      "name": "value",
                      "type": "tuple"
                    }
                  ],
                  "internalType": "struct Zp",
                  "name": "b",
                  "type": "tuple"
                }
              ],
              "internalType": "struct Zp_2",
              "name": "c",
              "type": "tuple"
            }
          ],
          "internalType": "struct Zp_6",
          "name": "y",
          "type": "tuple"
        }
      ],
      "name": "createElement",
      "outputs": [
        {
          "components": [
            {
              "components": [
                {
                  "components": [
                    {
                      "components": [
                        {
                          "components": [
                            {
                              "internalType": "bytes",
                              "name": "val",
                              "type": "bytes"
                            },
                            {
                              "internalType": "bool",
                              "name": "neg",
                              "type": "bool"
                            },
                            {
                              "internalType": "uint256",
                              "name": "bitlen",
                              "type": "uint256"
                            }
                          ],
                          "internalType": "struct BigNumber",
                          "name": "value",
                          "type": "tuple"
                        }
                      ],
                      "internalType": "struct Zp",
                      "name": "a",
                      "type": "tuple"
                    },
                    {
                      "components": [
                        {
                          "components": [
                            {
                              "internalType": "bytes",
                              "name": "val",
                              "type": "bytes"
                            },
                            {
                              "internalType": "bool",
                              "name": "neg",
                              "type": "bool"
                            },
                            {
                              "internalType": "uint256",
                              "name": "bitlen",
                              "type": "uint256"
                            }
                          ],
                          "internalType": "struct BigNumber",
                          "name": "value",
                          "type": "tuple"
                        }
                      ],
                      "internalType": "struct Zp",
                      "name": "b",
                      "type": "tuple"
                    }
                  ],
                  "internalType": "struct Zp_2",
                  "name": "a",
                  "type": "tuple"
                },
                {
                  "components": [
                    {
                      "components": [
                        {
                          "components": [
                            {
                              "internalType": "bytes",
                              "name": "val",
                              "type": "bytes"
                            },
                            {
                              "internalType": "bool",
                              "name": "neg",
                              "type": "bool"
                            },
                            {
                              "internalType": "uint256",
                              "name": "bitlen",
                              "type": "uint256"
                            }
                          ],
                          "internalType": "struct BigNumber",
                          "name": "value",
                          "type": "tuple"
                        }
                      ],
                      "internalType": "struct Zp",
                      "name": "a",
                      "type": "tuple"
                    },
                    {
                      "components": [
                        {
                          "components": [
                            {
                              "internalType": "bytes",
                              "name": "val",
                              "type": "bytes"
                            },
                            {
                              "internalType": "bool",
                              "name": "neg",
                              "type": "bool"
                            },
                            {
                              "internalType": "uint256",
                              "name": "bitlen",
                              "type": "uint256"
                            }
                          ],
                          "internalType": "struct BigNumber",
                          "name": "value",
                          "type": "tuple"
                        }
                      ],
                      "internalType": "struct Zp",
                      "name": "b",
                      "type": "tuple"
                    }
                  ],
                  "internalType": "struct Zp_2",
                  "name": "b",
                  "type": "tuple"
                },
                {
                  "components": [
                    {
                      "components": [
                        {
                          "components": [
                            {
                              "internalType": "bytes",
                              "name": "val",
                              "type": "bytes"
                            },
                            {
                              "internalType": "bool",
                              "name": "neg",
                              "type": "bool"
                            },
                            {
                              "internalType": "uint256",
                              "name": "bitlen",
                              "type": "uint256"
                            }
                          ],
                          "internalType": "struct BigNumber",
                          "name": "value",
                          "type": "tuple"
                        }
                      ],
                      "internalType": "struct Zp",
                      "name": "a",
                      "type": "tuple"
                    },
                    {
                      "components": [
                        {
                          "components": [
                            {
                              "internalType": "bytes",
                              "name": "val",
                              "type": "bytes"
                            },
                            {
                              "internalType": "bool",
                              "name": "neg",
                              "type": "bool"
                            },
                            {
                              "internalType": "uint256",
                              "name": "bitlen",
                              "type": "uint256"
                            }
                          ],
                          "internalType": "struct BigNumber",
                          "name": "value",
                          "type": "tuple"
                        }
                      ],
                      "internalType": "struct Zp",
                      "name": "b",
                      "type": "tuple"
                    }
                  ],
                  "internalType": "struct Zp_2",
                  "name": "c",
                  "type": "tuple"
                }
              ],
              "internalType": "struct Zp_6",
              "name": "a",
              "type": "tuple"
            },
            {
              "components": [
                {
                  "components": [
                    {
                      "components": [
                        {
                          "components": [
                            {
                              "internalType": "bytes",
                              "name": "val",
                              "type": "bytes"
                            },
                            {
                              "internalType": "bool",
                              "name": "neg",
                              "type": "bool"
                            },
                            {
                              "internalType": "uint256",
                              "name": "bitlen",
                              "type": "uint256"
                            }
                          ],
                          "internalType": "struct BigNumber",
                          "name": "value",
                          "type": "tuple"
                        }
                      ],
                      "internalType": "struct Zp",
                      "name": "a",
                      "type": "tuple"
                    },
                    {
                      "components": [
                        {
                          "components": [
                            {
                              "internalType": "bytes",
                              "name": "val",
                              "type": "bytes"
                            },
                            {
                              "internalType": "bool",
                              "name": "neg",
                              "type": "bool"
                            },
                            {
                              "internalType": "uint256",
                              "name": "bitlen",
                              "type": "uint256"
                            }
                          ],
                          "internalType": "struct BigNumber",
                          "name": "value",
                          "type": "tuple"
                        }
                      ],
                      "internalType": "struct Zp",
                      "name": "b",
                      "type": "tuple"
                    }
                  ],
                  "internalType": "struct Zp_2",
                  "name": "a",
                  "type": "tuple"
                },
                {
                  "components": [
                    {
                      "components": [
                        {
                          "components": [
                            {
                              "internalType": "bytes",
                              "name": "val",
                              "type": "bytes"
                            },
                            {
                              "internalType": "bool",
                              "name": "neg",
                              "type": "bool"
                            },
                            {
                              "internalType": "uint256",
                              "name": "bitlen",
                              "type": "uint256"
                            }
                          ],
                          "internalType": "struct BigNumber",
                          "name": "value",
                          "type": "tuple"
                        }
                      ],
                      "internalType": "struct Zp",
                      "name": "a",
                      "type": "tuple"
                    },
                    {
                      "components": [
                        {
                          "components": [
                            {
                              "internalType": "bytes",
                              "name": "val",
                              "type": "bytes"
                            },
                            {
                              "internalType": "bool",
                              "name": "neg",
                              "type": "bool"
                            },
                            {
                              "internalType": "uint256",
                              "name": "bitlen",
                              "type": "uint256"
                            }
                          ],
                          "internalType": "struct BigNumber",
                          "name": "value",
                          "type": "tuple"
                        }
                      ],
                      "internalType": "struct Zp",
                      "name": "b",
                      "type": "tuple"
                    }
                  ],
                  "internalType": "struct Zp_2",
                  "name": "b",
                  "type": "tuple"
                },
                {
                  "components": [
                    {
                      "components": [
                        {
                          "components": [
                            {
                              "internalType": "bytes",
                              "name": "val",
                              "type": "bytes"
                            },
                            {
                              "internalType": "bool",
                              "name": "neg",
                              "type": "bool"
                            },
                            {
                              "internalType": "uint256",
                              "name": "bitlen",
                              "type": "uint256"
                            }
                          ],
                          "internalType": "struct BigNumber",
                          "name": "value",
                          "type": "tuple"
                        }
                      ],
                      "internalType": "struct Zp",
                      "name": "a",
                      "type": "tuple"
                    },
                    {
                      "components": [
                        {
                          "components": [
                            {
                              "internalType": "bytes",
                              "name": "val",
                              "type": "bytes"
                            },
                            {
                              "internalType": "bool",
                              "name": "neg",
                              "type": "bool"
                            },
                            {
                              "internalType": "uint256",
                              "name": "bitlen",
                              "type": "uint256"
                            }
                          ],
                          "internalType": "struct BigNumber",
                          "name": "value",
                          "type": "tuple"
                        }
                      ],
                      "internalType": "struct Zp",
                      "name": "b",
                      "type": "tuple"
                    }
                  ],
                  "internalType": "struct Zp_2",
                  "name": "c",
                  "type": "tuple"
                }
              ],
              "internalType": "struct Zp_6",
              "name": "b",
              "type": "tuple"
            }
          ],
          "internalType": "struct Zp_12",
          "name": "",
          "type": "tuple"
        }
      ],
      "stateMutability": "pure",
      "type": "function"
    },
    {
      "inputs": [
        {
          "components": [
            {
              "components": [
                {
                  "components": [
                    {
                      "components": [
                        {
                          "components": [
                            {
                              "internalType": "bytes",
                              "name": "val",
                              "type": "bytes"
                            },
                            {
                              "internalType": "bool",
                              "name": "neg",
                              "type": "bool"
                            },
                            {
                              "internalType": "uint256",
                              "name": "bitlen",
                              "type": "uint256"
                            }
                          ],
                          "internalType": "struct BigNumber",
                          "name": "value",
                          "type": "tuple"
                        }
                      ],
                      "internalType": "struct Zp",
                      "name": "a",
                      "type": "tuple"
                    },
                    {
                      "components": [
                        {
                          "components": [
                            {
                              "internalType": "bytes",
                              "name": "val",
                              "type": "bytes"
                            },
                            {
                              "internalType": "bool",
                              "name": "neg",
                              "type": "bool"
                            },
                            {
                              "internalType": "uint256",
                              "name": "bitlen",
                              "type": "uint256"
                            }
                          ],
                          "internalType": "struct BigNumber",
                          "name": "value",
                          "type": "tuple"
                        }
                      ],
                      "internalType": "struct Zp",
                      "name": "b",
                      "type": "tuple"
                    }
                  ],
                  "internalType": "struct Zp_2",
                  "name": "a",
                  "type": "tuple"
                },
                {
                  "components": [
                    {
                      "components": [
                        {
                          "components": [
                            {
                              "internalType": "bytes",
                              "name": "val",
                              "type": "bytes"
                            },
                            {
                              "internalType": "bool",
                              "name": "neg",
                              "type": "bool"
                            },
                            {
                              "internalType": "uint256",
                              "name": "bitlen",
                              "type": "uint256"
                            }
                          ],
                          "internalType": "struct BigNumber",
                          "name": "value",
                          "type": "tuple"
                        }
                      ],
                      "internalType": "struct Zp",
                      "name": "a",
                      "type": "tuple"
                    },
                    {
                      "components": [
                        {
                          "components": [
                            {
                              "internalType": "bytes",
                              "name": "val",
                              "type": "bytes"
                            },
                            {
                              "internalType": "bool",
                              "name": "neg",
                              "type": "bool"
                            },
                            {
                              "internalType": "uint256",
                              "name": "bitlen",
                              "type": "uint256"
                            }
                          ],
                          "internalType": "struct BigNumber",
                          "name": "value",
                          "type": "tuple"
                        }
                      ],
                      "internalType": "struct Zp",
                      "name": "b",
                      "type": "tuple"
                    }
                  ],
                  "internalType": "struct Zp_2",
                  "name": "b",
                  "type": "tuple"
                },
                {
                  "components": [
                    {
                      "components": [
                        {
                          "components": [
                            {
                              "internalType": "bytes",
                              "name": "val",
                              "type": "bytes"
                            },
                            {
                              "internalType": "bool",
                              "name": "neg",
                              "type": "bool"
                            },
                            {
                              "internalType": "uint256",
                              "name": "bitlen",
                              "type": "uint256"
                            }
                          ],
                          "internalType": "struct BigNumber",
                          "name": "value",
                          "type": "tuple"
                        }
                      ],
                      "internalType": "struct Zp",
                      "name": "a",
                      "type": "tuple"
                    },
                    {
                      "components": [
                        {
                          "components": [
                            {
                              "internalType": "bytes",
                              "name": "val",
                              "type": "bytes"
                            },
                            {
                              "internalType": "bool",
                              "name": "neg",
                              "type": "bool"
                            },
                            {
                              "internalType": "uint256",
                              "name": "bitlen",
                              "type": "uint256"
                            }
                          ],
                          "internalType": "struct BigNumber",
                          "name": "value",
                          "type": "tuple"
                        }
                      ],
                      "internalType": "struct Zp",
                      "name": "b",
                      "type": "tuple"
                    }
                  ],
                  "internalType": "struct Zp_2",
                  "name": "c",
                  "type": "tuple"
                }
              ],
              "internalType": "struct Zp_6",
              "name": "a",
              "type": "tuple"
            },
            {
              "components": [
                {
                  "components": [
                    {
                      "components": [
                        {
                          "components": [
                            {
                              "internalType": "bytes",
                              "name": "val",
                              "type": "bytes"
                            },
                            {
                              "internalType": "bool",
                              "name": "neg",
                              "type": "bool"
                            },
                            {
                              "internalType": "uint256",
                              "name": "bitlen",
                              "type": "uint256"
                            }
                          ],
                          "internalType": "struct BigNumber",
                          "name": "value",
                          "type": "tuple"
                        }
                      ],
                      "internalType": "struct Zp",
                      "name": "a",
                      "type": "tuple"
                    },
                    {
                      "components": [
                        {
                          "components": [
                            {
                              "internalType": "bytes",
                              "name": "val",
                              "type": "bytes"
                            },
                            {
                              "internalType": "bool",
                              "name": "neg",
                              "type": "bool"
                            },
                            {
                              "internalType": "uint256",
                              "name": "bitlen",
                              "type": "uint256"
                            }
                          ],
                          "internalType": "struct BigNumber",
                          "name": "value",
                          "type": "tuple"
                        }
                      ],
                      "internalType": "struct Zp",
                      "name": "b",
                      "type": "tuple"
                    }
                  ],
                  "internalType": "struct Zp_2",
                  "name": "a",
                  "type": "tuple"
                },
                {
                  "components": [
                    {
                      "components": [
                        {
                          "components": [
                            {
                              "internalType": "bytes",
                              "name": "val",
                              "type": "bytes"
                            },
                            {
                              "internalType": "bool",
                              "name": "neg",
                              "type": "bool"
                            },
                            {
                              "internalType": "uint256",
                              "name": "bitlen",
                              "type": "uint256"
                            }
                          ],
                          "internalType": "struct BigNumber",
                          "name": "value",
                          "type": "tuple"
                        }
                      ],
                      "internalType": "struct Zp",
                      "name": "a",
                      "type": "tuple"
                    },
                    {
                      "components": [
                        {
                          "components": [
                            {
                              "internalType": "bytes",
                              "name": "val",
                              "type": "bytes"
                            },
                            {
                              "internalType": "bool",
                              "name": "neg",
                              "type": "bool"
                            },
                            {
                              "internalType": "uint256",
                              "name": "bitlen",
                              "type": "uint256"
                            }
                          ],
                          "internalType": "struct BigNumber",
                          "name": "value",
                          "type": "tuple"
                        }
                      ],
                      "internalType": "struct Zp",
                      "name": "b",
                      "type": "tuple"
                    }
                  ],
                  "internalType": "struct Zp_2",
                  "name": "b",
                  "type": "tuple"
                },
                {
                  "components": [
                    {
                      "components": [
                        {
                          "components": [
                            {
                              "internalType": "bytes",
                              "name": "val",
                              "type": "bytes"
                            },
                            {
                              "internalType": "bool",
                              "name": "neg",
                              "type": "bool"
                            },
                            {
                              "internalType": "uint256",
                              "name": "bitlen",
                              "type": "uint256"
                            }
                          ],
                          "internalType": "struct BigNumber",
                          "name": "value",
                          "type": "tuple"
                        }
                      ],
                      "internalType": "struct Zp",
                      "name": "a",
                      "type": "tuple"
                    },
                    {
                      "components": [
                        {
                          "components": [
                            {
                              "internalType": "bytes",
                              "name": "val",
                              "type": "bytes"
                            },
                            {
                              "internalType": "bool",
                              "name": "neg",
                              "type": "bool"
                            },
                            {
                              "internalType": "uint256",
                              "name": "bitlen",
                              "type": "uint256"
                            }
                          ],
                          "internalType": "struct BigNumber",
                          "name": "value",
                          "type": "tuple"
                        }
                      ],
                      "internalType": "struct Zp",
                      "name": "b",
                      "type": "tuple"
                    }
                  ],
                  "internalType": "struct Zp_2",
                  "name": "c",
                  "type": "tuple"
                }
              ],
              "internalType": "struct Zp_6",
              "name": "b",
              "type": "tuple"
            }
          ],
          "internalType": "struct Zp_12",
          "name": "x",
          "type": "tuple"
        }
      ],
      "name": "inverse",
      "outputs": [
        {
          "components": [
            {
              "components": [
                {
                  "components": [
                    {
                      "components": [
                        {
                          "components": [
                            {
                              "internalType": "bytes",
                              "name": "val",
                              "type": "bytes"
                            },
                            {
                              "internalType": "bool",
                              "name": "neg",
                              "type": "bool"
                            },
                            {
                              "internalType": "uint256",
                              "name": "bitlen",
                              "type": "uint256"
                            }
                          ],
                          "internalType": "struct BigNumber",
                          "name": "value",
                          "type": "tuple"
                        }
                      ],
                      "internalType": "struct Zp",
                      "name": "a",
                      "type": "tuple"
                    },
                    {
                      "components": [
                        {
                          "components": [
                            {
                              "internalType": "bytes",
                              "name": "val",
                              "type": "bytes"
                            },
                            {
                              "internalType": "bool",
                              "name": "neg",
                              "type": "bool"
                            },
                            {
                              "internalType": "uint256",
                              "name": "bitlen",
                              "type": "uint256"
                            }
                          ],
                          "internalType": "struct BigNumber",
                          "name": "value",
                          "type": "tuple"
                        }
                      ],
                      "internalType": "struct Zp",
                      "name": "b",
                      "type": "tuple"
                    }
                  ],
                  "internalType": "struct Zp_2",
                  "name": "a",
                  "type": "tuple"
                },
                {
                  "components": [
                    {
                      "components": [
                        {
                          "components": [
                            {
                              "internalType": "bytes",
                              "name": "val",
                              "type": "bytes"
                            },
                            {
                              "internalType": "bool",
                              "name": "neg",
                              "type": "bool"
                            },
                            {
                              "internalType": "uint256",
                              "name": "bitlen",
                              "type": "uint256"
                            }
                          ],
                          "internalType": "struct BigNumber",
                          "name": "value",
                          "type": "tuple"
                        }
                      ],
                      "internalType": "struct Zp",
                      "name": "a",
                      "type": "tuple"
                    },
                    {
                      "components": [
                        {
                          "components": [
                            {
                              "internalType": "bytes",
                              "name": "val",
                              "type": "bytes"
                            },
                            {
                              "internalType": "bool",
                              "name": "neg",
                              "type": "bool"
                            },
                            {
                              "internalType": "uint256",
                              "name": "bitlen",
                              "type": "uint256"
                            }
                          ],
                          "internalType": "struct BigNumber",
                          "name": "value",
                          "type": "tuple"
                        }
                      ],
                      "internalType": "struct Zp",
                      "name": "b",
                      "type": "tuple"
                    }
                  ],
                  "internalType": "struct Zp_2",
                  "name": "b",
                  "type": "tuple"
                },
                {
                  "components": [
                    {
                      "components": [
                        {
                          "components": [
                            {
                              "internalType": "bytes",
                              "name": "val",
                              "type": "bytes"
                            },
                            {
                              "internalType": "bool",
                              "name": "neg",
                              "type": "bool"
                            },
                            {
                              "internalType": "uint256",
                              "name": "bitlen",
                              "type": "uint256"
                            }
                          ],
                          "internalType": "struct BigNumber",
                          "name": "value",
                          "type": "tuple"
                        }
                      ],
                      "internalType": "struct Zp",
                      "name": "a",
                      "type": "tuple"
                    },
                    {
                      "components": [
                        {
                          "components": [
                            {
                              "internalType": "bytes",
                              "name": "val",
                              "type": "bytes"
                            },
                            {
                              "internalType": "bool",
                              "name": "neg",
                              "type": "bool"
                            },
                            {
                              "internalType": "uint256",
                              "name": "bitlen",
                              "type": "uint256"
                            }
                          ],
                          "internalType": "struct BigNumber",
                          "name": "value",
                          "type": "tuple"
                        }
                      ],
                      "internalType": "struct Zp",
                      "name": "b",
                      "type": "tuple"
                    }
                  ],
                  "internalType": "struct Zp_2",
                  "name": "c",
                  "type": "tuple"
                }
              ],
              "internalType": "struct Zp_6",
              "name": "a",
              "type": "tuple"
            },
            {
              "components": [
                {
                  "components": [
                    {
                      "components": [
                        {
                          "components": [
                            {
                              "internalType": "bytes",
                              "name": "val",
                              "type": "bytes"
                            },
                            {
                              "internalType": "bool",
                              "name": "neg",
                              "type": "bool"
                            },
                            {
                              "internalType": "uint256",
                              "name": "bitlen",
                              "type": "uint256"
                            }
                          ],
                          "internalType": "struct BigNumber",
                          "name": "value",
                          "type": "tuple"
                        }
                      ],
                      "internalType": "struct Zp",
                      "name": "a",
                      "type": "tuple"
                    },
                    {
                      "components": [
                        {
                          "components": [
                            {
                              "internalType": "bytes",
                              "name": "val",
                              "type": "bytes"
                            },
                            {
                              "internalType": "bool",
                              "name": "neg",
                              "type": "bool"
                            },
                            {
                              "internalType": "uint256",
                              "name": "bitlen",
                              "type": "uint256"
                            }
                          ],
                          "internalType": "struct BigNumber",
                          "name": "value",
                          "type": "tuple"
                        }
                      ],
                      "internalType": "struct Zp",
                      "name": "b",
                      "type": "tuple"
                    }
                  ],
                  "internalType": "struct Zp_2",
                  "name": "a",
                  "type": "tuple"
                },
                {
                  "components": [
                    {
                      "components": [
                        {
                          "components": [
                            {
                              "internalType": "bytes",
                              "name": "val",
                              "type": "bytes"
                            },
                            {
                              "internalType": "bool",
                              "name": "neg",
                              "type": "bool"
                            },
                            {
                              "internalType": "uint256",
                              "name": "bitlen",
                              "type": "uint256"
                            }
                          ],
                          "internalType": "struct BigNumber",
                          "name": "value",
                          "type": "tuple"
                        }
                      ],
                      "internalType": "struct Zp",
                      "name": "a",
                      "type": "tuple"
                    },
                    {
                      "components": [
                        {
                          "components": [
                            {
                              "internalType": "bytes",
                              "name": "val",
                              "type": "bytes"
                            },
                            {
                              "internalType": "bool",
                              "name": "neg",
                              "type": "bool"
                            },
                            {
                              "internalType": "uint256",
                              "name": "bitlen",
                              "type": "uint256"
                            }
                          ],
                          "internalType": "struct BigNumber",
                          "name": "value",
                          "type": "tuple"
                        }
                      ],
                      "internalType": "struct Zp",
                      "name": "b",
                      "type": "tuple"
                    }
                  ],
                  "internalType": "struct Zp_2",
                  "name": "b",
                  "type": "tuple"
                },
                {
                  "components": [
                    {
                      "components": [
                        {
                          "components": [
                            {
                              "internalType": "bytes",
                              "name": "val",
                              "type": "bytes"
                            },
                            {
                              "internalType": "bool",
                              "name": "neg",
                              "type": "bool"
                            },
                            {
                              "internalType": "uint256",
                              "name": "bitlen",
                              "type": "uint256"
                            }
                          ],
                          "internalType": "struct BigNumber",
                          "name": "value",
                          "type": "tuple"
                        }
                      ],
                      "internalType": "struct Zp",
                      "name": "a",
                      "type": "tuple"
                    },
                    {
                      "components": [
                        {
                          "components": [
                            {
                              "internalType": "bytes",
                              "name": "val",
                              "type": "bytes"
                            },
                            {
                              "internalType": "bool",
                              "name": "neg",
                              "type": "bool"
                            },
                            {
                              "internalType": "uint256",
                              "name": "bitlen",
                              "type": "uint256"
                            }
                          ],
                          "internalType": "struct BigNumber",
                          "name": "value",
                          "type": "tuple"
                        }
                      ],
                      "internalType": "struct Zp",
                      "name": "b",
                      "type": "tuple"
                    }
                  ],
                  "internalType": "struct Zp_2",
                  "name": "c",
                  "type": "tuple"
                }
              ],
              "internalType": "struct Zp_6",
              "name": "b",
              "type": "tuple"
            }
          ],
          "internalType": "struct Zp_12",
          "name": "",
          "type": "tuple"
        }
      ],
      "stateMutability": "view",
      "type": "function"
    },
    {
      "inputs": [
        {
          "components": [
            {
              "components": [
                {
                  "components": [
                    {
                      "components": [
                        {
                          "components": [
                            {
                              "internalType": "bytes",
                              "name": "val",
                              "type": "bytes"
                            },
                            {
                              "internalType": "bool",
                              "name": "neg",
                              "type": "bool"
                            },
                            {
                              "internalType": "uint256",
                              "name": "bitlen",
                              "type": "uint256"
                            }
                          ],
                          "internalType": "struct BigNumber",
                          "name": "value",
                          "type": "tuple"
                        }
                      ],
                      "internalType": "struct Zp",
                      "name": "a",
                      "type": "tuple"
                    },
                    {
                      "components": [
                        {
                          "components": [
                            {
                              "internalType": "bytes",
                              "name": "val",
                              "type": "bytes"
                            },
                            {
                              "internalType": "bool",
                              "name": "neg",
                              "type": "bool"
                            },
                            {
                              "internalType": "uint256",
                              "name": "bitlen",
                              "type": "uint256"
                            }
                          ],
                          "internalType": "struct BigNumber",
                          "name": "value",
                          "type": "tuple"
                        }
                      ],
                      "internalType": "struct Zp",
                      "name": "b",
                      "type": "tuple"
                    }
                  ],
                  "internalType": "struct Zp_2",
                  "name": "a",
                  "type": "tuple"
                },
                {
                  "components": [
                    {
                      "components": [
                        {
                          "components": [
                            {
                              "internalType": "bytes",
                              "name": "val",
                              "type": "bytes"
                            },
                            {
                              "internalType": "bool",
                              "name": "neg",
                              "type": "bool"
                            },
                            {
                              "internalType": "uint256",
                              "name": "bitlen",
                              "type": "uint256"
                            }
                          ],
                          "internalType": "struct BigNumber",
                          "name": "value",
                          "type": "tuple"
                        }
                      ],
                      "internalType": "struct Zp",
                      "name": "a",
                      "type": "tuple"
                    },
                    {
                      "components": [
                        {
                          "components": [
                            {
                              "internalType": "bytes",
                              "name": "val",
                              "type": "bytes"
                            },
                            {
                              "internalType": "bool",
                              "name": "neg",
                              "type": "bool"
                            },
                            {
                              "internalType": "uint256",
                              "name": "bitlen",
                              "type": "uint256"
                            }
                          ],
                          "internalType": "struct BigNumber",
                          "name": "value",
                          "type": "tuple"
                        }
                      ],
                      "internalType": "struct Zp",
                      "name": "b",
                      "type": "tuple"
                    }
                  ],
                  "internalType": "struct Zp_2",
                  "name": "b",
                  "type": "tuple"
                },
                {
                  "components": [
                    {
                      "components": [
                        {
                          "components": [
                            {
                              "internalType": "bytes",
                              "name": "val",
                              "type": "bytes"
                            },
                            {
                              "internalType": "bool",
                              "name": "neg",
                              "type": "bool"
                            },
                            {
                              "internalType": "uint256",
                              "name": "bitlen",
                              "type": "uint256"
                            }
                          ],
                          "internalType": "struct BigNumber",
                          "name": "value",
                          "type": "tuple"
                        }
                      ],
                      "internalType": "struct Zp",
                      "name": "a",
                      "type": "tuple"
                    },
                    {
                      "components": [
                        {
                          "components": [
                            {
                              "internalType": "bytes",
                              "name": "val",
                              "type": "bytes"
                            },
                            {
                              "internalType": "bool",
                              "name": "neg",
                              "type": "bool"
                            },
                            {
                              "internalType": "uint256",
                              "name": "bitlen",
                              "type": "uint256"
                            }
                          ],
                          "internalType": "struct BigNumber",
                          "name": "value",
                          "type": "tuple"
                        }
                      ],
                      "internalType": "struct Zp",
                      "name": "b",
                      "type": "tuple"
                    }
                  ],
                  "internalType": "struct Zp_2",
                  "name": "c",
                  "type": "tuple"
                }
              ],
              "internalType": "struct Zp_6",
              "name": "a",
              "type": "tuple"
            },
            {
              "components": [
                {
                  "components": [
                    {
                      "components": [
                        {
                          "components": [
                            {
                              "internalType": "bytes",
                              "name": "val",
                              "type": "bytes"
                            },
                            {
                              "internalType": "bool",
                              "name": "neg",
                              "type": "bool"
                            },
                            {
                              "internalType": "uint256",
                              "name": "bitlen",
                              "type": "uint256"
                            }
                          ],
                          "internalType": "struct BigNumber",
                          "name": "value",
                          "type": "tuple"
                        }
                      ],
                      "internalType": "struct Zp",
                      "name": "a",
                      "type": "tuple"
                    },
                    {
                      "components": [
                        {
                          "components": [
                            {
                              "internalType": "bytes",
                              "name": "val",
                              "type": "bytes"
                            },
                            {
                              "internalType": "bool",
                              "name": "neg",
                              "type": "bool"
                            },
                            {
                              "internalType": "uint256",
                              "name": "bitlen",
                              "type": "uint256"
                            }
                          ],
                          "internalType": "struct BigNumber",
                          "name": "value",
                          "type": "tuple"
                        }
                      ],
                      "internalType": "struct Zp",
                      "name": "b",
                      "type": "tuple"
                    }
                  ],
                  "internalType": "struct Zp_2",
                  "name": "a",
                  "type": "tuple"
                },
                {
                  "components": [
                    {
                      "components": [
                        {
                          "components": [
                            {
                              "internalType": "bytes",
                              "name": "val",
                              "type": "bytes"
                            },
                            {
                              "internalType": "bool",
                              "name": "neg",
                              "type": "bool"
                            },
                            {
                              "internalType": "uint256",
                              "name": "bitlen",
                              "type": "uint256"
                            }
                          ],
                          "internalType": "struct BigNumber",
                          "name": "value",
                          "type": "tuple"
                        }
                      ],
                      "internalType": "struct Zp",
                      "name": "a",
                      "type": "tuple"
                    },
                    {
                      "components": [
                        {
                          "components": [
                            {
                              "internalType": "bytes",
                              "name": "val",
                              "type": "bytes"
                            },
                            {
                              "internalType": "bool",
                              "name": "neg",
                              "type": "bool"
                            },
                            {
                              "internalType": "uint256",
                              "name": "bitlen",
                              "type": "uint256"
                            }
                          ],
                          "internalType": "struct BigNumber",
                          "name": "value",
                          "type": "tuple"
                        }
                      ],
                      "internalType": "struct Zp",
                      "name": "b",
                      "type": "tuple"
                    }
                  ],
                  "internalType": "struct Zp_2",
                  "name": "b",
                  "type": "tuple"
                },
                {
                  "components": [
                    {
                      "components": [
                        {
                          "components": [
                            {
                              "internalType": "bytes",
                              "name": "val",
                              "type": "bytes"
                            },
                            {
                              "internalType": "bool",
                              "name": "neg",
                              "type": "bool"
                            },
                            {
                              "internalType": "uint256",
                              "name": "bitlen",
                              "type": "uint256"
                            }
                          ],
                          "internalType": "struct BigNumber",
                          "name": "value",
                          "type": "tuple"
                        }
                      ],
                      "internalType": "struct Zp",
                      "name": "a",
                      "type": "tuple"
                    },
                    {
                      "components": [
                        {
                          "components": [
                            {
                              "internalType": "bytes",
                              "name": "val",
                              "type": "bytes"
                            },
                            {
                              "internalType": "bool",
                              "name": "neg",
                              "type": "bool"
                            },
                            {
                              "internalType": "uint256",
                              "name": "bitlen",
                              "type": "uint256"
                            }
                          ],
                          "internalType": "struct BigNumber",
                          "name": "value",
                          "type": "tuple"
                        }
                      ],
                      "internalType": "struct Zp",
                      "name": "b",
                      "type": "tuple"
                    }
                  ],
                  "internalType": "struct Zp_2",
                  "name": "c",
                  "type": "tuple"
                }
              ],
              "internalType": "struct Zp_6",
              "name": "b",
              "type": "tuple"
            }
          ],
          "internalType": "struct Zp_12",
          "name": "x",
          "type": "tuple"
        },
        {
          "components": [
            {
              "components": [
                {
                  "components": [
                    {
                      "components": [
                        {
                          "components": [
                            {
                              "internalType": "bytes",
                              "name": "val",
                              "type": "bytes"
                            },
                            {
                              "internalType": "bool",
                              "name": "neg",
                              "type": "bool"
                            },
                            {
                              "internalType": "uint256",
                              "name": "bitlen",
                              "type": "uint256"
                            }
                          ],
                          "internalType": "struct BigNumber",
                          "name": "value",
                          "type": "tuple"
                        }
                      ],
                      "internalType": "struct Zp",
                      "name": "a",
                      "type": "tuple"
                    },
                    {
                      "components": [
                        {
                          "components": [
                            {
                              "internalType": "bytes",
                              "name": "val",
                              "type": "bytes"
                            },
                            {
                              "internalType": "bool",
                              "name": "neg",
                              "type": "bool"
                            },
                            {
                              "internalType": "uint256",
                              "name": "bitlen",
                              "type": "uint256"
                            }
                          ],
                          "internalType": "struct BigNumber",
                          "name": "value",
                          "type": "tuple"
                        }
                      ],
                      "internalType": "struct Zp",
                      "name": "b",
                      "type": "tuple"
                    }
                  ],
                  "internalType": "struct Zp_2",
                  "name": "a",
                  "type": "tuple"
                },
                {
                  "components": [
                    {
                      "components": [
                        {
                          "components": [
                            {
                              "internalType": "bytes",
                              "name": "val",
                              "type": "bytes"
                            },
                            {
                              "internalType": "bool",
                              "name": "neg",
                              "type": "bool"
                            },
                            {
                              "internalType": "uint256",
                              "name": "bitlen",
                              "type": "uint256"
                            }
                          ],
                          "internalType": "struct BigNumber",
                          "name": "value",
                          "type": "tuple"
                        }
                      ],
                      "internalType": "struct Zp",
                      "name": "a",
                      "type": "tuple"
                    },
                    {
                      "components": [
                        {
                          "components": [
                            {
                              "internalType": "bytes",
                              "name": "val",
                              "type": "bytes"
                            },
                            {
                              "internalType": "bool",
                              "name": "neg",
                              "type": "bool"
                            },
                            {
                              "internalType": "uint256",
                              "name": "bitlen",
                              "type": "uint256"
                            }
                          ],
                          "internalType": "struct BigNumber",
                          "name": "value",
                          "type": "tuple"
                        }
                      ],
                      "internalType": "struct Zp",
                      "name": "b",
                      "type": "tuple"
                    }
                  ],
                  "internalType": "struct Zp_2",
                  "name": "b",
                  "type": "tuple"
                },
                {
                  "components": [
                    {
                      "components": [
                        {
                          "components": [
                            {
                              "internalType": "bytes",
                              "name": "val",
                              "type": "bytes"
                            },
                            {
                              "internalType": "bool",
                              "name": "neg",
                              "type": "bool"
                            },
                            {
                              "internalType": "uint256",
                              "name": "bitlen",
                              "type": "uint256"
                            }
                          ],
                          "internalType": "struct BigNumber",
                          "name": "value",
                          "type": "tuple"
                        }
                      ],
                      "internalType": "struct Zp",
                      "name": "a",
                      "type": "tuple"
                    },
                    {
                      "components": [
                        {
                          "components": [
                            {
                              "internalType": "bytes",
                              "name": "val",
                              "type": "bytes"
                            },
                            {
                              "internalType": "bool",
                              "name": "neg",
                              "type": "bool"
                            },
                            {
                              "internalType": "uint256",
                              "name": "bitlen",
                              "type": "uint256"
                            }
                          ],
                          "internalType": "struct BigNumber",
                          "name": "value",
                          "type": "tuple"
                        }
                      ],
                      "internalType": "struct Zp",
                      "name": "b",
                      "type": "tuple"
                    }
                  ],
                  "internalType": "struct Zp_2",
                  "name": "c",
                  "type": "tuple"
                }
              ],
              "internalType": "struct Zp_6",
              "name": "a",
              "type": "tuple"
            },
            {
              "components": [
                {
                  "components": [
                    {
                      "components": [
                        {
                          "components": [
                            {
                              "internalType": "bytes",
                              "name": "val",
                              "type": "bytes"
                            },
                            {
                              "internalType": "bool",
                              "name": "neg",
                              "type": "bool"
                            },
                            {
                              "internalType": "uint256",
                              "name": "bitlen",
                              "type": "uint256"
                            }
                          ],
                          "internalType": "struct BigNumber",
                          "name": "value",
                          "type": "tuple"
                        }
                      ],
                      "internalType": "struct Zp",
                      "name": "a",
                      "type": "tuple"
                    },
                    {
                      "components": [
                        {
                          "components": [
                            {
                              "internalType": "bytes",
                              "name": "val",
                              "type": "bytes"
                            },
                            {
                              "internalType": "bool",
                              "name": "neg",
                              "type": "bool"
                            },
                            {
                              "internalType": "uint256",
                              "name": "bitlen",
                              "type": "uint256"
                            }
                          ],
                          "internalType": "struct BigNumber",
                          "name": "value",
                          "type": "tuple"
                        }
                      ],
                      "internalType": "struct Zp",
                      "name": "b",
                      "type": "tuple"
                    }
                  ],
                  "internalType": "struct Zp_2",
                  "name": "a",
                  "type": "tuple"
                },
                {
                  "components": [
                    {
                      "components": [
                        {
                          "components": [
                            {
                              "internalType": "bytes",
                              "name": "val",
                              "type": "bytes"
                            },
                            {
                              "internalType": "bool",
                              "name": "neg",
                              "type": "bool"
                            },
                            {
                              "internalType": "uint256",
                              "name": "bitlen",
                              "type": "uint256"
                            }
                          ],
                          "internalType": "struct BigNumber",
                          "name": "value",
                          "type": "tuple"
                        }
                      ],
                      "internalType": "struct Zp",
                      "name": "a",
                      "type": "tuple"
                    },
                    {
                      "components": [
                        {
                          "components": [
                            {
                              "internalType": "bytes",
                              "name": "val",
                              "type": "bytes"
                            },
                            {
                              "internalType": "bool",
                              "name": "neg",
                              "type": "bool"
                            },
                            {
                              "internalType": "uint256",
                              "name": "bitlen",
                              "type": "uint256"
                            }
                          ],
                          "internalType": "struct BigNumber",
                          "name": "value",
                          "type": "tuple"
                        }
                      ],
                      "internalType": "struct Zp",
                      "name": "b",
                      "type": "tuple"
                    }
                  ],
                  "internalType": "struct Zp_2",
                  "name": "b",
                  "type": "tuple"
                },
                {
                  "components": [
                    {
                      "components": [
                        {
                          "components": [
                            {
                              "internalType": "bytes",
                              "name": "val",
                              "type": "bytes"
                            },
                            {
                              "internalType": "bool",
                              "name": "neg",
                              "type": "bool"
                            },
                            {
                              "internalType": "uint256",
                              "name": "bitlen",
                              "type": "uint256"
                            }
                          ],
                          "internalType": "struct BigNumber",
                          "name": "value",
                          "type": "tuple"
                        }
                      ],
                      "internalType": "struct Zp",
                      "name": "a",
                      "type": "tuple"
                    },
                    {
                      "components": [
                        {
                          "components": [
                            {
                              "internalType": "bytes",
                              "name": "val",
                              "type": "bytes"
                            },
                            {
                              "internalType": "bool",
                              "name": "neg",
                              "type": "bool"
                            },
                            {
                              "internalType": "uint256",
                              "name": "bitlen",
                              "type": "uint256"
                            }
                          ],
                          "internalType": "struct BigNumber",
                          "name": "value",
                          "type": "tuple"
                        }
                      ],
                      "internalType": "struct Zp",
                      "name": "b",
                      "type": "tuple"
                    }
                  ],
                  "internalType": "struct Zp_2",
                  "name": "c",
                  "type": "tuple"
                }
              ],
              "internalType": "struct Zp_6",
              "name": "b",
              "type": "tuple"
            }
          ],
          "internalType": "struct Zp_12",
          "name": "y",
          "type": "tuple"
        }
      ],
      "name": "mul",
      "outputs": [
        {
          "components": [
            {
              "components": [
                {
                  "components": [
                    {
                      "components": [
                        {
                          "components": [
                            {
                              "internalType": "bytes",
                              "name": "val",
                              "type": "bytes"
                            },
                            {
                              "internalType": "bool",
                              "name": "neg",
                              "type": "bool"
                            },
                            {
                              "internalType": "uint256",
                              "name": "bitlen",
                              "type": "uint256"
                            }
                          ],
                          "internalType": "struct BigNumber",
                          "name": "value",
                          "type": "tuple"
                        }
                      ],
                      "internalType": "struct Zp",
                      "name": "a",
                      "type": "tuple"
                    },
                    {
                      "components": [
                        {
                          "components": [
                            {
                              "internalType": "bytes",
                              "name": "val",
                              "type": "bytes"
                            },
                            {
                              "internalType": "bool",
                              "name": "neg",
                              "type": "bool"
                            },
                            {
                              "internalType": "uint256",
                              "name": "bitlen",
                              "type": "uint256"
                            }
                          ],
                          "internalType": "struct BigNumber",
                          "name": "value",
                          "type": "tuple"
                        }
                      ],
                      "internalType": "struct Zp",
                      "name": "b",
                      "type": "tuple"
                    }
                  ],
                  "internalType": "struct Zp_2",
                  "name": "a",
                  "type": "tuple"
                },
                {
                  "components": [
                    {
                      "components": [
                        {
                          "components": [
                            {
                              "internalType": "bytes",
                              "name": "val",
                              "type": "bytes"
                            },
                            {
                              "internalType": "bool",
                              "name": "neg",
                              "type": "bool"
                            },
                            {
                              "internalType": "uint256",
                              "name": "bitlen",
                              "type": "uint256"
                            }
                          ],
                          "internalType": "struct BigNumber",
                          "name": "value",
                          "type": "tuple"
                        }
                      ],
                      "internalType": "struct Zp",
                      "name": "a",
                      "type": "tuple"
                    },
                    {
                      "components": [
                        {
                          "components": [
                            {
                              "internalType": "bytes",
                              "name": "val",
                              "type": "bytes"
                            },
                            {
                              "internalType": "bool",
                              "name": "neg",
                              "type": "bool"
                            },
                            {
                              "internalType": "uint256",
                              "name": "bitlen",
                              "type": "uint256"
                            }
                          ],
                          "internalType": "struct BigNumber",
                          "name": "value",
                          "type": "tuple"
                        }
                      ],
                      "internalType": "struct Zp",
                      "name": "b",
                      "type": "tuple"
                    }
                  ],
                  "internalType": "struct Zp_2",
                  "name": "b",
                  "type": "tuple"
                },
                {
                  "components": [
                    {
                      "components": [
                        {
                          "components": [
                            {
                              "internalType": "bytes",
                              "name": "val",
                              "type": "bytes"
                            },
                            {
                              "internalType": "bool",
                              "name": "neg",
                              "type": "bool"
                            },
                            {
                              "internalType": "uint256",
                              "name": "bitlen",
                              "type": "uint256"
                            }
                          ],
                          "internalType": "struct BigNumber",
                          "name": "value",
                          "type": "tuple"
                        }
                      ],
                      "internalType": "struct Zp",
                      "name": "a",
                      "type": "tuple"
                    },
                    {
                      "components": [
                        {
                          "components": [
                            {
                              "internalType": "bytes",
                              "name": "val",
                              "type": "bytes"
                            },
                            {
                              "internalType": "bool",
                              "name": "neg",
                              "type": "bool"
                            },
                            {
                              "internalType": "uint256",
                              "name": "bitlen",
                              "type": "uint256"
                            }
                          ],
                          "internalType": "struct BigNumber",
                          "name": "value",
                          "type": "tuple"
                        }
                      ],
                      "internalType": "struct Zp",
                      "name": "b",
                      "type": "tuple"
                    }
                  ],
                  "internalType": "struct Zp_2",
                  "name": "c",
                  "type": "tuple"
                }
              ],
              "internalType": "struct Zp_6",
              "name": "a",
              "type": "tuple"
            },
            {
              "components": [
                {
                  "components": [
                    {
                      "components": [
                        {
                          "components": [
                            {
                              "internalType": "bytes",
                              "name": "val",
                              "type": "bytes"
                            },
                            {
                              "internalType": "bool",
                              "name": "neg",
                              "type": "bool"
                            },
                            {
                              "internalType": "uint256",
                              "name": "bitlen",
                              "type": "uint256"
                            }
                          ],
                          "internalType": "struct BigNumber",
                          "name": "value",
                          "type": "tuple"
                        }
                      ],
                      "internalType": "struct Zp",
                      "name": "a",
                      "type": "tuple"
                    },
                    {
                      "components": [
                        {
                          "components": [
                            {
                              "internalType": "bytes",
                              "name": "val",
                              "type": "bytes"
                            },
                            {
                              "internalType": "bool",
                              "name": "neg",
                              "type": "bool"
                            },
                            {
                              "internalType": "uint256",
                              "name": "bitlen",
                              "type": "uint256"
                            }
                          ],
                          "internalType": "struct BigNumber",
                          "name": "value",
                          "type": "tuple"
                        }
                      ],
                      "internalType": "struct Zp",
                      "name": "b",
                      "type": "tuple"
                    }
                  ],
                  "internalType": "struct Zp_2",
                  "name": "a",
                  "type": "tuple"
                },
                {
                  "components": [
                    {
                      "components": [
                        {
                          "components": [
                            {
                              "internalType": "bytes",
                              "name": "val",
                              "type": "bytes"
                            },
                            {
                              "internalType": "bool",
                              "name": "neg",
                              "type": "bool"
                            },
                            {
                              "internalType": "uint256",
                              "name": "bitlen",
                              "type": "uint256"
                            }
                          ],
                          "internalType": "struct BigNumber",
                          "name": "value",
                          "type": "tuple"
                        }
                      ],
                      "internalType": "struct Zp",
                      "name": "a",
                      "type": "tuple"
                    },
                    {
                      "components": [
                        {
                          "components": [
                            {
                              "internalType": "bytes",
                              "name": "val",
                              "type": "bytes"
                            },
                            {
                              "internalType": "bool",
                              "name": "neg",
                              "type": "bool"
                            },
                            {
                              "internalType": "uint256",
                              "name": "bitlen",
                              "type": "uint256"
                            }
                          ],
                          "internalType": "struct BigNumber",
                          "name": "value",
                          "type": "tuple"
                        }
                      ],
                      "internalType": "struct Zp",
                      "name": "b",
                      "type": "tuple"
                    }
                  ],
                  "internalType": "struct Zp_2",
                  "name": "b",
                  "type": "tuple"
                },
                {
                  "components": [
                    {
                      "components": [
                        {
                          "components": [
                            {
                              "internalType": "bytes",
                              "name": "val",
                              "type": "bytes"
                            },
                            {
                              "internalType": "bool",
                              "name": "neg",
                              "type": "bool"
                            },
                            {
                              "internalType": "uint256",
                              "name": "bitlen",
                              "type": "uint256"
                            }
                          ],
                          "internalType": "struct BigNumber",
                          "name": "value",
                          "type": "tuple"
                        }
                      ],
                      "internalType": "struct Zp",
                      "name": "a",
                      "type": "tuple"
                    },
                    {
                      "components": [
                        {
                          "components": [
                            {
                              "internalType": "bytes",
                              "name": "val",
                              "type": "bytes"
                            },
                            {
                              "internalType": "bool",
                              "name": "neg",
                              "type": "bool"
                            },
                            {
                              "internalType": "uint256",
                              "name": "bitlen",
                              "type": "uint256"
                            }
                          ],
                          "internalType": "struct BigNumber",
                          "name": "value",
                          "type": "tuple"
                        }
                      ],
                      "internalType": "struct Zp",
                      "name": "b",
                      "type": "tuple"
                    }
                  ],
                  "internalType": "struct Zp_2",
                  "name": "c",
                  "type": "tuple"
                }
              ],
              "internalType": "struct Zp_6",
              "name": "b",
              "type": "tuple"
            }
          ],
          "internalType": "struct Zp_12",
          "name": "",
          "type": "tuple"
        }
      ],
      "stateMutability": "view",
      "type": "function"
    },
    {
      "inputs": [
        {
          "components": [
            {
              "components": [
                {
                  "components": [
                    {
                      "components": [
                        {
                          "components": [
                            {
                              "internalType": "bytes",
                              "name": "val",
                              "type": "bytes"
                            },
                            {
                              "internalType": "bool",
                              "name": "neg",
                              "type": "bool"
                            },
                            {
                              "internalType": "uint256",
                              "name": "bitlen",
                              "type": "uint256"
                            }
                          ],
                          "internalType": "struct BigNumber",
                          "name": "value",
                          "type": "tuple"
                        }
                      ],
                      "internalType": "struct Zp",
                      "name": "a",
                      "type": "tuple"
                    },
                    {
                      "components": [
                        {
                          "components": [
                            {
                              "internalType": "bytes",
                              "name": "val",
                              "type": "bytes"
                            },
                            {
                              "internalType": "bool",
                              "name": "neg",
                              "type": "bool"
                            },
                            {
                              "internalType": "uint256",
                              "name": "bitlen",
                              "type": "uint256"
                            }
                          ],
                          "internalType": "struct BigNumber",
                          "name": "value",
                          "type": "tuple"
                        }
                      ],
                      "internalType": "struct Zp",
                      "name": "b",
                      "type": "tuple"
                    }
                  ],
                  "internalType": "struct Zp_2",
                  "name": "a",
                  "type": "tuple"
                },
                {
                  "components": [
                    {
                      "components": [
                        {
                          "components": [
                            {
                              "internalType": "bytes",
                              "name": "val",
                              "type": "bytes"
                            },
                            {
                              "internalType": "bool",
                              "name": "neg",
                              "type": "bool"
                            },
                            {
                              "internalType": "uint256",
                              "name": "bitlen",
                              "type": "uint256"
                            }
                          ],
                          "internalType": "struct BigNumber",
                          "name": "value",
                          "type": "tuple"
                        }
                      ],
                      "internalType": "struct Zp",
                      "name": "a",
                      "type": "tuple"
                    },
                    {
                      "components": [
                        {
                          "components": [
                            {
                              "internalType": "bytes",
                              "name": "val",
                              "type": "bytes"
                            },
                            {
                              "internalType": "bool",
                              "name": "neg",
                              "type": "bool"
                            },
                            {
                              "internalType": "uint256",
                              "name": "bitlen",
                              "type": "uint256"
                            }
                          ],
                          "internalType": "struct BigNumber",
                          "name": "value",
                          "type": "tuple"
                        }
                      ],
                      "internalType": "struct Zp",
                      "name": "b",
                      "type": "tuple"
                    }
                  ],
                  "internalType": "struct Zp_2",
                  "name": "b",
                  "type": "tuple"
                },
                {
                  "components": [
                    {
                      "components": [
                        {
                          "components": [
                            {
                              "internalType": "bytes",
                              "name": "val",
                              "type": "bytes"
                            },
                            {
                              "internalType": "bool",
                              "name": "neg",
                              "type": "bool"
                            },
                            {
                              "internalType": "uint256",
                              "name": "bitlen",
                              "type": "uint256"
                            }
                          ],
                          "internalType": "struct BigNumber",
                          "name": "value",
                          "type": "tuple"
                        }
                      ],
                      "internalType": "struct Zp",
                      "name": "a",
                      "type": "tuple"
                    },
                    {
                      "components": [
                        {
                          "components": [
                            {
                              "internalType": "bytes",
                              "name": "val",
                              "type": "bytes"
                            },
                            {
                              "internalType": "bool",
                              "name": "neg",
                              "type": "bool"
                            },
                            {
                              "internalType": "uint256",
                              "name": "bitlen",
                              "type": "uint256"
                            }
                          ],
                          "internalType": "struct BigNumber",
                          "name": "value",
                          "type": "tuple"
                        }
                      ],
                      "internalType": "struct Zp",
                      "name": "b",
                      "type": "tuple"
                    }
                  ],
                  "internalType": "struct Zp_2",
                  "name": "c",
                  "type": "tuple"
                }
              ],
              "internalType": "struct Zp_6",
              "name": "a",
              "type": "tuple"
            },
            {
              "components": [
                {
                  "components": [
                    {
                      "components": [
                        {
                          "components": [
                            {
                              "internalType": "bytes",
                              "name": "val",
                              "type": "bytes"
                            },
                            {
                              "internalType": "bool",
                              "name": "neg",
                              "type": "bool"
                            },
                            {
                              "internalType": "uint256",
                              "name": "bitlen",
                              "type": "uint256"
                            }
                          ],
                          "internalType": "struct BigNumber",
                          "name": "value",
                          "type": "tuple"
                        }
                      ],
                      "internalType": "struct Zp",
                      "name": "a",
                      "type": "tuple"
                    },
                    {
                      "components": [
                        {
                          "components": [
                            {
                              "internalType": "bytes",
                              "name": "val",
                              "type": "bytes"
                            },
                            {
                              "internalType": "bool",
                              "name": "neg",
                              "type": "bool"
                            },
                            {
                              "internalType": "uint256",
                              "name": "bitlen",
                              "type": "uint256"
                            }
                          ],
                          "internalType": "struct BigNumber",
                          "name": "value",
                          "type": "tuple"
                        }
                      ],
                      "internalType": "struct Zp",
                      "name": "b",
                      "type": "tuple"
                    }
                  ],
                  "internalType": "struct Zp_2",
                  "name": "a",
                  "type": "tuple"
                },
                {
                  "components": [
                    {
                      "components": [
                        {
                          "components": [
                            {
                              "internalType": "bytes",
                              "name": "val",
                              "type": "bytes"
                            },
                            {
                              "internalType": "bool",
                              "name": "neg",
                              "type": "bool"
                            },
                            {
                              "internalType": "uint256",
                              "name": "bitlen",
                              "type": "uint256"
                            }
                          ],
                          "internalType": "struct BigNumber",
                          "name": "value",
                          "type": "tuple"
                        }
                      ],
                      "internalType": "struct Zp",
                      "name": "a",
                      "type": "tuple"
                    },
                    {
                      "components": [
                        {
                          "components": [
                            {
                              "internalType": "bytes",
                              "name": "val",
                              "type": "bytes"
                            },
                            {
                              "internalType": "bool",
                              "name": "neg",
                              "type": "bool"
                            },
                            {
                              "internalType": "uint256",
                              "name": "bitlen",
                              "type": "uint256"
                            }
                          ],
                          "internalType": "struct BigNumber",
                          "name": "value",
                          "type": "tuple"
                        }
                      ],
                      "internalType": "struct Zp",
                      "name": "b",
                      "type": "tuple"
                    }
                  ],
                  "internalType": "struct Zp_2",
                  "name": "b",
                  "type": "tuple"
                },
                {
                  "components": [
                    {
                      "components": [
                        {
                          "components": [
                            {
                              "internalType": "bytes",
                              "name": "val",
                              "type": "bytes"
                            },
                            {
                              "internalType": "bool",
                              "name": "neg",
                              "type": "bool"
                            },
                            {
                              "internalType": "uint256",
                              "name": "bitlen",
                              "type": "uint256"
                            }
                          ],
                          "internalType": "struct BigNumber",
                          "name": "value",
                          "type": "tuple"
                        }
                      ],
                      "internalType": "struct Zp",
                      "name": "a",
                      "type": "tuple"
                    },
                    {
                      "components": [
                        {
                          "components": [
                            {
                              "internalType": "bytes",
                              "name": "val",
                              "type": "bytes"
                            },
                            {
                              "internalType": "bool",
                              "name": "neg",
                              "type": "bool"
                            },
                            {
                              "internalType": "uint256",
                              "name": "bitlen",
                              "type": "uint256"
                            }
                          ],
                          "internalType": "struct BigNumber",
                          "name": "value",
                          "type": "tuple"
                        }
                      ],
                      "internalType": "struct Zp",
                      "name": "b",
                      "type": "tuple"
                    }
                  ],
                  "internalType": "struct Zp_2",
                  "name": "c",
                  "type": "tuple"
                }
              ],
              "internalType": "struct Zp_6",
              "name": "b",
              "type": "tuple"
            }
          ],
          "internalType": "struct Zp_12",
          "name": "x",
          "type": "tuple"
        },
        {
          "components": [
            {
              "components": [
                {
                  "components": [
                    {
                      "components": [
                        {
                          "components": [
                            {
                              "internalType": "bytes",
                              "name": "val",
                              "type": "bytes"
                            },
                            {
                              "internalType": "bool",
                              "name": "neg",
                              "type": "bool"
                            },
                            {
                              "internalType": "uint256",
                              "name": "bitlen",
                              "type": "uint256"
                            }
                          ],
                          "internalType": "struct BigNumber",
                          "name": "value",
                          "type": "tuple"
                        }
                      ],
                      "internalType": "struct Zp",
                      "name": "a",
                      "type": "tuple"
                    },
                    {
                      "components": [
                        {
                          "components": [
                            {
                              "internalType": "bytes",
                              "name": "val",
                              "type": "bytes"
                            },
                            {
                              "internalType": "bool",
                              "name": "neg",
                              "type": "bool"
                            },
                            {
                              "internalType": "uint256",
                              "name": "bitlen",
                              "type": "uint256"
                            }
                          ],
                          "internalType": "struct BigNumber",
                          "name": "value",
                          "type": "tuple"
                        }
                      ],
                      "internalType": "struct Zp",
                      "name": "b",
                      "type": "tuple"
                    }
                  ],
                  "internalType": "struct Zp_2",
                  "name": "a",
                  "type": "tuple"
                },
                {
                  "components": [
                    {
                      "components": [
                        {
                          "components": [
                            {
                              "internalType": "bytes",
                              "name": "val",
                              "type": "bytes"
                            },
                            {
                              "internalType": "bool",
                              "name": "neg",
                              "type": "bool"
                            },
                            {
                              "internalType": "uint256",
                              "name": "bitlen",
                              "type": "uint256"
                            }
                          ],
                          "internalType": "struct BigNumber",
                          "name": "value",
                          "type": "tuple"
                        }
                      ],
                      "internalType": "struct Zp",
                      "name": "a",
                      "type": "tuple"
                    },
                    {
                      "components": [
                        {
                          "components": [
                            {
                              "internalType": "bytes",
                              "name": "val",
                              "type": "bytes"
                            },
                            {
                              "internalType": "bool",
                              "name": "neg",
                              "type": "bool"
                            },
                            {
                              "internalType": "uint256",
                              "name": "bitlen",
                              "type": "uint256"
                            }
                          ],
                          "internalType": "struct BigNumber",
                          "name": "value",
                          "type": "tuple"
                        }
                      ],
                      "internalType": "struct Zp",
                      "name": "b",
                      "type": "tuple"
                    }
                  ],
                  "internalType": "struct Zp_2",
                  "name": "b",
                  "type": "tuple"
                },
                {
                  "components": [
                    {
                      "components": [
                        {
                          "components": [
                            {
                              "internalType": "bytes",
                              "name": "val",
                              "type": "bytes"
                            },
                            {
                              "internalType": "bool",
                              "name": "neg",
                              "type": "bool"
                            },
                            {
                              "internalType": "uint256",
                              "name": "bitlen",
                              "type": "uint256"
                            }
                          ],
                          "internalType": "struct BigNumber",
                          "name": "value",
                          "type": "tuple"
                        }
                      ],
                      "internalType": "struct Zp",
                      "name": "a",
                      "type": "tuple"
                    },
                    {
                      "components": [
                        {
                          "components": [
                            {
                              "internalType": "bytes",
                              "name": "val",
                              "type": "bytes"
                            },
                            {
                              "internalType": "bool",
                              "name": "neg",
                              "type": "bool"
                            },
                            {
                              "internalType": "uint256",
                              "name": "bitlen",
                              "type": "uint256"
                            }
                          ],
                          "internalType": "struct BigNumber",
                          "name": "value",
                          "type": "tuple"
                        }
                      ],
                      "internalType": "struct Zp",
                      "name": "b",
                      "type": "tuple"
                    }
                  ],
                  "internalType": "struct Zp_2",
                  "name": "c",
                  "type": "tuple"
                }
              ],
              "internalType": "struct Zp_6",
              "name": "a",
              "type": "tuple"
            },
            {
              "components": [
                {
                  "components": [
                    {
                      "components": [
                        {
                          "components": [
                            {
                              "internalType": "bytes",
                              "name": "val",
                              "type": "bytes"
                            },
                            {
                              "internalType": "bool",
                              "name": "neg",
                              "type": "bool"
                            },
                            {
                              "internalType": "uint256",
                              "name": "bitlen",
                              "type": "uint256"
                            }
                          ],
                          "internalType": "struct BigNumber",
                          "name": "value",
                          "type": "tuple"
                        }
                      ],
                      "internalType": "struct Zp",
                      "name": "a",
                      "type": "tuple"
                    },
                    {
                      "components": [
                        {
                          "components": [
                            {
                              "internalType": "bytes",
                              "name": "val",
                              "type": "bytes"
                            },
                            {
                              "internalType": "bool",
                              "name": "neg",
                              "type": "bool"
                            },
                            {
                              "internalType": "uint256",
                              "name": "bitlen",
                              "type": "uint256"
                            }
                          ],
                          "internalType": "struct BigNumber",
                          "name": "value",
                          "type": "tuple"
                        }
                      ],
                      "internalType": "struct Zp",
                      "name": "b",
                      "type": "tuple"
                    }
                  ],
                  "internalType": "struct Zp_2",
                  "name": "a",
                  "type": "tuple"
                },
                {
                  "components": [
                    {
                      "components": [
                        {
                          "components": [
                            {
                              "internalType": "bytes",
                              "name": "val",
                              "type": "bytes"
                            },
                            {
                              "internalType": "bool",
                              "name": "neg",
                              "type": "bool"
                            },
                            {
                              "internalType": "uint256",
                              "name": "bitlen",
                              "type": "uint256"
                            }
                          ],
                          "internalType": "struct BigNumber",
                          "name": "value",
                          "type": "tuple"
                        }
                      ],
                      "internalType": "struct Zp",
                      "name": "a",
                      "type": "tuple"
                    },
                    {
                      "components": [
                        {
                          "components": [
                            {
                              "internalType": "bytes",
                              "name": "val",
                              "type": "bytes"
                            },
                            {
                              "internalType": "bool",
                              "name": "neg",
                              "type": "bool"
                            },
                            {
                              "internalType": "uint256",
                              "name": "bitlen",
                              "type": "uint256"
                            }
                          ],
                          "internalType": "struct BigNumber",
                          "name": "value",
                          "type": "tuple"
                        }
                      ],
                      "internalType": "struct Zp",
                      "name": "b",
                      "type": "tuple"
                    }
                  ],
                  "internalType": "struct Zp_2",
                  "name": "b",
                  "type": "tuple"
                },
                {
                  "components": [
                    {
                      "components": [
                        {
                          "components": [
                            {
                              "internalType": "bytes",
                              "name": "val",
                              "type": "bytes"
                            },
                            {
                              "internalType": "bool",
                              "name": "neg",
                              "type": "bool"
                            },
                            {
                              "internalType": "uint256",
                              "name": "bitlen",
                              "type": "uint256"
                            }
                          ],
                          "internalType": "struct BigNumber",
                          "name": "value",
                          "type": "tuple"
                        }
                      ],
                      "internalType": "struct Zp",
                      "name": "a",
                      "type": "tuple"
                    },
                    {
                      "components": [
                        {
                          "components": [
                            {
                              "internalType": "bytes",
                              "name": "val",
                              "type": "bytes"
                            },
                            {
                              "internalType": "bool",
                              "name": "neg",
                              "type": "bool"
                            },
                            {
                              "internalType": "uint256",
                              "name": "bitlen",
                              "type": "uint256"
                            }
                          ],
                          "internalType": "struct BigNumber",
                          "name": "value",
                          "type": "tuple"
                        }
                      ],
                      "internalType": "struct Zp",
                      "name": "b",
                      "type": "tuple"
                    }
                  ],
                  "internalType": "struct Zp_2",
                  "name": "c",
                  "type": "tuple"
                }
              ],
              "internalType": "struct Zp_6",
              "name": "b",
              "type": "tuple"
            }
          ],
          "internalType": "struct Zp_12",
          "name": "y",
          "type": "tuple"
        }
      ],
      "name": "sub",
      "outputs": [
        {
          "components": [
            {
              "components": [
                {
                  "components": [
                    {
                      "components": [
                        {
                          "components": [
                            {
                              "internalType": "bytes",
                              "name": "val",
                              "type": "bytes"
                            },
                            {
                              "internalType": "bool",
                              "name": "neg",
                              "type": "bool"
                            },
                            {
                              "internalType": "uint256",
                              "name": "bitlen",
                              "type": "uint256"
                            }
                          ],
                          "internalType": "struct BigNumber",
                          "name": "value",
                          "type": "tuple"
                        }
                      ],
                      "internalType": "struct Zp",
                      "name": "a",
                      "type": "tuple"
                    },
                    {
                      "components": [
                        {
                          "components": [
                            {
                              "internalType": "bytes",
                              "name": "val",
                              "type": "bytes"
                            },
                            {
                              "internalType": "bool",
                              "name": "neg",
                              "type": "bool"
                            },
                            {
                              "internalType": "uint256",
                              "name": "bitlen",
                              "type": "uint256"
                            }
                          ],
                          "internalType": "struct BigNumber",
                          "name": "value",
                          "type": "tuple"
                        }
                      ],
                      "internalType": "struct Zp",
                      "name": "b",
                      "type": "tuple"
                    }
                  ],
                  "internalType": "struct Zp_2",
                  "name": "a",
                  "type": "tuple"
                },
                {
                  "components": [
                    {
                      "components": [
                        {
                          "components": [
                            {
                              "internalType": "bytes",
                              "name": "val",
                              "type": "bytes"
                            },
                            {
                              "internalType": "bool",
                              "name": "neg",
                              "type": "bool"
                            },
                            {
                              "internalType": "uint256",
                              "name": "bitlen",
                              "type": "uint256"
                            }
                          ],
                          "internalType": "struct BigNumber",
                          "name": "value",
                          "type": "tuple"
                        }
                      ],
                      "internalType": "struct Zp",
                      "name": "a",
                      "type": "tuple"
                    },
                    {
                      "components": [
                        {
                          "components": [
                            {
                              "internalType": "bytes",
                              "name": "val",
                              "type": "bytes"
                            },
                            {
                              "internalType": "bool",
                              "name": "neg",
                              "type": "bool"
                            },
                            {
                              "internalType": "uint256",
                              "name": "bitlen",
                              "type": "uint256"
                            }
                          ],
                          "internalType": "struct BigNumber",
                          "name": "value",
                          "type": "tuple"
                        }
                      ],
                      "internalType": "struct Zp",
                      "name": "b",
                      "type": "tuple"
                    }
                  ],
                  "internalType": "struct Zp_2",
                  "name": "b",
                  "type": "tuple"
                },
                {
                  "components": [
                    {
                      "components": [
                        {
                          "components": [
                            {
                              "internalType": "bytes",
                              "name": "val",
                              "type": "bytes"
                            },
                            {
                              "internalType": "bool",
                              "name": "neg",
                              "type": "bool"
                            },
                            {
                              "internalType": "uint256",
                              "name": "bitlen",
                              "type": "uint256"
                            }
                          ],
                          "internalType": "struct BigNumber",
                          "name": "value",
                          "type": "tuple"
                        }
                      ],
                      "internalType": "struct Zp",
                      "name": "a",
                      "type": "tuple"
                    },
                    {
                      "components": [
                        {
                          "components": [
                            {
                              "internalType": "bytes",
                              "name": "val",
                              "type": "bytes"
                            },
                            {
                              "internalType": "bool",
                              "name": "neg",
                              "type": "bool"
                            },
                            {
                              "internalType": "uint256",
                              "name": "bitlen",
                              "type": "uint256"
                            }
                          ],
                          "internalType": "struct BigNumber",
                          "name": "value",
                          "type": "tuple"
                        }
                      ],
                      "internalType": "struct Zp",
                      "name": "b",
                      "type": "tuple"
                    }
                  ],
                  "internalType": "struct Zp_2",
                  "name": "c",
                  "type": "tuple"
                }
              ],
              "internalType": "struct Zp_6",
              "name": "a",
              "type": "tuple"
            },
            {
              "components": [
                {
                  "components": [
                    {
                      "components": [
                        {
                          "components": [
                            {
                              "internalType": "bytes",
                              "name": "val",
                              "type": "bytes"
                            },
                            {
                              "internalType": "bool",
                              "name": "neg",
                              "type": "bool"
                            },
                            {
                              "internalType": "uint256",
                              "name": "bitlen",
                              "type": "uint256"
                            }
                          ],
                          "internalType": "struct BigNumber",
                          "name": "value",
                          "type": "tuple"
                        }
                      ],
                      "internalType": "struct Zp",
                      "name": "a",
                      "type": "tuple"
                    },
                    {
                      "components": [
                        {
                          "components": [
                            {
                              "internalType": "bytes",
                              "name": "val",
                              "type": "bytes"
                            },
                            {
                              "internalType": "bool",
                              "name": "neg",
                              "type": "bool"
                            },
                            {
                              "internalType": "uint256",
                              "name": "bitlen",
                              "type": "uint256"
                            }
                          ],
                          "internalType": "struct BigNumber",
                          "name": "value",
                          "type": "tuple"
                        }
                      ],
                      "internalType": "struct Zp",
                      "name": "b",
                      "type": "tuple"
                    }
                  ],
                  "internalType": "struct Zp_2",
                  "name": "a",
                  "type": "tuple"
                },
                {
                  "components": [
                    {
                      "components": [
                        {
                          "components": [
                            {
                              "internalType": "bytes",
                              "name": "val",
                              "type": "bytes"
                            },
                            {
                              "internalType": "bool",
                              "name": "neg",
                              "type": "bool"
                            },
                            {
                              "internalType": "uint256",
                              "name": "bitlen",
                              "type": "uint256"
                            }
                          ],
                          "internalType": "struct BigNumber",
                          "name": "value",
                          "type": "tuple"
                        }
                      ],
                      "internalType": "struct Zp",
                      "name": "a",
                      "type": "tuple"
                    },
                    {
                      "components": [
                        {
                          "components": [
                            {
                              "internalType": "bytes",
                              "name": "val",
                              "type": "bytes"
                            },
                            {
                              "internalType": "bool",
                              "name": "neg",
                              "type": "bool"
                            },
                            {
                              "internalType": "uint256",
                              "name": "bitlen",
                              "type": "uint256"
                            }
                          ],
                          "internalType": "struct BigNumber",
                          "name": "value",
                          "type": "tuple"
                        }
                      ],
                      "internalType": "struct Zp",
                      "name": "b",
                      "type": "tuple"
                    }
                  ],
                  "internalType": "struct Zp_2",
                  "name": "b",
                  "type": "tuple"
                },
                {
                  "components": [
                    {
                      "components": [
                        {
                          "components": [
                            {
                              "internalType": "bytes",
                              "name": "val",
                              "type": "bytes"
                            },
                            {
                              "internalType": "bool",
                              "name": "neg",
                              "type": "bool"
                            },
                            {
                              "internalType": "uint256",
                              "name": "bitlen",
                              "type": "uint256"
                            }
                          ],
                          "internalType": "struct BigNumber",
                          "name": "value",
                          "type": "tuple"
                        }
                      ],
                      "internalType": "struct Zp",
                      "name": "a",
                      "type": "tuple"
                    },
                    {
                      "components": [
                        {
                          "components": [
                            {
                              "internalType": "bytes",
                              "name": "val",
                              "type": "bytes"
                            },
                            {
                              "internalType": "bool",
                              "name": "neg",
                              "type": "bool"
                            },
                            {
                              "internalType": "uint256",
                              "name": "bitlen",
                              "type": "uint256"
                            }
                          ],
                          "internalType": "struct BigNumber",
                          "name": "value",
                          "type": "tuple"
                        }
                      ],
                      "internalType": "struct Zp",
                      "name": "b",
                      "type": "tuple"
                    }
                  ],
                  "internalType": "struct Zp_2",
                  "name": "c",
                  "type": "tuple"
                }
              ],
              "internalType": "struct Zp_6",
              "name": "b",
              "type": "tuple"
            }
          ],
          "internalType": "struct Zp_12",
          "name": "",
          "type": "tuple"
        }
      ],
      "stateMutability": "view",
      "type": "function"
    },
    {
      "inputs": [
        {
          "components": [
            {
              "components": [
                {
                  "components": [
                    {
                      "components": [
                        {
                          "components": [
                            {
                              "internalType": "bytes",
                              "name": "val",
                              "type": "bytes"
                            },
                            {
                              "internalType": "bool",
                              "name": "neg",
                              "type": "bool"
                            },
                            {
                              "internalType": "uint256",
                              "name": "bitlen",
                              "type": "uint256"
                            }
                          ],
                          "internalType": "struct BigNumber",
                          "name": "value",
                          "type": "tuple"
                        }
                      ],
                      "internalType": "struct Zp",
                      "name": "a",
                      "type": "tuple"
                    },
                    {
                      "components": [
                        {
                          "components": [
                            {
                              "internalType": "bytes",
                              "name": "val",
                              "type": "bytes"
                            },
                            {
                              "internalType": "bool",
                              "name": "neg",
                              "type": "bool"
                            },
                            {
                              "internalType": "uint256",
                              "name": "bitlen",
                              "type": "uint256"
                            }
                          ],
                          "internalType": "struct BigNumber",
                          "name": "value",
                          "type": "tuple"
                        }
                      ],
                      "internalType": "struct Zp",
                      "name": "b",
                      "type": "tuple"
                    }
                  ],
                  "internalType": "struct Zp_2",
                  "name": "a",
                  "type": "tuple"
                },
                {
                  "components": [
                    {
                      "components": [
                        {
                          "components": [
                            {
                              "internalType": "bytes",
                              "name": "val",
                              "type": "bytes"
                            },
                            {
                              "internalType": "bool",
                              "name": "neg",
                              "type": "bool"
                            },
                            {
                              "internalType": "uint256",
                              "name": "bitlen",
                              "type": "uint256"
                            }
                          ],
                          "internalType": "struct BigNumber",
                          "name": "value",
                          "type": "tuple"
                        }
                      ],
                      "internalType": "struct Zp",
                      "name": "a",
                      "type": "tuple"
                    },
                    {
                      "components": [
                        {
                          "components": [
                            {
                              "internalType": "bytes",
                              "name": "val",
                              "type": "bytes"
                            },
                            {
                              "internalType": "bool",
                              "name": "neg",
                              "type": "bool"
                            },
                            {
                              "internalType": "uint256",
                              "name": "bitlen",
                              "type": "uint256"
                            }
                          ],
                          "internalType": "struct BigNumber",
                          "name": "value",
                          "type": "tuple"
                        }
                      ],
                      "internalType": "struct Zp",
                      "name": "b",
                      "type": "tuple"
                    }
                  ],
                  "internalType": "struct Zp_2",
                  "name": "b",
                  "type": "tuple"
                },
                {
                  "components": [
                    {
                      "components": [
                        {
                          "components": [
                            {
                              "internalType": "bytes",
                              "name": "val",
                              "type": "bytes"
                            },
                            {
                              "internalType": "bool",
                              "name": "neg",
                              "type": "bool"
                            },
                            {
                              "internalType": "uint256",
                              "name": "bitlen",
                              "type": "uint256"
                            }
                          ],
                          "internalType": "struct BigNumber",
                          "name": "value",
                          "type": "tuple"
                        }
                      ],
                      "internalType": "struct Zp",
                      "name": "a",
                      "type": "tuple"
                    },
                    {
                      "components": [
                        {
                          "components": [
                            {
                              "internalType": "bytes",
                              "name": "val",
                              "type": "bytes"
                            },
                            {
                              "internalType": "bool",
                              "name": "neg",
                              "type": "bool"
                            },
                            {
                              "internalType": "uint256",
                              "name": "bitlen",
                              "type": "uint256"
                            }
                          ],
                          "internalType": "struct BigNumber",
                          "name": "value",
                          "type": "tuple"
                        }
                      ],
                      "internalType": "struct Zp",
                      "name": "b",
                      "type": "tuple"
                    }
                  ],
                  "internalType": "struct Zp_2",
                  "name": "c",
                  "type": "tuple"
                }
              ],
              "internalType": "struct Zp_6",
              "name": "a",
              "type": "tuple"
            },
            {
              "components": [
                {
                  "components": [
                    {
                      "components": [
                        {
                          "components": [
                            {
                              "internalType": "bytes",
                              "name": "val",
                              "type": "bytes"
                            },
                            {
                              "internalType": "bool",
                              "name": "neg",
                              "type": "bool"
                            },
                            {
                              "internalType": "uint256",
                              "name": "bitlen",
                              "type": "uint256"
                            }
                          ],
                          "internalType": "struct BigNumber",
                          "name": "value",
                          "type": "tuple"
                        }
                      ],
                      "internalType": "struct Zp",
                      "name": "a",
                      "type": "tuple"
                    },
                    {
                      "components": [
                        {
                          "components": [
                            {
                              "internalType": "bytes",
                              "name": "val",
                              "type": "bytes"
                            },
                            {
                              "internalType": "bool",
                              "name": "neg",
                              "type": "bool"
                            },
                            {
                              "internalType": "uint256",
                              "name": "bitlen",
                              "type": "uint256"
                            }
                          ],
                          "internalType": "struct BigNumber",
                          "name": "value",
                          "type": "tuple"
                        }
                      ],
                      "internalType": "struct Zp",
                      "name": "b",
                      "type": "tuple"
                    }
                  ],
                  "internalType": "struct Zp_2",
                  "name": "a",
                  "type": "tuple"
                },
                {
                  "components": [
                    {
                      "components": [
                        {
                          "components": [
                            {
                              "internalType": "bytes",
                              "name": "val",
                              "type": "bytes"
                            },
                            {
                              "internalType": "bool",
                              "name": "neg",
                              "type": "bool"
                            },
                            {
                              "internalType": "uint256",
                              "name": "bitlen",
                              "type": "uint256"
                            }
                          ],
                          "internalType": "struct BigNumber",
                          "name": "value",
                          "type": "tuple"
                        }
                      ],
                      "internalType": "struct Zp",
                      "name": "a",
                      "type": "tuple"
                    },
                    {
                      "components": [
                        {
                          "components": [
                            {
                              "internalType": "bytes",
                              "name": "val",
                              "type": "bytes"
                            },
                            {
                              "internalType": "bool",
                              "name": "neg",
                              "type": "bool"
                            },
                            {
                              "internalType": "uint256",
                              "name": "bitlen",
                              "type": "uint256"
                            }
                          ],
                          "internalType": "struct BigNumber",
                          "name": "value",
                          "type": "tuple"
                        }
                      ],
                      "internalType": "struct Zp",
                      "name": "b",
                      "type": "tuple"
                    }
                  ],
                  "internalType": "struct Zp_2",
                  "name": "b",
                  "type": "tuple"
                },
                {
                  "components": [
                    {
                      "components": [
                        {
                          "components": [
                            {
                              "internalType": "bytes",
                              "name": "val",
                              "type": "bytes"
                            },
                            {
                              "internalType": "bool",
                              "name": "neg",
                              "type": "bool"
                            },
                            {
                              "internalType": "uint256",
                              "name": "bitlen",
                              "type": "uint256"
                            }
                          ],
                          "internalType": "struct BigNumber",
                          "name": "value",
                          "type": "tuple"
                        }
                      ],
                      "internalType": "struct Zp",
                      "name": "a",
                      "type": "tuple"
                    },
                    {
                      "components": [
                        {
                          "components": [
                            {
                              "internalType": "bytes",
                              "name": "val",
                              "type": "bytes"
                            },
                            {
                              "internalType": "bool",
                              "name": "neg",
                              "type": "bool"
                            },
                            {
                              "internalType": "uint256",
                              "name": "bitlen",
                              "type": "uint256"
                            }
                          ],
                          "internalType": "struct BigNumber",
                          "name": "value",
                          "type": "tuple"
                        }
                      ],
                      "internalType": "struct Zp",
                      "name": "b",
                      "type": "tuple"
                    }
                  ],
                  "internalType": "struct Zp_2",
                  "name": "c",
                  "type": "tuple"
                }
              ],
              "internalType": "struct Zp_6",
              "name": "b",
              "type": "tuple"
            }
          ],
          "internalType": "struct Zp_12",
          "name": "x",
          "type": "tuple"
        },
        {
          "components": [
            {
              "components": [
                {
                  "components": [
                    {
                      "components": [
                        {
                          "components": [
                            {
                              "internalType": "bytes",
                              "name": "val",
                              "type": "bytes"
                            },
                            {
                              "internalType": "bool",
                              "name": "neg",
                              "type": "bool"
                            },
                            {
                              "internalType": "uint256",
                              "name": "bitlen",
                              "type": "uint256"
                            }
                          ],
                          "internalType": "struct BigNumber",
                          "name": "value",
                          "type": "tuple"
                        }
                      ],
                      "internalType": "struct Zp",
                      "name": "a",
                      "type": "tuple"
                    },
                    {
                      "components": [
                        {
                          "components": [
                            {
                              "internalType": "bytes",
                              "name": "val",
                              "type": "bytes"
                            },
                            {
                              "internalType": "bool",
                              "name": "neg",
                              "type": "bool"
                            },
                            {
                              "internalType": "uint256",
                              "name": "bitlen",
                              "type": "uint256"
                            }
                          ],
                          "internalType": "struct BigNumber",
                          "name": "value",
                          "type": "tuple"
                        }
                      ],
                      "internalType": "struct Zp",
                      "name": "b",
                      "type": "tuple"
                    }
                  ],
                  "internalType": "struct Zp_2",
                  "name": "a",
                  "type": "tuple"
                },
                {
                  "components": [
                    {
                      "components": [
                        {
                          "components": [
                            {
                              "internalType": "bytes",
                              "name": "val",
                              "type": "bytes"
                            },
                            {
                              "internalType": "bool",
                              "name": "neg",
                              "type": "bool"
                            },
                            {
                              "internalType": "uint256",
                              "name": "bitlen",
                              "type": "uint256"
                            }
                          ],
                          "internalType": "struct BigNumber",
                          "name": "value",
                          "type": "tuple"
                        }
                      ],
                      "internalType": "struct Zp",
                      "name": "a",
                      "type": "tuple"
                    },
                    {
                      "components": [
                        {
                          "components": [
                            {
                              "internalType": "bytes",
                              "name": "val",
                              "type": "bytes"
                            },
                            {
                              "internalType": "bool",
                              "name": "neg",
                              "type": "bool"
                            },
                            {
                              "internalType": "uint256",
                              "name": "bitlen",
                              "type": "uint256"
                            }
                          ],
                          "internalType": "struct BigNumber",
                          "name": "value",
                          "type": "tuple"
                        }
                      ],
                      "internalType": "struct Zp",
                      "name": "b",
                      "type": "tuple"
                    }
                  ],
                  "internalType": "struct Zp_2",
                  "name": "b",
                  "type": "tuple"
                },
                {
                  "components": [
                    {
                      "components": [
                        {
                          "components": [
                            {
                              "internalType": "bytes",
                              "name": "val",
                              "type": "bytes"
                            },
                            {
                              "internalType": "bool",
                              "name": "neg",
                              "type": "bool"
                            },
                            {
                              "internalType": "uint256",
                              "name": "bitlen",
                              "type": "uint256"
                            }
                          ],
                          "internalType": "struct BigNumber",
                          "name": "value",
                          "type": "tuple"
                        }
                      ],
                      "internalType": "struct Zp",
                      "name": "a",
                      "type": "tuple"
                    },
                    {
                      "components": [
                        {
                          "components": [
                            {
                              "internalType": "bytes",
                              "name": "val",
                              "type": "bytes"
                            },
                            {
                              "internalType": "bool",
                              "name": "neg",
                              "type": "bool"
                            },
                            {
                              "internalType": "uint256",
                              "name": "bitlen",
                              "type": "uint256"
                            }
                          ],
                          "internalType": "struct BigNumber",
                          "name": "value",
                          "type": "tuple"
                        }
                      ],
                      "internalType": "struct Zp",
                      "name": "b",
                      "type": "tuple"
                    }
                  ],
                  "internalType": "struct Zp_2",
                  "name": "c",
                  "type": "tuple"
                }
              ],
              "internalType": "struct Zp_6",
              "name": "a",
              "type": "tuple"
            },
            {
              "components": [
                {
                  "components": [
                    {
                      "components": [
                        {
                          "components": [
                            {
                              "internalType": "bytes",
                              "name": "val",
                              "type": "bytes"
                            },
                            {
                              "internalType": "bool",
                              "name": "neg",
                              "type": "bool"
                            },
                            {
                              "internalType": "uint256",
                              "name": "bitlen",
                              "type": "uint256"
                            }
                          ],
                          "internalType": "struct BigNumber",
                          "name": "value",
                          "type": "tuple"
                        }
                      ],
                      "internalType": "struct Zp",
                      "name": "a",
                      "type": "tuple"
                    },
                    {
                      "components": [
                        {
                          "components": [
                            {
                              "internalType": "bytes",
                              "name": "val",
                              "type": "bytes"
                            },
                            {
                              "internalType": "bool",
                              "name": "neg",
                              "type": "bool"
                            },
                            {
                              "internalType": "uint256",
                              "name": "bitlen",
                              "type": "uint256"
                            }
                          ],
                          "internalType": "struct BigNumber",
                          "name": "value",
                          "type": "tuple"
                        }
                      ],
                      "internalType": "struct Zp",
                      "name": "b",
                      "type": "tuple"
                    }
                  ],
                  "internalType": "struct Zp_2",
                  "name": "a",
                  "type": "tuple"
                },
                {
                  "components": [
                    {
                      "components": [
                        {
                          "components": [
                            {
                              "internalType": "bytes",
                              "name": "val",
                              "type": "bytes"
                            },
                            {
                              "internalType": "bool",
                              "name": "neg",
                              "type": "bool"
                            },
                            {
                              "internalType": "uint256",
                              "name": "bitlen",
                              "type": "uint256"
                            }
                          ],
                          "internalType": "struct BigNumber",
                          "name": "value",
                          "type": "tuple"
                        }
                      ],
                      "internalType": "struct Zp",
                      "name": "a",
                      "type": "tuple"
                    },
                    {
                      "components": [
                        {
                          "components": [
                            {
                              "internalType": "bytes",
                              "name": "val",
                              "type": "bytes"
                            },
                            {
                              "internalType": "bool",
                              "name": "neg",
                              "type": "bool"
                            },
                            {
                              "internalType": "uint256",
                              "name": "bitlen",
                              "type": "uint256"
                            }
                          ],
                          "internalType": "struct BigNumber",
                          "name": "value",
                          "type": "tuple"
                        }
                      ],
                      "internalType": "struct Zp",
                      "name": "b",
                      "type": "tuple"
                    }
                  ],
                  "internalType": "struct Zp_2",
                  "name": "b",
                  "type": "tuple"
                },
                {
                  "components": [
                    {
                      "components": [
                        {
                          "components": [
                            {
                              "internalType": "bytes",
                              "name": "val",
                              "type": "bytes"
                            },
                            {
                              "internalType": "bool",
                              "name": "neg",
                              "type": "bool"
                            },
                            {
                              "internalType": "uint256",
                              "name": "bitlen",
                              "type": "uint256"
                            }
                          ],
                          "internalType": "struct BigNumber",
                          "name": "value",
                          "type": "tuple"
                        }
                      ],
                      "internalType": "struct Zp",
                      "name": "a",
                      "type": "tuple"
                    },
                    {
                      "components": [
                        {
                          "components": [
                            {
                              "internalType": "bytes",
                              "name": "val",
                              "type": "bytes"
                            },
                            {
                              "internalType": "bool",
                              "name": "neg",
                              "type": "bool"
                            },
                            {
                              "internalType": "uint256",
                              "name": "bitlen",
                              "type": "uint256"
                            }
                          ],
                          "internalType": "struct BigNumber",
                          "name": "value",
                          "type": "tuple"
                        }
                      ],
                      "internalType": "struct Zp",
                      "name": "b",
                      "type": "tuple"
                    }
                  ],
                  "internalType": "struct Zp_2",
                  "name": "c",
                  "type": "tuple"
                }
              ],
              "internalType": "struct Zp_6",
              "name": "b",
              "type": "tuple"
            }
          ],
          "internalType": "struct Zp_12",
          "name": "y",
          "type": "tuple"
        }
      ],
      "name": "sum",
      "outputs": [
        {
          "components": [
            {
              "components": [
                {
                  "components": [
                    {
                      "components": [
                        {
                          "components": [
                            {
                              "internalType": "bytes",
                              "name": "val",
                              "type": "bytes"
                            },
                            {
                              "internalType": "bool",
                              "name": "neg",
                              "type": "bool"
                            },
                            {
                              "internalType": "uint256",
                              "name": "bitlen",
                              "type": "uint256"
                            }
                          ],
                          "internalType": "struct BigNumber",
                          "name": "value",
                          "type": "tuple"
                        }
                      ],
                      "internalType": "struct Zp",
                      "name": "a",
                      "type": "tuple"
                    },
                    {
                      "components": [
                        {
                          "components": [
                            {
                              "internalType": "bytes",
                              "name": "val",
                              "type": "bytes"
                            },
                            {
                              "internalType": "bool",
                              "name": "neg",
                              "type": "bool"
                            },
                            {
                              "internalType": "uint256",
                              "name": "bitlen",
                              "type": "uint256"
                            }
                          ],
                          "internalType": "struct BigNumber",
                          "name": "value",
                          "type": "tuple"
                        }
                      ],
                      "internalType": "struct Zp",
                      "name": "b",
                      "type": "tuple"
                    }
                  ],
                  "internalType": "struct Zp_2",
                  "name": "a",
                  "type": "tuple"
                },
                {
                  "components": [
                    {
                      "components": [
                        {
                          "components": [
                            {
                              "internalType": "bytes",
                              "name": "val",
                              "type": "bytes"
                            },
                            {
                              "internalType": "bool",
                              "name": "neg",
                              "type": "bool"
                            },
                            {
                              "internalType": "uint256",
                              "name": "bitlen",
                              "type": "uint256"
                            }
                          ],
                          "internalType": "struct BigNumber",
                          "name": "value",
                          "type": "tuple"
                        }
                      ],
                      "internalType": "struct Zp",
                      "name": "a",
                      "type": "tuple"
                    },
                    {
                      "components": [
                        {
                          "components": [
                            {
                              "internalType": "bytes",
                              "name": "val",
                              "type": "bytes"
                            },
                            {
                              "internalType": "bool",
                              "name": "neg",
                              "type": "bool"
                            },
                            {
                              "internalType": "uint256",
                              "name": "bitlen",
                              "type": "uint256"
                            }
                          ],
                          "internalType": "struct BigNumber",
                          "name": "value",
                          "type": "tuple"
                        }
                      ],
                      "internalType": "struct Zp",
                      "name": "b",
                      "type": "tuple"
                    }
                  ],
                  "internalType": "struct Zp_2",
                  "name": "b",
                  "type": "tuple"
                },
                {
                  "components": [
                    {
                      "components": [
                        {
                          "components": [
                            {
                              "internalType": "bytes",
                              "name": "val",
                              "type": "bytes"
                            },
                            {
                              "internalType": "bool",
                              "name": "neg",
                              "type": "bool"
                            },
                            {
                              "internalType": "uint256",
                              "name": "bitlen",
                              "type": "uint256"
                            }
                          ],
                          "internalType": "struct BigNumber",
                          "name": "value",
                          "type": "tuple"
                        }
                      ],
                      "internalType": "struct Zp",
                      "name": "a",
                      "type": "tuple"
                    },
                    {
                      "components": [
                        {
                          "components": [
                            {
                              "internalType": "bytes",
                              "name": "val",
                              "type": "bytes"
                            },
                            {
                              "internalType": "bool",
                              "name": "neg",
                              "type": "bool"
                            },
                            {
                              "internalType": "uint256",
                              "name": "bitlen",
                              "type": "uint256"
                            }
                          ],
                          "internalType": "struct BigNumber",
                          "name": "value",
                          "type": "tuple"
                        }
                      ],
                      "internalType": "struct Zp",
                      "name": "b",
                      "type": "tuple"
                    }
                  ],
                  "internalType": "struct Zp_2",
                  "name": "c",
                  "type": "tuple"
                }
              ],
              "internalType": "struct Zp_6",
              "name": "a",
              "type": "tuple"
            },
            {
              "components": [
                {
                  "components": [
                    {
                      "components": [
                        {
                          "components": [
                            {
                              "internalType": "bytes",
                              "name": "val",
                              "type": "bytes"
                            },
                            {
                              "internalType": "bool",
                              "name": "neg",
                              "type": "bool"
                            },
                            {
                              "internalType": "uint256",
                              "name": "bitlen",
                              "type": "uint256"
                            }
                          ],
                          "internalType": "struct BigNumber",
                          "name": "value",
                          "type": "tuple"
                        }
                      ],
                      "internalType": "struct Zp",
                      "name": "a",
                      "type": "tuple"
                    },
                    {
                      "components": [
                        {
                          "components": [
                            {
                              "internalType": "bytes",
                              "name": "val",
                              "type": "bytes"
                            },
                            {
                              "internalType": "bool",
                              "name": "neg",
                              "type": "bool"
                            },
                            {
                              "internalType": "uint256",
                              "name": "bitlen",
                              "type": "uint256"
                            }
                          ],
                          "internalType": "struct BigNumber",
                          "name": "value",
                          "type": "tuple"
                        }
                      ],
                      "internalType": "struct Zp",
                      "name": "b",
                      "type": "tuple"
                    }
                  ],
                  "internalType": "struct Zp_2",
                  "name": "a",
                  "type": "tuple"
                },
                {
                  "components": [
                    {
                      "components": [
                        {
                          "components": [
                            {
                              "internalType": "bytes",
                              "name": "val",
                              "type": "bytes"
                            },
                            {
                              "internalType": "bool",
                              "name": "neg",
                              "type": "bool"
                            },
                            {
                              "internalType": "uint256",
                              "name": "bitlen",
                              "type": "uint256"
                            }
                          ],
                          "internalType": "struct BigNumber",
                          "name": "value",
                          "type": "tuple"
                        }
                      ],
                      "internalType": "struct Zp",
                      "name": "a",
                      "type": "tuple"
                    },
                    {
                      "components": [
                        {
                          "components": [
                            {
                              "internalType": "bytes",
                              "name": "val",
                              "type": "bytes"
                            },
                            {
                              "internalType": "bool",
                              "name": "neg",
                              "type": "bool"
                            },
                            {
                              "internalType": "uint256",
                              "name": "bitlen",
                              "type": "uint256"
                            }
                          ],
                          "internalType": "struct BigNumber",
                          "name": "value",
                          "type": "tuple"
                        }
                      ],
                      "internalType": "struct Zp",
                      "name": "b",
                      "type": "tuple"
                    }
                  ],
                  "internalType": "struct Zp_2",
                  "name": "b",
                  "type": "tuple"
                },
                {
                  "components": [
                    {
                      "components": [
                        {
                          "components": [
                            {
                              "internalType": "bytes",
                              "name": "val",
                              "type": "bytes"
                            },
                            {
                              "internalType": "bool",
                              "name": "neg",
                              "type": "bool"
                            },
                            {
                              "internalType": "uint256",
                              "name": "bitlen",
                              "type": "uint256"
                            }
                          ],
                          "internalType": "struct BigNumber",
                          "name": "value",
                          "type": "tuple"
                        }
                      ],
                      "internalType": "struct Zp",
                      "name": "a",
                      "type": "tuple"
                    },
                    {
                      "components": [
                        {
                          "components": [
                            {
                              "internalType": "bytes",
                              "name": "val",
                              "type": "bytes"
                            },
                            {
                              "internalType": "bool",
                              "name": "neg",
                              "type": "bool"
                            },
                            {
                              "internalType": "uint256",
                              "name": "bitlen",
                              "type": "uint256"
                            }
                          ],
                          "internalType": "struct BigNumber",
                          "name": "value",
                          "type": "tuple"
                        }
                      ],
                      "internalType": "struct Zp",
                      "name": "b",
                      "type": "tuple"
                    }
                  ],
                  "internalType": "struct Zp_2",
                  "name": "c",
                  "type": "tuple"
                }
              ],
              "internalType": "struct Zp_6",
              "name": "b",
              "type": "tuple"
            }
          ],
          "internalType": "struct Zp_12",
          "name": "",
          "type": "tuple"
        }
      ],
      "stateMutability": "view",
      "type": "function"
    }
  ],
  "bytecode": "0x608060405234801561001057600080fd5b50604051611bc6380380611bc6833981810160405281019061003291906100ed565b806000806101000a81548173ffffffffffffffffffffffffffffffffffffffff021916908373ffffffffffffffffffffffffffffffffffffffff1602179055505061011a565b600080fd5b600073ffffffffffffffffffffffffffffffffffffffff82169050919050565b60006100a88261007d565b9050919050565b60006100ba8261009d565b9050919050565b6100ca816100af565b81146100d557600080fd5b50565b6000815190506100e7816100c1565b92915050565b60006020828403121561010357610102610078565b5b6000610111848285016100d8565b91505092915050565b611a9d806101296000396000f3fe608060405234801561001057600080fd5b50600436106100575760003560e01c80636bc90c281461005c57806377839c691461008c5780639e0ddc50146100bc578063f6700795146100ec578063f87386c31461011c575b600080fd5b6100766004803603810190610071919061135d565b61014c565b60405161008391906115d2565b60405180910390f35b6100a660048036038101906100a1919061135d565b6102b6565b6040516100b391906115d2565b60405180910390f35b6100d660048036038101906100d1919061135d565b61076a565b6040516100e391906115d2565b60405180910390f35b610106600480360381019061010191906115f4565b6108d4565b60405161011391906115d2565b60405180910390f35b6101366004803603810190610131919061163d565b610e0b565b60405161014391906115d2565b60405180910390f35b610154610e30565b6102ae60008054906101000a900473ffffffffffffffffffffffffffffffffffffffff1673ffffffffffffffffffffffffffffffffffffffff1663f7052ed6856000015185600001516040518363ffffffff1660e01b81526004016101ba929190611713565b600060405180830381865afa1580156101d7573d6000803e3d6000fd5b505050506040513d6000823e3d601f19601f8201168201806040525081019061020091906119fc565b60008054906101000a900473ffffffffffffffffffffffffffffffffffffffff1673ffffffffffffffffffffffffffffffffffffffff1663f7052ed6866020015186602001516040518363ffffffff1660e01b8152600401610263929190611713565b600060405180830381865afa158015610280573d6000803e3d6000fd5b505050506040513d6000823e3d601f19601f820116820180604052508101906102a991906119fc565b610e0b565b905092915050565b6102be610e30565b60008060009054906101000a900473ffffffffffffffffffffffffffffffffffffffff1673ffffffffffffffffffffffffffffffffffffffff1663b52ab3b160008054906101000a900473ffffffffffffffffffffffffffffffffffffffff1673ffffffffffffffffffffffffffffffffffffffff16634aa28cb5876020015187602001516040518363ffffffff1660e01b8152600401610360929190611713565b600060405180830381865afa15801561037d573d6000803e3d6000fd5b505050506040513d6000823e3d601f19601f820116820180604052508101906103a691906119fc565b6040518263ffffffff1660e01b81526004016103c29190611a45565b600060405180830381865afa1580156103df573d6000803e3d6000fd5b505050506040513d6000823e3d601f19601f8201168201806040525081019061040891906119fc565b905060008060009054906101000a900473ffffffffffffffffffffffffffffffffffffffff1673ffffffffffffffffffffffffffffffffffffffff16634aa28cb5866000015186600001516040518363ffffffff1660e01b8152600401610470929190611713565b600060405180830381865afa15801561048d573d6000803e3d6000fd5b505050506040513d6000823e3d601f19601f820116820180604052508101906104b691906119fc565b905060008060009054906101000a900473ffffffffffffffffffffffffffffffffffffffff1673ffffffffffffffffffffffffffffffffffffffff16634aa28cb5876020015187600001516040518363ffffffff1660e01b815260040161051e929190611713565b600060405180830381865afa15801561053b573d6000803e3d6000fd5b505050506040513d6000823e3d601f19601f8201168201806040525081019061056491906119fc565b905060008060009054906101000a900473ffffffffffffffffffffffffffffffffffffffff1673ffffffffffffffffffffffffffffffffffffffff16634aa28cb5886000015188602001516040518363ffffffff1660e01b81526004016105cc929190611713565b600060405180830381865afa1580156105e9573d6000803e3d6000fd5b505050506040513d6000823e3d601f19601f8201168201806040525081019061061291906119fc565b905061075e60008054906101000a900473ffffffffffffffffffffffffffffffffffffffff1673ffffffffffffffffffffffffffffffffffffffff16637e28928086866040518363ffffffff1660e01b8152600401610672929190611713565b600060405180830381865afa15801561068f573d6000803e3d6000fd5b505050506040513d6000823e3d601f19601f820116820180604052508101906106b891906119fc565b60008054906101000a900473ffffffffffffffffffffffffffffffffffffffff1673ffffffffffffffffffffffffffffffffffffffff16637e28928085856040518363ffffffff1660e01b8152600401610713929190611713565b600060405180830381865afa158015610730573d6000803e3d6000fd5b505050506040513d6000823e3d601f19601f8201168201806040525081019061075991906119fc565b610e0b565b94505050505092915050565b610772610e30565b6108cc60008054906101000a900473ffffffffffffffffffffffffffffffffffffffff1673ffffffffffffffffffffffffffffffffffffffff16637e289280856000015185600001516040518363ffffffff1660e01b81526004016107d8929190611713565b600060405180830381865afa1580156107f5573d6000803e3d6000fd5b505050506040513d6000823e3d601f19601f8201168201806040525081019061081e91906119fc565b60008054906101000a900473ffffffffffffffffffffffffffffffffffffffff1673ffffffffffffffffffffffffffffffffffffffff16637e289280866020015186602001516040518363ffffffff1660e01b8152600401610881929190611713565b600060405180830381865afa15801561089e573d6000803e3d6000fd5b505050506040513d6000823e3d601f19601f820116820180604052508101906108c791906119fc565b610e0b565b905092915050565b6108dc610e30565b60008060009054906101000a900473ffffffffffffffffffffffffffffffffffffffff1673ffffffffffffffffffffffffffffffffffffffff1663b52ab3b160008054906101000a900473ffffffffffffffffffffffffffffffffffffffff1673ffffffffffffffffffffffffffffffffffffffff16634aa28cb5866020015187602001516040518363ffffffff1660e01b815260040161097e929190611713565b600060405180830381865afa15801561099b573d6000803e3d6000fd5b505050506040513d6000823e3d601f19601f820116820180604052508101906109c491906119fc565b6040518263ffffffff1660e01b81526004016109e09190611a45565b600060405180830381865afa1580156109fd573d6000803e3d6000fd5b505050506040513d6000823e3d601f19601f82011682018060405250810190610a2691906119fc565b905060008060009054906101000a900473ffffffffffffffffffffffffffffffffffffffff1673ffffffffffffffffffffffffffffffffffffffff16634aa28cb5856000015186600001516040518363ffffffff1660e01b8152600401610a8e929190611713565b600060405180830381865afa158015610aab573d6000803e3d6000fd5b505050506040513d6000823e3d601f19601f82011682018060405250810190610ad491906119fc565b905060008060009054906101000a900473ffffffffffffffffffffffffffffffffffffffff1673ffffffffffffffffffffffffffffffffffffffff1663f7052ed683856040518363ffffffff1660e01b8152600401610b34929190611713565b600060405180830381865afa158015610b51573d6000803e3d6000fd5b505050506040513d6000823e3d601f19601f82011682018060405250810190610b7a91906119fc565b9050610e0160008054906101000a900473ffffffffffffffffffffffffffffffffffffffff1673ffffffffffffffffffffffffffffffffffffffff1663ba510cc38760000151846040518363ffffffff1660e01b8152600401610bde929190611713565b600060405180830381865afa158015610bfb573d6000803e3d6000fd5b505050506040513d6000823e3d601f19601f82011682018060405250810190610c2491906119fc565b60008054906101000a900473ffffffffffffffffffffffffffffffffffffffff1673ffffffffffffffffffffffffffffffffffffffff1663ba510cc360008054906101000a900473ffffffffffffffffffffffffffffffffffffffff1673ffffffffffffffffffffffffffffffffffffffff1663f7052ed660008054906101000a900473ffffffffffffffffffffffffffffffffffffffff1673ffffffffffffffffffffffffffffffffffffffff1663bc1b392d6040518163ffffffff1660e01b8152600401600060405180830381865afa158015610d07573d6000803e3d6000fd5b505050506040513d6000823e3d601f19601f82011682018060405250810190610d3091906119fc565b8b602001516040518363ffffffff1660e01b8152600401610d52929190611713565b600060405180830381865afa158015610d6f573d6000803e3d6000fd5b505050506040513d6000823e3d601f19601f82011682018060405250810190610d9891906119fc565b856040518363ffffffff1660e01b8152600401610db6929190611713565b600060405180830381865afa158015610dd3573d6000803e3d6000fd5b505050506040513d6000823e3d601f19601f82011682018060405250810190610dfc91906119fc565b610e0b565b9350505050919050565b610e13610e30565b604051806040016040528084815260200183815250905092915050565b6040518060400160405280610e43610e56565b8152602001610e50610e56565b81525090565b6040518060600160405280610e69610e89565b8152602001610e76610e89565b8152602001610e83610e89565b81525090565b6040518060400160405280610e9c610eaf565b8152602001610ea9610eaf565b81525090565b6040518060200160405280610ec2610ec8565b81525090565b604051806060016040528060608152602001600015158152602001600081525090565b6000604051905090565b600080fd5b600080fd5b600080fd5b6000601f19601f8301169050919050565b7f4e487b7100000000000000000000000000000000000000000000000000000000600052604160045260246000fd5b610f4d82610f04565b810181811067ffffffffffffffff82111715610f6c57610f6b610f15565b5b80604052505050565b6000610f7f610eeb565b9050610f8b8282610f44565b919050565b600080fd5b600080fd5b600080fd5b600067ffffffffffffffff821115610fba57610fb9610f15565b5b610fc382610f04565b9050602081019050919050565b82818337600083830152505050565b6000610ff2610fed84610f9f565b610f75565b90508281526020810184848401111561100e5761100d610f9a565b5b611019848285610fd0565b509392505050565b600082601f83011261103657611035610f95565b5b8135611046848260208601610fdf565b91505092915050565b60008115159050919050565b6110648161104f565b811461106f57600080fd5b50565b6000813590506110818161105b565b92915050565b6000819050919050565b61109a81611087565b81146110a557600080fd5b50565b6000813590506110b781611091565b92915050565b6000606082840312156110d3576110d2610eff565b5b6110dd6060610f75565b9050600082013567ffffffffffffffff8111156110fd576110fc610f90565b5b61110984828501611021565b600083015250602061111d84828501611072565b6020830152506040611131848285016110a8565b60408301525092915050565b60006020828403121561115357611152610eff565b5b61115d6020610f75565b9050600082013567ffffffffffffffff81111561117d5761117c610f90565b5b611189848285016110bd565b60008301525092915050565b6000604082840312156111ab576111aa610eff565b5b6111b56040610f75565b9050600082013567ffffffffffffffff8111156111d5576111d4610f90565b5b6111e18482850161113d565b600083015250602082013567ffffffffffffffff81111561120557611204610f90565b5b6112118482850161113d565b60208301525092915050565b60006060828403121561123357611232610eff565b5b61123d6060610f75565b9050600082013567ffffffffffffffff81111561125d5761125c610f90565b5b61126984828501611195565b600083015250602082013567ffffffffffffffff81111561128d5761128c610f90565b5b61129984828501611195565b602083015250604082013567ffffffffffffffff8111156112bd576112bc610f90565b5b6112c984828501611195565b60408301525092915050565b6000604082840312156112eb576112ea610eff565b5b6112f56040610f75565b9050600082013567ffffffffffffffff81111561131557611314610f90565b5b6113218482850161121d565b600083015250602082013567ffffffffffffffff81111561134557611344610f90565b5b6113518482850161121d565b60208301525092915050565b6000806040838503121561137457611373610ef5565b5b600083013567ffffffffffffffff81111561139257611391610efa565b5b61139e858286016112d5565b925050602083013567ffffffffffffffff8111156113bf576113be610efa565b5b6113cb858286016112d5565b9150509250929050565b600081519050919050565b600082825260208201905092915050565b60005b8381101561140f5780820151818401526020810190506113f4565b60008484015250505050565b6000611426826113d5565b61143081856113e0565b93506114408185602086016113f1565b61144981610f04565b840191505092915050565b61145d8161104f565b82525050565b61146c81611087565b82525050565b6000606083016000830151848203600086015261148f828261141b565b91505060208301516114a46020860182611454565b5060408301516114b76040860182611463565b508091505092915050565b600060208301600083015184820360008601526114df8282611472565b9150508091505092915050565b6000604083016000830151848203600086015261150982826114c2565b9150506020830151848203602086015261152382826114c2565b9150508091505092915050565b6000606083016000830151848203600086015261154d82826114ec565b9150506020830151848203602086015261156782826114ec565b9150506040830151848203604086015261158182826114ec565b9150508091505092915050565b600060408301600083015184820360008601526115ab8282611530565b915050602083015184820360208601526115c58282611530565b9150508091505092915050565b600060208201905081810360008301526115ec818461158e565b905092915050565b60006020828403121561160a57611609610ef5565b5b600082013567ffffffffffffffff81111561162857611627610efa565b5b611634848285016112d5565b91505092915050565b6000806040838503121561165457611653610ef5565b5b600083013567ffffffffffffffff81111561167257611671610efa565b5b61167e8582860161121d565b925050602083013567ffffffffffffffff81111561169f5761169e610efa565b5b6116ab8582860161121d565b9150509250929050565b600060608301600083015184820360008601526116d282826114ec565b915050602083015184820360208601526116ec82826114ec565b9150506040830151848203604086015261170682826114ec565b9150508091505092915050565b6000604082019050818103600083015261172d81856116b5565b9050818103602083015261174181846116b5565b90509392505050565b600061175d61175884610f9f565b610f75565b90508281526020810184848401111561177957611778610f9a565b5b6117848482856113f1565b509392505050565b600082601f8301126117a1576117a0610f95565b5b81516117b184826020860161174a565b91505092915050565b6000815190506117c98161105b565b92915050565b6000815190506117de81611091565b92915050565b6000606082840312156117fa576117f9610eff565b5b6118046060610f75565b9050600082015167ffffffffffffffff81111561182457611823610f90565b5b6118308482850161178c565b6000830152506020611844848285016117ba565b6020830152506040611858848285016117cf565b60408301525092915050565b60006020828403121561187a57611879610eff565b5b6118846020610f75565b9050600082015167ffffffffffffffff8111156118a4576118a3610f90565b5b6118b0848285016117e4565b60008301525092915050565b6000604082840312156118d2576118d1610eff565b5b6118dc6040610f75565b9050600082015167ffffffffffffffff8111156118fc576118fb610f90565b5b61190884828501611864565b600083015250602082015167ffffffffffffffff81111561192c5761192b610f90565b5b61193884828501611864565b60208301525092915050565b60006060828403121561195a57611959610eff565b5b6119646060610f75565b9050600082015167ffffffffffffffff81111561198457611983610f90565b5b611990848285016118bc565b600083015250602082015167ffffffffffffffff8111156119b4576119b3610f90565b5b6119c0848285016118bc565b602083015250604082015167ffffffffffffffff8111156119e4576119e3610f90565b5b6119f0848285016118bc565b60408301525092915050565b600060208284031215611a1257611a11610ef5565b5b600082015167ffffffffffffffff811115611a3057611a2f610efa565b5b611a3c84828501611944565b91505092915050565b60006020820190508181036000830152611a5f81846116b5565b90509291505056fea2646970667358221220856efbe700e8ffbfe1103de500499339cfc5ee2936291e1dfc3e09852e2a7b8164736f6c634300081b0033",
  "linkReferences": {},
  "deployedLinkReferences": {}
}