{
  "_format": "hh-sol-artifact-1",
  "contractName": "PointZp_12",
  "sourceName": "contracts/point/pointZp_12.sol",
  "abi": [
    {
      "inputs": [
        {
          "internalType": "contract TwelveExtension",
          "name": "field",
          "type": "address"
        }
      ],
      "stateMutability": "nonpayable",
      "type": "constructor"
    },
    {
      "inputs": [
        {
          "components": [
            {
              "internalType": "enum PointType",
              "name": "pointType",
              "type": "uint8"
            },
            {
              "components": [
                {
                  "components": [
                    {
                      "components": [
                        {
                          "components": [
                            {
                              "components": [
                                {
                                  "internalType": "bytes",
                                  "name": "val",
                                  "type": "bytes"
                                },
                                {
                                  "internalType": "bool",
                                  "name": "neg",
                                  "type": "bool"
                                },
                                {
                                  "internalType": "uint256",
                                  "name": "bitlen",
                                  "type": "uint256"
                                }
                              ],
                              "internalType": "struct BigNumber",
                              "name": "value",
                              "type": "tuple"
                            }
                          ],
                          "internalType": "struct Zp",
                          "name": "a",
                          "type": "tuple"
                        },
                        {
                          "components": [
                            {
                              "components": [
                                {
                                  "internalType": "bytes",
                                  "name": "val",
                                  "type": "bytes"
                                },
                                {
                                  "internalType": "bool",
                                  "name": "neg",
                                  "type": "bool"
                                },
                                {
                                  "internalType": "uint256",
                                  "name": "bitlen",
                                  "type": "uint256"
                                }
                              ],
                              "internalType": "struct BigNumber",
                              "name": "value",
                              "type": "tuple"
                            }
                          ],
                          "internalType": "struct Zp",
                          "name": "b",
                          "type": "tuple"
                        }
                      ],
                      "internalType": "struct Zp_2",
                      "name": "a",
                      "type": "tuple"
                    },
                    {
                      "components": [
                        {
                          "components": [
                            {
                              "components": [
                                {
                                  "internalType": "bytes",
                                  "name": "val",
                                  "type": "bytes"
                                },
                                {
                                  "internalType": "bool",
                                  "name": "neg",
                                  "type": "bool"
                                },
                                {
                                  "internalType": "uint256",
                                  "name": "bitlen",
                                  "type": "uint256"
                                }
                              ],
                              "internalType": "struct BigNumber",
                              "name": "value",
                              "type": "tuple"
                            }
                          ],
                          "internalType": "struct Zp",
                          "name": "a",
                          "type": "tuple"
                        },
                        {
                          "components": [
                            {
                              "components": [
                                {
                                  "internalType": "bytes",
                                  "name": "val",
                                  "type": "bytes"
                                },
                                {
                                  "internalType": "bool",
                                  "name": "neg",
                                  "type": "bool"
                                },
                                {
                                  "internalType": "uint256",
                                  "name": "bitlen",
                                  "type": "uint256"
                                }
                              ],
                              "internalType": "struct BigNumber",
                              "name": "value",
                              "type": "tuple"
                            }
                          ],
                          "internalType": "struct Zp",
                          "name": "b",
                          "type": "tuple"
                        }
                      ],
                      "internalType": "struct Zp_2",
                      "name": "b",
                      "type": "tuple"
                    },
                    {
                      "components": [
                        {
                          "components": [
                            {
                              "components": [
                                {
                                  "internalType": "bytes",
                                  "name": "val",
                                  "type": "bytes"
                                },
                                {
                                  "internalType": "bool",
                                  "name": "neg",
                                  "type": "bool"
                                },
                                {
                                  "internalType": "uint256",
                                  "name": "bitlen",
                                  "type": "uint256"
                                }
                              ],
                              "internalType": "struct BigNumber",
                              "name": "value",
                              "type": "tuple"
                            }
                          ],
                          "internalType": "struct Zp",
                          "name": "a",
                          "type": "tuple"
                        },
                        {
                          "components": [
                            {
                              "components": [
                                {
                                  "internalType": "bytes",
                                  "name": "val",
                                  "type": "bytes"
                                },
                                {
                                  "internalType": "bool",
                                  "name": "neg",
                                  "type": "bool"
                                },
                                {
                                  "internalType": "uint256",
                                  "name": "bitlen",
                                  "type": "uint256"
                                }
                              ],
                              "internalType": "struct BigNumber",
                              "name": "value",
                              "type": "tuple"
                            }
                          ],
                          "internalType": "struct Zp",
                          "name": "b",
                          "type": "tuple"
                        }
                      ],
                      "internalType": "struct Zp_2",
                      "name": "c",
                      "type": "tuple"
                    }
                  ],
                  "internalType": "struct Zp_6",
                  "name": "a",
                  "type": "tuple"
                },
                {
                  "components": [
                    {
                      "components": [
                        {
                          "components": [
                            {
                              "components": [
                                {
                                  "internalType": "bytes",
                                  "name": "val",
                                  "type": "bytes"
                                },
                                {
                                  "internalType": "bool",
                                  "name": "neg",
                                  "type": "bool"
                                },
                                {
                                  "internalType": "uint256",
                                  "name": "bitlen",
                                  "type": "uint256"
                                }
                              ],
                              "internalType": "struct BigNumber",
                              "name": "value",
                              "type": "tuple"
                            }
                          ],
                          "internalType": "struct Zp",
                          "name": "a",
                          "type": "tuple"
                        },
                        {
                          "components": [
                            {
                              "components": [
                                {
                                  "internalType": "bytes",
                                  "name": "val",
                                  "type": "bytes"
                                },
                                {
                                  "internalType": "bool",
                                  "name": "neg",
                                  "type": "bool"
                                },
                                {
                                  "internalType": "uint256",
                                  "name": "bitlen",
                                  "type": "uint256"
                                }
                              ],
                              "internalType": "struct BigNumber",
                              "name": "value",
                              "type": "tuple"
                            }
                          ],
                          "internalType": "struct Zp",
                          "name": "b",
                          "type": "tuple"
                        }
                      ],
                      "internalType": "struct Zp_2",
                      "name": "a",
                      "type": "tuple"
                    },
                    {
                      "components": [
                        {
                          "components": [
                            {
                              "components": [
                                {
                                  "internalType": "bytes",
                                  "name": "val",
                                  "type": "bytes"
                                },
                                {
                                  "internalType": "bool",
                                  "name": "neg",
                                  "type": "bool"
                                },
                                {
                                  "internalType": "uint256",
                                  "name": "bitlen",
                                  "type": "uint256"
                                }
                              ],
                              "internalType": "struct BigNumber",
                              "name": "value",
                              "type": "tuple"
                            }
                          ],
                          "internalType": "struct Zp",
                          "name": "a",
                          "type": "tuple"
                        },
                        {
                          "components": [
                            {
                              "components": [
                                {
                                  "internalType": "bytes",
                                  "name": "val",
                                  "type": "bytes"
                                },
                                {
                                  "internalType": "bool",
                                  "name": "neg",
                                  "type": "bool"
                                },
                                {
                                  "internalType": "uint256",
                                  "name": "bitlen",
                                  "type": "uint256"
                                }
                              ],
                              "internalType": "struct BigNumber",
                              "name": "value",
                              "type": "tuple"
                            }
                          ],
                          "internalType": "struct Zp",
                          "name": "b",
                          "type": "tuple"
                        }
                      ],
                      "internalType": "struct Zp_2",
                      "name": "b",
                      "type": "tuple"
                    },
                    {
                      "components": [
                        {
                          "components": [
                            {
                              "components": [
                                {
                                  "internalType": "bytes",
                                  "name": "val",
                                  "type": "bytes"
                                },
                                {
                                  "internalType": "bool",
                                  "name": "neg",
                                  "type": "bool"
                                },
                                {
                                  "internalType": "uint256",
                                  "name": "bitlen",
                                  "type": "uint256"
                                }
                              ],
                              "internalType": "struct BigNumber",
                              "name": "value",
                              "type": "tuple"
                            }
                          ],
                          "internalType": "struct Zp",
                          "name": "a",
                          "type": "tuple"
                        },
                        {
                          "components": [
                            {
                              "components": [
                                {
                                  "internalType": "bytes",
                                  "name": "val",
                                  "type": "bytes"
                                },
                                {
                                  "internalType": "bool",
                                  "name": "neg",
                                  "type": "bool"
                                },
                                {
                                  "internalType": "uint256",
                                  "name": "bitlen",
                                  "type": "uint256"
                                }
                              ],
                              "internalType": "struct BigNumber",
                              "name": "value",
                              "type": "tuple"
                            }
                          ],
                          "internalType": "struct Zp",
                          "name": "b",
                          "type": "tuple"
                        }
                      ],
                      "internalType": "struct Zp_2",
                      "name": "c",
                      "type": "tuple"
                    }
                  ],
                  "internalType": "struct Zp_6",
                  "name": "b",
                  "type": "tuple"
                }
              ],
              "internalType": "struct Zp_12",
              "name": "x",
              "type": "tuple"
            },
            {
              "components": [
                {
                  "components": [
                    {
                      "components": [
                        {
                          "components": [
                            {
                              "components": [
                                {
                                  "internalType": "bytes",
                                  "name": "val",
                                  "type": "bytes"
                                },
                                {
                                  "internalType": "bool",
                                  "name": "neg",
                                  "type": "bool"
                                },
                                {
                                  "internalType": "uint256",
                                  "name": "bitlen",
                                  "type": "uint256"
                                }
                              ],
                              "internalType": "struct BigNumber",
                              "name": "value",
                              "type": "tuple"
                            }
                          ],
                          "internalType": "struct Zp",
                          "name": "a",
                          "type": "tuple"
                        },
                        {
                          "components": [
                            {
                              "components": [
                                {
                                  "internalType": "bytes",
                                  "name": "val",
                                  "type": "bytes"
                                },
                                {
                                  "internalType": "bool",
                                  "name": "neg",
                                  "type": "bool"
                                },
                                {
                                  "internalType": "uint256",
                                  "name": "bitlen",
                                  "type": "uint256"
                                }
                              ],
                              "internalType": "struct BigNumber",
                              "name": "value",
                              "type": "tuple"
                            }
                          ],
                          "internalType": "struct Zp",
                          "name": "b",
                          "type": "tuple"
                        }
                      ],
                      "internalType": "struct Zp_2",
                      "name": "a",
                      "type": "tuple"
                    },
                    {
                      "components": [
                        {
                          "components": [
                            {
                              "components": [
                                {
                                  "internalType": "bytes",
                                  "name": "val",
                                  "type": "bytes"
                                },
                                {
                                  "internalType": "bool",
                                  "name": "neg",
                                  "type": "bool"
                                },
                                {
                                  "internalType": "uint256",
                                  "name": "bitlen",
                                  "type": "uint256"
                                }
                              ],
                              "internalType": "struct BigNumber",
                              "name": "value",
                              "type": "tuple"
                            }
                          ],
                          "internalType": "struct Zp",
                          "name": "a",
                          "type": "tuple"
                        },
                        {
                          "components": [
                            {
                              "components": [
                                {
                                  "internalType": "bytes",
                                  "name": "val",
                                  "type": "bytes"
                                },
                                {
                                  "internalType": "bool",
                                  "name": "neg",
                                  "type": "bool"
                                },
                                {
                                  "internalType": "uint256",
                                  "name": "bitlen",
                                  "type": "uint256"
                                }
                              ],
                              "internalType": "struct BigNumber",
                              "name": "value",
                              "type": "tuple"
                            }
                          ],
                          "internalType": "struct Zp",
                          "name": "b",
                          "type": "tuple"
                        }
                      ],
                      "internalType": "struct Zp_2",
                      "name": "b",
                      "type": "tuple"
                    },
                    {
                      "components": [
                        {
                          "components": [
                            {
                              "components": [
                                {
                                  "internalType": "bytes",
                                  "name": "val",
                                  "type": "bytes"
                                },
                                {
                                  "internalType": "bool",
                                  "name": "neg",
                                  "type": "bool"
                                },
                                {
                                  "internalType": "uint256",
                                  "name": "bitlen",
                                  "type": "uint256"
                                }
                              ],
                              "internalType": "struct BigNumber",
                              "name": "value",
                              "type": "tuple"
                            }
                          ],
                          "internalType": "struct Zp",
                          "name": "a",
                          "type": "tuple"
                        },
                        {
                          "components": [
                            {
                              "components": [
                                {
                                  "internalType": "bytes",
                                  "name": "val",
                                  "type": "bytes"
                                },
                                {
                                  "internalType": "bool",
                                  "name": "neg",
                                  "type": "bool"
                                },
                                {
                                  "internalType": "uint256",
                                  "name": "bitlen",
                                  "type": "uint256"
                                }
                              ],
                              "internalType": "struct BigNumber",
                              "name": "value",
                              "type": "tuple"
                            }
                          ],
                          "internalType": "struct Zp",
                          "name": "b",
                          "type": "tuple"
                        }
                      ],
                      "internalType": "struct Zp_2",
                      "name": "c",
                      "type": "tuple"
                    }
                  ],
                  "internalType": "struct Zp_6",
                  "name": "a",
                  "type": "tuple"
                },
                {
                  "components": [
                    {
                      "components": [
                        {
                          "components": [
                            {
                              "components": [
                                {
                                  "internalType": "bytes",
                                  "name": "val",
                                  "type": "bytes"
                                },
                                {
                                  "internalType": "bool",
                                  "name": "neg",
                                  "type": "bool"
                                },
                                {
                                  "internalType": "uint256",
                                  "name": "bitlen",
                                  "type": "uint256"
                                }
                              ],
                              "internalType": "struct BigNumber",
                              "name": "value",
                              "type": "tuple"
                            }
                          ],
                          "internalType": "struct Zp",
                          "name": "a",
                          "type": "tuple"
                        },
                        {
                          "components": [
                            {
                              "components": [
                                {
                                  "internalType": "bytes",
                                  "name": "val",
                                  "type": "bytes"
                                },
                                {
                                  "internalType": "bool",
                                  "name": "neg",
                                  "type": "bool"
                                },
                                {
                                  "internalType": "uint256",
                                  "name": "bitlen",
                                  "type": "uint256"
                                }
                              ],
                              "internalType": "struct BigNumber",
                              "name": "value",
                              "type": "tuple"
                            }
                          ],
                          "internalType": "struct Zp",
                          "name": "b",
                          "type": "tuple"
                        }
                      ],
                      "internalType": "struct Zp_2",
                      "name": "a",
                      "type": "tuple"
                    },
                    {
                      "components": [
                        {
                          "components": [
                            {
                              "components": [
                                {
                                  "internalType": "bytes",
                                  "name": "val",
                                  "type": "bytes"
                                },
                                {
                                  "internalType": "bool",
                                  "name": "neg",
                                  "type": "bool"
                                },
                                {
                                  "internalType": "uint256",
                                  "name": "bitlen",
                                  "type": "uint256"
                                }
                              ],
                              "internalType": "struct BigNumber",
                              "name": "value",
                              "type": "tuple"
                            }
                          ],
                          "internalType": "struct Zp",
                          "name": "a",
                          "type": "tuple"
                        },
                        {
                          "components": [
                            {
                              "components": [
                                {
                                  "internalType": "bytes",
                                  "name": "val",
                                  "type": "bytes"
                                },
                                {
                                  "internalType": "bool",
                                  "name": "neg",
                                  "type": "bool"
                                },
                                {
                                  "internalType": "uint256",
                                  "name": "bitlen",
                                  "type": "uint256"
                                }
                              ],
                              "internalType": "struct BigNumber",
                              "name": "value",
                              "type": "tuple"
                            }
                          ],
                          "internalType": "struct Zp",
                          "name": "b",
                          "type": "tuple"
                        }
                      ],
                      "internalType": "struct Zp_2",
                      "name": "b",
                      "type": "tuple"
                    },
                    {
                      "components": [
                        {
                          "components": [
                            {
                              "components": [
                                {
                                  "internalType": "bytes",
                                  "name": "val",
                                  "type": "bytes"
                                },
                                {
                                  "internalType": "bool",
                                  "name": "neg",
                                  "type": "bool"
                                },
                                {
                                  "internalType": "uint256",
                                  "name": "bitlen",
                                  "type": "uint256"
                                }
                              ],
                              "internalType": "struct BigNumber",
                              "name": "value",
                              "type": "tuple"
                            }
                          ],
                          "internalType": "struct Zp",
                          "name": "a",
                          "type": "tuple"
                        },
                        {
                          "components": [
                            {
                              "components": [
                                {
                                  "internalType": "bytes",
                                  "name": "val",
                                  "type": "bytes"
                                },
                                {
                                  "internalType": "bool",
                                  "name": "neg",
                                  "type": "bool"
                                },
                                {
                                  "internalType": "uint256",
                                  "name": "bitlen",
                                  "type": "uint256"
                                }
                              ],
                              "internalType": "struct BigNumber",
                              "name": "value",
                              "type": "tuple"
                            }
                          ],
                          "internalType": "struct Zp",
                          "name": "b",
                          "type": "tuple"
                        }
                      ],
                      "internalType": "struct Zp_2",
                      "name": "c",
                      "type": "tuple"
                    }
                  ],
                  "internalType": "struct Zp_6",
                  "name": "b",
                  "type": "tuple"
                }
              ],
              "internalType": "struct Zp_12",
              "name": "y",
              "type": "tuple"
            }
          ],
          "internalType": "struct Point_Zp_12",
          "name": "self",
          "type": "tuple"
        },
        {
          "components": [
            {
              "internalType": "enum PointType",
              "name": "pointType",
              "type": "uint8"
            },
            {
              "components": [
                {
                  "components": [
                    {
                      "components": [
                        {
                          "components": [
                            {
                              "components": [
                                {
                                  "internalType": "bytes",
                                  "name": "val",
                                  "type": "bytes"
                                },
                                {
                                  "internalType": "bool",
                                  "name": "neg",
                                  "type": "bool"
                                },
                                {
                                  "internalType": "uint256",
                                  "name": "bitlen",
                                  "type": "uint256"
                                }
                              ],
                              "internalType": "struct BigNumber",
                              "name": "value",
                              "type": "tuple"
                            }
                          ],
                          "internalType": "struct Zp",
                          "name": "a",
                          "type": "tuple"
                        },
                        {
                          "components": [
                            {
                              "components": [
                                {
                                  "internalType": "bytes",
                                  "name": "val",
                                  "type": "bytes"
                                },
                                {
                                  "internalType": "bool",
                                  "name": "neg",
                                  "type": "bool"
                                },
                                {
                                  "internalType": "uint256",
                                  "name": "bitlen",
                                  "type": "uint256"
                                }
                              ],
                              "internalType": "struct BigNumber",
                              "name": "value",
                              "type": "tuple"
                            }
                          ],
                          "internalType": "struct Zp",
                          "name": "b",
                          "type": "tuple"
                        }
                      ],
                      "internalType": "struct Zp_2",
                      "name": "a",
                      "type": "tuple"
                    },
                    {
                      "components": [
                        {
                          "components": [
                            {
                              "components": [
                                {
                                  "internalType": "bytes",
                                  "name": "val",
                                  "type": "bytes"
                                },
                                {
                                  "internalType": "bool",
                                  "name": "neg",
                                  "type": "bool"
                                },
                                {
                                  "internalType": "uint256",
                                  "name": "bitlen",
                                  "type": "uint256"
                                }
                              ],
                              "internalType": "struct BigNumber",
                              "name": "value",
                              "type": "tuple"
                            }
                          ],
                          "internalType": "struct Zp",
                          "name": "a",
                          "type": "tuple"
                        },
                        {
                          "components": [
                            {
                              "components": [
                                {
                                  "internalType": "bytes",
                                  "name": "val",
                                  "type": "bytes"
                                },
                                {
                                  "internalType": "bool",
                                  "name": "neg",
                                  "type": "bool"
                                },
                                {
                                  "internalType": "uint256",
                                  "name": "bitlen",
                                  "type": "uint256"
                                }
                              ],
                              "internalType": "struct BigNumber",
                              "name": "value",
                              "type": "tuple"
                            }
                          ],
                          "internalType": "struct Zp",
                          "name": "b",
                          "type": "tuple"
                        }
                      ],
                      "internalType": "struct Zp_2",
                      "name": "b",
                      "type": "tuple"
                    },
                    {
                      "components": [
                        {
                          "components": [
                            {
                              "components": [
                                {
                                  "internalType": "bytes",
                                  "name": "val",
                                  "type": "bytes"
                                },
                                {
                                  "internalType": "bool",
                                  "name": "neg",
                                  "type": "bool"
                                },
                                {
                                  "internalType": "uint256",
                                  "name": "bitlen",
                                  "type": "uint256"
                                }
                              ],
                              "internalType": "struct BigNumber",
                              "name": "value",
                              "type": "tuple"
                            }
                          ],
                          "internalType": "struct Zp",
                          "name": "a",
                          "type": "tuple"
                        },
                        {
                          "components": [
                            {
                              "components": [
                                {
                                  "internalType": "bytes",
                                  "name": "val",
                                  "type": "bytes"
                                },
                                {
                                  "internalType": "bool",
                                  "name": "neg",
                                  "type": "bool"
                                },
                                {
                                  "internalType": "uint256",
                                  "name": "bitlen",
                                  "type": "uint256"
                                }
                              ],
                              "internalType": "struct BigNumber",
                              "name": "value",
                              "type": "tuple"
                            }
                          ],
                          "internalType": "struct Zp",
                          "name": "b",
                          "type": "tuple"
                        }
                      ],
                      "internalType": "struct Zp_2",
                      "name": "c",
                      "type": "tuple"
                    }
                  ],
                  "internalType": "struct Zp_6",
                  "name": "a",
                  "type": "tuple"
                },
                {
                  "components": [
                    {
                      "components": [
                        {
                          "components": [
                            {
                              "components": [
                                {
                                  "internalType": "bytes",
                                  "name": "val",
                                  "type": "bytes"
                                },
                                {
                                  "internalType": "bool",
                                  "name": "neg",
                                  "type": "bool"
                                },
                                {
                                  "internalType": "uint256",
                                  "name": "bitlen",
                                  "type": "uint256"
                                }
                              ],
                              "internalType": "struct BigNumber",
                              "name": "value",
                              "type": "tuple"
                            }
                          ],
                          "internalType": "struct Zp",
                          "name": "a",
                          "type": "tuple"
                        },
                        {
                          "components": [
                            {
                              "components": [
                                {
                                  "internalType": "bytes",
                                  "name": "val",
                                  "type": "bytes"
                                },
                                {
                                  "internalType": "bool",
                                  "name": "neg",
                                  "type": "bool"
                                },
                                {
                                  "internalType": "uint256",
                                  "name": "bitlen",
                                  "type": "uint256"
                                }
                              ],
                              "internalType": "struct BigNumber",
                              "name": "value",
                              "type": "tuple"
                            }
                          ],
                          "internalType": "struct Zp",
                          "name": "b",
                          "type": "tuple"
                        }
                      ],
                      "internalType": "struct Zp_2",
                      "name": "a",
                      "type": "tuple"
                    },
                    {
                      "components": [
                        {
                          "components": [
                            {
                              "components": [
                                {
                                  "internalType": "bytes",
                                  "name": "val",
                                  "type": "bytes"
                                },
                                {
                                  "internalType": "bool",
                                  "name": "neg",
                                  "type": "bool"
                                },
                                {
                                  "internalType": "uint256",
                                  "name": "bitlen",
                                  "type": "uint256"
                                }
                              ],
                              "internalType": "struct BigNumber",
                              "name": "value",
                              "type": "tuple"
                            }
                          ],
                          "internalType": "struct Zp",
                          "name": "a",
                          "type": "tuple"
                        },
                        {
                          "components": [
                            {
                              "components": [
                                {
                                  "internalType": "bytes",
                                  "name": "val",
                                  "type": "bytes"
                                },
                                {
                                  "internalType": "bool",
                                  "name": "neg",
                                  "type": "bool"
                                },
                                {
                                  "internalType": "uint256",
                                  "name": "bitlen",
                                  "type": "uint256"
                                }
                              ],
                              "internalType": "struct BigNumber",
                              "name": "value",
                              "type": "tuple"
                            }
                          ],
                          "internalType": "struct Zp",
                          "name": "b",
                          "type": "tuple"
                        }
                      ],
                      "internalType": "struct Zp_2",
                      "name": "b",
                      "type": "tuple"
                    },
                    {
                      "components": [
                        {
                          "components": [
                            {
                              "components": [
                                {
                                  "internalType": "bytes",
                                  "name": "val",
                                  "type": "bytes"
                                },
                                {
                                  "internalType": "bool",
                                  "name": "neg",
                                  "type": "bool"
                                },
                                {
                                  "internalType": "uint256",
                                  "name": "bitlen",
                                  "type": "uint256"
                                }
                              ],
                              "internalType": "struct BigNumber",
                              "name": "value",
                              "type": "tuple"
                            }
                          ],
                          "internalType": "struct Zp",
                          "name": "a",
                          "type": "tuple"
                        },
                        {
                          "components": [
                            {
                              "components": [
                                {
                                  "internalType": "bytes",
                                  "name": "val",
                                  "type": "bytes"
                                },
                                {
                                  "internalType": "bool",
                                  "name": "neg",
                                  "type": "bool"
                                },
                                {
                                  "internalType": "uint256",
                                  "name": "bitlen",
                                  "type": "uint256"
                                }
                              ],
                              "internalType": "struct BigNumber",
                              "name": "value",
                              "type": "tuple"
                            }
                          ],
                          "internalType": "struct Zp",
                          "name": "b",
                          "type": "tuple"
                        }
                      ],
                      "internalType": "struct Zp_2",
                      "name": "c",
                      "type": "tuple"
                    }
                  ],
                  "internalType": "struct Zp_6",
                  "name": "b",
                  "type": "tuple"
                }
              ],
              "internalType": "struct Zp_12",
              "name": "x",
              "type": "tuple"
            },
            {
              "components": [
                {
                  "components": [
                    {
                      "components": [
                        {
                          "components": [
                            {
                              "components": [
                                {
                                  "internalType": "bytes",
                                  "name": "val",
                                  "type": "bytes"
                                },
                                {
                                  "internalType": "bool",
                                  "name": "neg",
                                  "type": "bool"
                                },
                                {
                                  "internalType": "uint256",
                                  "name": "bitlen",
                                  "type": "uint256"
                                }
                              ],
                              "internalType": "struct BigNumber",
                              "name": "value",
                              "type": "tuple"
                            }
                          ],
                          "internalType": "struct Zp",
                          "name": "a",
                          "type": "tuple"
                        },
                        {
                          "components": [
                            {
                              "components": [
                                {
                                  "internalType": "bytes",
                                  "name": "val",
                                  "type": "bytes"
                                },
                                {
                                  "internalType": "bool",
                                  "name": "neg",
                                  "type": "bool"
                                },
                                {
                                  "internalType": "uint256",
                                  "name": "bitlen",
                                  "type": "uint256"
                                }
                              ],
                              "internalType": "struct BigNumber",
                              "name": "value",
                              "type": "tuple"
                            }
                          ],
                          "internalType": "struct Zp",
                          "name": "b",
                          "type": "tuple"
                        }
                      ],
                      "internalType": "struct Zp_2",
                      "name": "a",
                      "type": "tuple"
                    },
                    {
                      "components": [
                        {
                          "components": [
                            {
                              "components": [
                                {
                                  "internalType": "bytes",
                                  "name": "val",
                                  "type": "bytes"
                                },
                                {
                                  "internalType": "bool",
                                  "name": "neg",
                                  "type": "bool"
                                },
                                {
                                  "internalType": "uint256",
                                  "name": "bitlen",
                                  "type": "uint256"
                                }
                              ],
                              "internalType": "struct BigNumber",
                              "name": "value",
                              "type": "tuple"
                            }
                          ],
                          "internalType": "struct Zp",
                          "name": "a",
                          "type": "tuple"
                        },
                        {
                          "components": [
                            {
                              "components": [
                                {
                                  "internalType": "bytes",
                                  "name": "val",
                                  "type": "bytes"
                                },
                                {
                                  "internalType": "bool",
                                  "name": "neg",
                                  "type": "bool"
                                },
                                {
                                  "internalType": "uint256",
                                  "name": "bitlen",
                                  "type": "uint256"
                                }
                              ],
                              "internalType": "struct BigNumber",
                              "name": "value",
                              "type": "tuple"
                            }
                          ],
                          "internalType": "struct Zp",
                          "name": "b",
                          "type": "tuple"
                        }
                      ],
                      "internalType": "struct Zp_2",
                      "name": "b",
                      "type": "tuple"
                    },
                    {
                      "components": [
                        {
                          "components": [
                            {
                              "components": [
                                {
                                  "internalType": "bytes",
                                  "name": "val",
                                  "type": "bytes"
                                },
                                {
                                  "internalType": "bool",
                                  "name": "neg",
                                  "type": "bool"
                                },
                                {
                                  "internalType": "uint256",
                                  "name": "bitlen",
                                  "type": "uint256"
                                }
                              ],
                              "internalType": "struct BigNumber",
                              "name": "value",
                              "type": "tuple"
                            }
                          ],
                          "internalType": "struct Zp",
                          "name": "a",
                          "type": "tuple"
                        },
                        {
                          "components": [
                            {
                              "components": [
                                {
                                  "internalType": "bytes",
                                  "name": "val",
                                  "type": "bytes"
                                },
                                {
                                  "internalType": "bool",
                                  "name": "neg",
                                  "type": "bool"
                                },
                                {
                                  "internalType": "uint256",
                                  "name": "bitlen",
                                  "type": "uint256"
                                }
                              ],
                              "internalType": "struct BigNumber",
                              "name": "value",
                              "type": "tuple"
                            }
                          ],
                          "internalType": "struct Zp",
                          "name": "b",
                          "type": "tuple"
                        }
                      ],
                      "internalType": "struct Zp_2",
                      "name": "c",
                      "type": "tuple"
                    }
                  ],
                  "internalType": "struct Zp_6",
                  "name": "a",
                  "type": "tuple"
                },
                {
                  "components": [
                    {
                      "components": [
                        {
                          "components": [
                            {
                              "components": [
                                {
                                  "internalType": "bytes",
                                  "name": "val",
                                  "type": "bytes"
                                },
                                {
                                  "internalType": "bool",
                                  "name": "neg",
                                  "type": "bool"
                                },
                                {
                                  "internalType": "uint256",
                                  "name": "bitlen",
                                  "type": "uint256"
                                }
                              ],
                              "internalType": "struct BigNumber",
                              "name": "value",
                              "type": "tuple"
                            }
                          ],
                          "internalType": "struct Zp",
                          "name": "a",
                          "type": "tuple"
                        },
                        {
                          "components": [
                            {
                              "components": [
                                {
                                  "internalType": "bytes",
                                  "name": "val",
                                  "type": "bytes"
                                },
                                {
                                  "internalType": "bool",
                                  "name": "neg",
                                  "type": "bool"
                                },
                                {
                                  "internalType": "uint256",
                                  "name": "bitlen",
                                  "type": "uint256"
                                }
                              ],
                              "internalType": "struct BigNumber",
                              "name": "value",
                              "type": "tuple"
                            }
                          ],
                          "internalType": "struct Zp",
                          "name": "b",
                          "type": "tuple"
                        }
                      ],
                      "internalType": "struct Zp_2",
                      "name": "a",
                      "type": "tuple"
                    },
                    {
                      "components": [
                        {
                          "components": [
                            {
                              "components": [
                                {
                                  "internalType": "bytes",
                                  "name": "val",
                                  "type": "bytes"
                                },
                                {
                                  "internalType": "bool",
                                  "name": "neg",
                                  "type": "bool"
                                },
                                {
                                  "internalType": "uint256",
                                  "name": "bitlen",
                                  "type": "uint256"
                                }
                              ],
                              "internalType": "struct BigNumber",
                              "name": "value",
                              "type": "tuple"
                            }
                          ],
                          "internalType": "struct Zp",
                          "name": "a",
                          "type": "tuple"
                        },
                        {
                          "components": [
                            {
                              "components": [
                                {
                                  "internalType": "bytes",
                                  "name": "val",
                                  "type": "bytes"
                                },
                                {
                                  "internalType": "bool",
                                  "name": "neg",
                                  "type": "bool"
                                },
                                {
                                  "internalType": "uint256",
                                  "name": "bitlen",
                                  "type": "uint256"
                                }
                              ],
                              "internalType": "struct BigNumber",
                              "name": "value",
                              "type": "tuple"
                            }
                          ],
                          "internalType": "struct Zp",
                          "name": "b",
                          "type": "tuple"
                        }
                      ],
                      "internalType": "struct Zp_2",
                      "name": "b",
                      "type": "tuple"
                    },
                    {
                      "components": [
                        {
                          "components": [
                            {
                              "components": [
                                {
                                  "internalType": "bytes",
                                  "name": "val",
                                  "type": "bytes"
                                },
                                {
                                  "internalType": "bool",
                                  "name": "neg",
                                  "type": "bool"
                                },
                                {
                                  "internalType": "uint256",
                                  "name": "bitlen",
                                  "type": "uint256"
                                }
                              ],
                              "internalType": "struct BigNumber",
                              "name": "value",
                              "type": "tuple"
                            }
                          ],
                          "internalType": "struct Zp",
                          "name": "a",
                          "type": "tuple"
                        },
                        {
                          "components": [
                            {
                              "components": [
                                {
                                  "internalType": "bytes",
                                  "name": "val",
                                  "type": "bytes"
                                },
                                {
                                  "internalType": "bool",
                                  "name": "neg",
                                  "type": "bool"
                                },
                                {
                                  "internalType": "uint256",
                                  "name": "bitlen",
                                  "type": "uint256"
                                }
                              ],
                              "internalType": "struct BigNumber",
                              "name": "value",
                              "type": "tuple"
                            }
                          ],
                          "internalType": "struct Zp",
                          "name": "b",
                          "type": "tuple"
                        }
                      ],
                      "internalType": "struct Zp_2",
                      "name": "c",
                      "type": "tuple"
                    }
                  ],
                  "internalType": "struct Zp_6",
                  "name": "b",
                  "type": "tuple"
                }
              ],
              "internalType": "struct Zp_12",
              "name": "y",
              "type": "tuple"
            }
          ],
          "internalType": "struct Point_Zp_12",
          "name": "other",
          "type": "tuple"
        }
      ],
      "name": "add",
      "outputs": [
        {
          "components": [
            {
              "internalType": "enum PointType",
              "name": "pointType",
              "type": "uint8"
            },
            {
              "components": [
                {
                  "components": [
                    {
                      "components": [
                        {
                          "components": [
                            {
                              "components": [
                                {
                                  "internalType": "bytes",
                                  "name": "val",
                                  "type": "bytes"
                                },
                                {
                                  "internalType": "bool",
                                  "name": "neg",
                                  "type": "bool"
                                },
                                {
                                  "internalType": "uint256",
                                  "name": "bitlen",
                                  "type": "uint256"
                                }
                              ],
                              "internalType": "struct BigNumber",
                              "name": "value",
                              "type": "tuple"
                            }
                          ],
                          "internalType": "struct Zp",
                          "name": "a",
                          "type": "tuple"
                        },
                        {
                          "components": [
                            {
                              "components": [
                                {
                                  "internalType": "bytes",
                                  "name": "val",
                                  "type": "bytes"
                                },
                                {
                                  "internalType": "bool",
                                  "name": "neg",
                                  "type": "bool"
                                },
                                {
                                  "internalType": "uint256",
                                  "name": "bitlen",
                                  "type": "uint256"
                                }
                              ],
                              "internalType": "struct BigNumber",
                              "name": "value",
                              "type": "tuple"
                            }
                          ],
                          "internalType": "struct Zp",
                          "name": "b",
                          "type": "tuple"
                        }
                      ],
                      "internalType": "struct Zp_2",
                      "name": "a",
                      "type": "tuple"
                    },
                    {
                      "components": [
                        {
                          "components": [
                            {
                              "components": [
                                {
                                  "internalType": "bytes",
                                  "name": "val",
                                  "type": "bytes"
                                },
                                {
                                  "internalType": "bool",
                                  "name": "neg",
                                  "type": "bool"
                                },
                                {
                                  "internalType": "uint256",
                                  "name": "bitlen",
                                  "type": "uint256"
                                }
                              ],
                              "internalType": "struct BigNumber",
                              "name": "value",
                              "type": "tuple"
                            }
                          ],
                          "internalType": "struct Zp",
                          "name": "a",
                          "type": "tuple"
                        },
                        {
                          "components": [
                            {
                              "components": [
                                {
                                  "internalType": "bytes",
                                  "name": "val",
                                  "type": "bytes"
                                },
                                {
                                  "internalType": "bool",
                                  "name": "neg",
                                  "type": "bool"
                                },
                                {
                                  "internalType": "uint256",
                                  "name": "bitlen",
                                  "type": "uint256"
                                }
                              ],
                              "internalType": "struct BigNumber",
                              "name": "value",
                              "type": "tuple"
                            }
                          ],
                          "internalType": "struct Zp",
                          "name": "b",
                          "type": "tuple"
                        }
                      ],
                      "internalType": "struct Zp_2",
                      "name": "b",
                      "type": "tuple"
                    },
                    {
                      "components": [
                        {
                          "components": [
                            {
                              "components": [
                                {
                                  "internalType": "bytes",
                                  "name": "val",
                                  "type": "bytes"
                                },
                                {
                                  "internalType": "bool",
                                  "name": "neg",
                                  "type": "bool"
                                },
                                {
                                  "internalType": "uint256",
                                  "name": "bitlen",
                                  "type": "uint256"
                                }
                              ],
                              "internalType": "struct BigNumber",
                              "name": "value",
                              "type": "tuple"
                            }
                          ],
                          "internalType": "struct Zp",
                          "name": "a",
                          "type": "tuple"
                        },
                        {
                          "components": [
                            {
                              "components": [
                                {
                                  "internalType": "bytes",
                                  "name": "val",
                                  "type": "bytes"
                                },
                                {
                                  "internalType": "bool",
                                  "name": "neg",
                                  "type": "bool"
                                },
                                {
                                  "internalType": "uint256",
                                  "name": "bitlen",
                                  "type": "uint256"
                                }
                              ],
                              "internalType": "struct BigNumber",
                              "name": "value",
                              "type": "tuple"
                            }
                          ],
                          "internalType": "struct Zp",
                          "name": "b",
                          "type": "tuple"
                        }
                      ],
                      "internalType": "struct Zp_2",
                      "name": "c",
                      "type": "tuple"
                    }
                  ],
                  "internalType": "struct Zp_6",
                  "name": "a",
                  "type": "tuple"
                },
                {
                  "components": [
                    {
                      "components": [
                        {
                          "components": [
                            {
                              "components": [
                                {
                                  "internalType": "bytes",
                                  "name": "val",
                                  "type": "bytes"
                                },
                                {
                                  "internalType": "bool",
                                  "name": "neg",
                                  "type": "bool"
                                },
                                {
                                  "internalType": "uint256",
                                  "name": "bitlen",
                                  "type": "uint256"
                                }
                              ],
                              "internalType": "struct BigNumber",
                              "name": "value",
                              "type": "tuple"
                            }
                          ],
                          "internalType": "struct Zp",
                          "name": "a",
                          "type": "tuple"
                        },
                        {
                          "components": [
                            {
                              "components": [
                                {
                                  "internalType": "bytes",
                                  "name": "val",
                                  "type": "bytes"
                                },
                                {
                                  "internalType": "bool",
                                  "name": "neg",
                                  "type": "bool"
                                },
                                {
                                  "internalType": "uint256",
                                  "name": "bitlen",
                                  "type": "uint256"
                                }
                              ],
                              "internalType": "struct BigNumber",
                              "name": "value",
                              "type": "tuple"
                            }
                          ],
                          "internalType": "struct Zp",
                          "name": "b",
                          "type": "tuple"
                        }
                      ],
                      "internalType": "struct Zp_2",
                      "name": "a",
                      "type": "tuple"
                    },
                    {
                      "components": [
                        {
                          "components": [
                            {
                              "components": [
                                {
                                  "internalType": "bytes",
                                  "name": "val",
                                  "type": "bytes"
                                },
                                {
                                  "internalType": "bool",
                                  "name": "neg",
                                  "type": "bool"
                                },
                                {
                                  "internalType": "uint256",
                                  "name": "bitlen",
                                  "type": "uint256"
                                }
                              ],
                              "internalType": "struct BigNumber",
                              "name": "value",
                              "type": "tuple"
                            }
                          ],
                          "internalType": "struct Zp",
                          "name": "a",
                          "type": "tuple"
                        },
                        {
                          "components": [
                            {
                              "components": [
                                {
                                  "internalType": "bytes",
                                  "name": "val",
                                  "type": "bytes"
                                },
                                {
                                  "internalType": "bool",
                                  "name": "neg",
                                  "type": "bool"
                                },
                                {
                                  "internalType": "uint256",
                                  "name": "bitlen",
                                  "type": "uint256"
                                }
                              ],
                              "internalType": "struct BigNumber",
                              "name": "value",
                              "type": "tuple"
                            }
                          ],
                          "internalType": "struct Zp",
                          "name": "b",
                          "type": "tuple"
                        }
                      ],
                      "internalType": "struct Zp_2",
                      "name": "b",
                      "type": "tuple"
                    },
                    {
                      "components": [
                        {
                          "components": [
                            {
                              "components": [
                                {
                                  "internalType": "bytes",
                                  "name": "val",
                                  "type": "bytes"
                                },
                                {
                                  "internalType": "bool",
                                  "name": "neg",
                                  "type": "bool"
                                },
                                {
                                  "internalType": "uint256",
                                  "name": "bitlen",
                                  "type": "uint256"
                                }
                              ],
                              "internalType": "struct BigNumber",
                              "name": "value",
                              "type": "tuple"
                            }
                          ],
                          "internalType": "struct Zp",
                          "name": "a",
                          "type": "tuple"
                        },
                        {
                          "components": [
                            {
                              "components": [
                                {
                                  "internalType": "bytes",
                                  "name": "val",
                                  "type": "bytes"
                                },
                                {
                                  "internalType": "bool",
                                  "name": "neg",
                                  "type": "bool"
                                },
                                {
                                  "internalType": "uint256",
                                  "name": "bitlen",
                                  "type": "uint256"
                                }
                              ],
                              "internalType": "struct BigNumber",
                              "name": "value",
                              "type": "tuple"
                            }
                          ],
                          "internalType": "struct Zp",
                          "name": "b",
                          "type": "tuple"
                        }
                      ],
                      "internalType": "struct Zp_2",
                      "name": "c",
                      "type": "tuple"
                    }
                  ],
                  "internalType": "struct Zp_6",
                  "name": "b",
                  "type": "tuple"
                }
              ],
              "internalType": "struct Zp_12",
              "name": "x",
              "type": "tuple"
            },
            {
              "components": [
                {
                  "components": [
                    {
                      "components": [
                        {
                          "components": [
                            {
                              "components": [
                                {
                                  "internalType": "bytes",
                                  "name": "val",
                                  "type": "bytes"
                                },
                                {
                                  "internalType": "bool",
                                  "name": "neg",
                                  "type": "bool"
                                },
                                {
                                  "internalType": "uint256",
                                  "name": "bitlen",
                                  "type": "uint256"
                                }
                              ],
                              "internalType": "struct BigNumber",
                              "name": "value",
                              "type": "tuple"
                            }
                          ],
                          "internalType": "struct Zp",
                          "name": "a",
                          "type": "tuple"
                        },
                        {
                          "components": [
                            {
                              "components": [
                                {
                                  "internalType": "bytes",
                                  "name": "val",
                                  "type": "bytes"
                                },
                                {
                                  "internalType": "bool",
                                  "name": "neg",
                                  "type": "bool"
                                },
                                {
                                  "internalType": "uint256",
                                  "name": "bitlen",
                                  "type": "uint256"
                                }
                              ],
                              "internalType": "struct BigNumber",
                              "name": "value",
                              "type": "tuple"
                            }
                          ],
                          "internalType": "struct Zp",
                          "name": "b",
                          "type": "tuple"
                        }
                      ],
                      "internalType": "struct Zp_2",
                      "name": "a",
                      "type": "tuple"
                    },
                    {
                      "components": [
                        {
                          "components": [
                            {
                              "components": [
                                {
                                  "internalType": "bytes",
                                  "name": "val",
                                  "type": "bytes"
                                },
                                {
                                  "internalType": "bool",
                                  "name": "neg",
                                  "type": "bool"
                                },
                                {
                                  "internalType": "uint256",
                                  "name": "bitlen",
                                  "type": "uint256"
                                }
                              ],
                              "internalType": "struct BigNumber",
                              "name": "value",
                              "type": "tuple"
                            }
                          ],
                          "internalType": "struct Zp",
                          "name": "a",
                          "type": "tuple"
                        },
                        {
                          "components": [
                            {
                              "components": [
                                {
                                  "internalType": "bytes",
                                  "name": "val",
                                  "type": "bytes"
                                },
                                {
                                  "internalType": "bool",
                                  "name": "neg",
                                  "type": "bool"
                                },
                                {
                                  "internalType": "uint256",
                                  "name": "bitlen",
                                  "type": "uint256"
                                }
                              ],
                              "internalType": "struct BigNumber",
                              "name": "value",
                              "type": "tuple"
                            }
                          ],
                          "internalType": "struct Zp",
                          "name": "b",
                          "type": "tuple"
                        }
                      ],
                      "internalType": "struct Zp_2",
                      "name": "b",
                      "type": "tuple"
                    },
                    {
                      "components": [
                        {
                          "components": [
                            {
                              "components": [
                                {
                                  "internalType": "bytes",
                                  "name": "val",
                                  "type": "bytes"
                                },
                                {
                                  "internalType": "bool",
                                  "name": "neg",
                                  "type": "bool"
                                },
                                {
                                  "internalType": "uint256",
                                  "name": "bitlen",
                                  "type": "uint256"
                                }
                              ],
                              "internalType": "struct BigNumber",
                              "name": "value",
                              "type": "tuple"
                            }
                          ],
                          "internalType": "struct Zp",
                          "name": "a",
                          "type": "tuple"
                        },
                        {
                          "components": [
                            {
                              "components": [
                                {
                                  "internalType": "bytes",
                                  "name": "val",
                                  "type": "bytes"
                                },
                                {
                                  "internalType": "bool",
                                  "name": "neg",
                                  "type": "bool"
                                },
                                {
                                  "internalType": "uint256",
                                  "name": "bitlen",
                                  "type": "uint256"
                                }
                              ],
                              "internalType": "struct BigNumber",
                              "name": "value",
                              "type": "tuple"
                            }
                          ],
                          "internalType": "struct Zp",
                          "name": "b",
                          "type": "tuple"
                        }
                      ],
                      "internalType": "struct Zp_2",
                      "name": "c",
                      "type": "tuple"
                    }
                  ],
                  "internalType": "struct Zp_6",
                  "name": "a",
                  "type": "tuple"
                },
                {
                  "components": [
                    {
                      "components": [
                        {
                          "components": [
                            {
                              "components": [
                                {
                                  "internalType": "bytes",
                                  "name": "val",
                                  "type": "bytes"
                                },
                                {
                                  "internalType": "bool",
                                  "name": "neg",
                                  "type": "bool"
                                },
                                {
                                  "internalType": "uint256",
                                  "name": "bitlen",
                                  "type": "uint256"
                                }
                              ],
                              "internalType": "struct BigNumber",
                              "name": "value",
                              "type": "tuple"
                            }
                          ],
                          "internalType": "struct Zp",
                          "name": "a",
                          "type": "tuple"
                        },
                        {
                          "components": [
                            {
                              "components": [
                                {
                                  "internalType": "bytes",
                                  "name": "val",
                                  "type": "bytes"
                                },
                                {
                                  "internalType": "bool",
                                  "name": "neg",
                                  "type": "bool"
                                },
                                {
                                  "internalType": "uint256",
                                  "name": "bitlen",
                                  "type": "uint256"
                                }
                              ],
                              "internalType": "struct BigNumber",
                              "name": "value",
                              "type": "tuple"
                            }
                          ],
                          "internalType": "struct Zp",
                          "name": "b",
                          "type": "tuple"
                        }
                      ],
                      "internalType": "struct Zp_2",
                      "name": "a",
                      "type": "tuple"
                    },
                    {
                      "components": [
                        {
                          "components": [
                            {
                              "components": [
                                {
                                  "internalType": "bytes",
                                  "name": "val",
                                  "type": "bytes"
                                },
                                {
                                  "internalType": "bool",
                                  "name": "neg",
                                  "type": "bool"
                                },
                                {
                                  "internalType": "uint256",
                                  "name": "bitlen",
                                  "type": "uint256"
                                }
                              ],
                              "internalType": "struct BigNumber",
                              "name": "value",
                              "type": "tuple"
                            }
                          ],
                          "internalType": "struct Zp",
                          "name": "a",
                          "type": "tuple"
                        },
                        {
                          "components": [
                            {
                              "components": [
                                {
                                  "internalType": "bytes",
                                  "name": "val",
                                  "type": "bytes"
                                },
                                {
                                  "internalType": "bool",
                                  "name": "neg",
                                  "type": "bool"
                                },
                                {
                                  "internalType": "uint256",
                                  "name": "bitlen",
                                  "type": "uint256"
                                }
                              ],
                              "internalType": "struct BigNumber",
                              "name": "value",
                              "type": "tuple"
                            }
                          ],
                          "internalType": "struct Zp",
                          "name": "b",
                          "type": "tuple"
                        }
                      ],
                      "internalType": "struct Zp_2",
                      "name": "b",
                      "type": "tuple"
                    },
                    {
                      "components": [
                        {
                          "components": [
                            {
                              "components": [
                                {
                                  "internalType": "bytes",
                                  "name": "val",
                                  "type": "bytes"
                                },
                                {
                                  "internalType": "bool",
                                  "name": "neg",
                                  "type": "bool"
                                },
                                {
                                  "internalType": "uint256",
                                  "name": "bitlen",
                                  "type": "uint256"
                                }
                              ],
                              "internalType": "struct BigNumber",
                              "name": "value",
                              "type": "tuple"
                            }
                          ],
                          "internalType": "struct Zp",
                          "name": "a",
                          "type": "tuple"
                        },
                        {
                          "components": [
                            {
                              "components": [
                                {
                                  "internalType": "bytes",
                                  "name": "val",
                                  "type": "bytes"
                                },
                                {
                                  "internalType": "bool",
                                  "name": "neg",
                                  "type": "bool"
                                },
                                {
                                  "internalType": "uint256",
                                  "name": "bitlen",
                                  "type": "uint256"
                                }
                              ],
                              "internalType": "struct BigNumber",
                              "name": "value",
                              "type": "tuple"
                            }
                          ],
                          "internalType": "struct Zp",
                          "name": "b",
                          "type": "tuple"
                        }
                      ],
                      "internalType": "struct Zp_2",
                      "name": "c",
                      "type": "tuple"
                    }
                  ],
                  "internalType": "struct Zp_6",
                  "name": "b",
                  "type": "tuple"
                }
              ],
              "internalType": "struct Zp_12",
              "name": "y",
              "type": "tuple"
            }
          ],
          "internalType": "struct Point_Zp_12",
          "name": "",
          "type": "tuple"
        }
      ],
      "stateMutability": "view",
      "type": "function"
    },
    {
      "inputs": [
        {
          "components": [
            {
              "internalType": "enum PointType",
              "name": "pointType",
              "type": "uint8"
            },
            {
              "components": [
                {
                  "components": [
                    {
                      "components": [
                        {
                          "components": [
                            {
                              "components": [
                                {
                                  "internalType": "bytes",
                                  "name": "val",
                                  "type": "bytes"
                                },
                                {
                                  "internalType": "bool",
                                  "name": "neg",
                                  "type": "bool"
                                },
                                {
                                  "internalType": "uint256",
                                  "name": "bitlen",
                                  "type": "uint256"
                                }
                              ],
                              "internalType": "struct BigNumber",
                              "name": "value",
                              "type": "tuple"
                            }
                          ],
                          "internalType": "struct Zp",
                          "name": "a",
                          "type": "tuple"
                        },
                        {
                          "components": [
                            {
                              "components": [
                                {
                                  "internalType": "bytes",
                                  "name": "val",
                                  "type": "bytes"
                                },
                                {
                                  "internalType": "bool",
                                  "name": "neg",
                                  "type": "bool"
                                },
                                {
                                  "internalType": "uint256",
                                  "name": "bitlen",
                                  "type": "uint256"
                                }
                              ],
                              "internalType": "struct BigNumber",
                              "name": "value",
                              "type": "tuple"
                            }
                          ],
                          "internalType": "struct Zp",
                          "name": "b",
                          "type": "tuple"
                        }
                      ],
                      "internalType": "struct Zp_2",
                      "name": "a",
                      "type": "tuple"
                    },
                    {
                      "components": [
                        {
                          "components": [
                            {
                              "components": [
                                {
                                  "internalType": "bytes",
                                  "name": "val",
                                  "type": "bytes"
                                },
                                {
                                  "internalType": "bool",
                                  "name": "neg",
                                  "type": "bool"
                                },
                                {
                                  "internalType": "uint256",
                                  "name": "bitlen",
                                  "type": "uint256"
                                }
                              ],
                              "internalType": "struct BigNumber",
                              "name": "value",
                              "type": "tuple"
                            }
                          ],
                          "internalType": "struct Zp",
                          "name": "a",
                          "type": "tuple"
                        },
                        {
                          "components": [
                            {
                              "components": [
                                {
                                  "internalType": "bytes",
                                  "name": "val",
                                  "type": "bytes"
                                },
                                {
                                  "internalType": "bool",
                                  "name": "neg",
                                  "type": "bool"
                                },
                                {
                                  "internalType": "uint256",
                                  "name": "bitlen",
                                  "type": "uint256"
                                }
                              ],
                              "internalType": "struct BigNumber",
                              "name": "value",
                              "type": "tuple"
                            }
                          ],
                          "internalType": "struct Zp",
                          "name": "b",
                          "type": "tuple"
                        }
                      ],
                      "internalType": "struct Zp_2",
                      "name": "b",
                      "type": "tuple"
                    },
                    {
                      "components": [
                        {
                          "components": [
                            {
                              "components": [
                                {
                                  "internalType": "bytes",
                                  "name": "val",
                                  "type": "bytes"
                                },
                                {
                                  "internalType": "bool",
                                  "name": "neg",
                                  "type": "bool"
                                },
                                {
                                  "internalType": "uint256",
                                  "name": "bitlen",
                                  "type": "uint256"
                                }
                              ],
                              "internalType": "struct BigNumber",
                              "name": "value",
                              "type": "tuple"
                            }
                          ],
                          "internalType": "struct Zp",
                          "name": "a",
                          "type": "tuple"
                        },
                        {
                          "components": [
                            {
                              "components": [
                                {
                                  "internalType": "bytes",
                                  "name": "val",
                                  "type": "bytes"
                                },
                                {
                                  "internalType": "bool",
                                  "name": "neg",
                                  "type": "bool"
                                },
                                {
                                  "internalType": "uint256",
                                  "name": "bitlen",
                                  "type": "uint256"
                                }
                              ],
                              "internalType": "struct BigNumber",
                              "name": "value",
                              "type": "tuple"
                            }
                          ],
                          "internalType": "struct Zp",
                          "name": "b",
                          "type": "tuple"
                        }
                      ],
                      "internalType": "struct Zp_2",
                      "name": "c",
                      "type": "tuple"
                    }
                  ],
                  "internalType": "struct Zp_6",
                  "name": "a",
                  "type": "tuple"
                },
                {
                  "components": [
                    {
                      "components": [
                        {
                          "components": [
                            {
                              "components": [
                                {
                                  "internalType": "bytes",
                                  "name": "val",
                                  "type": "bytes"
                                },
                                {
                                  "internalType": "bool",
                                  "name": "neg",
                                  "type": "bool"
                                },
                                {
                                  "internalType": "uint256",
                                  "name": "bitlen",
                                  "type": "uint256"
                                }
                              ],
                              "internalType": "struct BigNumber",
                              "name": "value",
                              "type": "tuple"
                            }
                          ],
                          "internalType": "struct Zp",
                          "name": "a",
                          "type": "tuple"
                        },
                        {
                          "components": [
                            {
                              "components": [
                                {
                                  "internalType": "bytes",
                                  "name": "val",
                                  "type": "bytes"
                                },
                                {
                                  "internalType": "bool",
                                  "name": "neg",
                                  "type": "bool"
                                },
                                {
                                  "internalType": "uint256",
                                  "name": "bitlen",
                                  "type": "uint256"
                                }
                              ],
                              "internalType": "struct BigNumber",
                              "name": "value",
                              "type": "tuple"
                            }
                          ],
                          "internalType": "struct Zp",
                          "name": "b",
                          "type": "tuple"
                        }
                      ],
                      "internalType": "struct Zp_2",
                      "name": "a",
                      "type": "tuple"
                    },
                    {
                      "components": [
                        {
                          "components": [
                            {
                              "components": [
                                {
                                  "internalType": "bytes",
                                  "name": "val",
                                  "type": "bytes"
                                },
                                {
                                  "internalType": "bool",
                                  "name": "neg",
                                  "type": "bool"
                                },
                                {
                                  "internalType": "uint256",
                                  "name": "bitlen",
                                  "type": "uint256"
                                }
                              ],
                              "internalType": "struct BigNumber",
                              "name": "value",
                              "type": "tuple"
                            }
                          ],
                          "internalType": "struct Zp",
                          "name": "a",
                          "type": "tuple"
                        },
                        {
                          "components": [
                            {
                              "components": [
                                {
                                  "internalType": "bytes",
                                  "name": "val",
                                  "type": "bytes"
                                },
                                {
                                  "internalType": "bool",
                                  "name": "neg",
                                  "type": "bool"
                                },
                                {
                                  "internalType": "uint256",
                                  "name": "bitlen",
                                  "type": "uint256"
                                }
                              ],
                              "internalType": "struct BigNumber",
                              "name": "value",
                              "type": "tuple"
                            }
                          ],
                          "internalType": "struct Zp",
                          "name": "b",
                          "type": "tuple"
                        }
                      ],
                      "internalType": "struct Zp_2",
                      "name": "b",
                      "type": "tuple"
                    },
                    {
                      "components": [
                        {
                          "components": [
                            {
                              "components": [
                                {
                                  "internalType": "bytes",
                                  "name": "val",
                                  "type": "bytes"
                                },
                                {
                                  "internalType": "bool",
                                  "name": "neg",
                                  "type": "bool"
                                },
                                {
                                  "internalType": "uint256",
                                  "name": "bitlen",
                                  "type": "uint256"
                                }
                              ],
                              "internalType": "struct BigNumber",
                              "name": "value",
                              "type": "tuple"
                            }
                          ],
                          "internalType": "struct Zp",
                          "name": "a",
                          "type": "tuple"
                        },
                        {
                          "components": [
                            {
                              "components": [
                                {
                                  "internalType": "bytes",
                                  "name": "val",
                                  "type": "bytes"
                                },
                                {
                                  "internalType": "bool",
                                  "name": "neg",
                                  "type": "bool"
                                },
                                {
                                  "internalType": "uint256",
                                  "name": "bitlen",
                                  "type": "uint256"
                                }
                              ],
                              "internalType": "struct BigNumber",
                              "name": "value",
                              "type": "tuple"
                            }
                          ],
                          "internalType": "struct Zp",
                          "name": "b",
                          "type": "tuple"
                        }
                      ],
                      "internalType": "struct Zp_2",
                      "name": "c",
                      "type": "tuple"
                    }
                  ],
                  "internalType": "struct Zp_6",
                  "name": "b",
                  "type": "tuple"
                }
              ],
              "internalType": "struct Zp_12",
              "name": "x",
              "type": "tuple"
            },
            {
              "components": [
                {
                  "components": [
                    {
                      "components": [
                        {
                          "components": [
                            {
                              "components": [
                                {
                                  "internalType": "bytes",
                                  "name": "val",
                                  "type": "bytes"
                                },
                                {
                                  "internalType": "bool",
                                  "name": "neg",
                                  "type": "bool"
                                },
                                {
                                  "internalType": "uint256",
                                  "name": "bitlen",
                                  "type": "uint256"
                                }
                              ],
                              "internalType": "struct BigNumber",
                              "name": "value",
                              "type": "tuple"
                            }
                          ],
                          "internalType": "struct Zp",
                          "name": "a",
                          "type": "tuple"
                        },
                        {
                          "components": [
                            {
                              "components": [
                                {
                                  "internalType": "bytes",
                                  "name": "val",
                                  "type": "bytes"
                                },
                                {
                                  "internalType": "bool",
                                  "name": "neg",
                                  "type": "bool"
                                },
                                {
                                  "internalType": "uint256",
                                  "name": "bitlen",
                                  "type": "uint256"
                                }
                              ],
                              "internalType": "struct BigNumber",
                              "name": "value",
                              "type": "tuple"
                            }
                          ],
                          "internalType": "struct Zp",
                          "name": "b",
                          "type": "tuple"
                        }
                      ],
                      "internalType": "struct Zp_2",
                      "name": "a",
                      "type": "tuple"
                    },
                    {
                      "components": [
                        {
                          "components": [
                            {
                              "components": [
                                {
                                  "internalType": "bytes",
                                  "name": "val",
                                  "type": "bytes"
                                },
                                {
                                  "internalType": "bool",
                                  "name": "neg",
                                  "type": "bool"
                                },
                                {
                                  "internalType": "uint256",
                                  "name": "bitlen",
                                  "type": "uint256"
                                }
                              ],
                              "internalType": "struct BigNumber",
                              "name": "value",
                              "type": "tuple"
                            }
                          ],
                          "internalType": "struct Zp",
                          "name": "a",
                          "type": "tuple"
                        },
                        {
                          "components": [
                            {
                              "components": [
                                {
                                  "internalType": "bytes",
                                  "name": "val",
                                  "type": "bytes"
                                },
                                {
                                  "internalType": "bool",
                                  "name": "neg",
                                  "type": "bool"
                                },
                                {
                                  "internalType": "uint256",
                                  "name": "bitlen",
                                  "type": "uint256"
                                }
                              ],
                              "internalType": "struct BigNumber",
                              "name": "value",
                              "type": "tuple"
                            }
                          ],
                          "internalType": "struct Zp",
                          "name": "b",
                          "type": "tuple"
                        }
                      ],
                      "internalType": "struct Zp_2",
                      "name": "b",
                      "type": "tuple"
                    },
                    {
                      "components": [
                        {
                          "components": [
                            {
                              "components": [
                                {
                                  "internalType": "bytes",
                                  "name": "val",
                                  "type": "bytes"
                                },
                                {
                                  "internalType": "bool",
                                  "name": "neg",
                                  "type": "bool"
                                },
                                {
                                  "internalType": "uint256",
                                  "name": "bitlen",
                                  "type": "uint256"
                                }
                              ],
                              "internalType": "struct BigNumber",
                              "name": "value",
                              "type": "tuple"
                            }
                          ],
                          "internalType": "struct Zp",
                          "name": "a",
                          "type": "tuple"
                        },
                        {
                          "components": [
                            {
                              "components": [
                                {
                                  "internalType": "bytes",
                                  "name": "val",
                                  "type": "bytes"
                                },
                                {
                                  "internalType": "bool",
                                  "name": "neg",
                                  "type": "bool"
                                },
                                {
                                  "internalType": "uint256",
                                  "name": "bitlen",
                                  "type": "uint256"
                                }
                              ],
                              "internalType": "struct BigNumber",
                              "name": "value",
                              "type": "tuple"
                            }
                          ],
                          "internalType": "struct Zp",
                          "name": "b",
                          "type": "tuple"
                        }
                      ],
                      "internalType": "struct Zp_2",
                      "name": "c",
                      "type": "tuple"
                    }
                  ],
                  "internalType": "struct Zp_6",
                  "name": "a",
                  "type": "tuple"
                },
                {
                  "components": [
                    {
                      "components": [
                        {
                          "components": [
                            {
                              "components": [
                                {
                                  "internalType": "bytes",
                                  "name": "val",
                                  "type": "bytes"
                                },
                                {
                                  "internalType": "bool",
                                  "name": "neg",
                                  "type": "bool"
                                },
                                {
                                  "internalType": "uint256",
                                  "name": "bitlen",
                                  "type": "uint256"
                                }
                              ],
                              "internalType": "struct BigNumber",
                              "name": "value",
                              "type": "tuple"
                            }
                          ],
                          "internalType": "struct Zp",
                          "name": "a",
                          "type": "tuple"
                        },
                        {
                          "components": [
                            {
                              "components": [
                                {
                                  "internalType": "bytes",
                                  "name": "val",
                                  "type": "bytes"
                                },
                                {
                                  "internalType": "bool",
                                  "name": "neg",
                                  "type": "bool"
                                },
                                {
                                  "internalType": "uint256",
                                  "name": "bitlen",
                                  "type": "uint256"
                                }
                              ],
                              "internalType": "struct BigNumber",
                              "name": "value",
                              "type": "tuple"
                            }
                          ],
                          "internalType": "struct Zp",
                          "name": "b",
                          "type": "tuple"
                        }
                      ],
                      "internalType": "struct Zp_2",
                      "name": "a",
                      "type": "tuple"
                    },
                    {
                      "components": [
                        {
                          "components": [
                            {
                              "components": [
                                {
                                  "internalType": "bytes",
                                  "name": "val",
                                  "type": "bytes"
                                },
                                {
                                  "internalType": "bool",
                                  "name": "neg",
                                  "type": "bool"
                                },
                                {
                                  "internalType": "uint256",
                                  "name": "bitlen",
                                  "type": "uint256"
                                }
                              ],
                              "internalType": "struct BigNumber",
                              "name": "value",
                              "type": "tuple"
                            }
                          ],
                          "internalType": "struct Zp",
                          "name": "a",
                          "type": "tuple"
                        },
                        {
                          "components": [
                            {
                              "components": [
                                {
                                  "internalType": "bytes",
                                  "name": "val",
                                  "type": "bytes"
                                },
                                {
                                  "internalType": "bool",
                                  "name": "neg",
                                  "type": "bool"
                                },
                                {
                                  "internalType": "uint256",
                                  "name": "bitlen",
                                  "type": "uint256"
                                }
                              ],
                              "internalType": "struct BigNumber",
                              "name": "value",
                              "type": "tuple"
                            }
                          ],
                          "internalType": "struct Zp",
                          "name": "b",
                          "type": "tuple"
                        }
                      ],
                      "internalType": "struct Zp_2",
                      "name": "b",
                      "type": "tuple"
                    },
                    {
                      "components": [
                        {
                          "components": [
                            {
                              "components": [
                                {
                                  "internalType": "bytes",
                                  "name": "val",
                                  "type": "bytes"
                                },
                                {
                                  "internalType": "bool",
                                  "name": "neg",
                                  "type": "bool"
                                },
                                {
                                  "internalType": "uint256",
                                  "name": "bitlen",
                                  "type": "uint256"
                                }
                              ],
                              "internalType": "struct BigNumber",
                              "name": "value",
                              "type": "tuple"
                            }
                          ],
                          "internalType": "struct Zp",
                          "name": "a",
                          "type": "tuple"
                        },
                        {
                          "components": [
                            {
                              "components": [
                                {
                                  "internalType": "bytes",
                                  "name": "val",
                                  "type": "bytes"
                                },
                                {
                                  "internalType": "bool",
                                  "name": "neg",
                                  "type": "bool"
                                },
                                {
                                  "internalType": "uint256",
                                  "name": "bitlen",
                                  "type": "uint256"
                                }
                              ],
                              "internalType": "struct BigNumber",
                              "name": "value",
                              "type": "tuple"
                            }
                          ],
                          "internalType": "struct Zp",
                          "name": "b",
                          "type": "tuple"
                        }
                      ],
                      "internalType": "struct Zp_2",
                      "name": "c",
                      "type": "tuple"
                    }
                  ],
                  "internalType": "struct Zp_6",
                  "name": "b",
                  "type": "tuple"
                }
              ],
              "internalType": "struct Zp_12",
              "name": "y",
              "type": "tuple"
            }
          ],
          "internalType": "struct Point_Zp_12",
          "name": "self",
          "type": "tuple"
        }
      ],
      "name": "double",
      "outputs": [
        {
          "components": [
            {
              "internalType": "enum PointType",
              "name": "pointType",
              "type": "uint8"
            },
            {
              "components": [
                {
                  "components": [
                    {
                      "components": [
                        {
                          "components": [
                            {
                              "components": [
                                {
                                  "internalType": "bytes",
                                  "name": "val",
                                  "type": "bytes"
                                },
                                {
                                  "internalType": "bool",
                                  "name": "neg",
                                  "type": "bool"
                                },
                                {
                                  "internalType": "uint256",
                                  "name": "bitlen",
                                  "type": "uint256"
                                }
                              ],
                              "internalType": "struct BigNumber",
                              "name": "value",
                              "type": "tuple"
                            }
                          ],
                          "internalType": "struct Zp",
                          "name": "a",
                          "type": "tuple"
                        },
                        {
                          "components": [
                            {
                              "components": [
                                {
                                  "internalType": "bytes",
                                  "name": "val",
                                  "type": "bytes"
                                },
                                {
                                  "internalType": "bool",
                                  "name": "neg",
                                  "type": "bool"
                                },
                                {
                                  "internalType": "uint256",
                                  "name": "bitlen",
                                  "type": "uint256"
                                }
                              ],
                              "internalType": "struct BigNumber",
                              "name": "value",
                              "type": "tuple"
                            }
                          ],
                          "internalType": "struct Zp",
                          "name": "b",
                          "type": "tuple"
                        }
                      ],
                      "internalType": "struct Zp_2",
                      "name": "a",
                      "type": "tuple"
                    },
                    {
                      "components": [
                        {
                          "components": [
                            {
                              "components": [
                                {
                                  "internalType": "bytes",
                                  "name": "val",
                                  "type": "bytes"
                                },
                                {
                                  "internalType": "bool",
                                  "name": "neg",
                                  "type": "bool"
                                },
                                {
                                  "internalType": "uint256",
                                  "name": "bitlen",
                                  "type": "uint256"
                                }
                              ],
                              "internalType": "struct BigNumber",
                              "name": "value",
                              "type": "tuple"
                            }
                          ],
                          "internalType": "struct Zp",
                          "name": "a",
                          "type": "tuple"
                        },
                        {
                          "components": [
                            {
                              "components": [
                                {
                                  "internalType": "bytes",
                                  "name": "val",
                                  "type": "bytes"
                                },
                                {
                                  "internalType": "bool",
                                  "name": "neg",
                                  "type": "bool"
                                },
                                {
                                  "internalType": "uint256",
                                  "name": "bitlen",
                                  "type": "uint256"
                                }
                              ],
                              "internalType": "struct BigNumber",
                              "name": "value",
                              "type": "tuple"
                            }
                          ],
                          "internalType": "struct Zp",
                          "name": "b",
                          "type": "tuple"
                        }
                      ],
                      "internalType": "struct Zp_2",
                      "name": "b",
                      "type": "tuple"
                    },
                    {
                      "components": [
                        {
                          "components": [
                            {
                              "components": [
                                {
                                  "internalType": "bytes",
                                  "name": "val",
                                  "type": "bytes"
                                },
                                {
                                  "internalType": "bool",
                                  "name": "neg",
                                  "type": "bool"
                                },
                                {
                                  "internalType": "uint256",
                                  "name": "bitlen",
                                  "type": "uint256"
                                }
                              ],
                              "internalType": "struct BigNumber",
                              "name": "value",
                              "type": "tuple"
                            }
                          ],
                          "internalType": "struct Zp",
                          "name": "a",
                          "type": "tuple"
                        },
                        {
                          "components": [
                            {
                              "components": [
                                {
                                  "internalType": "bytes",
                                  "name": "val",
                                  "type": "bytes"
                                },
                                {
                                  "internalType": "bool",
                                  "name": "neg",
                                  "type": "bool"
                                },
                                {
                                  "internalType": "uint256",
                                  "name": "bitlen",
                                  "type": "uint256"
                                }
                              ],
                              "internalType": "struct BigNumber",
                              "name": "value",
                              "type": "tuple"
                            }
                          ],
                          "internalType": "struct Zp",
                          "name": "b",
                          "type": "tuple"
                        }
                      ],
                      "internalType": "struct Zp_2",
                      "name": "c",
                      "type": "tuple"
                    }
                  ],
                  "internalType": "struct Zp_6",
                  "name": "a",
                  "type": "tuple"
                },
                {
                  "components": [
                    {
                      "components": [
                        {
                          "components": [
                            {
                              "components": [
                                {
                                  "internalType": "bytes",
                                  "name": "val",
                                  "type": "bytes"
                                },
                                {
                                  "internalType": "bool",
                                  "name": "neg",
                                  "type": "bool"
                                },
                                {
                                  "internalType": "uint256",
                                  "name": "bitlen",
                                  "type": "uint256"
                                }
                              ],
                              "internalType": "struct BigNumber",
                              "name": "value",
                              "type": "tuple"
                            }
                          ],
                          "internalType": "struct Zp",
                          "name": "a",
                          "type": "tuple"
                        },
                        {
                          "components": [
                            {
                              "components": [
                                {
                                  "internalType": "bytes",
                                  "name": "val",
                                  "type": "bytes"
                                },
                                {
                                  "internalType": "bool",
                                  "name": "neg",
                                  "type": "bool"
                                },
                                {
                                  "internalType": "uint256",
                                  "name": "bitlen",
                                  "type": "uint256"
                                }
                              ],
                              "internalType": "struct BigNumber",
                              "name": "value",
                              "type": "tuple"
                            }
                          ],
                          "internalType": "struct Zp",
                          "name": "b",
                          "type": "tuple"
                        }
                      ],
                      "internalType": "struct Zp_2",
                      "name": "a",
                      "type": "tuple"
                    },
                    {
                      "components": [
                        {
                          "components": [
                            {
                              "components": [
                                {
                                  "internalType": "bytes",
                                  "name": "val",
                                  "type": "bytes"
                                },
                                {
                                  "internalType": "bool",
                                  "name": "neg",
                                  "type": "bool"
                                },
                                {
                                  "internalType": "uint256",
                                  "name": "bitlen",
                                  "type": "uint256"
                                }
                              ],
                              "internalType": "struct BigNumber",
                              "name": "value",
                              "type": "tuple"
                            }
                          ],
                          "internalType": "struct Zp",
                          "name": "a",
                          "type": "tuple"
                        },
                        {
                          "components": [
                            {
                              "components": [
                                {
                                  "internalType": "bytes",
                                  "name": "val",
                                  "type": "bytes"
                                },
                                {
                                  "internalType": "bool",
                                  "name": "neg",
                                  "type": "bool"
                                },
                                {
                                  "internalType": "uint256",
                                  "name": "bitlen",
                                  "type": "uint256"
                                }
                              ],
                              "internalType": "struct BigNumber",
                              "name": "value",
                              "type": "tuple"
                            }
                          ],
                          "internalType": "struct Zp",
                          "name": "b",
                          "type": "tuple"
                        }
                      ],
                      "internalType": "struct Zp_2",
                      "name": "b",
                      "type": "tuple"
                    },
                    {
                      "components": [
                        {
                          "components": [
                            {
                              "components": [
                                {
                                  "internalType": "bytes",
                                  "name": "val",
                                  "type": "bytes"
                                },
                                {
                                  "internalType": "bool",
                                  "name": "neg",
                                  "type": "bool"
                                },
                                {
                                  "internalType": "uint256",
                                  "name": "bitlen",
                                  "type": "uint256"
                                }
                              ],
                              "internalType": "struct BigNumber",
                              "name": "value",
                              "type": "tuple"
                            }
                          ],
                          "internalType": "struct Zp",
                          "name": "a",
                          "type": "tuple"
                        },
                        {
                          "components": [
                            {
                              "components": [
                                {
                                  "internalType": "bytes",
                                  "name": "val",
                                  "type": "bytes"
                                },
                                {
                                  "internalType": "bool",
                                  "name": "neg",
                                  "type": "bool"
                                },
                                {
                                  "internalType": "uint256",
                                  "name": "bitlen",
                                  "type": "uint256"
                                }
                              ],
                              "internalType": "struct BigNumber",
                              "name": "value",
                              "type": "tuple"
                            }
                          ],
                          "internalType": "struct Zp",
                          "name": "b",
                          "type": "tuple"
                        }
                      ],
                      "internalType": "struct Zp_2",
                      "name": "c",
                      "type": "tuple"
                    }
                  ],
                  "internalType": "struct Zp_6",
                  "name": "b",
                  "type": "tuple"
                }
              ],
              "internalType": "struct Zp_12",
              "name": "x",
              "type": "tuple"
            },
            {
              "components": [
                {
                  "components": [
                    {
                      "components": [
                        {
                          "components": [
                            {
                              "components": [
                                {
                                  "internalType": "bytes",
                                  "name": "val",
                                  "type": "bytes"
                                },
                                {
                                  "internalType": "bool",
                                  "name": "neg",
                                  "type": "bool"
                                },
                                {
                                  "internalType": "uint256",
                                  "name": "bitlen",
                                  "type": "uint256"
                                }
                              ],
                              "internalType": "struct BigNumber",
                              "name": "value",
                              "type": "tuple"
                            }
                          ],
                          "internalType": "struct Zp",
                          "name": "a",
                          "type": "tuple"
                        },
                        {
                          "components": [
                            {
                              "components": [
                                {
                                  "internalType": "bytes",
                                  "name": "val",
                                  "type": "bytes"
                                },
                                {
                                  "internalType": "bool",
                                  "name": "neg",
                                  "type": "bool"
                                },
                                {
                                  "internalType": "uint256",
                                  "name": "bitlen",
                                  "type": "uint256"
                                }
                              ],
                              "internalType": "struct BigNumber",
                              "name": "value",
                              "type": "tuple"
                            }
                          ],
                          "internalType": "struct Zp",
                          "name": "b",
                          "type": "tuple"
                        }
                      ],
                      "internalType": "struct Zp_2",
                      "name": "a",
                      "type": "tuple"
                    },
                    {
                      "components": [
                        {
                          "components": [
                            {
                              "components": [
                                {
                                  "internalType": "bytes",
                                  "name": "val",
                                  "type": "bytes"
                                },
                                {
                                  "internalType": "bool",
                                  "name": "neg",
                                  "type": "bool"
                                },
                                {
                                  "internalType": "uint256",
                                  "name": "bitlen",
                                  "type": "uint256"
                                }
                              ],
                              "internalType": "struct BigNumber",
                              "name": "value",
                              "type": "tuple"
                            }
                          ],
                          "internalType": "struct Zp",
                          "name": "a",
                          "type": "tuple"
                        },
                        {
                          "components": [
                            {
                              "components": [
                                {
                                  "internalType": "bytes",
                                  "name": "val",
                                  "type": "bytes"
                                },
                                {
                                  "internalType": "bool",
                                  "name": "neg",
                                  "type": "bool"
                                },
                                {
                                  "internalType": "uint256",
                                  "name": "bitlen",
                                  "type": "uint256"
                                }
                              ],
                              "internalType": "struct BigNumber",
                              "name": "value",
                              "type": "tuple"
                            }
                          ],
                          "internalType": "struct Zp",
                          "name": "b",
                          "type": "tuple"
                        }
                      ],
                      "internalType": "struct Zp_2",
                      "name": "b",
                      "type": "tuple"
                    },
                    {
                      "components": [
                        {
                          "components": [
                            {
                              "components": [
                                {
                                  "internalType": "bytes",
                                  "name": "val",
                                  "type": "bytes"
                                },
                                {
                                  "internalType": "bool",
                                  "name": "neg",
                                  "type": "bool"
                                },
                                {
                                  "internalType": "uint256",
                                  "name": "bitlen",
                                  "type": "uint256"
                                }
                              ],
                              "internalType": "struct BigNumber",
                              "name": "value",
                              "type": "tuple"
                            }
                          ],
                          "internalType": "struct Zp",
                          "name": "a",
                          "type": "tuple"
                        },
                        {
                          "components": [
                            {
                              "components": [
                                {
                                  "internalType": "bytes",
                                  "name": "val",
                                  "type": "bytes"
                                },
                                {
                                  "internalType": "bool",
                                  "name": "neg",
                                  "type": "bool"
                                },
                                {
                                  "internalType": "uint256",
                                  "name": "bitlen",
                                  "type": "uint256"
                                }
                              ],
                              "internalType": "struct BigNumber",
                              "name": "value",
                              "type": "tuple"
                            }
                          ],
                          "internalType": "struct Zp",
                          "name": "b",
                          "type": "tuple"
                        }
                      ],
                      "internalType": "struct Zp_2",
                      "name": "c",
                      "type": "tuple"
                    }
                  ],
                  "internalType": "struct Zp_6",
                  "name": "a",
                  "type": "tuple"
                },
                {
                  "components": [
                    {
                      "components": [
                        {
                          "components": [
                            {
                              "components": [
                                {
                                  "internalType": "bytes",
                                  "name": "val",
                                  "type": "bytes"
                                },
                                {
                                  "internalType": "bool",
                                  "name": "neg",
                                  "type": "bool"
                                },
                                {
                                  "internalType": "uint256",
                                  "name": "bitlen",
                                  "type": "uint256"
                                }
                              ],
                              "internalType": "struct BigNumber",
                              "name": "value",
                              "type": "tuple"
                            }
                          ],
                          "internalType": "struct Zp",
                          "name": "a",
                          "type": "tuple"
                        },
                        {
                          "components": [
                            {
                              "components": [
                                {
                                  "internalType": "bytes",
                                  "name": "val",
                                  "type": "bytes"
                                },
                                {
                                  "internalType": "bool",
                                  "name": "neg",
                                  "type": "bool"
                                },
                                {
                                  "internalType": "uint256",
                                  "name": "bitlen",
                                  "type": "uint256"
                                }
                              ],
                              "internalType": "struct BigNumber",
                              "name": "value",
                              "type": "tuple"
                            }
                          ],
                          "internalType": "struct Zp",
                          "name": "b",
                          "type": "tuple"
                        }
                      ],
                      "internalType": "struct Zp_2",
                      "name": "a",
                      "type": "tuple"
                    },
                    {
                      "components": [
                        {
                          "components": [
                            {
                              "components": [
                                {
                                  "internalType": "bytes",
                                  "name": "val",
                                  "type": "bytes"
                                },
                                {
                                  "internalType": "bool",
                                  "name": "neg",
                                  "type": "bool"
                                },
                                {
                                  "internalType": "uint256",
                                  "name": "bitlen",
                                  "type": "uint256"
                                }
                              ],
                              "internalType": "struct BigNumber",
                              "name": "value",
                              "type": "tuple"
                            }
                          ],
                          "internalType": "struct Zp",
                          "name": "a",
                          "type": "tuple"
                        },
                        {
                          "components": [
                            {
                              "components": [
                                {
                                  "internalType": "bytes",
                                  "name": "val",
                                  "type": "bytes"
                                },
                                {
                                  "internalType": "bool",
                                  "name": "neg",
                                  "type": "bool"
                                },
                                {
                                  "internalType": "uint256",
                                  "name": "bitlen",
                                  "type": "uint256"
                                }
                              ],
                              "internalType": "struct BigNumber",
                              "name": "value",
                              "type": "tuple"
                            }
                          ],
                          "internalType": "struct Zp",
                          "name": "b",
                          "type": "tuple"
                        }
                      ],
                      "internalType": "struct Zp_2",
                      "name": "b",
                      "type": "tuple"
                    },
                    {
                      "components": [
                        {
                          "components": [
                            {
                              "components": [
                                {
                                  "internalType": "bytes",
                                  "name": "val",
                                  "type": "bytes"
                                },
                                {
                                  "internalType": "bool",
                                  "name": "neg",
                                  "type": "bool"
                                },
                                {
                                  "internalType": "uint256",
                                  "name": "bitlen",
                                  "type": "uint256"
                                }
                              ],
                              "internalType": "struct BigNumber",
                              "name": "value",
                              "type": "tuple"
                            }
                          ],
                          "internalType": "struct Zp",
                          "name": "a",
                          "type": "tuple"
                        },
                        {
                          "components": [
                            {
                              "components": [
                                {
                                  "internalType": "bytes",
                                  "name": "val",
                                  "type": "bytes"
                                },
                                {
                                  "internalType": "bool",
                                  "name": "neg",
                                  "type": "bool"
                                },
                                {
                                  "internalType": "uint256",
                                  "name": "bitlen",
                                  "type": "uint256"
                                }
                              ],
                              "internalType": "struct BigNumber",
                              "name": "value",
                              "type": "tuple"
                            }
                          ],
                          "internalType": "struct Zp",
                          "name": "b",
                          "type": "tuple"
                        }
                      ],
                      "internalType": "struct Zp_2",
                      "name": "c",
                      "type": "tuple"
                    }
                  ],
                  "internalType": "struct Zp_6",
                  "name": "b",
                  "type": "tuple"
                }
              ],
              "internalType": "struct Zp_12",
              "name": "y",
              "type": "tuple"
            }
          ],
          "internalType": "struct Point_Zp_12",
          "name": "",
          "type": "tuple"
        }
      ],
      "stateMutability": "view",
      "type": "function"
    },
    {
      "inputs": [
        {
          "components": [
            {
              "internalType": "bytes",
              "name": "val",
              "type": "bytes"
            },
            {
              "internalType": "bool",
              "name": "neg",
              "type": "bool"
            },
            {
              "internalType": "uint256",
              "name": "bitlen",
              "type": "uint256"
            }
          ],
          "internalType": "struct BigNumber",
          "name": "k",
          "type": "tuple"
        },
        {
          "components": [
            {
              "internalType": "enum PointType",
              "name": "pointType",
              "type": "uint8"
            },
            {
              "components": [
                {
                  "components": [
                    {
                      "components": [
                        {
                          "components": [
                            {
                              "components": [
                                {
                                  "internalType": "bytes",
                                  "name": "val",
                                  "type": "bytes"
                                },
                                {
                                  "internalType": "bool",
                                  "name": "neg",
                                  "type": "bool"
                                },
                                {
                                  "internalType": "uint256",
                                  "name": "bitlen",
                                  "type": "uint256"
                                }
                              ],
                              "internalType": "struct BigNumber",
                              "name": "value",
                              "type": "tuple"
                            }
                          ],
                          "internalType": "struct Zp",
                          "name": "a",
                          "type": "tuple"
                        },
                        {
                          "components": [
                            {
                              "components": [
                                {
                                  "internalType": "bytes",
                                  "name": "val",
                                  "type": "bytes"
                                },
                                {
                                  "internalType": "bool",
                                  "name": "neg",
                                  "type": "bool"
                                },
                                {
                                  "internalType": "uint256",
                                  "name": "bitlen",
                                  "type": "uint256"
                                }
                              ],
                              "internalType": "struct BigNumber",
                              "name": "value",
                              "type": "tuple"
                            }
                          ],
                          "internalType": "struct Zp",
                          "name": "b",
                          "type": "tuple"
                        }
                      ],
                      "internalType": "struct Zp_2",
                      "name": "a",
                      "type": "tuple"
                    },
                    {
                      "components": [
                        {
                          "components": [
                            {
                              "components": [
                                {
                                  "internalType": "bytes",
                                  "name": "val",
                                  "type": "bytes"
                                },
                                {
                                  "internalType": "bool",
                                  "name": "neg",
                                  "type": "bool"
                                },
                                {
                                  "internalType": "uint256",
                                  "name": "bitlen",
                                  "type": "uint256"
                                }
                              ],
                              "internalType": "struct BigNumber",
                              "name": "value",
                              "type": "tuple"
                            }
                          ],
                          "internalType": "struct Zp",
                          "name": "a",
                          "type": "tuple"
                        },
                        {
                          "components": [
                            {
                              "components": [
                                {
                                  "internalType": "bytes",
                                  "name": "val",
                                  "type": "bytes"
                                },
                                {
                                  "internalType": "bool",
                                  "name": "neg",
                                  "type": "bool"
                                },
                                {
                                  "internalType": "uint256",
                                  "name": "bitlen",
                                  "type": "uint256"
                                }
                              ],
                              "internalType": "struct BigNumber",
                              "name": "value",
                              "type": "tuple"
                            }
                          ],
                          "internalType": "struct Zp",
                          "name": "b",
                          "type": "tuple"
                        }
                      ],
                      "internalType": "struct Zp_2",
                      "name": "b",
                      "type": "tuple"
                    },
                    {
                      "components": [
                        {
                          "components": [
                            {
                              "components": [
                                {
                                  "internalType": "bytes",
                                  "name": "val",
                                  "type": "bytes"
                                },
                                {
                                  "internalType": "bool",
                                  "name": "neg",
                                  "type": "bool"
                                },
                                {
                                  "internalType": "uint256",
                                  "name": "bitlen",
                                  "type": "uint256"
                                }
                              ],
                              "internalType": "struct BigNumber",
                              "name": "value",
                              "type": "tuple"
                            }
                          ],
                          "internalType": "struct Zp",
                          "name": "a",
                          "type": "tuple"
                        },
                        {
                          "components": [
                            {
                              "components": [
                                {
                                  "internalType": "bytes",
                                  "name": "val",
                                  "type": "bytes"
                                },
                                {
                                  "internalType": "bool",
                                  "name": "neg",
                                  "type": "bool"
                                },
                                {
                                  "internalType": "uint256",
                                  "name": "bitlen",
                                  "type": "uint256"
                                }
                              ],
                              "internalType": "struct BigNumber",
                              "name": "value",
                              "type": "tuple"
                            }
                          ],
                          "internalType": "struct Zp",
                          "name": "b",
                          "type": "tuple"
                        }
                      ],
                      "internalType": "struct Zp_2",
                      "name": "c",
                      "type": "tuple"
                    }
                  ],
                  "internalType": "struct Zp_6",
                  "name": "a",
                  "type": "tuple"
                },
                {
                  "components": [
                    {
                      "components": [
                        {
                          "components": [
                            {
                              "components": [
                                {
                                  "internalType": "bytes",
                                  "name": "val",
                                  "type": "bytes"
                                },
                                {
                                  "internalType": "bool",
                                  "name": "neg",
                                  "type": "bool"
                                },
                                {
                                  "internalType": "uint256",
                                  "name": "bitlen",
                                  "type": "uint256"
                                }
                              ],
                              "internalType": "struct BigNumber",
                              "name": "value",
                              "type": "tuple"
                            }
                          ],
                          "internalType": "struct Zp",
                          "name": "a",
                          "type": "tuple"
                        },
                        {
                          "components": [
                            {
                              "components": [
                                {
                                  "internalType": "bytes",
                                  "name": "val",
                                  "type": "bytes"
                                },
                                {
                                  "internalType": "bool",
                                  "name": "neg",
                                  "type": "bool"
                                },
                                {
                                  "internalType": "uint256",
                                  "name": "bitlen",
                                  "type": "uint256"
                                }
                              ],
                              "internalType": "struct BigNumber",
                              "name": "value",
                              "type": "tuple"
                            }
                          ],
                          "internalType": "struct Zp",
                          "name": "b",
                          "type": "tuple"
                        }
                      ],
                      "internalType": "struct Zp_2",
                      "name": "a",
                      "type": "tuple"
                    },
                    {
                      "components": [
                        {
                          "components": [
                            {
                              "components": [
                                {
                                  "internalType": "bytes",
                                  "name": "val",
                                  "type": "bytes"
                                },
                                {
                                  "internalType": "bool",
                                  "name": "neg",
                                  "type": "bool"
                                },
                                {
                                  "internalType": "uint256",
                                  "name": "bitlen",
                                  "type": "uint256"
                                }
                              ],
                              "internalType": "struct BigNumber",
                              "name": "value",
                              "type": "tuple"
                            }
                          ],
                          "internalType": "struct Zp",
                          "name": "a",
                          "type": "tuple"
                        },
                        {
                          "components": [
                            {
                              "components": [
                                {
                                  "internalType": "bytes",
                                  "name": "val",
                                  "type": "bytes"
                                },
                                {
                                  "internalType": "bool",
                                  "name": "neg",
                                  "type": "bool"
                                },
                                {
                                  "internalType": "uint256",
                                  "name": "bitlen",
                                  "type": "uint256"
                                }
                              ],
                              "internalType": "struct BigNumber",
                              "name": "value",
                              "type": "tuple"
                            }
                          ],
                          "internalType": "struct Zp",
                          "name": "b",
                          "type": "tuple"
                        }
                      ],
                      "internalType": "struct Zp_2",
                      "name": "b",
                      "type": "tuple"
                    },
                    {
                      "components": [
                        {
                          "components": [
                            {
                              "components": [
                                {
                                  "internalType": "bytes",
                                  "name": "val",
                                  "type": "bytes"
                                },
                                {
                                  "internalType": "bool",
                                  "name": "neg",
                                  "type": "bool"
                                },
                                {
                                  "internalType": "uint256",
                                  "name": "bitlen",
                                  "type": "uint256"
                                }
                              ],
                              "internalType": "struct BigNumber",
                              "name": "value",
                              "type": "tuple"
                            }
                          ],
                          "internalType": "struct Zp",
                          "name": "a",
                          "type": "tuple"
                        },
                        {
                          "components": [
                            {
                              "components": [
                                {
                                  "internalType": "bytes",
                                  "name": "val",
                                  "type": "bytes"
                                },
                                {
                                  "internalType": "bool",
                                  "name": "neg",
                                  "type": "bool"
                                },
                                {
                                  "internalType": "uint256",
                                  "name": "bitlen",
                                  "type": "uint256"
                                }
                              ],
                              "internalType": "struct BigNumber",
                              "name": "value",
                              "type": "tuple"
                            }
                          ],
                          "internalType": "struct Zp",
                          "name": "b",
                          "type": "tuple"
                        }
                      ],
                      "internalType": "struct Zp_2",
                      "name": "c",
                      "type": "tuple"
                    }
                  ],
                  "internalType": "struct Zp_6",
                  "name": "b",
                  "type": "tuple"
                }
              ],
              "internalType": "struct Zp_12",
              "name": "x",
              "type": "tuple"
            },
            {
              "components": [
                {
                  "components": [
                    {
                      "components": [
                        {
                          "components": [
                            {
                              "components": [
                                {
                                  "internalType": "bytes",
                                  "name": "val",
                                  "type": "bytes"
                                },
                                {
                                  "internalType": "bool",
                                  "name": "neg",
                                  "type": "bool"
                                },
                                {
                                  "internalType": "uint256",
                                  "name": "bitlen",
                                  "type": "uint256"
                                }
                              ],
                              "internalType": "struct BigNumber",
                              "name": "value",
                              "type": "tuple"
                            }
                          ],
                          "internalType": "struct Zp",
                          "name": "a",
                          "type": "tuple"
                        },
                        {
                          "components": [
                            {
                              "components": [
                                {
                                  "internalType": "bytes",
                                  "name": "val",
                                  "type": "bytes"
                                },
                                {
                                  "internalType": "bool",
                                  "name": "neg",
                                  "type": "bool"
                                },
                                {
                                  "internalType": "uint256",
                                  "name": "bitlen",
                                  "type": "uint256"
                                }
                              ],
                              "internalType": "struct BigNumber",
                              "name": "value",
                              "type": "tuple"
                            }
                          ],
                          "internalType": "struct Zp",
                          "name": "b",
                          "type": "tuple"
                        }
                      ],
                      "internalType": "struct Zp_2",
                      "name": "a",
                      "type": "tuple"
                    },
                    {
                      "components": [
                        {
                          "components": [
                            {
                              "components": [
                                {
                                  "internalType": "bytes",
                                  "name": "val",
                                  "type": "bytes"
                                },
                                {
                                  "internalType": "bool",
                                  "name": "neg",
                                  "type": "bool"
                                },
                                {
                                  "internalType": "uint256",
                                  "name": "bitlen",
                                  "type": "uint256"
                                }
                              ],
                              "internalType": "struct BigNumber",
                              "name": "value",
                              "type": "tuple"
                            }
                          ],
                          "internalType": "struct Zp",
                          "name": "a",
                          "type": "tuple"
                        },
                        {
                          "components": [
                            {
                              "components": [
                                {
                                  "internalType": "bytes",
                                  "name": "val",
                                  "type": "bytes"
                                },
                                {
                                  "internalType": "bool",
                                  "name": "neg",
                                  "type": "bool"
                                },
                                {
                                  "internalType": "uint256",
                                  "name": "bitlen",
                                  "type": "uint256"
                                }
                              ],
                              "internalType": "struct BigNumber",
                              "name": "value",
                              "type": "tuple"
                            }
                          ],
                          "internalType": "struct Zp",
                          "name": "b",
                          "type": "tuple"
                        }
                      ],
                      "internalType": "struct Zp_2",
                      "name": "b",
                      "type": "tuple"
                    },
                    {
                      "components": [
                        {
                          "components": [
                            {
                              "components": [
                                {
                                  "internalType": "bytes",
                                  "name": "val",
                                  "type": "bytes"
                                },
                                {
                                  "internalType": "bool",
                                  "name": "neg",
                                  "type": "bool"
                                },
                                {
                                  "internalType": "uint256",
                                  "name": "bitlen",
                                  "type": "uint256"
                                }
                              ],
                              "internalType": "struct BigNumber",
                              "name": "value",
                              "type": "tuple"
                            }
                          ],
                          "internalType": "struct Zp",
                          "name": "a",
                          "type": "tuple"
                        },
                        {
                          "components": [
                            {
                              "components": [
                                {
                                  "internalType": "bytes",
                                  "name": "val",
                                  "type": "bytes"
                                },
                                {
                                  "internalType": "bool",
                                  "name": "neg",
                                  "type": "bool"
                                },
                                {
                                  "internalType": "uint256",
                                  "name": "bitlen",
                                  "type": "uint256"
                                }
                              ],
                              "internalType": "struct BigNumber",
                              "name": "value",
                              "type": "tuple"
                            }
                          ],
                          "internalType": "struct Zp",
                          "name": "b",
                          "type": "tuple"
                        }
                      ],
                      "internalType": "struct Zp_2",
                      "name": "c",
                      "type": "tuple"
                    }
                  ],
                  "internalType": "struct Zp_6",
                  "name": "a",
                  "type": "tuple"
                },
                {
                  "components": [
                    {
                      "components": [
                        {
                          "components": [
                            {
                              "components": [
                                {
                                  "internalType": "bytes",
                                  "name": "val",
                                  "type": "bytes"
                                },
                                {
                                  "internalType": "bool",
                                  "name": "neg",
                                  "type": "bool"
                                },
                                {
                                  "internalType": "uint256",
                                  "name": "bitlen",
                                  "type": "uint256"
                                }
                              ],
                              "internalType": "struct BigNumber",
                              "name": "value",
                              "type": "tuple"
                            }
                          ],
                          "internalType": "struct Zp",
                          "name": "a",
                          "type": "tuple"
                        },
                        {
                          "components": [
                            {
                              "components": [
                                {
                                  "internalType": "bytes",
                                  "name": "val",
                                  "type": "bytes"
                                },
                                {
                                  "internalType": "bool",
                                  "name": "neg",
                                  "type": "bool"
                                },
                                {
                                  "internalType": "uint256",
                                  "name": "bitlen",
                                  "type": "uint256"
                                }
                              ],
                              "internalType": "struct BigNumber",
                              "name": "value",
                              "type": "tuple"
                            }
                          ],
                          "internalType": "struct Zp",
                          "name": "b",
                          "type": "tuple"
                        }
                      ],
                      "internalType": "struct Zp_2",
                      "name": "a",
                      "type": "tuple"
                    },
                    {
                      "components": [
                        {
                          "components": [
                            {
                              "components": [
                                {
                                  "internalType": "bytes",
                                  "name": "val",
                                  "type": "bytes"
                                },
                                {
                                  "internalType": "bool",
                                  "name": "neg",
                                  "type": "bool"
                                },
                                {
                                  "internalType": "uint256",
                                  "name": "bitlen",
                                  "type": "uint256"
                                }
                              ],
                              "internalType": "struct BigNumber",
                              "name": "value",
                              "type": "tuple"
                            }
                          ],
                          "internalType": "struct Zp",
                          "name": "a",
                          "type": "tuple"
                        },
                        {
                          "components": [
                            {
                              "components": [
                                {
                                  "internalType": "bytes",
                                  "name": "val",
                                  "type": "bytes"
                                },
                                {
                                  "internalType": "bool",
                                  "name": "neg",
                                  "type": "bool"
                                },
                                {
                                  "internalType": "uint256",
                                  "name": "bitlen",
                                  "type": "uint256"
                                }
                              ],
                              "internalType": "struct BigNumber",
                              "name": "value",
                              "type": "tuple"
                            }
                          ],
                          "internalType": "struct Zp",
                          "name": "b",
                          "type": "tuple"
                        }
                      ],
                      "internalType": "struct Zp_2",
                      "name": "b",
                      "type": "tuple"
                    },
                    {
                      "components": [
                        {
                          "components": [
                            {
                              "components": [
                                {
                                  "internalType": "bytes",
                                  "name": "val",
                                  "type": "bytes"
                                },
                                {
                                  "internalType": "bool",
                                  "name": "neg",
                                  "type": "bool"
                                },
                                {
                                  "internalType": "uint256",
                                  "name": "bitlen",
                                  "type": "uint256"
                                }
                              ],
                              "internalType": "struct BigNumber",
                              "name": "value",
                              "type": "tuple"
                            }
                          ],
                          "internalType": "struct Zp",
                          "name": "a",
                          "type": "tuple"
                        },
                        {
                          "components": [
                            {
                              "components": [
                                {
                                  "internalType": "bytes",
                                  "name": "val",
                                  "type": "bytes"
                                },
                                {
                                  "internalType": "bool",
                                  "name": "neg",
                                  "type": "bool"
                                },
                                {
                                  "internalType": "uint256",
                                  "name": "bitlen",
                                  "type": "uint256"
                                }
                              ],
                              "internalType": "struct BigNumber",
                              "name": "value",
                              "type": "tuple"
                            }
                          ],
                          "internalType": "struct Zp",
                          "name": "b",
                          "type": "tuple"
                        }
                      ],
                      "internalType": "struct Zp_2",
                      "name": "c",
                      "type": "tuple"
                    }
                  ],
                  "internalType": "struct Zp_6",
                  "name": "b",
                  "type": "tuple"
                }
              ],
              "internalType": "struct Zp_12",
              "name": "y",
              "type": "tuple"
            }
          ],
          "internalType": "struct Point_Zp_12",
          "name": "self",
          "type": "tuple"
        }
      ],
      "name": "multiply",
      "outputs": [
        {
          "components": [
            {
              "internalType": "enum PointType",
              "name": "pointType",
              "type": "uint8"
            },
            {
              "components": [
                {
                  "components": [
                    {
                      "components": [
                        {
                          "components": [
                            {
                              "components": [
                                {
                                  "internalType": "bytes",
                                  "name": "val",
                                  "type": "bytes"
                                },
                                {
                                  "internalType": "bool",
                                  "name": "neg",
                                  "type": "bool"
                                },
                                {
                                  "internalType": "uint256",
                                  "name": "bitlen",
                                  "type": "uint256"
                                }
                              ],
                              "internalType": "struct BigNumber",
                              "name": "value",
                              "type": "tuple"
                            }
                          ],
                          "internalType": "struct Zp",
                          "name": "a",
                          "type": "tuple"
                        },
                        {
                          "components": [
                            {
                              "components": [
                                {
                                  "internalType": "bytes",
                                  "name": "val",
                                  "type": "bytes"
                                },
                                {
                                  "internalType": "bool",
                                  "name": "neg",
                                  "type": "bool"
                                },
                                {
                                  "internalType": "uint256",
                                  "name": "bitlen",
                                  "type": "uint256"
                                }
                              ],
                              "internalType": "struct BigNumber",
                              "name": "value",
                              "type": "tuple"
                            }
                          ],
                          "internalType": "struct Zp",
                          "name": "b",
                          "type": "tuple"
                        }
                      ],
                      "internalType": "struct Zp_2",
                      "name": "a",
                      "type": "tuple"
                    },
                    {
                      "components": [
                        {
                          "components": [
                            {
                              "components": [
                                {
                                  "internalType": "bytes",
                                  "name": "val",
                                  "type": "bytes"
                                },
                                {
                                  "internalType": "bool",
                                  "name": "neg",
                                  "type": "bool"
                                },
                                {
                                  "internalType": "uint256",
                                  "name": "bitlen",
                                  "type": "uint256"
                                }
                              ],
                              "internalType": "struct BigNumber",
                              "name": "value",
                              "type": "tuple"
                            }
                          ],
                          "internalType": "struct Zp",
                          "name": "a",
                          "type": "tuple"
                        },
                        {
                          "components": [
                            {
                              "components": [
                                {
                                  "internalType": "bytes",
                                  "name": "val",
                                  "type": "bytes"
                                },
                                {
                                  "internalType": "bool",
                                  "name": "neg",
                                  "type": "bool"
                                },
                                {
                                  "internalType": "uint256",
                                  "name": "bitlen",
                                  "type": "uint256"
                                }
                              ],
                              "internalType": "struct BigNumber",
                              "name": "value",
                              "type": "tuple"
                            }
                          ],
                          "internalType": "struct Zp",
                          "name": "b",
                          "type": "tuple"
                        }
                      ],
                      "internalType": "struct Zp_2",
                      "name": "b",
                      "type": "tuple"
                    },
                    {
                      "components": [
                        {
                          "components": [
                            {
                              "components": [
                                {
                                  "internalType": "bytes",
                                  "name": "val",
                                  "type": "bytes"
                                },
                                {
                                  "internalType": "bool",
                                  "name": "neg",
                                  "type": "bool"
                                },
                                {
                                  "internalType": "uint256",
                                  "name": "bitlen",
                                  "type": "uint256"
                                }
                              ],
                              "internalType": "struct BigNumber",
                              "name": "value",
                              "type": "tuple"
                            }
                          ],
                          "internalType": "struct Zp",
                          "name": "a",
                          "type": "tuple"
                        },
                        {
                          "components": [
                            {
                              "components": [
                                {
                                  "internalType": "bytes",
                                  "name": "val",
                                  "type": "bytes"
                                },
                                {
                                  "internalType": "bool",
                                  "name": "neg",
                                  "type": "bool"
                                },
                                {
                                  "internalType": "uint256",
                                  "name": "bitlen",
                                  "type": "uint256"
                                }
                              ],
                              "internalType": "struct BigNumber",
                              "name": "value",
                              "type": "tuple"
                            }
                          ],
                          "internalType": "struct Zp",
                          "name": "b",
                          "type": "tuple"
                        }
                      ],
                      "internalType": "struct Zp_2",
                      "name": "c",
                      "type": "tuple"
                    }
                  ],
                  "internalType": "struct Zp_6",
                  "name": "a",
                  "type": "tuple"
                },
                {
                  "components": [
                    {
                      "components": [
                        {
                          "components": [
                            {
                              "components": [
                                {
                                  "internalType": "bytes",
                                  "name": "val",
                                  "type": "bytes"
                                },
                                {
                                  "internalType": "bool",
                                  "name": "neg",
                                  "type": "bool"
                                },
                                {
                                  "internalType": "uint256",
                                  "name": "bitlen",
                                  "type": "uint256"
                                }
                              ],
                              "internalType": "struct BigNumber",
                              "name": "value",
                              "type": "tuple"
                            }
                          ],
                          "internalType": "struct Zp",
                          "name": "a",
                          "type": "tuple"
                        },
                        {
                          "components": [
                            {
                              "components": [
                                {
                                  "internalType": "bytes",
                                  "name": "val",
                                  "type": "bytes"
                                },
                                {
                                  "internalType": "bool",
                                  "name": "neg",
                                  "type": "bool"
                                },
                                {
                                  "internalType": "uint256",
                                  "name": "bitlen",
                                  "type": "uint256"
                                }
                              ],
                              "internalType": "struct BigNumber",
                              "name": "value",
                              "type": "tuple"
                            }
                          ],
                          "internalType": "struct Zp",
                          "name": "b",
                          "type": "tuple"
                        }
                      ],
                      "internalType": "struct Zp_2",
                      "name": "a",
                      "type": "tuple"
                    },
                    {
                      "components": [
                        {
                          "components": [
                            {
                              "components": [
                                {
                                  "internalType": "bytes",
                                  "name": "val",
                                  "type": "bytes"
                                },
                                {
                                  "internalType": "bool",
                                  "name": "neg",
                                  "type": "bool"
                                },
                                {
                                  "internalType": "uint256",
                                  "name": "bitlen",
                                  "type": "uint256"
                                }
                              ],
                              "internalType": "struct BigNumber",
                              "name": "value",
                              "type": "tuple"
                            }
                          ],
                          "internalType": "struct Zp",
                          "name": "a",
                          "type": "tuple"
                        },
                        {
                          "components": [
                            {
                              "components": [
                                {
                                  "internalType": "bytes",
                                  "name": "val",
                                  "type": "bytes"
                                },
                                {
                                  "internalType": "bool",
                                  "name": "neg",
                                  "type": "bool"
                                },
                                {
                                  "internalType": "uint256",
                                  "name": "bitlen",
                                  "type": "uint256"
                                }
                              ],
                              "internalType": "struct BigNumber",
                              "name": "value",
                              "type": "tuple"
                            }
                          ],
                          "internalType": "struct Zp",
                          "name": "b",
                          "type": "tuple"
                        }
                      ],
                      "internalType": "struct Zp_2",
                      "name": "b",
                      "type": "tuple"
                    },
                    {
                      "components": [
                        {
                          "components": [
                            {
                              "components": [
                                {
                                  "internalType": "bytes",
                                  "name": "val",
                                  "type": "bytes"
                                },
                                {
                                  "internalType": "bool",
                                  "name": "neg",
                                  "type": "bool"
                                },
                                {
                                  "internalType": "uint256",
                                  "name": "bitlen",
                                  "type": "uint256"
                                }
                              ],
                              "internalType": "struct BigNumber",
                              "name": "value",
                              "type": "tuple"
                            }
                          ],
                          "internalType": "struct Zp",
                          "name": "a",
                          "type": "tuple"
                        },
                        {
                          "components": [
                            {
                              "components": [
                                {
                                  "internalType": "bytes",
                                  "name": "val",
                                  "type": "bytes"
                                },
                                {
                                  "internalType": "bool",
                                  "name": "neg",
                                  "type": "bool"
                                },
                                {
                                  "internalType": "uint256",
                                  "name": "bitlen",
                                  "type": "uint256"
                                }
                              ],
                              "internalType": "struct BigNumber",
                              "name": "value",
                              "type": "tuple"
                            }
                          ],
                          "internalType": "struct Zp",
                          "name": "b",
                          "type": "tuple"
                        }
                      ],
                      "internalType": "struct Zp_2",
                      "name": "c",
                      "type": "tuple"
                    }
                  ],
                  "internalType": "struct Zp_6",
                  "name": "b",
                  "type": "tuple"
                }
              ],
              "internalType": "struct Zp_12",
              "name": "x",
              "type": "tuple"
            },
            {
              "components": [
                {
                  "components": [
                    {
                      "components": [
                        {
                          "components": [
                            {
                              "components": [
                                {
                                  "internalType": "bytes",
                                  "name": "val",
                                  "type": "bytes"
                                },
                                {
                                  "internalType": "bool",
                                  "name": "neg",
                                  "type": "bool"
                                },
                                {
                                  "internalType": "uint256",
                                  "name": "bitlen",
                                  "type": "uint256"
                                }
                              ],
                              "internalType": "struct BigNumber",
                              "name": "value",
                              "type": "tuple"
                            }
                          ],
                          "internalType": "struct Zp",
                          "name": "a",
                          "type": "tuple"
                        },
                        {
                          "components": [
                            {
                              "components": [
                                {
                                  "internalType": "bytes",
                                  "name": "val",
                                  "type": "bytes"
                                },
                                {
                                  "internalType": "bool",
                                  "name": "neg",
                                  "type": "bool"
                                },
                                {
                                  "internalType": "uint256",
                                  "name": "bitlen",
                                  "type": "uint256"
                                }
                              ],
                              "internalType": "struct BigNumber",
                              "name": "value",
                              "type": "tuple"
                            }
                          ],
                          "internalType": "struct Zp",
                          "name": "b",
                          "type": "tuple"
                        }
                      ],
                      "internalType": "struct Zp_2",
                      "name": "a",
                      "type": "tuple"
                    },
                    {
                      "components": [
                        {
                          "components": [
                            {
                              "components": [
                                {
                                  "internalType": "bytes",
                                  "name": "val",
                                  "type": "bytes"
                                },
                                {
                                  "internalType": "bool",
                                  "name": "neg",
                                  "type": "bool"
                                },
                                {
                                  "internalType": "uint256",
                                  "name": "bitlen",
                                  "type": "uint256"
                                }
                              ],
                              "internalType": "struct BigNumber",
                              "name": "value",
                              "type": "tuple"
                            }
                          ],
                          "internalType": "struct Zp",
                          "name": "a",
                          "type": "tuple"
                        },
                        {
                          "components": [
                            {
                              "components": [
                                {
                                  "internalType": "bytes",
                                  "name": "val",
                                  "type": "bytes"
                                },
                                {
                                  "internalType": "bool",
                                  "name": "neg",
                                  "type": "bool"
                                },
                                {
                                  "internalType": "uint256",
                                  "name": "bitlen",
                                  "type": "uint256"
                                }
                              ],
                              "internalType": "struct BigNumber",
                              "name": "value",
                              "type": "tuple"
                            }
                          ],
                          "internalType": "struct Zp",
                          "name": "b",
                          "type": "tuple"
                        }
                      ],
                      "internalType": "struct Zp_2",
                      "name": "b",
                      "type": "tuple"
                    },
                    {
                      "components": [
                        {
                          "components": [
                            {
                              "components": [
                                {
                                  "internalType": "bytes",
                                  "name": "val",
                                  "type": "bytes"
                                },
                                {
                                  "internalType": "bool",
                                  "name": "neg",
                                  "type": "bool"
                                },
                                {
                                  "internalType": "uint256",
                                  "name": "bitlen",
                                  "type": "uint256"
                                }
                              ],
                              "internalType": "struct BigNumber",
                              "name": "value",
                              "type": "tuple"
                            }
                          ],
                          "internalType": "struct Zp",
                          "name": "a",
                          "type": "tuple"
                        },
                        {
                          "components": [
                            {
                              "components": [
                                {
                                  "internalType": "bytes",
                                  "name": "val",
                                  "type": "bytes"
                                },
                                {
                                  "internalType": "bool",
                                  "name": "neg",
                                  "type": "bool"
                                },
                                {
                                  "internalType": "uint256",
                                  "name": "bitlen",
                                  "type": "uint256"
                                }
                              ],
                              "internalType": "struct BigNumber",
                              "name": "value",
                              "type": "tuple"
                            }
                          ],
                          "internalType": "struct Zp",
                          "name": "b",
                          "type": "tuple"
                        }
                      ],
                      "internalType": "struct Zp_2",
                      "name": "c",
                      "type": "tuple"
                    }
                  ],
                  "internalType": "struct Zp_6",
                  "name": "a",
                  "type": "tuple"
                },
                {
                  "components": [
                    {
                      "components": [
                        {
                          "components": [
                            {
                              "components": [
                                {
                                  "internalType": "bytes",
                                  "name": "val",
                                  "type": "bytes"
                                },
                                {
                                  "internalType": "bool",
                                  "name": "neg",
                                  "type": "bool"
                                },
                                {
                                  "internalType": "uint256",
                                  "name": "bitlen",
                                  "type": "uint256"
                                }
                              ],
                              "internalType": "struct BigNumber",
                              "name": "value",
                              "type": "tuple"
                            }
                          ],
                          "internalType": "struct Zp",
                          "name": "a",
                          "type": "tuple"
                        },
                        {
                          "components": [
                            {
                              "components": [
                                {
                                  "internalType": "bytes",
                                  "name": "val",
                                  "type": "bytes"
                                },
                                {
                                  "internalType": "bool",
                                  "name": "neg",
                                  "type": "bool"
                                },
                                {
                                  "internalType": "uint256",
                                  "name": "bitlen",
                                  "type": "uint256"
                                }
                              ],
                              "internalType": "struct BigNumber",
                              "name": "value",
                              "type": "tuple"
                            }
                          ],
                          "internalType": "struct Zp",
                          "name": "b",
                          "type": "tuple"
                        }
                      ],
                      "internalType": "struct Zp_2",
                      "name": "a",
                      "type": "tuple"
                    },
                    {
                      "components": [
                        {
                          "components": [
                            {
                              "components": [
                                {
                                  "internalType": "bytes",
                                  "name": "val",
                                  "type": "bytes"
                                },
                                {
                                  "internalType": "bool",
                                  "name": "neg",
                                  "type": "bool"
                                },
                                {
                                  "internalType": "uint256",
                                  "name": "bitlen",
                                  "type": "uint256"
                                }
                              ],
                              "internalType": "struct BigNumber",
                              "name": "value",
                              "type": "tuple"
                            }
                          ],
                          "internalType": "struct Zp",
                          "name": "a",
                          "type": "tuple"
                        },
                        {
                          "components": [
                            {
                              "components": [
                                {
                                  "internalType": "bytes",
                                  "name": "val",
                                  "type": "bytes"
                                },
                                {
                                  "internalType": "bool",
                                  "name": "neg",
                                  "type": "bool"
                                },
                                {
                                  "internalType": "uint256",
                                  "name": "bitlen",
                                  "type": "uint256"
                                }
                              ],
                              "internalType": "struct BigNumber",
                              "name": "value",
                              "type": "tuple"
                            }
                          ],
                          "internalType": "struct Zp",
                          "name": "b",
                          "type": "tuple"
                        }
                      ],
                      "internalType": "struct Zp_2",
                      "name": "b",
                      "type": "tuple"
                    },
                    {
                      "components": [
                        {
                          "components": [
                            {
                              "components": [
                                {
                                  "internalType": "bytes",
                                  "name": "val",
                                  "type": "bytes"
                                },
                                {
                                  "internalType": "bool",
                                  "name": "neg",
                                  "type": "bool"
                                },
                                {
                                  "internalType": "uint256",
                                  "name": "bitlen",
                                  "type": "uint256"
                                }
                              ],
                              "internalType": "struct BigNumber",
                              "name": "value",
                              "type": "tuple"
                            }
                          ],
                          "internalType": "struct Zp",
                          "name": "a",
                          "type": "tuple"
                        },
                        {
                          "components": [
                            {
                              "components": [
                                {
                                  "internalType": "bytes",
                                  "name": "val",
                                  "type": "bytes"
                                },
                                {
                                  "internalType": "bool",
                                  "name": "neg",
                                  "type": "bool"
                                },
                                {
                                  "internalType": "uint256",
                                  "name": "bitlen",
                                  "type": "uint256"
                                }
                              ],
                              "internalType": "struct BigNumber",
                              "name": "value",
                              "type": "tuple"
                            }
                          ],
                          "internalType": "struct Zp",
                          "name": "b",
                          "type": "tuple"
                        }
                      ],
                      "internalType": "struct Zp_2",
                      "name": "c",
                      "type": "tuple"
                    }
                  ],
                  "internalType": "struct Zp_6",
                  "name": "b",
                  "type": "tuple"
                }
              ],
              "internalType": "struct Zp_12",
              "name": "y",
              "type": "tuple"
            }
          ],
          "internalType": "struct Point_Zp_12",
          "name": "",
          "type": "tuple"
        }
      ],
      "stateMutability": "view",
      "type": "function"
    },
    {
      "inputs": [
        {
          "components": [
            {
              "internalType": "enum PointType",
              "name": "pointType",
              "type": "uint8"
            },
            {
              "components": [
                {
                  "components": [
                    {
                      "components": [
                        {
                          "components": [
                            {
                              "components": [
                                {
                                  "internalType": "bytes",
                                  "name": "val",
                                  "type": "bytes"
                                },
                                {
                                  "internalType": "bool",
                                  "name": "neg",
                                  "type": "bool"
                                },
                                {
                                  "internalType": "uint256",
                                  "name": "bitlen",
                                  "type": "uint256"
                                }
                              ],
                              "internalType": "struct BigNumber",
                              "name": "value",
                              "type": "tuple"
                            }
                          ],
                          "internalType": "struct Zp",
                          "name": "a",
                          "type": "tuple"
                        },
                        {
                          "components": [
                            {
                              "components": [
                                {
                                  "internalType": "bytes",
                                  "name": "val",
                                  "type": "bytes"
                                },
                                {
                                  "internalType": "bool",
                                  "name": "neg",
                                  "type": "bool"
                                },
                                {
                                  "internalType": "uint256",
                                  "name": "bitlen",
                                  "type": "uint256"
                                }
                              ],
                              "internalType": "struct BigNumber",
                              "name": "value",
                              "type": "tuple"
                            }
                          ],
                          "internalType": "struct Zp",
                          "name": "b",
                          "type": "tuple"
                        }
                      ],
                      "internalType": "struct Zp_2",
                      "name": "a",
                      "type": "tuple"
                    },
                    {
                      "components": [
                        {
                          "components": [
                            {
                              "components": [
                                {
                                  "internalType": "bytes",
                                  "name": "val",
                                  "type": "bytes"
                                },
                                {
                                  "internalType": "bool",
                                  "name": "neg",
                                  "type": "bool"
                                },
                                {
                                  "internalType": "uint256",
                                  "name": "bitlen",
                                  "type": "uint256"
                                }
                              ],
                              "internalType": "struct BigNumber",
                              "name": "value",
                              "type": "tuple"
                            }
                          ],
                          "internalType": "struct Zp",
                          "name": "a",
                          "type": "tuple"
                        },
                        {
                          "components": [
                            {
                              "components": [
                                {
                                  "internalType": "bytes",
                                  "name": "val",
                                  "type": "bytes"
                                },
                                {
                                  "internalType": "bool",
                                  "name": "neg",
                                  "type": "bool"
                                },
                                {
                                  "internalType": "uint256",
                                  "name": "bitlen",
                                  "type": "uint256"
                                }
                              ],
                              "internalType": "struct BigNumber",
                              "name": "value",
                              "type": "tuple"
                            }
                          ],
                          "internalType": "struct Zp",
                          "name": "b",
                          "type": "tuple"
                        }
                      ],
                      "internalType": "struct Zp_2",
                      "name": "b",
                      "type": "tuple"
                    },
                    {
                      "components": [
                        {
                          "components": [
                            {
                              "components": [
                                {
                                  "internalType": "bytes",
                                  "name": "val",
                                  "type": "bytes"
                                },
                                {
                                  "internalType": "bool",
                                  "name": "neg",
                                  "type": "bool"
                                },
                                {
                                  "internalType": "uint256",
                                  "name": "bitlen",
                                  "type": "uint256"
                                }
                              ],
                              "internalType": "struct BigNumber",
                              "name": "value",
                              "type": "tuple"
                            }
                          ],
                          "internalType": "struct Zp",
                          "name": "a",
                          "type": "tuple"
                        },
                        {
                          "components": [
                            {
                              "components": [
                                {
                                  "internalType": "bytes",
                                  "name": "val",
                                  "type": "bytes"
                                },
                                {
                                  "internalType": "bool",
                                  "name": "neg",
                                  "type": "bool"
                                },
                                {
                                  "internalType": "uint256",
                                  "name": "bitlen",
                                  "type": "uint256"
                                }
                              ],
                              "internalType": "struct BigNumber",
                              "name": "value",
                              "type": "tuple"
                            }
                          ],
                          "internalType": "struct Zp",
                          "name": "b",
                          "type": "tuple"
                        }
                      ],
                      "internalType": "struct Zp_2",
                      "name": "c",
                      "type": "tuple"
                    }
                  ],
                  "internalType": "struct Zp_6",
                  "name": "a",
                  "type": "tuple"
                },
                {
                  "components": [
                    {
                      "components": [
                        {
                          "components": [
                            {
                              "components": [
                                {
                                  "internalType": "bytes",
                                  "name": "val",
                                  "type": "bytes"
                                },
                                {
                                  "internalType": "bool",
                                  "name": "neg",
                                  "type": "bool"
                                },
                                {
                                  "internalType": "uint256",
                                  "name": "bitlen",
                                  "type": "uint256"
                                }
                              ],
                              "internalType": "struct BigNumber",
                              "name": "value",
                              "type": "tuple"
                            }
                          ],
                          "internalType": "struct Zp",
                          "name": "a",
                          "type": "tuple"
                        },
                        {
                          "components": [
                            {
                              "components": [
                                {
                                  "internalType": "bytes",
                                  "name": "val",
                                  "type": "bytes"
                                },
                                {
                                  "internalType": "bool",
                                  "name": "neg",
                                  "type": "bool"
                                },
                                {
                                  "internalType": "uint256",
                                  "name": "bitlen",
                                  "type": "uint256"
                                }
                              ],
                              "internalType": "struct BigNumber",
                              "name": "value",
                              "type": "tuple"
                            }
                          ],
                          "internalType": "struct Zp",
                          "name": "b",
                          "type": "tuple"
                        }
                      ],
                      "internalType": "struct Zp_2",
                      "name": "a",
                      "type": "tuple"
                    },
                    {
                      "components": [
                        {
                          "components": [
                            {
                              "components": [
                                {
                                  "internalType": "bytes",
                                  "name": "val",
                                  "type": "bytes"
                                },
                                {
                                  "internalType": "bool",
                                  "name": "neg",
                                  "type": "bool"
                                },
                                {
                                  "internalType": "uint256",
                                  "name": "bitlen",
                                  "type": "uint256"
                                }
                              ],
                              "internalType": "struct BigNumber",
                              "name": "value",
                              "type": "tuple"
                            }
                          ],
                          "internalType": "struct Zp",
                          "name": "a",
                          "type": "tuple"
                        },
                        {
                          "components": [
                            {
                              "components": [
                                {
                                  "internalType": "bytes",
                                  "name": "val",
                                  "type": "bytes"
                                },
                                {
                                  "internalType": "bool",
                                  "name": "neg",
                                  "type": "bool"
                                },
                                {
                                  "internalType": "uint256",
                                  "name": "bitlen",
                                  "type": "uint256"
                                }
                              ],
                              "internalType": "struct BigNumber",
                              "name": "value",
                              "type": "tuple"
                            }
                          ],
                          "internalType": "struct Zp",
                          "name": "b",
                          "type": "tuple"
                        }
                      ],
                      "internalType": "struct Zp_2",
                      "name": "b",
                      "type": "tuple"
                    },
                    {
                      "components": [
                        {
                          "components": [
                            {
                              "components": [
                                {
                                  "internalType": "bytes",
                                  "name": "val",
                                  "type": "bytes"
                                },
                                {
                                  "internalType": "bool",
                                  "name": "neg",
                                  "type": "bool"
                                },
                                {
                                  "internalType": "uint256",
                                  "name": "bitlen",
                                  "type": "uint256"
                                }
                              ],
                              "internalType": "struct BigNumber",
                              "name": "value",
                              "type": "tuple"
                            }
                          ],
                          "internalType": "struct Zp",
                          "name": "a",
                          "type": "tuple"
                        },
                        {
                          "components": [
                            {
                              "components": [
                                {
                                  "internalType": "bytes",
                                  "name": "val",
                                  "type": "bytes"
                                },
                                {
                                  "internalType": "bool",
                                  "name": "neg",
                                  "type": "bool"
                                },
                                {
                                  "internalType": "uint256",
                                  "name": "bitlen",
                                  "type": "uint256"
                                }
                              ],
                              "internalType": "struct BigNumber",
                              "name": "value",
                              "type": "tuple"
                            }
                          ],
                          "internalType": "struct Zp",
                          "name": "b",
                          "type": "tuple"
                        }
                      ],
                      "internalType": "struct Zp_2",
                      "name": "c",
                      "type": "tuple"
                    }
                  ],
                  "internalType": "struct Zp_6",
                  "name": "b",
                  "type": "tuple"
                }
              ],
              "internalType": "struct Zp_12",
              "name": "x",
              "type": "tuple"
            },
            {
              "components": [
                {
                  "components": [
                    {
                      "components": [
                        {
                          "components": [
                            {
                              "components": [
                                {
                                  "internalType": "bytes",
                                  "name": "val",
                                  "type": "bytes"
                                },
                                {
                                  "internalType": "bool",
                                  "name": "neg",
                                  "type": "bool"
                                },
                                {
                                  "internalType": "uint256",
                                  "name": "bitlen",
                                  "type": "uint256"
                                }
                              ],
                              "internalType": "struct BigNumber",
                              "name": "value",
                              "type": "tuple"
                            }
                          ],
                          "internalType": "struct Zp",
                          "name": "a",
                          "type": "tuple"
                        },
                        {
                          "components": [
                            {
                              "components": [
                                {
                                  "internalType": "bytes",
                                  "name": "val",
                                  "type": "bytes"
                                },
                                {
                                  "internalType": "bool",
                                  "name": "neg",
                                  "type": "bool"
                                },
                                {
                                  "internalType": "uint256",
                                  "name": "bitlen",
                                  "type": "uint256"
                                }
                              ],
                              "internalType": "struct BigNumber",
                              "name": "value",
                              "type": "tuple"
                            }
                          ],
                          "internalType": "struct Zp",
                          "name": "b",
                          "type": "tuple"
                        }
                      ],
                      "internalType": "struct Zp_2",
                      "name": "a",
                      "type": "tuple"
                    },
                    {
                      "components": [
                        {
                          "components": [
                            {
                              "components": [
                                {
                                  "internalType": "bytes",
                                  "name": "val",
                                  "type": "bytes"
                                },
                                {
                                  "internalType": "bool",
                                  "name": "neg",
                                  "type": "bool"
                                },
                                {
                                  "internalType": "uint256",
                                  "name": "bitlen",
                                  "type": "uint256"
                                }
                              ],
                              "internalType": "struct BigNumber",
                              "name": "value",
                              "type": "tuple"
                            }
                          ],
                          "internalType": "struct Zp",
                          "name": "a",
                          "type": "tuple"
                        },
                        {
                          "components": [
                            {
                              "components": [
                                {
                                  "internalType": "bytes",
                                  "name": "val",
                                  "type": "bytes"
                                },
                                {
                                  "internalType": "bool",
                                  "name": "neg",
                                  "type": "bool"
                                },
                                {
                                  "internalType": "uint256",
                                  "name": "bitlen",
                                  "type": "uint256"
                                }
                              ],
                              "internalType": "struct BigNumber",
                              "name": "value",
                              "type": "tuple"
                            }
                          ],
                          "internalType": "struct Zp",
                          "name": "b",
                          "type": "tuple"
                        }
                      ],
                      "internalType": "struct Zp_2",
                      "name": "b",
                      "type": "tuple"
                    },
                    {
                      "components": [
                        {
                          "components": [
                            {
                              "components": [
                                {
                                  "internalType": "bytes",
                                  "name": "val",
                                  "type": "bytes"
                                },
                                {
                                  "internalType": "bool",
                                  "name": "neg",
                                  "type": "bool"
                                },
                                {
                                  "internalType": "uint256",
                                  "name": "bitlen",
                                  "type": "uint256"
                                }
                              ],
                              "internalType": "struct BigNumber",
                              "name": "value",
                              "type": "tuple"
                            }
                          ],
                          "internalType": "struct Zp",
                          "name": "a",
                          "type": "tuple"
                        },
                        {
                          "components": [
                            {
                              "components": [
                                {
                                  "internalType": "bytes",
                                  "name": "val",
                                  "type": "bytes"
                                },
                                {
                                  "internalType": "bool",
                                  "name": "neg",
                                  "type": "bool"
                                },
                                {
                                  "internalType": "uint256",
                                  "name": "bitlen",
                                  "type": "uint256"
                                }
                              ],
                              "internalType": "struct BigNumber",
                              "name": "value",
                              "type": "tuple"
                            }
                          ],
                          "internalType": "struct Zp",
                          "name": "b",
                          "type": "tuple"
                        }
                      ],
                      "internalType": "struct Zp_2",
                      "name": "c",
                      "type": "tuple"
                    }
                  ],
                  "internalType": "struct Zp_6",
                  "name": "a",
                  "type": "tuple"
                },
                {
                  "components": [
                    {
                      "components": [
                        {
                          "components": [
                            {
                              "components": [
                                {
                                  "internalType": "bytes",
                                  "name": "val",
                                  "type": "bytes"
                                },
                                {
                                  "internalType": "bool",
                                  "name": "neg",
                                  "type": "bool"
                                },
                                {
                                  "internalType": "uint256",
                                  "name": "bitlen",
                                  "type": "uint256"
                                }
                              ],
                              "internalType": "struct BigNumber",
                              "name": "value",
                              "type": "tuple"
                            }
                          ],
                          "internalType": "struct Zp",
                          "name": "a",
                          "type": "tuple"
                        },
                        {
                          "components": [
                            {
                              "components": [
                                {
                                  "internalType": "bytes",
                                  "name": "val",
                                  "type": "bytes"
                                },
                                {
                                  "internalType": "bool",
                                  "name": "neg",
                                  "type": "bool"
                                },
                                {
                                  "internalType": "uint256",
                                  "name": "bitlen",
                                  "type": "uint256"
                                }
                              ],
                              "internalType": "struct BigNumber",
                              "name": "value",
                              "type": "tuple"
                            }
                          ],
                          "internalType": "struct Zp",
                          "name": "b",
                          "type": "tuple"
                        }
                      ],
                      "internalType": "struct Zp_2",
                      "name": "a",
                      "type": "tuple"
                    },
                    {
                      "components": [
                        {
                          "components": [
                            {
                              "components": [
                                {
                                  "internalType": "bytes",
                                  "name": "val",
                                  "type": "bytes"
                                },
                                {
                                  "internalType": "bool",
                                  "name": "neg",
                                  "type": "bool"
                                },
                                {
                                  "internalType": "uint256",
                                  "name": "bitlen",
                                  "type": "uint256"
                                }
                              ],
                              "internalType": "struct BigNumber",
                              "name": "value",
                              "type": "tuple"
                            }
                          ],
                          "internalType": "struct Zp",
                          "name": "a",
                          "type": "tuple"
                        },
                        {
                          "components": [
                            {
                              "components": [
                                {
                                  "internalType": "bytes",
                                  "name": "val",
                                  "type": "bytes"
                                },
                                {
                                  "internalType": "bool",
                                  "name": "neg",
                                  "type": "bool"
                                },
                                {
                                  "internalType": "uint256",
                                  "name": "bitlen",
                                  "type": "uint256"
                                }
                              ],
                              "internalType": "struct BigNumber",
                              "name": "value",
                              "type": "tuple"
                            }
                          ],
                          "internalType": "struct Zp",
                          "name": "b",
                          "type": "tuple"
                        }
                      ],
                      "internalType": "struct Zp_2",
                      "name": "b",
                      "type": "tuple"
                    },
                    {
                      "components": [
                        {
                          "components": [
                            {
                              "components": [
                                {
                                  "internalType": "bytes",
                                  "name": "val",
                                  "type": "bytes"
                                },
                                {
                                  "internalType": "bool",
                                  "name": "neg",
                                  "type": "bool"
                                },
                                {
                                  "internalType": "uint256",
                                  "name": "bitlen",
                                  "type": "uint256"
                                }
                              ],
                              "internalType": "struct BigNumber",
                              "name": "value",
                              "type": "tuple"
                            }
                          ],
                          "internalType": "struct Zp",
                          "name": "a",
                          "type": "tuple"
                        },
                        {
                          "components": [
                            {
                              "components": [
                                {
                                  "internalType": "bytes",
                                  "name": "val",
                                  "type": "bytes"
                                },
                                {
                                  "internalType": "bool",
                                  "name": "neg",
                                  "type": "bool"
                                },
                                {
                                  "internalType": "uint256",
                                  "name": "bitlen",
                                  "type": "uint256"
                                }
                              ],
                              "internalType": "struct BigNumber",
                              "name": "value",
                              "type": "tuple"
                            }
                          ],
                          "internalType": "struct Zp",
                          "name": "b",
                          "type": "tuple"
                        }
                      ],
                      "internalType": "struct Zp_2",
                      "name": "c",
                      "type": "tuple"
                    }
                  ],
                  "internalType": "struct Zp_6",
                  "name": "b",
                  "type": "tuple"
                }
              ],
              "internalType": "struct Zp_12",
              "name": "y",
              "type": "tuple"
            }
          ],
          "internalType": "struct Point_Zp_12",
          "name": "self",
          "type": "tuple"
        }
      ],
      "name": "negate",
      "outputs": [
        {
          "components": [
            {
              "internalType": "enum PointType",
              "name": "pointType",
              "type": "uint8"
            },
            {
              "components": [
                {
                  "components": [
                    {
                      "components": [
                        {
                          "components": [
                            {
                              "components": [
                                {
                                  "internalType": "bytes",
                                  "name": "val",
                                  "type": "bytes"
                                },
                                {
                                  "internalType": "bool",
                                  "name": "neg",
                                  "type": "bool"
                                },
                                {
                                  "internalType": "uint256",
                                  "name": "bitlen",
                                  "type": "uint256"
                                }
                              ],
                              "internalType": "struct BigNumber",
                              "name": "value",
                              "type": "tuple"
                            }
                          ],
                          "internalType": "struct Zp",
                          "name": "a",
                          "type": "tuple"
                        },
                        {
                          "components": [
                            {
                              "components": [
                                {
                                  "internalType": "bytes",
                                  "name": "val",
                                  "type": "bytes"
                                },
                                {
                                  "internalType": "bool",
                                  "name": "neg",
                                  "type": "bool"
                                },
                                {
                                  "internalType": "uint256",
                                  "name": "bitlen",
                                  "type": "uint256"
                                }
                              ],
                              "internalType": "struct BigNumber",
                              "name": "value",
                              "type": "tuple"
                            }
                          ],
                          "internalType": "struct Zp",
                          "name": "b",
                          "type": "tuple"
                        }
                      ],
                      "internalType": "struct Zp_2",
                      "name": "a",
                      "type": "tuple"
                    },
                    {
                      "components": [
                        {
                          "components": [
                            {
                              "components": [
                                {
                                  "internalType": "bytes",
                                  "name": "val",
                                  "type": "bytes"
                                },
                                {
                                  "internalType": "bool",
                                  "name": "neg",
                                  "type": "bool"
                                },
                                {
                                  "internalType": "uint256",
                                  "name": "bitlen",
                                  "type": "uint256"
                                }
                              ],
                              "internalType": "struct BigNumber",
                              "name": "value",
                              "type": "tuple"
                            }
                          ],
                          "internalType": "struct Zp",
                          "name": "a",
                          "type": "tuple"
                        },
                        {
                          "components": [
                            {
                              "components": [
                                {
                                  "internalType": "bytes",
                                  "name": "val",
                                  "type": "bytes"
                                },
                                {
                                  "internalType": "bool",
                                  "name": "neg",
                                  "type": "bool"
                                },
                                {
                                  "internalType": "uint256",
                                  "name": "bitlen",
                                  "type": "uint256"
                                }
                              ],
                              "internalType": "struct BigNumber",
                              "name": "value",
                              "type": "tuple"
                            }
                          ],
                          "internalType": "struct Zp",
                          "name": "b",
                          "type": "tuple"
                        }
                      ],
                      "internalType": "struct Zp_2",
                      "name": "b",
                      "type": "tuple"
                    },
                    {
                      "components": [
                        {
                          "components": [
                            {
                              "components": [
                                {
                                  "internalType": "bytes",
                                  "name": "val",
                                  "type": "bytes"
                                },
                                {
                                  "internalType": "bool",
                                  "name": "neg",
                                  "type": "bool"
                                },
                                {
                                  "internalType": "uint256",
                                  "name": "bitlen",
                                  "type": "uint256"
                                }
                              ],
                              "internalType": "struct BigNumber",
                              "name": "value",
                              "type": "tuple"
                            }
                          ],
                          "internalType": "struct Zp",
                          "name": "a",
                          "type": "tuple"
                        },
                        {
                          "components": [
                            {
                              "components": [
                                {
                                  "internalType": "bytes",
                                  "name": "val",
                                  "type": "bytes"
                                },
                                {
                                  "internalType": "bool",
                                  "name": "neg",
                                  "type": "bool"
                                },
                                {
                                  "internalType": "uint256",
                                  "name": "bitlen",
                                  "type": "uint256"
                                }
                              ],
                              "internalType": "struct BigNumber",
                              "name": "value",
                              "type": "tuple"
                            }
                          ],
                          "internalType": "struct Zp",
                          "name": "b",
                          "type": "tuple"
                        }
                      ],
                      "internalType": "struct Zp_2",
                      "name": "c",
                      "type": "tuple"
                    }
                  ],
                  "internalType": "struct Zp_6",
                  "name": "a",
                  "type": "tuple"
                },
                {
                  "components": [
                    {
                      "components": [
                        {
                          "components": [
                            {
                              "components": [
                                {
                                  "internalType": "bytes",
                                  "name": "val",
                                  "type": "bytes"
                                },
                                {
                                  "internalType": "bool",
                                  "name": "neg",
                                  "type": "bool"
                                },
                                {
                                  "internalType": "uint256",
                                  "name": "bitlen",
                                  "type": "uint256"
                                }
                              ],
                              "internalType": "struct BigNumber",
                              "name": "value",
                              "type": "tuple"
                            }
                          ],
                          "internalType": "struct Zp",
                          "name": "a",
                          "type": "tuple"
                        },
                        {
                          "components": [
                            {
                              "components": [
                                {
                                  "internalType": "bytes",
                                  "name": "val",
                                  "type": "bytes"
                                },
                                {
                                  "internalType": "bool",
                                  "name": "neg",
                                  "type": "bool"
                                },
                                {
                                  "internalType": "uint256",
                                  "name": "bitlen",
                                  "type": "uint256"
                                }
                              ],
                              "internalType": "struct BigNumber",
                              "name": "value",
                              "type": "tuple"
                            }
                          ],
                          "internalType": "struct Zp",
                          "name": "b",
                          "type": "tuple"
                        }
                      ],
                      "internalType": "struct Zp_2",
                      "name": "a",
                      "type": "tuple"
                    },
                    {
                      "components": [
                        {
                          "components": [
                            {
                              "components": [
                                {
                                  "internalType": "bytes",
                                  "name": "val",
                                  "type": "bytes"
                                },
                                {
                                  "internalType": "bool",
                                  "name": "neg",
                                  "type": "bool"
                                },
                                {
                                  "internalType": "uint256",
                                  "name": "bitlen",
                                  "type": "uint256"
                                }
                              ],
                              "internalType": "struct BigNumber",
                              "name": "value",
                              "type": "tuple"
                            }
                          ],
                          "internalType": "struct Zp",
                          "name": "a",
                          "type": "tuple"
                        },
                        {
                          "components": [
                            {
                              "components": [
                                {
                                  "internalType": "bytes",
                                  "name": "val",
                                  "type": "bytes"
                                },
                                {
                                  "internalType": "bool",
                                  "name": "neg",
                                  "type": "bool"
                                },
                                {
                                  "internalType": "uint256",
                                  "name": "bitlen",
                                  "type": "uint256"
                                }
                              ],
                              "internalType": "struct BigNumber",
                              "name": "value",
                              "type": "tuple"
                            }
                          ],
                          "internalType": "struct Zp",
                          "name": "b",
                          "type": "tuple"
                        }
                      ],
                      "internalType": "struct Zp_2",
                      "name": "b",
                      "type": "tuple"
                    },
                    {
                      "components": [
                        {
                          "components": [
                            {
                              "components": [
                                {
                                  "internalType": "bytes",
                                  "name": "val",
                                  "type": "bytes"
                                },
                                {
                                  "internalType": "bool",
                                  "name": "neg",
                                  "type": "bool"
                                },
                                {
                                  "internalType": "uint256",
                                  "name": "bitlen",
                                  "type": "uint256"
                                }
                              ],
                              "internalType": "struct BigNumber",
                              "name": "value",
                              "type": "tuple"
                            }
                          ],
                          "internalType": "struct Zp",
                          "name": "a",
                          "type": "tuple"
                        },
                        {
                          "components": [
                            {
                              "components": [
                                {
                                  "internalType": "bytes",
                                  "name": "val",
                                  "type": "bytes"
                                },
                                {
                                  "internalType": "bool",
                                  "name": "neg",
                                  "type": "bool"
                                },
                                {
                                  "internalType": "uint256",
                                  "name": "bitlen",
                                  "type": "uint256"
                                }
                              ],
                              "internalType": "struct BigNumber",
                              "name": "value",
                              "type": "tuple"
                            }
                          ],
                          "internalType": "struct Zp",
                          "name": "b",
                          "type": "tuple"
                        }
                      ],
                      "internalType": "struct Zp_2",
                      "name": "c",
                      "type": "tuple"
                    }
                  ],
                  "internalType": "struct Zp_6",
                  "name": "b",
                  "type": "tuple"
                }
              ],
              "internalType": "struct Zp_12",
              "name": "x",
              "type": "tuple"
            },
            {
              "components": [
                {
                  "components": [
                    {
                      "components": [
                        {
                          "components": [
                            {
                              "components": [
                                {
                                  "internalType": "bytes",
                                  "name": "val",
                                  "type": "bytes"
                                },
                                {
                                  "internalType": "bool",
                                  "name": "neg",
                                  "type": "bool"
                                },
                                {
                                  "internalType": "uint256",
                                  "name": "bitlen",
                                  "type": "uint256"
                                }
                              ],
                              "internalType": "struct BigNumber",
                              "name": "value",
                              "type": "tuple"
                            }
                          ],
                          "internalType": "struct Zp",
                          "name": "a",
                          "type": "tuple"
                        },
                        {
                          "components": [
                            {
                              "components": [
                                {
                                  "internalType": "bytes",
                                  "name": "val",
                                  "type": "bytes"
                                },
                                {
                                  "internalType": "bool",
                                  "name": "neg",
                                  "type": "bool"
                                },
                                {
                                  "internalType": "uint256",
                                  "name": "bitlen",
                                  "type": "uint256"
                                }
                              ],
                              "internalType": "struct BigNumber",
                              "name": "value",
                              "type": "tuple"
                            }
                          ],
                          "internalType": "struct Zp",
                          "name": "b",
                          "type": "tuple"
                        }
                      ],
                      "internalType": "struct Zp_2",
                      "name": "a",
                      "type": "tuple"
                    },
                    {
                      "components": [
                        {
                          "components": [
                            {
                              "components": [
                                {
                                  "internalType": "bytes",
                                  "name": "val",
                                  "type": "bytes"
                                },
                                {
                                  "internalType": "bool",
                                  "name": "neg",
                                  "type": "bool"
                                },
                                {
                                  "internalType": "uint256",
                                  "name": "bitlen",
                                  "type": "uint256"
                                }
                              ],
                              "internalType": "struct BigNumber",
                              "name": "value",
                              "type": "tuple"
                            }
                          ],
                          "internalType": "struct Zp",
                          "name": "a",
                          "type": "tuple"
                        },
                        {
                          "components": [
                            {
                              "components": [
                                {
                                  "internalType": "bytes",
                                  "name": "val",
                                  "type": "bytes"
                                },
                                {
                                  "internalType": "bool",
                                  "name": "neg",
                                  "type": "bool"
                                },
                                {
                                  "internalType": "uint256",
                                  "name": "bitlen",
                                  "type": "uint256"
                                }
                              ],
                              "internalType": "struct BigNumber",
                              "name": "value",
                              "type": "tuple"
                            }
                          ],
                          "internalType": "struct Zp",
                          "name": "b",
                          "type": "tuple"
                        }
                      ],
                      "internalType": "struct Zp_2",
                      "name": "b",
                      "type": "tuple"
                    },
                    {
                      "components": [
                        {
                          "components": [
                            {
                              "components": [
                                {
                                  "internalType": "bytes",
                                  "name": "val",
                                  "type": "bytes"
                                },
                                {
                                  "internalType": "bool",
                                  "name": "neg",
                                  "type": "bool"
                                },
                                {
                                  "internalType": "uint256",
                                  "name": "bitlen",
                                  "type": "uint256"
                                }
                              ],
                              "internalType": "struct BigNumber",
                              "name": "value",
                              "type": "tuple"
                            }
                          ],
                          "internalType": "struct Zp",
                          "name": "a",
                          "type": "tuple"
                        },
                        {
                          "components": [
                            {
                              "components": [
                                {
                                  "internalType": "bytes",
                                  "name": "val",
                                  "type": "bytes"
                                },
                                {
                                  "internalType": "bool",
                                  "name": "neg",
                                  "type": "bool"
                                },
                                {
                                  "internalType": "uint256",
                                  "name": "bitlen",
                                  "type": "uint256"
                                }
                              ],
                              "internalType": "struct BigNumber",
                              "name": "value",
                              "type": "tuple"
                            }
                          ],
                          "internalType": "struct Zp",
                          "name": "b",
                          "type": "tuple"
                        }
                      ],
                      "internalType": "struct Zp_2",
                      "name": "c",
                      "type": "tuple"
                    }
                  ],
                  "internalType": "struct Zp_6",
                  "name": "a",
                  "type": "tuple"
                },
                {
                  "components": [
                    {
                      "components": [
                        {
                          "components": [
                            {
                              "components": [
                                {
                                  "internalType": "bytes",
                                  "name": "val",
                                  "type": "bytes"
                                },
                                {
                                  "internalType": "bool",
                                  "name": "neg",
                                  "type": "bool"
                                },
                                {
                                  "internalType": "uint256",
                                  "name": "bitlen",
                                  "type": "uint256"
                                }
                              ],
                              "internalType": "struct BigNumber",
                              "name": "value",
                              "type": "tuple"
                            }
                          ],
                          "internalType": "struct Zp",
                          "name": "a",
                          "type": "tuple"
                        },
                        {
                          "components": [
                            {
                              "components": [
                                {
                                  "internalType": "bytes",
                                  "name": "val",
                                  "type": "bytes"
                                },
                                {
                                  "internalType": "bool",
                                  "name": "neg",
                                  "type": "bool"
                                },
                                {
                                  "internalType": "uint256",
                                  "name": "bitlen",
                                  "type": "uint256"
                                }
                              ],
                              "internalType": "struct BigNumber",
                              "name": "value",
                              "type": "tuple"
                            }
                          ],
                          "internalType": "struct Zp",
                          "name": "b",
                          "type": "tuple"
                        }
                      ],
                      "internalType": "struct Zp_2",
                      "name": "a",
                      "type": "tuple"
                    },
                    {
                      "components": [
                        {
                          "components": [
                            {
                              "components": [
                                {
                                  "internalType": "bytes",
                                  "name": "val",
                                  "type": "bytes"
                                },
                                {
                                  "internalType": "bool",
                                  "name": "neg",
                                  "type": "bool"
                                },
                                {
                                  "internalType": "uint256",
                                  "name": "bitlen",
                                  "type": "uint256"
                                }
                              ],
                              "internalType": "struct BigNumber",
                              "name": "value",
                              "type": "tuple"
                            }
                          ],
                          "internalType": "struct Zp",
                          "name": "a",
                          "type": "tuple"
                        },
                        {
                          "components": [
                            {
                              "components": [
                                {
                                  "internalType": "bytes",
                                  "name": "val",
                                  "type": "bytes"
                                },
                                {
                                  "internalType": "bool",
                                  "name": "neg",
                                  "type": "bool"
                                },
                                {
                                  "internalType": "uint256",
                                  "name": "bitlen",
                                  "type": "uint256"
                                }
                              ],
                              "internalType": "struct BigNumber",
                              "name": "value",
                              "type": "tuple"
                            }
                          ],
                          "internalType": "struct Zp",
                          "name": "b",
                          "type": "tuple"
                        }
                      ],
                      "internalType": "struct Zp_2",
                      "name": "b",
                      "type": "tuple"
                    },
                    {
                      "components": [
                        {
                          "components": [
                            {
                              "components": [
                                {
                                  "internalType": "bytes",
                                  "name": "val",
                                  "type": "bytes"
                                },
                                {
                                  "internalType": "bool",
                                  "name": "neg",
                                  "type": "bool"
                                },
                                {
                                  "internalType": "uint256",
                                  "name": "bitlen",
                                  "type": "uint256"
                                }
                              ],
                              "internalType": "struct BigNumber",
                              "name": "value",
                              "type": "tuple"
                            }
                          ],
                          "internalType": "struct Zp",
                          "name": "a",
                          "type": "tuple"
                        },
                        {
                          "components": [
                            {
                              "components": [
                                {
                                  "internalType": "bytes",
                                  "name": "val",
                                  "type": "bytes"
                                },
                                {
                                  "internalType": "bool",
                                  "name": "neg",
                                  "type": "bool"
                                },
                                {
                                  "internalType": "uint256",
                                  "name": "bitlen",
                                  "type": "uint256"
                                }
                              ],
                              "internalType": "struct BigNumber",
                              "name": "value",
                              "type": "tuple"
                            }
                          ],
                          "internalType": "struct Zp",
                          "name": "b",
                          "type": "tuple"
                        }
                      ],
                      "internalType": "struct Zp_2",
                      "name": "c",
                      "type": "tuple"
                    }
                  ],
                  "internalType": "struct Zp_6",
                  "name": "b",
                  "type": "tuple"
                }
              ],
              "internalType": "struct Zp_12",
              "name": "y",
              "type": "tuple"
            }
          ],
          "internalType": "struct Point_Zp_12",
          "name": "",
          "type": "tuple"
        }
      ],
      "stateMutability": "view",
      "type": "function"
    },
    {
      "inputs": [
        {
          "internalType": "enum PointType",
          "name": "pointType",
          "type": "uint8"
        },
        {
          "components": [
            {
              "components": [
                {
                  "components": [
                    {
                      "components": [
                        {
                          "components": [
                            {
                              "internalType": "bytes",
                              "name": "val",
                              "type": "bytes"
                            },
                            {
                              "internalType": "bool",
                              "name": "neg",
                              "type": "bool"
                            },
                            {
                              "internalType": "uint256",
                              "name": "bitlen",
                              "type": "uint256"
                            }
                          ],
                          "internalType": "struct BigNumber",
                          "name": "value",
                          "type": "tuple"
                        }
                      ],
                      "internalType": "struct Zp",
                      "name": "a",
                      "type": "tuple"
                    },
                    {
                      "components": [
                        {
                          "components": [
                            {
                              "internalType": "bytes",
                              "name": "val",
                              "type": "bytes"
                            },
                            {
                              "internalType": "bool",
                              "name": "neg",
                              "type": "bool"
                            },
                            {
                              "internalType": "uint256",
                              "name": "bitlen",
                              "type": "uint256"
                            }
                          ],
                          "internalType": "struct BigNumber",
                          "name": "value",
                          "type": "tuple"
                        }
                      ],
                      "internalType": "struct Zp",
                      "name": "b",
                      "type": "tuple"
                    }
                  ],
                  "internalType": "struct Zp_2",
                  "name": "a",
                  "type": "tuple"
                },
                {
                  "components": [
                    {
                      "components": [
                        {
                          "components": [
                            {
                              "internalType": "bytes",
                              "name": "val",
                              "type": "bytes"
                            },
                            {
                              "internalType": "bool",
                              "name": "neg",
                              "type": "bool"
                            },
                            {
                              "internalType": "uint256",
                              "name": "bitlen",
                              "type": "uint256"
                            }
                          ],
                          "internalType": "struct BigNumber",
                          "name": "value",
                          "type": "tuple"
                        }
                      ],
                      "internalType": "struct Zp",
                      "name": "a",
                      "type": "tuple"
                    },
                    {
                      "components": [
                        {
                          "components": [
                            {
                              "internalType": "bytes",
                              "name": "val",
                              "type": "bytes"
                            },
                            {
                              "internalType": "bool",
                              "name": "neg",
                              "type": "bool"
                            },
                            {
                              "internalType": "uint256",
                              "name": "bitlen",
                              "type": "uint256"
                            }
                          ],
                          "internalType": "struct BigNumber",
                          "name": "value",
                          "type": "tuple"
                        }
                      ],
                      "internalType": "struct Zp",
                      "name": "b",
                      "type": "tuple"
                    }
                  ],
                  "internalType": "struct Zp_2",
                  "name": "b",
                  "type": "tuple"
                },
                {
                  "components": [
                    {
                      "components": [
                        {
                          "components": [
                            {
                              "internalType": "bytes",
                              "name": "val",
                              "type": "bytes"
                            },
                            {
                              "internalType": "bool",
                              "name": "neg",
                              "type": "bool"
                            },
                            {
                              "internalType": "uint256",
                              "name": "bitlen",
                              "type": "uint256"
                            }
                          ],
                          "internalType": "struct BigNumber",
                          "name": "value",
                          "type": "tuple"
                        }
                      ],
                      "internalType": "struct Zp",
                      "name": "a",
                      "type": "tuple"
                    },
                    {
                      "components": [
                        {
                          "components": [
                            {
                              "internalType": "bytes",
                              "name": "val",
                              "type": "bytes"
                            },
                            {
                              "internalType": "bool",
                              "name": "neg",
                              "type": "bool"
                            },
                            {
                              "internalType": "uint256",
                              "name": "bitlen",
                              "type": "uint256"
                            }
                          ],
                          "internalType": "struct BigNumber",
                          "name": "value",
                          "type": "tuple"
                        }
                      ],
                      "internalType": "struct Zp",
                      "name": "b",
                      "type": "tuple"
                    }
                  ],
                  "internalType": "struct Zp_2",
                  "name": "c",
                  "type": "tuple"
                }
              ],
              "internalType": "struct Zp_6",
              "name": "a",
              "type": "tuple"
            },
            {
              "components": [
                {
                  "components": [
                    {
                      "components": [
                        {
                          "components": [
                            {
                              "internalType": "bytes",
                              "name": "val",
                              "type": "bytes"
                            },
                            {
                              "internalType": "bool",
                              "name": "neg",
                              "type": "bool"
                            },
                            {
                              "internalType": "uint256",
                              "name": "bitlen",
                              "type": "uint256"
                            }
                          ],
                          "internalType": "struct BigNumber",
                          "name": "value",
                          "type": "tuple"
                        }
                      ],
                      "internalType": "struct Zp",
                      "name": "a",
                      "type": "tuple"
                    },
                    {
                      "components": [
                        {
                          "components": [
                            {
                              "internalType": "bytes",
                              "name": "val",
                              "type": "bytes"
                            },
                            {
                              "internalType": "bool",
                              "name": "neg",
                              "type": "bool"
                            },
                            {
                              "internalType": "uint256",
                              "name": "bitlen",
                              "type": "uint256"
                            }
                          ],
                          "internalType": "struct BigNumber",
                          "name": "value",
                          "type": "tuple"
                        }
                      ],
                      "internalType": "struct Zp",
                      "name": "b",
                      "type": "tuple"
                    }
                  ],
                  "internalType": "struct Zp_2",
                  "name": "a",
                  "type": "tuple"
                },
                {
                  "components": [
                    {
                      "components": [
                        {
                          "components": [
                            {
                              "internalType": "bytes",
                              "name": "val",
                              "type": "bytes"
                            },
                            {
                              "internalType": "bool",
                              "name": "neg",
                              "type": "bool"
                            },
                            {
                              "internalType": "uint256",
                              "name": "bitlen",
                              "type": "uint256"
                            }
                          ],
                          "internalType": "struct BigNumber",
                          "name": "value",
                          "type": "tuple"
                        }
                      ],
                      "internalType": "struct Zp",
                      "name": "a",
                      "type": "tuple"
                    },
                    {
                      "components": [
                        {
                          "components": [
                            {
                              "internalType": "bytes",
                              "name": "val",
                              "type": "bytes"
                            },
                            {
                              "internalType": "bool",
                              "name": "neg",
                              "type": "bool"
                            },
                            {
                              "internalType": "uint256",
                              "name": "bitlen",
                              "type": "uint256"
                            }
                          ],
                          "internalType": "struct BigNumber",
                          "name": "value",
                          "type": "tuple"
                        }
                      ],
                      "internalType": "struct Zp",
                      "name": "b",
                      "type": "tuple"
                    }
                  ],
                  "internalType": "struct Zp_2",
                  "name": "b",
                  "type": "tuple"
                },
                {
                  "components": [
                    {
                      "components": [
                        {
                          "components": [
                            {
                              "internalType": "bytes",
                              "name": "val",
                              "type": "bytes"
                            },
                            {
                              "internalType": "bool",
                              "name": "neg",
                              "type": "bool"
                            },
                            {
                              "internalType": "uint256",
                              "name": "bitlen",
                              "type": "uint256"
                            }
                          ],
                          "internalType": "struct BigNumber",
                          "name": "value",
                          "type": "tuple"
                        }
                      ],
                      "internalType": "struct Zp",
                      "name": "a",
                      "type": "tuple"
                    },
                    {
                      "components": [
                        {
                          "components": [
                            {
                              "internalType": "bytes",
                              "name": "val",
                              "type": "bytes"
                            },
                            {
                              "internalType": "bool",
                              "name": "neg",
                              "type": "bool"
                            },
                            {
                              "internalType": "uint256",
                              "name": "bitlen",
                              "type": "uint256"
                            }
                          ],
                          "internalType": "struct BigNumber",
                          "name": "value",
                          "type": "tuple"
                        }
                      ],
                      "internalType": "struct Zp",
                      "name": "b",
                      "type": "tuple"
                    }
                  ],
                  "internalType": "struct Zp_2",
                  "name": "c",
                  "type": "tuple"
                }
              ],
              "internalType": "struct Zp_6",
              "name": "b",
              "type": "tuple"
            }
          ],
          "internalType": "struct Zp_12",
          "name": "x",
          "type": "tuple"
        },
        {
          "components": [
            {
              "components": [
                {
                  "components": [
                    {
                      "components": [
                        {
                          "components": [
                            {
                              "internalType": "bytes",
                              "name": "val",
                              "type": "bytes"
                            },
                            {
                              "internalType": "bool",
                              "name": "neg",
                              "type": "bool"
                            },
                            {
                              "internalType": "uint256",
                              "name": "bitlen",
                              "type": "uint256"
                            }
                          ],
                          "internalType": "struct BigNumber",
                          "name": "value",
                          "type": "tuple"
                        }
                      ],
                      "internalType": "struct Zp",
                      "name": "a",
                      "type": "tuple"
                    },
                    {
                      "components": [
                        {
                          "components": [
                            {
                              "internalType": "bytes",
                              "name": "val",
                              "type": "bytes"
                            },
                            {
                              "internalType": "bool",
                              "name": "neg",
                              "type": "bool"
                            },
                            {
                              "internalType": "uint256",
                              "name": "bitlen",
                              "type": "uint256"
                            }
                          ],
                          "internalType": "struct BigNumber",
                          "name": "value",
                          "type": "tuple"
                        }
                      ],
                      "internalType": "struct Zp",
                      "name": "b",
                      "type": "tuple"
                    }
                  ],
                  "internalType": "struct Zp_2",
                  "name": "a",
                  "type": "tuple"
                },
                {
                  "components": [
                    {
                      "components": [
                        {
                          "components": [
                            {
                              "internalType": "bytes",
                              "name": "val",
                              "type": "bytes"
                            },
                            {
                              "internalType": "bool",
                              "name": "neg",
                              "type": "bool"
                            },
                            {
                              "internalType": "uint256",
                              "name": "bitlen",
                              "type": "uint256"
                            }
                          ],
                          "internalType": "struct BigNumber",
                          "name": "value",
                          "type": "tuple"
                        }
                      ],
                      "internalType": "struct Zp",
                      "name": "a",
                      "type": "tuple"
                    },
                    {
                      "components": [
                        {
                          "components": [
                            {
                              "internalType": "bytes",
                              "name": "val",
                              "type": "bytes"
                            },
                            {
                              "internalType": "bool",
                              "name": "neg",
                              "type": "bool"
                            },
                            {
                              "internalType": "uint256",
                              "name": "bitlen",
                              "type": "uint256"
                            }
                          ],
                          "internalType": "struct BigNumber",
                          "name": "value",
                          "type": "tuple"
                        }
                      ],
                      "internalType": "struct Zp",
                      "name": "b",
                      "type": "tuple"
                    }
                  ],
                  "internalType": "struct Zp_2",
                  "name": "b",
                  "type": "tuple"
                },
                {
                  "components": [
                    {
                      "components": [
                        {
                          "components": [
                            {
                              "internalType": "bytes",
                              "name": "val",
                              "type": "bytes"
                            },
                            {
                              "internalType": "bool",
                              "name": "neg",
                              "type": "bool"
                            },
                            {
                              "internalType": "uint256",
                              "name": "bitlen",
                              "type": "uint256"
                            }
                          ],
                          "internalType": "struct BigNumber",
                          "name": "value",
                          "type": "tuple"
                        }
                      ],
                      "internalType": "struct Zp",
                      "name": "a",
                      "type": "tuple"
                    },
                    {
                      "components": [
                        {
                          "components": [
                            {
                              "internalType": "bytes",
                              "name": "val",
                              "type": "bytes"
                            },
                            {
                              "internalType": "bool",
                              "name": "neg",
                              "type": "bool"
                            },
                            {
                              "internalType": "uint256",
                              "name": "bitlen",
                              "type": "uint256"
                            }
                          ],
                          "internalType": "struct BigNumber",
                          "name": "value",
                          "type": "tuple"
                        }
                      ],
                      "internalType": "struct Zp",
                      "name": "b",
                      "type": "tuple"
                    }
                  ],
                  "internalType": "struct Zp_2",
                  "name": "c",
                  "type": "tuple"
                }
              ],
              "internalType": "struct Zp_6",
              "name": "a",
              "type": "tuple"
            },
            {
              "components": [
                {
                  "components": [
                    {
                      "components": [
                        {
                          "components": [
                            {
                              "internalType": "bytes",
                              "name": "val",
                              "type": "bytes"
                            },
                            {
                              "internalType": "bool",
                              "name": "neg",
                              "type": "bool"
                            },
                            {
                              "internalType": "uint256",
                              "name": "bitlen",
                              "type": "uint256"
                            }
                          ],
                          "internalType": "struct BigNumber",
                          "name": "value",
                          "type": "tuple"
                        }
                      ],
                      "internalType": "struct Zp",
                      "name": "a",
                      "type": "tuple"
                    },
                    {
                      "components": [
                        {
                          "components": [
                            {
                              "internalType": "bytes",
                              "name": "val",
                              "type": "bytes"
                            },
                            {
                              "internalType": "bool",
                              "name": "neg",
                              "type": "bool"
                            },
                            {
                              "internalType": "uint256",
                              "name": "bitlen",
                              "type": "uint256"
                            }
                          ],
                          "internalType": "struct BigNumber",
                          "name": "value",
                          "type": "tuple"
                        }
                      ],
                      "internalType": "struct Zp",
                      "name": "b",
                      "type": "tuple"
                    }
                  ],
                  "internalType": "struct Zp_2",
                  "name": "a",
                  "type": "tuple"
                },
                {
                  "components": [
                    {
                      "components": [
                        {
                          "components": [
                            {
                              "internalType": "bytes",
                              "name": "val",
                              "type": "bytes"
                            },
                            {
                              "internalType": "bool",
                              "name": "neg",
                              "type": "bool"
                            },
                            {
                              "internalType": "uint256",
                              "name": "bitlen",
                              "type": "uint256"
                            }
                          ],
                          "internalType": "struct BigNumber",
                          "name": "value",
                          "type": "tuple"
                        }
                      ],
                      "internalType": "struct Zp",
                      "name": "a",
                      "type": "tuple"
                    },
                    {
                      "components": [
                        {
                          "components": [
                            {
                              "internalType": "bytes",
                              "name": "val",
                              "type": "bytes"
                            },
                            {
                              "internalType": "bool",
                              "name": "neg",
                              "type": "bool"
                            },
                            {
                              "internalType": "uint256",
                              "name": "bitlen",
                              "type": "uint256"
                            }
                          ],
                          "internalType": "struct BigNumber",
                          "name": "value",
                          "type": "tuple"
                        }
                      ],
                      "internalType": "struct Zp",
                      "name": "b",
                      "type": "tuple"
                    }
                  ],
                  "internalType": "struct Zp_2",
                  "name": "b",
                  "type": "tuple"
                },
                {
                  "components": [
                    {
                      "components": [
                        {
                          "components": [
                            {
                              "internalType": "bytes",
                              "name": "val",
                              "type": "bytes"
                            },
                            {
                              "internalType": "bool",
                              "name": "neg",
                              "type": "bool"
                            },
                            {
                              "internalType": "uint256",
                              "name": "bitlen",
                              "type": "uint256"
                            }
                          ],
                          "internalType": "struct BigNumber",
                          "name": "value",
                          "type": "tuple"
                        }
                      ],
                      "internalType": "struct Zp",
                      "name": "a",
                      "type": "tuple"
                    },
                    {
                      "components": [
                        {
                          "components": [
                            {
                              "internalType": "bytes",
                              "name": "val",
                              "type": "bytes"
                            },
                            {
                              "internalType": "bool",
                              "name": "neg",
                              "type": "bool"
                            },
                            {
                              "internalType": "uint256",
                              "name": "bitlen",
                              "type": "uint256"
                            }
                          ],
                          "internalType": "struct BigNumber",
                          "name": "value",
                          "type": "tuple"
                        }
                      ],
                      "internalType": "struct Zp",
                      "name": "b",
                      "type": "tuple"
                    }
                  ],
                  "internalType": "struct Zp_2",
                  "name": "c",
                  "type": "tuple"
                }
              ],
              "internalType": "struct Zp_6",
              "name": "b",
              "type": "tuple"
            }
          ],
          "internalType": "struct Zp_12",
          "name": "y",
          "type": "tuple"
        }
      ],
      "name": "newPoint",
      "outputs": [
        {
          "components": [
            {
              "internalType": "enum PointType",
              "name": "pointType",
              "type": "uint8"
            },
            {
              "components": [
                {
                  "components": [
                    {
                      "components": [
                        {
                          "components": [
                            {
                              "components": [
                                {
                                  "internalType": "bytes",
                                  "name": "val",
                                  "type": "bytes"
                                },
                                {
                                  "internalType": "bool",
                                  "name": "neg",
                                  "type": "bool"
                                },
                                {
                                  "internalType": "uint256",
                                  "name": "bitlen",
                                  "type": "uint256"
                                }
                              ],
                              "internalType": "struct BigNumber",
                              "name": "value",
                              "type": "tuple"
                            }
                          ],
                          "internalType": "struct Zp",
                          "name": "a",
                          "type": "tuple"
                        },
                        {
                          "components": [
                            {
                              "components": [
                                {
                                  "internalType": "bytes",
                                  "name": "val",
                                  "type": "bytes"
                                },
                                {
                                  "internalType": "bool",
                                  "name": "neg",
                                  "type": "bool"
                                },
                                {
                                  "internalType": "uint256",
                                  "name": "bitlen",
                                  "type": "uint256"
                                }
                              ],
                              "internalType": "struct BigNumber",
                              "name": "value",
                              "type": "tuple"
                            }
                          ],
                          "internalType": "struct Zp",
                          "name": "b",
                          "type": "tuple"
                        }
                      ],
                      "internalType": "struct Zp_2",
                      "name": "a",
                      "type": "tuple"
                    },
                    {
                      "components": [
                        {
                          "components": [
                            {
                              "components": [
                                {
                                  "internalType": "bytes",
                                  "name": "val",
                                  "type": "bytes"
                                },
                                {
                                  "internalType": "bool",
                                  "name": "neg",
                                  "type": "bool"
                                },
                                {
                                  "internalType": "uint256",
                                  "name": "bitlen",
                                  "type": "uint256"
                                }
                              ],
                              "internalType": "struct BigNumber",
                              "name": "value",
                              "type": "tuple"
                            }
                          ],
                          "internalType": "struct Zp",
                          "name": "a",
                          "type": "tuple"
                        },
                        {
                          "components": [
                            {
                              "components": [
                                {
                                  "internalType": "bytes",
                                  "name": "val",
                                  "type": "bytes"
                                },
                                {
                                  "internalType": "bool",
                                  "name": "neg",
                                  "type": "bool"
                                },
                                {
                                  "internalType": "uint256",
                                  "name": "bitlen",
                                  "type": "uint256"
                                }
                              ],
                              "internalType": "struct BigNumber",
                              "name": "value",
                              "type": "tuple"
                            }
                          ],
                          "internalType": "struct Zp",
                          "name": "b",
                          "type": "tuple"
                        }
                      ],
                      "internalType": "struct Zp_2",
                      "name": "b",
                      "type": "tuple"
                    },
                    {
                      "components": [
                        {
                          "components": [
                            {
                              "components": [
                                {
                                  "internalType": "bytes",
                                  "name": "val",
                                  "type": "bytes"
                                },
                                {
                                  "internalType": "bool",
                                  "name": "neg",
                                  "type": "bool"
                                },
                                {
                                  "internalType": "uint256",
                                  "name": "bitlen",
                                  "type": "uint256"
                                }
                              ],
                              "internalType": "struct BigNumber",
                              "name": "value",
                              "type": "tuple"
                            }
                          ],
                          "internalType": "struct Zp",
                          "name": "a",
                          "type": "tuple"
                        },
                        {
                          "components": [
                            {
                              "components": [
                                {
                                  "internalType": "bytes",
                                  "name": "val",
                                  "type": "bytes"
                                },
                                {
                                  "internalType": "bool",
                                  "name": "neg",
                                  "type": "bool"
                                },
                                {
                                  "internalType": "uint256",
                                  "name": "bitlen",
                                  "type": "uint256"
                                }
                              ],
                              "internalType": "struct BigNumber",
                              "name": "value",
                              "type": "tuple"
                            }
                          ],
                          "internalType": "struct Zp",
                          "name": "b",
                          "type": "tuple"
                        }
                      ],
                      "internalType": "struct Zp_2",
                      "name": "c",
                      "type": "tuple"
                    }
                  ],
                  "internalType": "struct Zp_6",
                  "name": "a",
                  "type": "tuple"
                },
                {
                  "components": [
                    {
                      "components": [
                        {
                          "components": [
                            {
                              "components": [
                                {
                                  "internalType": "bytes",
                                  "name": "val",
                                  "type": "bytes"
                                },
                                {
                                  "internalType": "bool",
                                  "name": "neg",
                                  "type": "bool"
                                },
                                {
                                  "internalType": "uint256",
                                  "name": "bitlen",
                                  "type": "uint256"
                                }
                              ],
                              "internalType": "struct BigNumber",
                              "name": "value",
                              "type": "tuple"
                            }
                          ],
                          "internalType": "struct Zp",
                          "name": "a",
                          "type": "tuple"
                        },
                        {
                          "components": [
                            {
                              "components": [
                                {
                                  "internalType": "bytes",
                                  "name": "val",
                                  "type": "bytes"
                                },
                                {
                                  "internalType": "bool",
                                  "name": "neg",
                                  "type": "bool"
                                },
                                {
                                  "internalType": "uint256",
                                  "name": "bitlen",
                                  "type": "uint256"
                                }
                              ],
                              "internalType": "struct BigNumber",
                              "name": "value",
                              "type": "tuple"
                            }
                          ],
                          "internalType": "struct Zp",
                          "name": "b",
                          "type": "tuple"
                        }
                      ],
                      "internalType": "struct Zp_2",
                      "name": "a",
                      "type": "tuple"
                    },
                    {
                      "components": [
                        {
                          "components": [
                            {
                              "components": [
                                {
                                  "internalType": "bytes",
                                  "name": "val",
                                  "type": "bytes"
                                },
                                {
                                  "internalType": "bool",
                                  "name": "neg",
                                  "type": "bool"
                                },
                                {
                                  "internalType": "uint256",
                                  "name": "bitlen",
                                  "type": "uint256"
                                }
                              ],
                              "internalType": "struct BigNumber",
                              "name": "value",
                              "type": "tuple"
                            }
                          ],
                          "internalType": "struct Zp",
                          "name": "a",
                          "type": "tuple"
                        },
                        {
                          "components": [
                            {
                              "components": [
                                {
                                  "internalType": "bytes",
                                  "name": "val",
                                  "type": "bytes"
                                },
                                {
                                  "internalType": "bool",
                                  "name": "neg",
                                  "type": "bool"
                                },
                                {
                                  "internalType": "uint256",
                                  "name": "bitlen",
                                  "type": "uint256"
                                }
                              ],
                              "internalType": "struct BigNumber",
                              "name": "value",
                              "type": "tuple"
                            }
                          ],
                          "internalType": "struct Zp",
                          "name": "b",
                          "type": "tuple"
                        }
                      ],
                      "internalType": "struct Zp_2",
                      "name": "b",
                      "type": "tuple"
                    },
                    {
                      "components": [
                        {
                          "components": [
                            {
                              "components": [
                                {
                                  "internalType": "bytes",
                                  "name": "val",
                                  "type": "bytes"
                                },
                                {
                                  "internalType": "bool",
                                  "name": "neg",
                                  "type": "bool"
                                },
                                {
                                  "internalType": "uint256",
                                  "name": "bitlen",
                                  "type": "uint256"
                                }
                              ],
                              "internalType": "struct BigNumber",
                              "name": "value",
                              "type": "tuple"
                            }
                          ],
                          "internalType": "struct Zp",
                          "name": "a",
                          "type": "tuple"
                        },
                        {
                          "components": [
                            {
                              "components": [
                                {
                                  "internalType": "bytes",
                                  "name": "val",
                                  "type": "bytes"
                                },
                                {
                                  "internalType": "bool",
                                  "name": "neg",
                                  "type": "bool"
                                },
                                {
                                  "internalType": "uint256",
                                  "name": "bitlen",
                                  "type": "uint256"
                                }
                              ],
                              "internalType": "struct BigNumber",
                              "name": "value",
                              "type": "tuple"
                            }
                          ],
                          "internalType": "struct Zp",
                          "name": "b",
                          "type": "tuple"
                        }
                      ],
                      "internalType": "struct Zp_2",
                      "name": "c",
                      "type": "tuple"
                    }
                  ],
                  "internalType": "struct Zp_6",
                  "name": "b",
                  "type": "tuple"
                }
              ],
              "internalType": "struct Zp_12",
              "name": "x",
              "type": "tuple"
            },
            {
              "components": [
                {
                  "components": [
                    {
                      "components": [
                        {
                          "components": [
                            {
                              "components": [
                                {
                                  "internalType": "bytes",
                                  "name": "val",
                                  "type": "bytes"
                                },
                                {
                                  "internalType": "bool",
                                  "name": "neg",
                                  "type": "bool"
                                },
                                {
                                  "internalType": "uint256",
                                  "name": "bitlen",
                                  "type": "uint256"
                                }
                              ],
                              "internalType": "struct BigNumber",
                              "name": "value",
                              "type": "tuple"
                            }
                          ],
                          "internalType": "struct Zp",
                          "name": "a",
                          "type": "tuple"
                        },
                        {
                          "components": [
                            {
                              "components": [
                                {
                                  "internalType": "bytes",
                                  "name": "val",
                                  "type": "bytes"
                                },
                                {
                                  "internalType": "bool",
                                  "name": "neg",
                                  "type": "bool"
                                },
                                {
                                  "internalType": "uint256",
                                  "name": "bitlen",
                                  "type": "uint256"
                                }
                              ],
                              "internalType": "struct BigNumber",
                              "name": "value",
                              "type": "tuple"
                            }
                          ],
                          "internalType": "struct Zp",
                          "name": "b",
                          "type": "tuple"
                        }
                      ],
                      "internalType": "struct Zp_2",
                      "name": "a",
                      "type": "tuple"
                    },
                    {
                      "components": [
                        {
                          "components": [
                            {
                              "components": [
                                {
                                  "internalType": "bytes",
                                  "name": "val",
                                  "type": "bytes"
                                },
                                {
                                  "internalType": "bool",
                                  "name": "neg",
                                  "type": "bool"
                                },
                                {
                                  "internalType": "uint256",
                                  "name": "bitlen",
                                  "type": "uint256"
                                }
                              ],
                              "internalType": "struct BigNumber",
                              "name": "value",
                              "type": "tuple"
                            }
                          ],
                          "internalType": "struct Zp",
                          "name": "a",
                          "type": "tuple"
                        },
                        {
                          "components": [
                            {
                              "components": [
                                {
                                  "internalType": "bytes",
                                  "name": "val",
                                  "type": "bytes"
                                },
                                {
                                  "internalType": "bool",
                                  "name": "neg",
                                  "type": "bool"
                                },
                                {
                                  "internalType": "uint256",
                                  "name": "bitlen",
                                  "type": "uint256"
                                }
                              ],
                              "internalType": "struct BigNumber",
                              "name": "value",
                              "type": "tuple"
                            }
                          ],
                          "internalType": "struct Zp",
                          "name": "b",
                          "type": "tuple"
                        }
                      ],
                      "internalType": "struct Zp_2",
                      "name": "b",
                      "type": "tuple"
                    },
                    {
                      "components": [
                        {
                          "components": [
                            {
                              "components": [
                                {
                                  "internalType": "bytes",
                                  "name": "val",
                                  "type": "bytes"
                                },
                                {
                                  "internalType": "bool",
                                  "name": "neg",
                                  "type": "bool"
                                },
                                {
                                  "internalType": "uint256",
                                  "name": "bitlen",
                                  "type": "uint256"
                                }
                              ],
                              "internalType": "struct BigNumber",
                              "name": "value",
                              "type": "tuple"
                            }
                          ],
                          "internalType": "struct Zp",
                          "name": "a",
                          "type": "tuple"
                        },
                        {
                          "components": [
                            {
                              "components": [
                                {
                                  "internalType": "bytes",
                                  "name": "val",
                                  "type": "bytes"
                                },
                                {
                                  "internalType": "bool",
                                  "name": "neg",
                                  "type": "bool"
                                },
                                {
                                  "internalType": "uint256",
                                  "name": "bitlen",
                                  "type": "uint256"
                                }
                              ],
                              "internalType": "struct BigNumber",
                              "name": "value",
                              "type": "tuple"
                            }
                          ],
                          "internalType": "struct Zp",
                          "name": "b",
                          "type": "tuple"
                        }
                      ],
                      "internalType": "struct Zp_2",
                      "name": "c",
                      "type": "tuple"
                    }
                  ],
                  "internalType": "struct Zp_6",
                  "name": "a",
                  "type": "tuple"
                },
                {
                  "components": [
                    {
                      "components": [
                        {
                          "components": [
                            {
                              "components": [
                                {
                                  "internalType": "bytes",
                                  "name": "val",
                                  "type": "bytes"
                                },
                                {
                                  "internalType": "bool",
                                  "name": "neg",
                                  "type": "bool"
                                },
                                {
                                  "internalType": "uint256",
                                  "name": "bitlen",
                                  "type": "uint256"
                                }
                              ],
                              "internalType": "struct BigNumber",
                              "name": "value",
                              "type": "tuple"
                            }
                          ],
                          "internalType": "struct Zp",
                          "name": "a",
                          "type": "tuple"
                        },
                        {
                          "components": [
                            {
                              "components": [
                                {
                                  "internalType": "bytes",
                                  "name": "val",
                                  "type": "bytes"
                                },
                                {
                                  "internalType": "bool",
                                  "name": "neg",
                                  "type": "bool"
                                },
                                {
                                  "internalType": "uint256",
                                  "name": "bitlen",
                                  "type": "uint256"
                                }
                              ],
                              "internalType": "struct BigNumber",
                              "name": "value",
                              "type": "tuple"
                            }
                          ],
                          "internalType": "struct Zp",
                          "name": "b",
                          "type": "tuple"
                        }
                      ],
                      "internalType": "struct Zp_2",
                      "name": "a",
                      "type": "tuple"
                    },
                    {
                      "components": [
                        {
                          "components": [
                            {
                              "components": [
                                {
                                  "internalType": "bytes",
                                  "name": "val",
                                  "type": "bytes"
                                },
                                {
                                  "internalType": "bool",
                                  "name": "neg",
                                  "type": "bool"
                                },
                                {
                                  "internalType": "uint256",
                                  "name": "bitlen",
                                  "type": "uint256"
                                }
                              ],
                              "internalType": "struct BigNumber",
                              "name": "value",
                              "type": "tuple"
                            }
                          ],
                          "internalType": "struct Zp",
                          "name": "a",
                          "type": "tuple"
                        },
                        {
                          "components": [
                            {
                              "components": [
                                {
                                  "internalType": "bytes",
                                  "name": "val",
                                  "type": "bytes"
                                },
                                {
                                  "internalType": "bool",
                                  "name": "neg",
                                  "type": "bool"
                                },
                                {
                                  "internalType": "uint256",
                                  "name": "bitlen",
                                  "type": "uint256"
                                }
                              ],
                              "internalType": "struct BigNumber",
                              "name": "value",
                              "type": "tuple"
                            }
                          ],
                          "internalType": "struct Zp",
                          "name": "b",
                          "type": "tuple"
                        }
                      ],
                      "internalType": "struct Zp_2",
                      "name": "b",
                      "type": "tuple"
                    },
                    {
                      "components": [
                        {
                          "components": [
                            {
                              "components": [
                                {
                                  "internalType": "bytes",
                                  "name": "val",
                                  "type": "bytes"
                                },
                                {
                                  "internalType": "bool",
                                  "name": "neg",
                                  "type": "bool"
                                },
                                {
                                  "internalType": "uint256",
                                  "name": "bitlen",
                                  "type": "uint256"
                                }
                              ],
                              "internalType": "struct BigNumber",
                              "name": "value",
                              "type": "tuple"
                            }
                          ],
                          "internalType": "struct Zp",
                          "name": "a",
                          "type": "tuple"
                        },
                        {
                          "components": [
                            {
                              "components": [
                                {
                                  "internalType": "bytes",
                                  "name": "val",
                                  "type": "bytes"
                                },
                                {
                                  "internalType": "bool",
                                  "name": "neg",
                                  "type": "bool"
                                },
                                {
                                  "internalType": "uint256",
                                  "name": "bitlen",
                                  "type": "uint256"
                                }
                              ],
                              "internalType": "struct BigNumber",
                              "name": "value",
                              "type": "tuple"
                            }
                          ],
                          "internalType": "struct Zp",
                          "name": "b",
                          "type": "tuple"
                        }
                      ],
                      "internalType": "struct Zp_2",
                      "name": "c",
                      "type": "tuple"
                    }
                  ],
                  "internalType": "struct Zp_6",
                  "name": "b",
                  "type": "tuple"
                }
              ],
              "internalType": "struct Zp_12",
              "name": "y",
              "type": "tuple"
            }
          ],
          "internalType": "struct Point_Zp_12",
          "name": "",
          "type": "tuple"
        }
      ],
      "stateMutability": "pure",
      "type": "function"
    }
  ],
  "bytecode": "0x608060405234801561001057600080fd5b506040516131e83803806131e8833981810160405281019061003291906100ed565b806000806101000a81548173ffffffffffffffffffffffffffffffffffffffff021916908373ffffffffffffffffffffffffffffffffffffffff1602179055505061011a565b600080fd5b600073ffffffffffffffffffffffffffffffffffffffff82169050919050565b60006100a88261007d565b9050919050565b60006100ba8261009d565b9050919050565b6100ca816100af565b81146100d557600080fd5b50565b6000815190506100e7816100c1565b92915050565b60006020828403121561010357610102610078565b5b6000610111848285016100d8565b91505092915050565b6130bf806101296000396000f3fe608060405234801561001057600080fd5b50600436106100575760003560e01c80631d763e261461005c5780634156f5141461008c5780635bd69fb6146100bc578063adbe3ee3146100ec578063dec70b291461011c575b600080fd5b610076600480360381019061007191906123c3565b61014c565b6040516100839190612719565b60405180910390f35b6100a660048036038101906100a191906127d7565b61018a565b6040516100b39190612719565b60405180910390f35b6100d660048036038101906100d1919061284f565b610c7c565b6040516100e39190612719565b60405180910390f35b610106600480360381019061010191906128c7565b610ef0565b6040516101139190612719565b60405180910390f35b610136600480360381019061013191906128c7565b6119b2565b6040516101439190612719565b60405180910390f35b610154611e32565b60405180606001604052808560018111156101725761017161244e565b5b81526020018481526020018381525090509392505050565b610192611e32565b6001808111156101a5576101a461244e565b5b836000015160018111156101bc576101bb61244e565b5b036101c957819050610c76565b6001808111156101dc576101db61244e565b5b826000015160018111156101f3576101f261244e565b5b0361020057829050610c76565b60008054906101000a900473ffffffffffffffffffffffffffffffffffffffff1673ffffffffffffffffffffffffffffffffffffffff16639eea8ce8846020015184602001516040518363ffffffff1660e01b8152600401610263929190612954565b602060405180830381865afa158015610280573d6000803e3d6000fd5b505050506040513d601f19601f820116820180604052508101906102a491906129a0565b8015610350575060008054906101000a900473ffffffffffffffffffffffffffffffffffffffff1673ffffffffffffffffffffffffffffffffffffffff16639eea8ce8846040015184604001516040518363ffffffff1660e01b815260040161030e929190612954565b602060405180830381865afa15801561032b573d6000803e3d6000fd5b505050506040513d601f19601f8201168201806040525081019061034f91906129a0565b5b156103655761035e83610ef0565b9050610c76565b60008054906101000a900473ffffffffffffffffffffffffffffffffffffffff1673ffffffffffffffffffffffffffffffffffffffff16639eea8ce8846020015184602001516040518363ffffffff1660e01b81526004016103c8929190612954565b602060405180830381865afa1580156103e5573d6000803e3d6000fd5b505050506040513d601f19601f8201168201806040525081019061040991906129a0565b80156104b6575060008054906101000a900473ffffffffffffffffffffffffffffffffffffffff1673ffffffffffffffffffffffffffffffffffffffff16639eea8ce8846040015184604001516040518363ffffffff1660e01b8152600401610473929190612954565b602060405180830381865afa158015610490573d6000803e3d6000fd5b505050506040513d601f19601f820116820180604052508101906104b491906129a0565b155b156105f4576105ed600160008054906101000a900473ffffffffffffffffffffffffffffffffffffffff1673ffffffffffffffffffffffffffffffffffffffff1663bc1b392d6040518163ffffffff1660e01b8152600401600060405180830381865afa15801561052b573d6000803e3d6000fd5b505050506040513d6000823e3d601f19601f820116820180604052508101906105549190612cf2565b60008054906101000a900473ffffffffffffffffffffffffffffffffffffffff1673ffffffffffffffffffffffffffffffffffffffff1663bc1b392d6040518163ffffffff1660e01b8152600401600060405180830381865afa1580156105bf573d6000803e3d6000fd5b505050506040513d6000823e3d601f19601f820116820180604052508101906105e89190612cf2565b61014c565b9050610c76565b60008060009054906101000a900473ffffffffffffffffffffffffffffffffffffffff1673ffffffffffffffffffffffffffffffffffffffff166377839c6960008054906101000a900473ffffffffffffffffffffffffffffffffffffffff1673ffffffffffffffffffffffffffffffffffffffff16636bc90c28866040015188604001516040518363ffffffff1660e01b8152600401610696929190612954565b600060405180830381865afa1580156106b3573d6000803e3d6000fd5b505050506040513d6000823e3d601f19601f820116820180604052508101906106dc9190612cf2565b60008054906101000a900473ffffffffffffffffffffffffffffffffffffffff1673ffffffffffffffffffffffffffffffffffffffff1663f670079560008054906101000a900473ffffffffffffffffffffffffffffffffffffffff1673ffffffffffffffffffffffffffffffffffffffff16636bc90c2889602001518b602001516040518363ffffffff1660e01b815260040161077b929190612954565b600060405180830381865afa158015610798573d6000803e3d6000fd5b505050506040513d6000823e3d601f19601f820116820180604052508101906107c19190612cf2565b6040518263ffffffff1660e01b81526004016107dd9190612d3b565b600060405180830381865afa1580156107fa573d6000803e3d6000fd5b505050506040513d6000823e3d601f19601f820116820180604052508101906108239190612cf2565b6040518363ffffffff1660e01b8152600401610840929190612954565b600060405180830381865afa15801561085d573d6000803e3d6000fd5b505050506040513d6000823e3d601f19601f820116820180604052508101906108869190612cf2565b905060008060009054906101000a900473ffffffffffffffffffffffffffffffffffffffff1673ffffffffffffffffffffffffffffffffffffffff16636bc90c2860008054906101000a900473ffffffffffffffffffffffffffffffffffffffff1673ffffffffffffffffffffffffffffffffffffffff16636bc90c2860008054906101000a900473ffffffffffffffffffffffffffffffffffffffff1673ffffffffffffffffffffffffffffffffffffffff166377839c6987886040518363ffffffff1660e01b815260040161095e929190612954565b600060405180830381865afa15801561097b573d6000803e3d6000fd5b505050506040513d6000823e3d601f19601f820116820180604052508101906109a49190612cf2565b89602001516040518363ffffffff1660e01b81526004016109c6929190612954565b600060405180830381865afa1580156109e3573d6000803e3d6000fd5b505050506040513d6000823e3d601f19601f82011682018060405250810190610a0c9190612cf2565b86602001516040518363ffffffff1660e01b8152600401610a2e929190612954565b600060405180830381865afa158015610a4b573d6000803e3d6000fd5b505050506040513d6000823e3d601f19601f82011682018060405250810190610a749190612cf2565b905060008060009054906101000a900473ffffffffffffffffffffffffffffffffffffffff1673ffffffffffffffffffffffffffffffffffffffff16636bc90c2860008054906101000a900473ffffffffffffffffffffffffffffffffffffffff1673ffffffffffffffffffffffffffffffffffffffff166377839c6960008054906101000a900473ffffffffffffffffffffffffffffffffffffffff1673ffffffffffffffffffffffffffffffffffffffff16636bc90c288b60200151886040518363ffffffff1660e01b8152600401610b50929190612954565b600060405180830381865afa158015610b6d573d6000803e3d6000fd5b505050506040513d6000823e3d601f19601f82011682018060405250810190610b969190612cf2565b876040518363ffffffff1660e01b8152600401610bb4929190612954565b600060405180830381865afa158015610bd1573d6000803e3d6000fd5b505050506040513d6000823e3d601f19601f82011682018060405250810190610bfa9190612cf2565b88604001516040518363ffffffff1660e01b8152600401610c1c929190612954565b600060405180830381865afa158015610c39573d6000803e3d6000fd5b505050506040513d6000823e3d601f19601f82011682018060405250810190610c629190612cf2565b9050610c706000838361014c565b93505050505b92915050565b610c84611e32565b6000610db8600160008054906101000a900473ffffffffffffffffffffffffffffffffffffffff1673ffffffffffffffffffffffffffffffffffffffff1663bc1b392d6040518163ffffffff1660e01b8152600401600060405180830381865afa158015610cf6573d6000803e3d6000fd5b505050506040513d6000823e3d601f19601f82011682018060405250810190610d1f9190612cf2565b60008054906101000a900473ffffffffffffffffffffffffffffffffffffffff1673ffffffffffffffffffffffffffffffffffffffff1663bc1b392d6040518163ffffffff1660e01b8152600401600060405180830381865afa158015610d8a573d6000803e3d6000fd5b505050506040513d6000823e3d601f19601f82011682018060405250810190610db39190612cf2565b61014c565b90508360200151610dd657610dce848483611b72565b915050610eea565b610ee673__$7db5d2dbc3ae63372df6c39d501ad0f72a$__63b1d74ee98673__$7db5d2dbc3ae63372df6c39d501ad0f72a$__6340957f726001806040518363ffffffff1660e01b8152600401610e2e929190612db1565b600060405180830381865af4158015610e4b573d6000803e3d6000fd5b505050506040513d6000823e3d601f19601f82011682018060405250810190610e749190612dda565b6040518363ffffffff1660e01b8152600401610e91929190612edb565b600060405180830381865af4158015610eae573d6000803e3d6000fd5b505050506040513d6000823e3d601f19601f82011682018060405250810190610ed79190612dda565b610ee0856119b2565b83611b72565b9150505b92915050565b610ef8611e32565b60008054906101000a900473ffffffffffffffffffffffffffffffffffffffff1673ffffffffffffffffffffffffffffffffffffffff16639eea8ce8836040015160008054906101000a900473ffffffffffffffffffffffffffffffffffffffff1673ffffffffffffffffffffffffffffffffffffffff1663bc1b392d6040518163ffffffff1660e01b8152600401600060405180830381865afa158015610fa4573d6000803e3d6000fd5b505050506040513d6000823e3d601f19601f82011682018060405250810190610fcd9190612cf2565b6040518363ffffffff1660e01b8152600401610fea929190612954565b602060405180830381865afa158015611007573d6000803e3d6000fd5b505050506040513d601f19601f8201168201806040525081019061102b91906129a0565b1561116957611162600160008054906101000a900473ffffffffffffffffffffffffffffffffffffffff1673ffffffffffffffffffffffffffffffffffffffff1663bc1b392d6040518163ffffffff1660e01b8152600401600060405180830381865afa1580156110a0573d6000803e3d6000fd5b505050506040513d6000823e3d601f19601f820116820180604052508101906110c99190612cf2565b60008054906101000a900473ffffffffffffffffffffffffffffffffffffffff1673ffffffffffffffffffffffffffffffffffffffff1663bc1b392d6040518163ffffffff1660e01b8152600401600060405180830381865afa158015611134573d6000803e3d6000fd5b505050506040513d6000823e3d601f19601f8201168201806040525081019061115d9190612cf2565b61014c565b90506119ad565b60008060009054906101000a900473ffffffffffffffffffffffffffffffffffffffff1673ffffffffffffffffffffffffffffffffffffffff166377839c6960008054906101000a900473ffffffffffffffffffffffffffffffffffffffff1673ffffffffffffffffffffffffffffffffffffffff166377839c6960008054906101000a900473ffffffffffffffffffffffffffffffffffffffff1673ffffffffffffffffffffffffffffffffffffffff166345caa1176040518163ffffffff1660e01b8152600401600060405180830381865afa15801561124f573d6000803e3d6000fd5b505050506040513d6000823e3d601f19601f820116820180604052508101906112789190612cf2565b60008054906101000a900473ffffffffffffffffffffffffffffffffffffffff1673ffffffffffffffffffffffffffffffffffffffff166377839c6989602001518a602001516040518363ffffffff1660e01b81526004016112db929190612954565b600060405180830381865afa1580156112f8573d6000803e3d6000fd5b505050506040513d6000823e3d601f19601f820116820180604052508101906113219190612cf2565b6040518363ffffffff1660e01b815260040161133e929190612954565b600060405180830381865afa15801561135b573d6000803e3d6000fd5b505050506040513d6000823e3d601f19601f820116820180604052508101906113849190612cf2565b60008054906101000a900473ffffffffffffffffffffffffffffffffffffffff1673ffffffffffffffffffffffffffffffffffffffff1663f670079560008054906101000a900473ffffffffffffffffffffffffffffffffffffffff1673ffffffffffffffffffffffffffffffffffffffff166377839c6960008054906101000a900473ffffffffffffffffffffffffffffffffffffffff1673ffffffffffffffffffffffffffffffffffffffff16635fdf05d76040518163ffffffff1660e01b8152600401600060405180830381865afa158015611467573d6000803e3d6000fd5b505050506040513d6000823e3d601f19601f820116820180604052508101906114909190612cf2565b8a604001516040518363ffffffff1660e01b81526004016114b2929190612954565b600060405180830381865afa1580156114cf573d6000803e3d6000fd5b505050506040513d6000823e3d601f19601f820116820180604052508101906114f89190612cf2565b6040518263ffffffff1660e01b81526004016115149190612d3b565b600060405180830381865afa158015611531573d6000803e3d6000fd5b505050506040513d6000823e3d601f19601f8201168201806040525081019061155a9190612cf2565b6040518363ffffffff1660e01b8152600401611577929190612954565b600060405180830381865afa158015611594573d6000803e3d6000fd5b505050506040513d6000823e3d601f19601f820116820180604052508101906115bd9190612cf2565b905060008060009054906101000a900473ffffffffffffffffffffffffffffffffffffffff1673ffffffffffffffffffffffffffffffffffffffff16636bc90c2860008054906101000a900473ffffffffffffffffffffffffffffffffffffffff1673ffffffffffffffffffffffffffffffffffffffff16636bc90c2860008054906101000a900473ffffffffffffffffffffffffffffffffffffffff1673ffffffffffffffffffffffffffffffffffffffff166377839c6987886040518363ffffffff1660e01b8152600401611695929190612954565b600060405180830381865afa1580156116b2573d6000803e3d6000fd5b505050506040513d6000823e3d601f19601f820116820180604052508101906116db9190612cf2565b88602001516040518363ffffffff1660e01b81526004016116fd929190612954565b600060405180830381865afa15801561171a573d6000803e3d6000fd5b505050506040513d6000823e3d601f19601f820116820180604052508101906117439190612cf2565b86602001516040518363ffffffff1660e01b8152600401611765929190612954565b600060405180830381865afa158015611782573d6000803e3d6000fd5b505050506040513d6000823e3d601f19601f820116820180604052508101906117ab9190612cf2565b905060008060009054906101000a900473ffffffffffffffffffffffffffffffffffffffff1673ffffffffffffffffffffffffffffffffffffffff16636bc90c2860008054906101000a900473ffffffffffffffffffffffffffffffffffffffff1673ffffffffffffffffffffffffffffffffffffffff166377839c6960008054906101000a900473ffffffffffffffffffffffffffffffffffffffff1673ffffffffffffffffffffffffffffffffffffffff16636bc90c288a60200151886040518363ffffffff1660e01b8152600401611887929190612954565b600060405180830381865afa1580156118a4573d6000803e3d6000fd5b505050506040513d6000823e3d601f19601f820116820180604052508101906118cd9190612cf2565b876040518363ffffffff1660e01b81526004016118eb929190612954565b600060405180830381865afa158015611908573d6000803e3d6000fd5b505050506040513d6000823e3d601f19601f820116820180604052508101906119319190612cf2565b87604001516040518363ffffffff1660e01b8152600401611953929190612954565b600060405180830381865afa158015611970573d6000803e3d6000fd5b505050506040513d6000823e3d601f19601f820116820180604052508101906119999190612cf2565b90506119a76000838361014c565b93505050505b919050565b6119ba611e32565b6001808111156119cd576119cc61244e565b5b826000015160018111156119e4576119e361244e565b5b03611a24576040517f08c379a0000000000000000000000000000000000000000000000000000000008152600401611a1b90612f6f565b60405180910390fd5b611b6b6000836020015160008054906101000a900473ffffffffffffffffffffffffffffffffffffffff1673ffffffffffffffffffffffffffffffffffffffff16636bc90c2860008054906101000a900473ffffffffffffffffffffffffffffffffffffffff1673ffffffffffffffffffffffffffffffffffffffff1663bc1b392d6040518163ffffffff1660e01b8152600401600060405180830381865afa158015611ad5573d6000803e3d6000fd5b505050506040513d6000823e3d601f19601f82011682018060405250810190611afe9190612cf2565b87604001516040518363ffffffff1660e01b8152600401611b20929190612954565b600060405180830381865afa158015611b3d573d6000803e3d6000fd5b505050506040513d6000823e3d601f19601f82011682018060405250810190611b669190612cf2565b61014c565b9050919050565b611b7a611e32565b600073__$7db5d2dbc3ae63372df6c39d501ad0f72a$__63bc39804e8673__$7db5d2dbc3ae63372df6c39d501ad0f72a$__63bc1b392d6040518163ffffffff1660e01b8152600401600060405180830381865af4158015611be0573d6000803e3d6000fd5b505050506040513d6000823e3d601f19601f82011682018060405250810190611c099190612dda565b60006040518463ffffffff1660e01b8152600401611c2993929190612f8f565b602060405180830381865af4158015611c46573d6000803e3d6000fd5b505050506040513d601f19601f82011682018060405250810190611c6a919061300a565b03611c7757819050611e2b565b73__$7db5d2dbc3ae63372df6c39d501ad0f72a$__63ee4a4e4e856040518263ffffffff1660e01b8152600401611cae9190613037565b602060405180830381865af4158015611ccb573d6000803e3d6000fd5b505050506040513d601f19601f82011682018060405250810190611cef91906129a0565b15611d9657611d8f73__$7db5d2dbc3ae63372df6c39d501ad0f72a$__636efac6c78660016040518363ffffffff1660e01b8152600401611d31929190613059565b600060405180830381865af4158015611d4e573d6000803e3d6000fd5b505050506040513d6000823e3d601f19601f82011682018060405250810190611d779190612dda565b611d8085610ef0565b611d8a858761018a565b611b72565b9050611e2b565b611e2873__$7db5d2dbc3ae63372df6c39d501ad0f72a$__636efac6c78660016040518363ffffffff1660e01b8152600401611dd3929190613059565b600060405180830381865af4158015611df0573d6000803e3d6000fd5b505050506040513d6000823e3d601f19601f82011682018060405250810190611e199190612dda565b611e2285610ef0565b84611b72565b90505b9392505050565b604051806060016040528060006001811115611e5157611e5061244e565b5b8152602001611e5e611e71565b8152602001611e6b611e71565b81525090565b6040518060400160405280611e84611e97565b8152602001611e91611e97565b81525090565b6040518060600160405280611eaa611eca565b8152602001611eb7611eca565b8152602001611ec4611eca565b81525090565b6040518060400160405280611edd611ef0565b8152602001611eea611ef0565b81525090565b6040518060200160405280611f03611f09565b81525090565b604051806060016040528060608152602001600015158152602001600081525090565b6000604051905090565b600080fd5b600080fd5b60028110611f4d57600080fd5b50565b600081359050611f5f81611f40565b92915050565b600080fd5b6000601f19601f8301169050919050565b7f4e487b7100000000000000000000000000000000000000000000000000000000600052604160045260246000fd5b611fb382611f6a565b810181811067ffffffffffffffff82111715611fd257611fd1611f7b565b5b80604052505050565b6000611fe5611f2c565b9050611ff18282611faa565b919050565b600080fd5b600080fd5b600080fd5b600067ffffffffffffffff8211156120205761201f611f7b565b5b61202982611f6a565b9050602081019050919050565b82818337600083830152505050565b600061205861205384612005565b611fdb565b90508281526020810184848401111561207457612073612000565b5b61207f848285612036565b509392505050565b600082601f83011261209c5761209b611ffb565b5b81356120ac848260208601612045565b91505092915050565b60008115159050919050565b6120ca816120b5565b81146120d557600080fd5b50565b6000813590506120e7816120c1565b92915050565b6000819050919050565b612100816120ed565b811461210b57600080fd5b50565b60008135905061211d816120f7565b92915050565b60006060828403121561213957612138611f65565b5b6121436060611fdb565b9050600082013567ffffffffffffffff81111561216357612162611ff6565b5b61216f84828501612087565b6000830152506020612183848285016120d8565b60208301525060406121978482850161210e565b60408301525092915050565b6000602082840312156121b9576121b8611f65565b5b6121c36020611fdb565b9050600082013567ffffffffffffffff8111156121e3576121e2611ff6565b5b6121ef84828501612123565b60008301525092915050565b60006040828403121561221157612210611f65565b5b61221b6040611fdb565b9050600082013567ffffffffffffffff81111561223b5761223a611ff6565b5b612247848285016121a3565b600083015250602082013567ffffffffffffffff81111561226b5761226a611ff6565b5b612277848285016121a3565b60208301525092915050565b60006060828403121561229957612298611f65565b5b6122a36060611fdb565b9050600082013567ffffffffffffffff8111156122c3576122c2611ff6565b5b6122cf848285016121fb565b600083015250602082013567ffffffffffffffff8111156122f3576122f2611ff6565b5b6122ff848285016121fb565b602083015250604082013567ffffffffffffffff81111561232357612322611ff6565b5b61232f848285016121fb565b60408301525092915050565b60006040828403121561235157612350611f65565b5b61235b6040611fdb565b9050600082013567ffffffffffffffff81111561237b5761237a611ff6565b5b61238784828501612283565b600083015250602082013567ffffffffffffffff8111156123ab576123aa611ff6565b5b6123b784828501612283565b60208301525092915050565b6000806000606084860312156123dc576123db611f36565b5b60006123ea86828701611f50565b935050602084013567ffffffffffffffff81111561240b5761240a611f3b565b5b6124178682870161233b565b925050604084013567ffffffffffffffff81111561243857612437611f3b565b5b6124448682870161233b565b9150509250925092565b7f4e487b7100000000000000000000000000000000000000000000000000000000600052602160045260246000fd5b6002811061248e5761248d61244e565b5b50565b600081905061249f8261247d565b919050565b60006124af82612491565b9050919050565b6124bf816124a4565b82525050565b600081519050919050565b600082825260208201905092915050565b60005b838110156124ff5780820151818401526020810190506124e4565b60008484015250505050565b6000612516826124c5565b61252081856124d0565b93506125308185602086016124e1565b61253981611f6a565b840191505092915050565b61254d816120b5565b82525050565b61255c816120ed565b82525050565b6000606083016000830151848203600086015261257f828261250b565b91505060208301516125946020860182612544565b5060408301516125a76040860182612553565b508091505092915050565b600060208301600083015184820360008601526125cf8282612562565b9150508091505092915050565b600060408301600083015184820360008601526125f982826125b2565b9150506020830151848203602086015261261382826125b2565b9150508091505092915050565b6000606083016000830151848203600086015261263d82826125dc565b9150506020830151848203602086015261265782826125dc565b9150506040830151848203604086015261267182826125dc565b9150508091505092915050565b6000604083016000830151848203600086015261269b8282612620565b915050602083015184820360208601526126b58282612620565b9150508091505092915050565b60006060830160008301516126da60008601826124b6565b50602083015184820360208601526126f2828261267e565b9150506040830151848203604086015261270c828261267e565b9150508091505092915050565b6000602082019050818103600083015261273381846126c2565b905092915050565b60006060828403121561275157612750611f65565b5b61275b6060611fdb565b9050600061276b84828501611f50565b600083015250602082013567ffffffffffffffff81111561278f5761278e611ff6565b5b61279b8482850161233b565b602083015250604082013567ffffffffffffffff8111156127bf576127be611ff6565b5b6127cb8482850161233b565b60408301525092915050565b600080604083850312156127ee576127ed611f36565b5b600083013567ffffffffffffffff81111561280c5761280b611f3b565b5b6128188582860161273b565b925050602083013567ffffffffffffffff81111561283957612838611f3b565b5b6128458582860161273b565b9150509250929050565b6000806040838503121561286657612865611f36565b5b600083013567ffffffffffffffff81111561288457612883611f3b565b5b61289085828601612123565b925050602083013567ffffffffffffffff8111156128b1576128b0611f3b565b5b6128bd8582860161273b565b9150509250929050565b6000602082840312156128dd576128dc611f36565b5b600082013567ffffffffffffffff8111156128fb576128fa611f3b565b5b6129078482850161273b565b91505092915050565b6000604083016000830151848203600086015261292d8282612620565b915050602083015184820360208601526129478282612620565b9150508091505092915050565b6000604082019050818103600083015261296e8185612910565b905081810360208301526129828184612910565b90509392505050565b60008151905061299a816120c1565b92915050565b6000602082840312156129b6576129b5611f36565b5b60006129c48482850161298b565b91505092915050565b60006129e06129db84612005565b611fdb565b9050828152602081018484840111156129fc576129fb612000565b5b612a078482856124e1565b509392505050565b600082601f830112612a2457612a23611ffb565b5b8151612a348482602086016129cd565b91505092915050565b600081519050612a4c816120f7565b92915050565b600060608284031215612a6857612a67611f65565b5b612a726060611fdb565b9050600082015167ffffffffffffffff811115612a9257612a91611ff6565b5b612a9e84828501612a0f565b6000830152506020612ab28482850161298b565b6020830152506040612ac684828501612a3d565b60408301525092915050565b600060208284031215612ae857612ae7611f65565b5b612af26020611fdb565b9050600082015167ffffffffffffffff811115612b1257612b11611ff6565b5b612b1e84828501612a52565b60008301525092915050565b600060408284031215612b4057612b3f611f65565b5b612b4a6040611fdb565b9050600082015167ffffffffffffffff811115612b6a57612b69611ff6565b5b612b7684828501612ad2565b600083015250602082015167ffffffffffffffff811115612b9a57612b99611ff6565b5b612ba684828501612ad2565b60208301525092915050565b600060608284031215612bc857612bc7611f65565b5b612bd26060611fdb565b9050600082015167ffffffffffffffff811115612bf257612bf1611ff6565b5b612bfe84828501612b2a565b600083015250602082015167ffffffffffffffff811115612c2257612c21611ff6565b5b612c2e84828501612b2a565b602083015250604082015167ffffffffffffffff811115612c5257612c51611ff6565b5b612c5e84828501612b2a565b60408301525092915050565b600060408284031215612c8057612c7f611f65565b5b612c8a6040611fdb565b9050600082015167ffffffffffffffff811115612caa57612ca9611ff6565b5b612cb684828501612bb2565b600083015250602082015167ffffffffffffffff811115612cda57612cd9611ff6565b5b612ce684828501612bb2565b60208301525092915050565b600060208284031215612d0857612d07611f36565b5b600082015167ffffffffffffffff811115612d2657612d25611f3b565b5b612d3284828501612c6a565b91505092915050565b60006020820190508181036000830152612d558184612910565b905092915050565b6000819050919050565b6000819050919050565b6000612d8c612d87612d8284612d5d565b612d67565b6120ed565b9050919050565b612d9c81612d71565b82525050565b612dab816120b5565b82525050565b6000604082019050612dc66000830185612d93565b612dd36020830184612da2565b9392505050565b600060208284031215612df057612def611f36565b5b600082015167ffffffffffffffff811115612e0e57612e0d611f3b565b5b612e1a84828501612a52565b91505092915050565b600082825260208201905092915050565b6000612e3f826124c5565b612e498185612e23565b9350612e598185602086016124e1565b612e6281611f6a565b840191505092915050565b612e76816120b5565b82525050565b612e85816120ed565b82525050565b60006060830160008301518482036000860152612ea88282612e34565b9150506020830151612ebd6020860182612e6d565b506040830151612ed06040860182612e7c565b508091505092915050565b60006040820190508181036000830152612ef58185612e8b565b90508181036020830152612f098184612e8b565b90509392505050565b600082825260208201905092915050565b7f63616e6e6f74206e656761746520706f696e7420617420696e66696e69747900600082015250565b6000612f59601f83612f12565b9150612f6482612f23565b602082019050919050565b60006020820190508181036000830152612f8881612f4c565b9050919050565b60006060820190508181036000830152612fa98186612e8b565b90508181036020830152612fbd8185612e8b565b9050612fcc6040830184612da2565b949350505050565b6000819050919050565b612fe781612fd4565b8114612ff257600080fd5b50565b60008151905061300481612fde565b92915050565b6000602082840312156130205761301f611f36565b5b600061302e84828501612ff5565b91505092915050565b600060208201905081810360008301526130518184612e8b565b905092915050565b600060408201905081810360008301526130738185612e8b565b90506130826020830184612d93565b939250505056fea264697066735822122065af46901b25e8b2b3138c75aff42859a781ef3658e7b9f246f8b3731b064ae164736f6c634300081b0033",
  "linkReferences": {
    "contracts/BigNumber.sol": {
      "BigNumbers": [
        {
          "length": 20,
          "start": 3844
        },
        {
          "length": 20,
          "start": 3871
        },
        {
          "length": 20,
          "start": 7335
        },
        {
          "length": 20,
          "start": 7362
        },
        {
          "length": 20,
          "start": 7586
        },
        {
          "length": 20,
          "start": 7714
        },
        {
          "length": 20,
          "start": 7876
        }
      ]
    }
  },
  "deployedLinkReferences": {
    "contracts/BigNumber.sol": {
      "BigNumbers": [
        {
          "length": 20,
          "start": 3547
        },
        {
          "length": 20,
          "start": 3574
        },
        {
          "length": 20,
          "start": 7038
        },
        {
          "length": 20,
          "start": 7065
        },
        {
          "length": 20,
          "start": 7289
        },
        {
          "length": 20,
          "start": 7417
        },
        {
          "length": 20,
          "start": 7579
        }
      ]
    }
  }
}