{
  "_format": "hh-sol-artifact-1",
  "contractName": "PointZp_12",
  "sourceName": "contracts/point/pointZp_12.sol",
  "abi": [
    {
      "inputs": [
        {
          "internalType": "contract TwelveExtension",
          "name": "field",
          "type": "address"
        }
      ],
      "stateMutability": "nonpayable",
      "type": "constructor"
    },
    {
      "inputs": [
        {
          "components": [
            {
              "internalType": "enum PointType_12",
              "name": "pointType",
              "type": "uint8"
            },
            {
              "components": [
                {
                  "components": [
                    {
                      "components": [
                        {
                          "components": [
                            {
                              "components": [
                                {
                                  "internalType": "bytes",
                                  "name": "val",
                                  "type": "bytes"
                                },
                                {
                                  "internalType": "bool",
                                  "name": "neg",
                                  "type": "bool"
                                },
                                {
                                  "internalType": "uint256",
                                  "name": "bitlen",
                                  "type": "uint256"
                                }
                              ],
                              "internalType": "struct BigNumber",
                              "name": "value",
                              "type": "tuple"
                            }
                          ],
                          "internalType": "struct Zp",
                          "name": "a",
                          "type": "tuple"
                        },
                        {
                          "components": [
                            {
                              "components": [
                                {
                                  "internalType": "bytes",
                                  "name": "val",
                                  "type": "bytes"
                                },
                                {
                                  "internalType": "bool",
                                  "name": "neg",
                                  "type": "bool"
                                },
                                {
                                  "internalType": "uint256",
                                  "name": "bitlen",
                                  "type": "uint256"
                                }
                              ],
                              "internalType": "struct BigNumber",
                              "name": "value",
                              "type": "tuple"
                            }
                          ],
                          "internalType": "struct Zp",
                          "name": "b",
                          "type": "tuple"
                        }
                      ],
                      "internalType": "struct Zp_2",
                      "name": "a",
                      "type": "tuple"
                    },
                    {
                      "components": [
                        {
                          "components": [
                            {
                              "components": [
                                {
                                  "internalType": "bytes",
                                  "name": "val",
                                  "type": "bytes"
                                },
                                {
                                  "internalType": "bool",
                                  "name": "neg",
                                  "type": "bool"
                                },
                                {
                                  "internalType": "uint256",
                                  "name": "bitlen",
                                  "type": "uint256"
                                }
                              ],
                              "internalType": "struct BigNumber",
                              "name": "value",
                              "type": "tuple"
                            }
                          ],
                          "internalType": "struct Zp",
                          "name": "a",
                          "type": "tuple"
                        },
                        {
                          "components": [
                            {
                              "components": [
                                {
                                  "internalType": "bytes",
                                  "name": "val",
                                  "type": "bytes"
                                },
                                {
                                  "internalType": "bool",
                                  "name": "neg",
                                  "type": "bool"
                                },
                                {
                                  "internalType": "uint256",
                                  "name": "bitlen",
                                  "type": "uint256"
                                }
                              ],
                              "internalType": "struct BigNumber",
                              "name": "value",
                              "type": "tuple"
                            }
                          ],
                          "internalType": "struct Zp",
                          "name": "b",
                          "type": "tuple"
                        }
                      ],
                      "internalType": "struct Zp_2",
                      "name": "b",
                      "type": "tuple"
                    },
                    {
                      "components": [
                        {
                          "components": [
                            {
                              "components": [
                                {
                                  "internalType": "bytes",
                                  "name": "val",
                                  "type": "bytes"
                                },
                                {
                                  "internalType": "bool",
                                  "name": "neg",
                                  "type": "bool"
                                },
                                {
                                  "internalType": "uint256",
                                  "name": "bitlen",
                                  "type": "uint256"
                                }
                              ],
                              "internalType": "struct BigNumber",
                              "name": "value",
                              "type": "tuple"
                            }
                          ],
                          "internalType": "struct Zp",
                          "name": "a",
                          "type": "tuple"
                        },
                        {
                          "components": [
                            {
                              "components": [
                                {
                                  "internalType": "bytes",
                                  "name": "val",
                                  "type": "bytes"
                                },
                                {
                                  "internalType": "bool",
                                  "name": "neg",
                                  "type": "bool"
                                },
                                {
                                  "internalType": "uint256",
                                  "name": "bitlen",
                                  "type": "uint256"
                                }
                              ],
                              "internalType": "struct BigNumber",
                              "name": "value",
                              "type": "tuple"
                            }
                          ],
                          "internalType": "struct Zp",
                          "name": "b",
                          "type": "tuple"
                        }
                      ],
                      "internalType": "struct Zp_2",
                      "name": "c",
                      "type": "tuple"
                    }
                  ],
                  "internalType": "struct Zp_6",
                  "name": "a",
                  "type": "tuple"
                },
                {
                  "components": [
                    {
                      "components": [
                        {
                          "components": [
                            {
                              "components": [
                                {
                                  "internalType": "bytes",
                                  "name": "val",
                                  "type": "bytes"
                                },
                                {
                                  "internalType": "bool",
                                  "name": "neg",
                                  "type": "bool"
                                },
                                {
                                  "internalType": "uint256",
                                  "name": "bitlen",
                                  "type": "uint256"
                                }
                              ],
                              "internalType": "struct BigNumber",
                              "name": "value",
                              "type": "tuple"
                            }
                          ],
                          "internalType": "struct Zp",
                          "name": "a",
                          "type": "tuple"
                        },
                        {
                          "components": [
                            {
                              "components": [
                                {
                                  "internalType": "bytes",
                                  "name": "val",
                                  "type": "bytes"
                                },
                                {
                                  "internalType": "bool",
                                  "name": "neg",
                                  "type": "bool"
                                },
                                {
                                  "internalType": "uint256",
                                  "name": "bitlen",
                                  "type": "uint256"
                                }
                              ],
                              "internalType": "struct BigNumber",
                              "name": "value",
                              "type": "tuple"
                            }
                          ],
                          "internalType": "struct Zp",
                          "name": "b",
                          "type": "tuple"
                        }
                      ],
                      "internalType": "struct Zp_2",
                      "name": "a",
                      "type": "tuple"
                    },
                    {
                      "components": [
                        {
                          "components": [
                            {
                              "components": [
                                {
                                  "internalType": "bytes",
                                  "name": "val",
                                  "type": "bytes"
                                },
                                {
                                  "internalType": "bool",
                                  "name": "neg",
                                  "type": "bool"
                                },
                                {
                                  "internalType": "uint256",
                                  "name": "bitlen",
                                  "type": "uint256"
                                }
                              ],
                              "internalType": "struct BigNumber",
                              "name": "value",
                              "type": "tuple"
                            }
                          ],
                          "internalType": "struct Zp",
                          "name": "a",
                          "type": "tuple"
                        },
                        {
                          "components": [
                            {
                              "components": [
                                {
                                  "internalType": "bytes",
                                  "name": "val",
                                  "type": "bytes"
                                },
                                {
                                  "internalType": "bool",
                                  "name": "neg",
                                  "type": "bool"
                                },
                                {
                                  "internalType": "uint256",
                                  "name": "bitlen",
                                  "type": "uint256"
                                }
                              ],
                              "internalType": "struct BigNumber",
                              "name": "value",
                              "type": "tuple"
                            }
                          ],
                          "internalType": "struct Zp",
                          "name": "b",
                          "type": "tuple"
                        }
                      ],
                      "internalType": "struct Zp_2",
                      "name": "b",
                      "type": "tuple"
                    },
                    {
                      "components": [
                        {
                          "components": [
                            {
                              "components": [
                                {
                                  "internalType": "bytes",
                                  "name": "val",
                                  "type": "bytes"
                                },
                                {
                                  "internalType": "bool",
                                  "name": "neg",
                                  "type": "bool"
                                },
                                {
                                  "internalType": "uint256",
                                  "name": "bitlen",
                                  "type": "uint256"
                                }
                              ],
                              "internalType": "struct BigNumber",
                              "name": "value",
                              "type": "tuple"
                            }
                          ],
                          "internalType": "struct Zp",
                          "name": "a",
                          "type": "tuple"
                        },
                        {
                          "components": [
                            {
                              "components": [
                                {
                                  "internalType": "bytes",
                                  "name": "val",
                                  "type": "bytes"
                                },
                                {
                                  "internalType": "bool",
                                  "name": "neg",
                                  "type": "bool"
                                },
                                {
                                  "internalType": "uint256",
                                  "name": "bitlen",
                                  "type": "uint256"
                                }
                              ],
                              "internalType": "struct BigNumber",
                              "name": "value",
                              "type": "tuple"
                            }
                          ],
                          "internalType": "struct Zp",
                          "name": "b",
                          "type": "tuple"
                        }
                      ],
                      "internalType": "struct Zp_2",
                      "name": "c",
                      "type": "tuple"
                    }
                  ],
                  "internalType": "struct Zp_6",
                  "name": "b",
                  "type": "tuple"
                }
              ],
              "internalType": "struct Zp_12",
              "name": "x",
              "type": "tuple"
            },
            {
              "components": [
                {
                  "components": [
                    {
                      "components": [
                        {
                          "components": [
                            {
                              "components": [
                                {
                                  "internalType": "bytes",
                                  "name": "val",
                                  "type": "bytes"
                                },
                                {
                                  "internalType": "bool",
                                  "name": "neg",
                                  "type": "bool"
                                },
                                {
                                  "internalType": "uint256",
                                  "name": "bitlen",
                                  "type": "uint256"
                                }
                              ],
                              "internalType": "struct BigNumber",
                              "name": "value",
                              "type": "tuple"
                            }
                          ],
                          "internalType": "struct Zp",
                          "name": "a",
                          "type": "tuple"
                        },
                        {
                          "components": [
                            {
                              "components": [
                                {
                                  "internalType": "bytes",
                                  "name": "val",
                                  "type": "bytes"
                                },
                                {
                                  "internalType": "bool",
                                  "name": "neg",
                                  "type": "bool"
                                },
                                {
                                  "internalType": "uint256",
                                  "name": "bitlen",
                                  "type": "uint256"
                                }
                              ],
                              "internalType": "struct BigNumber",
                              "name": "value",
                              "type": "tuple"
                            }
                          ],
                          "internalType": "struct Zp",
                          "name": "b",
                          "type": "tuple"
                        }
                      ],
                      "internalType": "struct Zp_2",
                      "name": "a",
                      "type": "tuple"
                    },
                    {
                      "components": [
                        {
                          "components": [
                            {
                              "components": [
                                {
                                  "internalType": "bytes",
                                  "name": "val",
                                  "type": "bytes"
                                },
                                {
                                  "internalType": "bool",
                                  "name": "neg",
                                  "type": "bool"
                                },
                                {
                                  "internalType": "uint256",
                                  "name": "bitlen",
                                  "type": "uint256"
                                }
                              ],
                              "internalType": "struct BigNumber",
                              "name": "value",
                              "type": "tuple"
                            }
                          ],
                          "internalType": "struct Zp",
                          "name": "a",
                          "type": "tuple"
                        },
                        {
                          "components": [
                            {
                              "components": [
                                {
                                  "internalType": "bytes",
                                  "name": "val",
                                  "type": "bytes"
                                },
                                {
                                  "internalType": "bool",
                                  "name": "neg",
                                  "type": "bool"
                                },
                                {
                                  "internalType": "uint256",
                                  "name": "bitlen",
                                  "type": "uint256"
                                }
                              ],
                              "internalType": "struct BigNumber",
                              "name": "value",
                              "type": "tuple"
                            }
                          ],
                          "internalType": "struct Zp",
                          "name": "b",
                          "type": "tuple"
                        }
                      ],
                      "internalType": "struct Zp_2",
                      "name": "b",
                      "type": "tuple"
                    },
                    {
                      "components": [
                        {
                          "components": [
                            {
                              "components": [
                                {
                                  "internalType": "bytes",
                                  "name": "val",
                                  "type": "bytes"
                                },
                                {
                                  "internalType": "bool",
                                  "name": "neg",
                                  "type": "bool"
                                },
                                {
                                  "internalType": "uint256",
                                  "name": "bitlen",
                                  "type": "uint256"
                                }
                              ],
                              "internalType": "struct BigNumber",
                              "name": "value",
                              "type": "tuple"
                            }
                          ],
                          "internalType": "struct Zp",
                          "name": "a",
                          "type": "tuple"
                        },
                        {
                          "components": [
                            {
                              "components": [
                                {
                                  "internalType": "bytes",
                                  "name": "val",
                                  "type": "bytes"
                                },
                                {
                                  "internalType": "bool",
                                  "name": "neg",
                                  "type": "bool"
                                },
                                {
                                  "internalType": "uint256",
                                  "name": "bitlen",
                                  "type": "uint256"
                                }
                              ],
                              "internalType": "struct BigNumber",
                              "name": "value",
                              "type": "tuple"
                            }
                          ],
                          "internalType": "struct Zp",
                          "name": "b",
                          "type": "tuple"
                        }
                      ],
                      "internalType": "struct Zp_2",
                      "name": "c",
                      "type": "tuple"
                    }
                  ],
                  "internalType": "struct Zp_6",
                  "name": "a",
                  "type": "tuple"
                },
                {
                  "components": [
                    {
                      "components": [
                        {
                          "components": [
                            {
                              "components": [
                                {
                                  "internalType": "bytes",
                                  "name": "val",
                                  "type": "bytes"
                                },
                                {
                                  "internalType": "bool",
                                  "name": "neg",
                                  "type": "bool"
                                },
                                {
                                  "internalType": "uint256",
                                  "name": "bitlen",
                                  "type": "uint256"
                                }
                              ],
                              "internalType": "struct BigNumber",
                              "name": "value",
                              "type": "tuple"
                            }
                          ],
                          "internalType": "struct Zp",
                          "name": "a",
                          "type": "tuple"
                        },
                        {
                          "components": [
                            {
                              "components": [
                                {
                                  "internalType": "bytes",
                                  "name": "val",
                                  "type": "bytes"
                                },
                                {
                                  "internalType": "bool",
                                  "name": "neg",
                                  "type": "bool"
                                },
                                {
                                  "internalType": "uint256",
                                  "name": "bitlen",
                                  "type": "uint256"
                                }
                              ],
                              "internalType": "struct BigNumber",
                              "name": "value",
                              "type": "tuple"
                            }
                          ],
                          "internalType": "struct Zp",
                          "name": "b",
                          "type": "tuple"
                        }
                      ],
                      "internalType": "struct Zp_2",
                      "name": "a",
                      "type": "tuple"
                    },
                    {
                      "components": [
                        {
                          "components": [
                            {
                              "components": [
                                {
                                  "internalType": "bytes",
                                  "name": "val",
                                  "type": "bytes"
                                },
                                {
                                  "internalType": "bool",
                                  "name": "neg",
                                  "type": "bool"
                                },
                                {
                                  "internalType": "uint256",
                                  "name": "bitlen",
                                  "type": "uint256"
                                }
                              ],
                              "internalType": "struct BigNumber",
                              "name": "value",
                              "type": "tuple"
                            }
                          ],
                          "internalType": "struct Zp",
                          "name": "a",
                          "type": "tuple"
                        },
                        {
                          "components": [
                            {
                              "components": [
                                {
                                  "internalType": "bytes",
                                  "name": "val",
                                  "type": "bytes"
                                },
                                {
                                  "internalType": "bool",
                                  "name": "neg",
                                  "type": "bool"
                                },
                                {
                                  "internalType": "uint256",
                                  "name": "bitlen",
                                  "type": "uint256"
                                }
                              ],
                              "internalType": "struct BigNumber",
                              "name": "value",
                              "type": "tuple"
                            }
                          ],
                          "internalType": "struct Zp",
                          "name": "b",
                          "type": "tuple"
                        }
                      ],
                      "internalType": "struct Zp_2",
                      "name": "b",
                      "type": "tuple"
                    },
                    {
                      "components": [
                        {
                          "components": [
                            {
                              "components": [
                                {
                                  "internalType": "bytes",
                                  "name": "val",
                                  "type": "bytes"
                                },
                                {
                                  "internalType": "bool",
                                  "name": "neg",
                                  "type": "bool"
                                },
                                {
                                  "internalType": "uint256",
                                  "name": "bitlen",
                                  "type": "uint256"
                                }
                              ],
                              "internalType": "struct BigNumber",
                              "name": "value",
                              "type": "tuple"
                            }
                          ],
                          "internalType": "struct Zp",
                          "name": "a",
                          "type": "tuple"
                        },
                        {
                          "components": [
                            {
                              "components": [
                                {
                                  "internalType": "bytes",
                                  "name": "val",
                                  "type": "bytes"
                                },
                                {
                                  "internalType": "bool",
                                  "name": "neg",
                                  "type": "bool"
                                },
                                {
                                  "internalType": "uint256",
                                  "name": "bitlen",
                                  "type": "uint256"
                                }
                              ],
                              "internalType": "struct BigNumber",
                              "name": "value",
                              "type": "tuple"
                            }
                          ],
                          "internalType": "struct Zp",
                          "name": "b",
                          "type": "tuple"
                        }
                      ],
                      "internalType": "struct Zp_2",
                      "name": "c",
                      "type": "tuple"
                    }
                  ],
                  "internalType": "struct Zp_6",
                  "name": "b",
                  "type": "tuple"
                }
              ],
              "internalType": "struct Zp_12",
              "name": "y",
              "type": "tuple"
            }
          ],
          "internalType": "struct Point_Zp_12",
          "name": "a",
          "type": "tuple"
        },
        {
          "components": [
            {
              "internalType": "enum PointType_12",
              "name": "pointType",
              "type": "uint8"
            },
            {
              "components": [
                {
                  "components": [
                    {
                      "components": [
                        {
                          "components": [
                            {
                              "components": [
                                {
                                  "internalType": "bytes",
                                  "name": "val",
                                  "type": "bytes"
                                },
                                {
                                  "internalType": "bool",
                                  "name": "neg",
                                  "type": "bool"
                                },
                                {
                                  "internalType": "uint256",
                                  "name": "bitlen",
                                  "type": "uint256"
                                }
                              ],
                              "internalType": "struct BigNumber",
                              "name": "value",
                              "type": "tuple"
                            }
                          ],
                          "internalType": "struct Zp",
                          "name": "a",
                          "type": "tuple"
                        },
                        {
                          "components": [
                            {
                              "components": [
                                {
                                  "internalType": "bytes",
                                  "name": "val",
                                  "type": "bytes"
                                },
                                {
                                  "internalType": "bool",
                                  "name": "neg",
                                  "type": "bool"
                                },
                                {
                                  "internalType": "uint256",
                                  "name": "bitlen",
                                  "type": "uint256"
                                }
                              ],
                              "internalType": "struct BigNumber",
                              "name": "value",
                              "type": "tuple"
                            }
                          ],
                          "internalType": "struct Zp",
                          "name": "b",
                          "type": "tuple"
                        }
                      ],
                      "internalType": "struct Zp_2",
                      "name": "a",
                      "type": "tuple"
                    },
                    {
                      "components": [
                        {
                          "components": [
                            {
                              "components": [
                                {
                                  "internalType": "bytes",
                                  "name": "val",
                                  "type": "bytes"
                                },
                                {
                                  "internalType": "bool",
                                  "name": "neg",
                                  "type": "bool"
                                },
                                {
                                  "internalType": "uint256",
                                  "name": "bitlen",
                                  "type": "uint256"
                                }
                              ],
                              "internalType": "struct BigNumber",
                              "name": "value",
                              "type": "tuple"
                            }
                          ],
                          "internalType": "struct Zp",
                          "name": "a",
                          "type": "tuple"
                        },
                        {
                          "components": [
                            {
                              "components": [
                                {
                                  "internalType": "bytes",
                                  "name": "val",
                                  "type": "bytes"
                                },
                                {
                                  "internalType": "bool",
                                  "name": "neg",
                                  "type": "bool"
                                },
                                {
                                  "internalType": "uint256",
                                  "name": "bitlen",
                                  "type": "uint256"
                                }
                              ],
                              "internalType": "struct BigNumber",
                              "name": "value",
                              "type": "tuple"
                            }
                          ],
                          "internalType": "struct Zp",
                          "name": "b",
                          "type": "tuple"
                        }
                      ],
                      "internalType": "struct Zp_2",
                      "name": "b",
                      "type": "tuple"
                    },
                    {
                      "components": [
                        {
                          "components": [
                            {
                              "components": [
                                {
                                  "internalType": "bytes",
                                  "name": "val",
                                  "type": "bytes"
                                },
                                {
                                  "internalType": "bool",
                                  "name": "neg",
                                  "type": "bool"
                                },
                                {
                                  "internalType": "uint256",
                                  "name": "bitlen",
                                  "type": "uint256"
                                }
                              ],
                              "internalType": "struct BigNumber",
                              "name": "value",
                              "type": "tuple"
                            }
                          ],
                          "internalType": "struct Zp",
                          "name": "a",
                          "type": "tuple"
                        },
                        {
                          "components": [
                            {
                              "components": [
                                {
                                  "internalType": "bytes",
                                  "name": "val",
                                  "type": "bytes"
                                },
                                {
                                  "internalType": "bool",
                                  "name": "neg",
                                  "type": "bool"
                                },
                                {
                                  "internalType": "uint256",
                                  "name": "bitlen",
                                  "type": "uint256"
                                }
                              ],
                              "internalType": "struct BigNumber",
                              "name": "value",
                              "type": "tuple"
                            }
                          ],
                          "internalType": "struct Zp",
                          "name": "b",
                          "type": "tuple"
                        }
                      ],
                      "internalType": "struct Zp_2",
                      "name": "c",
                      "type": "tuple"
                    }
                  ],
                  "internalType": "struct Zp_6",
                  "name": "a",
                  "type": "tuple"
                },
                {
                  "components": [
                    {
                      "components": [
                        {
                          "components": [
                            {
                              "components": [
                                {
                                  "internalType": "bytes",
                                  "name": "val",
                                  "type": "bytes"
                                },
                                {
                                  "internalType": "bool",
                                  "name": "neg",
                                  "type": "bool"
                                },
                                {
                                  "internalType": "uint256",
                                  "name": "bitlen",
                                  "type": "uint256"
                                }
                              ],
                              "internalType": "struct BigNumber",
                              "name": "value",
                              "type": "tuple"
                            }
                          ],
                          "internalType": "struct Zp",
                          "name": "a",
                          "type": "tuple"
                        },
                        {
                          "components": [
                            {
                              "components": [
                                {
                                  "internalType": "bytes",
                                  "name": "val",
                                  "type": "bytes"
                                },
                                {
                                  "internalType": "bool",
                                  "name": "neg",
                                  "type": "bool"
                                },
                                {
                                  "internalType": "uint256",
                                  "name": "bitlen",
                                  "type": "uint256"
                                }
                              ],
                              "internalType": "struct BigNumber",
                              "name": "value",
                              "type": "tuple"
                            }
                          ],
                          "internalType": "struct Zp",
                          "name": "b",
                          "type": "tuple"
                        }
                      ],
                      "internalType": "struct Zp_2",
                      "name": "a",
                      "type": "tuple"
                    },
                    {
                      "components": [
                        {
                          "components": [
                            {
                              "components": [
                                {
                                  "internalType": "bytes",
                                  "name": "val",
                                  "type": "bytes"
                                },
                                {
                                  "internalType": "bool",
                                  "name": "neg",
                                  "type": "bool"
                                },
                                {
                                  "internalType": "uint256",
                                  "name": "bitlen",
                                  "type": "uint256"
                                }
                              ],
                              "internalType": "struct BigNumber",
                              "name": "value",
                              "type": "tuple"
                            }
                          ],
                          "internalType": "struct Zp",
                          "name": "a",
                          "type": "tuple"
                        },
                        {
                          "components": [
                            {
                              "components": [
                                {
                                  "internalType": "bytes",
                                  "name": "val",
                                  "type": "bytes"
                                },
                                {
                                  "internalType": "bool",
                                  "name": "neg",
                                  "type": "bool"
                                },
                                {
                                  "internalType": "uint256",
                                  "name": "bitlen",
                                  "type": "uint256"
                                }
                              ],
                              "internalType": "struct BigNumber",
                              "name": "value",
                              "type": "tuple"
                            }
                          ],
                          "internalType": "struct Zp",
                          "name": "b",
                          "type": "tuple"
                        }
                      ],
                      "internalType": "struct Zp_2",
                      "name": "b",
                      "type": "tuple"
                    },
                    {
                      "components": [
                        {
                          "components": [
                            {
                              "components": [
                                {
                                  "internalType": "bytes",
                                  "name": "val",
                                  "type": "bytes"
                                },
                                {
                                  "internalType": "bool",
                                  "name": "neg",
                                  "type": "bool"
                                },
                                {
                                  "internalType": "uint256",
                                  "name": "bitlen",
                                  "type": "uint256"
                                }
                              ],
                              "internalType": "struct BigNumber",
                              "name": "value",
                              "type": "tuple"
                            }
                          ],
                          "internalType": "struct Zp",
                          "name": "a",
                          "type": "tuple"
                        },
                        {
                          "components": [
                            {
                              "components": [
                                {
                                  "internalType": "bytes",
                                  "name": "val",
                                  "type": "bytes"
                                },
                                {
                                  "internalType": "bool",
                                  "name": "neg",
                                  "type": "bool"
                                },
                                {
                                  "internalType": "uint256",
                                  "name": "bitlen",
                                  "type": "uint256"
                                }
                              ],
                              "internalType": "struct BigNumber",
                              "name": "value",
                              "type": "tuple"
                            }
                          ],
                          "internalType": "struct Zp",
                          "name": "b",
                          "type": "tuple"
                        }
                      ],
                      "internalType": "struct Zp_2",
                      "name": "c",
                      "type": "tuple"
                    }
                  ],
                  "internalType": "struct Zp_6",
                  "name": "b",
                  "type": "tuple"
                }
              ],
              "internalType": "struct Zp_12",
              "name": "x",
              "type": "tuple"
            },
            {
              "components": [
                {
                  "components": [
                    {
                      "components": [
                        {
                          "components": [
                            {
                              "components": [
                                {
                                  "internalType": "bytes",
                                  "name": "val",
                                  "type": "bytes"
                                },
                                {
                                  "internalType": "bool",
                                  "name": "neg",
                                  "type": "bool"
                                },
                                {
                                  "internalType": "uint256",
                                  "name": "bitlen",
                                  "type": "uint256"
                                }
                              ],
                              "internalType": "struct BigNumber",
                              "name": "value",
                              "type": "tuple"
                            }
                          ],
                          "internalType": "struct Zp",
                          "name": "a",
                          "type": "tuple"
                        },
                        {
                          "components": [
                            {
                              "components": [
                                {
                                  "internalType": "bytes",
                                  "name": "val",
                                  "type": "bytes"
                                },
                                {
                                  "internalType": "bool",
                                  "name": "neg",
                                  "type": "bool"
                                },
                                {
                                  "internalType": "uint256",
                                  "name": "bitlen",
                                  "type": "uint256"
                                }
                              ],
                              "internalType": "struct BigNumber",
                              "name": "value",
                              "type": "tuple"
                            }
                          ],
                          "internalType": "struct Zp",
                          "name": "b",
                          "type": "tuple"
                        }
                      ],
                      "internalType": "struct Zp_2",
                      "name": "a",
                      "type": "tuple"
                    },
                    {
                      "components": [
                        {
                          "components": [
                            {
                              "components": [
                                {
                                  "internalType": "bytes",
                                  "name": "val",
                                  "type": "bytes"
                                },
                                {
                                  "internalType": "bool",
                                  "name": "neg",
                                  "type": "bool"
                                },
                                {
                                  "internalType": "uint256",
                                  "name": "bitlen",
                                  "type": "uint256"
                                }
                              ],
                              "internalType": "struct BigNumber",
                              "name": "value",
                              "type": "tuple"
                            }
                          ],
                          "internalType": "struct Zp",
                          "name": "a",
                          "type": "tuple"
                        },
                        {
                          "components": [
                            {
                              "components": [
                                {
                                  "internalType": "bytes",
                                  "name": "val",
                                  "type": "bytes"
                                },
                                {
                                  "internalType": "bool",
                                  "name": "neg",
                                  "type": "bool"
                                },
                                {
                                  "internalType": "uint256",
                                  "name": "bitlen",
                                  "type": "uint256"
                                }
                              ],
                              "internalType": "struct BigNumber",
                              "name": "value",
                              "type": "tuple"
                            }
                          ],
                          "internalType": "struct Zp",
                          "name": "b",
                          "type": "tuple"
                        }
                      ],
                      "internalType": "struct Zp_2",
                      "name": "b",
                      "type": "tuple"
                    },
                    {
                      "components": [
                        {
                          "components": [
                            {
                              "components": [
                                {
                                  "internalType": "bytes",
                                  "name": "val",
                                  "type": "bytes"
                                },
                                {
                                  "internalType": "bool",
                                  "name": "neg",
                                  "type": "bool"
                                },
                                {
                                  "internalType": "uint256",
                                  "name": "bitlen",
                                  "type": "uint256"
                                }
                              ],
                              "internalType": "struct BigNumber",
                              "name": "value",
                              "type": "tuple"
                            }
                          ],
                          "internalType": "struct Zp",
                          "name": "a",
                          "type": "tuple"
                        },
                        {
                          "components": [
                            {
                              "components": [
                                {
                                  "internalType": "bytes",
                                  "name": "val",
                                  "type": "bytes"
                                },
                                {
                                  "internalType": "bool",
                                  "name": "neg",
                                  "type": "bool"
                                },
                                {
                                  "internalType": "uint256",
                                  "name": "bitlen",
                                  "type": "uint256"
                                }
                              ],
                              "internalType": "struct BigNumber",
                              "name": "value",
                              "type": "tuple"
                            }
                          ],
                          "internalType": "struct Zp",
                          "name": "b",
                          "type": "tuple"
                        }
                      ],
                      "internalType": "struct Zp_2",
                      "name": "c",
                      "type": "tuple"
                    }
                  ],
                  "internalType": "struct Zp_6",
                  "name": "a",
                  "type": "tuple"
                },
                {
                  "components": [
                    {
                      "components": [
                        {
                          "components": [
                            {
                              "components": [
                                {
                                  "internalType": "bytes",
                                  "name": "val",
                                  "type": "bytes"
                                },
                                {
                                  "internalType": "bool",
                                  "name": "neg",
                                  "type": "bool"
                                },
                                {
                                  "internalType": "uint256",
                                  "name": "bitlen",
                                  "type": "uint256"
                                }
                              ],
                              "internalType": "struct BigNumber",
                              "name": "value",
                              "type": "tuple"
                            }
                          ],
                          "internalType": "struct Zp",
                          "name": "a",
                          "type": "tuple"
                        },
                        {
                          "components": [
                            {
                              "components": [
                                {
                                  "internalType": "bytes",
                                  "name": "val",
                                  "type": "bytes"
                                },
                                {
                                  "internalType": "bool",
                                  "name": "neg",
                                  "type": "bool"
                                },
                                {
                                  "internalType": "uint256",
                                  "name": "bitlen",
                                  "type": "uint256"
                                }
                              ],
                              "internalType": "struct BigNumber",
                              "name": "value",
                              "type": "tuple"
                            }
                          ],
                          "internalType": "struct Zp",
                          "name": "b",
                          "type": "tuple"
                        }
                      ],
                      "internalType": "struct Zp_2",
                      "name": "a",
                      "type": "tuple"
                    },
                    {
                      "components": [
                        {
                          "components": [
                            {
                              "components": [
                                {
                                  "internalType": "bytes",
                                  "name": "val",
                                  "type": "bytes"
                                },
                                {
                                  "internalType": "bool",
                                  "name": "neg",
                                  "type": "bool"
                                },
                                {
                                  "internalType": "uint256",
                                  "name": "bitlen",
                                  "type": "uint256"
                                }
                              ],
                              "internalType": "struct BigNumber",
                              "name": "value",
                              "type": "tuple"
                            }
                          ],
                          "internalType": "struct Zp",
                          "name": "a",
                          "type": "tuple"
                        },
                        {
                          "components": [
                            {
                              "components": [
                                {
                                  "internalType": "bytes",
                                  "name": "val",
                                  "type": "bytes"
                                },
                                {
                                  "internalType": "bool",
                                  "name": "neg",
                                  "type": "bool"
                                },
                                {
                                  "internalType": "uint256",
                                  "name": "bitlen",
                                  "type": "uint256"
                                }
                              ],
                              "internalType": "struct BigNumber",
                              "name": "value",
                              "type": "tuple"
                            }
                          ],
                          "internalType": "struct Zp",
                          "name": "b",
                          "type": "tuple"
                        }
                      ],
                      "internalType": "struct Zp_2",
                      "name": "b",
                      "type": "tuple"
                    },
                    {
                      "components": [
                        {
                          "components": [
                            {
                              "components": [
                                {
                                  "internalType": "bytes",
                                  "name": "val",
                                  "type": "bytes"
                                },
                                {
                                  "internalType": "bool",
                                  "name": "neg",
                                  "type": "bool"
                                },
                                {
                                  "internalType": "uint256",
                                  "name": "bitlen",
                                  "type": "uint256"
                                }
                              ],
                              "internalType": "struct BigNumber",
                              "name": "value",
                              "type": "tuple"
                            }
                          ],
                          "internalType": "struct Zp",
                          "name": "a",
                          "type": "tuple"
                        },
                        {
                          "components": [
                            {
                              "components": [
                                {
                                  "internalType": "bytes",
                                  "name": "val",
                                  "type": "bytes"
                                },
                                {
                                  "internalType": "bool",
                                  "name": "neg",
                                  "type": "bool"
                                },
                                {
                                  "internalType": "uint256",
                                  "name": "bitlen",
                                  "type": "uint256"
                                }
                              ],
                              "internalType": "struct BigNumber",
                              "name": "value",
                              "type": "tuple"
                            }
                          ],
                          "internalType": "struct Zp",
                          "name": "b",
                          "type": "tuple"
                        }
                      ],
                      "internalType": "struct Zp_2",
                      "name": "c",
                      "type": "tuple"
                    }
                  ],
                  "internalType": "struct Zp_6",
                  "name": "b",
                  "type": "tuple"
                }
              ],
              "internalType": "struct Zp_12",
              "name": "y",
              "type": "tuple"
            }
          ],
          "internalType": "struct Point_Zp_12",
          "name": "b",
          "type": "tuple"
        }
      ],
      "name": "compare",
      "outputs": [
        {
          "internalType": "bool",
          "name": "",
          "type": "bool"
        }
      ],
      "stateMutability": "view",
      "type": "function"
    },
    {
      "inputs": [
        {
          "components": [
            {
              "components": [
                {
                  "components": [
                    {
                      "components": [
                        {
                          "components": [
                            {
                              "internalType": "bytes",
                              "name": "val",
                              "type": "bytes"
                            },
                            {
                              "internalType": "bool",
                              "name": "neg",
                              "type": "bool"
                            },
                            {
                              "internalType": "uint256",
                              "name": "bitlen",
                              "type": "uint256"
                            }
                          ],
                          "internalType": "struct BigNumber",
                          "name": "value",
                          "type": "tuple"
                        }
                      ],
                      "internalType": "struct Zp",
                      "name": "a",
                      "type": "tuple"
                    },
                    {
                      "components": [
                        {
                          "components": [
                            {
                              "internalType": "bytes",
                              "name": "val",
                              "type": "bytes"
                            },
                            {
                              "internalType": "bool",
                              "name": "neg",
                              "type": "bool"
                            },
                            {
                              "internalType": "uint256",
                              "name": "bitlen",
                              "type": "uint256"
                            }
                          ],
                          "internalType": "struct BigNumber",
                          "name": "value",
                          "type": "tuple"
                        }
                      ],
                      "internalType": "struct Zp",
                      "name": "b",
                      "type": "tuple"
                    }
                  ],
                  "internalType": "struct Zp_2",
                  "name": "a",
                  "type": "tuple"
                },
                {
                  "components": [
                    {
                      "components": [
                        {
                          "components": [
                            {
                              "internalType": "bytes",
                              "name": "val",
                              "type": "bytes"
                            },
                            {
                              "internalType": "bool",
                              "name": "neg",
                              "type": "bool"
                            },
                            {
                              "internalType": "uint256",
                              "name": "bitlen",
                              "type": "uint256"
                            }
                          ],
                          "internalType": "struct BigNumber",
                          "name": "value",
                          "type": "tuple"
                        }
                      ],
                      "internalType": "struct Zp",
                      "name": "a",
                      "type": "tuple"
                    },
                    {
                      "components": [
                        {
                          "components": [
                            {
                              "internalType": "bytes",
                              "name": "val",
                              "type": "bytes"
                            },
                            {
                              "internalType": "bool",
                              "name": "neg",
                              "type": "bool"
                            },
                            {
                              "internalType": "uint256",
                              "name": "bitlen",
                              "type": "uint256"
                            }
                          ],
                          "internalType": "struct BigNumber",
                          "name": "value",
                          "type": "tuple"
                        }
                      ],
                      "internalType": "struct Zp",
                      "name": "b",
                      "type": "tuple"
                    }
                  ],
                  "internalType": "struct Zp_2",
                  "name": "b",
                  "type": "tuple"
                },
                {
                  "components": [
                    {
                      "components": [
                        {
                          "components": [
                            {
                              "internalType": "bytes",
                              "name": "val",
                              "type": "bytes"
                            },
                            {
                              "internalType": "bool",
                              "name": "neg",
                              "type": "bool"
                            },
                            {
                              "internalType": "uint256",
                              "name": "bitlen",
                              "type": "uint256"
                            }
                          ],
                          "internalType": "struct BigNumber",
                          "name": "value",
                          "type": "tuple"
                        }
                      ],
                      "internalType": "struct Zp",
                      "name": "a",
                      "type": "tuple"
                    },
                    {
                      "components": [
                        {
                          "components": [
                            {
                              "internalType": "bytes",
                              "name": "val",
                              "type": "bytes"
                            },
                            {
                              "internalType": "bool",
                              "name": "neg",
                              "type": "bool"
                            },
                            {
                              "internalType": "uint256",
                              "name": "bitlen",
                              "type": "uint256"
                            }
                          ],
                          "internalType": "struct BigNumber",
                          "name": "value",
                          "type": "tuple"
                        }
                      ],
                      "internalType": "struct Zp",
                      "name": "b",
                      "type": "tuple"
                    }
                  ],
                  "internalType": "struct Zp_2",
                  "name": "c",
                  "type": "tuple"
                }
              ],
              "internalType": "struct Zp_6",
              "name": "a",
              "type": "tuple"
            },
            {
              "components": [
                {
                  "components": [
                    {
                      "components": [
                        {
                          "components": [
                            {
                              "internalType": "bytes",
                              "name": "val",
                              "type": "bytes"
                            },
                            {
                              "internalType": "bool",
                              "name": "neg",
                              "type": "bool"
                            },
                            {
                              "internalType": "uint256",
                              "name": "bitlen",
                              "type": "uint256"
                            }
                          ],
                          "internalType": "struct BigNumber",
                          "name": "value",
                          "type": "tuple"
                        }
                      ],
                      "internalType": "struct Zp",
                      "name": "a",
                      "type": "tuple"
                    },
                    {
                      "components": [
                        {
                          "components": [
                            {
                              "internalType": "bytes",
                              "name": "val",
                              "type": "bytes"
                            },
                            {
                              "internalType": "bool",
                              "name": "neg",
                              "type": "bool"
                            },
                            {
                              "internalType": "uint256",
                              "name": "bitlen",
                              "type": "uint256"
                            }
                          ],
                          "internalType": "struct BigNumber",
                          "name": "value",
                          "type": "tuple"
                        }
                      ],
                      "internalType": "struct Zp",
                      "name": "b",
                      "type": "tuple"
                    }
                  ],
                  "internalType": "struct Zp_2",
                  "name": "a",
                  "type": "tuple"
                },
                {
                  "components": [
                    {
                      "components": [
                        {
                          "components": [
                            {
                              "internalType": "bytes",
                              "name": "val",
                              "type": "bytes"
                            },
                            {
                              "internalType": "bool",
                              "name": "neg",
                              "type": "bool"
                            },
                            {
                              "internalType": "uint256",
                              "name": "bitlen",
                              "type": "uint256"
                            }
                          ],
                          "internalType": "struct BigNumber",
                          "name": "value",
                          "type": "tuple"
                        }
                      ],
                      "internalType": "struct Zp",
                      "name": "a",
                      "type": "tuple"
                    },
                    {
                      "components": [
                        {
                          "components": [
                            {
                              "internalType": "bytes",
                              "name": "val",
                              "type": "bytes"
                            },
                            {
                              "internalType": "bool",
                              "name": "neg",
                              "type": "bool"
                            },
                            {
                              "internalType": "uint256",
                              "name": "bitlen",
                              "type": "uint256"
                            }
                          ],
                          "internalType": "struct BigNumber",
                          "name": "value",
                          "type": "tuple"
                        }
                      ],
                      "internalType": "struct Zp",
                      "name": "b",
                      "type": "tuple"
                    }
                  ],
                  "internalType": "struct Zp_2",
                  "name": "b",
                  "type": "tuple"
                },
                {
                  "components": [
                    {
                      "components": [
                        {
                          "components": [
                            {
                              "internalType": "bytes",
                              "name": "val",
                              "type": "bytes"
                            },
                            {
                              "internalType": "bool",
                              "name": "neg",
                              "type": "bool"
                            },
                            {
                              "internalType": "uint256",
                              "name": "bitlen",
                              "type": "uint256"
                            }
                          ],
                          "internalType": "struct BigNumber",
                          "name": "value",
                          "type": "tuple"
                        }
                      ],
                      "internalType": "struct Zp",
                      "name": "a",
                      "type": "tuple"
                    },
                    {
                      "components": [
                        {
                          "components": [
                            {
                              "internalType": "bytes",
                              "name": "val",
                              "type": "bytes"
                            },
                            {
                              "internalType": "bool",
                              "name": "neg",
                              "type": "bool"
                            },
                            {
                              "internalType": "uint256",
                              "name": "bitlen",
                              "type": "uint256"
                            }
                          ],
                          "internalType": "struct BigNumber",
                          "name": "value",
                          "type": "tuple"
                        }
                      ],
                      "internalType": "struct Zp",
                      "name": "b",
                      "type": "tuple"
                    }
                  ],
                  "internalType": "struct Zp_2",
                  "name": "c",
                  "type": "tuple"
                }
              ],
              "internalType": "struct Zp_6",
              "name": "b",
              "type": "tuple"
            }
          ],
          "internalType": "struct Zp_12",
          "name": "x",
          "type": "tuple"
        },
        {
          "components": [
            {
              "components": [
                {
                  "components": [
                    {
                      "components": [
                        {
                          "components": [
                            {
                              "internalType": "bytes",
                              "name": "val",
                              "type": "bytes"
                            },
                            {
                              "internalType": "bool",
                              "name": "neg",
                              "type": "bool"
                            },
                            {
                              "internalType": "uint256",
                              "name": "bitlen",
                              "type": "uint256"
                            }
                          ],
                          "internalType": "struct BigNumber",
                          "name": "value",
                          "type": "tuple"
                        }
                      ],
                      "internalType": "struct Zp",
                      "name": "a",
                      "type": "tuple"
                    },
                    {
                      "components": [
                        {
                          "components": [
                            {
                              "internalType": "bytes",
                              "name": "val",
                              "type": "bytes"
                            },
                            {
                              "internalType": "bool",
                              "name": "neg",
                              "type": "bool"
                            },
                            {
                              "internalType": "uint256",
                              "name": "bitlen",
                              "type": "uint256"
                            }
                          ],
                          "internalType": "struct BigNumber",
                          "name": "value",
                          "type": "tuple"
                        }
                      ],
                      "internalType": "struct Zp",
                      "name": "b",
                      "type": "tuple"
                    }
                  ],
                  "internalType": "struct Zp_2",
                  "name": "a",
                  "type": "tuple"
                },
                {
                  "components": [
                    {
                      "components": [
                        {
                          "components": [
                            {
                              "internalType": "bytes",
                              "name": "val",
                              "type": "bytes"
                            },
                            {
                              "internalType": "bool",
                              "name": "neg",
                              "type": "bool"
                            },
                            {
                              "internalType": "uint256",
                              "name": "bitlen",
                              "type": "uint256"
                            }
                          ],
                          "internalType": "struct BigNumber",
                          "name": "value",
                          "type": "tuple"
                        }
                      ],
                      "internalType": "struct Zp",
                      "name": "a",
                      "type": "tuple"
                    },
                    {
                      "components": [
                        {
                          "components": [
                            {
                              "internalType": "bytes",
                              "name": "val",
                              "type": "bytes"
                            },
                            {
                              "internalType": "bool",
                              "name": "neg",
                              "type": "bool"
                            },
                            {
                              "internalType": "uint256",
                              "name": "bitlen",
                              "type": "uint256"
                            }
                          ],
                          "internalType": "struct BigNumber",
                          "name": "value",
                          "type": "tuple"
                        }
                      ],
                      "internalType": "struct Zp",
                      "name": "b",
                      "type": "tuple"
                    }
                  ],
                  "internalType": "struct Zp_2",
                  "name": "b",
                  "type": "tuple"
                },
                {
                  "components": [
                    {
                      "components": [
                        {
                          "components": [
                            {
                              "internalType": "bytes",
                              "name": "val",
                              "type": "bytes"
                            },
                            {
                              "internalType": "bool",
                              "name": "neg",
                              "type": "bool"
                            },
                            {
                              "internalType": "uint256",
                              "name": "bitlen",
                              "type": "uint256"
                            }
                          ],
                          "internalType": "struct BigNumber",
                          "name": "value",
                          "type": "tuple"
                        }
                      ],
                      "internalType": "struct Zp",
                      "name": "a",
                      "type": "tuple"
                    },
                    {
                      "components": [
                        {
                          "components": [
                            {
                              "internalType": "bytes",
                              "name": "val",
                              "type": "bytes"
                            },
                            {
                              "internalType": "bool",
                              "name": "neg",
                              "type": "bool"
                            },
                            {
                              "internalType": "uint256",
                              "name": "bitlen",
                              "type": "uint256"
                            }
                          ],
                          "internalType": "struct BigNumber",
                          "name": "value",
                          "type": "tuple"
                        }
                      ],
                      "internalType": "struct Zp",
                      "name": "b",
                      "type": "tuple"
                    }
                  ],
                  "internalType": "struct Zp_2",
                  "name": "c",
                  "type": "tuple"
                }
              ],
              "internalType": "struct Zp_6",
              "name": "a",
              "type": "tuple"
            },
            {
              "components": [
                {
                  "components": [
                    {
                      "components": [
                        {
                          "components": [
                            {
                              "internalType": "bytes",
                              "name": "val",
                              "type": "bytes"
                            },
                            {
                              "internalType": "bool",
                              "name": "neg",
                              "type": "bool"
                            },
                            {
                              "internalType": "uint256",
                              "name": "bitlen",
                              "type": "uint256"
                            }
                          ],
                          "internalType": "struct BigNumber",
                          "name": "value",
                          "type": "tuple"
                        }
                      ],
                      "internalType": "struct Zp",
                      "name": "a",
                      "type": "tuple"
                    },
                    {
                      "components": [
                        {
                          "components": [
                            {
                              "internalType": "bytes",
                              "name": "val",
                              "type": "bytes"
                            },
                            {
                              "internalType": "bool",
                              "name": "neg",
                              "type": "bool"
                            },
                            {
                              "internalType": "uint256",
                              "name": "bitlen",
                              "type": "uint256"
                            }
                          ],
                          "internalType": "struct BigNumber",
                          "name": "value",
                          "type": "tuple"
                        }
                      ],
                      "internalType": "struct Zp",
                      "name": "b",
                      "type": "tuple"
                    }
                  ],
                  "internalType": "struct Zp_2",
                  "name": "a",
                  "type": "tuple"
                },
                {
                  "components": [
                    {
                      "components": [
                        {
                          "components": [
                            {
                              "internalType": "bytes",
                              "name": "val",
                              "type": "bytes"
                            },
                            {
                              "internalType": "bool",
                              "name": "neg",
                              "type": "bool"
                            },
                            {
                              "internalType": "uint256",
                              "name": "bitlen",
                              "type": "uint256"
                            }
                          ],
                          "internalType": "struct BigNumber",
                          "name": "value",
                          "type": "tuple"
                        }
                      ],
                      "internalType": "struct Zp",
                      "name": "a",
                      "type": "tuple"
                    },
                    {
                      "components": [
                        {
                          "components": [
                            {
                              "internalType": "bytes",
                              "name": "val",
                              "type": "bytes"
                            },
                            {
                              "internalType": "bool",
                              "name": "neg",
                              "type": "bool"
                            },
                            {
                              "internalType": "uint256",
                              "name": "bitlen",
                              "type": "uint256"
                            }
                          ],
                          "internalType": "struct BigNumber",
                          "name": "value",
                          "type": "tuple"
                        }
                      ],
                      "internalType": "struct Zp",
                      "name": "b",
                      "type": "tuple"
                    }
                  ],
                  "internalType": "struct Zp_2",
                  "name": "b",
                  "type": "tuple"
                },
                {
                  "components": [
                    {
                      "components": [
                        {
                          "components": [
                            {
                              "internalType": "bytes",
                              "name": "val",
                              "type": "bytes"
                            },
                            {
                              "internalType": "bool",
                              "name": "neg",
                              "type": "bool"
                            },
                            {
                              "internalType": "uint256",
                              "name": "bitlen",
                              "type": "uint256"
                            }
                          ],
                          "internalType": "struct BigNumber",
                          "name": "value",
                          "type": "tuple"
                        }
                      ],
                      "internalType": "struct Zp",
                      "name": "a",
                      "type": "tuple"
                    },
                    {
                      "components": [
                        {
                          "components": [
                            {
                              "internalType": "bytes",
                              "name": "val",
                              "type": "bytes"
                            },
                            {
                              "internalType": "bool",
                              "name": "neg",
                              "type": "bool"
                            },
                            {
                              "internalType": "uint256",
                              "name": "bitlen",
                              "type": "uint256"
                            }
                          ],
                          "internalType": "struct BigNumber",
                          "name": "value",
                          "type": "tuple"
                        }
                      ],
                      "internalType": "struct Zp",
                      "name": "b",
                      "type": "tuple"
                    }
                  ],
                  "internalType": "struct Zp_2",
                  "name": "c",
                  "type": "tuple"
                }
              ],
              "internalType": "struct Zp_6",
              "name": "b",
              "type": "tuple"
            }
          ],
          "internalType": "struct Zp_12",
          "name": "y",
          "type": "tuple"
        }
      ],
      "name": "newPoint",
      "outputs": [
        {
          "components": [
            {
              "internalType": "enum PointType_12",
              "name": "pointType",
              "type": "uint8"
            },
            {
              "components": [
                {
                  "components": [
                    {
                      "components": [
                        {
                          "components": [
                            {
                              "components": [
                                {
                                  "internalType": "bytes",
                                  "name": "val",
                                  "type": "bytes"
                                },
                                {
                                  "internalType": "bool",
                                  "name": "neg",
                                  "type": "bool"
                                },
                                {
                                  "internalType": "uint256",
                                  "name": "bitlen",
                                  "type": "uint256"
                                }
                              ],
                              "internalType": "struct BigNumber",
                              "name": "value",
                              "type": "tuple"
                            }
                          ],
                          "internalType": "struct Zp",
                          "name": "a",
                          "type": "tuple"
                        },
                        {
                          "components": [
                            {
                              "components": [
                                {
                                  "internalType": "bytes",
                                  "name": "val",
                                  "type": "bytes"
                                },
                                {
                                  "internalType": "bool",
                                  "name": "neg",
                                  "type": "bool"
                                },
                                {
                                  "internalType": "uint256",
                                  "name": "bitlen",
                                  "type": "uint256"
                                }
                              ],
                              "internalType": "struct BigNumber",
                              "name": "value",
                              "type": "tuple"
                            }
                          ],
                          "internalType": "struct Zp",
                          "name": "b",
                          "type": "tuple"
                        }
                      ],
                      "internalType": "struct Zp_2",
                      "name": "a",
                      "type": "tuple"
                    },
                    {
                      "components": [
                        {
                          "components": [
                            {
                              "components": [
                                {
                                  "internalType": "bytes",
                                  "name": "val",
                                  "type": "bytes"
                                },
                                {
                                  "internalType": "bool",
                                  "name": "neg",
                                  "type": "bool"
                                },
                                {
                                  "internalType": "uint256",
                                  "name": "bitlen",
                                  "type": "uint256"
                                }
                              ],
                              "internalType": "struct BigNumber",
                              "name": "value",
                              "type": "tuple"
                            }
                          ],
                          "internalType": "struct Zp",
                          "name": "a",
                          "type": "tuple"
                        },
                        {
                          "components": [
                            {
                              "components": [
                                {
                                  "internalType": "bytes",
                                  "name": "val",
                                  "type": "bytes"
                                },
                                {
                                  "internalType": "bool",
                                  "name": "neg",
                                  "type": "bool"
                                },
                                {
                                  "internalType": "uint256",
                                  "name": "bitlen",
                                  "type": "uint256"
                                }
                              ],
                              "internalType": "struct BigNumber",
                              "name": "value",
                              "type": "tuple"
                            }
                          ],
                          "internalType": "struct Zp",
                          "name": "b",
                          "type": "tuple"
                        }
                      ],
                      "internalType": "struct Zp_2",
                      "name": "b",
                      "type": "tuple"
                    },
                    {
                      "components": [
                        {
                          "components": [
                            {
                              "components": [
                                {
                                  "internalType": "bytes",
                                  "name": "val",
                                  "type": "bytes"
                                },
                                {
                                  "internalType": "bool",
                                  "name": "neg",
                                  "type": "bool"
                                },
                                {
                                  "internalType": "uint256",
                                  "name": "bitlen",
                                  "type": "uint256"
                                }
                              ],
                              "internalType": "struct BigNumber",
                              "name": "value",
                              "type": "tuple"
                            }
                          ],
                          "internalType": "struct Zp",
                          "name": "a",
                          "type": "tuple"
                        },
                        {
                          "components": [
                            {
                              "components": [
                                {
                                  "internalType": "bytes",
                                  "name": "val",
                                  "type": "bytes"
                                },
                                {
                                  "internalType": "bool",
                                  "name": "neg",
                                  "type": "bool"
                                },
                                {
                                  "internalType": "uint256",
                                  "name": "bitlen",
                                  "type": "uint256"
                                }
                              ],
                              "internalType": "struct BigNumber",
                              "name": "value",
                              "type": "tuple"
                            }
                          ],
                          "internalType": "struct Zp",
                          "name": "b",
                          "type": "tuple"
                        }
                      ],
                      "internalType": "struct Zp_2",
                      "name": "c",
                      "type": "tuple"
                    }
                  ],
                  "internalType": "struct Zp_6",
                  "name": "a",
                  "type": "tuple"
                },
                {
                  "components": [
                    {
                      "components": [
                        {
                          "components": [
                            {
                              "components": [
                                {
                                  "internalType": "bytes",
                                  "name": "val",
                                  "type": "bytes"
                                },
                                {
                                  "internalType": "bool",
                                  "name": "neg",
                                  "type": "bool"
                                },
                                {
                                  "internalType": "uint256",
                                  "name": "bitlen",
                                  "type": "uint256"
                                }
                              ],
                              "internalType": "struct BigNumber",
                              "name": "value",
                              "type": "tuple"
                            }
                          ],
                          "internalType": "struct Zp",
                          "name": "a",
                          "type": "tuple"
                        },
                        {
                          "components": [
                            {
                              "components": [
                                {
                                  "internalType": "bytes",
                                  "name": "val",
                                  "type": "bytes"
                                },
                                {
                                  "internalType": "bool",
                                  "name": "neg",
                                  "type": "bool"
                                },
                                {
                                  "internalType": "uint256",
                                  "name": "bitlen",
                                  "type": "uint256"
                                }
                              ],
                              "internalType": "struct BigNumber",
                              "name": "value",
                              "type": "tuple"
                            }
                          ],
                          "internalType": "struct Zp",
                          "name": "b",
                          "type": "tuple"
                        }
                      ],
                      "internalType": "struct Zp_2",
                      "name": "a",
                      "type": "tuple"
                    },
                    {
                      "components": [
                        {
                          "components": [
                            {
                              "components": [
                                {
                                  "internalType": "bytes",
                                  "name": "val",
                                  "type": "bytes"
                                },
                                {
                                  "internalType": "bool",
                                  "name": "neg",
                                  "type": "bool"
                                },
                                {
                                  "internalType": "uint256",
                                  "name": "bitlen",
                                  "type": "uint256"
                                }
                              ],
                              "internalType": "struct BigNumber",
                              "name": "value",
                              "type": "tuple"
                            }
                          ],
                          "internalType": "struct Zp",
                          "name": "a",
                          "type": "tuple"
                        },
                        {
                          "components": [
                            {
                              "components": [
                                {
                                  "internalType": "bytes",
                                  "name": "val",
                                  "type": "bytes"
                                },
                                {
                                  "internalType": "bool",
                                  "name": "neg",
                                  "type": "bool"
                                },
                                {
                                  "internalType": "uint256",
                                  "name": "bitlen",
                                  "type": "uint256"
                                }
                              ],
                              "internalType": "struct BigNumber",
                              "name": "value",
                              "type": "tuple"
                            }
                          ],
                          "internalType": "struct Zp",
                          "name": "b",
                          "type": "tuple"
                        }
                      ],
                      "internalType": "struct Zp_2",
                      "name": "b",
                      "type": "tuple"
                    },
                    {
                      "components": [
                        {
                          "components": [
                            {
                              "components": [
                                {
                                  "internalType": "bytes",
                                  "name": "val",
                                  "type": "bytes"
                                },
                                {
                                  "internalType": "bool",
                                  "name": "neg",
                                  "type": "bool"
                                },
                                {
                                  "internalType": "uint256",
                                  "name": "bitlen",
                                  "type": "uint256"
                                }
                              ],
                              "internalType": "struct BigNumber",
                              "name": "value",
                              "type": "tuple"
                            }
                          ],
                          "internalType": "struct Zp",
                          "name": "a",
                          "type": "tuple"
                        },
                        {
                          "components": [
                            {
                              "components": [
                                {
                                  "internalType": "bytes",
                                  "name": "val",
                                  "type": "bytes"
                                },
                                {
                                  "internalType": "bool",
                                  "name": "neg",
                                  "type": "bool"
                                },
                                {
                                  "internalType": "uint256",
                                  "name": "bitlen",
                                  "type": "uint256"
                                }
                              ],
                              "internalType": "struct BigNumber",
                              "name": "value",
                              "type": "tuple"
                            }
                          ],
                          "internalType": "struct Zp",
                          "name": "b",
                          "type": "tuple"
                        }
                      ],
                      "internalType": "struct Zp_2",
                      "name": "c",
                      "type": "tuple"
                    }
                  ],
                  "internalType": "struct Zp_6",
                  "name": "b",
                  "type": "tuple"
                }
              ],
              "internalType": "struct Zp_12",
              "name": "x",
              "type": "tuple"
            },
            {
              "components": [
                {
                  "components": [
                    {
                      "components": [
                        {
                          "components": [
                            {
                              "components": [
                                {
                                  "internalType": "bytes",
                                  "name": "val",
                                  "type": "bytes"
                                },
                                {
                                  "internalType": "bool",
                                  "name": "neg",
                                  "type": "bool"
                                },
                                {
                                  "internalType": "uint256",
                                  "name": "bitlen",
                                  "type": "uint256"
                                }
                              ],
                              "internalType": "struct BigNumber",
                              "name": "value",
                              "type": "tuple"
                            }
                          ],
                          "internalType": "struct Zp",
                          "name": "a",
                          "type": "tuple"
                        },
                        {
                          "components": [
                            {
                              "components": [
                                {
                                  "internalType": "bytes",
                                  "name": "val",
                                  "type": "bytes"
                                },
                                {
                                  "internalType": "bool",
                                  "name": "neg",
                                  "type": "bool"
                                },
                                {
                                  "internalType": "uint256",
                                  "name": "bitlen",
                                  "type": "uint256"
                                }
                              ],
                              "internalType": "struct BigNumber",
                              "name": "value",
                              "type": "tuple"
                            }
                          ],
                          "internalType": "struct Zp",
                          "name": "b",
                          "type": "tuple"
                        }
                      ],
                      "internalType": "struct Zp_2",
                      "name": "a",
                      "type": "tuple"
                    },
                    {
                      "components": [
                        {
                          "components": [
                            {
                              "components": [
                                {
                                  "internalType": "bytes",
                                  "name": "val",
                                  "type": "bytes"
                                },
                                {
                                  "internalType": "bool",
                                  "name": "neg",
                                  "type": "bool"
                                },
                                {
                                  "internalType": "uint256",
                                  "name": "bitlen",
                                  "type": "uint256"
                                }
                              ],
                              "internalType": "struct BigNumber",
                              "name": "value",
                              "type": "tuple"
                            }
                          ],
                          "internalType": "struct Zp",
                          "name": "a",
                          "type": "tuple"
                        },
                        {
                          "components": [
                            {
                              "components": [
                                {
                                  "internalType": "bytes",
                                  "name": "val",
                                  "type": "bytes"
                                },
                                {
                                  "internalType": "bool",
                                  "name": "neg",
                                  "type": "bool"
                                },
                                {
                                  "internalType": "uint256",
                                  "name": "bitlen",
                                  "type": "uint256"
                                }
                              ],
                              "internalType": "struct BigNumber",
                              "name": "value",
                              "type": "tuple"
                            }
                          ],
                          "internalType": "struct Zp",
                          "name": "b",
                          "type": "tuple"
                        }
                      ],
                      "internalType": "struct Zp_2",
                      "name": "b",
                      "type": "tuple"
                    },
                    {
                      "components": [
                        {
                          "components": [
                            {
                              "components": [
                                {
                                  "internalType": "bytes",
                                  "name": "val",
                                  "type": "bytes"
                                },
                                {
                                  "internalType": "bool",
                                  "name": "neg",
                                  "type": "bool"
                                },
                                {
                                  "internalType": "uint256",
                                  "name": "bitlen",
                                  "type": "uint256"
                                }
                              ],
                              "internalType": "struct BigNumber",
                              "name": "value",
                              "type": "tuple"
                            }
                          ],
                          "internalType": "struct Zp",
                          "name": "a",
                          "type": "tuple"
                        },
                        {
                          "components": [
                            {
                              "components": [
                                {
                                  "internalType": "bytes",
                                  "name": "val",
                                  "type": "bytes"
                                },
                                {
                                  "internalType": "bool",
                                  "name": "neg",
                                  "type": "bool"
                                },
                                {
                                  "internalType": "uint256",
                                  "name": "bitlen",
                                  "type": "uint256"
                                }
                              ],
                              "internalType": "struct BigNumber",
                              "name": "value",
                              "type": "tuple"
                            }
                          ],
                          "internalType": "struct Zp",
                          "name": "b",
                          "type": "tuple"
                        }
                      ],
                      "internalType": "struct Zp_2",
                      "name": "c",
                      "type": "tuple"
                    }
                  ],
                  "internalType": "struct Zp_6",
                  "name": "a",
                  "type": "tuple"
                },
                {
                  "components": [
                    {
                      "components": [
                        {
                          "components": [
                            {
                              "components": [
                                {
                                  "internalType": "bytes",
                                  "name": "val",
                                  "type": "bytes"
                                },
                                {
                                  "internalType": "bool",
                                  "name": "neg",
                                  "type": "bool"
                                },
                                {
                                  "internalType": "uint256",
                                  "name": "bitlen",
                                  "type": "uint256"
                                }
                              ],
                              "internalType": "struct BigNumber",
                              "name": "value",
                              "type": "tuple"
                            }
                          ],
                          "internalType": "struct Zp",
                          "name": "a",
                          "type": "tuple"
                        },
                        {
                          "components": [
                            {
                              "components": [
                                {
                                  "internalType": "bytes",
                                  "name": "val",
                                  "type": "bytes"
                                },
                                {
                                  "internalType": "bool",
                                  "name": "neg",
                                  "type": "bool"
                                },
                                {
                                  "internalType": "uint256",
                                  "name": "bitlen",
                                  "type": "uint256"
                                }
                              ],
                              "internalType": "struct BigNumber",
                              "name": "value",
                              "type": "tuple"
                            }
                          ],
                          "internalType": "struct Zp",
                          "name": "b",
                          "type": "tuple"
                        }
                      ],
                      "internalType": "struct Zp_2",
                      "name": "a",
                      "type": "tuple"
                    },
                    {
                      "components": [
                        {
                          "components": [
                            {
                              "components": [
                                {
                                  "internalType": "bytes",
                                  "name": "val",
                                  "type": "bytes"
                                },
                                {
                                  "internalType": "bool",
                                  "name": "neg",
                                  "type": "bool"
                                },
                                {
                                  "internalType": "uint256",
                                  "name": "bitlen",
                                  "type": "uint256"
                                }
                              ],
                              "internalType": "struct BigNumber",
                              "name": "value",
                              "type": "tuple"
                            }
                          ],
                          "internalType": "struct Zp",
                          "name": "a",
                          "type": "tuple"
                        },
                        {
                          "components": [
                            {
                              "components": [
                                {
                                  "internalType": "bytes",
                                  "name": "val",
                                  "type": "bytes"
                                },
                                {
                                  "internalType": "bool",
                                  "name": "neg",
                                  "type": "bool"
                                },
                                {
                                  "internalType": "uint256",
                                  "name": "bitlen",
                                  "type": "uint256"
                                }
                              ],
                              "internalType": "struct BigNumber",
                              "name": "value",
                              "type": "tuple"
                            }
                          ],
                          "internalType": "struct Zp",
                          "name": "b",
                          "type": "tuple"
                        }
                      ],
                      "internalType": "struct Zp_2",
                      "name": "b",
                      "type": "tuple"
                    },
                    {
                      "components": [
                        {
                          "components": [
                            {
                              "components": [
                                {
                                  "internalType": "bytes",
                                  "name": "val",
                                  "type": "bytes"
                                },
                                {
                                  "internalType": "bool",
                                  "name": "neg",
                                  "type": "bool"
                                },
                                {
                                  "internalType": "uint256",
                                  "name": "bitlen",
                                  "type": "uint256"
                                }
                              ],
                              "internalType": "struct BigNumber",
                              "name": "value",
                              "type": "tuple"
                            }
                          ],
                          "internalType": "struct Zp",
                          "name": "a",
                          "type": "tuple"
                        },
                        {
                          "components": [
                            {
                              "components": [
                                {
                                  "internalType": "bytes",
                                  "name": "val",
                                  "type": "bytes"
                                },
                                {
                                  "internalType": "bool",
                                  "name": "neg",
                                  "type": "bool"
                                },
                                {
                                  "internalType": "uint256",
                                  "name": "bitlen",
                                  "type": "uint256"
                                }
                              ],
                              "internalType": "struct BigNumber",
                              "name": "value",
                              "type": "tuple"
                            }
                          ],
                          "internalType": "struct Zp",
                          "name": "b",
                          "type": "tuple"
                        }
                      ],
                      "internalType": "struct Zp_2",
                      "name": "c",
                      "type": "tuple"
                    }
                  ],
                  "internalType": "struct Zp_6",
                  "name": "b",
                  "type": "tuple"
                }
              ],
              "internalType": "struct Zp_12",
              "name": "y",
              "type": "tuple"
            }
          ],
          "internalType": "struct Point_Zp_12",
          "name": "",
          "type": "tuple"
        }
      ],
      "stateMutability": "pure",
      "type": "function"
    },
    {
      "inputs": [],
      "name": "point_at_infinity",
      "outputs": [
        {
          "components": [
            {
              "internalType": "enum PointType_12",
              "name": "pointType",
              "type": "uint8"
            },
            {
              "components": [
                {
                  "components": [
                    {
                      "components": [
                        {
                          "components": [
                            {
                              "components": [
                                {
                                  "internalType": "bytes",
                                  "name": "val",
                                  "type": "bytes"
                                },
                                {
                                  "internalType": "bool",
                                  "name": "neg",
                                  "type": "bool"
                                },
                                {
                                  "internalType": "uint256",
                                  "name": "bitlen",
                                  "type": "uint256"
                                }
                              ],
                              "internalType": "struct BigNumber",
                              "name": "value",
                              "type": "tuple"
                            }
                          ],
                          "internalType": "struct Zp",
                          "name": "a",
                          "type": "tuple"
                        },
                        {
                          "components": [
                            {
                              "components": [
                                {
                                  "internalType": "bytes",
                                  "name": "val",
                                  "type": "bytes"
                                },
                                {
                                  "internalType": "bool",
                                  "name": "neg",
                                  "type": "bool"
                                },
                                {
                                  "internalType": "uint256",
                                  "name": "bitlen",
                                  "type": "uint256"
                                }
                              ],
                              "internalType": "struct BigNumber",
                              "name": "value",
                              "type": "tuple"
                            }
                          ],
                          "internalType": "struct Zp",
                          "name": "b",
                          "type": "tuple"
                        }
                      ],
                      "internalType": "struct Zp_2",
                      "name": "a",
                      "type": "tuple"
                    },
                    {
                      "components": [
                        {
                          "components": [
                            {
                              "components": [
                                {
                                  "internalType": "bytes",
                                  "name": "val",
                                  "type": "bytes"
                                },
                                {
                                  "internalType": "bool",
                                  "name": "neg",
                                  "type": "bool"
                                },
                                {
                                  "internalType": "uint256",
                                  "name": "bitlen",
                                  "type": "uint256"
                                }
                              ],
                              "internalType": "struct BigNumber",
                              "name": "value",
                              "type": "tuple"
                            }
                          ],
                          "internalType": "struct Zp",
                          "name": "a",
                          "type": "tuple"
                        },
                        {
                          "components": [
                            {
                              "components": [
                                {
                                  "internalType": "bytes",
                                  "name": "val",
                                  "type": "bytes"
                                },
                                {
                                  "internalType": "bool",
                                  "name": "neg",
                                  "type": "bool"
                                },
                                {
                                  "internalType": "uint256",
                                  "name": "bitlen",
                                  "type": "uint256"
                                }
                              ],
                              "internalType": "struct BigNumber",
                              "name": "value",
                              "type": "tuple"
                            }
                          ],
                          "internalType": "struct Zp",
                          "name": "b",
                          "type": "tuple"
                        }
                      ],
                      "internalType": "struct Zp_2",
                      "name": "b",
                      "type": "tuple"
                    },
                    {
                      "components": [
                        {
                          "components": [
                            {
                              "components": [
                                {
                                  "internalType": "bytes",
                                  "name": "val",
                                  "type": "bytes"
                                },
                                {
                                  "internalType": "bool",
                                  "name": "neg",
                                  "type": "bool"
                                },
                                {
                                  "internalType": "uint256",
                                  "name": "bitlen",
                                  "type": "uint256"
                                }
                              ],
                              "internalType": "struct BigNumber",
                              "name": "value",
                              "type": "tuple"
                            }
                          ],
                          "internalType": "struct Zp",
                          "name": "a",
                          "type": "tuple"
                        },
                        {
                          "components": [
                            {
                              "components": [
                                {
                                  "internalType": "bytes",
                                  "name": "val",
                                  "type": "bytes"
                                },
                                {
                                  "internalType": "bool",
                                  "name": "neg",
                                  "type": "bool"
                                },
                                {
                                  "internalType": "uint256",
                                  "name": "bitlen",
                                  "type": "uint256"
                                }
                              ],
                              "internalType": "struct BigNumber",
                              "name": "value",
                              "type": "tuple"
                            }
                          ],
                          "internalType": "struct Zp",
                          "name": "b",
                          "type": "tuple"
                        }
                      ],
                      "internalType": "struct Zp_2",
                      "name": "c",
                      "type": "tuple"
                    }
                  ],
                  "internalType": "struct Zp_6",
                  "name": "a",
                  "type": "tuple"
                },
                {
                  "components": [
                    {
                      "components": [
                        {
                          "components": [
                            {
                              "components": [
                                {
                                  "internalType": "bytes",
                                  "name": "val",
                                  "type": "bytes"
                                },
                                {
                                  "internalType": "bool",
                                  "name": "neg",
                                  "type": "bool"
                                },
                                {
                                  "internalType": "uint256",
                                  "name": "bitlen",
                                  "type": "uint256"
                                }
                              ],
                              "internalType": "struct BigNumber",
                              "name": "value",
                              "type": "tuple"
                            }
                          ],
                          "internalType": "struct Zp",
                          "name": "a",
                          "type": "tuple"
                        },
                        {
                          "components": [
                            {
                              "components": [
                                {
                                  "internalType": "bytes",
                                  "name": "val",
                                  "type": "bytes"
                                },
                                {
                                  "internalType": "bool",
                                  "name": "neg",
                                  "type": "bool"
                                },
                                {
                                  "internalType": "uint256",
                                  "name": "bitlen",
                                  "type": "uint256"
                                }
                              ],
                              "internalType": "struct BigNumber",
                              "name": "value",
                              "type": "tuple"
                            }
                          ],
                          "internalType": "struct Zp",
                          "name": "b",
                          "type": "tuple"
                        }
                      ],
                      "internalType": "struct Zp_2",
                      "name": "a",
                      "type": "tuple"
                    },
                    {
                      "components": [
                        {
                          "components": [
                            {
                              "components": [
                                {
                                  "internalType": "bytes",
                                  "name": "val",
                                  "type": "bytes"
                                },
                                {
                                  "internalType": "bool",
                                  "name": "neg",
                                  "type": "bool"
                                },
                                {
                                  "internalType": "uint256",
                                  "name": "bitlen",
                                  "type": "uint256"
                                }
                              ],
                              "internalType": "struct BigNumber",
                              "name": "value",
                              "type": "tuple"
                            }
                          ],
                          "internalType": "struct Zp",
                          "name": "a",
                          "type": "tuple"
                        },
                        {
                          "components": [
                            {
                              "components": [
                                {
                                  "internalType": "bytes",
                                  "name": "val",
                                  "type": "bytes"
                                },
                                {
                                  "internalType": "bool",
                                  "name": "neg",
                                  "type": "bool"
                                },
                                {
                                  "internalType": "uint256",
                                  "name": "bitlen",
                                  "type": "uint256"
                                }
                              ],
                              "internalType": "struct BigNumber",
                              "name": "value",
                              "type": "tuple"
                            }
                          ],
                          "internalType": "struct Zp",
                          "name": "b",
                          "type": "tuple"
                        }
                      ],
                      "internalType": "struct Zp_2",
                      "name": "b",
                      "type": "tuple"
                    },
                    {
                      "components": [
                        {
                          "components": [
                            {
                              "components": [
                                {
                                  "internalType": "bytes",
                                  "name": "val",
                                  "type": "bytes"
                                },
                                {
                                  "internalType": "bool",
                                  "name": "neg",
                                  "type": "bool"
                                },
                                {
                                  "internalType": "uint256",
                                  "name": "bitlen",
                                  "type": "uint256"
                                }
                              ],
                              "internalType": "struct BigNumber",
                              "name": "value",
                              "type": "tuple"
                            }
                          ],
                          "internalType": "struct Zp",
                          "name": "a",
                          "type": "tuple"
                        },
                        {
                          "components": [
                            {
                              "components": [
                                {
                                  "internalType": "bytes",
                                  "name": "val",
                                  "type": "bytes"
                                },
                                {
                                  "internalType": "bool",
                                  "name": "neg",
                                  "type": "bool"
                                },
                                {
                                  "internalType": "uint256",
                                  "name": "bitlen",
                                  "type": "uint256"
                                }
                              ],
                              "internalType": "struct BigNumber",
                              "name": "value",
                              "type": "tuple"
                            }
                          ],
                          "internalType": "struct Zp",
                          "name": "b",
                          "type": "tuple"
                        }
                      ],
                      "internalType": "struct Zp_2",
                      "name": "c",
                      "type": "tuple"
                    }
                  ],
                  "internalType": "struct Zp_6",
                  "name": "b",
                  "type": "tuple"
                }
              ],
              "internalType": "struct Zp_12",
              "name": "x",
              "type": "tuple"
            },
            {
              "components": [
                {
                  "components": [
                    {
                      "components": [
                        {
                          "components": [
                            {
                              "components": [
                                {
                                  "internalType": "bytes",
                                  "name": "val",
                                  "type": "bytes"
                                },
                                {
                                  "internalType": "bool",
                                  "name": "neg",
                                  "type": "bool"
                                },
                                {
                                  "internalType": "uint256",
                                  "name": "bitlen",
                                  "type": "uint256"
                                }
                              ],
                              "internalType": "struct BigNumber",
                              "name": "value",
                              "type": "tuple"
                            }
                          ],
                          "internalType": "struct Zp",
                          "name": "a",
                          "type": "tuple"
                        },
                        {
                          "components": [
                            {
                              "components": [
                                {
                                  "internalType": "bytes",
                                  "name": "val",
                                  "type": "bytes"
                                },
                                {
                                  "internalType": "bool",
                                  "name": "neg",
                                  "type": "bool"
                                },
                                {
                                  "internalType": "uint256",
                                  "name": "bitlen",
                                  "type": "uint256"
                                }
                              ],
                              "internalType": "struct BigNumber",
                              "name": "value",
                              "type": "tuple"
                            }
                          ],
                          "internalType": "struct Zp",
                          "name": "b",
                          "type": "tuple"
                        }
                      ],
                      "internalType": "struct Zp_2",
                      "name": "a",
                      "type": "tuple"
                    },
                    {
                      "components": [
                        {
                          "components": [
                            {
                              "components": [
                                {
                                  "internalType": "bytes",
                                  "name": "val",
                                  "type": "bytes"
                                },
                                {
                                  "internalType": "bool",
                                  "name": "neg",
                                  "type": "bool"
                                },
                                {
                                  "internalType": "uint256",
                                  "name": "bitlen",
                                  "type": "uint256"
                                }
                              ],
                              "internalType": "struct BigNumber",
                              "name": "value",
                              "type": "tuple"
                            }
                          ],
                          "internalType": "struct Zp",
                          "name": "a",
                          "type": "tuple"
                        },
                        {
                          "components": [
                            {
                              "components": [
                                {
                                  "internalType": "bytes",
                                  "name": "val",
                                  "type": "bytes"
                                },
                                {
                                  "internalType": "bool",
                                  "name": "neg",
                                  "type": "bool"
                                },
                                {
                                  "internalType": "uint256",
                                  "name": "bitlen",
                                  "type": "uint256"
                                }
                              ],
                              "internalType": "struct BigNumber",
                              "name": "value",
                              "type": "tuple"
                            }
                          ],
                          "internalType": "struct Zp",
                          "name": "b",
                          "type": "tuple"
                        }
                      ],
                      "internalType": "struct Zp_2",
                      "name": "b",
                      "type": "tuple"
                    },
                    {
                      "components": [
                        {
                          "components": [
                            {
                              "components": [
                                {
                                  "internalType": "bytes",
                                  "name": "val",
                                  "type": "bytes"
                                },
                                {
                                  "internalType": "bool",
                                  "name": "neg",
                                  "type": "bool"
                                },
                                {
                                  "internalType": "uint256",
                                  "name": "bitlen",
                                  "type": "uint256"
                                }
                              ],
                              "internalType": "struct BigNumber",
                              "name": "value",
                              "type": "tuple"
                            }
                          ],
                          "internalType": "struct Zp",
                          "name": "a",
                          "type": "tuple"
                        },
                        {
                          "components": [
                            {
                              "components": [
                                {
                                  "internalType": "bytes",
                                  "name": "val",
                                  "type": "bytes"
                                },
                                {
                                  "internalType": "bool",
                                  "name": "neg",
                                  "type": "bool"
                                },
                                {
                                  "internalType": "uint256",
                                  "name": "bitlen",
                                  "type": "uint256"
                                }
                              ],
                              "internalType": "struct BigNumber",
                              "name": "value",
                              "type": "tuple"
                            }
                          ],
                          "internalType": "struct Zp",
                          "name": "b",
                          "type": "tuple"
                        }
                      ],
                      "internalType": "struct Zp_2",
                      "name": "c",
                      "type": "tuple"
                    }
                  ],
                  "internalType": "struct Zp_6",
                  "name": "a",
                  "type": "tuple"
                },
                {
                  "components": [
                    {
                      "components": [
                        {
                          "components": [
                            {
                              "components": [
                                {
                                  "internalType": "bytes",
                                  "name": "val",
                                  "type": "bytes"
                                },
                                {
                                  "internalType": "bool",
                                  "name": "neg",
                                  "type": "bool"
                                },
                                {
                                  "internalType": "uint256",
                                  "name": "bitlen",
                                  "type": "uint256"
                                }
                              ],
                              "internalType": "struct BigNumber",
                              "name": "value",
                              "type": "tuple"
                            }
                          ],
                          "internalType": "struct Zp",
                          "name": "a",
                          "type": "tuple"
                        },
                        {
                          "components": [
                            {
                              "components": [
                                {
                                  "internalType": "bytes",
                                  "name": "val",
                                  "type": "bytes"
                                },
                                {
                                  "internalType": "bool",
                                  "name": "neg",
                                  "type": "bool"
                                },
                                {
                                  "internalType": "uint256",
                                  "name": "bitlen",
                                  "type": "uint256"
                                }
                              ],
                              "internalType": "struct BigNumber",
                              "name": "value",
                              "type": "tuple"
                            }
                          ],
                          "internalType": "struct Zp",
                          "name": "b",
                          "type": "tuple"
                        }
                      ],
                      "internalType": "struct Zp_2",
                      "name": "a",
                      "type": "tuple"
                    },
                    {
                      "components": [
                        {
                          "components": [
                            {
                              "components": [
                                {
                                  "internalType": "bytes",
                                  "name": "val",
                                  "type": "bytes"
                                },
                                {
                                  "internalType": "bool",
                                  "name": "neg",
                                  "type": "bool"
                                },
                                {
                                  "internalType": "uint256",
                                  "name": "bitlen",
                                  "type": "uint256"
                                }
                              ],
                              "internalType": "struct BigNumber",
                              "name": "value",
                              "type": "tuple"
                            }
                          ],
                          "internalType": "struct Zp",
                          "name": "a",
                          "type": "tuple"
                        },
                        {
                          "components": [
                            {
                              "components": [
                                {
                                  "internalType": "bytes",
                                  "name": "val",
                                  "type": "bytes"
                                },
                                {
                                  "internalType": "bool",
                                  "name": "neg",
                                  "type": "bool"
                                },
                                {
                                  "internalType": "uint256",
                                  "name": "bitlen",
                                  "type": "uint256"
                                }
                              ],
                              "internalType": "struct BigNumber",
                              "name": "value",
                              "type": "tuple"
                            }
                          ],
                          "internalType": "struct Zp",
                          "name": "b",
                          "type": "tuple"
                        }
                      ],
                      "internalType": "struct Zp_2",
                      "name": "b",
                      "type": "tuple"
                    },
                    {
                      "components": [
                        {
                          "components": [
                            {
                              "components": [
                                {
                                  "internalType": "bytes",
                                  "name": "val",
                                  "type": "bytes"
                                },
                                {
                                  "internalType": "bool",
                                  "name": "neg",
                                  "type": "bool"
                                },
                                {
                                  "internalType": "uint256",
                                  "name": "bitlen",
                                  "type": "uint256"
                                }
                              ],
                              "internalType": "struct BigNumber",
                              "name": "value",
                              "type": "tuple"
                            }
                          ],
                          "internalType": "struct Zp",
                          "name": "a",
                          "type": "tuple"
                        },
                        {
                          "components": [
                            {
                              "components": [
                                {
                                  "internalType": "bytes",
                                  "name": "val",
                                  "type": "bytes"
                                },
                                {
                                  "internalType": "bool",
                                  "name": "neg",
                                  "type": "bool"
                                },
                                {
                                  "internalType": "uint256",
                                  "name": "bitlen",
                                  "type": "uint256"
                                }
                              ],
                              "internalType": "struct BigNumber",
                              "name": "value",
                              "type": "tuple"
                            }
                          ],
                          "internalType": "struct Zp",
                          "name": "b",
                          "type": "tuple"
                        }
                      ],
                      "internalType": "struct Zp_2",
                      "name": "c",
                      "type": "tuple"
                    }
                  ],
                  "internalType": "struct Zp_6",
                  "name": "b",
                  "type": "tuple"
                }
              ],
              "internalType": "struct Zp_12",
              "name": "y",
              "type": "tuple"
            }
          ],
          "internalType": "struct Point_Zp_12",
          "name": "",
          "type": "tuple"
        }
      ],
      "stateMutability": "view",
      "type": "function"
    }
  ],
  "bytecode": "0x608060405234801561001057600080fd5b50604051611455380380611455833981810160405281019061003291906100ed565b806000806101000a81548173ffffffffffffffffffffffffffffffffffffffff021916908373ffffffffffffffffffffffffffffffffffffffff1602179055505061011a565b600080fd5b600073ffffffffffffffffffffffffffffffffffffffff82169050919050565b60006100a88261007d565b9050919050565b60006100ba8261009d565b9050919050565b6100ca816100af565b81146100d557600080fd5b50565b6000815190506100e7816100c1565b92915050565b60006020828403121561010357610102610078565b5b6000610111848285016100d8565b91505092915050565b61132c806101296000396000f3fe608060405234801561001057600080fd5b50600436106100415760003560e01c8063292310eb146100465780638a954d1214610064578063998e9b3814610094575b600080fd5b61004e6100c4565b60405161005b9190610883565b60405180910390f35b61007e60048036038101906100799190610cf0565b610224565b60405161008b9190610883565b60405180910390f35b6100ae60048036038101906100a99190610e29565b610262565b6040516100bb9190610eb0565b60405180910390f35b6100cc610497565b60405180606001604052806001808111156100ea576100e9610591565b5b815260200160008054906101000a900473ffffffffffffffffffffffffffffffffffffffff1673ffffffffffffffffffffffffffffffffffffffff1663bc1b392d6040518163ffffffff1660e01b8152600401600060405180830381865afa15801561015a573d6000803e3d6000fd5b505050506040513d6000823e3d601f19601f820116820180604052508101906101839190611205565b815260200160008054906101000a900473ffffffffffffffffffffffffffffffffffffffff1673ffffffffffffffffffffffffffffffffffffffff1663bc1b392d6040518163ffffffff1660e01b8152600401600060405180830381865afa1580156101f3573d6000803e3d6000fd5b505050506040513d6000823e3d601f19601f8201168201806040525081019061021c9190611205565b815250905090565b61022c610497565b60405180606001604052806000600181111561024b5761024a610591565b5b815260200184815260200183815250905092915050565b600060018081111561027757610276610591565b5b8360000151600181111561028e5761028d610591565b5b1480156102c257506001808111156102a9576102a8610591565b5b826000015160018111156102c0576102bf610591565b5b145b156102d05760019050610491565b600060018111156102e4576102e3610591565b5b836000015160018111156102fb576102fa610591565b5b14801561033057506000600181111561031757610316610591565b5b8260000151600181111561032e5761032d610591565b5b145b1561048c5760008054906101000a900473ffffffffffffffffffffffffffffffffffffffff1673ffffffffffffffffffffffffffffffffffffffff16639eea8ce8846020015184602001516040518363ffffffff1660e01b8152600401610398929190611292565b602060405180830381865afa1580156103b5573d6000803e3d6000fd5b505050506040513d601f19601f820116820180604052508101906103d991906112c9565b8015610485575060008054906101000a900473ffffffffffffffffffffffffffffffffffffffff1673ffffffffffffffffffffffffffffffffffffffff16639eea8ce8846040015184604001516040518363ffffffff1660e01b8152600401610443929190611292565b602060405180830381865afa158015610460573d6000803e3d6000fd5b505050506040513d601f19601f8201168201806040525081019061048491906112c9565b5b9050610491565b600090505b92915050565b6040518060600160405280600060018111156104b6576104b5610591565b5b81526020016104c36104d6565b81526020016104d06104d6565b81525090565b60405180604001604052806104e96104fc565b81526020016104f66104fc565b81525090565b604051806060016040528061050f61052f565b815260200161051c61052f565b815260200161052961052f565b81525090565b6040518060400160405280610542610555565b815260200161054f610555565b81525090565b604051806020016040528061056861056e565b81525090565b604051806060016040528060608152602001600015158152602001600081525090565b7f4e487b7100000000000000000000000000000000000000000000000000000000600052602160045260246000fd5b600281106105d1576105d0610591565b5b50565b60008190506105e2826105c0565b919050565b60006105f2826105d4565b9050919050565b610602816105e7565b82525050565b600081519050919050565b600082825260208201905092915050565b60005b83811015610642578082015181840152602081019050610627565b60008484015250505050565b6000601f19601f8301169050919050565b600061066a82610608565b6106748185610613565b9350610684818560208601610624565b61068d8161064e565b840191505092915050565b60008115159050919050565b6106ad81610698565b82525050565b6000819050919050565b6106c6816106b3565b82525050565b600060608301600083015184820360008601526106e9828261065f565b91505060208301516106fe60208601826106a4565b50604083015161071160408601826106bd565b508091505092915050565b6000602083016000830151848203600086015261073982826106cc565b9150508091505092915050565b60006040830160008301518482036000860152610763828261071c565b9150506020830151848203602086015261077d828261071c565b9150508091505092915050565b600060608301600083015184820360008601526107a78282610746565b915050602083015184820360208601526107c18282610746565b915050604083015184820360408601526107db8282610746565b9150508091505092915050565b60006040830160008301518482036000860152610805828261078a565b9150506020830151848203602086015261081f828261078a565b9150508091505092915050565b600060608301600083015161084460008601826105f9565b506020830151848203602086015261085c82826107e8565b9150506040830151848203604086015261087682826107e8565b9150508091505092915050565b6000602082019050818103600083015261089d818461082c565b905092915050565b6000604051905090565b600080fd5b600080fd5b600080fd5b7f4e487b7100000000000000000000000000000000000000000000000000000000600052604160045260246000fd5b6108f68261064e565b810181811067ffffffffffffffff82111715610915576109146108be565b5b80604052505050565b60006109286108a5565b905061093482826108ed565b919050565b600080fd5b600080fd5b600080fd5b600067ffffffffffffffff821115610963576109626108be565b5b61096c8261064e565b9050602081019050919050565b82818337600083830152505050565b600061099b61099684610948565b61091e565b9050828152602081018484840111156109b7576109b6610943565b5b6109c2848285610979565b509392505050565b600082601f8301126109df576109de61093e565b5b81356109ef848260208601610988565b91505092915050565b610a0181610698565b8114610a0c57600080fd5b50565b600081359050610a1e816109f8565b92915050565b610a2d816106b3565b8114610a3857600080fd5b50565b600081359050610a4a81610a24565b92915050565b600060608284031215610a6657610a656108b9565b5b610a70606061091e565b9050600082013567ffffffffffffffff811115610a9057610a8f610939565b5b610a9c848285016109ca565b6000830152506020610ab084828501610a0f565b6020830152506040610ac484828501610a3b565b60408301525092915050565b600060208284031215610ae657610ae56108b9565b5b610af0602061091e565b9050600082013567ffffffffffffffff811115610b1057610b0f610939565b5b610b1c84828501610a50565b60008301525092915050565b600060408284031215610b3e57610b3d6108b9565b5b610b48604061091e565b9050600082013567ffffffffffffffff811115610b6857610b67610939565b5b610b7484828501610ad0565b600083015250602082013567ffffffffffffffff811115610b9857610b97610939565b5b610ba484828501610ad0565b60208301525092915050565b600060608284031215610bc657610bc56108b9565b5b610bd0606061091e565b9050600082013567ffffffffffffffff811115610bf057610bef610939565b5b610bfc84828501610b28565b600083015250602082013567ffffffffffffffff811115610c2057610c1f610939565b5b610c2c84828501610b28565b602083015250604082013567ffffffffffffffff811115610c5057610c4f610939565b5b610c5c84828501610b28565b60408301525092915050565b600060408284031215610c7e57610c7d6108b9565b5b610c88604061091e565b9050600082013567ffffffffffffffff811115610ca857610ca7610939565b5b610cb484828501610bb0565b600083015250602082013567ffffffffffffffff811115610cd857610cd7610939565b5b610ce484828501610bb0565b60208301525092915050565b60008060408385031215610d0757610d066108af565b5b600083013567ffffffffffffffff811115610d2557610d246108b4565b5b610d3185828601610c68565b925050602083013567ffffffffffffffff811115610d5257610d516108b4565b5b610d5e85828601610c68565b9150509250929050565b60028110610d7557600080fd5b50565b600081359050610d8781610d68565b92915050565b600060608284031215610da357610da26108b9565b5b610dad606061091e565b90506000610dbd84828501610d78565b600083015250602082013567ffffffffffffffff811115610de157610de0610939565b5b610ded84828501610c68565b602083015250604082013567ffffffffffffffff811115610e1157610e10610939565b5b610e1d84828501610c68565b60408301525092915050565b60008060408385031215610e4057610e3f6108af565b5b600083013567ffffffffffffffff811115610e5e57610e5d6108b4565b5b610e6a85828601610d8d565b925050602083013567ffffffffffffffff811115610e8b57610e8a6108b4565b5b610e9785828601610d8d565b9150509250929050565b610eaa81610698565b82525050565b6000602082019050610ec56000830184610ea1565b92915050565b6000610ede610ed984610948565b61091e565b905082815260208101848484011115610efa57610ef9610943565b5b610f05848285610624565b509392505050565b600082601f830112610f2257610f2161093e565b5b8151610f32848260208601610ecb565b91505092915050565b600081519050610f4a816109f8565b92915050565b600081519050610f5f81610a24565b92915050565b600060608284031215610f7b57610f7a6108b9565b5b610f85606061091e565b9050600082015167ffffffffffffffff811115610fa557610fa4610939565b5b610fb184828501610f0d565b6000830152506020610fc584828501610f3b565b6020830152506040610fd984828501610f50565b60408301525092915050565b600060208284031215610ffb57610ffa6108b9565b5b611005602061091e565b9050600082015167ffffffffffffffff81111561102557611024610939565b5b61103184828501610f65565b60008301525092915050565b600060408284031215611053576110526108b9565b5b61105d604061091e565b9050600082015167ffffffffffffffff81111561107d5761107c610939565b5b61108984828501610fe5565b600083015250602082015167ffffffffffffffff8111156110ad576110ac610939565b5b6110b984828501610fe5565b60208301525092915050565b6000606082840312156110db576110da6108b9565b5b6110e5606061091e565b9050600082015167ffffffffffffffff81111561110557611104610939565b5b6111118482850161103d565b600083015250602082015167ffffffffffffffff81111561113557611134610939565b5b6111418482850161103d565b602083015250604082015167ffffffffffffffff81111561116557611164610939565b5b6111718482850161103d565b60408301525092915050565b600060408284031215611193576111926108b9565b5b61119d604061091e565b9050600082015167ffffffffffffffff8111156111bd576111bc610939565b5b6111c9848285016110c5565b600083015250602082015167ffffffffffffffff8111156111ed576111ec610939565b5b6111f9848285016110c5565b60208301525092915050565b60006020828403121561121b5761121a6108af565b5b600082015167ffffffffffffffff811115611239576112386108b4565b5b6112458482850161117d565b91505092915050565b6000604083016000830151848203600086015261126b828261078a565b91505060208301518482036020860152611285828261078a565b9150508091505092915050565b600060408201905081810360008301526112ac818561124e565b905081810360208301526112c0818461124e565b90509392505050565b6000602082840312156112df576112de6108af565b5b60006112ed84828501610f3b565b9150509291505056fea2646970667358221220117fda86858018070cb5909cd9cc89f91697effc766e335a37e186236d2199a764736f6c634300081b0033",
  "linkReferences": {},
  "deployedLinkReferences": {}
}