{
  "_format": "hh-sol-artifact-1",
  "contractName": "PointZp",
  "sourceName": "contracts/PointZp.sol",
  "abi": [
    {
      "inputs": [
        {
          "internalType": "contract BigFiniteField",
          "name": "field",
          "type": "address"
        }
      ],
      "stateMutability": "nonpayable",
      "type": "constructor"
    },
    {
      "inputs": [
        {
          "components": [
            {
              "internalType": "enum PointType",
              "name": "pointType",
              "type": "uint8"
            },
            {
              "components": [
                {
                  "components": [
                    {
                      "internalType": "bytes",
                      "name": "val",
                      "type": "bytes"
                    },
                    {
                      "internalType": "bool",
                      "name": "neg",
                      "type": "bool"
                    },
                    {
                      "internalType": "uint256",
                      "name": "bitlen",
                      "type": "uint256"
                    }
                  ],
                  "internalType": "struct BigNumber",
                  "name": "value",
                  "type": "tuple"
                }
              ],
              "internalType": "struct Zp",
              "name": "x",
              "type": "tuple"
            },
            {
              "components": [
                {
                  "components": [
                    {
                      "internalType": "bytes",
                      "name": "val",
                      "type": "bytes"
                    },
                    {
                      "internalType": "bool",
                      "name": "neg",
                      "type": "bool"
                    },
                    {
                      "internalType": "uint256",
                      "name": "bitlen",
                      "type": "uint256"
                    }
                  ],
                  "internalType": "struct BigNumber",
                  "name": "value",
                  "type": "tuple"
                }
              ],
              "internalType": "struct Zp",
              "name": "y",
              "type": "tuple"
            }
          ],
          "internalType": "struct Point_Zp",
          "name": "self",
          "type": "tuple"
        },
        {
          "components": [
            {
              "internalType": "enum PointType",
              "name": "pointType",
              "type": "uint8"
            },
            {
              "components": [
                {
                  "components": [
                    {
                      "internalType": "bytes",
                      "name": "val",
                      "type": "bytes"
                    },
                    {
                      "internalType": "bool",
                      "name": "neg",
                      "type": "bool"
                    },
                    {
                      "internalType": "uint256",
                      "name": "bitlen",
                      "type": "uint256"
                    }
                  ],
                  "internalType": "struct BigNumber",
                  "name": "value",
                  "type": "tuple"
                }
              ],
              "internalType": "struct Zp",
              "name": "x",
              "type": "tuple"
            },
            {
              "components": [
                {
                  "components": [
                    {
                      "internalType": "bytes",
                      "name": "val",
                      "type": "bytes"
                    },
                    {
                      "internalType": "bool",
                      "name": "neg",
                      "type": "bool"
                    },
                    {
                      "internalType": "uint256",
                      "name": "bitlen",
                      "type": "uint256"
                    }
                  ],
                  "internalType": "struct BigNumber",
                  "name": "value",
                  "type": "tuple"
                }
              ],
              "internalType": "struct Zp",
              "name": "y",
              "type": "tuple"
            }
          ],
          "internalType": "struct Point_Zp",
          "name": "other",
          "type": "tuple"
        }
      ],
      "name": "add",
      "outputs": [
        {
          "components": [
            {
              "internalType": "enum PointType",
              "name": "pointType",
              "type": "uint8"
            },
            {
              "components": [
                {
                  "components": [
                    {
                      "internalType": "bytes",
                      "name": "val",
                      "type": "bytes"
                    },
                    {
                      "internalType": "bool",
                      "name": "neg",
                      "type": "bool"
                    },
                    {
                      "internalType": "uint256",
                      "name": "bitlen",
                      "type": "uint256"
                    }
                  ],
                  "internalType": "struct BigNumber",
                  "name": "value",
                  "type": "tuple"
                }
              ],
              "internalType": "struct Zp",
              "name": "x",
              "type": "tuple"
            },
            {
              "components": [
                {
                  "components": [
                    {
                      "internalType": "bytes",
                      "name": "val",
                      "type": "bytes"
                    },
                    {
                      "internalType": "bool",
                      "name": "neg",
                      "type": "bool"
                    },
                    {
                      "internalType": "uint256",
                      "name": "bitlen",
                      "type": "uint256"
                    }
                  ],
                  "internalType": "struct BigNumber",
                  "name": "value",
                  "type": "tuple"
                }
              ],
              "internalType": "struct Zp",
              "name": "y",
              "type": "tuple"
            }
          ],
          "internalType": "struct Point_Zp",
          "name": "",
          "type": "tuple"
        }
      ],
      "stateMutability": "view",
      "type": "function"
    },
    {
      "inputs": [
        {
          "components": [
            {
              "internalType": "enum PointType",
              "name": "pointType",
              "type": "uint8"
            },
            {
              "components": [
                {
                  "components": [
                    {
                      "internalType": "bytes",
                      "name": "val",
                      "type": "bytes"
                    },
                    {
                      "internalType": "bool",
                      "name": "neg",
                      "type": "bool"
                    },
                    {
                      "internalType": "uint256",
                      "name": "bitlen",
                      "type": "uint256"
                    }
                  ],
                  "internalType": "struct BigNumber",
                  "name": "value",
                  "type": "tuple"
                }
              ],
              "internalType": "struct Zp",
              "name": "x",
              "type": "tuple"
            },
            {
              "components": [
                {
                  "components": [
                    {
                      "internalType": "bytes",
                      "name": "val",
                      "type": "bytes"
                    },
                    {
                      "internalType": "bool",
                      "name": "neg",
                      "type": "bool"
                    },
                    {
                      "internalType": "uint256",
                      "name": "bitlen",
                      "type": "uint256"
                    }
                  ],
                  "internalType": "struct BigNumber",
                  "name": "value",
                  "type": "tuple"
                }
              ],
              "internalType": "struct Zp",
              "name": "y",
              "type": "tuple"
            }
          ],
          "internalType": "struct Point_Zp",
          "name": "self",
          "type": "tuple"
        }
      ],
      "name": "double",
      "outputs": [
        {
          "components": [
            {
              "internalType": "enum PointType",
              "name": "pointType",
              "type": "uint8"
            },
            {
              "components": [
                {
                  "components": [
                    {
                      "internalType": "bytes",
                      "name": "val",
                      "type": "bytes"
                    },
                    {
                      "internalType": "bool",
                      "name": "neg",
                      "type": "bool"
                    },
                    {
                      "internalType": "uint256",
                      "name": "bitlen",
                      "type": "uint256"
                    }
                  ],
                  "internalType": "struct BigNumber",
                  "name": "value",
                  "type": "tuple"
                }
              ],
              "internalType": "struct Zp",
              "name": "x",
              "type": "tuple"
            },
            {
              "components": [
                {
                  "components": [
                    {
                      "internalType": "bytes",
                      "name": "val",
                      "type": "bytes"
                    },
                    {
                      "internalType": "bool",
                      "name": "neg",
                      "type": "bool"
                    },
                    {
                      "internalType": "uint256",
                      "name": "bitlen",
                      "type": "uint256"
                    }
                  ],
                  "internalType": "struct BigNumber",
                  "name": "value",
                  "type": "tuple"
                }
              ],
              "internalType": "struct Zp",
              "name": "y",
              "type": "tuple"
            }
          ],
          "internalType": "struct Point_Zp",
          "name": "",
          "type": "tuple"
        }
      ],
      "stateMutability": "view",
      "type": "function"
    },
    {
      "inputs": [
        {
          "components": [
            {
              "internalType": "enum PointType",
              "name": "pointType",
              "type": "uint8"
            },
            {
              "components": [
                {
                  "components": [
                    {
                      "internalType": "bytes",
                      "name": "val",
                      "type": "bytes"
                    },
                    {
                      "internalType": "bool",
                      "name": "neg",
                      "type": "bool"
                    },
                    {
                      "internalType": "uint256",
                      "name": "bitlen",
                      "type": "uint256"
                    }
                  ],
                  "internalType": "struct BigNumber",
                  "name": "value",
                  "type": "tuple"
                }
              ],
              "internalType": "struct Zp",
              "name": "x",
              "type": "tuple"
            },
            {
              "components": [
                {
                  "components": [
                    {
                      "internalType": "bytes",
                      "name": "val",
                      "type": "bytes"
                    },
                    {
                      "internalType": "bool",
                      "name": "neg",
                      "type": "bool"
                    },
                    {
                      "internalType": "uint256",
                      "name": "bitlen",
                      "type": "uint256"
                    }
                  ],
                  "internalType": "struct BigNumber",
                  "name": "value",
                  "type": "tuple"
                }
              ],
              "internalType": "struct Zp",
              "name": "y",
              "type": "tuple"
            }
          ],
          "internalType": "struct Point_Zp",
          "name": "self",
          "type": "tuple"
        },
        {
          "components": [
            {
              "internalType": "bytes",
              "name": "val",
              "type": "bytes"
            },
            {
              "internalType": "bool",
              "name": "neg",
              "type": "bool"
            },
            {
              "internalType": "uint256",
              "name": "bitlen",
              "type": "uint256"
            }
          ],
          "internalType": "struct BigNumber",
          "name": "k",
          "type": "tuple"
        }
      ],
      "name": "multiply",
      "outputs": [
        {
          "components": [
            {
              "internalType": "enum PointType",
              "name": "pointType",
              "type": "uint8"
            },
            {
              "components": [
                {
                  "components": [
                    {
                      "internalType": "bytes",
                      "name": "val",
                      "type": "bytes"
                    },
                    {
                      "internalType": "bool",
                      "name": "neg",
                      "type": "bool"
                    },
                    {
                      "internalType": "uint256",
                      "name": "bitlen",
                      "type": "uint256"
                    }
                  ],
                  "internalType": "struct BigNumber",
                  "name": "value",
                  "type": "tuple"
                }
              ],
              "internalType": "struct Zp",
              "name": "x",
              "type": "tuple"
            },
            {
              "components": [
                {
                  "components": [
                    {
                      "internalType": "bytes",
                      "name": "val",
                      "type": "bytes"
                    },
                    {
                      "internalType": "bool",
                      "name": "neg",
                      "type": "bool"
                    },
                    {
                      "internalType": "uint256",
                      "name": "bitlen",
                      "type": "uint256"
                    }
                  ],
                  "internalType": "struct BigNumber",
                  "name": "value",
                  "type": "tuple"
                }
              ],
              "internalType": "struct Zp",
              "name": "y",
              "type": "tuple"
            }
          ],
          "internalType": "struct Point_Zp",
          "name": "",
          "type": "tuple"
        }
      ],
      "stateMutability": "view",
      "type": "function"
    },
    {
      "inputs": [
        {
          "components": [
            {
              "internalType": "enum PointType",
              "name": "pointType",
              "type": "uint8"
            },
            {
              "components": [
                {
                  "components": [
                    {
                      "internalType": "bytes",
                      "name": "val",
                      "type": "bytes"
                    },
                    {
                      "internalType": "bool",
                      "name": "neg",
                      "type": "bool"
                    },
                    {
                      "internalType": "uint256",
                      "name": "bitlen",
                      "type": "uint256"
                    }
                  ],
                  "internalType": "struct BigNumber",
                  "name": "value",
                  "type": "tuple"
                }
              ],
              "internalType": "struct Zp",
              "name": "x",
              "type": "tuple"
            },
            {
              "components": [
                {
                  "components": [
                    {
                      "internalType": "bytes",
                      "name": "val",
                      "type": "bytes"
                    },
                    {
                      "internalType": "bool",
                      "name": "neg",
                      "type": "bool"
                    },
                    {
                      "internalType": "uint256",
                      "name": "bitlen",
                      "type": "uint256"
                    }
                  ],
                  "internalType": "struct BigNumber",
                  "name": "value",
                  "type": "tuple"
                }
              ],
              "internalType": "struct Zp",
              "name": "y",
              "type": "tuple"
            }
          ],
          "internalType": "struct Point_Zp",
          "name": "self",
          "type": "tuple"
        }
      ],
      "name": "negate",
      "outputs": [
        {
          "components": [
            {
              "internalType": "enum PointType",
              "name": "pointType",
              "type": "uint8"
            },
            {
              "components": [
                {
                  "components": [
                    {
                      "internalType": "bytes",
                      "name": "val",
                      "type": "bytes"
                    },
                    {
                      "internalType": "bool",
                      "name": "neg",
                      "type": "bool"
                    },
                    {
                      "internalType": "uint256",
                      "name": "bitlen",
                      "type": "uint256"
                    }
                  ],
                  "internalType": "struct BigNumber",
                  "name": "value",
                  "type": "tuple"
                }
              ],
              "internalType": "struct Zp",
              "name": "x",
              "type": "tuple"
            },
            {
              "components": [
                {
                  "components": [
                    {
                      "internalType": "bytes",
                      "name": "val",
                      "type": "bytes"
                    },
                    {
                      "internalType": "bool",
                      "name": "neg",
                      "type": "bool"
                    },
                    {
                      "internalType": "uint256",
                      "name": "bitlen",
                      "type": "uint256"
                    }
                  ],
                  "internalType": "struct BigNumber",
                  "name": "value",
                  "type": "tuple"
                }
              ],
              "internalType": "struct Zp",
              "name": "y",
              "type": "tuple"
            }
          ],
          "internalType": "struct Point_Zp",
          "name": "",
          "type": "tuple"
        }
      ],
      "stateMutability": "view",
      "type": "function"
    },
    {
      "inputs": [
        {
          "internalType": "enum PointType",
          "name": "pointType",
          "type": "uint8"
        },
        {
          "components": [
            {
              "components": [
                {
                  "internalType": "bytes",
                  "name": "val",
                  "type": "bytes"
                },
                {
                  "internalType": "bool",
                  "name": "neg",
                  "type": "bool"
                },
                {
                  "internalType": "uint256",
                  "name": "bitlen",
                  "type": "uint256"
                }
              ],
              "internalType": "struct BigNumber",
              "name": "value",
              "type": "tuple"
            }
          ],
          "internalType": "struct Zp",
          "name": "x",
          "type": "tuple"
        },
        {
          "components": [
            {
              "components": [
                {
                  "internalType": "bytes",
                  "name": "val",
                  "type": "bytes"
                },
                {
                  "internalType": "bool",
                  "name": "neg",
                  "type": "bool"
                },
                {
                  "internalType": "uint256",
                  "name": "bitlen",
                  "type": "uint256"
                }
              ],
              "internalType": "struct BigNumber",
              "name": "value",
              "type": "tuple"
            }
          ],
          "internalType": "struct Zp",
          "name": "y",
          "type": "tuple"
        }
      ],
      "name": "newPoint",
      "outputs": [
        {
          "components": [
            {
              "internalType": "enum PointType",
              "name": "pointType",
              "type": "uint8"
            },
            {
              "components": [
                {
                  "components": [
                    {
                      "internalType": "bytes",
                      "name": "val",
                      "type": "bytes"
                    },
                    {
                      "internalType": "bool",
                      "name": "neg",
                      "type": "bool"
                    },
                    {
                      "internalType": "uint256",
                      "name": "bitlen",
                      "type": "uint256"
                    }
                  ],
                  "internalType": "struct BigNumber",
                  "name": "value",
                  "type": "tuple"
                }
              ],
              "internalType": "struct Zp",
              "name": "x",
              "type": "tuple"
            },
            {
              "components": [
                {
                  "components": [
                    {
                      "internalType": "bytes",
                      "name": "val",
                      "type": "bytes"
                    },
                    {
                      "internalType": "bool",
                      "name": "neg",
                      "type": "bool"
                    },
                    {
                      "internalType": "uint256",
                      "name": "bitlen",
                      "type": "uint256"
                    }
                  ],
                  "internalType": "struct BigNumber",
                  "name": "value",
                  "type": "tuple"
                }
              ],
              "internalType": "struct Zp",
              "name": "y",
              "type": "tuple"
            }
          ],
          "internalType": "struct Point_Zp",
          "name": "",
          "type": "tuple"
        }
      ],
      "stateMutability": "pure",
      "type": "function"
    }
  ],
  "bytecode": "0x608060405234801561001057600080fd5b50604051612504380380612504833981810160405281019061003291906100ed565b806000806101000a81548173ffffffffffffffffffffffffffffffffffffffff021916908373ffffffffffffffffffffffffffffffffffffffff1602179055505061011a565b600080fd5b600073ffffffffffffffffffffffffffffffffffffffff82169050919050565b60006100a88261007d565b9050919050565b60006100ba8261009d565b9050919050565b6100ca816100af565b81146100d557600080fd5b50565b6000815190506100e7816100c1565b92915050565b60006020828403121561010357610102610078565b5b6000610111848285016100d8565b91505092915050565b6123db806101296000396000f3fe608060405234801561001057600080fd5b50600436106100575760003560e01c806307951d691461005c5780633e0729851461008c5780636cee5a0b146100bc57806398dc089a146100ec578063bc66117e1461011c575b600080fd5b61007660048036038101906100719190611cf2565b61014c565b6040516100839190611f4f565b60405180910390f35b6100a660048036038101906100a19190611f71565b610c3e565b6040516100b39190611f4f565b60405180910390f35b6100d660048036038101906100d19190611ffc565b610c7c565b6040516100e39190611f4f565b60405180910390f35b61010660048036038101906101019190611ffc565b61173e565b6040516101139190611f4f565b60405180910390f35b61013660048036038101906101319190612045565b6118fe565b6040516101439190611f4f565b60405180910390f35b61015461190c565b60018081111561016757610166611d6a565b5b8360000151600181111561017e5761017d611d6a565b5b0361018b57829050610c38565b60018081111561019e5761019d611d6a565b5b826000015160018111156101b5576101b4611d6a565b5b036101c257819050610c38565b60008054906101000a900473ffffffffffffffffffffffffffffffffffffffff1673ffffffffffffffffffffffffffffffffffffffff1663d4d45554846020015184602001516040518363ffffffff1660e01b81526004016102259291906120e7565b602060405180830381865afa158015610242573d6000803e3d6000fd5b505050506040513d601f19601f820116820180604052508101906102669190612133565b8015610312575060008054906101000a900473ffffffffffffffffffffffffffffffffffffffff1673ffffffffffffffffffffffffffffffffffffffff1663d4d45554846040015184604001516040518363ffffffff1660e01b81526004016102d09291906120e7565b602060405180830381865afa1580156102ed573d6000803e3d6000fd5b505050506040513d601f19601f820116820180604052508101906103119190612133565b5b156103275761032083610c7c565b9050610c38565b60008054906101000a900473ffffffffffffffffffffffffffffffffffffffff1673ffffffffffffffffffffffffffffffffffffffff1663d4d45554846020015184602001516040518363ffffffff1660e01b815260040161038a9291906120e7565b602060405180830381865afa1580156103a7573d6000803e3d6000fd5b505050506040513d601f19601f820116820180604052508101906103cb9190612133565b8015610478575060008054906101000a900473ffffffffffffffffffffffffffffffffffffffff1673ffffffffffffffffffffffffffffffffffffffff1663d4d45554846040015184604001516040518363ffffffff1660e01b81526004016104359291906120e7565b602060405180830381865afa158015610452573d6000803e3d6000fd5b505050506040513d601f19601f820116820180604052508101906104769190612133565b155b156105b6576105af600160008054906101000a900473ffffffffffffffffffffffffffffffffffffffff1673ffffffffffffffffffffffffffffffffffffffff1663bc1b392d6040518163ffffffff1660e01b8152600401600060405180830381865afa1580156104ed573d6000803e3d6000fd5b505050506040513d6000823e3d601f19601f8201168201806040525081019061051691906122bd565b60008054906101000a900473ffffffffffffffffffffffffffffffffffffffff1673ffffffffffffffffffffffffffffffffffffffff1663bc1b392d6040518163ffffffff1660e01b8152600401600060405180830381865afa158015610581573d6000803e3d6000fd5b505050506040513d6000823e3d601f19601f820116820180604052508101906105aa91906122bd565b610c3e565b9050610c38565b60008060009054906101000a900473ffffffffffffffffffffffffffffffffffffffff1673ffffffffffffffffffffffffffffffffffffffff1663b5e2832560008054906101000a900473ffffffffffffffffffffffffffffffffffffffff1673ffffffffffffffffffffffffffffffffffffffff1663fb2bedad866040015188604001516040518363ffffffff1660e01b81526004016106589291906120e7565b600060405180830381865afa158015610675573d6000803e3d6000fd5b505050506040513d6000823e3d601f19601f8201168201806040525081019061069e91906122bd565b60008054906101000a900473ffffffffffffffffffffffffffffffffffffffff1673ffffffffffffffffffffffffffffffffffffffff1663a672d10060008054906101000a900473ffffffffffffffffffffffffffffffffffffffff1673ffffffffffffffffffffffffffffffffffffffff1663fb2bedad89602001518b602001516040518363ffffffff1660e01b815260040161073d9291906120e7565b600060405180830381865afa15801561075a573d6000803e3d6000fd5b505050506040513d6000823e3d601f19601f8201168201806040525081019061078391906122bd565b6040518263ffffffff1660e01b815260040161079f9190612306565b600060405180830381865afa1580156107bc573d6000803e3d6000fd5b505050506040513d6000823e3d601f19601f820116820180604052508101906107e591906122bd565b6040518363ffffffff1660e01b81526004016108029291906120e7565b600060405180830381865afa15801561081f573d6000803e3d6000fd5b505050506040513d6000823e3d601f19601f8201168201806040525081019061084891906122bd565b905060008060009054906101000a900473ffffffffffffffffffffffffffffffffffffffff1673ffffffffffffffffffffffffffffffffffffffff1663fb2bedad60008054906101000a900473ffffffffffffffffffffffffffffffffffffffff1673ffffffffffffffffffffffffffffffffffffffff1663fb2bedad60008054906101000a900473ffffffffffffffffffffffffffffffffffffffff1673ffffffffffffffffffffffffffffffffffffffff1663b5e2832587886040518363ffffffff1660e01b81526004016109209291906120e7565b600060405180830381865afa15801561093d573d6000803e3d6000fd5b505050506040513d6000823e3d601f19601f8201168201806040525081019061096691906122bd565b89602001516040518363ffffffff1660e01b81526004016109889291906120e7565b600060405180830381865afa1580156109a5573d6000803e3d6000fd5b505050506040513d6000823e3d601f19601f820116820180604052508101906109ce91906122bd565b86602001516040518363ffffffff1660e01b81526004016109f09291906120e7565b600060405180830381865afa158015610a0d573d6000803e3d6000fd5b505050506040513d6000823e3d601f19601f82011682018060405250810190610a3691906122bd565b905060008060009054906101000a900473ffffffffffffffffffffffffffffffffffffffff1673ffffffffffffffffffffffffffffffffffffffff1663fb2bedad60008054906101000a900473ffffffffffffffffffffffffffffffffffffffff1673ffffffffffffffffffffffffffffffffffffffff1663b5e2832560008054906101000a900473ffffffffffffffffffffffffffffffffffffffff1673ffffffffffffffffffffffffffffffffffffffff1663fb2bedad8b60200151886040518363ffffffff1660e01b8152600401610b129291906120e7565b600060405180830381865afa158015610b2f573d6000803e3d6000fd5b505050506040513d6000823e3d601f19601f82011682018060405250810190610b5891906122bd565b876040518363ffffffff1660e01b8152600401610b769291906120e7565b600060405180830381865afa158015610b93573d6000803e3d6000fd5b505050506040513d6000823e3d601f19601f82011682018060405250810190610bbc91906122bd565b88604001516040518363ffffffff1660e01b8152600401610bde9291906120e7565b600060405180830381865afa158015610bfb573d6000803e3d6000fd5b505050506040513d6000823e3d601f19601f82011682018060405250810190610c2491906122bd565b9050610c3260008383610c3e565b93505050505b92915050565b610c4661190c565b6040518060600160405280856001811115610c6457610c63611d6a565b5b81526020018481526020018381525090509392505050565b610c8461190c565b60008054906101000a900473ffffffffffffffffffffffffffffffffffffffff1673ffffffffffffffffffffffffffffffffffffffff1663d4d45554836040015160008054906101000a900473ffffffffffffffffffffffffffffffffffffffff1673ffffffffffffffffffffffffffffffffffffffff1663bc1b392d6040518163ffffffff1660e01b8152600401600060405180830381865afa158015610d30573d6000803e3d6000fd5b505050506040513d6000823e3d601f19601f82011682018060405250810190610d5991906122bd565b6040518363ffffffff1660e01b8152600401610d769291906120e7565b602060405180830381865afa158015610d93573d6000803e3d6000fd5b505050506040513d601f19601f82011682018060405250810190610db79190612133565b15610ef557610eee600160008054906101000a900473ffffffffffffffffffffffffffffffffffffffff1673ffffffffffffffffffffffffffffffffffffffff1663bc1b392d6040518163ffffffff1660e01b8152600401600060405180830381865afa158015610e2c573d6000803e3d6000fd5b505050506040513d6000823e3d601f19601f82011682018060405250810190610e5591906122bd565b60008054906101000a900473ffffffffffffffffffffffffffffffffffffffff1673ffffffffffffffffffffffffffffffffffffffff1663bc1b392d6040518163ffffffff1660e01b8152600401600060405180830381865afa158015610ec0573d6000803e3d6000fd5b505050506040513d6000823e3d601f19601f82011682018060405250810190610ee991906122bd565b610c3e565b9050611739565b60008060009054906101000a900473ffffffffffffffffffffffffffffffffffffffff1673ffffffffffffffffffffffffffffffffffffffff1663b5e2832560008054906101000a900473ffffffffffffffffffffffffffffffffffffffff1673ffffffffffffffffffffffffffffffffffffffff1663b5e2832560008054906101000a900473ffffffffffffffffffffffffffffffffffffffff1673ffffffffffffffffffffffffffffffffffffffff166345caa1176040518163ffffffff1660e01b8152600401600060405180830381865afa158015610fdb573d6000803e3d6000fd5b505050506040513d6000823e3d601f19601f8201168201806040525081019061100491906122bd565b60008054906101000a900473ffffffffffffffffffffffffffffffffffffffff1673ffffffffffffffffffffffffffffffffffffffff1663b5e2832589602001518a602001516040518363ffffffff1660e01b81526004016110679291906120e7565b600060405180830381865afa158015611084573d6000803e3d6000fd5b505050506040513d6000823e3d601f19601f820116820180604052508101906110ad91906122bd565b6040518363ffffffff1660e01b81526004016110ca9291906120e7565b600060405180830381865afa1580156110e7573d6000803e3d6000fd5b505050506040513d6000823e3d601f19601f8201168201806040525081019061111091906122bd565b60008054906101000a900473ffffffffffffffffffffffffffffffffffffffff1673ffffffffffffffffffffffffffffffffffffffff1663a672d10060008054906101000a900473ffffffffffffffffffffffffffffffffffffffff1673ffffffffffffffffffffffffffffffffffffffff1663b5e2832560008054906101000a900473ffffffffffffffffffffffffffffffffffffffff1673ffffffffffffffffffffffffffffffffffffffff16635fdf05d76040518163ffffffff1660e01b8152600401600060405180830381865afa1580156111f3573d6000803e3d6000fd5b505050506040513d6000823e3d601f19601f8201168201806040525081019061121c91906122bd565b8a604001516040518363ffffffff1660e01b815260040161123e9291906120e7565b600060405180830381865afa15801561125b573d6000803e3d6000fd5b505050506040513d6000823e3d601f19601f8201168201806040525081019061128491906122bd565b6040518263ffffffff1660e01b81526004016112a09190612306565b600060405180830381865afa1580156112bd573d6000803e3d6000fd5b505050506040513d6000823e3d601f19601f820116820180604052508101906112e691906122bd565b6040518363ffffffff1660e01b81526004016113039291906120e7565b600060405180830381865afa158015611320573d6000803e3d6000fd5b505050506040513d6000823e3d601f19601f8201168201806040525081019061134991906122bd565b905060008060009054906101000a900473ffffffffffffffffffffffffffffffffffffffff1673ffffffffffffffffffffffffffffffffffffffff1663fb2bedad60008054906101000a900473ffffffffffffffffffffffffffffffffffffffff1673ffffffffffffffffffffffffffffffffffffffff1663fb2bedad60008054906101000a900473ffffffffffffffffffffffffffffffffffffffff1673ffffffffffffffffffffffffffffffffffffffff1663b5e2832587886040518363ffffffff1660e01b81526004016114219291906120e7565b600060405180830381865afa15801561143e573d6000803e3d6000fd5b505050506040513d6000823e3d601f19601f8201168201806040525081019061146791906122bd565b88602001516040518363ffffffff1660e01b81526004016114899291906120e7565b600060405180830381865afa1580156114a6573d6000803e3d6000fd5b505050506040513d6000823e3d601f19601f820116820180604052508101906114cf91906122bd565b86602001516040518363ffffffff1660e01b81526004016114f19291906120e7565b600060405180830381865afa15801561150e573d6000803e3d6000fd5b505050506040513d6000823e3d601f19601f8201168201806040525081019061153791906122bd565b905060008060009054906101000a900473ffffffffffffffffffffffffffffffffffffffff1673ffffffffffffffffffffffffffffffffffffffff1663fb2bedad60008054906101000a900473ffffffffffffffffffffffffffffffffffffffff1673ffffffffffffffffffffffffffffffffffffffff1663b5e2832560008054906101000a900473ffffffffffffffffffffffffffffffffffffffff1673ffffffffffffffffffffffffffffffffffffffff1663fb2bedad8a60200151886040518363ffffffff1660e01b81526004016116139291906120e7565b600060405180830381865afa158015611630573d6000803e3d6000fd5b505050506040513d6000823e3d601f19601f8201168201806040525081019061165991906122bd565b876040518363ffffffff1660e01b81526004016116779291906120e7565b600060405180830381865afa158015611694573d6000803e3d6000fd5b505050506040513d6000823e3d601f19601f820116820180604052508101906116bd91906122bd565b87604001516040518363ffffffff1660e01b81526004016116df9291906120e7565b600060405180830381865afa1580156116fc573d6000803e3d6000fd5b505050506040513d6000823e3d601f19601f8201168201806040525081019061172591906122bd565b905061173360008383610c3e565b93505050505b919050565b61174661190c565b60018081111561175957611758611d6a565b5b826000015160018111156117705761176f611d6a565b5b036117b0576040517f08c379a00000000000000000000000000000000000000000000000000000000081526004016117a790612385565b60405180910390fd5b6118f76000836020015160008054906101000a900473ffffffffffffffffffffffffffffffffffffffff1673ffffffffffffffffffffffffffffffffffffffff1663fb2bedad60008054906101000a900473ffffffffffffffffffffffffffffffffffffffff1673ffffffffffffffffffffffffffffffffffffffff1663bc1b392d6040518163ffffffff1660e01b8152600401600060405180830381865afa158015611861573d6000803e3d6000fd5b505050506040513d6000823e3d601f19601f8201168201806040525081019061188a91906122bd565b87604001516040518363ffffffff1660e01b81526004016118ac9291906120e7565b600060405180830381865afa1580156118c9573d6000803e3d6000fd5b505050506040513d6000823e3d601f19601f820116820180604052508101906118f291906122bd565b610c3e565b9050919050565b61190661190c565b92915050565b60405180606001604052806000600181111561192b5761192a611d6a565b5b815260200161193861194b565b815260200161194561194b565b81525090565b604051806020016040528061195e611964565b81525090565b604051806060016040528060608152602001600015158152602001600081525090565b6000604051905090565b600080fd5b600080fd5b600080fd5b6000601f19601f8301169050919050565b7f4e487b7100000000000000000000000000000000000000000000000000000000600052604160045260246000fd5b6119e9826119a0565b810181811067ffffffffffffffff82111715611a0857611a076119b1565b5b80604052505050565b6000611a1b611987565b9050611a2782826119e0565b919050565b600080fd5b60028110611a3e57600080fd5b50565b600081359050611a5081611a31565b92915050565b600080fd5b600080fd5b600067ffffffffffffffff821115611a7b57611a7a6119b1565b5b611a84826119a0565b9050602081019050919050565b82818337600083830152505050565b6000611ab3611aae84611a60565b611a11565b905082815260208101848484011115611acf57611ace611a5b565b5b611ada848285611a91565b509392505050565b600082601f830112611af757611af6611a56565b5b8135611b07848260208601611aa0565b91505092915050565b60008115159050919050565b611b2581611b10565b8114611b3057600080fd5b50565b600081359050611b4281611b1c565b92915050565b6000819050919050565b611b5b81611b48565b8114611b6657600080fd5b50565b600081359050611b7881611b52565b92915050565b600060608284031215611b9457611b9361199b565b5b611b9e6060611a11565b9050600082013567ffffffffffffffff811115611bbe57611bbd611a2c565b5b611bca84828501611ae2565b6000830152506020611bde84828501611b33565b6020830152506040611bf284828501611b69565b60408301525092915050565b600060208284031215611c1457611c1361199b565b5b611c1e6020611a11565b9050600082013567ffffffffffffffff811115611c3e57611c3d611a2c565b5b611c4a84828501611b7e565b60008301525092915050565b600060608284031215611c6c57611c6b61199b565b5b611c766060611a11565b90506000611c8684828501611a41565b600083015250602082013567ffffffffffffffff811115611caa57611ca9611a2c565b5b611cb684828501611bfe565b602083015250604082013567ffffffffffffffff811115611cda57611cd9611a2c565b5b611ce684828501611bfe565b60408301525092915050565b60008060408385031215611d0957611d08611991565b5b600083013567ffffffffffffffff811115611d2757611d26611996565b5b611d3385828601611c56565b925050602083013567ffffffffffffffff811115611d5457611d53611996565b5b611d6085828601611c56565b9150509250929050565b7f4e487b7100000000000000000000000000000000000000000000000000000000600052602160045260246000fd5b60028110611daa57611da9611d6a565b5b50565b6000819050611dbb82611d99565b919050565b6000611dcb82611dad565b9050919050565b611ddb81611dc0565b82525050565b600081519050919050565b600082825260208201905092915050565b60005b83811015611e1b578082015181840152602081019050611e00565b60008484015250505050565b6000611e3282611de1565b611e3c8185611dec565b9350611e4c818560208601611dfd565b611e55816119a0565b840191505092915050565b611e6981611b10565b82525050565b611e7881611b48565b82525050565b60006060830160008301518482036000860152611e9b8282611e27565b9150506020830151611eb06020860182611e60565b506040830151611ec36040860182611e6f565b508091505092915050565b60006020830160008301518482036000860152611eeb8282611e7e565b9150508091505092915050565b6000606083016000830151611f106000860182611dd2565b5060208301518482036020860152611f288282611ece565b91505060408301518482036040860152611f428282611ece565b9150508091505092915050565b60006020820190508181036000830152611f698184611ef8565b905092915050565b600080600060608486031215611f8a57611f89611991565b5b6000611f9886828701611a41565b935050602084013567ffffffffffffffff811115611fb957611fb8611996565b5b611fc586828701611bfe565b925050604084013567ffffffffffffffff811115611fe657611fe5611996565b5b611ff286828701611bfe565b9150509250925092565b60006020828403121561201257612011611991565b5b600082013567ffffffffffffffff8111156120305761202f611996565b5b61203c84828501611c56565b91505092915050565b6000806040838503121561205c5761205b611991565b5b600083013567ffffffffffffffff81111561207a57612079611996565b5b61208685828601611c56565b925050602083013567ffffffffffffffff8111156120a7576120a6611996565b5b6120b385828601611b7e565b9150509250929050565b600060208301600083015184820360008601526120da8282611e7e565b9150508091505092915050565b6000604082019050818103600083015261210181856120bd565b9050818103602083015261211581846120bd565b90509392505050565b60008151905061212d81611b1c565b92915050565b60006020828403121561214957612148611991565b5b60006121578482850161211e565b91505092915050565b600061217361216e84611a60565b611a11565b90508281526020810184848401111561218f5761218e611a5b565b5b61219a848285611dfd565b509392505050565b600082601f8301126121b7576121b6611a56565b5b81516121c7848260208601612160565b91505092915050565b6000815190506121df81611b52565b92915050565b6000606082840312156121fb576121fa61199b565b5b6122056060611a11565b9050600082015167ffffffffffffffff81111561222557612224611a2c565b5b612231848285016121a2565b60008301525060206122458482850161211e565b6020830152506040612259848285016121d0565b60408301525092915050565b60006020828403121561227b5761227a61199b565b5b6122856020611a11565b9050600082015167ffffffffffffffff8111156122a5576122a4611a2c565b5b6122b1848285016121e5565b60008301525092915050565b6000602082840312156122d3576122d2611991565b5b600082015167ffffffffffffffff8111156122f1576122f0611996565b5b6122fd84828501612265565b91505092915050565b6000602082019050818103600083015261232081846120bd565b905092915050565b600082825260208201905092915050565b7f63616e6e6f74206e656761746520706f696e7420617420696e66696e69747900600082015250565b600061236f601f83612328565b915061237a82612339565b602082019050919050565b6000602082019050818103600083015261239e81612362565b905091905056fea264697066735822122039e3cd43fe59d2b6779904af85962b9e58e7c042c76d9ef232038f25b545cc1c64736f6c634300081b0033",
  "linkReferences": {},
  "deployedLinkReferences": {}
}