{
  "_format": "hh-sol-artifact-1",
  "contractName": "PointZp",
  "sourceName": "contracts/PointZp.sol",
  "abi": [
    {
      "inputs": [
        {
          "internalType": "contract BigFiniteField",
          "name": "field",
          "type": "address"
        }
      ],
      "stateMutability": "nonpayable",
      "type": "constructor"
    },
    {
      "inputs": [
        {
          "components": [
            {
              "internalType": "enum PointType",
              "name": "pointType",
              "type": "uint8"
            },
            {
              "components": [
                {
                  "components": [
                    {
                      "internalType": "bytes",
                      "name": "val",
                      "type": "bytes"
                    },
                    {
                      "internalType": "bool",
                      "name": "neg",
                      "type": "bool"
                    },
                    {
                      "internalType": "uint256",
                      "name": "bitlen",
                      "type": "uint256"
                    }
                  ],
                  "internalType": "struct BigNumber",
                  "name": "value",
                  "type": "tuple"
                }
              ],
              "internalType": "struct Zp",
              "name": "x",
              "type": "tuple"
            },
            {
              "components": [
                {
                  "components": [
                    {
                      "internalType": "bytes",
                      "name": "val",
                      "type": "bytes"
                    },
                    {
                      "internalType": "bool",
                      "name": "neg",
                      "type": "bool"
                    },
                    {
                      "internalType": "uint256",
                      "name": "bitlen",
                      "type": "uint256"
                    }
                  ],
                  "internalType": "struct BigNumber",
                  "name": "value",
                  "type": "tuple"
                }
              ],
              "internalType": "struct Zp",
              "name": "y",
              "type": "tuple"
            }
          ],
          "internalType": "struct Point_Zp",
          "name": "self",
          "type": "tuple"
        },
        {
          "components": [
            {
              "internalType": "enum PointType",
              "name": "pointType",
              "type": "uint8"
            },
            {
              "components": [
                {
                  "components": [
                    {
                      "internalType": "bytes",
                      "name": "val",
                      "type": "bytes"
                    },
                    {
                      "internalType": "bool",
                      "name": "neg",
                      "type": "bool"
                    },
                    {
                      "internalType": "uint256",
                      "name": "bitlen",
                      "type": "uint256"
                    }
                  ],
                  "internalType": "struct BigNumber",
                  "name": "value",
                  "type": "tuple"
                }
              ],
              "internalType": "struct Zp",
              "name": "x",
              "type": "tuple"
            },
            {
              "components": [
                {
                  "components": [
                    {
                      "internalType": "bytes",
                      "name": "val",
                      "type": "bytes"
                    },
                    {
                      "internalType": "bool",
                      "name": "neg",
                      "type": "bool"
                    },
                    {
                      "internalType": "uint256",
                      "name": "bitlen",
                      "type": "uint256"
                    }
                  ],
                  "internalType": "struct BigNumber",
                  "name": "value",
                  "type": "tuple"
                }
              ],
              "internalType": "struct Zp",
              "name": "y",
              "type": "tuple"
            }
          ],
          "internalType": "struct Point_Zp",
          "name": "other",
          "type": "tuple"
        }
      ],
      "name": "add",
      "outputs": [
        {
          "components": [
            {
              "internalType": "enum PointType",
              "name": "pointType",
              "type": "uint8"
            },
            {
              "components": [
                {
                  "components": [
                    {
                      "internalType": "bytes",
                      "name": "val",
                      "type": "bytes"
                    },
                    {
                      "internalType": "bool",
                      "name": "neg",
                      "type": "bool"
                    },
                    {
                      "internalType": "uint256",
                      "name": "bitlen",
                      "type": "uint256"
                    }
                  ],
                  "internalType": "struct BigNumber",
                  "name": "value",
                  "type": "tuple"
                }
              ],
              "internalType": "struct Zp",
              "name": "x",
              "type": "tuple"
            },
            {
              "components": [
                {
                  "components": [
                    {
                      "internalType": "bytes",
                      "name": "val",
                      "type": "bytes"
                    },
                    {
                      "internalType": "bool",
                      "name": "neg",
                      "type": "bool"
                    },
                    {
                      "internalType": "uint256",
                      "name": "bitlen",
                      "type": "uint256"
                    }
                  ],
                  "internalType": "struct BigNumber",
                  "name": "value",
                  "type": "tuple"
                }
              ],
              "internalType": "struct Zp",
              "name": "y",
              "type": "tuple"
            }
          ],
          "internalType": "struct Point_Zp",
          "name": "",
          "type": "tuple"
        }
      ],
      "stateMutability": "view",
      "type": "function"
    },
    {
      "inputs": [
        {
          "components": [
            {
              "internalType": "enum PointType",
              "name": "pointType",
              "type": "uint8"
            },
            {
              "components": [
                {
                  "components": [
                    {
                      "internalType": "bytes",
                      "name": "val",
                      "type": "bytes"
                    },
                    {
                      "internalType": "bool",
                      "name": "neg",
                      "type": "bool"
                    },
                    {
                      "internalType": "uint256",
                      "name": "bitlen",
                      "type": "uint256"
                    }
                  ],
                  "internalType": "struct BigNumber",
                  "name": "value",
                  "type": "tuple"
                }
              ],
              "internalType": "struct Zp",
              "name": "x",
              "type": "tuple"
            },
            {
              "components": [
                {
                  "components": [
                    {
                      "internalType": "bytes",
                      "name": "val",
                      "type": "bytes"
                    },
                    {
                      "internalType": "bool",
                      "name": "neg",
                      "type": "bool"
                    },
                    {
                      "internalType": "uint256",
                      "name": "bitlen",
                      "type": "uint256"
                    }
                  ],
                  "internalType": "struct BigNumber",
                  "name": "value",
                  "type": "tuple"
                }
              ],
              "internalType": "struct Zp",
              "name": "y",
              "type": "tuple"
            }
          ],
          "internalType": "struct Point_Zp",
          "name": "self",
          "type": "tuple"
        }
      ],
      "name": "double",
      "outputs": [
        {
          "components": [
            {
              "internalType": "enum PointType",
              "name": "pointType",
              "type": "uint8"
            },
            {
              "components": [
                {
                  "components": [
                    {
                      "internalType": "bytes",
                      "name": "val",
                      "type": "bytes"
                    },
                    {
                      "internalType": "bool",
                      "name": "neg",
                      "type": "bool"
                    },
                    {
                      "internalType": "uint256",
                      "name": "bitlen",
                      "type": "uint256"
                    }
                  ],
                  "internalType": "struct BigNumber",
                  "name": "value",
                  "type": "tuple"
                }
              ],
              "internalType": "struct Zp",
              "name": "x",
              "type": "tuple"
            },
            {
              "components": [
                {
                  "components": [
                    {
                      "internalType": "bytes",
                      "name": "val",
                      "type": "bytes"
                    },
                    {
                      "internalType": "bool",
                      "name": "neg",
                      "type": "bool"
                    },
                    {
                      "internalType": "uint256",
                      "name": "bitlen",
                      "type": "uint256"
                    }
                  ],
                  "internalType": "struct BigNumber",
                  "name": "value",
                  "type": "tuple"
                }
              ],
              "internalType": "struct Zp",
              "name": "y",
              "type": "tuple"
            }
          ],
          "internalType": "struct Point_Zp",
          "name": "",
          "type": "tuple"
        }
      ],
      "stateMutability": "view",
      "type": "function"
    },
    {
      "inputs": [
        {
          "components": [
            {
              "internalType": "enum PointType",
              "name": "pointType",
              "type": "uint8"
            },
            {
              "components": [
                {
                  "components": [
                    {
                      "internalType": "bytes",
                      "name": "val",
                      "type": "bytes"
                    },
                    {
                      "internalType": "bool",
                      "name": "neg",
                      "type": "bool"
                    },
                    {
                      "internalType": "uint256",
                      "name": "bitlen",
                      "type": "uint256"
                    }
                  ],
                  "internalType": "struct BigNumber",
                  "name": "value",
                  "type": "tuple"
                }
              ],
              "internalType": "struct Zp",
              "name": "x",
              "type": "tuple"
            },
            {
              "components": [
                {
                  "components": [
                    {
                      "internalType": "bytes",
                      "name": "val",
                      "type": "bytes"
                    },
                    {
                      "internalType": "bool",
                      "name": "neg",
                      "type": "bool"
                    },
                    {
                      "internalType": "uint256",
                      "name": "bitlen",
                      "type": "uint256"
                    }
                  ],
                  "internalType": "struct BigNumber",
                  "name": "value",
                  "type": "tuple"
                }
              ],
              "internalType": "struct Zp",
              "name": "y",
              "type": "tuple"
            }
          ],
          "internalType": "struct Point_Zp",
          "name": "self",
          "type": "tuple"
        }
      ],
      "name": "negate",
      "outputs": [
        {
          "components": [
            {
              "internalType": "enum PointType",
              "name": "pointType",
              "type": "uint8"
            },
            {
              "components": [
                {
                  "components": [
                    {
                      "internalType": "bytes",
                      "name": "val",
                      "type": "bytes"
                    },
                    {
                      "internalType": "bool",
                      "name": "neg",
                      "type": "bool"
                    },
                    {
                      "internalType": "uint256",
                      "name": "bitlen",
                      "type": "uint256"
                    }
                  ],
                  "internalType": "struct BigNumber",
                  "name": "value",
                  "type": "tuple"
                }
              ],
              "internalType": "struct Zp",
              "name": "x",
              "type": "tuple"
            },
            {
              "components": [
                {
                  "components": [
                    {
                      "internalType": "bytes",
                      "name": "val",
                      "type": "bytes"
                    },
                    {
                      "internalType": "bool",
                      "name": "neg",
                      "type": "bool"
                    },
                    {
                      "internalType": "uint256",
                      "name": "bitlen",
                      "type": "uint256"
                    }
                  ],
                  "internalType": "struct BigNumber",
                  "name": "value",
                  "type": "tuple"
                }
              ],
              "internalType": "struct Zp",
              "name": "y",
              "type": "tuple"
            }
          ],
          "internalType": "struct Point_Zp",
          "name": "",
          "type": "tuple"
        }
      ],
      "stateMutability": "view",
      "type": "function"
    },
    {
      "inputs": [
        {
          "internalType": "enum PointType",
          "name": "pointType",
          "type": "uint8"
        },
        {
          "components": [
            {
              "components": [
                {
                  "internalType": "bytes",
                  "name": "val",
                  "type": "bytes"
                },
                {
                  "internalType": "bool",
                  "name": "neg",
                  "type": "bool"
                },
                {
                  "internalType": "uint256",
                  "name": "bitlen",
                  "type": "uint256"
                }
              ],
              "internalType": "struct BigNumber",
              "name": "value",
              "type": "tuple"
            }
          ],
          "internalType": "struct Zp",
          "name": "x",
          "type": "tuple"
        },
        {
          "components": [
            {
              "components": [
                {
                  "internalType": "bytes",
                  "name": "val",
                  "type": "bytes"
                },
                {
                  "internalType": "bool",
                  "name": "neg",
                  "type": "bool"
                },
                {
                  "internalType": "uint256",
                  "name": "bitlen",
                  "type": "uint256"
                }
              ],
              "internalType": "struct BigNumber",
              "name": "value",
              "type": "tuple"
            }
          ],
          "internalType": "struct Zp",
          "name": "y",
          "type": "tuple"
        }
      ],
      "name": "newPoint",
      "outputs": [
        {
          "components": [
            {
              "internalType": "enum PointType",
              "name": "pointType",
              "type": "uint8"
            },
            {
              "components": [
                {
                  "components": [
                    {
                      "internalType": "bytes",
                      "name": "val",
                      "type": "bytes"
                    },
                    {
                      "internalType": "bool",
                      "name": "neg",
                      "type": "bool"
                    },
                    {
                      "internalType": "uint256",
                      "name": "bitlen",
                      "type": "uint256"
                    }
                  ],
                  "internalType": "struct BigNumber",
                  "name": "value",
                  "type": "tuple"
                }
              ],
              "internalType": "struct Zp",
              "name": "x",
              "type": "tuple"
            },
            {
              "components": [
                {
                  "components": [
                    {
                      "internalType": "bytes",
                      "name": "val",
                      "type": "bytes"
                    },
                    {
                      "internalType": "bool",
                      "name": "neg",
                      "type": "bool"
                    },
                    {
                      "internalType": "uint256",
                      "name": "bitlen",
                      "type": "uint256"
                    }
                  ],
                  "internalType": "struct BigNumber",
                  "name": "value",
                  "type": "tuple"
                }
              ],
              "internalType": "struct Zp",
              "name": "y",
              "type": "tuple"
            }
          ],
          "internalType": "struct Point_Zp",
          "name": "",
          "type": "tuple"
        }
      ],
      "stateMutability": "pure",
      "type": "function"
    }
  ],
  "bytecode": "0x608060405234801561001057600080fd5b50604051612443380380612443833981810160405281019061003291906100ed565b806000806101000a81548173ffffffffffffffffffffffffffffffffffffffff021916908373ffffffffffffffffffffffffffffffffffffffff1602179055505061011a565b600080fd5b600073ffffffffffffffffffffffffffffffffffffffff82169050919050565b60006100a88261007d565b9050919050565b60006100ba8261009d565b9050919050565b6100ca816100af565b81146100d557600080fd5b50565b6000815190506100e7816100c1565b92915050565b60006020828403121561010357610102610078565b5b6000610111848285016100d8565b91505092915050565b61231a806101296000396000f3fe608060405234801561001057600080fd5b506004361061004c5760003560e01c806307951d69146100515780633e072985146100815780636cee5a0b146100b157806398dc089a146100e1575b600080fd5b61006b60048036038101906100669190611ca9565b610111565b6040516100789190611f06565b60405180910390f35b61009b60048036038101906100969190611f28565b610c03565b6040516100a89190611f06565b60405180910390f35b6100cb60048036038101906100c69190611fb3565b610c41565b6040516100d89190611f06565b60405180910390f35b6100fb60048036038101906100f69190611fb3565b611703565b6040516101089190611f06565b60405180910390f35b6101196118c3565b60018081111561012c5761012b611d21565b5b8360000151600181111561014357610142611d21565b5b0361015057829050610bfd565b60018081111561016357610162611d21565b5b8260000151600181111561017a57610179611d21565b5b0361018757819050610bfd565b60008054906101000a900473ffffffffffffffffffffffffffffffffffffffff1673ffffffffffffffffffffffffffffffffffffffff1663d4d45554846020015184602001516040518363ffffffff1660e01b81526004016101ea929190612026565b602060405180830381865afa158015610207573d6000803e3d6000fd5b505050506040513d601f19601f8201168201806040525081019061022b9190612072565b80156102d7575060008054906101000a900473ffffffffffffffffffffffffffffffffffffffff1673ffffffffffffffffffffffffffffffffffffffff1663d4d45554846040015184604001516040518363ffffffff1660e01b8152600401610295929190612026565b602060405180830381865afa1580156102b2573d6000803e3d6000fd5b505050506040513d601f19601f820116820180604052508101906102d69190612072565b5b156102ec576102e583610c41565b9050610bfd565b60008054906101000a900473ffffffffffffffffffffffffffffffffffffffff1673ffffffffffffffffffffffffffffffffffffffff1663d4d45554846020015184602001516040518363ffffffff1660e01b815260040161034f929190612026565b602060405180830381865afa15801561036c573d6000803e3d6000fd5b505050506040513d601f19601f820116820180604052508101906103909190612072565b801561043d575060008054906101000a900473ffffffffffffffffffffffffffffffffffffffff1673ffffffffffffffffffffffffffffffffffffffff1663d4d45554846040015184604001516040518363ffffffff1660e01b81526004016103fa929190612026565b602060405180830381865afa158015610417573d6000803e3d6000fd5b505050506040513d601f19601f8201168201806040525081019061043b9190612072565b155b1561057b57610574600160008054906101000a900473ffffffffffffffffffffffffffffffffffffffff1673ffffffffffffffffffffffffffffffffffffffff1663bc1b392d6040518163ffffffff1660e01b8152600401600060405180830381865afa1580156104b2573d6000803e3d6000fd5b505050506040513d6000823e3d601f19601f820116820180604052508101906104db91906121fc565b60008054906101000a900473ffffffffffffffffffffffffffffffffffffffff1673ffffffffffffffffffffffffffffffffffffffff1663bc1b392d6040518163ffffffff1660e01b8152600401600060405180830381865afa158015610546573d6000803e3d6000fd5b505050506040513d6000823e3d601f19601f8201168201806040525081019061056f91906121fc565b610c03565b9050610bfd565b60008060009054906101000a900473ffffffffffffffffffffffffffffffffffffffff1673ffffffffffffffffffffffffffffffffffffffff1663b5e2832560008054906101000a900473ffffffffffffffffffffffffffffffffffffffff1673ffffffffffffffffffffffffffffffffffffffff1663fb2bedad866040015188604001516040518363ffffffff1660e01b815260040161061d929190612026565b600060405180830381865afa15801561063a573d6000803e3d6000fd5b505050506040513d6000823e3d601f19601f8201168201806040525081019061066391906121fc565b60008054906101000a900473ffffffffffffffffffffffffffffffffffffffff1673ffffffffffffffffffffffffffffffffffffffff1663a672d10060008054906101000a900473ffffffffffffffffffffffffffffffffffffffff1673ffffffffffffffffffffffffffffffffffffffff1663fb2bedad89602001518b602001516040518363ffffffff1660e01b8152600401610702929190612026565b600060405180830381865afa15801561071f573d6000803e3d6000fd5b505050506040513d6000823e3d601f19601f8201168201806040525081019061074891906121fc565b6040518263ffffffff1660e01b81526004016107649190612245565b600060405180830381865afa158015610781573d6000803e3d6000fd5b505050506040513d6000823e3d601f19601f820116820180604052508101906107aa91906121fc565b6040518363ffffffff1660e01b81526004016107c7929190612026565b600060405180830381865afa1580156107e4573d6000803e3d6000fd5b505050506040513d6000823e3d601f19601f8201168201806040525081019061080d91906121fc565b905060008060009054906101000a900473ffffffffffffffffffffffffffffffffffffffff1673ffffffffffffffffffffffffffffffffffffffff1663fb2bedad60008054906101000a900473ffffffffffffffffffffffffffffffffffffffff1673ffffffffffffffffffffffffffffffffffffffff1663fb2bedad60008054906101000a900473ffffffffffffffffffffffffffffffffffffffff1673ffffffffffffffffffffffffffffffffffffffff1663b5e2832587886040518363ffffffff1660e01b81526004016108e5929190612026565b600060405180830381865afa158015610902573d6000803e3d6000fd5b505050506040513d6000823e3d601f19601f8201168201806040525081019061092b91906121fc565b89602001516040518363ffffffff1660e01b815260040161094d929190612026565b600060405180830381865afa15801561096a573d6000803e3d6000fd5b505050506040513d6000823e3d601f19601f8201168201806040525081019061099391906121fc565b86602001516040518363ffffffff1660e01b81526004016109b5929190612026565b600060405180830381865afa1580156109d2573d6000803e3d6000fd5b505050506040513d6000823e3d601f19601f820116820180604052508101906109fb91906121fc565b905060008060009054906101000a900473ffffffffffffffffffffffffffffffffffffffff1673ffffffffffffffffffffffffffffffffffffffff1663fb2bedad60008054906101000a900473ffffffffffffffffffffffffffffffffffffffff1673ffffffffffffffffffffffffffffffffffffffff1663b5e2832560008054906101000a900473ffffffffffffffffffffffffffffffffffffffff1673ffffffffffffffffffffffffffffffffffffffff1663fb2bedad8b60200151886040518363ffffffff1660e01b8152600401610ad7929190612026565b600060405180830381865afa158015610af4573d6000803e3d6000fd5b505050506040513d6000823e3d601f19601f82011682018060405250810190610b1d91906121fc565b876040518363ffffffff1660e01b8152600401610b3b929190612026565b600060405180830381865afa158015610b58573d6000803e3d6000fd5b505050506040513d6000823e3d601f19601f82011682018060405250810190610b8191906121fc565b88604001516040518363ffffffff1660e01b8152600401610ba3929190612026565b600060405180830381865afa158015610bc0573d6000803e3d6000fd5b505050506040513d6000823e3d601f19601f82011682018060405250810190610be991906121fc565b9050610bf760008383610c03565b93505050505b92915050565b610c0b6118c3565b6040518060600160405280856001811115610c2957610c28611d21565b5b81526020018481526020018381525090509392505050565b610c496118c3565b60008054906101000a900473ffffffffffffffffffffffffffffffffffffffff1673ffffffffffffffffffffffffffffffffffffffff1663d4d45554836040015160008054906101000a900473ffffffffffffffffffffffffffffffffffffffff1673ffffffffffffffffffffffffffffffffffffffff1663bc1b392d6040518163ffffffff1660e01b8152600401600060405180830381865afa158015610cf5573d6000803e3d6000fd5b505050506040513d6000823e3d601f19601f82011682018060405250810190610d1e91906121fc565b6040518363ffffffff1660e01b8152600401610d3b929190612026565b602060405180830381865afa158015610d58573d6000803e3d6000fd5b505050506040513d601f19601f82011682018060405250810190610d7c9190612072565b15610eba57610eb3600160008054906101000a900473ffffffffffffffffffffffffffffffffffffffff1673ffffffffffffffffffffffffffffffffffffffff1663bc1b392d6040518163ffffffff1660e01b8152600401600060405180830381865afa158015610df1573d6000803e3d6000fd5b505050506040513d6000823e3d601f19601f82011682018060405250810190610e1a91906121fc565b60008054906101000a900473ffffffffffffffffffffffffffffffffffffffff1673ffffffffffffffffffffffffffffffffffffffff1663bc1b392d6040518163ffffffff1660e01b8152600401600060405180830381865afa158015610e85573d6000803e3d6000fd5b505050506040513d6000823e3d601f19601f82011682018060405250810190610eae91906121fc565b610c03565b90506116fe565b60008060009054906101000a900473ffffffffffffffffffffffffffffffffffffffff1673ffffffffffffffffffffffffffffffffffffffff1663b5e2832560008054906101000a900473ffffffffffffffffffffffffffffffffffffffff1673ffffffffffffffffffffffffffffffffffffffff1663b5e2832560008054906101000a900473ffffffffffffffffffffffffffffffffffffffff1673ffffffffffffffffffffffffffffffffffffffff166345caa1176040518163ffffffff1660e01b8152600401600060405180830381865afa158015610fa0573d6000803e3d6000fd5b505050506040513d6000823e3d601f19601f82011682018060405250810190610fc991906121fc565b60008054906101000a900473ffffffffffffffffffffffffffffffffffffffff1673ffffffffffffffffffffffffffffffffffffffff1663b5e2832589602001518a602001516040518363ffffffff1660e01b815260040161102c929190612026565b600060405180830381865afa158015611049573d6000803e3d6000fd5b505050506040513d6000823e3d601f19601f8201168201806040525081019061107291906121fc565b6040518363ffffffff1660e01b815260040161108f929190612026565b600060405180830381865afa1580156110ac573d6000803e3d6000fd5b505050506040513d6000823e3d601f19601f820116820180604052508101906110d591906121fc565b60008054906101000a900473ffffffffffffffffffffffffffffffffffffffff1673ffffffffffffffffffffffffffffffffffffffff1663a672d10060008054906101000a900473ffffffffffffffffffffffffffffffffffffffff1673ffffffffffffffffffffffffffffffffffffffff1663b5e2832560008054906101000a900473ffffffffffffffffffffffffffffffffffffffff1673ffffffffffffffffffffffffffffffffffffffff16635fdf05d76040518163ffffffff1660e01b8152600401600060405180830381865afa1580156111b8573d6000803e3d6000fd5b505050506040513d6000823e3d601f19601f820116820180604052508101906111e191906121fc565b8a604001516040518363ffffffff1660e01b8152600401611203929190612026565b600060405180830381865afa158015611220573d6000803e3d6000fd5b505050506040513d6000823e3d601f19601f8201168201806040525081019061124991906121fc565b6040518263ffffffff1660e01b81526004016112659190612245565b600060405180830381865afa158015611282573d6000803e3d6000fd5b505050506040513d6000823e3d601f19601f820116820180604052508101906112ab91906121fc565b6040518363ffffffff1660e01b81526004016112c8929190612026565b600060405180830381865afa1580156112e5573d6000803e3d6000fd5b505050506040513d6000823e3d601f19601f8201168201806040525081019061130e91906121fc565b905060008060009054906101000a900473ffffffffffffffffffffffffffffffffffffffff1673ffffffffffffffffffffffffffffffffffffffff1663fb2bedad60008054906101000a900473ffffffffffffffffffffffffffffffffffffffff1673ffffffffffffffffffffffffffffffffffffffff1663fb2bedad60008054906101000a900473ffffffffffffffffffffffffffffffffffffffff1673ffffffffffffffffffffffffffffffffffffffff1663b5e2832587886040518363ffffffff1660e01b81526004016113e6929190612026565b600060405180830381865afa158015611403573d6000803e3d6000fd5b505050506040513d6000823e3d601f19601f8201168201806040525081019061142c91906121fc565b88602001516040518363ffffffff1660e01b815260040161144e929190612026565b600060405180830381865afa15801561146b573d6000803e3d6000fd5b505050506040513d6000823e3d601f19601f8201168201806040525081019061149491906121fc565b86602001516040518363ffffffff1660e01b81526004016114b6929190612026565b600060405180830381865afa1580156114d3573d6000803e3d6000fd5b505050506040513d6000823e3d601f19601f820116820180604052508101906114fc91906121fc565b905060008060009054906101000a900473ffffffffffffffffffffffffffffffffffffffff1673ffffffffffffffffffffffffffffffffffffffff1663fb2bedad60008054906101000a900473ffffffffffffffffffffffffffffffffffffffff1673ffffffffffffffffffffffffffffffffffffffff1663b5e2832560008054906101000a900473ffffffffffffffffffffffffffffffffffffffff1673ffffffffffffffffffffffffffffffffffffffff1663fb2bedad8a60200151886040518363ffffffff1660e01b81526004016115d8929190612026565b600060405180830381865afa1580156115f5573d6000803e3d6000fd5b505050506040513d6000823e3d601f19601f8201168201806040525081019061161e91906121fc565b876040518363ffffffff1660e01b815260040161163c929190612026565b600060405180830381865afa158015611659573d6000803e3d6000fd5b505050506040513d6000823e3d601f19601f8201168201806040525081019061168291906121fc565b87604001516040518363ffffffff1660e01b81526004016116a4929190612026565b600060405180830381865afa1580156116c1573d6000803e3d6000fd5b505050506040513d6000823e3d601f19601f820116820180604052508101906116ea91906121fc565b90506116f860008383610c03565b93505050505b919050565b61170b6118c3565b60018081111561171e5761171d611d21565b5b8260000151600181111561173557611734611d21565b5b03611775576040517f08c379a000000000000000000000000000000000000000000000000000000000815260040161176c906122c4565b60405180910390fd5b6118bc6000836020015160008054906101000a900473ffffffffffffffffffffffffffffffffffffffff1673ffffffffffffffffffffffffffffffffffffffff1663fb2bedad60008054906101000a900473ffffffffffffffffffffffffffffffffffffffff1673ffffffffffffffffffffffffffffffffffffffff1663bc1b392d6040518163ffffffff1660e01b8152600401600060405180830381865afa158015611826573d6000803e3d6000fd5b505050506040513d6000823e3d601f19601f8201168201806040525081019061184f91906121fc565b87604001516040518363ffffffff1660e01b8152600401611871929190612026565b600060405180830381865afa15801561188e573d6000803e3d6000fd5b505050506040513d6000823e3d601f19601f820116820180604052508101906118b791906121fc565b610c03565b9050919050565b6040518060600160405280600060018111156118e2576118e1611d21565b5b81526020016118ef611902565b81526020016118fc611902565b81525090565b604051806020016040528061191561191b565b81525090565b604051806060016040528060608152602001600015158152602001600081525090565b6000604051905090565b600080fd5b600080fd5b600080fd5b6000601f19601f8301169050919050565b7f4e487b7100000000000000000000000000000000000000000000000000000000600052604160045260246000fd5b6119a082611957565b810181811067ffffffffffffffff821117156119bf576119be611968565b5b80604052505050565b60006119d261193e565b90506119de8282611997565b919050565b600080fd5b600281106119f557600080fd5b50565b600081359050611a07816119e8565b92915050565b600080fd5b600080fd5b600067ffffffffffffffff821115611a3257611a31611968565b5b611a3b82611957565b9050602081019050919050565b82818337600083830152505050565b6000611a6a611a6584611a17565b6119c8565b905082815260208101848484011115611a8657611a85611a12565b5b611a91848285611a48565b509392505050565b600082601f830112611aae57611aad611a0d565b5b8135611abe848260208601611a57565b91505092915050565b60008115159050919050565b611adc81611ac7565b8114611ae757600080fd5b50565b600081359050611af981611ad3565b92915050565b6000819050919050565b611b1281611aff565b8114611b1d57600080fd5b50565b600081359050611b2f81611b09565b92915050565b600060608284031215611b4b57611b4a611952565b5b611b5560606119c8565b9050600082013567ffffffffffffffff811115611b7557611b746119e3565b5b611b8184828501611a99565b6000830152506020611b9584828501611aea565b6020830152506040611ba984828501611b20565b60408301525092915050565b600060208284031215611bcb57611bca611952565b5b611bd560206119c8565b9050600082013567ffffffffffffffff811115611bf557611bf46119e3565b5b611c0184828501611b35565b60008301525092915050565b600060608284031215611c2357611c22611952565b5b611c2d60606119c8565b90506000611c3d848285016119f8565b600083015250602082013567ffffffffffffffff811115611c6157611c606119e3565b5b611c6d84828501611bb5565b602083015250604082013567ffffffffffffffff811115611c9157611c906119e3565b5b611c9d84828501611bb5565b60408301525092915050565b60008060408385031215611cc057611cbf611948565b5b600083013567ffffffffffffffff811115611cde57611cdd61194d565b5b611cea85828601611c0d565b925050602083013567ffffffffffffffff811115611d0b57611d0a61194d565b5b611d1785828601611c0d565b9150509250929050565b7f4e487b7100000000000000000000000000000000000000000000000000000000600052602160045260246000fd5b60028110611d6157611d60611d21565b5b50565b6000819050611d7282611d50565b919050565b6000611d8282611d64565b9050919050565b611d9281611d77565b82525050565b600081519050919050565b600082825260208201905092915050565b60005b83811015611dd2578082015181840152602081019050611db7565b60008484015250505050565b6000611de982611d98565b611df38185611da3565b9350611e03818560208601611db4565b611e0c81611957565b840191505092915050565b611e2081611ac7565b82525050565b611e2f81611aff565b82525050565b60006060830160008301518482036000860152611e528282611dde565b9150506020830151611e676020860182611e17565b506040830151611e7a6040860182611e26565b508091505092915050565b60006020830160008301518482036000860152611ea28282611e35565b9150508091505092915050565b6000606083016000830151611ec76000860182611d89565b5060208301518482036020860152611edf8282611e85565b91505060408301518482036040860152611ef98282611e85565b9150508091505092915050565b60006020820190508181036000830152611f208184611eaf565b905092915050565b600080600060608486031215611f4157611f40611948565b5b6000611f4f868287016119f8565b935050602084013567ffffffffffffffff811115611f7057611f6f61194d565b5b611f7c86828701611bb5565b925050604084013567ffffffffffffffff811115611f9d57611f9c61194d565b5b611fa986828701611bb5565b9150509250925092565b600060208284031215611fc957611fc8611948565b5b600082013567ffffffffffffffff811115611fe757611fe661194d565b5b611ff384828501611c0d565b91505092915050565b600060208301600083015184820360008601526120198282611e35565b9150508091505092915050565b600060408201905081810360008301526120408185611ffc565b905081810360208301526120548184611ffc565b90509392505050565b60008151905061206c81611ad3565b92915050565b60006020828403121561208857612087611948565b5b60006120968482850161205d565b91505092915050565b60006120b26120ad84611a17565b6119c8565b9050828152602081018484840111156120ce576120cd611a12565b5b6120d9848285611db4565b509392505050565b600082601f8301126120f6576120f5611a0d565b5b815161210684826020860161209f565b91505092915050565b60008151905061211e81611b09565b92915050565b60006060828403121561213a57612139611952565b5b61214460606119c8565b9050600082015167ffffffffffffffff811115612164576121636119e3565b5b612170848285016120e1565b60008301525060206121848482850161205d565b60208301525060406121988482850161210f565b60408301525092915050565b6000602082840312156121ba576121b9611952565b5b6121c460206119c8565b9050600082015167ffffffffffffffff8111156121e4576121e36119e3565b5b6121f084828501612124565b60008301525092915050565b60006020828403121561221257612211611948565b5b600082015167ffffffffffffffff8111156122305761222f61194d565b5b61223c848285016121a4565b91505092915050565b6000602082019050818103600083015261225f8184611ffc565b905092915050565b600082825260208201905092915050565b7f63616e6e6f74206e656761746520706f696e7420617420696e66696e69747900600082015250565b60006122ae601f83612267565b91506122b982612278565b602082019050919050565b600060208201905081810360008301526122dd816122a1565b905091905056fea264697066735822122009dbe9e6b1cb94d5f500e54f6404eff43a1d88062c9b1d15f1457fa93cd716ed64736f6c634300081b0033",
  "linkReferences": {},
  "deployedLinkReferences": {}
}