{
  "_format": "hh-sol-artifact-1",
  "contractName": "PointZp_2",
  "sourceName": "contracts/point/pointZp_2.sol",
  "abi": [
    {
      "inputs": [
        {
          "internalType": "contract QuadraticExtension",
          "name": "field",
          "type": "address"
        }
      ],
      "stateMutability": "nonpayable",
      "type": "constructor"
    },
    {
      "inputs": [
        {
          "components": [
            {
              "internalType": "enum PointType",
              "name": "pointType",
              "type": "uint8"
            },
            {
              "components": [
                {
                  "components": [
                    {
                      "components": [
                        {
                          "internalType": "bytes",
                          "name": "val",
                          "type": "bytes"
                        },
                        {
                          "internalType": "bool",
                          "name": "neg",
                          "type": "bool"
                        },
                        {
                          "internalType": "uint256",
                          "name": "bitlen",
                          "type": "uint256"
                        }
                      ],
                      "internalType": "struct BigNumber",
                      "name": "value",
                      "type": "tuple"
                    }
                  ],
                  "internalType": "struct Zp",
                  "name": "a",
                  "type": "tuple"
                },
                {
                  "components": [
                    {
                      "components": [
                        {
                          "internalType": "bytes",
                          "name": "val",
                          "type": "bytes"
                        },
                        {
                          "internalType": "bool",
                          "name": "neg",
                          "type": "bool"
                        },
                        {
                          "internalType": "uint256",
                          "name": "bitlen",
                          "type": "uint256"
                        }
                      ],
                      "internalType": "struct BigNumber",
                      "name": "value",
                      "type": "tuple"
                    }
                  ],
                  "internalType": "struct Zp",
                  "name": "b",
                  "type": "tuple"
                }
              ],
              "internalType": "struct Zp_2",
              "name": "x",
              "type": "tuple"
            },
            {
              "components": [
                {
                  "components": [
                    {
                      "components": [
                        {
                          "internalType": "bytes",
                          "name": "val",
                          "type": "bytes"
                        },
                        {
                          "internalType": "bool",
                          "name": "neg",
                          "type": "bool"
                        },
                        {
                          "internalType": "uint256",
                          "name": "bitlen",
                          "type": "uint256"
                        }
                      ],
                      "internalType": "struct BigNumber",
                      "name": "value",
                      "type": "tuple"
                    }
                  ],
                  "internalType": "struct Zp",
                  "name": "a",
                  "type": "tuple"
                },
                {
                  "components": [
                    {
                      "components": [
                        {
                          "internalType": "bytes",
                          "name": "val",
                          "type": "bytes"
                        },
                        {
                          "internalType": "bool",
                          "name": "neg",
                          "type": "bool"
                        },
                        {
                          "internalType": "uint256",
                          "name": "bitlen",
                          "type": "uint256"
                        }
                      ],
                      "internalType": "struct BigNumber",
                      "name": "value",
                      "type": "tuple"
                    }
                  ],
                  "internalType": "struct Zp",
                  "name": "b",
                  "type": "tuple"
                }
              ],
              "internalType": "struct Zp_2",
              "name": "y",
              "type": "tuple"
            }
          ],
          "internalType": "struct Point_Zp_2",
          "name": "self",
          "type": "tuple"
        },
        {
          "components": [
            {
              "internalType": "enum PointType",
              "name": "pointType",
              "type": "uint8"
            },
            {
              "components": [
                {
                  "components": [
                    {
                      "components": [
                        {
                          "internalType": "bytes",
                          "name": "val",
                          "type": "bytes"
                        },
                        {
                          "internalType": "bool",
                          "name": "neg",
                          "type": "bool"
                        },
                        {
                          "internalType": "uint256",
                          "name": "bitlen",
                          "type": "uint256"
                        }
                      ],
                      "internalType": "struct BigNumber",
                      "name": "value",
                      "type": "tuple"
                    }
                  ],
                  "internalType": "struct Zp",
                  "name": "a",
                  "type": "tuple"
                },
                {
                  "components": [
                    {
                      "components": [
                        {
                          "internalType": "bytes",
                          "name": "val",
                          "type": "bytes"
                        },
                        {
                          "internalType": "bool",
                          "name": "neg",
                          "type": "bool"
                        },
                        {
                          "internalType": "uint256",
                          "name": "bitlen",
                          "type": "uint256"
                        }
                      ],
                      "internalType": "struct BigNumber",
                      "name": "value",
                      "type": "tuple"
                    }
                  ],
                  "internalType": "struct Zp",
                  "name": "b",
                  "type": "tuple"
                }
              ],
              "internalType": "struct Zp_2",
              "name": "x",
              "type": "tuple"
            },
            {
              "components": [
                {
                  "components": [
                    {
                      "components": [
                        {
                          "internalType": "bytes",
                          "name": "val",
                          "type": "bytes"
                        },
                        {
                          "internalType": "bool",
                          "name": "neg",
                          "type": "bool"
                        },
                        {
                          "internalType": "uint256",
                          "name": "bitlen",
                          "type": "uint256"
                        }
                      ],
                      "internalType": "struct BigNumber",
                      "name": "value",
                      "type": "tuple"
                    }
                  ],
                  "internalType": "struct Zp",
                  "name": "a",
                  "type": "tuple"
                },
                {
                  "components": [
                    {
                      "components": [
                        {
                          "internalType": "bytes",
                          "name": "val",
                          "type": "bytes"
                        },
                        {
                          "internalType": "bool",
                          "name": "neg",
                          "type": "bool"
                        },
                        {
                          "internalType": "uint256",
                          "name": "bitlen",
                          "type": "uint256"
                        }
                      ],
                      "internalType": "struct BigNumber",
                      "name": "value",
                      "type": "tuple"
                    }
                  ],
                  "internalType": "struct Zp",
                  "name": "b",
                  "type": "tuple"
                }
              ],
              "internalType": "struct Zp_2",
              "name": "y",
              "type": "tuple"
            }
          ],
          "internalType": "struct Point_Zp_2",
          "name": "other",
          "type": "tuple"
        }
      ],
      "name": "add",
      "outputs": [
        {
          "components": [
            {
              "internalType": "enum PointType",
              "name": "pointType",
              "type": "uint8"
            },
            {
              "components": [
                {
                  "components": [
                    {
                      "components": [
                        {
                          "internalType": "bytes",
                          "name": "val",
                          "type": "bytes"
                        },
                        {
                          "internalType": "bool",
                          "name": "neg",
                          "type": "bool"
                        },
                        {
                          "internalType": "uint256",
                          "name": "bitlen",
                          "type": "uint256"
                        }
                      ],
                      "internalType": "struct BigNumber",
                      "name": "value",
                      "type": "tuple"
                    }
                  ],
                  "internalType": "struct Zp",
                  "name": "a",
                  "type": "tuple"
                },
                {
                  "components": [
                    {
                      "components": [
                        {
                          "internalType": "bytes",
                          "name": "val",
                          "type": "bytes"
                        },
                        {
                          "internalType": "bool",
                          "name": "neg",
                          "type": "bool"
                        },
                        {
                          "internalType": "uint256",
                          "name": "bitlen",
                          "type": "uint256"
                        }
                      ],
                      "internalType": "struct BigNumber",
                      "name": "value",
                      "type": "tuple"
                    }
                  ],
                  "internalType": "struct Zp",
                  "name": "b",
                  "type": "tuple"
                }
              ],
              "internalType": "struct Zp_2",
              "name": "x",
              "type": "tuple"
            },
            {
              "components": [
                {
                  "components": [
                    {
                      "components": [
                        {
                          "internalType": "bytes",
                          "name": "val",
                          "type": "bytes"
                        },
                        {
                          "internalType": "bool",
                          "name": "neg",
                          "type": "bool"
                        },
                        {
                          "internalType": "uint256",
                          "name": "bitlen",
                          "type": "uint256"
                        }
                      ],
                      "internalType": "struct BigNumber",
                      "name": "value",
                      "type": "tuple"
                    }
                  ],
                  "internalType": "struct Zp",
                  "name": "a",
                  "type": "tuple"
                },
                {
                  "components": [
                    {
                      "components": [
                        {
                          "internalType": "bytes",
                          "name": "val",
                          "type": "bytes"
                        },
                        {
                          "internalType": "bool",
                          "name": "neg",
                          "type": "bool"
                        },
                        {
                          "internalType": "uint256",
                          "name": "bitlen",
                          "type": "uint256"
                        }
                      ],
                      "internalType": "struct BigNumber",
                      "name": "value",
                      "type": "tuple"
                    }
                  ],
                  "internalType": "struct Zp",
                  "name": "b",
                  "type": "tuple"
                }
              ],
              "internalType": "struct Zp_2",
              "name": "y",
              "type": "tuple"
            }
          ],
          "internalType": "struct Point_Zp_2",
          "name": "",
          "type": "tuple"
        }
      ],
      "stateMutability": "view",
      "type": "function"
    },
    {
      "inputs": [
        {
          "components": [
            {
              "internalType": "enum PointType",
              "name": "pointType",
              "type": "uint8"
            },
            {
              "components": [
                {
                  "components": [
                    {
                      "components": [
                        {
                          "internalType": "bytes",
                          "name": "val",
                          "type": "bytes"
                        },
                        {
                          "internalType": "bool",
                          "name": "neg",
                          "type": "bool"
                        },
                        {
                          "internalType": "uint256",
                          "name": "bitlen",
                          "type": "uint256"
                        }
                      ],
                      "internalType": "struct BigNumber",
                      "name": "value",
                      "type": "tuple"
                    }
                  ],
                  "internalType": "struct Zp",
                  "name": "a",
                  "type": "tuple"
                },
                {
                  "components": [
                    {
                      "components": [
                        {
                          "internalType": "bytes",
                          "name": "val",
                          "type": "bytes"
                        },
                        {
                          "internalType": "bool",
                          "name": "neg",
                          "type": "bool"
                        },
                        {
                          "internalType": "uint256",
                          "name": "bitlen",
                          "type": "uint256"
                        }
                      ],
                      "internalType": "struct BigNumber",
                      "name": "value",
                      "type": "tuple"
                    }
                  ],
                  "internalType": "struct Zp",
                  "name": "b",
                  "type": "tuple"
                }
              ],
              "internalType": "struct Zp_2",
              "name": "x",
              "type": "tuple"
            },
            {
              "components": [
                {
                  "components": [
                    {
                      "components": [
                        {
                          "internalType": "bytes",
                          "name": "val",
                          "type": "bytes"
                        },
                        {
                          "internalType": "bool",
                          "name": "neg",
                          "type": "bool"
                        },
                        {
                          "internalType": "uint256",
                          "name": "bitlen",
                          "type": "uint256"
                        }
                      ],
                      "internalType": "struct BigNumber",
                      "name": "value",
                      "type": "tuple"
                    }
                  ],
                  "internalType": "struct Zp",
                  "name": "a",
                  "type": "tuple"
                },
                {
                  "components": [
                    {
                      "components": [
                        {
                          "internalType": "bytes",
                          "name": "val",
                          "type": "bytes"
                        },
                        {
                          "internalType": "bool",
                          "name": "neg",
                          "type": "bool"
                        },
                        {
                          "internalType": "uint256",
                          "name": "bitlen",
                          "type": "uint256"
                        }
                      ],
                      "internalType": "struct BigNumber",
                      "name": "value",
                      "type": "tuple"
                    }
                  ],
                  "internalType": "struct Zp",
                  "name": "b",
                  "type": "tuple"
                }
              ],
              "internalType": "struct Zp_2",
              "name": "y",
              "type": "tuple"
            }
          ],
          "internalType": "struct Point_Zp_2",
          "name": "a",
          "type": "tuple"
        },
        {
          "components": [
            {
              "internalType": "enum PointType",
              "name": "pointType",
              "type": "uint8"
            },
            {
              "components": [
                {
                  "components": [
                    {
                      "components": [
                        {
                          "internalType": "bytes",
                          "name": "val",
                          "type": "bytes"
                        },
                        {
                          "internalType": "bool",
                          "name": "neg",
                          "type": "bool"
                        },
                        {
                          "internalType": "uint256",
                          "name": "bitlen",
                          "type": "uint256"
                        }
                      ],
                      "internalType": "struct BigNumber",
                      "name": "value",
                      "type": "tuple"
                    }
                  ],
                  "internalType": "struct Zp",
                  "name": "a",
                  "type": "tuple"
                },
                {
                  "components": [
                    {
                      "components": [
                        {
                          "internalType": "bytes",
                          "name": "val",
                          "type": "bytes"
                        },
                        {
                          "internalType": "bool",
                          "name": "neg",
                          "type": "bool"
                        },
                        {
                          "internalType": "uint256",
                          "name": "bitlen",
                          "type": "uint256"
                        }
                      ],
                      "internalType": "struct BigNumber",
                      "name": "value",
                      "type": "tuple"
                    }
                  ],
                  "internalType": "struct Zp",
                  "name": "b",
                  "type": "tuple"
                }
              ],
              "internalType": "struct Zp_2",
              "name": "x",
              "type": "tuple"
            },
            {
              "components": [
                {
                  "components": [
                    {
                      "components": [
                        {
                          "internalType": "bytes",
                          "name": "val",
                          "type": "bytes"
                        },
                        {
                          "internalType": "bool",
                          "name": "neg",
                          "type": "bool"
                        },
                        {
                          "internalType": "uint256",
                          "name": "bitlen",
                          "type": "uint256"
                        }
                      ],
                      "internalType": "struct BigNumber",
                      "name": "value",
                      "type": "tuple"
                    }
                  ],
                  "internalType": "struct Zp",
                  "name": "a",
                  "type": "tuple"
                },
                {
                  "components": [
                    {
                      "components": [
                        {
                          "internalType": "bytes",
                          "name": "val",
                          "type": "bytes"
                        },
                        {
                          "internalType": "bool",
                          "name": "neg",
                          "type": "bool"
                        },
                        {
                          "internalType": "uint256",
                          "name": "bitlen",
                          "type": "uint256"
                        }
                      ],
                      "internalType": "struct BigNumber",
                      "name": "value",
                      "type": "tuple"
                    }
                  ],
                  "internalType": "struct Zp",
                  "name": "b",
                  "type": "tuple"
                }
              ],
              "internalType": "struct Zp_2",
              "name": "y",
              "type": "tuple"
            }
          ],
          "internalType": "struct Point_Zp_2",
          "name": "b",
          "type": "tuple"
        }
      ],
      "name": "compare",
      "outputs": [
        {
          "internalType": "bool",
          "name": "",
          "type": "bool"
        }
      ],
      "stateMutability": "view",
      "type": "function"
    },
    {
      "inputs": [
        {
          "components": [
            {
              "internalType": "enum PointType",
              "name": "pointType",
              "type": "uint8"
            },
            {
              "components": [
                {
                  "components": [
                    {
                      "components": [
                        {
                          "internalType": "bytes",
                          "name": "val",
                          "type": "bytes"
                        },
                        {
                          "internalType": "bool",
                          "name": "neg",
                          "type": "bool"
                        },
                        {
                          "internalType": "uint256",
                          "name": "bitlen",
                          "type": "uint256"
                        }
                      ],
                      "internalType": "struct BigNumber",
                      "name": "value",
                      "type": "tuple"
                    }
                  ],
                  "internalType": "struct Zp",
                  "name": "a",
                  "type": "tuple"
                },
                {
                  "components": [
                    {
                      "components": [
                        {
                          "internalType": "bytes",
                          "name": "val",
                          "type": "bytes"
                        },
                        {
                          "internalType": "bool",
                          "name": "neg",
                          "type": "bool"
                        },
                        {
                          "internalType": "uint256",
                          "name": "bitlen",
                          "type": "uint256"
                        }
                      ],
                      "internalType": "struct BigNumber",
                      "name": "value",
                      "type": "tuple"
                    }
                  ],
                  "internalType": "struct Zp",
                  "name": "b",
                  "type": "tuple"
                }
              ],
              "internalType": "struct Zp_2",
              "name": "x",
              "type": "tuple"
            },
            {
              "components": [
                {
                  "components": [
                    {
                      "components": [
                        {
                          "internalType": "bytes",
                          "name": "val",
                          "type": "bytes"
                        },
                        {
                          "internalType": "bool",
                          "name": "neg",
                          "type": "bool"
                        },
                        {
                          "internalType": "uint256",
                          "name": "bitlen",
                          "type": "uint256"
                        }
                      ],
                      "internalType": "struct BigNumber",
                      "name": "value",
                      "type": "tuple"
                    }
                  ],
                  "internalType": "struct Zp",
                  "name": "a",
                  "type": "tuple"
                },
                {
                  "components": [
                    {
                      "components": [
                        {
                          "internalType": "bytes",
                          "name": "val",
                          "type": "bytes"
                        },
                        {
                          "internalType": "bool",
                          "name": "neg",
                          "type": "bool"
                        },
                        {
                          "internalType": "uint256",
                          "name": "bitlen",
                          "type": "uint256"
                        }
                      ],
                      "internalType": "struct BigNumber",
                      "name": "value",
                      "type": "tuple"
                    }
                  ],
                  "internalType": "struct Zp",
                  "name": "b",
                  "type": "tuple"
                }
              ],
              "internalType": "struct Zp_2",
              "name": "y",
              "type": "tuple"
            }
          ],
          "internalType": "struct Point_Zp_2",
          "name": "self",
          "type": "tuple"
        }
      ],
      "name": "double",
      "outputs": [
        {
          "components": [
            {
              "internalType": "enum PointType",
              "name": "pointType",
              "type": "uint8"
            },
            {
              "components": [
                {
                  "components": [
                    {
                      "components": [
                        {
                          "internalType": "bytes",
                          "name": "val",
                          "type": "bytes"
                        },
                        {
                          "internalType": "bool",
                          "name": "neg",
                          "type": "bool"
                        },
                        {
                          "internalType": "uint256",
                          "name": "bitlen",
                          "type": "uint256"
                        }
                      ],
                      "internalType": "struct BigNumber",
                      "name": "value",
                      "type": "tuple"
                    }
                  ],
                  "internalType": "struct Zp",
                  "name": "a",
                  "type": "tuple"
                },
                {
                  "components": [
                    {
                      "components": [
                        {
                          "internalType": "bytes",
                          "name": "val",
                          "type": "bytes"
                        },
                        {
                          "internalType": "bool",
                          "name": "neg",
                          "type": "bool"
                        },
                        {
                          "internalType": "uint256",
                          "name": "bitlen",
                          "type": "uint256"
                        }
                      ],
                      "internalType": "struct BigNumber",
                      "name": "value",
                      "type": "tuple"
                    }
                  ],
                  "internalType": "struct Zp",
                  "name": "b",
                  "type": "tuple"
                }
              ],
              "internalType": "struct Zp_2",
              "name": "x",
              "type": "tuple"
            },
            {
              "components": [
                {
                  "components": [
                    {
                      "components": [
                        {
                          "internalType": "bytes",
                          "name": "val",
                          "type": "bytes"
                        },
                        {
                          "internalType": "bool",
                          "name": "neg",
                          "type": "bool"
                        },
                        {
                          "internalType": "uint256",
                          "name": "bitlen",
                          "type": "uint256"
                        }
                      ],
                      "internalType": "struct BigNumber",
                      "name": "value",
                      "type": "tuple"
                    }
                  ],
                  "internalType": "struct Zp",
                  "name": "a",
                  "type": "tuple"
                },
                {
                  "components": [
                    {
                      "components": [
                        {
                          "internalType": "bytes",
                          "name": "val",
                          "type": "bytes"
                        },
                        {
                          "internalType": "bool",
                          "name": "neg",
                          "type": "bool"
                        },
                        {
                          "internalType": "uint256",
                          "name": "bitlen",
                          "type": "uint256"
                        }
                      ],
                      "internalType": "struct BigNumber",
                      "name": "value",
                      "type": "tuple"
                    }
                  ],
                  "internalType": "struct Zp",
                  "name": "b",
                  "type": "tuple"
                }
              ],
              "internalType": "struct Zp_2",
              "name": "y",
              "type": "tuple"
            }
          ],
          "internalType": "struct Point_Zp_2",
          "name": "",
          "type": "tuple"
        }
      ],
      "stateMutability": "view",
      "type": "function"
    },
    {
      "inputs": [
        {
          "components": [
            {
              "internalType": "bytes",
              "name": "val",
              "type": "bytes"
            },
            {
              "internalType": "bool",
              "name": "neg",
              "type": "bool"
            },
            {
              "internalType": "uint256",
              "name": "bitlen",
              "type": "uint256"
            }
          ],
          "internalType": "struct BigNumber",
          "name": "k",
          "type": "tuple"
        },
        {
          "components": [
            {
              "internalType": "enum PointType",
              "name": "pointType",
              "type": "uint8"
            },
            {
              "components": [
                {
                  "components": [
                    {
                      "components": [
                        {
                          "internalType": "bytes",
                          "name": "val",
                          "type": "bytes"
                        },
                        {
                          "internalType": "bool",
                          "name": "neg",
                          "type": "bool"
                        },
                        {
                          "internalType": "uint256",
                          "name": "bitlen",
                          "type": "uint256"
                        }
                      ],
                      "internalType": "struct BigNumber",
                      "name": "value",
                      "type": "tuple"
                    }
                  ],
                  "internalType": "struct Zp",
                  "name": "a",
                  "type": "tuple"
                },
                {
                  "components": [
                    {
                      "components": [
                        {
                          "internalType": "bytes",
                          "name": "val",
                          "type": "bytes"
                        },
                        {
                          "internalType": "bool",
                          "name": "neg",
                          "type": "bool"
                        },
                        {
                          "internalType": "uint256",
                          "name": "bitlen",
                          "type": "uint256"
                        }
                      ],
                      "internalType": "struct BigNumber",
                      "name": "value",
                      "type": "tuple"
                    }
                  ],
                  "internalType": "struct Zp",
                  "name": "b",
                  "type": "tuple"
                }
              ],
              "internalType": "struct Zp_2",
              "name": "x",
              "type": "tuple"
            },
            {
              "components": [
                {
                  "components": [
                    {
                      "components": [
                        {
                          "internalType": "bytes",
                          "name": "val",
                          "type": "bytes"
                        },
                        {
                          "internalType": "bool",
                          "name": "neg",
                          "type": "bool"
                        },
                        {
                          "internalType": "uint256",
                          "name": "bitlen",
                          "type": "uint256"
                        }
                      ],
                      "internalType": "struct BigNumber",
                      "name": "value",
                      "type": "tuple"
                    }
                  ],
                  "internalType": "struct Zp",
                  "name": "a",
                  "type": "tuple"
                },
                {
                  "components": [
                    {
                      "components": [
                        {
                          "internalType": "bytes",
                          "name": "val",
                          "type": "bytes"
                        },
                        {
                          "internalType": "bool",
                          "name": "neg",
                          "type": "bool"
                        },
                        {
                          "internalType": "uint256",
                          "name": "bitlen",
                          "type": "uint256"
                        }
                      ],
                      "internalType": "struct BigNumber",
                      "name": "value",
                      "type": "tuple"
                    }
                  ],
                  "internalType": "struct Zp",
                  "name": "b",
                  "type": "tuple"
                }
              ],
              "internalType": "struct Zp_2",
              "name": "y",
              "type": "tuple"
            }
          ],
          "internalType": "struct Point_Zp_2",
          "name": "self",
          "type": "tuple"
        }
      ],
      "name": "multiply",
      "outputs": [
        {
          "components": [
            {
              "internalType": "enum PointType",
              "name": "pointType",
              "type": "uint8"
            },
            {
              "components": [
                {
                  "components": [
                    {
                      "components": [
                        {
                          "internalType": "bytes",
                          "name": "val",
                          "type": "bytes"
                        },
                        {
                          "internalType": "bool",
                          "name": "neg",
                          "type": "bool"
                        },
                        {
                          "internalType": "uint256",
                          "name": "bitlen",
                          "type": "uint256"
                        }
                      ],
                      "internalType": "struct BigNumber",
                      "name": "value",
                      "type": "tuple"
                    }
                  ],
                  "internalType": "struct Zp",
                  "name": "a",
                  "type": "tuple"
                },
                {
                  "components": [
                    {
                      "components": [
                        {
                          "internalType": "bytes",
                          "name": "val",
                          "type": "bytes"
                        },
                        {
                          "internalType": "bool",
                          "name": "neg",
                          "type": "bool"
                        },
                        {
                          "internalType": "uint256",
                          "name": "bitlen",
                          "type": "uint256"
                        }
                      ],
                      "internalType": "struct BigNumber",
                      "name": "value",
                      "type": "tuple"
                    }
                  ],
                  "internalType": "struct Zp",
                  "name": "b",
                  "type": "tuple"
                }
              ],
              "internalType": "struct Zp_2",
              "name": "x",
              "type": "tuple"
            },
            {
              "components": [
                {
                  "components": [
                    {
                      "components": [
                        {
                          "internalType": "bytes",
                          "name": "val",
                          "type": "bytes"
                        },
                        {
                          "internalType": "bool",
                          "name": "neg",
                          "type": "bool"
                        },
                        {
                          "internalType": "uint256",
                          "name": "bitlen",
                          "type": "uint256"
                        }
                      ],
                      "internalType": "struct BigNumber",
                      "name": "value",
                      "type": "tuple"
                    }
                  ],
                  "internalType": "struct Zp",
                  "name": "a",
                  "type": "tuple"
                },
                {
                  "components": [
                    {
                      "components": [
                        {
                          "internalType": "bytes",
                          "name": "val",
                          "type": "bytes"
                        },
                        {
                          "internalType": "bool",
                          "name": "neg",
                          "type": "bool"
                        },
                        {
                          "internalType": "uint256",
                          "name": "bitlen",
                          "type": "uint256"
                        }
                      ],
                      "internalType": "struct BigNumber",
                      "name": "value",
                      "type": "tuple"
                    }
                  ],
                  "internalType": "struct Zp",
                  "name": "b",
                  "type": "tuple"
                }
              ],
              "internalType": "struct Zp_2",
              "name": "y",
              "type": "tuple"
            }
          ],
          "internalType": "struct Point_Zp_2",
          "name": "",
          "type": "tuple"
        }
      ],
      "stateMutability": "view",
      "type": "function"
    },
    {
      "inputs": [
        {
          "components": [
            {
              "internalType": "enum PointType",
              "name": "pointType",
              "type": "uint8"
            },
            {
              "components": [
                {
                  "components": [
                    {
                      "components": [
                        {
                          "internalType": "bytes",
                          "name": "val",
                          "type": "bytes"
                        },
                        {
                          "internalType": "bool",
                          "name": "neg",
                          "type": "bool"
                        },
                        {
                          "internalType": "uint256",
                          "name": "bitlen",
                          "type": "uint256"
                        }
                      ],
                      "internalType": "struct BigNumber",
                      "name": "value",
                      "type": "tuple"
                    }
                  ],
                  "internalType": "struct Zp",
                  "name": "a",
                  "type": "tuple"
                },
                {
                  "components": [
                    {
                      "components": [
                        {
                          "internalType": "bytes",
                          "name": "val",
                          "type": "bytes"
                        },
                        {
                          "internalType": "bool",
                          "name": "neg",
                          "type": "bool"
                        },
                        {
                          "internalType": "uint256",
                          "name": "bitlen",
                          "type": "uint256"
                        }
                      ],
                      "internalType": "struct BigNumber",
                      "name": "value",
                      "type": "tuple"
                    }
                  ],
                  "internalType": "struct Zp",
                  "name": "b",
                  "type": "tuple"
                }
              ],
              "internalType": "struct Zp_2",
              "name": "x",
              "type": "tuple"
            },
            {
              "components": [
                {
                  "components": [
                    {
                      "components": [
                        {
                          "internalType": "bytes",
                          "name": "val",
                          "type": "bytes"
                        },
                        {
                          "internalType": "bool",
                          "name": "neg",
                          "type": "bool"
                        },
                        {
                          "internalType": "uint256",
                          "name": "bitlen",
                          "type": "uint256"
                        }
                      ],
                      "internalType": "struct BigNumber",
                      "name": "value",
                      "type": "tuple"
                    }
                  ],
                  "internalType": "struct Zp",
                  "name": "a",
                  "type": "tuple"
                },
                {
                  "components": [
                    {
                      "components": [
                        {
                          "internalType": "bytes",
                          "name": "val",
                          "type": "bytes"
                        },
                        {
                          "internalType": "bool",
                          "name": "neg",
                          "type": "bool"
                        },
                        {
                          "internalType": "uint256",
                          "name": "bitlen",
                          "type": "uint256"
                        }
                      ],
                      "internalType": "struct BigNumber",
                      "name": "value",
                      "type": "tuple"
                    }
                  ],
                  "internalType": "struct Zp",
                  "name": "b",
                  "type": "tuple"
                }
              ],
              "internalType": "struct Zp_2",
              "name": "y",
              "type": "tuple"
            }
          ],
          "internalType": "struct Point_Zp_2",
          "name": "self",
          "type": "tuple"
        }
      ],
      "name": "negate",
      "outputs": [
        {
          "components": [
            {
              "internalType": "enum PointType",
              "name": "pointType",
              "type": "uint8"
            },
            {
              "components": [
                {
                  "components": [
                    {
                      "components": [
                        {
                          "internalType": "bytes",
                          "name": "val",
                          "type": "bytes"
                        },
                        {
                          "internalType": "bool",
                          "name": "neg",
                          "type": "bool"
                        },
                        {
                          "internalType": "uint256",
                          "name": "bitlen",
                          "type": "uint256"
                        }
                      ],
                      "internalType": "struct BigNumber",
                      "name": "value",
                      "type": "tuple"
                    }
                  ],
                  "internalType": "struct Zp",
                  "name": "a",
                  "type": "tuple"
                },
                {
                  "components": [
                    {
                      "components": [
                        {
                          "internalType": "bytes",
                          "name": "val",
                          "type": "bytes"
                        },
                        {
                          "internalType": "bool",
                          "name": "neg",
                          "type": "bool"
                        },
                        {
                          "internalType": "uint256",
                          "name": "bitlen",
                          "type": "uint256"
                        }
                      ],
                      "internalType": "struct BigNumber",
                      "name": "value",
                      "type": "tuple"
                    }
                  ],
                  "internalType": "struct Zp",
                  "name": "b",
                  "type": "tuple"
                }
              ],
              "internalType": "struct Zp_2",
              "name": "x",
              "type": "tuple"
            },
            {
              "components": [
                {
                  "components": [
                    {
                      "components": [
                        {
                          "internalType": "bytes",
                          "name": "val",
                          "type": "bytes"
                        },
                        {
                          "internalType": "bool",
                          "name": "neg",
                          "type": "bool"
                        },
                        {
                          "internalType": "uint256",
                          "name": "bitlen",
                          "type": "uint256"
                        }
                      ],
                      "internalType": "struct BigNumber",
                      "name": "value",
                      "type": "tuple"
                    }
                  ],
                  "internalType": "struct Zp",
                  "name": "a",
                  "type": "tuple"
                },
                {
                  "components": [
                    {
                      "components": [
                        {
                          "internalType": "bytes",
                          "name": "val",
                          "type": "bytes"
                        },
                        {
                          "internalType": "bool",
                          "name": "neg",
                          "type": "bool"
                        },
                        {
                          "internalType": "uint256",
                          "name": "bitlen",
                          "type": "uint256"
                        }
                      ],
                      "internalType": "struct BigNumber",
                      "name": "value",
                      "type": "tuple"
                    }
                  ],
                  "internalType": "struct Zp",
                  "name": "b",
                  "type": "tuple"
                }
              ],
              "internalType": "struct Zp_2",
              "name": "y",
              "type": "tuple"
            }
          ],
          "internalType": "struct Point_Zp_2",
          "name": "",
          "type": "tuple"
        }
      ],
      "stateMutability": "view",
      "type": "function"
    },
    {
      "inputs": [
        {
          "internalType": "enum PointType",
          "name": "pointType",
          "type": "uint8"
        },
        {
          "components": [
            {
              "components": [
                {
                  "components": [
                    {
                      "internalType": "bytes",
                      "name": "val",
                      "type": "bytes"
                    },
                    {
                      "internalType": "bool",
                      "name": "neg",
                      "type": "bool"
                    },
                    {
                      "internalType": "uint256",
                      "name": "bitlen",
                      "type": "uint256"
                    }
                  ],
                  "internalType": "struct BigNumber",
                  "name": "value",
                  "type": "tuple"
                }
              ],
              "internalType": "struct Zp",
              "name": "a",
              "type": "tuple"
            },
            {
              "components": [
                {
                  "components": [
                    {
                      "internalType": "bytes",
                      "name": "val",
                      "type": "bytes"
                    },
                    {
                      "internalType": "bool",
                      "name": "neg",
                      "type": "bool"
                    },
                    {
                      "internalType": "uint256",
                      "name": "bitlen",
                      "type": "uint256"
                    }
                  ],
                  "internalType": "struct BigNumber",
                  "name": "value",
                  "type": "tuple"
                }
              ],
              "internalType": "struct Zp",
              "name": "b",
              "type": "tuple"
            }
          ],
          "internalType": "struct Zp_2",
          "name": "x",
          "type": "tuple"
        },
        {
          "components": [
            {
              "components": [
                {
                  "components": [
                    {
                      "internalType": "bytes",
                      "name": "val",
                      "type": "bytes"
                    },
                    {
                      "internalType": "bool",
                      "name": "neg",
                      "type": "bool"
                    },
                    {
                      "internalType": "uint256",
                      "name": "bitlen",
                      "type": "uint256"
                    }
                  ],
                  "internalType": "struct BigNumber",
                  "name": "value",
                  "type": "tuple"
                }
              ],
              "internalType": "struct Zp",
              "name": "a",
              "type": "tuple"
            },
            {
              "components": [
                {
                  "components": [
                    {
                      "internalType": "bytes",
                      "name": "val",
                      "type": "bytes"
                    },
                    {
                      "internalType": "bool",
                      "name": "neg",
                      "type": "bool"
                    },
                    {
                      "internalType": "uint256",
                      "name": "bitlen",
                      "type": "uint256"
                    }
                  ],
                  "internalType": "struct BigNumber",
                  "name": "value",
                  "type": "tuple"
                }
              ],
              "internalType": "struct Zp",
              "name": "b",
              "type": "tuple"
            }
          ],
          "internalType": "struct Zp_2",
          "name": "y",
          "type": "tuple"
        }
      ],
      "name": "newPoint",
      "outputs": [
        {
          "components": [
            {
              "internalType": "enum PointType",
              "name": "pointType",
              "type": "uint8"
            },
            {
              "components": [
                {
                  "components": [
                    {
                      "components": [
                        {
                          "internalType": "bytes",
                          "name": "val",
                          "type": "bytes"
                        },
                        {
                          "internalType": "bool",
                          "name": "neg",
                          "type": "bool"
                        },
                        {
                          "internalType": "uint256",
                          "name": "bitlen",
                          "type": "uint256"
                        }
                      ],
                      "internalType": "struct BigNumber",
                      "name": "value",
                      "type": "tuple"
                    }
                  ],
                  "internalType": "struct Zp",
                  "name": "a",
                  "type": "tuple"
                },
                {
                  "components": [
                    {
                      "components": [
                        {
                          "internalType": "bytes",
                          "name": "val",
                          "type": "bytes"
                        },
                        {
                          "internalType": "bool",
                          "name": "neg",
                          "type": "bool"
                        },
                        {
                          "internalType": "uint256",
                          "name": "bitlen",
                          "type": "uint256"
                        }
                      ],
                      "internalType": "struct BigNumber",
                      "name": "value",
                      "type": "tuple"
                    }
                  ],
                  "internalType": "struct Zp",
                  "name": "b",
                  "type": "tuple"
                }
              ],
              "internalType": "struct Zp_2",
              "name": "x",
              "type": "tuple"
            },
            {
              "components": [
                {
                  "components": [
                    {
                      "components": [
                        {
                          "internalType": "bytes",
                          "name": "val",
                          "type": "bytes"
                        },
                        {
                          "internalType": "bool",
                          "name": "neg",
                          "type": "bool"
                        },
                        {
                          "internalType": "uint256",
                          "name": "bitlen",
                          "type": "uint256"
                        }
                      ],
                      "internalType": "struct BigNumber",
                      "name": "value",
                      "type": "tuple"
                    }
                  ],
                  "internalType": "struct Zp",
                  "name": "a",
                  "type": "tuple"
                },
                {
                  "components": [
                    {
                      "components": [
                        {
                          "internalType": "bytes",
                          "name": "val",
                          "type": "bytes"
                        },
                        {
                          "internalType": "bool",
                          "name": "neg",
                          "type": "bool"
                        },
                        {
                          "internalType": "uint256",
                          "name": "bitlen",
                          "type": "uint256"
                        }
                      ],
                      "internalType": "struct BigNumber",
                      "name": "value",
                      "type": "tuple"
                    }
                  ],
                  "internalType": "struct Zp",
                  "name": "b",
                  "type": "tuple"
                }
              ],
              "internalType": "struct Zp_2",
              "name": "y",
              "type": "tuple"
            }
          ],
          "internalType": "struct Point_Zp_2",
          "name": "",
          "type": "tuple"
        }
      ],
      "stateMutability": "pure",
      "type": "function"
    }
  ],
  "bytecode": "0x608060405234801561001057600080fd5b50604051613107380380613107833981810160405281019061003291906100ed565b806000806101000a81548173ffffffffffffffffffffffffffffffffffffffff021916908373ffffffffffffffffffffffffffffffffffffffff1602179055505061011a565b600080fd5b600073ffffffffffffffffffffffffffffffffffffffff82169050919050565b60006100a88261007d565b9050919050565b60006100ba8261009d565b9050919050565b6100ca816100af565b81146100d557600080fd5b50565b6000815190506100e7816100c1565b92915050565b60006020828403121561010357610102610078565b5b6000610111848285016100d8565b91505092915050565b612fde806101296000396000f3fe608060405234801561001057600080fd5b50600436106100625760003560e01c80632106685b1461006757806324dca0c71461009757806355e359c8146100c75780639c3e8627146100f75780639ee46fb314610127578063bedacbae14610157575b600080fd5b610081600480360381019061007c9190612536565b610187565b60405161008e91906127a8565b60405180910390f35b6100b160048036038101906100ac91906127ca565b610347565b6040516100be91906127a8565b60405180910390f35b6100e160048036038101906100dc9190612842565b610e39565b6040516100ee91906127a8565b60405180910390f35b610111600480360381019061010c91906127ca565b6110ad565b60405161011e91906128c9565b60405180910390f35b610141600480360381019061013c9190612536565b6112e2565b60405161014e91906127a8565b60405180910390f35b610171600480360381019061016c91906128e4565b611da4565b60405161017e91906127a8565b60405180910390f35b61018f6120a2565b6001808111156101a2576101a161257f565b5b826000015160018111156101b9576101b861257f565b5b036101f9576040517f08c379a00000000000000000000000000000000000000000000000000000000081526004016101f0906129cc565b60405180910390fd5b6103406000836020015160008054906101000a900473ffffffffffffffffffffffffffffffffffffffff1673ffffffffffffffffffffffffffffffffffffffff16635f6910d460008054906101000a900473ffffffffffffffffffffffffffffffffffffffff1673ffffffffffffffffffffffffffffffffffffffff1663bc1b392d6040518163ffffffff1660e01b8152600401600060405180830381865afa1580156102aa573d6000803e3d6000fd5b505050506040513d6000823e3d601f19601f820116820180604052508101906102d39190612be6565b87604001516040518363ffffffff1660e01b81526004016102f5929190612c73565b600060405180830381865afa158015610312573d6000803e3d6000fd5b505050506040513d6000823e3d601f19601f8201168201806040525081019061033b9190612be6565b611da4565b9050919050565b61034f6120a2565b6001808111156103625761036161257f565b5b836000015160018111156103795761037861257f565b5b0361038657819050610e33565b6001808111156103995761039861257f565b5b826000015160018111156103b0576103af61257f565b5b036103bd57829050610e33565b60008054906101000a900473ffffffffffffffffffffffffffffffffffffffff1673ffffffffffffffffffffffffffffffffffffffff1663ab80cf76846020015184602001516040518363ffffffff1660e01b8152600401610420929190612c73565b602060405180830381865afa15801561043d573d6000803e3d6000fd5b505050506040513d601f19601f820116820180604052508101906104619190612caa565b801561050d575060008054906101000a900473ffffffffffffffffffffffffffffffffffffffff1673ffffffffffffffffffffffffffffffffffffffff1663ab80cf76846040015184604001516040518363ffffffff1660e01b81526004016104cb929190612c73565b602060405180830381865afa1580156104e8573d6000803e3d6000fd5b505050506040513d601f19601f8201168201806040525081019061050c9190612caa565b5b156105225761051b836112e2565b9050610e33565b60008054906101000a900473ffffffffffffffffffffffffffffffffffffffff1673ffffffffffffffffffffffffffffffffffffffff1663ab80cf76846020015184602001516040518363ffffffff1660e01b8152600401610585929190612c73565b602060405180830381865afa1580156105a2573d6000803e3d6000fd5b505050506040513d601f19601f820116820180604052508101906105c69190612caa565b8015610673575060008054906101000a900473ffffffffffffffffffffffffffffffffffffffff1673ffffffffffffffffffffffffffffffffffffffff1663ab80cf76846040015184604001516040518363ffffffff1660e01b8152600401610630929190612c73565b602060405180830381865afa15801561064d573d6000803e3d6000fd5b505050506040513d601f19601f820116820180604052508101906106719190612caa565b155b156107b1576107aa600160008054906101000a900473ffffffffffffffffffffffffffffffffffffffff1673ffffffffffffffffffffffffffffffffffffffff1663bc1b392d6040518163ffffffff1660e01b8152600401600060405180830381865afa1580156106e8573d6000803e3d6000fd5b505050506040513d6000823e3d601f19601f820116820180604052508101906107119190612be6565b60008054906101000a900473ffffffffffffffffffffffffffffffffffffffff1673ffffffffffffffffffffffffffffffffffffffff1663bc1b392d6040518163ffffffff1660e01b8152600401600060405180830381865afa15801561077c573d6000803e3d6000fd5b505050506040513d6000823e3d601f19601f820116820180604052508101906107a59190612be6565b611da4565b9050610e33565b60008060009054906101000a900473ffffffffffffffffffffffffffffffffffffffff1673ffffffffffffffffffffffffffffffffffffffff166307a5ecaa60008054906101000a900473ffffffffffffffffffffffffffffffffffffffff1673ffffffffffffffffffffffffffffffffffffffff16635f6910d4866040015188604001516040518363ffffffff1660e01b8152600401610853929190612c73565b600060405180830381865afa158015610870573d6000803e3d6000fd5b505050506040513d6000823e3d601f19601f820116820180604052508101906108999190612be6565b60008054906101000a900473ffffffffffffffffffffffffffffffffffffffff1673ffffffffffffffffffffffffffffffffffffffff166364c044fe60008054906101000a900473ffffffffffffffffffffffffffffffffffffffff1673ffffffffffffffffffffffffffffffffffffffff16635f6910d489602001518b602001516040518363ffffffff1660e01b8152600401610938929190612c73565b600060405180830381865afa158015610955573d6000803e3d6000fd5b505050506040513d6000823e3d601f19601f8201168201806040525081019061097e9190612be6565b6040518263ffffffff1660e01b815260040161099a9190612cd7565b600060405180830381865afa1580156109b7573d6000803e3d6000fd5b505050506040513d6000823e3d601f19601f820116820180604052508101906109e09190612be6565b6040518363ffffffff1660e01b81526004016109fd929190612c73565b600060405180830381865afa158015610a1a573d6000803e3d6000fd5b505050506040513d6000823e3d601f19601f82011682018060405250810190610a439190612be6565b905060008060009054906101000a900473ffffffffffffffffffffffffffffffffffffffff1673ffffffffffffffffffffffffffffffffffffffff16635f6910d460008054906101000a900473ffffffffffffffffffffffffffffffffffffffff1673ffffffffffffffffffffffffffffffffffffffff16635f6910d460008054906101000a900473ffffffffffffffffffffffffffffffffffffffff1673ffffffffffffffffffffffffffffffffffffffff166307a5ecaa87886040518363ffffffff1660e01b8152600401610b1b929190612c73565b600060405180830381865afa158015610b38573d6000803e3d6000fd5b505050506040513d6000823e3d601f19601f82011682018060405250810190610b619190612be6565b89602001516040518363ffffffff1660e01b8152600401610b83929190612c73565b600060405180830381865afa158015610ba0573d6000803e3d6000fd5b505050506040513d6000823e3d601f19601f82011682018060405250810190610bc99190612be6565b86602001516040518363ffffffff1660e01b8152600401610beb929190612c73565b600060405180830381865afa158015610c08573d6000803e3d6000fd5b505050506040513d6000823e3d601f19601f82011682018060405250810190610c319190612be6565b905060008060009054906101000a900473ffffffffffffffffffffffffffffffffffffffff1673ffffffffffffffffffffffffffffffffffffffff16635f6910d460008054906101000a900473ffffffffffffffffffffffffffffffffffffffff1673ffffffffffffffffffffffffffffffffffffffff166307a5ecaa60008054906101000a900473ffffffffffffffffffffffffffffffffffffffff1673ffffffffffffffffffffffffffffffffffffffff16635f6910d48b60200151886040518363ffffffff1660e01b8152600401610d0d929190612c73565b600060405180830381865afa158015610d2a573d6000803e3d6000fd5b505050506040513d6000823e3d601f19601f82011682018060405250810190610d539190612be6565b876040518363ffffffff1660e01b8152600401610d71929190612c73565b600060405180830381865afa158015610d8e573d6000803e3d6000fd5b505050506040513d6000823e3d601f19601f82011682018060405250810190610db79190612be6565b88604001516040518363ffffffff1660e01b8152600401610dd9929190612c73565b600060405180830381865afa158015610df6573d6000803e3d6000fd5b505050506040513d6000823e3d601f19601f82011682018060405250810190610e1f9190612be6565b9050610e2d60008383611da4565b93505050505b92915050565b610e416120a2565b6000610f75600160008054906101000a900473ffffffffffffffffffffffffffffffffffffffff1673ffffffffffffffffffffffffffffffffffffffff1663bc1b392d6040518163ffffffff1660e01b8152600401600060405180830381865afa158015610eb3573d6000803e3d6000fd5b505050506040513d6000823e3d601f19601f82011682018060405250810190610edc9190612be6565b60008054906101000a900473ffffffffffffffffffffffffffffffffffffffff1673ffffffffffffffffffffffffffffffffffffffff1663bc1b392d6040518163ffffffff1660e01b8152600401600060405180830381865afa158015610f47573d6000803e3d6000fd5b505050506040513d6000823e3d601f19601f82011682018060405250810190610f709190612be6565b611da4565b90508360200151610f9357610f8b848483611de2565b9150506110a7565b6110a373__$7db5d2dbc3ae63372df6c39d501ad0f72a$__63b1d74ee98673__$7db5d2dbc3ae63372df6c39d501ad0f72a$__6340957f726001806040518363ffffffff1660e01b8152600401610feb929190612d4d565b600060405180830381865af4158015611008573d6000803e3d6000fd5b505050506040513d6000823e3d601f19601f820116820180604052508101906110319190612d76565b6040518363ffffffff1660e01b815260040161104e929190612e77565b600060405180830381865af415801561106b573d6000803e3d6000fd5b505050506040513d6000823e3d601f19601f820116820180604052508101906110949190612d76565b61109d85610187565b83611de2565b9150505b92915050565b60006001808111156110c2576110c161257f565b5b836000015160018111156110d9576110d861257f565b5b14801561110d57506001808111156110f4576110f361257f565b5b8260000151600181111561110b5761110a61257f565b5b145b1561111b57600190506112dc565b6000600181111561112f5761112e61257f565b5b836000015160018111156111465761114561257f565b5b14801561117b5750600060018111156111625761116161257f565b5b826000015160018111156111795761117861257f565b5b145b156112d75760008054906101000a900473ffffffffffffffffffffffffffffffffffffffff1673ffffffffffffffffffffffffffffffffffffffff1663ab80cf76846020015185604001516040518363ffffffff1660e01b81526004016111e3929190612c73565b602060405180830381865afa158015611200573d6000803e3d6000fd5b505050506040513d601f19601f820116820180604052508101906112249190612caa565b80156112d0575060008054906101000a900473ffffffffffffffffffffffffffffffffffffffff1673ffffffffffffffffffffffffffffffffffffffff1663ab80cf76846040015184604001516040518363ffffffff1660e01b815260040161128e929190612c73565b602060405180830381865afa1580156112ab573d6000803e3d6000fd5b505050506040513d601f19601f820116820180604052508101906112cf9190612caa565b5b90506112dc565b600090505b92915050565b6112ea6120a2565b60008054906101000a900473ffffffffffffffffffffffffffffffffffffffff1673ffffffffffffffffffffffffffffffffffffffff1663ab80cf76836040015160008054906101000a900473ffffffffffffffffffffffffffffffffffffffff1673ffffffffffffffffffffffffffffffffffffffff1663bc1b392d6040518163ffffffff1660e01b8152600401600060405180830381865afa158015611396573d6000803e3d6000fd5b505050506040513d6000823e3d601f19601f820116820180604052508101906113bf9190612be6565b6040518363ffffffff1660e01b81526004016113dc929190612c73565b602060405180830381865afa1580156113f9573d6000803e3d6000fd5b505050506040513d601f19601f8201168201806040525081019061141d9190612caa565b1561155b57611554600160008054906101000a900473ffffffffffffffffffffffffffffffffffffffff1673ffffffffffffffffffffffffffffffffffffffff1663bc1b392d6040518163ffffffff1660e01b8152600401600060405180830381865afa158015611492573d6000803e3d6000fd5b505050506040513d6000823e3d601f19601f820116820180604052508101906114bb9190612be6565b60008054906101000a900473ffffffffffffffffffffffffffffffffffffffff1673ffffffffffffffffffffffffffffffffffffffff1663bc1b392d6040518163ffffffff1660e01b8152600401600060405180830381865afa158015611526573d6000803e3d6000fd5b505050506040513d6000823e3d601f19601f8201168201806040525081019061154f9190612be6565b611da4565b9050611d9f565b60008060009054906101000a900473ffffffffffffffffffffffffffffffffffffffff1673ffffffffffffffffffffffffffffffffffffffff166307a5ecaa60008054906101000a900473ffffffffffffffffffffffffffffffffffffffff1673ffffffffffffffffffffffffffffffffffffffff166307a5ecaa60008054906101000a900473ffffffffffffffffffffffffffffffffffffffff1673ffffffffffffffffffffffffffffffffffffffff166345caa1176040518163ffffffff1660e01b8152600401600060405180830381865afa158015611641573d6000803e3d6000fd5b505050506040513d6000823e3d601f19601f8201168201806040525081019061166a9190612be6565b60008054906101000a900473ffffffffffffffffffffffffffffffffffffffff1673ffffffffffffffffffffffffffffffffffffffff166307a5ecaa89602001518a602001516040518363ffffffff1660e01b81526004016116cd929190612c73565b600060405180830381865afa1580156116ea573d6000803e3d6000fd5b505050506040513d6000823e3d601f19601f820116820180604052508101906117139190612be6565b6040518363ffffffff1660e01b8152600401611730929190612c73565b600060405180830381865afa15801561174d573d6000803e3d6000fd5b505050506040513d6000823e3d601f19601f820116820180604052508101906117769190612be6565b60008054906101000a900473ffffffffffffffffffffffffffffffffffffffff1673ffffffffffffffffffffffffffffffffffffffff166364c044fe60008054906101000a900473ffffffffffffffffffffffffffffffffffffffff1673ffffffffffffffffffffffffffffffffffffffff166307a5ecaa60008054906101000a900473ffffffffffffffffffffffffffffffffffffffff1673ffffffffffffffffffffffffffffffffffffffff16635fdf05d76040518163ffffffff1660e01b8152600401600060405180830381865afa158015611859573d6000803e3d6000fd5b505050506040513d6000823e3d601f19601f820116820180604052508101906118829190612be6565b8a604001516040518363ffffffff1660e01b81526004016118a4929190612c73565b600060405180830381865afa1580156118c1573d6000803e3d6000fd5b505050506040513d6000823e3d601f19601f820116820180604052508101906118ea9190612be6565b6040518263ffffffff1660e01b81526004016119069190612cd7565b600060405180830381865afa158015611923573d6000803e3d6000fd5b505050506040513d6000823e3d601f19601f8201168201806040525081019061194c9190612be6565b6040518363ffffffff1660e01b8152600401611969929190612c73565b600060405180830381865afa158015611986573d6000803e3d6000fd5b505050506040513d6000823e3d601f19601f820116820180604052508101906119af9190612be6565b905060008060009054906101000a900473ffffffffffffffffffffffffffffffffffffffff1673ffffffffffffffffffffffffffffffffffffffff16635f6910d460008054906101000a900473ffffffffffffffffffffffffffffffffffffffff1673ffffffffffffffffffffffffffffffffffffffff16635f6910d460008054906101000a900473ffffffffffffffffffffffffffffffffffffffff1673ffffffffffffffffffffffffffffffffffffffff166307a5ecaa87886040518363ffffffff1660e01b8152600401611a87929190612c73565b600060405180830381865afa158015611aa4573d6000803e3d6000fd5b505050506040513d6000823e3d601f19601f82011682018060405250810190611acd9190612be6565b88602001516040518363ffffffff1660e01b8152600401611aef929190612c73565b600060405180830381865afa158015611b0c573d6000803e3d6000fd5b505050506040513d6000823e3d601f19601f82011682018060405250810190611b359190612be6565b86602001516040518363ffffffff1660e01b8152600401611b57929190612c73565b600060405180830381865afa158015611b74573d6000803e3d6000fd5b505050506040513d6000823e3d601f19601f82011682018060405250810190611b9d9190612be6565b905060008060009054906101000a900473ffffffffffffffffffffffffffffffffffffffff1673ffffffffffffffffffffffffffffffffffffffff16635f6910d460008054906101000a900473ffffffffffffffffffffffffffffffffffffffff1673ffffffffffffffffffffffffffffffffffffffff166307a5ecaa60008054906101000a900473ffffffffffffffffffffffffffffffffffffffff1673ffffffffffffffffffffffffffffffffffffffff16635f6910d48a60200151886040518363ffffffff1660e01b8152600401611c79929190612c73565b600060405180830381865afa158015611c96573d6000803e3d6000fd5b505050506040513d6000823e3d601f19601f82011682018060405250810190611cbf9190612be6565b876040518363ffffffff1660e01b8152600401611cdd929190612c73565b600060405180830381865afa158015611cfa573d6000803e3d6000fd5b505050506040513d6000823e3d601f19601f82011682018060405250810190611d239190612be6565b87604001516040518363ffffffff1660e01b8152600401611d45929190612c73565b600060405180830381865afa158015611d62573d6000803e3d6000fd5b505050506040513d6000823e3d601f19601f82011682018060405250810190611d8b9190612be6565b9050611d9960008383611da4565b93505050505b919050565b611dac6120a2565b6040518060600160405280856001811115611dca57611dc961257f565b5b81526020018481526020018381525090509392505050565b611dea6120a2565b600073__$7db5d2dbc3ae63372df6c39d501ad0f72a$__63bc39804e8673__$7db5d2dbc3ae63372df6c39d501ad0f72a$__63bc1b392d6040518163ffffffff1660e01b8152600401600060405180830381865af4158015611e50573d6000803e3d6000fd5b505050506040513d6000823e3d601f19601f82011682018060405250810190611e799190612d76565b60006040518463ffffffff1660e01b8152600401611e9993929190612eae565b602060405180830381865af4158015611eb6573d6000803e3d6000fd5b505050506040513d601f19601f82011682018060405250810190611eda9190612f29565b03611ee75781905061209b565b73__$7db5d2dbc3ae63372df6c39d501ad0f72a$__63ee4a4e4e856040518263ffffffff1660e01b8152600401611f1e9190612f56565b602060405180830381865af4158015611f3b573d6000803e3d6000fd5b505050506040513d601f19601f82011682018060405250810190611f5f9190612caa565b1561200657611fff73__$7db5d2dbc3ae63372df6c39d501ad0f72a$__636efac6c78660016040518363ffffffff1660e01b8152600401611fa1929190612f78565b600060405180830381865af4158015611fbe573d6000803e3d6000fd5b505050506040513d6000823e3d601f19601f82011682018060405250810190611fe79190612d76565b611ff0856112e2565b611ffa8587610347565b611de2565b905061209b565b61209873__$7db5d2dbc3ae63372df6c39d501ad0f72a$__636efac6c78660016040518363ffffffff1660e01b8152600401612043929190612f78565b600060405180830381865af4158015612060573d6000803e3d6000fd5b505050506040513d6000823e3d601f19601f820116820180604052508101906120899190612d76565b612092856112e2565b84611de2565b90505b9392505050565b6040518060600160405280600060018111156120c1576120c061257f565b5b81526020016120ce6120e1565b81526020016120db6120e1565b81525090565b60405180604001604052806120f4612107565b8152602001612101612107565b81525090565b604051806020016040528061211a612120565b81525090565b604051806060016040528060608152602001600015158152602001600081525090565b6000604051905090565b600080fd5b600080fd5b600080fd5b6000601f19601f8301169050919050565b7f4e487b7100000000000000000000000000000000000000000000000000000000600052604160045260246000fd5b6121a58261215c565b810181811067ffffffffffffffff821117156121c4576121c361216d565b5b80604052505050565b60006121d7612143565b90506121e3828261219c565b919050565b600080fd5b600281106121fa57600080fd5b50565b60008135905061220c816121ed565b92915050565b600080fd5b600080fd5b600067ffffffffffffffff8211156122375761223661216d565b5b6122408261215c565b9050602081019050919050565b82818337600083830152505050565b600061226f61226a8461221c565b6121cd565b90508281526020810184848401111561228b5761228a612217565b5b61229684828561224d565b509392505050565b600082601f8301126122b3576122b2612212565b5b81356122c384826020860161225c565b91505092915050565b60008115159050919050565b6122e1816122cc565b81146122ec57600080fd5b50565b6000813590506122fe816122d8565b92915050565b6000819050919050565b61231781612304565b811461232257600080fd5b50565b6000813590506123348161230e565b92915050565b6000606082840312156123505761234f612157565b5b61235a60606121cd565b9050600082013567ffffffffffffffff81111561237a576123796121e8565b5b6123868482850161229e565b600083015250602061239a848285016122ef565b60208301525060406123ae84828501612325565b60408301525092915050565b6000602082840312156123d0576123cf612157565b5b6123da60206121cd565b9050600082013567ffffffffffffffff8111156123fa576123f96121e8565b5b6124068482850161233a565b60008301525092915050565b60006040828403121561242857612427612157565b5b61243260406121cd565b9050600082013567ffffffffffffffff811115612452576124516121e8565b5b61245e848285016123ba565b600083015250602082013567ffffffffffffffff811115612482576124816121e8565b5b61248e848285016123ba565b60208301525092915050565b6000606082840312156124b0576124af612157565b5b6124ba60606121cd565b905060006124ca848285016121fd565b600083015250602082013567ffffffffffffffff8111156124ee576124ed6121e8565b5b6124fa84828501612412565b602083015250604082013567ffffffffffffffff81111561251e5761251d6121e8565b5b61252a84828501612412565b60408301525092915050565b60006020828403121561254c5761254b61214d565b5b600082013567ffffffffffffffff81111561256a57612569612152565b5b6125768482850161249a565b91505092915050565b7f4e487b7100000000000000000000000000000000000000000000000000000000600052602160045260246000fd5b600281106125bf576125be61257f565b5b50565b60008190506125d0826125ae565b919050565b60006125e0826125c2565b9050919050565b6125f0816125d5565b82525050565b600081519050919050565b600082825260208201905092915050565b60005b83811015612630578082015181840152602081019050612615565b60008484015250505050565b6000612647826125f6565b6126518185612601565b9350612661818560208601612612565b61266a8161215c565b840191505092915050565b61267e816122cc565b82525050565b61268d81612304565b82525050565b600060608301600083015184820360008601526126b0828261263c565b91505060208301516126c56020860182612675565b5060408301516126d86040860182612684565b508091505092915050565b600060208301600083015184820360008601526127008282612693565b9150508091505092915050565b6000604083016000830151848203600086015261272a82826126e3565b9150506020830151848203602086015261274482826126e3565b9150508091505092915050565b600060608301600083015161276960008601826125e7565b5060208301518482036020860152612781828261270d565b9150506040830151848203604086015261279b828261270d565b9150508091505092915050565b600060208201905081810360008301526127c28184612751565b905092915050565b600080604083850312156127e1576127e061214d565b5b600083013567ffffffffffffffff8111156127ff576127fe612152565b5b61280b8582860161249a565b925050602083013567ffffffffffffffff81111561282c5761282b612152565b5b6128388582860161249a565b9150509250929050565b600080604083850312156128595761285861214d565b5b600083013567ffffffffffffffff81111561287757612876612152565b5b6128838582860161233a565b925050602083013567ffffffffffffffff8111156128a4576128a3612152565b5b6128b08582860161249a565b9150509250929050565b6128c3816122cc565b82525050565b60006020820190506128de60008301846128ba565b92915050565b6000806000606084860312156128fd576128fc61214d565b5b600061290b868287016121fd565b935050602084013567ffffffffffffffff81111561292c5761292b612152565b5b61293886828701612412565b925050604084013567ffffffffffffffff81111561295957612958612152565b5b61296586828701612412565b9150509250925092565b600082825260208201905092915050565b7f63616e6e6f74206e656761746520706f696e7420617420696e66696e69747900600082015250565b60006129b6601f8361296f565b91506129c182612980565b602082019050919050565b600060208201905081810360008301526129e5816129a9565b9050919050565b60006129ff6129fa8461221c565b6121cd565b905082815260208101848484011115612a1b57612a1a612217565b5b612a26848285612612565b509392505050565b600082601f830112612a4357612a42612212565b5b8151612a538482602086016129ec565b91505092915050565b600081519050612a6b816122d8565b92915050565b600081519050612a808161230e565b92915050565b600060608284031215612a9c57612a9b612157565b5b612aa660606121cd565b9050600082015167ffffffffffffffff811115612ac657612ac56121e8565b5b612ad284828501612a2e565b6000830152506020612ae684828501612a5c565b6020830152506040612afa84828501612a71565b60408301525092915050565b600060208284031215612b1c57612b1b612157565b5b612b2660206121cd565b9050600082015167ffffffffffffffff811115612b4657612b456121e8565b5b612b5284828501612a86565b60008301525092915050565b600060408284031215612b7457612b73612157565b5b612b7e60406121cd565b9050600082015167ffffffffffffffff811115612b9e57612b9d6121e8565b5b612baa84828501612b06565b600083015250602082015167ffffffffffffffff811115612bce57612bcd6121e8565b5b612bda84828501612b06565b60208301525092915050565b600060208284031215612bfc57612bfb61214d565b5b600082015167ffffffffffffffff811115612c1a57612c19612152565b5b612c2684828501612b5e565b91505092915050565b60006040830160008301518482036000860152612c4c82826126e3565b91505060208301518482036020860152612c6682826126e3565b9150508091505092915050565b60006040820190508181036000830152612c8d8185612c2f565b90508181036020830152612ca18184612c2f565b90509392505050565b600060208284031215612cc057612cbf61214d565b5b6000612cce84828501612a5c565b91505092915050565b60006020820190508181036000830152612cf18184612c2f565b905092915050565b6000819050919050565b6000819050919050565b6000612d28612d23612d1e84612cf9565b612d03565b612304565b9050919050565b612d3881612d0d565b82525050565b612d47816122cc565b82525050565b6000604082019050612d626000830185612d2f565b612d6f6020830184612d3e565b9392505050565b600060208284031215612d8c57612d8b61214d565b5b600082015167ffffffffffffffff811115612daa57612da9612152565b5b612db684828501612a86565b91505092915050565b600082825260208201905092915050565b6000612ddb826125f6565b612de58185612dbf565b9350612df5818560208601612612565b612dfe8161215c565b840191505092915050565b612e12816122cc565b82525050565b612e2181612304565b82525050565b60006060830160008301518482036000860152612e448282612dd0565b9150506020830151612e596020860182612e09565b506040830151612e6c6040860182612e18565b508091505092915050565b60006040820190508181036000830152612e918185612e27565b90508181036020830152612ea58184612e27565b90509392505050565b60006060820190508181036000830152612ec88186612e27565b90508181036020830152612edc8185612e27565b9050612eeb6040830184612d3e565b949350505050565b6000819050919050565b612f0681612ef3565b8114612f1157600080fd5b50565b600081519050612f2381612efd565b92915050565b600060208284031215612f3f57612f3e61214d565b5b6000612f4d84828501612f14565b91505092915050565b60006020820190508181036000830152612f708184612e27565b905092915050565b60006040820190508181036000830152612f928185612e27565b9050612fa16020830184612d2f565b939250505056fea26469706673582212204f85b73da826d283df4e59a095fbb2545c68493c394e31a9c1e22eca8456af2c64736f6c634300081b0033",
  "linkReferences": {
    "contracts/BigNumber.sol": {
      "BigNumbers": [
        {
          "length": 20,
          "start": 4289
        },
        {
          "length": 20,
          "start": 4316
        },
        {
          "length": 20,
          "start": 7959
        },
        {
          "length": 20,
          "start": 7986
        },
        {
          "length": 20,
          "start": 8210
        },
        {
          "length": 20,
          "start": 8338
        },
        {
          "length": 20,
          "start": 8500
        }
      ]
    }
  },
  "deployedLinkReferences": {
    "contracts/BigNumber.sol": {
      "BigNumbers": [
        {
          "length": 20,
          "start": 3992
        },
        {
          "length": 20,
          "start": 4019
        },
        {
          "length": 20,
          "start": 7662
        },
        {
          "length": 20,
          "start": 7689
        },
        {
          "length": 20,
          "start": 7913
        },
        {
          "length": 20,
          "start": 8041
        },
        {
          "length": 20,
          "start": 8203
        }
      ]
    }
  }
}