{
  "_format": "hh-sol-artifact-1",
  "contractName": "FiniteField",
  "sourceName": "contracts/field/finiteField.sol",
  "abi": [
    {
      "inputs": [
        {
          "internalType": "uint256",
          "name": "prime",
          "type": "uint256"
        }
      ],
      "stateMutability": "nonpayable",
      "type": "constructor"
    },
    {
      "inputs": [
        {
          "internalType": "uint256",
          "name": "value",
          "type": "uint256"
        }
      ],
      "name": "createElement",
      "outputs": [
        {
          "components": [
            {
              "internalType": "uint256",
              "name": "value",
              "type": "uint256"
            }
          ],
          "internalType": "struct FiniteField.Zp",
          "name": "",
          "type": "tuple"
        }
      ],
      "stateMutability": "view",
      "type": "function"
    },
    {
      "inputs": [
        {
          "components": [
            {
              "internalType": "uint256",
              "name": "value",
              "type": "uint256"
            }
          ],
          "internalType": "struct FiniteField.Zp",
          "name": "a",
          "type": "tuple"
        },
        {
          "components": [
            {
              "internalType": "uint256",
              "name": "value",
              "type": "uint256"
            }
          ],
          "internalType": "struct FiniteField.Zp",
          "name": "b",
          "type": "tuple"
        }
      ],
      "name": "div",
      "outputs": [
        {
          "components": [
            {
              "internalType": "uint256",
              "name": "value",
              "type": "uint256"
            }
          ],
          "internalType": "struct FiniteField.Zp",
          "name": "",
          "type": "tuple"
        }
      ],
      "stateMutability": "view",
      "type": "function"
    },
    {
      "inputs": [
        {
          "components": [
            {
              "internalType": "uint256",
              "name": "value",
              "type": "uint256"
            }
          ],
          "internalType": "struct FiniteField.Zp",
          "name": "a",
          "type": "tuple"
        },
        {
          "components": [
            {
              "internalType": "uint256",
              "name": "value",
              "type": "uint256"
            }
          ],
          "internalType": "struct FiniteField.Zp",
          "name": "b",
          "type": "tuple"
        }
      ],
      "name": "equals",
      "outputs": [
        {
          "internalType": "bool",
          "name": "",
          "type": "bool"
        }
      ],
      "stateMutability": "pure",
      "type": "function"
    },
    {
      "inputs": [
        {
          "internalType": "uint256",
          "name": "base",
          "type": "uint256"
        },
        {
          "internalType": "uint256",
          "name": "exponent",
          "type": "uint256"
        }
      ],
      "name": "exp",
      "outputs": [
        {
          "internalType": "uint256",
          "name": "",
          "type": "uint256"
        }
      ],
      "stateMutability": "view",
      "type": "function"
    },
    {
      "inputs": [
        {
          "components": [
            {
              "internalType": "uint256",
              "name": "value",
              "type": "uint256"
            }
          ],
          "internalType": "struct FiniteField.Zp",
          "name": "a",
          "type": "tuple"
        }
      ],
      "name": "inverse",
      "outputs": [
        {
          "components": [
            {
              "internalType": "uint256",
              "name": "value",
              "type": "uint256"
            }
          ],
          "internalType": "struct FiniteField.Zp",
          "name": "",
          "type": "tuple"
        }
      ],
      "stateMutability": "view",
      "type": "function"
    },
    {
      "inputs": [
        {
          "internalType": "uint256",
          "name": "num",
          "type": "uint256"
        }
      ],
      "name": "isPrime",
      "outputs": [
        {
          "internalType": "bool",
          "name": "",
          "type": "bool"
        }
      ],
      "stateMutability": "pure",
      "type": "function"
    },
    {
      "inputs": [
        {
          "components": [
            {
              "internalType": "uint256",
              "name": "value",
              "type": "uint256"
            }
          ],
          "internalType": "struct FiniteField.Zp",
          "name": "a",
          "type": "tuple"
        },
        {
          "components": [
            {
              "internalType": "uint256",
              "name": "value",
              "type": "uint256"
            }
          ],
          "internalType": "struct FiniteField.Zp",
          "name": "b",
          "type": "tuple"
        }
      ],
      "name": "mul",
      "outputs": [
        {
          "components": [
            {
              "internalType": "uint256",
              "name": "value",
              "type": "uint256"
            }
          ],
          "internalType": "struct FiniteField.Zp",
          "name": "",
          "type": "tuple"
        }
      ],
      "stateMutability": "view",
      "type": "function"
    },
    {
      "inputs": [
        {
          "components": [
            {
              "internalType": "uint256",
              "name": "value",
              "type": "uint256"
            }
          ],
          "internalType": "struct FiniteField.Zp",
          "name": "a",
          "type": "tuple"
        }
      ],
      "name": "mul_nonres",
      "outputs": [
        {
          "components": [
            {
              "internalType": "uint256",
              "name": "value",
              "type": "uint256"
            }
          ],
          "internalType": "struct FiniteField.Zp",
          "name": "",
          "type": "tuple"
        }
      ],
      "stateMutability": "pure",
      "type": "function"
    },
    {
      "inputs": [],
      "name": "p",
      "outputs": [
        {
          "internalType": "uint256",
          "name": "",
          "type": "uint256"
        }
      ],
      "stateMutability": "view",
      "type": "function"
    },
    {
      "inputs": [
        {
          "components": [
            {
              "internalType": "uint256",
              "name": "value",
              "type": "uint256"
            }
          ],
          "internalType": "struct FiniteField.Zp",
          "name": "a",
          "type": "tuple"
        },
        {
          "components": [
            {
              "internalType": "uint256",
              "name": "value",
              "type": "uint256"
            }
          ],
          "internalType": "struct FiniteField.Zp",
          "name": "b",
          "type": "tuple"
        }
      ],
      "name": "sub",
      "outputs": [
        {
          "components": [
            {
              "internalType": "uint256",
              "name": "value",
              "type": "uint256"
            }
          ],
          "internalType": "struct FiniteField.Zp",
          "name": "",
          "type": "tuple"
        }
      ],
      "stateMutability": "view",
      "type": "function"
    },
    {
      "inputs": [
        {
          "components": [
            {
              "internalType": "uint256",
              "name": "value",
              "type": "uint256"
            }
          ],
          "internalType": "struct FiniteField.Zp",
          "name": "a",
          "type": "tuple"
        },
        {
          "components": [
            {
              "internalType": "uint256",
              "name": "value",
              "type": "uint256"
            }
          ],
          "internalType": "struct FiniteField.Zp",
          "name": "b",
          "type": "tuple"
        }
      ],
      "name": "sum",
      "outputs": [
        {
          "components": [
            {
              "internalType": "uint256",
              "name": "value",
              "type": "uint256"
            }
          ],
          "internalType": "struct FiniteField.Zp",
          "name": "",
          "type": "tuple"
        }
      ],
      "stateMutability": "view",
      "type": "function"
    },
    {
      "inputs": [],
      "name": "zero",
      "outputs": [
        {
          "components": [
            {
              "internalType": "uint256",
              "name": "value",
              "type": "uint256"
            }
          ],
          "internalType": "struct FiniteField.Zp",
          "name": "",
          "type": "tuple"
        }
      ],
      "stateMutability": "pure",
      "type": "function"
    }
  ],
  "bytecode": "0x608060405234801561001057600080fd5b50604051610d74380380610d7483398181016040528101906100329190610130565b6100418161008d60201b60201c565b610080576040517f08c379a0000000000000000000000000000000000000000000000000000000008152600401610077906101ba565b60405180910390fd5b80600081905550506102f3565b600060028210156100a157600090506100f0565b6000600290505b8281826100b59190610209565b116100ea57600081846100c8919061027a565b036100d75760009150506100f0565b80806100e2906102ab565b9150506100a8565b50600190505b919050565b600080fd5b6000819050919050565b61010d816100fa565b811461011857600080fd5b50565b60008151905061012a81610104565b92915050565b600060208284031215610146576101456100f5565b5b60006101548482850161011b565b91505092915050565b600082825260208201905092915050565b7f7020646576652065737365726520756e206e756d65726f207072696d6f2e0000600082015250565b60006101a4601e8361015d565b91506101af8261016e565b602082019050919050565b600060208201905081810360008301526101d381610197565b9050919050565b7f4e487b7100000000000000000000000000000000000000000000000000000000600052601160045260246000fd5b6000610214826100fa565b915061021f836100fa565b925082820261022d816100fa565b91508282048414831517610244576102436101da565b5b5092915050565b7f4e487b7100000000000000000000000000000000000000000000000000000000600052601260045260246000fd5b6000610285826100fa565b9150610290836100fa565b9250826102a05761029f61024b565b5b828206905092915050565b60006102b6826100fa565b91507fffffffffffffffffffffffffffffffffffffffffffffffffffffffffffffffff82036102e8576102e76101da565b5b600182019050919050565b610a72806103026000396000f3fe608060405234801561001057600080fd5b50600436106100b45760003560e01c8063bc1b392d11610071578063bc1b392d146101c7578063c4524947146101e5578063c870cbda14610215578063d629f52814610245578063f5f565f814610275578063f6509dd6146102a5576100b4565b806342703494146100b95780639ae8886a146100e9578063a253aeee14610107578063aa28c5be14610137578063b0df7c1d14610167578063b2eb1a5a14610197575b600080fd5b6100d360048036038101906100ce91906105f1565b6102d5565b6040516100e09190610639565b60405180910390f35b6100f161033d565b6040516100fe9190610663565b60405180910390f35b610121600480360381019061011c919061074b565b610343565b60405161012e91906107b6565b60405180910390f35b610151600480360381019061014c91906107d1565b610377565b60405161015e91906107b6565b60405180910390f35b610181600480360381019061017c919061074b565b610387565b60405161018e91906107b6565b60405180910390f35b6101b160048036038101906101ac919061074b565b6103a9565b6040516101be91906107b6565b60405180910390f35b6101cf6103dd565b6040516101dc91906107b6565b60405180910390f35b6101ff60048036038101906101fa91906105f1565b6103fa565b60405161020c91906107b6565b60405180910390f35b61022f600480360381019061022a919061074b565b610425565b60405161023c91906107b6565b60405180910390f35b61025f600480360381019061025a919061074b565b61048e565b60405161026c9190610639565b60405180910390f35b61028f600480360381019061028a91906107fe565b6104a3565b60405161029c9190610663565b60405180910390f35b6102bf60048036038101906102ba91906107d1565b610519565b6040516102cc91906107b6565b60405180910390f35b600060028210156102e95760009050610338565b6000600290505b8281826102fd919061086d565b11610332576000818461031091906108de565b0361031f576000915050610338565b808061032a9061090f565b9150506102f0565b50600190505b919050565b60005481565b61034b610599565b61036f6000548061035f5761035e6108af565b5b83600001518560000151086103fa565b905092915050565b61037f610599565b819050919050565b61038f610599565b6103a18361039c84610519565b6103a9565b905092915050565b6103b1610599565b6103d5600054806103c5576103c46108af565b5b83600001518560000151096103fa565b905092915050565b6103e5610599565b60405180602001604052806000815250905090565b610402610599565b60405180602001604052806000548461041b91906108de565b8152509050919050565b61042d610599565b600082600001518460000151101561046557826000015184600001516000546104569190610957565b610460919061098b565b61047a565b82600001518460000151610479919061098b565b5b9050610485816103fa565b91505092915050565b60008160000151836000015114905092915050565b6000806001905060008054856104b991906108de565b905060008490505b600081111561050d576001808216036104eb57600054806104e5576104e46108af565b5b82840992505b600054806104fc576104fb6108af565b5b8283099150600181901c90506104c1565b82935050505092915050565b610521610599565b6000826000015103610568576040517f08c379a000000000000000000000000000000000000000000000000000000000815260040161055f90610a1c565b60405180910390fd5b600061058683600001516002600054610581919061098b565b6104a3565b9050610591816103fa565b915050919050565b6040518060200160405280600081525090565b6000604051905090565b600080fd5b6000819050919050565b6105ce816105bb565b81146105d957600080fd5b50565b6000813590506105eb816105c5565b92915050565b600060208284031215610607576106066105b6565b5b6000610615848285016105dc565b91505092915050565b60008115159050919050565b6106338161061e565b82525050565b600060208201905061064e600083018461062a565b92915050565b61065d816105bb565b82525050565b60006020820190506106786000830184610654565b92915050565b600080fd5b6000601f19601f8301169050919050565b7f4e487b7100000000000000000000000000000000000000000000000000000000600052604160045260246000fd5b6106cc82610683565b810181811067ffffffffffffffff821117156106eb576106ea610694565b5b80604052505050565b60006106fe6105ac565b905061070a82826106c3565b919050565b6000602082840312156107255761072461067e565b5b61072f60206106f4565b9050600061073f848285016105dc565b60008301525092915050565b60008060408385031215610762576107616105b6565b5b60006107708582860161070f565b92505060206107818582860161070f565b9150509250929050565b610794816105bb565b82525050565b6020820160008201516107b0600085018261078b565b50505050565b60006020820190506107cb600083018461079a565b92915050565b6000602082840312156107e7576107e66105b6565b5b60006107f58482850161070f565b91505092915050565b60008060408385031215610815576108146105b6565b5b6000610823858286016105dc565b9250506020610834858286016105dc565b9150509250929050565b7f4e487b7100000000000000000000000000000000000000000000000000000000600052601160045260246000fd5b6000610878826105bb565b9150610883836105bb565b9250828202610891816105bb565b915082820484148315176108a8576108a761083e565b5b5092915050565b7f4e487b7100000000000000000000000000000000000000000000000000000000600052601260045260246000fd5b60006108e9826105bb565b91506108f4836105bb565b925082610904576109036108af565b5b828206905092915050565b600061091a826105bb565b91507fffffffffffffffffffffffffffffffffffffffffffffffffffffffffffffffff820361094c5761094b61083e565b5b600182019050919050565b6000610962826105bb565b915061096d836105bb565b92508282019050808211156109855761098461083e565b5b92915050565b6000610996826105bb565b91506109a1836105bb565b92508282039050818111156109b9576109b861083e565b5b92915050565b600082825260208201905092915050565b7f4469766973696f6e6520706572207a65726f206e6f6e207065726d657373612e600082015250565b6000610a066020836109bf565b9150610a11826109d0565b602082019050919050565b60006020820190508181036000830152610a35816109f9565b905091905056fea264697066735822122055fc2bed4071feba6e88fb1b4beb15b0eb659907623269d7fd91128e2ecd362064736f6c634300081b0033",
  "linkReferences": {},
  "deployedLinkReferences": {}
}