{
  "_format": "hh-sol-artifact-1",
  "contractName": "QuadraticExtension",
  "sourceName": "contracts/field/quadraticExtension.sol",
  "abi": [
    {
      "inputs": [
        {
          "internalType": "contract BigFiniteField",
          "name": "field",
          "type": "address"
        }
      ],
      "stateMutability": "nonpayable",
      "type": "constructor"
    },
    {
      "inputs": [
        {
          "components": [
            {
              "components": [
                {
                  "internalType": "bytes",
                  "name": "val",
                  "type": "bytes"
                },
                {
                  "internalType": "bool",
                  "name": "neg",
                  "type": "bool"
                },
                {
                  "internalType": "uint256",
                  "name": "bitlen",
                  "type": "uint256"
                }
              ],
              "internalType": "struct BigNumber",
              "name": "value",
              "type": "tuple"
            }
          ],
          "internalType": "struct Zp",
          "name": "a",
          "type": "tuple"
        },
        {
          "components": [
            {
              "components": [
                {
                  "internalType": "bytes",
                  "name": "val",
                  "type": "bytes"
                },
                {
                  "internalType": "bool",
                  "name": "neg",
                  "type": "bool"
                },
                {
                  "internalType": "uint256",
                  "name": "bitlen",
                  "type": "uint256"
                }
              ],
              "internalType": "struct BigNumber",
              "name": "value",
              "type": "tuple"
            }
          ],
          "internalType": "struct Zp",
          "name": "b",
          "type": "tuple"
        }
      ],
      "name": "createElement",
      "outputs": [
        {
          "components": [
            {
              "components": [
                {
                  "components": [
                    {
                      "internalType": "bytes",
                      "name": "val",
                      "type": "bytes"
                    },
                    {
                      "internalType": "bool",
                      "name": "neg",
                      "type": "bool"
                    },
                    {
                      "internalType": "uint256",
                      "name": "bitlen",
                      "type": "uint256"
                    }
                  ],
                  "internalType": "struct BigNumber",
                  "name": "value",
                  "type": "tuple"
                }
              ],
              "internalType": "struct Zp",
              "name": "a",
              "type": "tuple"
            },
            {
              "components": [
                {
                  "components": [
                    {
                      "internalType": "bytes",
                      "name": "val",
                      "type": "bytes"
                    },
                    {
                      "internalType": "bool",
                      "name": "neg",
                      "type": "bool"
                    },
                    {
                      "internalType": "uint256",
                      "name": "bitlen",
                      "type": "uint256"
                    }
                  ],
                  "internalType": "struct BigNumber",
                  "name": "value",
                  "type": "tuple"
                }
              ],
              "internalType": "struct Zp",
              "name": "b",
              "type": "tuple"
            }
          ],
          "internalType": "struct Zp_2",
          "name": "",
          "type": "tuple"
        }
      ],
      "stateMutability": "pure",
      "type": "function"
    },
    {
      "inputs": [
        {
          "components": [
            {
              "components": [
                {
                  "components": [
                    {
                      "internalType": "bytes",
                      "name": "val",
                      "type": "bytes"
                    },
                    {
                      "internalType": "bool",
                      "name": "neg",
                      "type": "bool"
                    },
                    {
                      "internalType": "uint256",
                      "name": "bitlen",
                      "type": "uint256"
                    }
                  ],
                  "internalType": "struct BigNumber",
                  "name": "value",
                  "type": "tuple"
                }
              ],
              "internalType": "struct Zp",
              "name": "a",
              "type": "tuple"
            },
            {
              "components": [
                {
                  "components": [
                    {
                      "internalType": "bytes",
                      "name": "val",
                      "type": "bytes"
                    },
                    {
                      "internalType": "bool",
                      "name": "neg",
                      "type": "bool"
                    },
                    {
                      "internalType": "uint256",
                      "name": "bitlen",
                      "type": "uint256"
                    }
                  ],
                  "internalType": "struct BigNumber",
                  "name": "value",
                  "type": "tuple"
                }
              ],
              "internalType": "struct Zp",
              "name": "b",
              "type": "tuple"
            }
          ],
          "internalType": "struct Zp_2",
          "name": "x",
          "type": "tuple"
        },
        {
          "components": [
            {
              "components": [
                {
                  "components": [
                    {
                      "internalType": "bytes",
                      "name": "val",
                      "type": "bytes"
                    },
                    {
                      "internalType": "bool",
                      "name": "neg",
                      "type": "bool"
                    },
                    {
                      "internalType": "uint256",
                      "name": "bitlen",
                      "type": "uint256"
                    }
                  ],
                  "internalType": "struct BigNumber",
                  "name": "value",
                  "type": "tuple"
                }
              ],
              "internalType": "struct Zp",
              "name": "a",
              "type": "tuple"
            },
            {
              "components": [
                {
                  "components": [
                    {
                      "internalType": "bytes",
                      "name": "val",
                      "type": "bytes"
                    },
                    {
                      "internalType": "bool",
                      "name": "neg",
                      "type": "bool"
                    },
                    {
                      "internalType": "uint256",
                      "name": "bitlen",
                      "type": "uint256"
                    }
                  ],
                  "internalType": "struct BigNumber",
                  "name": "value",
                  "type": "tuple"
                }
              ],
              "internalType": "struct Zp",
              "name": "b",
              "type": "tuple"
            }
          ],
          "internalType": "struct Zp_2",
          "name": "y",
          "type": "tuple"
        }
      ],
      "name": "div",
      "outputs": [
        {
          "components": [
            {
              "components": [
                {
                  "components": [
                    {
                      "internalType": "bytes",
                      "name": "val",
                      "type": "bytes"
                    },
                    {
                      "internalType": "bool",
                      "name": "neg",
                      "type": "bool"
                    },
                    {
                      "internalType": "uint256",
                      "name": "bitlen",
                      "type": "uint256"
                    }
                  ],
                  "internalType": "struct BigNumber",
                  "name": "value",
                  "type": "tuple"
                }
              ],
              "internalType": "struct Zp",
              "name": "a",
              "type": "tuple"
            },
            {
              "components": [
                {
                  "components": [
                    {
                      "internalType": "bytes",
                      "name": "val",
                      "type": "bytes"
                    },
                    {
                      "internalType": "bool",
                      "name": "neg",
                      "type": "bool"
                    },
                    {
                      "internalType": "uint256",
                      "name": "bitlen",
                      "type": "uint256"
                    }
                  ],
                  "internalType": "struct BigNumber",
                  "name": "value",
                  "type": "tuple"
                }
              ],
              "internalType": "struct Zp",
              "name": "b",
              "type": "tuple"
            }
          ],
          "internalType": "struct Zp_2",
          "name": "",
          "type": "tuple"
        }
      ],
      "stateMutability": "view",
      "type": "function"
    },
    {
      "inputs": [
        {
          "components": [
            {
              "components": [
                {
                  "components": [
                    {
                      "internalType": "bytes",
                      "name": "val",
                      "type": "bytes"
                    },
                    {
                      "internalType": "bool",
                      "name": "neg",
                      "type": "bool"
                    },
                    {
                      "internalType": "uint256",
                      "name": "bitlen",
                      "type": "uint256"
                    }
                  ],
                  "internalType": "struct BigNumber",
                  "name": "value",
                  "type": "tuple"
                }
              ],
              "internalType": "struct Zp",
              "name": "a",
              "type": "tuple"
            },
            {
              "components": [
                {
                  "components": [
                    {
                      "internalType": "bytes",
                      "name": "val",
                      "type": "bytes"
                    },
                    {
                      "internalType": "bool",
                      "name": "neg",
                      "type": "bool"
                    },
                    {
                      "internalType": "uint256",
                      "name": "bitlen",
                      "type": "uint256"
                    }
                  ],
                  "internalType": "struct BigNumber",
                  "name": "value",
                  "type": "tuple"
                }
              ],
              "internalType": "struct Zp",
              "name": "b",
              "type": "tuple"
            }
          ],
          "internalType": "struct Zp_2",
          "name": "x",
          "type": "tuple"
        },
        {
          "components": [
            {
              "components": [
                {
                  "components": [
                    {
                      "internalType": "bytes",
                      "name": "val",
                      "type": "bytes"
                    },
                    {
                      "internalType": "bool",
                      "name": "neg",
                      "type": "bool"
                    },
                    {
                      "internalType": "uint256",
                      "name": "bitlen",
                      "type": "uint256"
                    }
                  ],
                  "internalType": "struct BigNumber",
                  "name": "value",
                  "type": "tuple"
                }
              ],
              "internalType": "struct Zp",
              "name": "a",
              "type": "tuple"
            },
            {
              "components": [
                {
                  "components": [
                    {
                      "internalType": "bytes",
                      "name": "val",
                      "type": "bytes"
                    },
                    {
                      "internalType": "bool",
                      "name": "neg",
                      "type": "bool"
                    },
                    {
                      "internalType": "uint256",
                      "name": "bitlen",
                      "type": "uint256"
                    }
                  ],
                  "internalType": "struct BigNumber",
                  "name": "value",
                  "type": "tuple"
                }
              ],
              "internalType": "struct Zp",
              "name": "b",
              "type": "tuple"
            }
          ],
          "internalType": "struct Zp_2",
          "name": "y",
          "type": "tuple"
        }
      ],
      "name": "equals",
      "outputs": [
        {
          "internalType": "bool",
          "name": "",
          "type": "bool"
        }
      ],
      "stateMutability": "view",
      "type": "function"
    },
    {
      "inputs": [],
      "name": "four",
      "outputs": [
        {
          "components": [
            {
              "components": [
                {
                  "components": [
                    {
                      "internalType": "bytes",
                      "name": "val",
                      "type": "bytes"
                    },
                    {
                      "internalType": "bool",
                      "name": "neg",
                      "type": "bool"
                    },
                    {
                      "internalType": "uint256",
                      "name": "bitlen",
                      "type": "uint256"
                    }
                  ],
                  "internalType": "struct BigNumber",
                  "name": "value",
                  "type": "tuple"
                }
              ],
              "internalType": "struct Zp",
              "name": "a",
              "type": "tuple"
            },
            {
              "components": [
                {
                  "components": [
                    {
                      "internalType": "bytes",
                      "name": "val",
                      "type": "bytes"
                    },
                    {
                      "internalType": "bool",
                      "name": "neg",
                      "type": "bool"
                    },
                    {
                      "internalType": "uint256",
                      "name": "bitlen",
                      "type": "uint256"
                    }
                  ],
                  "internalType": "struct BigNumber",
                  "name": "value",
                  "type": "tuple"
                }
              ],
              "internalType": "struct Zp",
              "name": "b",
              "type": "tuple"
            }
          ],
          "internalType": "struct Zp_2",
          "name": "",
          "type": "tuple"
        }
      ],
      "stateMutability": "view",
      "type": "function"
    },
    {
      "inputs": [
        {
          "components": [
            {
              "components": [
                {
                  "internalType": "bytes",
                  "name": "val",
                  "type": "bytes"
                },
                {
                  "internalType": "bool",
                  "name": "neg",
                  "type": "bool"
                },
                {
                  "internalType": "uint256",
                  "name": "bitlen",
                  "type": "uint256"
                }
              ],
              "internalType": "struct BigNumber",
              "name": "value",
              "type": "tuple"
            }
          ],
          "internalType": "struct Zp",
          "name": "value",
          "type": "tuple"
        }
      ],
      "name": "fromZp",
      "outputs": [
        {
          "components": [
            {
              "components": [
                {
                  "components": [
                    {
                      "internalType": "bytes",
                      "name": "val",
                      "type": "bytes"
                    },
                    {
                      "internalType": "bool",
                      "name": "neg",
                      "type": "bool"
                    },
                    {
                      "internalType": "uint256",
                      "name": "bitlen",
                      "type": "uint256"
                    }
                  ],
                  "internalType": "struct BigNumber",
                  "name": "value",
                  "type": "tuple"
                }
              ],
              "internalType": "struct Zp",
              "name": "a",
              "type": "tuple"
            },
            {
              "components": [
                {
                  "components": [
                    {
                      "internalType": "bytes",
                      "name": "val",
                      "type": "bytes"
                    },
                    {
                      "internalType": "bool",
                      "name": "neg",
                      "type": "bool"
                    },
                    {
                      "internalType": "uint256",
                      "name": "bitlen",
                      "type": "uint256"
                    }
                  ],
                  "internalType": "struct BigNumber",
                  "name": "value",
                  "type": "tuple"
                }
              ],
              "internalType": "struct Zp",
              "name": "b",
              "type": "tuple"
            }
          ],
          "internalType": "struct Zp_2",
          "name": "",
          "type": "tuple"
        }
      ],
      "stateMutability": "view",
      "type": "function"
    },
    {
      "inputs": [
        {
          "components": [
            {
              "components": [
                {
                  "components": [
                    {
                      "internalType": "bytes",
                      "name": "val",
                      "type": "bytes"
                    },
                    {
                      "internalType": "bool",
                      "name": "neg",
                      "type": "bool"
                    },
                    {
                      "internalType": "uint256",
                      "name": "bitlen",
                      "type": "uint256"
                    }
                  ],
                  "internalType": "struct BigNumber",
                  "name": "value",
                  "type": "tuple"
                }
              ],
              "internalType": "struct Zp",
              "name": "a",
              "type": "tuple"
            },
            {
              "components": [
                {
                  "components": [
                    {
                      "internalType": "bytes",
                      "name": "val",
                      "type": "bytes"
                    },
                    {
                      "internalType": "bool",
                      "name": "neg",
                      "type": "bool"
                    },
                    {
                      "internalType": "uint256",
                      "name": "bitlen",
                      "type": "uint256"
                    }
                  ],
                  "internalType": "struct BigNumber",
                  "name": "value",
                  "type": "tuple"
                }
              ],
              "internalType": "struct Zp",
              "name": "b",
              "type": "tuple"
            }
          ],
          "internalType": "struct Zp_2",
          "name": "x",
          "type": "tuple"
        }
      ],
      "name": "inverse",
      "outputs": [
        {
          "components": [
            {
              "components": [
                {
                  "components": [
                    {
                      "internalType": "bytes",
                      "name": "val",
                      "type": "bytes"
                    },
                    {
                      "internalType": "bool",
                      "name": "neg",
                      "type": "bool"
                    },
                    {
                      "internalType": "uint256",
                      "name": "bitlen",
                      "type": "uint256"
                    }
                  ],
                  "internalType": "struct BigNumber",
                  "name": "value",
                  "type": "tuple"
                }
              ],
              "internalType": "struct Zp",
              "name": "a",
              "type": "tuple"
            },
            {
              "components": [
                {
                  "components": [
                    {
                      "internalType": "bytes",
                      "name": "val",
                      "type": "bytes"
                    },
                    {
                      "internalType": "bool",
                      "name": "neg",
                      "type": "bool"
                    },
                    {
                      "internalType": "uint256",
                      "name": "bitlen",
                      "type": "uint256"
                    }
                  ],
                  "internalType": "struct BigNumber",
                  "name": "value",
                  "type": "tuple"
                }
              ],
              "internalType": "struct Zp",
              "name": "b",
              "type": "tuple"
            }
          ],
          "internalType": "struct Zp_2",
          "name": "",
          "type": "tuple"
        }
      ],
      "stateMutability": "view",
      "type": "function"
    },
    {
      "inputs": [
        {
          "components": [
            {
              "components": [
                {
                  "components": [
                    {
                      "internalType": "bytes",
                      "name": "val",
                      "type": "bytes"
                    },
                    {
                      "internalType": "bool",
                      "name": "neg",
                      "type": "bool"
                    },
                    {
                      "internalType": "uint256",
                      "name": "bitlen",
                      "type": "uint256"
                    }
                  ],
                  "internalType": "struct BigNumber",
                  "name": "value",
                  "type": "tuple"
                }
              ],
              "internalType": "struct Zp",
              "name": "a",
              "type": "tuple"
            },
            {
              "components": [
                {
                  "components": [
                    {
                      "internalType": "bytes",
                      "name": "val",
                      "type": "bytes"
                    },
                    {
                      "internalType": "bool",
                      "name": "neg",
                      "type": "bool"
                    },
                    {
                      "internalType": "uint256",
                      "name": "bitlen",
                      "type": "uint256"
                    }
                  ],
                  "internalType": "struct BigNumber",
                  "name": "value",
                  "type": "tuple"
                }
              ],
              "internalType": "struct Zp",
              "name": "b",
              "type": "tuple"
            }
          ],
          "internalType": "struct Zp_2",
          "name": "x",
          "type": "tuple"
        },
        {
          "components": [
            {
              "components": [
                {
                  "components": [
                    {
                      "internalType": "bytes",
                      "name": "val",
                      "type": "bytes"
                    },
                    {
                      "internalType": "bool",
                      "name": "neg",
                      "type": "bool"
                    },
                    {
                      "internalType": "uint256",
                      "name": "bitlen",
                      "type": "uint256"
                    }
                  ],
                  "internalType": "struct BigNumber",
                  "name": "value",
                  "type": "tuple"
                }
              ],
              "internalType": "struct Zp",
              "name": "a",
              "type": "tuple"
            },
            {
              "components": [
                {
                  "components": [
                    {
                      "internalType": "bytes",
                      "name": "val",
                      "type": "bytes"
                    },
                    {
                      "internalType": "bool",
                      "name": "neg",
                      "type": "bool"
                    },
                    {
                      "internalType": "uint256",
                      "name": "bitlen",
                      "type": "uint256"
                    }
                  ],
                  "internalType": "struct BigNumber",
                  "name": "value",
                  "type": "tuple"
                }
              ],
              "internalType": "struct Zp",
              "name": "b",
              "type": "tuple"
            }
          ],
          "internalType": "struct Zp_2",
          "name": "y",
          "type": "tuple"
        }
      ],
      "name": "mul",
      "outputs": [
        {
          "components": [
            {
              "components": [
                {
                  "components": [
                    {
                      "internalType": "bytes",
                      "name": "val",
                      "type": "bytes"
                    },
                    {
                      "internalType": "bool",
                      "name": "neg",
                      "type": "bool"
                    },
                    {
                      "internalType": "uint256",
                      "name": "bitlen",
                      "type": "uint256"
                    }
                  ],
                  "internalType": "struct BigNumber",
                  "name": "value",
                  "type": "tuple"
                }
              ],
              "internalType": "struct Zp",
              "name": "a",
              "type": "tuple"
            },
            {
              "components": [
                {
                  "components": [
                    {
                      "internalType": "bytes",
                      "name": "val",
                      "type": "bytes"
                    },
                    {
                      "internalType": "bool",
                      "name": "neg",
                      "type": "bool"
                    },
                    {
                      "internalType": "uint256",
                      "name": "bitlen",
                      "type": "uint256"
                    }
                  ],
                  "internalType": "struct BigNumber",
                  "name": "value",
                  "type": "tuple"
                }
              ],
              "internalType": "struct Zp",
              "name": "b",
              "type": "tuple"
            }
          ],
          "internalType": "struct Zp_2",
          "name": "",
          "type": "tuple"
        }
      ],
      "stateMutability": "view",
      "type": "function"
    },
    {
      "inputs": [
        {
          "components": [
            {
              "components": [
                {
                  "components": [
                    {
                      "internalType": "bytes",
                      "name": "val",
                      "type": "bytes"
                    },
                    {
                      "internalType": "bool",
                      "name": "neg",
                      "type": "bool"
                    },
                    {
                      "internalType": "uint256",
                      "name": "bitlen",
                      "type": "uint256"
                    }
                  ],
                  "internalType": "struct BigNumber",
                  "name": "value",
                  "type": "tuple"
                }
              ],
              "internalType": "struct Zp",
              "name": "a",
              "type": "tuple"
            },
            {
              "components": [
                {
                  "components": [
                    {
                      "internalType": "bytes",
                      "name": "val",
                      "type": "bytes"
                    },
                    {
                      "internalType": "bool",
                      "name": "neg",
                      "type": "bool"
                    },
                    {
                      "internalType": "uint256",
                      "name": "bitlen",
                      "type": "uint256"
                    }
                  ],
                  "internalType": "struct BigNumber",
                  "name": "value",
                  "type": "tuple"
                }
              ],
              "internalType": "struct Zp",
              "name": "b",
              "type": "tuple"
            }
          ],
          "internalType": "struct Zp_2",
          "name": "x",
          "type": "tuple"
        }
      ],
      "name": "mul_nonres",
      "outputs": [
        {
          "components": [
            {
              "components": [
                {
                  "components": [
                    {
                      "internalType": "bytes",
                      "name": "val",
                      "type": "bytes"
                    },
                    {
                      "internalType": "bool",
                      "name": "neg",
                      "type": "bool"
                    },
                    {
                      "internalType": "uint256",
                      "name": "bitlen",
                      "type": "uint256"
                    }
                  ],
                  "internalType": "struct BigNumber",
                  "name": "value",
                  "type": "tuple"
                }
              ],
              "internalType": "struct Zp",
              "name": "a",
              "type": "tuple"
            },
            {
              "components": [
                {
                  "components": [
                    {
                      "internalType": "bytes",
                      "name": "val",
                      "type": "bytes"
                    },
                    {
                      "internalType": "bool",
                      "name": "neg",
                      "type": "bool"
                    },
                    {
                      "internalType": "uint256",
                      "name": "bitlen",
                      "type": "uint256"
                    }
                  ],
                  "internalType": "struct BigNumber",
                  "name": "value",
                  "type": "tuple"
                }
              ],
              "internalType": "struct Zp",
              "name": "b",
              "type": "tuple"
            }
          ],
          "internalType": "struct Zp_2",
          "name": "",
          "type": "tuple"
        }
      ],
      "stateMutability": "view",
      "type": "function"
    },
    {
      "inputs": [],
      "name": "one",
      "outputs": [
        {
          "components": [
            {
              "components": [
                {
                  "components": [
                    {
                      "internalType": "bytes",
                      "name": "val",
                      "type": "bytes"
                    },
                    {
                      "internalType": "bool",
                      "name": "neg",
                      "type": "bool"
                    },
                    {
                      "internalType": "uint256",
                      "name": "bitlen",
                      "type": "uint256"
                    }
                  ],
                  "internalType": "struct BigNumber",
                  "name": "value",
                  "type": "tuple"
                }
              ],
              "internalType": "struct Zp",
              "name": "a",
              "type": "tuple"
            },
            {
              "components": [
                {
                  "components": [
                    {
                      "internalType": "bytes",
                      "name": "val",
                      "type": "bytes"
                    },
                    {
                      "internalType": "bool",
                      "name": "neg",
                      "type": "bool"
                    },
                    {
                      "internalType": "uint256",
                      "name": "bitlen",
                      "type": "uint256"
                    }
                  ],
                  "internalType": "struct BigNumber",
                  "name": "value",
                  "type": "tuple"
                }
              ],
              "internalType": "struct Zp",
              "name": "b",
              "type": "tuple"
            }
          ],
          "internalType": "struct Zp_2",
          "name": "",
          "type": "tuple"
        }
      ],
      "stateMutability": "view",
      "type": "function"
    },
    {
      "inputs": [
        {
          "components": [
            {
              "components": [
                {
                  "components": [
                    {
                      "internalType": "bytes",
                      "name": "val",
                      "type": "bytes"
                    },
                    {
                      "internalType": "bool",
                      "name": "neg",
                      "type": "bool"
                    },
                    {
                      "internalType": "uint256",
                      "name": "bitlen",
                      "type": "uint256"
                    }
                  ],
                  "internalType": "struct BigNumber",
                  "name": "value",
                  "type": "tuple"
                }
              ],
              "internalType": "struct Zp",
              "name": "a",
              "type": "tuple"
            },
            {
              "components": [
                {
                  "components": [
                    {
                      "internalType": "bytes",
                      "name": "val",
                      "type": "bytes"
                    },
                    {
                      "internalType": "bool",
                      "name": "neg",
                      "type": "bool"
                    },
                    {
                      "internalType": "uint256",
                      "name": "bitlen",
                      "type": "uint256"
                    }
                  ],
                  "internalType": "struct BigNumber",
                  "name": "value",
                  "type": "tuple"
                }
              ],
              "internalType": "struct Zp",
              "name": "b",
              "type": "tuple"
            }
          ],
          "internalType": "struct Zp_2",
          "name": "x",
          "type": "tuple"
        },
        {
          "components": [
            {
              "components": [
                {
                  "components": [
                    {
                      "internalType": "bytes",
                      "name": "val",
                      "type": "bytes"
                    },
                    {
                      "internalType": "bool",
                      "name": "neg",
                      "type": "bool"
                    },
                    {
                      "internalType": "uint256",
                      "name": "bitlen",
                      "type": "uint256"
                    }
                  ],
                  "internalType": "struct BigNumber",
                  "name": "value",
                  "type": "tuple"
                }
              ],
              "internalType": "struct Zp",
              "name": "a",
              "type": "tuple"
            },
            {
              "components": [
                {
                  "components": [
                    {
                      "internalType": "bytes",
                      "name": "val",
                      "type": "bytes"
                    },
                    {
                      "internalType": "bool",
                      "name": "neg",
                      "type": "bool"
                    },
                    {
                      "internalType": "uint256",
                      "name": "bitlen",
                      "type": "uint256"
                    }
                  ],
                  "internalType": "struct BigNumber",
                  "name": "value",
                  "type": "tuple"
                }
              ],
              "internalType": "struct Zp",
              "name": "b",
              "type": "tuple"
            }
          ],
          "internalType": "struct Zp_2",
          "name": "y",
          "type": "tuple"
        }
      ],
      "name": "sub",
      "outputs": [
        {
          "components": [
            {
              "components": [
                {
                  "components": [
                    {
                      "internalType": "bytes",
                      "name": "val",
                      "type": "bytes"
                    },
                    {
                      "internalType": "bool",
                      "name": "neg",
                      "type": "bool"
                    },
                    {
                      "internalType": "uint256",
                      "name": "bitlen",
                      "type": "uint256"
                    }
                  ],
                  "internalType": "struct BigNumber",
                  "name": "value",
                  "type": "tuple"
                }
              ],
              "internalType": "struct Zp",
              "name": "a",
              "type": "tuple"
            },
            {
              "components": [
                {
                  "components": [
                    {
                      "internalType": "bytes",
                      "name": "val",
                      "type": "bytes"
                    },
                    {
                      "internalType": "bool",
                      "name": "neg",
                      "type": "bool"
                    },
                    {
                      "internalType": "uint256",
                      "name": "bitlen",
                      "type": "uint256"
                    }
                  ],
                  "internalType": "struct BigNumber",
                  "name": "value",
                  "type": "tuple"
                }
              ],
              "internalType": "struct Zp",
              "name": "b",
              "type": "tuple"
            }
          ],
          "internalType": "struct Zp_2",
          "name": "",
          "type": "tuple"
        }
      ],
      "stateMutability": "view",
      "type": "function"
    },
    {
      "inputs": [
        {
          "components": [
            {
              "components": [
                {
                  "components": [
                    {
                      "internalType": "bytes",
                      "name": "val",
                      "type": "bytes"
                    },
                    {
                      "internalType": "bool",
                      "name": "neg",
                      "type": "bool"
                    },
                    {
                      "internalType": "uint256",
                      "name": "bitlen",
                      "type": "uint256"
                    }
                  ],
                  "internalType": "struct BigNumber",
                  "name": "value",
                  "type": "tuple"
                }
              ],
              "internalType": "struct Zp",
              "name": "a",
              "type": "tuple"
            },
            {
              "components": [
                {
                  "components": [
                    {
                      "internalType": "bytes",
                      "name": "val",
                      "type": "bytes"
                    },
                    {
                      "internalType": "bool",
                      "name": "neg",
                      "type": "bool"
                    },
                    {
                      "internalType": "uint256",
                      "name": "bitlen",
                      "type": "uint256"
                    }
                  ],
                  "internalType": "struct BigNumber",
                  "name": "value",
                  "type": "tuple"
                }
              ],
              "internalType": "struct Zp",
              "name": "b",
              "type": "tuple"
            }
          ],
          "internalType": "struct Zp_2",
          "name": "x",
          "type": "tuple"
        },
        {
          "components": [
            {
              "components": [
                {
                  "components": [
                    {
                      "internalType": "bytes",
                      "name": "val",
                      "type": "bytes"
                    },
                    {
                      "internalType": "bool",
                      "name": "neg",
                      "type": "bool"
                    },
                    {
                      "internalType": "uint256",
                      "name": "bitlen",
                      "type": "uint256"
                    }
                  ],
                  "internalType": "struct BigNumber",
                  "name": "value",
                  "type": "tuple"
                }
              ],
              "internalType": "struct Zp",
              "name": "a",
              "type": "tuple"
            },
            {
              "components": [
                {
                  "components": [
                    {
                      "internalType": "bytes",
                      "name": "val",
                      "type": "bytes"
                    },
                    {
                      "internalType": "bool",
                      "name": "neg",
                      "type": "bool"
                    },
                    {
                      "internalType": "uint256",
                      "name": "bitlen",
                      "type": "uint256"
                    }
                  ],
                  "internalType": "struct BigNumber",
                  "name": "value",
                  "type": "tuple"
                }
              ],
              "internalType": "struct Zp",
              "name": "b",
              "type": "tuple"
            }
          ],
          "internalType": "struct Zp_2",
          "name": "y",
          "type": "tuple"
        }
      ],
      "name": "sum",
      "outputs": [
        {
          "components": [
            {
              "components": [
                {
                  "components": [
                    {
                      "internalType": "bytes",
                      "name": "val",
                      "type": "bytes"
                    },
                    {
                      "internalType": "bool",
                      "name": "neg",
                      "type": "bool"
                    },
                    {
                      "internalType": "uint256",
                      "name": "bitlen",
                      "type": "uint256"
                    }
                  ],
                  "internalType": "struct BigNumber",
                  "name": "value",
                  "type": "tuple"
                }
              ],
              "internalType": "struct Zp",
              "name": "a",
              "type": "tuple"
            },
            {
              "components": [
                {
                  "components": [
                    {
                      "internalType": "bytes",
                      "name": "val",
                      "type": "bytes"
                    },
                    {
                      "internalType": "bool",
                      "name": "neg",
                      "type": "bool"
                    },
                    {
                      "internalType": "uint256",
                      "name": "bitlen",
                      "type": "uint256"
                    }
                  ],
                  "internalType": "struct BigNumber",
                  "name": "value",
                  "type": "tuple"
                }
              ],
              "internalType": "struct Zp",
              "name": "b",
              "type": "tuple"
            }
          ],
          "internalType": "struct Zp_2",
          "name": "",
          "type": "tuple"
        }
      ],
      "stateMutability": "view",
      "type": "function"
    },
    {
      "inputs": [],
      "name": "three",
      "outputs": [
        {
          "components": [
            {
              "components": [
                {
                  "components": [
                    {
                      "internalType": "bytes",
                      "name": "val",
                      "type": "bytes"
                    },
                    {
                      "internalType": "bool",
                      "name": "neg",
                      "type": "bool"
                    },
                    {
                      "internalType": "uint256",
                      "name": "bitlen",
                      "type": "uint256"
                    }
                  ],
                  "internalType": "struct BigNumber",
                  "name": "value",
                  "type": "tuple"
                }
              ],
              "internalType": "struct Zp",
              "name": "a",
              "type": "tuple"
            },
            {
              "components": [
                {
                  "components": [
                    {
                      "internalType": "bytes",
                      "name": "val",
                      "type": "bytes"
                    },
                    {
                      "internalType": "bool",
                      "name": "neg",
                      "type": "bool"
                    },
                    {
                      "internalType": "uint256",
                      "name": "bitlen",
                      "type": "uint256"
                    }
                  ],
                  "internalType": "struct BigNumber",
                  "name": "value",
                  "type": "tuple"
                }
              ],
              "internalType": "struct Zp",
              "name": "b",
              "type": "tuple"
            }
          ],
          "internalType": "struct Zp_2",
          "name": "",
          "type": "tuple"
        }
      ],
      "stateMutability": "view",
      "type": "function"
    },
    {
      "inputs": [],
      "name": "two",
      "outputs": [
        {
          "components": [
            {
              "components": [
                {
                  "components": [
                    {
                      "internalType": "bytes",
                      "name": "val",
                      "type": "bytes"
                    },
                    {
                      "internalType": "bool",
                      "name": "neg",
                      "type": "bool"
                    },
                    {
                      "internalType": "uint256",
                      "name": "bitlen",
                      "type": "uint256"
                    }
                  ],
                  "internalType": "struct BigNumber",
                  "name": "value",
                  "type": "tuple"
                }
              ],
              "internalType": "struct Zp",
              "name": "a",
              "type": "tuple"
            },
            {
              "components": [
                {
                  "components": [
                    {
                      "internalType": "bytes",
                      "name": "val",
                      "type": "bytes"
                    },
                    {
                      "internalType": "bool",
                      "name": "neg",
                      "type": "bool"
                    },
                    {
                      "internalType": "uint256",
                      "name": "bitlen",
                      "type": "uint256"
                    }
                  ],
                  "internalType": "struct BigNumber",
                  "name": "value",
                  "type": "tuple"
                }
              ],
              "internalType": "struct Zp",
              "name": "b",
              "type": "tuple"
            }
          ],
          "internalType": "struct Zp_2",
          "name": "",
          "type": "tuple"
        }
      ],
      "stateMutability": "view",
      "type": "function"
    },
    {
      "inputs": [],
      "name": "zero",
      "outputs": [
        {
          "components": [
            {
              "components": [
                {
                  "components": [
                    {
                      "internalType": "bytes",
                      "name": "val",
                      "type": "bytes"
                    },
                    {
                      "internalType": "bool",
                      "name": "neg",
                      "type": "bool"
                    },
                    {
                      "internalType": "uint256",
                      "name": "bitlen",
                      "type": "uint256"
                    }
                  ],
                  "internalType": "struct BigNumber",
                  "name": "value",
                  "type": "tuple"
                }
              ],
              "internalType": "struct Zp",
              "name": "a",
              "type": "tuple"
            },
            {
              "components": [
                {
                  "components": [
                    {
                      "internalType": "bytes",
                      "name": "val",
                      "type": "bytes"
                    },
                    {
                      "internalType": "bool",
                      "name": "neg",
                      "type": "bool"
                    },
                    {
                      "internalType": "uint256",
                      "name": "bitlen",
                      "type": "uint256"
                    }
                  ],
                  "internalType": "struct BigNumber",
                  "name": "value",
                  "type": "tuple"
                }
              ],
              "internalType": "struct Zp",
              "name": "b",
              "type": "tuple"
            }
          ],
          "internalType": "struct Zp_2",
          "name": "",
          "type": "tuple"
        }
      ],
      "stateMutability": "view",
      "type": "function"
    }
  ],
  "bytecode": "0x608060405234801561001057600080fd5b506040516123a63803806123a6833981810160405281019061003291906100ed565b806000806101000a81548173ffffffffffffffffffffffffffffffffffffffff021916908373ffffffffffffffffffffffffffffffffffffffff1602179055505061011a565b600080fd5b600073ffffffffffffffffffffffffffffffffffffffff82169050919050565b60006100a88261007d565b9050919050565b60006100ba8261009d565b9050919050565b6100ca816100af565b81146100d557600080fd5b50565b6000815190506100e7816100c1565b92915050565b60006020828403121561010357610102610078565b5b6000610111848285016100d8565b91505092915050565b61227d806101296000396000f3fe608060405234801561001057600080fd5b50600436106100ea5760003560e01c8063901717d11161008c578063ab80cf7611610066578063ab80cf7614610287578063bc1b392d146102b7578063c700da6b146102d5578063fbb740a814610305576100ea565b8063901717d11461021b5780639d2e83f514610239578063a1fca2b614610269576100ea565b80635f6910d4116100c85780635f6910d41461016d5780635fdf05d71461019d57806364c044fe146101bb57806376cfdd66146101eb576100ea565b806307a5ecaa146100ef578063232b9e5a1461011f57806345caa1171461014f575b600080fd5b61010960048036038101906101049190611cb3565b610335565b6040516101169190611e86565b60405180910390f35b61013960048036038101906101349190611cb3565b61072f565b6040516101469190611e86565b60405180910390f35b610157610751565b6040516101649190611e86565b60405180910390f35b61018760048036038101906101829190611cb3565b61088e565b6040516101949190611e86565b60405180910390f35b6101a56109f8565b6040516101b29190611e86565b60405180910390f35b6101d560048036038101906101d09190611ea8565b610b35565b6040516101e29190611e86565b60405180910390f35b61020560048036038101906102009190611ef1565b61105e565b6040516102129190611e86565b60405180910390f35b610223611115565b6040516102309190611e86565b60405180910390f35b610253600480360381019061024e9190611ea8565b611252565b6040516102609190611e86565b60405180910390f35b6102716113bb565b60405161027e9190611e86565b60405180910390f35b6102a1600480360381019061029c9190611cb3565b6114f8565b6040516102ae9190611f49565b60405180910390f35b6102bf611653565b6040516102cc9190611e86565b60405180910390f35b6102ef60048036038101906102ea9190611f64565b611790565b6040516102fc9190611e86565b60405180910390f35b61031f600480360381019061031a9190611cb3565b6117b5565b60405161032c9190611e86565b60405180910390f35b61033d61191f565b61072760008054906101000a900473ffffffffffffffffffffffffffffffffffffffff1673ffffffffffffffffffffffffffffffffffffffff1663fb2bedad60008054906101000a900473ffffffffffffffffffffffffffffffffffffffff1673ffffffffffffffffffffffffffffffffffffffff1663b5e28325876000015187600001516040518363ffffffff1660e01b81526004016103df929190612006565b600060405180830381865afa1580156103fc573d6000803e3d6000fd5b505050506040513d6000823e3d601f19601f8201168201806040525081019061042591906121af565b60008054906101000a900473ffffffffffffffffffffffffffffffffffffffff1673ffffffffffffffffffffffffffffffffffffffff1663b5e28325886020015188602001516040518363ffffffff1660e01b8152600401610488929190612006565b600060405180830381865afa1580156104a5573d6000803e3d6000fd5b505050506040513d6000823e3d601f19601f820116820180604052508101906104ce91906121af565b6040518363ffffffff1660e01b81526004016104eb929190612006565b600060405180830381865afa158015610508573d6000803e3d6000fd5b505050506040513d6000823e3d601f19601f8201168201806040525081019061053191906121af565b60008054906101000a900473ffffffffffffffffffffffffffffffffffffffff1673ffffffffffffffffffffffffffffffffffffffff1663a9a52e7e60008054906101000a900473ffffffffffffffffffffffffffffffffffffffff1673ffffffffffffffffffffffffffffffffffffffff1663b5e28325886000015188602001516040518363ffffffff1660e01b81526004016105d0929190612006565b600060405180830381865afa1580156105ed573d6000803e3d6000fd5b505050506040513d6000823e3d601f19601f8201168201806040525081019061061691906121af565b60008054906101000a900473ffffffffffffffffffffffffffffffffffffffff1673ffffffffffffffffffffffffffffffffffffffff1663b5e28325896020015189600001516040518363ffffffff1660e01b8152600401610679929190612006565b600060405180830381865afa158015610696573d6000803e3d6000fd5b505050506040513d6000823e3d601f19601f820116820180604052508101906106bf91906121af565b6040518363ffffffff1660e01b81526004016106dc929190612006565b600060405180830381865afa1580156106f9573d6000803e3d6000fd5b505050506040513d6000823e3d601f19601f8201168201806040525081019061072291906121af565b611790565b905092915050565b61073761191f565b6107498361074484610b35565b610335565b905092915050565b61075961191f565b61088960008054906101000a900473ffffffffffffffffffffffffffffffffffffffff1673ffffffffffffffffffffffffffffffffffffffff166345caa1176040518163ffffffff1660e01b8152600401600060405180830381865afa1580156107c7573d6000803e3d6000fd5b505050506040513d6000823e3d601f19601f820116820180604052508101906107f091906121af565b60008054906101000a900473ffffffffffffffffffffffffffffffffffffffff1673ffffffffffffffffffffffffffffffffffffffff1663bc1b392d6040518163ffffffff1660e01b8152600401600060405180830381865afa15801561085b573d6000803e3d6000fd5b505050506040513d6000823e3d601f19601f8201168201806040525081019061088491906121af565b611790565b905090565b61089661191f565b6109f060008054906101000a900473ffffffffffffffffffffffffffffffffffffffff1673ffffffffffffffffffffffffffffffffffffffff1663fb2bedad856000015185600001516040518363ffffffff1660e01b81526004016108fc929190612006565b600060405180830381865afa158015610919573d6000803e3d6000fd5b505050506040513d6000823e3d601f19601f8201168201806040525081019061094291906121af565b60008054906101000a900473ffffffffffffffffffffffffffffffffffffffff1673ffffffffffffffffffffffffffffffffffffffff1663fb2bedad866020015186602001516040518363ffffffff1660e01b81526004016109a5929190612006565b600060405180830381865afa1580156109c2573d6000803e3d6000fd5b505050506040513d6000823e3d601f19601f820116820180604052508101906109eb91906121af565b611790565b905092915050565b610a0061191f565b610b3060008054906101000a900473ffffffffffffffffffffffffffffffffffffffff1673ffffffffffffffffffffffffffffffffffffffff16635fdf05d76040518163ffffffff1660e01b8152600401600060405180830381865afa158015610a6e573d6000803e3d6000fd5b505050506040513d6000823e3d601f19601f82011682018060405250810190610a9791906121af565b60008054906101000a900473ffffffffffffffffffffffffffffffffffffffff1673ffffffffffffffffffffffffffffffffffffffff1663bc1b392d6040518163ffffffff1660e01b8152600401600060405180830381865afa158015610b02573d6000803e3d6000fd5b505050506040513d6000823e3d601f19601f82011682018060405250810190610b2b91906121af565b611790565b905090565b610b3d61191f565b60008060009054906101000a900473ffffffffffffffffffffffffffffffffffffffff1673ffffffffffffffffffffffffffffffffffffffff1663a672d10060008054906101000a900473ffffffffffffffffffffffffffffffffffffffff1673ffffffffffffffffffffffffffffffffffffffff1663a9a52e7e60008054906101000a900473ffffffffffffffffffffffffffffffffffffffff1673ffffffffffffffffffffffffffffffffffffffff1663b5e28325886000015189600001516040518363ffffffff1660e01b8152600401610c1b929190612006565b600060405180830381865afa158015610c38573d6000803e3d6000fd5b505050506040513d6000823e3d601f19601f82011682018060405250810190610c6191906121af565b60008054906101000a900473ffffffffffffffffffffffffffffffffffffffff1673ffffffffffffffffffffffffffffffffffffffff1663b5e2832589602001518a602001516040518363ffffffff1660e01b8152600401610cc4929190612006565b600060405180830381865afa158015610ce1573d6000803e3d6000fd5b505050506040513d6000823e3d601f19601f82011682018060405250810190610d0a91906121af565b6040518363ffffffff1660e01b8152600401610d27929190612006565b600060405180830381865afa158015610d44573d6000803e3d6000fd5b505050506040513d6000823e3d601f19601f82011682018060405250810190610d6d91906121af565b6040518263ffffffff1660e01b8152600401610d8991906121f8565b600060405180830381865afa158015610da6573d6000803e3d6000fd5b505050506040513d6000823e3d601f19601f82011682018060405250810190610dcf91906121af565b905061105660008054906101000a900473ffffffffffffffffffffffffffffffffffffffff1673ffffffffffffffffffffffffffffffffffffffff1663b5e283258560000151846040518363ffffffff1660e01b8152600401610e33929190612006565b600060405180830381865afa158015610e50573d6000803e3d6000fd5b505050506040513d6000823e3d601f19601f82011682018060405250810190610e7991906121af565b60008054906101000a900473ffffffffffffffffffffffffffffffffffffffff1673ffffffffffffffffffffffffffffffffffffffff1663b5e2832560008054906101000a900473ffffffffffffffffffffffffffffffffffffffff1673ffffffffffffffffffffffffffffffffffffffff1663fb2bedad60008054906101000a900473ffffffffffffffffffffffffffffffffffffffff1673ffffffffffffffffffffffffffffffffffffffff1663bc1b392d6040518163ffffffff1660e01b8152600401600060405180830381865afa158015610f5c573d6000803e3d6000fd5b505050506040513d6000823e3d601f19601f82011682018060405250810190610f8591906121af565b89602001516040518363ffffffff1660e01b8152600401610fa7929190612006565b600060405180830381865afa158015610fc4573d6000803e3d6000fd5b505050506040513d6000823e3d601f19601f82011682018060405250810190610fed91906121af565b856040518363ffffffff1660e01b815260040161100b929190612006565b600060405180830381865afa158015611028573d6000803e3d6000fd5b505050506040513d6000823e3d601f19601f8201168201806040525081019061105191906121af565b611790565b915050919050565b61106661191f565b604051806040016040528083815260200160008054906101000a900473ffffffffffffffffffffffffffffffffffffffff1673ffffffffffffffffffffffffffffffffffffffff1663bc1b392d6040518163ffffffff1660e01b8152600401600060405180830381865afa1580156110e2573d6000803e3d6000fd5b505050506040513d6000823e3d601f19601f8201168201806040525081019061110b91906121af565b8152509050919050565b61111d61191f565b61124d60008054906101000a900473ffffffffffffffffffffffffffffffffffffffff1673ffffffffffffffffffffffffffffffffffffffff1663901717d16040518163ffffffff1660e01b8152600401600060405180830381865afa15801561118b573d6000803e3d6000fd5b505050506040513d6000823e3d601f19601f820116820180604052508101906111b491906121af565b60008054906101000a900473ffffffffffffffffffffffffffffffffffffffff1673ffffffffffffffffffffffffffffffffffffffff1663bc1b392d6040518163ffffffff1660e01b8152600401600060405180830381865afa15801561121f573d6000803e3d6000fd5b505050506040513d6000823e3d601f19601f8201168201806040525081019061124891906121af565b611790565b905090565b61125a61191f565b6113b460008054906101000a900473ffffffffffffffffffffffffffffffffffffffff1673ffffffffffffffffffffffffffffffffffffffff1663fb2bedad846000015185602001516040518363ffffffff1660e01b81526004016112c0929190612006565b600060405180830381865afa1580156112dd573d6000803e3d6000fd5b505050506040513d6000823e3d601f19601f8201168201806040525081019061130691906121af565b60008054906101000a900473ffffffffffffffffffffffffffffffffffffffff1673ffffffffffffffffffffffffffffffffffffffff1663a9a52e7e856000015186602001516040518363ffffffff1660e01b8152600401611369929190612006565b600060405180830381865afa158015611386573d6000803e3d6000fd5b505050506040513d6000823e3d601f19601f820116820180604052508101906113af91906121af565b611790565b9050919050565b6113c361191f565b6114f360008054906101000a900473ffffffffffffffffffffffffffffffffffffffff1673ffffffffffffffffffffffffffffffffffffffff1663a1fca2b66040518163ffffffff1660e01b8152600401600060405180830381865afa158015611431573d6000803e3d6000fd5b505050506040513d6000823e3d601f19601f8201168201806040525081019061145a91906121af565b60008054906101000a900473ffffffffffffffffffffffffffffffffffffffff1673ffffffffffffffffffffffffffffffffffffffff1663bc1b392d6040518163ffffffff1660e01b8152600401600060405180830381865afa1580156114c5573d6000803e3d6000fd5b505050506040513d6000823e3d601f19601f820116820180604052508101906114ee91906121af565b611790565b905090565b60008060009054906101000a900473ffffffffffffffffffffffffffffffffffffffff1673ffffffffffffffffffffffffffffffffffffffff1663d4d45554846000015184600001516040518363ffffffff1660e01b815260040161155e929190612006565b602060405180830381865afa15801561157b573d6000803e3d6000fd5b505050506040513d601f19601f8201168201806040525081019061159f919061221a565b801561164b575060008054906101000a900473ffffffffffffffffffffffffffffffffffffffff1673ffffffffffffffffffffffffffffffffffffffff1663d4d45554846020015184602001516040518363ffffffff1660e01b8152600401611609929190612006565b602060405180830381865afa158015611626573d6000803e3d6000fd5b505050506040513d601f19601f8201168201806040525081019061164a919061221a565b5b905092915050565b61165b61191f565b61178b60008054906101000a900473ffffffffffffffffffffffffffffffffffffffff1673ffffffffffffffffffffffffffffffffffffffff1663bc1b392d6040518163ffffffff1660e01b8152600401600060405180830381865afa1580156116c9573d6000803e3d6000fd5b505050506040513d6000823e3d601f19601f820116820180604052508101906116f291906121af565b60008054906101000a900473ffffffffffffffffffffffffffffffffffffffff1673ffffffffffffffffffffffffffffffffffffffff1663bc1b392d6040518163ffffffff1660e01b8152600401600060405180830381865afa15801561175d573d6000803e3d6000fd5b505050506040513d6000823e3d601f19601f8201168201806040525081019061178691906121af565b611790565b905090565b61179861191f565b604051806040016040528084815260200183815250905092915050565b6117bd61191f565b61191760008054906101000a900473ffffffffffffffffffffffffffffffffffffffff1673ffffffffffffffffffffffffffffffffffffffff1663a9a52e7e856000015185600001516040518363ffffffff1660e01b8152600401611823929190612006565b600060405180830381865afa158015611840573d6000803e3d6000fd5b505050506040513d6000823e3d601f19601f8201168201806040525081019061186991906121af565b60008054906101000a900473ffffffffffffffffffffffffffffffffffffffff1673ffffffffffffffffffffffffffffffffffffffff1663a9a52e7e866020015186602001516040518363ffffffff1660e01b81526004016118cc929190612006565b600060405180830381865afa1580156118e9573d6000803e3d6000fd5b505050506040513d6000823e3d601f19601f8201168201806040525081019061191291906121af565b611790565b905092915050565b6040518060400160405280611932611945565b815260200161193f611945565b81525090565b604051806020016040528061195861195e565b81525090565b604051806060016040528060608152602001600015158152602001600081525090565b6000604051905090565b600080fd5b600080fd5b600080fd5b6000601f19601f8301169050919050565b7f4e487b7100000000000000000000000000000000000000000000000000000000600052604160045260246000fd5b6119e38261199a565b810181811067ffffffffffffffff82111715611a0257611a016119ab565b5b80604052505050565b6000611a15611981565b9050611a2182826119da565b919050565b600080fd5b600080fd5b600080fd5b600067ffffffffffffffff821115611a5057611a4f6119ab565b5b611a598261199a565b9050602081019050919050565b82818337600083830152505050565b6000611a88611a8384611a35565b611a0b565b905082815260208101848484011115611aa457611aa3611a30565b5b611aaf848285611a66565b509392505050565b600082601f830112611acc57611acb611a2b565b5b8135611adc848260208601611a75565b91505092915050565b60008115159050919050565b611afa81611ae5565b8114611b0557600080fd5b50565b600081359050611b1781611af1565b92915050565b6000819050919050565b611b3081611b1d565b8114611b3b57600080fd5b50565b600081359050611b4d81611b27565b92915050565b600060608284031215611b6957611b68611995565b5b611b736060611a0b565b9050600082013567ffffffffffffffff811115611b9357611b92611a26565b5b611b9f84828501611ab7565b6000830152506020611bb384828501611b08565b6020830152506040611bc784828501611b3e565b60408301525092915050565b600060208284031215611be957611be8611995565b5b611bf36020611a0b565b9050600082013567ffffffffffffffff811115611c1357611c12611a26565b5b611c1f84828501611b53565b60008301525092915050565b600060408284031215611c4157611c40611995565b5b611c4b6040611a0b565b9050600082013567ffffffffffffffff811115611c6b57611c6a611a26565b5b611c7784828501611bd3565b600083015250602082013567ffffffffffffffff811115611c9b57611c9a611a26565b5b611ca784828501611bd3565b60208301525092915050565b60008060408385031215611cca57611cc961198b565b5b600083013567ffffffffffffffff811115611ce857611ce7611990565b5b611cf485828601611c2b565b925050602083013567ffffffffffffffff811115611d1557611d14611990565b5b611d2185828601611c2b565b9150509250929050565b600081519050919050565b600082825260208201905092915050565b60005b83811015611d65578082015181840152602081019050611d4a565b60008484015250505050565b6000611d7c82611d2b565b611d868185611d36565b9350611d96818560208601611d47565b611d9f8161199a565b840191505092915050565b611db381611ae5565b82525050565b611dc281611b1d565b82525050565b60006060830160008301518482036000860152611de58282611d71565b9150506020830151611dfa6020860182611daa565b506040830151611e0d6040860182611db9565b508091505092915050565b60006020830160008301518482036000860152611e358282611dc8565b9150508091505092915050565b60006040830160008301518482036000860152611e5f8282611e18565b91505060208301518482036020860152611e798282611e18565b9150508091505092915050565b60006020820190508181036000830152611ea08184611e42565b905092915050565b600060208284031215611ebe57611ebd61198b565b5b600082013567ffffffffffffffff811115611edc57611edb611990565b5b611ee884828501611c2b565b91505092915050565b600060208284031215611f0757611f0661198b565b5b600082013567ffffffffffffffff811115611f2557611f24611990565b5b611f3184828501611bd3565b91505092915050565b611f4381611ae5565b82525050565b6000602082019050611f5e6000830184611f3a565b92915050565b60008060408385031215611f7b57611f7a61198b565b5b600083013567ffffffffffffffff811115611f9957611f98611990565b5b611fa585828601611bd3565b925050602083013567ffffffffffffffff811115611fc657611fc5611990565b5b611fd285828601611bd3565b9150509250929050565b60006020830160008301518482036000860152611ff98282611dc8565b9150508091505092915050565b600060408201905081810360008301526120208185611fdc565b905081810360208301526120348184611fdc565b90509392505050565b600061205061204b84611a35565b611a0b565b90508281526020810184848401111561206c5761206b611a30565b5b612077848285611d47565b509392505050565b600082601f83011261209457612093611a2b565b5b81516120a484826020860161203d565b91505092915050565b6000815190506120bc81611af1565b92915050565b6000815190506120d181611b27565b92915050565b6000606082840312156120ed576120ec611995565b5b6120f76060611a0b565b9050600082015167ffffffffffffffff81111561211757612116611a26565b5b6121238482850161207f565b6000830152506020612137848285016120ad565b602083015250604061214b848285016120c2565b60408301525092915050565b60006020828403121561216d5761216c611995565b5b6121776020611a0b565b9050600082015167ffffffffffffffff81111561219757612196611a26565b5b6121a3848285016120d7565b60008301525092915050565b6000602082840312156121c5576121c461198b565b5b600082015167ffffffffffffffff8111156121e3576121e2611990565b5b6121ef84828501612157565b91505092915050565b600060208201905081810360008301526122128184611fdc565b905092915050565b6000602082840312156122305761222f61198b565b5b600061223e848285016120ad565b9150509291505056fea2646970667358221220c0b0f4174595a1542f5edabd8eb7ee4127a8368bb7d074ce4cb7f958c003441364736f6c634300081b0033",
  "linkReferences": {},
  "deployedLinkReferences": {}
}