{
  "_format": "hh-sol-artifact-1",
  "contractName": "QuadraticExtension",
  "sourceName": "contracts/field/quadraticExtension.sol",
  "abi": [
    {
      "inputs": [
        {
          "internalType": "contract BigFiniteField",
          "name": "field",
          "type": "address"
        }
      ],
      "stateMutability": "nonpayable",
      "type": "constructor"
    },
    {
      "inputs": [
        {
          "components": [
            {
              "components": [
                {
                  "internalType": "bytes",
                  "name": "val",
                  "type": "bytes"
                },
                {
                  "internalType": "bool",
                  "name": "neg",
                  "type": "bool"
                },
                {
                  "internalType": "uint256",
                  "name": "bitlen",
                  "type": "uint256"
                }
              ],
              "internalType": "struct BigNumber",
              "name": "value",
              "type": "tuple"
            }
          ],
          "internalType": "struct Zp",
          "name": "a",
          "type": "tuple"
        },
        {
          "components": [
            {
              "components": [
                {
                  "internalType": "bytes",
                  "name": "val",
                  "type": "bytes"
                },
                {
                  "internalType": "bool",
                  "name": "neg",
                  "type": "bool"
                },
                {
                  "internalType": "uint256",
                  "name": "bitlen",
                  "type": "uint256"
                }
              ],
              "internalType": "struct BigNumber",
              "name": "value",
              "type": "tuple"
            }
          ],
          "internalType": "struct Zp",
          "name": "b",
          "type": "tuple"
        }
      ],
      "name": "createElement",
      "outputs": [
        {
          "components": [
            {
              "components": [
                {
                  "components": [
                    {
                      "internalType": "bytes",
                      "name": "val",
                      "type": "bytes"
                    },
                    {
                      "internalType": "bool",
                      "name": "neg",
                      "type": "bool"
                    },
                    {
                      "internalType": "uint256",
                      "name": "bitlen",
                      "type": "uint256"
                    }
                  ],
                  "internalType": "struct BigNumber",
                  "name": "value",
                  "type": "tuple"
                }
              ],
              "internalType": "struct Zp",
              "name": "a",
              "type": "tuple"
            },
            {
              "components": [
                {
                  "components": [
                    {
                      "internalType": "bytes",
                      "name": "val",
                      "type": "bytes"
                    },
                    {
                      "internalType": "bool",
                      "name": "neg",
                      "type": "bool"
                    },
                    {
                      "internalType": "uint256",
                      "name": "bitlen",
                      "type": "uint256"
                    }
                  ],
                  "internalType": "struct BigNumber",
                  "name": "value",
                  "type": "tuple"
                }
              ],
              "internalType": "struct Zp",
              "name": "b",
              "type": "tuple"
            }
          ],
          "internalType": "struct Zp_2",
          "name": "",
          "type": "tuple"
        }
      ],
      "stateMutability": "pure",
      "type": "function"
    },
    {
      "inputs": [
        {
          "components": [
            {
              "components": [
                {
                  "components": [
                    {
                      "internalType": "bytes",
                      "name": "val",
                      "type": "bytes"
                    },
                    {
                      "internalType": "bool",
                      "name": "neg",
                      "type": "bool"
                    },
                    {
                      "internalType": "uint256",
                      "name": "bitlen",
                      "type": "uint256"
                    }
                  ],
                  "internalType": "struct BigNumber",
                  "name": "value",
                  "type": "tuple"
                }
              ],
              "internalType": "struct Zp",
              "name": "a",
              "type": "tuple"
            },
            {
              "components": [
                {
                  "components": [
                    {
                      "internalType": "bytes",
                      "name": "val",
                      "type": "bytes"
                    },
                    {
                      "internalType": "bool",
                      "name": "neg",
                      "type": "bool"
                    },
                    {
                      "internalType": "uint256",
                      "name": "bitlen",
                      "type": "uint256"
                    }
                  ],
                  "internalType": "struct BigNumber",
                  "name": "value",
                  "type": "tuple"
                }
              ],
              "internalType": "struct Zp",
              "name": "b",
              "type": "tuple"
            }
          ],
          "internalType": "struct Zp_2",
          "name": "x",
          "type": "tuple"
        },
        {
          "components": [
            {
              "components": [
                {
                  "components": [
                    {
                      "internalType": "bytes",
                      "name": "val",
                      "type": "bytes"
                    },
                    {
                      "internalType": "bool",
                      "name": "neg",
                      "type": "bool"
                    },
                    {
                      "internalType": "uint256",
                      "name": "bitlen",
                      "type": "uint256"
                    }
                  ],
                  "internalType": "struct BigNumber",
                  "name": "value",
                  "type": "tuple"
                }
              ],
              "internalType": "struct Zp",
              "name": "a",
              "type": "tuple"
            },
            {
              "components": [
                {
                  "components": [
                    {
                      "internalType": "bytes",
                      "name": "val",
                      "type": "bytes"
                    },
                    {
                      "internalType": "bool",
                      "name": "neg",
                      "type": "bool"
                    },
                    {
                      "internalType": "uint256",
                      "name": "bitlen",
                      "type": "uint256"
                    }
                  ],
                  "internalType": "struct BigNumber",
                  "name": "value",
                  "type": "tuple"
                }
              ],
              "internalType": "struct Zp",
              "name": "b",
              "type": "tuple"
            }
          ],
          "internalType": "struct Zp_2",
          "name": "y",
          "type": "tuple"
        }
      ],
      "name": "div",
      "outputs": [
        {
          "components": [
            {
              "components": [
                {
                  "components": [
                    {
                      "internalType": "bytes",
                      "name": "val",
                      "type": "bytes"
                    },
                    {
                      "internalType": "bool",
                      "name": "neg",
                      "type": "bool"
                    },
                    {
                      "internalType": "uint256",
                      "name": "bitlen",
                      "type": "uint256"
                    }
                  ],
                  "internalType": "struct BigNumber",
                  "name": "value",
                  "type": "tuple"
                }
              ],
              "internalType": "struct Zp",
              "name": "a",
              "type": "tuple"
            },
            {
              "components": [
                {
                  "components": [
                    {
                      "internalType": "bytes",
                      "name": "val",
                      "type": "bytes"
                    },
                    {
                      "internalType": "bool",
                      "name": "neg",
                      "type": "bool"
                    },
                    {
                      "internalType": "uint256",
                      "name": "bitlen",
                      "type": "uint256"
                    }
                  ],
                  "internalType": "struct BigNumber",
                  "name": "value",
                  "type": "tuple"
                }
              ],
              "internalType": "struct Zp",
              "name": "b",
              "type": "tuple"
            }
          ],
          "internalType": "struct Zp_2",
          "name": "",
          "type": "tuple"
        }
      ],
      "stateMutability": "view",
      "type": "function"
    },
    {
      "inputs": [
        {
          "components": [
            {
              "components": [
                {
                  "components": [
                    {
                      "internalType": "bytes",
                      "name": "val",
                      "type": "bytes"
                    },
                    {
                      "internalType": "bool",
                      "name": "neg",
                      "type": "bool"
                    },
                    {
                      "internalType": "uint256",
                      "name": "bitlen",
                      "type": "uint256"
                    }
                  ],
                  "internalType": "struct BigNumber",
                  "name": "value",
                  "type": "tuple"
                }
              ],
              "internalType": "struct Zp",
              "name": "a",
              "type": "tuple"
            },
            {
              "components": [
                {
                  "components": [
                    {
                      "internalType": "bytes",
                      "name": "val",
                      "type": "bytes"
                    },
                    {
                      "internalType": "bool",
                      "name": "neg",
                      "type": "bool"
                    },
                    {
                      "internalType": "uint256",
                      "name": "bitlen",
                      "type": "uint256"
                    }
                  ],
                  "internalType": "struct BigNumber",
                  "name": "value",
                  "type": "tuple"
                }
              ],
              "internalType": "struct Zp",
              "name": "b",
              "type": "tuple"
            }
          ],
          "internalType": "struct Zp_2",
          "name": "x",
          "type": "tuple"
        },
        {
          "components": [
            {
              "components": [
                {
                  "components": [
                    {
                      "internalType": "bytes",
                      "name": "val",
                      "type": "bytes"
                    },
                    {
                      "internalType": "bool",
                      "name": "neg",
                      "type": "bool"
                    },
                    {
                      "internalType": "uint256",
                      "name": "bitlen",
                      "type": "uint256"
                    }
                  ],
                  "internalType": "struct BigNumber",
                  "name": "value",
                  "type": "tuple"
                }
              ],
              "internalType": "struct Zp",
              "name": "a",
              "type": "tuple"
            },
            {
              "components": [
                {
                  "components": [
                    {
                      "internalType": "bytes",
                      "name": "val",
                      "type": "bytes"
                    },
                    {
                      "internalType": "bool",
                      "name": "neg",
                      "type": "bool"
                    },
                    {
                      "internalType": "uint256",
                      "name": "bitlen",
                      "type": "uint256"
                    }
                  ],
                  "internalType": "struct BigNumber",
                  "name": "value",
                  "type": "tuple"
                }
              ],
              "internalType": "struct Zp",
              "name": "b",
              "type": "tuple"
            }
          ],
          "internalType": "struct Zp_2",
          "name": "y",
          "type": "tuple"
        }
      ],
      "name": "equals",
      "outputs": [
        {
          "internalType": "bool",
          "name": "",
          "type": "bool"
        }
      ],
      "stateMutability": "view",
      "type": "function"
    },
    {
      "inputs": [],
      "name": "four",
      "outputs": [
        {
          "components": [
            {
              "components": [
                {
                  "components": [
                    {
                      "internalType": "bytes",
                      "name": "val",
                      "type": "bytes"
                    },
                    {
                      "internalType": "bool",
                      "name": "neg",
                      "type": "bool"
                    },
                    {
                      "internalType": "uint256",
                      "name": "bitlen",
                      "type": "uint256"
                    }
                  ],
                  "internalType": "struct BigNumber",
                  "name": "value",
                  "type": "tuple"
                }
              ],
              "internalType": "struct Zp",
              "name": "a",
              "type": "tuple"
            },
            {
              "components": [
                {
                  "components": [
                    {
                      "internalType": "bytes",
                      "name": "val",
                      "type": "bytes"
                    },
                    {
                      "internalType": "bool",
                      "name": "neg",
                      "type": "bool"
                    },
                    {
                      "internalType": "uint256",
                      "name": "bitlen",
                      "type": "uint256"
                    }
                  ],
                  "internalType": "struct BigNumber",
                  "name": "value",
                  "type": "tuple"
                }
              ],
              "internalType": "struct Zp",
              "name": "b",
              "type": "tuple"
            }
          ],
          "internalType": "struct Zp_2",
          "name": "",
          "type": "tuple"
        }
      ],
      "stateMutability": "view",
      "type": "function"
    },
    {
      "inputs": [
        {
          "components": [
            {
              "components": [
                {
                  "components": [
                    {
                      "internalType": "bytes",
                      "name": "val",
                      "type": "bytes"
                    },
                    {
                      "internalType": "bool",
                      "name": "neg",
                      "type": "bool"
                    },
                    {
                      "internalType": "uint256",
                      "name": "bitlen",
                      "type": "uint256"
                    }
                  ],
                  "internalType": "struct BigNumber",
                  "name": "value",
                  "type": "tuple"
                }
              ],
              "internalType": "struct Zp",
              "name": "a",
              "type": "tuple"
            },
            {
              "components": [
                {
                  "components": [
                    {
                      "internalType": "bytes",
                      "name": "val",
                      "type": "bytes"
                    },
                    {
                      "internalType": "bool",
                      "name": "neg",
                      "type": "bool"
                    },
                    {
                      "internalType": "uint256",
                      "name": "bitlen",
                      "type": "uint256"
                    }
                  ],
                  "internalType": "struct BigNumber",
                  "name": "value",
                  "type": "tuple"
                }
              ],
              "internalType": "struct Zp",
              "name": "b",
              "type": "tuple"
            }
          ],
          "internalType": "struct Zp_2",
          "name": "x",
          "type": "tuple"
        }
      ],
      "name": "inverse",
      "outputs": [
        {
          "components": [
            {
              "components": [
                {
                  "components": [
                    {
                      "internalType": "bytes",
                      "name": "val",
                      "type": "bytes"
                    },
                    {
                      "internalType": "bool",
                      "name": "neg",
                      "type": "bool"
                    },
                    {
                      "internalType": "uint256",
                      "name": "bitlen",
                      "type": "uint256"
                    }
                  ],
                  "internalType": "struct BigNumber",
                  "name": "value",
                  "type": "tuple"
                }
              ],
              "internalType": "struct Zp",
              "name": "a",
              "type": "tuple"
            },
            {
              "components": [
                {
                  "components": [
                    {
                      "internalType": "bytes",
                      "name": "val",
                      "type": "bytes"
                    },
                    {
                      "internalType": "bool",
                      "name": "neg",
                      "type": "bool"
                    },
                    {
                      "internalType": "uint256",
                      "name": "bitlen",
                      "type": "uint256"
                    }
                  ],
                  "internalType": "struct BigNumber",
                  "name": "value",
                  "type": "tuple"
                }
              ],
              "internalType": "struct Zp",
              "name": "b",
              "type": "tuple"
            }
          ],
          "internalType": "struct Zp_2",
          "name": "",
          "type": "tuple"
        }
      ],
      "stateMutability": "view",
      "type": "function"
    },
    {
      "inputs": [
        {
          "components": [
            {
              "components": [
                {
                  "components": [
                    {
                      "internalType": "bytes",
                      "name": "val",
                      "type": "bytes"
                    },
                    {
                      "internalType": "bool",
                      "name": "neg",
                      "type": "bool"
                    },
                    {
                      "internalType": "uint256",
                      "name": "bitlen",
                      "type": "uint256"
                    }
                  ],
                  "internalType": "struct BigNumber",
                  "name": "value",
                  "type": "tuple"
                }
              ],
              "internalType": "struct Zp",
              "name": "a",
              "type": "tuple"
            },
            {
              "components": [
                {
                  "components": [
                    {
                      "internalType": "bytes",
                      "name": "val",
                      "type": "bytes"
                    },
                    {
                      "internalType": "bool",
                      "name": "neg",
                      "type": "bool"
                    },
                    {
                      "internalType": "uint256",
                      "name": "bitlen",
                      "type": "uint256"
                    }
                  ],
                  "internalType": "struct BigNumber",
                  "name": "value",
                  "type": "tuple"
                }
              ],
              "internalType": "struct Zp",
              "name": "b",
              "type": "tuple"
            }
          ],
          "internalType": "struct Zp_2",
          "name": "x",
          "type": "tuple"
        },
        {
          "components": [
            {
              "components": [
                {
                  "components": [
                    {
                      "internalType": "bytes",
                      "name": "val",
                      "type": "bytes"
                    },
                    {
                      "internalType": "bool",
                      "name": "neg",
                      "type": "bool"
                    },
                    {
                      "internalType": "uint256",
                      "name": "bitlen",
                      "type": "uint256"
                    }
                  ],
                  "internalType": "struct BigNumber",
                  "name": "value",
                  "type": "tuple"
                }
              ],
              "internalType": "struct Zp",
              "name": "a",
              "type": "tuple"
            },
            {
              "components": [
                {
                  "components": [
                    {
                      "internalType": "bytes",
                      "name": "val",
                      "type": "bytes"
                    },
                    {
                      "internalType": "bool",
                      "name": "neg",
                      "type": "bool"
                    },
                    {
                      "internalType": "uint256",
                      "name": "bitlen",
                      "type": "uint256"
                    }
                  ],
                  "internalType": "struct BigNumber",
                  "name": "value",
                  "type": "tuple"
                }
              ],
              "internalType": "struct Zp",
              "name": "b",
              "type": "tuple"
            }
          ],
          "internalType": "struct Zp_2",
          "name": "y",
          "type": "tuple"
        }
      ],
      "name": "mul",
      "outputs": [
        {
          "components": [
            {
              "components": [
                {
                  "components": [
                    {
                      "internalType": "bytes",
                      "name": "val",
                      "type": "bytes"
                    },
                    {
                      "internalType": "bool",
                      "name": "neg",
                      "type": "bool"
                    },
                    {
                      "internalType": "uint256",
                      "name": "bitlen",
                      "type": "uint256"
                    }
                  ],
                  "internalType": "struct BigNumber",
                  "name": "value",
                  "type": "tuple"
                }
              ],
              "internalType": "struct Zp",
              "name": "a",
              "type": "tuple"
            },
            {
              "components": [
                {
                  "components": [
                    {
                      "internalType": "bytes",
                      "name": "val",
                      "type": "bytes"
                    },
                    {
                      "internalType": "bool",
                      "name": "neg",
                      "type": "bool"
                    },
                    {
                      "internalType": "uint256",
                      "name": "bitlen",
                      "type": "uint256"
                    }
                  ],
                  "internalType": "struct BigNumber",
                  "name": "value",
                  "type": "tuple"
                }
              ],
              "internalType": "struct Zp",
              "name": "b",
              "type": "tuple"
            }
          ],
          "internalType": "struct Zp_2",
          "name": "",
          "type": "tuple"
        }
      ],
      "stateMutability": "view",
      "type": "function"
    },
    {
      "inputs": [
        {
          "components": [
            {
              "components": [
                {
                  "components": [
                    {
                      "internalType": "bytes",
                      "name": "val",
                      "type": "bytes"
                    },
                    {
                      "internalType": "bool",
                      "name": "neg",
                      "type": "bool"
                    },
                    {
                      "internalType": "uint256",
                      "name": "bitlen",
                      "type": "uint256"
                    }
                  ],
                  "internalType": "struct BigNumber",
                  "name": "value",
                  "type": "tuple"
                }
              ],
              "internalType": "struct Zp",
              "name": "a",
              "type": "tuple"
            },
            {
              "components": [
                {
                  "components": [
                    {
                      "internalType": "bytes",
                      "name": "val",
                      "type": "bytes"
                    },
                    {
                      "internalType": "bool",
                      "name": "neg",
                      "type": "bool"
                    },
                    {
                      "internalType": "uint256",
                      "name": "bitlen",
                      "type": "uint256"
                    }
                  ],
                  "internalType": "struct BigNumber",
                  "name": "value",
                  "type": "tuple"
                }
              ],
              "internalType": "struct Zp",
              "name": "b",
              "type": "tuple"
            }
          ],
          "internalType": "struct Zp_2",
          "name": "x",
          "type": "tuple"
        }
      ],
      "name": "mul_nonres",
      "outputs": [
        {
          "components": [
            {
              "components": [
                {
                  "components": [
                    {
                      "internalType": "bytes",
                      "name": "val",
                      "type": "bytes"
                    },
                    {
                      "internalType": "bool",
                      "name": "neg",
                      "type": "bool"
                    },
                    {
                      "internalType": "uint256",
                      "name": "bitlen",
                      "type": "uint256"
                    }
                  ],
                  "internalType": "struct BigNumber",
                  "name": "value",
                  "type": "tuple"
                }
              ],
              "internalType": "struct Zp",
              "name": "a",
              "type": "tuple"
            },
            {
              "components": [
                {
                  "components": [
                    {
                      "internalType": "bytes",
                      "name": "val",
                      "type": "bytes"
                    },
                    {
                      "internalType": "bool",
                      "name": "neg",
                      "type": "bool"
                    },
                    {
                      "internalType": "uint256",
                      "name": "bitlen",
                      "type": "uint256"
                    }
                  ],
                  "internalType": "struct BigNumber",
                  "name": "value",
                  "type": "tuple"
                }
              ],
              "internalType": "struct Zp",
              "name": "b",
              "type": "tuple"
            }
          ],
          "internalType": "struct Zp_2",
          "name": "",
          "type": "tuple"
        }
      ],
      "stateMutability": "view",
      "type": "function"
    },
    {
      "inputs": [],
      "name": "one",
      "outputs": [
        {
          "components": [
            {
              "components": [
                {
                  "components": [
                    {
                      "internalType": "bytes",
                      "name": "val",
                      "type": "bytes"
                    },
                    {
                      "internalType": "bool",
                      "name": "neg",
                      "type": "bool"
                    },
                    {
                      "internalType": "uint256",
                      "name": "bitlen",
                      "type": "uint256"
                    }
                  ],
                  "internalType": "struct BigNumber",
                  "name": "value",
                  "type": "tuple"
                }
              ],
              "internalType": "struct Zp",
              "name": "a",
              "type": "tuple"
            },
            {
              "components": [
                {
                  "components": [
                    {
                      "internalType": "bytes",
                      "name": "val",
                      "type": "bytes"
                    },
                    {
                      "internalType": "bool",
                      "name": "neg",
                      "type": "bool"
                    },
                    {
                      "internalType": "uint256",
                      "name": "bitlen",
                      "type": "uint256"
                    }
                  ],
                  "internalType": "struct BigNumber",
                  "name": "value",
                  "type": "tuple"
                }
              ],
              "internalType": "struct Zp",
              "name": "b",
              "type": "tuple"
            }
          ],
          "internalType": "struct Zp_2",
          "name": "",
          "type": "tuple"
        }
      ],
      "stateMutability": "view",
      "type": "function"
    },
    {
      "inputs": [
        {
          "components": [
            {
              "components": [
                {
                  "components": [
                    {
                      "internalType": "bytes",
                      "name": "val",
                      "type": "bytes"
                    },
                    {
                      "internalType": "bool",
                      "name": "neg",
                      "type": "bool"
                    },
                    {
                      "internalType": "uint256",
                      "name": "bitlen",
                      "type": "uint256"
                    }
                  ],
                  "internalType": "struct BigNumber",
                  "name": "value",
                  "type": "tuple"
                }
              ],
              "internalType": "struct Zp",
              "name": "a",
              "type": "tuple"
            },
            {
              "components": [
                {
                  "components": [
                    {
                      "internalType": "bytes",
                      "name": "val",
                      "type": "bytes"
                    },
                    {
                      "internalType": "bool",
                      "name": "neg",
                      "type": "bool"
                    },
                    {
                      "internalType": "uint256",
                      "name": "bitlen",
                      "type": "uint256"
                    }
                  ],
                  "internalType": "struct BigNumber",
                  "name": "value",
                  "type": "tuple"
                }
              ],
              "internalType": "struct Zp",
              "name": "b",
              "type": "tuple"
            }
          ],
          "internalType": "struct Zp_2",
          "name": "x",
          "type": "tuple"
        },
        {
          "components": [
            {
              "components": [
                {
                  "components": [
                    {
                      "internalType": "bytes",
                      "name": "val",
                      "type": "bytes"
                    },
                    {
                      "internalType": "bool",
                      "name": "neg",
                      "type": "bool"
                    },
                    {
                      "internalType": "uint256",
                      "name": "bitlen",
                      "type": "uint256"
                    }
                  ],
                  "internalType": "struct BigNumber",
                  "name": "value",
                  "type": "tuple"
                }
              ],
              "internalType": "struct Zp",
              "name": "a",
              "type": "tuple"
            },
            {
              "components": [
                {
                  "components": [
                    {
                      "internalType": "bytes",
                      "name": "val",
                      "type": "bytes"
                    },
                    {
                      "internalType": "bool",
                      "name": "neg",
                      "type": "bool"
                    },
                    {
                      "internalType": "uint256",
                      "name": "bitlen",
                      "type": "uint256"
                    }
                  ],
                  "internalType": "struct BigNumber",
                  "name": "value",
                  "type": "tuple"
                }
              ],
              "internalType": "struct Zp",
              "name": "b",
              "type": "tuple"
            }
          ],
          "internalType": "struct Zp_2",
          "name": "y",
          "type": "tuple"
        }
      ],
      "name": "sub",
      "outputs": [
        {
          "components": [
            {
              "components": [
                {
                  "components": [
                    {
                      "internalType": "bytes",
                      "name": "val",
                      "type": "bytes"
                    },
                    {
                      "internalType": "bool",
                      "name": "neg",
                      "type": "bool"
                    },
                    {
                      "internalType": "uint256",
                      "name": "bitlen",
                      "type": "uint256"
                    }
                  ],
                  "internalType": "struct BigNumber",
                  "name": "value",
                  "type": "tuple"
                }
              ],
              "internalType": "struct Zp",
              "name": "a",
              "type": "tuple"
            },
            {
              "components": [
                {
                  "components": [
                    {
                      "internalType": "bytes",
                      "name": "val",
                      "type": "bytes"
                    },
                    {
                      "internalType": "bool",
                      "name": "neg",
                      "type": "bool"
                    },
                    {
                      "internalType": "uint256",
                      "name": "bitlen",
                      "type": "uint256"
                    }
                  ],
                  "internalType": "struct BigNumber",
                  "name": "value",
                  "type": "tuple"
                }
              ],
              "internalType": "struct Zp",
              "name": "b",
              "type": "tuple"
            }
          ],
          "internalType": "struct Zp_2",
          "name": "",
          "type": "tuple"
        }
      ],
      "stateMutability": "view",
      "type": "function"
    },
    {
      "inputs": [
        {
          "components": [
            {
              "components": [
                {
                  "components": [
                    {
                      "internalType": "bytes",
                      "name": "val",
                      "type": "bytes"
                    },
                    {
                      "internalType": "bool",
                      "name": "neg",
                      "type": "bool"
                    },
                    {
                      "internalType": "uint256",
                      "name": "bitlen",
                      "type": "uint256"
                    }
                  ],
                  "internalType": "struct BigNumber",
                  "name": "value",
                  "type": "tuple"
                }
              ],
              "internalType": "struct Zp",
              "name": "a",
              "type": "tuple"
            },
            {
              "components": [
                {
                  "components": [
                    {
                      "internalType": "bytes",
                      "name": "val",
                      "type": "bytes"
                    },
                    {
                      "internalType": "bool",
                      "name": "neg",
                      "type": "bool"
                    },
                    {
                      "internalType": "uint256",
                      "name": "bitlen",
                      "type": "uint256"
                    }
                  ],
                  "internalType": "struct BigNumber",
                  "name": "value",
                  "type": "tuple"
                }
              ],
              "internalType": "struct Zp",
              "name": "b",
              "type": "tuple"
            }
          ],
          "internalType": "struct Zp_2",
          "name": "x",
          "type": "tuple"
        },
        {
          "components": [
            {
              "components": [
                {
                  "components": [
                    {
                      "internalType": "bytes",
                      "name": "val",
                      "type": "bytes"
                    },
                    {
                      "internalType": "bool",
                      "name": "neg",
                      "type": "bool"
                    },
                    {
                      "internalType": "uint256",
                      "name": "bitlen",
                      "type": "uint256"
                    }
                  ],
                  "internalType": "struct BigNumber",
                  "name": "value",
                  "type": "tuple"
                }
              ],
              "internalType": "struct Zp",
              "name": "a",
              "type": "tuple"
            },
            {
              "components": [
                {
                  "components": [
                    {
                      "internalType": "bytes",
                      "name": "val",
                      "type": "bytes"
                    },
                    {
                      "internalType": "bool",
                      "name": "neg",
                      "type": "bool"
                    },
                    {
                      "internalType": "uint256",
                      "name": "bitlen",
                      "type": "uint256"
                    }
                  ],
                  "internalType": "struct BigNumber",
                  "name": "value",
                  "type": "tuple"
                }
              ],
              "internalType": "struct Zp",
              "name": "b",
              "type": "tuple"
            }
          ],
          "internalType": "struct Zp_2",
          "name": "y",
          "type": "tuple"
        }
      ],
      "name": "sum",
      "outputs": [
        {
          "components": [
            {
              "components": [
                {
                  "components": [
                    {
                      "internalType": "bytes",
                      "name": "val",
                      "type": "bytes"
                    },
                    {
                      "internalType": "bool",
                      "name": "neg",
                      "type": "bool"
                    },
                    {
                      "internalType": "uint256",
                      "name": "bitlen",
                      "type": "uint256"
                    }
                  ],
                  "internalType": "struct BigNumber",
                  "name": "value",
                  "type": "tuple"
                }
              ],
              "internalType": "struct Zp",
              "name": "a",
              "type": "tuple"
            },
            {
              "components": [
                {
                  "components": [
                    {
                      "internalType": "bytes",
                      "name": "val",
                      "type": "bytes"
                    },
                    {
                      "internalType": "bool",
                      "name": "neg",
                      "type": "bool"
                    },
                    {
                      "internalType": "uint256",
                      "name": "bitlen",
                      "type": "uint256"
                    }
                  ],
                  "internalType": "struct BigNumber",
                  "name": "value",
                  "type": "tuple"
                }
              ],
              "internalType": "struct Zp",
              "name": "b",
              "type": "tuple"
            }
          ],
          "internalType": "struct Zp_2",
          "name": "",
          "type": "tuple"
        }
      ],
      "stateMutability": "view",
      "type": "function"
    },
    {
      "inputs": [],
      "name": "three",
      "outputs": [
        {
          "components": [
            {
              "components": [
                {
                  "components": [
                    {
                      "internalType": "bytes",
                      "name": "val",
                      "type": "bytes"
                    },
                    {
                      "internalType": "bool",
                      "name": "neg",
                      "type": "bool"
                    },
                    {
                      "internalType": "uint256",
                      "name": "bitlen",
                      "type": "uint256"
                    }
                  ],
                  "internalType": "struct BigNumber",
                  "name": "value",
                  "type": "tuple"
                }
              ],
              "internalType": "struct Zp",
              "name": "a",
              "type": "tuple"
            },
            {
              "components": [
                {
                  "components": [
                    {
                      "internalType": "bytes",
                      "name": "val",
                      "type": "bytes"
                    },
                    {
                      "internalType": "bool",
                      "name": "neg",
                      "type": "bool"
                    },
                    {
                      "internalType": "uint256",
                      "name": "bitlen",
                      "type": "uint256"
                    }
                  ],
                  "internalType": "struct BigNumber",
                  "name": "value",
                  "type": "tuple"
                }
              ],
              "internalType": "struct Zp",
              "name": "b",
              "type": "tuple"
            }
          ],
          "internalType": "struct Zp_2",
          "name": "",
          "type": "tuple"
        }
      ],
      "stateMutability": "view",
      "type": "function"
    },
    {
      "inputs": [],
      "name": "two",
      "outputs": [
        {
          "components": [
            {
              "components": [
                {
                  "components": [
                    {
                      "internalType": "bytes",
                      "name": "val",
                      "type": "bytes"
                    },
                    {
                      "internalType": "bool",
                      "name": "neg",
                      "type": "bool"
                    },
                    {
                      "internalType": "uint256",
                      "name": "bitlen",
                      "type": "uint256"
                    }
                  ],
                  "internalType": "struct BigNumber",
                  "name": "value",
                  "type": "tuple"
                }
              ],
              "internalType": "struct Zp",
              "name": "a",
              "type": "tuple"
            },
            {
              "components": [
                {
                  "components": [
                    {
                      "internalType": "bytes",
                      "name": "val",
                      "type": "bytes"
                    },
                    {
                      "internalType": "bool",
                      "name": "neg",
                      "type": "bool"
                    },
                    {
                      "internalType": "uint256",
                      "name": "bitlen",
                      "type": "uint256"
                    }
                  ],
                  "internalType": "struct BigNumber",
                  "name": "value",
                  "type": "tuple"
                }
              ],
              "internalType": "struct Zp",
              "name": "b",
              "type": "tuple"
            }
          ],
          "internalType": "struct Zp_2",
          "name": "",
          "type": "tuple"
        }
      ],
      "stateMutability": "view",
      "type": "function"
    },
    {
      "inputs": [],
      "name": "zero",
      "outputs": [
        {
          "components": [
            {
              "components": [
                {
                  "components": [
                    {
                      "internalType": "bytes",
                      "name": "val",
                      "type": "bytes"
                    },
                    {
                      "internalType": "bool",
                      "name": "neg",
                      "type": "bool"
                    },
                    {
                      "internalType": "uint256",
                      "name": "bitlen",
                      "type": "uint256"
                    }
                  ],
                  "internalType": "struct BigNumber",
                  "name": "value",
                  "type": "tuple"
                }
              ],
              "internalType": "struct Zp",
              "name": "a",
              "type": "tuple"
            },
            {
              "components": [
                {
                  "components": [
                    {
                      "internalType": "bytes",
                      "name": "val",
                      "type": "bytes"
                    },
                    {
                      "internalType": "bool",
                      "name": "neg",
                      "type": "bool"
                    },
                    {
                      "internalType": "uint256",
                      "name": "bitlen",
                      "type": "uint256"
                    }
                  ],
                  "internalType": "struct BigNumber",
                  "name": "value",
                  "type": "tuple"
                }
              ],
              "internalType": "struct Zp",
              "name": "b",
              "type": "tuple"
            }
          ],
          "internalType": "struct Zp_2",
          "name": "",
          "type": "tuple"
        }
      ],
      "stateMutability": "view",
      "type": "function"
    }
  ],
  "bytecode": "0x608060405234801561001057600080fd5b5060405161225b38038061225b833981810160405281019061003291906100ed565b806000806101000a81548173ffffffffffffffffffffffffffffffffffffffff021916908373ffffffffffffffffffffffffffffffffffffffff1602179055505061011a565b600080fd5b600073ffffffffffffffffffffffffffffffffffffffff82169050919050565b60006100a88261007d565b9050919050565b60006100ba8261009d565b9050919050565b6100ca816100af565b81146100d557600080fd5b50565b6000815190506100e7816100c1565b92915050565b60006020828403121561010357610102610078565b5b6000610111848285016100d8565b91505092915050565b612132806101296000396000f3fe608060405234801561001057600080fd5b50600436106100cf5760003560e01c8063901717d11161008c578063ab80cf7611610066578063ab80cf761461023c578063bc1b392d1461026c578063c700da6b1461028a578063fbb740a8146102ba576100cf565b8063901717d1146101d05780639d2e83f5146101ee578063a1fca2b61461021e576100cf565b806307a5ecaa146100d4578063232b9e5a1461010457806345caa117146101345780635f6910d4146101525780635fdf05d71461018257806364c044fe146101a0575b600080fd5b6100ee60048036038101906100e99190611bb1565b6102ea565b6040516100fb9190611d84565b60405180910390f35b61011e60048036038101906101199190611bb1565b6106e4565b60405161012b9190611d84565b60405180910390f35b61013c610706565b6040516101499190611d84565b60405180910390f35b61016c60048036038101906101679190611bb1565b610843565b6040516101799190611d84565b60405180910390f35b61018a6109ad565b6040516101979190611d84565b60405180910390f35b6101ba60048036038101906101b59190611da6565b610aea565b6040516101c79190611d84565b60405180910390f35b6101d8611013565b6040516101e59190611d84565b60405180910390f35b61020860048036038101906102039190611da6565b611150565b6040516102159190611d84565b60405180910390f35b6102266112b9565b6040516102339190611d84565b60405180910390f35b61025660048036038101906102519190611bb1565b6113f6565b6040516102639190611dfe565b60405180910390f35b610274611551565b6040516102819190611d84565b60405180910390f35b6102a4600480360381019061029f9190611e19565b61168e565b6040516102b19190611d84565b60405180910390f35b6102d460048036038101906102cf9190611bb1565b6116b3565b6040516102e19190611d84565b60405180910390f35b6102f261181d565b6106dc60008054906101000a900473ffffffffffffffffffffffffffffffffffffffff1673ffffffffffffffffffffffffffffffffffffffff1663fb2bedad60008054906101000a900473ffffffffffffffffffffffffffffffffffffffff1673ffffffffffffffffffffffffffffffffffffffff1663b5e28325876000015187600001516040518363ffffffff1660e01b8152600401610394929190611ebb565b600060405180830381865afa1580156103b1573d6000803e3d6000fd5b505050506040513d6000823e3d601f19601f820116820180604052508101906103da9190612064565b60008054906101000a900473ffffffffffffffffffffffffffffffffffffffff1673ffffffffffffffffffffffffffffffffffffffff1663b5e28325886020015188602001516040518363ffffffff1660e01b815260040161043d929190611ebb565b600060405180830381865afa15801561045a573d6000803e3d6000fd5b505050506040513d6000823e3d601f19601f820116820180604052508101906104839190612064565b6040518363ffffffff1660e01b81526004016104a0929190611ebb565b600060405180830381865afa1580156104bd573d6000803e3d6000fd5b505050506040513d6000823e3d601f19601f820116820180604052508101906104e69190612064565b60008054906101000a900473ffffffffffffffffffffffffffffffffffffffff1673ffffffffffffffffffffffffffffffffffffffff1663a9a52e7e60008054906101000a900473ffffffffffffffffffffffffffffffffffffffff1673ffffffffffffffffffffffffffffffffffffffff1663b5e28325886000015188602001516040518363ffffffff1660e01b8152600401610585929190611ebb565b600060405180830381865afa1580156105a2573d6000803e3d6000fd5b505050506040513d6000823e3d601f19601f820116820180604052508101906105cb9190612064565b60008054906101000a900473ffffffffffffffffffffffffffffffffffffffff1673ffffffffffffffffffffffffffffffffffffffff1663b5e28325896020015189600001516040518363ffffffff1660e01b815260040161062e929190611ebb565b600060405180830381865afa15801561064b573d6000803e3d6000fd5b505050506040513d6000823e3d601f19601f820116820180604052508101906106749190612064565b6040518363ffffffff1660e01b8152600401610691929190611ebb565b600060405180830381865afa1580156106ae573d6000803e3d6000fd5b505050506040513d6000823e3d601f19601f820116820180604052508101906106d79190612064565b61168e565b905092915050565b6106ec61181d565b6106fe836106f984610aea565b6102ea565b905092915050565b61070e61181d565b61083e60008054906101000a900473ffffffffffffffffffffffffffffffffffffffff1673ffffffffffffffffffffffffffffffffffffffff166345caa1176040518163ffffffff1660e01b8152600401600060405180830381865afa15801561077c573d6000803e3d6000fd5b505050506040513d6000823e3d601f19601f820116820180604052508101906107a59190612064565b60008054906101000a900473ffffffffffffffffffffffffffffffffffffffff1673ffffffffffffffffffffffffffffffffffffffff1663bc1b392d6040518163ffffffff1660e01b8152600401600060405180830381865afa158015610810573d6000803e3d6000fd5b505050506040513d6000823e3d601f19601f820116820180604052508101906108399190612064565b61168e565b905090565b61084b61181d565b6109a560008054906101000a900473ffffffffffffffffffffffffffffffffffffffff1673ffffffffffffffffffffffffffffffffffffffff1663fb2bedad856000015185600001516040518363ffffffff1660e01b81526004016108b1929190611ebb565b600060405180830381865afa1580156108ce573d6000803e3d6000fd5b505050506040513d6000823e3d601f19601f820116820180604052508101906108f79190612064565b60008054906101000a900473ffffffffffffffffffffffffffffffffffffffff1673ffffffffffffffffffffffffffffffffffffffff1663fb2bedad866020015186602001516040518363ffffffff1660e01b815260040161095a929190611ebb565b600060405180830381865afa158015610977573d6000803e3d6000fd5b505050506040513d6000823e3d601f19601f820116820180604052508101906109a09190612064565b61168e565b905092915050565b6109b561181d565b610ae560008054906101000a900473ffffffffffffffffffffffffffffffffffffffff1673ffffffffffffffffffffffffffffffffffffffff16635fdf05d76040518163ffffffff1660e01b8152600401600060405180830381865afa158015610a23573d6000803e3d6000fd5b505050506040513d6000823e3d601f19601f82011682018060405250810190610a4c9190612064565b60008054906101000a900473ffffffffffffffffffffffffffffffffffffffff1673ffffffffffffffffffffffffffffffffffffffff1663bc1b392d6040518163ffffffff1660e01b8152600401600060405180830381865afa158015610ab7573d6000803e3d6000fd5b505050506040513d6000823e3d601f19601f82011682018060405250810190610ae09190612064565b61168e565b905090565b610af261181d565b60008060009054906101000a900473ffffffffffffffffffffffffffffffffffffffff1673ffffffffffffffffffffffffffffffffffffffff1663a672d10060008054906101000a900473ffffffffffffffffffffffffffffffffffffffff1673ffffffffffffffffffffffffffffffffffffffff1663a9a52e7e60008054906101000a900473ffffffffffffffffffffffffffffffffffffffff1673ffffffffffffffffffffffffffffffffffffffff1663b5e28325886000015189600001516040518363ffffffff1660e01b8152600401610bd0929190611ebb565b600060405180830381865afa158015610bed573d6000803e3d6000fd5b505050506040513d6000823e3d601f19601f82011682018060405250810190610c169190612064565b60008054906101000a900473ffffffffffffffffffffffffffffffffffffffff1673ffffffffffffffffffffffffffffffffffffffff1663b5e2832589602001518a602001516040518363ffffffff1660e01b8152600401610c79929190611ebb565b600060405180830381865afa158015610c96573d6000803e3d6000fd5b505050506040513d6000823e3d601f19601f82011682018060405250810190610cbf9190612064565b6040518363ffffffff1660e01b8152600401610cdc929190611ebb565b600060405180830381865afa158015610cf9573d6000803e3d6000fd5b505050506040513d6000823e3d601f19601f82011682018060405250810190610d229190612064565b6040518263ffffffff1660e01b8152600401610d3e91906120ad565b600060405180830381865afa158015610d5b573d6000803e3d6000fd5b505050506040513d6000823e3d601f19601f82011682018060405250810190610d849190612064565b905061100b60008054906101000a900473ffffffffffffffffffffffffffffffffffffffff1673ffffffffffffffffffffffffffffffffffffffff1663b5e283258560000151846040518363ffffffff1660e01b8152600401610de8929190611ebb565b600060405180830381865afa158015610e05573d6000803e3d6000fd5b505050506040513d6000823e3d601f19601f82011682018060405250810190610e2e9190612064565b60008054906101000a900473ffffffffffffffffffffffffffffffffffffffff1673ffffffffffffffffffffffffffffffffffffffff1663b5e2832560008054906101000a900473ffffffffffffffffffffffffffffffffffffffff1673ffffffffffffffffffffffffffffffffffffffff1663fb2bedad60008054906101000a900473ffffffffffffffffffffffffffffffffffffffff1673ffffffffffffffffffffffffffffffffffffffff1663bc1b392d6040518163ffffffff1660e01b8152600401600060405180830381865afa158015610f11573d6000803e3d6000fd5b505050506040513d6000823e3d601f19601f82011682018060405250810190610f3a9190612064565b89602001516040518363ffffffff1660e01b8152600401610f5c929190611ebb565b600060405180830381865afa158015610f79573d6000803e3d6000fd5b505050506040513d6000823e3d601f19601f82011682018060405250810190610fa29190612064565b856040518363ffffffff1660e01b8152600401610fc0929190611ebb565b600060405180830381865afa158015610fdd573d6000803e3d6000fd5b505050506040513d6000823e3d601f19601f820116820180604052508101906110069190612064565b61168e565b915050919050565b61101b61181d565b61114b60008054906101000a900473ffffffffffffffffffffffffffffffffffffffff1673ffffffffffffffffffffffffffffffffffffffff1663901717d16040518163ffffffff1660e01b8152600401600060405180830381865afa158015611089573d6000803e3d6000fd5b505050506040513d6000823e3d601f19601f820116820180604052508101906110b29190612064565b60008054906101000a900473ffffffffffffffffffffffffffffffffffffffff1673ffffffffffffffffffffffffffffffffffffffff1663bc1b392d6040518163ffffffff1660e01b8152600401600060405180830381865afa15801561111d573d6000803e3d6000fd5b505050506040513d6000823e3d601f19601f820116820180604052508101906111469190612064565b61168e565b905090565b61115861181d565b6112b260008054906101000a900473ffffffffffffffffffffffffffffffffffffffff1673ffffffffffffffffffffffffffffffffffffffff1663a9a52e7e846000015185602001516040518363ffffffff1660e01b81526004016111be929190611ebb565b600060405180830381865afa1580156111db573d6000803e3d6000fd5b505050506040513d6000823e3d601f19601f820116820180604052508101906112049190612064565b60008054906101000a900473ffffffffffffffffffffffffffffffffffffffff1673ffffffffffffffffffffffffffffffffffffffff1663fb2bedad856000015186602001516040518363ffffffff1660e01b8152600401611267929190611ebb565b600060405180830381865afa158015611284573d6000803e3d6000fd5b505050506040513d6000823e3d601f19601f820116820180604052508101906112ad9190612064565b61168e565b9050919050565b6112c161181d565b6113f160008054906101000a900473ffffffffffffffffffffffffffffffffffffffff1673ffffffffffffffffffffffffffffffffffffffff1663a1fca2b66040518163ffffffff1660e01b8152600401600060405180830381865afa15801561132f573d6000803e3d6000fd5b505050506040513d6000823e3d601f19601f820116820180604052508101906113589190612064565b60008054906101000a900473ffffffffffffffffffffffffffffffffffffffff1673ffffffffffffffffffffffffffffffffffffffff1663bc1b392d6040518163ffffffff1660e01b8152600401600060405180830381865afa1580156113c3573d6000803e3d6000fd5b505050506040513d6000823e3d601f19601f820116820180604052508101906113ec9190612064565b61168e565b905090565b60008060009054906101000a900473ffffffffffffffffffffffffffffffffffffffff1673ffffffffffffffffffffffffffffffffffffffff1663d4d45554846000015184600001516040518363ffffffff1660e01b815260040161145c929190611ebb565b602060405180830381865afa158015611479573d6000803e3d6000fd5b505050506040513d601f19601f8201168201806040525081019061149d91906120cf565b8015611549575060008054906101000a900473ffffffffffffffffffffffffffffffffffffffff1673ffffffffffffffffffffffffffffffffffffffff1663d4d45554846020015184602001516040518363ffffffff1660e01b8152600401611507929190611ebb565b602060405180830381865afa158015611524573d6000803e3d6000fd5b505050506040513d601f19601f8201168201806040525081019061154891906120cf565b5b905092915050565b61155961181d565b61168960008054906101000a900473ffffffffffffffffffffffffffffffffffffffff1673ffffffffffffffffffffffffffffffffffffffff1663bc1b392d6040518163ffffffff1660e01b8152600401600060405180830381865afa1580156115c7573d6000803e3d6000fd5b505050506040513d6000823e3d601f19601f820116820180604052508101906115f09190612064565b60008054906101000a900473ffffffffffffffffffffffffffffffffffffffff1673ffffffffffffffffffffffffffffffffffffffff1663bc1b392d6040518163ffffffff1660e01b8152600401600060405180830381865afa15801561165b573d6000803e3d6000fd5b505050506040513d6000823e3d601f19601f820116820180604052508101906116849190612064565b61168e565b905090565b61169661181d565b604051806040016040528084815260200183815250905092915050565b6116bb61181d565b61181560008054906101000a900473ffffffffffffffffffffffffffffffffffffffff1673ffffffffffffffffffffffffffffffffffffffff1663a9a52e7e856000015185600001516040518363ffffffff1660e01b8152600401611721929190611ebb565b600060405180830381865afa15801561173e573d6000803e3d6000fd5b505050506040513d6000823e3d601f19601f820116820180604052508101906117679190612064565b60008054906101000a900473ffffffffffffffffffffffffffffffffffffffff1673ffffffffffffffffffffffffffffffffffffffff1663a9a52e7e866020015186602001516040518363ffffffff1660e01b81526004016117ca929190611ebb565b600060405180830381865afa1580156117e7573d6000803e3d6000fd5b505050506040513d6000823e3d601f19601f820116820180604052508101906118109190612064565b61168e565b905092915050565b6040518060400160405280611830611843565b815260200161183d611843565b81525090565b604051806020016040528061185661185c565b81525090565b604051806060016040528060608152602001600015158152602001600081525090565b6000604051905090565b600080fd5b600080fd5b600080fd5b6000601f19601f8301169050919050565b7f4e487b7100000000000000000000000000000000000000000000000000000000600052604160045260246000fd5b6118e182611898565b810181811067ffffffffffffffff82111715611900576118ff6118a9565b5b80604052505050565b600061191361187f565b905061191f82826118d8565b919050565b600080fd5b600080fd5b600080fd5b600067ffffffffffffffff82111561194e5761194d6118a9565b5b61195782611898565b9050602081019050919050565b82818337600083830152505050565b600061198661198184611933565b611909565b9050828152602081018484840111156119a2576119a161192e565b5b6119ad848285611964565b509392505050565b600082601f8301126119ca576119c9611929565b5b81356119da848260208601611973565b91505092915050565b60008115159050919050565b6119f8816119e3565b8114611a0357600080fd5b50565b600081359050611a15816119ef565b92915050565b6000819050919050565b611a2e81611a1b565b8114611a3957600080fd5b50565b600081359050611a4b81611a25565b92915050565b600060608284031215611a6757611a66611893565b5b611a716060611909565b9050600082013567ffffffffffffffff811115611a9157611a90611924565b5b611a9d848285016119b5565b6000830152506020611ab184828501611a06565b6020830152506040611ac584828501611a3c565b60408301525092915050565b600060208284031215611ae757611ae6611893565b5b611af16020611909565b9050600082013567ffffffffffffffff811115611b1157611b10611924565b5b611b1d84828501611a51565b60008301525092915050565b600060408284031215611b3f57611b3e611893565b5b611b496040611909565b9050600082013567ffffffffffffffff811115611b6957611b68611924565b5b611b7584828501611ad1565b600083015250602082013567ffffffffffffffff811115611b9957611b98611924565b5b611ba584828501611ad1565b60208301525092915050565b60008060408385031215611bc857611bc7611889565b5b600083013567ffffffffffffffff811115611be657611be561188e565b5b611bf285828601611b29565b925050602083013567ffffffffffffffff811115611c1357611c1261188e565b5b611c1f85828601611b29565b9150509250929050565b600081519050919050565b600082825260208201905092915050565b60005b83811015611c63578082015181840152602081019050611c48565b60008484015250505050565b6000611c7a82611c29565b611c848185611c34565b9350611c94818560208601611c45565b611c9d81611898565b840191505092915050565b611cb1816119e3565b82525050565b611cc081611a1b565b82525050565b60006060830160008301518482036000860152611ce38282611c6f565b9150506020830151611cf86020860182611ca8565b506040830151611d0b6040860182611cb7565b508091505092915050565b60006020830160008301518482036000860152611d338282611cc6565b9150508091505092915050565b60006040830160008301518482036000860152611d5d8282611d16565b91505060208301518482036020860152611d778282611d16565b9150508091505092915050565b60006020820190508181036000830152611d9e8184611d40565b905092915050565b600060208284031215611dbc57611dbb611889565b5b600082013567ffffffffffffffff811115611dda57611dd961188e565b5b611de684828501611b29565b91505092915050565b611df8816119e3565b82525050565b6000602082019050611e136000830184611def565b92915050565b60008060408385031215611e3057611e2f611889565b5b600083013567ffffffffffffffff811115611e4e57611e4d61188e565b5b611e5a85828601611ad1565b925050602083013567ffffffffffffffff811115611e7b57611e7a61188e565b5b611e8785828601611ad1565b9150509250929050565b60006020830160008301518482036000860152611eae8282611cc6565b9150508091505092915050565b60006040820190508181036000830152611ed58185611e91565b90508181036020830152611ee98184611e91565b90509392505050565b6000611f05611f0084611933565b611909565b905082815260208101848484011115611f2157611f2061192e565b5b611f2c848285611c45565b509392505050565b600082601f830112611f4957611f48611929565b5b8151611f59848260208601611ef2565b91505092915050565b600081519050611f71816119ef565b92915050565b600081519050611f8681611a25565b92915050565b600060608284031215611fa257611fa1611893565b5b611fac6060611909565b9050600082015167ffffffffffffffff811115611fcc57611fcb611924565b5b611fd884828501611f34565b6000830152506020611fec84828501611f62565b602083015250604061200084828501611f77565b60408301525092915050565b60006020828403121561202257612021611893565b5b61202c6020611909565b9050600082015167ffffffffffffffff81111561204c5761204b611924565b5b61205884828501611f8c565b60008301525092915050565b60006020828403121561207a57612079611889565b5b600082015167ffffffffffffffff8111156120985761209761188e565b5b6120a48482850161200c565b91505092915050565b600060208201905081810360008301526120c78184611e91565b905092915050565b6000602082840312156120e5576120e4611889565b5b60006120f384828501611f62565b9150509291505056fea2646970667358221220357febd452f70be455643284def62596737f0f4a76467cb601054186007dd14364736f6c634300081b0033",
  "linkReferences": {},
  "deployedLinkReferences": {}
}