{
  "_format": "hh-sol-artifact-1",
  "contractName": "Curve",
  "sourceName": "contracts/curve.sol",
  "abi": [
    {
      "inputs": [
        {
          "components": [
            {
              "internalType": "enum PointType",
              "name": "pointType",
              "type": "uint8"
            },
            {
              "components": [
                {
                  "components": [
                    {
                      "internalType": "bytes",
                      "name": "val",
                      "type": "bytes"
                    },
                    {
                      "internalType": "bool",
                      "name": "neg",
                      "type": "bool"
                    },
                    {
                      "internalType": "uint256",
                      "name": "bitlen",
                      "type": "uint256"
                    }
                  ],
                  "internalType": "struct BigNumber",
                  "name": "value",
                  "type": "tuple"
                }
              ],
              "internalType": "struct Zp",
              "name": "x",
              "type": "tuple"
            },
            {
              "components": [
                {
                  "components": [
                    {
                      "internalType": "bytes",
                      "name": "val",
                      "type": "bytes"
                    },
                    {
                      "internalType": "bool",
                      "name": "neg",
                      "type": "bool"
                    },
                    {
                      "internalType": "uint256",
                      "name": "bitlen",
                      "type": "uint256"
                    }
                  ],
                  "internalType": "struct BigNumber",
                  "name": "value",
                  "type": "tuple"
                }
              ],
              "internalType": "struct Zp",
              "name": "y",
              "type": "tuple"
            }
          ],
          "internalType": "struct Point_Zp",
          "name": "point",
          "type": "tuple"
        }
      ],
      "name": "Subgroup_0Check",
      "outputs": [
        {
          "internalType": "bool",
          "name": "",
          "type": "bool"
        }
      ],
      "stateMutability": "view",
      "type": "function"
    },
    {
      "inputs": [
        {
          "components": [
            {
              "internalType": "enum PointType",
              "name": "pointType",
              "type": "uint8"
            },
            {
              "components": [
                {
                  "components": [
                    {
                      "components": [
                        {
                          "internalType": "bytes",
                          "name": "val",
                          "type": "bytes"
                        },
                        {
                          "internalType": "bool",
                          "name": "neg",
                          "type": "bool"
                        },
                        {
                          "internalType": "uint256",
                          "name": "bitlen",
                          "type": "uint256"
                        }
                      ],
                      "internalType": "struct BigNumber",
                      "name": "value",
                      "type": "tuple"
                    }
                  ],
                  "internalType": "struct Zp",
                  "name": "a",
                  "type": "tuple"
                },
                {
                  "components": [
                    {
                      "components": [
                        {
                          "internalType": "bytes",
                          "name": "val",
                          "type": "bytes"
                        },
                        {
                          "internalType": "bool",
                          "name": "neg",
                          "type": "bool"
                        },
                        {
                          "internalType": "uint256",
                          "name": "bitlen",
                          "type": "uint256"
                        }
                      ],
                      "internalType": "struct BigNumber",
                      "name": "value",
                      "type": "tuple"
                    }
                  ],
                  "internalType": "struct Zp",
                  "name": "b",
                  "type": "tuple"
                }
              ],
              "internalType": "struct Zp_2",
              "name": "x",
              "type": "tuple"
            },
            {
              "components": [
                {
                  "components": [
                    {
                      "components": [
                        {
                          "internalType": "bytes",
                          "name": "val",
                          "type": "bytes"
                        },
                        {
                          "internalType": "bool",
                          "name": "neg",
                          "type": "bool"
                        },
                        {
                          "internalType": "uint256",
                          "name": "bitlen",
                          "type": "uint256"
                        }
                      ],
                      "internalType": "struct BigNumber",
                      "name": "value",
                      "type": "tuple"
                    }
                  ],
                  "internalType": "struct Zp",
                  "name": "a",
                  "type": "tuple"
                },
                {
                  "components": [
                    {
                      "components": [
                        {
                          "internalType": "bytes",
                          "name": "val",
                          "type": "bytes"
                        },
                        {
                          "internalType": "bool",
                          "name": "neg",
                          "type": "bool"
                        },
                        {
                          "internalType": "uint256",
                          "name": "bitlen",
                          "type": "uint256"
                        }
                      ],
                      "internalType": "struct BigNumber",
                      "name": "value",
                      "type": "tuple"
                    }
                  ],
                  "internalType": "struct Zp",
                  "name": "b",
                  "type": "tuple"
                }
              ],
              "internalType": "struct Zp_2",
              "name": "y",
              "type": "tuple"
            }
          ],
          "internalType": "struct Point_Zp_2",
          "name": "point",
          "type": "tuple"
        }
      ],
      "name": "Subgroup_1Check",
      "outputs": [
        {
          "internalType": "bool",
          "name": "",
          "type": "bool"
        }
      ],
      "stateMutability": "view",
      "type": "function"
    },
    {
      "inputs": [],
      "name": "get_g0",
      "outputs": [
        {
          "components": [
            {
              "internalType": "enum PointType",
              "name": "pointType",
              "type": "uint8"
            },
            {
              "components": [
                {
                  "components": [
                    {
                      "internalType": "bytes",
                      "name": "val",
                      "type": "bytes"
                    },
                    {
                      "internalType": "bool",
                      "name": "neg",
                      "type": "bool"
                    },
                    {
                      "internalType": "uint256",
                      "name": "bitlen",
                      "type": "uint256"
                    }
                  ],
                  "internalType": "struct BigNumber",
                  "name": "value",
                  "type": "tuple"
                }
              ],
              "internalType": "struct Zp",
              "name": "x",
              "type": "tuple"
            },
            {
              "components": [
                {
                  "components": [
                    {
                      "internalType": "bytes",
                      "name": "val",
                      "type": "bytes"
                    },
                    {
                      "internalType": "bool",
                      "name": "neg",
                      "type": "bool"
                    },
                    {
                      "internalType": "uint256",
                      "name": "bitlen",
                      "type": "uint256"
                    }
                  ],
                  "internalType": "struct BigNumber",
                  "name": "value",
                  "type": "tuple"
                }
              ],
              "internalType": "struct Zp",
              "name": "y",
              "type": "tuple"
            }
          ],
          "internalType": "struct Point_Zp",
          "name": "",
          "type": "tuple"
        }
      ],
      "stateMutability": "view",
      "type": "function"
    },
    {
      "inputs": [
        {
          "components": [
            {
              "internalType": "enum PointType",
              "name": "pointType",
              "type": "uint8"
            },
            {
              "components": [
                {
                  "components": [
                    {
                      "internalType": "bytes",
                      "name": "val",
                      "type": "bytes"
                    },
                    {
                      "internalType": "bool",
                      "name": "neg",
                      "type": "bool"
                    },
                    {
                      "internalType": "uint256",
                      "name": "bitlen",
                      "type": "uint256"
                    }
                  ],
                  "internalType": "struct BigNumber",
                  "name": "value",
                  "type": "tuple"
                }
              ],
              "internalType": "struct Zp",
              "name": "x",
              "type": "tuple"
            },
            {
              "components": [
                {
                  "components": [
                    {
                      "internalType": "bytes",
                      "name": "val",
                      "type": "bytes"
                    },
                    {
                      "internalType": "bool",
                      "name": "neg",
                      "type": "bool"
                    },
                    {
                      "internalType": "uint256",
                      "name": "bitlen",
                      "type": "uint256"
                    }
                  ],
                  "internalType": "struct BigNumber",
                  "name": "value",
                  "type": "tuple"
                }
              ],
              "internalType": "struct Zp",
              "name": "y",
              "type": "tuple"
            }
          ],
          "internalType": "struct Point_Zp",
          "name": "point",
          "type": "tuple"
        }
      ],
      "name": "isOnCurve",
      "outputs": [
        {
          "internalType": "bool",
          "name": "",
          "type": "bool"
        }
      ],
      "stateMutability": "view",
      "type": "function"
    },
    {
      "inputs": [
        {
          "components": [
            {
              "internalType": "enum PointType",
              "name": "pointType",
              "type": "uint8"
            },
            {
              "components": [
                {
                  "components": [
                    {
                      "components": [
                        {
                          "internalType": "bytes",
                          "name": "val",
                          "type": "bytes"
                        },
                        {
                          "internalType": "bool",
                          "name": "neg",
                          "type": "bool"
                        },
                        {
                          "internalType": "uint256",
                          "name": "bitlen",
                          "type": "uint256"
                        }
                      ],
                      "internalType": "struct BigNumber",
                      "name": "value",
                      "type": "tuple"
                    }
                  ],
                  "internalType": "struct Zp",
                  "name": "a",
                  "type": "tuple"
                },
                {
                  "components": [
                    {
                      "components": [
                        {
                          "internalType": "bytes",
                          "name": "val",
                          "type": "bytes"
                        },
                        {
                          "internalType": "bool",
                          "name": "neg",
                          "type": "bool"
                        },
                        {
                          "internalType": "uint256",
                          "name": "bitlen",
                          "type": "uint256"
                        }
                      ],
                      "internalType": "struct BigNumber",
                      "name": "value",
                      "type": "tuple"
                    }
                  ],
                  "internalType": "struct Zp",
                  "name": "b",
                  "type": "tuple"
                }
              ],
              "internalType": "struct Zp_2",
              "name": "x",
              "type": "tuple"
            },
            {
              "components": [
                {
                  "components": [
                    {
                      "components": [
                        {
                          "internalType": "bytes",
                          "name": "val",
                          "type": "bytes"
                        },
                        {
                          "internalType": "bool",
                          "name": "neg",
                          "type": "bool"
                        },
                        {
                          "internalType": "uint256",
                          "name": "bitlen",
                          "type": "uint256"
                        }
                      ],
                      "internalType": "struct BigNumber",
                      "name": "value",
                      "type": "tuple"
                    }
                  ],
                  "internalType": "struct Zp",
                  "name": "a",
                  "type": "tuple"
                },
                {
                  "components": [
                    {
                      "components": [
                        {
                          "internalType": "bytes",
                          "name": "val",
                          "type": "bytes"
                        },
                        {
                          "internalType": "bool",
                          "name": "neg",
                          "type": "bool"
                        },
                        {
                          "internalType": "uint256",
                          "name": "bitlen",
                          "type": "uint256"
                        }
                      ],
                      "internalType": "struct BigNumber",
                      "name": "value",
                      "type": "tuple"
                    }
                  ],
                  "internalType": "struct Zp",
                  "name": "b",
                  "type": "tuple"
                }
              ],
              "internalType": "struct Zp_2",
              "name": "y",
              "type": "tuple"
            }
          ],
          "internalType": "struct Point_Zp_2",
          "name": "point",
          "type": "tuple"
        }
      ],
      "name": "isOnCurveTwist",
      "outputs": [
        {
          "internalType": "bool",
          "name": "",
          "type": "bool"
        }
      ],
      "stateMutability": "view",
      "type": "function"
    },
    {
      "inputs": [
        {
          "components": [
            {
              "internalType": "enum PointType",
              "name": "pointType",
              "type": "uint8"
            },
            {
              "components": [
                {
                  "components": [
                    {
                      "components": [
                        {
                          "components": [
                            {
                              "components": [
                                {
                                  "internalType": "bytes",
                                  "name": "val",
                                  "type": "bytes"
                                },
                                {
                                  "internalType": "bool",
                                  "name": "neg",
                                  "type": "bool"
                                },
                                {
                                  "internalType": "uint256",
                                  "name": "bitlen",
                                  "type": "uint256"
                                }
                              ],
                              "internalType": "struct BigNumber",
                              "name": "value",
                              "type": "tuple"
                            }
                          ],
                          "internalType": "struct Zp",
                          "name": "a",
                          "type": "tuple"
                        },
                        {
                          "components": [
                            {
                              "components": [
                                {
                                  "internalType": "bytes",
                                  "name": "val",
                                  "type": "bytes"
                                },
                                {
                                  "internalType": "bool",
                                  "name": "neg",
                                  "type": "bool"
                                },
                                {
                                  "internalType": "uint256",
                                  "name": "bitlen",
                                  "type": "uint256"
                                }
                              ],
                              "internalType": "struct BigNumber",
                              "name": "value",
                              "type": "tuple"
                            }
                          ],
                          "internalType": "struct Zp",
                          "name": "b",
                          "type": "tuple"
                        }
                      ],
                      "internalType": "struct Zp_2",
                      "name": "a",
                      "type": "tuple"
                    },
                    {
                      "components": [
                        {
                          "components": [
                            {
                              "components": [
                                {
                                  "internalType": "bytes",
                                  "name": "val",
                                  "type": "bytes"
                                },
                                {
                                  "internalType": "bool",
                                  "name": "neg",
                                  "type": "bool"
                                },
                                {
                                  "internalType": "uint256",
                                  "name": "bitlen",
                                  "type": "uint256"
                                }
                              ],
                              "internalType": "struct BigNumber",
                              "name": "value",
                              "type": "tuple"
                            }
                          ],
                          "internalType": "struct Zp",
                          "name": "a",
                          "type": "tuple"
                        },
                        {
                          "components": [
                            {
                              "components": [
                                {
                                  "internalType": "bytes",
                                  "name": "val",
                                  "type": "bytes"
                                },
                                {
                                  "internalType": "bool",
                                  "name": "neg",
                                  "type": "bool"
                                },
                                {
                                  "internalType": "uint256",
                                  "name": "bitlen",
                                  "type": "uint256"
                                }
                              ],
                              "internalType": "struct BigNumber",
                              "name": "value",
                              "type": "tuple"
                            }
                          ],
                          "internalType": "struct Zp",
                          "name": "b",
                          "type": "tuple"
                        }
                      ],
                      "internalType": "struct Zp_2",
                      "name": "b",
                      "type": "tuple"
                    },
                    {
                      "components": [
                        {
                          "components": [
                            {
                              "components": [
                                {
                                  "internalType": "bytes",
                                  "name": "val",
                                  "type": "bytes"
                                },
                                {
                                  "internalType": "bool",
                                  "name": "neg",
                                  "type": "bool"
                                },
                                {
                                  "internalType": "uint256",
                                  "name": "bitlen",
                                  "type": "uint256"
                                }
                              ],
                              "internalType": "struct BigNumber",
                              "name": "value",
                              "type": "tuple"
                            }
                          ],
                          "internalType": "struct Zp",
                          "name": "a",
                          "type": "tuple"
                        },
                        {
                          "components": [
                            {
                              "components": [
                                {
                                  "internalType": "bytes",
                                  "name": "val",
                                  "type": "bytes"
                                },
                                {
                                  "internalType": "bool",
                                  "name": "neg",
                                  "type": "bool"
                                },
                                {
                                  "internalType": "uint256",
                                  "name": "bitlen",
                                  "type": "uint256"
                                }
                              ],
                              "internalType": "struct BigNumber",
                              "name": "value",
                              "type": "tuple"
                            }
                          ],
                          "internalType": "struct Zp",
                          "name": "b",
                          "type": "tuple"
                        }
                      ],
                      "internalType": "struct Zp_2",
                      "name": "c",
                      "type": "tuple"
                    }
                  ],
                  "internalType": "struct Zp_6",
                  "name": "a",
                  "type": "tuple"
                },
                {
                  "components": [
                    {
                      "components": [
                        {
                          "components": [
                            {
                              "components": [
                                {
                                  "internalType": "bytes",
                                  "name": "val",
                                  "type": "bytes"
                                },
                                {
                                  "internalType": "bool",
                                  "name": "neg",
                                  "type": "bool"
                                },
                                {
                                  "internalType": "uint256",
                                  "name": "bitlen",
                                  "type": "uint256"
                                }
                              ],
                              "internalType": "struct BigNumber",
                              "name": "value",
                              "type": "tuple"
                            }
                          ],
                          "internalType": "struct Zp",
                          "name": "a",
                          "type": "tuple"
                        },
                        {
                          "components": [
                            {
                              "components": [
                                {
                                  "internalType": "bytes",
                                  "name": "val",
                                  "type": "bytes"
                                },
                                {
                                  "internalType": "bool",
                                  "name": "neg",
                                  "type": "bool"
                                },
                                {
                                  "internalType": "uint256",
                                  "name": "bitlen",
                                  "type": "uint256"
                                }
                              ],
                              "internalType": "struct BigNumber",
                              "name": "value",
                              "type": "tuple"
                            }
                          ],
                          "internalType": "struct Zp",
                          "name": "b",
                          "type": "tuple"
                        }
                      ],
                      "internalType": "struct Zp_2",
                      "name": "a",
                      "type": "tuple"
                    },
                    {
                      "components": [
                        {
                          "components": [
                            {
                              "components": [
                                {
                                  "internalType": "bytes",
                                  "name": "val",
                                  "type": "bytes"
                                },
                                {
                                  "internalType": "bool",
                                  "name": "neg",
                                  "type": "bool"
                                },
                                {
                                  "internalType": "uint256",
                                  "name": "bitlen",
                                  "type": "uint256"
                                }
                              ],
                              "internalType": "struct BigNumber",
                              "name": "value",
                              "type": "tuple"
                            }
                          ],
                          "internalType": "struct Zp",
                          "name": "a",
                          "type": "tuple"
                        },
                        {
                          "components": [
                            {
                              "components": [
                                {
                                  "internalType": "bytes",
                                  "name": "val",
                                  "type": "bytes"
                                },
                                {
                                  "internalType": "bool",
                                  "name": "neg",
                                  "type": "bool"
                                },
                                {
                                  "internalType": "uint256",
                                  "name": "bitlen",
                                  "type": "uint256"
                                }
                              ],
                              "internalType": "struct BigNumber",
                              "name": "value",
                              "type": "tuple"
                            }
                          ],
                          "internalType": "struct Zp",
                          "name": "b",
                          "type": "tuple"
                        }
                      ],
                      "internalType": "struct Zp_2",
                      "name": "b",
                      "type": "tuple"
                    },
                    {
                      "components": [
                        {
                          "components": [
                            {
                              "components": [
                                {
                                  "internalType": "bytes",
                                  "name": "val",
                                  "type": "bytes"
                                },
                                {
                                  "internalType": "bool",
                                  "name": "neg",
                                  "type": "bool"
                                },
                                {
                                  "internalType": "uint256",
                                  "name": "bitlen",
                                  "type": "uint256"
                                }
                              ],
                              "internalType": "struct BigNumber",
                              "name": "value",
                              "type": "tuple"
                            }
                          ],
                          "internalType": "struct Zp",
                          "name": "a",
                          "type": "tuple"
                        },
                        {
                          "components": [
                            {
                              "components": [
                                {
                                  "internalType": "bytes",
                                  "name": "val",
                                  "type": "bytes"
                                },
                                {
                                  "internalType": "bool",
                                  "name": "neg",
                                  "type": "bool"
                                },
                                {
                                  "internalType": "uint256",
                                  "name": "bitlen",
                                  "type": "uint256"
                                }
                              ],
                              "internalType": "struct BigNumber",
                              "name": "value",
                              "type": "tuple"
                            }
                          ],
                          "internalType": "struct Zp",
                          "name": "b",
                          "type": "tuple"
                        }
                      ],
                      "internalType": "struct Zp_2",
                      "name": "c",
                      "type": "tuple"
                    }
                  ],
                  "internalType": "struct Zp_6",
                  "name": "b",
                  "type": "tuple"
                }
              ],
              "internalType": "struct Zp_12",
              "name": "x",
              "type": "tuple"
            },
            {
              "components": [
                {
                  "components": [
                    {
                      "components": [
                        {
                          "components": [
                            {
                              "components": [
                                {
                                  "internalType": "bytes",
                                  "name": "val",
                                  "type": "bytes"
                                },
                                {
                                  "internalType": "bool",
                                  "name": "neg",
                                  "type": "bool"
                                },
                                {
                                  "internalType": "uint256",
                                  "name": "bitlen",
                                  "type": "uint256"
                                }
                              ],
                              "internalType": "struct BigNumber",
                              "name": "value",
                              "type": "tuple"
                            }
                          ],
                          "internalType": "struct Zp",
                          "name": "a",
                          "type": "tuple"
                        },
                        {
                          "components": [
                            {
                              "components": [
                                {
                                  "internalType": "bytes",
                                  "name": "val",
                                  "type": "bytes"
                                },
                                {
                                  "internalType": "bool",
                                  "name": "neg",
                                  "type": "bool"
                                },
                                {
                                  "internalType": "uint256",
                                  "name": "bitlen",
                                  "type": "uint256"
                                }
                              ],
                              "internalType": "struct BigNumber",
                              "name": "value",
                              "type": "tuple"
                            }
                          ],
                          "internalType": "struct Zp",
                          "name": "b",
                          "type": "tuple"
                        }
                      ],
                      "internalType": "struct Zp_2",
                      "name": "a",
                      "type": "tuple"
                    },
                    {
                      "components": [
                        {
                          "components": [
                            {
                              "components": [
                                {
                                  "internalType": "bytes",
                                  "name": "val",
                                  "type": "bytes"
                                },
                                {
                                  "internalType": "bool",
                                  "name": "neg",
                                  "type": "bool"
                                },
                                {
                                  "internalType": "uint256",
                                  "name": "bitlen",
                                  "type": "uint256"
                                }
                              ],
                              "internalType": "struct BigNumber",
                              "name": "value",
                              "type": "tuple"
                            }
                          ],
                          "internalType": "struct Zp",
                          "name": "a",
                          "type": "tuple"
                        },
                        {
                          "components": [
                            {
                              "components": [
                                {
                                  "internalType": "bytes",
                                  "name": "val",
                                  "type": "bytes"
                                },
                                {
                                  "internalType": "bool",
                                  "name": "neg",
                                  "type": "bool"
                                },
                                {
                                  "internalType": "uint256",
                                  "name": "bitlen",
                                  "type": "uint256"
                                }
                              ],
                              "internalType": "struct BigNumber",
                              "name": "value",
                              "type": "tuple"
                            }
                          ],
                          "internalType": "struct Zp",
                          "name": "b",
                          "type": "tuple"
                        }
                      ],
                      "internalType": "struct Zp_2",
                      "name": "b",
                      "type": "tuple"
                    },
                    {
                      "components": [
                        {
                          "components": [
                            {
                              "components": [
                                {
                                  "internalType": "bytes",
                                  "name": "val",
                                  "type": "bytes"
                                },
                                {
                                  "internalType": "bool",
                                  "name": "neg",
                                  "type": "bool"
                                },
                                {
                                  "internalType": "uint256",
                                  "name": "bitlen",
                                  "type": "uint256"
                                }
                              ],
                              "internalType": "struct BigNumber",
                              "name": "value",
                              "type": "tuple"
                            }
                          ],
                          "internalType": "struct Zp",
                          "name": "a",
                          "type": "tuple"
                        },
                        {
                          "components": [
                            {
                              "components": [
                                {
                                  "internalType": "bytes",
                                  "name": "val",
                                  "type": "bytes"
                                },
                                {
                                  "internalType": "bool",
                                  "name": "neg",
                                  "type": "bool"
                                },
                                {
                                  "internalType": "uint256",
                                  "name": "bitlen",
                                  "type": "uint256"
                                }
                              ],
                              "internalType": "struct BigNumber",
                              "name": "value",
                              "type": "tuple"
                            }
                          ],
                          "internalType": "struct Zp",
                          "name": "b",
                          "type": "tuple"
                        }
                      ],
                      "internalType": "struct Zp_2",
                      "name": "c",
                      "type": "tuple"
                    }
                  ],
                  "internalType": "struct Zp_6",
                  "name": "a",
                  "type": "tuple"
                },
                {
                  "components": [
                    {
                      "components": [
                        {
                          "components": [
                            {
                              "components": [
                                {
                                  "internalType": "bytes",
                                  "name": "val",
                                  "type": "bytes"
                                },
                                {
                                  "internalType": "bool",
                                  "name": "neg",
                                  "type": "bool"
                                },
                                {
                                  "internalType": "uint256",
                                  "name": "bitlen",
                                  "type": "uint256"
                                }
                              ],
                              "internalType": "struct BigNumber",
                              "name": "value",
                              "type": "tuple"
                            }
                          ],
                          "internalType": "struct Zp",
                          "name": "a",
                          "type": "tuple"
                        },
                        {
                          "components": [
                            {
                              "components": [
                                {
                                  "internalType": "bytes",
                                  "name": "val",
                                  "type": "bytes"
                                },
                                {
                                  "internalType": "bool",
                                  "name": "neg",
                                  "type": "bool"
                                },
                                {
                                  "internalType": "uint256",
                                  "name": "bitlen",
                                  "type": "uint256"
                                }
                              ],
                              "internalType": "struct BigNumber",
                              "name": "value",
                              "type": "tuple"
                            }
                          ],
                          "internalType": "struct Zp",
                          "name": "b",
                          "type": "tuple"
                        }
                      ],
                      "internalType": "struct Zp_2",
                      "name": "a",
                      "type": "tuple"
                    },
                    {
                      "components": [
                        {
                          "components": [
                            {
                              "components": [
                                {
                                  "internalType": "bytes",
                                  "name": "val",
                                  "type": "bytes"
                                },
                                {
                                  "internalType": "bool",
                                  "name": "neg",
                                  "type": "bool"
                                },
                                {
                                  "internalType": "uint256",
                                  "name": "bitlen",
                                  "type": "uint256"
                                }
                              ],
                              "internalType": "struct BigNumber",
                              "name": "value",
                              "type": "tuple"
                            }
                          ],
                          "internalType": "struct Zp",
                          "name": "a",
                          "type": "tuple"
                        },
                        {
                          "components": [
                            {
                              "components": [
                                {
                                  "internalType": "bytes",
                                  "name": "val",
                                  "type": "bytes"
                                },
                                {
                                  "internalType": "bool",
                                  "name": "neg",
                                  "type": "bool"
                                },
                                {
                                  "internalType": "uint256",
                                  "name": "bitlen",
                                  "type": "uint256"
                                }
                              ],
                              "internalType": "struct BigNumber",
                              "name": "value",
                              "type": "tuple"
                            }
                          ],
                          "internalType": "struct Zp",
                          "name": "b",
                          "type": "tuple"
                        }
                      ],
                      "internalType": "struct Zp_2",
                      "name": "b",
                      "type": "tuple"
                    },
                    {
                      "components": [
                        {
                          "components": [
                            {
                              "components": [
                                {
                                  "internalType": "bytes",
                                  "name": "val",
                                  "type": "bytes"
                                },
                                {
                                  "internalType": "bool",
                                  "name": "neg",
                                  "type": "bool"
                                },
                                {
                                  "internalType": "uint256",
                                  "name": "bitlen",
                                  "type": "uint256"
                                }
                              ],
                              "internalType": "struct BigNumber",
                              "name": "value",
                              "type": "tuple"
                            }
                          ],
                          "internalType": "struct Zp",
                          "name": "a",
                          "type": "tuple"
                        },
                        {
                          "components": [
                            {
                              "components": [
                                {
                                  "internalType": "bytes",
                                  "name": "val",
                                  "type": "bytes"
                                },
                                {
                                  "internalType": "bool",
                                  "name": "neg",
                                  "type": "bool"
                                },
                                {
                                  "internalType": "uint256",
                                  "name": "bitlen",
                                  "type": "uint256"
                                }
                              ],
                              "internalType": "struct BigNumber",
                              "name": "value",
                              "type": "tuple"
                            }
                          ],
                          "internalType": "struct Zp",
                          "name": "b",
                          "type": "tuple"
                        }
                      ],
                      "internalType": "struct Zp_2",
                      "name": "c",
                      "type": "tuple"
                    }
                  ],
                  "internalType": "struct Zp_6",
                  "name": "b",
                  "type": "tuple"
                }
              ],
              "internalType": "struct Zp_12",
              "name": "y",
              "type": "tuple"
            }
          ],
          "internalType": "struct Point_Zp_12",
          "name": "point",
          "type": "tuple"
        }
      ],
      "name": "isOnCurve_12",
      "outputs": [
        {
          "internalType": "bool",
          "name": "",
          "type": "bool"
        }
      ],
      "stateMutability": "view",
      "type": "function"
    },
    {
      "inputs": [
        {
          "components": [
            {
              "internalType": "enum PointType",
              "name": "pointType",
              "type": "uint8"
            },
            {
              "components": [
                {
                  "components": [
                    {
                      "internalType": "bytes",
                      "name": "val",
                      "type": "bytes"
                    },
                    {
                      "internalType": "bool",
                      "name": "neg",
                      "type": "bool"
                    },
                    {
                      "internalType": "uint256",
                      "name": "bitlen",
                      "type": "uint256"
                    }
                  ],
                  "internalType": "struct BigNumber",
                  "name": "value",
                  "type": "tuple"
                }
              ],
              "internalType": "struct Zp",
              "name": "x",
              "type": "tuple"
            },
            {
              "components": [
                {
                  "components": [
                    {
                      "internalType": "bytes",
                      "name": "val",
                      "type": "bytes"
                    },
                    {
                      "internalType": "bool",
                      "name": "neg",
                      "type": "bool"
                    },
                    {
                      "internalType": "uint256",
                      "name": "bitlen",
                      "type": "uint256"
                    }
                  ],
                  "internalType": "struct BigNumber",
                  "name": "value",
                  "type": "tuple"
                }
              ],
              "internalType": "struct Zp",
              "name": "y",
              "type": "tuple"
            }
          ],
          "internalType": "struct Point_Zp",
          "name": "p",
          "type": "tuple"
        },
        {
          "components": [
            {
              "internalType": "enum PointType",
              "name": "pointType",
              "type": "uint8"
            },
            {
              "components": [
                {
                  "components": [
                    {
                      "components": [
                        {
                          "components": [
                            {
                              "components": [
                                {
                                  "internalType": "bytes",
                                  "name": "val",
                                  "type": "bytes"
                                },
                                {
                                  "internalType": "bool",
                                  "name": "neg",
                                  "type": "bool"
                                },
                                {
                                  "internalType": "uint256",
                                  "name": "bitlen",
                                  "type": "uint256"
                                }
                              ],
                              "internalType": "struct BigNumber",
                              "name": "value",
                              "type": "tuple"
                            }
                          ],
                          "internalType": "struct Zp",
                          "name": "a",
                          "type": "tuple"
                        },
                        {
                          "components": [
                            {
                              "components": [
                                {
                                  "internalType": "bytes",
                                  "name": "val",
                                  "type": "bytes"
                                },
                                {
                                  "internalType": "bool",
                                  "name": "neg",
                                  "type": "bool"
                                },
                                {
                                  "internalType": "uint256",
                                  "name": "bitlen",
                                  "type": "uint256"
                                }
                              ],
                              "internalType": "struct BigNumber",
                              "name": "value",
                              "type": "tuple"
                            }
                          ],
                          "internalType": "struct Zp",
                          "name": "b",
                          "type": "tuple"
                        }
                      ],
                      "internalType": "struct Zp_2",
                      "name": "a",
                      "type": "tuple"
                    },
                    {
                      "components": [
                        {
                          "components": [
                            {
                              "components": [
                                {
                                  "internalType": "bytes",
                                  "name": "val",
                                  "type": "bytes"
                                },
                                {
                                  "internalType": "bool",
                                  "name": "neg",
                                  "type": "bool"
                                },
                                {
                                  "internalType": "uint256",
                                  "name": "bitlen",
                                  "type": "uint256"
                                }
                              ],
                              "internalType": "struct BigNumber",
                              "name": "value",
                              "type": "tuple"
                            }
                          ],
                          "internalType": "struct Zp",
                          "name": "a",
                          "type": "tuple"
                        },
                        {
                          "components": [
                            {
                              "components": [
                                {
                                  "internalType": "bytes",
                                  "name": "val",
                                  "type": "bytes"
                                },
                                {
                                  "internalType": "bool",
                                  "name": "neg",
                                  "type": "bool"
                                },
                                {
                                  "internalType": "uint256",
                                  "name": "bitlen",
                                  "type": "uint256"
                                }
                              ],
                              "internalType": "struct BigNumber",
                              "name": "value",
                              "type": "tuple"
                            }
                          ],
                          "internalType": "struct Zp",
                          "name": "b",
                          "type": "tuple"
                        }
                      ],
                      "internalType": "struct Zp_2",
                      "name": "b",
                      "type": "tuple"
                    },
                    {
                      "components": [
                        {
                          "components": [
                            {
                              "components": [
                                {
                                  "internalType": "bytes",
                                  "name": "val",
                                  "type": "bytes"
                                },
                                {
                                  "internalType": "bool",
                                  "name": "neg",
                                  "type": "bool"
                                },
                                {
                                  "internalType": "uint256",
                                  "name": "bitlen",
                                  "type": "uint256"
                                }
                              ],
                              "internalType": "struct BigNumber",
                              "name": "value",
                              "type": "tuple"
                            }
                          ],
                          "internalType": "struct Zp",
                          "name": "a",
                          "type": "tuple"
                        },
                        {
                          "components": [
                            {
                              "components": [
                                {
                                  "internalType": "bytes",
                                  "name": "val",
                                  "type": "bytes"
                                },
                                {
                                  "internalType": "bool",
                                  "name": "neg",
                                  "type": "bool"
                                },
                                {
                                  "internalType": "uint256",
                                  "name": "bitlen",
                                  "type": "uint256"
                                }
                              ],
                              "internalType": "struct BigNumber",
                              "name": "value",
                              "type": "tuple"
                            }
                          ],
                          "internalType": "struct Zp",
                          "name": "b",
                          "type": "tuple"
                        }
                      ],
                      "internalType": "struct Zp_2",
                      "name": "c",
                      "type": "tuple"
                    }
                  ],
                  "internalType": "struct Zp_6",
                  "name": "a",
                  "type": "tuple"
                },
                {
                  "components": [
                    {
                      "components": [
                        {
                          "components": [
                            {
                              "components": [
                                {
                                  "internalType": "bytes",
                                  "name": "val",
                                  "type": "bytes"
                                },
                                {
                                  "internalType": "bool",
                                  "name": "neg",
                                  "type": "bool"
                                },
                                {
                                  "internalType": "uint256",
                                  "name": "bitlen",
                                  "type": "uint256"
                                }
                              ],
                              "internalType": "struct BigNumber",
                              "name": "value",
                              "type": "tuple"
                            }
                          ],
                          "internalType": "struct Zp",
                          "name": "a",
                          "type": "tuple"
                        },
                        {
                          "components": [
                            {
                              "components": [
                                {
                                  "internalType": "bytes",
                                  "name": "val",
                                  "type": "bytes"
                                },
                                {
                                  "internalType": "bool",
                                  "name": "neg",
                                  "type": "bool"
                                },
                                {
                                  "internalType": "uint256",
                                  "name": "bitlen",
                                  "type": "uint256"
                                }
                              ],
                              "internalType": "struct BigNumber",
                              "name": "value",
                              "type": "tuple"
                            }
                          ],
                          "internalType": "struct Zp",
                          "name": "b",
                          "type": "tuple"
                        }
                      ],
                      "internalType": "struct Zp_2",
                      "name": "a",
                      "type": "tuple"
                    },
                    {
                      "components": [
                        {
                          "components": [
                            {
                              "components": [
                                {
                                  "internalType": "bytes",
                                  "name": "val",
                                  "type": "bytes"
                                },
                                {
                                  "internalType": "bool",
                                  "name": "neg",
                                  "type": "bool"
                                },
                                {
                                  "internalType": "uint256",
                                  "name": "bitlen",
                                  "type": "uint256"
                                }
                              ],
                              "internalType": "struct BigNumber",
                              "name": "value",
                              "type": "tuple"
                            }
                          ],
                          "internalType": "struct Zp",
                          "name": "a",
                          "type": "tuple"
                        },
                        {
                          "components": [
                            {
                              "components": [
                                {
                                  "internalType": "bytes",
                                  "name": "val",
                                  "type": "bytes"
                                },
                                {
                                  "internalType": "bool",
                                  "name": "neg",
                                  "type": "bool"
                                },
                                {
                                  "internalType": "uint256",
                                  "name": "bitlen",
                                  "type": "uint256"
                                }
                              ],
                              "internalType": "struct BigNumber",
                              "name": "value",
                              "type": "tuple"
                            }
                          ],
                          "internalType": "struct Zp",
                          "name": "b",
                          "type": "tuple"
                        }
                      ],
                      "internalType": "struct Zp_2",
                      "name": "b",
                      "type": "tuple"
                    },
                    {
                      "components": [
                        {
                          "components": [
                            {
                              "components": [
                                {
                                  "internalType": "bytes",
                                  "name": "val",
                                  "type": "bytes"
                                },
                                {
                                  "internalType": "bool",
                                  "name": "neg",
                                  "type": "bool"
                                },
                                {
                                  "internalType": "uint256",
                                  "name": "bitlen",
                                  "type": "uint256"
                                }
                              ],
                              "internalType": "struct BigNumber",
                              "name": "value",
                              "type": "tuple"
                            }
                          ],
                          "internalType": "struct Zp",
                          "name": "a",
                          "type": "tuple"
                        },
                        {
                          "components": [
                            {
                              "components": [
                                {
                                  "internalType": "bytes",
                                  "name": "val",
                                  "type": "bytes"
                                },
                                {
                                  "internalType": "bool",
                                  "name": "neg",
                                  "type": "bool"
                                },
                                {
                                  "internalType": "uint256",
                                  "name": "bitlen",
                                  "type": "uint256"
                                }
                              ],
                              "internalType": "struct BigNumber",
                              "name": "value",
                              "type": "tuple"
                            }
                          ],
                          "internalType": "struct Zp",
                          "name": "b",
                          "type": "tuple"
                        }
                      ],
                      "internalType": "struct Zp_2",
                      "name": "c",
                      "type": "tuple"
                    }
                  ],
                  "internalType": "struct Zp_6",
                  "name": "b",
                  "type": "tuple"
                }
              ],
              "internalType": "struct Zp_12",
              "name": "x",
              "type": "tuple"
            },
            {
              "components": [
                {
                  "components": [
                    {
                      "components": [
                        {
                          "components": [
                            {
                              "components": [
                                {
                                  "internalType": "bytes",
                                  "name": "val",
                                  "type": "bytes"
                                },
                                {
                                  "internalType": "bool",
                                  "name": "neg",
                                  "type": "bool"
                                },
                                {
                                  "internalType": "uint256",
                                  "name": "bitlen",
                                  "type": "uint256"
                                }
                              ],
                              "internalType": "struct BigNumber",
                              "name": "value",
                              "type": "tuple"
                            }
                          ],
                          "internalType": "struct Zp",
                          "name": "a",
                          "type": "tuple"
                        },
                        {
                          "components": [
                            {
                              "components": [
                                {
                                  "internalType": "bytes",
                                  "name": "val",
                                  "type": "bytes"
                                },
                                {
                                  "internalType": "bool",
                                  "name": "neg",
                                  "type": "bool"
                                },
                                {
                                  "internalType": "uint256",
                                  "name": "bitlen",
                                  "type": "uint256"
                                }
                              ],
                              "internalType": "struct BigNumber",
                              "name": "value",
                              "type": "tuple"
                            }
                          ],
                          "internalType": "struct Zp",
                          "name": "b",
                          "type": "tuple"
                        }
                      ],
                      "internalType": "struct Zp_2",
                      "name": "a",
                      "type": "tuple"
                    },
                    {
                      "components": [
                        {
                          "components": [
                            {
                              "components": [
                                {
                                  "internalType": "bytes",
                                  "name": "val",
                                  "type": "bytes"
                                },
                                {
                                  "internalType": "bool",
                                  "name": "neg",
                                  "type": "bool"
                                },
                                {
                                  "internalType": "uint256",
                                  "name": "bitlen",
                                  "type": "uint256"
                                }
                              ],
                              "internalType": "struct BigNumber",
                              "name": "value",
                              "type": "tuple"
                            }
                          ],
                          "internalType": "struct Zp",
                          "name": "a",
                          "type": "tuple"
                        },
                        {
                          "components": [
                            {
                              "components": [
                                {
                                  "internalType": "bytes",
                                  "name": "val",
                                  "type": "bytes"
                                },
                                {
                                  "internalType": "bool",
                                  "name": "neg",
                                  "type": "bool"
                                },
                                {
                                  "internalType": "uint256",
                                  "name": "bitlen",
                                  "type": "uint256"
                                }
                              ],
                              "internalType": "struct BigNumber",
                              "name": "value",
                              "type": "tuple"
                            }
                          ],
                          "internalType": "struct Zp",
                          "name": "b",
                          "type": "tuple"
                        }
                      ],
                      "internalType": "struct Zp_2",
                      "name": "b",
                      "type": "tuple"
                    },
                    {
                      "components": [
                        {
                          "components": [
                            {
                              "components": [
                                {
                                  "internalType": "bytes",
                                  "name": "val",
                                  "type": "bytes"
                                },
                                {
                                  "internalType": "bool",
                                  "name": "neg",
                                  "type": "bool"
                                },
                                {
                                  "internalType": "uint256",
                                  "name": "bitlen",
                                  "type": "uint256"
                                }
                              ],
                              "internalType": "struct BigNumber",
                              "name": "value",
                              "type": "tuple"
                            }
                          ],
                          "internalType": "struct Zp",
                          "name": "a",
                          "type": "tuple"
                        },
                        {
                          "components": [
                            {
                              "components": [
                                {
                                  "internalType": "bytes",
                                  "name": "val",
                                  "type": "bytes"
                                },
                                {
                                  "internalType": "bool",
                                  "name": "neg",
                                  "type": "bool"
                                },
                                {
                                  "internalType": "uint256",
                                  "name": "bitlen",
                                  "type": "uint256"
                                }
                              ],
                              "internalType": "struct BigNumber",
                              "name": "value",
                              "type": "tuple"
                            }
                          ],
                          "internalType": "struct Zp",
                          "name": "b",
                          "type": "tuple"
                        }
                      ],
                      "internalType": "struct Zp_2",
                      "name": "c",
                      "type": "tuple"
                    }
                  ],
                  "internalType": "struct Zp_6",
                  "name": "a",
                  "type": "tuple"
                },
                {
                  "components": [
                    {
                      "components": [
                        {
                          "components": [
                            {
                              "components": [
                                {
                                  "internalType": "bytes",
                                  "name": "val",
                                  "type": "bytes"
                                },
                                {
                                  "internalType": "bool",
                                  "name": "neg",
                                  "type": "bool"
                                },
                                {
                                  "internalType": "uint256",
                                  "name": "bitlen",
                                  "type": "uint256"
                                }
                              ],
                              "internalType": "struct BigNumber",
                              "name": "value",
                              "type": "tuple"
                            }
                          ],
                          "internalType": "struct Zp",
                          "name": "a",
                          "type": "tuple"
                        },
                        {
                          "components": [
                            {
                              "components": [
                                {
                                  "internalType": "bytes",
                                  "name": "val",
                                  "type": "bytes"
                                },
                                {
                                  "internalType": "bool",
                                  "name": "neg",
                                  "type": "bool"
                                },
                                {
                                  "internalType": "uint256",
                                  "name": "bitlen",
                                  "type": "uint256"
                                }
                              ],
                              "internalType": "struct BigNumber",
                              "name": "value",
                              "type": "tuple"
                            }
                          ],
                          "internalType": "struct Zp",
                          "name": "b",
                          "type": "tuple"
                        }
                      ],
                      "internalType": "struct Zp_2",
                      "name": "a",
                      "type": "tuple"
                    },
                    {
                      "components": [
                        {
                          "components": [
                            {
                              "components": [
                                {
                                  "internalType": "bytes",
                                  "name": "val",
                                  "type": "bytes"
                                },
                                {
                                  "internalType": "bool",
                                  "name": "neg",
                                  "type": "bool"
                                },
                                {
                                  "internalType": "uint256",
                                  "name": "bitlen",
                                  "type": "uint256"
                                }
                              ],
                              "internalType": "struct BigNumber",
                              "name": "value",
                              "type": "tuple"
                            }
                          ],
                          "internalType": "struct Zp",
                          "name": "a",
                          "type": "tuple"
                        },
                        {
                          "components": [
                            {
                              "components": [
                                {
                                  "internalType": "bytes",
                                  "name": "val",
                                  "type": "bytes"
                                },
                                {
                                  "internalType": "bool",
                                  "name": "neg",
                                  "type": "bool"
                                },
                                {
                                  "internalType": "uint256",
                                  "name": "bitlen",
                                  "type": "uint256"
                                }
                              ],
                              "internalType": "struct BigNumber",
                              "name": "value",
                              "type": "tuple"
                            }
                          ],
                          "internalType": "struct Zp",
                          "name": "b",
                          "type": "tuple"
                        }
                      ],
                      "internalType": "struct Zp_2",
                      "name": "b",
                      "type": "tuple"
                    },
                    {
                      "components": [
                        {
                          "components": [
                            {
                              "components": [
                                {
                                  "internalType": "bytes",
                                  "name": "val",
                                  "type": "bytes"
                                },
                                {
                                  "internalType": "bool",
                                  "name": "neg",
                                  "type": "bool"
                                },
                                {
                                  "internalType": "uint256",
                                  "name": "bitlen",
                                  "type": "uint256"
                                }
                              ],
                              "internalType": "struct BigNumber",
                              "name": "value",
                              "type": "tuple"
                            }
                          ],
                          "internalType": "struct Zp",
                          "name": "a",
                          "type": "tuple"
                        },
                        {
                          "components": [
                            {
                              "components": [
                                {
                                  "internalType": "bytes",
                                  "name": "val",
                                  "type": "bytes"
                                },
                                {
                                  "internalType": "bool",
                                  "name": "neg",
                                  "type": "bool"
                                },
                                {
                                  "internalType": "uint256",
                                  "name": "bitlen",
                                  "type": "uint256"
                                }
                              ],
                              "internalType": "struct BigNumber",
                              "name": "value",
                              "type": "tuple"
                            }
                          ],
                          "internalType": "struct Zp",
                          "name": "b",
                          "type": "tuple"
                        }
                      ],
                      "internalType": "struct Zp_2",
                      "name": "c",
                      "type": "tuple"
                    }
                  ],
                  "internalType": "struct Zp_6",
                  "name": "b",
                  "type": "tuple"
                }
              ],
              "internalType": "struct Zp_12",
              "name": "y",
              "type": "tuple"
            }
          ],
          "internalType": "struct Point_Zp_12",
          "name": "q",
          "type": "tuple"
        }
      ],
      "name": "miller",
      "outputs": [
        {
          "components": [
            {
              "internalType": "enum PointType",
              "name": "pointType",
              "type": "uint8"
            },
            {
              "components": [
                {
                  "components": [
                    {
                      "components": [
                        {
                          "components": [
                            {
                              "components": [
                                {
                                  "internalType": "bytes",
                                  "name": "val",
                                  "type": "bytes"
                                },
                                {
                                  "internalType": "bool",
                                  "name": "neg",
                                  "type": "bool"
                                },
                                {
                                  "internalType": "uint256",
                                  "name": "bitlen",
                                  "type": "uint256"
                                }
                              ],
                              "internalType": "struct BigNumber",
                              "name": "value",
                              "type": "tuple"
                            }
                          ],
                          "internalType": "struct Zp",
                          "name": "a",
                          "type": "tuple"
                        },
                        {
                          "components": [
                            {
                              "components": [
                                {
                                  "internalType": "bytes",
                                  "name": "val",
                                  "type": "bytes"
                                },
                                {
                                  "internalType": "bool",
                                  "name": "neg",
                                  "type": "bool"
                                },
                                {
                                  "internalType": "uint256",
                                  "name": "bitlen",
                                  "type": "uint256"
                                }
                              ],
                              "internalType": "struct BigNumber",
                              "name": "value",
                              "type": "tuple"
                            }
                          ],
                          "internalType": "struct Zp",
                          "name": "b",
                          "type": "tuple"
                        }
                      ],
                      "internalType": "struct Zp_2",
                      "name": "a",
                      "type": "tuple"
                    },
                    {
                      "components": [
                        {
                          "components": [
                            {
                              "components": [
                                {
                                  "internalType": "bytes",
                                  "name": "val",
                                  "type": "bytes"
                                },
                                {
                                  "internalType": "bool",
                                  "name": "neg",
                                  "type": "bool"
                                },
                                {
                                  "internalType": "uint256",
                                  "name": "bitlen",
                                  "type": "uint256"
                                }
                              ],
                              "internalType": "struct BigNumber",
                              "name": "value",
                              "type": "tuple"
                            }
                          ],
                          "internalType": "struct Zp",
                          "name": "a",
                          "type": "tuple"
                        },
                        {
                          "components": [
                            {
                              "components": [
                                {
                                  "internalType": "bytes",
                                  "name": "val",
                                  "type": "bytes"
                                },
                                {
                                  "internalType": "bool",
                                  "name": "neg",
                                  "type": "bool"
                                },
                                {
                                  "internalType": "uint256",
                                  "name": "bitlen",
                                  "type": "uint256"
                                }
                              ],
                              "internalType": "struct BigNumber",
                              "name": "value",
                              "type": "tuple"
                            }
                          ],
                          "internalType": "struct Zp",
                          "name": "b",
                          "type": "tuple"
                        }
                      ],
                      "internalType": "struct Zp_2",
                      "name": "b",
                      "type": "tuple"
                    },
                    {
                      "components": [
                        {
                          "components": [
                            {
                              "components": [
                                {
                                  "internalType": "bytes",
                                  "name": "val",
                                  "type": "bytes"
                                },
                                {
                                  "internalType": "bool",
                                  "name": "neg",
                                  "type": "bool"
                                },
                                {
                                  "internalType": "uint256",
                                  "name": "bitlen",
                                  "type": "uint256"
                                }
                              ],
                              "internalType": "struct BigNumber",
                              "name": "value",
                              "type": "tuple"
                            }
                          ],
                          "internalType": "struct Zp",
                          "name": "a",
                          "type": "tuple"
                        },
                        {
                          "components": [
                            {
                              "components": [
                                {
                                  "internalType": "bytes",
                                  "name": "val",
                                  "type": "bytes"
                                },
                                {
                                  "internalType": "bool",
                                  "name": "neg",
                                  "type": "bool"
                                },
                                {
                                  "internalType": "uint256",
                                  "name": "bitlen",
                                  "type": "uint256"
                                }
                              ],
                              "internalType": "struct BigNumber",
                              "name": "value",
                              "type": "tuple"
                            }
                          ],
                          "internalType": "struct Zp",
                          "name": "b",
                          "type": "tuple"
                        }
                      ],
                      "internalType": "struct Zp_2",
                      "name": "c",
                      "type": "tuple"
                    }
                  ],
                  "internalType": "struct Zp_6",
                  "name": "a",
                  "type": "tuple"
                },
                {
                  "components": [
                    {
                      "components": [
                        {
                          "components": [
                            {
                              "components": [
                                {
                                  "internalType": "bytes",
                                  "name": "val",
                                  "type": "bytes"
                                },
                                {
                                  "internalType": "bool",
                                  "name": "neg",
                                  "type": "bool"
                                },
                                {
                                  "internalType": "uint256",
                                  "name": "bitlen",
                                  "type": "uint256"
                                }
                              ],
                              "internalType": "struct BigNumber",
                              "name": "value",
                              "type": "tuple"
                            }
                          ],
                          "internalType": "struct Zp",
                          "name": "a",
                          "type": "tuple"
                        },
                        {
                          "components": [
                            {
                              "components": [
                                {
                                  "internalType": "bytes",
                                  "name": "val",
                                  "type": "bytes"
                                },
                                {
                                  "internalType": "bool",
                                  "name": "neg",
                                  "type": "bool"
                                },
                                {
                                  "internalType": "uint256",
                                  "name": "bitlen",
                                  "type": "uint256"
                                }
                              ],
                              "internalType": "struct BigNumber",
                              "name": "value",
                              "type": "tuple"
                            }
                          ],
                          "internalType": "struct Zp",
                          "name": "b",
                          "type": "tuple"
                        }
                      ],
                      "internalType": "struct Zp_2",
                      "name": "a",
                      "type": "tuple"
                    },
                    {
                      "components": [
                        {
                          "components": [
                            {
                              "components": [
                                {
                                  "internalType": "bytes",
                                  "name": "val",
                                  "type": "bytes"
                                },
                                {
                                  "internalType": "bool",
                                  "name": "neg",
                                  "type": "bool"
                                },
                                {
                                  "internalType": "uint256",
                                  "name": "bitlen",
                                  "type": "uint256"
                                }
                              ],
                              "internalType": "struct BigNumber",
                              "name": "value",
                              "type": "tuple"
                            }
                          ],
                          "internalType": "struct Zp",
                          "name": "a",
                          "type": "tuple"
                        },
                        {
                          "components": [
                            {
                              "components": [
                                {
                                  "internalType": "bytes",
                                  "name": "val",
                                  "type": "bytes"
                                },
                                {
                                  "internalType": "bool",
                                  "name": "neg",
                                  "type": "bool"
                                },
                                {
                                  "internalType": "uint256",
                                  "name": "bitlen",
                                  "type": "uint256"
                                }
                              ],
                              "internalType": "struct BigNumber",
                              "name": "value",
                              "type": "tuple"
                            }
                          ],
                          "internalType": "struct Zp",
                          "name": "b",
                          "type": "tuple"
                        }
                      ],
                      "internalType": "struct Zp_2",
                      "name": "b",
                      "type": "tuple"
                    },
                    {
                      "components": [
                        {
                          "components": [
                            {
                              "components": [
                                {
                                  "internalType": "bytes",
                                  "name": "val",
                                  "type": "bytes"
                                },
                                {
                                  "internalType": "bool",
                                  "name": "neg",
                                  "type": "bool"
                                },
                                {
                                  "internalType": "uint256",
                                  "name": "bitlen",
                                  "type": "uint256"
                                }
                              ],
                              "internalType": "struct BigNumber",
                              "name": "value",
                              "type": "tuple"
                            }
                          ],
                          "internalType": "struct Zp",
                          "name": "a",
                          "type": "tuple"
                        },
                        {
                          "components": [
                            {
                              "components": [
                                {
                                  "internalType": "bytes",
                                  "name": "val",
                                  "type": "bytes"
                                },
                                {
                                  "internalType": "bool",
                                  "name": "neg",
                                  "type": "bool"
                                },
                                {
                                  "internalType": "uint256",
                                  "name": "bitlen",
                                  "type": "uint256"
                                }
                              ],
                              "internalType": "struct BigNumber",
                              "name": "value",
                              "type": "tuple"
                            }
                          ],
                          "internalType": "struct Zp",
                          "name": "b",
                          "type": "tuple"
                        }
                      ],
                      "internalType": "struct Zp_2",
                      "name": "c",
                      "type": "tuple"
                    }
                  ],
                  "internalType": "struct Zp_6",
                  "name": "b",
                  "type": "tuple"
                }
              ],
              "internalType": "struct Zp_12",
              "name": "x",
              "type": "tuple"
            },
            {
              "components": [
                {
                  "components": [
                    {
                      "components": [
                        {
                          "components": [
                            {
                              "components": [
                                {
                                  "internalType": "bytes",
                                  "name": "val",
                                  "type": "bytes"
                                },
                                {
                                  "internalType": "bool",
                                  "name": "neg",
                                  "type": "bool"
                                },
                                {
                                  "internalType": "uint256",
                                  "name": "bitlen",
                                  "type": "uint256"
                                }
                              ],
                              "internalType": "struct BigNumber",
                              "name": "value",
                              "type": "tuple"
                            }
                          ],
                          "internalType": "struct Zp",
                          "name": "a",
                          "type": "tuple"
                        },
                        {
                          "components": [
                            {
                              "components": [
                                {
                                  "internalType": "bytes",
                                  "name": "val",
                                  "type": "bytes"
                                },
                                {
                                  "internalType": "bool",
                                  "name": "neg",
                                  "type": "bool"
                                },
                                {
                                  "internalType": "uint256",
                                  "name": "bitlen",
                                  "type": "uint256"
                                }
                              ],
                              "internalType": "struct BigNumber",
                              "name": "value",
                              "type": "tuple"
                            }
                          ],
                          "internalType": "struct Zp",
                          "name": "b",
                          "type": "tuple"
                        }
                      ],
                      "internalType": "struct Zp_2",
                      "name": "a",
                      "type": "tuple"
                    },
                    {
                      "components": [
                        {
                          "components": [
                            {
                              "components": [
                                {
                                  "internalType": "bytes",
                                  "name": "val",
                                  "type": "bytes"
                                },
                                {
                                  "internalType": "bool",
                                  "name": "neg",
                                  "type": "bool"
                                },
                                {
                                  "internalType": "uint256",
                                  "name": "bitlen",
                                  "type": "uint256"
                                }
                              ],
                              "internalType": "struct BigNumber",
                              "name": "value",
                              "type": "tuple"
                            }
                          ],
                          "internalType": "struct Zp",
                          "name": "a",
                          "type": "tuple"
                        },
                        {
                          "components": [
                            {
                              "components": [
                                {
                                  "internalType": "bytes",
                                  "name": "val",
                                  "type": "bytes"
                                },
                                {
                                  "internalType": "bool",
                                  "name": "neg",
                                  "type": "bool"
                                },
                                {
                                  "internalType": "uint256",
                                  "name": "bitlen",
                                  "type": "uint256"
                                }
                              ],
                              "internalType": "struct BigNumber",
                              "name": "value",
                              "type": "tuple"
                            }
                          ],
                          "internalType": "struct Zp",
                          "name": "b",
                          "type": "tuple"
                        }
                      ],
                      "internalType": "struct Zp_2",
                      "name": "b",
                      "type": "tuple"
                    },
                    {
                      "components": [
                        {
                          "components": [
                            {
                              "components": [
                                {
                                  "internalType": "bytes",
                                  "name": "val",
                                  "type": "bytes"
                                },
                                {
                                  "internalType": "bool",
                                  "name": "neg",
                                  "type": "bool"
                                },
                                {
                                  "internalType": "uint256",
                                  "name": "bitlen",
                                  "type": "uint256"
                                }
                              ],
                              "internalType": "struct BigNumber",
                              "name": "value",
                              "type": "tuple"
                            }
                          ],
                          "internalType": "struct Zp",
                          "name": "a",
                          "type": "tuple"
                        },
                        {
                          "components": [
                            {
                              "components": [
                                {
                                  "internalType": "bytes",
                                  "name": "val",
                                  "type": "bytes"
                                },
                                {
                                  "internalType": "bool",
                                  "name": "neg",
                                  "type": "bool"
                                },
                                {
                                  "internalType": "uint256",
                                  "name": "bitlen",
                                  "type": "uint256"
                                }
                              ],
                              "internalType": "struct BigNumber",
                              "name": "value",
                              "type": "tuple"
                            }
                          ],
                          "internalType": "struct Zp",
                          "name": "b",
                          "type": "tuple"
                        }
                      ],
                      "internalType": "struct Zp_2",
                      "name": "c",
                      "type": "tuple"
                    }
                  ],
                  "internalType": "struct Zp_6",
                  "name": "a",
                  "type": "tuple"
                },
                {
                  "components": [
                    {
                      "components": [
                        {
                          "components": [
                            {
                              "components": [
                                {
                                  "internalType": "bytes",
                                  "name": "val",
                                  "type": "bytes"
                                },
                                {
                                  "internalType": "bool",
                                  "name": "neg",
                                  "type": "bool"
                                },
                                {
                                  "internalType": "uint256",
                                  "name": "bitlen",
                                  "type": "uint256"
                                }
                              ],
                              "internalType": "struct BigNumber",
                              "name": "value",
                              "type": "tuple"
                            }
                          ],
                          "internalType": "struct Zp",
                          "name": "a",
                          "type": "tuple"
                        },
                        {
                          "components": [
                            {
                              "components": [
                                {
                                  "internalType": "bytes",
                                  "name": "val",
                                  "type": "bytes"
                                },
                                {
                                  "internalType": "bool",
                                  "name": "neg",
                                  "type": "bool"
                                },
                                {
                                  "internalType": "uint256",
                                  "name": "bitlen",
                                  "type": "uint256"
                                }
                              ],
                              "internalType": "struct BigNumber",
                              "name": "value",
                              "type": "tuple"
                            }
                          ],
                          "internalType": "struct Zp",
                          "name": "b",
                          "type": "tuple"
                        }
                      ],
                      "internalType": "struct Zp_2",
                      "name": "a",
                      "type": "tuple"
                    },
                    {
                      "components": [
                        {
                          "components": [
                            {
                              "components": [
                                {
                                  "internalType": "bytes",
                                  "name": "val",
                                  "type": "bytes"
                                },
                                {
                                  "internalType": "bool",
                                  "name": "neg",
                                  "type": "bool"
                                },
                                {
                                  "internalType": "uint256",
                                  "name": "bitlen",
                                  "type": "uint256"
                                }
                              ],
                              "internalType": "struct BigNumber",
                              "name": "value",
                              "type": "tuple"
                            }
                          ],
                          "internalType": "struct Zp",
                          "name": "a",
                          "type": "tuple"
                        },
                        {
                          "components": [
                            {
                              "components": [
                                {
                                  "internalType": "bytes",
                                  "name": "val",
                                  "type": "bytes"
                                },
                                {
                                  "internalType": "bool",
                                  "name": "neg",
                                  "type": "bool"
                                },
                                {
                                  "internalType": "uint256",
                                  "name": "bitlen",
                                  "type": "uint256"
                                }
                              ],
                              "internalType": "struct BigNumber",
                              "name": "value",
                              "type": "tuple"
                            }
                          ],
                          "internalType": "struct Zp",
                          "name": "b",
                          "type": "tuple"
                        }
                      ],
                      "internalType": "struct Zp_2",
                      "name": "b",
                      "type": "tuple"
                    },
                    {
                      "components": [
                        {
                          "components": [
                            {
                              "components": [
                                {
                                  "internalType": "bytes",
                                  "name": "val",
                                  "type": "bytes"
                                },
                                {
                                  "internalType": "bool",
                                  "name": "neg",
                                  "type": "bool"
                                },
                                {
                                  "internalType": "uint256",
                                  "name": "bitlen",
                                  "type": "uint256"
                                }
                              ],
                              "internalType": "struct BigNumber",
                              "name": "value",
                              "type": "tuple"
                            }
                          ],
                          "internalType": "struct Zp",
                          "name": "a",
                          "type": "tuple"
                        },
                        {
                          "components": [
                            {
                              "components": [
                                {
                                  "internalType": "bytes",
                                  "name": "val",
                                  "type": "bytes"
                                },
                                {
                                  "internalType": "bool",
                                  "name": "neg",
                                  "type": "bool"
                                },
                                {
                                  "internalType": "uint256",
                                  "name": "bitlen",
                                  "type": "uint256"
                                }
                              ],
                              "internalType": "struct BigNumber",
                              "name": "value",
                              "type": "tuple"
                            }
                          ],
                          "internalType": "struct Zp",
                          "name": "b",
                          "type": "tuple"
                        }
                      ],
                      "internalType": "struct Zp_2",
                      "name": "c",
                      "type": "tuple"
                    }
                  ],
                  "internalType": "struct Zp_6",
                  "name": "b",
                  "type": "tuple"
                }
              ],
              "internalType": "struct Zp_12",
              "name": "y",
              "type": "tuple"
            }
          ],
          "internalType": "struct Point_Zp_12",
          "name": "",
          "type": "tuple"
        }
      ],
      "stateMutability": "view",
      "type": "function"
    },
    {
      "inputs": [
        {
          "components": [
            {
              "internalType": "enum PointType",
              "name": "pointType",
              "type": "uint8"
            },
            {
              "components": [
                {
                  "components": [
                    {
                      "components": [
                        {
                          "internalType": "bytes",
                          "name": "val",
                          "type": "bytes"
                        },
                        {
                          "internalType": "bool",
                          "name": "neg",
                          "type": "bool"
                        },
                        {
                          "internalType": "uint256",
                          "name": "bitlen",
                          "type": "uint256"
                        }
                      ],
                      "internalType": "struct BigNumber",
                      "name": "value",
                      "type": "tuple"
                    }
                  ],
                  "internalType": "struct Zp",
                  "name": "a",
                  "type": "tuple"
                },
                {
                  "components": [
                    {
                      "components": [
                        {
                          "internalType": "bytes",
                          "name": "val",
                          "type": "bytes"
                        },
                        {
                          "internalType": "bool",
                          "name": "neg",
                          "type": "bool"
                        },
                        {
                          "internalType": "uint256",
                          "name": "bitlen",
                          "type": "uint256"
                        }
                      ],
                      "internalType": "struct BigNumber",
                      "name": "value",
                      "type": "tuple"
                    }
                  ],
                  "internalType": "struct Zp",
                  "name": "b",
                  "type": "tuple"
                }
              ],
              "internalType": "struct Zp_2",
              "name": "x",
              "type": "tuple"
            },
            {
              "components": [
                {
                  "components": [
                    {
                      "components": [
                        {
                          "internalType": "bytes",
                          "name": "val",
                          "type": "bytes"
                        },
                        {
                          "internalType": "bool",
                          "name": "neg",
                          "type": "bool"
                        },
                        {
                          "internalType": "uint256",
                          "name": "bitlen",
                          "type": "uint256"
                        }
                      ],
                      "internalType": "struct BigNumber",
                      "name": "value",
                      "type": "tuple"
                    }
                  ],
                  "internalType": "struct Zp",
                  "name": "a",
                  "type": "tuple"
                },
                {
                  "components": [
                    {
                      "components": [
                        {
                          "internalType": "bytes",
                          "name": "val",
                          "type": "bytes"
                        },
                        {
                          "internalType": "bool",
                          "name": "neg",
                          "type": "bool"
                        },
                        {
                          "internalType": "uint256",
                          "name": "bitlen",
                          "type": "uint256"
                        }
                      ],
                      "internalType": "struct BigNumber",
                      "name": "value",
                      "type": "tuple"
                    }
                  ],
                  "internalType": "struct Zp",
                  "name": "b",
                  "type": "tuple"
                }
              ],
              "internalType": "struct Zp_2",
              "name": "y",
              "type": "tuple"
            }
          ],
          "internalType": "struct Point_Zp_2",
          "name": "point",
          "type": "tuple"
        }
      ],
      "name": "untwist",
      "outputs": [
        {
          "components": [
            {
              "internalType": "enum PointType",
              "name": "pointType",
              "type": "uint8"
            },
            {
              "components": [
                {
                  "components": [
                    {
                      "components": [
                        {
                          "components": [
                            {
                              "components": [
                                {
                                  "internalType": "bytes",
                                  "name": "val",
                                  "type": "bytes"
                                },
                                {
                                  "internalType": "bool",
                                  "name": "neg",
                                  "type": "bool"
                                },
                                {
                                  "internalType": "uint256",
                                  "name": "bitlen",
                                  "type": "uint256"
                                }
                              ],
                              "internalType": "struct BigNumber",
                              "name": "value",
                              "type": "tuple"
                            }
                          ],
                          "internalType": "struct Zp",
                          "name": "a",
                          "type": "tuple"
                        },
                        {
                          "components": [
                            {
                              "components": [
                                {
                                  "internalType": "bytes",
                                  "name": "val",
                                  "type": "bytes"
                                },
                                {
                                  "internalType": "bool",
                                  "name": "neg",
                                  "type": "bool"
                                },
                                {
                                  "internalType": "uint256",
                                  "name": "bitlen",
                                  "type": "uint256"
                                }
                              ],
                              "internalType": "struct BigNumber",
                              "name": "value",
                              "type": "tuple"
                            }
                          ],
                          "internalType": "struct Zp",
                          "name": "b",
                          "type": "tuple"
                        }
                      ],
                      "internalType": "struct Zp_2",
                      "name": "a",
                      "type": "tuple"
                    },
                    {
                      "components": [
                        {
                          "components": [
                            {
                              "components": [
                                {
                                  "internalType": "bytes",
                                  "name": "val",
                                  "type": "bytes"
                                },
                                {
                                  "internalType": "bool",
                                  "name": "neg",
                                  "type": "bool"
                                },
                                {
                                  "internalType": "uint256",
                                  "name": "bitlen",
                                  "type": "uint256"
                                }
                              ],
                              "internalType": "struct BigNumber",
                              "name": "value",
                              "type": "tuple"
                            }
                          ],
                          "internalType": "struct Zp",
                          "name": "a",
                          "type": "tuple"
                        },
                        {
                          "components": [
                            {
                              "components": [
                                {
                                  "internalType": "bytes",
                                  "name": "val",
                                  "type": "bytes"
                                },
                                {
                                  "internalType": "bool",
                                  "name": "neg",
                                  "type": "bool"
                                },
                                {
                                  "internalType": "uint256",
                                  "name": "bitlen",
                                  "type": "uint256"
                                }
                              ],
                              "internalType": "struct BigNumber",
                              "name": "value",
                              "type": "tuple"
                            }
                          ],
                          "internalType": "struct Zp",
                          "name": "b",
                          "type": "tuple"
                        }
                      ],
                      "internalType": "struct Zp_2",
                      "name": "b",
                      "type": "tuple"
                    },
                    {
                      "components": [
                        {
                          "components": [
                            {
                              "components": [
                                {
                                  "internalType": "bytes",
                                  "name": "val",
                                  "type": "bytes"
                                },
                                {
                                  "internalType": "bool",
                                  "name": "neg",
                                  "type": "bool"
                                },
                                {
                                  "internalType": "uint256",
                                  "name": "bitlen",
                                  "type": "uint256"
                                }
                              ],
                              "internalType": "struct BigNumber",
                              "name": "value",
                              "type": "tuple"
                            }
                          ],
                          "internalType": "struct Zp",
                          "name": "a",
                          "type": "tuple"
                        },
                        {
                          "components": [
                            {
                              "components": [
                                {
                                  "internalType": "bytes",
                                  "name": "val",
                                  "type": "bytes"
                                },
                                {
                                  "internalType": "bool",
                                  "name": "neg",
                                  "type": "bool"
                                },
                                {
                                  "internalType": "uint256",
                                  "name": "bitlen",
                                  "type": "uint256"
                                }
                              ],
                              "internalType": "struct BigNumber",
                              "name": "value",
                              "type": "tuple"
                            }
                          ],
                          "internalType": "struct Zp",
                          "name": "b",
                          "type": "tuple"
                        }
                      ],
                      "internalType": "struct Zp_2",
                      "name": "c",
                      "type": "tuple"
                    }
                  ],
                  "internalType": "struct Zp_6",
                  "name": "a",
                  "type": "tuple"
                },
                {
                  "components": [
                    {
                      "components": [
                        {
                          "components": [
                            {
                              "components": [
                                {
                                  "internalType": "bytes",
                                  "name": "val",
                                  "type": "bytes"
                                },
                                {
                                  "internalType": "bool",
                                  "name": "neg",
                                  "type": "bool"
                                },
                                {
                                  "internalType": "uint256",
                                  "name": "bitlen",
                                  "type": "uint256"
                                }
                              ],
                              "internalType": "struct BigNumber",
                              "name": "value",
                              "type": "tuple"
                            }
                          ],
                          "internalType": "struct Zp",
                          "name": "a",
                          "type": "tuple"
                        },
                        {
                          "components": [
                            {
                              "components": [
                                {
                                  "internalType": "bytes",
                                  "name": "val",
                                  "type": "bytes"
                                },
                                {
                                  "internalType": "bool",
                                  "name": "neg",
                                  "type": "bool"
                                },
                                {
                                  "internalType": "uint256",
                                  "name": "bitlen",
                                  "type": "uint256"
                                }
                              ],
                              "internalType": "struct BigNumber",
                              "name": "value",
                              "type": "tuple"
                            }
                          ],
                          "internalType": "struct Zp",
                          "name": "b",
                          "type": "tuple"
                        }
                      ],
                      "internalType": "struct Zp_2",
                      "name": "a",
                      "type": "tuple"
                    },
                    {
                      "components": [
                        {
                          "components": [
                            {
                              "components": [
                                {
                                  "internalType": "bytes",
                                  "name": "val",
                                  "type": "bytes"
                                },
                                {
                                  "internalType": "bool",
                                  "name": "neg",
                                  "type": "bool"
                                },
                                {
                                  "internalType": "uint256",
                                  "name": "bitlen",
                                  "type": "uint256"
                                }
                              ],
                              "internalType": "struct BigNumber",
                              "name": "value",
                              "type": "tuple"
                            }
                          ],
                          "internalType": "struct Zp",
                          "name": "a",
                          "type": "tuple"
                        },
                        {
                          "components": [
                            {
                              "components": [
                                {
                                  "internalType": "bytes",
                                  "name": "val",
                                  "type": "bytes"
                                },
                                {
                                  "internalType": "bool",
                                  "name": "neg",
                                  "type": "bool"
                                },
                                {
                                  "internalType": "uint256",
                                  "name": "bitlen",
                                  "type": "uint256"
                                }
                              ],
                              "internalType": "struct BigNumber",
                              "name": "value",
                              "type": "tuple"
                            }
                          ],
                          "internalType": "struct Zp",
                          "name": "b",
                          "type": "tuple"
                        }
                      ],
                      "internalType": "struct Zp_2",
                      "name": "b",
                      "type": "tuple"
                    },
                    {
                      "components": [
                        {
                          "components": [
                            {
                              "components": [
                                {
                                  "internalType": "bytes",
                                  "name": "val",
                                  "type": "bytes"
                                },
                                {
                                  "internalType": "bool",
                                  "name": "neg",
                                  "type": "bool"
                                },
                                {
                                  "internalType": "uint256",
                                  "name": "bitlen",
                                  "type": "uint256"
                                }
                              ],
                              "internalType": "struct BigNumber",
                              "name": "value",
                              "type": "tuple"
                            }
                          ],
                          "internalType": "struct Zp",
                          "name": "a",
                          "type": "tuple"
                        },
                        {
                          "components": [
                            {
                              "components": [
                                {
                                  "internalType": "bytes",
                                  "name": "val",
                                  "type": "bytes"
                                },
                                {
                                  "internalType": "bool",
                                  "name": "neg",
                                  "type": "bool"
                                },
                                {
                                  "internalType": "uint256",
                                  "name": "bitlen",
                                  "type": "uint256"
                                }
                              ],
                              "internalType": "struct BigNumber",
                              "name": "value",
                              "type": "tuple"
                            }
                          ],
                          "internalType": "struct Zp",
                          "name": "b",
                          "type": "tuple"
                        }
                      ],
                      "internalType": "struct Zp_2",
                      "name": "c",
                      "type": "tuple"
                    }
                  ],
                  "internalType": "struct Zp_6",
                  "name": "b",
                  "type": "tuple"
                }
              ],
              "internalType": "struct Zp_12",
              "name": "x",
              "type": "tuple"
            },
            {
              "components": [
                {
                  "components": [
                    {
                      "components": [
                        {
                          "components": [
                            {
                              "components": [
                                {
                                  "internalType": "bytes",
                                  "name": "val",
                                  "type": "bytes"
                                },
                                {
                                  "internalType": "bool",
                                  "name": "neg",
                                  "type": "bool"
                                },
                                {
                                  "internalType": "uint256",
                                  "name": "bitlen",
                                  "type": "uint256"
                                }
                              ],
                              "internalType": "struct BigNumber",
                              "name": "value",
                              "type": "tuple"
                            }
                          ],
                          "internalType": "struct Zp",
                          "name": "a",
                          "type": "tuple"
                        },
                        {
                          "components": [
                            {
                              "components": [
                                {
                                  "internalType": "bytes",
                                  "name": "val",
                                  "type": "bytes"
                                },
                                {
                                  "internalType": "bool",
                                  "name": "neg",
                                  "type": "bool"
                                },
                                {
                                  "internalType": "uint256",
                                  "name": "bitlen",
                                  "type": "uint256"
                                }
                              ],
                              "internalType": "struct BigNumber",
                              "name": "value",
                              "type": "tuple"
                            }
                          ],
                          "internalType": "struct Zp",
                          "name": "b",
                          "type": "tuple"
                        }
                      ],
                      "internalType": "struct Zp_2",
                      "name": "a",
                      "type": "tuple"
                    },
                    {
                      "components": [
                        {
                          "components": [
                            {
                              "components": [
                                {
                                  "internalType": "bytes",
                                  "name": "val",
                                  "type": "bytes"
                                },
                                {
                                  "internalType": "bool",
                                  "name": "neg",
                                  "type": "bool"
                                },
                                {
                                  "internalType": "uint256",
                                  "name": "bitlen",
                                  "type": "uint256"
                                }
                              ],
                              "internalType": "struct BigNumber",
                              "name": "value",
                              "type": "tuple"
                            }
                          ],
                          "internalType": "struct Zp",
                          "name": "a",
                          "type": "tuple"
                        },
                        {
                          "components": [
                            {
                              "components": [
                                {
                                  "internalType": "bytes",
                                  "name": "val",
                                  "type": "bytes"
                                },
                                {
                                  "internalType": "bool",
                                  "name": "neg",
                                  "type": "bool"
                                },
                                {
                                  "internalType": "uint256",
                                  "name": "bitlen",
                                  "type": "uint256"
                                }
                              ],
                              "internalType": "struct BigNumber",
                              "name": "value",
                              "type": "tuple"
                            }
                          ],
                          "internalType": "struct Zp",
                          "name": "b",
                          "type": "tuple"
                        }
                      ],
                      "internalType": "struct Zp_2",
                      "name": "b",
                      "type": "tuple"
                    },
                    {
                      "components": [
                        {
                          "components": [
                            {
                              "components": [
                                {
                                  "internalType": "bytes",
                                  "name": "val",
                                  "type": "bytes"
                                },
                                {
                                  "internalType": "bool",
                                  "name": "neg",
                                  "type": "bool"
                                },
                                {
                                  "internalType": "uint256",
                                  "name": "bitlen",
                                  "type": "uint256"
                                }
                              ],
                              "internalType": "struct BigNumber",
                              "name": "value",
                              "type": "tuple"
                            }
                          ],
                          "internalType": "struct Zp",
                          "name": "a",
                          "type": "tuple"
                        },
                        {
                          "components": [
                            {
                              "components": [
                                {
                                  "internalType": "bytes",
                                  "name": "val",
                                  "type": "bytes"
                                },
                                {
                                  "internalType": "bool",
                                  "name": "neg",
                                  "type": "bool"
                                },
                                {
                                  "internalType": "uint256",
                                  "name": "bitlen",
                                  "type": "uint256"
                                }
                              ],
                              "internalType": "struct BigNumber",
                              "name": "value",
                              "type": "tuple"
                            }
                          ],
                          "internalType": "struct Zp",
                          "name": "b",
                          "type": "tuple"
                        }
                      ],
                      "internalType": "struct Zp_2",
                      "name": "c",
                      "type": "tuple"
                    }
                  ],
                  "internalType": "struct Zp_6",
                  "name": "a",
                  "type": "tuple"
                },
                {
                  "components": [
                    {
                      "components": [
                        {
                          "components": [
                            {
                              "components": [
                                {
                                  "internalType": "bytes",
                                  "name": "val",
                                  "type": "bytes"
                                },
                                {
                                  "internalType": "bool",
                                  "name": "neg",
                                  "type": "bool"
                                },
                                {
                                  "internalType": "uint256",
                                  "name": "bitlen",
                                  "type": "uint256"
                                }
                              ],
                              "internalType": "struct BigNumber",
                              "name": "value",
                              "type": "tuple"
                            }
                          ],
                          "internalType": "struct Zp",
                          "name": "a",
                          "type": "tuple"
                        },
                        {
                          "components": [
                            {
                              "components": [
                                {
                                  "internalType": "bytes",
                                  "name": "val",
                                  "type": "bytes"
                                },
                                {
                                  "internalType": "bool",
                                  "name": "neg",
                                  "type": "bool"
                                },
                                {
                                  "internalType": "uint256",
                                  "name": "bitlen",
                                  "type": "uint256"
                                }
                              ],
                              "internalType": "struct BigNumber",
                              "name": "value",
                              "type": "tuple"
                            }
                          ],
                          "internalType": "struct Zp",
                          "name": "b",
                          "type": "tuple"
                        }
                      ],
                      "internalType": "struct Zp_2",
                      "name": "a",
                      "type": "tuple"
                    },
                    {
                      "components": [
                        {
                          "components": [
                            {
                              "components": [
                                {
                                  "internalType": "bytes",
                                  "name": "val",
                                  "type": "bytes"
                                },
                                {
                                  "internalType": "bool",
                                  "name": "neg",
                                  "type": "bool"
                                },
                                {
                                  "internalType": "uint256",
                                  "name": "bitlen",
                                  "type": "uint256"
                                }
                              ],
                              "internalType": "struct BigNumber",
                              "name": "value",
                              "type": "tuple"
                            }
                          ],
                          "internalType": "struct Zp",
                          "name": "a",
                          "type": "tuple"
                        },
                        {
                          "components": [
                            {
                              "components": [
                                {
                                  "internalType": "bytes",
                                  "name": "val",
                                  "type": "bytes"
                                },
                                {
                                  "internalType": "bool",
                                  "name": "neg",
                                  "type": "bool"
                                },
                                {
                                  "internalType": "uint256",
                                  "name": "bitlen",
                                  "type": "uint256"
                                }
                              ],
                              "internalType": "struct BigNumber",
                              "name": "value",
                              "type": "tuple"
                            }
                          ],
                          "internalType": "struct Zp",
                          "name": "b",
                          "type": "tuple"
                        }
                      ],
                      "internalType": "struct Zp_2",
                      "name": "b",
                      "type": "tuple"
                    },
                    {
                      "components": [
                        {
                          "components": [
                            {
                              "components": [
                                {
                                  "internalType": "bytes",
                                  "name": "val",
                                  "type": "bytes"
                                },
                                {
                                  "internalType": "bool",
                                  "name": "neg",
                                  "type": "bool"
                                },
                                {
                                  "internalType": "uint256",
                                  "name": "bitlen",
                                  "type": "uint256"
                                }
                              ],
                              "internalType": "struct BigNumber",
                              "name": "value",
                              "type": "tuple"
                            }
                          ],
                          "internalType": "struct Zp",
                          "name": "a",
                          "type": "tuple"
                        },
                        {
                          "components": [
                            {
                              "components": [
                                {
                                  "internalType": "bytes",
                                  "name": "val",
                                  "type": "bytes"
                                },
                                {
                                  "internalType": "bool",
                                  "name": "neg",
                                  "type": "bool"
                                },
                                {
                                  "internalType": "uint256",
                                  "name": "bitlen",
                                  "type": "uint256"
                                }
                              ],
                              "internalType": "struct BigNumber",
                              "name": "value",
                              "type": "tuple"
                            }
                          ],
                          "internalType": "struct Zp",
                          "name": "b",
                          "type": "tuple"
                        }
                      ],
                      "internalType": "struct Zp_2",
                      "name": "c",
                      "type": "tuple"
                    }
                  ],
                  "internalType": "struct Zp_6",
                  "name": "b",
                  "type": "tuple"
                }
              ],
              "internalType": "struct Zp_12",
              "name": "y",
              "type": "tuple"
            }
          ],
          "internalType": "struct Point_Zp_12",
          "name": "",
          "type": "tuple"
        }
      ],
      "stateMutability": "view",
      "type": "function"
    }
  ],
  "bytecode": "0x608060405273__$7db5d2dbc3ae63372df6c39d501ad0f72a$__63a48a622a60006040518263ffffffff1660e01b815260040161003c919061129b565b600060405180830381865af4158015610059573d6000803e3d6000fd5b505050506040513d6000823e3d601f19601f82011682018060405250810190610082919061152a565b600080820151816000019081610098919061178a565b5060208201518160010160006101000a81548160ff02191690831515021790555060408201518160020155505073__$7db5d2dbc3ae63372df6c39d501ad0f72a$__63a48a622a60006040518263ffffffff1660e01b81526004016100fd91906118f4565b600060405180830381865af415801561011a573d6000803e3d6000fd5b505050506040513d6000823e3d601f19601f82011682018060405250810190610143919061152a565b6003600082015181600001908161015a919061178a565b5060208201518160010160006101000a81548160ff02191690831515021790555060408201518160020155505060006040516101959061114f565b61019f9190611a94565b604051809103906000f0801580156101bb573d6000803e3d6000fd5b50600660006101000a81548173ffffffffffffffffffffffffffffffffffffffff021916908373ffffffffffffffffffffffffffffffffffffffff160217905550600660009054906101000a900473ffffffffffffffffffffffffffffffffffffffff1660405161022b9061115d565b6102359190611b2b565b604051809103906000f080158015610251573d6000803e3d6000fd5b50600760006101000a81548173ffffffffffffffffffffffffffffffffffffffff021916908373ffffffffffffffffffffffffffffffffffffffff160217905550600760009054906101000a900473ffffffffffffffffffffffffffffffffffffffff166040516102c19061116b565b6102cb9190611b67565b604051809103906000f0801580156102e7573d6000803e3d6000fd5b50600860006101000a81548173ffffffffffffffffffffffffffffffffffffffff021916908373ffffffffffffffffffffffffffffffffffffffff160217905550600860009054906101000a900473ffffffffffffffffffffffffffffffffffffffff1660405161035790611179565b6103619190611ba3565b604051809103906000f08015801561037d573d6000803e3d6000fd5b50600960006101000a81548173ffffffffffffffffffffffffffffffffffffffff021916908373ffffffffffffffffffffffffffffffffffffffff160217905550600660009054906101000a900473ffffffffffffffffffffffffffffffffffffffff166040516103ed90611187565b6103f79190611b2b565b604051809103906000f080158015610413573d6000803e3d6000fd5b50600a60006101000a81548173ffffffffffffffffffffffffffffffffffffffff021916908373ffffffffffffffffffffffffffffffffffffffff160217905550600760009054906101000a900473ffffffffffffffffffffffffffffffffffffffff1660405161048390611195565b61048d9190611b67565b604051809103906000f0801580156104a9573d6000803e3d6000fd5b50600b60006101000a81548173ffffffffffffffffffffffffffffffffffffffff021916908373ffffffffffffffffffffffffffffffffffffffff160217905550600960009054906101000a900473ffffffffffffffffffffffffffffffffffffffff16604051610519906111a3565b6105239190611bdf565b604051809103906000f08015801561053f573d6000803e3d6000fd5b50600c60006101000a81548173ffffffffffffffffffffffffffffffffffffffff021916908373ffffffffffffffffffffffffffffffffffffffff160217905550600a60009054906101000a900473ffffffffffffffffffffffffffffffffffffffff1673ffffffffffffffffffffffffffffffffffffffff16631953a9bf600660009054906101000a900473ffffffffffffffffffffffffffffffffffffffff1673ffffffffffffffffffffffffffffffffffffffff16631701474273__$7db5d2dbc3ae63372df6c39d501ad0f72a$__63a48a622a60006040518263ffffffff1660e01b81526004016106349190611cb8565b600060405180830381865af4158015610651573d6000803e3d6000fd5b505050506040513d6000823e3d601f19601f8201168201806040525081019061067a919061152a565b6040518263ffffffff1660e01b81526004016106969190611d6f565b600060405180830381865afa1580156106b3573d6000803e3d6000fd5b505050506040513d6000823e3d601f19601f820116820180604052508101906106dc9190611de9565b600660009054906101000a900473ffffffffffffffffffffffffffffffffffffffff1673ffffffffffffffffffffffffffffffffffffffff16631701474273__$7db5d2dbc3ae63372df6c39d501ad0f72a$__63a48a622a60006040518263ffffffff1660e01b81526004016107529190611ef0565b600060405180830381865af415801561076f573d6000803e3d6000fd5b505050506040513d6000823e3d601f19601f82011682018060405250810190610798919061152a565b6040518263ffffffff1660e01b81526004016107b49190611d6f565b600060405180830381865afa1580156107d1573d6000803e3d6000fd5b505050506040513d6000823e3d601f19601f820116820180604052508101906107fa9190611de9565b6040518363ffffffff1660e01b8152600401610817929190611f98565b600060405180830381865afa158015610834573d6000803e3d6000fd5b505050506040513d6000823e3d601f19601f8201168201806040525081019061085d9190612090565b600d60008201518160000160006101000a81548160ff0219169083600181111561088a576108896120d9565b5b021790555060208201518160010160008201518160000160008201518160000190816108b6919061178a565b5060208201518160010160006101000a81548160ff0219169083151502179055506040820151816002015550505050604082015181600401600082015181600001600082015181600001908161090c919061178a565b5060208201518160010160006101000a81548160ff02191690831515021790555060408201518160020155505050505050600b60009054906101000a900473ffffffffffffffffffffffffffffffffffffffff1673ffffffffffffffffffffffffffffffffffffffff1663bedacbae6000600760009054906101000a900473ffffffffffffffffffffffffffffffffffffffff1673ffffffffffffffffffffffffffffffffffffffff1663c700da6b600660009054906101000a900473ffffffffffffffffffffffffffffffffffffffff1673ffffffffffffffffffffffffffffffffffffffff16631701474273__$7db5d2dbc3ae63372df6c39d501ad0f72a$__63a48a622a60006040518263ffffffff1660e01b8152600401610a3191906121c6565b600060405180830381865af4158015610a4e573d6000803e3d6000fd5b505050506040513d6000823e3d601f19601f82011682018060405250810190610a77919061152a565b6040518263ffffffff1660e01b8152600401610a939190611d6f565b600060405180830381865afa158015610ab0573d6000803e3d6000fd5b505050506040513d6000823e3d601f19601f82011682018060405250810190610ad99190611de9565b600660009054906101000a900473ffffffffffffffffffffffffffffffffffffffff1673ffffffffffffffffffffffffffffffffffffffff16631701474273__$7db5d2dbc3ae63372df6c39d501ad0f72a$__63a48a622a60006040518263ffffffff1660e01b8152600401610b4f91906122b2565b600060405180830381865af4158015610b6c573d6000803e3d6000fd5b505050506040513d6000823e3d601f19601f82011682018060405250810190610b95919061152a565b6040518263ffffffff1660e01b8152600401610bb19190611d6f565b600060405180830381865afa158015610bce573d6000803e3d6000fd5b505050506040513d6000823e3d601f19601f82011682018060405250810190610bf79190611de9565b6040518363ffffffff1660e01b8152600401610c14929190611f98565b600060405180830381865afa158015610c31573d6000803e3d6000fd5b505050506040513d6000823e3d601f19601f82011682018060405250810190610c5a9190612368565b600760009054906101000a900473ffffffffffffffffffffffffffffffffffffffff1673ffffffffffffffffffffffffffffffffffffffff1663c700da6b600660009054906101000a900473ffffffffffffffffffffffffffffffffffffffff1673ffffffffffffffffffffffffffffffffffffffff16631701474273__$7db5d2dbc3ae63372df6c39d501ad0f72a$__63a48a622a60006040518263ffffffff1660e01b8152600401610d0e919061246f565b600060405180830381865af4158015610d2b573d6000803e3d6000fd5b505050506040513d6000823e3d601f19601f82011682018060405250810190610d54919061152a565b6040518263ffffffff1660e01b8152600401610d709190611d6f565b600060405180830381865afa158015610d8d573d6000803e3d6000fd5b505050506040513d6000823e3d601f19601f82011682018060405250810190610db69190611de9565b600660009054906101000a900473ffffffffffffffffffffffffffffffffffffffff1673ffffffffffffffffffffffffffffffffffffffff16631701474273__$7db5d2dbc3ae63372df6c39d501ad0f72a$__63a48a622a60006040518263ffffffff1660e01b8152600401610e2c919061255b565b600060405180830381865af4158015610e49573d6000803e3d6000fd5b505050506040513d6000823e3d601f19601f82011682018060405250810190610e72919061152a565b6040518263ffffffff1660e01b8152600401610e8e9190611d6f565b600060405180830381865afa158015610eab573d6000803e3d6000fd5b505050506040513d6000823e3d601f19601f82011682018060405250810190610ed49190611de9565b6040518363ffffffff1660e01b8152600401610ef1929190611f98565b600060405180830381865afa158015610f0e573d6000803e3d6000fd5b505050506040513d6000823e3d601f19601f82011682018060405250810190610f379190612368565b6040518463ffffffff1660e01b8152600401610f559392919061263f565b600060405180830381865afa158015610f72573d6000803e3d6000fd5b505050506040513d6000823e3d601f19601f82011682018060405250810190610f9b9190612720565b601460008201518160000160006101000a81548160ff02191690836001811115610fc857610fc76120d9565b5b02179055506020820151816001016000820151816000016000820151816000016000820151816000019081610ffd919061178a565b5060208201518160010160006101000a81548160ff02191690831515021790555060408201518160020155505050506020820151816003016000820151816000016000820151816000019081611053919061178a565b5060208201518160010160006101000a81548160ff0219169083151502179055506040820151816002015550505050505060408201518160070160008201518160000160008201518160000160008201518160000190816110b4919061178a565b5060208201518160010160006101000a81548160ff0219169083151502179055506040820151816002015550505050602082015181600301600082015181600001600082015181600001908161110a919061178a565b5060208201518160010160006101000a81548160ff02191690831515021790555060408201518160020155505050505050505034801561114957600080fd5b50612769565b612edf806200637f83390190565b61225b806200925e83390190565b613842806200b4b983390190565b6124c1806200ecfb83390190565b612aca80620111bc83390190565b612e6d8062013c8683390190565b6131e88062016af383390190565b600082825260208201905092915050565b7f307831613031313165613339376665363961346231626137623634333462616360008201527f643736343737346238346633383531326266363733306432613066366230663660208201527f323431656162666666656231353366666666623966656666666666666666616160408201527f6162000000000000000000000000000000000000000000000000000000000000606082015250565b600061126a6062836111b1565b9150611275826111c2565b608082019050919050565b60008115159050919050565b61129581611280565b82525050565b600060408201905081810360008301526112b48161125d565b90506112c3602083018461128c565b92915050565b6000604051905090565b600080fd5b600080fd5b600080fd5b6000601f19601f8301169050919050565b7f4e487b7100000000000000000000000000000000000000000000000000000000600052604160045260246000fd5b61132b826112e2565b810181811067ffffffffffffffff8211171561134a576113496112f3565b5b80604052505050565b600061135d6112c9565b90506113698282611322565b919050565b600080fd5b600080fd5b600080fd5b600067ffffffffffffffff821115611398576113976112f3565b5b6113a1826112e2565b9050602081019050919050565b60005b838110156113cc5780820151818401526020810190506113b1565b60008484015250505050565b60006113eb6113e68461137d565b611353565b90508281526020810184848401111561140757611406611378565b5b6114128482856113ae565b509392505050565b600082601f83011261142f5761142e611373565b5b815161143f8482602086016113d8565b91505092915050565b61145181611280565b811461145c57600080fd5b50565b60008151905061146e81611448565b92915050565b6000819050919050565b61148781611474565b811461149257600080fd5b50565b6000815190506114a48161147e565b92915050565b6000606082840312156114c0576114bf6112dd565b5b6114ca6060611353565b9050600082015167ffffffffffffffff8111156114ea576114e961136e565b5b6114f68482850161141a565b600083015250602061150a8482850161145f565b602083015250604061151e84828501611495565b60408301525092915050565b6000602082840312156115405761153f6112d3565b5b600082015167ffffffffffffffff81111561155e5761155d6112d8565b5b61156a848285016114aa565b91505092915050565b600081519050919050565b7f4e487b7100000000000000000000000000000000000000000000000000000000600052602260045260246000fd5b600060028204905060018216806115c557607f821691505b6020821081036115d8576115d761157e565b5b50919050565b60008190508160005260206000209050919050565b60006020601f8301049050919050565b600082821b905092915050565b6000600883026116407fffffffffffffffffffffffffffffffffffffffffffffffffffffffffffffffff82611603565b61164a8683611603565b95508019841693508086168417925050509392505050565b6000819050919050565b600061168761168261167d84611474565b611662565b611474565b9050919050565b6000819050919050565b6116a18361166c565b6116b56116ad8261168e565b848454611610565b825550505050565b600090565b6116ca6116bd565b6116d5818484611698565b505050565b5b818110156116f9576116ee6000826116c2565b6001810190506116db565b5050565b601f82111561173e5761170f816115de565b611718846115f3565b81016020851015611727578190505b61173b611733856115f3565b8301826116da565b50505b505050565b600082821c905092915050565b600061176160001984600802611743565b1980831691505092915050565b600061177a8383611750565b9150826002028217905092915050565b61179382611573565b67ffffffffffffffff8111156117ac576117ab6112f3565b5b6117b682546115ad565b6117c18282856116fd565b600060209050601f8311600181146117f457600084156117e2578287015190505b6117ec858261176e565b865550611854565b601f198416611802866115de565b60005b8281101561182a57848901518255600182019150602085019450602081019050611805565b868310156118475784890151611843601f891682611750565b8355505b6001600288020188555050505b505050505050565b7f307837336564613735333239396437643438333333396438303830396131643860008201527f303535336264613430326666666535626665666666666666666630303030303060208201527f3031000000000000000000000000000000000000000000000000000000000000604082015250565b60006118de6042836111b1565b91506118e98261185c565b606082019050919050565b6000604082019050818103600083015261190d816118d1565b905061191c602083018461128c565b92915050565b600082825260208201905092915050565b60008154611940816115ad565b61194a8186611922565b94506001821660008114611965576001811461197b576119ae565b60ff1983168652811515602002860193506119ae565b611984856115de565b60005b838110156119a657815481890152600182019150602081019050611987565b808801955050505b50505092915050565b60008160001c9050919050565b600060ff82169050919050565b60006119e46119df836119b7565b6119c4565b9050919050565b6119f481611280565b82525050565b6000819050919050565b6000611a17611a12836119b7565b6119fa565b9050919050565b611a2781611474565b82525050565b60006060830160008084018583036000870152611a4a8382611933565b92505060018401549050611a5d816119d1565b611a6a60208701826119eb565b5060028401549050611a7b81611a04565b611a886040870182611a1e565b50819250505092915050565b60006020820190508181036000830152611aae8184611a2d565b905092915050565b600073ffffffffffffffffffffffffffffffffffffffff82169050919050565b6000611af1611aec611ae784611ab6565b611662565b611ab6565b9050919050565b6000611b0382611ad6565b9050919050565b6000611b1582611af8565b9050919050565b611b2581611b0a565b82525050565b6000602082019050611b406000830184611b1c565b92915050565b6000611b5182611af8565b9050919050565b611b6181611b46565b82525050565b6000602082019050611b7c6000830184611b58565b92915050565b6000611b8d82611af8565b9050919050565b611b9d81611b82565b82525050565b6000602082019050611bb86000830184611b94565b92915050565b6000611bc982611af8565b9050919050565b611bd981611bbe565b82525050565b6000602082019050611bf46000830184611bd0565b92915050565b7f307831376631643361373331393764373934323639353633386334666139616360008201527f306663333638386334663937373462393035613134653361336631373162616360208201527f353836633535653833666639376131616566666233616630306164623232633660408201527f6262000000000000000000000000000000000000000000000000000000000000606082015250565b6000611ca26062836111b1565b9150611cad82611bfa565b608082019050919050565b60006040820190508181036000830152611cd181611c95565b9050611ce0602083018461128c565b92915050565b6000611cf182611573565b611cfb8185611922565b9350611d0b8185602086016113ae565b611d14816112e2565b840191505092915050565b60006060830160008301518482036000860152611d3c8282611ce6565b9150506020830151611d5160208601826119eb565b506040830151611d646040860182611a1e565b508091505092915050565b60006020820190508181036000830152611d898184611d1f565b905092915050565b600060208284031215611da757611da66112dd565b5b611db16020611353565b9050600082015167ffffffffffffffff811115611dd157611dd061136e565b5b611ddd848285016114aa565b60008301525092915050565b600060208284031215611dff57611dfe6112d3565b5b600082015167ffffffffffffffff811115611e1d57611e1c6112d8565b5b611e2984828501611d91565b91505092915050565b7f307830386233663438316533616161306631613039653330656437343164386160008201527f653466636635653039356435643030616636303064623138636232633034623360208201527f656464303363633734346132383838616534306361613233323934366335653760408201527f6531000000000000000000000000000000000000000000000000000000000000606082015250565b6000611eda6062836111b1565b9150611ee582611e32565b608082019050919050565b60006040820190508181036000830152611f0981611ecd565b9050611f18602083018461128c565b92915050565b60006060830160008301518482036000860152611f3b8282611ce6565b9150506020830151611f5060208601826119eb565b506040830151611f636040860182611a1e565b508091505092915050565b60006020830160008301518482036000860152611f8b8282611f1e565b9150508091505092915050565b60006040820190508181036000830152611fb28185611f6e565b90508181036020830152611fc68184611f6e565b90509392505050565b60028110611fdc57600080fd5b50565b600081519050611fee81611fcf565b92915050565b60006060828403121561200a576120096112dd565b5b6120146060611353565b9050600061202484828501611fdf565b600083015250602082015167ffffffffffffffff8111156120485761204761136e565b5b61205484828501611d91565b602083015250604082015167ffffffffffffffff8111156120785761207761136e565b5b61208484828501611d91565b60408301525092915050565b6000602082840312156120a6576120a56112d3565b5b600082015167ffffffffffffffff8111156120c4576120c36112d8565b5b6120d084828501611ff4565b91505092915050565b7f4e487b7100000000000000000000000000000000000000000000000000000000600052602160045260246000fd5b7f307831336530326236303532373139663630376461636433613038383237346660008201527f363535393662643064303939323062363161623564613631626264633766353060208201527f343933333463663131323133393435643537653561633764303535643034326260408201527f3765000000000000000000000000000000000000000000000000000000000000606082015250565b60006121b06062836111b1565b91506121bb82612108565b608082019050919050565b600060408201905081810360008301526121df816121a3565b90506121ee602083018461128c565b92915050565b7f307830323461613262326630386630613931323630383035323732646335313060008201527f353163366534376164346661343033623032623435313062363437616533643160208201527f373730626163303332366138303562626566643438303536633863313231626460408201527f6238000000000000000000000000000000000000000000000000000000000000606082015250565b600061229c6062836111b1565b91506122a7826121f4565b608082019050919050565b600060408201905081810360008301526122cb8161228f565b90506122da602083018461128c565b92915050565b6000604082840312156122f6576122f56112dd565b5b6123006040611353565b9050600082015167ffffffffffffffff8111156123205761231f61136e565b5b61232c84828501611d91565b600083015250602082015167ffffffffffffffff8111156123505761234f61136e565b5b61235c84828501611d91565b60208301525092915050565b60006020828403121561237e5761237d6112d3565b5b600082015167ffffffffffffffff81111561239c5761239b6112d8565b5b6123a8848285016122e0565b91505092915050565b7f307830363036633461303265613733346363333261636432623032626332386260008201527f393963623365323837653835613736336166323637343932616235373265393960208201527f616233663337306432373563656331646131616161393037356666303566373960408201527f6265000000000000000000000000000000000000000000000000000000000000606082015250565b60006124596062836111b1565b9150612464826123b1565b608082019050919050565b600060408201905081810360008301526124888161244c565b9050612497602083018461128c565b92915050565b7f307830636535643532373732376436653131386363396364633664613265333560008201527f316161646664396261613863626464336137366434323961363935313630643160208201527f326339323361633963633362616361323839653139333534383630386238323860408201527f3031000000000000000000000000000000000000000000000000000000000000606082015250565b60006125456062836111b1565b91506125508261249d565b608082019050919050565b6000604082019050818103600083015261257481612538565b9050612583602083018461128c565b92915050565b6002811061259a576125996120d9565b5b50565b60008190506125ab82612589565b919050565b60006125bb8261259d565b9050919050565b6125cb816125b0565b82525050565b600060208301600083015184820360008601526125ee8282611f1e565b9150508091505092915050565b6000604083016000830151848203600086015261261882826125d1565b9150506020830151848203602086015261263282826125d1565b9150508091505092915050565b600060608201905061265460008301866125c2565b818103602083015261266681856125fb565b9050818103604083015261267a81846125fb565b9050949350505050565b60006060828403121561269a576126996112dd565b5b6126a46060611353565b905060006126b484828501611fdf565b600083015250602082015167ffffffffffffffff8111156126d8576126d761136e565b5b6126e4848285016122e0565b602083015250604082015167ffffffffffffffff8111156127085761270761136e565b5b612714848285016122e0565b60408301525092915050565b600060208284031215612736576127356112d3565b5b600082015167ffffffffffffffff811115612754576127536112d8565b5b61276084828501612684565b91505092915050565b613c0680620027796000396000f3fe608060405234801561001057600080fd5b50600436106100885760003560e01c8063a7faa1c61161005b578063a7faa1c61461013b578063b5e5eaaf1461016b578063c02673451461019b578063f4aff064146101cb57610088565b806301f7cb4b1461008d57806314cb7ac3146100bd5780631e4799e4146100ed5780632dd380dc1461010b575b600080fd5b6100a760048036038101906100a291906127b7565b6101fb565b6040516100b4919061280f565b60405180910390f35b6100d760048036038101906100d291906127b7565b6106b8565b6040516100e49190612af5565b60405180910390f35b6100f561161d565b6040516101029190612b6e565b60405180910390f35b61012560048036038101906101209190612d6c565b611830565b604051610132919061280f565b60405180910390f35b61015560048036038101906101509190612e51565b611c4d565b6040516101629190612af5565b60405180910390f35b61018560048036038101906101809190612ec9565b611c5b565b604051610192919061280f565b60405180910390f35b6101b560048036038101906101b091906127b7565b611d31565b6040516101c2919061280f565b60405180910390f35b6101e560048036038101906101e09190612ec9565b611e08565b6040516101f2919061280f565b60405180910390f35b60006001808111156102105761020f61282a565b5b826000015160018111156102275761022661282a565b5b0361023557600090506106b3565b6000600760009054906101000a900473ffffffffffffffffffffffffffffffffffffffff1673ffffffffffffffffffffffffffffffffffffffff166307a5ecaa846040015185604001516040518363ffffffff1660e01b815260040161029c929190612f56565b600060405180830381865afa1580156102b9573d6000803e3d6000fd5b505050506040513d6000823e3d601f19601f820116820180604052508101906102e29190613187565b90506000600760009054906101000a900473ffffffffffffffffffffffffffffffffffffffff1673ffffffffffffffffffffffffffffffffffffffff1663fbb740a8600760009054906101000a900473ffffffffffffffffffffffffffffffffffffffff1673ffffffffffffffffffffffffffffffffffffffff166307a5ecaa600760009054906101000a900473ffffffffffffffffffffffffffffffffffffffff1673ffffffffffffffffffffffffffffffffffffffff166307a5ecaa89602001518a602001516040518363ffffffff1660e01b81526004016103c7929190612f56565b600060405180830381865afa1580156103e4573d6000803e3d6000fd5b505050506040513d6000823e3d601f19601f8201168201806040525081019061040d9190613187565b88602001516040518363ffffffff1660e01b815260040161042f929190612f56565b600060405180830381865afa15801561044c573d6000803e3d6000fd5b505050506040513d6000823e3d601f19601f820116820180604052508101906104759190613187565b600760009054906101000a900473ffffffffffffffffffffffffffffffffffffffff1673ffffffffffffffffffffffffffffffffffffffff16639d2e83f5600760009054906101000a900473ffffffffffffffffffffffffffffffffffffffff1673ffffffffffffffffffffffffffffffffffffffff1663a1fca2b66040518163ffffffff1660e01b8152600401600060405180830381865afa158015610520573d6000803e3d6000fd5b505050506040513d6000823e3d601f19601f820116820180604052508101906105499190613187565b6040518263ffffffff1660e01b815260040161056591906131d0565b600060405180830381865afa158015610582573d6000803e3d6000fd5b505050506040513d6000823e3d601f19601f820116820180604052508101906105ab9190613187565b6040518363ffffffff1660e01b81526004016105c8929190612f56565b600060405180830381865afa1580156105e5573d6000803e3d6000fd5b505050506040513d6000823e3d601f19601f8201168201806040525081019061060e9190613187565b9050600760009054906101000a900473ffffffffffffffffffffffffffffffffffffffff1673ffffffffffffffffffffffffffffffffffffffff1663ab80cf7683836040518363ffffffff1660e01b815260040161066d929190612f56565b602060405180830381865afa15801561068a573d6000803e3d6000fd5b505050506040513d601f19601f820116820180604052508101906106ae91906131f2565b925050505b919050565b6106c061228b565b6000600860009054906101000a900473ffffffffffffffffffffffffffffffffffffffff1673ffffffffffffffffffffffffffffffffffffffff16639faceb7e600760009054906101000a900473ffffffffffffffffffffffffffffffffffffffff1673ffffffffffffffffffffffffffffffffffffffff1663bc1b392d6040518163ffffffff1660e01b8152600401600060405180830381865afa15801561076d573d6000803e3d6000fd5b505050506040513d6000823e3d601f19601f820116820180604052508101906107969190613187565b600760009054906101000a900473ffffffffffffffffffffffffffffffffffffffff1673ffffffffffffffffffffffffffffffffffffffff1663c700da6b600660009054906101000a900473ffffffffffffffffffffffffffffffffffffffff1673ffffffffffffffffffffffffffffffffffffffff1663901717d16040518163ffffffff1660e01b8152600401600060405180830381865afa158015610841573d6000803e3d6000fd5b505050506040513d6000823e3d601f19601f8201168201806040525081019061086a919061321f565b600660009054906101000a900473ffffffffffffffffffffffffffffffffffffffff1673ffffffffffffffffffffffffffffffffffffffff1663bc1b392d6040518163ffffffff1660e01b8152600401600060405180830381865afa1580156108d7573d6000803e3d6000fd5b505050506040513d6000823e3d601f19601f82011682018060405250810190610900919061321f565b6040518363ffffffff1660e01b815260040161091d929190613292565b600060405180830381865afa15801561093a573d6000803e3d6000fd5b505050506040513d6000823e3d601f19601f820116820180604052508101906109639190613187565b600760009054906101000a900473ffffffffffffffffffffffffffffffffffffffff1673ffffffffffffffffffffffffffffffffffffffff1663bc1b392d6040518163ffffffff1660e01b8152600401600060405180830381865afa1580156109d0573d6000803e3d6000fd5b505050506040513d6000823e3d601f19601f820116820180604052508101906109f99190613187565b6040518463ffffffff1660e01b8152600401610a17939291906132c9565b600060405180830381865afa158015610a34573d6000803e3d6000fd5b505050506040513d6000823e3d601f19601f82011682018060405250810190610a5d91906133cd565b90506000600960009054906101000a900473ffffffffffffffffffffffffffffffffffffffff1673ffffffffffffffffffffffffffffffffffffffff1663f87386c3600860009054906101000a900473ffffffffffffffffffffffffffffffffffffffff1673ffffffffffffffffffffffffffffffffffffffff16639faceb7e8760200151600760009054906101000a900473ffffffffffffffffffffffffffffffffffffffff1673ffffffffffffffffffffffffffffffffffffffff1663bc1b392d6040518163ffffffff1660e01b8152600401600060405180830381865afa158015610b4f573d6000803e3d6000fd5b505050506040513d6000823e3d601f19601f82011682018060405250810190610b789190613187565b600760009054906101000a900473ffffffffffffffffffffffffffffffffffffffff1673ffffffffffffffffffffffffffffffffffffffff1663bc1b392d6040518163ffffffff1660e01b8152600401600060405180830381865afa158015610be5573d6000803e3d6000fd5b505050506040513d6000823e3d601f19601f82011682018060405250810190610c0e9190613187565b6040518463ffffffff1660e01b8152600401610c2c939291906132c9565b600060405180830381865afa158015610c49573d6000803e3d6000fd5b505050506040513d6000823e3d601f19601f82011682018060405250810190610c7291906133cd565b600860009054906101000a900473ffffffffffffffffffffffffffffffffffffffff1673ffffffffffffffffffffffffffffffffffffffff1663bc1b392d6040518163ffffffff1660e01b8152600401600060405180830381865afa158015610cdf573d6000803e3d6000fd5b505050506040513d6000823e3d601f19601f82011682018060405250810190610d0891906133cd565b6040518363ffffffff1660e01b8152600401610d25929190613474565b600060405180830381865afa158015610d42573d6000803e3d6000fd5b505050506040513d6000823e3d601f19601f82011682018060405250810190610d6b9190613533565b90506000600960009054906101000a900473ffffffffffffffffffffffffffffffffffffffff1673ffffffffffffffffffffffffffffffffffffffff1663f87386c3600860009054906101000a900473ffffffffffffffffffffffffffffffffffffffff1673ffffffffffffffffffffffffffffffffffffffff16639faceb7e8860400151600760009054906101000a900473ffffffffffffffffffffffffffffffffffffffff1673ffffffffffffffffffffffffffffffffffffffff1663bc1b392d6040518163ffffffff1660e01b8152600401600060405180830381865afa158015610e5d573d6000803e3d6000fd5b505050506040513d6000823e3d601f19601f82011682018060405250810190610e869190613187565b600760009054906101000a900473ffffffffffffffffffffffffffffffffffffffff1673ffffffffffffffffffffffffffffffffffffffff1663bc1b392d6040518163ffffffff1660e01b8152600401600060405180830381865afa158015610ef3573d6000803e3d6000fd5b505050506040513d6000823e3d601f19601f82011682018060405250810190610f1c9190613187565b6040518463ffffffff1660e01b8152600401610f3a939291906132c9565b600060405180830381865afa158015610f57573d6000803e3d6000fd5b505050506040513d6000823e3d601f19601f82011682018060405250810190610f8091906133cd565b600860009054906101000a900473ffffffffffffffffffffffffffffffffffffffff1673ffffffffffffffffffffffffffffffffffffffff1663bc1b392d6040518163ffffffff1660e01b8152600401600060405180830381865afa158015610fed573d6000803e3d6000fd5b505050506040513d6000823e3d601f19601f8201168201806040525081019061101691906133cd565b6040518363ffffffff1660e01b8152600401611033929190613474565b600060405180830381865afa158015611050573d6000803e3d6000fd5b505050506040513d6000823e3d601f19601f820116820180604052508101906110799190613533565b9050600c60009054906101000a900473ffffffffffffffffffffffffffffffffffffffff1673ffffffffffffffffffffffffffffffffffffffff16631d763e266000600960009054906101000a900473ffffffffffffffffffffffffffffffffffffffff1673ffffffffffffffffffffffffffffffffffffffff166377839c6986600960009054906101000a900473ffffffffffffffffffffffffffffffffffffffff1673ffffffffffffffffffffffffffffffffffffffff1663f6700795600960009054906101000a900473ffffffffffffffffffffffffffffffffffffffff1673ffffffffffffffffffffffffffffffffffffffff1663f87386c38c600860009054906101000a900473ffffffffffffffffffffffffffffffffffffffff1673ffffffffffffffffffffffffffffffffffffffff1663bc1b392d6040518163ffffffff1660e01b8152600401600060405180830381865afa1580156111e4573d6000803e3d6000fd5b505050506040513d6000823e3d601f19601f8201168201806040525081019061120d91906133cd565b6040518363ffffffff1660e01b815260040161122a929190613474565b600060405180830381865afa158015611247573d6000803e3d6000fd5b505050506040513d6000823e3d601f19601f820116820180604052508101906112709190613533565b6040518263ffffffff1660e01b815260040161128c91906135c0565b600060405180830381865afa1580156112a9573d6000803e3d6000fd5b505050506040513d6000823e3d601f19601f820116820180604052508101906112d29190613533565b6040518363ffffffff1660e01b81526004016112ef9291906135e2565b600060405180830381865afa15801561130c573d6000803e3d6000fd5b505050506040513d6000823e3d601f19601f820116820180604052508101906113359190613533565b600960009054906101000a900473ffffffffffffffffffffffffffffffffffffffff1673ffffffffffffffffffffffffffffffffffffffff166377839c6986600960009054906101000a900473ffffffffffffffffffffffffffffffffffffffff1673ffffffffffffffffffffffffffffffffffffffff1663f6700795600960009054906101000a900473ffffffffffffffffffffffffffffffffffffffff1673ffffffffffffffffffffffffffffffffffffffff1663f87386c3600860009054906101000a900473ffffffffffffffffffffffffffffffffffffffff1673ffffffffffffffffffffffffffffffffffffffff1663bc1b392d6040518163ffffffff1660e01b8152600401600060405180830381865afa15801561145d573d6000803e3d6000fd5b505050506040513d6000823e3d601f19601f8201168201806040525081019061148691906133cd565b8e6040518363ffffffff1660e01b81526004016114a4929190613474565b600060405180830381865afa1580156114c1573d6000803e3d6000fd5b505050506040513d6000823e3d601f19601f820116820180604052508101906114ea9190613533565b6040518263ffffffff1660e01b815260040161150691906135c0565b600060405180830381865afa158015611523573d6000803e3d6000fd5b505050506040513d6000823e3d601f19601f8201168201806040525081019061154c9190613533565b6040518363ffffffff1660e01b81526004016115699291906135e2565b600060405180830381865afa158015611586573d6000803e3d6000fd5b505050506040513d6000823e3d601f19601f820116820180604052508101906115af9190613533565b6040518463ffffffff1660e01b81526004016115cd93929190613628565b600060405180830381865afa1580156115ea573d6000803e3d6000fd5b505050506040513d6000823e3d601f19601f82011682018060405250810190611613919061371e565b9350505050919050565b6116256122ca565b600d6040518060600160405290816000820160009054906101000a900460ff1660018111156116575761165661282a565b5b60018111156116695761166861282a565b5b8152602001600182016040518060200160405290816000820160405180606001604052908160008201805461169d90613796565b80601f01602080910402602001604051908101604052809291908181526020018280546116c990613796565b80156117165780601f106116eb57610100808354040283529160200191611716565b820191906000526020600020905b8154815290600101906020018083116116f957829003601f168201915b505050505081526020016001820160009054906101000a900460ff16151515158152602001600282015481525050815250508152602001600482016040518060200160405290816000820160405180606001604052908160008201805461177c90613796565b80601f01602080910402602001604051908101604052809291908181526020018280546117a890613796565b80156117f55780601f106117ca576101008083540402835291602001916117f5565b820191906000526020600020905b8154815290600101906020018083116117d857829003601f168201915b505050505081526020016001820160009054906101000a900460ff161515151581526020016002820154815250508152505081525050905090565b60006001808111156118455761184461282a565b5b8260000151600181111561185c5761185b61282a565b5b0361186a5760009050611c48565b6000600960009054906101000a900473ffffffffffffffffffffffffffffffffffffffff1673ffffffffffffffffffffffffffffffffffffffff166377839c69846040015185604001516040518363ffffffff1660e01b81526004016118d19291906135e2565b600060405180830381865afa1580156118ee573d6000803e3d6000fd5b505050506040513d6000823e3d601f19601f820116820180604052508101906119179190613533565b90506000600960009054906101000a900473ffffffffffffffffffffffffffffffffffffffff1673ffffffffffffffffffffffffffffffffffffffff16639e0ddc50600960009054906101000a900473ffffffffffffffffffffffffffffffffffffffff1673ffffffffffffffffffffffffffffffffffffffff166377839c69600960009054906101000a900473ffffffffffffffffffffffffffffffffffffffff1673ffffffffffffffffffffffffffffffffffffffff166377839c6989602001518a602001516040518363ffffffff1660e01b81526004016119fc9291906135e2565b600060405180830381865afa158015611a19573d6000803e3d6000fd5b505050506040513d6000823e3d601f19601f82011682018060405250810190611a429190613533565b88602001516040518363ffffffff1660e01b8152600401611a649291906135e2565b600060405180830381865afa158015611a81573d6000803e3d6000fd5b505050506040513d6000823e3d601f19601f82011682018060405250810190611aaa9190613533565b600960009054906101000a900473ffffffffffffffffffffffffffffffffffffffff1673ffffffffffffffffffffffffffffffffffffffff1663a1fca2b66040518163ffffffff1660e01b8152600401600060405180830381865afa158015611b17573d6000803e3d6000fd5b505050506040513d6000823e3d601f19601f82011682018060405250810190611b409190613533565b6040518363ffffffff1660e01b8152600401611b5d9291906135e2565b600060405180830381865afa158015611b7a573d6000803e3d6000fd5b505050506040513d6000823e3d601f19601f82011682018060405250810190611ba39190613533565b9050600960009054906101000a900473ffffffffffffffffffffffffffffffffffffffff1673ffffffffffffffffffffffffffffffffffffffff16639eea8ce883836040518363ffffffff1660e01b8152600401611c029291906135e2565b602060405180830381865afa158015611c1f573d6000803e3d6000fd5b505050506040513d601f19601f82011682018060405250810190611c4391906131f2565b925050505b919050565b611c5561228b565b92915050565b6000806001811115611c7057611c6f61282a565b5b600a60009054906101000a900473ffffffffffffffffffffffffffffffffffffffff1673ffffffffffffffffffffffffffffffffffffffff16627995936003856040518363ffffffff1660e01b8152600401611ccd92919061391f565b600060405180830381865afa158015611cea573d6000803e3d6000fd5b505050506040513d6000823e3d601f19601f82011682018060405250810190611d1391906139f2565b600001516001811115611d2957611d2861282a565b5b149050919050565b6000806001811115611d4657611d4561282a565b5b600b60009054906101000a900473ffffffffffffffffffffffffffffffffffffffff1673ffffffffffffffffffffffffffffffffffffffff166355e359c86003856040518363ffffffff1660e01b8152600401611da4929190613a92565b600060405180830381865afa158015611dc1573d6000803e3d6000fd5b505050506040513d6000823e3d601f19601f82011682018060405250810190611dea9190613b65565b600001516001811115611e0057611dff61282a565b5b149050919050565b600080600660009054906101000a900473ffffffffffffffffffffffffffffffffffffffff1673ffffffffffffffffffffffffffffffffffffffff1663b5e28325846040015185604001516040518363ffffffff1660e01b8152600401611e70929190613292565b600060405180830381865afa158015611e8d573d6000803e3d6000fd5b505050506040513d6000823e3d601f19601f82011682018060405250810190611eb6919061321f565b90506000600660009054906101000a900473ffffffffffffffffffffffffffffffffffffffff1673ffffffffffffffffffffffffffffffffffffffff1663a9a52e7e600660009054906101000a900473ffffffffffffffffffffffffffffffffffffffff1673ffffffffffffffffffffffffffffffffffffffff1663b5e28325600660009054906101000a900473ffffffffffffffffffffffffffffffffffffffff1673ffffffffffffffffffffffffffffffffffffffff1663b5e2832589602001518a602001516040518363ffffffff1660e01b8152600401611f9b929190613292565b600060405180830381865afa158015611fb8573d6000803e3d6000fd5b505050506040513d6000823e3d601f19601f82011682018060405250810190611fe1919061321f565b88602001516040518363ffffffff1660e01b8152600401612003929190613292565b600060405180830381865afa158015612020573d6000803e3d6000fd5b505050506040513d6000823e3d601f19601f82011682018060405250810190612049919061321f565b600660009054906101000a900473ffffffffffffffffffffffffffffffffffffffff1673ffffffffffffffffffffffffffffffffffffffff1663085eb2b9600660009054906101000a900473ffffffffffffffffffffffffffffffffffffffff1673ffffffffffffffffffffffffffffffffffffffff1663a1fca2b66040518163ffffffff1660e01b8152600401600060405180830381865afa1580156120f4573d6000803e3d6000fd5b505050506040513d6000823e3d601f19601f8201168201806040525081019061211d919061321f565b6040518263ffffffff1660e01b81526004016121399190613bae565b600060405180830381865afa158015612156573d6000803e3d6000fd5b505050506040513d6000823e3d601f19601f8201168201806040525081019061217f919061321f565b6040518363ffffffff1660e01b815260040161219c929190613292565b600060405180830381865afa1580156121b9573d6000803e3d6000fd5b505050506040513d6000823e3d601f19601f820116820180604052508101906121e2919061321f565b9050600660009054906101000a900473ffffffffffffffffffffffffffffffffffffffff1673ffffffffffffffffffffffffffffffffffffffff1663d4d4555483836040518363ffffffff1660e01b8152600401612241929190613292565b602060405180830381865afa15801561225e573d6000803e3d6000fd5b505050506040513d601f19601f8201168201806040525081019061228291906131f2565b92505050919050565b6040518060600160405280600060018111156122aa576122a961282a565b5b81526020016122b7612309565b81526020016122c4612309565b81525090565b6040518060600160405280600060018111156122e9576122e861282a565b5b81526020016122f661232f565b815260200161230361232f565b81525090565b604051806040016040528061231c612348565b8152602001612329612348565b81525090565b604051806020016040528061234261237b565b81525090565b604051806060016040528061235b61239e565b815260200161236861239e565b815260200161237561239e565b81525090565b604051806060016040528060608152602001600015158152602001600081525090565b60405180604001604052806123b161232f565b81526020016123be61232f565b81525090565b6000604051905090565b600080fd5b600080fd5b600080fd5b6000601f19601f8301169050919050565b7f4e487b7100000000000000000000000000000000000000000000000000000000600052604160045260246000fd5b612426826123dd565b810181811067ffffffffffffffff82111715612445576124446123ee565b5b80604052505050565b60006124586123c4565b9050612464828261241d565b919050565b600080fd5b6002811061247b57600080fd5b50565b60008135905061248d8161246e565b92915050565b600080fd5b600080fd5b600067ffffffffffffffff8211156124b8576124b76123ee565b5b6124c1826123dd565b9050602081019050919050565b82818337600083830152505050565b60006124f06124eb8461249d565b61244e565b90508281526020810184848401111561250c5761250b612498565b5b6125178482856124ce565b509392505050565b600082601f83011261253457612533612493565b5b81356125448482602086016124dd565b91505092915050565b60008115159050919050565b6125628161254d565b811461256d57600080fd5b50565b60008135905061257f81612559565b92915050565b6000819050919050565b61259881612585565b81146125a357600080fd5b50565b6000813590506125b58161258f565b92915050565b6000606082840312156125d1576125d06123d8565b5b6125db606061244e565b9050600082013567ffffffffffffffff8111156125fb576125fa612469565b5b6126078482850161251f565b600083015250602061261b84828501612570565b602083015250604061262f848285016125a6565b60408301525092915050565b600060208284031215612651576126506123d8565b5b61265b602061244e565b9050600082013567ffffffffffffffff81111561267b5761267a612469565b5b612687848285016125bb565b60008301525092915050565b6000604082840312156126a9576126a86123d8565b5b6126b3604061244e565b9050600082013567ffffffffffffffff8111156126d3576126d2612469565b5b6126df8482850161263b565b600083015250602082013567ffffffffffffffff81111561270357612702612469565b5b61270f8482850161263b565b60208301525092915050565b600060608284031215612731576127306123d8565b5b61273b606061244e565b9050600061274b8482850161247e565b600083015250602082013567ffffffffffffffff81111561276f5761276e612469565b5b61277b84828501612693565b602083015250604082013567ffffffffffffffff81111561279f5761279e612469565b5b6127ab84828501612693565b60408301525092915050565b6000602082840312156127cd576127cc6123ce565b5b600082013567ffffffffffffffff8111156127eb576127ea6123d3565b5b6127f78482850161271b565b91505092915050565b6128098161254d565b82525050565b60006020820190506128246000830184612800565b92915050565b7f4e487b7100000000000000000000000000000000000000000000000000000000600052602160045260246000fd5b6002811061286a5761286961282a565b5b50565b600081905061287b82612859565b919050565b600061288b8261286d565b9050919050565b61289b81612880565b82525050565b600081519050919050565b600082825260208201905092915050565b60005b838110156128db5780820151818401526020810190506128c0565b60008484015250505050565b60006128f2826128a1565b6128fc81856128ac565b935061290c8185602086016128bd565b612915816123dd565b840191505092915050565b6129298161254d565b82525050565b61293881612585565b82525050565b6000606083016000830151848203600086015261295b82826128e7565b91505060208301516129706020860182612920565b506040830151612983604086018261292f565b508091505092915050565b600060208301600083015184820360008601526129ab828261293e565b9150508091505092915050565b600060408301600083015184820360008601526129d5828261298e565b915050602083015184820360208601526129ef828261298e565b9150508091505092915050565b60006060830160008301518482036000860152612a1982826129b8565b91505060208301518482036020860152612a3382826129b8565b91505060408301518482036040860152612a4d82826129b8565b9150508091505092915050565b60006040830160008301518482036000860152612a7782826129fc565b91505060208301518482036020860152612a9182826129fc565b9150508091505092915050565b6000606083016000830151612ab66000860182612892565b5060208301518482036020860152612ace8282612a5a565b91505060408301518482036040860152612ae88282612a5a565b9150508091505092915050565b60006020820190508181036000830152612b0f8184612a9e565b905092915050565b6000606083016000830151612b2f6000860182612892565b5060208301518482036020860152612b47828261298e565b91505060408301518482036040860152612b61828261298e565b9150508091505092915050565b60006020820190508181036000830152612b888184612b17565b905092915050565b600060608284031215612ba657612ba56123d8565b5b612bb0606061244e565b9050600082013567ffffffffffffffff811115612bd057612bcf612469565b5b612bdc84828501612693565b600083015250602082013567ffffffffffffffff811115612c0057612bff612469565b5b612c0c84828501612693565b602083015250604082013567ffffffffffffffff811115612c3057612c2f612469565b5b612c3c84828501612693565b60408301525092915050565b600060408284031215612c5e57612c5d6123d8565b5b612c68604061244e565b9050600082013567ffffffffffffffff811115612c8857612c87612469565b5b612c9484828501612b90565b600083015250602082013567ffffffffffffffff811115612cb857612cb7612469565b5b612cc484828501612b90565b60208301525092915050565b600060608284031215612ce657612ce56123d8565b5b612cf0606061244e565b90506000612d008482850161247e565b600083015250602082013567ffffffffffffffff811115612d2457612d23612469565b5b612d3084828501612c48565b602083015250604082013567ffffffffffffffff811115612d5457612d53612469565b5b612d6084828501612c48565b60408301525092915050565b600060208284031215612d8257612d816123ce565b5b600082013567ffffffffffffffff811115612da057612d9f6123d3565b5b612dac84828501612cd0565b91505092915050565b600060608284031215612dcb57612dca6123d8565b5b612dd5606061244e565b90506000612de58482850161247e565b600083015250602082013567ffffffffffffffff811115612e0957612e08612469565b5b612e158482850161263b565b602083015250604082013567ffffffffffffffff811115612e3957612e38612469565b5b612e458482850161263b565b60408301525092915050565b60008060408385031215612e6857612e676123ce565b5b600083013567ffffffffffffffff811115612e8657612e856123d3565b5b612e9285828601612db5565b925050602083013567ffffffffffffffff811115612eb357612eb26123d3565b5b612ebf85828601612cd0565b9150509250929050565b600060208284031215612edf57612ede6123ce565b5b600082013567ffffffffffffffff811115612efd57612efc6123d3565b5b612f0984828501612db5565b91505092915050565b60006040830160008301518482036000860152612f2f828261298e565b91505060208301518482036020860152612f49828261298e565b9150508091505092915050565b60006040820190508181036000830152612f708185612f12565b90508181036020830152612f848184612f12565b90509392505050565b6000612fa0612f9b8461249d565b61244e565b905082815260208101848484011115612fbc57612fbb612498565b5b612fc78482856128bd565b509392505050565b600082601f830112612fe457612fe3612493565b5b8151612ff4848260208601612f8d565b91505092915050565b60008151905061300c81612559565b92915050565b6000815190506130218161258f565b92915050565b60006060828403121561303d5761303c6123d8565b5b613047606061244e565b9050600082015167ffffffffffffffff81111561306757613066612469565b5b61307384828501612fcf565b600083015250602061308784828501612ffd565b602083015250604061309b84828501613012565b60408301525092915050565b6000602082840312156130bd576130bc6123d8565b5b6130c7602061244e565b9050600082015167ffffffffffffffff8111156130e7576130e6612469565b5b6130f384828501613027565b60008301525092915050565b600060408284031215613115576131146123d8565b5b61311f604061244e565b9050600082015167ffffffffffffffff81111561313f5761313e612469565b5b61314b848285016130a7565b600083015250602082015167ffffffffffffffff81111561316f5761316e612469565b5b61317b848285016130a7565b60208301525092915050565b60006020828403121561319d5761319c6123ce565b5b600082015167ffffffffffffffff8111156131bb576131ba6123d3565b5b6131c7848285016130ff565b91505092915050565b600060208201905081810360008301526131ea8184612f12565b905092915050565b600060208284031215613208576132076123ce565b5b600061321684828501612ffd565b91505092915050565b600060208284031215613235576132346123ce565b5b600082015167ffffffffffffffff811115613253576132526123d3565b5b61325f848285016130a7565b91505092915050565b60006020830160008301518482036000860152613285828261293e565b9150508091505092915050565b600060408201905081810360008301526132ac8185613268565b905081810360208301526132c08184613268565b90509392505050565b600060608201905081810360008301526132e38186612f12565b905081810360208301526132f78185612f12565b9050818103604083015261330b8184612f12565b9050949350505050565b60006060828403121561332b5761332a6123d8565b5b613335606061244e565b9050600082015167ffffffffffffffff81111561335557613354612469565b5b613361848285016130ff565b600083015250602082015167ffffffffffffffff81111561338557613384612469565b5b613391848285016130ff565b602083015250604082015167ffffffffffffffff8111156133b5576133b4612469565b5b6133c1848285016130ff565b60408301525092915050565b6000602082840312156133e3576133e26123ce565b5b600082015167ffffffffffffffff811115613401576134006123d3565b5b61340d84828501613315565b91505092915050565b6000606083016000830151848203600086015261343382826129b8565b9150506020830151848203602086015261344d82826129b8565b9150506040830151848203604086015261346782826129b8565b9150508091505092915050565b6000604082019050818103600083015261348e8185613416565b905081810360208301526134a28184613416565b90509392505050565b6000604082840312156134c1576134c06123d8565b5b6134cb604061244e565b9050600082015167ffffffffffffffff8111156134eb576134ea612469565b5b6134f784828501613315565b600083015250602082015167ffffffffffffffff81111561351b5761351a612469565b5b61352784828501613315565b60208301525092915050565b600060208284031215613549576135486123ce565b5b600082015167ffffffffffffffff811115613567576135666123d3565b5b613573848285016134ab565b91505092915050565b6000604083016000830151848203600086015261359982826129fc565b915050602083015184820360208601526135b382826129fc565b9150508091505092915050565b600060208201905081810360008301526135da818461357c565b905092915050565b600060408201905081810360008301526135fc818561357c565b90508181036020830152613610818461357c565b90509392505050565b61362281612880565b82525050565b600060608201905061363d6000830186613619565b818103602083015261364f818561357c565b90508181036040830152613663818461357c565b9050949350505050565b60008151905061367c8161246e565b92915050565b600060608284031215613698576136976123d8565b5b6136a2606061244e565b905060006136b28482850161366d565b600083015250602082015167ffffffffffffffff8111156136d6576136d5612469565b5b6136e2848285016134ab565b602083015250604082015167ffffffffffffffff81111561370657613705612469565b5b613712848285016134ab565b60408301525092915050565b600060208284031215613734576137336123ce565b5b600082015167ffffffffffffffff811115613752576137516123d3565b5b61375e84828501613682565b91505092915050565b7f4e487b7100000000000000000000000000000000000000000000000000000000600052602260045260246000fd5b600060028204905060018216806137ae57607f821691505b6020821081036137c1576137c0613767565b5b50919050565b60008190508160005260206000209050919050565b600081546137e981613796565b6137f381866128ac565b9450600182166000811461380e576001811461382457613857565b60ff198316865281151560200286019350613857565b61382d856137c7565b60005b8381101561384f57815481890152600182019150602081019050613830565b808801955050505b50505092915050565b60008160001c9050919050565b600060ff82169050919050565b600061388d61388883613860565b61386d565b9050919050565b6000819050919050565b60006138b16138ac83613860565b613894565b9050919050565b600060608301600080840185830360008701526138d583826137dc565b925050600184015490506138e88161387a565b6138f56020870182612920565b50600284015490506139068161389e565b613913604087018261292f565b50819250505092915050565b6000604082019050818103600083015261393981856138b8565b9050818103602083015261394d8184612b17565b90509392505050565b60006060828403121561396c5761396b6123d8565b5b613976606061244e565b905060006139868482850161366d565b600083015250602082015167ffffffffffffffff8111156139aa576139a9612469565b5b6139b6848285016130a7565b602083015250604082015167ffffffffffffffff8111156139da576139d9612469565b5b6139e6848285016130a7565b60408301525092915050565b600060208284031215613a0857613a076123ce565b5b600082015167ffffffffffffffff811115613a2657613a256123d3565b5b613a3284828501613956565b91505092915050565b6000606083016000830151613a536000860182612892565b5060208301518482036020860152613a6b82826129b8565b91505060408301518482036040860152613a8582826129b8565b9150508091505092915050565b60006040820190508181036000830152613aac81856138b8565b90508181036020830152613ac08184613a3b565b90509392505050565b600060608284031215613adf57613ade6123d8565b5b613ae9606061244e565b90506000613af98482850161366d565b600083015250602082015167ffffffffffffffff811115613b1d57613b1c612469565b5b613b29848285016130ff565b602083015250604082015167ffffffffffffffff811115613b4d57613b4c612469565b5b613b59848285016130ff565b60408301525092915050565b600060208284031215613b7b57613b7a6123ce565b5b600082015167ffffffffffffffff811115613b9957613b986123d3565b5b613ba584828501613ac9565b91505092915050565b60006020820190508181036000830152613bc88184613268565b90509291505056fea2646970667358221220b106c292e2e3d4f4645bf349c818ecba5b72d715612621541f11572bd3b0e48a64736f6c634300081b0033608060405234801561001057600080fd5b50604051612edf380380612edf833981810160405281019061003291906103d8565b806000808260000151905060208101519150600082036100d25773__$7db5d2dbc3ae63372df6c39d501ad0f72a$__6308d78767846040518263ffffffff1660e01b815260040161008391906104e4565b602060405180830381865af41580156100a0573d6000803e3d6000fd5b505050506040513d601f19601f820116820180604052508101906100c49190610506565b6100cd57600080fd5b61011d565b600060208460000151516100e69190610562565b148015610113575060016101006001856040015161010491906105c2565b61010e9190610562565b83901c145b61011c57600080fd5b5b836000808201518160000190816101349190610802565b5060208201518160010160006101000a81548160ff02191690831515021790555060408201518160020155905050505050506108d4565b6000604051905090565b600080fd5b600080fd5b600080fd5b6000601f19601f8301169050919050565b7f4e487b7100000000000000000000000000000000000000000000000000000000600052604160045260246000fd5b6101cd82610184565b810181811067ffffffffffffffff821117156101ec576101eb610195565b5b80604052505050565b60006101ff61016b565b905061020b82826101c4565b919050565b600080fd5b600080fd5b600080fd5b600067ffffffffffffffff82111561023a57610239610195565b5b61024382610184565b9050602081019050919050565b60005b8381101561026e578082015181840152602081019050610253565b60008484015250505050565b600061028d6102888461021f565b6101f5565b9050828152602081018484840111156102a9576102a861021a565b5b6102b4848285610250565b509392505050565b600082601f8301126102d1576102d0610215565b5b81516102e184826020860161027a565b91505092915050565b60008115159050919050565b6102ff816102ea565b811461030a57600080fd5b50565b60008151905061031c816102f6565b92915050565b6000819050919050565b61033581610322565b811461034057600080fd5b50565b6000815190506103528161032c565b92915050565b60006060828403121561036e5761036d61017f565b5b61037860606101f5565b9050600082015167ffffffffffffffff81111561039857610397610210565b5b6103a4848285016102bc565b60008301525060206103b88482850161030d565b60208301525060406103cc84828501610343565b60408301525092915050565b6000602082840312156103ee576103ed610175565b5b600082015167ffffffffffffffff81111561040c5761040b61017a565b5b61041884828501610358565b91505092915050565b600081519050919050565b600082825260208201905092915050565b600061044882610421565b610452818561042c565b9350610462818560208601610250565b61046b81610184565b840191505092915050565b61047f816102ea565b82525050565b61048e81610322565b82525050565b600060608301600083015184820360008601526104b1828261043d565b91505060208301516104c66020860182610476565b5060408301516104d96040860182610485565b508091505092915050565b600060208201905081810360008301526104fe8184610494565b905092915050565b60006020828403121561051c5761051b610175565b5b600061052a8482850161030d565b91505092915050565b7f4e487b7100000000000000000000000000000000000000000000000000000000600052601260045260246000fd5b600061056d82610322565b915061057883610322565b92508261058857610587610533565b5b828206905092915050565b7f4e487b7100000000000000000000000000000000000000000000000000000000600052601160045260246000fd5b60006105cd82610322565b91506105d883610322565b92508282039050818111156105f0576105ef610593565b5b92915050565b7f4e487b7100000000000000000000000000000000000000000000000000000000600052602260045260246000fd5b6000600282049050600182168061063d57607f821691505b6020821081036106505761064f6105f6565b5b50919050565b60008190508160005260206000209050919050565b60006020601f8301049050919050565b600082821b905092915050565b6000600883026106b87fffffffffffffffffffffffffffffffffffffffffffffffffffffffffffffffff8261067b565b6106c2868361067b565b95508019841693508086168417925050509392505050565b6000819050919050565b60006106ff6106fa6106f584610322565b6106da565b610322565b9050919050565b6000819050919050565b610719836106e4565b61072d61072582610706565b848454610688565b825550505050565b600090565b610742610735565b61074d818484610710565b505050565b5b818110156107715761076660008261073a565b600181019050610753565b5050565b601f8211156107b65761078781610656565b6107908461066b565b8101602085101561079f578190505b6107b36107ab8561066b565b830182610752565b50505b505050565b600082821c905092915050565b60006107d9600019846008026107bb565b1980831691505092915050565b60006107f283836107c8565b9150826002028217905092915050565b61080b82610421565b67ffffffffffffffff81111561082457610823610195565b5b61082e8254610625565b610839828285610775565b600060209050601f83116001811461086c576000841561085a578287015190505b61086485826107e6565b8655506108cc565b601f19841661087a86610656565b60005b828110156108a25784890151825560018201915060208501945060208101905061087d565b868310156108bf57848901516108bb601f8916826107c8565b8355505b6001600288020188555050505b505050505050565b6125fc806108e36000396000f3fe608060405234801561001057600080fd5b50600436106100ea5760003560e01c8063a672d1001161008c578063bc1b392d11610066578063bc1b392d14610287578063d4d45554146102a5578063f2388acb146102d5578063fb2bedad146102f3576100ea565b8063a672d100146101f7578063a9a52e7e14610227578063b5e2832514610257576100ea565b806345caa117116100c857806345caa1171461017f5780635fdf05d71461019d578063901717d1146101bb578063a1fca2b6146101d9576100ea565b8063085eb2b9146100ef57806312f7411b1461011f578063170147421461014f575b600080fd5b61010960048036038101906101049190611bdd565b610323565b6040516101169190611d3d565b60405180910390f35b61013960048036038101906101349190611d5f565b610425565b6040516101469190611d3d565b60405180910390f35b61016960048036038101906101649190611dd7565b61062b565b6040516101769190611d3d565b60405180910390f35b6101876107b6565b6040516101949190611d3d565b60405180910390f35b6101a5610843565b6040516101b29190611d3d565b60405180910390f35b6101c36108d0565b6040516101d09190611d3d565b60405180910390f35b6101e161095d565b6040516101ee9190611d3d565b60405180910390f35b610211600480360381019061020c9190611bdd565b6109ea565b60405161021e9190611d3d565b60405180910390f35b610241600480360381019061023c9190611d5f565b610d9d565b60405161024e9190611d3d565b60405180910390f35b610271600480360381019061026c9190611d5f565b611020565b60405161027e9190611d3d565b60405180910390f35b61028f6112a6565b60405161029c9190611d3d565b60405180910390f35b6102bf60048036038101906102ba9190611d5f565b611333565b6040516102cc9190611e2f565b60405180910390f35b6102dd6115a3565b6040516102ea9190611e9a565b60405180910390f35b61030d60048036038101906103089190611d5f565b611674565b60405161031a9190611d3d565b60405180910390f35b61032b6118f7565b81600001516000808260000151905060208101519150600082036103cf5773__$7db5d2dbc3ae63372df6c39d501ad0f72a$__6308d78767846040518263ffffffff1660e01b81526004016103809190611f74565b602060405180830381865af415801561039d573d6000803e3d6000fd5b505050506040513d601f19601f820116820180604052508101906103c19190611fab565b6103ca57600080fd5b61041a565b600060208460000151516103e39190612007565b14801561041057506001610100600185604001516104019190612067565b61040b9190612007565b83901c145b61041957600080fd5b5b849350505050919050565b61042d6118f7565b82600001516000808260000151905060208101519150600082036104d15773__$7db5d2dbc3ae63372df6c39d501ad0f72a$__6308d78767846040518263ffffffff1660e01b81526004016104829190611f74565b602060405180830381865af415801561049f573d6000803e3d6000fd5b505050506040513d601f19601f820116820180604052508101906104c39190611fab565b6104cc57600080fd5b61051c565b600060208460000151516104e59190612007565b14801561051257506001610100600185604001516105039190612067565b61050d9190612007565b83901c145b61051b57600080fd5b5b84600001516000808260000151905060208101519150600082036105c05773__$7db5d2dbc3ae63372df6c39d501ad0f72a$__6308d78767846040518263ffffffff1660e01b81526004016105719190611f74565b602060405180830381865af415801561058e573d6000803e3d6000fd5b505050506040513d601f19601f820116820180604052508101906105b29190611fab565b6105bb57600080fd5b61060b565b600060208460000151516105d49190612007565b14801561060157506001610100600185604001516105f29190612067565b6105fc9190612007565b83901c145b61060a57600080fd5b5b61061d896106188a6109ea565b611020565b965050505050505092915050565b6106336118f7565b816000808260000151905060208101519150600082036106d35773__$7db5d2dbc3ae63372df6c39d501ad0f72a$__6308d78767846040518263ffffffff1660e01b81526004016106849190611f74565b602060405180830381865af41580156106a1573d6000803e3d6000fd5b505050506040513d601f19601f820116820180604052508101906106c59190611fab565b6106ce57600080fd5b61071e565b600060208460000151516106e79190612007565b14801561071457506001610100600185604001516107059190612067565b61070f9190612007565b83901c145b61071d57600080fd5b5b604051806020016040528073__$7db5d2dbc3ae63372df6c39d501ad0f72a$__637afa85538860006040518363ffffffff1660e01b8152600401610763929190612253565b600060405180830381865af4158015610780573d6000803e3d6000fd5b505050506040513d6000823e3d601f19601f820116820180604052508101906107a9919061238f565b8152509350505050919050565b6107be6118f7565b604051806020016040528073__$7db5d2dbc3ae63372df6c39d501ad0f72a$__6345caa1176040518163ffffffff1660e01b8152600401600060405180830381865af4158015610812573d6000803e3d6000fd5b505050506040513d6000823e3d601f19601f8201168201806040525081019061083b919061238f565b815250905090565b61084b6118f7565b604051806020016040528073__$7db5d2dbc3ae63372df6c39d501ad0f72a$__635fdf05d76040518163ffffffff1660e01b8152600401600060405180830381865af415801561089f573d6000803e3d6000fd5b505050506040513d6000823e3d601f19601f820116820180604052508101906108c8919061238f565b815250905090565b6108d86118f7565b604051806020016040528073__$7db5d2dbc3ae63372df6c39d501ad0f72a$__63901717d16040518163ffffffff1660e01b8152600401600060405180830381865af415801561092c573d6000803e3d6000fd5b505050506040513d6000823e3d601f19601f82011682018060405250810190610955919061238f565b815250905090565b6109656118f7565b604051806020016040528073__$7db5d2dbc3ae63372df6c39d501ad0f72a$__63a1fca2b66040518163ffffffff1660e01b8152600401600060405180830381865af41580156109b9573d6000803e3d6000fd5b505050506040513d6000823e3d601f19601f820116820180604052508101906109e2919061238f565b815250905090565b6109f26118f7565b8160000151600080826000015190506020810151915060008203610a965773__$7db5d2dbc3ae63372df6c39d501ad0f72a$__6308d78767846040518263ffffffff1660e01b8152600401610a479190611f74565b602060405180830381865af4158015610a64573d6000803e3d6000fd5b505050506040513d601f19601f82011682018060405250810190610a889190611fab565b610a9157600080fd5b610ae1565b60006020846000015151610aaa9190612007565b148015610ad75750600161010060018560400151610ac89190612067565b610ad29190612007565b83901c145b610ae057600080fd5b5b600073__$7db5d2dbc3ae63372df6c39d501ad0f72a$__63bc39804e876000015173__$7db5d2dbc3ae63372df6c39d501ad0f72a$__63bc1b392d6040518163ffffffff1660e01b8152600401600060405180830381865af4158015610b4b573d6000803e3d6000fd5b505050506040513d6000823e3d601f19601f82011682018060405250810190610b74919061238f565b60006040518463ffffffff1660e01b8152600401610b94939291906123e7565b602060405180830381865af4158015610bb1573d6000803e3d6000fd5b505050506040513d601f19601f82011682018060405250810190610bd59190612462565b03610c15576040517f08c379a0000000000000000000000000000000000000000000000000000000008152600401610c0c906124ec565b60405180910390fd5b610d9373__$7db5d2dbc3ae63372df6c39d501ad0f72a$__630e7671f2876000015173__$7db5d2dbc3ae63372df6c39d501ad0f72a$__630a4638fd600073__$7db5d2dbc3ae63372df6c39d501ad0f72a$__635fdf05d76040518163ffffffff1660e01b8152600401600060405180830381865af4158015610c9c573d6000803e3d6000fd5b505050506040513d6000823e3d601f19601f82011682018060405250810190610cc5919061238f565b6040518363ffffffff1660e01b8152600401610ce292919061250c565b600060405180830381865af4158015610cff573d6000803e3d6000fd5b505050506040513d6000823e3d601f19601f82011682018060405250810190610d28919061238f565b60006040518463ffffffff1660e01b8152600401610d4893929190612543565b600060405180830381865af4158015610d65573d6000803e3d6000fd5b505050506040513d6000823e3d601f19601f82011682018060405250810190610d8e919061238f565b61062b565b9350505050919050565b610da56118f7565b8260000151600080826000015190506020810151915060008203610e495773__$7db5d2dbc3ae63372df6c39d501ad0f72a$__6308d78767846040518263ffffffff1660e01b8152600401610dfa9190611f74565b602060405180830381865af4158015610e17573d6000803e3d6000fd5b505050506040513d601f19601f82011682018060405250810190610e3b9190611fab565b610e4457600080fd5b610e94565b60006020846000015151610e5d9190612007565b148015610e8a5750600161010060018560400151610e7b9190612067565b610e859190612007565b83901c145b610e9357600080fd5b5b8460000151600080826000015190506020810151915060008203610f385773__$7db5d2dbc3ae63372df6c39d501ad0f72a$__6308d78767846040518263ffffffff1660e01b8152600401610ee99190611f74565b602060405180830381865af4158015610f06573d6000803e3d6000fd5b505050506040513d601f19601f82011682018060405250810190610f2a9190611fab565b610f3357600080fd5b610f83565b60006020846000015151610f4c9190612007565b148015610f795750600161010060018560400151610f6a9190612067565b610f749190612007565b83901c145b610f8257600080fd5b5b61101273__$7db5d2dbc3ae63372df6c39d501ad0f72a$__6398cdcfb28b600001518b600001516040518363ffffffff1660e01b8152600401610fc792919061258f565b600060405180830381865af4158015610fe4573d6000803e3d6000fd5b505050506040513d6000823e3d601f19601f8201168201806040525081019061100d919061238f565b61062b565b965050505050505092915050565b6110286118f7565b82600001516000808260000151905060208101519150600082036110cc5773__$7db5d2dbc3ae63372df6c39d501ad0f72a$__6308d78767846040518263ffffffff1660e01b815260040161107d9190611f74565b602060405180830381865af415801561109a573d6000803e3d6000fd5b505050506040513d601f19601f820116820180604052508101906110be9190611fab565b6110c757600080fd5b611117565b600060208460000151516110e09190612007565b14801561110d57506001610100600185604001516110fe9190612067565b6111089190612007565b83901c145b61111657600080fd5b5b84600001516000808260000151905060208101519150600082036111bb5773__$7db5d2dbc3ae63372df6c39d501ad0f72a$__6308d78767846040518263ffffffff1660e01b815260040161116c9190611f74565b602060405180830381865af4158015611189573d6000803e3d6000fd5b505050506040513d601f19601f820116820180604052508101906111ad9190611fab565b6111b657600080fd5b611206565b600060208460000151516111cf9190612007565b1480156111fc57506001610100600185604001516111ed9190612067565b6111f79190612007565b83901c145b61120557600080fd5b5b61129873__$7db5d2dbc3ae63372df6c39d501ad0f72a$__63a5d4ca5b8b600001518b6000015160006040518463ffffffff1660e01b815260040161124d93929190612543565b600060405180830381865af415801561126a573d6000803e3d6000fd5b505050506040513d6000823e3d601f19601f82011682018060405250810190611293919061238f565b61062b565b965050505050505092915050565b6112ae6118f7565b604051806020016040528073__$7db5d2dbc3ae63372df6c39d501ad0f72a$__63bc1b392d6040518163ffffffff1660e01b8152600401600060405180830381865af4158015611302573d6000803e3d6000fd5b505050506040513d6000823e3d601f19601f8201168201806040525081019061132b919061238f565b815250905090565b600082600001516000808260000151905060208101519150600082036113d95773__$7db5d2dbc3ae63372df6c39d501ad0f72a$__6308d78767846040518263ffffffff1660e01b815260040161138a9190611f74565b602060405180830381865af41580156113a7573d6000803e3d6000fd5b505050506040513d601f19601f820116820180604052508101906113cb9190611fab565b6113d457600080fd5b611424565b600060208460000151516113ed9190612007565b14801561141a575060016101006001856040015161140b9190612067565b6114159190612007565b83901c145b61142357600080fd5b5b84600001516000808260000151905060208101519150600082036114c85773__$7db5d2dbc3ae63372df6c39d501ad0f72a$__6308d78767846040518263ffffffff1660e01b81526004016114799190611f74565b602060405180830381865af4158015611496573d6000803e3d6000fd5b505050506040513d601f19601f820116820180604052508101906114ba9190611fab565b6114c357600080fd5b611513565b600060208460000151516114dc9190612007565b14801561150957506001610100600185604001516114fa9190612067565b6115049190612007565b83901c145b61151257600080fd5b5b73__$7db5d2dbc3ae63372df6c39d501ad0f72a$__63cd8e0ef78a600001518a600001516040518363ffffffff1660e01b815260040161155492919061258f565b602060405180830381865af4158015611571573d6000803e3d6000fd5b505050506040513d601f19601f820116820180604052508101906115959190611fab565b965050505050505092915050565b6115ab611910565b60006040518060600160405290816000820180546115c8906120ca565b80601f01602080910402602001604051908101604052809291908181526020018280546115f4906120ca565b80156116415780601f1061161657610100808354040283529160200191611641565b820191906000526020600020905b81548152906001019060200180831161162457829003601f168201915b505050505081526020016001820160009054906101000a900460ff16151515158152602001600282015481525050905090565b61167c6118f7565b82600001516000808260000151905060208101519150600082036117205773__$7db5d2dbc3ae63372df6c39d501ad0f72a$__6308d78767846040518263ffffffff1660e01b81526004016116d19190611f74565b602060405180830381865af41580156116ee573d6000803e3d6000fd5b505050506040513d601f19601f820116820180604052508101906117129190611fab565b61171b57600080fd5b61176b565b600060208460000151516117349190612007565b14801561176157506001610100600185604001516117529190612067565b61175c9190612007565b83901c145b61176a57600080fd5b5b846000015160008082600001519050602081015191506000820361180f5773__$7db5d2dbc3ae63372df6c39d501ad0f72a$__6308d78767846040518263ffffffff1660e01b81526004016117c09190611f74565b602060405180830381865af41580156117dd573d6000803e3d6000fd5b505050506040513d601f19601f820116820180604052508101906118019190611fab565b61180a57600080fd5b61185a565b600060208460000151516118239190612007565b14801561185057506001610100600185604001516118419190612067565b61184b9190612007565b83901c145b61185957600080fd5b5b6118e973__$7db5d2dbc3ae63372df6c39d501ad0f72a$__630a4638fd8b600001518b600001516040518363ffffffff1660e01b815260040161189e92919061258f565b600060405180830381865af41580156118bb573d6000803e3d6000fd5b505050506040513d6000823e3d601f19601f820116820180604052508101906118e4919061238f565b61062b565b965050505050505092915050565b604051806020016040528061190a611910565b81525090565b604051806060016040528060608152602001600015158152602001600081525090565b6000604051905090565b600080fd5b600080fd5b600080fd5b6000601f19601f8301169050919050565b7f4e487b7100000000000000000000000000000000000000000000000000000000600052604160045260246000fd5b6119958261194c565b810181811067ffffffffffffffff821117156119b4576119b361195d565b5b80604052505050565b60006119c7611933565b90506119d3828261198c565b919050565b600080fd5b600080fd5b600080fd5b600067ffffffffffffffff821115611a0257611a0161195d565b5b611a0b8261194c565b9050602081019050919050565b82818337600083830152505050565b6000611a3a611a35846119e7565b6119bd565b905082815260208101848484011115611a5657611a556119e2565b5b611a61848285611a18565b509392505050565b600082601f830112611a7e57611a7d6119dd565b5b8135611a8e848260208601611a27565b91505092915050565b60008115159050919050565b611aac81611a97565b8114611ab757600080fd5b50565b600081359050611ac981611aa3565b92915050565b6000819050919050565b611ae281611acf565b8114611aed57600080fd5b50565b600081359050611aff81611ad9565b92915050565b600060608284031215611b1b57611b1a611947565b5b611b2560606119bd565b9050600082013567ffffffffffffffff811115611b4557611b446119d8565b5b611b5184828501611a69565b6000830152506020611b6584828501611aba565b6020830152506040611b7984828501611af0565b60408301525092915050565b600060208284031215611b9b57611b9a611947565b5b611ba560206119bd565b9050600082013567ffffffffffffffff811115611bc557611bc46119d8565b5b611bd184828501611b05565b60008301525092915050565b600060208284031215611bf357611bf261193d565b5b600082013567ffffffffffffffff811115611c1157611c10611942565b5b611c1d84828501611b85565b91505092915050565b600081519050919050565b600082825260208201905092915050565b60005b83811015611c60578082015181840152602081019050611c45565b60008484015250505050565b6000611c7782611c26565b611c818185611c31565b9350611c91818560208601611c42565b611c9a8161194c565b840191505092915050565b611cae81611a97565b82525050565b611cbd81611acf565b82525050565b60006060830160008301518482036000860152611ce08282611c6c565b9150506020830151611cf56020860182611ca5565b506040830151611d086040860182611cb4565b508091505092915050565b60006020830160008301518482036000860152611d308282611cc3565b9150508091505092915050565b60006020820190508181036000830152611d578184611d13565b905092915050565b60008060408385031215611d7657611d7561193d565b5b600083013567ffffffffffffffff811115611d9457611d93611942565b5b611da085828601611b85565b925050602083013567ffffffffffffffff811115611dc157611dc0611942565b5b611dcd85828601611b85565b9150509250929050565b600060208284031215611ded57611dec61193d565b5b600082013567ffffffffffffffff811115611e0b57611e0a611942565b5b611e1784828501611b05565b91505092915050565b611e2981611a97565b82525050565b6000602082019050611e446000830184611e20565b92915050565b60006060830160008301518482036000860152611e678282611c6c565b9150506020830151611e7c6020860182611ca5565b506040830151611e8f6040860182611cb4565b508091505092915050565b60006020820190508181036000830152611eb48184611e4a565b905092915050565b600082825260208201905092915050565b6000611ed882611c26565b611ee28185611ebc565b9350611ef2818560208601611c42565b611efb8161194c565b840191505092915050565b611f0f81611a97565b82525050565b611f1e81611acf565b82525050565b60006060830160008301518482036000860152611f418282611ecd565b9150506020830151611f566020860182611f06565b506040830151611f696040860182611f15565b508091505092915050565b60006020820190508181036000830152611f8e8184611f24565b905092915050565b600081519050611fa581611aa3565b92915050565b600060208284031215611fc157611fc061193d565b5b6000611fcf84828501611f96565b91505092915050565b7f4e487b7100000000000000000000000000000000000000000000000000000000600052601260045260246000fd5b600061201282611acf565b915061201d83611acf565b92508261202d5761202c611fd8565b5b828206905092915050565b7f4e487b7100000000000000000000000000000000000000000000000000000000600052601160045260246000fd5b600061207282611acf565b915061207d83611acf565b925082820390508181111561209557612094612038565b5b92915050565b7f4e487b7100000000000000000000000000000000000000000000000000000000600052602260045260246000fd5b600060028204905060018216806120e257607f821691505b6020821081036120f5576120f461209b565b5b50919050565b60008190508160005260206000209050919050565b6000815461211d816120ca565b6121278186611ebc565b9450600182166000811461214257600181146121585761218b565b60ff19831686528115156020028601935061218b565b612161856120fb565b60005b8381101561218357815481890152600182019150602081019050612164565b808801955050505b50505092915050565b60008160001c9050919050565b600060ff82169050919050565b60006121c16121bc83612194565b6121a1565b9050919050565b6000819050919050565b60006121e56121e083612194565b6121c8565b9050919050565b600060608301600080840185830360008701526122098382612110565b9250506001840154905061221c816121ae565b6122296020870182611f06565b506002840154905061223a816121d2565b6122476040870182611f15565b50819250505092915050565b6000604082019050818103600083015261226d8185611f24565b9050818103602083015261228181846121ec565b90509392505050565b600061229d612298846119e7565b6119bd565b9050828152602081018484840111156122b9576122b86119e2565b5b6122c4848285611c42565b509392505050565b600082601f8301126122e1576122e06119dd565b5b81516122f184826020860161228a565b91505092915050565b60008151905061230981611ad9565b92915050565b60006060828403121561232557612324611947565b5b61232f60606119bd565b9050600082015167ffffffffffffffff81111561234f5761234e6119d8565b5b61235b848285016122cc565b600083015250602061236f84828501611f96565b6020830152506040612383848285016122fa565b60408301525092915050565b6000602082840312156123a5576123a461193d565b5b600082015167ffffffffffffffff8111156123c3576123c2611942565b5b6123cf8482850161230f565b91505092915050565b6123e181611a97565b82525050565b600060608201905081810360008301526124018186611f24565b905081810360208301526124158185611f24565b905061242460408301846123d8565b949350505050565b6000819050919050565b61243f8161242c565b811461244a57600080fd5b50565b60008151905061245c81612436565b92915050565b6000602082840312156124785761247761193d565b5b60006124868482850161244d565b91505092915050565b600082825260208201905092915050565b7f496e766572736f206469207a65726f206e6f6e20646566696e69746f2e000000600082015250565b60006124d6601d8361248f565b91506124e1826124a0565b602082019050919050565b60006020820190508181036000830152612505816124c9565b9050919050565b6000604082019050818103600083015261252681856121ec565b9050818103602083015261253a8184611f24565b90509392505050565b6000606082019050818103600083015261255d8186611f24565b905081810360208301526125718185611f24565b9050818103604083015261258581846121ec565b9050949350505050565b600060408201905081810360008301526125a98185611f24565b905081810360208301526125bd8184611f24565b9050939250505056fea2646970667358221220b8982caff5a8b9cc6d079e0e6e5fa60071925c1a15bca8e5faa38e1ac31bba0b64736f6c634300081b0033608060405234801561001057600080fd5b5060405161225b38038061225b833981810160405281019061003291906100ed565b806000806101000a81548173ffffffffffffffffffffffffffffffffffffffff021916908373ffffffffffffffffffffffffffffffffffffffff1602179055505061011a565b600080fd5b600073ffffffffffffffffffffffffffffffffffffffff82169050919050565b60006100a88261007d565b9050919050565b60006100ba8261009d565b9050919050565b6100ca816100af565b81146100d557600080fd5b50565b6000815190506100e7816100c1565b92915050565b60006020828403121561010357610102610078565b5b6000610111848285016100d8565b91505092915050565b612132806101296000396000f3fe608060405234801561001057600080fd5b50600436106100cf5760003560e01c8063901717d11161008c578063ab80cf7611610066578063ab80cf761461023c578063bc1b392d1461026c578063c700da6b1461028a578063fbb740a8146102ba576100cf565b8063901717d1146101d05780639d2e83f5146101ee578063a1fca2b61461021e576100cf565b806307a5ecaa146100d4578063232b9e5a1461010457806345caa117146101345780635f6910d4146101525780635fdf05d71461018257806364c044fe146101a0575b600080fd5b6100ee60048036038101906100e99190611bb1565b6102ea565b6040516100fb9190611d84565b60405180910390f35b61011e60048036038101906101199190611bb1565b6106e4565b60405161012b9190611d84565b60405180910390f35b61013c610706565b6040516101499190611d84565b60405180910390f35b61016c60048036038101906101679190611bb1565b610843565b6040516101799190611d84565b60405180910390f35b61018a6109ad565b6040516101979190611d84565b60405180910390f35b6101ba60048036038101906101b59190611da6565b610aea565b6040516101c79190611d84565b60405180910390f35b6101d8611013565b6040516101e59190611d84565b60405180910390f35b61020860048036038101906102039190611da6565b611150565b6040516102159190611d84565b60405180910390f35b6102266112b9565b6040516102339190611d84565b60405180910390f35b61025660048036038101906102519190611bb1565b6113f6565b6040516102639190611dfe565b60405180910390f35b610274611551565b6040516102819190611d84565b60405180910390f35b6102a4600480360381019061029f9190611e19565b61168e565b6040516102b19190611d84565b60405180910390f35b6102d460048036038101906102cf9190611bb1565b6116b3565b6040516102e19190611d84565b60405180910390f35b6102f261181d565b6106dc60008054906101000a900473ffffffffffffffffffffffffffffffffffffffff1673ffffffffffffffffffffffffffffffffffffffff1663fb2bedad60008054906101000a900473ffffffffffffffffffffffffffffffffffffffff1673ffffffffffffffffffffffffffffffffffffffff1663b5e28325876000015187600001516040518363ffffffff1660e01b8152600401610394929190611ebb565b600060405180830381865afa1580156103b1573d6000803e3d6000fd5b505050506040513d6000823e3d601f19601f820116820180604052508101906103da9190612064565b60008054906101000a900473ffffffffffffffffffffffffffffffffffffffff1673ffffffffffffffffffffffffffffffffffffffff1663b5e28325886020015188602001516040518363ffffffff1660e01b815260040161043d929190611ebb565b600060405180830381865afa15801561045a573d6000803e3d6000fd5b505050506040513d6000823e3d601f19601f820116820180604052508101906104839190612064565b6040518363ffffffff1660e01b81526004016104a0929190611ebb565b600060405180830381865afa1580156104bd573d6000803e3d6000fd5b505050506040513d6000823e3d601f19601f820116820180604052508101906104e69190612064565b60008054906101000a900473ffffffffffffffffffffffffffffffffffffffff1673ffffffffffffffffffffffffffffffffffffffff1663a9a52e7e60008054906101000a900473ffffffffffffffffffffffffffffffffffffffff1673ffffffffffffffffffffffffffffffffffffffff1663b5e28325886000015188602001516040518363ffffffff1660e01b8152600401610585929190611ebb565b600060405180830381865afa1580156105a2573d6000803e3d6000fd5b505050506040513d6000823e3d601f19601f820116820180604052508101906105cb9190612064565b60008054906101000a900473ffffffffffffffffffffffffffffffffffffffff1673ffffffffffffffffffffffffffffffffffffffff1663b5e28325896020015189600001516040518363ffffffff1660e01b815260040161062e929190611ebb565b600060405180830381865afa15801561064b573d6000803e3d6000fd5b505050506040513d6000823e3d601f19601f820116820180604052508101906106749190612064565b6040518363ffffffff1660e01b8152600401610691929190611ebb565b600060405180830381865afa1580156106ae573d6000803e3d6000fd5b505050506040513d6000823e3d601f19601f820116820180604052508101906106d79190612064565b61168e565b905092915050565b6106ec61181d565b6106fe836106f984610aea565b6102ea565b905092915050565b61070e61181d565b61083e60008054906101000a900473ffffffffffffffffffffffffffffffffffffffff1673ffffffffffffffffffffffffffffffffffffffff166345caa1176040518163ffffffff1660e01b8152600401600060405180830381865afa15801561077c573d6000803e3d6000fd5b505050506040513d6000823e3d601f19601f820116820180604052508101906107a59190612064565b60008054906101000a900473ffffffffffffffffffffffffffffffffffffffff1673ffffffffffffffffffffffffffffffffffffffff1663bc1b392d6040518163ffffffff1660e01b8152600401600060405180830381865afa158015610810573d6000803e3d6000fd5b505050506040513d6000823e3d601f19601f820116820180604052508101906108399190612064565b61168e565b905090565b61084b61181d565b6109a560008054906101000a900473ffffffffffffffffffffffffffffffffffffffff1673ffffffffffffffffffffffffffffffffffffffff1663fb2bedad856000015185600001516040518363ffffffff1660e01b81526004016108b1929190611ebb565b600060405180830381865afa1580156108ce573d6000803e3d6000fd5b505050506040513d6000823e3d601f19601f820116820180604052508101906108f79190612064565b60008054906101000a900473ffffffffffffffffffffffffffffffffffffffff1673ffffffffffffffffffffffffffffffffffffffff1663fb2bedad866020015186602001516040518363ffffffff1660e01b815260040161095a929190611ebb565b600060405180830381865afa158015610977573d6000803e3d6000fd5b505050506040513d6000823e3d601f19601f820116820180604052508101906109a09190612064565b61168e565b905092915050565b6109b561181d565b610ae560008054906101000a900473ffffffffffffffffffffffffffffffffffffffff1673ffffffffffffffffffffffffffffffffffffffff16635fdf05d76040518163ffffffff1660e01b8152600401600060405180830381865afa158015610a23573d6000803e3d6000fd5b505050506040513d6000823e3d601f19601f82011682018060405250810190610a4c9190612064565b60008054906101000a900473ffffffffffffffffffffffffffffffffffffffff1673ffffffffffffffffffffffffffffffffffffffff1663bc1b392d6040518163ffffffff1660e01b8152600401600060405180830381865afa158015610ab7573d6000803e3d6000fd5b505050506040513d6000823e3d601f19601f82011682018060405250810190610ae09190612064565b61168e565b905090565b610af261181d565b60008060009054906101000a900473ffffffffffffffffffffffffffffffffffffffff1673ffffffffffffffffffffffffffffffffffffffff1663a672d10060008054906101000a900473ffffffffffffffffffffffffffffffffffffffff1673ffffffffffffffffffffffffffffffffffffffff1663a9a52e7e60008054906101000a900473ffffffffffffffffffffffffffffffffffffffff1673ffffffffffffffffffffffffffffffffffffffff1663b5e28325886000015189600001516040518363ffffffff1660e01b8152600401610bd0929190611ebb565b600060405180830381865afa158015610bed573d6000803e3d6000fd5b505050506040513d6000823e3d601f19601f82011682018060405250810190610c169190612064565b60008054906101000a900473ffffffffffffffffffffffffffffffffffffffff1673ffffffffffffffffffffffffffffffffffffffff1663b5e2832589602001518a602001516040518363ffffffff1660e01b8152600401610c79929190611ebb565b600060405180830381865afa158015610c96573d6000803e3d6000fd5b505050506040513d6000823e3d601f19601f82011682018060405250810190610cbf9190612064565b6040518363ffffffff1660e01b8152600401610cdc929190611ebb565b600060405180830381865afa158015610cf9573d6000803e3d6000fd5b505050506040513d6000823e3d601f19601f82011682018060405250810190610d229190612064565b6040518263ffffffff1660e01b8152600401610d3e91906120ad565b600060405180830381865afa158015610d5b573d6000803e3d6000fd5b505050506040513d6000823e3d601f19601f82011682018060405250810190610d849190612064565b905061100b60008054906101000a900473ffffffffffffffffffffffffffffffffffffffff1673ffffffffffffffffffffffffffffffffffffffff1663b5e283258560000151846040518363ffffffff1660e01b8152600401610de8929190611ebb565b600060405180830381865afa158015610e05573d6000803e3d6000fd5b505050506040513d6000823e3d601f19601f82011682018060405250810190610e2e9190612064565b60008054906101000a900473ffffffffffffffffffffffffffffffffffffffff1673ffffffffffffffffffffffffffffffffffffffff1663b5e2832560008054906101000a900473ffffffffffffffffffffffffffffffffffffffff1673ffffffffffffffffffffffffffffffffffffffff1663fb2bedad60008054906101000a900473ffffffffffffffffffffffffffffffffffffffff1673ffffffffffffffffffffffffffffffffffffffff1663bc1b392d6040518163ffffffff1660e01b8152600401600060405180830381865afa158015610f11573d6000803e3d6000fd5b505050506040513d6000823e3d601f19601f82011682018060405250810190610f3a9190612064565b89602001516040518363ffffffff1660e01b8152600401610f5c929190611ebb565b600060405180830381865afa158015610f79573d6000803e3d6000fd5b505050506040513d6000823e3d601f19601f82011682018060405250810190610fa29190612064565b856040518363ffffffff1660e01b8152600401610fc0929190611ebb565b600060405180830381865afa158015610fdd573d6000803e3d6000fd5b505050506040513d6000823e3d601f19601f820116820180604052508101906110069190612064565b61168e565b915050919050565b61101b61181d565b61114b60008054906101000a900473ffffffffffffffffffffffffffffffffffffffff1673ffffffffffffffffffffffffffffffffffffffff1663901717d16040518163ffffffff1660e01b8152600401600060405180830381865afa158015611089573d6000803e3d6000fd5b505050506040513d6000823e3d601f19601f820116820180604052508101906110b29190612064565b60008054906101000a900473ffffffffffffffffffffffffffffffffffffffff1673ffffffffffffffffffffffffffffffffffffffff1663bc1b392d6040518163ffffffff1660e01b8152600401600060405180830381865afa15801561111d573d6000803e3d6000fd5b505050506040513d6000823e3d601f19601f820116820180604052508101906111469190612064565b61168e565b905090565b61115861181d565b6112b260008054906101000a900473ffffffffffffffffffffffffffffffffffffffff1673ffffffffffffffffffffffffffffffffffffffff1663a9a52e7e846000015185602001516040518363ffffffff1660e01b81526004016111be929190611ebb565b600060405180830381865afa1580156111db573d6000803e3d6000fd5b505050506040513d6000823e3d601f19601f820116820180604052508101906112049190612064565b60008054906101000a900473ffffffffffffffffffffffffffffffffffffffff1673ffffffffffffffffffffffffffffffffffffffff1663fb2bedad856000015186602001516040518363ffffffff1660e01b8152600401611267929190611ebb565b600060405180830381865afa158015611284573d6000803e3d6000fd5b505050506040513d6000823e3d601f19601f820116820180604052508101906112ad9190612064565b61168e565b9050919050565b6112c161181d565b6113f160008054906101000a900473ffffffffffffffffffffffffffffffffffffffff1673ffffffffffffffffffffffffffffffffffffffff1663a1fca2b66040518163ffffffff1660e01b8152600401600060405180830381865afa15801561132f573d6000803e3d6000fd5b505050506040513d6000823e3d601f19601f820116820180604052508101906113589190612064565b60008054906101000a900473ffffffffffffffffffffffffffffffffffffffff1673ffffffffffffffffffffffffffffffffffffffff1663bc1b392d6040518163ffffffff1660e01b8152600401600060405180830381865afa1580156113c3573d6000803e3d6000fd5b505050506040513d6000823e3d601f19601f820116820180604052508101906113ec9190612064565b61168e565b905090565b60008060009054906101000a900473ffffffffffffffffffffffffffffffffffffffff1673ffffffffffffffffffffffffffffffffffffffff1663d4d45554846000015184600001516040518363ffffffff1660e01b815260040161145c929190611ebb565b602060405180830381865afa158015611479573d6000803e3d6000fd5b505050506040513d601f19601f8201168201806040525081019061149d91906120cf565b8015611549575060008054906101000a900473ffffffffffffffffffffffffffffffffffffffff1673ffffffffffffffffffffffffffffffffffffffff1663d4d45554846020015184602001516040518363ffffffff1660e01b8152600401611507929190611ebb565b602060405180830381865afa158015611524573d6000803e3d6000fd5b505050506040513d601f19601f8201168201806040525081019061154891906120cf565b5b905092915050565b61155961181d565b61168960008054906101000a900473ffffffffffffffffffffffffffffffffffffffff1673ffffffffffffffffffffffffffffffffffffffff1663bc1b392d6040518163ffffffff1660e01b8152600401600060405180830381865afa1580156115c7573d6000803e3d6000fd5b505050506040513d6000823e3d601f19601f820116820180604052508101906115f09190612064565b60008054906101000a900473ffffffffffffffffffffffffffffffffffffffff1673ffffffffffffffffffffffffffffffffffffffff1663bc1b392d6040518163ffffffff1660e01b8152600401600060405180830381865afa15801561165b573d6000803e3d6000fd5b505050506040513d6000823e3d601f19601f820116820180604052508101906116849190612064565b61168e565b905090565b61169661181d565b604051806040016040528084815260200183815250905092915050565b6116bb61181d565b61181560008054906101000a900473ffffffffffffffffffffffffffffffffffffffff1673ffffffffffffffffffffffffffffffffffffffff1663a9a52e7e856000015185600001516040518363ffffffff1660e01b8152600401611721929190611ebb565b600060405180830381865afa15801561173e573d6000803e3d6000fd5b505050506040513d6000823e3d601f19601f820116820180604052508101906117679190612064565b60008054906101000a900473ffffffffffffffffffffffffffffffffffffffff1673ffffffffffffffffffffffffffffffffffffffff1663a9a52e7e866020015186602001516040518363ffffffff1660e01b81526004016117ca929190611ebb565b600060405180830381865afa1580156117e7573d6000803e3d6000fd5b505050506040513d6000823e3d601f19601f820116820180604052508101906118109190612064565b61168e565b905092915050565b6040518060400160405280611830611843565b815260200161183d611843565b81525090565b604051806020016040528061185661185c565b81525090565b604051806060016040528060608152602001600015158152602001600081525090565b6000604051905090565b600080fd5b600080fd5b600080fd5b6000601f19601f8301169050919050565b7f4e487b7100000000000000000000000000000000000000000000000000000000600052604160045260246000fd5b6118e182611898565b810181811067ffffffffffffffff82111715611900576118ff6118a9565b5b80604052505050565b600061191361187f565b905061191f82826118d8565b919050565b600080fd5b600080fd5b600080fd5b600067ffffffffffffffff82111561194e5761194d6118a9565b5b61195782611898565b9050602081019050919050565b82818337600083830152505050565b600061198661198184611933565b611909565b9050828152602081018484840111156119a2576119a161192e565b5b6119ad848285611964565b509392505050565b600082601f8301126119ca576119c9611929565b5b81356119da848260208601611973565b91505092915050565b60008115159050919050565b6119f8816119e3565b8114611a0357600080fd5b50565b600081359050611a15816119ef565b92915050565b6000819050919050565b611a2e81611a1b565b8114611a3957600080fd5b50565b600081359050611a4b81611a25565b92915050565b600060608284031215611a6757611a66611893565b5b611a716060611909565b9050600082013567ffffffffffffffff811115611a9157611a90611924565b5b611a9d848285016119b5565b6000830152506020611ab184828501611a06565b6020830152506040611ac584828501611a3c565b60408301525092915050565b600060208284031215611ae757611ae6611893565b5b611af16020611909565b9050600082013567ffffffffffffffff811115611b1157611b10611924565b5b611b1d84828501611a51565b60008301525092915050565b600060408284031215611b3f57611b3e611893565b5b611b496040611909565b9050600082013567ffffffffffffffff811115611b6957611b68611924565b5b611b7584828501611ad1565b600083015250602082013567ffffffffffffffff811115611b9957611b98611924565b5b611ba584828501611ad1565b60208301525092915050565b60008060408385031215611bc857611bc7611889565b5b600083013567ffffffffffffffff811115611be657611be561188e565b5b611bf285828601611b29565b925050602083013567ffffffffffffffff811115611c1357611c1261188e565b5b611c1f85828601611b29565b9150509250929050565b600081519050919050565b600082825260208201905092915050565b60005b83811015611c63578082015181840152602081019050611c48565b60008484015250505050565b6000611c7a82611c29565b611c848185611c34565b9350611c94818560208601611c45565b611c9d81611898565b840191505092915050565b611cb1816119e3565b82525050565b611cc081611a1b565b82525050565b60006060830160008301518482036000860152611ce38282611c6f565b9150506020830151611cf86020860182611ca8565b506040830151611d0b6040860182611cb7565b508091505092915050565b60006020830160008301518482036000860152611d338282611cc6565b9150508091505092915050565b60006040830160008301518482036000860152611d5d8282611d16565b91505060208301518482036020860152611d778282611d16565b9150508091505092915050565b60006020820190508181036000830152611d9e8184611d40565b905092915050565b600060208284031215611dbc57611dbb611889565b5b600082013567ffffffffffffffff811115611dda57611dd961188e565b5b611de684828501611b29565b91505092915050565b611df8816119e3565b82525050565b6000602082019050611e136000830184611def565b92915050565b60008060408385031215611e3057611e2f611889565b5b600083013567ffffffffffffffff811115611e4e57611e4d61188e565b5b611e5a85828601611ad1565b925050602083013567ffffffffffffffff811115611e7b57611e7a61188e565b5b611e8785828601611ad1565b9150509250929050565b60006020830160008301518482036000860152611eae8282611cc6565b9150508091505092915050565b60006040820190508181036000830152611ed58185611e91565b90508181036020830152611ee98184611e91565b90509392505050565b6000611f05611f0084611933565b611909565b905082815260208101848484011115611f2157611f2061192e565b5b611f2c848285611c45565b509392505050565b600082601f830112611f4957611f48611929565b5b8151611f59848260208601611ef2565b91505092915050565b600081519050611f71816119ef565b92915050565b600081519050611f8681611a25565b92915050565b600060608284031215611fa257611fa1611893565b5b611fac6060611909565b9050600082015167ffffffffffffffff811115611fcc57611fcb611924565b5b611fd884828501611f34565b6000830152506020611fec84828501611f62565b602083015250604061200084828501611f77565b60408301525092915050565b60006020828403121561202257612021611893565b5b61202c6020611909565b9050600082015167ffffffffffffffff81111561204c5761204b611924565b5b61205884828501611f8c565b60008301525092915050565b60006020828403121561207a57612079611889565b5b600082015167ffffffffffffffff8111156120985761209761188e565b5b6120a48482850161200c565b91505092915050565b600060208201905081810360008301526120c78184611e91565b905092915050565b6000602082840312156120e5576120e4611889565b5b60006120f384828501611f62565b9150509291505056fea2646970667358221220357febd452f70be455643284def62596737f0f4a76467cb601054186007dd14364736f6c634300081b0033608060405234801561001057600080fd5b50604051613842380380613842833981810160405281019061003291906100ed565b806000806101000a81548173ffffffffffffffffffffffffffffffffffffffff021916908373ffffffffffffffffffffffffffffffffffffffff1602179055505061011a565b600080fd5b600073ffffffffffffffffffffffffffffffffffffffff82169050919050565b60006100a88261007d565b9050919050565b60006100ba8261009d565b9050919050565b6100ca816100af565b81146100d557600080fd5b50565b6000815190506100e7816100c1565b92915050565b60006020828403121561010357610102610078565b5b6000610111848285016100d8565b91505092915050565b613719806101296000396000f3fe608060405234801561001057600080fd5b50600436106100cf5760003560e01c8063a03823051161008c578063ba510cc311610066578063ba510cc31461023c578063bc1b392d1461026c578063d6ba3d6d1461028a578063f7052ed6146102ba576100cf565b8063a0382305146101be578063a1fca2b6146101ee578063b52ab3b11461020c576100cf565b806345caa117146100d45780634aa28cb5146100f25780635fdf05d7146101225780637e28928014610140578063901717d1146101705780639faceb7e1461018e575b600080fd5b6100dc6102ea565b6040516100e99190612e5f565b60405180910390f35b61010c60048036038101906101079190613244565b6104bb565b6040516101199190612e5f565b60405180910390f35b61012a610fdd565b6040516101379190612e5f565b60405180910390f35b61015a60048036038101906101559190613244565b6111ae565b6040516101679190612e5f565b60405180910390f35b6101786113c1565b6040516101859190612e5f565b60405180910390f35b6101a860048036038101906101a391906132bc565b611592565b6040516101b59190612e5f565b60405180910390f35b6101d860048036038101906101d39190613244565b6115be565b6040516101e59190613372565b60405180910390f35b6101f66117c5565b6040516102039190612e5f565b60405180910390f35b6102266004803603810190610221919061338d565b611996565b6040516102339190612e5f565b60405180910390f35b61025660048036038101906102519190613244565b611a5a565b6040516102639190612e5f565b60405180910390f35b610274611a7c565b6040516102819190612e5f565b60405180910390f35b6102a4600480360381019061029f919061338d565b611c4d565b6040516102b19190612e5f565b60405180910390f35b6102d460048036038101906102cf9190613244565b6129d7565b6040516102e19190612e5f565b60405180910390f35b6102f2612bea565b6104b660008054906101000a900473ffffffffffffffffffffffffffffffffffffffff1673ffffffffffffffffffffffffffffffffffffffff166345caa1176040518163ffffffff1660e01b8152600401600060405180830381865afa158015610360573d6000803e3d6000fd5b505050506040513d6000823e3d601f19601f8201168201806040525081019061038991906135d0565b60008054906101000a900473ffffffffffffffffffffffffffffffffffffffff1673ffffffffffffffffffffffffffffffffffffffff1663bc1b392d6040518163ffffffff1660e01b8152600401600060405180830381865afa1580156103f4573d6000803e3d6000fd5b505050506040513d6000823e3d601f19601f8201168201806040525081019061041d91906135d0565b60008054906101000a900473ffffffffffffffffffffffffffffffffffffffff1673ffffffffffffffffffffffffffffffffffffffff1663bc1b392d6040518163ffffffff1660e01b8152600401600060405180830381865afa158015610488573d6000803e3d6000fd5b505050506040513d6000823e3d601f19601f820116820180604052508101906104b191906135d0565b611592565b905090565b6104c3612bea565b60008060009054906101000a900473ffffffffffffffffffffffffffffffffffffffff1673ffffffffffffffffffffffffffffffffffffffff166307a5ecaa856000015185600001516040518363ffffffff1660e01b815260040161052992919061365d565b600060405180830381865afa158015610546573d6000803e3d6000fd5b505050506040513d6000823e3d601f19601f8201168201806040525081019061056f91906135d0565b905060008060009054906101000a900473ffffffffffffffffffffffffffffffffffffffff1673ffffffffffffffffffffffffffffffffffffffff1663fbb740a860008054906101000a900473ffffffffffffffffffffffffffffffffffffffff1673ffffffffffffffffffffffffffffffffffffffff166307a5ecaa886000015188602001516040518363ffffffff1660e01b815260040161061392919061365d565b600060405180830381865afa158015610630573d6000803e3d6000fd5b505050506040513d6000823e3d601f19601f8201168201806040525081019061065991906135d0565b60008054906101000a900473ffffffffffffffffffffffffffffffffffffffff1673ffffffffffffffffffffffffffffffffffffffff166307a5ecaa896020015189600001516040518363ffffffff1660e01b81526004016106bc92919061365d565b600060405180830381865afa1580156106d9573d6000803e3d6000fd5b505050506040513d6000823e3d601f19601f8201168201806040525081019061070291906135d0565b6040518363ffffffff1660e01b815260040161071f92919061365d565b600060405180830381865afa15801561073c573d6000803e3d6000fd5b505050506040513d6000823e3d601f19601f8201168201806040525081019061076591906135d0565b905060008060009054906101000a900473ffffffffffffffffffffffffffffffffffffffff1673ffffffffffffffffffffffffffffffffffffffff1663fbb740a860008054906101000a900473ffffffffffffffffffffffffffffffffffffffff1673ffffffffffffffffffffffffffffffffffffffff1663fbb740a860008054906101000a900473ffffffffffffffffffffffffffffffffffffffff1673ffffffffffffffffffffffffffffffffffffffff166307a5ecaa8b600001518b604001516040518363ffffffff1660e01b815260040161084592919061365d565b600060405180830381865afa158015610862573d6000803e3d6000fd5b505050506040513d6000823e3d601f19601f8201168201806040525081019061088b91906135d0565b60008054906101000a900473ffffffffffffffffffffffffffffffffffffffff1673ffffffffffffffffffffffffffffffffffffffff166307a5ecaa8c602001518c602001516040518363ffffffff1660e01b81526004016108ee92919061365d565b600060405180830381865afa15801561090b573d6000803e3d6000fd5b505050506040513d6000823e3d601f19601f8201168201806040525081019061093491906135d0565b6040518363ffffffff1660e01b815260040161095192919061365d565b600060405180830381865afa15801561096e573d6000803e3d6000fd5b505050506040513d6000823e3d601f19601f8201168201806040525081019061099791906135d0565b60008054906101000a900473ffffffffffffffffffffffffffffffffffffffff1673ffffffffffffffffffffffffffffffffffffffff166307a5ecaa8a604001518a600001516040518363ffffffff1660e01b81526004016109fa92919061365d565b600060405180830381865afa158015610a17573d6000803e3d6000fd5b505050506040513d6000823e3d601f19601f82011682018060405250810190610a4091906135d0565b6040518363ffffffff1660e01b8152600401610a5d92919061365d565b600060405180830381865afa158015610a7a573d6000803e3d6000fd5b505050506040513d6000823e3d601f19601f82011682018060405250810190610aa391906135d0565b905060008060009054906101000a900473ffffffffffffffffffffffffffffffffffffffff1673ffffffffffffffffffffffffffffffffffffffff16639d2e83f560008054906101000a900473ffffffffffffffffffffffffffffffffffffffff1673ffffffffffffffffffffffffffffffffffffffff1663fbb740a860008054906101000a900473ffffffffffffffffffffffffffffffffffffffff1673ffffffffffffffffffffffffffffffffffffffff166307a5ecaa8c602001518c604001516040518363ffffffff1660e01b8152600401610b8392919061365d565b600060405180830381865afa158015610ba0573d6000803e3d6000fd5b505050506040513d6000823e3d601f19601f82011682018060405250810190610bc991906135d0565b60008054906101000a900473ffffffffffffffffffffffffffffffffffffffff1673ffffffffffffffffffffffffffffffffffffffff166307a5ecaa8d604001518d602001516040518363ffffffff1660e01b8152600401610c2c92919061365d565b600060405180830381865afa158015610c49573d6000803e3d6000fd5b505050506040513d6000823e3d601f19601f82011682018060405250810190610c7291906135d0565b6040518363ffffffff1660e01b8152600401610c8f92919061365d565b600060405180830381865afa158015610cac573d6000803e3d6000fd5b505050506040513d6000823e3d601f19601f82011682018060405250810190610cd591906135d0565b6040518263ffffffff1660e01b8152600401610cf19190613694565b600060405180830381865afa158015610d0e573d6000803e3d6000fd5b505050506040513d6000823e3d601f19601f82011682018060405250810190610d3791906135d0565b905060008060009054906101000a900473ffffffffffffffffffffffffffffffffffffffff1673ffffffffffffffffffffffffffffffffffffffff16639d2e83f560008054906101000a900473ffffffffffffffffffffffffffffffffffffffff1673ffffffffffffffffffffffffffffffffffffffff166307a5ecaa8b604001518b604001516040518363ffffffff1660e01b8152600401610ddb92919061365d565b600060405180830381865afa158015610df8573d6000803e3d6000fd5b505050506040513d6000823e3d601f19601f82011682018060405250810190610e2191906135d0565b6040518263ffffffff1660e01b8152600401610e3d9190613694565b600060405180830381865afa158015610e5a573d6000803e3d6000fd5b505050506040513d6000823e3d601f19601f82011682018060405250810190610e8391906135d0565b9050610fd060008054906101000a900473ffffffffffffffffffffffffffffffffffffffff1673ffffffffffffffffffffffffffffffffffffffff1663fbb740a887856040518363ffffffff1660e01b8152600401610ee392919061365d565b600060405180830381865afa158015610f00573d6000803e3d6000fd5b505050506040513d6000823e3d601f19601f82011682018060405250810190610f2991906135d0565b60008054906101000a900473ffffffffffffffffffffffffffffffffffffffff1673ffffffffffffffffffffffffffffffffffffffff1663fbb740a887856040518363ffffffff1660e01b8152600401610f8492919061365d565b600060405180830381865afa158015610fa1573d6000803e3d6000fd5b505050506040513d6000823e3d601f19601f82011682018060405250810190610fca91906135d0565b85611592565b9550505050505092915050565b610fe5612bea565b6111a960008054906101000a900473ffffffffffffffffffffffffffffffffffffffff1673ffffffffffffffffffffffffffffffffffffffff16635fdf05d76040518163ffffffff1660e01b8152600401600060405180830381865afa158015611053573d6000803e3d6000fd5b505050506040513d6000823e3d601f19601f8201168201806040525081019061107c91906135d0565b60008054906101000a900473ffffffffffffffffffffffffffffffffffffffff1673ffffffffffffffffffffffffffffffffffffffff1663bc1b392d6040518163ffffffff1660e01b8152600401600060405180830381865afa1580156110e7573d6000803e3d6000fd5b505050506040513d6000823e3d601f19601f8201168201806040525081019061111091906135d0565b60008054906101000a900473ffffffffffffffffffffffffffffffffffffffff1673ffffffffffffffffffffffffffffffffffffffff1663bc1b392d6040518163ffffffff1660e01b8152600401600060405180830381865afa15801561117b573d6000803e3d6000fd5b505050506040513d6000823e3d601f19601f820116820180604052508101906111a491906135d0565b611592565b905090565b6111b6612bea565b6113b960008054906101000a900473ffffffffffffffffffffffffffffffffffffffff1673ffffffffffffffffffffffffffffffffffffffff1663fbb740a8856000015185600001516040518363ffffffff1660e01b815260040161121c92919061365d565b600060405180830381865afa158015611239573d6000803e3d6000fd5b505050506040513d6000823e3d601f19601f8201168201806040525081019061126291906135d0565b60008054906101000a900473ffffffffffffffffffffffffffffffffffffffff1673ffffffffffffffffffffffffffffffffffffffff1663fbb740a8866020015186602001516040518363ffffffff1660e01b81526004016112c592919061365d565b600060405180830381865afa1580156112e2573d6000803e3d6000fd5b505050506040513d6000823e3d601f19601f8201168201806040525081019061130b91906135d0565b60008054906101000a900473ffffffffffffffffffffffffffffffffffffffff1673ffffffffffffffffffffffffffffffffffffffff1663fbb740a8876040015187604001516040518363ffffffff1660e01b815260040161136e92919061365d565b600060405180830381865afa15801561138b573d6000803e3d6000fd5b505050506040513d6000823e3d601f19601f820116820180604052508101906113b491906135d0565b611592565b905092915050565b6113c9612bea565b61158d60008054906101000a900473ffffffffffffffffffffffffffffffffffffffff1673ffffffffffffffffffffffffffffffffffffffff1663901717d16040518163ffffffff1660e01b8152600401600060405180830381865afa158015611437573d6000803e3d6000fd5b505050506040513d6000823e3d601f19601f8201168201806040525081019061146091906135d0565b60008054906101000a900473ffffffffffffffffffffffffffffffffffffffff1673ffffffffffffffffffffffffffffffffffffffff1663bc1b392d6040518163ffffffff1660e01b8152600401600060405180830381865afa1580156114cb573d6000803e3d6000fd5b505050506040513d6000823e3d601f19601f820116820180604052508101906114f491906135d0565b60008054906101000a900473ffffffffffffffffffffffffffffffffffffffff1673ffffffffffffffffffffffffffffffffffffffff1663bc1b392d6040518163ffffffff1660e01b8152600401600060405180830381865afa15801561155f573d6000803e3d6000fd5b505050506040513d6000823e3d601f19601f8201168201806040525081019061158891906135d0565b611592565b905090565b61159a612bea565b60405180606001604052808581526020018481526020018381525090509392505050565b60008060009054906101000a900473ffffffffffffffffffffffffffffffffffffffff1673ffffffffffffffffffffffffffffffffffffffff1663ab80cf76846000015184600001516040518363ffffffff1660e01b815260040161162492919061365d565b602060405180830381865afa158015611641573d6000803e3d6000fd5b505050506040513d601f19601f8201168201806040525081019061166591906136b6565b8015611711575060008054906101000a900473ffffffffffffffffffffffffffffffffffffffff1673ffffffffffffffffffffffffffffffffffffffff1663ab80cf76846020015184602001516040518363ffffffff1660e01b81526004016116cf92919061365d565b602060405180830381865afa1580156116ec573d6000803e3d6000fd5b505050506040513d601f19601f8201168201806040525081019061171091906136b6565b5b80156117bd575060008054906101000a900473ffffffffffffffffffffffffffffffffffffffff1673ffffffffffffffffffffffffffffffffffffffff1663ab80cf76846040015184604001516040518363ffffffff1660e01b815260040161177b92919061365d565b602060405180830381865afa158015611798573d6000803e3d6000fd5b505050506040513d601f19601f820116820180604052508101906117bc91906136b6565b5b905092915050565b6117cd612bea565b61199160008054906101000a900473ffffffffffffffffffffffffffffffffffffffff1673ffffffffffffffffffffffffffffffffffffffff1663a1fca2b66040518163ffffffff1660e01b8152600401600060405180830381865afa15801561183b573d6000803e3d6000fd5b505050506040513d6000823e3d601f19601f8201168201806040525081019061186491906135d0565b60008054906101000a900473ffffffffffffffffffffffffffffffffffffffff1673ffffffffffffffffffffffffffffffffffffffff1663bc1b392d6040518163ffffffff1660e01b8152600401600060405180830381865afa1580156118cf573d6000803e3d6000fd5b505050506040513d6000823e3d601f19601f820116820180604052508101906118f891906135d0565b60008054906101000a900473ffffffffffffffffffffffffffffffffffffffff1673ffffffffffffffffffffffffffffffffffffffff1663bc1b392d6040518163ffffffff1660e01b8152600401600060405180830381865afa158015611963573d6000803e3d6000fd5b505050506040513d6000823e3d601f19601f8201168201806040525081019061198c91906135d0565b611592565b905090565b61199e612bea565b611a5360008054906101000a900473ffffffffffffffffffffffffffffffffffffffff1673ffffffffffffffffffffffffffffffffffffffff16639d2e83f584604001516040518263ffffffff1660e01b81526004016119fe9190613694565b600060405180830381865afa158015611a1b573d6000803e3d6000fd5b505050506040513d6000823e3d601f19601f82011682018060405250810190611a4491906135d0565b83600001518460200151611592565b9050919050565b611a62612bea565b611a7483611a6f84611c4d565b6104bb565b905092915050565b611a84612bea565b611c4860008054906101000a900473ffffffffffffffffffffffffffffffffffffffff1673ffffffffffffffffffffffffffffffffffffffff1663bc1b392d6040518163ffffffff1660e01b8152600401600060405180830381865afa158015611af2573d6000803e3d6000fd5b505050506040513d6000823e3d601f19601f82011682018060405250810190611b1b91906135d0565b60008054906101000a900473ffffffffffffffffffffffffffffffffffffffff1673ffffffffffffffffffffffffffffffffffffffff1663bc1b392d6040518163ffffffff1660e01b8152600401600060405180830381865afa158015611b86573d6000803e3d6000fd5b505050506040513d6000823e3d601f19601f82011682018060405250810190611baf91906135d0565b60008054906101000a900473ffffffffffffffffffffffffffffffffffffffff1673ffffffffffffffffffffffffffffffffffffffff1663bc1b392d6040518163ffffffff1660e01b8152600401600060405180830381865afa158015611c1a573d6000803e3d6000fd5b505050506040513d6000823e3d601f19601f82011682018060405250810190611c4391906135d0565b611592565b905090565b611c55612bea565b60008060009054906101000a900473ffffffffffffffffffffffffffffffffffffffff1673ffffffffffffffffffffffffffffffffffffffff16635f6910d460008054906101000a900473ffffffffffffffffffffffffffffffffffffffff1673ffffffffffffffffffffffffffffffffffffffff166307a5ecaa866000015187600001516040518363ffffffff1660e01b8152600401611cf792919061365d565b600060405180830381865afa158015611d14573d6000803e3d6000fd5b505050506040513d6000823e3d601f19601f82011682018060405250810190611d3d91906135d0565b60008054906101000a900473ffffffffffffffffffffffffffffffffffffffff1673ffffffffffffffffffffffffffffffffffffffff16639d2e83f560008054906101000a900473ffffffffffffffffffffffffffffffffffffffff1673ffffffffffffffffffffffffffffffffffffffff166307a5ecaa89602001518a604001516040518363ffffffff1660e01b8152600401611ddc92919061365d565b600060405180830381865afa158015611df9573d6000803e3d6000fd5b505050506040513d6000823e3d601f19601f82011682018060405250810190611e2291906135d0565b6040518263ffffffff1660e01b8152600401611e3e9190613694565b600060405180830381865afa158015611e5b573d6000803e3d6000fd5b505050506040513d6000823e3d601f19601f82011682018060405250810190611e8491906135d0565b6040518363ffffffff1660e01b8152600401611ea192919061365d565b600060405180830381865afa158015611ebe573d6000803e3d6000fd5b505050506040513d6000823e3d601f19601f82011682018060405250810190611ee791906135d0565b905060008060009054906101000a900473ffffffffffffffffffffffffffffffffffffffff1673ffffffffffffffffffffffffffffffffffffffff16635f6910d460008054906101000a900473ffffffffffffffffffffffffffffffffffffffff1673ffffffffffffffffffffffffffffffffffffffff16639d2e83f560008054906101000a900473ffffffffffffffffffffffffffffffffffffffff1673ffffffffffffffffffffffffffffffffffffffff166307a5ecaa89604001518a604001516040518363ffffffff1660e01b8152600401611fc792919061365d565b600060405180830381865afa158015611fe4573d6000803e3d6000fd5b505050506040513d6000823e3d601f19601f8201168201806040525081019061200d91906135d0565b6040518263ffffffff1660e01b81526004016120299190613694565b600060405180830381865afa158015612046573d6000803e3d6000fd5b505050506040513d6000823e3d601f19601f8201168201806040525081019061206f91906135d0565b60008054906101000a900473ffffffffffffffffffffffffffffffffffffffff1673ffffffffffffffffffffffffffffffffffffffff166307a5ecaa886000015189602001516040518363ffffffff1660e01b81526004016120d292919061365d565b600060405180830381865afa1580156120ef573d6000803e3d6000fd5b505050506040513d6000823e3d601f19601f8201168201806040525081019061211891906135d0565b6040518363ffffffff1660e01b815260040161213592919061365d565b600060405180830381865afa158015612152573d6000803e3d6000fd5b505050506040513d6000823e3d601f19601f8201168201806040525081019061217b91906135d0565b905060008060009054906101000a900473ffffffffffffffffffffffffffffffffffffffff1673ffffffffffffffffffffffffffffffffffffffff16635f6910d460008054906101000a900473ffffffffffffffffffffffffffffffffffffffff1673ffffffffffffffffffffffffffffffffffffffff166307a5ecaa886020015189602001516040518363ffffffff1660e01b815260040161221f92919061365d565b600060405180830381865afa15801561223c573d6000803e3d6000fd5b505050506040513d6000823e3d601f19601f8201168201806040525081019061226591906135d0565b60008054906101000a900473ffffffffffffffffffffffffffffffffffffffff1673ffffffffffffffffffffffffffffffffffffffff166307a5ecaa89600001518a604001516040518363ffffffff1660e01b81526004016122c892919061365d565b600060405180830381865afa1580156122e5573d6000803e3d6000fd5b505050506040513d6000823e3d601f19601f8201168201806040525081019061230e91906135d0565b6040518363ffffffff1660e01b815260040161232b92919061365d565b600060405180830381865afa158015612348573d6000803e3d6000fd5b505050506040513d6000823e3d601f19601f8201168201806040525081019061237191906135d0565b905060008060009054906101000a900473ffffffffffffffffffffffffffffffffffffffff1673ffffffffffffffffffffffffffffffffffffffff1663fbb740a860008054906101000a900473ffffffffffffffffffffffffffffffffffffffff1673ffffffffffffffffffffffffffffffffffffffff1663fbb740a860008054906101000a900473ffffffffffffffffffffffffffffffffffffffff1673ffffffffffffffffffffffffffffffffffffffff166307a5ecaa8b600001518a6040518363ffffffff1660e01b815260040161244d92919061365d565b600060405180830381865afa15801561246a573d6000803e3d6000fd5b505050506040513d6000823e3d601f19601f8201168201806040525081019061249391906135d0565b60008054906101000a900473ffffffffffffffffffffffffffffffffffffffff1673ffffffffffffffffffffffffffffffffffffffff16639d2e83f560008054906101000a900473ffffffffffffffffffffffffffffffffffffffff1673ffffffffffffffffffffffffffffffffffffffff166307a5ecaa8e604001518c6040518363ffffffff1660e01b815260040161252e92919061365d565b600060405180830381865afa15801561254b573d6000803e3d6000fd5b505050506040513d6000823e3d601f19601f8201168201806040525081019061257491906135d0565b6040518263ffffffff1660e01b81526004016125909190613694565b600060405180830381865afa1580156125ad573d6000803e3d6000fd5b505050506040513d6000823e3d601f19601f820116820180604052508101906125d691906135d0565b6040518363ffffffff1660e01b81526004016125f392919061365d565b600060405180830381865afa158015612610573d6000803e3d6000fd5b505050506040513d6000823e3d601f19601f8201168201806040525081019061263991906135d0565b60008054906101000a900473ffffffffffffffffffffffffffffffffffffffff1673ffffffffffffffffffffffffffffffffffffffff16639d2e83f560008054906101000a900473ffffffffffffffffffffffffffffffffffffffff1673ffffffffffffffffffffffffffffffffffffffff166307a5ecaa8c60200151896040518363ffffffff1660e01b81526004016126d492919061365d565b600060405180830381865afa1580156126f1573d6000803e3d6000fd5b505050506040513d6000823e3d601f19601f8201168201806040525081019061271a91906135d0565b6040518263ffffffff1660e01b81526004016127369190613694565b600060405180830381865afa158015612753573d6000803e3d6000fd5b505050506040513d6000823e3d601f19601f8201168201806040525081019061277c91906135d0565b6040518363ffffffff1660e01b815260040161279992919061365d565b600060405180830381865afa1580156127b6573d6000803e3d6000fd5b505050506040513d6000823e3d601f19601f820116820180604052508101906127df91906135d0565b90506129cc60008054906101000a900473ffffffffffffffffffffffffffffffffffffffff1673ffffffffffffffffffffffffffffffffffffffff1663232b9e5a86846040518363ffffffff1660e01b815260040161283f92919061365d565b600060405180830381865afa15801561285c573d6000803e3d6000fd5b505050506040513d6000823e3d601f19601f8201168201806040525081019061288591906135d0565b60008054906101000a900473ffffffffffffffffffffffffffffffffffffffff1673ffffffffffffffffffffffffffffffffffffffff1663232b9e5a86856040518363ffffffff1660e01b81526004016128e092919061365d565b600060405180830381865afa1580156128fd573d6000803e3d6000fd5b505050506040513d6000823e3d601f19601f8201168201806040525081019061292691906135d0565b60008054906101000a900473ffffffffffffffffffffffffffffffffffffffff1673ffffffffffffffffffffffffffffffffffffffff1663232b9e5a86866040518363ffffffff1660e01b815260040161298192919061365d565b600060405180830381865afa15801561299e573d6000803e3d6000fd5b505050506040513d6000823e3d601f19601f820116820180604052508101906129c791906135d0565b611592565b945050505050919050565b6129df612bea565b612be260008054906101000a900473ffffffffffffffffffffffffffffffffffffffff1673ffffffffffffffffffffffffffffffffffffffff16635f6910d4856000015185600001516040518363ffffffff1660e01b8152600401612a4592919061365d565b600060405180830381865afa158015612a62573d6000803e3d6000fd5b505050506040513d6000823e3d601f19601f82011682018060405250810190612a8b91906135d0565b60008054906101000a900473ffffffffffffffffffffffffffffffffffffffff1673ffffffffffffffffffffffffffffffffffffffff16635f6910d4866020015186602001516040518363ffffffff1660e01b8152600401612aee92919061365d565b600060405180830381865afa158015612b0b573d6000803e3d6000fd5b505050506040513d6000823e3d601f19601f82011682018060405250810190612b3491906135d0565b60008054906101000a900473ffffffffffffffffffffffffffffffffffffffff1673ffffffffffffffffffffffffffffffffffffffff16635f6910d4876040015187604001516040518363ffffffff1660e01b8152600401612b9792919061365d565b600060405180830381865afa158015612bb4573d6000803e3d6000fd5b505050506040513d6000823e3d601f19601f82011682018060405250810190612bdd91906135d0565b611592565b905092915050565b6040518060600160405280612bfd612c1d565b8152602001612c0a612c1d565b8152602001612c17612c1d565b81525090565b6040518060400160405280612c30612c43565b8152602001612c3d612c43565b81525090565b6040518060200160405280612c56612c5c565b81525090565b604051806060016040528060608152602001600015158152602001600081525090565b600081519050919050565b600082825260208201905092915050565b60005b83811015612cb9578082015181840152602081019050612c9e565b60008484015250505050565b6000601f19601f8301169050919050565b6000612ce182612c7f565b612ceb8185612c8a565b9350612cfb818560208601612c9b565b612d0481612cc5565b840191505092915050565b60008115159050919050565b612d2481612d0f565b82525050565b6000819050919050565b612d3d81612d2a565b82525050565b60006060830160008301518482036000860152612d608282612cd6565b9150506020830151612d756020860182612d1b565b506040830151612d886040860182612d34565b508091505092915050565b60006020830160008301518482036000860152612db08282612d43565b9150508091505092915050565b60006040830160008301518482036000860152612dda8282612d93565b91505060208301518482036020860152612df48282612d93565b9150508091505092915050565b60006060830160008301518482036000860152612e1e8282612dbd565b91505060208301518482036020860152612e388282612dbd565b91505060408301518482036040860152612e528282612dbd565b9150508091505092915050565b60006020820190508181036000830152612e798184612e01565b905092915050565b6000604051905090565b600080fd5b600080fd5b600080fd5b7f4e487b7100000000000000000000000000000000000000000000000000000000600052604160045260246000fd5b612ed282612cc5565b810181811067ffffffffffffffff82111715612ef157612ef0612e9a565b5b80604052505050565b6000612f04612e81565b9050612f108282612ec9565b919050565b600080fd5b600080fd5b600080fd5b600067ffffffffffffffff821115612f3f57612f3e612e9a565b5b612f4882612cc5565b9050602081019050919050565b82818337600083830152505050565b6000612f77612f7284612f24565b612efa565b905082815260208101848484011115612f9357612f92612f1f565b5b612f9e848285612f55565b509392505050565b600082601f830112612fbb57612fba612f1a565b5b8135612fcb848260208601612f64565b91505092915050565b612fdd81612d0f565b8114612fe857600080fd5b50565b600081359050612ffa81612fd4565b92915050565b61300981612d2a565b811461301457600080fd5b50565b60008135905061302681613000565b92915050565b60006060828403121561304257613041612e95565b5b61304c6060612efa565b9050600082013567ffffffffffffffff81111561306c5761306b612f15565b5b61307884828501612fa6565b600083015250602061308c84828501612feb565b60208301525060406130a084828501613017565b60408301525092915050565b6000602082840312156130c2576130c1612e95565b5b6130cc6020612efa565b9050600082013567ffffffffffffffff8111156130ec576130eb612f15565b5b6130f88482850161302c565b60008301525092915050565b60006040828403121561311a57613119612e95565b5b6131246040612efa565b9050600082013567ffffffffffffffff81111561314457613143612f15565b5b613150848285016130ac565b600083015250602082013567ffffffffffffffff81111561317457613173612f15565b5b613180848285016130ac565b60208301525092915050565b6000606082840312156131a2576131a1612e95565b5b6131ac6060612efa565b9050600082013567ffffffffffffffff8111156131cc576131cb612f15565b5b6131d884828501613104565b600083015250602082013567ffffffffffffffff8111156131fc576131fb612f15565b5b61320884828501613104565b602083015250604082013567ffffffffffffffff81111561322c5761322b612f15565b5b61323884828501613104565b60408301525092915050565b6000806040838503121561325b5761325a612e8b565b5b600083013567ffffffffffffffff81111561327957613278612e90565b5b6132858582860161318c565b925050602083013567ffffffffffffffff8111156132a6576132a5612e90565b5b6132b28582860161318c565b9150509250929050565b6000806000606084860312156132d5576132d4612e8b565b5b600084013567ffffffffffffffff8111156132f3576132f2612e90565b5b6132ff86828701613104565b935050602084013567ffffffffffffffff8111156133205761331f612e90565b5b61332c86828701613104565b925050604084013567ffffffffffffffff81111561334d5761334c612e90565b5b61335986828701613104565b9150509250925092565b61336c81612d0f565b82525050565b60006020820190506133876000830184613363565b92915050565b6000602082840312156133a3576133a2612e8b565b5b600082013567ffffffffffffffff8111156133c1576133c0612e90565b5b6133cd8482850161318c565b91505092915050565b60006133e96133e484612f24565b612efa565b90508281526020810184848401111561340557613404612f1f565b5b613410848285612c9b565b509392505050565b600082601f83011261342d5761342c612f1a565b5b815161343d8482602086016133d6565b91505092915050565b60008151905061345581612fd4565b92915050565b60008151905061346a81613000565b92915050565b60006060828403121561348657613485612e95565b5b6134906060612efa565b9050600082015167ffffffffffffffff8111156134b0576134af612f15565b5b6134bc84828501613418565b60008301525060206134d084828501613446565b60208301525060406134e48482850161345b565b60408301525092915050565b60006020828403121561350657613505612e95565b5b6135106020612efa565b9050600082015167ffffffffffffffff8111156135305761352f612f15565b5b61353c84828501613470565b60008301525092915050565b60006040828403121561355e5761355d612e95565b5b6135686040612efa565b9050600082015167ffffffffffffffff81111561358857613587612f15565b5b613594848285016134f0565b600083015250602082015167ffffffffffffffff8111156135b8576135b7612f15565b5b6135c4848285016134f0565b60208301525092915050565b6000602082840312156135e6576135e5612e8b565b5b600082015167ffffffffffffffff81111561360457613603612e90565b5b61361084828501613548565b91505092915050565b600060408301600083015184820360008601526136368282612d93565b915050602083015184820360208601526136508282612d93565b9150508091505092915050565b600060408201905081810360008301526136778185613619565b9050818103602083015261368b8184613619565b90509392505050565b600060208201905081810360008301526136ae8184613619565b905092915050565b6000602082840312156136cc576136cb612e8b565b5b60006136da84828501613446565b9150509291505056fea26469706673582212207c504163720433bc4a1baf45ec2cca9720cfaee1c7170b07c66b32b9a0b1a53164736f6c634300081b0033608060405234801561001057600080fd5b506040516124c13803806124c1833981810160405281019061003291906100ed565b806000806101000a81548173ffffffffffffffffffffffffffffffffffffffff021916908373ffffffffffffffffffffffffffffffffffffffff1602179055505061011a565b600080fd5b600073ffffffffffffffffffffffffffffffffffffffff82169050919050565b60006100a88261007d565b9050919050565b60006100ba8261009d565b9050919050565b6100ca816100af565b81146100d557600080fd5b50565b6000815190506100e7816100c1565b92915050565b60006020828403121561010357610102610078565b5b6000610111848285016100d8565b91505092915050565b612398806101296000396000f3fe608060405234801561001057600080fd5b50600436106100a95760003560e01c80639e0ddc50116100715780639e0ddc50146101685780639eea8ce814610198578063a1fca2b6146101c8578063bc1b392d146101e6578063f670079514610204578063f87386c314610234576100a9565b806345caa117146100ae5780635fdf05d7146100cc5780636bc90c28146100ea57806377839c691461011a578063901717d11461014a575b600080fd5b6100b6610264565b6040516100c391906119b3565b60405180910390f35b6100d46103a1565b6040516100e191906119b3565b60405180910390f35b61010460048036038101906100ff9190611e20565b6104de565b60405161011191906119b3565b60405180910390f35b610134600480360381019061012f9190611e20565b610648565b60405161014191906119b3565b60405180910390f35b610152610afc565b60405161015f91906119b3565b60405180910390f35b610182600480360381019061017d9190611e20565b610c39565b60405161018f91906119b3565b60405180910390f35b6101b260048036038101906101ad9190611e20565b610da3565b6040516101bf9190611ea7565b60405180910390f35b6101d0610efe565b6040516101dd91906119b3565b60405180910390f35b6101ee61103b565b6040516101fb91906119b3565b60405180910390f35b61021e60048036038101906102199190611ec2565b611178565b60405161022b91906119b3565b60405180910390f35b61024e60048036038101906102499190611f0b565b6116af565b60405161025b91906119b3565b60405180910390f35b61026c6116d4565b61039c60008054906101000a900473ffffffffffffffffffffffffffffffffffffffff1673ffffffffffffffffffffffffffffffffffffffff166345caa1176040518163ffffffff1660e01b8152600401600060405180830381865afa1580156102da573d6000803e3d6000fd5b505050506040513d6000823e3d601f19601f820116820180604052508101906103039190612235565b60008054906101000a900473ffffffffffffffffffffffffffffffffffffffff1673ffffffffffffffffffffffffffffffffffffffff1663bc1b392d6040518163ffffffff1660e01b8152600401600060405180830381865afa15801561036e573d6000803e3d6000fd5b505050506040513d6000823e3d601f19601f820116820180604052508101906103979190612235565b6116af565b905090565b6103a96116d4565b6104d960008054906101000a900473ffffffffffffffffffffffffffffffffffffffff1673ffffffffffffffffffffffffffffffffffffffff16635fdf05d76040518163ffffffff1660e01b8152600401600060405180830381865afa158015610417573d6000803e3d6000fd5b505050506040513d6000823e3d601f19601f820116820180604052508101906104409190612235565b60008054906101000a900473ffffffffffffffffffffffffffffffffffffffff1673ffffffffffffffffffffffffffffffffffffffff1663bc1b392d6040518163ffffffff1660e01b8152600401600060405180830381865afa1580156104ab573d6000803e3d6000fd5b505050506040513d6000823e3d601f19601f820116820180604052508101906104d49190612235565b6116af565b905090565b6104e66116d4565b61064060008054906101000a900473ffffffffffffffffffffffffffffffffffffffff1673ffffffffffffffffffffffffffffffffffffffff1663f7052ed6856000015185600001516040518363ffffffff1660e01b815260040161054c9291906122dc565b600060405180830381865afa158015610569573d6000803e3d6000fd5b505050506040513d6000823e3d601f19601f820116820180604052508101906105929190612235565b60008054906101000a900473ffffffffffffffffffffffffffffffffffffffff1673ffffffffffffffffffffffffffffffffffffffff1663f7052ed6866020015186602001516040518363ffffffff1660e01b81526004016105f59291906122dc565b600060405180830381865afa158015610612573d6000803e3d6000fd5b505050506040513d6000823e3d601f19601f8201168201806040525081019061063b9190612235565b6116af565b905092915050565b6106506116d4565b60008060009054906101000a900473ffffffffffffffffffffffffffffffffffffffff1673ffffffffffffffffffffffffffffffffffffffff1663b52ab3b160008054906101000a900473ffffffffffffffffffffffffffffffffffffffff1673ffffffffffffffffffffffffffffffffffffffff16634aa28cb5876020015187602001516040518363ffffffff1660e01b81526004016106f29291906122dc565b600060405180830381865afa15801561070f573d6000803e3d6000fd5b505050506040513d6000823e3d601f19601f820116820180604052508101906107389190612235565b6040518263ffffffff1660e01b81526004016107549190612313565b600060405180830381865afa158015610771573d6000803e3d6000fd5b505050506040513d6000823e3d601f19601f8201168201806040525081019061079a9190612235565b905060008060009054906101000a900473ffffffffffffffffffffffffffffffffffffffff1673ffffffffffffffffffffffffffffffffffffffff16634aa28cb5866000015186600001516040518363ffffffff1660e01b81526004016108029291906122dc565b600060405180830381865afa15801561081f573d6000803e3d6000fd5b505050506040513d6000823e3d601f19601f820116820180604052508101906108489190612235565b905060008060009054906101000a900473ffffffffffffffffffffffffffffffffffffffff1673ffffffffffffffffffffffffffffffffffffffff16634aa28cb5876020015187600001516040518363ffffffff1660e01b81526004016108b09291906122dc565b600060405180830381865afa1580156108cd573d6000803e3d6000fd5b505050506040513d6000823e3d601f19601f820116820180604052508101906108f69190612235565b905060008060009054906101000a900473ffffffffffffffffffffffffffffffffffffffff1673ffffffffffffffffffffffffffffffffffffffff16634aa28cb5886000015188602001516040518363ffffffff1660e01b815260040161095e9291906122dc565b600060405180830381865afa15801561097b573d6000803e3d6000fd5b505050506040513d6000823e3d601f19601f820116820180604052508101906109a49190612235565b9050610af060008054906101000a900473ffffffffffffffffffffffffffffffffffffffff1673ffffffffffffffffffffffffffffffffffffffff16637e28928086866040518363ffffffff1660e01b8152600401610a049291906122dc565b600060405180830381865afa158015610a21573d6000803e3d6000fd5b505050506040513d6000823e3d601f19601f82011682018060405250810190610a4a9190612235565b60008054906101000a900473ffffffffffffffffffffffffffffffffffffffff1673ffffffffffffffffffffffffffffffffffffffff16637e28928085856040518363ffffffff1660e01b8152600401610aa59291906122dc565b600060405180830381865afa158015610ac2573d6000803e3d6000fd5b505050506040513d6000823e3d601f19601f82011682018060405250810190610aeb9190612235565b6116af565b94505050505092915050565b610b046116d4565b610c3460008054906101000a900473ffffffffffffffffffffffffffffffffffffffff1673ffffffffffffffffffffffffffffffffffffffff1663901717d16040518163ffffffff1660e01b8152600401600060405180830381865afa158015610b72573d6000803e3d6000fd5b505050506040513d6000823e3d601f19601f82011682018060405250810190610b9b9190612235565b60008054906101000a900473ffffffffffffffffffffffffffffffffffffffff1673ffffffffffffffffffffffffffffffffffffffff1663bc1b392d6040518163ffffffff1660e01b8152600401600060405180830381865afa158015610c06573d6000803e3d6000fd5b505050506040513d6000823e3d601f19601f82011682018060405250810190610c2f9190612235565b6116af565b905090565b610c416116d4565b610d9b60008054906101000a900473ffffffffffffffffffffffffffffffffffffffff1673ffffffffffffffffffffffffffffffffffffffff16637e289280856000015185600001516040518363ffffffff1660e01b8152600401610ca79291906122dc565b600060405180830381865afa158015610cc4573d6000803e3d6000fd5b505050506040513d6000823e3d601f19601f82011682018060405250810190610ced9190612235565b60008054906101000a900473ffffffffffffffffffffffffffffffffffffffff1673ffffffffffffffffffffffffffffffffffffffff16637e289280866020015186602001516040518363ffffffff1660e01b8152600401610d509291906122dc565b600060405180830381865afa158015610d6d573d6000803e3d6000fd5b505050506040513d6000823e3d601f19601f82011682018060405250810190610d969190612235565b6116af565b905092915050565b60008060009054906101000a900473ffffffffffffffffffffffffffffffffffffffff1673ffffffffffffffffffffffffffffffffffffffff1663a0382305846000015184600001516040518363ffffffff1660e01b8152600401610e099291906122dc565b602060405180830381865afa158015610e26573d6000803e3d6000fd5b505050506040513d601f19601f82011682018060405250810190610e4a9190612335565b8015610ef6575060008054906101000a900473ffffffffffffffffffffffffffffffffffffffff1673ffffffffffffffffffffffffffffffffffffffff1663a0382305846020015184602001516040518363ffffffff1660e01b8152600401610eb49291906122dc565b602060405180830381865afa158015610ed1573d6000803e3d6000fd5b505050506040513d601f19601f82011682018060405250810190610ef59190612335565b5b905092915050565b610f066116d4565b61103660008054906101000a900473ffffffffffffffffffffffffffffffffffffffff1673ffffffffffffffffffffffffffffffffffffffff1663a1fca2b66040518163ffffffff1660e01b8152600401600060405180830381865afa158015610f74573d6000803e3d6000fd5b505050506040513d6000823e3d601f19601f82011682018060405250810190610f9d9190612235565b60008054906101000a900473ffffffffffffffffffffffffffffffffffffffff1673ffffffffffffffffffffffffffffffffffffffff1663bc1b392d6040518163ffffffff1660e01b8152600401600060405180830381865afa158015611008573d6000803e3d6000fd5b505050506040513d6000823e3d601f19601f820116820180604052508101906110319190612235565b6116af565b905090565b6110436116d4565b61117360008054906101000a900473ffffffffffffffffffffffffffffffffffffffff1673ffffffffffffffffffffffffffffffffffffffff1663bc1b392d6040518163ffffffff1660e01b8152600401600060405180830381865afa1580156110b1573d6000803e3d6000fd5b505050506040513d6000823e3d601f19601f820116820180604052508101906110da9190612235565b60008054906101000a900473ffffffffffffffffffffffffffffffffffffffff1673ffffffffffffffffffffffffffffffffffffffff1663bc1b392d6040518163ffffffff1660e01b8152600401600060405180830381865afa158015611145573d6000803e3d6000fd5b505050506040513d6000823e3d601f19601f8201168201806040525081019061116e9190612235565b6116af565b905090565b6111806116d4565b60008060009054906101000a900473ffffffffffffffffffffffffffffffffffffffff1673ffffffffffffffffffffffffffffffffffffffff1663b52ab3b160008054906101000a900473ffffffffffffffffffffffffffffffffffffffff1673ffffffffffffffffffffffffffffffffffffffff16634aa28cb5866020015187602001516040518363ffffffff1660e01b81526004016112229291906122dc565b600060405180830381865afa15801561123f573d6000803e3d6000fd5b505050506040513d6000823e3d601f19601f820116820180604052508101906112689190612235565b6040518263ffffffff1660e01b81526004016112849190612313565b600060405180830381865afa1580156112a1573d6000803e3d6000fd5b505050506040513d6000823e3d601f19601f820116820180604052508101906112ca9190612235565b905060008060009054906101000a900473ffffffffffffffffffffffffffffffffffffffff1673ffffffffffffffffffffffffffffffffffffffff16634aa28cb5856000015186600001516040518363ffffffff1660e01b81526004016113329291906122dc565b600060405180830381865afa15801561134f573d6000803e3d6000fd5b505050506040513d6000823e3d601f19601f820116820180604052508101906113789190612235565b905060008060009054906101000a900473ffffffffffffffffffffffffffffffffffffffff1673ffffffffffffffffffffffffffffffffffffffff1663f7052ed683856040518363ffffffff1660e01b81526004016113d89291906122dc565b600060405180830381865afa1580156113f5573d6000803e3d6000fd5b505050506040513d6000823e3d601f19601f8201168201806040525081019061141e9190612235565b90506116a560008054906101000a900473ffffffffffffffffffffffffffffffffffffffff1673ffffffffffffffffffffffffffffffffffffffff1663ba510cc38760000151846040518363ffffffff1660e01b81526004016114829291906122dc565b600060405180830381865afa15801561149f573d6000803e3d6000fd5b505050506040513d6000823e3d601f19601f820116820180604052508101906114c89190612235565b60008054906101000a900473ffffffffffffffffffffffffffffffffffffffff1673ffffffffffffffffffffffffffffffffffffffff1663ba510cc360008054906101000a900473ffffffffffffffffffffffffffffffffffffffff1673ffffffffffffffffffffffffffffffffffffffff1663f7052ed660008054906101000a900473ffffffffffffffffffffffffffffffffffffffff1673ffffffffffffffffffffffffffffffffffffffff1663bc1b392d6040518163ffffffff1660e01b8152600401600060405180830381865afa1580156115ab573d6000803e3d6000fd5b505050506040513d6000823e3d601f19601f820116820180604052508101906115d49190612235565b8b602001516040518363ffffffff1660e01b81526004016115f69291906122dc565b600060405180830381865afa158015611613573d6000803e3d6000fd5b505050506040513d6000823e3d601f19601f8201168201806040525081019061163c9190612235565b856040518363ffffffff1660e01b815260040161165a9291906122dc565b600060405180830381865afa158015611677573d6000803e3d6000fd5b505050506040513d6000823e3d601f19601f820116820180604052508101906116a09190612235565b6116af565b9350505050919050565b6116b76116d4565b604051806040016040528084815260200183815250905092915050565b60405180604001604052806116e76116fa565b81526020016116f46116fa565b81525090565b604051806060016040528061170d61172d565b815260200161171a61172d565b815260200161172761172d565b81525090565b6040518060400160405280611740611753565b815260200161174d611753565b81525090565b604051806020016040528061176661176c565b81525090565b604051806060016040528060608152602001600015158152602001600081525090565b600081519050919050565b600082825260208201905092915050565b60005b838110156117c95780820151818401526020810190506117ae565b60008484015250505050565b6000601f19601f8301169050919050565b60006117f18261178f565b6117fb818561179a565b935061180b8185602086016117ab565b611814816117d5565b840191505092915050565b60008115159050919050565b6118348161181f565b82525050565b6000819050919050565b61184d8161183a565b82525050565b6000606083016000830151848203600086015261187082826117e6565b9150506020830151611885602086018261182b565b5060408301516118986040860182611844565b508091505092915050565b600060208301600083015184820360008601526118c08282611853565b9150508091505092915050565b600060408301600083015184820360008601526118ea82826118a3565b9150506020830151848203602086015261190482826118a3565b9150508091505092915050565b6000606083016000830151848203600086015261192e82826118cd565b9150506020830151848203602086015261194882826118cd565b9150506040830151848203604086015261196282826118cd565b9150508091505092915050565b6000604083016000830151848203600086015261198c8282611911565b915050602083015184820360208601526119a68282611911565b9150508091505092915050565b600060208201905081810360008301526119cd818461196f565b905092915050565b6000604051905090565b600080fd5b600080fd5b600080fd5b7f4e487b7100000000000000000000000000000000000000000000000000000000600052604160045260246000fd5b611a26826117d5565b810181811067ffffffffffffffff82111715611a4557611a446119ee565b5b80604052505050565b6000611a586119d5565b9050611a648282611a1d565b919050565b600080fd5b600080fd5b600080fd5b600067ffffffffffffffff821115611a9357611a926119ee565b5b611a9c826117d5565b9050602081019050919050565b82818337600083830152505050565b6000611acb611ac684611a78565b611a4e565b905082815260208101848484011115611ae757611ae6611a73565b5b611af2848285611aa9565b509392505050565b600082601f830112611b0f57611b0e611a6e565b5b8135611b1f848260208601611ab8565b91505092915050565b611b318161181f565b8114611b3c57600080fd5b50565b600081359050611b4e81611b28565b92915050565b611b5d8161183a565b8114611b6857600080fd5b50565b600081359050611b7a81611b54565b92915050565b600060608284031215611b9657611b956119e9565b5b611ba06060611a4e565b9050600082013567ffffffffffffffff811115611bc057611bbf611a69565b5b611bcc84828501611afa565b6000830152506020611be084828501611b3f565b6020830152506040611bf484828501611b6b565b60408301525092915050565b600060208284031215611c1657611c156119e9565b5b611c206020611a4e565b9050600082013567ffffffffffffffff811115611c4057611c3f611a69565b5b611c4c84828501611b80565b60008301525092915050565b600060408284031215611c6e57611c6d6119e9565b5b611c786040611a4e565b9050600082013567ffffffffffffffff811115611c9857611c97611a69565b5b611ca484828501611c00565b600083015250602082013567ffffffffffffffff811115611cc857611cc7611a69565b5b611cd484828501611c00565b60208301525092915050565b600060608284031215611cf657611cf56119e9565b5b611d006060611a4e565b9050600082013567ffffffffffffffff811115611d2057611d1f611a69565b5b611d2c84828501611c58565b600083015250602082013567ffffffffffffffff811115611d5057611d4f611a69565b5b611d5c84828501611c58565b602083015250604082013567ffffffffffffffff811115611d8057611d7f611a69565b5b611d8c84828501611c58565b60408301525092915050565b600060408284031215611dae57611dad6119e9565b5b611db86040611a4e565b9050600082013567ffffffffffffffff811115611dd857611dd7611a69565b5b611de484828501611ce0565b600083015250602082013567ffffffffffffffff811115611e0857611e07611a69565b5b611e1484828501611ce0565b60208301525092915050565b60008060408385031215611e3757611e366119df565b5b600083013567ffffffffffffffff811115611e5557611e546119e4565b5b611e6185828601611d98565b925050602083013567ffffffffffffffff811115611e8257611e816119e4565b5b611e8e85828601611d98565b9150509250929050565b611ea18161181f565b82525050565b6000602082019050611ebc6000830184611e98565b92915050565b600060208284031215611ed857611ed76119df565b5b600082013567ffffffffffffffff811115611ef657611ef56119e4565b5b611f0284828501611d98565b91505092915050565b60008060408385031215611f2257611f216119df565b5b600083013567ffffffffffffffff811115611f4057611f3f6119e4565b5b611f4c85828601611ce0565b925050602083013567ffffffffffffffff811115611f6d57611f6c6119e4565b5b611f7985828601611ce0565b9150509250929050565b6000611f96611f9184611a78565b611a4e565b905082815260208101848484011115611fb257611fb1611a73565b5b611fbd8482856117ab565b509392505050565b600082601f830112611fda57611fd9611a6e565b5b8151611fea848260208601611f83565b91505092915050565b60008151905061200281611b28565b92915050565b60008151905061201781611b54565b92915050565b600060608284031215612033576120326119e9565b5b61203d6060611a4e565b9050600082015167ffffffffffffffff81111561205d5761205c611a69565b5b61206984828501611fc5565b600083015250602061207d84828501611ff3565b602083015250604061209184828501612008565b60408301525092915050565b6000602082840312156120b3576120b26119e9565b5b6120bd6020611a4e565b9050600082015167ffffffffffffffff8111156120dd576120dc611a69565b5b6120e98482850161201d565b60008301525092915050565b60006040828403121561210b5761210a6119e9565b5b6121156040611a4e565b9050600082015167ffffffffffffffff81111561213557612134611a69565b5b6121418482850161209d565b600083015250602082015167ffffffffffffffff81111561216557612164611a69565b5b6121718482850161209d565b60208301525092915050565b600060608284031215612193576121926119e9565b5b61219d6060611a4e565b9050600082015167ffffffffffffffff8111156121bd576121bc611a69565b5b6121c9848285016120f5565b600083015250602082015167ffffffffffffffff8111156121ed576121ec611a69565b5b6121f9848285016120f5565b602083015250604082015167ffffffffffffffff81111561221d5761221c611a69565b5b612229848285016120f5565b60408301525092915050565b60006020828403121561224b5761224a6119df565b5b600082015167ffffffffffffffff811115612269576122686119e4565b5b6122758482850161217d565b91505092915050565b6000606083016000830151848203600086015261229b82826118cd565b915050602083015184820360208601526122b582826118cd565b915050604083015184820360408601526122cf82826118cd565b9150508091505092915050565b600060408201905081810360008301526122f6818561227e565b9050818103602083015261230a818461227e565b90509392505050565b6000602082019050818103600083015261232d818461227e565b905092915050565b60006020828403121561234b5761234a6119df565b5b600061235984828501611ff3565b9150509291505056fea26469706673582212208aaeac55004b35130858887aa547bcdb9fd462bc8a336ffbbb77f2c4f1be126b64736f6c634300081b0033608060405234801561001057600080fd5b50604051612aca380380612aca833981810160405281019061003291906100ed565b806000806101000a81548173ffffffffffffffffffffffffffffffffffffffff021916908373ffffffffffffffffffffffffffffffffffffffff1602179055505061011a565b600080fd5b600073ffffffffffffffffffffffffffffffffffffffff82169050919050565b60006100a88261007d565b9050919050565b60006100ba8261009d565b9050919050565b6100ca816100af565b81146100d557600080fd5b50565b6000815190506100e7816100c1565b92915050565b60006020828403121561010357610102610078565b5b6000610111848285016100d8565b91505092915050565b6129a1806101296000396000f3fe608060405234801561001057600080fd5b50600436106100615760003560e01c80627995931461006657806307951d69146100965780631953a9bf146100c6578063292310eb146100f65780636cee5a0b1461011457806398dc089a14610144575b600080fd5b610080600480360381019061007b919061201c565b610174565b60405161008d9190612279565b60405180910390f35b6100b060048036038101906100ab919061229b565b6102be565b6040516100bd9190612279565b60405180910390f35b6100e060048036038101906100db9190612313565b610c84565b6040516100ed9190612279565b60405180910390f35b6100fe610cc2565b60405161010b9190612279565b60405180910390f35b61012e6004803603810190610129919061238b565b610e22565b60405161013b9190612279565b60405180910390f35b61015e6004803603810190610159919061238b565b6117b8565b60405161016b9190612279565b60405180910390f35b61017c611c36565b6000610186610cc2565b905083602001516101a45761019c848483611976565b9150506102b8565b6102b473__$7db5d2dbc3ae63372df6c39d501ad0f72a$__63b1d74ee98673__$7db5d2dbc3ae63372df6c39d501ad0f72a$__6340957f726001806040518363ffffffff1660e01b81526004016101fc929190612428565b600060405180830381865af4158015610219573d6000803e3d6000fd5b505050506040513d6000823e3d601f19601f82011682018060405250810190610242919061256b565b6040518363ffffffff1660e01b815260040161025f92919061266c565b600060405180830381865af415801561027c573d6000803e3d6000fd5b505050506040513d6000823e3d601f19601f820116820180604052508101906102a5919061256b565b6102ae856117b8565b83611976565b9150505b92915050565b6102c6611c36565b6001808111156102d9576102d8612094565b5b836000015160018111156102f0576102ef612094565b5b036102fd57819050610c7e565b6001808111156103105761030f612094565b5b8260000151600181111561032757610326612094565b5b0361033457829050610c7e565b60008054906101000a900473ffffffffffffffffffffffffffffffffffffffff1673ffffffffffffffffffffffffffffffffffffffff1663d4d45554846020015184602001516040518363ffffffff1660e01b81526004016103979291906126cd565b602060405180830381865afa1580156103b4573d6000803e3d6000fd5b505050506040513d601f19601f820116820180604052508101906103d89190612704565b8015610484575060008054906101000a900473ffffffffffffffffffffffffffffffffffffffff1673ffffffffffffffffffffffffffffffffffffffff1663d4d45554846040015184604001516040518363ffffffff1660e01b81526004016104429291906126cd565b602060405180830381865afa15801561045f573d6000803e3d6000fd5b505050506040513d601f19601f820116820180604052508101906104839190612704565b5b156104995761049283610e22565b9050610c7e565b60008054906101000a900473ffffffffffffffffffffffffffffffffffffffff1673ffffffffffffffffffffffffffffffffffffffff1663d4d45554846020015184602001516040518363ffffffff1660e01b81526004016104fc9291906126cd565b602060405180830381865afa158015610519573d6000803e3d6000fd5b505050506040513d601f19601f8201168201806040525081019061053d9190612704565b80156105ea575060008054906101000a900473ffffffffffffffffffffffffffffffffffffffff1673ffffffffffffffffffffffffffffffffffffffff1663d4d45554846040015184604001516040518363ffffffff1660e01b81526004016105a79291906126cd565b602060405180830381865afa1580156105c4573d6000803e3d6000fd5b505050506040513d601f19601f820116820180604052508101906105e89190612704565b155b156105fe576105f7610cc2565b9050610c7e565b60008060009054906101000a900473ffffffffffffffffffffffffffffffffffffffff1673ffffffffffffffffffffffffffffffffffffffff1663b5e2832560008054906101000a900473ffffffffffffffffffffffffffffffffffffffff1673ffffffffffffffffffffffffffffffffffffffff1663fb2bedad866040015188604001516040518363ffffffff1660e01b81526004016106a09291906126cd565b600060405180830381865afa1580156106bd573d6000803e3d6000fd5b505050506040513d6000823e3d601f19601f820116820180604052508101906106e69190612789565b60008054906101000a900473ffffffffffffffffffffffffffffffffffffffff1673ffffffffffffffffffffffffffffffffffffffff1663a672d10060008054906101000a900473ffffffffffffffffffffffffffffffffffffffff1673ffffffffffffffffffffffffffffffffffffffff1663fb2bedad89602001518b602001516040518363ffffffff1660e01b81526004016107859291906126cd565b600060405180830381865afa1580156107a2573d6000803e3d6000fd5b505050506040513d6000823e3d601f19601f820116820180604052508101906107cb9190612789565b6040518263ffffffff1660e01b81526004016107e791906127d2565b600060405180830381865afa158015610804573d6000803e3d6000fd5b505050506040513d6000823e3d601f19601f8201168201806040525081019061082d9190612789565b6040518363ffffffff1660e01b815260040161084a9291906126cd565b600060405180830381865afa158015610867573d6000803e3d6000fd5b505050506040513d6000823e3d601f19601f820116820180604052508101906108909190612789565b905060008060009054906101000a900473ffffffffffffffffffffffffffffffffffffffff1673ffffffffffffffffffffffffffffffffffffffff1663fb2bedad60008054906101000a900473ffffffffffffffffffffffffffffffffffffffff1673ffffffffffffffffffffffffffffffffffffffff1663fb2bedad60008054906101000a900473ffffffffffffffffffffffffffffffffffffffff1673ffffffffffffffffffffffffffffffffffffffff1663b5e2832587886040518363ffffffff1660e01b81526004016109689291906126cd565b600060405180830381865afa158015610985573d6000803e3d6000fd5b505050506040513d6000823e3d601f19601f820116820180604052508101906109ae9190612789565b89602001516040518363ffffffff1660e01b81526004016109d09291906126cd565b600060405180830381865afa1580156109ed573d6000803e3d6000fd5b505050506040513d6000823e3d601f19601f82011682018060405250810190610a169190612789565b86602001516040518363ffffffff1660e01b8152600401610a389291906126cd565b600060405180830381865afa158015610a55573d6000803e3d6000fd5b505050506040513d6000823e3d601f19601f82011682018060405250810190610a7e9190612789565b905060008060009054906101000a900473ffffffffffffffffffffffffffffffffffffffff1673ffffffffffffffffffffffffffffffffffffffff1663fb2bedad60008054906101000a900473ffffffffffffffffffffffffffffffffffffffff1673ffffffffffffffffffffffffffffffffffffffff1663b5e2832560008054906101000a900473ffffffffffffffffffffffffffffffffffffffff1673ffffffffffffffffffffffffffffffffffffffff1663fb2bedad8b60200151886040518363ffffffff1660e01b8152600401610b5a9291906126cd565b600060405180830381865afa158015610b77573d6000803e3d6000fd5b505050506040513d6000823e3d601f19601f82011682018060405250810190610ba09190612789565b876040518363ffffffff1660e01b8152600401610bbe9291906126cd565b600060405180830381865afa158015610bdb573d6000803e3d6000fd5b505050506040513d6000823e3d601f19601f82011682018060405250810190610c049190612789565b88604001516040518363ffffffff1660e01b8152600401610c269291906126cd565b600060405180830381865afa158015610c43573d6000803e3d6000fd5b505050506040513d6000823e3d601f19601f82011682018060405250810190610c6c9190612789565b9050610c788282610c84565b93505050505b92915050565b610c8c611c36565b604051806060016040528060006001811115610cab57610caa612094565b5b815260200184815260200183815250905092915050565b610cca611c36565b6040518060600160405280600180811115610ce857610ce7612094565b5b815260200160008054906101000a900473ffffffffffffffffffffffffffffffffffffffff1673ffffffffffffffffffffffffffffffffffffffff1663bc1b392d6040518163ffffffff1660e01b8152600401600060405180830381865afa158015610d58573d6000803e3d6000fd5b505050506040513d6000823e3d601f19601f82011682018060405250810190610d819190612789565b815260200160008054906101000a900473ffffffffffffffffffffffffffffffffffffffff1673ffffffffffffffffffffffffffffffffffffffff1663bc1b392d6040518163ffffffff1660e01b8152600401600060405180830381865afa158015610df1573d6000803e3d6000fd5b505050506040513d6000823e3d601f19601f82011682018060405250810190610e1a9190612789565b815250905090565b610e2a611c36565b60008054906101000a900473ffffffffffffffffffffffffffffffffffffffff1673ffffffffffffffffffffffffffffffffffffffff1663d4d45554836040015160008054906101000a900473ffffffffffffffffffffffffffffffffffffffff1673ffffffffffffffffffffffffffffffffffffffff1663bc1b392d6040518163ffffffff1660e01b8152600401600060405180830381865afa158015610ed6573d6000803e3d6000fd5b505050506040513d6000823e3d601f19601f82011682018060405250810190610eff9190612789565b6040518363ffffffff1660e01b8152600401610f1c9291906126cd565b602060405180830381865afa158015610f39573d6000803e3d6000fd5b505050506040513d601f19601f82011682018060405250810190610f5d9190612704565b15610f7157610f6a610cc2565b90506117b3565b60008060009054906101000a900473ffffffffffffffffffffffffffffffffffffffff1673ffffffffffffffffffffffffffffffffffffffff1663b5e2832560008054906101000a900473ffffffffffffffffffffffffffffffffffffffff1673ffffffffffffffffffffffffffffffffffffffff1663b5e2832560008054906101000a900473ffffffffffffffffffffffffffffffffffffffff1673ffffffffffffffffffffffffffffffffffffffff166345caa1176040518163ffffffff1660e01b8152600401600060405180830381865afa158015611057573d6000803e3d6000fd5b505050506040513d6000823e3d601f19601f820116820180604052508101906110809190612789565b60008054906101000a900473ffffffffffffffffffffffffffffffffffffffff1673ffffffffffffffffffffffffffffffffffffffff1663b5e2832589602001518a602001516040518363ffffffff1660e01b81526004016110e39291906126cd565b600060405180830381865afa158015611100573d6000803e3d6000fd5b505050506040513d6000823e3d601f19601f820116820180604052508101906111299190612789565b6040518363ffffffff1660e01b81526004016111469291906126cd565b600060405180830381865afa158015611163573d6000803e3d6000fd5b505050506040513d6000823e3d601f19601f8201168201806040525081019061118c9190612789565b60008054906101000a900473ffffffffffffffffffffffffffffffffffffffff1673ffffffffffffffffffffffffffffffffffffffff1663a672d10060008054906101000a900473ffffffffffffffffffffffffffffffffffffffff1673ffffffffffffffffffffffffffffffffffffffff1663b5e2832560008054906101000a900473ffffffffffffffffffffffffffffffffffffffff1673ffffffffffffffffffffffffffffffffffffffff16635fdf05d76040518163ffffffff1660e01b8152600401600060405180830381865afa15801561126f573d6000803e3d6000fd5b505050506040513d6000823e3d601f19601f820116820180604052508101906112989190612789565b8a604001516040518363ffffffff1660e01b81526004016112ba9291906126cd565b600060405180830381865afa1580156112d7573d6000803e3d6000fd5b505050506040513d6000823e3d601f19601f820116820180604052508101906113009190612789565b6040518263ffffffff1660e01b815260040161131c91906127d2565b600060405180830381865afa158015611339573d6000803e3d6000fd5b505050506040513d6000823e3d601f19601f820116820180604052508101906113629190612789565b6040518363ffffffff1660e01b815260040161137f9291906126cd565b600060405180830381865afa15801561139c573d6000803e3d6000fd5b505050506040513d6000823e3d601f19601f820116820180604052508101906113c59190612789565b905060008060009054906101000a900473ffffffffffffffffffffffffffffffffffffffff1673ffffffffffffffffffffffffffffffffffffffff1663fb2bedad60008054906101000a900473ffffffffffffffffffffffffffffffffffffffff1673ffffffffffffffffffffffffffffffffffffffff1663fb2bedad60008054906101000a900473ffffffffffffffffffffffffffffffffffffffff1673ffffffffffffffffffffffffffffffffffffffff1663b5e2832587886040518363ffffffff1660e01b815260040161149d9291906126cd565b600060405180830381865afa1580156114ba573d6000803e3d6000fd5b505050506040513d6000823e3d601f19601f820116820180604052508101906114e39190612789565b88602001516040518363ffffffff1660e01b81526004016115059291906126cd565b600060405180830381865afa158015611522573d6000803e3d6000fd5b505050506040513d6000823e3d601f19601f8201168201806040525081019061154b9190612789565b86602001516040518363ffffffff1660e01b815260040161156d9291906126cd565b600060405180830381865afa15801561158a573d6000803e3d6000fd5b505050506040513d6000823e3d601f19601f820116820180604052508101906115b39190612789565b905060008060009054906101000a900473ffffffffffffffffffffffffffffffffffffffff1673ffffffffffffffffffffffffffffffffffffffff1663fb2bedad60008054906101000a900473ffffffffffffffffffffffffffffffffffffffff1673ffffffffffffffffffffffffffffffffffffffff1663b5e2832560008054906101000a900473ffffffffffffffffffffffffffffffffffffffff1673ffffffffffffffffffffffffffffffffffffffff1663fb2bedad8a60200151886040518363ffffffff1660e01b815260040161168f9291906126cd565b600060405180830381865afa1580156116ac573d6000803e3d6000fd5b505050506040513d6000823e3d601f19601f820116820180604052508101906116d59190612789565b876040518363ffffffff1660e01b81526004016116f39291906126cd565b600060405180830381865afa158015611710573d6000803e3d6000fd5b505050506040513d6000823e3d601f19601f820116820180604052508101906117399190612789565b87604001516040518363ffffffff1660e01b815260040161175b9291906126cd565b600060405180830381865afa158015611778573d6000803e3d6000fd5b505050506040513d6000823e3d601f19601f820116820180604052508101906117a19190612789565b90506117ad8282610c84565b93505050505b919050565b6117c0611c36565b6001808111156117d3576117d2612094565b5b826000015160018111156117ea576117e9612094565b5b0361182a576040517f08c379a000000000000000000000000000000000000000000000000000000000815260040161182190612851565b60405180910390fd5b61196f826020015160008054906101000a900473ffffffffffffffffffffffffffffffffffffffff1673ffffffffffffffffffffffffffffffffffffffff1663fb2bedad60008054906101000a900473ffffffffffffffffffffffffffffffffffffffff1673ffffffffffffffffffffffffffffffffffffffff1663bc1b392d6040518163ffffffff1660e01b8152600401600060405180830381865afa1580156118d9573d6000803e3d6000fd5b505050506040513d6000823e3d601f19601f820116820180604052508101906119029190612789565b86604001516040518363ffffffff1660e01b81526004016119249291906126cd565b600060405180830381865afa158015611941573d6000803e3d6000fd5b505050506040513d6000823e3d601f19601f8201168201806040525081019061196a9190612789565b610c84565b9050919050565b61197e611c36565b600073__$7db5d2dbc3ae63372df6c39d501ad0f72a$__63bc39804e8673__$7db5d2dbc3ae63372df6c39d501ad0f72a$__63bc1b392d6040518163ffffffff1660e01b8152600401600060405180830381865af41580156119e4573d6000803e3d6000fd5b505050506040513d6000823e3d601f19601f82011682018060405250810190611a0d919061256b565b60006040518463ffffffff1660e01b8152600401611a2d93929190612871565b602060405180830381865af4158015611a4a573d6000803e3d6000fd5b505050506040513d601f19601f82011682018060405250810190611a6e91906128ec565b03611a7b57819050611c2f565b73__$7db5d2dbc3ae63372df6c39d501ad0f72a$__63ee4a4e4e856040518263ffffffff1660e01b8152600401611ab29190612919565b602060405180830381865af4158015611acf573d6000803e3d6000fd5b505050506040513d601f19601f82011682018060405250810190611af39190612704565b15611b9a57611b9373__$7db5d2dbc3ae63372df6c39d501ad0f72a$__636efac6c78660016040518363ffffffff1660e01b8152600401611b3592919061293b565b600060405180830381865af4158015611b52573d6000803e3d6000fd5b505050506040513d6000823e3d601f19601f82011682018060405250810190611b7b919061256b565b611b8485610e22565b611b8e85876102be565b611976565b9050611c2f565b611c2c73__$7db5d2dbc3ae63372df6c39d501ad0f72a$__636efac6c78660016040518363ffffffff1660e01b8152600401611bd792919061293b565b600060405180830381865af4158015611bf4573d6000803e3d6000fd5b505050506040513d6000823e3d601f19601f82011682018060405250810190611c1d919061256b565b611c2685610e22565b84611976565b90505b9392505050565b604051806060016040528060006001811115611c5557611c54612094565b5b8152602001611c62611c75565b8152602001611c6f611c75565b81525090565b6040518060200160405280611c88611c8e565b81525090565b604051806060016040528060608152602001600015158152602001600081525090565b6000604051905090565b600080fd5b600080fd5b600080fd5b6000601f19601f8301169050919050565b7f4e487b7100000000000000000000000000000000000000000000000000000000600052604160045260246000fd5b611d1382611cca565b810181811067ffffffffffffffff82111715611d3257611d31611cdb565b5b80604052505050565b6000611d45611cb1565b9050611d518282611d0a565b919050565b600080fd5b600080fd5b600080fd5b600067ffffffffffffffff821115611d8057611d7f611cdb565b5b611d8982611cca565b9050602081019050919050565b82818337600083830152505050565b6000611db8611db384611d65565b611d3b565b905082815260208101848484011115611dd457611dd3611d60565b5b611ddf848285611d96565b509392505050565b600082601f830112611dfc57611dfb611d5b565b5b8135611e0c848260208601611da5565b91505092915050565b60008115159050919050565b611e2a81611e15565b8114611e3557600080fd5b50565b600081359050611e4781611e21565b92915050565b6000819050919050565b611e6081611e4d565b8114611e6b57600080fd5b50565b600081359050611e7d81611e57565b92915050565b600060608284031215611e9957611e98611cc5565b5b611ea36060611d3b565b9050600082013567ffffffffffffffff811115611ec357611ec2611d56565b5b611ecf84828501611de7565b6000830152506020611ee384828501611e38565b6020830152506040611ef784828501611e6e565b60408301525092915050565b60028110611f1057600080fd5b50565b600081359050611f2281611f03565b92915050565b600060208284031215611f3e57611f3d611cc5565b5b611f486020611d3b565b9050600082013567ffffffffffffffff811115611f6857611f67611d56565b5b611f7484828501611e83565b60008301525092915050565b600060608284031215611f9657611f95611cc5565b5b611fa06060611d3b565b90506000611fb084828501611f13565b600083015250602082013567ffffffffffffffff811115611fd457611fd3611d56565b5b611fe084828501611f28565b602083015250604082013567ffffffffffffffff81111561200457612003611d56565b5b61201084828501611f28565b60408301525092915050565b6000806040838503121561203357612032611cbb565b5b600083013567ffffffffffffffff81111561205157612050611cc0565b5b61205d85828601611e83565b925050602083013567ffffffffffffffff81111561207e5761207d611cc0565b5b61208a85828601611f80565b9150509250929050565b7f4e487b7100000000000000000000000000000000000000000000000000000000600052602160045260246000fd5b600281106120d4576120d3612094565b5b50565b60008190506120e5826120c3565b919050565b60006120f5826120d7565b9050919050565b612105816120ea565b82525050565b600081519050919050565b600082825260208201905092915050565b60005b8381101561214557808201518184015260208101905061212a565b60008484015250505050565b600061215c8261210b565b6121668185612116565b9350612176818560208601612127565b61217f81611cca565b840191505092915050565b61219381611e15565b82525050565b6121a281611e4d565b82525050565b600060608301600083015184820360008601526121c58282612151565b91505060208301516121da602086018261218a565b5060408301516121ed6040860182612199565b508091505092915050565b6000602083016000830151848203600086015261221582826121a8565b9150508091505092915050565b600060608301600083015161223a60008601826120fc565b506020830151848203602086015261225282826121f8565b9150506040830151848203604086015261226c82826121f8565b9150508091505092915050565b600060208201905081810360008301526122938184612222565b905092915050565b600080604083850312156122b2576122b1611cbb565b5b600083013567ffffffffffffffff8111156122d0576122cf611cc0565b5b6122dc85828601611f80565b925050602083013567ffffffffffffffff8111156122fd576122fc611cc0565b5b61230985828601611f80565b9150509250929050565b6000806040838503121561232a57612329611cbb565b5b600083013567ffffffffffffffff81111561234857612347611cc0565b5b61235485828601611f28565b925050602083013567ffffffffffffffff81111561237557612374611cc0565b5b61238185828601611f28565b9150509250929050565b6000602082840312156123a1576123a0611cbb565b5b600082013567ffffffffffffffff8111156123bf576123be611cc0565b5b6123cb84828501611f80565b91505092915050565b6000819050919050565b6000819050919050565b60006124036123fe6123f9846123d4565b6123de565b611e4d565b9050919050565b612413816123e8565b82525050565b61242281611e15565b82525050565b600060408201905061243d600083018561240a565b61244a6020830184612419565b9392505050565b600061246461245f84611d65565b611d3b565b9050828152602081018484840111156124805761247f611d60565b5b61248b848285612127565b509392505050565b600082601f8301126124a8576124a7611d5b565b5b81516124b8848260208601612451565b91505092915050565b6000815190506124d081611e21565b92915050565b6000815190506124e581611e57565b92915050565b60006060828403121561250157612500611cc5565b5b61250b6060611d3b565b9050600082015167ffffffffffffffff81111561252b5761252a611d56565b5b61253784828501612493565b600083015250602061254b848285016124c1565b602083015250604061255f848285016124d6565b60408301525092915050565b60006020828403121561258157612580611cbb565b5b600082015167ffffffffffffffff81111561259f5761259e611cc0565b5b6125ab848285016124eb565b91505092915050565b600082825260208201905092915050565b60006125d08261210b565b6125da81856125b4565b93506125ea818560208601612127565b6125f381611cca565b840191505092915050565b61260781611e15565b82525050565b61261681611e4d565b82525050565b6000606083016000830151848203600086015261263982826125c5565b915050602083015161264e60208601826125fe565b506040830151612661604086018261260d565b508091505092915050565b60006040820190508181036000830152612686818561261c565b9050818103602083015261269a818461261c565b90509392505050565b600060208301600083015184820360008601526126c082826121a8565b9150508091505092915050565b600060408201905081810360008301526126e781856126a3565b905081810360208301526126fb81846126a3565b90509392505050565b60006020828403121561271a57612719611cbb565b5b6000612728848285016124c1565b91505092915050565b60006020828403121561274757612746611cc5565b5b6127516020611d3b565b9050600082015167ffffffffffffffff81111561277157612770611d56565b5b61277d848285016124eb565b60008301525092915050565b60006020828403121561279f5761279e611cbb565b5b600082015167ffffffffffffffff8111156127bd576127bc611cc0565b5b6127c984828501612731565b91505092915050565b600060208201905081810360008301526127ec81846126a3565b905092915050565b600082825260208201905092915050565b7f63616e6e6f74206e656761746520706f696e7420617420696e66696e69747900600082015250565b600061283b601f836127f4565b915061284682612805565b602082019050919050565b6000602082019050818103600083015261286a8161282e565b9050919050565b6000606082019050818103600083015261288b818661261c565b9050818103602083015261289f818561261c565b90506128ae6040830184612419565b949350505050565b6000819050919050565b6128c9816128b6565b81146128d457600080fd5b50565b6000815190506128e6816128c0565b92915050565b60006020828403121561290257612901611cbb565b5b6000612910848285016128d7565b91505092915050565b60006020820190508181036000830152612933818461261c565b905092915050565b60006040820190508181036000830152612955818561261c565b9050612964602083018461240a565b939250505056fea264697066735822122052ba687e1e25aedaa192f3b98a7f22be41568734c11a49f4dc6f3b62bb37c53964736f6c634300081b0033608060405234801561001057600080fd5b50604051612e6d380380612e6d833981810160405281019061003291906100ed565b806000806101000a81548173ffffffffffffffffffffffffffffffffffffffff021916908373ffffffffffffffffffffffffffffffffffffffff1602179055505061011a565b600080fd5b600073ffffffffffffffffffffffffffffffffffffffff82169050919050565b60006100a88261007d565b9050919050565b60006100ba8261009d565b9050919050565b6100ca816100af565b81146100d557600080fd5b50565b6000815190506100e7816100c1565b92915050565b60006020828403121561010357610102610078565b5b6000610111848285016100d8565b91505092915050565b612d44806101296000396000f3fe608060405234801561001057600080fd5b50600436106100575760003560e01c80632106685b1461005c57806324dca0c71461008c57806355e359c8146100bc5780639ee46fb3146100ec578063bedacbae1461011c575b600080fd5b610076600480360381019061007191906122c6565b61014c565b6040516100839190612538565b60405180910390f35b6100a660048036038101906100a1919061255a565b61030c565b6040516100b39190612538565b60405180910390f35b6100d660048036038101906100d191906125d2565b610dfe565b6040516100e39190612538565b60405180910390f35b610106600480360381019061010191906122c6565b611072565b6040516101139190612538565b60405180910390f35b6101366004803603810190610131919061264a565b611b34565b6040516101439190612538565b60405180910390f35b610154611e32565b6001808111156101675761016661230f565b5b8260000151600181111561017e5761017d61230f565b5b036101be576040517f08c379a00000000000000000000000000000000000000000000000000000000081526004016101b590612732565b60405180910390fd5b6103056000836020015160008054906101000a900473ffffffffffffffffffffffffffffffffffffffff1673ffffffffffffffffffffffffffffffffffffffff16635f6910d460008054906101000a900473ffffffffffffffffffffffffffffffffffffffff1673ffffffffffffffffffffffffffffffffffffffff1663bc1b392d6040518163ffffffff1660e01b8152600401600060405180830381865afa15801561026f573d6000803e3d6000fd5b505050506040513d6000823e3d601f19601f82011682018060405250810190610298919061294c565b87604001516040518363ffffffff1660e01b81526004016102ba9291906129d9565b600060405180830381865afa1580156102d7573d6000803e3d6000fd5b505050506040513d6000823e3d601f19601f82011682018060405250810190610300919061294c565b611b34565b9050919050565b610314611e32565b6001808111156103275761032661230f565b5b8360000151600181111561033e5761033d61230f565b5b0361034b57819050610df8565b60018081111561035e5761035d61230f565b5b826000015160018111156103755761037461230f565b5b0361038257829050610df8565b60008054906101000a900473ffffffffffffffffffffffffffffffffffffffff1673ffffffffffffffffffffffffffffffffffffffff1663ab80cf76846020015184602001516040518363ffffffff1660e01b81526004016103e59291906129d9565b602060405180830381865afa158015610402573d6000803e3d6000fd5b505050506040513d601f19601f820116820180604052508101906104269190612a10565b80156104d2575060008054906101000a900473ffffffffffffffffffffffffffffffffffffffff1673ffffffffffffffffffffffffffffffffffffffff1663ab80cf76846040015184604001516040518363ffffffff1660e01b81526004016104909291906129d9565b602060405180830381865afa1580156104ad573d6000803e3d6000fd5b505050506040513d601f19601f820116820180604052508101906104d19190612a10565b5b156104e7576104e083611072565b9050610df8565b60008054906101000a900473ffffffffffffffffffffffffffffffffffffffff1673ffffffffffffffffffffffffffffffffffffffff1663ab80cf76846020015184602001516040518363ffffffff1660e01b815260040161054a9291906129d9565b602060405180830381865afa158015610567573d6000803e3d6000fd5b505050506040513d601f19601f8201168201806040525081019061058b9190612a10565b8015610638575060008054906101000a900473ffffffffffffffffffffffffffffffffffffffff1673ffffffffffffffffffffffffffffffffffffffff1663ab80cf76846040015184604001516040518363ffffffff1660e01b81526004016105f59291906129d9565b602060405180830381865afa158015610612573d6000803e3d6000fd5b505050506040513d601f19601f820116820180604052508101906106369190612a10565b155b156107765761076f600160008054906101000a900473ffffffffffffffffffffffffffffffffffffffff1673ffffffffffffffffffffffffffffffffffffffff1663bc1b392d6040518163ffffffff1660e01b8152600401600060405180830381865afa1580156106ad573d6000803e3d6000fd5b505050506040513d6000823e3d601f19601f820116820180604052508101906106d6919061294c565b60008054906101000a900473ffffffffffffffffffffffffffffffffffffffff1673ffffffffffffffffffffffffffffffffffffffff1663bc1b392d6040518163ffffffff1660e01b8152600401600060405180830381865afa158015610741573d6000803e3d6000fd5b505050506040513d6000823e3d601f19601f8201168201806040525081019061076a919061294c565b611b34565b9050610df8565b60008060009054906101000a900473ffffffffffffffffffffffffffffffffffffffff1673ffffffffffffffffffffffffffffffffffffffff166307a5ecaa60008054906101000a900473ffffffffffffffffffffffffffffffffffffffff1673ffffffffffffffffffffffffffffffffffffffff16635f6910d4866040015188604001516040518363ffffffff1660e01b81526004016108189291906129d9565b600060405180830381865afa158015610835573d6000803e3d6000fd5b505050506040513d6000823e3d601f19601f8201168201806040525081019061085e919061294c565b60008054906101000a900473ffffffffffffffffffffffffffffffffffffffff1673ffffffffffffffffffffffffffffffffffffffff166364c044fe60008054906101000a900473ffffffffffffffffffffffffffffffffffffffff1673ffffffffffffffffffffffffffffffffffffffff16635f6910d489602001518b602001516040518363ffffffff1660e01b81526004016108fd9291906129d9565b600060405180830381865afa15801561091a573d6000803e3d6000fd5b505050506040513d6000823e3d601f19601f82011682018060405250810190610943919061294c565b6040518263ffffffff1660e01b815260040161095f9190612a3d565b600060405180830381865afa15801561097c573d6000803e3d6000fd5b505050506040513d6000823e3d601f19601f820116820180604052508101906109a5919061294c565b6040518363ffffffff1660e01b81526004016109c29291906129d9565b600060405180830381865afa1580156109df573d6000803e3d6000fd5b505050506040513d6000823e3d601f19601f82011682018060405250810190610a08919061294c565b905060008060009054906101000a900473ffffffffffffffffffffffffffffffffffffffff1673ffffffffffffffffffffffffffffffffffffffff16635f6910d460008054906101000a900473ffffffffffffffffffffffffffffffffffffffff1673ffffffffffffffffffffffffffffffffffffffff16635f6910d460008054906101000a900473ffffffffffffffffffffffffffffffffffffffff1673ffffffffffffffffffffffffffffffffffffffff166307a5ecaa87886040518363ffffffff1660e01b8152600401610ae09291906129d9565b600060405180830381865afa158015610afd573d6000803e3d6000fd5b505050506040513d6000823e3d601f19601f82011682018060405250810190610b26919061294c565b89602001516040518363ffffffff1660e01b8152600401610b489291906129d9565b600060405180830381865afa158015610b65573d6000803e3d6000fd5b505050506040513d6000823e3d601f19601f82011682018060405250810190610b8e919061294c565b86602001516040518363ffffffff1660e01b8152600401610bb09291906129d9565b600060405180830381865afa158015610bcd573d6000803e3d6000fd5b505050506040513d6000823e3d601f19601f82011682018060405250810190610bf6919061294c565b905060008060009054906101000a900473ffffffffffffffffffffffffffffffffffffffff1673ffffffffffffffffffffffffffffffffffffffff16635f6910d460008054906101000a900473ffffffffffffffffffffffffffffffffffffffff1673ffffffffffffffffffffffffffffffffffffffff166307a5ecaa60008054906101000a900473ffffffffffffffffffffffffffffffffffffffff1673ffffffffffffffffffffffffffffffffffffffff16635f6910d48b60200151886040518363ffffffff1660e01b8152600401610cd29291906129d9565b600060405180830381865afa158015610cef573d6000803e3d6000fd5b505050506040513d6000823e3d601f19601f82011682018060405250810190610d18919061294c565b876040518363ffffffff1660e01b8152600401610d369291906129d9565b600060405180830381865afa158015610d53573d6000803e3d6000fd5b505050506040513d6000823e3d601f19601f82011682018060405250810190610d7c919061294c565b88604001516040518363ffffffff1660e01b8152600401610d9e9291906129d9565b600060405180830381865afa158015610dbb573d6000803e3d6000fd5b505050506040513d6000823e3d601f19601f82011682018060405250810190610de4919061294c565b9050610df260008383611b34565b93505050505b92915050565b610e06611e32565b6000610f3a600160008054906101000a900473ffffffffffffffffffffffffffffffffffffffff1673ffffffffffffffffffffffffffffffffffffffff1663bc1b392d6040518163ffffffff1660e01b8152600401600060405180830381865afa158015610e78573d6000803e3d6000fd5b505050506040513d6000823e3d601f19601f82011682018060405250810190610ea1919061294c565b60008054906101000a900473ffffffffffffffffffffffffffffffffffffffff1673ffffffffffffffffffffffffffffffffffffffff1663bc1b392d6040518163ffffffff1660e01b8152600401600060405180830381865afa158015610f0c573d6000803e3d6000fd5b505050506040513d6000823e3d601f19601f82011682018060405250810190610f35919061294c565b611b34565b90508360200151610f5857610f50848483611b72565b91505061106c565b61106873__$7db5d2dbc3ae63372df6c39d501ad0f72a$__63b1d74ee98673__$7db5d2dbc3ae63372df6c39d501ad0f72a$__6340957f726001806040518363ffffffff1660e01b8152600401610fb0929190612ab3565b600060405180830381865af4158015610fcd573d6000803e3d6000fd5b505050506040513d6000823e3d601f19601f82011682018060405250810190610ff69190612adc565b6040518363ffffffff1660e01b8152600401611013929190612bdd565b600060405180830381865af4158015611030573d6000803e3d6000fd5b505050506040513d6000823e3d601f19601f820116820180604052508101906110599190612adc565b6110628561014c565b83611b72565b9150505b92915050565b61107a611e32565b60008054906101000a900473ffffffffffffffffffffffffffffffffffffffff1673ffffffffffffffffffffffffffffffffffffffff1663ab80cf76836040015160008054906101000a900473ffffffffffffffffffffffffffffffffffffffff1673ffffffffffffffffffffffffffffffffffffffff1663bc1b392d6040518163ffffffff1660e01b8152600401600060405180830381865afa158015611126573d6000803e3d6000fd5b505050506040513d6000823e3d601f19601f8201168201806040525081019061114f919061294c565b6040518363ffffffff1660e01b815260040161116c9291906129d9565b602060405180830381865afa158015611189573d6000803e3d6000fd5b505050506040513d601f19601f820116820180604052508101906111ad9190612a10565b156112eb576112e4600160008054906101000a900473ffffffffffffffffffffffffffffffffffffffff1673ffffffffffffffffffffffffffffffffffffffff1663bc1b392d6040518163ffffffff1660e01b8152600401600060405180830381865afa158015611222573d6000803e3d6000fd5b505050506040513d6000823e3d601f19601f8201168201806040525081019061124b919061294c565b60008054906101000a900473ffffffffffffffffffffffffffffffffffffffff1673ffffffffffffffffffffffffffffffffffffffff1663bc1b392d6040518163ffffffff1660e01b8152600401600060405180830381865afa1580156112b6573d6000803e3d6000fd5b505050506040513d6000823e3d601f19601f820116820180604052508101906112df919061294c565b611b34565b9050611b2f565b60008060009054906101000a900473ffffffffffffffffffffffffffffffffffffffff1673ffffffffffffffffffffffffffffffffffffffff166307a5ecaa60008054906101000a900473ffffffffffffffffffffffffffffffffffffffff1673ffffffffffffffffffffffffffffffffffffffff166307a5ecaa60008054906101000a900473ffffffffffffffffffffffffffffffffffffffff1673ffffffffffffffffffffffffffffffffffffffff166345caa1176040518163ffffffff1660e01b8152600401600060405180830381865afa1580156113d1573d6000803e3d6000fd5b505050506040513d6000823e3d601f19601f820116820180604052508101906113fa919061294c565b60008054906101000a900473ffffffffffffffffffffffffffffffffffffffff1673ffffffffffffffffffffffffffffffffffffffff166307a5ecaa89602001518a602001516040518363ffffffff1660e01b815260040161145d9291906129d9565b600060405180830381865afa15801561147a573d6000803e3d6000fd5b505050506040513d6000823e3d601f19601f820116820180604052508101906114a3919061294c565b6040518363ffffffff1660e01b81526004016114c09291906129d9565b600060405180830381865afa1580156114dd573d6000803e3d6000fd5b505050506040513d6000823e3d601f19601f82011682018060405250810190611506919061294c565b60008054906101000a900473ffffffffffffffffffffffffffffffffffffffff1673ffffffffffffffffffffffffffffffffffffffff166364c044fe60008054906101000a900473ffffffffffffffffffffffffffffffffffffffff1673ffffffffffffffffffffffffffffffffffffffff166307a5ecaa60008054906101000a900473ffffffffffffffffffffffffffffffffffffffff1673ffffffffffffffffffffffffffffffffffffffff16635fdf05d76040518163ffffffff1660e01b8152600401600060405180830381865afa1580156115e9573d6000803e3d6000fd5b505050506040513d6000823e3d601f19601f82011682018060405250810190611612919061294c565b8a604001516040518363ffffffff1660e01b81526004016116349291906129d9565b600060405180830381865afa158015611651573d6000803e3d6000fd5b505050506040513d6000823e3d601f19601f8201168201806040525081019061167a919061294c565b6040518263ffffffff1660e01b81526004016116969190612a3d565b600060405180830381865afa1580156116b3573d6000803e3d6000fd5b505050506040513d6000823e3d601f19601f820116820180604052508101906116dc919061294c565b6040518363ffffffff1660e01b81526004016116f99291906129d9565b600060405180830381865afa158015611716573d6000803e3d6000fd5b505050506040513d6000823e3d601f19601f8201168201806040525081019061173f919061294c565b905060008060009054906101000a900473ffffffffffffffffffffffffffffffffffffffff1673ffffffffffffffffffffffffffffffffffffffff16635f6910d460008054906101000a900473ffffffffffffffffffffffffffffffffffffffff1673ffffffffffffffffffffffffffffffffffffffff16635f6910d460008054906101000a900473ffffffffffffffffffffffffffffffffffffffff1673ffffffffffffffffffffffffffffffffffffffff166307a5ecaa87886040518363ffffffff1660e01b81526004016118179291906129d9565b600060405180830381865afa158015611834573d6000803e3d6000fd5b505050506040513d6000823e3d601f19601f8201168201806040525081019061185d919061294c565b88602001516040518363ffffffff1660e01b815260040161187f9291906129d9565b600060405180830381865afa15801561189c573d6000803e3d6000fd5b505050506040513d6000823e3d601f19601f820116820180604052508101906118c5919061294c565b86602001516040518363ffffffff1660e01b81526004016118e79291906129d9565b600060405180830381865afa158015611904573d6000803e3d6000fd5b505050506040513d6000823e3d601f19601f8201168201806040525081019061192d919061294c565b905060008060009054906101000a900473ffffffffffffffffffffffffffffffffffffffff1673ffffffffffffffffffffffffffffffffffffffff16635f6910d460008054906101000a900473ffffffffffffffffffffffffffffffffffffffff1673ffffffffffffffffffffffffffffffffffffffff166307a5ecaa60008054906101000a900473ffffffffffffffffffffffffffffffffffffffff1673ffffffffffffffffffffffffffffffffffffffff16635f6910d48a60200151886040518363ffffffff1660e01b8152600401611a099291906129d9565b600060405180830381865afa158015611a26573d6000803e3d6000fd5b505050506040513d6000823e3d601f19601f82011682018060405250810190611a4f919061294c565b876040518363ffffffff1660e01b8152600401611a6d9291906129d9565b600060405180830381865afa158015611a8a573d6000803e3d6000fd5b505050506040513d6000823e3d601f19601f82011682018060405250810190611ab3919061294c565b87604001516040518363ffffffff1660e01b8152600401611ad59291906129d9565b600060405180830381865afa158015611af2573d6000803e3d6000fd5b505050506040513d6000823e3d601f19601f82011682018060405250810190611b1b919061294c565b9050611b2960008383611b34565b93505050505b919050565b611b3c611e32565b6040518060600160405280856001811115611b5a57611b5961230f565b5b81526020018481526020018381525090509392505050565b611b7a611e32565b600073__$7db5d2dbc3ae63372df6c39d501ad0f72a$__63bc39804e8673__$7db5d2dbc3ae63372df6c39d501ad0f72a$__63bc1b392d6040518163ffffffff1660e01b8152600401600060405180830381865af4158015611be0573d6000803e3d6000fd5b505050506040513d6000823e3d601f19601f82011682018060405250810190611c099190612adc565b60006040518463ffffffff1660e01b8152600401611c2993929190612c14565b602060405180830381865af4158015611c46573d6000803e3d6000fd5b505050506040513d601f19601f82011682018060405250810190611c6a9190612c8f565b03611c7757819050611e2b565b73__$7db5d2dbc3ae63372df6c39d501ad0f72a$__63ee4a4e4e856040518263ffffffff1660e01b8152600401611cae9190612cbc565b602060405180830381865af4158015611ccb573d6000803e3d6000fd5b505050506040513d601f19601f82011682018060405250810190611cef9190612a10565b15611d9657611d8f73__$7db5d2dbc3ae63372df6c39d501ad0f72a$__636efac6c78660016040518363ffffffff1660e01b8152600401611d31929190612cde565b600060405180830381865af4158015611d4e573d6000803e3d6000fd5b505050506040513d6000823e3d601f19601f82011682018060405250810190611d779190612adc565b611d8085611072565b611d8a858761030c565b611b72565b9050611e2b565b611e2873__$7db5d2dbc3ae63372df6c39d501ad0f72a$__636efac6c78660016040518363ffffffff1660e01b8152600401611dd3929190612cde565b600060405180830381865af4158015611df0573d6000803e3d6000fd5b505050506040513d6000823e3d601f19601f82011682018060405250810190611e199190612adc565b611e2285611072565b84611b72565b90505b9392505050565b604051806060016040528060006001811115611e5157611e5061230f565b5b8152602001611e5e611e71565b8152602001611e6b611e71565b81525090565b6040518060400160405280611e84611e97565b8152602001611e91611e97565b81525090565b6040518060200160405280611eaa611eb0565b81525090565b604051806060016040528060608152602001600015158152602001600081525090565b6000604051905090565b600080fd5b600080fd5b600080fd5b6000601f19601f8301169050919050565b7f4e487b7100000000000000000000000000000000000000000000000000000000600052604160045260246000fd5b611f3582611eec565b810181811067ffffffffffffffff82111715611f5457611f53611efd565b5b80604052505050565b6000611f67611ed3565b9050611f738282611f2c565b919050565b600080fd5b60028110611f8a57600080fd5b50565b600081359050611f9c81611f7d565b92915050565b600080fd5b600080fd5b600067ffffffffffffffff821115611fc757611fc6611efd565b5b611fd082611eec565b9050602081019050919050565b82818337600083830152505050565b6000611fff611ffa84611fac565b611f5d565b90508281526020810184848401111561201b5761201a611fa7565b5b612026848285611fdd565b509392505050565b600082601f83011261204357612042611fa2565b5b8135612053848260208601611fec565b91505092915050565b60008115159050919050565b6120718161205c565b811461207c57600080fd5b50565b60008135905061208e81612068565b92915050565b6000819050919050565b6120a781612094565b81146120b257600080fd5b50565b6000813590506120c48161209e565b92915050565b6000606082840312156120e0576120df611ee7565b5b6120ea6060611f5d565b9050600082013567ffffffffffffffff81111561210a57612109611f78565b5b6121168482850161202e565b600083015250602061212a8482850161207f565b602083015250604061213e848285016120b5565b60408301525092915050565b6000602082840312156121605761215f611ee7565b5b61216a6020611f5d565b9050600082013567ffffffffffffffff81111561218a57612189611f78565b5b612196848285016120ca565b60008301525092915050565b6000604082840312156121b8576121b7611ee7565b5b6121c26040611f5d565b9050600082013567ffffffffffffffff8111156121e2576121e1611f78565b5b6121ee8482850161214a565b600083015250602082013567ffffffffffffffff81111561221257612211611f78565b5b61221e8482850161214a565b60208301525092915050565b6000606082840312156122405761223f611ee7565b5b61224a6060611f5d565b9050600061225a84828501611f8d565b600083015250602082013567ffffffffffffffff81111561227e5761227d611f78565b5b61228a848285016121a2565b602083015250604082013567ffffffffffffffff8111156122ae576122ad611f78565b5b6122ba848285016121a2565b60408301525092915050565b6000602082840312156122dc576122db611edd565b5b600082013567ffffffffffffffff8111156122fa576122f9611ee2565b5b6123068482850161222a565b91505092915050565b7f4e487b7100000000000000000000000000000000000000000000000000000000600052602160045260246000fd5b6002811061234f5761234e61230f565b5b50565b60008190506123608261233e565b919050565b600061237082612352565b9050919050565b61238081612365565b82525050565b600081519050919050565b600082825260208201905092915050565b60005b838110156123c05780820151818401526020810190506123a5565b60008484015250505050565b60006123d782612386565b6123e18185612391565b93506123f18185602086016123a2565b6123fa81611eec565b840191505092915050565b61240e8161205c565b82525050565b61241d81612094565b82525050565b6000606083016000830151848203600086015261244082826123cc565b91505060208301516124556020860182612405565b5060408301516124686040860182612414565b508091505092915050565b600060208301600083015184820360008601526124908282612423565b9150508091505092915050565b600060408301600083015184820360008601526124ba8282612473565b915050602083015184820360208601526124d48282612473565b9150508091505092915050565b60006060830160008301516124f96000860182612377565b5060208301518482036020860152612511828261249d565b9150506040830151848203604086015261252b828261249d565b9150508091505092915050565b6000602082019050818103600083015261255281846124e1565b905092915050565b6000806040838503121561257157612570611edd565b5b600083013567ffffffffffffffff81111561258f5761258e611ee2565b5b61259b8582860161222a565b925050602083013567ffffffffffffffff8111156125bc576125bb611ee2565b5b6125c88582860161222a565b9150509250929050565b600080604083850312156125e9576125e8611edd565b5b600083013567ffffffffffffffff81111561260757612606611ee2565b5b612613858286016120ca565b925050602083013567ffffffffffffffff81111561263457612633611ee2565b5b6126408582860161222a565b9150509250929050565b60008060006060848603121561266357612662611edd565b5b600061267186828701611f8d565b935050602084013567ffffffffffffffff81111561269257612691611ee2565b5b61269e868287016121a2565b925050604084013567ffffffffffffffff8111156126bf576126be611ee2565b5b6126cb868287016121a2565b9150509250925092565b600082825260208201905092915050565b7f63616e6e6f74206e656761746520706f696e7420617420696e66696e69747900600082015250565b600061271c601f836126d5565b9150612727826126e6565b602082019050919050565b6000602082019050818103600083015261274b8161270f565b9050919050565b600061276561276084611fac565b611f5d565b90508281526020810184848401111561278157612780611fa7565b5b61278c8482856123a2565b509392505050565b600082601f8301126127a9576127a8611fa2565b5b81516127b9848260208601612752565b91505092915050565b6000815190506127d181612068565b92915050565b6000815190506127e68161209e565b92915050565b60006060828403121561280257612801611ee7565b5b61280c6060611f5d565b9050600082015167ffffffffffffffff81111561282c5761282b611f78565b5b61283884828501612794565b600083015250602061284c848285016127c2565b6020830152506040612860848285016127d7565b60408301525092915050565b60006020828403121561288257612881611ee7565b5b61288c6020611f5d565b9050600082015167ffffffffffffffff8111156128ac576128ab611f78565b5b6128b8848285016127ec565b60008301525092915050565b6000604082840312156128da576128d9611ee7565b5b6128e46040611f5d565b9050600082015167ffffffffffffffff81111561290457612903611f78565b5b6129108482850161286c565b600083015250602082015167ffffffffffffffff81111561293457612933611f78565b5b6129408482850161286c565b60208301525092915050565b60006020828403121561296257612961611edd565b5b600082015167ffffffffffffffff8111156129805761297f611ee2565b5b61298c848285016128c4565b91505092915050565b600060408301600083015184820360008601526129b28282612473565b915050602083015184820360208601526129cc8282612473565b9150508091505092915050565b600060408201905081810360008301526129f38185612995565b90508181036020830152612a078184612995565b90509392505050565b600060208284031215612a2657612a25611edd565b5b6000612a34848285016127c2565b91505092915050565b60006020820190508181036000830152612a578184612995565b905092915050565b6000819050919050565b6000819050919050565b6000612a8e612a89612a8484612a5f565b612a69565b612094565b9050919050565b612a9e81612a73565b82525050565b612aad8161205c565b82525050565b6000604082019050612ac86000830185612a95565b612ad56020830184612aa4565b9392505050565b600060208284031215612af257612af1611edd565b5b600082015167ffffffffffffffff811115612b1057612b0f611ee2565b5b612b1c848285016127ec565b91505092915050565b600082825260208201905092915050565b6000612b4182612386565b612b4b8185612b25565b9350612b5b8185602086016123a2565b612b6481611eec565b840191505092915050565b612b788161205c565b82525050565b612b8781612094565b82525050565b60006060830160008301518482036000860152612baa8282612b36565b9150506020830151612bbf6020860182612b6f565b506040830151612bd26040860182612b7e565b508091505092915050565b60006040820190508181036000830152612bf78185612b8d565b90508181036020830152612c0b8184612b8d565b90509392505050565b60006060820190508181036000830152612c2e8186612b8d565b90508181036020830152612c428185612b8d565b9050612c516040830184612aa4565b949350505050565b6000819050919050565b612c6c81612c59565b8114612c7757600080fd5b50565b600081519050612c8981612c63565b92915050565b600060208284031215612ca557612ca4611edd565b5b6000612cb384828501612c7a565b91505092915050565b60006020820190508181036000830152612cd68184612b8d565b905092915050565b60006040820190508181036000830152612cf88185612b8d565b9050612d076020830184612a95565b939250505056fea26469706673582212203fc450f3415a468d1f0a8c3eb30346480b90205ca1adea6cf9f059f7757a014b64736f6c634300081b0033608060405234801561001057600080fd5b506040516131e83803806131e8833981810160405281019061003291906100ed565b806000806101000a81548173ffffffffffffffffffffffffffffffffffffffff021916908373ffffffffffffffffffffffffffffffffffffffff1602179055505061011a565b600080fd5b600073ffffffffffffffffffffffffffffffffffffffff82169050919050565b60006100a88261007d565b9050919050565b60006100ba8261009d565b9050919050565b6100ca816100af565b81146100d557600080fd5b50565b6000815190506100e7816100c1565b92915050565b60006020828403121561010357610102610078565b5b6000610111848285016100d8565b91505092915050565b6130bf806101296000396000f3fe608060405234801561001057600080fd5b50600436106100575760003560e01c80631d763e261461005c5780634156f5141461008c5780635bd69fb6146100bc578063adbe3ee3146100ec578063dec70b291461011c575b600080fd5b610076600480360381019061007191906123c3565b61014c565b6040516100839190612719565b60405180910390f35b6100a660048036038101906100a191906127d7565b61018a565b6040516100b39190612719565b60405180910390f35b6100d660048036038101906100d1919061284f565b610c7c565b6040516100e39190612719565b60405180910390f35b610106600480360381019061010191906128c7565b610ef0565b6040516101139190612719565b60405180910390f35b610136600480360381019061013191906128c7565b6119b2565b6040516101439190612719565b60405180910390f35b610154611e32565b60405180606001604052808560018111156101725761017161244e565b5b81526020018481526020018381525090509392505050565b610192611e32565b6001808111156101a5576101a461244e565b5b836000015160018111156101bc576101bb61244e565b5b036101c957819050610c76565b6001808111156101dc576101db61244e565b5b826000015160018111156101f3576101f261244e565b5b0361020057829050610c76565b60008054906101000a900473ffffffffffffffffffffffffffffffffffffffff1673ffffffffffffffffffffffffffffffffffffffff16639eea8ce8846020015184602001516040518363ffffffff1660e01b8152600401610263929190612954565b602060405180830381865afa158015610280573d6000803e3d6000fd5b505050506040513d601f19601f820116820180604052508101906102a491906129a0565b8015610350575060008054906101000a900473ffffffffffffffffffffffffffffffffffffffff1673ffffffffffffffffffffffffffffffffffffffff16639eea8ce8846040015184604001516040518363ffffffff1660e01b815260040161030e929190612954565b602060405180830381865afa15801561032b573d6000803e3d6000fd5b505050506040513d601f19601f8201168201806040525081019061034f91906129a0565b5b156103655761035e83610ef0565b9050610c76565b60008054906101000a900473ffffffffffffffffffffffffffffffffffffffff1673ffffffffffffffffffffffffffffffffffffffff16639eea8ce8846020015184602001516040518363ffffffff1660e01b81526004016103c8929190612954565b602060405180830381865afa1580156103e5573d6000803e3d6000fd5b505050506040513d601f19601f8201168201806040525081019061040991906129a0565b80156104b6575060008054906101000a900473ffffffffffffffffffffffffffffffffffffffff1673ffffffffffffffffffffffffffffffffffffffff16639eea8ce8846040015184604001516040518363ffffffff1660e01b8152600401610473929190612954565b602060405180830381865afa158015610490573d6000803e3d6000fd5b505050506040513d601f19601f820116820180604052508101906104b491906129a0565b155b156105f4576105ed600160008054906101000a900473ffffffffffffffffffffffffffffffffffffffff1673ffffffffffffffffffffffffffffffffffffffff1663bc1b392d6040518163ffffffff1660e01b8152600401600060405180830381865afa15801561052b573d6000803e3d6000fd5b505050506040513d6000823e3d601f19601f820116820180604052508101906105549190612cf2565b60008054906101000a900473ffffffffffffffffffffffffffffffffffffffff1673ffffffffffffffffffffffffffffffffffffffff1663bc1b392d6040518163ffffffff1660e01b8152600401600060405180830381865afa1580156105bf573d6000803e3d6000fd5b505050506040513d6000823e3d601f19601f820116820180604052508101906105e89190612cf2565b61014c565b9050610c76565b60008060009054906101000a900473ffffffffffffffffffffffffffffffffffffffff1673ffffffffffffffffffffffffffffffffffffffff166377839c6960008054906101000a900473ffffffffffffffffffffffffffffffffffffffff1673ffffffffffffffffffffffffffffffffffffffff16636bc90c28866040015188604001516040518363ffffffff1660e01b8152600401610696929190612954565b600060405180830381865afa1580156106b3573d6000803e3d6000fd5b505050506040513d6000823e3d601f19601f820116820180604052508101906106dc9190612cf2565b60008054906101000a900473ffffffffffffffffffffffffffffffffffffffff1673ffffffffffffffffffffffffffffffffffffffff1663f670079560008054906101000a900473ffffffffffffffffffffffffffffffffffffffff1673ffffffffffffffffffffffffffffffffffffffff16636bc90c2889602001518b602001516040518363ffffffff1660e01b815260040161077b929190612954565b600060405180830381865afa158015610798573d6000803e3d6000fd5b505050506040513d6000823e3d601f19601f820116820180604052508101906107c19190612cf2565b6040518263ffffffff1660e01b81526004016107dd9190612d3b565b600060405180830381865afa1580156107fa573d6000803e3d6000fd5b505050506040513d6000823e3d601f19601f820116820180604052508101906108239190612cf2565b6040518363ffffffff1660e01b8152600401610840929190612954565b600060405180830381865afa15801561085d573d6000803e3d6000fd5b505050506040513d6000823e3d601f19601f820116820180604052508101906108869190612cf2565b905060008060009054906101000a900473ffffffffffffffffffffffffffffffffffffffff1673ffffffffffffffffffffffffffffffffffffffff16636bc90c2860008054906101000a900473ffffffffffffffffffffffffffffffffffffffff1673ffffffffffffffffffffffffffffffffffffffff16636bc90c2860008054906101000a900473ffffffffffffffffffffffffffffffffffffffff1673ffffffffffffffffffffffffffffffffffffffff166377839c6987886040518363ffffffff1660e01b815260040161095e929190612954565b600060405180830381865afa15801561097b573d6000803e3d6000fd5b505050506040513d6000823e3d601f19601f820116820180604052508101906109a49190612cf2565b89602001516040518363ffffffff1660e01b81526004016109c6929190612954565b600060405180830381865afa1580156109e3573d6000803e3d6000fd5b505050506040513d6000823e3d601f19601f82011682018060405250810190610a0c9190612cf2565b86602001516040518363ffffffff1660e01b8152600401610a2e929190612954565b600060405180830381865afa158015610a4b573d6000803e3d6000fd5b505050506040513d6000823e3d601f19601f82011682018060405250810190610a749190612cf2565b905060008060009054906101000a900473ffffffffffffffffffffffffffffffffffffffff1673ffffffffffffffffffffffffffffffffffffffff16636bc90c2860008054906101000a900473ffffffffffffffffffffffffffffffffffffffff1673ffffffffffffffffffffffffffffffffffffffff166377839c6960008054906101000a900473ffffffffffffffffffffffffffffffffffffffff1673ffffffffffffffffffffffffffffffffffffffff16636bc90c288b60200151886040518363ffffffff1660e01b8152600401610b50929190612954565b600060405180830381865afa158015610b6d573d6000803e3d6000fd5b505050506040513d6000823e3d601f19601f82011682018060405250810190610b969190612cf2565b876040518363ffffffff1660e01b8152600401610bb4929190612954565b600060405180830381865afa158015610bd1573d6000803e3d6000fd5b505050506040513d6000823e3d601f19601f82011682018060405250810190610bfa9190612cf2565b88604001516040518363ffffffff1660e01b8152600401610c1c929190612954565b600060405180830381865afa158015610c39573d6000803e3d6000fd5b505050506040513d6000823e3d601f19601f82011682018060405250810190610c629190612cf2565b9050610c706000838361014c565b93505050505b92915050565b610c84611e32565b6000610db8600160008054906101000a900473ffffffffffffffffffffffffffffffffffffffff1673ffffffffffffffffffffffffffffffffffffffff1663bc1b392d6040518163ffffffff1660e01b8152600401600060405180830381865afa158015610cf6573d6000803e3d6000fd5b505050506040513d6000823e3d601f19601f82011682018060405250810190610d1f9190612cf2565b60008054906101000a900473ffffffffffffffffffffffffffffffffffffffff1673ffffffffffffffffffffffffffffffffffffffff1663bc1b392d6040518163ffffffff1660e01b8152600401600060405180830381865afa158015610d8a573d6000803e3d6000fd5b505050506040513d6000823e3d601f19601f82011682018060405250810190610db39190612cf2565b61014c565b90508360200151610dd657610dce848483611b72565b915050610eea565b610ee673__$7db5d2dbc3ae63372df6c39d501ad0f72a$__63b1d74ee98673__$7db5d2dbc3ae63372df6c39d501ad0f72a$__6340957f726001806040518363ffffffff1660e01b8152600401610e2e929190612db1565b600060405180830381865af4158015610e4b573d6000803e3d6000fd5b505050506040513d6000823e3d601f19601f82011682018060405250810190610e749190612dda565b6040518363ffffffff1660e01b8152600401610e91929190612edb565b600060405180830381865af4158015610eae573d6000803e3d6000fd5b505050506040513d6000823e3d601f19601f82011682018060405250810190610ed79190612dda565b610ee0856119b2565b83611b72565b9150505b92915050565b610ef8611e32565b60008054906101000a900473ffffffffffffffffffffffffffffffffffffffff1673ffffffffffffffffffffffffffffffffffffffff16639eea8ce8836040015160008054906101000a900473ffffffffffffffffffffffffffffffffffffffff1673ffffffffffffffffffffffffffffffffffffffff1663bc1b392d6040518163ffffffff1660e01b8152600401600060405180830381865afa158015610fa4573d6000803e3d6000fd5b505050506040513d6000823e3d601f19601f82011682018060405250810190610fcd9190612cf2565b6040518363ffffffff1660e01b8152600401610fea929190612954565b602060405180830381865afa158015611007573d6000803e3d6000fd5b505050506040513d601f19601f8201168201806040525081019061102b91906129a0565b1561116957611162600160008054906101000a900473ffffffffffffffffffffffffffffffffffffffff1673ffffffffffffffffffffffffffffffffffffffff1663bc1b392d6040518163ffffffff1660e01b8152600401600060405180830381865afa1580156110a0573d6000803e3d6000fd5b505050506040513d6000823e3d601f19601f820116820180604052508101906110c99190612cf2565b60008054906101000a900473ffffffffffffffffffffffffffffffffffffffff1673ffffffffffffffffffffffffffffffffffffffff1663bc1b392d6040518163ffffffff1660e01b8152600401600060405180830381865afa158015611134573d6000803e3d6000fd5b505050506040513d6000823e3d601f19601f8201168201806040525081019061115d9190612cf2565b61014c565b90506119ad565b60008060009054906101000a900473ffffffffffffffffffffffffffffffffffffffff1673ffffffffffffffffffffffffffffffffffffffff166377839c6960008054906101000a900473ffffffffffffffffffffffffffffffffffffffff1673ffffffffffffffffffffffffffffffffffffffff166377839c6960008054906101000a900473ffffffffffffffffffffffffffffffffffffffff1673ffffffffffffffffffffffffffffffffffffffff166345caa1176040518163ffffffff1660e01b8152600401600060405180830381865afa15801561124f573d6000803e3d6000fd5b505050506040513d6000823e3d601f19601f820116820180604052508101906112789190612cf2565b60008054906101000a900473ffffffffffffffffffffffffffffffffffffffff1673ffffffffffffffffffffffffffffffffffffffff166377839c6989602001518a602001516040518363ffffffff1660e01b81526004016112db929190612954565b600060405180830381865afa1580156112f8573d6000803e3d6000fd5b505050506040513d6000823e3d601f19601f820116820180604052508101906113219190612cf2565b6040518363ffffffff1660e01b815260040161133e929190612954565b600060405180830381865afa15801561135b573d6000803e3d6000fd5b505050506040513d6000823e3d601f19601f820116820180604052508101906113849190612cf2565b60008054906101000a900473ffffffffffffffffffffffffffffffffffffffff1673ffffffffffffffffffffffffffffffffffffffff1663f670079560008054906101000a900473ffffffffffffffffffffffffffffffffffffffff1673ffffffffffffffffffffffffffffffffffffffff166377839c6960008054906101000a900473ffffffffffffffffffffffffffffffffffffffff1673ffffffffffffffffffffffffffffffffffffffff16635fdf05d76040518163ffffffff1660e01b8152600401600060405180830381865afa158015611467573d6000803e3d6000fd5b505050506040513d6000823e3d601f19601f820116820180604052508101906114909190612cf2565b8a604001516040518363ffffffff1660e01b81526004016114b2929190612954565b600060405180830381865afa1580156114cf573d6000803e3d6000fd5b505050506040513d6000823e3d601f19601f820116820180604052508101906114f89190612cf2565b6040518263ffffffff1660e01b81526004016115149190612d3b565b600060405180830381865afa158015611531573d6000803e3d6000fd5b505050506040513d6000823e3d601f19601f8201168201806040525081019061155a9190612cf2565b6040518363ffffffff1660e01b8152600401611577929190612954565b600060405180830381865afa158015611594573d6000803e3d6000fd5b505050506040513d6000823e3d601f19601f820116820180604052508101906115bd9190612cf2565b905060008060009054906101000a900473ffffffffffffffffffffffffffffffffffffffff1673ffffffffffffffffffffffffffffffffffffffff16636bc90c2860008054906101000a900473ffffffffffffffffffffffffffffffffffffffff1673ffffffffffffffffffffffffffffffffffffffff16636bc90c2860008054906101000a900473ffffffffffffffffffffffffffffffffffffffff1673ffffffffffffffffffffffffffffffffffffffff166377839c6987886040518363ffffffff1660e01b8152600401611695929190612954565b600060405180830381865afa1580156116b2573d6000803e3d6000fd5b505050506040513d6000823e3d601f19601f820116820180604052508101906116db9190612cf2565b88602001516040518363ffffffff1660e01b81526004016116fd929190612954565b600060405180830381865afa15801561171a573d6000803e3d6000fd5b505050506040513d6000823e3d601f19601f820116820180604052508101906117439190612cf2565b86602001516040518363ffffffff1660e01b8152600401611765929190612954565b600060405180830381865afa158015611782573d6000803e3d6000fd5b505050506040513d6000823e3d601f19601f820116820180604052508101906117ab9190612cf2565b905060008060009054906101000a900473ffffffffffffffffffffffffffffffffffffffff1673ffffffffffffffffffffffffffffffffffffffff16636bc90c2860008054906101000a900473ffffffffffffffffffffffffffffffffffffffff1673ffffffffffffffffffffffffffffffffffffffff166377839c6960008054906101000a900473ffffffffffffffffffffffffffffffffffffffff1673ffffffffffffffffffffffffffffffffffffffff16636bc90c288a60200151886040518363ffffffff1660e01b8152600401611887929190612954565b600060405180830381865afa1580156118a4573d6000803e3d6000fd5b505050506040513d6000823e3d601f19601f820116820180604052508101906118cd9190612cf2565b876040518363ffffffff1660e01b81526004016118eb929190612954565b600060405180830381865afa158015611908573d6000803e3d6000fd5b505050506040513d6000823e3d601f19601f820116820180604052508101906119319190612cf2565b87604001516040518363ffffffff1660e01b8152600401611953929190612954565b600060405180830381865afa158015611970573d6000803e3d6000fd5b505050506040513d6000823e3d601f19601f820116820180604052508101906119999190612cf2565b90506119a76000838361014c565b93505050505b919050565b6119ba611e32565b6001808111156119cd576119cc61244e565b5b826000015160018111156119e4576119e361244e565b5b03611a24576040517f08c379a0000000000000000000000000000000000000000000000000000000008152600401611a1b90612f6f565b60405180910390fd5b611b6b6000836020015160008054906101000a900473ffffffffffffffffffffffffffffffffffffffff1673ffffffffffffffffffffffffffffffffffffffff16636bc90c2860008054906101000a900473ffffffffffffffffffffffffffffffffffffffff1673ffffffffffffffffffffffffffffffffffffffff1663bc1b392d6040518163ffffffff1660e01b8152600401600060405180830381865afa158015611ad5573d6000803e3d6000fd5b505050506040513d6000823e3d601f19601f82011682018060405250810190611afe9190612cf2565b87604001516040518363ffffffff1660e01b8152600401611b20929190612954565b600060405180830381865afa158015611b3d573d6000803e3d6000fd5b505050506040513d6000823e3d601f19601f82011682018060405250810190611b669190612cf2565b61014c565b9050919050565b611b7a611e32565b600073__$7db5d2dbc3ae63372df6c39d501ad0f72a$__63bc39804e8673__$7db5d2dbc3ae63372df6c39d501ad0f72a$__63bc1b392d6040518163ffffffff1660e01b8152600401600060405180830381865af4158015611be0573d6000803e3d6000fd5b505050506040513d6000823e3d601f19601f82011682018060405250810190611c099190612dda565b60006040518463ffffffff1660e01b8152600401611c2993929190612f8f565b602060405180830381865af4158015611c46573d6000803e3d6000fd5b505050506040513d601f19601f82011682018060405250810190611c6a919061300a565b03611c7757819050611e2b565b73__$7db5d2dbc3ae63372df6c39d501ad0f72a$__63ee4a4e4e856040518263ffffffff1660e01b8152600401611cae9190613037565b602060405180830381865af4158015611ccb573d6000803e3d6000fd5b505050506040513d601f19601f82011682018060405250810190611cef91906129a0565b15611d9657611d8f73__$7db5d2dbc3ae63372df6c39d501ad0f72a$__636efac6c78660016040518363ffffffff1660e01b8152600401611d31929190613059565b600060405180830381865af4158015611d4e573d6000803e3d6000fd5b505050506040513d6000823e3d601f19601f82011682018060405250810190611d779190612dda565b611d8085610ef0565b611d8a858761018a565b611b72565b9050611e2b565b611e2873__$7db5d2dbc3ae63372df6c39d501ad0f72a$__636efac6c78660016040518363ffffffff1660e01b8152600401611dd3929190613059565b600060405180830381865af4158015611df0573d6000803e3d6000fd5b505050506040513d6000823e3d601f19601f82011682018060405250810190611e199190612dda565b611e2285610ef0565b84611b72565b90505b9392505050565b604051806060016040528060006001811115611e5157611e5061244e565b5b8152602001611e5e611e71565b8152602001611e6b611e71565b81525090565b6040518060400160405280611e84611e97565b8152602001611e91611e97565b81525090565b6040518060600160405280611eaa611eca565b8152602001611eb7611eca565b8152602001611ec4611eca565b81525090565b6040518060400160405280611edd611ef0565b8152602001611eea611ef0565b81525090565b6040518060200160405280611f03611f09565b81525090565b604051806060016040528060608152602001600015158152602001600081525090565b6000604051905090565b600080fd5b600080fd5b60028110611f4d57600080fd5b50565b600081359050611f5f81611f40565b92915050565b600080fd5b6000601f19601f8301169050919050565b7f4e487b7100000000000000000000000000000000000000000000000000000000600052604160045260246000fd5b611fb382611f6a565b810181811067ffffffffffffffff82111715611fd257611fd1611f7b565b5b80604052505050565b6000611fe5611f2c565b9050611ff18282611faa565b919050565b600080fd5b600080fd5b600080fd5b600067ffffffffffffffff8211156120205761201f611f7b565b5b61202982611f6a565b9050602081019050919050565b82818337600083830152505050565b600061205861205384612005565b611fdb565b90508281526020810184848401111561207457612073612000565b5b61207f848285612036565b509392505050565b600082601f83011261209c5761209b611ffb565b5b81356120ac848260208601612045565b91505092915050565b60008115159050919050565b6120ca816120b5565b81146120d557600080fd5b50565b6000813590506120e7816120c1565b92915050565b6000819050919050565b612100816120ed565b811461210b57600080fd5b50565b60008135905061211d816120f7565b92915050565b60006060828403121561213957612138611f65565b5b6121436060611fdb565b9050600082013567ffffffffffffffff81111561216357612162611ff6565b5b61216f84828501612087565b6000830152506020612183848285016120d8565b60208301525060406121978482850161210e565b60408301525092915050565b6000602082840312156121b9576121b8611f65565b5b6121c36020611fdb565b9050600082013567ffffffffffffffff8111156121e3576121e2611ff6565b5b6121ef84828501612123565b60008301525092915050565b60006040828403121561221157612210611f65565b5b61221b6040611fdb565b9050600082013567ffffffffffffffff81111561223b5761223a611ff6565b5b612247848285016121a3565b600083015250602082013567ffffffffffffffff81111561226b5761226a611ff6565b5b612277848285016121a3565b60208301525092915050565b60006060828403121561229957612298611f65565b5b6122a36060611fdb565b9050600082013567ffffffffffffffff8111156122c3576122c2611ff6565b5b6122cf848285016121fb565b600083015250602082013567ffffffffffffffff8111156122f3576122f2611ff6565b5b6122ff848285016121fb565b602083015250604082013567ffffffffffffffff81111561232357612322611ff6565b5b61232f848285016121fb565b60408301525092915050565b60006040828403121561235157612350611f65565b5b61235b6040611fdb565b9050600082013567ffffffffffffffff81111561237b5761237a611ff6565b5b61238784828501612283565b600083015250602082013567ffffffffffffffff8111156123ab576123aa611ff6565b5b6123b784828501612283565b60208301525092915050565b6000806000606084860312156123dc576123db611f36565b5b60006123ea86828701611f50565b935050602084013567ffffffffffffffff81111561240b5761240a611f3b565b5b6124178682870161233b565b925050604084013567ffffffffffffffff81111561243857612437611f3b565b5b6124448682870161233b565b9150509250925092565b7f4e487b7100000000000000000000000000000000000000000000000000000000600052602160045260246000fd5b6002811061248e5761248d61244e565b5b50565b600081905061249f8261247d565b919050565b60006124af82612491565b9050919050565b6124bf816124a4565b82525050565b600081519050919050565b600082825260208201905092915050565b60005b838110156124ff5780820151818401526020810190506124e4565b60008484015250505050565b6000612516826124c5565b61252081856124d0565b93506125308185602086016124e1565b61253981611f6a565b840191505092915050565b61254d816120b5565b82525050565b61255c816120ed565b82525050565b6000606083016000830151848203600086015261257f828261250b565b91505060208301516125946020860182612544565b5060408301516125a76040860182612553565b508091505092915050565b600060208301600083015184820360008601526125cf8282612562565b9150508091505092915050565b600060408301600083015184820360008601526125f982826125b2565b9150506020830151848203602086015261261382826125b2565b9150508091505092915050565b6000606083016000830151848203600086015261263d82826125dc565b9150506020830151848203602086015261265782826125dc565b9150506040830151848203604086015261267182826125dc565b9150508091505092915050565b6000604083016000830151848203600086015261269b8282612620565b915050602083015184820360208601526126b58282612620565b9150508091505092915050565b60006060830160008301516126da60008601826124b6565b50602083015184820360208601526126f2828261267e565b9150506040830151848203604086015261270c828261267e565b9150508091505092915050565b6000602082019050818103600083015261273381846126c2565b905092915050565b60006060828403121561275157612750611f65565b5b61275b6060611fdb565b9050600061276b84828501611f50565b600083015250602082013567ffffffffffffffff81111561278f5761278e611ff6565b5b61279b8482850161233b565b602083015250604082013567ffffffffffffffff8111156127bf576127be611ff6565b5b6127cb8482850161233b565b60408301525092915050565b600080604083850312156127ee576127ed611f36565b5b600083013567ffffffffffffffff81111561280c5761280b611f3b565b5b6128188582860161273b565b925050602083013567ffffffffffffffff81111561283957612838611f3b565b5b6128458582860161273b565b9150509250929050565b6000806040838503121561286657612865611f36565b5b600083013567ffffffffffffffff81111561288457612883611f3b565b5b61289085828601612123565b925050602083013567ffffffffffffffff8111156128b1576128b0611f3b565b5b6128bd8582860161273b565b9150509250929050565b6000602082840312156128dd576128dc611f36565b5b600082013567ffffffffffffffff8111156128fb576128fa611f3b565b5b6129078482850161273b565b91505092915050565b6000604083016000830151848203600086015261292d8282612620565b915050602083015184820360208601526129478282612620565b9150508091505092915050565b6000604082019050818103600083015261296e8185612910565b905081810360208301526129828184612910565b90509392505050565b60008151905061299a816120c1565b92915050565b6000602082840312156129b6576129b5611f36565b5b60006129c48482850161298b565b91505092915050565b60006129e06129db84612005565b611fdb565b9050828152602081018484840111156129fc576129fb612000565b5b612a078482856124e1565b509392505050565b600082601f830112612a2457612a23611ffb565b5b8151612a348482602086016129cd565b91505092915050565b600081519050612a4c816120f7565b92915050565b600060608284031215612a6857612a67611f65565b5b612a726060611fdb565b9050600082015167ffffffffffffffff811115612a9257612a91611ff6565b5b612a9e84828501612a0f565b6000830152506020612ab28482850161298b565b6020830152506040612ac684828501612a3d565b60408301525092915050565b600060208284031215612ae857612ae7611f65565b5b612af26020611fdb565b9050600082015167ffffffffffffffff811115612b1257612b11611ff6565b5b612b1e84828501612a52565b60008301525092915050565b600060408284031215612b4057612b3f611f65565b5b612b4a6040611fdb565b9050600082015167ffffffffffffffff811115612b6a57612b69611ff6565b5b612b7684828501612ad2565b600083015250602082015167ffffffffffffffff811115612b9a57612b99611ff6565b5b612ba684828501612ad2565b60208301525092915050565b600060608284031215612bc857612bc7611f65565b5b612bd26060611fdb565b9050600082015167ffffffffffffffff811115612bf257612bf1611ff6565b5b612bfe84828501612b2a565b600083015250602082015167ffffffffffffffff811115612c2257612c21611ff6565b5b612c2e84828501612b2a565b602083015250604082015167ffffffffffffffff811115612c5257612c51611ff6565b5b612c5e84828501612b2a565b60408301525092915050565b600060408284031215612c8057612c7f611f65565b5b612c8a6040611fdb565b9050600082015167ffffffffffffffff811115612caa57612ca9611ff6565b5b612cb684828501612bb2565b600083015250602082015167ffffffffffffffff811115612cda57612cd9611ff6565b5b612ce684828501612bb2565b60208301525092915050565b600060208284031215612d0857612d07611f36565b5b600082015167ffffffffffffffff811115612d2657612d25611f3b565b5b612d3284828501612c6a565b91505092915050565b60006020820190508181036000830152612d558184612910565b905092915050565b6000819050919050565b6000819050919050565b6000612d8c612d87612d8284612d5d565b612d67565b6120ed565b9050919050565b612d9c81612d71565b82525050565b612dab816120b5565b82525050565b6000604082019050612dc66000830185612d93565b612dd36020830184612da2565b9392505050565b600060208284031215612df057612def611f36565b5b600082015167ffffffffffffffff811115612e0e57612e0d611f3b565b5b612e1a84828501612a52565b91505092915050565b600082825260208201905092915050565b6000612e3f826124c5565b612e498185612e23565b9350612e598185602086016124e1565b612e6281611f6a565b840191505092915050565b612e76816120b5565b82525050565b612e85816120ed565b82525050565b60006060830160008301518482036000860152612ea88282612e34565b9150506020830151612ebd6020860182612e6d565b506040830151612ed06040860182612e7c565b508091505092915050565b60006040820190508181036000830152612ef58185612e8b565b90508181036020830152612f098184612e8b565b90509392505050565b600082825260208201905092915050565b7f63616e6e6f74206e656761746520706f696e7420617420696e66696e69747900600082015250565b6000612f59601f83612f12565b9150612f6482612f23565b602082019050919050565b60006020820190508181036000830152612f8881612f4c565b9050919050565b60006060820190508181036000830152612fa98186612e8b565b90508181036020830152612fbd8185612e8b565b9050612fcc6040830184612da2565b949350505050565b6000819050919050565b612fe781612fd4565b8114612ff257600080fd5b50565b60008151905061300481612fde565b92915050565b6000602082840312156130205761301f611f36565b5b600061302e84828501612ff5565b91505092915050565b600060208201905081810360008301526130518184612e8b565b905092915050565b600060408201905081810360008301526130738185612e8b565b90506130826020830184612d93565b939250505056fea26469706673582212200669ec9fd7118e84e40a700b6d373b6fadbeb2435dd722c82ca1b0107a1992ce64736f6c634300081b0033",
  "linkReferences": {
    "contracts/BigNumber.sol": {
      "BigNumbers": [
        {
          "length": 20,
          "start": 6
        },
        {
          "length": 20,
          "start": 199
        },
        {
          "length": 20,
          "start": 1534
        },
        {
          "length": 20,
          "start": 1820
        },
        {
          "length": 20,
          "start": 2555
        },
        {
          "length": 20,
          "start": 2841
        },
        {
          "length": 20,
          "start": 3288
        },
        {
          "length": 20,
          "start": 3574
        },
        {
          "length": 20,
          "start": 25549
        },
        {
          "length": 20,
          "start": 28589
        },
        {
          "length": 20,
          "start": 28847
        },
        {
          "length": 20,
          "start": 29086
        },
        {
          "length": 20,
          "start": 29361
        },
        {
          "length": 20,
          "start": 29581
        },
        {
          "length": 20,
          "start": 29741
        },
        {
          "length": 20,
          "start": 29882
        },
        {
          "length": 20,
          "start": 30023
        },
        {
          "length": 20,
          "start": 30164
        },
        {
          "length": 20,
          "start": 30324
        },
        {
          "length": 20,
          "start": 30535
        },
        {
          "length": 20,
          "start": 30566
        },
        {
          "length": 20,
          "start": 30844
        },
        {
          "length": 20,
          "start": 30875
        },
        {
          "length": 20,
          "start": 30903
        },
        {
          "length": 20,
          "start": 31271
        },
        {
          "length": 20,
          "start": 31510
        },
        {
          "length": 20,
          "start": 31722
        },
        {
          "length": 20,
          "start": 31914
        },
        {
          "length": 20,
          "start": 32153
        },
        {
          "length": 20,
          "start": 32365
        },
        {
          "length": 20,
          "start": 32541
        },
        {
          "length": 20,
          "start": 32695
        },
        {
          "length": 20,
          "start": 32934
        },
        {
          "length": 20,
          "start": 33143
        },
        {
          "length": 20,
          "start": 33534
        },
        {
          "length": 20,
          "start": 33773
        },
        {
          "length": 20,
          "start": 33985
        },
        {
          "length": 20,
          "start": 70798
        },
        {
          "length": 20,
          "start": 70825
        },
        {
          "length": 20,
          "start": 76903
        },
        {
          "length": 20,
          "start": 76930
        },
        {
          "length": 20,
          "start": 77154
        },
        {
          "length": 20,
          "start": 77282
        },
        {
          "length": 20,
          "start": 77444
        },
        {
          "length": 20,
          "start": 85260
        },
        {
          "length": 20,
          "start": 85287
        },
        {
          "length": 20,
          "start": 88365
        },
        {
          "length": 20,
          "start": 88392
        },
        {
          "length": 20,
          "start": 88616
        },
        {
          "length": 20,
          "start": 88744
        },
        {
          "length": 20,
          "start": 88906
        },
        {
          "length": 20,
          "start": 96759
        },
        {
          "length": 20,
          "start": 96786
        },
        {
          "length": 20,
          "start": 100250
        },
        {
          "length": 20,
          "start": 100277
        },
        {
          "length": 20,
          "start": 100501
        },
        {
          "length": 20,
          "start": 100629
        },
        {
          "length": 20,
          "start": 100791
        }
      ]
    }
  },
  "deployedLinkReferences": {}
}