{
  "_format": "hh-sol-artifact-1",
  "contractName": "Curve",
  "sourceName": "contracts/curve.sol",
  "abi": [
    {
      "inputs": [
        {
          "components": [
            {
              "internalType": "enum PointType",
              "name": "pointType",
              "type": "uint8"
            },
            {
              "components": [
                {
                  "components": [
                    {
                      "internalType": "bytes",
                      "name": "val",
                      "type": "bytes"
                    },
                    {
                      "internalType": "bool",
                      "name": "neg",
                      "type": "bool"
                    },
                    {
                      "internalType": "uint256",
                      "name": "bitlen",
                      "type": "uint256"
                    }
                  ],
                  "internalType": "struct BigNumber",
                  "name": "value",
                  "type": "tuple"
                }
              ],
              "internalType": "struct Zp",
              "name": "x",
              "type": "tuple"
            },
            {
              "components": [
                {
                  "components": [
                    {
                      "internalType": "bytes",
                      "name": "val",
                      "type": "bytes"
                    },
                    {
                      "internalType": "bool",
                      "name": "neg",
                      "type": "bool"
                    },
                    {
                      "internalType": "uint256",
                      "name": "bitlen",
                      "type": "uint256"
                    }
                  ],
                  "internalType": "struct BigNumber",
                  "name": "value",
                  "type": "tuple"
                }
              ],
              "internalType": "struct Zp",
              "name": "y",
              "type": "tuple"
            }
          ],
          "internalType": "struct Point_Zp",
          "name": "point",
          "type": "tuple"
        }
      ],
      "name": "Subgroup_0Check",
      "outputs": [
        {
          "internalType": "bool",
          "name": "",
          "type": "bool"
        }
      ],
      "stateMutability": "view",
      "type": "function"
    },
    {
      "inputs": [
        {
          "components": [
            {
              "internalType": "enum PointType",
              "name": "pointType",
              "type": "uint8"
            },
            {
              "components": [
                {
                  "components": [
                    {
                      "components": [
                        {
                          "internalType": "bytes",
                          "name": "val",
                          "type": "bytes"
                        },
                        {
                          "internalType": "bool",
                          "name": "neg",
                          "type": "bool"
                        },
                        {
                          "internalType": "uint256",
                          "name": "bitlen",
                          "type": "uint256"
                        }
                      ],
                      "internalType": "struct BigNumber",
                      "name": "value",
                      "type": "tuple"
                    }
                  ],
                  "internalType": "struct Zp",
                  "name": "a",
                  "type": "tuple"
                },
                {
                  "components": [
                    {
                      "components": [
                        {
                          "internalType": "bytes",
                          "name": "val",
                          "type": "bytes"
                        },
                        {
                          "internalType": "bool",
                          "name": "neg",
                          "type": "bool"
                        },
                        {
                          "internalType": "uint256",
                          "name": "bitlen",
                          "type": "uint256"
                        }
                      ],
                      "internalType": "struct BigNumber",
                      "name": "value",
                      "type": "tuple"
                    }
                  ],
                  "internalType": "struct Zp",
                  "name": "b",
                  "type": "tuple"
                }
              ],
              "internalType": "struct Zp_2",
              "name": "x",
              "type": "tuple"
            },
            {
              "components": [
                {
                  "components": [
                    {
                      "components": [
                        {
                          "internalType": "bytes",
                          "name": "val",
                          "type": "bytes"
                        },
                        {
                          "internalType": "bool",
                          "name": "neg",
                          "type": "bool"
                        },
                        {
                          "internalType": "uint256",
                          "name": "bitlen",
                          "type": "uint256"
                        }
                      ],
                      "internalType": "struct BigNumber",
                      "name": "value",
                      "type": "tuple"
                    }
                  ],
                  "internalType": "struct Zp",
                  "name": "a",
                  "type": "tuple"
                },
                {
                  "components": [
                    {
                      "components": [
                        {
                          "internalType": "bytes",
                          "name": "val",
                          "type": "bytes"
                        },
                        {
                          "internalType": "bool",
                          "name": "neg",
                          "type": "bool"
                        },
                        {
                          "internalType": "uint256",
                          "name": "bitlen",
                          "type": "uint256"
                        }
                      ],
                      "internalType": "struct BigNumber",
                      "name": "value",
                      "type": "tuple"
                    }
                  ],
                  "internalType": "struct Zp",
                  "name": "b",
                  "type": "tuple"
                }
              ],
              "internalType": "struct Zp_2",
              "name": "y",
              "type": "tuple"
            }
          ],
          "internalType": "struct Point_Zp_2",
          "name": "point",
          "type": "tuple"
        }
      ],
      "name": "Subgroup_1Check",
      "outputs": [
        {
          "internalType": "bool",
          "name": "",
          "type": "bool"
        }
      ],
      "stateMutability": "view",
      "type": "function"
    },
    {
      "inputs": [
        {
          "components": [
            {
              "internalType": "enum PointType",
              "name": "pointType",
              "type": "uint8"
            },
            {
              "components": [
                {
                  "components": [
                    {
                      "internalType": "bytes",
                      "name": "val",
                      "type": "bytes"
                    },
                    {
                      "internalType": "bool",
                      "name": "neg",
                      "type": "bool"
                    },
                    {
                      "internalType": "uint256",
                      "name": "bitlen",
                      "type": "uint256"
                    }
                  ],
                  "internalType": "struct BigNumber",
                  "name": "value",
                  "type": "tuple"
                }
              ],
              "internalType": "struct Zp",
              "name": "x",
              "type": "tuple"
            },
            {
              "components": [
                {
                  "components": [
                    {
                      "internalType": "bytes",
                      "name": "val",
                      "type": "bytes"
                    },
                    {
                      "internalType": "bool",
                      "name": "neg",
                      "type": "bool"
                    },
                    {
                      "internalType": "uint256",
                      "name": "bitlen",
                      "type": "uint256"
                    }
                  ],
                  "internalType": "struct BigNumber",
                  "name": "value",
                  "type": "tuple"
                }
              ],
              "internalType": "struct Zp",
              "name": "y",
              "type": "tuple"
            }
          ],
          "internalType": "struct Point_Zp",
          "name": "point",
          "type": "tuple"
        }
      ],
      "name": "isOnCurve",
      "outputs": [
        {
          "internalType": "bool",
          "name": "",
          "type": "bool"
        }
      ],
      "stateMutability": "view",
      "type": "function"
    },
    {
      "inputs": [
        {
          "components": [
            {
              "internalType": "enum PointType",
              "name": "pointType",
              "type": "uint8"
            },
            {
              "components": [
                {
                  "components": [
                    {
                      "components": [
                        {
                          "internalType": "bytes",
                          "name": "val",
                          "type": "bytes"
                        },
                        {
                          "internalType": "bool",
                          "name": "neg",
                          "type": "bool"
                        },
                        {
                          "internalType": "uint256",
                          "name": "bitlen",
                          "type": "uint256"
                        }
                      ],
                      "internalType": "struct BigNumber",
                      "name": "value",
                      "type": "tuple"
                    }
                  ],
                  "internalType": "struct Zp",
                  "name": "a",
                  "type": "tuple"
                },
                {
                  "components": [
                    {
                      "components": [
                        {
                          "internalType": "bytes",
                          "name": "val",
                          "type": "bytes"
                        },
                        {
                          "internalType": "bool",
                          "name": "neg",
                          "type": "bool"
                        },
                        {
                          "internalType": "uint256",
                          "name": "bitlen",
                          "type": "uint256"
                        }
                      ],
                      "internalType": "struct BigNumber",
                      "name": "value",
                      "type": "tuple"
                    }
                  ],
                  "internalType": "struct Zp",
                  "name": "b",
                  "type": "tuple"
                }
              ],
              "internalType": "struct Zp_2",
              "name": "x",
              "type": "tuple"
            },
            {
              "components": [
                {
                  "components": [
                    {
                      "components": [
                        {
                          "internalType": "bytes",
                          "name": "val",
                          "type": "bytes"
                        },
                        {
                          "internalType": "bool",
                          "name": "neg",
                          "type": "bool"
                        },
                        {
                          "internalType": "uint256",
                          "name": "bitlen",
                          "type": "uint256"
                        }
                      ],
                      "internalType": "struct BigNumber",
                      "name": "value",
                      "type": "tuple"
                    }
                  ],
                  "internalType": "struct Zp",
                  "name": "a",
                  "type": "tuple"
                },
                {
                  "components": [
                    {
                      "components": [
                        {
                          "internalType": "bytes",
                          "name": "val",
                          "type": "bytes"
                        },
                        {
                          "internalType": "bool",
                          "name": "neg",
                          "type": "bool"
                        },
                        {
                          "internalType": "uint256",
                          "name": "bitlen",
                          "type": "uint256"
                        }
                      ],
                      "internalType": "struct BigNumber",
                      "name": "value",
                      "type": "tuple"
                    }
                  ],
                  "internalType": "struct Zp",
                  "name": "b",
                  "type": "tuple"
                }
              ],
              "internalType": "struct Zp_2",
              "name": "y",
              "type": "tuple"
            }
          ],
          "internalType": "struct Point_Zp_2",
          "name": "point",
          "type": "tuple"
        }
      ],
      "name": "isOnCurveTwist",
      "outputs": [
        {
          "internalType": "bool",
          "name": "",
          "type": "bool"
        }
      ],
      "stateMutability": "view",
      "type": "function"
    },
    {
      "inputs": [
        {
          "components": [
            {
              "internalType": "enum PointType",
              "name": "pointType",
              "type": "uint8"
            },
            {
              "components": [
                {
                  "components": [
                    {
                      "components": [
                        {
                          "components": [
                            {
                              "components": [
                                {
                                  "internalType": "bytes",
                                  "name": "val",
                                  "type": "bytes"
                                },
                                {
                                  "internalType": "bool",
                                  "name": "neg",
                                  "type": "bool"
                                },
                                {
                                  "internalType": "uint256",
                                  "name": "bitlen",
                                  "type": "uint256"
                                }
                              ],
                              "internalType": "struct BigNumber",
                              "name": "value",
                              "type": "tuple"
                            }
                          ],
                          "internalType": "struct Zp",
                          "name": "a",
                          "type": "tuple"
                        },
                        {
                          "components": [
                            {
                              "components": [
                                {
                                  "internalType": "bytes",
                                  "name": "val",
                                  "type": "bytes"
                                },
                                {
                                  "internalType": "bool",
                                  "name": "neg",
                                  "type": "bool"
                                },
                                {
                                  "internalType": "uint256",
                                  "name": "bitlen",
                                  "type": "uint256"
                                }
                              ],
                              "internalType": "struct BigNumber",
                              "name": "value",
                              "type": "tuple"
                            }
                          ],
                          "internalType": "struct Zp",
                          "name": "b",
                          "type": "tuple"
                        }
                      ],
                      "internalType": "struct Zp_2",
                      "name": "a",
                      "type": "tuple"
                    },
                    {
                      "components": [
                        {
                          "components": [
                            {
                              "components": [
                                {
                                  "internalType": "bytes",
                                  "name": "val",
                                  "type": "bytes"
                                },
                                {
                                  "internalType": "bool",
                                  "name": "neg",
                                  "type": "bool"
                                },
                                {
                                  "internalType": "uint256",
                                  "name": "bitlen",
                                  "type": "uint256"
                                }
                              ],
                              "internalType": "struct BigNumber",
                              "name": "value",
                              "type": "tuple"
                            }
                          ],
                          "internalType": "struct Zp",
                          "name": "a",
                          "type": "tuple"
                        },
                        {
                          "components": [
                            {
                              "components": [
                                {
                                  "internalType": "bytes",
                                  "name": "val",
                                  "type": "bytes"
                                },
                                {
                                  "internalType": "bool",
                                  "name": "neg",
                                  "type": "bool"
                                },
                                {
                                  "internalType": "uint256",
                                  "name": "bitlen",
                                  "type": "uint256"
                                }
                              ],
                              "internalType": "struct BigNumber",
                              "name": "value",
                              "type": "tuple"
                            }
                          ],
                          "internalType": "struct Zp",
                          "name": "b",
                          "type": "tuple"
                        }
                      ],
                      "internalType": "struct Zp_2",
                      "name": "b",
                      "type": "tuple"
                    },
                    {
                      "components": [
                        {
                          "components": [
                            {
                              "components": [
                                {
                                  "internalType": "bytes",
                                  "name": "val",
                                  "type": "bytes"
                                },
                                {
                                  "internalType": "bool",
                                  "name": "neg",
                                  "type": "bool"
                                },
                                {
                                  "internalType": "uint256",
                                  "name": "bitlen",
                                  "type": "uint256"
                                }
                              ],
                              "internalType": "struct BigNumber",
                              "name": "value",
                              "type": "tuple"
                            }
                          ],
                          "internalType": "struct Zp",
                          "name": "a",
                          "type": "tuple"
                        },
                        {
                          "components": [
                            {
                              "components": [
                                {
                                  "internalType": "bytes",
                                  "name": "val",
                                  "type": "bytes"
                                },
                                {
                                  "internalType": "bool",
                                  "name": "neg",
                                  "type": "bool"
                                },
                                {
                                  "internalType": "uint256",
                                  "name": "bitlen",
                                  "type": "uint256"
                                }
                              ],
                              "internalType": "struct BigNumber",
                              "name": "value",
                              "type": "tuple"
                            }
                          ],
                          "internalType": "struct Zp",
                          "name": "b",
                          "type": "tuple"
                        }
                      ],
                      "internalType": "struct Zp_2",
                      "name": "c",
                      "type": "tuple"
                    }
                  ],
                  "internalType": "struct Zp_6",
                  "name": "a",
                  "type": "tuple"
                },
                {
                  "components": [
                    {
                      "components": [
                        {
                          "components": [
                            {
                              "components": [
                                {
                                  "internalType": "bytes",
                                  "name": "val",
                                  "type": "bytes"
                                },
                                {
                                  "internalType": "bool",
                                  "name": "neg",
                                  "type": "bool"
                                },
                                {
                                  "internalType": "uint256",
                                  "name": "bitlen",
                                  "type": "uint256"
                                }
                              ],
                              "internalType": "struct BigNumber",
                              "name": "value",
                              "type": "tuple"
                            }
                          ],
                          "internalType": "struct Zp",
                          "name": "a",
                          "type": "tuple"
                        },
                        {
                          "components": [
                            {
                              "components": [
                                {
                                  "internalType": "bytes",
                                  "name": "val",
                                  "type": "bytes"
                                },
                                {
                                  "internalType": "bool",
                                  "name": "neg",
                                  "type": "bool"
                                },
                                {
                                  "internalType": "uint256",
                                  "name": "bitlen",
                                  "type": "uint256"
                                }
                              ],
                              "internalType": "struct BigNumber",
                              "name": "value",
                              "type": "tuple"
                            }
                          ],
                          "internalType": "struct Zp",
                          "name": "b",
                          "type": "tuple"
                        }
                      ],
                      "internalType": "struct Zp_2",
                      "name": "a",
                      "type": "tuple"
                    },
                    {
                      "components": [
                        {
                          "components": [
                            {
                              "components": [
                                {
                                  "internalType": "bytes",
                                  "name": "val",
                                  "type": "bytes"
                                },
                                {
                                  "internalType": "bool",
                                  "name": "neg",
                                  "type": "bool"
                                },
                                {
                                  "internalType": "uint256",
                                  "name": "bitlen",
                                  "type": "uint256"
                                }
                              ],
                              "internalType": "struct BigNumber",
                              "name": "value",
                              "type": "tuple"
                            }
                          ],
                          "internalType": "struct Zp",
                          "name": "a",
                          "type": "tuple"
                        },
                        {
                          "components": [
                            {
                              "components": [
                                {
                                  "internalType": "bytes",
                                  "name": "val",
                                  "type": "bytes"
                                },
                                {
                                  "internalType": "bool",
                                  "name": "neg",
                                  "type": "bool"
                                },
                                {
                                  "internalType": "uint256",
                                  "name": "bitlen",
                                  "type": "uint256"
                                }
                              ],
                              "internalType": "struct BigNumber",
                              "name": "value",
                              "type": "tuple"
                            }
                          ],
                          "internalType": "struct Zp",
                          "name": "b",
                          "type": "tuple"
                        }
                      ],
                      "internalType": "struct Zp_2",
                      "name": "b",
                      "type": "tuple"
                    },
                    {
                      "components": [
                        {
                          "components": [
                            {
                              "components": [
                                {
                                  "internalType": "bytes",
                                  "name": "val",
                                  "type": "bytes"
                                },
                                {
                                  "internalType": "bool",
                                  "name": "neg",
                                  "type": "bool"
                                },
                                {
                                  "internalType": "uint256",
                                  "name": "bitlen",
                                  "type": "uint256"
                                }
                              ],
                              "internalType": "struct BigNumber",
                              "name": "value",
                              "type": "tuple"
                            }
                          ],
                          "internalType": "struct Zp",
                          "name": "a",
                          "type": "tuple"
                        },
                        {
                          "components": [
                            {
                              "components": [
                                {
                                  "internalType": "bytes",
                                  "name": "val",
                                  "type": "bytes"
                                },
                                {
                                  "internalType": "bool",
                                  "name": "neg",
                                  "type": "bool"
                                },
                                {
                                  "internalType": "uint256",
                                  "name": "bitlen",
                                  "type": "uint256"
                                }
                              ],
                              "internalType": "struct BigNumber",
                              "name": "value",
                              "type": "tuple"
                            }
                          ],
                          "internalType": "struct Zp",
                          "name": "b",
                          "type": "tuple"
                        }
                      ],
                      "internalType": "struct Zp_2",
                      "name": "c",
                      "type": "tuple"
                    }
                  ],
                  "internalType": "struct Zp_6",
                  "name": "b",
                  "type": "tuple"
                }
              ],
              "internalType": "struct Zp_12",
              "name": "x",
              "type": "tuple"
            },
            {
              "components": [
                {
                  "components": [
                    {
                      "components": [
                        {
                          "components": [
                            {
                              "components": [
                                {
                                  "internalType": "bytes",
                                  "name": "val",
                                  "type": "bytes"
                                },
                                {
                                  "internalType": "bool",
                                  "name": "neg",
                                  "type": "bool"
                                },
                                {
                                  "internalType": "uint256",
                                  "name": "bitlen",
                                  "type": "uint256"
                                }
                              ],
                              "internalType": "struct BigNumber",
                              "name": "value",
                              "type": "tuple"
                            }
                          ],
                          "internalType": "struct Zp",
                          "name": "a",
                          "type": "tuple"
                        },
                        {
                          "components": [
                            {
                              "components": [
                                {
                                  "internalType": "bytes",
                                  "name": "val",
                                  "type": "bytes"
                                },
                                {
                                  "internalType": "bool",
                                  "name": "neg",
                                  "type": "bool"
                                },
                                {
                                  "internalType": "uint256",
                                  "name": "bitlen",
                                  "type": "uint256"
                                }
                              ],
                              "internalType": "struct BigNumber",
                              "name": "value",
                              "type": "tuple"
                            }
                          ],
                          "internalType": "struct Zp",
                          "name": "b",
                          "type": "tuple"
                        }
                      ],
                      "internalType": "struct Zp_2",
                      "name": "a",
                      "type": "tuple"
                    },
                    {
                      "components": [
                        {
                          "components": [
                            {
                              "components": [
                                {
                                  "internalType": "bytes",
                                  "name": "val",
                                  "type": "bytes"
                                },
                                {
                                  "internalType": "bool",
                                  "name": "neg",
                                  "type": "bool"
                                },
                                {
                                  "internalType": "uint256",
                                  "name": "bitlen",
                                  "type": "uint256"
                                }
                              ],
                              "internalType": "struct BigNumber",
                              "name": "value",
                              "type": "tuple"
                            }
                          ],
                          "internalType": "struct Zp",
                          "name": "a",
                          "type": "tuple"
                        },
                        {
                          "components": [
                            {
                              "components": [
                                {
                                  "internalType": "bytes",
                                  "name": "val",
                                  "type": "bytes"
                                },
                                {
                                  "internalType": "bool",
                                  "name": "neg",
                                  "type": "bool"
                                },
                                {
                                  "internalType": "uint256",
                                  "name": "bitlen",
                                  "type": "uint256"
                                }
                              ],
                              "internalType": "struct BigNumber",
                              "name": "value",
                              "type": "tuple"
                            }
                          ],
                          "internalType": "struct Zp",
                          "name": "b",
                          "type": "tuple"
                        }
                      ],
                      "internalType": "struct Zp_2",
                      "name": "b",
                      "type": "tuple"
                    },
                    {
                      "components": [
                        {
                          "components": [
                            {
                              "components": [
                                {
                                  "internalType": "bytes",
                                  "name": "val",
                                  "type": "bytes"
                                },
                                {
                                  "internalType": "bool",
                                  "name": "neg",
                                  "type": "bool"
                                },
                                {
                                  "internalType": "uint256",
                                  "name": "bitlen",
                                  "type": "uint256"
                                }
                              ],
                              "internalType": "struct BigNumber",
                              "name": "value",
                              "type": "tuple"
                            }
                          ],
                          "internalType": "struct Zp",
                          "name": "a",
                          "type": "tuple"
                        },
                        {
                          "components": [
                            {
                              "components": [
                                {
                                  "internalType": "bytes",
                                  "name": "val",
                                  "type": "bytes"
                                },
                                {
                                  "internalType": "bool",
                                  "name": "neg",
                                  "type": "bool"
                                },
                                {
                                  "internalType": "uint256",
                                  "name": "bitlen",
                                  "type": "uint256"
                                }
                              ],
                              "internalType": "struct BigNumber",
                              "name": "value",
                              "type": "tuple"
                            }
                          ],
                          "internalType": "struct Zp",
                          "name": "b",
                          "type": "tuple"
                        }
                      ],
                      "internalType": "struct Zp_2",
                      "name": "c",
                      "type": "tuple"
                    }
                  ],
                  "internalType": "struct Zp_6",
                  "name": "a",
                  "type": "tuple"
                },
                {
                  "components": [
                    {
                      "components": [
                        {
                          "components": [
                            {
                              "components": [
                                {
                                  "internalType": "bytes",
                                  "name": "val",
                                  "type": "bytes"
                                },
                                {
                                  "internalType": "bool",
                                  "name": "neg",
                                  "type": "bool"
                                },
                                {
                                  "internalType": "uint256",
                                  "name": "bitlen",
                                  "type": "uint256"
                                }
                              ],
                              "internalType": "struct BigNumber",
                              "name": "value",
                              "type": "tuple"
                            }
                          ],
                          "internalType": "struct Zp",
                          "name": "a",
                          "type": "tuple"
                        },
                        {
                          "components": [
                            {
                              "components": [
                                {
                                  "internalType": "bytes",
                                  "name": "val",
                                  "type": "bytes"
                                },
                                {
                                  "internalType": "bool",
                                  "name": "neg",
                                  "type": "bool"
                                },
                                {
                                  "internalType": "uint256",
                                  "name": "bitlen",
                                  "type": "uint256"
                                }
                              ],
                              "internalType": "struct BigNumber",
                              "name": "value",
                              "type": "tuple"
                            }
                          ],
                          "internalType": "struct Zp",
                          "name": "b",
                          "type": "tuple"
                        }
                      ],
                      "internalType": "struct Zp_2",
                      "name": "a",
                      "type": "tuple"
                    },
                    {
                      "components": [
                        {
                          "components": [
                            {
                              "components": [
                                {
                                  "internalType": "bytes",
                                  "name": "val",
                                  "type": "bytes"
                                },
                                {
                                  "internalType": "bool",
                                  "name": "neg",
                                  "type": "bool"
                                },
                                {
                                  "internalType": "uint256",
                                  "name": "bitlen",
                                  "type": "uint256"
                                }
                              ],
                              "internalType": "struct BigNumber",
                              "name": "value",
                              "type": "tuple"
                            }
                          ],
                          "internalType": "struct Zp",
                          "name": "a",
                          "type": "tuple"
                        },
                        {
                          "components": [
                            {
                              "components": [
                                {
                                  "internalType": "bytes",
                                  "name": "val",
                                  "type": "bytes"
                                },
                                {
                                  "internalType": "bool",
                                  "name": "neg",
                                  "type": "bool"
                                },
                                {
                                  "internalType": "uint256",
                                  "name": "bitlen",
                                  "type": "uint256"
                                }
                              ],
                              "internalType": "struct BigNumber",
                              "name": "value",
                              "type": "tuple"
                            }
                          ],
                          "internalType": "struct Zp",
                          "name": "b",
                          "type": "tuple"
                        }
                      ],
                      "internalType": "struct Zp_2",
                      "name": "b",
                      "type": "tuple"
                    },
                    {
                      "components": [
                        {
                          "components": [
                            {
                              "components": [
                                {
                                  "internalType": "bytes",
                                  "name": "val",
                                  "type": "bytes"
                                },
                                {
                                  "internalType": "bool",
                                  "name": "neg",
                                  "type": "bool"
                                },
                                {
                                  "internalType": "uint256",
                                  "name": "bitlen",
                                  "type": "uint256"
                                }
                              ],
                              "internalType": "struct BigNumber",
                              "name": "value",
                              "type": "tuple"
                            }
                          ],
                          "internalType": "struct Zp",
                          "name": "a",
                          "type": "tuple"
                        },
                        {
                          "components": [
                            {
                              "components": [
                                {
                                  "internalType": "bytes",
                                  "name": "val",
                                  "type": "bytes"
                                },
                                {
                                  "internalType": "bool",
                                  "name": "neg",
                                  "type": "bool"
                                },
                                {
                                  "internalType": "uint256",
                                  "name": "bitlen",
                                  "type": "uint256"
                                }
                              ],
                              "internalType": "struct BigNumber",
                              "name": "value",
                              "type": "tuple"
                            }
                          ],
                          "internalType": "struct Zp",
                          "name": "b",
                          "type": "tuple"
                        }
                      ],
                      "internalType": "struct Zp_2",
                      "name": "c",
                      "type": "tuple"
                    }
                  ],
                  "internalType": "struct Zp_6",
                  "name": "b",
                  "type": "tuple"
                }
              ],
              "internalType": "struct Zp_12",
              "name": "y",
              "type": "tuple"
            }
          ],
          "internalType": "struct Point_Zp_12",
          "name": "point",
          "type": "tuple"
        }
      ],
      "name": "isOnCurve_12",
      "outputs": [
        {
          "internalType": "bool",
          "name": "",
          "type": "bool"
        }
      ],
      "stateMutability": "view",
      "type": "function"
    },
    {
      "inputs": [
        {
          "components": [
            {
              "internalType": "enum PointType",
              "name": "pointType",
              "type": "uint8"
            },
            {
              "components": [
                {
                  "components": [
                    {
                      "components": [
                        {
                          "internalType": "bytes",
                          "name": "val",
                          "type": "bytes"
                        },
                        {
                          "internalType": "bool",
                          "name": "neg",
                          "type": "bool"
                        },
                        {
                          "internalType": "uint256",
                          "name": "bitlen",
                          "type": "uint256"
                        }
                      ],
                      "internalType": "struct BigNumber",
                      "name": "value",
                      "type": "tuple"
                    }
                  ],
                  "internalType": "struct Zp",
                  "name": "a",
                  "type": "tuple"
                },
                {
                  "components": [
                    {
                      "components": [
                        {
                          "internalType": "bytes",
                          "name": "val",
                          "type": "bytes"
                        },
                        {
                          "internalType": "bool",
                          "name": "neg",
                          "type": "bool"
                        },
                        {
                          "internalType": "uint256",
                          "name": "bitlen",
                          "type": "uint256"
                        }
                      ],
                      "internalType": "struct BigNumber",
                      "name": "value",
                      "type": "tuple"
                    }
                  ],
                  "internalType": "struct Zp",
                  "name": "b",
                  "type": "tuple"
                }
              ],
              "internalType": "struct Zp_2",
              "name": "x",
              "type": "tuple"
            },
            {
              "components": [
                {
                  "components": [
                    {
                      "components": [
                        {
                          "internalType": "bytes",
                          "name": "val",
                          "type": "bytes"
                        },
                        {
                          "internalType": "bool",
                          "name": "neg",
                          "type": "bool"
                        },
                        {
                          "internalType": "uint256",
                          "name": "bitlen",
                          "type": "uint256"
                        }
                      ],
                      "internalType": "struct BigNumber",
                      "name": "value",
                      "type": "tuple"
                    }
                  ],
                  "internalType": "struct Zp",
                  "name": "a",
                  "type": "tuple"
                },
                {
                  "components": [
                    {
                      "components": [
                        {
                          "internalType": "bytes",
                          "name": "val",
                          "type": "bytes"
                        },
                        {
                          "internalType": "bool",
                          "name": "neg",
                          "type": "bool"
                        },
                        {
                          "internalType": "uint256",
                          "name": "bitlen",
                          "type": "uint256"
                        }
                      ],
                      "internalType": "struct BigNumber",
                      "name": "value",
                      "type": "tuple"
                    }
                  ],
                  "internalType": "struct Zp",
                  "name": "b",
                  "type": "tuple"
                }
              ],
              "internalType": "struct Zp_2",
              "name": "y",
              "type": "tuple"
            }
          ],
          "internalType": "struct Point_Zp_2",
          "name": "point",
          "type": "tuple"
        }
      ],
      "name": "untwist",
      "outputs": [
        {
          "components": [
            {
              "internalType": "enum PointType",
              "name": "pointType",
              "type": "uint8"
            },
            {
              "components": [
                {
                  "components": [
                    {
                      "components": [
                        {
                          "components": [
                            {
                              "components": [
                                {
                                  "internalType": "bytes",
                                  "name": "val",
                                  "type": "bytes"
                                },
                                {
                                  "internalType": "bool",
                                  "name": "neg",
                                  "type": "bool"
                                },
                                {
                                  "internalType": "uint256",
                                  "name": "bitlen",
                                  "type": "uint256"
                                }
                              ],
                              "internalType": "struct BigNumber",
                              "name": "value",
                              "type": "tuple"
                            }
                          ],
                          "internalType": "struct Zp",
                          "name": "a",
                          "type": "tuple"
                        },
                        {
                          "components": [
                            {
                              "components": [
                                {
                                  "internalType": "bytes",
                                  "name": "val",
                                  "type": "bytes"
                                },
                                {
                                  "internalType": "bool",
                                  "name": "neg",
                                  "type": "bool"
                                },
                                {
                                  "internalType": "uint256",
                                  "name": "bitlen",
                                  "type": "uint256"
                                }
                              ],
                              "internalType": "struct BigNumber",
                              "name": "value",
                              "type": "tuple"
                            }
                          ],
                          "internalType": "struct Zp",
                          "name": "b",
                          "type": "tuple"
                        }
                      ],
                      "internalType": "struct Zp_2",
                      "name": "a",
                      "type": "tuple"
                    },
                    {
                      "components": [
                        {
                          "components": [
                            {
                              "components": [
                                {
                                  "internalType": "bytes",
                                  "name": "val",
                                  "type": "bytes"
                                },
                                {
                                  "internalType": "bool",
                                  "name": "neg",
                                  "type": "bool"
                                },
                                {
                                  "internalType": "uint256",
                                  "name": "bitlen",
                                  "type": "uint256"
                                }
                              ],
                              "internalType": "struct BigNumber",
                              "name": "value",
                              "type": "tuple"
                            }
                          ],
                          "internalType": "struct Zp",
                          "name": "a",
                          "type": "tuple"
                        },
                        {
                          "components": [
                            {
                              "components": [
                                {
                                  "internalType": "bytes",
                                  "name": "val",
                                  "type": "bytes"
                                },
                                {
                                  "internalType": "bool",
                                  "name": "neg",
                                  "type": "bool"
                                },
                                {
                                  "internalType": "uint256",
                                  "name": "bitlen",
                                  "type": "uint256"
                                }
                              ],
                              "internalType": "struct BigNumber",
                              "name": "value",
                              "type": "tuple"
                            }
                          ],
                          "internalType": "struct Zp",
                          "name": "b",
                          "type": "tuple"
                        }
                      ],
                      "internalType": "struct Zp_2",
                      "name": "b",
                      "type": "tuple"
                    },
                    {
                      "components": [
                        {
                          "components": [
                            {
                              "components": [
                                {
                                  "internalType": "bytes",
                                  "name": "val",
                                  "type": "bytes"
                                },
                                {
                                  "internalType": "bool",
                                  "name": "neg",
                                  "type": "bool"
                                },
                                {
                                  "internalType": "uint256",
                                  "name": "bitlen",
                                  "type": "uint256"
                                }
                              ],
                              "internalType": "struct BigNumber",
                              "name": "value",
                              "type": "tuple"
                            }
                          ],
                          "internalType": "struct Zp",
                          "name": "a",
                          "type": "tuple"
                        },
                        {
                          "components": [
                            {
                              "components": [
                                {
                                  "internalType": "bytes",
                                  "name": "val",
                                  "type": "bytes"
                                },
                                {
                                  "internalType": "bool",
                                  "name": "neg",
                                  "type": "bool"
                                },
                                {
                                  "internalType": "uint256",
                                  "name": "bitlen",
                                  "type": "uint256"
                                }
                              ],
                              "internalType": "struct BigNumber",
                              "name": "value",
                              "type": "tuple"
                            }
                          ],
                          "internalType": "struct Zp",
                          "name": "b",
                          "type": "tuple"
                        }
                      ],
                      "internalType": "struct Zp_2",
                      "name": "c",
                      "type": "tuple"
                    }
                  ],
                  "internalType": "struct Zp_6",
                  "name": "a",
                  "type": "tuple"
                },
                {
                  "components": [
                    {
                      "components": [
                        {
                          "components": [
                            {
                              "components": [
                                {
                                  "internalType": "bytes",
                                  "name": "val",
                                  "type": "bytes"
                                },
                                {
                                  "internalType": "bool",
                                  "name": "neg",
                                  "type": "bool"
                                },
                                {
                                  "internalType": "uint256",
                                  "name": "bitlen",
                                  "type": "uint256"
                                }
                              ],
                              "internalType": "struct BigNumber",
                              "name": "value",
                              "type": "tuple"
                            }
                          ],
                          "internalType": "struct Zp",
                          "name": "a",
                          "type": "tuple"
                        },
                        {
                          "components": [
                            {
                              "components": [
                                {
                                  "internalType": "bytes",
                                  "name": "val",
                                  "type": "bytes"
                                },
                                {
                                  "internalType": "bool",
                                  "name": "neg",
                                  "type": "bool"
                                },
                                {
                                  "internalType": "uint256",
                                  "name": "bitlen",
                                  "type": "uint256"
                                }
                              ],
                              "internalType": "struct BigNumber",
                              "name": "value",
                              "type": "tuple"
                            }
                          ],
                          "internalType": "struct Zp",
                          "name": "b",
                          "type": "tuple"
                        }
                      ],
                      "internalType": "struct Zp_2",
                      "name": "a",
                      "type": "tuple"
                    },
                    {
                      "components": [
                        {
                          "components": [
                            {
                              "components": [
                                {
                                  "internalType": "bytes",
                                  "name": "val",
                                  "type": "bytes"
                                },
                                {
                                  "internalType": "bool",
                                  "name": "neg",
                                  "type": "bool"
                                },
                                {
                                  "internalType": "uint256",
                                  "name": "bitlen",
                                  "type": "uint256"
                                }
                              ],
                              "internalType": "struct BigNumber",
                              "name": "value",
                              "type": "tuple"
                            }
                          ],
                          "internalType": "struct Zp",
                          "name": "a",
                          "type": "tuple"
                        },
                        {
                          "components": [
                            {
                              "components": [
                                {
                                  "internalType": "bytes",
                                  "name": "val",
                                  "type": "bytes"
                                },
                                {
                                  "internalType": "bool",
                                  "name": "neg",
                                  "type": "bool"
                                },
                                {
                                  "internalType": "uint256",
                                  "name": "bitlen",
                                  "type": "uint256"
                                }
                              ],
                              "internalType": "struct BigNumber",
                              "name": "value",
                              "type": "tuple"
                            }
                          ],
                          "internalType": "struct Zp",
                          "name": "b",
                          "type": "tuple"
                        }
                      ],
                      "internalType": "struct Zp_2",
                      "name": "b",
                      "type": "tuple"
                    },
                    {
                      "components": [
                        {
                          "components": [
                            {
                              "components": [
                                {
                                  "internalType": "bytes",
                                  "name": "val",
                                  "type": "bytes"
                                },
                                {
                                  "internalType": "bool",
                                  "name": "neg",
                                  "type": "bool"
                                },
                                {
                                  "internalType": "uint256",
                                  "name": "bitlen",
                                  "type": "uint256"
                                }
                              ],
                              "internalType": "struct BigNumber",
                              "name": "value",
                              "type": "tuple"
                            }
                          ],
                          "internalType": "struct Zp",
                          "name": "a",
                          "type": "tuple"
                        },
                        {
                          "components": [
                            {
                              "components": [
                                {
                                  "internalType": "bytes",
                                  "name": "val",
                                  "type": "bytes"
                                },
                                {
                                  "internalType": "bool",
                                  "name": "neg",
                                  "type": "bool"
                                },
                                {
                                  "internalType": "uint256",
                                  "name": "bitlen",
                                  "type": "uint256"
                                }
                              ],
                              "internalType": "struct BigNumber",
                              "name": "value",
                              "type": "tuple"
                            }
                          ],
                          "internalType": "struct Zp",
                          "name": "b",
                          "type": "tuple"
                        }
                      ],
                      "internalType": "struct Zp_2",
                      "name": "c",
                      "type": "tuple"
                    }
                  ],
                  "internalType": "struct Zp_6",
                  "name": "b",
                  "type": "tuple"
                }
              ],
              "internalType": "struct Zp_12",
              "name": "x",
              "type": "tuple"
            },
            {
              "components": [
                {
                  "components": [
                    {
                      "components": [
                        {
                          "components": [
                            {
                              "components": [
                                {
                                  "internalType": "bytes",
                                  "name": "val",
                                  "type": "bytes"
                                },
                                {
                                  "internalType": "bool",
                                  "name": "neg",
                                  "type": "bool"
                                },
                                {
                                  "internalType": "uint256",
                                  "name": "bitlen",
                                  "type": "uint256"
                                }
                              ],
                              "internalType": "struct BigNumber",
                              "name": "value",
                              "type": "tuple"
                            }
                          ],
                          "internalType": "struct Zp",
                          "name": "a",
                          "type": "tuple"
                        },
                        {
                          "components": [
                            {
                              "components": [
                                {
                                  "internalType": "bytes",
                                  "name": "val",
                                  "type": "bytes"
                                },
                                {
                                  "internalType": "bool",
                                  "name": "neg",
                                  "type": "bool"
                                },
                                {
                                  "internalType": "uint256",
                                  "name": "bitlen",
                                  "type": "uint256"
                                }
                              ],
                              "internalType": "struct BigNumber",
                              "name": "value",
                              "type": "tuple"
                            }
                          ],
                          "internalType": "struct Zp",
                          "name": "b",
                          "type": "tuple"
                        }
                      ],
                      "internalType": "struct Zp_2",
                      "name": "a",
                      "type": "tuple"
                    },
                    {
                      "components": [
                        {
                          "components": [
                            {
                              "components": [
                                {
                                  "internalType": "bytes",
                                  "name": "val",
                                  "type": "bytes"
                                },
                                {
                                  "internalType": "bool",
                                  "name": "neg",
                                  "type": "bool"
                                },
                                {
                                  "internalType": "uint256",
                                  "name": "bitlen",
                                  "type": "uint256"
                                }
                              ],
                              "internalType": "struct BigNumber",
                              "name": "value",
                              "type": "tuple"
                            }
                          ],
                          "internalType": "struct Zp",
                          "name": "a",
                          "type": "tuple"
                        },
                        {
                          "components": [
                            {
                              "components": [
                                {
                                  "internalType": "bytes",
                                  "name": "val",
                                  "type": "bytes"
                                },
                                {
                                  "internalType": "bool",
                                  "name": "neg",
                                  "type": "bool"
                                },
                                {
                                  "internalType": "uint256",
                                  "name": "bitlen",
                                  "type": "uint256"
                                }
                              ],
                              "internalType": "struct BigNumber",
                              "name": "value",
                              "type": "tuple"
                            }
                          ],
                          "internalType": "struct Zp",
                          "name": "b",
                          "type": "tuple"
                        }
                      ],
                      "internalType": "struct Zp_2",
                      "name": "b",
                      "type": "tuple"
                    },
                    {
                      "components": [
                        {
                          "components": [
                            {
                              "components": [
                                {
                                  "internalType": "bytes",
                                  "name": "val",
                                  "type": "bytes"
                                },
                                {
                                  "internalType": "bool",
                                  "name": "neg",
                                  "type": "bool"
                                },
                                {
                                  "internalType": "uint256",
                                  "name": "bitlen",
                                  "type": "uint256"
                                }
                              ],
                              "internalType": "struct BigNumber",
                              "name": "value",
                              "type": "tuple"
                            }
                          ],
                          "internalType": "struct Zp",
                          "name": "a",
                          "type": "tuple"
                        },
                        {
                          "components": [
                            {
                              "components": [
                                {
                                  "internalType": "bytes",
                                  "name": "val",
                                  "type": "bytes"
                                },
                                {
                                  "internalType": "bool",
                                  "name": "neg",
                                  "type": "bool"
                                },
                                {
                                  "internalType": "uint256",
                                  "name": "bitlen",
                                  "type": "uint256"
                                }
                              ],
                              "internalType": "struct BigNumber",
                              "name": "value",
                              "type": "tuple"
                            }
                          ],
                          "internalType": "struct Zp",
                          "name": "b",
                          "type": "tuple"
                        }
                      ],
                      "internalType": "struct Zp_2",
                      "name": "c",
                      "type": "tuple"
                    }
                  ],
                  "internalType": "struct Zp_6",
                  "name": "a",
                  "type": "tuple"
                },
                {
                  "components": [
                    {
                      "components": [
                        {
                          "components": [
                            {
                              "components": [
                                {
                                  "internalType": "bytes",
                                  "name": "val",
                                  "type": "bytes"
                                },
                                {
                                  "internalType": "bool",
                                  "name": "neg",
                                  "type": "bool"
                                },
                                {
                                  "internalType": "uint256",
                                  "name": "bitlen",
                                  "type": "uint256"
                                }
                              ],
                              "internalType": "struct BigNumber",
                              "name": "value",
                              "type": "tuple"
                            }
                          ],
                          "internalType": "struct Zp",
                          "name": "a",
                          "type": "tuple"
                        },
                        {
                          "components": [
                            {
                              "components": [
                                {
                                  "internalType": "bytes",
                                  "name": "val",
                                  "type": "bytes"
                                },
                                {
                                  "internalType": "bool",
                                  "name": "neg",
                                  "type": "bool"
                                },
                                {
                                  "internalType": "uint256",
                                  "name": "bitlen",
                                  "type": "uint256"
                                }
                              ],
                              "internalType": "struct BigNumber",
                              "name": "value",
                              "type": "tuple"
                            }
                          ],
                          "internalType": "struct Zp",
                          "name": "b",
                          "type": "tuple"
                        }
                      ],
                      "internalType": "struct Zp_2",
                      "name": "a",
                      "type": "tuple"
                    },
                    {
                      "components": [
                        {
                          "components": [
                            {
                              "components": [
                                {
                                  "internalType": "bytes",
                                  "name": "val",
                                  "type": "bytes"
                                },
                                {
                                  "internalType": "bool",
                                  "name": "neg",
                                  "type": "bool"
                                },
                                {
                                  "internalType": "uint256",
                                  "name": "bitlen",
                                  "type": "uint256"
                                }
                              ],
                              "internalType": "struct BigNumber",
                              "name": "value",
                              "type": "tuple"
                            }
                          ],
                          "internalType": "struct Zp",
                          "name": "a",
                          "type": "tuple"
                        },
                        {
                          "components": [
                            {
                              "components": [
                                {
                                  "internalType": "bytes",
                                  "name": "val",
                                  "type": "bytes"
                                },
                                {
                                  "internalType": "bool",
                                  "name": "neg",
                                  "type": "bool"
                                },
                                {
                                  "internalType": "uint256",
                                  "name": "bitlen",
                                  "type": "uint256"
                                }
                              ],
                              "internalType": "struct BigNumber",
                              "name": "value",
                              "type": "tuple"
                            }
                          ],
                          "internalType": "struct Zp",
                          "name": "b",
                          "type": "tuple"
                        }
                      ],
                      "internalType": "struct Zp_2",
                      "name": "b",
                      "type": "tuple"
                    },
                    {
                      "components": [
                        {
                          "components": [
                            {
                              "components": [
                                {
                                  "internalType": "bytes",
                                  "name": "val",
                                  "type": "bytes"
                                },
                                {
                                  "internalType": "bool",
                                  "name": "neg",
                                  "type": "bool"
                                },
                                {
                                  "internalType": "uint256",
                                  "name": "bitlen",
                                  "type": "uint256"
                                }
                              ],
                              "internalType": "struct BigNumber",
                              "name": "value",
                              "type": "tuple"
                            }
                          ],
                          "internalType": "struct Zp",
                          "name": "a",
                          "type": "tuple"
                        },
                        {
                          "components": [
                            {
                              "components": [
                                {
                                  "internalType": "bytes",
                                  "name": "val",
                                  "type": "bytes"
                                },
                                {
                                  "internalType": "bool",
                                  "name": "neg",
                                  "type": "bool"
                                },
                                {
                                  "internalType": "uint256",
                                  "name": "bitlen",
                                  "type": "uint256"
                                }
                              ],
                              "internalType": "struct BigNumber",
                              "name": "value",
                              "type": "tuple"
                            }
                          ],
                          "internalType": "struct Zp",
                          "name": "b",
                          "type": "tuple"
                        }
                      ],
                      "internalType": "struct Zp_2",
                      "name": "c",
                      "type": "tuple"
                    }
                  ],
                  "internalType": "struct Zp_6",
                  "name": "b",
                  "type": "tuple"
                }
              ],
              "internalType": "struct Zp_12",
              "name": "y",
              "type": "tuple"
            }
          ],
          "internalType": "struct Point_Zp_12",
          "name": "",
          "type": "tuple"
        }
      ],
      "stateMutability": "view",
      "type": "function"
    }
  ],
  "bytecode": "0x608060405273__$7db5d2dbc3ae63372df6c39d501ad0f72a$__63a48a622a60006040518263ffffffff1660e01b815260040161003c919061129e565b600060405180830381865af4158015610059573d6000803e3d6000fd5b505050506040513d6000823e3d601f19601f82011682018060405250810190610082919061152d565b600080820151816000019081610098919061178d565b5060208201518160010160006101000a81548160ff02191690831515021790555060408201518160020155505073__$7db5d2dbc3ae63372df6c39d501ad0f72a$__63a48a622a60006040518263ffffffff1660e01b81526004016100fd91906118f7565b600060405180830381865af415801561011a573d6000803e3d6000fd5b505050506040513d6000823e3d601f19601f82011682018060405250810190610143919061152d565b6003600082015181600001908161015a919061178d565b5060208201518160010160006101000a81548160ff021916908315150217905550604082015181600201555050600060405161019590611152565b61019f9190611a97565b604051809103906000f0801580156101bb573d6000803e3d6000fd5b50600660006101000a81548173ffffffffffffffffffffffffffffffffffffffff021916908373ffffffffffffffffffffffffffffffffffffffff160217905550600660009054906101000a900473ffffffffffffffffffffffffffffffffffffffff1660405161022b90611160565b6102359190611b2e565b604051809103906000f080158015610251573d6000803e3d6000fd5b50600760006101000a81548173ffffffffffffffffffffffffffffffffffffffff021916908373ffffffffffffffffffffffffffffffffffffffff160217905550600760009054906101000a900473ffffffffffffffffffffffffffffffffffffffff166040516102c19061116e565b6102cb9190611b6a565b604051809103906000f0801580156102e7573d6000803e3d6000fd5b50600860006101000a81548173ffffffffffffffffffffffffffffffffffffffff021916908373ffffffffffffffffffffffffffffffffffffffff160217905550600860009054906101000a900473ffffffffffffffffffffffffffffffffffffffff166040516103579061117c565b6103619190611ba6565b604051809103906000f08015801561037d573d6000803e3d6000fd5b50600960006101000a81548173ffffffffffffffffffffffffffffffffffffffff021916908373ffffffffffffffffffffffffffffffffffffffff160217905550600660009054906101000a900473ffffffffffffffffffffffffffffffffffffffff166040516103ed9061118a565b6103f79190611b2e565b604051809103906000f080158015610413573d6000803e3d6000fd5b50600a60006101000a81548173ffffffffffffffffffffffffffffffffffffffff021916908373ffffffffffffffffffffffffffffffffffffffff160217905550600760009054906101000a900473ffffffffffffffffffffffffffffffffffffffff1660405161048390611198565b61048d9190611b6a565b604051809103906000f0801580156104a9573d6000803e3d6000fd5b50600b60006101000a81548173ffffffffffffffffffffffffffffffffffffffff021916908373ffffffffffffffffffffffffffffffffffffffff160217905550600960009054906101000a900473ffffffffffffffffffffffffffffffffffffffff16604051610519906111a6565b6105239190611be2565b604051809103906000f08015801561053f573d6000803e3d6000fd5b50600c60006101000a81548173ffffffffffffffffffffffffffffffffffffffff021916908373ffffffffffffffffffffffffffffffffffffffff160217905550600a60009054906101000a900473ffffffffffffffffffffffffffffffffffffffff1673ffffffffffffffffffffffffffffffffffffffff16633e0729856000600660009054906101000a900473ffffffffffffffffffffffffffffffffffffffff1673ffffffffffffffffffffffffffffffffffffffff16631701474273__$7db5d2dbc3ae63372df6c39d501ad0f72a$__63a48a622a60006040518263ffffffff1660e01b81526004016106369190611cbb565b600060405180830381865af4158015610653573d6000803e3d6000fd5b505050506040513d6000823e3d601f19601f8201168201806040525081019061067c919061152d565b6040518263ffffffff1660e01b81526004016106989190611d72565b600060405180830381865afa1580156106b5573d6000803e3d6000fd5b505050506040513d6000823e3d601f19601f820116820180604052508101906106de9190611dec565b600660009054906101000a900473ffffffffffffffffffffffffffffffffffffffff1673ffffffffffffffffffffffffffffffffffffffff16631701474273__$7db5d2dbc3ae63372df6c39d501ad0f72a$__63a48a622a60006040518263ffffffff1660e01b81526004016107549190611ef3565b600060405180830381865af4158015610771573d6000803e3d6000fd5b505050506040513d6000823e3d601f19601f8201168201806040525081019061079a919061152d565b6040518263ffffffff1660e01b81526004016107b69190611d72565b600060405180830381865afa1580156107d3573d6000803e3d6000fd5b505050506040513d6000823e3d601f19601f820116820180604052508101906107fc9190611dec565b6040518463ffffffff1660e01b815260040161081a93929190612012565b600060405180830381865afa158015610837573d6000803e3d6000fd5b505050506040513d6000823e3d601f19601f820116820180604052508101906108609190612118565b600d60008201518160000160006101000a81548160ff0219169083600181111561088d5761088c611f21565b5b021790555060208201518160010160008201518160000160008201518160000190816108b9919061178d565b5060208201518160010160006101000a81548160ff0219169083151502179055506040820151816002015550505050604082015181600401600082015181600001600082015181600001908161090f919061178d565b5060208201518160010160006101000a81548160ff02191690831515021790555060408201518160020155505050505050600b60009054906101000a900473ffffffffffffffffffffffffffffffffffffffff1673ffffffffffffffffffffffffffffffffffffffff1663bedacbae6000600760009054906101000a900473ffffffffffffffffffffffffffffffffffffffff1673ffffffffffffffffffffffffffffffffffffffff1663c700da6b600660009054906101000a900473ffffffffffffffffffffffffffffffffffffffff1673ffffffffffffffffffffffffffffffffffffffff16631701474273__$7db5d2dbc3ae63372df6c39d501ad0f72a$__63a48a622a60006040518263ffffffff1660e01b8152600401610a34919061221f565b600060405180830381865af4158015610a51573d6000803e3d6000fd5b505050506040513d6000823e3d601f19601f82011682018060405250810190610a7a919061152d565b6040518263ffffffff1660e01b8152600401610a969190611d72565b600060405180830381865afa158015610ab3573d6000803e3d6000fd5b505050506040513d6000823e3d601f19601f82011682018060405250810190610adc9190611dec565b600660009054906101000a900473ffffffffffffffffffffffffffffffffffffffff1673ffffffffffffffffffffffffffffffffffffffff16631701474273__$7db5d2dbc3ae63372df6c39d501ad0f72a$__63a48a622a60006040518263ffffffff1660e01b8152600401610b52919061230b565b600060405180830381865af4158015610b6f573d6000803e3d6000fd5b505050506040513d6000823e3d601f19601f82011682018060405250810190610b98919061152d565b6040518263ffffffff1660e01b8152600401610bb49190611d72565b600060405180830381865afa158015610bd1573d6000803e3d6000fd5b505050506040513d6000823e3d601f19601f82011682018060405250810190610bfa9190611dec565b6040518363ffffffff1660e01b8152600401610c17929190612339565b600060405180830381865afa158015610c34573d6000803e3d6000fd5b505050506040513d6000823e3d601f19601f82011682018060405250810190610c5d91906123f8565b600760009054906101000a900473ffffffffffffffffffffffffffffffffffffffff1673ffffffffffffffffffffffffffffffffffffffff1663c700da6b600660009054906101000a900473ffffffffffffffffffffffffffffffffffffffff1673ffffffffffffffffffffffffffffffffffffffff16631701474273__$7db5d2dbc3ae63372df6c39d501ad0f72a$__63a48a622a60006040518263ffffffff1660e01b8152600401610d1191906124ff565b600060405180830381865af4158015610d2e573d6000803e3d6000fd5b505050506040513d6000823e3d601f19601f82011682018060405250810190610d57919061152d565b6040518263ffffffff1660e01b8152600401610d739190611d72565b600060405180830381865afa158015610d90573d6000803e3d6000fd5b505050506040513d6000823e3d601f19601f82011682018060405250810190610db99190611dec565b600660009054906101000a900473ffffffffffffffffffffffffffffffffffffffff1673ffffffffffffffffffffffffffffffffffffffff16631701474273__$7db5d2dbc3ae63372df6c39d501ad0f72a$__63a48a622a60006040518263ffffffff1660e01b8152600401610e2f91906125eb565b600060405180830381865af4158015610e4c573d6000803e3d6000fd5b505050506040513d6000823e3d601f19601f82011682018060405250810190610e75919061152d565b6040518263ffffffff1660e01b8152600401610e919190611d72565b600060405180830381865afa158015610eae573d6000803e3d6000fd5b505050506040513d6000823e3d601f19601f82011682018060405250810190610ed79190611dec565b6040518363ffffffff1660e01b8152600401610ef4929190612339565b600060405180830381865afa158015610f11573d6000803e3d6000fd5b505050506040513d6000823e3d601f19601f82011682018060405250810190610f3a91906123f8565b6040518463ffffffff1660e01b8152600401610f5893929190612687565b600060405180830381865afa158015610f75573d6000803e3d6000fd5b505050506040513d6000823e3d601f19601f82011682018060405250810190610f9e9190612768565b601460008201518160000160006101000a81548160ff02191690836001811115610fcb57610fca611f21565b5b02179055506020820151816001016000820151816000016000820151816000016000820151816000019081611000919061178d565b5060208201518160010160006101000a81548160ff02191690831515021790555060408201518160020155505050506020820151816003016000820151816000016000820151816000019081611056919061178d565b5060208201518160010160006101000a81548160ff0219169083151502179055506040820151816002015550505050505060408201518160070160008201518160000160008201518160000160008201518160000190816110b7919061178d565b5060208201518160010160006101000a81548160ff0219169083151502179055506040820151816002015550505050602082015181600301600082015181600001600082015181600001908161110d919061178d565b5060208201518160010160006101000a81548160ff02191690831515021790555060408201518160020155505050505050505034801561114c57600080fd5b506127b1565b612ee5806200609383390190565b61225b8062008f7883390190565b613842806200b1d383390190565b6124c1806200ea1583390190565b612cd88062010ed683390190565b612e6d8062013bae83390190565b6131e88062016a1b83390190565b600082825260208201905092915050565b7f307831613031313165613339376665363961346231626137623634333462616360008201527f643736343737346238346633383531326266363733306432613066366230663660208201527f323431656162666666656231353366666666623966656666666666666666616160408201527f6162000000000000000000000000000000000000000000000000000000000000606082015250565b600061126d6062836111b4565b9150611278826111c5565b608082019050919050565b60008115159050919050565b61129881611283565b82525050565b600060408201905081810360008301526112b781611260565b90506112c6602083018461128f565b92915050565b6000604051905090565b600080fd5b600080fd5b600080fd5b6000601f19601f8301169050919050565b7f4e487b7100000000000000000000000000000000000000000000000000000000600052604160045260246000fd5b61132e826112e5565b810181811067ffffffffffffffff8211171561134d5761134c6112f6565b5b80604052505050565b60006113606112cc565b905061136c8282611325565b919050565b600080fd5b600080fd5b600080fd5b600067ffffffffffffffff82111561139b5761139a6112f6565b5b6113a4826112e5565b9050602081019050919050565b60005b838110156113cf5780820151818401526020810190506113b4565b60008484015250505050565b60006113ee6113e984611380565b611356565b90508281526020810184848401111561140a5761140961137b565b5b6114158482856113b1565b509392505050565b600082601f83011261143257611431611376565b5b81516114428482602086016113db565b91505092915050565b61145481611283565b811461145f57600080fd5b50565b6000815190506114718161144b565b92915050565b6000819050919050565b61148a81611477565b811461149557600080fd5b50565b6000815190506114a781611481565b92915050565b6000606082840312156114c3576114c26112e0565b5b6114cd6060611356565b9050600082015167ffffffffffffffff8111156114ed576114ec611371565b5b6114f98482850161141d565b600083015250602061150d84828501611462565b602083015250604061152184828501611498565b60408301525092915050565b600060208284031215611543576115426112d6565b5b600082015167ffffffffffffffff811115611561576115606112db565b5b61156d848285016114ad565b91505092915050565b600081519050919050565b7f4e487b7100000000000000000000000000000000000000000000000000000000600052602260045260246000fd5b600060028204905060018216806115c857607f821691505b6020821081036115db576115da611581565b5b50919050565b60008190508160005260206000209050919050565b60006020601f8301049050919050565b600082821b905092915050565b6000600883026116437fffffffffffffffffffffffffffffffffffffffffffffffffffffffffffffffff82611606565b61164d8683611606565b95508019841693508086168417925050509392505050565b6000819050919050565b600061168a61168561168084611477565b611665565b611477565b9050919050565b6000819050919050565b6116a48361166f565b6116b86116b082611691565b848454611613565b825550505050565b600090565b6116cd6116c0565b6116d881848461169b565b505050565b5b818110156116fc576116f16000826116c5565b6001810190506116de565b5050565b601f82111561174157611712816115e1565b61171b846115f6565b8101602085101561172a578190505b61173e611736856115f6565b8301826116dd565b50505b505050565b600082821c905092915050565b600061176460001984600802611746565b1980831691505092915050565b600061177d8383611753565b9150826002028217905092915050565b61179682611576565b67ffffffffffffffff8111156117af576117ae6112f6565b5b6117b982546115b0565b6117c4828285611700565b600060209050601f8311600181146117f757600084156117e5578287015190505b6117ef8582611771565b865550611857565b601f198416611805866115e1565b60005b8281101561182d57848901518255600182019150602085019450602081019050611808565b8683101561184a5784890151611846601f891682611753565b8355505b6001600288020188555050505b505050505050565b7f307837336564613735333239396437643438333333396438303830396131643860008201527f303535336264613430326666666535626665666666666666666630303030303060208201527f3031000000000000000000000000000000000000000000000000000000000000604082015250565b60006118e16042836111b4565b91506118ec8261185f565b606082019050919050565b60006040820190508181036000830152611910816118d4565b905061191f602083018461128f565b92915050565b600082825260208201905092915050565b60008154611943816115b0565b61194d8186611925565b94506001821660008114611968576001811461197e576119b1565b60ff1983168652811515602002860193506119b1565b611987856115e1565b60005b838110156119a95781548189015260018201915060208101905061198a565b808801955050505b50505092915050565b60008160001c9050919050565b600060ff82169050919050565b60006119e76119e2836119ba565b6119c7565b9050919050565b6119f781611283565b82525050565b6000819050919050565b6000611a1a611a15836119ba565b6119fd565b9050919050565b611a2a81611477565b82525050565b60006060830160008084018583036000870152611a4d8382611936565b92505060018401549050611a60816119d4565b611a6d60208701826119ee565b5060028401549050611a7e81611a07565b611a8b6040870182611a21565b50819250505092915050565b60006020820190508181036000830152611ab18184611a30565b905092915050565b600073ffffffffffffffffffffffffffffffffffffffff82169050919050565b6000611af4611aef611aea84611ab9565b611665565b611ab9565b9050919050565b6000611b0682611ad9565b9050919050565b6000611b1882611afb565b9050919050565b611b2881611b0d565b82525050565b6000602082019050611b436000830184611b1f565b92915050565b6000611b5482611afb565b9050919050565b611b6481611b49565b82525050565b6000602082019050611b7f6000830184611b5b565b92915050565b6000611b9082611afb565b9050919050565b611ba081611b85565b82525050565b6000602082019050611bbb6000830184611b97565b92915050565b6000611bcc82611afb565b9050919050565b611bdc81611bc1565b82525050565b6000602082019050611bf76000830184611bd3565b92915050565b7f307831376631643361373331393764373934323639353633386334666139616360008201527f306663333638386334663937373462393035613134653361336631373162616360208201527f353836633535653833666639376131616566666233616630306164623232633660408201527f6262000000000000000000000000000000000000000000000000000000000000606082015250565b6000611ca56062836111b4565b9150611cb082611bfd565b608082019050919050565b60006040820190508181036000830152611cd481611c98565b9050611ce3602083018461128f565b92915050565b6000611cf482611576565b611cfe8185611925565b9350611d0e8185602086016113b1565b611d17816112e5565b840191505092915050565b60006060830160008301518482036000860152611d3f8282611ce9565b9150506020830151611d5460208601826119ee565b506040830151611d676040860182611a21565b508091505092915050565b60006020820190508181036000830152611d8c8184611d22565b905092915050565b600060208284031215611daa57611da96112e0565b5b611db46020611356565b9050600082015167ffffffffffffffff811115611dd457611dd3611371565b5b611de0848285016114ad565b60008301525092915050565b600060208284031215611e0257611e016112d6565b5b600082015167ffffffffffffffff811115611e2057611e1f6112db565b5b611e2c84828501611d94565b91505092915050565b7f307830386233663438316533616161306631613039653330656437343164386160008201527f653466636635653039356435643030616636303064623138636232633034623360208201527f656464303363633734346132383838616534306361613233323934366335653760408201527f6531000000000000000000000000000000000000000000000000000000000000606082015250565b6000611edd6062836111b4565b9150611ee882611e35565b608082019050919050565b60006040820190508181036000830152611f0c81611ed0565b9050611f1b602083018461128f565b92915050565b7f4e487b7100000000000000000000000000000000000000000000000000000000600052602160045260246000fd5b60028110611f6157611f60611f21565b5b50565b6000819050611f7282611f50565b919050565b6000611f8282611f64565b9050919050565b611f9281611f77565b82525050565b60006060830160008301518482036000860152611fb58282611ce9565b9150506020830151611fca60208601826119ee565b506040830151611fdd6040860182611a21565b508091505092915050565b600060208301600083015184820360008601526120058282611f98565b9150508091505092915050565b60006060820190506120276000830186611f89565b81810360208301526120398185611fe8565b9050818103604083015261204d8184611fe8565b9050949350505050565b6002811061206457600080fd5b50565b60008151905061207681612057565b92915050565b600060608284031215612092576120916112e0565b5b61209c6060611356565b905060006120ac84828501612067565b600083015250602082015167ffffffffffffffff8111156120d0576120cf611371565b5b6120dc84828501611d94565b602083015250604082015167ffffffffffffffff811115612100576120ff611371565b5b61210c84828501611d94565b60408301525092915050565b60006020828403121561212e5761212d6112d6565b5b600082015167ffffffffffffffff81111561214c5761214b6112db565b5b6121588482850161207c565b91505092915050565b7f307831336530326236303532373139663630376461636433613038383237346660008201527f363535393662643064303939323062363161623564613631626264633766353060208201527f343933333463663131323133393435643537653561633764303535643034326260408201527f3765000000000000000000000000000000000000000000000000000000000000606082015250565b60006122096062836111b4565b915061221482612161565b608082019050919050565b60006040820190508181036000830152612238816121fc565b9050612247602083018461128f565b92915050565b7f307830323461613262326630386630613931323630383035323732646335313060008201527f353163366534376164346661343033623032623435313062363437616533643160208201527f373730626163303332366138303562626566643438303536633863313231626460408201527f6238000000000000000000000000000000000000000000000000000000000000606082015250565b60006122f56062836111b4565b91506123008261224d565b608082019050919050565b60006040820190508181036000830152612324816122e8565b9050612333602083018461128f565b92915050565b600060408201905081810360008301526123538185611fe8565b905081810360208301526123678184611fe8565b90509392505050565b600060408284031215612386576123856112e0565b5b6123906040611356565b9050600082015167ffffffffffffffff8111156123b0576123af611371565b5b6123bc84828501611d94565b600083015250602082015167ffffffffffffffff8111156123e0576123df611371565b5b6123ec84828501611d94565b60208301525092915050565b60006020828403121561240e5761240d6112d6565b5b600082015167ffffffffffffffff81111561242c5761242b6112db565b5b61243884828501612370565b91505092915050565b7f307830363036633461303265613733346363333261636432623032626332386260008201527f393963623365323837653835613736336166323637343932616235373265393960208201527f616233663337306432373563656331646131616161393037356666303566373960408201527f6265000000000000000000000000000000000000000000000000000000000000606082015250565b60006124e96062836111b4565b91506124f482612441565b608082019050919050565b60006040820190508181036000830152612518816124dc565b9050612527602083018461128f565b92915050565b7f307830636535643532373732376436653131386363396364633664613265333560008201527f316161646664396261613863626464336137366434323961363935313630643160208201527f326339323361633963633362616361323839653139333534383630386238323860408201527f3031000000000000000000000000000000000000000000000000000000000000606082015250565b60006125d56062836111b4565b91506125e08261252d565b608082019050919050565b60006040820190508181036000830152612604816125c8565b9050612613602083018461128f565b92915050565b600060208301600083015184820360008601526126368282611f98565b9150508091505092915050565b600060408301600083015184820360008601526126608282612619565b9150506020830151848203602086015261267a8282612619565b9150508091505092915050565b600060608201905061269c6000830186611f89565b81810360208301526126ae8185612643565b905081810360408301526126c28184612643565b9050949350505050565b6000606082840312156126e2576126e16112e0565b5b6126ec6060611356565b905060006126fc84828501612067565b600083015250602082015167ffffffffffffffff8111156127205761271f611371565b5b61272c84828501612370565b602083015250604082015167ffffffffffffffff8111156127505761274f611371565b5b61275c84828501612370565b60408301525092915050565b60006020828403121561277e5761277d6112d6565b5b600082015167ffffffffffffffff81111561279c5761279b6112db565b5b6127a8848285016126cc565b91505092915050565b6138d280620027c16000396000f3fe608060405234801561001057600080fd5b50600436106100625760003560e01c806301f7cb4b1461006757806314cb7ac3146100975780632dd380dc146100c7578063b5e5eaaf146100f7578063c026734514610127578063f4aff06414610157575b600080fd5b610081600480360381019061007c919061251d565b610187565b60405161008e9190612575565b60405180910390f35b6100b160048036038101906100ac919061251d565b610644565b6040516100be919061285b565b60405180910390f35b6100e160048036038101906100dc9190612a59565b6115a9565b6040516100ee9190612575565b60405180910390f35b610111600480360381019061010c9190612b3e565b6119c6565b60405161011e9190612575565b60405180910390f35b610141600480360381019061013c919061251d565b611a9c565b60405161014e9190612575565b60405180910390f35b610171600480360381019061016c9190612b3e565b611b73565b60405161017e9190612575565b60405180910390f35b600060018081111561019c5761019b612590565b5b826000015160018111156101b3576101b2612590565b5b036101c1576000905061063f565b6000600760009054906101000a900473ffffffffffffffffffffffffffffffffffffffff1673ffffffffffffffffffffffffffffffffffffffff166307a5ecaa846040015185604001516040518363ffffffff1660e01b8152600401610228929190612bcb565b600060405180830381865afa158015610245573d6000803e3d6000fd5b505050506040513d6000823e3d601f19601f8201168201806040525081019061026e9190612dfc565b90506000600760009054906101000a900473ffffffffffffffffffffffffffffffffffffffff1673ffffffffffffffffffffffffffffffffffffffff1663fbb740a8600760009054906101000a900473ffffffffffffffffffffffffffffffffffffffff1673ffffffffffffffffffffffffffffffffffffffff166307a5ecaa600760009054906101000a900473ffffffffffffffffffffffffffffffffffffffff1673ffffffffffffffffffffffffffffffffffffffff166307a5ecaa89602001518a602001516040518363ffffffff1660e01b8152600401610353929190612bcb565b600060405180830381865afa158015610370573d6000803e3d6000fd5b505050506040513d6000823e3d601f19601f820116820180604052508101906103999190612dfc565b88602001516040518363ffffffff1660e01b81526004016103bb929190612bcb565b600060405180830381865afa1580156103d8573d6000803e3d6000fd5b505050506040513d6000823e3d601f19601f820116820180604052508101906104019190612dfc565b600760009054906101000a900473ffffffffffffffffffffffffffffffffffffffff1673ffffffffffffffffffffffffffffffffffffffff16639d2e83f5600760009054906101000a900473ffffffffffffffffffffffffffffffffffffffff1673ffffffffffffffffffffffffffffffffffffffff1663a1fca2b66040518163ffffffff1660e01b8152600401600060405180830381865afa1580156104ac573d6000803e3d6000fd5b505050506040513d6000823e3d601f19601f820116820180604052508101906104d59190612dfc565b6040518263ffffffff1660e01b81526004016104f19190612e45565b600060405180830381865afa15801561050e573d6000803e3d6000fd5b505050506040513d6000823e3d601f19601f820116820180604052508101906105379190612dfc565b6040518363ffffffff1660e01b8152600401610554929190612bcb565b600060405180830381865afa158015610571573d6000803e3d6000fd5b505050506040513d6000823e3d601f19601f8201168201806040525081019061059a9190612dfc565b9050600760009054906101000a900473ffffffffffffffffffffffffffffffffffffffff1673ffffffffffffffffffffffffffffffffffffffff1663ab80cf7683836040518363ffffffff1660e01b81526004016105f9929190612bcb565b602060405180830381865afa158015610616573d6000803e3d6000fd5b505050506040513d601f19601f8201168201806040525081019061063a9190612e67565b925050505b919050565b61064c612030565b6000600860009054906101000a900473ffffffffffffffffffffffffffffffffffffffff1673ffffffffffffffffffffffffffffffffffffffff16639faceb7e600760009054906101000a900473ffffffffffffffffffffffffffffffffffffffff1673ffffffffffffffffffffffffffffffffffffffff1663bc1b392d6040518163ffffffff1660e01b8152600401600060405180830381865afa1580156106f9573d6000803e3d6000fd5b505050506040513d6000823e3d601f19601f820116820180604052508101906107229190612dfc565b600760009054906101000a900473ffffffffffffffffffffffffffffffffffffffff1673ffffffffffffffffffffffffffffffffffffffff1663c700da6b600660009054906101000a900473ffffffffffffffffffffffffffffffffffffffff1673ffffffffffffffffffffffffffffffffffffffff1663901717d16040518163ffffffff1660e01b8152600401600060405180830381865afa1580156107cd573d6000803e3d6000fd5b505050506040513d6000823e3d601f19601f820116820180604052508101906107f69190612e94565b600660009054906101000a900473ffffffffffffffffffffffffffffffffffffffff1673ffffffffffffffffffffffffffffffffffffffff1663bc1b392d6040518163ffffffff1660e01b8152600401600060405180830381865afa158015610863573d6000803e3d6000fd5b505050506040513d6000823e3d601f19601f8201168201806040525081019061088c9190612e94565b6040518363ffffffff1660e01b81526004016108a9929190612f07565b600060405180830381865afa1580156108c6573d6000803e3d6000fd5b505050506040513d6000823e3d601f19601f820116820180604052508101906108ef9190612dfc565b600760009054906101000a900473ffffffffffffffffffffffffffffffffffffffff1673ffffffffffffffffffffffffffffffffffffffff1663bc1b392d6040518163ffffffff1660e01b8152600401600060405180830381865afa15801561095c573d6000803e3d6000fd5b505050506040513d6000823e3d601f19601f820116820180604052508101906109859190612dfc565b6040518463ffffffff1660e01b81526004016109a393929190612f3e565b600060405180830381865afa1580156109c0573d6000803e3d6000fd5b505050506040513d6000823e3d601f19601f820116820180604052508101906109e99190613042565b90506000600960009054906101000a900473ffffffffffffffffffffffffffffffffffffffff1673ffffffffffffffffffffffffffffffffffffffff1663f87386c3600860009054906101000a900473ffffffffffffffffffffffffffffffffffffffff1673ffffffffffffffffffffffffffffffffffffffff16639faceb7e8760200151600760009054906101000a900473ffffffffffffffffffffffffffffffffffffffff1673ffffffffffffffffffffffffffffffffffffffff1663bc1b392d6040518163ffffffff1660e01b8152600401600060405180830381865afa158015610adb573d6000803e3d6000fd5b505050506040513d6000823e3d601f19601f82011682018060405250810190610b049190612dfc565b600760009054906101000a900473ffffffffffffffffffffffffffffffffffffffff1673ffffffffffffffffffffffffffffffffffffffff1663bc1b392d6040518163ffffffff1660e01b8152600401600060405180830381865afa158015610b71573d6000803e3d6000fd5b505050506040513d6000823e3d601f19601f82011682018060405250810190610b9a9190612dfc565b6040518463ffffffff1660e01b8152600401610bb893929190612f3e565b600060405180830381865afa158015610bd5573d6000803e3d6000fd5b505050506040513d6000823e3d601f19601f82011682018060405250810190610bfe9190613042565b600860009054906101000a900473ffffffffffffffffffffffffffffffffffffffff1673ffffffffffffffffffffffffffffffffffffffff1663bc1b392d6040518163ffffffff1660e01b8152600401600060405180830381865afa158015610c6b573d6000803e3d6000fd5b505050506040513d6000823e3d601f19601f82011682018060405250810190610c949190613042565b6040518363ffffffff1660e01b8152600401610cb19291906130e9565b600060405180830381865afa158015610cce573d6000803e3d6000fd5b505050506040513d6000823e3d601f19601f82011682018060405250810190610cf791906131a8565b90506000600960009054906101000a900473ffffffffffffffffffffffffffffffffffffffff1673ffffffffffffffffffffffffffffffffffffffff1663f87386c3600860009054906101000a900473ffffffffffffffffffffffffffffffffffffffff1673ffffffffffffffffffffffffffffffffffffffff16639faceb7e8860400151600760009054906101000a900473ffffffffffffffffffffffffffffffffffffffff1673ffffffffffffffffffffffffffffffffffffffff1663bc1b392d6040518163ffffffff1660e01b8152600401600060405180830381865afa158015610de9573d6000803e3d6000fd5b505050506040513d6000823e3d601f19601f82011682018060405250810190610e129190612dfc565b600760009054906101000a900473ffffffffffffffffffffffffffffffffffffffff1673ffffffffffffffffffffffffffffffffffffffff1663bc1b392d6040518163ffffffff1660e01b8152600401600060405180830381865afa158015610e7f573d6000803e3d6000fd5b505050506040513d6000823e3d601f19601f82011682018060405250810190610ea89190612dfc565b6040518463ffffffff1660e01b8152600401610ec693929190612f3e565b600060405180830381865afa158015610ee3573d6000803e3d6000fd5b505050506040513d6000823e3d601f19601f82011682018060405250810190610f0c9190613042565b600860009054906101000a900473ffffffffffffffffffffffffffffffffffffffff1673ffffffffffffffffffffffffffffffffffffffff1663bc1b392d6040518163ffffffff1660e01b8152600401600060405180830381865afa158015610f79573d6000803e3d6000fd5b505050506040513d6000823e3d601f19601f82011682018060405250810190610fa29190613042565b6040518363ffffffff1660e01b8152600401610fbf9291906130e9565b600060405180830381865afa158015610fdc573d6000803e3d6000fd5b505050506040513d6000823e3d601f19601f8201168201806040525081019061100591906131a8565b9050600c60009054906101000a900473ffffffffffffffffffffffffffffffffffffffff1673ffffffffffffffffffffffffffffffffffffffff16631d763e266000600960009054906101000a900473ffffffffffffffffffffffffffffffffffffffff1673ffffffffffffffffffffffffffffffffffffffff166377839c6986600960009054906101000a900473ffffffffffffffffffffffffffffffffffffffff1673ffffffffffffffffffffffffffffffffffffffff1663f6700795600960009054906101000a900473ffffffffffffffffffffffffffffffffffffffff1673ffffffffffffffffffffffffffffffffffffffff1663f87386c38c600860009054906101000a900473ffffffffffffffffffffffffffffffffffffffff1673ffffffffffffffffffffffffffffffffffffffff1663bc1b392d6040518163ffffffff1660e01b8152600401600060405180830381865afa158015611170573d6000803e3d6000fd5b505050506040513d6000823e3d601f19601f820116820180604052508101906111999190613042565b6040518363ffffffff1660e01b81526004016111b69291906130e9565b600060405180830381865afa1580156111d3573d6000803e3d6000fd5b505050506040513d6000823e3d601f19601f820116820180604052508101906111fc91906131a8565b6040518263ffffffff1660e01b81526004016112189190613235565b600060405180830381865afa158015611235573d6000803e3d6000fd5b505050506040513d6000823e3d601f19601f8201168201806040525081019061125e91906131a8565b6040518363ffffffff1660e01b815260040161127b929190613257565b600060405180830381865afa158015611298573d6000803e3d6000fd5b505050506040513d6000823e3d601f19601f820116820180604052508101906112c191906131a8565b600960009054906101000a900473ffffffffffffffffffffffffffffffffffffffff1673ffffffffffffffffffffffffffffffffffffffff166377839c6986600960009054906101000a900473ffffffffffffffffffffffffffffffffffffffff1673ffffffffffffffffffffffffffffffffffffffff1663f6700795600960009054906101000a900473ffffffffffffffffffffffffffffffffffffffff1673ffffffffffffffffffffffffffffffffffffffff1663f87386c3600860009054906101000a900473ffffffffffffffffffffffffffffffffffffffff1673ffffffffffffffffffffffffffffffffffffffff1663bc1b392d6040518163ffffffff1660e01b8152600401600060405180830381865afa1580156113e9573d6000803e3d6000fd5b505050506040513d6000823e3d601f19601f820116820180604052508101906114129190613042565b8e6040518363ffffffff1660e01b81526004016114309291906130e9565b600060405180830381865afa15801561144d573d6000803e3d6000fd5b505050506040513d6000823e3d601f19601f8201168201806040525081019061147691906131a8565b6040518263ffffffff1660e01b81526004016114929190613235565b600060405180830381865afa1580156114af573d6000803e3d6000fd5b505050506040513d6000823e3d601f19601f820116820180604052508101906114d891906131a8565b6040518363ffffffff1660e01b81526004016114f5929190613257565b600060405180830381865afa158015611512573d6000803e3d6000fd5b505050506040513d6000823e3d601f19601f8201168201806040525081019061153b91906131a8565b6040518463ffffffff1660e01b81526004016115599392919061329d565b600060405180830381865afa158015611576573d6000803e3d6000fd5b505050506040513d6000823e3d601f19601f8201168201806040525081019061159f9190613393565b9350505050919050565b60006001808111156115be576115bd612590565b5b826000015160018111156115d5576115d4612590565b5b036115e357600090506119c1565b6000600960009054906101000a900473ffffffffffffffffffffffffffffffffffffffff1673ffffffffffffffffffffffffffffffffffffffff166377839c69846040015185604001516040518363ffffffff1660e01b815260040161164a929190613257565b600060405180830381865afa158015611667573d6000803e3d6000fd5b505050506040513d6000823e3d601f19601f8201168201806040525081019061169091906131a8565b90506000600960009054906101000a900473ffffffffffffffffffffffffffffffffffffffff1673ffffffffffffffffffffffffffffffffffffffff16639e0ddc50600960009054906101000a900473ffffffffffffffffffffffffffffffffffffffff1673ffffffffffffffffffffffffffffffffffffffff166377839c69600960009054906101000a900473ffffffffffffffffffffffffffffffffffffffff1673ffffffffffffffffffffffffffffffffffffffff166377839c6989602001518a602001516040518363ffffffff1660e01b8152600401611775929190613257565b600060405180830381865afa158015611792573d6000803e3d6000fd5b505050506040513d6000823e3d601f19601f820116820180604052508101906117bb91906131a8565b88602001516040518363ffffffff1660e01b81526004016117dd929190613257565b600060405180830381865afa1580156117fa573d6000803e3d6000fd5b505050506040513d6000823e3d601f19601f8201168201806040525081019061182391906131a8565b600960009054906101000a900473ffffffffffffffffffffffffffffffffffffffff1673ffffffffffffffffffffffffffffffffffffffff1663a1fca2b66040518163ffffffff1660e01b8152600401600060405180830381865afa158015611890573d6000803e3d6000fd5b505050506040513d6000823e3d601f19601f820116820180604052508101906118b991906131a8565b6040518363ffffffff1660e01b81526004016118d6929190613257565b600060405180830381865afa1580156118f3573d6000803e3d6000fd5b505050506040513d6000823e3d601f19601f8201168201806040525081019061191c91906131a8565b9050600960009054906101000a900473ffffffffffffffffffffffffffffffffffffffff1673ffffffffffffffffffffffffffffffffffffffff16639eea8ce883836040518363ffffffff1660e01b815260040161197b929190613257565b602060405180830381865afa158015611998573d6000803e3d6000fd5b505050506040513d601f19601f820116820180604052508101906119bc9190612e67565b925050505b919050565b60008060018111156119db576119da612590565b5b600a60009054906101000a900473ffffffffffffffffffffffffffffffffffffffff1673ffffffffffffffffffffffffffffffffffffffff16627995936003856040518363ffffffff1660e01b8152600401611a389291906135eb565b600060405180830381865afa158015611a55573d6000803e3d6000fd5b505050506040513d6000823e3d601f19601f82011682018060405250810190611a7e91906136be565b600001516001811115611a9457611a93612590565b5b149050919050565b6000806001811115611ab157611ab0612590565b5b600b60009054906101000a900473ffffffffffffffffffffffffffffffffffffffff1673ffffffffffffffffffffffffffffffffffffffff166355e359c86003856040518363ffffffff1660e01b8152600401611b0f92919061375e565b600060405180830381865afa158015611b2c573d6000803e3d6000fd5b505050506040513d6000823e3d601f19601f82011682018060405250810190611b559190613831565b600001516001811115611b6b57611b6a612590565b5b149050919050565b6000600180811115611b8857611b87612590565b5b82600001516001811115611b9f57611b9e612590565b5b03611bad576000905061202b565b6000600660009054906101000a900473ffffffffffffffffffffffffffffffffffffffff1673ffffffffffffffffffffffffffffffffffffffff1663b5e28325846040015185604001516040518363ffffffff1660e01b8152600401611c14929190612f07565b600060405180830381865afa158015611c31573d6000803e3d6000fd5b505050506040513d6000823e3d601f19601f82011682018060405250810190611c5a9190612e94565b90506000600660009054906101000a900473ffffffffffffffffffffffffffffffffffffffff1673ffffffffffffffffffffffffffffffffffffffff1663a9a52e7e600660009054906101000a900473ffffffffffffffffffffffffffffffffffffffff1673ffffffffffffffffffffffffffffffffffffffff1663b5e28325600660009054906101000a900473ffffffffffffffffffffffffffffffffffffffff1673ffffffffffffffffffffffffffffffffffffffff1663b5e2832589602001518a602001516040518363ffffffff1660e01b8152600401611d3f929190612f07565b600060405180830381865afa158015611d5c573d6000803e3d6000fd5b505050506040513d6000823e3d601f19601f82011682018060405250810190611d859190612e94565b88602001516040518363ffffffff1660e01b8152600401611da7929190612f07565b600060405180830381865afa158015611dc4573d6000803e3d6000fd5b505050506040513d6000823e3d601f19601f82011682018060405250810190611ded9190612e94565b600660009054906101000a900473ffffffffffffffffffffffffffffffffffffffff1673ffffffffffffffffffffffffffffffffffffffff1663085eb2b9600660009054906101000a900473ffffffffffffffffffffffffffffffffffffffff1673ffffffffffffffffffffffffffffffffffffffff1663a1fca2b66040518163ffffffff1660e01b8152600401600060405180830381865afa158015611e98573d6000803e3d6000fd5b505050506040513d6000823e3d601f19601f82011682018060405250810190611ec19190612e94565b6040518263ffffffff1660e01b8152600401611edd919061387a565b600060405180830381865afa158015611efa573d6000803e3d6000fd5b505050506040513d6000823e3d601f19601f82011682018060405250810190611f239190612e94565b6040518363ffffffff1660e01b8152600401611f40929190612f07565b600060405180830381865afa158015611f5d573d6000803e3d6000fd5b505050506040513d6000823e3d601f19601f82011682018060405250810190611f869190612e94565b9050600660009054906101000a900473ffffffffffffffffffffffffffffffffffffffff1673ffffffffffffffffffffffffffffffffffffffff1663d4d4555483836040518363ffffffff1660e01b8152600401611fe5929190612f07565b602060405180830381865afa158015612002573d6000803e3d6000fd5b505050506040513d601f19601f820116820180604052508101906120269190612e67565b925050505b919050565b60405180606001604052806000600181111561204f5761204e612590565b5b815260200161205c61206f565b815260200161206961206f565b81525090565b6040518060400160405280612082612095565b815260200161208f612095565b81525090565b60405180606001604052806120a86120c8565b81526020016120b56120c8565b81526020016120c26120c8565b81525090565b60405180604001604052806120db6120ee565b81526020016120e86120ee565b81525090565b6040518060200160405280612101612107565b81525090565b604051806060016040528060608152602001600015158152602001600081525090565b6000604051905090565b600080fd5b600080fd5b600080fd5b6000601f19601f8301169050919050565b7f4e487b7100000000000000000000000000000000000000000000000000000000600052604160045260246000fd5b61218c82612143565b810181811067ffffffffffffffff821117156121ab576121aa612154565b5b80604052505050565b60006121be61212a565b90506121ca8282612183565b919050565b600080fd5b600281106121e157600080fd5b50565b6000813590506121f3816121d4565b92915050565b600080fd5b600080fd5b600067ffffffffffffffff82111561221e5761221d612154565b5b61222782612143565b9050602081019050919050565b82818337600083830152505050565b600061225661225184612203565b6121b4565b905082815260208101848484011115612272576122716121fe565b5b61227d848285612234565b509392505050565b600082601f83011261229a576122996121f9565b5b81356122aa848260208601612243565b91505092915050565b60008115159050919050565b6122c8816122b3565b81146122d357600080fd5b50565b6000813590506122e5816122bf565b92915050565b6000819050919050565b6122fe816122eb565b811461230957600080fd5b50565b60008135905061231b816122f5565b92915050565b6000606082840312156123375761233661213e565b5b61234160606121b4565b9050600082013567ffffffffffffffff811115612361576123606121cf565b5b61236d84828501612285565b6000830152506020612381848285016122d6565b60208301525060406123958482850161230c565b60408301525092915050565b6000602082840312156123b7576123b661213e565b5b6123c160206121b4565b9050600082013567ffffffffffffffff8111156123e1576123e06121cf565b5b6123ed84828501612321565b60008301525092915050565b60006040828403121561240f5761240e61213e565b5b61241960406121b4565b9050600082013567ffffffffffffffff811115612439576124386121cf565b5b612445848285016123a1565b600083015250602082013567ffffffffffffffff811115612469576124686121cf565b5b612475848285016123a1565b60208301525092915050565b6000606082840312156124975761249661213e565b5b6124a160606121b4565b905060006124b1848285016121e4565b600083015250602082013567ffffffffffffffff8111156124d5576124d46121cf565b5b6124e1848285016123f9565b602083015250604082013567ffffffffffffffff811115612505576125046121cf565b5b612511848285016123f9565b60408301525092915050565b60006020828403121561253357612532612134565b5b600082013567ffffffffffffffff81111561255157612550612139565b5b61255d84828501612481565b91505092915050565b61256f816122b3565b82525050565b600060208201905061258a6000830184612566565b92915050565b7f4e487b7100000000000000000000000000000000000000000000000000000000600052602160045260246000fd5b600281106125d0576125cf612590565b5b50565b60008190506125e1826125bf565b919050565b60006125f1826125d3565b9050919050565b612601816125e6565b82525050565b600081519050919050565b600082825260208201905092915050565b60005b83811015612641578082015181840152602081019050612626565b60008484015250505050565b600061265882612607565b6126628185612612565b9350612672818560208601612623565b61267b81612143565b840191505092915050565b61268f816122b3565b82525050565b61269e816122eb565b82525050565b600060608301600083015184820360008601526126c1828261264d565b91505060208301516126d66020860182612686565b5060408301516126e96040860182612695565b508091505092915050565b6000602083016000830151848203600086015261271182826126a4565b9150508091505092915050565b6000604083016000830151848203600086015261273b82826126f4565b9150506020830151848203602086015261275582826126f4565b9150508091505092915050565b6000606083016000830151848203600086015261277f828261271e565b91505060208301518482036020860152612799828261271e565b915050604083015184820360408601526127b3828261271e565b9150508091505092915050565b600060408301600083015184820360008601526127dd8282612762565b915050602083015184820360208601526127f78282612762565b9150508091505092915050565b600060608301600083015161281c60008601826125f8565b506020830151848203602086015261283482826127c0565b9150506040830151848203604086015261284e82826127c0565b9150508091505092915050565b600060208201905081810360008301526128758184612804565b905092915050565b6000606082840312156128935761289261213e565b5b61289d60606121b4565b9050600082013567ffffffffffffffff8111156128bd576128bc6121cf565b5b6128c9848285016123f9565b600083015250602082013567ffffffffffffffff8111156128ed576128ec6121cf565b5b6128f9848285016123f9565b602083015250604082013567ffffffffffffffff81111561291d5761291c6121cf565b5b612929848285016123f9565b60408301525092915050565b60006040828403121561294b5761294a61213e565b5b61295560406121b4565b9050600082013567ffffffffffffffff811115612975576129746121cf565b5b6129818482850161287d565b600083015250602082013567ffffffffffffffff8111156129a5576129a46121cf565b5b6129b18482850161287d565b60208301525092915050565b6000606082840312156129d3576129d261213e565b5b6129dd60606121b4565b905060006129ed848285016121e4565b600083015250602082013567ffffffffffffffff811115612a1157612a106121cf565b5b612a1d84828501612935565b602083015250604082013567ffffffffffffffff811115612a4157612a406121cf565b5b612a4d84828501612935565b60408301525092915050565b600060208284031215612a6f57612a6e612134565b5b600082013567ffffffffffffffff811115612a8d57612a8c612139565b5b612a99848285016129bd565b91505092915050565b600060608284031215612ab857612ab761213e565b5b612ac260606121b4565b90506000612ad2848285016121e4565b600083015250602082013567ffffffffffffffff811115612af657612af56121cf565b5b612b02848285016123a1565b602083015250604082013567ffffffffffffffff811115612b2657612b256121cf565b5b612b32848285016123a1565b60408301525092915050565b600060208284031215612b5457612b53612134565b5b600082013567ffffffffffffffff811115612b7257612b71612139565b5b612b7e84828501612aa2565b91505092915050565b60006040830160008301518482036000860152612ba482826126f4565b91505060208301518482036020860152612bbe82826126f4565b9150508091505092915050565b60006040820190508181036000830152612be58185612b87565b90508181036020830152612bf98184612b87565b90509392505050565b6000612c15612c1084612203565b6121b4565b905082815260208101848484011115612c3157612c306121fe565b5b612c3c848285612623565b509392505050565b600082601f830112612c5957612c586121f9565b5b8151612c69848260208601612c02565b91505092915050565b600081519050612c81816122bf565b92915050565b600081519050612c96816122f5565b92915050565b600060608284031215612cb257612cb161213e565b5b612cbc60606121b4565b9050600082015167ffffffffffffffff811115612cdc57612cdb6121cf565b5b612ce884828501612c44565b6000830152506020612cfc84828501612c72565b6020830152506040612d1084828501612c87565b60408301525092915050565b600060208284031215612d3257612d3161213e565b5b612d3c60206121b4565b9050600082015167ffffffffffffffff811115612d5c57612d5b6121cf565b5b612d6884828501612c9c565b60008301525092915050565b600060408284031215612d8a57612d8961213e565b5b612d9460406121b4565b9050600082015167ffffffffffffffff811115612db457612db36121cf565b5b612dc084828501612d1c565b600083015250602082015167ffffffffffffffff811115612de457612de36121cf565b5b612df084828501612d1c565b60208301525092915050565b600060208284031215612e1257612e11612134565b5b600082015167ffffffffffffffff811115612e3057612e2f612139565b5b612e3c84828501612d74565b91505092915050565b60006020820190508181036000830152612e5f8184612b87565b905092915050565b600060208284031215612e7d57612e7c612134565b5b6000612e8b84828501612c72565b91505092915050565b600060208284031215612eaa57612ea9612134565b5b600082015167ffffffffffffffff811115612ec857612ec7612139565b5b612ed484828501612d1c565b91505092915050565b60006020830160008301518482036000860152612efa82826126a4565b9150508091505092915050565b60006040820190508181036000830152612f218185612edd565b90508181036020830152612f358184612edd565b90509392505050565b60006060820190508181036000830152612f588186612b87565b90508181036020830152612f6c8185612b87565b90508181036040830152612f808184612b87565b9050949350505050565b600060608284031215612fa057612f9f61213e565b5b612faa60606121b4565b9050600082015167ffffffffffffffff811115612fca57612fc96121cf565b5b612fd684828501612d74565b600083015250602082015167ffffffffffffffff811115612ffa57612ff96121cf565b5b61300684828501612d74565b602083015250604082015167ffffffffffffffff81111561302a576130296121cf565b5b61303684828501612d74565b60408301525092915050565b60006020828403121561305857613057612134565b5b600082015167ffffffffffffffff81111561307657613075612139565b5b61308284828501612f8a565b91505092915050565b600060608301600083015184820360008601526130a8828261271e565b915050602083015184820360208601526130c2828261271e565b915050604083015184820360408601526130dc828261271e565b9150508091505092915050565b60006040820190508181036000830152613103818561308b565b90508181036020830152613117818461308b565b90509392505050565b6000604082840312156131365761313561213e565b5b61314060406121b4565b9050600082015167ffffffffffffffff8111156131605761315f6121cf565b5b61316c84828501612f8a565b600083015250602082015167ffffffffffffffff8111156131905761318f6121cf565b5b61319c84828501612f8a565b60208301525092915050565b6000602082840312156131be576131bd612134565b5b600082015167ffffffffffffffff8111156131dc576131db612139565b5b6131e884828501613120565b91505092915050565b6000604083016000830151848203600086015261320e8282612762565b915050602083015184820360208601526132288282612762565b9150508091505092915050565b6000602082019050818103600083015261324f81846131f1565b905092915050565b6000604082019050818103600083015261327181856131f1565b9050818103602083015261328581846131f1565b90509392505050565b613297816125e6565b82525050565b60006060820190506132b2600083018661328e565b81810360208301526132c481856131f1565b905081810360408301526132d881846131f1565b9050949350505050565b6000815190506132f1816121d4565b92915050565b60006060828403121561330d5761330c61213e565b5b61331760606121b4565b90506000613327848285016132e2565b600083015250602082015167ffffffffffffffff81111561334b5761334a6121cf565b5b61335784828501613120565b602083015250604082015167ffffffffffffffff81111561337b5761337a6121cf565b5b61338784828501613120565b60408301525092915050565b6000602082840312156133a9576133a8612134565b5b600082015167ffffffffffffffff8111156133c7576133c6612139565b5b6133d3848285016132f7565b91505092915050565b7f4e487b7100000000000000000000000000000000000000000000000000000000600052602260045260246000fd5b6000600282049050600182168061342357607f821691505b602082108103613436576134356133dc565b5b50919050565b60008190508160005260206000209050919050565b6000815461345e8161340b565b6134688186612612565b945060018216600081146134835760018114613499576134cc565b60ff1983168652811515602002860193506134cc565b6134a28561343c565b60005b838110156134c4578154818901526001820191506020810190506134a5565b808801955050505b50505092915050565b60008160001c9050919050565b600060ff82169050919050565b60006135026134fd836134d5565b6134e2565b9050919050565b6000819050919050565b6000613526613521836134d5565b613509565b9050919050565b6000606083016000808401858303600087015261354a8382613451565b9250506001840154905061355d816134ef565b61356a6020870182612686565b506002840154905061357b81613513565b6135886040870182612695565b50819250505092915050565b60006060830160008301516135ac60008601826125f8565b50602083015184820360208601526135c482826126f4565b915050604083015184820360408601526135de82826126f4565b9150508091505092915050565b60006040820190508181036000830152613605818561352d565b905081810360208301526136198184613594565b90509392505050565b6000606082840312156136385761363761213e565b5b61364260606121b4565b90506000613652848285016132e2565b600083015250602082015167ffffffffffffffff811115613676576136756121cf565b5b61368284828501612d1c565b602083015250604082015167ffffffffffffffff8111156136a6576136a56121cf565b5b6136b284828501612d1c565b60408301525092915050565b6000602082840312156136d4576136d3612134565b5b600082015167ffffffffffffffff8111156136f2576136f1612139565b5b6136fe84828501613622565b91505092915050565b600060608301600083015161371f60008601826125f8565b5060208301518482036020860152613737828261271e565b91505060408301518482036040860152613751828261271e565b9150508091505092915050565b60006040820190508181036000830152613778818561352d565b9050818103602083015261378c8184613707565b90509392505050565b6000606082840312156137ab576137aa61213e565b5b6137b560606121b4565b905060006137c5848285016132e2565b600083015250602082015167ffffffffffffffff8111156137e9576137e86121cf565b5b6137f584828501612d74565b602083015250604082015167ffffffffffffffff811115613819576138186121cf565b5b61382584828501612d74565b60408301525092915050565b60006020828403121561384757613846612134565b5b600082015167ffffffffffffffff81111561386557613864612139565b5b61387184828501613795565b91505092915050565b600060208201905081810360008301526138948184612edd565b90509291505056fea26469706673582212203399a1e883c3ba4a5354e9df4e1e49e788c2a5fc6b61a7758616123c7516177c64736f6c634300081b0033608060405234801561001057600080fd5b50604051612ee5380380612ee5833981810160405281019061003291906103d8565b806000808260000151905060208101519150600082036100d25773__$7db5d2dbc3ae63372df6c39d501ad0f72a$__6308d78767846040518263ffffffff1660e01b815260040161008391906104e4565b602060405180830381865af41580156100a0573d6000803e3d6000fd5b505050506040513d601f19601f820116820180604052508101906100c49190610506565b6100cd57600080fd5b61011d565b600060208460000151516100e69190610562565b148015610113575060016101006001856040015161010491906105c2565b61010e9190610562565b83901c145b61011c57600080fd5b5b836000808201518160000190816101349190610802565b5060208201518160010160006101000a81548160ff02191690831515021790555060408201518160020155905050505050506108d4565b6000604051905090565b600080fd5b600080fd5b600080fd5b6000601f19601f8301169050919050565b7f4e487b7100000000000000000000000000000000000000000000000000000000600052604160045260246000fd5b6101cd82610184565b810181811067ffffffffffffffff821117156101ec576101eb610195565b5b80604052505050565b60006101ff61016b565b905061020b82826101c4565b919050565b600080fd5b600080fd5b600080fd5b600067ffffffffffffffff82111561023a57610239610195565b5b61024382610184565b9050602081019050919050565b60005b8381101561026e578082015181840152602081019050610253565b60008484015250505050565b600061028d6102888461021f565b6101f5565b9050828152602081018484840111156102a9576102a861021a565b5b6102b4848285610250565b509392505050565b600082601f8301126102d1576102d0610215565b5b81516102e184826020860161027a565b91505092915050565b60008115159050919050565b6102ff816102ea565b811461030a57600080fd5b50565b60008151905061031c816102f6565b92915050565b6000819050919050565b61033581610322565b811461034057600080fd5b50565b6000815190506103528161032c565b92915050565b60006060828403121561036e5761036d61017f565b5b61037860606101f5565b9050600082015167ffffffffffffffff81111561039857610397610210565b5b6103a4848285016102bc565b60008301525060206103b88482850161030d565b60208301525060406103cc84828501610343565b60408301525092915050565b6000602082840312156103ee576103ed610175565b5b600082015167ffffffffffffffff81111561040c5761040b61017a565b5b61041884828501610358565b91505092915050565b600081519050919050565b600082825260208201905092915050565b600061044882610421565b610452818561042c565b9350610462818560208601610250565b61046b81610184565b840191505092915050565b61047f816102ea565b82525050565b61048e81610322565b82525050565b600060608301600083015184820360008601526104b1828261043d565b91505060208301516104c66020860182610476565b5060408301516104d96040860182610485565b508091505092915050565b600060208201905081810360008301526104fe8184610494565b905092915050565b60006020828403121561051c5761051b610175565b5b600061052a8482850161030d565b91505092915050565b7f4e487b7100000000000000000000000000000000000000000000000000000000600052601260045260246000fd5b600061056d82610322565b915061057883610322565b92508261058857610587610533565b5b828206905092915050565b7f4e487b7100000000000000000000000000000000000000000000000000000000600052601160045260246000fd5b60006105cd82610322565b91506105d883610322565b92508282039050818111156105f0576105ef610593565b5b92915050565b7f4e487b7100000000000000000000000000000000000000000000000000000000600052602260045260246000fd5b6000600282049050600182168061063d57607f821691505b6020821081036106505761064f6105f6565b5b50919050565b60008190508160005260206000209050919050565b60006020601f8301049050919050565b600082821b905092915050565b6000600883026106b87fffffffffffffffffffffffffffffffffffffffffffffffffffffffffffffffff8261067b565b6106c2868361067b565b95508019841693508086168417925050509392505050565b6000819050919050565b60006106ff6106fa6106f584610322565b6106da565b610322565b9050919050565b6000819050919050565b610719836106e4565b61072d61072582610706565b848454610688565b825550505050565b600090565b610742610735565b61074d818484610710565b505050565b5b818110156107715761076660008261073a565b600181019050610753565b5050565b601f8211156107b65761078781610656565b6107908461066b565b8101602085101561079f578190505b6107b36107ab8561066b565b830182610752565b50505b505050565b600082821c905092915050565b60006107d9600019846008026107bb565b1980831691505092915050565b60006107f283836107c8565b9150826002028217905092915050565b61080b82610421565b67ffffffffffffffff81111561082457610823610195565b5b61082e8254610625565b610839828285610775565b600060209050601f83116001811461086c576000841561085a578287015190505b61086485826107e6565b8655506108cc565b601f19841661087a86610656565b60005b828110156108a25784890151825560018201915060208501945060208101905061087d565b868310156108bf57848901516108bb601f8916826107c8565b8355505b6001600288020188555050505b505050505050565b612602806108e36000396000f3fe608060405234801561001057600080fd5b50600436106100ea5760003560e01c8063a672d1001161008c578063bc1b392d11610066578063bc1b392d14610287578063d4d45554146102a5578063f2388acb146102d5578063fb2bedad146102f3576100ea565b8063a672d100146101f7578063a9a52e7e14610227578063b5e2832514610257576100ea565b806345caa117116100c857806345caa1171461017f5780635fdf05d71461019d578063901717d1146101bb578063a1fca2b6146101d9576100ea565b8063085eb2b9146100ef57806312f7411b1461011f578063170147421461014f575b600080fd5b61010960048036038101906101049190611be3565b610323565b6040516101169190611d43565b60405180910390f35b61013960048036038101906101349190611d65565b610425565b6040516101469190611d43565b60405180910390f35b61016960048036038101906101649190611ddd565b61062b565b6040516101769190611d43565b60405180910390f35b6101876107b6565b6040516101949190611d43565b60405180910390f35b6101a5610843565b6040516101b29190611d43565b60405180910390f35b6101c36108d0565b6040516101d09190611d43565b60405180910390f35b6101e161095d565b6040516101ee9190611d43565b60405180910390f35b610211600480360381019061020c9190611be3565b6109ea565b60405161021e9190611d43565b60405180910390f35b610241600480360381019061023c9190611d65565b610d9d565b60405161024e9190611d43565b60405180910390f35b610271600480360381019061026c9190611d65565b611020565b60405161027e9190611d43565b60405180910390f35b61028f6112a6565b60405161029c9190611d43565b60405180910390f35b6102bf60048036038101906102ba9190611d65565b611333565b6040516102cc9190611e35565b60405180910390f35b6102dd6115a9565b6040516102ea9190611ea0565b60405180910390f35b61030d60048036038101906103089190611d65565b61167a565b60405161031a9190611d43565b60405180910390f35b61032b6118fd565b81600001516000808260000151905060208101519150600082036103cf5773__$7db5d2dbc3ae63372df6c39d501ad0f72a$__6308d78767846040518263ffffffff1660e01b81526004016103809190611f7a565b602060405180830381865af415801561039d573d6000803e3d6000fd5b505050506040513d601f19601f820116820180604052508101906103c19190611fb1565b6103ca57600080fd5b61041a565b600060208460000151516103e3919061200d565b1480156104105750600161010060018560400151610401919061206d565b61040b919061200d565b83901c145b61041957600080fd5b5b849350505050919050565b61042d6118fd565b82600001516000808260000151905060208101519150600082036104d15773__$7db5d2dbc3ae63372df6c39d501ad0f72a$__6308d78767846040518263ffffffff1660e01b81526004016104829190611f7a565b602060405180830381865af415801561049f573d6000803e3d6000fd5b505050506040513d601f19601f820116820180604052508101906104c39190611fb1565b6104cc57600080fd5b61051c565b600060208460000151516104e5919061200d565b1480156105125750600161010060018560400151610503919061206d565b61050d919061200d565b83901c145b61051b57600080fd5b5b84600001516000808260000151905060208101519150600082036105c05773__$7db5d2dbc3ae63372df6c39d501ad0f72a$__6308d78767846040518263ffffffff1660e01b81526004016105719190611f7a565b602060405180830381865af415801561058e573d6000803e3d6000fd5b505050506040513d601f19601f820116820180604052508101906105b29190611fb1565b6105bb57600080fd5b61060b565b600060208460000151516105d4919061200d565b14801561060157506001610100600185604001516105f2919061206d565b6105fc919061200d565b83901c145b61060a57600080fd5b5b61061d896106188a6109ea565b611020565b965050505050505092915050565b6106336118fd565b816000808260000151905060208101519150600082036106d35773__$7db5d2dbc3ae63372df6c39d501ad0f72a$__6308d78767846040518263ffffffff1660e01b81526004016106849190611f7a565b602060405180830381865af41580156106a1573d6000803e3d6000fd5b505050506040513d601f19601f820116820180604052508101906106c59190611fb1565b6106ce57600080fd5b61071e565b600060208460000151516106e7919061200d565b1480156107145750600161010060018560400151610705919061206d565b61070f919061200d565b83901c145b61071d57600080fd5b5b604051806020016040528073__$7db5d2dbc3ae63372df6c39d501ad0f72a$__637afa85538860006040518363ffffffff1660e01b8152600401610763929190612259565b600060405180830381865af4158015610780573d6000803e3d6000fd5b505050506040513d6000823e3d601f19601f820116820180604052508101906107a99190612395565b8152509350505050919050565b6107be6118fd565b604051806020016040528073__$7db5d2dbc3ae63372df6c39d501ad0f72a$__6345caa1176040518163ffffffff1660e01b8152600401600060405180830381865af4158015610812573d6000803e3d6000fd5b505050506040513d6000823e3d601f19601f8201168201806040525081019061083b9190612395565b815250905090565b61084b6118fd565b604051806020016040528073__$7db5d2dbc3ae63372df6c39d501ad0f72a$__635fdf05d76040518163ffffffff1660e01b8152600401600060405180830381865af415801561089f573d6000803e3d6000fd5b505050506040513d6000823e3d601f19601f820116820180604052508101906108c89190612395565b815250905090565b6108d86118fd565b604051806020016040528073__$7db5d2dbc3ae63372df6c39d501ad0f72a$__63901717d16040518163ffffffff1660e01b8152600401600060405180830381865af415801561092c573d6000803e3d6000fd5b505050506040513d6000823e3d601f19601f820116820180604052508101906109559190612395565b815250905090565b6109656118fd565b604051806020016040528073__$7db5d2dbc3ae63372df6c39d501ad0f72a$__63a1fca2b66040518163ffffffff1660e01b8152600401600060405180830381865af41580156109b9573d6000803e3d6000fd5b505050506040513d6000823e3d601f19601f820116820180604052508101906109e29190612395565b815250905090565b6109f26118fd565b8160000151600080826000015190506020810151915060008203610a965773__$7db5d2dbc3ae63372df6c39d501ad0f72a$__6308d78767846040518263ffffffff1660e01b8152600401610a479190611f7a565b602060405180830381865af4158015610a64573d6000803e3d6000fd5b505050506040513d601f19601f82011682018060405250810190610a889190611fb1565b610a9157600080fd5b610ae1565b60006020846000015151610aaa919061200d565b148015610ad75750600161010060018560400151610ac8919061206d565b610ad2919061200d565b83901c145b610ae057600080fd5b5b600073__$7db5d2dbc3ae63372df6c39d501ad0f72a$__63bc39804e876000015173__$7db5d2dbc3ae63372df6c39d501ad0f72a$__63bc1b392d6040518163ffffffff1660e01b8152600401600060405180830381865af4158015610b4b573d6000803e3d6000fd5b505050506040513d6000823e3d601f19601f82011682018060405250810190610b749190612395565b60006040518463ffffffff1660e01b8152600401610b94939291906123ed565b602060405180830381865af4158015610bb1573d6000803e3d6000fd5b505050506040513d601f19601f82011682018060405250810190610bd59190612468565b03610c15576040517f08c379a0000000000000000000000000000000000000000000000000000000008152600401610c0c906124f2565b60405180910390fd5b610d9373__$7db5d2dbc3ae63372df6c39d501ad0f72a$__630e7671f2876000015173__$7db5d2dbc3ae63372df6c39d501ad0f72a$__630a4638fd600073__$7db5d2dbc3ae63372df6c39d501ad0f72a$__635fdf05d76040518163ffffffff1660e01b8152600401600060405180830381865af4158015610c9c573d6000803e3d6000fd5b505050506040513d6000823e3d601f19601f82011682018060405250810190610cc59190612395565b6040518363ffffffff1660e01b8152600401610ce2929190612512565b600060405180830381865af4158015610cff573d6000803e3d6000fd5b505050506040513d6000823e3d601f19601f82011682018060405250810190610d289190612395565b60006040518463ffffffff1660e01b8152600401610d4893929190612549565b600060405180830381865af4158015610d65573d6000803e3d6000fd5b505050506040513d6000823e3d601f19601f82011682018060405250810190610d8e9190612395565b61062b565b9350505050919050565b610da56118fd565b8260000151600080826000015190506020810151915060008203610e495773__$7db5d2dbc3ae63372df6c39d501ad0f72a$__6308d78767846040518263ffffffff1660e01b8152600401610dfa9190611f7a565b602060405180830381865af4158015610e17573d6000803e3d6000fd5b505050506040513d601f19601f82011682018060405250810190610e3b9190611fb1565b610e4457600080fd5b610e94565b60006020846000015151610e5d919061200d565b148015610e8a5750600161010060018560400151610e7b919061206d565b610e85919061200d565b83901c145b610e9357600080fd5b5b8460000151600080826000015190506020810151915060008203610f385773__$7db5d2dbc3ae63372df6c39d501ad0f72a$__6308d78767846040518263ffffffff1660e01b8152600401610ee99190611f7a565b602060405180830381865af4158015610f06573d6000803e3d6000fd5b505050506040513d601f19601f82011682018060405250810190610f2a9190611fb1565b610f3357600080fd5b610f83565b60006020846000015151610f4c919061200d565b148015610f795750600161010060018560400151610f6a919061206d565b610f74919061200d565b83901c145b610f8257600080fd5b5b61101273__$7db5d2dbc3ae63372df6c39d501ad0f72a$__6398cdcfb28b600001518b600001516040518363ffffffff1660e01b8152600401610fc7929190612595565b600060405180830381865af4158015610fe4573d6000803e3d6000fd5b505050506040513d6000823e3d601f19601f8201168201806040525081019061100d9190612395565b61062b565b965050505050505092915050565b6110286118fd565b82600001516000808260000151905060208101519150600082036110cc5773__$7db5d2dbc3ae63372df6c39d501ad0f72a$__6308d78767846040518263ffffffff1660e01b815260040161107d9190611f7a565b602060405180830381865af415801561109a573d6000803e3d6000fd5b505050506040513d601f19601f820116820180604052508101906110be9190611fb1565b6110c757600080fd5b611117565b600060208460000151516110e0919061200d565b14801561110d57506001610100600185604001516110fe919061206d565b611108919061200d565b83901c145b61111657600080fd5b5b84600001516000808260000151905060208101519150600082036111bb5773__$7db5d2dbc3ae63372df6c39d501ad0f72a$__6308d78767846040518263ffffffff1660e01b815260040161116c9190611f7a565b602060405180830381865af4158015611189573d6000803e3d6000fd5b505050506040513d601f19601f820116820180604052508101906111ad9190611fb1565b6111b657600080fd5b611206565b600060208460000151516111cf919061200d565b1480156111fc57506001610100600185604001516111ed919061206d565b6111f7919061200d565b83901c145b61120557600080fd5b5b61129873__$7db5d2dbc3ae63372df6c39d501ad0f72a$__63a5d4ca5b8b600001518b6000015160006040518463ffffffff1660e01b815260040161124d93929190612549565b600060405180830381865af415801561126a573d6000803e3d6000fd5b505050506040513d6000823e3d601f19601f820116820180604052508101906112939190612395565b61062b565b965050505050505092915050565b6112ae6118fd565b604051806020016040528073__$7db5d2dbc3ae63372df6c39d501ad0f72a$__63bc1b392d6040518163ffffffff1660e01b8152600401600060405180830381865af4158015611302573d6000803e3d6000fd5b505050506040513d6000823e3d601f19601f8201168201806040525081019061132b9190612395565b815250905090565b600082600001516000808260000151905060208101519150600082036113d95773__$7db5d2dbc3ae63372df6c39d501ad0f72a$__6308d78767846040518263ffffffff1660e01b815260040161138a9190611f7a565b602060405180830381865af41580156113a7573d6000803e3d6000fd5b505050506040513d601f19601f820116820180604052508101906113cb9190611fb1565b6113d457600080fd5b611424565b600060208460000151516113ed919061200d565b14801561141a575060016101006001856040015161140b919061206d565b611415919061200d565b83901c145b61142357600080fd5b5b84600001516000808260000151905060208101519150600082036114c85773__$7db5d2dbc3ae63372df6c39d501ad0f72a$__6308d78767846040518263ffffffff1660e01b81526004016114799190611f7a565b602060405180830381865af4158015611496573d6000803e3d6000fd5b505050506040513d601f19601f820116820180604052508101906114ba9190611fb1565b6114c357600080fd5b611513565b600060208460000151516114dc919061200d565b14801561150957506001610100600185604001516114fa919061206d565b611504919061200d565b83901c145b61151257600080fd5b5b600073__$7db5d2dbc3ae63372df6c39d501ad0f72a$__63bc39804e8b600001518b6000015160006040518463ffffffff1660e01b8152600401611559939291906123ed565b602060405180830381865af4158015611576573d6000803e3d6000fd5b505050506040513d601f19601f8201168201806040525081019061159a9190612468565b14965050505050505092915050565b6115b1611916565b60006040518060600160405290816000820180546115ce906120d0565b80601f01602080910402602001604051908101604052809291908181526020018280546115fa906120d0565b80156116475780601f1061161c57610100808354040283529160200191611647565b820191906000526020600020905b81548152906001019060200180831161162a57829003601f168201915b505050505081526020016001820160009054906101000a900460ff16151515158152602001600282015481525050905090565b6116826118fd565b82600001516000808260000151905060208101519150600082036117265773__$7db5d2dbc3ae63372df6c39d501ad0f72a$__6308d78767846040518263ffffffff1660e01b81526004016116d79190611f7a565b602060405180830381865af41580156116f4573d6000803e3d6000fd5b505050506040513d601f19601f820116820180604052508101906117189190611fb1565b61172157600080fd5b611771565b6000602084600001515161173a919061200d565b1480156117675750600161010060018560400151611758919061206d565b611762919061200d565b83901c145b61177057600080fd5b5b84600001516000808260000151905060208101519150600082036118155773__$7db5d2dbc3ae63372df6c39d501ad0f72a$__6308d78767846040518263ffffffff1660e01b81526004016117c69190611f7a565b602060405180830381865af41580156117e3573d6000803e3d6000fd5b505050506040513d601f19601f820116820180604052508101906118079190611fb1565b61181057600080fd5b611860565b60006020846000015151611829919061200d565b1480156118565750600161010060018560400151611847919061206d565b611851919061200d565b83901c145b61185f57600080fd5b5b6118ef73__$7db5d2dbc3ae63372df6c39d501ad0f72a$__630a4638fd8b600001518b600001516040518363ffffffff1660e01b81526004016118a4929190612595565b600060405180830381865af41580156118c1573d6000803e3d6000fd5b505050506040513d6000823e3d601f19601f820116820180604052508101906118ea9190612395565b61062b565b965050505050505092915050565b6040518060200160405280611910611916565b81525090565b604051806060016040528060608152602001600015158152602001600081525090565b6000604051905090565b600080fd5b600080fd5b600080fd5b6000601f19601f8301169050919050565b7f4e487b7100000000000000000000000000000000000000000000000000000000600052604160045260246000fd5b61199b82611952565b810181811067ffffffffffffffff821117156119ba576119b9611963565b5b80604052505050565b60006119cd611939565b90506119d98282611992565b919050565b600080fd5b600080fd5b600080fd5b600067ffffffffffffffff821115611a0857611a07611963565b5b611a1182611952565b9050602081019050919050565b82818337600083830152505050565b6000611a40611a3b846119ed565b6119c3565b905082815260208101848484011115611a5c57611a5b6119e8565b5b611a67848285611a1e565b509392505050565b600082601f830112611a8457611a836119e3565b5b8135611a94848260208601611a2d565b91505092915050565b60008115159050919050565b611ab281611a9d565b8114611abd57600080fd5b50565b600081359050611acf81611aa9565b92915050565b6000819050919050565b611ae881611ad5565b8114611af357600080fd5b50565b600081359050611b0581611adf565b92915050565b600060608284031215611b2157611b2061194d565b5b611b2b60606119c3565b9050600082013567ffffffffffffffff811115611b4b57611b4a6119de565b5b611b5784828501611a6f565b6000830152506020611b6b84828501611ac0565b6020830152506040611b7f84828501611af6565b60408301525092915050565b600060208284031215611ba157611ba061194d565b5b611bab60206119c3565b9050600082013567ffffffffffffffff811115611bcb57611bca6119de565b5b611bd784828501611b0b565b60008301525092915050565b600060208284031215611bf957611bf8611943565b5b600082013567ffffffffffffffff811115611c1757611c16611948565b5b611c2384828501611b8b565b91505092915050565b600081519050919050565b600082825260208201905092915050565b60005b83811015611c66578082015181840152602081019050611c4b565b60008484015250505050565b6000611c7d82611c2c565b611c878185611c37565b9350611c97818560208601611c48565b611ca081611952565b840191505092915050565b611cb481611a9d565b82525050565b611cc381611ad5565b82525050565b60006060830160008301518482036000860152611ce68282611c72565b9150506020830151611cfb6020860182611cab565b506040830151611d0e6040860182611cba565b508091505092915050565b60006020830160008301518482036000860152611d368282611cc9565b9150508091505092915050565b60006020820190508181036000830152611d5d8184611d19565b905092915050565b60008060408385031215611d7c57611d7b611943565b5b600083013567ffffffffffffffff811115611d9a57611d99611948565b5b611da685828601611b8b565b925050602083013567ffffffffffffffff811115611dc757611dc6611948565b5b611dd385828601611b8b565b9150509250929050565b600060208284031215611df357611df2611943565b5b600082013567ffffffffffffffff811115611e1157611e10611948565b5b611e1d84828501611b0b565b91505092915050565b611e2f81611a9d565b82525050565b6000602082019050611e4a6000830184611e26565b92915050565b60006060830160008301518482036000860152611e6d8282611c72565b9150506020830151611e826020860182611cab565b506040830151611e956040860182611cba565b508091505092915050565b60006020820190508181036000830152611eba8184611e50565b905092915050565b600082825260208201905092915050565b6000611ede82611c2c565b611ee88185611ec2565b9350611ef8818560208601611c48565b611f0181611952565b840191505092915050565b611f1581611a9d565b82525050565b611f2481611ad5565b82525050565b60006060830160008301518482036000860152611f478282611ed3565b9150506020830151611f5c6020860182611f0c565b506040830151611f6f6040860182611f1b565b508091505092915050565b60006020820190508181036000830152611f948184611f2a565b905092915050565b600081519050611fab81611aa9565b92915050565b600060208284031215611fc757611fc6611943565b5b6000611fd584828501611f9c565b91505092915050565b7f4e487b7100000000000000000000000000000000000000000000000000000000600052601260045260246000fd5b600061201882611ad5565b915061202383611ad5565b92508261203357612032611fde565b5b828206905092915050565b7f4e487b7100000000000000000000000000000000000000000000000000000000600052601160045260246000fd5b600061207882611ad5565b915061208383611ad5565b925082820390508181111561209b5761209a61203e565b5b92915050565b7f4e487b7100000000000000000000000000000000000000000000000000000000600052602260045260246000fd5b600060028204905060018216806120e857607f821691505b6020821081036120fb576120fa6120a1565b5b50919050565b60008190508160005260206000209050919050565b60008154612123816120d0565b61212d8186611ec2565b94506001821660008114612148576001811461215e57612191565b60ff198316865281151560200286019350612191565b61216785612101565b60005b838110156121895781548189015260018201915060208101905061216a565b808801955050505b50505092915050565b60008160001c9050919050565b600060ff82169050919050565b60006121c76121c28361219a565b6121a7565b9050919050565b6000819050919050565b60006121eb6121e68361219a565b6121ce565b9050919050565b6000606083016000808401858303600087015261220f8382612116565b92505060018401549050612222816121b4565b61222f6020870182611f0c565b5060028401549050612240816121d8565b61224d6040870182611f1b565b50819250505092915050565b600060408201905081810360008301526122738185611f2a565b9050818103602083015261228781846121f2565b90509392505050565b60006122a361229e846119ed565b6119c3565b9050828152602081018484840111156122bf576122be6119e8565b5b6122ca848285611c48565b509392505050565b600082601f8301126122e7576122e66119e3565b5b81516122f7848260208601612290565b91505092915050565b60008151905061230f81611adf565b92915050565b60006060828403121561232b5761232a61194d565b5b61233560606119c3565b9050600082015167ffffffffffffffff811115612355576123546119de565b5b612361848285016122d2565b600083015250602061237584828501611f9c565b602083015250604061238984828501612300565b60408301525092915050565b6000602082840312156123ab576123aa611943565b5b600082015167ffffffffffffffff8111156123c9576123c8611948565b5b6123d584828501612315565b91505092915050565b6123e781611a9d565b82525050565b600060608201905081810360008301526124078186611f2a565b9050818103602083015261241b8185611f2a565b905061242a60408301846123de565b949350505050565b6000819050919050565b61244581612432565b811461245057600080fd5b50565b6000815190506124628161243c565b92915050565b60006020828403121561247e5761247d611943565b5b600061248c84828501612453565b91505092915050565b600082825260208201905092915050565b7f496e766572736f206469207a65726f206e6f6e20646566696e69746f2e000000600082015250565b60006124dc601d83612495565b91506124e7826124a6565b602082019050919050565b6000602082019050818103600083015261250b816124cf565b9050919050565b6000604082019050818103600083015261252c81856121f2565b905081810360208301526125408184611f2a565b90509392505050565b600060608201905081810360008301526125638186611f2a565b905081810360208301526125778185611f2a565b9050818103604083015261258b81846121f2565b9050949350505050565b600060408201905081810360008301526125af8185611f2a565b905081810360208301526125c38184611f2a565b9050939250505056fea26469706673582212202d9a6dd4f65d113405baa0baeeba4fff4773a93ceb9bb4c1baa420e8bdd5da7164736f6c634300081b0033608060405234801561001057600080fd5b5060405161225b38038061225b833981810160405281019061003291906100ed565b806000806101000a81548173ffffffffffffffffffffffffffffffffffffffff021916908373ffffffffffffffffffffffffffffffffffffffff1602179055505061011a565b600080fd5b600073ffffffffffffffffffffffffffffffffffffffff82169050919050565b60006100a88261007d565b9050919050565b60006100ba8261009d565b9050919050565b6100ca816100af565b81146100d557600080fd5b50565b6000815190506100e7816100c1565b92915050565b60006020828403121561010357610102610078565b5b6000610111848285016100d8565b91505092915050565b612132806101296000396000f3fe608060405234801561001057600080fd5b50600436106100cf5760003560e01c8063901717d11161008c578063ab80cf7611610066578063ab80cf761461023c578063bc1b392d1461026c578063c700da6b1461028a578063fbb740a8146102ba576100cf565b8063901717d1146101d05780639d2e83f5146101ee578063a1fca2b61461021e576100cf565b806307a5ecaa146100d4578063232b9e5a1461010457806345caa117146101345780635f6910d4146101525780635fdf05d71461018257806364c044fe146101a0575b600080fd5b6100ee60048036038101906100e99190611bb1565b6102ea565b6040516100fb9190611d84565b60405180910390f35b61011e60048036038101906101199190611bb1565b6106e4565b60405161012b9190611d84565b60405180910390f35b61013c610706565b6040516101499190611d84565b60405180910390f35b61016c60048036038101906101679190611bb1565b610843565b6040516101799190611d84565b60405180910390f35b61018a6109ad565b6040516101979190611d84565b60405180910390f35b6101ba60048036038101906101b59190611da6565b610aea565b6040516101c79190611d84565b60405180910390f35b6101d8611013565b6040516101e59190611d84565b60405180910390f35b61020860048036038101906102039190611da6565b611150565b6040516102159190611d84565b60405180910390f35b6102266112b9565b6040516102339190611d84565b60405180910390f35b61025660048036038101906102519190611bb1565b6113f6565b6040516102639190611dfe565b60405180910390f35b610274611551565b6040516102819190611d84565b60405180910390f35b6102a4600480360381019061029f9190611e19565b61168e565b6040516102b19190611d84565b60405180910390f35b6102d460048036038101906102cf9190611bb1565b6116b3565b6040516102e19190611d84565b60405180910390f35b6102f261181d565b6106dc60008054906101000a900473ffffffffffffffffffffffffffffffffffffffff1673ffffffffffffffffffffffffffffffffffffffff1663fb2bedad60008054906101000a900473ffffffffffffffffffffffffffffffffffffffff1673ffffffffffffffffffffffffffffffffffffffff1663b5e28325876000015187600001516040518363ffffffff1660e01b8152600401610394929190611ebb565b600060405180830381865afa1580156103b1573d6000803e3d6000fd5b505050506040513d6000823e3d601f19601f820116820180604052508101906103da9190612064565b60008054906101000a900473ffffffffffffffffffffffffffffffffffffffff1673ffffffffffffffffffffffffffffffffffffffff1663b5e28325886020015188602001516040518363ffffffff1660e01b815260040161043d929190611ebb565b600060405180830381865afa15801561045a573d6000803e3d6000fd5b505050506040513d6000823e3d601f19601f820116820180604052508101906104839190612064565b6040518363ffffffff1660e01b81526004016104a0929190611ebb565b600060405180830381865afa1580156104bd573d6000803e3d6000fd5b505050506040513d6000823e3d601f19601f820116820180604052508101906104e69190612064565b60008054906101000a900473ffffffffffffffffffffffffffffffffffffffff1673ffffffffffffffffffffffffffffffffffffffff1663a9a52e7e60008054906101000a900473ffffffffffffffffffffffffffffffffffffffff1673ffffffffffffffffffffffffffffffffffffffff1663b5e28325886000015188602001516040518363ffffffff1660e01b8152600401610585929190611ebb565b600060405180830381865afa1580156105a2573d6000803e3d6000fd5b505050506040513d6000823e3d601f19601f820116820180604052508101906105cb9190612064565b60008054906101000a900473ffffffffffffffffffffffffffffffffffffffff1673ffffffffffffffffffffffffffffffffffffffff1663b5e28325896020015189600001516040518363ffffffff1660e01b815260040161062e929190611ebb565b600060405180830381865afa15801561064b573d6000803e3d6000fd5b505050506040513d6000823e3d601f19601f820116820180604052508101906106749190612064565b6040518363ffffffff1660e01b8152600401610691929190611ebb565b600060405180830381865afa1580156106ae573d6000803e3d6000fd5b505050506040513d6000823e3d601f19601f820116820180604052508101906106d79190612064565b61168e565b905092915050565b6106ec61181d565b6106fe836106f984610aea565b6102ea565b905092915050565b61070e61181d565b61083e60008054906101000a900473ffffffffffffffffffffffffffffffffffffffff1673ffffffffffffffffffffffffffffffffffffffff166345caa1176040518163ffffffff1660e01b8152600401600060405180830381865afa15801561077c573d6000803e3d6000fd5b505050506040513d6000823e3d601f19601f820116820180604052508101906107a59190612064565b60008054906101000a900473ffffffffffffffffffffffffffffffffffffffff1673ffffffffffffffffffffffffffffffffffffffff1663bc1b392d6040518163ffffffff1660e01b8152600401600060405180830381865afa158015610810573d6000803e3d6000fd5b505050506040513d6000823e3d601f19601f820116820180604052508101906108399190612064565b61168e565b905090565b61084b61181d565b6109a560008054906101000a900473ffffffffffffffffffffffffffffffffffffffff1673ffffffffffffffffffffffffffffffffffffffff1663fb2bedad856000015185600001516040518363ffffffff1660e01b81526004016108b1929190611ebb565b600060405180830381865afa1580156108ce573d6000803e3d6000fd5b505050506040513d6000823e3d601f19601f820116820180604052508101906108f79190612064565b60008054906101000a900473ffffffffffffffffffffffffffffffffffffffff1673ffffffffffffffffffffffffffffffffffffffff1663fb2bedad866020015186602001516040518363ffffffff1660e01b815260040161095a929190611ebb565b600060405180830381865afa158015610977573d6000803e3d6000fd5b505050506040513d6000823e3d601f19601f820116820180604052508101906109a09190612064565b61168e565b905092915050565b6109b561181d565b610ae560008054906101000a900473ffffffffffffffffffffffffffffffffffffffff1673ffffffffffffffffffffffffffffffffffffffff16635fdf05d76040518163ffffffff1660e01b8152600401600060405180830381865afa158015610a23573d6000803e3d6000fd5b505050506040513d6000823e3d601f19601f82011682018060405250810190610a4c9190612064565b60008054906101000a900473ffffffffffffffffffffffffffffffffffffffff1673ffffffffffffffffffffffffffffffffffffffff1663bc1b392d6040518163ffffffff1660e01b8152600401600060405180830381865afa158015610ab7573d6000803e3d6000fd5b505050506040513d6000823e3d601f19601f82011682018060405250810190610ae09190612064565b61168e565b905090565b610af261181d565b60008060009054906101000a900473ffffffffffffffffffffffffffffffffffffffff1673ffffffffffffffffffffffffffffffffffffffff1663a672d10060008054906101000a900473ffffffffffffffffffffffffffffffffffffffff1673ffffffffffffffffffffffffffffffffffffffff1663a9a52e7e60008054906101000a900473ffffffffffffffffffffffffffffffffffffffff1673ffffffffffffffffffffffffffffffffffffffff1663b5e28325886000015189600001516040518363ffffffff1660e01b8152600401610bd0929190611ebb565b600060405180830381865afa158015610bed573d6000803e3d6000fd5b505050506040513d6000823e3d601f19601f82011682018060405250810190610c169190612064565b60008054906101000a900473ffffffffffffffffffffffffffffffffffffffff1673ffffffffffffffffffffffffffffffffffffffff1663b5e2832589602001518a602001516040518363ffffffff1660e01b8152600401610c79929190611ebb565b600060405180830381865afa158015610c96573d6000803e3d6000fd5b505050506040513d6000823e3d601f19601f82011682018060405250810190610cbf9190612064565b6040518363ffffffff1660e01b8152600401610cdc929190611ebb565b600060405180830381865afa158015610cf9573d6000803e3d6000fd5b505050506040513d6000823e3d601f19601f82011682018060405250810190610d229190612064565b6040518263ffffffff1660e01b8152600401610d3e91906120ad565b600060405180830381865afa158015610d5b573d6000803e3d6000fd5b505050506040513d6000823e3d601f19601f82011682018060405250810190610d849190612064565b905061100b60008054906101000a900473ffffffffffffffffffffffffffffffffffffffff1673ffffffffffffffffffffffffffffffffffffffff1663b5e283258560000151846040518363ffffffff1660e01b8152600401610de8929190611ebb565b600060405180830381865afa158015610e05573d6000803e3d6000fd5b505050506040513d6000823e3d601f19601f82011682018060405250810190610e2e9190612064565b60008054906101000a900473ffffffffffffffffffffffffffffffffffffffff1673ffffffffffffffffffffffffffffffffffffffff1663b5e2832560008054906101000a900473ffffffffffffffffffffffffffffffffffffffff1673ffffffffffffffffffffffffffffffffffffffff1663fb2bedad60008054906101000a900473ffffffffffffffffffffffffffffffffffffffff1673ffffffffffffffffffffffffffffffffffffffff1663bc1b392d6040518163ffffffff1660e01b8152600401600060405180830381865afa158015610f11573d6000803e3d6000fd5b505050506040513d6000823e3d601f19601f82011682018060405250810190610f3a9190612064565b89602001516040518363ffffffff1660e01b8152600401610f5c929190611ebb565b600060405180830381865afa158015610f79573d6000803e3d6000fd5b505050506040513d6000823e3d601f19601f82011682018060405250810190610fa29190612064565b856040518363ffffffff1660e01b8152600401610fc0929190611ebb565b600060405180830381865afa158015610fdd573d6000803e3d6000fd5b505050506040513d6000823e3d601f19601f820116820180604052508101906110069190612064565b61168e565b915050919050565b61101b61181d565b61114b60008054906101000a900473ffffffffffffffffffffffffffffffffffffffff1673ffffffffffffffffffffffffffffffffffffffff1663901717d16040518163ffffffff1660e01b8152600401600060405180830381865afa158015611089573d6000803e3d6000fd5b505050506040513d6000823e3d601f19601f820116820180604052508101906110b29190612064565b60008054906101000a900473ffffffffffffffffffffffffffffffffffffffff1673ffffffffffffffffffffffffffffffffffffffff1663bc1b392d6040518163ffffffff1660e01b8152600401600060405180830381865afa15801561111d573d6000803e3d6000fd5b505050506040513d6000823e3d601f19601f820116820180604052508101906111469190612064565b61168e565b905090565b61115861181d565b6112b260008054906101000a900473ffffffffffffffffffffffffffffffffffffffff1673ffffffffffffffffffffffffffffffffffffffff1663a9a52e7e846000015185602001516040518363ffffffff1660e01b81526004016111be929190611ebb565b600060405180830381865afa1580156111db573d6000803e3d6000fd5b505050506040513d6000823e3d601f19601f820116820180604052508101906112049190612064565b60008054906101000a900473ffffffffffffffffffffffffffffffffffffffff1673ffffffffffffffffffffffffffffffffffffffff1663fb2bedad856000015186602001516040518363ffffffff1660e01b8152600401611267929190611ebb565b600060405180830381865afa158015611284573d6000803e3d6000fd5b505050506040513d6000823e3d601f19601f820116820180604052508101906112ad9190612064565b61168e565b9050919050565b6112c161181d565b6113f160008054906101000a900473ffffffffffffffffffffffffffffffffffffffff1673ffffffffffffffffffffffffffffffffffffffff1663a1fca2b66040518163ffffffff1660e01b8152600401600060405180830381865afa15801561132f573d6000803e3d6000fd5b505050506040513d6000823e3d601f19601f820116820180604052508101906113589190612064565b60008054906101000a900473ffffffffffffffffffffffffffffffffffffffff1673ffffffffffffffffffffffffffffffffffffffff1663bc1b392d6040518163ffffffff1660e01b8152600401600060405180830381865afa1580156113c3573d6000803e3d6000fd5b505050506040513d6000823e3d601f19601f820116820180604052508101906113ec9190612064565b61168e565b905090565b60008060009054906101000a900473ffffffffffffffffffffffffffffffffffffffff1673ffffffffffffffffffffffffffffffffffffffff1663d4d45554846000015184600001516040518363ffffffff1660e01b815260040161145c929190611ebb565b602060405180830381865afa158015611479573d6000803e3d6000fd5b505050506040513d601f19601f8201168201806040525081019061149d91906120cf565b8015611549575060008054906101000a900473ffffffffffffffffffffffffffffffffffffffff1673ffffffffffffffffffffffffffffffffffffffff1663d4d45554846020015184602001516040518363ffffffff1660e01b8152600401611507929190611ebb565b602060405180830381865afa158015611524573d6000803e3d6000fd5b505050506040513d601f19601f8201168201806040525081019061154891906120cf565b5b905092915050565b61155961181d565b61168960008054906101000a900473ffffffffffffffffffffffffffffffffffffffff1673ffffffffffffffffffffffffffffffffffffffff1663bc1b392d6040518163ffffffff1660e01b8152600401600060405180830381865afa1580156115c7573d6000803e3d6000fd5b505050506040513d6000823e3d601f19601f820116820180604052508101906115f09190612064565b60008054906101000a900473ffffffffffffffffffffffffffffffffffffffff1673ffffffffffffffffffffffffffffffffffffffff1663bc1b392d6040518163ffffffff1660e01b8152600401600060405180830381865afa15801561165b573d6000803e3d6000fd5b505050506040513d6000823e3d601f19601f820116820180604052508101906116849190612064565b61168e565b905090565b61169661181d565b604051806040016040528084815260200183815250905092915050565b6116bb61181d565b61181560008054906101000a900473ffffffffffffffffffffffffffffffffffffffff1673ffffffffffffffffffffffffffffffffffffffff1663a9a52e7e856000015185600001516040518363ffffffff1660e01b8152600401611721929190611ebb565b600060405180830381865afa15801561173e573d6000803e3d6000fd5b505050506040513d6000823e3d601f19601f820116820180604052508101906117679190612064565b60008054906101000a900473ffffffffffffffffffffffffffffffffffffffff1673ffffffffffffffffffffffffffffffffffffffff1663a9a52e7e866020015186602001516040518363ffffffff1660e01b81526004016117ca929190611ebb565b600060405180830381865afa1580156117e7573d6000803e3d6000fd5b505050506040513d6000823e3d601f19601f820116820180604052508101906118109190612064565b61168e565b905092915050565b6040518060400160405280611830611843565b815260200161183d611843565b81525090565b604051806020016040528061185661185c565b81525090565b604051806060016040528060608152602001600015158152602001600081525090565b6000604051905090565b600080fd5b600080fd5b600080fd5b6000601f19601f8301169050919050565b7f4e487b7100000000000000000000000000000000000000000000000000000000600052604160045260246000fd5b6118e182611898565b810181811067ffffffffffffffff82111715611900576118ff6118a9565b5b80604052505050565b600061191361187f565b905061191f82826118d8565b919050565b600080fd5b600080fd5b600080fd5b600067ffffffffffffffff82111561194e5761194d6118a9565b5b61195782611898565b9050602081019050919050565b82818337600083830152505050565b600061198661198184611933565b611909565b9050828152602081018484840111156119a2576119a161192e565b5b6119ad848285611964565b509392505050565b600082601f8301126119ca576119c9611929565b5b81356119da848260208601611973565b91505092915050565b60008115159050919050565b6119f8816119e3565b8114611a0357600080fd5b50565b600081359050611a15816119ef565b92915050565b6000819050919050565b611a2e81611a1b565b8114611a3957600080fd5b50565b600081359050611a4b81611a25565b92915050565b600060608284031215611a6757611a66611893565b5b611a716060611909565b9050600082013567ffffffffffffffff811115611a9157611a90611924565b5b611a9d848285016119b5565b6000830152506020611ab184828501611a06565b6020830152506040611ac584828501611a3c565b60408301525092915050565b600060208284031215611ae757611ae6611893565b5b611af16020611909565b9050600082013567ffffffffffffffff811115611b1157611b10611924565b5b611b1d84828501611a51565b60008301525092915050565b600060408284031215611b3f57611b3e611893565b5b611b496040611909565b9050600082013567ffffffffffffffff811115611b6957611b68611924565b5b611b7584828501611ad1565b600083015250602082013567ffffffffffffffff811115611b9957611b98611924565b5b611ba584828501611ad1565b60208301525092915050565b60008060408385031215611bc857611bc7611889565b5b600083013567ffffffffffffffff811115611be657611be561188e565b5b611bf285828601611b29565b925050602083013567ffffffffffffffff811115611c1357611c1261188e565b5b611c1f85828601611b29565b9150509250929050565b600081519050919050565b600082825260208201905092915050565b60005b83811015611c63578082015181840152602081019050611c48565b60008484015250505050565b6000611c7a82611c29565b611c848185611c34565b9350611c94818560208601611c45565b611c9d81611898565b840191505092915050565b611cb1816119e3565b82525050565b611cc081611a1b565b82525050565b60006060830160008301518482036000860152611ce38282611c6f565b9150506020830151611cf86020860182611ca8565b506040830151611d0b6040860182611cb7565b508091505092915050565b60006020830160008301518482036000860152611d338282611cc6565b9150508091505092915050565b60006040830160008301518482036000860152611d5d8282611d16565b91505060208301518482036020860152611d778282611d16565b9150508091505092915050565b60006020820190508181036000830152611d9e8184611d40565b905092915050565b600060208284031215611dbc57611dbb611889565b5b600082013567ffffffffffffffff811115611dda57611dd961188e565b5b611de684828501611b29565b91505092915050565b611df8816119e3565b82525050565b6000602082019050611e136000830184611def565b92915050565b60008060408385031215611e3057611e2f611889565b5b600083013567ffffffffffffffff811115611e4e57611e4d61188e565b5b611e5a85828601611ad1565b925050602083013567ffffffffffffffff811115611e7b57611e7a61188e565b5b611e8785828601611ad1565b9150509250929050565b60006020830160008301518482036000860152611eae8282611cc6565b9150508091505092915050565b60006040820190508181036000830152611ed58185611e91565b90508181036020830152611ee98184611e91565b90509392505050565b6000611f05611f0084611933565b611909565b905082815260208101848484011115611f2157611f2061192e565b5b611f2c848285611c45565b509392505050565b600082601f830112611f4957611f48611929565b5b8151611f59848260208601611ef2565b91505092915050565b600081519050611f71816119ef565b92915050565b600081519050611f8681611a25565b92915050565b600060608284031215611fa257611fa1611893565b5b611fac6060611909565b9050600082015167ffffffffffffffff811115611fcc57611fcb611924565b5b611fd884828501611f34565b6000830152506020611fec84828501611f62565b602083015250604061200084828501611f77565b60408301525092915050565b60006020828403121561202257612021611893565b5b61202c6020611909565b9050600082015167ffffffffffffffff81111561204c5761204b611924565b5b61205884828501611f8c565b60008301525092915050565b60006020828403121561207a57612079611889565b5b600082015167ffffffffffffffff8111156120985761209761188e565b5b6120a48482850161200c565b91505092915050565b600060208201905081810360008301526120c78184611e91565b905092915050565b6000602082840312156120e5576120e4611889565b5b60006120f384828501611f62565b9150509291505056fea264697066735822122030eb946b6333da2fdd41d91247ed424d7b344af559865feaa69229e9a5a743dd64736f6c634300081b0033608060405234801561001057600080fd5b50604051613842380380613842833981810160405281019061003291906100ed565b806000806101000a81548173ffffffffffffffffffffffffffffffffffffffff021916908373ffffffffffffffffffffffffffffffffffffffff1602179055505061011a565b600080fd5b600073ffffffffffffffffffffffffffffffffffffffff82169050919050565b60006100a88261007d565b9050919050565b60006100ba8261009d565b9050919050565b6100ca816100af565b81146100d557600080fd5b50565b6000815190506100e7816100c1565b92915050565b60006020828403121561010357610102610078565b5b6000610111848285016100d8565b91505092915050565b613719806101296000396000f3fe608060405234801561001057600080fd5b50600436106100cf5760003560e01c8063a03823051161008c578063ba510cc311610066578063ba510cc31461023c578063bc1b392d1461026c578063d6ba3d6d1461028a578063f7052ed6146102ba576100cf565b8063a0382305146101be578063a1fca2b6146101ee578063b52ab3b11461020c576100cf565b806345caa117146100d45780634aa28cb5146100f25780635fdf05d7146101225780637e28928014610140578063901717d1146101705780639faceb7e1461018e575b600080fd5b6100dc6102ea565b6040516100e99190612e5f565b60405180910390f35b61010c60048036038101906101079190613244565b6104bb565b6040516101199190612e5f565b60405180910390f35b61012a610fdd565b6040516101379190612e5f565b60405180910390f35b61015a60048036038101906101559190613244565b6111ae565b6040516101679190612e5f565b60405180910390f35b6101786113c1565b6040516101859190612e5f565b60405180910390f35b6101a860048036038101906101a391906132bc565b611592565b6040516101b59190612e5f565b60405180910390f35b6101d860048036038101906101d39190613244565b6115be565b6040516101e59190613372565b60405180910390f35b6101f66117c5565b6040516102039190612e5f565b60405180910390f35b6102266004803603810190610221919061338d565b611996565b6040516102339190612e5f565b60405180910390f35b61025660048036038101906102519190613244565b611a5a565b6040516102639190612e5f565b60405180910390f35b610274611a7c565b6040516102819190612e5f565b60405180910390f35b6102a4600480360381019061029f919061338d565b611c4d565b6040516102b19190612e5f565b60405180910390f35b6102d460048036038101906102cf9190613244565b6129d7565b6040516102e19190612e5f565b60405180910390f35b6102f2612bea565b6104b660008054906101000a900473ffffffffffffffffffffffffffffffffffffffff1673ffffffffffffffffffffffffffffffffffffffff166345caa1176040518163ffffffff1660e01b8152600401600060405180830381865afa158015610360573d6000803e3d6000fd5b505050506040513d6000823e3d601f19601f8201168201806040525081019061038991906135d0565b60008054906101000a900473ffffffffffffffffffffffffffffffffffffffff1673ffffffffffffffffffffffffffffffffffffffff1663bc1b392d6040518163ffffffff1660e01b8152600401600060405180830381865afa1580156103f4573d6000803e3d6000fd5b505050506040513d6000823e3d601f19601f8201168201806040525081019061041d91906135d0565b60008054906101000a900473ffffffffffffffffffffffffffffffffffffffff1673ffffffffffffffffffffffffffffffffffffffff1663bc1b392d6040518163ffffffff1660e01b8152600401600060405180830381865afa158015610488573d6000803e3d6000fd5b505050506040513d6000823e3d601f19601f820116820180604052508101906104b191906135d0565b611592565b905090565b6104c3612bea565b60008060009054906101000a900473ffffffffffffffffffffffffffffffffffffffff1673ffffffffffffffffffffffffffffffffffffffff166307a5ecaa856000015185600001516040518363ffffffff1660e01b815260040161052992919061365d565b600060405180830381865afa158015610546573d6000803e3d6000fd5b505050506040513d6000823e3d601f19601f8201168201806040525081019061056f91906135d0565b905060008060009054906101000a900473ffffffffffffffffffffffffffffffffffffffff1673ffffffffffffffffffffffffffffffffffffffff1663fbb740a860008054906101000a900473ffffffffffffffffffffffffffffffffffffffff1673ffffffffffffffffffffffffffffffffffffffff166307a5ecaa886000015188602001516040518363ffffffff1660e01b815260040161061392919061365d565b600060405180830381865afa158015610630573d6000803e3d6000fd5b505050506040513d6000823e3d601f19601f8201168201806040525081019061065991906135d0565b60008054906101000a900473ffffffffffffffffffffffffffffffffffffffff1673ffffffffffffffffffffffffffffffffffffffff166307a5ecaa896020015189600001516040518363ffffffff1660e01b81526004016106bc92919061365d565b600060405180830381865afa1580156106d9573d6000803e3d6000fd5b505050506040513d6000823e3d601f19601f8201168201806040525081019061070291906135d0565b6040518363ffffffff1660e01b815260040161071f92919061365d565b600060405180830381865afa15801561073c573d6000803e3d6000fd5b505050506040513d6000823e3d601f19601f8201168201806040525081019061076591906135d0565b905060008060009054906101000a900473ffffffffffffffffffffffffffffffffffffffff1673ffffffffffffffffffffffffffffffffffffffff1663fbb740a860008054906101000a900473ffffffffffffffffffffffffffffffffffffffff1673ffffffffffffffffffffffffffffffffffffffff1663fbb740a860008054906101000a900473ffffffffffffffffffffffffffffffffffffffff1673ffffffffffffffffffffffffffffffffffffffff166307a5ecaa8b600001518b604001516040518363ffffffff1660e01b815260040161084592919061365d565b600060405180830381865afa158015610862573d6000803e3d6000fd5b505050506040513d6000823e3d601f19601f8201168201806040525081019061088b91906135d0565b60008054906101000a900473ffffffffffffffffffffffffffffffffffffffff1673ffffffffffffffffffffffffffffffffffffffff166307a5ecaa8c602001518c602001516040518363ffffffff1660e01b81526004016108ee92919061365d565b600060405180830381865afa15801561090b573d6000803e3d6000fd5b505050506040513d6000823e3d601f19601f8201168201806040525081019061093491906135d0565b6040518363ffffffff1660e01b815260040161095192919061365d565b600060405180830381865afa15801561096e573d6000803e3d6000fd5b505050506040513d6000823e3d601f19601f8201168201806040525081019061099791906135d0565b60008054906101000a900473ffffffffffffffffffffffffffffffffffffffff1673ffffffffffffffffffffffffffffffffffffffff166307a5ecaa8a604001518a600001516040518363ffffffff1660e01b81526004016109fa92919061365d565b600060405180830381865afa158015610a17573d6000803e3d6000fd5b505050506040513d6000823e3d601f19601f82011682018060405250810190610a4091906135d0565b6040518363ffffffff1660e01b8152600401610a5d92919061365d565b600060405180830381865afa158015610a7a573d6000803e3d6000fd5b505050506040513d6000823e3d601f19601f82011682018060405250810190610aa391906135d0565b905060008060009054906101000a900473ffffffffffffffffffffffffffffffffffffffff1673ffffffffffffffffffffffffffffffffffffffff16639d2e83f560008054906101000a900473ffffffffffffffffffffffffffffffffffffffff1673ffffffffffffffffffffffffffffffffffffffff1663fbb740a860008054906101000a900473ffffffffffffffffffffffffffffffffffffffff1673ffffffffffffffffffffffffffffffffffffffff166307a5ecaa8c602001518c604001516040518363ffffffff1660e01b8152600401610b8392919061365d565b600060405180830381865afa158015610ba0573d6000803e3d6000fd5b505050506040513d6000823e3d601f19601f82011682018060405250810190610bc991906135d0565b60008054906101000a900473ffffffffffffffffffffffffffffffffffffffff1673ffffffffffffffffffffffffffffffffffffffff166307a5ecaa8d604001518d602001516040518363ffffffff1660e01b8152600401610c2c92919061365d565b600060405180830381865afa158015610c49573d6000803e3d6000fd5b505050506040513d6000823e3d601f19601f82011682018060405250810190610c7291906135d0565b6040518363ffffffff1660e01b8152600401610c8f92919061365d565b600060405180830381865afa158015610cac573d6000803e3d6000fd5b505050506040513d6000823e3d601f19601f82011682018060405250810190610cd591906135d0565b6040518263ffffffff1660e01b8152600401610cf19190613694565b600060405180830381865afa158015610d0e573d6000803e3d6000fd5b505050506040513d6000823e3d601f19601f82011682018060405250810190610d3791906135d0565b905060008060009054906101000a900473ffffffffffffffffffffffffffffffffffffffff1673ffffffffffffffffffffffffffffffffffffffff16639d2e83f560008054906101000a900473ffffffffffffffffffffffffffffffffffffffff1673ffffffffffffffffffffffffffffffffffffffff166307a5ecaa8b604001518b604001516040518363ffffffff1660e01b8152600401610ddb92919061365d565b600060405180830381865afa158015610df8573d6000803e3d6000fd5b505050506040513d6000823e3d601f19601f82011682018060405250810190610e2191906135d0565b6040518263ffffffff1660e01b8152600401610e3d9190613694565b600060405180830381865afa158015610e5a573d6000803e3d6000fd5b505050506040513d6000823e3d601f19601f82011682018060405250810190610e8391906135d0565b9050610fd060008054906101000a900473ffffffffffffffffffffffffffffffffffffffff1673ffffffffffffffffffffffffffffffffffffffff1663fbb740a887856040518363ffffffff1660e01b8152600401610ee392919061365d565b600060405180830381865afa158015610f00573d6000803e3d6000fd5b505050506040513d6000823e3d601f19601f82011682018060405250810190610f2991906135d0565b60008054906101000a900473ffffffffffffffffffffffffffffffffffffffff1673ffffffffffffffffffffffffffffffffffffffff1663fbb740a887856040518363ffffffff1660e01b8152600401610f8492919061365d565b600060405180830381865afa158015610fa1573d6000803e3d6000fd5b505050506040513d6000823e3d601f19601f82011682018060405250810190610fca91906135d0565b85611592565b9550505050505092915050565b610fe5612bea565b6111a960008054906101000a900473ffffffffffffffffffffffffffffffffffffffff1673ffffffffffffffffffffffffffffffffffffffff16635fdf05d76040518163ffffffff1660e01b8152600401600060405180830381865afa158015611053573d6000803e3d6000fd5b505050506040513d6000823e3d601f19601f8201168201806040525081019061107c91906135d0565b60008054906101000a900473ffffffffffffffffffffffffffffffffffffffff1673ffffffffffffffffffffffffffffffffffffffff1663bc1b392d6040518163ffffffff1660e01b8152600401600060405180830381865afa1580156110e7573d6000803e3d6000fd5b505050506040513d6000823e3d601f19601f8201168201806040525081019061111091906135d0565b60008054906101000a900473ffffffffffffffffffffffffffffffffffffffff1673ffffffffffffffffffffffffffffffffffffffff1663bc1b392d6040518163ffffffff1660e01b8152600401600060405180830381865afa15801561117b573d6000803e3d6000fd5b505050506040513d6000823e3d601f19601f820116820180604052508101906111a491906135d0565b611592565b905090565b6111b6612bea565b6113b960008054906101000a900473ffffffffffffffffffffffffffffffffffffffff1673ffffffffffffffffffffffffffffffffffffffff1663fbb740a8856000015185600001516040518363ffffffff1660e01b815260040161121c92919061365d565b600060405180830381865afa158015611239573d6000803e3d6000fd5b505050506040513d6000823e3d601f19601f8201168201806040525081019061126291906135d0565b60008054906101000a900473ffffffffffffffffffffffffffffffffffffffff1673ffffffffffffffffffffffffffffffffffffffff1663fbb740a8866020015186602001516040518363ffffffff1660e01b81526004016112c592919061365d565b600060405180830381865afa1580156112e2573d6000803e3d6000fd5b505050506040513d6000823e3d601f19601f8201168201806040525081019061130b91906135d0565b60008054906101000a900473ffffffffffffffffffffffffffffffffffffffff1673ffffffffffffffffffffffffffffffffffffffff1663fbb740a8876040015187604001516040518363ffffffff1660e01b815260040161136e92919061365d565b600060405180830381865afa15801561138b573d6000803e3d6000fd5b505050506040513d6000823e3d601f19601f820116820180604052508101906113b491906135d0565b611592565b905092915050565b6113c9612bea565b61158d60008054906101000a900473ffffffffffffffffffffffffffffffffffffffff1673ffffffffffffffffffffffffffffffffffffffff1663901717d16040518163ffffffff1660e01b8152600401600060405180830381865afa158015611437573d6000803e3d6000fd5b505050506040513d6000823e3d601f19601f8201168201806040525081019061146091906135d0565b60008054906101000a900473ffffffffffffffffffffffffffffffffffffffff1673ffffffffffffffffffffffffffffffffffffffff1663bc1b392d6040518163ffffffff1660e01b8152600401600060405180830381865afa1580156114cb573d6000803e3d6000fd5b505050506040513d6000823e3d601f19601f820116820180604052508101906114f491906135d0565b60008054906101000a900473ffffffffffffffffffffffffffffffffffffffff1673ffffffffffffffffffffffffffffffffffffffff1663bc1b392d6040518163ffffffff1660e01b8152600401600060405180830381865afa15801561155f573d6000803e3d6000fd5b505050506040513d6000823e3d601f19601f8201168201806040525081019061158891906135d0565b611592565b905090565b61159a612bea565b60405180606001604052808581526020018481526020018381525090509392505050565b60008060009054906101000a900473ffffffffffffffffffffffffffffffffffffffff1673ffffffffffffffffffffffffffffffffffffffff1663ab80cf76846000015184600001516040518363ffffffff1660e01b815260040161162492919061365d565b602060405180830381865afa158015611641573d6000803e3d6000fd5b505050506040513d601f19601f8201168201806040525081019061166591906136b6565b8015611711575060008054906101000a900473ffffffffffffffffffffffffffffffffffffffff1673ffffffffffffffffffffffffffffffffffffffff1663ab80cf76846020015184602001516040518363ffffffff1660e01b81526004016116cf92919061365d565b602060405180830381865afa1580156116ec573d6000803e3d6000fd5b505050506040513d601f19601f8201168201806040525081019061171091906136b6565b5b80156117bd575060008054906101000a900473ffffffffffffffffffffffffffffffffffffffff1673ffffffffffffffffffffffffffffffffffffffff1663ab80cf76846040015184604001516040518363ffffffff1660e01b815260040161177b92919061365d565b602060405180830381865afa158015611798573d6000803e3d6000fd5b505050506040513d601f19601f820116820180604052508101906117bc91906136b6565b5b905092915050565b6117cd612bea565b61199160008054906101000a900473ffffffffffffffffffffffffffffffffffffffff1673ffffffffffffffffffffffffffffffffffffffff1663a1fca2b66040518163ffffffff1660e01b8152600401600060405180830381865afa15801561183b573d6000803e3d6000fd5b505050506040513d6000823e3d601f19601f8201168201806040525081019061186491906135d0565b60008054906101000a900473ffffffffffffffffffffffffffffffffffffffff1673ffffffffffffffffffffffffffffffffffffffff1663bc1b392d6040518163ffffffff1660e01b8152600401600060405180830381865afa1580156118cf573d6000803e3d6000fd5b505050506040513d6000823e3d601f19601f820116820180604052508101906118f891906135d0565b60008054906101000a900473ffffffffffffffffffffffffffffffffffffffff1673ffffffffffffffffffffffffffffffffffffffff1663bc1b392d6040518163ffffffff1660e01b8152600401600060405180830381865afa158015611963573d6000803e3d6000fd5b505050506040513d6000823e3d601f19601f8201168201806040525081019061198c91906135d0565b611592565b905090565b61199e612bea565b611a5360008054906101000a900473ffffffffffffffffffffffffffffffffffffffff1673ffffffffffffffffffffffffffffffffffffffff16639d2e83f584604001516040518263ffffffff1660e01b81526004016119fe9190613694565b600060405180830381865afa158015611a1b573d6000803e3d6000fd5b505050506040513d6000823e3d601f19601f82011682018060405250810190611a4491906135d0565b83600001518460200151611592565b9050919050565b611a62612bea565b611a7483611a6f84611c4d565b6104bb565b905092915050565b611a84612bea565b611c4860008054906101000a900473ffffffffffffffffffffffffffffffffffffffff1673ffffffffffffffffffffffffffffffffffffffff1663bc1b392d6040518163ffffffff1660e01b8152600401600060405180830381865afa158015611af2573d6000803e3d6000fd5b505050506040513d6000823e3d601f19601f82011682018060405250810190611b1b91906135d0565b60008054906101000a900473ffffffffffffffffffffffffffffffffffffffff1673ffffffffffffffffffffffffffffffffffffffff1663bc1b392d6040518163ffffffff1660e01b8152600401600060405180830381865afa158015611b86573d6000803e3d6000fd5b505050506040513d6000823e3d601f19601f82011682018060405250810190611baf91906135d0565b60008054906101000a900473ffffffffffffffffffffffffffffffffffffffff1673ffffffffffffffffffffffffffffffffffffffff1663bc1b392d6040518163ffffffff1660e01b8152600401600060405180830381865afa158015611c1a573d6000803e3d6000fd5b505050506040513d6000823e3d601f19601f82011682018060405250810190611c4391906135d0565b611592565b905090565b611c55612bea565b60008060009054906101000a900473ffffffffffffffffffffffffffffffffffffffff1673ffffffffffffffffffffffffffffffffffffffff16635f6910d460008054906101000a900473ffffffffffffffffffffffffffffffffffffffff1673ffffffffffffffffffffffffffffffffffffffff166307a5ecaa866000015187600001516040518363ffffffff1660e01b8152600401611cf792919061365d565b600060405180830381865afa158015611d14573d6000803e3d6000fd5b505050506040513d6000823e3d601f19601f82011682018060405250810190611d3d91906135d0565b60008054906101000a900473ffffffffffffffffffffffffffffffffffffffff1673ffffffffffffffffffffffffffffffffffffffff16639d2e83f560008054906101000a900473ffffffffffffffffffffffffffffffffffffffff1673ffffffffffffffffffffffffffffffffffffffff166307a5ecaa89602001518a604001516040518363ffffffff1660e01b8152600401611ddc92919061365d565b600060405180830381865afa158015611df9573d6000803e3d6000fd5b505050506040513d6000823e3d601f19601f82011682018060405250810190611e2291906135d0565b6040518263ffffffff1660e01b8152600401611e3e9190613694565b600060405180830381865afa158015611e5b573d6000803e3d6000fd5b505050506040513d6000823e3d601f19601f82011682018060405250810190611e8491906135d0565b6040518363ffffffff1660e01b8152600401611ea192919061365d565b600060405180830381865afa158015611ebe573d6000803e3d6000fd5b505050506040513d6000823e3d601f19601f82011682018060405250810190611ee791906135d0565b905060008060009054906101000a900473ffffffffffffffffffffffffffffffffffffffff1673ffffffffffffffffffffffffffffffffffffffff16635f6910d460008054906101000a900473ffffffffffffffffffffffffffffffffffffffff1673ffffffffffffffffffffffffffffffffffffffff16639d2e83f560008054906101000a900473ffffffffffffffffffffffffffffffffffffffff1673ffffffffffffffffffffffffffffffffffffffff166307a5ecaa89604001518a604001516040518363ffffffff1660e01b8152600401611fc792919061365d565b600060405180830381865afa158015611fe4573d6000803e3d6000fd5b505050506040513d6000823e3d601f19601f8201168201806040525081019061200d91906135d0565b6040518263ffffffff1660e01b81526004016120299190613694565b600060405180830381865afa158015612046573d6000803e3d6000fd5b505050506040513d6000823e3d601f19601f8201168201806040525081019061206f91906135d0565b60008054906101000a900473ffffffffffffffffffffffffffffffffffffffff1673ffffffffffffffffffffffffffffffffffffffff166307a5ecaa886000015189602001516040518363ffffffff1660e01b81526004016120d292919061365d565b600060405180830381865afa1580156120ef573d6000803e3d6000fd5b505050506040513d6000823e3d601f19601f8201168201806040525081019061211891906135d0565b6040518363ffffffff1660e01b815260040161213592919061365d565b600060405180830381865afa158015612152573d6000803e3d6000fd5b505050506040513d6000823e3d601f19601f8201168201806040525081019061217b91906135d0565b905060008060009054906101000a900473ffffffffffffffffffffffffffffffffffffffff1673ffffffffffffffffffffffffffffffffffffffff16635f6910d460008054906101000a900473ffffffffffffffffffffffffffffffffffffffff1673ffffffffffffffffffffffffffffffffffffffff166307a5ecaa886020015189602001516040518363ffffffff1660e01b815260040161221f92919061365d565b600060405180830381865afa15801561223c573d6000803e3d6000fd5b505050506040513d6000823e3d601f19601f8201168201806040525081019061226591906135d0565b60008054906101000a900473ffffffffffffffffffffffffffffffffffffffff1673ffffffffffffffffffffffffffffffffffffffff166307a5ecaa89600001518a604001516040518363ffffffff1660e01b81526004016122c892919061365d565b600060405180830381865afa1580156122e5573d6000803e3d6000fd5b505050506040513d6000823e3d601f19601f8201168201806040525081019061230e91906135d0565b6040518363ffffffff1660e01b815260040161232b92919061365d565b600060405180830381865afa158015612348573d6000803e3d6000fd5b505050506040513d6000823e3d601f19601f8201168201806040525081019061237191906135d0565b905060008060009054906101000a900473ffffffffffffffffffffffffffffffffffffffff1673ffffffffffffffffffffffffffffffffffffffff1663fbb740a860008054906101000a900473ffffffffffffffffffffffffffffffffffffffff1673ffffffffffffffffffffffffffffffffffffffff1663fbb740a860008054906101000a900473ffffffffffffffffffffffffffffffffffffffff1673ffffffffffffffffffffffffffffffffffffffff166307a5ecaa8b600001518a6040518363ffffffff1660e01b815260040161244d92919061365d565b600060405180830381865afa15801561246a573d6000803e3d6000fd5b505050506040513d6000823e3d601f19601f8201168201806040525081019061249391906135d0565b60008054906101000a900473ffffffffffffffffffffffffffffffffffffffff1673ffffffffffffffffffffffffffffffffffffffff16639d2e83f560008054906101000a900473ffffffffffffffffffffffffffffffffffffffff1673ffffffffffffffffffffffffffffffffffffffff166307a5ecaa8e604001518c6040518363ffffffff1660e01b815260040161252e92919061365d565b600060405180830381865afa15801561254b573d6000803e3d6000fd5b505050506040513d6000823e3d601f19601f8201168201806040525081019061257491906135d0565b6040518263ffffffff1660e01b81526004016125909190613694565b600060405180830381865afa1580156125ad573d6000803e3d6000fd5b505050506040513d6000823e3d601f19601f820116820180604052508101906125d691906135d0565b6040518363ffffffff1660e01b81526004016125f392919061365d565b600060405180830381865afa158015612610573d6000803e3d6000fd5b505050506040513d6000823e3d601f19601f8201168201806040525081019061263991906135d0565b60008054906101000a900473ffffffffffffffffffffffffffffffffffffffff1673ffffffffffffffffffffffffffffffffffffffff16639d2e83f560008054906101000a900473ffffffffffffffffffffffffffffffffffffffff1673ffffffffffffffffffffffffffffffffffffffff166307a5ecaa8c60200151896040518363ffffffff1660e01b81526004016126d492919061365d565b600060405180830381865afa1580156126f1573d6000803e3d6000fd5b505050506040513d6000823e3d601f19601f8201168201806040525081019061271a91906135d0565b6040518263ffffffff1660e01b81526004016127369190613694565b600060405180830381865afa158015612753573d6000803e3d6000fd5b505050506040513d6000823e3d601f19601f8201168201806040525081019061277c91906135d0565b6040518363ffffffff1660e01b815260040161279992919061365d565b600060405180830381865afa1580156127b6573d6000803e3d6000fd5b505050506040513d6000823e3d601f19601f820116820180604052508101906127df91906135d0565b90506129cc60008054906101000a900473ffffffffffffffffffffffffffffffffffffffff1673ffffffffffffffffffffffffffffffffffffffff1663232b9e5a86846040518363ffffffff1660e01b815260040161283f92919061365d565b600060405180830381865afa15801561285c573d6000803e3d6000fd5b505050506040513d6000823e3d601f19601f8201168201806040525081019061288591906135d0565b60008054906101000a900473ffffffffffffffffffffffffffffffffffffffff1673ffffffffffffffffffffffffffffffffffffffff1663232b9e5a86856040518363ffffffff1660e01b81526004016128e092919061365d565b600060405180830381865afa1580156128fd573d6000803e3d6000fd5b505050506040513d6000823e3d601f19601f8201168201806040525081019061292691906135d0565b60008054906101000a900473ffffffffffffffffffffffffffffffffffffffff1673ffffffffffffffffffffffffffffffffffffffff1663232b9e5a86866040518363ffffffff1660e01b815260040161298192919061365d565b600060405180830381865afa15801561299e573d6000803e3d6000fd5b505050506040513d6000823e3d601f19601f820116820180604052508101906129c791906135d0565b611592565b945050505050919050565b6129df612bea565b612be260008054906101000a900473ffffffffffffffffffffffffffffffffffffffff1673ffffffffffffffffffffffffffffffffffffffff16635f6910d4856000015185600001516040518363ffffffff1660e01b8152600401612a4592919061365d565b600060405180830381865afa158015612a62573d6000803e3d6000fd5b505050506040513d6000823e3d601f19601f82011682018060405250810190612a8b91906135d0565b60008054906101000a900473ffffffffffffffffffffffffffffffffffffffff1673ffffffffffffffffffffffffffffffffffffffff16635f6910d4866020015186602001516040518363ffffffff1660e01b8152600401612aee92919061365d565b600060405180830381865afa158015612b0b573d6000803e3d6000fd5b505050506040513d6000823e3d601f19601f82011682018060405250810190612b3491906135d0565b60008054906101000a900473ffffffffffffffffffffffffffffffffffffffff1673ffffffffffffffffffffffffffffffffffffffff16635f6910d4876040015187604001516040518363ffffffff1660e01b8152600401612b9792919061365d565b600060405180830381865afa158015612bb4573d6000803e3d6000fd5b505050506040513d6000823e3d601f19601f82011682018060405250810190612bdd91906135d0565b611592565b905092915050565b6040518060600160405280612bfd612c1d565b8152602001612c0a612c1d565b8152602001612c17612c1d565b81525090565b6040518060400160405280612c30612c43565b8152602001612c3d612c43565b81525090565b6040518060200160405280612c56612c5c565b81525090565b604051806060016040528060608152602001600015158152602001600081525090565b600081519050919050565b600082825260208201905092915050565b60005b83811015612cb9578082015181840152602081019050612c9e565b60008484015250505050565b6000601f19601f8301169050919050565b6000612ce182612c7f565b612ceb8185612c8a565b9350612cfb818560208601612c9b565b612d0481612cc5565b840191505092915050565b60008115159050919050565b612d2481612d0f565b82525050565b6000819050919050565b612d3d81612d2a565b82525050565b60006060830160008301518482036000860152612d608282612cd6565b9150506020830151612d756020860182612d1b565b506040830151612d886040860182612d34565b508091505092915050565b60006020830160008301518482036000860152612db08282612d43565b9150508091505092915050565b60006040830160008301518482036000860152612dda8282612d93565b91505060208301518482036020860152612df48282612d93565b9150508091505092915050565b60006060830160008301518482036000860152612e1e8282612dbd565b91505060208301518482036020860152612e388282612dbd565b91505060408301518482036040860152612e528282612dbd565b9150508091505092915050565b60006020820190508181036000830152612e798184612e01565b905092915050565b6000604051905090565b600080fd5b600080fd5b600080fd5b7f4e487b7100000000000000000000000000000000000000000000000000000000600052604160045260246000fd5b612ed282612cc5565b810181811067ffffffffffffffff82111715612ef157612ef0612e9a565b5b80604052505050565b6000612f04612e81565b9050612f108282612ec9565b919050565b600080fd5b600080fd5b600080fd5b600067ffffffffffffffff821115612f3f57612f3e612e9a565b5b612f4882612cc5565b9050602081019050919050565b82818337600083830152505050565b6000612f77612f7284612f24565b612efa565b905082815260208101848484011115612f9357612f92612f1f565b5b612f9e848285612f55565b509392505050565b600082601f830112612fbb57612fba612f1a565b5b8135612fcb848260208601612f64565b91505092915050565b612fdd81612d0f565b8114612fe857600080fd5b50565b600081359050612ffa81612fd4565b92915050565b61300981612d2a565b811461301457600080fd5b50565b60008135905061302681613000565b92915050565b60006060828403121561304257613041612e95565b5b61304c6060612efa565b9050600082013567ffffffffffffffff81111561306c5761306b612f15565b5b61307884828501612fa6565b600083015250602061308c84828501612feb565b60208301525060406130a084828501613017565b60408301525092915050565b6000602082840312156130c2576130c1612e95565b5b6130cc6020612efa565b9050600082013567ffffffffffffffff8111156130ec576130eb612f15565b5b6130f88482850161302c565b60008301525092915050565b60006040828403121561311a57613119612e95565b5b6131246040612efa565b9050600082013567ffffffffffffffff81111561314457613143612f15565b5b613150848285016130ac565b600083015250602082013567ffffffffffffffff81111561317457613173612f15565b5b613180848285016130ac565b60208301525092915050565b6000606082840312156131a2576131a1612e95565b5b6131ac6060612efa565b9050600082013567ffffffffffffffff8111156131cc576131cb612f15565b5b6131d884828501613104565b600083015250602082013567ffffffffffffffff8111156131fc576131fb612f15565b5b61320884828501613104565b602083015250604082013567ffffffffffffffff81111561322c5761322b612f15565b5b61323884828501613104565b60408301525092915050565b6000806040838503121561325b5761325a612e8b565b5b600083013567ffffffffffffffff81111561327957613278612e90565b5b6132858582860161318c565b925050602083013567ffffffffffffffff8111156132a6576132a5612e90565b5b6132b28582860161318c565b9150509250929050565b6000806000606084860312156132d5576132d4612e8b565b5b600084013567ffffffffffffffff8111156132f3576132f2612e90565b5b6132ff86828701613104565b935050602084013567ffffffffffffffff8111156133205761331f612e90565b5b61332c86828701613104565b925050604084013567ffffffffffffffff81111561334d5761334c612e90565b5b61335986828701613104565b9150509250925092565b61336c81612d0f565b82525050565b60006020820190506133876000830184613363565b92915050565b6000602082840312156133a3576133a2612e8b565b5b600082013567ffffffffffffffff8111156133c1576133c0612e90565b5b6133cd8482850161318c565b91505092915050565b60006133e96133e484612f24565b612efa565b90508281526020810184848401111561340557613404612f1f565b5b613410848285612c9b565b509392505050565b600082601f83011261342d5761342c612f1a565b5b815161343d8482602086016133d6565b91505092915050565b60008151905061345581612fd4565b92915050565b60008151905061346a81613000565b92915050565b60006060828403121561348657613485612e95565b5b6134906060612efa565b9050600082015167ffffffffffffffff8111156134b0576134af612f15565b5b6134bc84828501613418565b60008301525060206134d084828501613446565b60208301525060406134e48482850161345b565b60408301525092915050565b60006020828403121561350657613505612e95565b5b6135106020612efa565b9050600082015167ffffffffffffffff8111156135305761352f612f15565b5b61353c84828501613470565b60008301525092915050565b60006040828403121561355e5761355d612e95565b5b6135686040612efa565b9050600082015167ffffffffffffffff81111561358857613587612f15565b5b613594848285016134f0565b600083015250602082015167ffffffffffffffff8111156135b8576135b7612f15565b5b6135c4848285016134f0565b60208301525092915050565b6000602082840312156135e6576135e5612e8b565b5b600082015167ffffffffffffffff81111561360457613603612e90565b5b61361084828501613548565b91505092915050565b600060408301600083015184820360008601526136368282612d93565b915050602083015184820360208601526136508282612d93565b9150508091505092915050565b600060408201905081810360008301526136778185613619565b9050818103602083015261368b8184613619565b90509392505050565b600060208201905081810360008301526136ae8184613619565b905092915050565b6000602082840312156136cc576136cb612e8b565b5b60006136da84828501613446565b9150509291505056fea26469706673582212209dfff7d4321b6a76f0ea12702cb47ddc2121d8d5e9f7162a80d10ff62910a97764736f6c634300081b0033608060405234801561001057600080fd5b506040516124c13803806124c1833981810160405281019061003291906100ed565b806000806101000a81548173ffffffffffffffffffffffffffffffffffffffff021916908373ffffffffffffffffffffffffffffffffffffffff1602179055505061011a565b600080fd5b600073ffffffffffffffffffffffffffffffffffffffff82169050919050565b60006100a88261007d565b9050919050565b60006100ba8261009d565b9050919050565b6100ca816100af565b81146100d557600080fd5b50565b6000815190506100e7816100c1565b92915050565b60006020828403121561010357610102610078565b5b6000610111848285016100d8565b91505092915050565b612398806101296000396000f3fe608060405234801561001057600080fd5b50600436106100a95760003560e01c80639e0ddc50116100715780639e0ddc50146101685780639eea8ce814610198578063a1fca2b6146101c8578063bc1b392d146101e6578063f670079514610204578063f87386c314610234576100a9565b806345caa117146100ae5780635fdf05d7146100cc5780636bc90c28146100ea57806377839c691461011a578063901717d11461014a575b600080fd5b6100b6610264565b6040516100c391906119b3565b60405180910390f35b6100d46103a1565b6040516100e191906119b3565b60405180910390f35b61010460048036038101906100ff9190611e20565b6104de565b60405161011191906119b3565b60405180910390f35b610134600480360381019061012f9190611e20565b610648565b60405161014191906119b3565b60405180910390f35b610152610afc565b60405161015f91906119b3565b60405180910390f35b610182600480360381019061017d9190611e20565b610c39565b60405161018f91906119b3565b60405180910390f35b6101b260048036038101906101ad9190611e20565b610da3565b6040516101bf9190611ea7565b60405180910390f35b6101d0610efe565b6040516101dd91906119b3565b60405180910390f35b6101ee61103b565b6040516101fb91906119b3565b60405180910390f35b61021e60048036038101906102199190611ec2565b611178565b60405161022b91906119b3565b60405180910390f35b61024e60048036038101906102499190611f0b565b6116af565b60405161025b91906119b3565b60405180910390f35b61026c6116d4565b61039c60008054906101000a900473ffffffffffffffffffffffffffffffffffffffff1673ffffffffffffffffffffffffffffffffffffffff166345caa1176040518163ffffffff1660e01b8152600401600060405180830381865afa1580156102da573d6000803e3d6000fd5b505050506040513d6000823e3d601f19601f820116820180604052508101906103039190612235565b60008054906101000a900473ffffffffffffffffffffffffffffffffffffffff1673ffffffffffffffffffffffffffffffffffffffff1663bc1b392d6040518163ffffffff1660e01b8152600401600060405180830381865afa15801561036e573d6000803e3d6000fd5b505050506040513d6000823e3d601f19601f820116820180604052508101906103979190612235565b6116af565b905090565b6103a96116d4565b6104d960008054906101000a900473ffffffffffffffffffffffffffffffffffffffff1673ffffffffffffffffffffffffffffffffffffffff16635fdf05d76040518163ffffffff1660e01b8152600401600060405180830381865afa158015610417573d6000803e3d6000fd5b505050506040513d6000823e3d601f19601f820116820180604052508101906104409190612235565b60008054906101000a900473ffffffffffffffffffffffffffffffffffffffff1673ffffffffffffffffffffffffffffffffffffffff1663bc1b392d6040518163ffffffff1660e01b8152600401600060405180830381865afa1580156104ab573d6000803e3d6000fd5b505050506040513d6000823e3d601f19601f820116820180604052508101906104d49190612235565b6116af565b905090565b6104e66116d4565b61064060008054906101000a900473ffffffffffffffffffffffffffffffffffffffff1673ffffffffffffffffffffffffffffffffffffffff1663f7052ed6856000015185600001516040518363ffffffff1660e01b815260040161054c9291906122dc565b600060405180830381865afa158015610569573d6000803e3d6000fd5b505050506040513d6000823e3d601f19601f820116820180604052508101906105929190612235565b60008054906101000a900473ffffffffffffffffffffffffffffffffffffffff1673ffffffffffffffffffffffffffffffffffffffff1663f7052ed6866020015186602001516040518363ffffffff1660e01b81526004016105f59291906122dc565b600060405180830381865afa158015610612573d6000803e3d6000fd5b505050506040513d6000823e3d601f19601f8201168201806040525081019061063b9190612235565b6116af565b905092915050565b6106506116d4565b60008060009054906101000a900473ffffffffffffffffffffffffffffffffffffffff1673ffffffffffffffffffffffffffffffffffffffff1663b52ab3b160008054906101000a900473ffffffffffffffffffffffffffffffffffffffff1673ffffffffffffffffffffffffffffffffffffffff16634aa28cb5876020015187602001516040518363ffffffff1660e01b81526004016106f29291906122dc565b600060405180830381865afa15801561070f573d6000803e3d6000fd5b505050506040513d6000823e3d601f19601f820116820180604052508101906107389190612235565b6040518263ffffffff1660e01b81526004016107549190612313565b600060405180830381865afa158015610771573d6000803e3d6000fd5b505050506040513d6000823e3d601f19601f8201168201806040525081019061079a9190612235565b905060008060009054906101000a900473ffffffffffffffffffffffffffffffffffffffff1673ffffffffffffffffffffffffffffffffffffffff16634aa28cb5866000015186600001516040518363ffffffff1660e01b81526004016108029291906122dc565b600060405180830381865afa15801561081f573d6000803e3d6000fd5b505050506040513d6000823e3d601f19601f820116820180604052508101906108489190612235565b905060008060009054906101000a900473ffffffffffffffffffffffffffffffffffffffff1673ffffffffffffffffffffffffffffffffffffffff16634aa28cb5876020015187600001516040518363ffffffff1660e01b81526004016108b09291906122dc565b600060405180830381865afa1580156108cd573d6000803e3d6000fd5b505050506040513d6000823e3d601f19601f820116820180604052508101906108f69190612235565b905060008060009054906101000a900473ffffffffffffffffffffffffffffffffffffffff1673ffffffffffffffffffffffffffffffffffffffff16634aa28cb5886000015188602001516040518363ffffffff1660e01b815260040161095e9291906122dc565b600060405180830381865afa15801561097b573d6000803e3d6000fd5b505050506040513d6000823e3d601f19601f820116820180604052508101906109a49190612235565b9050610af060008054906101000a900473ffffffffffffffffffffffffffffffffffffffff1673ffffffffffffffffffffffffffffffffffffffff16637e28928086866040518363ffffffff1660e01b8152600401610a049291906122dc565b600060405180830381865afa158015610a21573d6000803e3d6000fd5b505050506040513d6000823e3d601f19601f82011682018060405250810190610a4a9190612235565b60008054906101000a900473ffffffffffffffffffffffffffffffffffffffff1673ffffffffffffffffffffffffffffffffffffffff16637e28928085856040518363ffffffff1660e01b8152600401610aa59291906122dc565b600060405180830381865afa158015610ac2573d6000803e3d6000fd5b505050506040513d6000823e3d601f19601f82011682018060405250810190610aeb9190612235565b6116af565b94505050505092915050565b610b046116d4565b610c3460008054906101000a900473ffffffffffffffffffffffffffffffffffffffff1673ffffffffffffffffffffffffffffffffffffffff1663901717d16040518163ffffffff1660e01b8152600401600060405180830381865afa158015610b72573d6000803e3d6000fd5b505050506040513d6000823e3d601f19601f82011682018060405250810190610b9b9190612235565b60008054906101000a900473ffffffffffffffffffffffffffffffffffffffff1673ffffffffffffffffffffffffffffffffffffffff1663bc1b392d6040518163ffffffff1660e01b8152600401600060405180830381865afa158015610c06573d6000803e3d6000fd5b505050506040513d6000823e3d601f19601f82011682018060405250810190610c2f9190612235565b6116af565b905090565b610c416116d4565b610d9b60008054906101000a900473ffffffffffffffffffffffffffffffffffffffff1673ffffffffffffffffffffffffffffffffffffffff16637e289280856000015185600001516040518363ffffffff1660e01b8152600401610ca79291906122dc565b600060405180830381865afa158015610cc4573d6000803e3d6000fd5b505050506040513d6000823e3d601f19601f82011682018060405250810190610ced9190612235565b60008054906101000a900473ffffffffffffffffffffffffffffffffffffffff1673ffffffffffffffffffffffffffffffffffffffff16637e289280866020015186602001516040518363ffffffff1660e01b8152600401610d509291906122dc565b600060405180830381865afa158015610d6d573d6000803e3d6000fd5b505050506040513d6000823e3d601f19601f82011682018060405250810190610d969190612235565b6116af565b905092915050565b60008060009054906101000a900473ffffffffffffffffffffffffffffffffffffffff1673ffffffffffffffffffffffffffffffffffffffff1663a0382305846000015184600001516040518363ffffffff1660e01b8152600401610e099291906122dc565b602060405180830381865afa158015610e26573d6000803e3d6000fd5b505050506040513d601f19601f82011682018060405250810190610e4a9190612335565b8015610ef6575060008054906101000a900473ffffffffffffffffffffffffffffffffffffffff1673ffffffffffffffffffffffffffffffffffffffff1663a0382305846020015184602001516040518363ffffffff1660e01b8152600401610eb49291906122dc565b602060405180830381865afa158015610ed1573d6000803e3d6000fd5b505050506040513d601f19601f82011682018060405250810190610ef59190612335565b5b905092915050565b610f066116d4565b61103660008054906101000a900473ffffffffffffffffffffffffffffffffffffffff1673ffffffffffffffffffffffffffffffffffffffff1663a1fca2b66040518163ffffffff1660e01b8152600401600060405180830381865afa158015610f74573d6000803e3d6000fd5b505050506040513d6000823e3d601f19601f82011682018060405250810190610f9d9190612235565b60008054906101000a900473ffffffffffffffffffffffffffffffffffffffff1673ffffffffffffffffffffffffffffffffffffffff1663bc1b392d6040518163ffffffff1660e01b8152600401600060405180830381865afa158015611008573d6000803e3d6000fd5b505050506040513d6000823e3d601f19601f820116820180604052508101906110319190612235565b6116af565b905090565b6110436116d4565b61117360008054906101000a900473ffffffffffffffffffffffffffffffffffffffff1673ffffffffffffffffffffffffffffffffffffffff1663bc1b392d6040518163ffffffff1660e01b8152600401600060405180830381865afa1580156110b1573d6000803e3d6000fd5b505050506040513d6000823e3d601f19601f820116820180604052508101906110da9190612235565b60008054906101000a900473ffffffffffffffffffffffffffffffffffffffff1673ffffffffffffffffffffffffffffffffffffffff1663bc1b392d6040518163ffffffff1660e01b8152600401600060405180830381865afa158015611145573d6000803e3d6000fd5b505050506040513d6000823e3d601f19601f8201168201806040525081019061116e9190612235565b6116af565b905090565b6111806116d4565b60008060009054906101000a900473ffffffffffffffffffffffffffffffffffffffff1673ffffffffffffffffffffffffffffffffffffffff1663b52ab3b160008054906101000a900473ffffffffffffffffffffffffffffffffffffffff1673ffffffffffffffffffffffffffffffffffffffff16634aa28cb5866020015187602001516040518363ffffffff1660e01b81526004016112229291906122dc565b600060405180830381865afa15801561123f573d6000803e3d6000fd5b505050506040513d6000823e3d601f19601f820116820180604052508101906112689190612235565b6040518263ffffffff1660e01b81526004016112849190612313565b600060405180830381865afa1580156112a1573d6000803e3d6000fd5b505050506040513d6000823e3d601f19601f820116820180604052508101906112ca9190612235565b905060008060009054906101000a900473ffffffffffffffffffffffffffffffffffffffff1673ffffffffffffffffffffffffffffffffffffffff16634aa28cb5856000015186600001516040518363ffffffff1660e01b81526004016113329291906122dc565b600060405180830381865afa15801561134f573d6000803e3d6000fd5b505050506040513d6000823e3d601f19601f820116820180604052508101906113789190612235565b905060008060009054906101000a900473ffffffffffffffffffffffffffffffffffffffff1673ffffffffffffffffffffffffffffffffffffffff1663f7052ed683856040518363ffffffff1660e01b81526004016113d89291906122dc565b600060405180830381865afa1580156113f5573d6000803e3d6000fd5b505050506040513d6000823e3d601f19601f8201168201806040525081019061141e9190612235565b90506116a560008054906101000a900473ffffffffffffffffffffffffffffffffffffffff1673ffffffffffffffffffffffffffffffffffffffff1663ba510cc38760000151846040518363ffffffff1660e01b81526004016114829291906122dc565b600060405180830381865afa15801561149f573d6000803e3d6000fd5b505050506040513d6000823e3d601f19601f820116820180604052508101906114c89190612235565b60008054906101000a900473ffffffffffffffffffffffffffffffffffffffff1673ffffffffffffffffffffffffffffffffffffffff1663ba510cc360008054906101000a900473ffffffffffffffffffffffffffffffffffffffff1673ffffffffffffffffffffffffffffffffffffffff1663f7052ed660008054906101000a900473ffffffffffffffffffffffffffffffffffffffff1673ffffffffffffffffffffffffffffffffffffffff1663bc1b392d6040518163ffffffff1660e01b8152600401600060405180830381865afa1580156115ab573d6000803e3d6000fd5b505050506040513d6000823e3d601f19601f820116820180604052508101906115d49190612235565b8b602001516040518363ffffffff1660e01b81526004016115f69291906122dc565b600060405180830381865afa158015611613573d6000803e3d6000fd5b505050506040513d6000823e3d601f19601f8201168201806040525081019061163c9190612235565b856040518363ffffffff1660e01b815260040161165a9291906122dc565b600060405180830381865afa158015611677573d6000803e3d6000fd5b505050506040513d6000823e3d601f19601f820116820180604052508101906116a09190612235565b6116af565b9350505050919050565b6116b76116d4565b604051806040016040528084815260200183815250905092915050565b60405180604001604052806116e76116fa565b81526020016116f46116fa565b81525090565b604051806060016040528061170d61172d565b815260200161171a61172d565b815260200161172761172d565b81525090565b6040518060400160405280611740611753565b815260200161174d611753565b81525090565b604051806020016040528061176661176c565b81525090565b604051806060016040528060608152602001600015158152602001600081525090565b600081519050919050565b600082825260208201905092915050565b60005b838110156117c95780820151818401526020810190506117ae565b60008484015250505050565b6000601f19601f8301169050919050565b60006117f18261178f565b6117fb818561179a565b935061180b8185602086016117ab565b611814816117d5565b840191505092915050565b60008115159050919050565b6118348161181f565b82525050565b6000819050919050565b61184d8161183a565b82525050565b6000606083016000830151848203600086015261187082826117e6565b9150506020830151611885602086018261182b565b5060408301516118986040860182611844565b508091505092915050565b600060208301600083015184820360008601526118c08282611853565b9150508091505092915050565b600060408301600083015184820360008601526118ea82826118a3565b9150506020830151848203602086015261190482826118a3565b9150508091505092915050565b6000606083016000830151848203600086015261192e82826118cd565b9150506020830151848203602086015261194882826118cd565b9150506040830151848203604086015261196282826118cd565b9150508091505092915050565b6000604083016000830151848203600086015261198c8282611911565b915050602083015184820360208601526119a68282611911565b9150508091505092915050565b600060208201905081810360008301526119cd818461196f565b905092915050565b6000604051905090565b600080fd5b600080fd5b600080fd5b7f4e487b7100000000000000000000000000000000000000000000000000000000600052604160045260246000fd5b611a26826117d5565b810181811067ffffffffffffffff82111715611a4557611a446119ee565b5b80604052505050565b6000611a586119d5565b9050611a648282611a1d565b919050565b600080fd5b600080fd5b600080fd5b600067ffffffffffffffff821115611a9357611a926119ee565b5b611a9c826117d5565b9050602081019050919050565b82818337600083830152505050565b6000611acb611ac684611a78565b611a4e565b905082815260208101848484011115611ae757611ae6611a73565b5b611af2848285611aa9565b509392505050565b600082601f830112611b0f57611b0e611a6e565b5b8135611b1f848260208601611ab8565b91505092915050565b611b318161181f565b8114611b3c57600080fd5b50565b600081359050611b4e81611b28565b92915050565b611b5d8161183a565b8114611b6857600080fd5b50565b600081359050611b7a81611b54565b92915050565b600060608284031215611b9657611b956119e9565b5b611ba06060611a4e565b9050600082013567ffffffffffffffff811115611bc057611bbf611a69565b5b611bcc84828501611afa565b6000830152506020611be084828501611b3f565b6020830152506040611bf484828501611b6b565b60408301525092915050565b600060208284031215611c1657611c156119e9565b5b611c206020611a4e565b9050600082013567ffffffffffffffff811115611c4057611c3f611a69565b5b611c4c84828501611b80565b60008301525092915050565b600060408284031215611c6e57611c6d6119e9565b5b611c786040611a4e565b9050600082013567ffffffffffffffff811115611c9857611c97611a69565b5b611ca484828501611c00565b600083015250602082013567ffffffffffffffff811115611cc857611cc7611a69565b5b611cd484828501611c00565b60208301525092915050565b600060608284031215611cf657611cf56119e9565b5b611d006060611a4e565b9050600082013567ffffffffffffffff811115611d2057611d1f611a69565b5b611d2c84828501611c58565b600083015250602082013567ffffffffffffffff811115611d5057611d4f611a69565b5b611d5c84828501611c58565b602083015250604082013567ffffffffffffffff811115611d8057611d7f611a69565b5b611d8c84828501611c58565b60408301525092915050565b600060408284031215611dae57611dad6119e9565b5b611db86040611a4e565b9050600082013567ffffffffffffffff811115611dd857611dd7611a69565b5b611de484828501611ce0565b600083015250602082013567ffffffffffffffff811115611e0857611e07611a69565b5b611e1484828501611ce0565b60208301525092915050565b60008060408385031215611e3757611e366119df565b5b600083013567ffffffffffffffff811115611e5557611e546119e4565b5b611e6185828601611d98565b925050602083013567ffffffffffffffff811115611e8257611e816119e4565b5b611e8e85828601611d98565b9150509250929050565b611ea18161181f565b82525050565b6000602082019050611ebc6000830184611e98565b92915050565b600060208284031215611ed857611ed76119df565b5b600082013567ffffffffffffffff811115611ef657611ef56119e4565b5b611f0284828501611d98565b91505092915050565b60008060408385031215611f2257611f216119df565b5b600083013567ffffffffffffffff811115611f4057611f3f6119e4565b5b611f4c85828601611ce0565b925050602083013567ffffffffffffffff811115611f6d57611f6c6119e4565b5b611f7985828601611ce0565b9150509250929050565b6000611f96611f9184611a78565b611a4e565b905082815260208101848484011115611fb257611fb1611a73565b5b611fbd8482856117ab565b509392505050565b600082601f830112611fda57611fd9611a6e565b5b8151611fea848260208601611f83565b91505092915050565b60008151905061200281611b28565b92915050565b60008151905061201781611b54565b92915050565b600060608284031215612033576120326119e9565b5b61203d6060611a4e565b9050600082015167ffffffffffffffff81111561205d5761205c611a69565b5b61206984828501611fc5565b600083015250602061207d84828501611ff3565b602083015250604061209184828501612008565b60408301525092915050565b6000602082840312156120b3576120b26119e9565b5b6120bd6020611a4e565b9050600082015167ffffffffffffffff8111156120dd576120dc611a69565b5b6120e98482850161201d565b60008301525092915050565b60006040828403121561210b5761210a6119e9565b5b6121156040611a4e565b9050600082015167ffffffffffffffff81111561213557612134611a69565b5b6121418482850161209d565b600083015250602082015167ffffffffffffffff81111561216557612164611a69565b5b6121718482850161209d565b60208301525092915050565b600060608284031215612193576121926119e9565b5b61219d6060611a4e565b9050600082015167ffffffffffffffff8111156121bd576121bc611a69565b5b6121c9848285016120f5565b600083015250602082015167ffffffffffffffff8111156121ed576121ec611a69565b5b6121f9848285016120f5565b602083015250604082015167ffffffffffffffff81111561221d5761221c611a69565b5b612229848285016120f5565b60408301525092915050565b60006020828403121561224b5761224a6119df565b5b600082015167ffffffffffffffff811115612269576122686119e4565b5b6122758482850161217d565b91505092915050565b6000606083016000830151848203600086015261229b82826118cd565b915050602083015184820360208601526122b582826118cd565b915050604083015184820360408601526122cf82826118cd565b9150508091505092915050565b600060408201905081810360008301526122f6818561227e565b9050818103602083015261230a818461227e565b90509392505050565b6000602082019050818103600083015261232d818461227e565b905092915050565b60006020828403121561234b5761234a6119df565b5b600061235984828501611ff3565b9150509291505056fea264697066735822122075906b152e0bdd32d693dda352a7679a5b2e8bae39f70e58c94f95cbcded6e2764736f6c634300081b0033608060405234801561001057600080fd5b50604051612cd8380380612cd8833981810160405281019061003291906100ed565b806000806101000a81548173ffffffffffffffffffffffffffffffffffffffff021916908373ffffffffffffffffffffffffffffffffffffffff1602179055505061011a565b600080fd5b600073ffffffffffffffffffffffffffffffffffffffff82169050919050565b60006100a88261007d565b9050919050565b60006100ba8261009d565b9050919050565b6100ca816100af565b81146100d557600080fd5b50565b6000815190506100e7816100c1565b92915050565b60006020828403121561010357610102610078565b5b6000610111848285016100d8565b91505092915050565b612baf806101296000396000f3fe608060405234801561001057600080fd5b50600436106100565760003560e01c80627995931461005b57806307951d691461008b5780633e072985146100bb5780636cee5a0b146100eb57806398dc089a1461011b575b600080fd5b61007560048036038101906100709190612217565b61014b565b6040516100829190612474565b60405180910390f35b6100a560048036038101906100a09190612496565b6103bf565b6040516100b29190612474565b60405180910390f35b6100d560048036038101906100d0919061250e565b610eb1565b6040516100e29190612474565b60405180910390f35b61010560048036038101906101009190612599565b610eef565b6040516101129190612474565b60405180910390f35b61013560048036038101906101309190612599565b6119b1565b6040516101429190612474565b60405180910390f35b610153611e31565b6000610287600160008054906101000a900473ffffffffffffffffffffffffffffffffffffffff1673ffffffffffffffffffffffffffffffffffffffff1663bc1b392d6040518163ffffffff1660e01b8152600401600060405180830381865afa1580156101c5573d6000803e3d6000fd5b505050506040513d6000823e3d601f19601f820116820180604052508101906101ee9190612754565b60008054906101000a900473ffffffffffffffffffffffffffffffffffffffff1673ffffffffffffffffffffffffffffffffffffffff1663bc1b392d6040518163ffffffff1660e01b8152600401600060405180830381865afa158015610259573d6000803e3d6000fd5b505050506040513d6000823e3d601f19601f820116820180604052508101906102829190612754565b610eb1565b905083602001516102a55761029d848483611b71565b9150506103b9565b6103b573__$7db5d2dbc3ae63372df6c39d501ad0f72a$__63b1d74ee98673__$7db5d2dbc3ae63372df6c39d501ad0f72a$__6340957f726001806040518363ffffffff1660e01b81526004016102fd9291906127f1565b600060405180830381865af415801561031a573d6000803e3d6000fd5b505050506040513d6000823e3d601f19601f82011682018060405250810190610343919061281a565b6040518363ffffffff1660e01b815260040161036092919061291b565b600060405180830381865af415801561037d573d6000803e3d6000fd5b505050506040513d6000823e3d601f19601f820116820180604052508101906103a6919061281a565b6103af856119b1565b83611b71565b9150505b92915050565b6103c7611e31565b6001808111156103da576103d961228f565b5b836000015160018111156103f1576103f061228f565b5b036103fe57819050610eab565b6001808111156104115761041061228f565b5b826000015160018111156104285761042761228f565b5b0361043557829050610eab565b60008054906101000a900473ffffffffffffffffffffffffffffffffffffffff1673ffffffffffffffffffffffffffffffffffffffff1663d4d45554846020015184602001516040518363ffffffff1660e01b815260040161049892919061297c565b602060405180830381865afa1580156104b5573d6000803e3d6000fd5b505050506040513d601f19601f820116820180604052508101906104d991906129b3565b8015610585575060008054906101000a900473ffffffffffffffffffffffffffffffffffffffff1673ffffffffffffffffffffffffffffffffffffffff1663d4d45554846040015184604001516040518363ffffffff1660e01b815260040161054392919061297c565b602060405180830381865afa158015610560573d6000803e3d6000fd5b505050506040513d601f19601f8201168201806040525081019061058491906129b3565b5b1561059a5761059383610eef565b9050610eab565b60008054906101000a900473ffffffffffffffffffffffffffffffffffffffff1673ffffffffffffffffffffffffffffffffffffffff1663d4d45554846020015184602001516040518363ffffffff1660e01b81526004016105fd92919061297c565b602060405180830381865afa15801561061a573d6000803e3d6000fd5b505050506040513d601f19601f8201168201806040525081019061063e91906129b3565b80156106eb575060008054906101000a900473ffffffffffffffffffffffffffffffffffffffff1673ffffffffffffffffffffffffffffffffffffffff1663d4d45554846040015184604001516040518363ffffffff1660e01b81526004016106a892919061297c565b602060405180830381865afa1580156106c5573d6000803e3d6000fd5b505050506040513d601f19601f820116820180604052508101906106e991906129b3565b155b1561082957610822600160008054906101000a900473ffffffffffffffffffffffffffffffffffffffff1673ffffffffffffffffffffffffffffffffffffffff1663bc1b392d6040518163ffffffff1660e01b8152600401600060405180830381865afa158015610760573d6000803e3d6000fd5b505050506040513d6000823e3d601f19601f820116820180604052508101906107899190612754565b60008054906101000a900473ffffffffffffffffffffffffffffffffffffffff1673ffffffffffffffffffffffffffffffffffffffff1663bc1b392d6040518163ffffffff1660e01b8152600401600060405180830381865afa1580156107f4573d6000803e3d6000fd5b505050506040513d6000823e3d601f19601f8201168201806040525081019061081d9190612754565b610eb1565b9050610eab565b60008060009054906101000a900473ffffffffffffffffffffffffffffffffffffffff1673ffffffffffffffffffffffffffffffffffffffff1663b5e2832560008054906101000a900473ffffffffffffffffffffffffffffffffffffffff1673ffffffffffffffffffffffffffffffffffffffff1663fb2bedad866040015188604001516040518363ffffffff1660e01b81526004016108cb92919061297c565b600060405180830381865afa1580156108e8573d6000803e3d6000fd5b505050506040513d6000823e3d601f19601f820116820180604052508101906109119190612754565b60008054906101000a900473ffffffffffffffffffffffffffffffffffffffff1673ffffffffffffffffffffffffffffffffffffffff1663a672d10060008054906101000a900473ffffffffffffffffffffffffffffffffffffffff1673ffffffffffffffffffffffffffffffffffffffff1663fb2bedad89602001518b602001516040518363ffffffff1660e01b81526004016109b092919061297c565b600060405180830381865afa1580156109cd573d6000803e3d6000fd5b505050506040513d6000823e3d601f19601f820116820180604052508101906109f69190612754565b6040518263ffffffff1660e01b8152600401610a1291906129e0565b600060405180830381865afa158015610a2f573d6000803e3d6000fd5b505050506040513d6000823e3d601f19601f82011682018060405250810190610a589190612754565b6040518363ffffffff1660e01b8152600401610a7592919061297c565b600060405180830381865afa158015610a92573d6000803e3d6000fd5b505050506040513d6000823e3d601f19601f82011682018060405250810190610abb9190612754565b905060008060009054906101000a900473ffffffffffffffffffffffffffffffffffffffff1673ffffffffffffffffffffffffffffffffffffffff1663fb2bedad60008054906101000a900473ffffffffffffffffffffffffffffffffffffffff1673ffffffffffffffffffffffffffffffffffffffff1663fb2bedad60008054906101000a900473ffffffffffffffffffffffffffffffffffffffff1673ffffffffffffffffffffffffffffffffffffffff1663b5e2832587886040518363ffffffff1660e01b8152600401610b9392919061297c565b600060405180830381865afa158015610bb0573d6000803e3d6000fd5b505050506040513d6000823e3d601f19601f82011682018060405250810190610bd99190612754565b89602001516040518363ffffffff1660e01b8152600401610bfb92919061297c565b600060405180830381865afa158015610c18573d6000803e3d6000fd5b505050506040513d6000823e3d601f19601f82011682018060405250810190610c419190612754565b86602001516040518363ffffffff1660e01b8152600401610c6392919061297c565b600060405180830381865afa158015610c80573d6000803e3d6000fd5b505050506040513d6000823e3d601f19601f82011682018060405250810190610ca99190612754565b905060008060009054906101000a900473ffffffffffffffffffffffffffffffffffffffff1673ffffffffffffffffffffffffffffffffffffffff1663fb2bedad60008054906101000a900473ffffffffffffffffffffffffffffffffffffffff1673ffffffffffffffffffffffffffffffffffffffff1663b5e2832560008054906101000a900473ffffffffffffffffffffffffffffffffffffffff1673ffffffffffffffffffffffffffffffffffffffff1663fb2bedad8b60200151886040518363ffffffff1660e01b8152600401610d8592919061297c565b600060405180830381865afa158015610da2573d6000803e3d6000fd5b505050506040513d6000823e3d601f19601f82011682018060405250810190610dcb9190612754565b876040518363ffffffff1660e01b8152600401610de992919061297c565b600060405180830381865afa158015610e06573d6000803e3d6000fd5b505050506040513d6000823e3d601f19601f82011682018060405250810190610e2f9190612754565b88604001516040518363ffffffff1660e01b8152600401610e5192919061297c565b600060405180830381865afa158015610e6e573d6000803e3d6000fd5b505050506040513d6000823e3d601f19601f82011682018060405250810190610e979190612754565b9050610ea560008383610eb1565b93505050505b92915050565b610eb9611e31565b6040518060600160405280856001811115610ed757610ed661228f565b5b81526020018481526020018381525090509392505050565b610ef7611e31565b60008054906101000a900473ffffffffffffffffffffffffffffffffffffffff1673ffffffffffffffffffffffffffffffffffffffff1663d4d45554836040015160008054906101000a900473ffffffffffffffffffffffffffffffffffffffff1673ffffffffffffffffffffffffffffffffffffffff1663bc1b392d6040518163ffffffff1660e01b8152600401600060405180830381865afa158015610fa3573d6000803e3d6000fd5b505050506040513d6000823e3d601f19601f82011682018060405250810190610fcc9190612754565b6040518363ffffffff1660e01b8152600401610fe992919061297c565b602060405180830381865afa158015611006573d6000803e3d6000fd5b505050506040513d601f19601f8201168201806040525081019061102a91906129b3565b1561116857611161600160008054906101000a900473ffffffffffffffffffffffffffffffffffffffff1673ffffffffffffffffffffffffffffffffffffffff1663bc1b392d6040518163ffffffff1660e01b8152600401600060405180830381865afa15801561109f573d6000803e3d6000fd5b505050506040513d6000823e3d601f19601f820116820180604052508101906110c89190612754565b60008054906101000a900473ffffffffffffffffffffffffffffffffffffffff1673ffffffffffffffffffffffffffffffffffffffff1663bc1b392d6040518163ffffffff1660e01b8152600401600060405180830381865afa158015611133573d6000803e3d6000fd5b505050506040513d6000823e3d601f19601f8201168201806040525081019061115c9190612754565b610eb1565b90506119ac565b60008060009054906101000a900473ffffffffffffffffffffffffffffffffffffffff1673ffffffffffffffffffffffffffffffffffffffff1663b5e2832560008054906101000a900473ffffffffffffffffffffffffffffffffffffffff1673ffffffffffffffffffffffffffffffffffffffff1663b5e2832560008054906101000a900473ffffffffffffffffffffffffffffffffffffffff1673ffffffffffffffffffffffffffffffffffffffff166345caa1176040518163ffffffff1660e01b8152600401600060405180830381865afa15801561124e573d6000803e3d6000fd5b505050506040513d6000823e3d601f19601f820116820180604052508101906112779190612754565b60008054906101000a900473ffffffffffffffffffffffffffffffffffffffff1673ffffffffffffffffffffffffffffffffffffffff1663b5e2832589602001518a602001516040518363ffffffff1660e01b81526004016112da92919061297c565b600060405180830381865afa1580156112f7573d6000803e3d6000fd5b505050506040513d6000823e3d601f19601f820116820180604052508101906113209190612754565b6040518363ffffffff1660e01b815260040161133d92919061297c565b600060405180830381865afa15801561135a573d6000803e3d6000fd5b505050506040513d6000823e3d601f19601f820116820180604052508101906113839190612754565b60008054906101000a900473ffffffffffffffffffffffffffffffffffffffff1673ffffffffffffffffffffffffffffffffffffffff1663a672d10060008054906101000a900473ffffffffffffffffffffffffffffffffffffffff1673ffffffffffffffffffffffffffffffffffffffff1663b5e2832560008054906101000a900473ffffffffffffffffffffffffffffffffffffffff1673ffffffffffffffffffffffffffffffffffffffff16635fdf05d76040518163ffffffff1660e01b8152600401600060405180830381865afa158015611466573d6000803e3d6000fd5b505050506040513d6000823e3d601f19601f8201168201806040525081019061148f9190612754565b8a604001516040518363ffffffff1660e01b81526004016114b192919061297c565b600060405180830381865afa1580156114ce573d6000803e3d6000fd5b505050506040513d6000823e3d601f19601f820116820180604052508101906114f79190612754565b6040518263ffffffff1660e01b815260040161151391906129e0565b600060405180830381865afa158015611530573d6000803e3d6000fd5b505050506040513d6000823e3d601f19601f820116820180604052508101906115599190612754565b6040518363ffffffff1660e01b815260040161157692919061297c565b600060405180830381865afa158015611593573d6000803e3d6000fd5b505050506040513d6000823e3d601f19601f820116820180604052508101906115bc9190612754565b905060008060009054906101000a900473ffffffffffffffffffffffffffffffffffffffff1673ffffffffffffffffffffffffffffffffffffffff1663fb2bedad60008054906101000a900473ffffffffffffffffffffffffffffffffffffffff1673ffffffffffffffffffffffffffffffffffffffff1663fb2bedad60008054906101000a900473ffffffffffffffffffffffffffffffffffffffff1673ffffffffffffffffffffffffffffffffffffffff1663b5e2832587886040518363ffffffff1660e01b815260040161169492919061297c565b600060405180830381865afa1580156116b1573d6000803e3d6000fd5b505050506040513d6000823e3d601f19601f820116820180604052508101906116da9190612754565b88602001516040518363ffffffff1660e01b81526004016116fc92919061297c565b600060405180830381865afa158015611719573d6000803e3d6000fd5b505050506040513d6000823e3d601f19601f820116820180604052508101906117429190612754565b86602001516040518363ffffffff1660e01b815260040161176492919061297c565b600060405180830381865afa158015611781573d6000803e3d6000fd5b505050506040513d6000823e3d601f19601f820116820180604052508101906117aa9190612754565b905060008060009054906101000a900473ffffffffffffffffffffffffffffffffffffffff1673ffffffffffffffffffffffffffffffffffffffff1663fb2bedad60008054906101000a900473ffffffffffffffffffffffffffffffffffffffff1673ffffffffffffffffffffffffffffffffffffffff1663b5e2832560008054906101000a900473ffffffffffffffffffffffffffffffffffffffff1673ffffffffffffffffffffffffffffffffffffffff1663fb2bedad8a60200151886040518363ffffffff1660e01b815260040161188692919061297c565b600060405180830381865afa1580156118a3573d6000803e3d6000fd5b505050506040513d6000823e3d601f19601f820116820180604052508101906118cc9190612754565b876040518363ffffffff1660e01b81526004016118ea92919061297c565b600060405180830381865afa158015611907573d6000803e3d6000fd5b505050506040513d6000823e3d601f19601f820116820180604052508101906119309190612754565b87604001516040518363ffffffff1660e01b815260040161195292919061297c565b600060405180830381865afa15801561196f573d6000803e3d6000fd5b505050506040513d6000823e3d601f19601f820116820180604052508101906119989190612754565b90506119a660008383610eb1565b93505050505b919050565b6119b9611e31565b6001808111156119cc576119cb61228f565b5b826000015160018111156119e3576119e261228f565b5b03611a23576040517f08c379a0000000000000000000000000000000000000000000000000000000008152600401611a1a90612a5f565b60405180910390fd5b611b6a6000836020015160008054906101000a900473ffffffffffffffffffffffffffffffffffffffff1673ffffffffffffffffffffffffffffffffffffffff1663fb2bedad60008054906101000a900473ffffffffffffffffffffffffffffffffffffffff1673ffffffffffffffffffffffffffffffffffffffff1663bc1b392d6040518163ffffffff1660e01b8152600401600060405180830381865afa158015611ad4573d6000803e3d6000fd5b505050506040513d6000823e3d601f19601f82011682018060405250810190611afd9190612754565b87604001516040518363ffffffff1660e01b8152600401611b1f92919061297c565b600060405180830381865afa158015611b3c573d6000803e3d6000fd5b505050506040513d6000823e3d601f19601f82011682018060405250810190611b659190612754565b610eb1565b9050919050565b611b79611e31565b600073__$7db5d2dbc3ae63372df6c39d501ad0f72a$__63bc39804e8673__$7db5d2dbc3ae63372df6c39d501ad0f72a$__63bc1b392d6040518163ffffffff1660e01b8152600401600060405180830381865af4158015611bdf573d6000803e3d6000fd5b505050506040513d6000823e3d601f19601f82011682018060405250810190611c08919061281a565b60006040518463ffffffff1660e01b8152600401611c2893929190612a7f565b602060405180830381865af4158015611c45573d6000803e3d6000fd5b505050506040513d601f19601f82011682018060405250810190611c699190612afa565b03611c7657819050611e2a565b73__$7db5d2dbc3ae63372df6c39d501ad0f72a$__63ee4a4e4e856040518263ffffffff1660e01b8152600401611cad9190612b27565b602060405180830381865af4158015611cca573d6000803e3d6000fd5b505050506040513d601f19601f82011682018060405250810190611cee91906129b3565b15611d9557611d8e73__$7db5d2dbc3ae63372df6c39d501ad0f72a$__636efac6c78660016040518363ffffffff1660e01b8152600401611d30929190612b49565b600060405180830381865af4158015611d4d573d6000803e3d6000fd5b505050506040513d6000823e3d601f19601f82011682018060405250810190611d76919061281a565b611d7f85610eef565b611d8985876103bf565b611b71565b9050611e2a565b611e2773__$7db5d2dbc3ae63372df6c39d501ad0f72a$__636efac6c78660016040518363ffffffff1660e01b8152600401611dd2929190612b49565b600060405180830381865af4158015611def573d6000803e3d6000fd5b505050506040513d6000823e3d601f19601f82011682018060405250810190611e18919061281a565b611e2185610eef565b84611b71565b90505b9392505050565b604051806060016040528060006001811115611e5057611e4f61228f565b5b8152602001611e5d611e70565b8152602001611e6a611e70565b81525090565b6040518060200160405280611e83611e89565b81525090565b604051806060016040528060608152602001600015158152602001600081525090565b6000604051905090565b600080fd5b600080fd5b600080fd5b6000601f19601f8301169050919050565b7f4e487b7100000000000000000000000000000000000000000000000000000000600052604160045260246000fd5b611f0e82611ec5565b810181811067ffffffffffffffff82111715611f2d57611f2c611ed6565b5b80604052505050565b6000611f40611eac565b9050611f4c8282611f05565b919050565b600080fd5b600080fd5b600080fd5b600067ffffffffffffffff821115611f7b57611f7a611ed6565b5b611f8482611ec5565b9050602081019050919050565b82818337600083830152505050565b6000611fb3611fae84611f60565b611f36565b905082815260208101848484011115611fcf57611fce611f5b565b5b611fda848285611f91565b509392505050565b600082601f830112611ff757611ff6611f56565b5b8135612007848260208601611fa0565b91505092915050565b60008115159050919050565b61202581612010565b811461203057600080fd5b50565b6000813590506120428161201c565b92915050565b6000819050919050565b61205b81612048565b811461206657600080fd5b50565b60008135905061207881612052565b92915050565b60006060828403121561209457612093611ec0565b5b61209e6060611f36565b9050600082013567ffffffffffffffff8111156120be576120bd611f51565b5b6120ca84828501611fe2565b60008301525060206120de84828501612033565b60208301525060406120f284828501612069565b60408301525092915050565b6002811061210b57600080fd5b50565b60008135905061211d816120fe565b92915050565b60006020828403121561213957612138611ec0565b5b6121436020611f36565b9050600082013567ffffffffffffffff81111561216357612162611f51565b5b61216f8482850161207e565b60008301525092915050565b60006060828403121561219157612190611ec0565b5b61219b6060611f36565b905060006121ab8482850161210e565b600083015250602082013567ffffffffffffffff8111156121cf576121ce611f51565b5b6121db84828501612123565b602083015250604082013567ffffffffffffffff8111156121ff576121fe611f51565b5b61220b84828501612123565b60408301525092915050565b6000806040838503121561222e5761222d611eb6565b5b600083013567ffffffffffffffff81111561224c5761224b611ebb565b5b6122588582860161207e565b925050602083013567ffffffffffffffff81111561227957612278611ebb565b5b6122858582860161217b565b9150509250929050565b7f4e487b7100000000000000000000000000000000000000000000000000000000600052602160045260246000fd5b600281106122cf576122ce61228f565b5b50565b60008190506122e0826122be565b919050565b60006122f0826122d2565b9050919050565b612300816122e5565b82525050565b600081519050919050565b600082825260208201905092915050565b60005b83811015612340578082015181840152602081019050612325565b60008484015250505050565b600061235782612306565b6123618185612311565b9350612371818560208601612322565b61237a81611ec5565b840191505092915050565b61238e81612010565b82525050565b61239d81612048565b82525050565b600060608301600083015184820360008601526123c0828261234c565b91505060208301516123d56020860182612385565b5060408301516123e86040860182612394565b508091505092915050565b6000602083016000830151848203600086015261241082826123a3565b9150508091505092915050565b600060608301600083015161243560008601826122f7565b506020830151848203602086015261244d82826123f3565b9150506040830151848203604086015261246782826123f3565b9150508091505092915050565b6000602082019050818103600083015261248e818461241d565b905092915050565b600080604083850312156124ad576124ac611eb6565b5b600083013567ffffffffffffffff8111156124cb576124ca611ebb565b5b6124d78582860161217b565b925050602083013567ffffffffffffffff8111156124f8576124f7611ebb565b5b6125048582860161217b565b9150509250929050565b60008060006060848603121561252757612526611eb6565b5b60006125358682870161210e565b935050602084013567ffffffffffffffff81111561255657612555611ebb565b5b61256286828701612123565b925050604084013567ffffffffffffffff81111561258357612582611ebb565b5b61258f86828701612123565b9150509250925092565b6000602082840312156125af576125ae611eb6565b5b600082013567ffffffffffffffff8111156125cd576125cc611ebb565b5b6125d98482850161217b565b91505092915050565b60006125f56125f084611f60565b611f36565b90508281526020810184848401111561261157612610611f5b565b5b61261c848285612322565b509392505050565b600082601f83011261263957612638611f56565b5b81516126498482602086016125e2565b91505092915050565b6000815190506126618161201c565b92915050565b60008151905061267681612052565b92915050565b60006060828403121561269257612691611ec0565b5b61269c6060611f36565b9050600082015167ffffffffffffffff8111156126bc576126bb611f51565b5b6126c884828501612624565b60008301525060206126dc84828501612652565b60208301525060406126f084828501612667565b60408301525092915050565b60006020828403121561271257612711611ec0565b5b61271c6020611f36565b9050600082015167ffffffffffffffff81111561273c5761273b611f51565b5b6127488482850161267c565b60008301525092915050565b60006020828403121561276a57612769611eb6565b5b600082015167ffffffffffffffff81111561278857612787611ebb565b5b612794848285016126fc565b91505092915050565b6000819050919050565b6000819050919050565b60006127cc6127c76127c28461279d565b6127a7565b612048565b9050919050565b6127dc816127b1565b82525050565b6127eb81612010565b82525050565b600060408201905061280660008301856127d3565b61281360208301846127e2565b9392505050565b6000602082840312156128305761282f611eb6565b5b600082015167ffffffffffffffff81111561284e5761284d611ebb565b5b61285a8482850161267c565b91505092915050565b600082825260208201905092915050565b600061287f82612306565b6128898185612863565b9350612899818560208601612322565b6128a281611ec5565b840191505092915050565b6128b681612010565b82525050565b6128c581612048565b82525050565b600060608301600083015184820360008601526128e88282612874565b91505060208301516128fd60208601826128ad565b50604083015161291060408601826128bc565b508091505092915050565b6000604082019050818103600083015261293581856128cb565b9050818103602083015261294981846128cb565b90509392505050565b6000602083016000830151848203600086015261296f82826123a3565b9150508091505092915050565b600060408201905081810360008301526129968185612952565b905081810360208301526129aa8184612952565b90509392505050565b6000602082840312156129c9576129c8611eb6565b5b60006129d784828501612652565b91505092915050565b600060208201905081810360008301526129fa8184612952565b905092915050565b600082825260208201905092915050565b7f63616e6e6f74206e656761746520706f696e7420617420696e66696e69747900600082015250565b6000612a49601f83612a02565b9150612a5482612a13565b602082019050919050565b60006020820190508181036000830152612a7881612a3c565b9050919050565b60006060820190508181036000830152612a9981866128cb565b90508181036020830152612aad81856128cb565b9050612abc60408301846127e2565b949350505050565b6000819050919050565b612ad781612ac4565b8114612ae257600080fd5b50565b600081519050612af481612ace565b92915050565b600060208284031215612b1057612b0f611eb6565b5b6000612b1e84828501612ae5565b91505092915050565b60006020820190508181036000830152612b4181846128cb565b905092915050565b60006040820190508181036000830152612b6381856128cb565b9050612b7260208301846127d3565b939250505056fea2646970667358221220c02e71ba8899cfa909e2bb1fe1df7a341aad905d5df83f477c996a561705d70564736f6c634300081b0033608060405234801561001057600080fd5b50604051612e6d380380612e6d833981810160405281019061003291906100ed565b806000806101000a81548173ffffffffffffffffffffffffffffffffffffffff021916908373ffffffffffffffffffffffffffffffffffffffff1602179055505061011a565b600080fd5b600073ffffffffffffffffffffffffffffffffffffffff82169050919050565b60006100a88261007d565b9050919050565b60006100ba8261009d565b9050919050565b6100ca816100af565b81146100d557600080fd5b50565b6000815190506100e7816100c1565b92915050565b60006020828403121561010357610102610078565b5b6000610111848285016100d8565b91505092915050565b612d44806101296000396000f3fe608060405234801561001057600080fd5b50600436106100575760003560e01c80632106685b1461005c57806324dca0c71461008c57806355e359c8146100bc5780639ee46fb3146100ec578063bedacbae1461011c575b600080fd5b610076600480360381019061007191906122c6565b61014c565b6040516100839190612538565b60405180910390f35b6100a660048036038101906100a1919061255a565b61030c565b6040516100b39190612538565b60405180910390f35b6100d660048036038101906100d191906125d2565b610dfe565b6040516100e39190612538565b60405180910390f35b610106600480360381019061010191906122c6565b611072565b6040516101139190612538565b60405180910390f35b6101366004803603810190610131919061264a565b611b34565b6040516101439190612538565b60405180910390f35b610154611e32565b6001808111156101675761016661230f565b5b8260000151600181111561017e5761017d61230f565b5b036101be576040517f08c379a00000000000000000000000000000000000000000000000000000000081526004016101b590612732565b60405180910390fd5b6103056000836020015160008054906101000a900473ffffffffffffffffffffffffffffffffffffffff1673ffffffffffffffffffffffffffffffffffffffff16635f6910d460008054906101000a900473ffffffffffffffffffffffffffffffffffffffff1673ffffffffffffffffffffffffffffffffffffffff1663bc1b392d6040518163ffffffff1660e01b8152600401600060405180830381865afa15801561026f573d6000803e3d6000fd5b505050506040513d6000823e3d601f19601f82011682018060405250810190610298919061294c565b87604001516040518363ffffffff1660e01b81526004016102ba9291906129d9565b600060405180830381865afa1580156102d7573d6000803e3d6000fd5b505050506040513d6000823e3d601f19601f82011682018060405250810190610300919061294c565b611b34565b9050919050565b610314611e32565b6001808111156103275761032661230f565b5b8360000151600181111561033e5761033d61230f565b5b0361034b57819050610df8565b60018081111561035e5761035d61230f565b5b826000015160018111156103755761037461230f565b5b0361038257829050610df8565b60008054906101000a900473ffffffffffffffffffffffffffffffffffffffff1673ffffffffffffffffffffffffffffffffffffffff1663ab80cf76846020015184602001516040518363ffffffff1660e01b81526004016103e59291906129d9565b602060405180830381865afa158015610402573d6000803e3d6000fd5b505050506040513d601f19601f820116820180604052508101906104269190612a10565b80156104d2575060008054906101000a900473ffffffffffffffffffffffffffffffffffffffff1673ffffffffffffffffffffffffffffffffffffffff1663ab80cf76846040015184604001516040518363ffffffff1660e01b81526004016104909291906129d9565b602060405180830381865afa1580156104ad573d6000803e3d6000fd5b505050506040513d601f19601f820116820180604052508101906104d19190612a10565b5b156104e7576104e083611072565b9050610df8565b60008054906101000a900473ffffffffffffffffffffffffffffffffffffffff1673ffffffffffffffffffffffffffffffffffffffff1663ab80cf76846020015184602001516040518363ffffffff1660e01b815260040161054a9291906129d9565b602060405180830381865afa158015610567573d6000803e3d6000fd5b505050506040513d601f19601f8201168201806040525081019061058b9190612a10565b8015610638575060008054906101000a900473ffffffffffffffffffffffffffffffffffffffff1673ffffffffffffffffffffffffffffffffffffffff1663ab80cf76846040015184604001516040518363ffffffff1660e01b81526004016105f59291906129d9565b602060405180830381865afa158015610612573d6000803e3d6000fd5b505050506040513d601f19601f820116820180604052508101906106369190612a10565b155b156107765761076f600160008054906101000a900473ffffffffffffffffffffffffffffffffffffffff1673ffffffffffffffffffffffffffffffffffffffff1663bc1b392d6040518163ffffffff1660e01b8152600401600060405180830381865afa1580156106ad573d6000803e3d6000fd5b505050506040513d6000823e3d601f19601f820116820180604052508101906106d6919061294c565b60008054906101000a900473ffffffffffffffffffffffffffffffffffffffff1673ffffffffffffffffffffffffffffffffffffffff1663bc1b392d6040518163ffffffff1660e01b8152600401600060405180830381865afa158015610741573d6000803e3d6000fd5b505050506040513d6000823e3d601f19601f8201168201806040525081019061076a919061294c565b611b34565b9050610df8565b60008060009054906101000a900473ffffffffffffffffffffffffffffffffffffffff1673ffffffffffffffffffffffffffffffffffffffff166307a5ecaa60008054906101000a900473ffffffffffffffffffffffffffffffffffffffff1673ffffffffffffffffffffffffffffffffffffffff16635f6910d4866040015188604001516040518363ffffffff1660e01b81526004016108189291906129d9565b600060405180830381865afa158015610835573d6000803e3d6000fd5b505050506040513d6000823e3d601f19601f8201168201806040525081019061085e919061294c565b60008054906101000a900473ffffffffffffffffffffffffffffffffffffffff1673ffffffffffffffffffffffffffffffffffffffff166364c044fe60008054906101000a900473ffffffffffffffffffffffffffffffffffffffff1673ffffffffffffffffffffffffffffffffffffffff16635f6910d489602001518b602001516040518363ffffffff1660e01b81526004016108fd9291906129d9565b600060405180830381865afa15801561091a573d6000803e3d6000fd5b505050506040513d6000823e3d601f19601f82011682018060405250810190610943919061294c565b6040518263ffffffff1660e01b815260040161095f9190612a3d565b600060405180830381865afa15801561097c573d6000803e3d6000fd5b505050506040513d6000823e3d601f19601f820116820180604052508101906109a5919061294c565b6040518363ffffffff1660e01b81526004016109c29291906129d9565b600060405180830381865afa1580156109df573d6000803e3d6000fd5b505050506040513d6000823e3d601f19601f82011682018060405250810190610a08919061294c565b905060008060009054906101000a900473ffffffffffffffffffffffffffffffffffffffff1673ffffffffffffffffffffffffffffffffffffffff16635f6910d460008054906101000a900473ffffffffffffffffffffffffffffffffffffffff1673ffffffffffffffffffffffffffffffffffffffff16635f6910d460008054906101000a900473ffffffffffffffffffffffffffffffffffffffff1673ffffffffffffffffffffffffffffffffffffffff166307a5ecaa87886040518363ffffffff1660e01b8152600401610ae09291906129d9565b600060405180830381865afa158015610afd573d6000803e3d6000fd5b505050506040513d6000823e3d601f19601f82011682018060405250810190610b26919061294c565b89602001516040518363ffffffff1660e01b8152600401610b489291906129d9565b600060405180830381865afa158015610b65573d6000803e3d6000fd5b505050506040513d6000823e3d601f19601f82011682018060405250810190610b8e919061294c565b86602001516040518363ffffffff1660e01b8152600401610bb09291906129d9565b600060405180830381865afa158015610bcd573d6000803e3d6000fd5b505050506040513d6000823e3d601f19601f82011682018060405250810190610bf6919061294c565b905060008060009054906101000a900473ffffffffffffffffffffffffffffffffffffffff1673ffffffffffffffffffffffffffffffffffffffff16635f6910d460008054906101000a900473ffffffffffffffffffffffffffffffffffffffff1673ffffffffffffffffffffffffffffffffffffffff166307a5ecaa60008054906101000a900473ffffffffffffffffffffffffffffffffffffffff1673ffffffffffffffffffffffffffffffffffffffff16635f6910d48b60200151886040518363ffffffff1660e01b8152600401610cd29291906129d9565b600060405180830381865afa158015610cef573d6000803e3d6000fd5b505050506040513d6000823e3d601f19601f82011682018060405250810190610d18919061294c565b876040518363ffffffff1660e01b8152600401610d369291906129d9565b600060405180830381865afa158015610d53573d6000803e3d6000fd5b505050506040513d6000823e3d601f19601f82011682018060405250810190610d7c919061294c565b88604001516040518363ffffffff1660e01b8152600401610d9e9291906129d9565b600060405180830381865afa158015610dbb573d6000803e3d6000fd5b505050506040513d6000823e3d601f19601f82011682018060405250810190610de4919061294c565b9050610df260008383611b34565b93505050505b92915050565b610e06611e32565b6000610f3a600160008054906101000a900473ffffffffffffffffffffffffffffffffffffffff1673ffffffffffffffffffffffffffffffffffffffff1663bc1b392d6040518163ffffffff1660e01b8152600401600060405180830381865afa158015610e78573d6000803e3d6000fd5b505050506040513d6000823e3d601f19601f82011682018060405250810190610ea1919061294c565b60008054906101000a900473ffffffffffffffffffffffffffffffffffffffff1673ffffffffffffffffffffffffffffffffffffffff1663bc1b392d6040518163ffffffff1660e01b8152600401600060405180830381865afa158015610f0c573d6000803e3d6000fd5b505050506040513d6000823e3d601f19601f82011682018060405250810190610f35919061294c565b611b34565b90508360200151610f5857610f50848483611b72565b91505061106c565b61106873__$7db5d2dbc3ae63372df6c39d501ad0f72a$__63b1d74ee98673__$7db5d2dbc3ae63372df6c39d501ad0f72a$__6340957f726001806040518363ffffffff1660e01b8152600401610fb0929190612ab3565b600060405180830381865af4158015610fcd573d6000803e3d6000fd5b505050506040513d6000823e3d601f19601f82011682018060405250810190610ff69190612adc565b6040518363ffffffff1660e01b8152600401611013929190612bdd565b600060405180830381865af4158015611030573d6000803e3d6000fd5b505050506040513d6000823e3d601f19601f820116820180604052508101906110599190612adc565b6110628561014c565b83611b72565b9150505b92915050565b61107a611e32565b60008054906101000a900473ffffffffffffffffffffffffffffffffffffffff1673ffffffffffffffffffffffffffffffffffffffff1663ab80cf76836040015160008054906101000a900473ffffffffffffffffffffffffffffffffffffffff1673ffffffffffffffffffffffffffffffffffffffff1663bc1b392d6040518163ffffffff1660e01b8152600401600060405180830381865afa158015611126573d6000803e3d6000fd5b505050506040513d6000823e3d601f19601f8201168201806040525081019061114f919061294c565b6040518363ffffffff1660e01b815260040161116c9291906129d9565b602060405180830381865afa158015611189573d6000803e3d6000fd5b505050506040513d601f19601f820116820180604052508101906111ad9190612a10565b156112eb576112e4600160008054906101000a900473ffffffffffffffffffffffffffffffffffffffff1673ffffffffffffffffffffffffffffffffffffffff1663bc1b392d6040518163ffffffff1660e01b8152600401600060405180830381865afa158015611222573d6000803e3d6000fd5b505050506040513d6000823e3d601f19601f8201168201806040525081019061124b919061294c565b60008054906101000a900473ffffffffffffffffffffffffffffffffffffffff1673ffffffffffffffffffffffffffffffffffffffff1663bc1b392d6040518163ffffffff1660e01b8152600401600060405180830381865afa1580156112b6573d6000803e3d6000fd5b505050506040513d6000823e3d601f19601f820116820180604052508101906112df919061294c565b611b34565b9050611b2f565b60008060009054906101000a900473ffffffffffffffffffffffffffffffffffffffff1673ffffffffffffffffffffffffffffffffffffffff166307a5ecaa60008054906101000a900473ffffffffffffffffffffffffffffffffffffffff1673ffffffffffffffffffffffffffffffffffffffff166307a5ecaa60008054906101000a900473ffffffffffffffffffffffffffffffffffffffff1673ffffffffffffffffffffffffffffffffffffffff166345caa1176040518163ffffffff1660e01b8152600401600060405180830381865afa1580156113d1573d6000803e3d6000fd5b505050506040513d6000823e3d601f19601f820116820180604052508101906113fa919061294c565b60008054906101000a900473ffffffffffffffffffffffffffffffffffffffff1673ffffffffffffffffffffffffffffffffffffffff166307a5ecaa89602001518a602001516040518363ffffffff1660e01b815260040161145d9291906129d9565b600060405180830381865afa15801561147a573d6000803e3d6000fd5b505050506040513d6000823e3d601f19601f820116820180604052508101906114a3919061294c565b6040518363ffffffff1660e01b81526004016114c09291906129d9565b600060405180830381865afa1580156114dd573d6000803e3d6000fd5b505050506040513d6000823e3d601f19601f82011682018060405250810190611506919061294c565b60008054906101000a900473ffffffffffffffffffffffffffffffffffffffff1673ffffffffffffffffffffffffffffffffffffffff166364c044fe60008054906101000a900473ffffffffffffffffffffffffffffffffffffffff1673ffffffffffffffffffffffffffffffffffffffff166307a5ecaa60008054906101000a900473ffffffffffffffffffffffffffffffffffffffff1673ffffffffffffffffffffffffffffffffffffffff16635fdf05d76040518163ffffffff1660e01b8152600401600060405180830381865afa1580156115e9573d6000803e3d6000fd5b505050506040513d6000823e3d601f19601f82011682018060405250810190611612919061294c565b8a604001516040518363ffffffff1660e01b81526004016116349291906129d9565b600060405180830381865afa158015611651573d6000803e3d6000fd5b505050506040513d6000823e3d601f19601f8201168201806040525081019061167a919061294c565b6040518263ffffffff1660e01b81526004016116969190612a3d565b600060405180830381865afa1580156116b3573d6000803e3d6000fd5b505050506040513d6000823e3d601f19601f820116820180604052508101906116dc919061294c565b6040518363ffffffff1660e01b81526004016116f99291906129d9565b600060405180830381865afa158015611716573d6000803e3d6000fd5b505050506040513d6000823e3d601f19601f8201168201806040525081019061173f919061294c565b905060008060009054906101000a900473ffffffffffffffffffffffffffffffffffffffff1673ffffffffffffffffffffffffffffffffffffffff16635f6910d460008054906101000a900473ffffffffffffffffffffffffffffffffffffffff1673ffffffffffffffffffffffffffffffffffffffff16635f6910d460008054906101000a900473ffffffffffffffffffffffffffffffffffffffff1673ffffffffffffffffffffffffffffffffffffffff166307a5ecaa87886040518363ffffffff1660e01b81526004016118179291906129d9565b600060405180830381865afa158015611834573d6000803e3d6000fd5b505050506040513d6000823e3d601f19601f8201168201806040525081019061185d919061294c565b88602001516040518363ffffffff1660e01b815260040161187f9291906129d9565b600060405180830381865afa15801561189c573d6000803e3d6000fd5b505050506040513d6000823e3d601f19601f820116820180604052508101906118c5919061294c565b86602001516040518363ffffffff1660e01b81526004016118e79291906129d9565b600060405180830381865afa158015611904573d6000803e3d6000fd5b505050506040513d6000823e3d601f19601f8201168201806040525081019061192d919061294c565b905060008060009054906101000a900473ffffffffffffffffffffffffffffffffffffffff1673ffffffffffffffffffffffffffffffffffffffff16635f6910d460008054906101000a900473ffffffffffffffffffffffffffffffffffffffff1673ffffffffffffffffffffffffffffffffffffffff166307a5ecaa60008054906101000a900473ffffffffffffffffffffffffffffffffffffffff1673ffffffffffffffffffffffffffffffffffffffff16635f6910d48a60200151886040518363ffffffff1660e01b8152600401611a099291906129d9565b600060405180830381865afa158015611a26573d6000803e3d6000fd5b505050506040513d6000823e3d601f19601f82011682018060405250810190611a4f919061294c565b876040518363ffffffff1660e01b8152600401611a6d9291906129d9565b600060405180830381865afa158015611a8a573d6000803e3d6000fd5b505050506040513d6000823e3d601f19601f82011682018060405250810190611ab3919061294c565b87604001516040518363ffffffff1660e01b8152600401611ad59291906129d9565b600060405180830381865afa158015611af2573d6000803e3d6000fd5b505050506040513d6000823e3d601f19601f82011682018060405250810190611b1b919061294c565b9050611b2960008383611b34565b93505050505b919050565b611b3c611e32565b6040518060600160405280856001811115611b5a57611b5961230f565b5b81526020018481526020018381525090509392505050565b611b7a611e32565b600073__$7db5d2dbc3ae63372df6c39d501ad0f72a$__63bc39804e8673__$7db5d2dbc3ae63372df6c39d501ad0f72a$__63bc1b392d6040518163ffffffff1660e01b8152600401600060405180830381865af4158015611be0573d6000803e3d6000fd5b505050506040513d6000823e3d601f19601f82011682018060405250810190611c099190612adc565b60006040518463ffffffff1660e01b8152600401611c2993929190612c14565b602060405180830381865af4158015611c46573d6000803e3d6000fd5b505050506040513d601f19601f82011682018060405250810190611c6a9190612c8f565b03611c7757819050611e2b565b73__$7db5d2dbc3ae63372df6c39d501ad0f72a$__63ee4a4e4e856040518263ffffffff1660e01b8152600401611cae9190612cbc565b602060405180830381865af4158015611ccb573d6000803e3d6000fd5b505050506040513d601f19601f82011682018060405250810190611cef9190612a10565b15611d9657611d8f73__$7db5d2dbc3ae63372df6c39d501ad0f72a$__636efac6c78660016040518363ffffffff1660e01b8152600401611d31929190612cde565b600060405180830381865af4158015611d4e573d6000803e3d6000fd5b505050506040513d6000823e3d601f19601f82011682018060405250810190611d779190612adc565b611d8085611072565b611d8a858761030c565b611b72565b9050611e2b565b611e2873__$7db5d2dbc3ae63372df6c39d501ad0f72a$__636efac6c78660016040518363ffffffff1660e01b8152600401611dd3929190612cde565b600060405180830381865af4158015611df0573d6000803e3d6000fd5b505050506040513d6000823e3d601f19601f82011682018060405250810190611e199190612adc565b611e2285611072565b84611b72565b90505b9392505050565b604051806060016040528060006001811115611e5157611e5061230f565b5b8152602001611e5e611e71565b8152602001611e6b611e71565b81525090565b6040518060400160405280611e84611e97565b8152602001611e91611e97565b81525090565b6040518060200160405280611eaa611eb0565b81525090565b604051806060016040528060608152602001600015158152602001600081525090565b6000604051905090565b600080fd5b600080fd5b600080fd5b6000601f19601f8301169050919050565b7f4e487b7100000000000000000000000000000000000000000000000000000000600052604160045260246000fd5b611f3582611eec565b810181811067ffffffffffffffff82111715611f5457611f53611efd565b5b80604052505050565b6000611f67611ed3565b9050611f738282611f2c565b919050565b600080fd5b60028110611f8a57600080fd5b50565b600081359050611f9c81611f7d565b92915050565b600080fd5b600080fd5b600067ffffffffffffffff821115611fc757611fc6611efd565b5b611fd082611eec565b9050602081019050919050565b82818337600083830152505050565b6000611fff611ffa84611fac565b611f5d565b90508281526020810184848401111561201b5761201a611fa7565b5b612026848285611fdd565b509392505050565b600082601f83011261204357612042611fa2565b5b8135612053848260208601611fec565b91505092915050565b60008115159050919050565b6120718161205c565b811461207c57600080fd5b50565b60008135905061208e81612068565b92915050565b6000819050919050565b6120a781612094565b81146120b257600080fd5b50565b6000813590506120c48161209e565b92915050565b6000606082840312156120e0576120df611ee7565b5b6120ea6060611f5d565b9050600082013567ffffffffffffffff81111561210a57612109611f78565b5b6121168482850161202e565b600083015250602061212a8482850161207f565b602083015250604061213e848285016120b5565b60408301525092915050565b6000602082840312156121605761215f611ee7565b5b61216a6020611f5d565b9050600082013567ffffffffffffffff81111561218a57612189611f78565b5b612196848285016120ca565b60008301525092915050565b6000604082840312156121b8576121b7611ee7565b5b6121c26040611f5d565b9050600082013567ffffffffffffffff8111156121e2576121e1611f78565b5b6121ee8482850161214a565b600083015250602082013567ffffffffffffffff81111561221257612211611f78565b5b61221e8482850161214a565b60208301525092915050565b6000606082840312156122405761223f611ee7565b5b61224a6060611f5d565b9050600061225a84828501611f8d565b600083015250602082013567ffffffffffffffff81111561227e5761227d611f78565b5b61228a848285016121a2565b602083015250604082013567ffffffffffffffff8111156122ae576122ad611f78565b5b6122ba848285016121a2565b60408301525092915050565b6000602082840312156122dc576122db611edd565b5b600082013567ffffffffffffffff8111156122fa576122f9611ee2565b5b6123068482850161222a565b91505092915050565b7f4e487b7100000000000000000000000000000000000000000000000000000000600052602160045260246000fd5b6002811061234f5761234e61230f565b5b50565b60008190506123608261233e565b919050565b600061237082612352565b9050919050565b61238081612365565b82525050565b600081519050919050565b600082825260208201905092915050565b60005b838110156123c05780820151818401526020810190506123a5565b60008484015250505050565b60006123d782612386565b6123e18185612391565b93506123f18185602086016123a2565b6123fa81611eec565b840191505092915050565b61240e8161205c565b82525050565b61241d81612094565b82525050565b6000606083016000830151848203600086015261244082826123cc565b91505060208301516124556020860182612405565b5060408301516124686040860182612414565b508091505092915050565b600060208301600083015184820360008601526124908282612423565b9150508091505092915050565b600060408301600083015184820360008601526124ba8282612473565b915050602083015184820360208601526124d48282612473565b9150508091505092915050565b60006060830160008301516124f96000860182612377565b5060208301518482036020860152612511828261249d565b9150506040830151848203604086015261252b828261249d565b9150508091505092915050565b6000602082019050818103600083015261255281846124e1565b905092915050565b6000806040838503121561257157612570611edd565b5b600083013567ffffffffffffffff81111561258f5761258e611ee2565b5b61259b8582860161222a565b925050602083013567ffffffffffffffff8111156125bc576125bb611ee2565b5b6125c88582860161222a565b9150509250929050565b600080604083850312156125e9576125e8611edd565b5b600083013567ffffffffffffffff81111561260757612606611ee2565b5b612613858286016120ca565b925050602083013567ffffffffffffffff81111561263457612633611ee2565b5b6126408582860161222a565b9150509250929050565b60008060006060848603121561266357612662611edd565b5b600061267186828701611f8d565b935050602084013567ffffffffffffffff81111561269257612691611ee2565b5b61269e868287016121a2565b925050604084013567ffffffffffffffff8111156126bf576126be611ee2565b5b6126cb868287016121a2565b9150509250925092565b600082825260208201905092915050565b7f63616e6e6f74206e656761746520706f696e7420617420696e66696e69747900600082015250565b600061271c601f836126d5565b9150612727826126e6565b602082019050919050565b6000602082019050818103600083015261274b8161270f565b9050919050565b600061276561276084611fac565b611f5d565b90508281526020810184848401111561278157612780611fa7565b5b61278c8482856123a2565b509392505050565b600082601f8301126127a9576127a8611fa2565b5b81516127b9848260208601612752565b91505092915050565b6000815190506127d181612068565b92915050565b6000815190506127e68161209e565b92915050565b60006060828403121561280257612801611ee7565b5b61280c6060611f5d565b9050600082015167ffffffffffffffff81111561282c5761282b611f78565b5b61283884828501612794565b600083015250602061284c848285016127c2565b6020830152506040612860848285016127d7565b60408301525092915050565b60006020828403121561288257612881611ee7565b5b61288c6020611f5d565b9050600082015167ffffffffffffffff8111156128ac576128ab611f78565b5b6128b8848285016127ec565b60008301525092915050565b6000604082840312156128da576128d9611ee7565b5b6128e46040611f5d565b9050600082015167ffffffffffffffff81111561290457612903611f78565b5b6129108482850161286c565b600083015250602082015167ffffffffffffffff81111561293457612933611f78565b5b6129408482850161286c565b60208301525092915050565b60006020828403121561296257612961611edd565b5b600082015167ffffffffffffffff8111156129805761297f611ee2565b5b61298c848285016128c4565b91505092915050565b600060408301600083015184820360008601526129b28282612473565b915050602083015184820360208601526129cc8282612473565b9150508091505092915050565b600060408201905081810360008301526129f38185612995565b90508181036020830152612a078184612995565b90509392505050565b600060208284031215612a2657612a25611edd565b5b6000612a34848285016127c2565b91505092915050565b60006020820190508181036000830152612a578184612995565b905092915050565b6000819050919050565b6000819050919050565b6000612a8e612a89612a8484612a5f565b612a69565b612094565b9050919050565b612a9e81612a73565b82525050565b612aad8161205c565b82525050565b6000604082019050612ac86000830185612a95565b612ad56020830184612aa4565b9392505050565b600060208284031215612af257612af1611edd565b5b600082015167ffffffffffffffff811115612b1057612b0f611ee2565b5b612b1c848285016127ec565b91505092915050565b600082825260208201905092915050565b6000612b4182612386565b612b4b8185612b25565b9350612b5b8185602086016123a2565b612b6481611eec565b840191505092915050565b612b788161205c565b82525050565b612b8781612094565b82525050565b60006060830160008301518482036000860152612baa8282612b36565b9150506020830151612bbf6020860182612b6f565b506040830151612bd26040860182612b7e565b508091505092915050565b60006040820190508181036000830152612bf78185612b8d565b90508181036020830152612c0b8184612b8d565b90509392505050565b60006060820190508181036000830152612c2e8186612b8d565b90508181036020830152612c428185612b8d565b9050612c516040830184612aa4565b949350505050565b6000819050919050565b612c6c81612c59565b8114612c7757600080fd5b50565b600081519050612c8981612c63565b92915050565b600060208284031215612ca557612ca4611edd565b5b6000612cb384828501612c7a565b91505092915050565b60006020820190508181036000830152612cd68184612b8d565b905092915050565b60006040820190508181036000830152612cf88185612b8d565b9050612d076020830184612a95565b939250505056fea2646970667358221220a65b02d114be79a4a0ac66cbd88f6317402957f75a2b0ecc90a2a02028014a0c64736f6c634300081b0033608060405234801561001057600080fd5b506040516131e83803806131e8833981810160405281019061003291906100ed565b806000806101000a81548173ffffffffffffffffffffffffffffffffffffffff021916908373ffffffffffffffffffffffffffffffffffffffff1602179055505061011a565b600080fd5b600073ffffffffffffffffffffffffffffffffffffffff82169050919050565b60006100a88261007d565b9050919050565b60006100ba8261009d565b9050919050565b6100ca816100af565b81146100d557600080fd5b50565b6000815190506100e7816100c1565b92915050565b60006020828403121561010357610102610078565b5b6000610111848285016100d8565b91505092915050565b6130bf806101296000396000f3fe608060405234801561001057600080fd5b50600436106100575760003560e01c80631d763e261461005c5780634156f5141461008c5780635bd69fb6146100bc578063adbe3ee3146100ec578063dec70b291461011c575b600080fd5b610076600480360381019061007191906123c3565b61014c565b6040516100839190612719565b60405180910390f35b6100a660048036038101906100a191906127d7565b61018a565b6040516100b39190612719565b60405180910390f35b6100d660048036038101906100d1919061284f565b610c7c565b6040516100e39190612719565b60405180910390f35b610106600480360381019061010191906128c7565b610ef0565b6040516101139190612719565b60405180910390f35b610136600480360381019061013191906128c7565b6119b2565b6040516101439190612719565b60405180910390f35b610154611e32565b60405180606001604052808560018111156101725761017161244e565b5b81526020018481526020018381525090509392505050565b610192611e32565b6001808111156101a5576101a461244e565b5b836000015160018111156101bc576101bb61244e565b5b036101c957819050610c76565b6001808111156101dc576101db61244e565b5b826000015160018111156101f3576101f261244e565b5b0361020057829050610c76565b60008054906101000a900473ffffffffffffffffffffffffffffffffffffffff1673ffffffffffffffffffffffffffffffffffffffff16639eea8ce8846020015184602001516040518363ffffffff1660e01b8152600401610263929190612954565b602060405180830381865afa158015610280573d6000803e3d6000fd5b505050506040513d601f19601f820116820180604052508101906102a491906129a0565b8015610350575060008054906101000a900473ffffffffffffffffffffffffffffffffffffffff1673ffffffffffffffffffffffffffffffffffffffff16639eea8ce8846040015184604001516040518363ffffffff1660e01b815260040161030e929190612954565b602060405180830381865afa15801561032b573d6000803e3d6000fd5b505050506040513d601f19601f8201168201806040525081019061034f91906129a0565b5b156103655761035e83610ef0565b9050610c76565b60008054906101000a900473ffffffffffffffffffffffffffffffffffffffff1673ffffffffffffffffffffffffffffffffffffffff16639eea8ce8846020015184602001516040518363ffffffff1660e01b81526004016103c8929190612954565b602060405180830381865afa1580156103e5573d6000803e3d6000fd5b505050506040513d601f19601f8201168201806040525081019061040991906129a0565b80156104b6575060008054906101000a900473ffffffffffffffffffffffffffffffffffffffff1673ffffffffffffffffffffffffffffffffffffffff16639eea8ce8846040015184604001516040518363ffffffff1660e01b8152600401610473929190612954565b602060405180830381865afa158015610490573d6000803e3d6000fd5b505050506040513d601f19601f820116820180604052508101906104b491906129a0565b155b156105f4576105ed600160008054906101000a900473ffffffffffffffffffffffffffffffffffffffff1673ffffffffffffffffffffffffffffffffffffffff1663bc1b392d6040518163ffffffff1660e01b8152600401600060405180830381865afa15801561052b573d6000803e3d6000fd5b505050506040513d6000823e3d601f19601f820116820180604052508101906105549190612cf2565b60008054906101000a900473ffffffffffffffffffffffffffffffffffffffff1673ffffffffffffffffffffffffffffffffffffffff1663bc1b392d6040518163ffffffff1660e01b8152600401600060405180830381865afa1580156105bf573d6000803e3d6000fd5b505050506040513d6000823e3d601f19601f820116820180604052508101906105e89190612cf2565b61014c565b9050610c76565b60008060009054906101000a900473ffffffffffffffffffffffffffffffffffffffff1673ffffffffffffffffffffffffffffffffffffffff166377839c6960008054906101000a900473ffffffffffffffffffffffffffffffffffffffff1673ffffffffffffffffffffffffffffffffffffffff16636bc90c28866040015188604001516040518363ffffffff1660e01b8152600401610696929190612954565b600060405180830381865afa1580156106b3573d6000803e3d6000fd5b505050506040513d6000823e3d601f19601f820116820180604052508101906106dc9190612cf2565b60008054906101000a900473ffffffffffffffffffffffffffffffffffffffff1673ffffffffffffffffffffffffffffffffffffffff1663f670079560008054906101000a900473ffffffffffffffffffffffffffffffffffffffff1673ffffffffffffffffffffffffffffffffffffffff16636bc90c2889602001518b602001516040518363ffffffff1660e01b815260040161077b929190612954565b600060405180830381865afa158015610798573d6000803e3d6000fd5b505050506040513d6000823e3d601f19601f820116820180604052508101906107c19190612cf2565b6040518263ffffffff1660e01b81526004016107dd9190612d3b565b600060405180830381865afa1580156107fa573d6000803e3d6000fd5b505050506040513d6000823e3d601f19601f820116820180604052508101906108239190612cf2565b6040518363ffffffff1660e01b8152600401610840929190612954565b600060405180830381865afa15801561085d573d6000803e3d6000fd5b505050506040513d6000823e3d601f19601f820116820180604052508101906108869190612cf2565b905060008060009054906101000a900473ffffffffffffffffffffffffffffffffffffffff1673ffffffffffffffffffffffffffffffffffffffff16636bc90c2860008054906101000a900473ffffffffffffffffffffffffffffffffffffffff1673ffffffffffffffffffffffffffffffffffffffff16636bc90c2860008054906101000a900473ffffffffffffffffffffffffffffffffffffffff1673ffffffffffffffffffffffffffffffffffffffff166377839c6987886040518363ffffffff1660e01b815260040161095e929190612954565b600060405180830381865afa15801561097b573d6000803e3d6000fd5b505050506040513d6000823e3d601f19601f820116820180604052508101906109a49190612cf2565b89602001516040518363ffffffff1660e01b81526004016109c6929190612954565b600060405180830381865afa1580156109e3573d6000803e3d6000fd5b505050506040513d6000823e3d601f19601f82011682018060405250810190610a0c9190612cf2565b86602001516040518363ffffffff1660e01b8152600401610a2e929190612954565b600060405180830381865afa158015610a4b573d6000803e3d6000fd5b505050506040513d6000823e3d601f19601f82011682018060405250810190610a749190612cf2565b905060008060009054906101000a900473ffffffffffffffffffffffffffffffffffffffff1673ffffffffffffffffffffffffffffffffffffffff16636bc90c2860008054906101000a900473ffffffffffffffffffffffffffffffffffffffff1673ffffffffffffffffffffffffffffffffffffffff166377839c6960008054906101000a900473ffffffffffffffffffffffffffffffffffffffff1673ffffffffffffffffffffffffffffffffffffffff16636bc90c288b60200151886040518363ffffffff1660e01b8152600401610b50929190612954565b600060405180830381865afa158015610b6d573d6000803e3d6000fd5b505050506040513d6000823e3d601f19601f82011682018060405250810190610b969190612cf2565b876040518363ffffffff1660e01b8152600401610bb4929190612954565b600060405180830381865afa158015610bd1573d6000803e3d6000fd5b505050506040513d6000823e3d601f19601f82011682018060405250810190610bfa9190612cf2565b88604001516040518363ffffffff1660e01b8152600401610c1c929190612954565b600060405180830381865afa158015610c39573d6000803e3d6000fd5b505050506040513d6000823e3d601f19601f82011682018060405250810190610c629190612cf2565b9050610c706000838361014c565b93505050505b92915050565b610c84611e32565b6000610db8600160008054906101000a900473ffffffffffffffffffffffffffffffffffffffff1673ffffffffffffffffffffffffffffffffffffffff1663bc1b392d6040518163ffffffff1660e01b8152600401600060405180830381865afa158015610cf6573d6000803e3d6000fd5b505050506040513d6000823e3d601f19601f82011682018060405250810190610d1f9190612cf2565b60008054906101000a900473ffffffffffffffffffffffffffffffffffffffff1673ffffffffffffffffffffffffffffffffffffffff1663bc1b392d6040518163ffffffff1660e01b8152600401600060405180830381865afa158015610d8a573d6000803e3d6000fd5b505050506040513d6000823e3d601f19601f82011682018060405250810190610db39190612cf2565b61014c565b90508360200151610dd657610dce848483611b72565b915050610eea565b610ee673__$7db5d2dbc3ae63372df6c39d501ad0f72a$__63b1d74ee98673__$7db5d2dbc3ae63372df6c39d501ad0f72a$__6340957f726001806040518363ffffffff1660e01b8152600401610e2e929190612db1565b600060405180830381865af4158015610e4b573d6000803e3d6000fd5b505050506040513d6000823e3d601f19601f82011682018060405250810190610e749190612dda565b6040518363ffffffff1660e01b8152600401610e91929190612edb565b600060405180830381865af4158015610eae573d6000803e3d6000fd5b505050506040513d6000823e3d601f19601f82011682018060405250810190610ed79190612dda565b610ee0856119b2565b83611b72565b9150505b92915050565b610ef8611e32565b60008054906101000a900473ffffffffffffffffffffffffffffffffffffffff1673ffffffffffffffffffffffffffffffffffffffff16639eea8ce8836040015160008054906101000a900473ffffffffffffffffffffffffffffffffffffffff1673ffffffffffffffffffffffffffffffffffffffff1663bc1b392d6040518163ffffffff1660e01b8152600401600060405180830381865afa158015610fa4573d6000803e3d6000fd5b505050506040513d6000823e3d601f19601f82011682018060405250810190610fcd9190612cf2565b6040518363ffffffff1660e01b8152600401610fea929190612954565b602060405180830381865afa158015611007573d6000803e3d6000fd5b505050506040513d601f19601f8201168201806040525081019061102b91906129a0565b1561116957611162600160008054906101000a900473ffffffffffffffffffffffffffffffffffffffff1673ffffffffffffffffffffffffffffffffffffffff1663bc1b392d6040518163ffffffff1660e01b8152600401600060405180830381865afa1580156110a0573d6000803e3d6000fd5b505050506040513d6000823e3d601f19601f820116820180604052508101906110c99190612cf2565b60008054906101000a900473ffffffffffffffffffffffffffffffffffffffff1673ffffffffffffffffffffffffffffffffffffffff1663bc1b392d6040518163ffffffff1660e01b8152600401600060405180830381865afa158015611134573d6000803e3d6000fd5b505050506040513d6000823e3d601f19601f8201168201806040525081019061115d9190612cf2565b61014c565b90506119ad565b60008060009054906101000a900473ffffffffffffffffffffffffffffffffffffffff1673ffffffffffffffffffffffffffffffffffffffff166377839c6960008054906101000a900473ffffffffffffffffffffffffffffffffffffffff1673ffffffffffffffffffffffffffffffffffffffff166377839c6960008054906101000a900473ffffffffffffffffffffffffffffffffffffffff1673ffffffffffffffffffffffffffffffffffffffff166345caa1176040518163ffffffff1660e01b8152600401600060405180830381865afa15801561124f573d6000803e3d6000fd5b505050506040513d6000823e3d601f19601f820116820180604052508101906112789190612cf2565b60008054906101000a900473ffffffffffffffffffffffffffffffffffffffff1673ffffffffffffffffffffffffffffffffffffffff166377839c6989602001518a602001516040518363ffffffff1660e01b81526004016112db929190612954565b600060405180830381865afa1580156112f8573d6000803e3d6000fd5b505050506040513d6000823e3d601f19601f820116820180604052508101906113219190612cf2565b6040518363ffffffff1660e01b815260040161133e929190612954565b600060405180830381865afa15801561135b573d6000803e3d6000fd5b505050506040513d6000823e3d601f19601f820116820180604052508101906113849190612cf2565b60008054906101000a900473ffffffffffffffffffffffffffffffffffffffff1673ffffffffffffffffffffffffffffffffffffffff1663f670079560008054906101000a900473ffffffffffffffffffffffffffffffffffffffff1673ffffffffffffffffffffffffffffffffffffffff166377839c6960008054906101000a900473ffffffffffffffffffffffffffffffffffffffff1673ffffffffffffffffffffffffffffffffffffffff16635fdf05d76040518163ffffffff1660e01b8152600401600060405180830381865afa158015611467573d6000803e3d6000fd5b505050506040513d6000823e3d601f19601f820116820180604052508101906114909190612cf2565b8a604001516040518363ffffffff1660e01b81526004016114b2929190612954565b600060405180830381865afa1580156114cf573d6000803e3d6000fd5b505050506040513d6000823e3d601f19601f820116820180604052508101906114f89190612cf2565b6040518263ffffffff1660e01b81526004016115149190612d3b565b600060405180830381865afa158015611531573d6000803e3d6000fd5b505050506040513d6000823e3d601f19601f8201168201806040525081019061155a9190612cf2565b6040518363ffffffff1660e01b8152600401611577929190612954565b600060405180830381865afa158015611594573d6000803e3d6000fd5b505050506040513d6000823e3d601f19601f820116820180604052508101906115bd9190612cf2565b905060008060009054906101000a900473ffffffffffffffffffffffffffffffffffffffff1673ffffffffffffffffffffffffffffffffffffffff16636bc90c2860008054906101000a900473ffffffffffffffffffffffffffffffffffffffff1673ffffffffffffffffffffffffffffffffffffffff16636bc90c2860008054906101000a900473ffffffffffffffffffffffffffffffffffffffff1673ffffffffffffffffffffffffffffffffffffffff166377839c6987886040518363ffffffff1660e01b8152600401611695929190612954565b600060405180830381865afa1580156116b2573d6000803e3d6000fd5b505050506040513d6000823e3d601f19601f820116820180604052508101906116db9190612cf2565b88602001516040518363ffffffff1660e01b81526004016116fd929190612954565b600060405180830381865afa15801561171a573d6000803e3d6000fd5b505050506040513d6000823e3d601f19601f820116820180604052508101906117439190612cf2565b86602001516040518363ffffffff1660e01b8152600401611765929190612954565b600060405180830381865afa158015611782573d6000803e3d6000fd5b505050506040513d6000823e3d601f19601f820116820180604052508101906117ab9190612cf2565b905060008060009054906101000a900473ffffffffffffffffffffffffffffffffffffffff1673ffffffffffffffffffffffffffffffffffffffff16636bc90c2860008054906101000a900473ffffffffffffffffffffffffffffffffffffffff1673ffffffffffffffffffffffffffffffffffffffff166377839c6960008054906101000a900473ffffffffffffffffffffffffffffffffffffffff1673ffffffffffffffffffffffffffffffffffffffff16636bc90c288a60200151886040518363ffffffff1660e01b8152600401611887929190612954565b600060405180830381865afa1580156118a4573d6000803e3d6000fd5b505050506040513d6000823e3d601f19601f820116820180604052508101906118cd9190612cf2565b876040518363ffffffff1660e01b81526004016118eb929190612954565b600060405180830381865afa158015611908573d6000803e3d6000fd5b505050506040513d6000823e3d601f19601f820116820180604052508101906119319190612cf2565b87604001516040518363ffffffff1660e01b8152600401611953929190612954565b600060405180830381865afa158015611970573d6000803e3d6000fd5b505050506040513d6000823e3d601f19601f820116820180604052508101906119999190612cf2565b90506119a76000838361014c565b93505050505b919050565b6119ba611e32565b6001808111156119cd576119cc61244e565b5b826000015160018111156119e4576119e361244e565b5b03611a24576040517f08c379a0000000000000000000000000000000000000000000000000000000008152600401611a1b90612f6f565b60405180910390fd5b611b6b6000836020015160008054906101000a900473ffffffffffffffffffffffffffffffffffffffff1673ffffffffffffffffffffffffffffffffffffffff16636bc90c2860008054906101000a900473ffffffffffffffffffffffffffffffffffffffff1673ffffffffffffffffffffffffffffffffffffffff1663bc1b392d6040518163ffffffff1660e01b8152600401600060405180830381865afa158015611ad5573d6000803e3d6000fd5b505050506040513d6000823e3d601f19601f82011682018060405250810190611afe9190612cf2565b87604001516040518363ffffffff1660e01b8152600401611b20929190612954565b600060405180830381865afa158015611b3d573d6000803e3d6000fd5b505050506040513d6000823e3d601f19601f82011682018060405250810190611b669190612cf2565b61014c565b9050919050565b611b7a611e32565b600073__$7db5d2dbc3ae63372df6c39d501ad0f72a$__63bc39804e8673__$7db5d2dbc3ae63372df6c39d501ad0f72a$__63bc1b392d6040518163ffffffff1660e01b8152600401600060405180830381865af4158015611be0573d6000803e3d6000fd5b505050506040513d6000823e3d601f19601f82011682018060405250810190611c099190612dda565b60006040518463ffffffff1660e01b8152600401611c2993929190612f8f565b602060405180830381865af4158015611c46573d6000803e3d6000fd5b505050506040513d601f19601f82011682018060405250810190611c6a919061300a565b03611c7757819050611e2b565b73__$7db5d2dbc3ae63372df6c39d501ad0f72a$__63ee4a4e4e856040518263ffffffff1660e01b8152600401611cae9190613037565b602060405180830381865af4158015611ccb573d6000803e3d6000fd5b505050506040513d601f19601f82011682018060405250810190611cef91906129a0565b15611d9657611d8f73__$7db5d2dbc3ae63372df6c39d501ad0f72a$__636efac6c78660016040518363ffffffff1660e01b8152600401611d31929190613059565b600060405180830381865af4158015611d4e573d6000803e3d6000fd5b505050506040513d6000823e3d601f19601f82011682018060405250810190611d779190612dda565b611d8085610ef0565b611d8a858761018a565b611b72565b9050611e2b565b611e2873__$7db5d2dbc3ae63372df6c39d501ad0f72a$__636efac6c78660016040518363ffffffff1660e01b8152600401611dd3929190613059565b600060405180830381865af4158015611df0573d6000803e3d6000fd5b505050506040513d6000823e3d601f19601f82011682018060405250810190611e199190612dda565b611e2285610ef0565b84611b72565b90505b9392505050565b604051806060016040528060006001811115611e5157611e5061244e565b5b8152602001611e5e611e71565b8152602001611e6b611e71565b81525090565b6040518060400160405280611e84611e97565b8152602001611e91611e97565b81525090565b6040518060600160405280611eaa611eca565b8152602001611eb7611eca565b8152602001611ec4611eca565b81525090565b6040518060400160405280611edd611ef0565b8152602001611eea611ef0565b81525090565b6040518060200160405280611f03611f09565b81525090565b604051806060016040528060608152602001600015158152602001600081525090565b6000604051905090565b600080fd5b600080fd5b60028110611f4d57600080fd5b50565b600081359050611f5f81611f40565b92915050565b600080fd5b6000601f19601f8301169050919050565b7f4e487b7100000000000000000000000000000000000000000000000000000000600052604160045260246000fd5b611fb382611f6a565b810181811067ffffffffffffffff82111715611fd257611fd1611f7b565b5b80604052505050565b6000611fe5611f2c565b9050611ff18282611faa565b919050565b600080fd5b600080fd5b600080fd5b600067ffffffffffffffff8211156120205761201f611f7b565b5b61202982611f6a565b9050602081019050919050565b82818337600083830152505050565b600061205861205384612005565b611fdb565b90508281526020810184848401111561207457612073612000565b5b61207f848285612036565b509392505050565b600082601f83011261209c5761209b611ffb565b5b81356120ac848260208601612045565b91505092915050565b60008115159050919050565b6120ca816120b5565b81146120d557600080fd5b50565b6000813590506120e7816120c1565b92915050565b6000819050919050565b612100816120ed565b811461210b57600080fd5b50565b60008135905061211d816120f7565b92915050565b60006060828403121561213957612138611f65565b5b6121436060611fdb565b9050600082013567ffffffffffffffff81111561216357612162611ff6565b5b61216f84828501612087565b6000830152506020612183848285016120d8565b60208301525060406121978482850161210e565b60408301525092915050565b6000602082840312156121b9576121b8611f65565b5b6121c36020611fdb565b9050600082013567ffffffffffffffff8111156121e3576121e2611ff6565b5b6121ef84828501612123565b60008301525092915050565b60006040828403121561221157612210611f65565b5b61221b6040611fdb565b9050600082013567ffffffffffffffff81111561223b5761223a611ff6565b5b612247848285016121a3565b600083015250602082013567ffffffffffffffff81111561226b5761226a611ff6565b5b612277848285016121a3565b60208301525092915050565b60006060828403121561229957612298611f65565b5b6122a36060611fdb565b9050600082013567ffffffffffffffff8111156122c3576122c2611ff6565b5b6122cf848285016121fb565b600083015250602082013567ffffffffffffffff8111156122f3576122f2611ff6565b5b6122ff848285016121fb565b602083015250604082013567ffffffffffffffff81111561232357612322611ff6565b5b61232f848285016121fb565b60408301525092915050565b60006040828403121561235157612350611f65565b5b61235b6040611fdb565b9050600082013567ffffffffffffffff81111561237b5761237a611ff6565b5b61238784828501612283565b600083015250602082013567ffffffffffffffff8111156123ab576123aa611ff6565b5b6123b784828501612283565b60208301525092915050565b6000806000606084860312156123dc576123db611f36565b5b60006123ea86828701611f50565b935050602084013567ffffffffffffffff81111561240b5761240a611f3b565b5b6124178682870161233b565b925050604084013567ffffffffffffffff81111561243857612437611f3b565b5b6124448682870161233b565b9150509250925092565b7f4e487b7100000000000000000000000000000000000000000000000000000000600052602160045260246000fd5b6002811061248e5761248d61244e565b5b50565b600081905061249f8261247d565b919050565b60006124af82612491565b9050919050565b6124bf816124a4565b82525050565b600081519050919050565b600082825260208201905092915050565b60005b838110156124ff5780820151818401526020810190506124e4565b60008484015250505050565b6000612516826124c5565b61252081856124d0565b93506125308185602086016124e1565b61253981611f6a565b840191505092915050565b61254d816120b5565b82525050565b61255c816120ed565b82525050565b6000606083016000830151848203600086015261257f828261250b565b91505060208301516125946020860182612544565b5060408301516125a76040860182612553565b508091505092915050565b600060208301600083015184820360008601526125cf8282612562565b9150508091505092915050565b600060408301600083015184820360008601526125f982826125b2565b9150506020830151848203602086015261261382826125b2565b9150508091505092915050565b6000606083016000830151848203600086015261263d82826125dc565b9150506020830151848203602086015261265782826125dc565b9150506040830151848203604086015261267182826125dc565b9150508091505092915050565b6000604083016000830151848203600086015261269b8282612620565b915050602083015184820360208601526126b58282612620565b9150508091505092915050565b60006060830160008301516126da60008601826124b6565b50602083015184820360208601526126f2828261267e565b9150506040830151848203604086015261270c828261267e565b9150508091505092915050565b6000602082019050818103600083015261273381846126c2565b905092915050565b60006060828403121561275157612750611f65565b5b61275b6060611fdb565b9050600061276b84828501611f50565b600083015250602082013567ffffffffffffffff81111561278f5761278e611ff6565b5b61279b8482850161233b565b602083015250604082013567ffffffffffffffff8111156127bf576127be611ff6565b5b6127cb8482850161233b565b60408301525092915050565b600080604083850312156127ee576127ed611f36565b5b600083013567ffffffffffffffff81111561280c5761280b611f3b565b5b6128188582860161273b565b925050602083013567ffffffffffffffff81111561283957612838611f3b565b5b6128458582860161273b565b9150509250929050565b6000806040838503121561286657612865611f36565b5b600083013567ffffffffffffffff81111561288457612883611f3b565b5b61289085828601612123565b925050602083013567ffffffffffffffff8111156128b1576128b0611f3b565b5b6128bd8582860161273b565b9150509250929050565b6000602082840312156128dd576128dc611f36565b5b600082013567ffffffffffffffff8111156128fb576128fa611f3b565b5b6129078482850161273b565b91505092915050565b6000604083016000830151848203600086015261292d8282612620565b915050602083015184820360208601526129478282612620565b9150508091505092915050565b6000604082019050818103600083015261296e8185612910565b905081810360208301526129828184612910565b90509392505050565b60008151905061299a816120c1565b92915050565b6000602082840312156129b6576129b5611f36565b5b60006129c48482850161298b565b91505092915050565b60006129e06129db84612005565b611fdb565b9050828152602081018484840111156129fc576129fb612000565b5b612a078482856124e1565b509392505050565b600082601f830112612a2457612a23611ffb565b5b8151612a348482602086016129cd565b91505092915050565b600081519050612a4c816120f7565b92915050565b600060608284031215612a6857612a67611f65565b5b612a726060611fdb565b9050600082015167ffffffffffffffff811115612a9257612a91611ff6565b5b612a9e84828501612a0f565b6000830152506020612ab28482850161298b565b6020830152506040612ac684828501612a3d565b60408301525092915050565b600060208284031215612ae857612ae7611f65565b5b612af26020611fdb565b9050600082015167ffffffffffffffff811115612b1257612b11611ff6565b5b612b1e84828501612a52565b60008301525092915050565b600060408284031215612b4057612b3f611f65565b5b612b4a6040611fdb565b9050600082015167ffffffffffffffff811115612b6a57612b69611ff6565b5b612b7684828501612ad2565b600083015250602082015167ffffffffffffffff811115612b9a57612b99611ff6565b5b612ba684828501612ad2565b60208301525092915050565b600060608284031215612bc857612bc7611f65565b5b612bd26060611fdb565b9050600082015167ffffffffffffffff811115612bf257612bf1611ff6565b5b612bfe84828501612b2a565b600083015250602082015167ffffffffffffffff811115612c2257612c21611ff6565b5b612c2e84828501612b2a565b602083015250604082015167ffffffffffffffff811115612c5257612c51611ff6565b5b612c5e84828501612b2a565b60408301525092915050565b600060408284031215612c8057612c7f611f65565b5b612c8a6040611fdb565b9050600082015167ffffffffffffffff811115612caa57612ca9611ff6565b5b612cb684828501612bb2565b600083015250602082015167ffffffffffffffff811115612cda57612cd9611ff6565b5b612ce684828501612bb2565b60208301525092915050565b600060208284031215612d0857612d07611f36565b5b600082015167ffffffffffffffff811115612d2657612d25611f3b565b5b612d3284828501612c6a565b91505092915050565b60006020820190508181036000830152612d558184612910565b905092915050565b6000819050919050565b6000819050919050565b6000612d8c612d87612d8284612d5d565b612d67565b6120ed565b9050919050565b612d9c81612d71565b82525050565b612dab816120b5565b82525050565b6000604082019050612dc66000830185612d93565b612dd36020830184612da2565b9392505050565b600060208284031215612df057612def611f36565b5b600082015167ffffffffffffffff811115612e0e57612e0d611f3b565b5b612e1a84828501612a52565b91505092915050565b600082825260208201905092915050565b6000612e3f826124c5565b612e498185612e23565b9350612e598185602086016124e1565b612e6281611f6a565b840191505092915050565b612e76816120b5565b82525050565b612e85816120ed565b82525050565b60006060830160008301518482036000860152612ea88282612e34565b9150506020830151612ebd6020860182612e6d565b506040830151612ed06040860182612e7c565b508091505092915050565b60006040820190508181036000830152612ef58185612e8b565b90508181036020830152612f098184612e8b565b90509392505050565b600082825260208201905092915050565b7f63616e6e6f74206e656761746520706f696e7420617420696e66696e69747900600082015250565b6000612f59601f83612f12565b9150612f6482612f23565b602082019050919050565b60006020820190508181036000830152612f8881612f4c565b9050919050565b60006060820190508181036000830152612fa98186612e8b565b90508181036020830152612fbd8185612e8b565b9050612fcc6040830184612da2565b949350505050565b6000819050919050565b612fe781612fd4565b8114612ff257600080fd5b50565b60008151905061300481612fde565b92915050565b6000602082840312156130205761301f611f36565b5b600061302e84828501612ff5565b91505092915050565b600060208201905081810360008301526130518184612e8b565b905092915050565b600060408201905081810360008301526130738185612e8b565b90506130826020830184612d93565b939250505056fea2646970667358221220a11a12b524e0a7ac4522a98ac4b6217d61dca99d2c9592b754e6cdb7db2f2f6764736f6c634300081b0033",
  "linkReferences": {
    "contracts/BigNumber.sol": {
      "BigNumbers": [
        {
          "length": 20,
          "start": 6
        },
        {
          "length": 20,
          "start": 199
        },
        {
          "length": 20,
          "start": 1536
        },
        {
          "length": 20,
          "start": 1822
        },
        {
          "length": 20,
          "start": 2558
        },
        {
          "length": 20,
          "start": 2844
        },
        {
          "length": 20,
          "start": 3291
        },
        {
          "length": 20,
          "start": 3577
        },
        {
          "length": 20,
          "start": 24801
        },
        {
          "length": 20,
          "start": 27841
        },
        {
          "length": 20,
          "start": 28099
        },
        {
          "length": 20,
          "start": 28338
        },
        {
          "length": 20,
          "start": 28613
        },
        {
          "length": 20,
          "start": 28833
        },
        {
          "length": 20,
          "start": 28993
        },
        {
          "length": 20,
          "start": 29134
        },
        {
          "length": 20,
          "start": 29275
        },
        {
          "length": 20,
          "start": 29416
        },
        {
          "length": 20,
          "start": 29576
        },
        {
          "length": 20,
          "start": 29787
        },
        {
          "length": 20,
          "start": 29818
        },
        {
          "length": 20,
          "start": 30096
        },
        {
          "length": 20,
          "start": 30127
        },
        {
          "length": 20,
          "start": 30155
        },
        {
          "length": 20,
          "start": 30523
        },
        {
          "length": 20,
          "start": 30762
        },
        {
          "length": 20,
          "start": 30974
        },
        {
          "length": 20,
          "start": 31166
        },
        {
          "length": 20,
          "start": 31405
        },
        {
          "length": 20,
          "start": 31617
        },
        {
          "length": 20,
          "start": 31793
        },
        {
          "length": 20,
          "start": 31947
        },
        {
          "length": 20,
          "start": 32186
        },
        {
          "length": 20,
          "start": 32397
        },
        {
          "length": 20,
          "start": 32792
        },
        {
          "length": 20,
          "start": 33031
        },
        {
          "length": 20,
          "start": 33243
        },
        {
          "length": 20,
          "start": 70313
        },
        {
          "length": 20,
          "start": 70340
        },
        {
          "length": 20,
          "start": 76668
        },
        {
          "length": 20,
          "start": 76695
        },
        {
          "length": 20,
          "start": 76919
        },
        {
          "length": 20,
          "start": 77047
        },
        {
          "length": 20,
          "start": 77209
        },
        {
          "length": 20,
          "start": 85044
        },
        {
          "length": 20,
          "start": 85071
        },
        {
          "length": 20,
          "start": 88149
        },
        {
          "length": 20,
          "start": 88176
        },
        {
          "length": 20,
          "start": 88400
        },
        {
          "length": 20,
          "start": 88528
        },
        {
          "length": 20,
          "start": 88690
        },
        {
          "length": 20,
          "start": 96543
        },
        {
          "length": 20,
          "start": 96570
        },
        {
          "length": 20,
          "start": 100034
        },
        {
          "length": 20,
          "start": 100061
        },
        {
          "length": 20,
          "start": 100285
        },
        {
          "length": 20,
          "start": 100413
        },
        {
          "length": 20,
          "start": 100575
        }
      ]
    }
  },
  "deployedLinkReferences": {}
}