{
  "_format": "hh-sol-artifact-1",
  "contractName": "Curve",
  "sourceName": "contracts/curve.sol",
  "abi": [
    {
      "inputs": [
        {
          "components": [
            {
              "internalType": "enum PointType",
              "name": "pointType",
              "type": "uint8"
            },
            {
              "components": [
                {
                  "components": [
                    {
                      "internalType": "bytes",
                      "name": "val",
                      "type": "bytes"
                    },
                    {
                      "internalType": "bool",
                      "name": "neg",
                      "type": "bool"
                    },
                    {
                      "internalType": "uint256",
                      "name": "bitlen",
                      "type": "uint256"
                    }
                  ],
                  "internalType": "struct BigNumber",
                  "name": "value",
                  "type": "tuple"
                }
              ],
              "internalType": "struct Zp",
              "name": "x",
              "type": "tuple"
            },
            {
              "components": [
                {
                  "components": [
                    {
                      "internalType": "bytes",
                      "name": "val",
                      "type": "bytes"
                    },
                    {
                      "internalType": "bool",
                      "name": "neg",
                      "type": "bool"
                    },
                    {
                      "internalType": "uint256",
                      "name": "bitlen",
                      "type": "uint256"
                    }
                  ],
                  "internalType": "struct BigNumber",
                  "name": "value",
                  "type": "tuple"
                }
              ],
              "internalType": "struct Zp",
              "name": "y",
              "type": "tuple"
            }
          ],
          "internalType": "struct Point_Zp",
          "name": "point",
          "type": "tuple"
        }
      ],
      "name": "Subgroup_0Check",
      "outputs": [
        {
          "internalType": "bool",
          "name": "",
          "type": "bool"
        }
      ],
      "stateMutability": "view",
      "type": "function"
    },
    {
      "inputs": [
        {
          "components": [
            {
              "internalType": "enum PointType",
              "name": "pointType",
              "type": "uint8"
            },
            {
              "components": [
                {
                  "components": [
                    {
                      "components": [
                        {
                          "internalType": "bytes",
                          "name": "val",
                          "type": "bytes"
                        },
                        {
                          "internalType": "bool",
                          "name": "neg",
                          "type": "bool"
                        },
                        {
                          "internalType": "uint256",
                          "name": "bitlen",
                          "type": "uint256"
                        }
                      ],
                      "internalType": "struct BigNumber",
                      "name": "value",
                      "type": "tuple"
                    }
                  ],
                  "internalType": "struct Zp",
                  "name": "a",
                  "type": "tuple"
                },
                {
                  "components": [
                    {
                      "components": [
                        {
                          "internalType": "bytes",
                          "name": "val",
                          "type": "bytes"
                        },
                        {
                          "internalType": "bool",
                          "name": "neg",
                          "type": "bool"
                        },
                        {
                          "internalType": "uint256",
                          "name": "bitlen",
                          "type": "uint256"
                        }
                      ],
                      "internalType": "struct BigNumber",
                      "name": "value",
                      "type": "tuple"
                    }
                  ],
                  "internalType": "struct Zp",
                  "name": "b",
                  "type": "tuple"
                }
              ],
              "internalType": "struct Zp_2",
              "name": "x",
              "type": "tuple"
            },
            {
              "components": [
                {
                  "components": [
                    {
                      "components": [
                        {
                          "internalType": "bytes",
                          "name": "val",
                          "type": "bytes"
                        },
                        {
                          "internalType": "bool",
                          "name": "neg",
                          "type": "bool"
                        },
                        {
                          "internalType": "uint256",
                          "name": "bitlen",
                          "type": "uint256"
                        }
                      ],
                      "internalType": "struct BigNumber",
                      "name": "value",
                      "type": "tuple"
                    }
                  ],
                  "internalType": "struct Zp",
                  "name": "a",
                  "type": "tuple"
                },
                {
                  "components": [
                    {
                      "components": [
                        {
                          "internalType": "bytes",
                          "name": "val",
                          "type": "bytes"
                        },
                        {
                          "internalType": "bool",
                          "name": "neg",
                          "type": "bool"
                        },
                        {
                          "internalType": "uint256",
                          "name": "bitlen",
                          "type": "uint256"
                        }
                      ],
                      "internalType": "struct BigNumber",
                      "name": "value",
                      "type": "tuple"
                    }
                  ],
                  "internalType": "struct Zp",
                  "name": "b",
                  "type": "tuple"
                }
              ],
              "internalType": "struct Zp_2",
              "name": "y",
              "type": "tuple"
            }
          ],
          "internalType": "struct Point_Zp_2",
          "name": "point",
          "type": "tuple"
        }
      ],
      "name": "Subgroup_1Check",
      "outputs": [
        {
          "internalType": "bool",
          "name": "",
          "type": "bool"
        }
      ],
      "stateMutability": "view",
      "type": "function"
    },
    {
      "inputs": [
        {
          "components": [
            {
              "internalType": "enum PointType",
              "name": "pointType",
              "type": "uint8"
            },
            {
              "components": [
                {
                  "components": [
                    {
                      "components": [
                        {
                          "components": [
                            {
                              "components": [
                                {
                                  "internalType": "bytes",
                                  "name": "val",
                                  "type": "bytes"
                                },
                                {
                                  "internalType": "bool",
                                  "name": "neg",
                                  "type": "bool"
                                },
                                {
                                  "internalType": "uint256",
                                  "name": "bitlen",
                                  "type": "uint256"
                                }
                              ],
                              "internalType": "struct BigNumber",
                              "name": "value",
                              "type": "tuple"
                            }
                          ],
                          "internalType": "struct Zp",
                          "name": "a",
                          "type": "tuple"
                        },
                        {
                          "components": [
                            {
                              "components": [
                                {
                                  "internalType": "bytes",
                                  "name": "val",
                                  "type": "bytes"
                                },
                                {
                                  "internalType": "bool",
                                  "name": "neg",
                                  "type": "bool"
                                },
                                {
                                  "internalType": "uint256",
                                  "name": "bitlen",
                                  "type": "uint256"
                                }
                              ],
                              "internalType": "struct BigNumber",
                              "name": "value",
                              "type": "tuple"
                            }
                          ],
                          "internalType": "struct Zp",
                          "name": "b",
                          "type": "tuple"
                        }
                      ],
                      "internalType": "struct Zp_2",
                      "name": "a",
                      "type": "tuple"
                    },
                    {
                      "components": [
                        {
                          "components": [
                            {
                              "components": [
                                {
                                  "internalType": "bytes",
                                  "name": "val",
                                  "type": "bytes"
                                },
                                {
                                  "internalType": "bool",
                                  "name": "neg",
                                  "type": "bool"
                                },
                                {
                                  "internalType": "uint256",
                                  "name": "bitlen",
                                  "type": "uint256"
                                }
                              ],
                              "internalType": "struct BigNumber",
                              "name": "value",
                              "type": "tuple"
                            }
                          ],
                          "internalType": "struct Zp",
                          "name": "a",
                          "type": "tuple"
                        },
                        {
                          "components": [
                            {
                              "components": [
                                {
                                  "internalType": "bytes",
                                  "name": "val",
                                  "type": "bytes"
                                },
                                {
                                  "internalType": "bool",
                                  "name": "neg",
                                  "type": "bool"
                                },
                                {
                                  "internalType": "uint256",
                                  "name": "bitlen",
                                  "type": "uint256"
                                }
                              ],
                              "internalType": "struct BigNumber",
                              "name": "value",
                              "type": "tuple"
                            }
                          ],
                          "internalType": "struct Zp",
                          "name": "b",
                          "type": "tuple"
                        }
                      ],
                      "internalType": "struct Zp_2",
                      "name": "b",
                      "type": "tuple"
                    },
                    {
                      "components": [
                        {
                          "components": [
                            {
                              "components": [
                                {
                                  "internalType": "bytes",
                                  "name": "val",
                                  "type": "bytes"
                                },
                                {
                                  "internalType": "bool",
                                  "name": "neg",
                                  "type": "bool"
                                },
                                {
                                  "internalType": "uint256",
                                  "name": "bitlen",
                                  "type": "uint256"
                                }
                              ],
                              "internalType": "struct BigNumber",
                              "name": "value",
                              "type": "tuple"
                            }
                          ],
                          "internalType": "struct Zp",
                          "name": "a",
                          "type": "tuple"
                        },
                        {
                          "components": [
                            {
                              "components": [
                                {
                                  "internalType": "bytes",
                                  "name": "val",
                                  "type": "bytes"
                                },
                                {
                                  "internalType": "bool",
                                  "name": "neg",
                                  "type": "bool"
                                },
                                {
                                  "internalType": "uint256",
                                  "name": "bitlen",
                                  "type": "uint256"
                                }
                              ],
                              "internalType": "struct BigNumber",
                              "name": "value",
                              "type": "tuple"
                            }
                          ],
                          "internalType": "struct Zp",
                          "name": "b",
                          "type": "tuple"
                        }
                      ],
                      "internalType": "struct Zp_2",
                      "name": "c",
                      "type": "tuple"
                    }
                  ],
                  "internalType": "struct Zp_6",
                  "name": "a",
                  "type": "tuple"
                },
                {
                  "components": [
                    {
                      "components": [
                        {
                          "components": [
                            {
                              "components": [
                                {
                                  "internalType": "bytes",
                                  "name": "val",
                                  "type": "bytes"
                                },
                                {
                                  "internalType": "bool",
                                  "name": "neg",
                                  "type": "bool"
                                },
                                {
                                  "internalType": "uint256",
                                  "name": "bitlen",
                                  "type": "uint256"
                                }
                              ],
                              "internalType": "struct BigNumber",
                              "name": "value",
                              "type": "tuple"
                            }
                          ],
                          "internalType": "struct Zp",
                          "name": "a",
                          "type": "tuple"
                        },
                        {
                          "components": [
                            {
                              "components": [
                                {
                                  "internalType": "bytes",
                                  "name": "val",
                                  "type": "bytes"
                                },
                                {
                                  "internalType": "bool",
                                  "name": "neg",
                                  "type": "bool"
                                },
                                {
                                  "internalType": "uint256",
                                  "name": "bitlen",
                                  "type": "uint256"
                                }
                              ],
                              "internalType": "struct BigNumber",
                              "name": "value",
                              "type": "tuple"
                            }
                          ],
                          "internalType": "struct Zp",
                          "name": "b",
                          "type": "tuple"
                        }
                      ],
                      "internalType": "struct Zp_2",
                      "name": "a",
                      "type": "tuple"
                    },
                    {
                      "components": [
                        {
                          "components": [
                            {
                              "components": [
                                {
                                  "internalType": "bytes",
                                  "name": "val",
                                  "type": "bytes"
                                },
                                {
                                  "internalType": "bool",
                                  "name": "neg",
                                  "type": "bool"
                                },
                                {
                                  "internalType": "uint256",
                                  "name": "bitlen",
                                  "type": "uint256"
                                }
                              ],
                              "internalType": "struct BigNumber",
                              "name": "value",
                              "type": "tuple"
                            }
                          ],
                          "internalType": "struct Zp",
                          "name": "a",
                          "type": "tuple"
                        },
                        {
                          "components": [
                            {
                              "components": [
                                {
                                  "internalType": "bytes",
                                  "name": "val",
                                  "type": "bytes"
                                },
                                {
                                  "internalType": "bool",
                                  "name": "neg",
                                  "type": "bool"
                                },
                                {
                                  "internalType": "uint256",
                                  "name": "bitlen",
                                  "type": "uint256"
                                }
                              ],
                              "internalType": "struct BigNumber",
                              "name": "value",
                              "type": "tuple"
                            }
                          ],
                          "internalType": "struct Zp",
                          "name": "b",
                          "type": "tuple"
                        }
                      ],
                      "internalType": "struct Zp_2",
                      "name": "b",
                      "type": "tuple"
                    },
                    {
                      "components": [
                        {
                          "components": [
                            {
                              "components": [
                                {
                                  "internalType": "bytes",
                                  "name": "val",
                                  "type": "bytes"
                                },
                                {
                                  "internalType": "bool",
                                  "name": "neg",
                                  "type": "bool"
                                },
                                {
                                  "internalType": "uint256",
                                  "name": "bitlen",
                                  "type": "uint256"
                                }
                              ],
                              "internalType": "struct BigNumber",
                              "name": "value",
                              "type": "tuple"
                            }
                          ],
                          "internalType": "struct Zp",
                          "name": "a",
                          "type": "tuple"
                        },
                        {
                          "components": [
                            {
                              "components": [
                                {
                                  "internalType": "bytes",
                                  "name": "val",
                                  "type": "bytes"
                                },
                                {
                                  "internalType": "bool",
                                  "name": "neg",
                                  "type": "bool"
                                },
                                {
                                  "internalType": "uint256",
                                  "name": "bitlen",
                                  "type": "uint256"
                                }
                              ],
                              "internalType": "struct BigNumber",
                              "name": "value",
                              "type": "tuple"
                            }
                          ],
                          "internalType": "struct Zp",
                          "name": "b",
                          "type": "tuple"
                        }
                      ],
                      "internalType": "struct Zp_2",
                      "name": "c",
                      "type": "tuple"
                    }
                  ],
                  "internalType": "struct Zp_6",
                  "name": "b",
                  "type": "tuple"
                }
              ],
              "internalType": "struct Zp_12",
              "name": "x",
              "type": "tuple"
            },
            {
              "components": [
                {
                  "components": [
                    {
                      "components": [
                        {
                          "components": [
                            {
                              "components": [
                                {
                                  "internalType": "bytes",
                                  "name": "val",
                                  "type": "bytes"
                                },
                                {
                                  "internalType": "bool",
                                  "name": "neg",
                                  "type": "bool"
                                },
                                {
                                  "internalType": "uint256",
                                  "name": "bitlen",
                                  "type": "uint256"
                                }
                              ],
                              "internalType": "struct BigNumber",
                              "name": "value",
                              "type": "tuple"
                            }
                          ],
                          "internalType": "struct Zp",
                          "name": "a",
                          "type": "tuple"
                        },
                        {
                          "components": [
                            {
                              "components": [
                                {
                                  "internalType": "bytes",
                                  "name": "val",
                                  "type": "bytes"
                                },
                                {
                                  "internalType": "bool",
                                  "name": "neg",
                                  "type": "bool"
                                },
                                {
                                  "internalType": "uint256",
                                  "name": "bitlen",
                                  "type": "uint256"
                                }
                              ],
                              "internalType": "struct BigNumber",
                              "name": "value",
                              "type": "tuple"
                            }
                          ],
                          "internalType": "struct Zp",
                          "name": "b",
                          "type": "tuple"
                        }
                      ],
                      "internalType": "struct Zp_2",
                      "name": "a",
                      "type": "tuple"
                    },
                    {
                      "components": [
                        {
                          "components": [
                            {
                              "components": [
                                {
                                  "internalType": "bytes",
                                  "name": "val",
                                  "type": "bytes"
                                },
                                {
                                  "internalType": "bool",
                                  "name": "neg",
                                  "type": "bool"
                                },
                                {
                                  "internalType": "uint256",
                                  "name": "bitlen",
                                  "type": "uint256"
                                }
                              ],
                              "internalType": "struct BigNumber",
                              "name": "value",
                              "type": "tuple"
                            }
                          ],
                          "internalType": "struct Zp",
                          "name": "a",
                          "type": "tuple"
                        },
                        {
                          "components": [
                            {
                              "components": [
                                {
                                  "internalType": "bytes",
                                  "name": "val",
                                  "type": "bytes"
                                },
                                {
                                  "internalType": "bool",
                                  "name": "neg",
                                  "type": "bool"
                                },
                                {
                                  "internalType": "uint256",
                                  "name": "bitlen",
                                  "type": "uint256"
                                }
                              ],
                              "internalType": "struct BigNumber",
                              "name": "value",
                              "type": "tuple"
                            }
                          ],
                          "internalType": "struct Zp",
                          "name": "b",
                          "type": "tuple"
                        }
                      ],
                      "internalType": "struct Zp_2",
                      "name": "b",
                      "type": "tuple"
                    },
                    {
                      "components": [
                        {
                          "components": [
                            {
                              "components": [
                                {
                                  "internalType": "bytes",
                                  "name": "val",
                                  "type": "bytes"
                                },
                                {
                                  "internalType": "bool",
                                  "name": "neg",
                                  "type": "bool"
                                },
                                {
                                  "internalType": "uint256",
                                  "name": "bitlen",
                                  "type": "uint256"
                                }
                              ],
                              "internalType": "struct BigNumber",
                              "name": "value",
                              "type": "tuple"
                            }
                          ],
                          "internalType": "struct Zp",
                          "name": "a",
                          "type": "tuple"
                        },
                        {
                          "components": [
                            {
                              "components": [
                                {
                                  "internalType": "bytes",
                                  "name": "val",
                                  "type": "bytes"
                                },
                                {
                                  "internalType": "bool",
                                  "name": "neg",
                                  "type": "bool"
                                },
                                {
                                  "internalType": "uint256",
                                  "name": "bitlen",
                                  "type": "uint256"
                                }
                              ],
                              "internalType": "struct BigNumber",
                              "name": "value",
                              "type": "tuple"
                            }
                          ],
                          "internalType": "struct Zp",
                          "name": "b",
                          "type": "tuple"
                        }
                      ],
                      "internalType": "struct Zp_2",
                      "name": "c",
                      "type": "tuple"
                    }
                  ],
                  "internalType": "struct Zp_6",
                  "name": "a",
                  "type": "tuple"
                },
                {
                  "components": [
                    {
                      "components": [
                        {
                          "components": [
                            {
                              "components": [
                                {
                                  "internalType": "bytes",
                                  "name": "val",
                                  "type": "bytes"
                                },
                                {
                                  "internalType": "bool",
                                  "name": "neg",
                                  "type": "bool"
                                },
                                {
                                  "internalType": "uint256",
                                  "name": "bitlen",
                                  "type": "uint256"
                                }
                              ],
                              "internalType": "struct BigNumber",
                              "name": "value",
                              "type": "tuple"
                            }
                          ],
                          "internalType": "struct Zp",
                          "name": "a",
                          "type": "tuple"
                        },
                        {
                          "components": [
                            {
                              "components": [
                                {
                                  "internalType": "bytes",
                                  "name": "val",
                                  "type": "bytes"
                                },
                                {
                                  "internalType": "bool",
                                  "name": "neg",
                                  "type": "bool"
                                },
                                {
                                  "internalType": "uint256",
                                  "name": "bitlen",
                                  "type": "uint256"
                                }
                              ],
                              "internalType": "struct BigNumber",
                              "name": "value",
                              "type": "tuple"
                            }
                          ],
                          "internalType": "struct Zp",
                          "name": "b",
                          "type": "tuple"
                        }
                      ],
                      "internalType": "struct Zp_2",
                      "name": "a",
                      "type": "tuple"
                    },
                    {
                      "components": [
                        {
                          "components": [
                            {
                              "components": [
                                {
                                  "internalType": "bytes",
                                  "name": "val",
                                  "type": "bytes"
                                },
                                {
                                  "internalType": "bool",
                                  "name": "neg",
                                  "type": "bool"
                                },
                                {
                                  "internalType": "uint256",
                                  "name": "bitlen",
                                  "type": "uint256"
                                }
                              ],
                              "internalType": "struct BigNumber",
                              "name": "value",
                              "type": "tuple"
                            }
                          ],
                          "internalType": "struct Zp",
                          "name": "a",
                          "type": "tuple"
                        },
                        {
                          "components": [
                            {
                              "components": [
                                {
                                  "internalType": "bytes",
                                  "name": "val",
                                  "type": "bytes"
                                },
                                {
                                  "internalType": "bool",
                                  "name": "neg",
                                  "type": "bool"
                                },
                                {
                                  "internalType": "uint256",
                                  "name": "bitlen",
                                  "type": "uint256"
                                }
                              ],
                              "internalType": "struct BigNumber",
                              "name": "value",
                              "type": "tuple"
                            }
                          ],
                          "internalType": "struct Zp",
                          "name": "b",
                          "type": "tuple"
                        }
                      ],
                      "internalType": "struct Zp_2",
                      "name": "b",
                      "type": "tuple"
                    },
                    {
                      "components": [
                        {
                          "components": [
                            {
                              "components": [
                                {
                                  "internalType": "bytes",
                                  "name": "val",
                                  "type": "bytes"
                                },
                                {
                                  "internalType": "bool",
                                  "name": "neg",
                                  "type": "bool"
                                },
                                {
                                  "internalType": "uint256",
                                  "name": "bitlen",
                                  "type": "uint256"
                                }
                              ],
                              "internalType": "struct BigNumber",
                              "name": "value",
                              "type": "tuple"
                            }
                          ],
                          "internalType": "struct Zp",
                          "name": "a",
                          "type": "tuple"
                        },
                        {
                          "components": [
                            {
                              "components": [
                                {
                                  "internalType": "bytes",
                                  "name": "val",
                                  "type": "bytes"
                                },
                                {
                                  "internalType": "bool",
                                  "name": "neg",
                                  "type": "bool"
                                },
                                {
                                  "internalType": "uint256",
                                  "name": "bitlen",
                                  "type": "uint256"
                                }
                              ],
                              "internalType": "struct BigNumber",
                              "name": "value",
                              "type": "tuple"
                            }
                          ],
                          "internalType": "struct Zp",
                          "name": "b",
                          "type": "tuple"
                        }
                      ],
                      "internalType": "struct Zp_2",
                      "name": "c",
                      "type": "tuple"
                    }
                  ],
                  "internalType": "struct Zp_6",
                  "name": "b",
                  "type": "tuple"
                }
              ],
              "internalType": "struct Zp_12",
              "name": "y",
              "type": "tuple"
            }
          ],
          "internalType": "struct Point_Zp_12",
          "name": "r",
          "type": "tuple"
        },
        {
          "components": [
            {
              "internalType": "enum PointType",
              "name": "pointType",
              "type": "uint8"
            },
            {
              "components": [
                {
                  "components": [
                    {
                      "components": [
                        {
                          "components": [
                            {
                              "components": [
                                {
                                  "internalType": "bytes",
                                  "name": "val",
                                  "type": "bytes"
                                },
                                {
                                  "internalType": "bool",
                                  "name": "neg",
                                  "type": "bool"
                                },
                                {
                                  "internalType": "uint256",
                                  "name": "bitlen",
                                  "type": "uint256"
                                }
                              ],
                              "internalType": "struct BigNumber",
                              "name": "value",
                              "type": "tuple"
                            }
                          ],
                          "internalType": "struct Zp",
                          "name": "a",
                          "type": "tuple"
                        },
                        {
                          "components": [
                            {
                              "components": [
                                {
                                  "internalType": "bytes",
                                  "name": "val",
                                  "type": "bytes"
                                },
                                {
                                  "internalType": "bool",
                                  "name": "neg",
                                  "type": "bool"
                                },
                                {
                                  "internalType": "uint256",
                                  "name": "bitlen",
                                  "type": "uint256"
                                }
                              ],
                              "internalType": "struct BigNumber",
                              "name": "value",
                              "type": "tuple"
                            }
                          ],
                          "internalType": "struct Zp",
                          "name": "b",
                          "type": "tuple"
                        }
                      ],
                      "internalType": "struct Zp_2",
                      "name": "a",
                      "type": "tuple"
                    },
                    {
                      "components": [
                        {
                          "components": [
                            {
                              "components": [
                                {
                                  "internalType": "bytes",
                                  "name": "val",
                                  "type": "bytes"
                                },
                                {
                                  "internalType": "bool",
                                  "name": "neg",
                                  "type": "bool"
                                },
                                {
                                  "internalType": "uint256",
                                  "name": "bitlen",
                                  "type": "uint256"
                                }
                              ],
                              "internalType": "struct BigNumber",
                              "name": "value",
                              "type": "tuple"
                            }
                          ],
                          "internalType": "struct Zp",
                          "name": "a",
                          "type": "tuple"
                        },
                        {
                          "components": [
                            {
                              "components": [
                                {
                                  "internalType": "bytes",
                                  "name": "val",
                                  "type": "bytes"
                                },
                                {
                                  "internalType": "bool",
                                  "name": "neg",
                                  "type": "bool"
                                },
                                {
                                  "internalType": "uint256",
                                  "name": "bitlen",
                                  "type": "uint256"
                                }
                              ],
                              "internalType": "struct BigNumber",
                              "name": "value",
                              "type": "tuple"
                            }
                          ],
                          "internalType": "struct Zp",
                          "name": "b",
                          "type": "tuple"
                        }
                      ],
                      "internalType": "struct Zp_2",
                      "name": "b",
                      "type": "tuple"
                    },
                    {
                      "components": [
                        {
                          "components": [
                            {
                              "components": [
                                {
                                  "internalType": "bytes",
                                  "name": "val",
                                  "type": "bytes"
                                },
                                {
                                  "internalType": "bool",
                                  "name": "neg",
                                  "type": "bool"
                                },
                                {
                                  "internalType": "uint256",
                                  "name": "bitlen",
                                  "type": "uint256"
                                }
                              ],
                              "internalType": "struct BigNumber",
                              "name": "value",
                              "type": "tuple"
                            }
                          ],
                          "internalType": "struct Zp",
                          "name": "a",
                          "type": "tuple"
                        },
                        {
                          "components": [
                            {
                              "components": [
                                {
                                  "internalType": "bytes",
                                  "name": "val",
                                  "type": "bytes"
                                },
                                {
                                  "internalType": "bool",
                                  "name": "neg",
                                  "type": "bool"
                                },
                                {
                                  "internalType": "uint256",
                                  "name": "bitlen",
                                  "type": "uint256"
                                }
                              ],
                              "internalType": "struct BigNumber",
                              "name": "value",
                              "type": "tuple"
                            }
                          ],
                          "internalType": "struct Zp",
                          "name": "b",
                          "type": "tuple"
                        }
                      ],
                      "internalType": "struct Zp_2",
                      "name": "c",
                      "type": "tuple"
                    }
                  ],
                  "internalType": "struct Zp_6",
                  "name": "a",
                  "type": "tuple"
                },
                {
                  "components": [
                    {
                      "components": [
                        {
                          "components": [
                            {
                              "components": [
                                {
                                  "internalType": "bytes",
                                  "name": "val",
                                  "type": "bytes"
                                },
                                {
                                  "internalType": "bool",
                                  "name": "neg",
                                  "type": "bool"
                                },
                                {
                                  "internalType": "uint256",
                                  "name": "bitlen",
                                  "type": "uint256"
                                }
                              ],
                              "internalType": "struct BigNumber",
                              "name": "value",
                              "type": "tuple"
                            }
                          ],
                          "internalType": "struct Zp",
                          "name": "a",
                          "type": "tuple"
                        },
                        {
                          "components": [
                            {
                              "components": [
                                {
                                  "internalType": "bytes",
                                  "name": "val",
                                  "type": "bytes"
                                },
                                {
                                  "internalType": "bool",
                                  "name": "neg",
                                  "type": "bool"
                                },
                                {
                                  "internalType": "uint256",
                                  "name": "bitlen",
                                  "type": "uint256"
                                }
                              ],
                              "internalType": "struct BigNumber",
                              "name": "value",
                              "type": "tuple"
                            }
                          ],
                          "internalType": "struct Zp",
                          "name": "b",
                          "type": "tuple"
                        }
                      ],
                      "internalType": "struct Zp_2",
                      "name": "a",
                      "type": "tuple"
                    },
                    {
                      "components": [
                        {
                          "components": [
                            {
                              "components": [
                                {
                                  "internalType": "bytes",
                                  "name": "val",
                                  "type": "bytes"
                                },
                                {
                                  "internalType": "bool",
                                  "name": "neg",
                                  "type": "bool"
                                },
                                {
                                  "internalType": "uint256",
                                  "name": "bitlen",
                                  "type": "uint256"
                                }
                              ],
                              "internalType": "struct BigNumber",
                              "name": "value",
                              "type": "tuple"
                            }
                          ],
                          "internalType": "struct Zp",
                          "name": "a",
                          "type": "tuple"
                        },
                        {
                          "components": [
                            {
                              "components": [
                                {
                                  "internalType": "bytes",
                                  "name": "val",
                                  "type": "bytes"
                                },
                                {
                                  "internalType": "bool",
                                  "name": "neg",
                                  "type": "bool"
                                },
                                {
                                  "internalType": "uint256",
                                  "name": "bitlen",
                                  "type": "uint256"
                                }
                              ],
                              "internalType": "struct BigNumber",
                              "name": "value",
                              "type": "tuple"
                            }
                          ],
                          "internalType": "struct Zp",
                          "name": "b",
                          "type": "tuple"
                        }
                      ],
                      "internalType": "struct Zp_2",
                      "name": "b",
                      "type": "tuple"
                    },
                    {
                      "components": [
                        {
                          "components": [
                            {
                              "components": [
                                {
                                  "internalType": "bytes",
                                  "name": "val",
                                  "type": "bytes"
                                },
                                {
                                  "internalType": "bool",
                                  "name": "neg",
                                  "type": "bool"
                                },
                                {
                                  "internalType": "uint256",
                                  "name": "bitlen",
                                  "type": "uint256"
                                }
                              ],
                              "internalType": "struct BigNumber",
                              "name": "value",
                              "type": "tuple"
                            }
                          ],
                          "internalType": "struct Zp",
                          "name": "a",
                          "type": "tuple"
                        },
                        {
                          "components": [
                            {
                              "components": [
                                {
                                  "internalType": "bytes",
                                  "name": "val",
                                  "type": "bytes"
                                },
                                {
                                  "internalType": "bool",
                                  "name": "neg",
                                  "type": "bool"
                                },
                                {
                                  "internalType": "uint256",
                                  "name": "bitlen",
                                  "type": "uint256"
                                }
                              ],
                              "internalType": "struct BigNumber",
                              "name": "value",
                              "type": "tuple"
                            }
                          ],
                          "internalType": "struct Zp",
                          "name": "b",
                          "type": "tuple"
                        }
                      ],
                      "internalType": "struct Zp_2",
                      "name": "c",
                      "type": "tuple"
                    }
                  ],
                  "internalType": "struct Zp_6",
                  "name": "b",
                  "type": "tuple"
                }
              ],
              "internalType": "struct Zp_12",
              "name": "x",
              "type": "tuple"
            },
            {
              "components": [
                {
                  "components": [
                    {
                      "components": [
                        {
                          "components": [
                            {
                              "components": [
                                {
                                  "internalType": "bytes",
                                  "name": "val",
                                  "type": "bytes"
                                },
                                {
                                  "internalType": "bool",
                                  "name": "neg",
                                  "type": "bool"
                                },
                                {
                                  "internalType": "uint256",
                                  "name": "bitlen",
                                  "type": "uint256"
                                }
                              ],
                              "internalType": "struct BigNumber",
                              "name": "value",
                              "type": "tuple"
                            }
                          ],
                          "internalType": "struct Zp",
                          "name": "a",
                          "type": "tuple"
                        },
                        {
                          "components": [
                            {
                              "components": [
                                {
                                  "internalType": "bytes",
                                  "name": "val",
                                  "type": "bytes"
                                },
                                {
                                  "internalType": "bool",
                                  "name": "neg",
                                  "type": "bool"
                                },
                                {
                                  "internalType": "uint256",
                                  "name": "bitlen",
                                  "type": "uint256"
                                }
                              ],
                              "internalType": "struct BigNumber",
                              "name": "value",
                              "type": "tuple"
                            }
                          ],
                          "internalType": "struct Zp",
                          "name": "b",
                          "type": "tuple"
                        }
                      ],
                      "internalType": "struct Zp_2",
                      "name": "a",
                      "type": "tuple"
                    },
                    {
                      "components": [
                        {
                          "components": [
                            {
                              "components": [
                                {
                                  "internalType": "bytes",
                                  "name": "val",
                                  "type": "bytes"
                                },
                                {
                                  "internalType": "bool",
                                  "name": "neg",
                                  "type": "bool"
                                },
                                {
                                  "internalType": "uint256",
                                  "name": "bitlen",
                                  "type": "uint256"
                                }
                              ],
                              "internalType": "struct BigNumber",
                              "name": "value",
                              "type": "tuple"
                            }
                          ],
                          "internalType": "struct Zp",
                          "name": "a",
                          "type": "tuple"
                        },
                        {
                          "components": [
                            {
                              "components": [
                                {
                                  "internalType": "bytes",
                                  "name": "val",
                                  "type": "bytes"
                                },
                                {
                                  "internalType": "bool",
                                  "name": "neg",
                                  "type": "bool"
                                },
                                {
                                  "internalType": "uint256",
                                  "name": "bitlen",
                                  "type": "uint256"
                                }
                              ],
                              "internalType": "struct BigNumber",
                              "name": "value",
                              "type": "tuple"
                            }
                          ],
                          "internalType": "struct Zp",
                          "name": "b",
                          "type": "tuple"
                        }
                      ],
                      "internalType": "struct Zp_2",
                      "name": "b",
                      "type": "tuple"
                    },
                    {
                      "components": [
                        {
                          "components": [
                            {
                              "components": [
                                {
                                  "internalType": "bytes",
                                  "name": "val",
                                  "type": "bytes"
                                },
                                {
                                  "internalType": "bool",
                                  "name": "neg",
                                  "type": "bool"
                                },
                                {
                                  "internalType": "uint256",
                                  "name": "bitlen",
                                  "type": "uint256"
                                }
                              ],
                              "internalType": "struct BigNumber",
                              "name": "value",
                              "type": "tuple"
                            }
                          ],
                          "internalType": "struct Zp",
                          "name": "a",
                          "type": "tuple"
                        },
                        {
                          "components": [
                            {
                              "components": [
                                {
                                  "internalType": "bytes",
                                  "name": "val",
                                  "type": "bytes"
                                },
                                {
                                  "internalType": "bool",
                                  "name": "neg",
                                  "type": "bool"
                                },
                                {
                                  "internalType": "uint256",
                                  "name": "bitlen",
                                  "type": "uint256"
                                }
                              ],
                              "internalType": "struct BigNumber",
                              "name": "value",
                              "type": "tuple"
                            }
                          ],
                          "internalType": "struct Zp",
                          "name": "b",
                          "type": "tuple"
                        }
                      ],
                      "internalType": "struct Zp_2",
                      "name": "c",
                      "type": "tuple"
                    }
                  ],
                  "internalType": "struct Zp_6",
                  "name": "a",
                  "type": "tuple"
                },
                {
                  "components": [
                    {
                      "components": [
                        {
                          "components": [
                            {
                              "components": [
                                {
                                  "internalType": "bytes",
                                  "name": "val",
                                  "type": "bytes"
                                },
                                {
                                  "internalType": "bool",
                                  "name": "neg",
                                  "type": "bool"
                                },
                                {
                                  "internalType": "uint256",
                                  "name": "bitlen",
                                  "type": "uint256"
                                }
                              ],
                              "internalType": "struct BigNumber",
                              "name": "value",
                              "type": "tuple"
                            }
                          ],
                          "internalType": "struct Zp",
                          "name": "a",
                          "type": "tuple"
                        },
                        {
                          "components": [
                            {
                              "components": [
                                {
                                  "internalType": "bytes",
                                  "name": "val",
                                  "type": "bytes"
                                },
                                {
                                  "internalType": "bool",
                                  "name": "neg",
                                  "type": "bool"
                                },
                                {
                                  "internalType": "uint256",
                                  "name": "bitlen",
                                  "type": "uint256"
                                }
                              ],
                              "internalType": "struct BigNumber",
                              "name": "value",
                              "type": "tuple"
                            }
                          ],
                          "internalType": "struct Zp",
                          "name": "b",
                          "type": "tuple"
                        }
                      ],
                      "internalType": "struct Zp_2",
                      "name": "a",
                      "type": "tuple"
                    },
                    {
                      "components": [
                        {
                          "components": [
                            {
                              "components": [
                                {
                                  "internalType": "bytes",
                                  "name": "val",
                                  "type": "bytes"
                                },
                                {
                                  "internalType": "bool",
                                  "name": "neg",
                                  "type": "bool"
                                },
                                {
                                  "internalType": "uint256",
                                  "name": "bitlen",
                                  "type": "uint256"
                                }
                              ],
                              "internalType": "struct BigNumber",
                              "name": "value",
                              "type": "tuple"
                            }
                          ],
                          "internalType": "struct Zp",
                          "name": "a",
                          "type": "tuple"
                        },
                        {
                          "components": [
                            {
                              "components": [
                                {
                                  "internalType": "bytes",
                                  "name": "val",
                                  "type": "bytes"
                                },
                                {
                                  "internalType": "bool",
                                  "name": "neg",
                                  "type": "bool"
                                },
                                {
                                  "internalType": "uint256",
                                  "name": "bitlen",
                                  "type": "uint256"
                                }
                              ],
                              "internalType": "struct BigNumber",
                              "name": "value",
                              "type": "tuple"
                            }
                          ],
                          "internalType": "struct Zp",
                          "name": "b",
                          "type": "tuple"
                        }
                      ],
                      "internalType": "struct Zp_2",
                      "name": "b",
                      "type": "tuple"
                    },
                    {
                      "components": [
                        {
                          "components": [
                            {
                              "components": [
                                {
                                  "internalType": "bytes",
                                  "name": "val",
                                  "type": "bytes"
                                },
                                {
                                  "internalType": "bool",
                                  "name": "neg",
                                  "type": "bool"
                                },
                                {
                                  "internalType": "uint256",
                                  "name": "bitlen",
                                  "type": "uint256"
                                }
                              ],
                              "internalType": "struct BigNumber",
                              "name": "value",
                              "type": "tuple"
                            }
                          ],
                          "internalType": "struct Zp",
                          "name": "a",
                          "type": "tuple"
                        },
                        {
                          "components": [
                            {
                              "components": [
                                {
                                  "internalType": "bytes",
                                  "name": "val",
                                  "type": "bytes"
                                },
                                {
                                  "internalType": "bool",
                                  "name": "neg",
                                  "type": "bool"
                                },
                                {
                                  "internalType": "uint256",
                                  "name": "bitlen",
                                  "type": "uint256"
                                }
                              ],
                              "internalType": "struct BigNumber",
                              "name": "value",
                              "type": "tuple"
                            }
                          ],
                          "internalType": "struct Zp",
                          "name": "b",
                          "type": "tuple"
                        }
                      ],
                      "internalType": "struct Zp_2",
                      "name": "c",
                      "type": "tuple"
                    }
                  ],
                  "internalType": "struct Zp_6",
                  "name": "b",
                  "type": "tuple"
                }
              ],
              "internalType": "struct Zp_12",
              "name": "y",
              "type": "tuple"
            }
          ],
          "internalType": "struct Point_Zp_12",
          "name": "q",
          "type": "tuple"
        },
        {
          "components": [
            {
              "internalType": "enum PointType",
              "name": "pointType",
              "type": "uint8"
            },
            {
              "components": [
                {
                  "components": [
                    {
                      "internalType": "bytes",
                      "name": "val",
                      "type": "bytes"
                    },
                    {
                      "internalType": "bool",
                      "name": "neg",
                      "type": "bool"
                    },
                    {
                      "internalType": "uint256",
                      "name": "bitlen",
                      "type": "uint256"
                    }
                  ],
                  "internalType": "struct BigNumber",
                  "name": "value",
                  "type": "tuple"
                }
              ],
              "internalType": "struct Zp",
              "name": "x",
              "type": "tuple"
            },
            {
              "components": [
                {
                  "components": [
                    {
                      "internalType": "bytes",
                      "name": "val",
                      "type": "bytes"
                    },
                    {
                      "internalType": "bool",
                      "name": "neg",
                      "type": "bool"
                    },
                    {
                      "internalType": "uint256",
                      "name": "bitlen",
                      "type": "uint256"
                    }
                  ],
                  "internalType": "struct BigNumber",
                  "name": "value",
                  "type": "tuple"
                }
              ],
              "internalType": "struct Zp",
              "name": "y",
              "type": "tuple"
            }
          ],
          "internalType": "struct Point_Zp",
          "name": "p",
          "type": "tuple"
        }
      ],
      "name": "_addEval",
      "outputs": [
        {
          "components": [
            {
              "components": [
                {
                  "components": [
                    {
                      "components": [
                        {
                          "components": [
                            {
                              "internalType": "bytes",
                              "name": "val",
                              "type": "bytes"
                            },
                            {
                              "internalType": "bool",
                              "name": "neg",
                              "type": "bool"
                            },
                            {
                              "internalType": "uint256",
                              "name": "bitlen",
                              "type": "uint256"
                            }
                          ],
                          "internalType": "struct BigNumber",
                          "name": "value",
                          "type": "tuple"
                        }
                      ],
                      "internalType": "struct Zp",
                      "name": "a",
                      "type": "tuple"
                    },
                    {
                      "components": [
                        {
                          "components": [
                            {
                              "internalType": "bytes",
                              "name": "val",
                              "type": "bytes"
                            },
                            {
                              "internalType": "bool",
                              "name": "neg",
                              "type": "bool"
                            },
                            {
                              "internalType": "uint256",
                              "name": "bitlen",
                              "type": "uint256"
                            }
                          ],
                          "internalType": "struct BigNumber",
                          "name": "value",
                          "type": "tuple"
                        }
                      ],
                      "internalType": "struct Zp",
                      "name": "b",
                      "type": "tuple"
                    }
                  ],
                  "internalType": "struct Zp_2",
                  "name": "a",
                  "type": "tuple"
                },
                {
                  "components": [
                    {
                      "components": [
                        {
                          "components": [
                            {
                              "internalType": "bytes",
                              "name": "val",
                              "type": "bytes"
                            },
                            {
                              "internalType": "bool",
                              "name": "neg",
                              "type": "bool"
                            },
                            {
                              "internalType": "uint256",
                              "name": "bitlen",
                              "type": "uint256"
                            }
                          ],
                          "internalType": "struct BigNumber",
                          "name": "value",
                          "type": "tuple"
                        }
                      ],
                      "internalType": "struct Zp",
                      "name": "a",
                      "type": "tuple"
                    },
                    {
                      "components": [
                        {
                          "components": [
                            {
                              "internalType": "bytes",
                              "name": "val",
                              "type": "bytes"
                            },
                            {
                              "internalType": "bool",
                              "name": "neg",
                              "type": "bool"
                            },
                            {
                              "internalType": "uint256",
                              "name": "bitlen",
                              "type": "uint256"
                            }
                          ],
                          "internalType": "struct BigNumber",
                          "name": "value",
                          "type": "tuple"
                        }
                      ],
                      "internalType": "struct Zp",
                      "name": "b",
                      "type": "tuple"
                    }
                  ],
                  "internalType": "struct Zp_2",
                  "name": "b",
                  "type": "tuple"
                },
                {
                  "components": [
                    {
                      "components": [
                        {
                          "components": [
                            {
                              "internalType": "bytes",
                              "name": "val",
                              "type": "bytes"
                            },
                            {
                              "internalType": "bool",
                              "name": "neg",
                              "type": "bool"
                            },
                            {
                              "internalType": "uint256",
                              "name": "bitlen",
                              "type": "uint256"
                            }
                          ],
                          "internalType": "struct BigNumber",
                          "name": "value",
                          "type": "tuple"
                        }
                      ],
                      "internalType": "struct Zp",
                      "name": "a",
                      "type": "tuple"
                    },
                    {
                      "components": [
                        {
                          "components": [
                            {
                              "internalType": "bytes",
                              "name": "val",
                              "type": "bytes"
                            },
                            {
                              "internalType": "bool",
                              "name": "neg",
                              "type": "bool"
                            },
                            {
                              "internalType": "uint256",
                              "name": "bitlen",
                              "type": "uint256"
                            }
                          ],
                          "internalType": "struct BigNumber",
                          "name": "value",
                          "type": "tuple"
                        }
                      ],
                      "internalType": "struct Zp",
                      "name": "b",
                      "type": "tuple"
                    }
                  ],
                  "internalType": "struct Zp_2",
                  "name": "c",
                  "type": "tuple"
                }
              ],
              "internalType": "struct Zp_6",
              "name": "a",
              "type": "tuple"
            },
            {
              "components": [
                {
                  "components": [
                    {
                      "components": [
                        {
                          "components": [
                            {
                              "internalType": "bytes",
                              "name": "val",
                              "type": "bytes"
                            },
                            {
                              "internalType": "bool",
                              "name": "neg",
                              "type": "bool"
                            },
                            {
                              "internalType": "uint256",
                              "name": "bitlen",
                              "type": "uint256"
                            }
                          ],
                          "internalType": "struct BigNumber",
                          "name": "value",
                          "type": "tuple"
                        }
                      ],
                      "internalType": "struct Zp",
                      "name": "a",
                      "type": "tuple"
                    },
                    {
                      "components": [
                        {
                          "components": [
                            {
                              "internalType": "bytes",
                              "name": "val",
                              "type": "bytes"
                            },
                            {
                              "internalType": "bool",
                              "name": "neg",
                              "type": "bool"
                            },
                            {
                              "internalType": "uint256",
                              "name": "bitlen",
                              "type": "uint256"
                            }
                          ],
                          "internalType": "struct BigNumber",
                          "name": "value",
                          "type": "tuple"
                        }
                      ],
                      "internalType": "struct Zp",
                      "name": "b",
                      "type": "tuple"
                    }
                  ],
                  "internalType": "struct Zp_2",
                  "name": "a",
                  "type": "tuple"
                },
                {
                  "components": [
                    {
                      "components": [
                        {
                          "components": [
                            {
                              "internalType": "bytes",
                              "name": "val",
                              "type": "bytes"
                            },
                            {
                              "internalType": "bool",
                              "name": "neg",
                              "type": "bool"
                            },
                            {
                              "internalType": "uint256",
                              "name": "bitlen",
                              "type": "uint256"
                            }
                          ],
                          "internalType": "struct BigNumber",
                          "name": "value",
                          "type": "tuple"
                        }
                      ],
                      "internalType": "struct Zp",
                      "name": "a",
                      "type": "tuple"
                    },
                    {
                      "components": [
                        {
                          "components": [
                            {
                              "internalType": "bytes",
                              "name": "val",
                              "type": "bytes"
                            },
                            {
                              "internalType": "bool",
                              "name": "neg",
                              "type": "bool"
                            },
                            {
                              "internalType": "uint256",
                              "name": "bitlen",
                              "type": "uint256"
                            }
                          ],
                          "internalType": "struct BigNumber",
                          "name": "value",
                          "type": "tuple"
                        }
                      ],
                      "internalType": "struct Zp",
                      "name": "b",
                      "type": "tuple"
                    }
                  ],
                  "internalType": "struct Zp_2",
                  "name": "b",
                  "type": "tuple"
                },
                {
                  "components": [
                    {
                      "components": [
                        {
                          "components": [
                            {
                              "internalType": "bytes",
                              "name": "val",
                              "type": "bytes"
                            },
                            {
                              "internalType": "bool",
                              "name": "neg",
                              "type": "bool"
                            },
                            {
                              "internalType": "uint256",
                              "name": "bitlen",
                              "type": "uint256"
                            }
                          ],
                          "internalType": "struct BigNumber",
                          "name": "value",
                          "type": "tuple"
                        }
                      ],
                      "internalType": "struct Zp",
                      "name": "a",
                      "type": "tuple"
                    },
                    {
                      "components": [
                        {
                          "components": [
                            {
                              "internalType": "bytes",
                              "name": "val",
                              "type": "bytes"
                            },
                            {
                              "internalType": "bool",
                              "name": "neg",
                              "type": "bool"
                            },
                            {
                              "internalType": "uint256",
                              "name": "bitlen",
                              "type": "uint256"
                            }
                          ],
                          "internalType": "struct BigNumber",
                          "name": "value",
                          "type": "tuple"
                        }
                      ],
                      "internalType": "struct Zp",
                      "name": "b",
                      "type": "tuple"
                    }
                  ],
                  "internalType": "struct Zp_2",
                  "name": "c",
                  "type": "tuple"
                }
              ],
              "internalType": "struct Zp_6",
              "name": "b",
              "type": "tuple"
            }
          ],
          "internalType": "struct Zp_12",
          "name": "",
          "type": "tuple"
        }
      ],
      "stateMutability": "view",
      "type": "function"
    },
    {
      "inputs": [
        {
          "components": [
            {
              "internalType": "enum PointType",
              "name": "pointType",
              "type": "uint8"
            },
            {
              "components": [
                {
                  "components": [
                    {
                      "components": [
                        {
                          "internalType": "bytes",
                          "name": "val",
                          "type": "bytes"
                        },
                        {
                          "internalType": "bool",
                          "name": "neg",
                          "type": "bool"
                        },
                        {
                          "internalType": "uint256",
                          "name": "bitlen",
                          "type": "uint256"
                        }
                      ],
                      "internalType": "struct BigNumber",
                      "name": "value",
                      "type": "tuple"
                    }
                  ],
                  "internalType": "struct Zp",
                  "name": "a",
                  "type": "tuple"
                },
                {
                  "components": [
                    {
                      "components": [
                        {
                          "internalType": "bytes",
                          "name": "val",
                          "type": "bytes"
                        },
                        {
                          "internalType": "bool",
                          "name": "neg",
                          "type": "bool"
                        },
                        {
                          "internalType": "uint256",
                          "name": "bitlen",
                          "type": "uint256"
                        }
                      ],
                      "internalType": "struct BigNumber",
                      "name": "value",
                      "type": "tuple"
                    }
                  ],
                  "internalType": "struct Zp",
                  "name": "b",
                  "type": "tuple"
                }
              ],
              "internalType": "struct Zp_2",
              "name": "x",
              "type": "tuple"
            },
            {
              "components": [
                {
                  "components": [
                    {
                      "components": [
                        {
                          "internalType": "bytes",
                          "name": "val",
                          "type": "bytes"
                        },
                        {
                          "internalType": "bool",
                          "name": "neg",
                          "type": "bool"
                        },
                        {
                          "internalType": "uint256",
                          "name": "bitlen",
                          "type": "uint256"
                        }
                      ],
                      "internalType": "struct BigNumber",
                      "name": "value",
                      "type": "tuple"
                    }
                  ],
                  "internalType": "struct Zp",
                  "name": "a",
                  "type": "tuple"
                },
                {
                  "components": [
                    {
                      "components": [
                        {
                          "internalType": "bytes",
                          "name": "val",
                          "type": "bytes"
                        },
                        {
                          "internalType": "bool",
                          "name": "neg",
                          "type": "bool"
                        },
                        {
                          "internalType": "uint256",
                          "name": "bitlen",
                          "type": "uint256"
                        }
                      ],
                      "internalType": "struct BigNumber",
                      "name": "value",
                      "type": "tuple"
                    }
                  ],
                  "internalType": "struct Zp",
                  "name": "b",
                  "type": "tuple"
                }
              ],
              "internalType": "struct Zp_2",
              "name": "y",
              "type": "tuple"
            }
          ],
          "internalType": "struct Point_Zp_2",
          "name": "r",
          "type": "tuple"
        },
        {
          "components": [
            {
              "internalType": "enum PointType",
              "name": "pointType",
              "type": "uint8"
            },
            {
              "components": [
                {
                  "components": [
                    {
                      "components": [
                        {
                          "internalType": "bytes",
                          "name": "val",
                          "type": "bytes"
                        },
                        {
                          "internalType": "bool",
                          "name": "neg",
                          "type": "bool"
                        },
                        {
                          "internalType": "uint256",
                          "name": "bitlen",
                          "type": "uint256"
                        }
                      ],
                      "internalType": "struct BigNumber",
                      "name": "value",
                      "type": "tuple"
                    }
                  ],
                  "internalType": "struct Zp",
                  "name": "a",
                  "type": "tuple"
                },
                {
                  "components": [
                    {
                      "components": [
                        {
                          "internalType": "bytes",
                          "name": "val",
                          "type": "bytes"
                        },
                        {
                          "internalType": "bool",
                          "name": "neg",
                          "type": "bool"
                        },
                        {
                          "internalType": "uint256",
                          "name": "bitlen",
                          "type": "uint256"
                        }
                      ],
                      "internalType": "struct BigNumber",
                      "name": "value",
                      "type": "tuple"
                    }
                  ],
                  "internalType": "struct Zp",
                  "name": "b",
                  "type": "tuple"
                }
              ],
              "internalType": "struct Zp_2",
              "name": "x",
              "type": "tuple"
            },
            {
              "components": [
                {
                  "components": [
                    {
                      "components": [
                        {
                          "internalType": "bytes",
                          "name": "val",
                          "type": "bytes"
                        },
                        {
                          "internalType": "bool",
                          "name": "neg",
                          "type": "bool"
                        },
                        {
                          "internalType": "uint256",
                          "name": "bitlen",
                          "type": "uint256"
                        }
                      ],
                      "internalType": "struct BigNumber",
                      "name": "value",
                      "type": "tuple"
                    }
                  ],
                  "internalType": "struct Zp",
                  "name": "a",
                  "type": "tuple"
                },
                {
                  "components": [
                    {
                      "components": [
                        {
                          "internalType": "bytes",
                          "name": "val",
                          "type": "bytes"
                        },
                        {
                          "internalType": "bool",
                          "name": "neg",
                          "type": "bool"
                        },
                        {
                          "internalType": "uint256",
                          "name": "bitlen",
                          "type": "uint256"
                        }
                      ],
                      "internalType": "struct BigNumber",
                      "name": "value",
                      "type": "tuple"
                    }
                  ],
                  "internalType": "struct Zp",
                  "name": "b",
                  "type": "tuple"
                }
              ],
              "internalType": "struct Zp_2",
              "name": "y",
              "type": "tuple"
            }
          ],
          "internalType": "struct Point_Zp_2",
          "name": "q",
          "type": "tuple"
        },
        {
          "components": [
            {
              "internalType": "enum PointType",
              "name": "pointType",
              "type": "uint8"
            },
            {
              "components": [
                {
                  "components": [
                    {
                      "internalType": "bytes",
                      "name": "val",
                      "type": "bytes"
                    },
                    {
                      "internalType": "bool",
                      "name": "neg",
                      "type": "bool"
                    },
                    {
                      "internalType": "uint256",
                      "name": "bitlen",
                      "type": "uint256"
                    }
                  ],
                  "internalType": "struct BigNumber",
                  "name": "value",
                  "type": "tuple"
                }
              ],
              "internalType": "struct Zp",
              "name": "x",
              "type": "tuple"
            },
            {
              "components": [
                {
                  "components": [
                    {
                      "internalType": "bytes",
                      "name": "val",
                      "type": "bytes"
                    },
                    {
                      "internalType": "bool",
                      "name": "neg",
                      "type": "bool"
                    },
                    {
                      "internalType": "uint256",
                      "name": "bitlen",
                      "type": "uint256"
                    }
                  ],
                  "internalType": "struct BigNumber",
                  "name": "value",
                  "type": "tuple"
                }
              ],
              "internalType": "struct Zp",
              "name": "y",
              "type": "tuple"
            }
          ],
          "internalType": "struct Point_Zp",
          "name": "p",
          "type": "tuple"
        }
      ],
      "name": "addEval",
      "outputs": [
        {
          "components": [
            {
              "components": [
                {
                  "components": [
                    {
                      "components": [
                        {
                          "components": [
                            {
                              "internalType": "bytes",
                              "name": "val",
                              "type": "bytes"
                            },
                            {
                              "internalType": "bool",
                              "name": "neg",
                              "type": "bool"
                            },
                            {
                              "internalType": "uint256",
                              "name": "bitlen",
                              "type": "uint256"
                            }
                          ],
                          "internalType": "struct BigNumber",
                          "name": "value",
                          "type": "tuple"
                        }
                      ],
                      "internalType": "struct Zp",
                      "name": "a",
                      "type": "tuple"
                    },
                    {
                      "components": [
                        {
                          "components": [
                            {
                              "internalType": "bytes",
                              "name": "val",
                              "type": "bytes"
                            },
                            {
                              "internalType": "bool",
                              "name": "neg",
                              "type": "bool"
                            },
                            {
                              "internalType": "uint256",
                              "name": "bitlen",
                              "type": "uint256"
                            }
                          ],
                          "internalType": "struct BigNumber",
                          "name": "value",
                          "type": "tuple"
                        }
                      ],
                      "internalType": "struct Zp",
                      "name": "b",
                      "type": "tuple"
                    }
                  ],
                  "internalType": "struct Zp_2",
                  "name": "a",
                  "type": "tuple"
                },
                {
                  "components": [
                    {
                      "components": [
                        {
                          "components": [
                            {
                              "internalType": "bytes",
                              "name": "val",
                              "type": "bytes"
                            },
                            {
                              "internalType": "bool",
                              "name": "neg",
                              "type": "bool"
                            },
                            {
                              "internalType": "uint256",
                              "name": "bitlen",
                              "type": "uint256"
                            }
                          ],
                          "internalType": "struct BigNumber",
                          "name": "value",
                          "type": "tuple"
                        }
                      ],
                      "internalType": "struct Zp",
                      "name": "a",
                      "type": "tuple"
                    },
                    {
                      "components": [
                        {
                          "components": [
                            {
                              "internalType": "bytes",
                              "name": "val",
                              "type": "bytes"
                            },
                            {
                              "internalType": "bool",
                              "name": "neg",
                              "type": "bool"
                            },
                            {
                              "internalType": "uint256",
                              "name": "bitlen",
                              "type": "uint256"
                            }
                          ],
                          "internalType": "struct BigNumber",
                          "name": "value",
                          "type": "tuple"
                        }
                      ],
                      "internalType": "struct Zp",
                      "name": "b",
                      "type": "tuple"
                    }
                  ],
                  "internalType": "struct Zp_2",
                  "name": "b",
                  "type": "tuple"
                },
                {
                  "components": [
                    {
                      "components": [
                        {
                          "components": [
                            {
                              "internalType": "bytes",
                              "name": "val",
                              "type": "bytes"
                            },
                            {
                              "internalType": "bool",
                              "name": "neg",
                              "type": "bool"
                            },
                            {
                              "internalType": "uint256",
                              "name": "bitlen",
                              "type": "uint256"
                            }
                          ],
                          "internalType": "struct BigNumber",
                          "name": "value",
                          "type": "tuple"
                        }
                      ],
                      "internalType": "struct Zp",
                      "name": "a",
                      "type": "tuple"
                    },
                    {
                      "components": [
                        {
                          "components": [
                            {
                              "internalType": "bytes",
                              "name": "val",
                              "type": "bytes"
                            },
                            {
                              "internalType": "bool",
                              "name": "neg",
                              "type": "bool"
                            },
                            {
                              "internalType": "uint256",
                              "name": "bitlen",
                              "type": "uint256"
                            }
                          ],
                          "internalType": "struct BigNumber",
                          "name": "value",
                          "type": "tuple"
                        }
                      ],
                      "internalType": "struct Zp",
                      "name": "b",
                      "type": "tuple"
                    }
                  ],
                  "internalType": "struct Zp_2",
                  "name": "c",
                  "type": "tuple"
                }
              ],
              "internalType": "struct Zp_6",
              "name": "a",
              "type": "tuple"
            },
            {
              "components": [
                {
                  "components": [
                    {
                      "components": [
                        {
                          "components": [
                            {
                              "internalType": "bytes",
                              "name": "val",
                              "type": "bytes"
                            },
                            {
                              "internalType": "bool",
                              "name": "neg",
                              "type": "bool"
                            },
                            {
                              "internalType": "uint256",
                              "name": "bitlen",
                              "type": "uint256"
                            }
                          ],
                          "internalType": "struct BigNumber",
                          "name": "value",
                          "type": "tuple"
                        }
                      ],
                      "internalType": "struct Zp",
                      "name": "a",
                      "type": "tuple"
                    },
                    {
                      "components": [
                        {
                          "components": [
                            {
                              "internalType": "bytes",
                              "name": "val",
                              "type": "bytes"
                            },
                            {
                              "internalType": "bool",
                              "name": "neg",
                              "type": "bool"
                            },
                            {
                              "internalType": "uint256",
                              "name": "bitlen",
                              "type": "uint256"
                            }
                          ],
                          "internalType": "struct BigNumber",
                          "name": "value",
                          "type": "tuple"
                        }
                      ],
                      "internalType": "struct Zp",
                      "name": "b",
                      "type": "tuple"
                    }
                  ],
                  "internalType": "struct Zp_2",
                  "name": "a",
                  "type": "tuple"
                },
                {
                  "components": [
                    {
                      "components": [
                        {
                          "components": [
                            {
                              "internalType": "bytes",
                              "name": "val",
                              "type": "bytes"
                            },
                            {
                              "internalType": "bool",
                              "name": "neg",
                              "type": "bool"
                            },
                            {
                              "internalType": "uint256",
                              "name": "bitlen",
                              "type": "uint256"
                            }
                          ],
                          "internalType": "struct BigNumber",
                          "name": "value",
                          "type": "tuple"
                        }
                      ],
                      "internalType": "struct Zp",
                      "name": "a",
                      "type": "tuple"
                    },
                    {
                      "components": [
                        {
                          "components": [
                            {
                              "internalType": "bytes",
                              "name": "val",
                              "type": "bytes"
                            },
                            {
                              "internalType": "bool",
                              "name": "neg",
                              "type": "bool"
                            },
                            {
                              "internalType": "uint256",
                              "name": "bitlen",
                              "type": "uint256"
                            }
                          ],
                          "internalType": "struct BigNumber",
                          "name": "value",
                          "type": "tuple"
                        }
                      ],
                      "internalType": "struct Zp",
                      "name": "b",
                      "type": "tuple"
                    }
                  ],
                  "internalType": "struct Zp_2",
                  "name": "b",
                  "type": "tuple"
                },
                {
                  "components": [
                    {
                      "components": [
                        {
                          "components": [
                            {
                              "internalType": "bytes",
                              "name": "val",
                              "type": "bytes"
                            },
                            {
                              "internalType": "bool",
                              "name": "neg",
                              "type": "bool"
                            },
                            {
                              "internalType": "uint256",
                              "name": "bitlen",
                              "type": "uint256"
                            }
                          ],
                          "internalType": "struct BigNumber",
                          "name": "value",
                          "type": "tuple"
                        }
                      ],
                      "internalType": "struct Zp",
                      "name": "a",
                      "type": "tuple"
                    },
                    {
                      "components": [
                        {
                          "components": [
                            {
                              "internalType": "bytes",
                              "name": "val",
                              "type": "bytes"
                            },
                            {
                              "internalType": "bool",
                              "name": "neg",
                              "type": "bool"
                            },
                            {
                              "internalType": "uint256",
                              "name": "bitlen",
                              "type": "uint256"
                            }
                          ],
                          "internalType": "struct BigNumber",
                          "name": "value",
                          "type": "tuple"
                        }
                      ],
                      "internalType": "struct Zp",
                      "name": "b",
                      "type": "tuple"
                    }
                  ],
                  "internalType": "struct Zp_2",
                  "name": "c",
                  "type": "tuple"
                }
              ],
              "internalType": "struct Zp_6",
              "name": "b",
              "type": "tuple"
            }
          ],
          "internalType": "struct Zp_12",
          "name": "",
          "type": "tuple"
        }
      ],
      "stateMutability": "view",
      "type": "function"
    },
    {
      "inputs": [
        {
          "components": [
            {
              "internalType": "enum PointType",
              "name": "pointType",
              "type": "uint8"
            },
            {
              "components": [
                {
                  "components": [
                    {
                      "components": [
                        {
                          "internalType": "bytes",
                          "name": "val",
                          "type": "bytes"
                        },
                        {
                          "internalType": "bool",
                          "name": "neg",
                          "type": "bool"
                        },
                        {
                          "internalType": "uint256",
                          "name": "bitlen",
                          "type": "uint256"
                        }
                      ],
                      "internalType": "struct BigNumber",
                      "name": "value",
                      "type": "tuple"
                    }
                  ],
                  "internalType": "struct Zp",
                  "name": "a",
                  "type": "tuple"
                },
                {
                  "components": [
                    {
                      "components": [
                        {
                          "internalType": "bytes",
                          "name": "val",
                          "type": "bytes"
                        },
                        {
                          "internalType": "bool",
                          "name": "neg",
                          "type": "bool"
                        },
                        {
                          "internalType": "uint256",
                          "name": "bitlen",
                          "type": "uint256"
                        }
                      ],
                      "internalType": "struct BigNumber",
                      "name": "value",
                      "type": "tuple"
                    }
                  ],
                  "internalType": "struct Zp",
                  "name": "b",
                  "type": "tuple"
                }
              ],
              "internalType": "struct Zp_2",
              "name": "x",
              "type": "tuple"
            },
            {
              "components": [
                {
                  "components": [
                    {
                      "components": [
                        {
                          "internalType": "bytes",
                          "name": "val",
                          "type": "bytes"
                        },
                        {
                          "internalType": "bool",
                          "name": "neg",
                          "type": "bool"
                        },
                        {
                          "internalType": "uint256",
                          "name": "bitlen",
                          "type": "uint256"
                        }
                      ],
                      "internalType": "struct BigNumber",
                      "name": "value",
                      "type": "tuple"
                    }
                  ],
                  "internalType": "struct Zp",
                  "name": "a",
                  "type": "tuple"
                },
                {
                  "components": [
                    {
                      "components": [
                        {
                          "internalType": "bytes",
                          "name": "val",
                          "type": "bytes"
                        },
                        {
                          "internalType": "bool",
                          "name": "neg",
                          "type": "bool"
                        },
                        {
                          "internalType": "uint256",
                          "name": "bitlen",
                          "type": "uint256"
                        }
                      ],
                      "internalType": "struct BigNumber",
                      "name": "value",
                      "type": "tuple"
                    }
                  ],
                  "internalType": "struct Zp",
                  "name": "b",
                  "type": "tuple"
                }
              ],
              "internalType": "struct Zp_2",
              "name": "y",
              "type": "tuple"
            }
          ],
          "internalType": "struct Point_Zp_2",
          "name": "r",
          "type": "tuple"
        },
        {
          "components": [
            {
              "internalType": "enum PointType",
              "name": "pointType",
              "type": "uint8"
            },
            {
              "components": [
                {
                  "components": [
                    {
                      "internalType": "bytes",
                      "name": "val",
                      "type": "bytes"
                    },
                    {
                      "internalType": "bool",
                      "name": "neg",
                      "type": "bool"
                    },
                    {
                      "internalType": "uint256",
                      "name": "bitlen",
                      "type": "uint256"
                    }
                  ],
                  "internalType": "struct BigNumber",
                  "name": "value",
                  "type": "tuple"
                }
              ],
              "internalType": "struct Zp",
              "name": "x",
              "type": "tuple"
            },
            {
              "components": [
                {
                  "components": [
                    {
                      "internalType": "bytes",
                      "name": "val",
                      "type": "bytes"
                    },
                    {
                      "internalType": "bool",
                      "name": "neg",
                      "type": "bool"
                    },
                    {
                      "internalType": "uint256",
                      "name": "bitlen",
                      "type": "uint256"
                    }
                  ],
                  "internalType": "struct BigNumber",
                  "name": "value",
                  "type": "tuple"
                }
              ],
              "internalType": "struct Zp",
              "name": "y",
              "type": "tuple"
            }
          ],
          "internalType": "struct Point_Zp",
          "name": "p",
          "type": "tuple"
        }
      ],
      "name": "doubleEval",
      "outputs": [
        {
          "components": [
            {
              "components": [
                {
                  "components": [
                    {
                      "components": [
                        {
                          "components": [
                            {
                              "internalType": "bytes",
                              "name": "val",
                              "type": "bytes"
                            },
                            {
                              "internalType": "bool",
                              "name": "neg",
                              "type": "bool"
                            },
                            {
                              "internalType": "uint256",
                              "name": "bitlen",
                              "type": "uint256"
                            }
                          ],
                          "internalType": "struct BigNumber",
                          "name": "value",
                          "type": "tuple"
                        }
                      ],
                      "internalType": "struct Zp",
                      "name": "a",
                      "type": "tuple"
                    },
                    {
                      "components": [
                        {
                          "components": [
                            {
                              "internalType": "bytes",
                              "name": "val",
                              "type": "bytes"
                            },
                            {
                              "internalType": "bool",
                              "name": "neg",
                              "type": "bool"
                            },
                            {
                              "internalType": "uint256",
                              "name": "bitlen",
                              "type": "uint256"
                            }
                          ],
                          "internalType": "struct BigNumber",
                          "name": "value",
                          "type": "tuple"
                        }
                      ],
                      "internalType": "struct Zp",
                      "name": "b",
                      "type": "tuple"
                    }
                  ],
                  "internalType": "struct Zp_2",
                  "name": "a",
                  "type": "tuple"
                },
                {
                  "components": [
                    {
                      "components": [
                        {
                          "components": [
                            {
                              "internalType": "bytes",
                              "name": "val",
                              "type": "bytes"
                            },
                            {
                              "internalType": "bool",
                              "name": "neg",
                              "type": "bool"
                            },
                            {
                              "internalType": "uint256",
                              "name": "bitlen",
                              "type": "uint256"
                            }
                          ],
                          "internalType": "struct BigNumber",
                          "name": "value",
                          "type": "tuple"
                        }
                      ],
                      "internalType": "struct Zp",
                      "name": "a",
                      "type": "tuple"
                    },
                    {
                      "components": [
                        {
                          "components": [
                            {
                              "internalType": "bytes",
                              "name": "val",
                              "type": "bytes"
                            },
                            {
                              "internalType": "bool",
                              "name": "neg",
                              "type": "bool"
                            },
                            {
                              "internalType": "uint256",
                              "name": "bitlen",
                              "type": "uint256"
                            }
                          ],
                          "internalType": "struct BigNumber",
                          "name": "value",
                          "type": "tuple"
                        }
                      ],
                      "internalType": "struct Zp",
                      "name": "b",
                      "type": "tuple"
                    }
                  ],
                  "internalType": "struct Zp_2",
                  "name": "b",
                  "type": "tuple"
                },
                {
                  "components": [
                    {
                      "components": [
                        {
                          "components": [
                            {
                              "internalType": "bytes",
                              "name": "val",
                              "type": "bytes"
                            },
                            {
                              "internalType": "bool",
                              "name": "neg",
                              "type": "bool"
                            },
                            {
                              "internalType": "uint256",
                              "name": "bitlen",
                              "type": "uint256"
                            }
                          ],
                          "internalType": "struct BigNumber",
                          "name": "value",
                          "type": "tuple"
                        }
                      ],
                      "internalType": "struct Zp",
                      "name": "a",
                      "type": "tuple"
                    },
                    {
                      "components": [
                        {
                          "components": [
                            {
                              "internalType": "bytes",
                              "name": "val",
                              "type": "bytes"
                            },
                            {
                              "internalType": "bool",
                              "name": "neg",
                              "type": "bool"
                            },
                            {
                              "internalType": "uint256",
                              "name": "bitlen",
                              "type": "uint256"
                            }
                          ],
                          "internalType": "struct BigNumber",
                          "name": "value",
                          "type": "tuple"
                        }
                      ],
                      "internalType": "struct Zp",
                      "name": "b",
                      "type": "tuple"
                    }
                  ],
                  "internalType": "struct Zp_2",
                  "name": "c",
                  "type": "tuple"
                }
              ],
              "internalType": "struct Zp_6",
              "name": "a",
              "type": "tuple"
            },
            {
              "components": [
                {
                  "components": [
                    {
                      "components": [
                        {
                          "components": [
                            {
                              "internalType": "bytes",
                              "name": "val",
                              "type": "bytes"
                            },
                            {
                              "internalType": "bool",
                              "name": "neg",
                              "type": "bool"
                            },
                            {
                              "internalType": "uint256",
                              "name": "bitlen",
                              "type": "uint256"
                            }
                          ],
                          "internalType": "struct BigNumber",
                          "name": "value",
                          "type": "tuple"
                        }
                      ],
                      "internalType": "struct Zp",
                      "name": "a",
                      "type": "tuple"
                    },
                    {
                      "components": [
                        {
                          "components": [
                            {
                              "internalType": "bytes",
                              "name": "val",
                              "type": "bytes"
                            },
                            {
                              "internalType": "bool",
                              "name": "neg",
                              "type": "bool"
                            },
                            {
                              "internalType": "uint256",
                              "name": "bitlen",
                              "type": "uint256"
                            }
                          ],
                          "internalType": "struct BigNumber",
                          "name": "value",
                          "type": "tuple"
                        }
                      ],
                      "internalType": "struct Zp",
                      "name": "b",
                      "type": "tuple"
                    }
                  ],
                  "internalType": "struct Zp_2",
                  "name": "a",
                  "type": "tuple"
                },
                {
                  "components": [
                    {
                      "components": [
                        {
                          "components": [
                            {
                              "internalType": "bytes",
                              "name": "val",
                              "type": "bytes"
                            },
                            {
                              "internalType": "bool",
                              "name": "neg",
                              "type": "bool"
                            },
                            {
                              "internalType": "uint256",
                              "name": "bitlen",
                              "type": "uint256"
                            }
                          ],
                          "internalType": "struct BigNumber",
                          "name": "value",
                          "type": "tuple"
                        }
                      ],
                      "internalType": "struct Zp",
                      "name": "a",
                      "type": "tuple"
                    },
                    {
                      "components": [
                        {
                          "components": [
                            {
                              "internalType": "bytes",
                              "name": "val",
                              "type": "bytes"
                            },
                            {
                              "internalType": "bool",
                              "name": "neg",
                              "type": "bool"
                            },
                            {
                              "internalType": "uint256",
                              "name": "bitlen",
                              "type": "uint256"
                            }
                          ],
                          "internalType": "struct BigNumber",
                          "name": "value",
                          "type": "tuple"
                        }
                      ],
                      "internalType": "struct Zp",
                      "name": "b",
                      "type": "tuple"
                    }
                  ],
                  "internalType": "struct Zp_2",
                  "name": "b",
                  "type": "tuple"
                },
                {
                  "components": [
                    {
                      "components": [
                        {
                          "components": [
                            {
                              "internalType": "bytes",
                              "name": "val",
                              "type": "bytes"
                            },
                            {
                              "internalType": "bool",
                              "name": "neg",
                              "type": "bool"
                            },
                            {
                              "internalType": "uint256",
                              "name": "bitlen",
                              "type": "uint256"
                            }
                          ],
                          "internalType": "struct BigNumber",
                          "name": "value",
                          "type": "tuple"
                        }
                      ],
                      "internalType": "struct Zp",
                      "name": "a",
                      "type": "tuple"
                    },
                    {
                      "components": [
                        {
                          "components": [
                            {
                              "internalType": "bytes",
                              "name": "val",
                              "type": "bytes"
                            },
                            {
                              "internalType": "bool",
                              "name": "neg",
                              "type": "bool"
                            },
                            {
                              "internalType": "uint256",
                              "name": "bitlen",
                              "type": "uint256"
                            }
                          ],
                          "internalType": "struct BigNumber",
                          "name": "value",
                          "type": "tuple"
                        }
                      ],
                      "internalType": "struct Zp",
                      "name": "b",
                      "type": "tuple"
                    }
                  ],
                  "internalType": "struct Zp_2",
                  "name": "c",
                  "type": "tuple"
                }
              ],
              "internalType": "struct Zp_6",
              "name": "b",
              "type": "tuple"
            }
          ],
          "internalType": "struct Zp_12",
          "name": "",
          "type": "tuple"
        }
      ],
      "stateMutability": "view",
      "type": "function"
    },
    {
      "inputs": [
        {
          "components": [
            {
              "components": [
                {
                  "components": [
                    {
                      "components": [
                        {
                          "components": [
                            {
                              "internalType": "bytes",
                              "name": "val",
                              "type": "bytes"
                            },
                            {
                              "internalType": "bool",
                              "name": "neg",
                              "type": "bool"
                            },
                            {
                              "internalType": "uint256",
                              "name": "bitlen",
                              "type": "uint256"
                            }
                          ],
                          "internalType": "struct BigNumber",
                          "name": "value",
                          "type": "tuple"
                        }
                      ],
                      "internalType": "struct Zp",
                      "name": "a",
                      "type": "tuple"
                    },
                    {
                      "components": [
                        {
                          "components": [
                            {
                              "internalType": "bytes",
                              "name": "val",
                              "type": "bytes"
                            },
                            {
                              "internalType": "bool",
                              "name": "neg",
                              "type": "bool"
                            },
                            {
                              "internalType": "uint256",
                              "name": "bitlen",
                              "type": "uint256"
                            }
                          ],
                          "internalType": "struct BigNumber",
                          "name": "value",
                          "type": "tuple"
                        }
                      ],
                      "internalType": "struct Zp",
                      "name": "b",
                      "type": "tuple"
                    }
                  ],
                  "internalType": "struct Zp_2",
                  "name": "a",
                  "type": "tuple"
                },
                {
                  "components": [
                    {
                      "components": [
                        {
                          "components": [
                            {
                              "internalType": "bytes",
                              "name": "val",
                              "type": "bytes"
                            },
                            {
                              "internalType": "bool",
                              "name": "neg",
                              "type": "bool"
                            },
                            {
                              "internalType": "uint256",
                              "name": "bitlen",
                              "type": "uint256"
                            }
                          ],
                          "internalType": "struct BigNumber",
                          "name": "value",
                          "type": "tuple"
                        }
                      ],
                      "internalType": "struct Zp",
                      "name": "a",
                      "type": "tuple"
                    },
                    {
                      "components": [
                        {
                          "components": [
                            {
                              "internalType": "bytes",
                              "name": "val",
                              "type": "bytes"
                            },
                            {
                              "internalType": "bool",
                              "name": "neg",
                              "type": "bool"
                            },
                            {
                              "internalType": "uint256",
                              "name": "bitlen",
                              "type": "uint256"
                            }
                          ],
                          "internalType": "struct BigNumber",
                          "name": "value",
                          "type": "tuple"
                        }
                      ],
                      "internalType": "struct Zp",
                      "name": "b",
                      "type": "tuple"
                    }
                  ],
                  "internalType": "struct Zp_2",
                  "name": "b",
                  "type": "tuple"
                },
                {
                  "components": [
                    {
                      "components": [
                        {
                          "components": [
                            {
                              "internalType": "bytes",
                              "name": "val",
                              "type": "bytes"
                            },
                            {
                              "internalType": "bool",
                              "name": "neg",
                              "type": "bool"
                            },
                            {
                              "internalType": "uint256",
                              "name": "bitlen",
                              "type": "uint256"
                            }
                          ],
                          "internalType": "struct BigNumber",
                          "name": "value",
                          "type": "tuple"
                        }
                      ],
                      "internalType": "struct Zp",
                      "name": "a",
                      "type": "tuple"
                    },
                    {
                      "components": [
                        {
                          "components": [
                            {
                              "internalType": "bytes",
                              "name": "val",
                              "type": "bytes"
                            },
                            {
                              "internalType": "bool",
                              "name": "neg",
                              "type": "bool"
                            },
                            {
                              "internalType": "uint256",
                              "name": "bitlen",
                              "type": "uint256"
                            }
                          ],
                          "internalType": "struct BigNumber",
                          "name": "value",
                          "type": "tuple"
                        }
                      ],
                      "internalType": "struct Zp",
                      "name": "b",
                      "type": "tuple"
                    }
                  ],
                  "internalType": "struct Zp_2",
                  "name": "c",
                  "type": "tuple"
                }
              ],
              "internalType": "struct Zp_6",
              "name": "a",
              "type": "tuple"
            },
            {
              "components": [
                {
                  "components": [
                    {
                      "components": [
                        {
                          "components": [
                            {
                              "internalType": "bytes",
                              "name": "val",
                              "type": "bytes"
                            },
                            {
                              "internalType": "bool",
                              "name": "neg",
                              "type": "bool"
                            },
                            {
                              "internalType": "uint256",
                              "name": "bitlen",
                              "type": "uint256"
                            }
                          ],
                          "internalType": "struct BigNumber",
                          "name": "value",
                          "type": "tuple"
                        }
                      ],
                      "internalType": "struct Zp",
                      "name": "a",
                      "type": "tuple"
                    },
                    {
                      "components": [
                        {
                          "components": [
                            {
                              "internalType": "bytes",
                              "name": "val",
                              "type": "bytes"
                            },
                            {
                              "internalType": "bool",
                              "name": "neg",
                              "type": "bool"
                            },
                            {
                              "internalType": "uint256",
                              "name": "bitlen",
                              "type": "uint256"
                            }
                          ],
                          "internalType": "struct BigNumber",
                          "name": "value",
                          "type": "tuple"
                        }
                      ],
                      "internalType": "struct Zp",
                      "name": "b",
                      "type": "tuple"
                    }
                  ],
                  "internalType": "struct Zp_2",
                  "name": "a",
                  "type": "tuple"
                },
                {
                  "components": [
                    {
                      "components": [
                        {
                          "components": [
                            {
                              "internalType": "bytes",
                              "name": "val",
                              "type": "bytes"
                            },
                            {
                              "internalType": "bool",
                              "name": "neg",
                              "type": "bool"
                            },
                            {
                              "internalType": "uint256",
                              "name": "bitlen",
                              "type": "uint256"
                            }
                          ],
                          "internalType": "struct BigNumber",
                          "name": "value",
                          "type": "tuple"
                        }
                      ],
                      "internalType": "struct Zp",
                      "name": "a",
                      "type": "tuple"
                    },
                    {
                      "components": [
                        {
                          "components": [
                            {
                              "internalType": "bytes",
                              "name": "val",
                              "type": "bytes"
                            },
                            {
                              "internalType": "bool",
                              "name": "neg",
                              "type": "bool"
                            },
                            {
                              "internalType": "uint256",
                              "name": "bitlen",
                              "type": "uint256"
                            }
                          ],
                          "internalType": "struct BigNumber",
                          "name": "value",
                          "type": "tuple"
                        }
                      ],
                      "internalType": "struct Zp",
                      "name": "b",
                      "type": "tuple"
                    }
                  ],
                  "internalType": "struct Zp_2",
                  "name": "b",
                  "type": "tuple"
                },
                {
                  "components": [
                    {
                      "components": [
                        {
                          "components": [
                            {
                              "internalType": "bytes",
                              "name": "val",
                              "type": "bytes"
                            },
                            {
                              "internalType": "bool",
                              "name": "neg",
                              "type": "bool"
                            },
                            {
                              "internalType": "uint256",
                              "name": "bitlen",
                              "type": "uint256"
                            }
                          ],
                          "internalType": "struct BigNumber",
                          "name": "value",
                          "type": "tuple"
                        }
                      ],
                      "internalType": "struct Zp",
                      "name": "a",
                      "type": "tuple"
                    },
                    {
                      "components": [
                        {
                          "components": [
                            {
                              "internalType": "bytes",
                              "name": "val",
                              "type": "bytes"
                            },
                            {
                              "internalType": "bool",
                              "name": "neg",
                              "type": "bool"
                            },
                            {
                              "internalType": "uint256",
                              "name": "bitlen",
                              "type": "uint256"
                            }
                          ],
                          "internalType": "struct BigNumber",
                          "name": "value",
                          "type": "tuple"
                        }
                      ],
                      "internalType": "struct Zp",
                      "name": "b",
                      "type": "tuple"
                    }
                  ],
                  "internalType": "struct Zp_2",
                  "name": "c",
                  "type": "tuple"
                }
              ],
              "internalType": "struct Zp_6",
              "name": "b",
              "type": "tuple"
            }
          ],
          "internalType": "struct Zp_12",
          "name": "value",
          "type": "tuple"
        },
        {
          "components": [
            {
              "internalType": "bytes",
              "name": "val",
              "type": "bytes"
            },
            {
              "internalType": "bool",
              "name": "neg",
              "type": "bool"
            },
            {
              "internalType": "uint256",
              "name": "bitlen",
              "type": "uint256"
            }
          ],
          "internalType": "struct BigNumber",
          "name": "e",
          "type": "tuple"
        },
        {
          "components": [
            {
              "components": [
                {
                  "components": [
                    {
                      "components": [
                        {
                          "components": [
                            {
                              "internalType": "bytes",
                              "name": "val",
                              "type": "bytes"
                            },
                            {
                              "internalType": "bool",
                              "name": "neg",
                              "type": "bool"
                            },
                            {
                              "internalType": "uint256",
                              "name": "bitlen",
                              "type": "uint256"
                            }
                          ],
                          "internalType": "struct BigNumber",
                          "name": "value",
                          "type": "tuple"
                        }
                      ],
                      "internalType": "struct Zp",
                      "name": "a",
                      "type": "tuple"
                    },
                    {
                      "components": [
                        {
                          "components": [
                            {
                              "internalType": "bytes",
                              "name": "val",
                              "type": "bytes"
                            },
                            {
                              "internalType": "bool",
                              "name": "neg",
                              "type": "bool"
                            },
                            {
                              "internalType": "uint256",
                              "name": "bitlen",
                              "type": "uint256"
                            }
                          ],
                          "internalType": "struct BigNumber",
                          "name": "value",
                          "type": "tuple"
                        }
                      ],
                      "internalType": "struct Zp",
                      "name": "b",
                      "type": "tuple"
                    }
                  ],
                  "internalType": "struct Zp_2",
                  "name": "a",
                  "type": "tuple"
                },
                {
                  "components": [
                    {
                      "components": [
                        {
                          "components": [
                            {
                              "internalType": "bytes",
                              "name": "val",
                              "type": "bytes"
                            },
                            {
                              "internalType": "bool",
                              "name": "neg",
                              "type": "bool"
                            },
                            {
                              "internalType": "uint256",
                              "name": "bitlen",
                              "type": "uint256"
                            }
                          ],
                          "internalType": "struct BigNumber",
                          "name": "value",
                          "type": "tuple"
                        }
                      ],
                      "internalType": "struct Zp",
                      "name": "a",
                      "type": "tuple"
                    },
                    {
                      "components": [
                        {
                          "components": [
                            {
                              "internalType": "bytes",
                              "name": "val",
                              "type": "bytes"
                            },
                            {
                              "internalType": "bool",
                              "name": "neg",
                              "type": "bool"
                            },
                            {
                              "internalType": "uint256",
                              "name": "bitlen",
                              "type": "uint256"
                            }
                          ],
                          "internalType": "struct BigNumber",
                          "name": "value",
                          "type": "tuple"
                        }
                      ],
                      "internalType": "struct Zp",
                      "name": "b",
                      "type": "tuple"
                    }
                  ],
                  "internalType": "struct Zp_2",
                  "name": "b",
                  "type": "tuple"
                },
                {
                  "components": [
                    {
                      "components": [
                        {
                          "components": [
                            {
                              "internalType": "bytes",
                              "name": "val",
                              "type": "bytes"
                            },
                            {
                              "internalType": "bool",
                              "name": "neg",
                              "type": "bool"
                            },
                            {
                              "internalType": "uint256",
                              "name": "bitlen",
                              "type": "uint256"
                            }
                          ],
                          "internalType": "struct BigNumber",
                          "name": "value",
                          "type": "tuple"
                        }
                      ],
                      "internalType": "struct Zp",
                      "name": "a",
                      "type": "tuple"
                    },
                    {
                      "components": [
                        {
                          "components": [
                            {
                              "internalType": "bytes",
                              "name": "val",
                              "type": "bytes"
                            },
                            {
                              "internalType": "bool",
                              "name": "neg",
                              "type": "bool"
                            },
                            {
                              "internalType": "uint256",
                              "name": "bitlen",
                              "type": "uint256"
                            }
                          ],
                          "internalType": "struct BigNumber",
                          "name": "value",
                          "type": "tuple"
                        }
                      ],
                      "internalType": "struct Zp",
                      "name": "b",
                      "type": "tuple"
                    }
                  ],
                  "internalType": "struct Zp_2",
                  "name": "c",
                  "type": "tuple"
                }
              ],
              "internalType": "struct Zp_6",
              "name": "a",
              "type": "tuple"
            },
            {
              "components": [
                {
                  "components": [
                    {
                      "components": [
                        {
                          "components": [
                            {
                              "internalType": "bytes",
                              "name": "val",
                              "type": "bytes"
                            },
                            {
                              "internalType": "bool",
                              "name": "neg",
                              "type": "bool"
                            },
                            {
                              "internalType": "uint256",
                              "name": "bitlen",
                              "type": "uint256"
                            }
                          ],
                          "internalType": "struct BigNumber",
                          "name": "value",
                          "type": "tuple"
                        }
                      ],
                      "internalType": "struct Zp",
                      "name": "a",
                      "type": "tuple"
                    },
                    {
                      "components": [
                        {
                          "components": [
                            {
                              "internalType": "bytes",
                              "name": "val",
                              "type": "bytes"
                            },
                            {
                              "internalType": "bool",
                              "name": "neg",
                              "type": "bool"
                            },
                            {
                              "internalType": "uint256",
                              "name": "bitlen",
                              "type": "uint256"
                            }
                          ],
                          "internalType": "struct BigNumber",
                          "name": "value",
                          "type": "tuple"
                        }
                      ],
                      "internalType": "struct Zp",
                      "name": "b",
                      "type": "tuple"
                    }
                  ],
                  "internalType": "struct Zp_2",
                  "name": "a",
                  "type": "tuple"
                },
                {
                  "components": [
                    {
                      "components": [
                        {
                          "components": [
                            {
                              "internalType": "bytes",
                              "name": "val",
                              "type": "bytes"
                            },
                            {
                              "internalType": "bool",
                              "name": "neg",
                              "type": "bool"
                            },
                            {
                              "internalType": "uint256",
                              "name": "bitlen",
                              "type": "uint256"
                            }
                          ],
                          "internalType": "struct BigNumber",
                          "name": "value",
                          "type": "tuple"
                        }
                      ],
                      "internalType": "struct Zp",
                      "name": "a",
                      "type": "tuple"
                    },
                    {
                      "components": [
                        {
                          "components": [
                            {
                              "internalType": "bytes",
                              "name": "val",
                              "type": "bytes"
                            },
                            {
                              "internalType": "bool",
                              "name": "neg",
                              "type": "bool"
                            },
                            {
                              "internalType": "uint256",
                              "name": "bitlen",
                              "type": "uint256"
                            }
                          ],
                          "internalType": "struct BigNumber",
                          "name": "value",
                          "type": "tuple"
                        }
                      ],
                      "internalType": "struct Zp",
                      "name": "b",
                      "type": "tuple"
                    }
                  ],
                  "internalType": "struct Zp_2",
                  "name": "b",
                  "type": "tuple"
                },
                {
                  "components": [
                    {
                      "components": [
                        {
                          "components": [
                            {
                              "internalType": "bytes",
                              "name": "val",
                              "type": "bytes"
                            },
                            {
                              "internalType": "bool",
                              "name": "neg",
                              "type": "bool"
                            },
                            {
                              "internalType": "uint256",
                              "name": "bitlen",
                              "type": "uint256"
                            }
                          ],
                          "internalType": "struct BigNumber",
                          "name": "value",
                          "type": "tuple"
                        }
                      ],
                      "internalType": "struct Zp",
                      "name": "a",
                      "type": "tuple"
                    },
                    {
                      "components": [
                        {
                          "components": [
                            {
                              "internalType": "bytes",
                              "name": "val",
                              "type": "bytes"
                            },
                            {
                              "internalType": "bool",
                              "name": "neg",
                              "type": "bool"
                            },
                            {
                              "internalType": "uint256",
                              "name": "bitlen",
                              "type": "uint256"
                            }
                          ],
                          "internalType": "struct BigNumber",
                          "name": "value",
                          "type": "tuple"
                        }
                      ],
                      "internalType": "struct Zp",
                      "name": "b",
                      "type": "tuple"
                    }
                  ],
                  "internalType": "struct Zp_2",
                  "name": "c",
                  "type": "tuple"
                }
              ],
              "internalType": "struct Zp_6",
              "name": "b",
              "type": "tuple"
            }
          ],
          "internalType": "struct Zp_12",
          "name": "result",
          "type": "tuple"
        }
      ],
      "name": "exp",
      "outputs": [
        {
          "components": [
            {
              "components": [
                {
                  "components": [
                    {
                      "components": [
                        {
                          "components": [
                            {
                              "internalType": "bytes",
                              "name": "val",
                              "type": "bytes"
                            },
                            {
                              "internalType": "bool",
                              "name": "neg",
                              "type": "bool"
                            },
                            {
                              "internalType": "uint256",
                              "name": "bitlen",
                              "type": "uint256"
                            }
                          ],
                          "internalType": "struct BigNumber",
                          "name": "value",
                          "type": "tuple"
                        }
                      ],
                      "internalType": "struct Zp",
                      "name": "a",
                      "type": "tuple"
                    },
                    {
                      "components": [
                        {
                          "components": [
                            {
                              "internalType": "bytes",
                              "name": "val",
                              "type": "bytes"
                            },
                            {
                              "internalType": "bool",
                              "name": "neg",
                              "type": "bool"
                            },
                            {
                              "internalType": "uint256",
                              "name": "bitlen",
                              "type": "uint256"
                            }
                          ],
                          "internalType": "struct BigNumber",
                          "name": "value",
                          "type": "tuple"
                        }
                      ],
                      "internalType": "struct Zp",
                      "name": "b",
                      "type": "tuple"
                    }
                  ],
                  "internalType": "struct Zp_2",
                  "name": "a",
                  "type": "tuple"
                },
                {
                  "components": [
                    {
                      "components": [
                        {
                          "components": [
                            {
                              "internalType": "bytes",
                              "name": "val",
                              "type": "bytes"
                            },
                            {
                              "internalType": "bool",
                              "name": "neg",
                              "type": "bool"
                            },
                            {
                              "internalType": "uint256",
                              "name": "bitlen",
                              "type": "uint256"
                            }
                          ],
                          "internalType": "struct BigNumber",
                          "name": "value",
                          "type": "tuple"
                        }
                      ],
                      "internalType": "struct Zp",
                      "name": "a",
                      "type": "tuple"
                    },
                    {
                      "components": [
                        {
                          "components": [
                            {
                              "internalType": "bytes",
                              "name": "val",
                              "type": "bytes"
                            },
                            {
                              "internalType": "bool",
                              "name": "neg",
                              "type": "bool"
                            },
                            {
                              "internalType": "uint256",
                              "name": "bitlen",
                              "type": "uint256"
                            }
                          ],
                          "internalType": "struct BigNumber",
                          "name": "value",
                          "type": "tuple"
                        }
                      ],
                      "internalType": "struct Zp",
                      "name": "b",
                      "type": "tuple"
                    }
                  ],
                  "internalType": "struct Zp_2",
                  "name": "b",
                  "type": "tuple"
                },
                {
                  "components": [
                    {
                      "components": [
                        {
                          "components": [
                            {
                              "internalType": "bytes",
                              "name": "val",
                              "type": "bytes"
                            },
                            {
                              "internalType": "bool",
                              "name": "neg",
                              "type": "bool"
                            },
                            {
                              "internalType": "uint256",
                              "name": "bitlen",
                              "type": "uint256"
                            }
                          ],
                          "internalType": "struct BigNumber",
                          "name": "value",
                          "type": "tuple"
                        }
                      ],
                      "internalType": "struct Zp",
                      "name": "a",
                      "type": "tuple"
                    },
                    {
                      "components": [
                        {
                          "components": [
                            {
                              "internalType": "bytes",
                              "name": "val",
                              "type": "bytes"
                            },
                            {
                              "internalType": "bool",
                              "name": "neg",
                              "type": "bool"
                            },
                            {
                              "internalType": "uint256",
                              "name": "bitlen",
                              "type": "uint256"
                            }
                          ],
                          "internalType": "struct BigNumber",
                          "name": "value",
                          "type": "tuple"
                        }
                      ],
                      "internalType": "struct Zp",
                      "name": "b",
                      "type": "tuple"
                    }
                  ],
                  "internalType": "struct Zp_2",
                  "name": "c",
                  "type": "tuple"
                }
              ],
              "internalType": "struct Zp_6",
              "name": "a",
              "type": "tuple"
            },
            {
              "components": [
                {
                  "components": [
                    {
                      "components": [
                        {
                          "components": [
                            {
                              "internalType": "bytes",
                              "name": "val",
                              "type": "bytes"
                            },
                            {
                              "internalType": "bool",
                              "name": "neg",
                              "type": "bool"
                            },
                            {
                              "internalType": "uint256",
                              "name": "bitlen",
                              "type": "uint256"
                            }
                          ],
                          "internalType": "struct BigNumber",
                          "name": "value",
                          "type": "tuple"
                        }
                      ],
                      "internalType": "struct Zp",
                      "name": "a",
                      "type": "tuple"
                    },
                    {
                      "components": [
                        {
                          "components": [
                            {
                              "internalType": "bytes",
                              "name": "val",
                              "type": "bytes"
                            },
                            {
                              "internalType": "bool",
                              "name": "neg",
                              "type": "bool"
                            },
                            {
                              "internalType": "uint256",
                              "name": "bitlen",
                              "type": "uint256"
                            }
                          ],
                          "internalType": "struct BigNumber",
                          "name": "value",
                          "type": "tuple"
                        }
                      ],
                      "internalType": "struct Zp",
                      "name": "b",
                      "type": "tuple"
                    }
                  ],
                  "internalType": "struct Zp_2",
                  "name": "a",
                  "type": "tuple"
                },
                {
                  "components": [
                    {
                      "components": [
                        {
                          "components": [
                            {
                              "internalType": "bytes",
                              "name": "val",
                              "type": "bytes"
                            },
                            {
                              "internalType": "bool",
                              "name": "neg",
                              "type": "bool"
                            },
                            {
                              "internalType": "uint256",
                              "name": "bitlen",
                              "type": "uint256"
                            }
                          ],
                          "internalType": "struct BigNumber",
                          "name": "value",
                          "type": "tuple"
                        }
                      ],
                      "internalType": "struct Zp",
                      "name": "a",
                      "type": "tuple"
                    },
                    {
                      "components": [
                        {
                          "components": [
                            {
                              "internalType": "bytes",
                              "name": "val",
                              "type": "bytes"
                            },
                            {
                              "internalType": "bool",
                              "name": "neg",
                              "type": "bool"
                            },
                            {
                              "internalType": "uint256",
                              "name": "bitlen",
                              "type": "uint256"
                            }
                          ],
                          "internalType": "struct BigNumber",
                          "name": "value",
                          "type": "tuple"
                        }
                      ],
                      "internalType": "struct Zp",
                      "name": "b",
                      "type": "tuple"
                    }
                  ],
                  "internalType": "struct Zp_2",
                  "name": "b",
                  "type": "tuple"
                },
                {
                  "components": [
                    {
                      "components": [
                        {
                          "components": [
                            {
                              "internalType": "bytes",
                              "name": "val",
                              "type": "bytes"
                            },
                            {
                              "internalType": "bool",
                              "name": "neg",
                              "type": "bool"
                            },
                            {
                              "internalType": "uint256",
                              "name": "bitlen",
                              "type": "uint256"
                            }
                          ],
                          "internalType": "struct BigNumber",
                          "name": "value",
                          "type": "tuple"
                        }
                      ],
                      "internalType": "struct Zp",
                      "name": "a",
                      "type": "tuple"
                    },
                    {
                      "components": [
                        {
                          "components": [
                            {
                              "internalType": "bytes",
                              "name": "val",
                              "type": "bytes"
                            },
                            {
                              "internalType": "bool",
                              "name": "neg",
                              "type": "bool"
                            },
                            {
                              "internalType": "uint256",
                              "name": "bitlen",
                              "type": "uint256"
                            }
                          ],
                          "internalType": "struct BigNumber",
                          "name": "value",
                          "type": "tuple"
                        }
                      ],
                      "internalType": "struct Zp",
                      "name": "b",
                      "type": "tuple"
                    }
                  ],
                  "internalType": "struct Zp_2",
                  "name": "c",
                  "type": "tuple"
                }
              ],
              "internalType": "struct Zp_6",
              "name": "b",
              "type": "tuple"
            }
          ],
          "internalType": "struct Zp_12",
          "name": "",
          "type": "tuple"
        }
      ],
      "stateMutability": "view",
      "type": "function"
    },
    {
      "inputs": [
        {
          "components": [
            {
              "internalType": "bytes",
              "name": "val",
              "type": "bytes"
            },
            {
              "internalType": "bool",
              "name": "neg",
              "type": "bool"
            },
            {
              "internalType": "uint256",
              "name": "bitlen",
              "type": "uint256"
            }
          ],
          "internalType": "struct BigNumber",
          "name": "value",
          "type": "tuple"
        }
      ],
      "name": "getBits",
      "outputs": [
        {
          "internalType": "bool[]",
          "name": "",
          "type": "bool[]"
        }
      ],
      "stateMutability": "view",
      "type": "function"
    },
    {
      "inputs": [],
      "name": "get_g0",
      "outputs": [
        {
          "components": [
            {
              "internalType": "enum PointType",
              "name": "pointType",
              "type": "uint8"
            },
            {
              "components": [
                {
                  "components": [
                    {
                      "internalType": "bytes",
                      "name": "val",
                      "type": "bytes"
                    },
                    {
                      "internalType": "bool",
                      "name": "neg",
                      "type": "bool"
                    },
                    {
                      "internalType": "uint256",
                      "name": "bitlen",
                      "type": "uint256"
                    }
                  ],
                  "internalType": "struct BigNumber",
                  "name": "value",
                  "type": "tuple"
                }
              ],
              "internalType": "struct Zp",
              "name": "x",
              "type": "tuple"
            },
            {
              "components": [
                {
                  "components": [
                    {
                      "internalType": "bytes",
                      "name": "val",
                      "type": "bytes"
                    },
                    {
                      "internalType": "bool",
                      "name": "neg",
                      "type": "bool"
                    },
                    {
                      "internalType": "uint256",
                      "name": "bitlen",
                      "type": "uint256"
                    }
                  ],
                  "internalType": "struct BigNumber",
                  "name": "value",
                  "type": "tuple"
                }
              ],
              "internalType": "struct Zp",
              "name": "y",
              "type": "tuple"
            }
          ],
          "internalType": "struct Point_Zp",
          "name": "",
          "type": "tuple"
        }
      ],
      "stateMutability": "view",
      "type": "function"
    },
    {
      "inputs": [],
      "name": "get_p",
      "outputs": [
        {
          "components": [
            {
              "internalType": "bytes",
              "name": "val",
              "type": "bytes"
            },
            {
              "internalType": "bool",
              "name": "neg",
              "type": "bool"
            },
            {
              "internalType": "uint256",
              "name": "bitlen",
              "type": "uint256"
            }
          ],
          "internalType": "struct BigNumber",
          "name": "",
          "type": "tuple"
        }
      ],
      "stateMutability": "view",
      "type": "function"
    },
    {
      "inputs": [
        {
          "components": [
            {
              "internalType": "enum PointType",
              "name": "pointType",
              "type": "uint8"
            },
            {
              "components": [
                {
                  "components": [
                    {
                      "internalType": "bytes",
                      "name": "val",
                      "type": "bytes"
                    },
                    {
                      "internalType": "bool",
                      "name": "neg",
                      "type": "bool"
                    },
                    {
                      "internalType": "uint256",
                      "name": "bitlen",
                      "type": "uint256"
                    }
                  ],
                  "internalType": "struct BigNumber",
                  "name": "value",
                  "type": "tuple"
                }
              ],
              "internalType": "struct Zp",
              "name": "x",
              "type": "tuple"
            },
            {
              "components": [
                {
                  "components": [
                    {
                      "internalType": "bytes",
                      "name": "val",
                      "type": "bytes"
                    },
                    {
                      "internalType": "bool",
                      "name": "neg",
                      "type": "bool"
                    },
                    {
                      "internalType": "uint256",
                      "name": "bitlen",
                      "type": "uint256"
                    }
                  ],
                  "internalType": "struct BigNumber",
                  "name": "value",
                  "type": "tuple"
                }
              ],
              "internalType": "struct Zp",
              "name": "y",
              "type": "tuple"
            }
          ],
          "internalType": "struct Point_Zp",
          "name": "point",
          "type": "tuple"
        }
      ],
      "name": "isOnCurve",
      "outputs": [
        {
          "internalType": "bool",
          "name": "",
          "type": "bool"
        }
      ],
      "stateMutability": "view",
      "type": "function"
    },
    {
      "inputs": [
        {
          "components": [
            {
              "internalType": "enum PointType",
              "name": "pointType",
              "type": "uint8"
            },
            {
              "components": [
                {
                  "components": [
                    {
                      "components": [
                        {
                          "internalType": "bytes",
                          "name": "val",
                          "type": "bytes"
                        },
                        {
                          "internalType": "bool",
                          "name": "neg",
                          "type": "bool"
                        },
                        {
                          "internalType": "uint256",
                          "name": "bitlen",
                          "type": "uint256"
                        }
                      ],
                      "internalType": "struct BigNumber",
                      "name": "value",
                      "type": "tuple"
                    }
                  ],
                  "internalType": "struct Zp",
                  "name": "a",
                  "type": "tuple"
                },
                {
                  "components": [
                    {
                      "components": [
                        {
                          "internalType": "bytes",
                          "name": "val",
                          "type": "bytes"
                        },
                        {
                          "internalType": "bool",
                          "name": "neg",
                          "type": "bool"
                        },
                        {
                          "internalType": "uint256",
                          "name": "bitlen",
                          "type": "uint256"
                        }
                      ],
                      "internalType": "struct BigNumber",
                      "name": "value",
                      "type": "tuple"
                    }
                  ],
                  "internalType": "struct Zp",
                  "name": "b",
                  "type": "tuple"
                }
              ],
              "internalType": "struct Zp_2",
              "name": "x",
              "type": "tuple"
            },
            {
              "components": [
                {
                  "components": [
                    {
                      "components": [
                        {
                          "internalType": "bytes",
                          "name": "val",
                          "type": "bytes"
                        },
                        {
                          "internalType": "bool",
                          "name": "neg",
                          "type": "bool"
                        },
                        {
                          "internalType": "uint256",
                          "name": "bitlen",
                          "type": "uint256"
                        }
                      ],
                      "internalType": "struct BigNumber",
                      "name": "value",
                      "type": "tuple"
                    }
                  ],
                  "internalType": "struct Zp",
                  "name": "a",
                  "type": "tuple"
                },
                {
                  "components": [
                    {
                      "components": [
                        {
                          "internalType": "bytes",
                          "name": "val",
                          "type": "bytes"
                        },
                        {
                          "internalType": "bool",
                          "name": "neg",
                          "type": "bool"
                        },
                        {
                          "internalType": "uint256",
                          "name": "bitlen",
                          "type": "uint256"
                        }
                      ],
                      "internalType": "struct BigNumber",
                      "name": "value",
                      "type": "tuple"
                    }
                  ],
                  "internalType": "struct Zp",
                  "name": "b",
                  "type": "tuple"
                }
              ],
              "internalType": "struct Zp_2",
              "name": "y",
              "type": "tuple"
            }
          ],
          "internalType": "struct Point_Zp_2",
          "name": "point",
          "type": "tuple"
        }
      ],
      "name": "isOnCurveTwist",
      "outputs": [
        {
          "internalType": "bool",
          "name": "",
          "type": "bool"
        }
      ],
      "stateMutability": "view",
      "type": "function"
    },
    {
      "inputs": [
        {
          "components": [
            {
              "internalType": "enum PointType",
              "name": "pointType",
              "type": "uint8"
            },
            {
              "components": [
                {
                  "components": [
                    {
                      "components": [
                        {
                          "components": [
                            {
                              "components": [
                                {
                                  "internalType": "bytes",
                                  "name": "val",
                                  "type": "bytes"
                                },
                                {
                                  "internalType": "bool",
                                  "name": "neg",
                                  "type": "bool"
                                },
                                {
                                  "internalType": "uint256",
                                  "name": "bitlen",
                                  "type": "uint256"
                                }
                              ],
                              "internalType": "struct BigNumber",
                              "name": "value",
                              "type": "tuple"
                            }
                          ],
                          "internalType": "struct Zp",
                          "name": "a",
                          "type": "tuple"
                        },
                        {
                          "components": [
                            {
                              "components": [
                                {
                                  "internalType": "bytes",
                                  "name": "val",
                                  "type": "bytes"
                                },
                                {
                                  "internalType": "bool",
                                  "name": "neg",
                                  "type": "bool"
                                },
                                {
                                  "internalType": "uint256",
                                  "name": "bitlen",
                                  "type": "uint256"
                                }
                              ],
                              "internalType": "struct BigNumber",
                              "name": "value",
                              "type": "tuple"
                            }
                          ],
                          "internalType": "struct Zp",
                          "name": "b",
                          "type": "tuple"
                        }
                      ],
                      "internalType": "struct Zp_2",
                      "name": "a",
                      "type": "tuple"
                    },
                    {
                      "components": [
                        {
                          "components": [
                            {
                              "components": [
                                {
                                  "internalType": "bytes",
                                  "name": "val",
                                  "type": "bytes"
                                },
                                {
                                  "internalType": "bool",
                                  "name": "neg",
                                  "type": "bool"
                                },
                                {
                                  "internalType": "uint256",
                                  "name": "bitlen",
                                  "type": "uint256"
                                }
                              ],
                              "internalType": "struct BigNumber",
                              "name": "value",
                              "type": "tuple"
                            }
                          ],
                          "internalType": "struct Zp",
                          "name": "a",
                          "type": "tuple"
                        },
                        {
                          "components": [
                            {
                              "components": [
                                {
                                  "internalType": "bytes",
                                  "name": "val",
                                  "type": "bytes"
                                },
                                {
                                  "internalType": "bool",
                                  "name": "neg",
                                  "type": "bool"
                                },
                                {
                                  "internalType": "uint256",
                                  "name": "bitlen",
                                  "type": "uint256"
                                }
                              ],
                              "internalType": "struct BigNumber",
                              "name": "value",
                              "type": "tuple"
                            }
                          ],
                          "internalType": "struct Zp",
                          "name": "b",
                          "type": "tuple"
                        }
                      ],
                      "internalType": "struct Zp_2",
                      "name": "b",
                      "type": "tuple"
                    },
                    {
                      "components": [
                        {
                          "components": [
                            {
                              "components": [
                                {
                                  "internalType": "bytes",
                                  "name": "val",
                                  "type": "bytes"
                                },
                                {
                                  "internalType": "bool",
                                  "name": "neg",
                                  "type": "bool"
                                },
                                {
                                  "internalType": "uint256",
                                  "name": "bitlen",
                                  "type": "uint256"
                                }
                              ],
                              "internalType": "struct BigNumber",
                              "name": "value",
                              "type": "tuple"
                            }
                          ],
                          "internalType": "struct Zp",
                          "name": "a",
                          "type": "tuple"
                        },
                        {
                          "components": [
                            {
                              "components": [
                                {
                                  "internalType": "bytes",
                                  "name": "val",
                                  "type": "bytes"
                                },
                                {
                                  "internalType": "bool",
                                  "name": "neg",
                                  "type": "bool"
                                },
                                {
                                  "internalType": "uint256",
                                  "name": "bitlen",
                                  "type": "uint256"
                                }
                              ],
                              "internalType": "struct BigNumber",
                              "name": "value",
                              "type": "tuple"
                            }
                          ],
                          "internalType": "struct Zp",
                          "name": "b",
                          "type": "tuple"
                        }
                      ],
                      "internalType": "struct Zp_2",
                      "name": "c",
                      "type": "tuple"
                    }
                  ],
                  "internalType": "struct Zp_6",
                  "name": "a",
                  "type": "tuple"
                },
                {
                  "components": [
                    {
                      "components": [
                        {
                          "components": [
                            {
                              "components": [
                                {
                                  "internalType": "bytes",
                                  "name": "val",
                                  "type": "bytes"
                                },
                                {
                                  "internalType": "bool",
                                  "name": "neg",
                                  "type": "bool"
                                },
                                {
                                  "internalType": "uint256",
                                  "name": "bitlen",
                                  "type": "uint256"
                                }
                              ],
                              "internalType": "struct BigNumber",
                              "name": "value",
                              "type": "tuple"
                            }
                          ],
                          "internalType": "struct Zp",
                          "name": "a",
                          "type": "tuple"
                        },
                        {
                          "components": [
                            {
                              "components": [
                                {
                                  "internalType": "bytes",
                                  "name": "val",
                                  "type": "bytes"
                                },
                                {
                                  "internalType": "bool",
                                  "name": "neg",
                                  "type": "bool"
                                },
                                {
                                  "internalType": "uint256",
                                  "name": "bitlen",
                                  "type": "uint256"
                                }
                              ],
                              "internalType": "struct BigNumber",
                              "name": "value",
                              "type": "tuple"
                            }
                          ],
                          "internalType": "struct Zp",
                          "name": "b",
                          "type": "tuple"
                        }
                      ],
                      "internalType": "struct Zp_2",
                      "name": "a",
                      "type": "tuple"
                    },
                    {
                      "components": [
                        {
                          "components": [
                            {
                              "components": [
                                {
                                  "internalType": "bytes",
                                  "name": "val",
                                  "type": "bytes"
                                },
                                {
                                  "internalType": "bool",
                                  "name": "neg",
                                  "type": "bool"
                                },
                                {
                                  "internalType": "uint256",
                                  "name": "bitlen",
                                  "type": "uint256"
                                }
                              ],
                              "internalType": "struct BigNumber",
                              "name": "value",
                              "type": "tuple"
                            }
                          ],
                          "internalType": "struct Zp",
                          "name": "a",
                          "type": "tuple"
                        },
                        {
                          "components": [
                            {
                              "components": [
                                {
                                  "internalType": "bytes",
                                  "name": "val",
                                  "type": "bytes"
                                },
                                {
                                  "internalType": "bool",
                                  "name": "neg",
                                  "type": "bool"
                                },
                                {
                                  "internalType": "uint256",
                                  "name": "bitlen",
                                  "type": "uint256"
                                }
                              ],
                              "internalType": "struct BigNumber",
                              "name": "value",
                              "type": "tuple"
                            }
                          ],
                          "internalType": "struct Zp",
                          "name": "b",
                          "type": "tuple"
                        }
                      ],
                      "internalType": "struct Zp_2",
                      "name": "b",
                      "type": "tuple"
                    },
                    {
                      "components": [
                        {
                          "components": [
                            {
                              "components": [
                                {
                                  "internalType": "bytes",
                                  "name": "val",
                                  "type": "bytes"
                                },
                                {
                                  "internalType": "bool",
                                  "name": "neg",
                                  "type": "bool"
                                },
                                {
                                  "internalType": "uint256",
                                  "name": "bitlen",
                                  "type": "uint256"
                                }
                              ],
                              "internalType": "struct BigNumber",
                              "name": "value",
                              "type": "tuple"
                            }
                          ],
                          "internalType": "struct Zp",
                          "name": "a",
                          "type": "tuple"
                        },
                        {
                          "components": [
                            {
                              "components": [
                                {
                                  "internalType": "bytes",
                                  "name": "val",
                                  "type": "bytes"
                                },
                                {
                                  "internalType": "bool",
                                  "name": "neg",
                                  "type": "bool"
                                },
                                {
                                  "internalType": "uint256",
                                  "name": "bitlen",
                                  "type": "uint256"
                                }
                              ],
                              "internalType": "struct BigNumber",
                              "name": "value",
                              "type": "tuple"
                            }
                          ],
                          "internalType": "struct Zp",
                          "name": "b",
                          "type": "tuple"
                        }
                      ],
                      "internalType": "struct Zp_2",
                      "name": "c",
                      "type": "tuple"
                    }
                  ],
                  "internalType": "struct Zp_6",
                  "name": "b",
                  "type": "tuple"
                }
              ],
              "internalType": "struct Zp_12",
              "name": "x",
              "type": "tuple"
            },
            {
              "components": [
                {
                  "components": [
                    {
                      "components": [
                        {
                          "components": [
                            {
                              "components": [
                                {
                                  "internalType": "bytes",
                                  "name": "val",
                                  "type": "bytes"
                                },
                                {
                                  "internalType": "bool",
                                  "name": "neg",
                                  "type": "bool"
                                },
                                {
                                  "internalType": "uint256",
                                  "name": "bitlen",
                                  "type": "uint256"
                                }
                              ],
                              "internalType": "struct BigNumber",
                              "name": "value",
                              "type": "tuple"
                            }
                          ],
                          "internalType": "struct Zp",
                          "name": "a",
                          "type": "tuple"
                        },
                        {
                          "components": [
                            {
                              "components": [
                                {
                                  "internalType": "bytes",
                                  "name": "val",
                                  "type": "bytes"
                                },
                                {
                                  "internalType": "bool",
                                  "name": "neg",
                                  "type": "bool"
                                },
                                {
                                  "internalType": "uint256",
                                  "name": "bitlen",
                                  "type": "uint256"
                                }
                              ],
                              "internalType": "struct BigNumber",
                              "name": "value",
                              "type": "tuple"
                            }
                          ],
                          "internalType": "struct Zp",
                          "name": "b",
                          "type": "tuple"
                        }
                      ],
                      "internalType": "struct Zp_2",
                      "name": "a",
                      "type": "tuple"
                    },
                    {
                      "components": [
                        {
                          "components": [
                            {
                              "components": [
                                {
                                  "internalType": "bytes",
                                  "name": "val",
                                  "type": "bytes"
                                },
                                {
                                  "internalType": "bool",
                                  "name": "neg",
                                  "type": "bool"
                                },
                                {
                                  "internalType": "uint256",
                                  "name": "bitlen",
                                  "type": "uint256"
                                }
                              ],
                              "internalType": "struct BigNumber",
                              "name": "value",
                              "type": "tuple"
                            }
                          ],
                          "internalType": "struct Zp",
                          "name": "a",
                          "type": "tuple"
                        },
                        {
                          "components": [
                            {
                              "components": [
                                {
                                  "internalType": "bytes",
                                  "name": "val",
                                  "type": "bytes"
                                },
                                {
                                  "internalType": "bool",
                                  "name": "neg",
                                  "type": "bool"
                                },
                                {
                                  "internalType": "uint256",
                                  "name": "bitlen",
                                  "type": "uint256"
                                }
                              ],
                              "internalType": "struct BigNumber",
                              "name": "value",
                              "type": "tuple"
                            }
                          ],
                          "internalType": "struct Zp",
                          "name": "b",
                          "type": "tuple"
                        }
                      ],
                      "internalType": "struct Zp_2",
                      "name": "b",
                      "type": "tuple"
                    },
                    {
                      "components": [
                        {
                          "components": [
                            {
                              "components": [
                                {
                                  "internalType": "bytes",
                                  "name": "val",
                                  "type": "bytes"
                                },
                                {
                                  "internalType": "bool",
                                  "name": "neg",
                                  "type": "bool"
                                },
                                {
                                  "internalType": "uint256",
                                  "name": "bitlen",
                                  "type": "uint256"
                                }
                              ],
                              "internalType": "struct BigNumber",
                              "name": "value",
                              "type": "tuple"
                            }
                          ],
                          "internalType": "struct Zp",
                          "name": "a",
                          "type": "tuple"
                        },
                        {
                          "components": [
                            {
                              "components": [
                                {
                                  "internalType": "bytes",
                                  "name": "val",
                                  "type": "bytes"
                                },
                                {
                                  "internalType": "bool",
                                  "name": "neg",
                                  "type": "bool"
                                },
                                {
                                  "internalType": "uint256",
                                  "name": "bitlen",
                                  "type": "uint256"
                                }
                              ],
                              "internalType": "struct BigNumber",
                              "name": "value",
                              "type": "tuple"
                            }
                          ],
                          "internalType": "struct Zp",
                          "name": "b",
                          "type": "tuple"
                        }
                      ],
                      "internalType": "struct Zp_2",
                      "name": "c",
                      "type": "tuple"
                    }
                  ],
                  "internalType": "struct Zp_6",
                  "name": "a",
                  "type": "tuple"
                },
                {
                  "components": [
                    {
                      "components": [
                        {
                          "components": [
                            {
                              "components": [
                                {
                                  "internalType": "bytes",
                                  "name": "val",
                                  "type": "bytes"
                                },
                                {
                                  "internalType": "bool",
                                  "name": "neg",
                                  "type": "bool"
                                },
                                {
                                  "internalType": "uint256",
                                  "name": "bitlen",
                                  "type": "uint256"
                                }
                              ],
                              "internalType": "struct BigNumber",
                              "name": "value",
                              "type": "tuple"
                            }
                          ],
                          "internalType": "struct Zp",
                          "name": "a",
                          "type": "tuple"
                        },
                        {
                          "components": [
                            {
                              "components": [
                                {
                                  "internalType": "bytes",
                                  "name": "val",
                                  "type": "bytes"
                                },
                                {
                                  "internalType": "bool",
                                  "name": "neg",
                                  "type": "bool"
                                },
                                {
                                  "internalType": "uint256",
                                  "name": "bitlen",
                                  "type": "uint256"
                                }
                              ],
                              "internalType": "struct BigNumber",
                              "name": "value",
                              "type": "tuple"
                            }
                          ],
                          "internalType": "struct Zp",
                          "name": "b",
                          "type": "tuple"
                        }
                      ],
                      "internalType": "struct Zp_2",
                      "name": "a",
                      "type": "tuple"
                    },
                    {
                      "components": [
                        {
                          "components": [
                            {
                              "components": [
                                {
                                  "internalType": "bytes",
                                  "name": "val",
                                  "type": "bytes"
                                },
                                {
                                  "internalType": "bool",
                                  "name": "neg",
                                  "type": "bool"
                                },
                                {
                                  "internalType": "uint256",
                                  "name": "bitlen",
                                  "type": "uint256"
                                }
                              ],
                              "internalType": "struct BigNumber",
                              "name": "value",
                              "type": "tuple"
                            }
                          ],
                          "internalType": "struct Zp",
                          "name": "a",
                          "type": "tuple"
                        },
                        {
                          "components": [
                            {
                              "components": [
                                {
                                  "internalType": "bytes",
                                  "name": "val",
                                  "type": "bytes"
                                },
                                {
                                  "internalType": "bool",
                                  "name": "neg",
                                  "type": "bool"
                                },
                                {
                                  "internalType": "uint256",
                                  "name": "bitlen",
                                  "type": "uint256"
                                }
                              ],
                              "internalType": "struct BigNumber",
                              "name": "value",
                              "type": "tuple"
                            }
                          ],
                          "internalType": "struct Zp",
                          "name": "b",
                          "type": "tuple"
                        }
                      ],
                      "internalType": "struct Zp_2",
                      "name": "b",
                      "type": "tuple"
                    },
                    {
                      "components": [
                        {
                          "components": [
                            {
                              "components": [
                                {
                                  "internalType": "bytes",
                                  "name": "val",
                                  "type": "bytes"
                                },
                                {
                                  "internalType": "bool",
                                  "name": "neg",
                                  "type": "bool"
                                },
                                {
                                  "internalType": "uint256",
                                  "name": "bitlen",
                                  "type": "uint256"
                                }
                              ],
                              "internalType": "struct BigNumber",
                              "name": "value",
                              "type": "tuple"
                            }
                          ],
                          "internalType": "struct Zp",
                          "name": "a",
                          "type": "tuple"
                        },
                        {
                          "components": [
                            {
                              "components": [
                                {
                                  "internalType": "bytes",
                                  "name": "val",
                                  "type": "bytes"
                                },
                                {
                                  "internalType": "bool",
                                  "name": "neg",
                                  "type": "bool"
                                },
                                {
                                  "internalType": "uint256",
                                  "name": "bitlen",
                                  "type": "uint256"
                                }
                              ],
                              "internalType": "struct BigNumber",
                              "name": "value",
                              "type": "tuple"
                            }
                          ],
                          "internalType": "struct Zp",
                          "name": "b",
                          "type": "tuple"
                        }
                      ],
                      "internalType": "struct Zp_2",
                      "name": "c",
                      "type": "tuple"
                    }
                  ],
                  "internalType": "struct Zp_6",
                  "name": "b",
                  "type": "tuple"
                }
              ],
              "internalType": "struct Zp_12",
              "name": "y",
              "type": "tuple"
            }
          ],
          "internalType": "struct Point_Zp_12",
          "name": "point",
          "type": "tuple"
        }
      ],
      "name": "isOnCurve_12",
      "outputs": [
        {
          "internalType": "bool",
          "name": "",
          "type": "bool"
        }
      ],
      "stateMutability": "view",
      "type": "function"
    },
    {
      "inputs": [
        {
          "components": [
            {
              "internalType": "enum PointType",
              "name": "pointType",
              "type": "uint8"
            },
            {
              "components": [
                {
                  "components": [
                    {
                      "internalType": "bytes",
                      "name": "val",
                      "type": "bytes"
                    },
                    {
                      "internalType": "bool",
                      "name": "neg",
                      "type": "bool"
                    },
                    {
                      "internalType": "uint256",
                      "name": "bitlen",
                      "type": "uint256"
                    }
                  ],
                  "internalType": "struct BigNumber",
                  "name": "value",
                  "type": "tuple"
                }
              ],
              "internalType": "struct Zp",
              "name": "x",
              "type": "tuple"
            },
            {
              "components": [
                {
                  "components": [
                    {
                      "internalType": "bytes",
                      "name": "val",
                      "type": "bytes"
                    },
                    {
                      "internalType": "bool",
                      "name": "neg",
                      "type": "bool"
                    },
                    {
                      "internalType": "uint256",
                      "name": "bitlen",
                      "type": "uint256"
                    }
                  ],
                  "internalType": "struct BigNumber",
                  "name": "value",
                  "type": "tuple"
                }
              ],
              "internalType": "struct Zp",
              "name": "y",
              "type": "tuple"
            }
          ],
          "internalType": "struct Point_Zp",
          "name": "p",
          "type": "tuple"
        },
        {
          "components": [
            {
              "internalType": "enum PointType",
              "name": "pointType",
              "type": "uint8"
            },
            {
              "components": [
                {
                  "components": [
                    {
                      "components": [
                        {
                          "internalType": "bytes",
                          "name": "val",
                          "type": "bytes"
                        },
                        {
                          "internalType": "bool",
                          "name": "neg",
                          "type": "bool"
                        },
                        {
                          "internalType": "uint256",
                          "name": "bitlen",
                          "type": "uint256"
                        }
                      ],
                      "internalType": "struct BigNumber",
                      "name": "value",
                      "type": "tuple"
                    }
                  ],
                  "internalType": "struct Zp",
                  "name": "a",
                  "type": "tuple"
                },
                {
                  "components": [
                    {
                      "components": [
                        {
                          "internalType": "bytes",
                          "name": "val",
                          "type": "bytes"
                        },
                        {
                          "internalType": "bool",
                          "name": "neg",
                          "type": "bool"
                        },
                        {
                          "internalType": "uint256",
                          "name": "bitlen",
                          "type": "uint256"
                        }
                      ],
                      "internalType": "struct BigNumber",
                      "name": "value",
                      "type": "tuple"
                    }
                  ],
                  "internalType": "struct Zp",
                  "name": "b",
                  "type": "tuple"
                }
              ],
              "internalType": "struct Zp_2",
              "name": "x",
              "type": "tuple"
            },
            {
              "components": [
                {
                  "components": [
                    {
                      "components": [
                        {
                          "internalType": "bytes",
                          "name": "val",
                          "type": "bytes"
                        },
                        {
                          "internalType": "bool",
                          "name": "neg",
                          "type": "bool"
                        },
                        {
                          "internalType": "uint256",
                          "name": "bitlen",
                          "type": "uint256"
                        }
                      ],
                      "internalType": "struct BigNumber",
                      "name": "value",
                      "type": "tuple"
                    }
                  ],
                  "internalType": "struct Zp",
                  "name": "a",
                  "type": "tuple"
                },
                {
                  "components": [
                    {
                      "components": [
                        {
                          "internalType": "bytes",
                          "name": "val",
                          "type": "bytes"
                        },
                        {
                          "internalType": "bool",
                          "name": "neg",
                          "type": "bool"
                        },
                        {
                          "internalType": "uint256",
                          "name": "bitlen",
                          "type": "uint256"
                        }
                      ],
                      "internalType": "struct BigNumber",
                      "name": "value",
                      "type": "tuple"
                    }
                  ],
                  "internalType": "struct Zp",
                  "name": "b",
                  "type": "tuple"
                }
              ],
              "internalType": "struct Zp_2",
              "name": "y",
              "type": "tuple"
            }
          ],
          "internalType": "struct Point_Zp_2",
          "name": "q",
          "type": "tuple"
        }
      ],
      "name": "miller",
      "outputs": [
        {
          "components": [
            {
              "components": [
                {
                  "components": [
                    {
                      "components": [
                        {
                          "components": [
                            {
                              "internalType": "bytes",
                              "name": "val",
                              "type": "bytes"
                            },
                            {
                              "internalType": "bool",
                              "name": "neg",
                              "type": "bool"
                            },
                            {
                              "internalType": "uint256",
                              "name": "bitlen",
                              "type": "uint256"
                            }
                          ],
                          "internalType": "struct BigNumber",
                          "name": "value",
                          "type": "tuple"
                        }
                      ],
                      "internalType": "struct Zp",
                      "name": "a",
                      "type": "tuple"
                    },
                    {
                      "components": [
                        {
                          "components": [
                            {
                              "internalType": "bytes",
                              "name": "val",
                              "type": "bytes"
                            },
                            {
                              "internalType": "bool",
                              "name": "neg",
                              "type": "bool"
                            },
                            {
                              "internalType": "uint256",
                              "name": "bitlen",
                              "type": "uint256"
                            }
                          ],
                          "internalType": "struct BigNumber",
                          "name": "value",
                          "type": "tuple"
                        }
                      ],
                      "internalType": "struct Zp",
                      "name": "b",
                      "type": "tuple"
                    }
                  ],
                  "internalType": "struct Zp_2",
                  "name": "a",
                  "type": "tuple"
                },
                {
                  "components": [
                    {
                      "components": [
                        {
                          "components": [
                            {
                              "internalType": "bytes",
                              "name": "val",
                              "type": "bytes"
                            },
                            {
                              "internalType": "bool",
                              "name": "neg",
                              "type": "bool"
                            },
                            {
                              "internalType": "uint256",
                              "name": "bitlen",
                              "type": "uint256"
                            }
                          ],
                          "internalType": "struct BigNumber",
                          "name": "value",
                          "type": "tuple"
                        }
                      ],
                      "internalType": "struct Zp",
                      "name": "a",
                      "type": "tuple"
                    },
                    {
                      "components": [
                        {
                          "components": [
                            {
                              "internalType": "bytes",
                              "name": "val",
                              "type": "bytes"
                            },
                            {
                              "internalType": "bool",
                              "name": "neg",
                              "type": "bool"
                            },
                            {
                              "internalType": "uint256",
                              "name": "bitlen",
                              "type": "uint256"
                            }
                          ],
                          "internalType": "struct BigNumber",
                          "name": "value",
                          "type": "tuple"
                        }
                      ],
                      "internalType": "struct Zp",
                      "name": "b",
                      "type": "tuple"
                    }
                  ],
                  "internalType": "struct Zp_2",
                  "name": "b",
                  "type": "tuple"
                },
                {
                  "components": [
                    {
                      "components": [
                        {
                          "components": [
                            {
                              "internalType": "bytes",
                              "name": "val",
                              "type": "bytes"
                            },
                            {
                              "internalType": "bool",
                              "name": "neg",
                              "type": "bool"
                            },
                            {
                              "internalType": "uint256",
                              "name": "bitlen",
                              "type": "uint256"
                            }
                          ],
                          "internalType": "struct BigNumber",
                          "name": "value",
                          "type": "tuple"
                        }
                      ],
                      "internalType": "struct Zp",
                      "name": "a",
                      "type": "tuple"
                    },
                    {
                      "components": [
                        {
                          "components": [
                            {
                              "internalType": "bytes",
                              "name": "val",
                              "type": "bytes"
                            },
                            {
                              "internalType": "bool",
                              "name": "neg",
                              "type": "bool"
                            },
                            {
                              "internalType": "uint256",
                              "name": "bitlen",
                              "type": "uint256"
                            }
                          ],
                          "internalType": "struct BigNumber",
                          "name": "value",
                          "type": "tuple"
                        }
                      ],
                      "internalType": "struct Zp",
                      "name": "b",
                      "type": "tuple"
                    }
                  ],
                  "internalType": "struct Zp_2",
                  "name": "c",
                  "type": "tuple"
                }
              ],
              "internalType": "struct Zp_6",
              "name": "a",
              "type": "tuple"
            },
            {
              "components": [
                {
                  "components": [
                    {
                      "components": [
                        {
                          "components": [
                            {
                              "internalType": "bytes",
                              "name": "val",
                              "type": "bytes"
                            },
                            {
                              "internalType": "bool",
                              "name": "neg",
                              "type": "bool"
                            },
                            {
                              "internalType": "uint256",
                              "name": "bitlen",
                              "type": "uint256"
                            }
                          ],
                          "internalType": "struct BigNumber",
                          "name": "value",
                          "type": "tuple"
                        }
                      ],
                      "internalType": "struct Zp",
                      "name": "a",
                      "type": "tuple"
                    },
                    {
                      "components": [
                        {
                          "components": [
                            {
                              "internalType": "bytes",
                              "name": "val",
                              "type": "bytes"
                            },
                            {
                              "internalType": "bool",
                              "name": "neg",
                              "type": "bool"
                            },
                            {
                              "internalType": "uint256",
                              "name": "bitlen",
                              "type": "uint256"
                            }
                          ],
                          "internalType": "struct BigNumber",
                          "name": "value",
                          "type": "tuple"
                        }
                      ],
                      "internalType": "struct Zp",
                      "name": "b",
                      "type": "tuple"
                    }
                  ],
                  "internalType": "struct Zp_2",
                  "name": "a",
                  "type": "tuple"
                },
                {
                  "components": [
                    {
                      "components": [
                        {
                          "components": [
                            {
                              "internalType": "bytes",
                              "name": "val",
                              "type": "bytes"
                            },
                            {
                              "internalType": "bool",
                              "name": "neg",
                              "type": "bool"
                            },
                            {
                              "internalType": "uint256",
                              "name": "bitlen",
                              "type": "uint256"
                            }
                          ],
                          "internalType": "struct BigNumber",
                          "name": "value",
                          "type": "tuple"
                        }
                      ],
                      "internalType": "struct Zp",
                      "name": "a",
                      "type": "tuple"
                    },
                    {
                      "components": [
                        {
                          "components": [
                            {
                              "internalType": "bytes",
                              "name": "val",
                              "type": "bytes"
                            },
                            {
                              "internalType": "bool",
                              "name": "neg",
                              "type": "bool"
                            },
                            {
                              "internalType": "uint256",
                              "name": "bitlen",
                              "type": "uint256"
                            }
                          ],
                          "internalType": "struct BigNumber",
                          "name": "value",
                          "type": "tuple"
                        }
                      ],
                      "internalType": "struct Zp",
                      "name": "b",
                      "type": "tuple"
                    }
                  ],
                  "internalType": "struct Zp_2",
                  "name": "b",
                  "type": "tuple"
                },
                {
                  "components": [
                    {
                      "components": [
                        {
                          "components": [
                            {
                              "internalType": "bytes",
                              "name": "val",
                              "type": "bytes"
                            },
                            {
                              "internalType": "bool",
                              "name": "neg",
                              "type": "bool"
                            },
                            {
                              "internalType": "uint256",
                              "name": "bitlen",
                              "type": "uint256"
                            }
                          ],
                          "internalType": "struct BigNumber",
                          "name": "value",
                          "type": "tuple"
                        }
                      ],
                      "internalType": "struct Zp",
                      "name": "a",
                      "type": "tuple"
                    },
                    {
                      "components": [
                        {
                          "components": [
                            {
                              "internalType": "bytes",
                              "name": "val",
                              "type": "bytes"
                            },
                            {
                              "internalType": "bool",
                              "name": "neg",
                              "type": "bool"
                            },
                            {
                              "internalType": "uint256",
                              "name": "bitlen",
                              "type": "uint256"
                            }
                          ],
                          "internalType": "struct BigNumber",
                          "name": "value",
                          "type": "tuple"
                        }
                      ],
                      "internalType": "struct Zp",
                      "name": "b",
                      "type": "tuple"
                    }
                  ],
                  "internalType": "struct Zp_2",
                  "name": "c",
                  "type": "tuple"
                }
              ],
              "internalType": "struct Zp_6",
              "name": "b",
              "type": "tuple"
            }
          ],
          "internalType": "struct Zp_12",
          "name": "",
          "type": "tuple"
        }
      ],
      "stateMutability": "view",
      "type": "function"
    },
    {
      "inputs": [
        {
          "components": [
            {
              "internalType": "enum PointType",
              "name": "pointType",
              "type": "uint8"
            },
            {
              "components": [
                {
                  "components": [
                    {
                      "internalType": "bytes",
                      "name": "val",
                      "type": "bytes"
                    },
                    {
                      "internalType": "bool",
                      "name": "neg",
                      "type": "bool"
                    },
                    {
                      "internalType": "uint256",
                      "name": "bitlen",
                      "type": "uint256"
                    }
                  ],
                  "internalType": "struct BigNumber",
                  "name": "value",
                  "type": "tuple"
                }
              ],
              "internalType": "struct Zp",
              "name": "x",
              "type": "tuple"
            },
            {
              "components": [
                {
                  "components": [
                    {
                      "internalType": "bytes",
                      "name": "val",
                      "type": "bytes"
                    },
                    {
                      "internalType": "bool",
                      "name": "neg",
                      "type": "bool"
                    },
                    {
                      "internalType": "uint256",
                      "name": "bitlen",
                      "type": "uint256"
                    }
                  ],
                  "internalType": "struct BigNumber",
                  "name": "value",
                  "type": "tuple"
                }
              ],
              "internalType": "struct Zp",
              "name": "y",
              "type": "tuple"
            }
          ],
          "internalType": "struct Point_Zp",
          "name": "p",
          "type": "tuple"
        },
        {
          "components": [
            {
              "internalType": "enum PointType",
              "name": "pointType",
              "type": "uint8"
            },
            {
              "components": [
                {
                  "components": [
                    {
                      "components": [
                        {
                          "internalType": "bytes",
                          "name": "val",
                          "type": "bytes"
                        },
                        {
                          "internalType": "bool",
                          "name": "neg",
                          "type": "bool"
                        },
                        {
                          "internalType": "uint256",
                          "name": "bitlen",
                          "type": "uint256"
                        }
                      ],
                      "internalType": "struct BigNumber",
                      "name": "value",
                      "type": "tuple"
                    }
                  ],
                  "internalType": "struct Zp",
                  "name": "a",
                  "type": "tuple"
                },
                {
                  "components": [
                    {
                      "components": [
                        {
                          "internalType": "bytes",
                          "name": "val",
                          "type": "bytes"
                        },
                        {
                          "internalType": "bool",
                          "name": "neg",
                          "type": "bool"
                        },
                        {
                          "internalType": "uint256",
                          "name": "bitlen",
                          "type": "uint256"
                        }
                      ],
                      "internalType": "struct BigNumber",
                      "name": "value",
                      "type": "tuple"
                    }
                  ],
                  "internalType": "struct Zp",
                  "name": "b",
                  "type": "tuple"
                }
              ],
              "internalType": "struct Zp_2",
              "name": "x",
              "type": "tuple"
            },
            {
              "components": [
                {
                  "components": [
                    {
                      "components": [
                        {
                          "internalType": "bytes",
                          "name": "val",
                          "type": "bytes"
                        },
                        {
                          "internalType": "bool",
                          "name": "neg",
                          "type": "bool"
                        },
                        {
                          "internalType": "uint256",
                          "name": "bitlen",
                          "type": "uint256"
                        }
                      ],
                      "internalType": "struct BigNumber",
                      "name": "value",
                      "type": "tuple"
                    }
                  ],
                  "internalType": "struct Zp",
                  "name": "a",
                  "type": "tuple"
                },
                {
                  "components": [
                    {
                      "components": [
                        {
                          "internalType": "bytes",
                          "name": "val",
                          "type": "bytes"
                        },
                        {
                          "internalType": "bool",
                          "name": "neg",
                          "type": "bool"
                        },
                        {
                          "internalType": "uint256",
                          "name": "bitlen",
                          "type": "uint256"
                        }
                      ],
                      "internalType": "struct BigNumber",
                      "name": "value",
                      "type": "tuple"
                    }
                  ],
                  "internalType": "struct Zp",
                  "name": "b",
                  "type": "tuple"
                }
              ],
              "internalType": "struct Zp_2",
              "name": "y",
              "type": "tuple"
            }
          ],
          "internalType": "struct Point_Zp_2",
          "name": "q",
          "type": "tuple"
        },
        {
          "components": [
            {
              "internalType": "enum PointType",
              "name": "pointType",
              "type": "uint8"
            },
            {
              "components": [
                {
                  "components": [
                    {
                      "components": [
                        {
                          "internalType": "bytes",
                          "name": "val",
                          "type": "bytes"
                        },
                        {
                          "internalType": "bool",
                          "name": "neg",
                          "type": "bool"
                        },
                        {
                          "internalType": "uint256",
                          "name": "bitlen",
                          "type": "uint256"
                        }
                      ],
                      "internalType": "struct BigNumber",
                      "name": "value",
                      "type": "tuple"
                    }
                  ],
                  "internalType": "struct Zp",
                  "name": "a",
                  "type": "tuple"
                },
                {
                  "components": [
                    {
                      "components": [
                        {
                          "internalType": "bytes",
                          "name": "val",
                          "type": "bytes"
                        },
                        {
                          "internalType": "bool",
                          "name": "neg",
                          "type": "bool"
                        },
                        {
                          "internalType": "uint256",
                          "name": "bitlen",
                          "type": "uint256"
                        }
                      ],
                      "internalType": "struct BigNumber",
                      "name": "value",
                      "type": "tuple"
                    }
                  ],
                  "internalType": "struct Zp",
                  "name": "b",
                  "type": "tuple"
                }
              ],
              "internalType": "struct Zp_2",
              "name": "x",
              "type": "tuple"
            },
            {
              "components": [
                {
                  "components": [
                    {
                      "components": [
                        {
                          "internalType": "bytes",
                          "name": "val",
                          "type": "bytes"
                        },
                        {
                          "internalType": "bool",
                          "name": "neg",
                          "type": "bool"
                        },
                        {
                          "internalType": "uint256",
                          "name": "bitlen",
                          "type": "uint256"
                        }
                      ],
                      "internalType": "struct BigNumber",
                      "name": "value",
                      "type": "tuple"
                    }
                  ],
                  "internalType": "struct Zp",
                  "name": "a",
                  "type": "tuple"
                },
                {
                  "components": [
                    {
                      "components": [
                        {
                          "internalType": "bytes",
                          "name": "val",
                          "type": "bytes"
                        },
                        {
                          "internalType": "bool",
                          "name": "neg",
                          "type": "bool"
                        },
                        {
                          "internalType": "uint256",
                          "name": "bitlen",
                          "type": "uint256"
                        }
                      ],
                      "internalType": "struct BigNumber",
                      "name": "value",
                      "type": "tuple"
                    }
                  ],
                  "internalType": "struct Zp",
                  "name": "b",
                  "type": "tuple"
                }
              ],
              "internalType": "struct Zp_2",
              "name": "y",
              "type": "tuple"
            }
          ],
          "internalType": "struct Point_Zp_2",
          "name": "r",
          "type": "tuple"
        },
        {
          "internalType": "bool[]",
          "name": "bits",
          "type": "bool[]"
        }
      ],
      "name": "miller_iterate",
      "outputs": [
        {
          "components": [
            {
              "components": [
                {
                  "components": [
                    {
                      "components": [
                        {
                          "components": [
                            {
                              "internalType": "bytes",
                              "name": "val",
                              "type": "bytes"
                            },
                            {
                              "internalType": "bool",
                              "name": "neg",
                              "type": "bool"
                            },
                            {
                              "internalType": "uint256",
                              "name": "bitlen",
                              "type": "uint256"
                            }
                          ],
                          "internalType": "struct BigNumber",
                          "name": "value",
                          "type": "tuple"
                        }
                      ],
                      "internalType": "struct Zp",
                      "name": "a",
                      "type": "tuple"
                    },
                    {
                      "components": [
                        {
                          "components": [
                            {
                              "internalType": "bytes",
                              "name": "val",
                              "type": "bytes"
                            },
                            {
                              "internalType": "bool",
                              "name": "neg",
                              "type": "bool"
                            },
                            {
                              "internalType": "uint256",
                              "name": "bitlen",
                              "type": "uint256"
                            }
                          ],
                          "internalType": "struct BigNumber",
                          "name": "value",
                          "type": "tuple"
                        }
                      ],
                      "internalType": "struct Zp",
                      "name": "b",
                      "type": "tuple"
                    }
                  ],
                  "internalType": "struct Zp_2",
                  "name": "a",
                  "type": "tuple"
                },
                {
                  "components": [
                    {
                      "components": [
                        {
                          "components": [
                            {
                              "internalType": "bytes",
                              "name": "val",
                              "type": "bytes"
                            },
                            {
                              "internalType": "bool",
                              "name": "neg",
                              "type": "bool"
                            },
                            {
                              "internalType": "uint256",
                              "name": "bitlen",
                              "type": "uint256"
                            }
                          ],
                          "internalType": "struct BigNumber",
                          "name": "value",
                          "type": "tuple"
                        }
                      ],
                      "internalType": "struct Zp",
                      "name": "a",
                      "type": "tuple"
                    },
                    {
                      "components": [
                        {
                          "components": [
                            {
                              "internalType": "bytes",
                              "name": "val",
                              "type": "bytes"
                            },
                            {
                              "internalType": "bool",
                              "name": "neg",
                              "type": "bool"
                            },
                            {
                              "internalType": "uint256",
                              "name": "bitlen",
                              "type": "uint256"
                            }
                          ],
                          "internalType": "struct BigNumber",
                          "name": "value",
                          "type": "tuple"
                        }
                      ],
                      "internalType": "struct Zp",
                      "name": "b",
                      "type": "tuple"
                    }
                  ],
                  "internalType": "struct Zp_2",
                  "name": "b",
                  "type": "tuple"
                },
                {
                  "components": [
                    {
                      "components": [
                        {
                          "components": [
                            {
                              "internalType": "bytes",
                              "name": "val",
                              "type": "bytes"
                            },
                            {
                              "internalType": "bool",
                              "name": "neg",
                              "type": "bool"
                            },
                            {
                              "internalType": "uint256",
                              "name": "bitlen",
                              "type": "uint256"
                            }
                          ],
                          "internalType": "struct BigNumber",
                          "name": "value",
                          "type": "tuple"
                        }
                      ],
                      "internalType": "struct Zp",
                      "name": "a",
                      "type": "tuple"
                    },
                    {
                      "components": [
                        {
                          "components": [
                            {
                              "internalType": "bytes",
                              "name": "val",
                              "type": "bytes"
                            },
                            {
                              "internalType": "bool",
                              "name": "neg",
                              "type": "bool"
                            },
                            {
                              "internalType": "uint256",
                              "name": "bitlen",
                              "type": "uint256"
                            }
                          ],
                          "internalType": "struct BigNumber",
                          "name": "value",
                          "type": "tuple"
                        }
                      ],
                      "internalType": "struct Zp",
                      "name": "b",
                      "type": "tuple"
                    }
                  ],
                  "internalType": "struct Zp_2",
                  "name": "c",
                  "type": "tuple"
                }
              ],
              "internalType": "struct Zp_6",
              "name": "a",
              "type": "tuple"
            },
            {
              "components": [
                {
                  "components": [
                    {
                      "components": [
                        {
                          "components": [
                            {
                              "internalType": "bytes",
                              "name": "val",
                              "type": "bytes"
                            },
                            {
                              "internalType": "bool",
                              "name": "neg",
                              "type": "bool"
                            },
                            {
                              "internalType": "uint256",
                              "name": "bitlen",
                              "type": "uint256"
                            }
                          ],
                          "internalType": "struct BigNumber",
                          "name": "value",
                          "type": "tuple"
                        }
                      ],
                      "internalType": "struct Zp",
                      "name": "a",
                      "type": "tuple"
                    },
                    {
                      "components": [
                        {
                          "components": [
                            {
                              "internalType": "bytes",
                              "name": "val",
                              "type": "bytes"
                            },
                            {
                              "internalType": "bool",
                              "name": "neg",
                              "type": "bool"
                            },
                            {
                              "internalType": "uint256",
                              "name": "bitlen",
                              "type": "uint256"
                            }
                          ],
                          "internalType": "struct BigNumber",
                          "name": "value",
                          "type": "tuple"
                        }
                      ],
                      "internalType": "struct Zp",
                      "name": "b",
                      "type": "tuple"
                    }
                  ],
                  "internalType": "struct Zp_2",
                  "name": "a",
                  "type": "tuple"
                },
                {
                  "components": [
                    {
                      "components": [
                        {
                          "components": [
                            {
                              "internalType": "bytes",
                              "name": "val",
                              "type": "bytes"
                            },
                            {
                              "internalType": "bool",
                              "name": "neg",
                              "type": "bool"
                            },
                            {
                              "internalType": "uint256",
                              "name": "bitlen",
                              "type": "uint256"
                            }
                          ],
                          "internalType": "struct BigNumber",
                          "name": "value",
                          "type": "tuple"
                        }
                      ],
                      "internalType": "struct Zp",
                      "name": "a",
                      "type": "tuple"
                    },
                    {
                      "components": [
                        {
                          "components": [
                            {
                              "internalType": "bytes",
                              "name": "val",
                              "type": "bytes"
                            },
                            {
                              "internalType": "bool",
                              "name": "neg",
                              "type": "bool"
                            },
                            {
                              "internalType": "uint256",
                              "name": "bitlen",
                              "type": "uint256"
                            }
                          ],
                          "internalType": "struct BigNumber",
                          "name": "value",
                          "type": "tuple"
                        }
                      ],
                      "internalType": "struct Zp",
                      "name": "b",
                      "type": "tuple"
                    }
                  ],
                  "internalType": "struct Zp_2",
                  "name": "b",
                  "type": "tuple"
                },
                {
                  "components": [
                    {
                      "components": [
                        {
                          "components": [
                            {
                              "internalType": "bytes",
                              "name": "val",
                              "type": "bytes"
                            },
                            {
                              "internalType": "bool",
                              "name": "neg",
                              "type": "bool"
                            },
                            {
                              "internalType": "uint256",
                              "name": "bitlen",
                              "type": "uint256"
                            }
                          ],
                          "internalType": "struct BigNumber",
                          "name": "value",
                          "type": "tuple"
                        }
                      ],
                      "internalType": "struct Zp",
                      "name": "a",
                      "type": "tuple"
                    },
                    {
                      "components": [
                        {
                          "components": [
                            {
                              "internalType": "bytes",
                              "name": "val",
                              "type": "bytes"
                            },
                            {
                              "internalType": "bool",
                              "name": "neg",
                              "type": "bool"
                            },
                            {
                              "internalType": "uint256",
                              "name": "bitlen",
                              "type": "uint256"
                            }
                          ],
                          "internalType": "struct BigNumber",
                          "name": "value",
                          "type": "tuple"
                        }
                      ],
                      "internalType": "struct Zp",
                      "name": "b",
                      "type": "tuple"
                    }
                  ],
                  "internalType": "struct Zp_2",
                  "name": "c",
                  "type": "tuple"
                }
              ],
              "internalType": "struct Zp_6",
              "name": "b",
              "type": "tuple"
            }
          ],
          "internalType": "struct Zp_12",
          "name": "",
          "type": "tuple"
        }
      ],
      "stateMutability": "view",
      "type": "function"
    },
    {
      "inputs": [
        {
          "components": [
            {
              "internalType": "enum PointType",
              "name": "pointType",
              "type": "uint8"
            },
            {
              "components": [
                {
                  "components": [
                    {
                      "internalType": "bytes",
                      "name": "val",
                      "type": "bytes"
                    },
                    {
                      "internalType": "bool",
                      "name": "neg",
                      "type": "bool"
                    },
                    {
                      "internalType": "uint256",
                      "name": "bitlen",
                      "type": "uint256"
                    }
                  ],
                  "internalType": "struct BigNumber",
                  "name": "value",
                  "type": "tuple"
                }
              ],
              "internalType": "struct Zp",
              "name": "x",
              "type": "tuple"
            },
            {
              "components": [
                {
                  "components": [
                    {
                      "internalType": "bytes",
                      "name": "val",
                      "type": "bytes"
                    },
                    {
                      "internalType": "bool",
                      "name": "neg",
                      "type": "bool"
                    },
                    {
                      "internalType": "uint256",
                      "name": "bitlen",
                      "type": "uint256"
                    }
                  ],
                  "internalType": "struct BigNumber",
                  "name": "value",
                  "type": "tuple"
                }
              ],
              "internalType": "struct Zp",
              "name": "y",
              "type": "tuple"
            }
          ],
          "internalType": "struct Point_Zp",
          "name": "p",
          "type": "tuple"
        },
        {
          "components": [
            {
              "internalType": "enum PointType",
              "name": "pointType",
              "type": "uint8"
            },
            {
              "components": [
                {
                  "components": [
                    {
                      "components": [
                        {
                          "internalType": "bytes",
                          "name": "val",
                          "type": "bytes"
                        },
                        {
                          "internalType": "bool",
                          "name": "neg",
                          "type": "bool"
                        },
                        {
                          "internalType": "uint256",
                          "name": "bitlen",
                          "type": "uint256"
                        }
                      ],
                      "internalType": "struct BigNumber",
                      "name": "value",
                      "type": "tuple"
                    }
                  ],
                  "internalType": "struct Zp",
                  "name": "a",
                  "type": "tuple"
                },
                {
                  "components": [
                    {
                      "components": [
                        {
                          "internalType": "bytes",
                          "name": "val",
                          "type": "bytes"
                        },
                        {
                          "internalType": "bool",
                          "name": "neg",
                          "type": "bool"
                        },
                        {
                          "internalType": "uint256",
                          "name": "bitlen",
                          "type": "uint256"
                        }
                      ],
                      "internalType": "struct BigNumber",
                      "name": "value",
                      "type": "tuple"
                    }
                  ],
                  "internalType": "struct Zp",
                  "name": "b",
                  "type": "tuple"
                }
              ],
              "internalType": "struct Zp_2",
              "name": "x",
              "type": "tuple"
            },
            {
              "components": [
                {
                  "components": [
                    {
                      "components": [
                        {
                          "internalType": "bytes",
                          "name": "val",
                          "type": "bytes"
                        },
                        {
                          "internalType": "bool",
                          "name": "neg",
                          "type": "bool"
                        },
                        {
                          "internalType": "uint256",
                          "name": "bitlen",
                          "type": "uint256"
                        }
                      ],
                      "internalType": "struct BigNumber",
                      "name": "value",
                      "type": "tuple"
                    }
                  ],
                  "internalType": "struct Zp",
                  "name": "a",
                  "type": "tuple"
                },
                {
                  "components": [
                    {
                      "components": [
                        {
                          "internalType": "bytes",
                          "name": "val",
                          "type": "bytes"
                        },
                        {
                          "internalType": "bool",
                          "name": "neg",
                          "type": "bool"
                        },
                        {
                          "internalType": "uint256",
                          "name": "bitlen",
                          "type": "uint256"
                        }
                      ],
                      "internalType": "struct BigNumber",
                      "name": "value",
                      "type": "tuple"
                    }
                  ],
                  "internalType": "struct Zp",
                  "name": "b",
                  "type": "tuple"
                }
              ],
              "internalType": "struct Zp_2",
              "name": "y",
              "type": "tuple"
            }
          ],
          "internalType": "struct Point_Zp_2",
          "name": "q",
          "type": "tuple"
        }
      ],
      "name": "pairing",
      "outputs": [
        {
          "components": [
            {
              "components": [
                {
                  "components": [
                    {
                      "components": [
                        {
                          "components": [
                            {
                              "internalType": "bytes",
                              "name": "val",
                              "type": "bytes"
                            },
                            {
                              "internalType": "bool",
                              "name": "neg",
                              "type": "bool"
                            },
                            {
                              "internalType": "uint256",
                              "name": "bitlen",
                              "type": "uint256"
                            }
                          ],
                          "internalType": "struct BigNumber",
                          "name": "value",
                          "type": "tuple"
                        }
                      ],
                      "internalType": "struct Zp",
                      "name": "a",
                      "type": "tuple"
                    },
                    {
                      "components": [
                        {
                          "components": [
                            {
                              "internalType": "bytes",
                              "name": "val",
                              "type": "bytes"
                            },
                            {
                              "internalType": "bool",
                              "name": "neg",
                              "type": "bool"
                            },
                            {
                              "internalType": "uint256",
                              "name": "bitlen",
                              "type": "uint256"
                            }
                          ],
                          "internalType": "struct BigNumber",
                          "name": "value",
                          "type": "tuple"
                        }
                      ],
                      "internalType": "struct Zp",
                      "name": "b",
                      "type": "tuple"
                    }
                  ],
                  "internalType": "struct Zp_2",
                  "name": "a",
                  "type": "tuple"
                },
                {
                  "components": [
                    {
                      "components": [
                        {
                          "components": [
                            {
                              "internalType": "bytes",
                              "name": "val",
                              "type": "bytes"
                            },
                            {
                              "internalType": "bool",
                              "name": "neg",
                              "type": "bool"
                            },
                            {
                              "internalType": "uint256",
                              "name": "bitlen",
                              "type": "uint256"
                            }
                          ],
                          "internalType": "struct BigNumber",
                          "name": "value",
                          "type": "tuple"
                        }
                      ],
                      "internalType": "struct Zp",
                      "name": "a",
                      "type": "tuple"
                    },
                    {
                      "components": [
                        {
                          "components": [
                            {
                              "internalType": "bytes",
                              "name": "val",
                              "type": "bytes"
                            },
                            {
                              "internalType": "bool",
                              "name": "neg",
                              "type": "bool"
                            },
                            {
                              "internalType": "uint256",
                              "name": "bitlen",
                              "type": "uint256"
                            }
                          ],
                          "internalType": "struct BigNumber",
                          "name": "value",
                          "type": "tuple"
                        }
                      ],
                      "internalType": "struct Zp",
                      "name": "b",
                      "type": "tuple"
                    }
                  ],
                  "internalType": "struct Zp_2",
                  "name": "b",
                  "type": "tuple"
                },
                {
                  "components": [
                    {
                      "components": [
                        {
                          "components": [
                            {
                              "internalType": "bytes",
                              "name": "val",
                              "type": "bytes"
                            },
                            {
                              "internalType": "bool",
                              "name": "neg",
                              "type": "bool"
                            },
                            {
                              "internalType": "uint256",
                              "name": "bitlen",
                              "type": "uint256"
                            }
                          ],
                          "internalType": "struct BigNumber",
                          "name": "value",
                          "type": "tuple"
                        }
                      ],
                      "internalType": "struct Zp",
                      "name": "a",
                      "type": "tuple"
                    },
                    {
                      "components": [
                        {
                          "components": [
                            {
                              "internalType": "bytes",
                              "name": "val",
                              "type": "bytes"
                            },
                            {
                              "internalType": "bool",
                              "name": "neg",
                              "type": "bool"
                            },
                            {
                              "internalType": "uint256",
                              "name": "bitlen",
                              "type": "uint256"
                            }
                          ],
                          "internalType": "struct BigNumber",
                          "name": "value",
                          "type": "tuple"
                        }
                      ],
                      "internalType": "struct Zp",
                      "name": "b",
                      "type": "tuple"
                    }
                  ],
                  "internalType": "struct Zp_2",
                  "name": "c",
                  "type": "tuple"
                }
              ],
              "internalType": "struct Zp_6",
              "name": "a",
              "type": "tuple"
            },
            {
              "components": [
                {
                  "components": [
                    {
                      "components": [
                        {
                          "components": [
                            {
                              "internalType": "bytes",
                              "name": "val",
                              "type": "bytes"
                            },
                            {
                              "internalType": "bool",
                              "name": "neg",
                              "type": "bool"
                            },
                            {
                              "internalType": "uint256",
                              "name": "bitlen",
                              "type": "uint256"
                            }
                          ],
                          "internalType": "struct BigNumber",
                          "name": "value",
                          "type": "tuple"
                        }
                      ],
                      "internalType": "struct Zp",
                      "name": "a",
                      "type": "tuple"
                    },
                    {
                      "components": [
                        {
                          "components": [
                            {
                              "internalType": "bytes",
                              "name": "val",
                              "type": "bytes"
                            },
                            {
                              "internalType": "bool",
                              "name": "neg",
                              "type": "bool"
                            },
                            {
                              "internalType": "uint256",
                              "name": "bitlen",
                              "type": "uint256"
                            }
                          ],
                          "internalType": "struct BigNumber",
                          "name": "value",
                          "type": "tuple"
                        }
                      ],
                      "internalType": "struct Zp",
                      "name": "b",
                      "type": "tuple"
                    }
                  ],
                  "internalType": "struct Zp_2",
                  "name": "a",
                  "type": "tuple"
                },
                {
                  "components": [
                    {
                      "components": [
                        {
                          "components": [
                            {
                              "internalType": "bytes",
                              "name": "val",
                              "type": "bytes"
                            },
                            {
                              "internalType": "bool",
                              "name": "neg",
                              "type": "bool"
                            },
                            {
                              "internalType": "uint256",
                              "name": "bitlen",
                              "type": "uint256"
                            }
                          ],
                          "internalType": "struct BigNumber",
                          "name": "value",
                          "type": "tuple"
                        }
                      ],
                      "internalType": "struct Zp",
                      "name": "a",
                      "type": "tuple"
                    },
                    {
                      "components": [
                        {
                          "components": [
                            {
                              "internalType": "bytes",
                              "name": "val",
                              "type": "bytes"
                            },
                            {
                              "internalType": "bool",
                              "name": "neg",
                              "type": "bool"
                            },
                            {
                              "internalType": "uint256",
                              "name": "bitlen",
                              "type": "uint256"
                            }
                          ],
                          "internalType": "struct BigNumber",
                          "name": "value",
                          "type": "tuple"
                        }
                      ],
                      "internalType": "struct Zp",
                      "name": "b",
                      "type": "tuple"
                    }
                  ],
                  "internalType": "struct Zp_2",
                  "name": "b",
                  "type": "tuple"
                },
                {
                  "components": [
                    {
                      "components": [
                        {
                          "components": [
                            {
                              "internalType": "bytes",
                              "name": "val",
                              "type": "bytes"
                            },
                            {
                              "internalType": "bool",
                              "name": "neg",
                              "type": "bool"
                            },
                            {
                              "internalType": "uint256",
                              "name": "bitlen",
                              "type": "uint256"
                            }
                          ],
                          "internalType": "struct BigNumber",
                          "name": "value",
                          "type": "tuple"
                        }
                      ],
                      "internalType": "struct Zp",
                      "name": "a",
                      "type": "tuple"
                    },
                    {
                      "components": [
                        {
                          "components": [
                            {
                              "internalType": "bytes",
                              "name": "val",
                              "type": "bytes"
                            },
                            {
                              "internalType": "bool",
                              "name": "neg",
                              "type": "bool"
                            },
                            {
                              "internalType": "uint256",
                              "name": "bitlen",
                              "type": "uint256"
                            }
                          ],
                          "internalType": "struct BigNumber",
                          "name": "value",
                          "type": "tuple"
                        }
                      ],
                      "internalType": "struct Zp",
                      "name": "b",
                      "type": "tuple"
                    }
                  ],
                  "internalType": "struct Zp_2",
                  "name": "c",
                  "type": "tuple"
                }
              ],
              "internalType": "struct Zp_6",
              "name": "b",
              "type": "tuple"
            }
          ],
          "internalType": "struct Zp_12",
          "name": "result",
          "type": "tuple"
        }
      ],
      "stateMutability": "view",
      "type": "function"
    },
    {
      "inputs": [],
      "name": "test1",
      "outputs": [
        {
          "components": [
            {
              "components": [
                {
                  "internalType": "bytes",
                  "name": "val",
                  "type": "bytes"
                },
                {
                  "internalType": "bool",
                  "name": "neg",
                  "type": "bool"
                },
                {
                  "internalType": "uint256",
                  "name": "bitlen",
                  "type": "uint256"
                }
              ],
              "internalType": "struct BigNumber",
              "name": "value",
              "type": "tuple"
            }
          ],
          "internalType": "struct Zp",
          "name": "",
          "type": "tuple"
        }
      ],
      "stateMutability": "view",
      "type": "function"
    },
    {
      "inputs": [],
      "name": "test2",
      "outputs": [
        {
          "components": [
            {
              "components": [
                {
                  "internalType": "bytes",
                  "name": "val",
                  "type": "bytes"
                },
                {
                  "internalType": "bool",
                  "name": "neg",
                  "type": "bool"
                },
                {
                  "internalType": "uint256",
                  "name": "bitlen",
                  "type": "uint256"
                }
              ],
              "internalType": "struct BigNumber",
              "name": "value",
              "type": "tuple"
            }
          ],
          "internalType": "struct Zp",
          "name": "",
          "type": "tuple"
        }
      ],
      "stateMutability": "view",
      "type": "function"
    },
    {
      "inputs": [
        {
          "components": [
            {
              "internalType": "enum PointType",
              "name": "pointType",
              "type": "uint8"
            },
            {
              "components": [
                {
                  "components": [
                    {
                      "components": [
                        {
                          "internalType": "bytes",
                          "name": "val",
                          "type": "bytes"
                        },
                        {
                          "internalType": "bool",
                          "name": "neg",
                          "type": "bool"
                        },
                        {
                          "internalType": "uint256",
                          "name": "bitlen",
                          "type": "uint256"
                        }
                      ],
                      "internalType": "struct BigNumber",
                      "name": "value",
                      "type": "tuple"
                    }
                  ],
                  "internalType": "struct Zp",
                  "name": "a",
                  "type": "tuple"
                },
                {
                  "components": [
                    {
                      "components": [
                        {
                          "internalType": "bytes",
                          "name": "val",
                          "type": "bytes"
                        },
                        {
                          "internalType": "bool",
                          "name": "neg",
                          "type": "bool"
                        },
                        {
                          "internalType": "uint256",
                          "name": "bitlen",
                          "type": "uint256"
                        }
                      ],
                      "internalType": "struct BigNumber",
                      "name": "value",
                      "type": "tuple"
                    }
                  ],
                  "internalType": "struct Zp",
                  "name": "b",
                  "type": "tuple"
                }
              ],
              "internalType": "struct Zp_2",
              "name": "x",
              "type": "tuple"
            },
            {
              "components": [
                {
                  "components": [
                    {
                      "components": [
                        {
                          "internalType": "bytes",
                          "name": "val",
                          "type": "bytes"
                        },
                        {
                          "internalType": "bool",
                          "name": "neg",
                          "type": "bool"
                        },
                        {
                          "internalType": "uint256",
                          "name": "bitlen",
                          "type": "uint256"
                        }
                      ],
                      "internalType": "struct BigNumber",
                      "name": "value",
                      "type": "tuple"
                    }
                  ],
                  "internalType": "struct Zp",
                  "name": "a",
                  "type": "tuple"
                },
                {
                  "components": [
                    {
                      "components": [
                        {
                          "internalType": "bytes",
                          "name": "val",
                          "type": "bytes"
                        },
                        {
                          "internalType": "bool",
                          "name": "neg",
                          "type": "bool"
                        },
                        {
                          "internalType": "uint256",
                          "name": "bitlen",
                          "type": "uint256"
                        }
                      ],
                      "internalType": "struct BigNumber",
                      "name": "value",
                      "type": "tuple"
                    }
                  ],
                  "internalType": "struct Zp",
                  "name": "b",
                  "type": "tuple"
                }
              ],
              "internalType": "struct Zp_2",
              "name": "y",
              "type": "tuple"
            }
          ],
          "internalType": "struct Point_Zp_2",
          "name": "point",
          "type": "tuple"
        }
      ],
      "name": "untwist",
      "outputs": [
        {
          "components": [
            {
              "internalType": "enum PointType",
              "name": "pointType",
              "type": "uint8"
            },
            {
              "components": [
                {
                  "components": [
                    {
                      "components": [
                        {
                          "components": [
                            {
                              "components": [
                                {
                                  "internalType": "bytes",
                                  "name": "val",
                                  "type": "bytes"
                                },
                                {
                                  "internalType": "bool",
                                  "name": "neg",
                                  "type": "bool"
                                },
                                {
                                  "internalType": "uint256",
                                  "name": "bitlen",
                                  "type": "uint256"
                                }
                              ],
                              "internalType": "struct BigNumber",
                              "name": "value",
                              "type": "tuple"
                            }
                          ],
                          "internalType": "struct Zp",
                          "name": "a",
                          "type": "tuple"
                        },
                        {
                          "components": [
                            {
                              "components": [
                                {
                                  "internalType": "bytes",
                                  "name": "val",
                                  "type": "bytes"
                                },
                                {
                                  "internalType": "bool",
                                  "name": "neg",
                                  "type": "bool"
                                },
                                {
                                  "internalType": "uint256",
                                  "name": "bitlen",
                                  "type": "uint256"
                                }
                              ],
                              "internalType": "struct BigNumber",
                              "name": "value",
                              "type": "tuple"
                            }
                          ],
                          "internalType": "struct Zp",
                          "name": "b",
                          "type": "tuple"
                        }
                      ],
                      "internalType": "struct Zp_2",
                      "name": "a",
                      "type": "tuple"
                    },
                    {
                      "components": [
                        {
                          "components": [
                            {
                              "components": [
                                {
                                  "internalType": "bytes",
                                  "name": "val",
                                  "type": "bytes"
                                },
                                {
                                  "internalType": "bool",
                                  "name": "neg",
                                  "type": "bool"
                                },
                                {
                                  "internalType": "uint256",
                                  "name": "bitlen",
                                  "type": "uint256"
                                }
                              ],
                              "internalType": "struct BigNumber",
                              "name": "value",
                              "type": "tuple"
                            }
                          ],
                          "internalType": "struct Zp",
                          "name": "a",
                          "type": "tuple"
                        },
                        {
                          "components": [
                            {
                              "components": [
                                {
                                  "internalType": "bytes",
                                  "name": "val",
                                  "type": "bytes"
                                },
                                {
                                  "internalType": "bool",
                                  "name": "neg",
                                  "type": "bool"
                                },
                                {
                                  "internalType": "uint256",
                                  "name": "bitlen",
                                  "type": "uint256"
                                }
                              ],
                              "internalType": "struct BigNumber",
                              "name": "value",
                              "type": "tuple"
                            }
                          ],
                          "internalType": "struct Zp",
                          "name": "b",
                          "type": "tuple"
                        }
                      ],
                      "internalType": "struct Zp_2",
                      "name": "b",
                      "type": "tuple"
                    },
                    {
                      "components": [
                        {
                          "components": [
                            {
                              "components": [
                                {
                                  "internalType": "bytes",
                                  "name": "val",
                                  "type": "bytes"
                                },
                                {
                                  "internalType": "bool",
                                  "name": "neg",
                                  "type": "bool"
                                },
                                {
                                  "internalType": "uint256",
                                  "name": "bitlen",
                                  "type": "uint256"
                                }
                              ],
                              "internalType": "struct BigNumber",
                              "name": "value",
                              "type": "tuple"
                            }
                          ],
                          "internalType": "struct Zp",
                          "name": "a",
                          "type": "tuple"
                        },
                        {
                          "components": [
                            {
                              "components": [
                                {
                                  "internalType": "bytes",
                                  "name": "val",
                                  "type": "bytes"
                                },
                                {
                                  "internalType": "bool",
                                  "name": "neg",
                                  "type": "bool"
                                },
                                {
                                  "internalType": "uint256",
                                  "name": "bitlen",
                                  "type": "uint256"
                                }
                              ],
                              "internalType": "struct BigNumber",
                              "name": "value",
                              "type": "tuple"
                            }
                          ],
                          "internalType": "struct Zp",
                          "name": "b",
                          "type": "tuple"
                        }
                      ],
                      "internalType": "struct Zp_2",
                      "name": "c",
                      "type": "tuple"
                    }
                  ],
                  "internalType": "struct Zp_6",
                  "name": "a",
                  "type": "tuple"
                },
                {
                  "components": [
                    {
                      "components": [
                        {
                          "components": [
                            {
                              "components": [
                                {
                                  "internalType": "bytes",
                                  "name": "val",
                                  "type": "bytes"
                                },
                                {
                                  "internalType": "bool",
                                  "name": "neg",
                                  "type": "bool"
                                },
                                {
                                  "internalType": "uint256",
                                  "name": "bitlen",
                                  "type": "uint256"
                                }
                              ],
                              "internalType": "struct BigNumber",
                              "name": "value",
                              "type": "tuple"
                            }
                          ],
                          "internalType": "struct Zp",
                          "name": "a",
                          "type": "tuple"
                        },
                        {
                          "components": [
                            {
                              "components": [
                                {
                                  "internalType": "bytes",
                                  "name": "val",
                                  "type": "bytes"
                                },
                                {
                                  "internalType": "bool",
                                  "name": "neg",
                                  "type": "bool"
                                },
                                {
                                  "internalType": "uint256",
                                  "name": "bitlen",
                                  "type": "uint256"
                                }
                              ],
                              "internalType": "struct BigNumber",
                              "name": "value",
                              "type": "tuple"
                            }
                          ],
                          "internalType": "struct Zp",
                          "name": "b",
                          "type": "tuple"
                        }
                      ],
                      "internalType": "struct Zp_2",
                      "name": "a",
                      "type": "tuple"
                    },
                    {
                      "components": [
                        {
                          "components": [
                            {
                              "components": [
                                {
                                  "internalType": "bytes",
                                  "name": "val",
                                  "type": "bytes"
                                },
                                {
                                  "internalType": "bool",
                                  "name": "neg",
                                  "type": "bool"
                                },
                                {
                                  "internalType": "uint256",
                                  "name": "bitlen",
                                  "type": "uint256"
                                }
                              ],
                              "internalType": "struct BigNumber",
                              "name": "value",
                              "type": "tuple"
                            }
                          ],
                          "internalType": "struct Zp",
                          "name": "a",
                          "type": "tuple"
                        },
                        {
                          "components": [
                            {
                              "components": [
                                {
                                  "internalType": "bytes",
                                  "name": "val",
                                  "type": "bytes"
                                },
                                {
                                  "internalType": "bool",
                                  "name": "neg",
                                  "type": "bool"
                                },
                                {
                                  "internalType": "uint256",
                                  "name": "bitlen",
                                  "type": "uint256"
                                }
                              ],
                              "internalType": "struct BigNumber",
                              "name": "value",
                              "type": "tuple"
                            }
                          ],
                          "internalType": "struct Zp",
                          "name": "b",
                          "type": "tuple"
                        }
                      ],
                      "internalType": "struct Zp_2",
                      "name": "b",
                      "type": "tuple"
                    },
                    {
                      "components": [
                        {
                          "components": [
                            {
                              "components": [
                                {
                                  "internalType": "bytes",
                                  "name": "val",
                                  "type": "bytes"
                                },
                                {
                                  "internalType": "bool",
                                  "name": "neg",
                                  "type": "bool"
                                },
                                {
                                  "internalType": "uint256",
                                  "name": "bitlen",
                                  "type": "uint256"
                                }
                              ],
                              "internalType": "struct BigNumber",
                              "name": "value",
                              "type": "tuple"
                            }
                          ],
                          "internalType": "struct Zp",
                          "name": "a",
                          "type": "tuple"
                        },
                        {
                          "components": [
                            {
                              "components": [
                                {
                                  "internalType": "bytes",
                                  "name": "val",
                                  "type": "bytes"
                                },
                                {
                                  "internalType": "bool",
                                  "name": "neg",
                                  "type": "bool"
                                },
                                {
                                  "internalType": "uint256",
                                  "name": "bitlen",
                                  "type": "uint256"
                                }
                              ],
                              "internalType": "struct BigNumber",
                              "name": "value",
                              "type": "tuple"
                            }
                          ],
                          "internalType": "struct Zp",
                          "name": "b",
                          "type": "tuple"
                        }
                      ],
                      "internalType": "struct Zp_2",
                      "name": "c",
                      "type": "tuple"
                    }
                  ],
                  "internalType": "struct Zp_6",
                  "name": "b",
                  "type": "tuple"
                }
              ],
              "internalType": "struct Zp_12",
              "name": "x",
              "type": "tuple"
            },
            {
              "components": [
                {
                  "components": [
                    {
                      "components": [
                        {
                          "components": [
                            {
                              "components": [
                                {
                                  "internalType": "bytes",
                                  "name": "val",
                                  "type": "bytes"
                                },
                                {
                                  "internalType": "bool",
                                  "name": "neg",
                                  "type": "bool"
                                },
                                {
                                  "internalType": "uint256",
                                  "name": "bitlen",
                                  "type": "uint256"
                                }
                              ],
                              "internalType": "struct BigNumber",
                              "name": "value",
                              "type": "tuple"
                            }
                          ],
                          "internalType": "struct Zp",
                          "name": "a",
                          "type": "tuple"
                        },
                        {
                          "components": [
                            {
                              "components": [
                                {
                                  "internalType": "bytes",
                                  "name": "val",
                                  "type": "bytes"
                                },
                                {
                                  "internalType": "bool",
                                  "name": "neg",
                                  "type": "bool"
                                },
                                {
                                  "internalType": "uint256",
                                  "name": "bitlen",
                                  "type": "uint256"
                                }
                              ],
                              "internalType": "struct BigNumber",
                              "name": "value",
                              "type": "tuple"
                            }
                          ],
                          "internalType": "struct Zp",
                          "name": "b",
                          "type": "tuple"
                        }
                      ],
                      "internalType": "struct Zp_2",
                      "name": "a",
                      "type": "tuple"
                    },
                    {
                      "components": [
                        {
                          "components": [
                            {
                              "components": [
                                {
                                  "internalType": "bytes",
                                  "name": "val",
                                  "type": "bytes"
                                },
                                {
                                  "internalType": "bool",
                                  "name": "neg",
                                  "type": "bool"
                                },
                                {
                                  "internalType": "uint256",
                                  "name": "bitlen",
                                  "type": "uint256"
                                }
                              ],
                              "internalType": "struct BigNumber",
                              "name": "value",
                              "type": "tuple"
                            }
                          ],
                          "internalType": "struct Zp",
                          "name": "a",
                          "type": "tuple"
                        },
                        {
                          "components": [
                            {
                              "components": [
                                {
                                  "internalType": "bytes",
                                  "name": "val",
                                  "type": "bytes"
                                },
                                {
                                  "internalType": "bool",
                                  "name": "neg",
                                  "type": "bool"
                                },
                                {
                                  "internalType": "uint256",
                                  "name": "bitlen",
                                  "type": "uint256"
                                }
                              ],
                              "internalType": "struct BigNumber",
                              "name": "value",
                              "type": "tuple"
                            }
                          ],
                          "internalType": "struct Zp",
                          "name": "b",
                          "type": "tuple"
                        }
                      ],
                      "internalType": "struct Zp_2",
                      "name": "b",
                      "type": "tuple"
                    },
                    {
                      "components": [
                        {
                          "components": [
                            {
                              "components": [
                                {
                                  "internalType": "bytes",
                                  "name": "val",
                                  "type": "bytes"
                                },
                                {
                                  "internalType": "bool",
                                  "name": "neg",
                                  "type": "bool"
                                },
                                {
                                  "internalType": "uint256",
                                  "name": "bitlen",
                                  "type": "uint256"
                                }
                              ],
                              "internalType": "struct BigNumber",
                              "name": "value",
                              "type": "tuple"
                            }
                          ],
                          "internalType": "struct Zp",
                          "name": "a",
                          "type": "tuple"
                        },
                        {
                          "components": [
                            {
                              "components": [
                                {
                                  "internalType": "bytes",
                                  "name": "val",
                                  "type": "bytes"
                                },
                                {
                                  "internalType": "bool",
                                  "name": "neg",
                                  "type": "bool"
                                },
                                {
                                  "internalType": "uint256",
                                  "name": "bitlen",
                                  "type": "uint256"
                                }
                              ],
                              "internalType": "struct BigNumber",
                              "name": "value",
                              "type": "tuple"
                            }
                          ],
                          "internalType": "struct Zp",
                          "name": "b",
                          "type": "tuple"
                        }
                      ],
                      "internalType": "struct Zp_2",
                      "name": "c",
                      "type": "tuple"
                    }
                  ],
                  "internalType": "struct Zp_6",
                  "name": "a",
                  "type": "tuple"
                },
                {
                  "components": [
                    {
                      "components": [
                        {
                          "components": [
                            {
                              "components": [
                                {
                                  "internalType": "bytes",
                                  "name": "val",
                                  "type": "bytes"
                                },
                                {
                                  "internalType": "bool",
                                  "name": "neg",
                                  "type": "bool"
                                },
                                {
                                  "internalType": "uint256",
                                  "name": "bitlen",
                                  "type": "uint256"
                                }
                              ],
                              "internalType": "struct BigNumber",
                              "name": "value",
                              "type": "tuple"
                            }
                          ],
                          "internalType": "struct Zp",
                          "name": "a",
                          "type": "tuple"
                        },
                        {
                          "components": [
                            {
                              "components": [
                                {
                                  "internalType": "bytes",
                                  "name": "val",
                                  "type": "bytes"
                                },
                                {
                                  "internalType": "bool",
                                  "name": "neg",
                                  "type": "bool"
                                },
                                {
                                  "internalType": "uint256",
                                  "name": "bitlen",
                                  "type": "uint256"
                                }
                              ],
                              "internalType": "struct BigNumber",
                              "name": "value",
                              "type": "tuple"
                            }
                          ],
                          "internalType": "struct Zp",
                          "name": "b",
                          "type": "tuple"
                        }
                      ],
                      "internalType": "struct Zp_2",
                      "name": "a",
                      "type": "tuple"
                    },
                    {
                      "components": [
                        {
                          "components": [
                            {
                              "components": [
                                {
                                  "internalType": "bytes",
                                  "name": "val",
                                  "type": "bytes"
                                },
                                {
                                  "internalType": "bool",
                                  "name": "neg",
                                  "type": "bool"
                                },
                                {
                                  "internalType": "uint256",
                                  "name": "bitlen",
                                  "type": "uint256"
                                }
                              ],
                              "internalType": "struct BigNumber",
                              "name": "value",
                              "type": "tuple"
                            }
                          ],
                          "internalType": "struct Zp",
                          "name": "a",
                          "type": "tuple"
                        },
                        {
                          "components": [
                            {
                              "components": [
                                {
                                  "internalType": "bytes",
                                  "name": "val",
                                  "type": "bytes"
                                },
                                {
                                  "internalType": "bool",
                                  "name": "neg",
                                  "type": "bool"
                                },
                                {
                                  "internalType": "uint256",
                                  "name": "bitlen",
                                  "type": "uint256"
                                }
                              ],
                              "internalType": "struct BigNumber",
                              "name": "value",
                              "type": "tuple"
                            }
                          ],
                          "internalType": "struct Zp",
                          "name": "b",
                          "type": "tuple"
                        }
                      ],
                      "internalType": "struct Zp_2",
                      "name": "b",
                      "type": "tuple"
                    },
                    {
                      "components": [
                        {
                          "components": [
                            {
                              "components": [
                                {
                                  "internalType": "bytes",
                                  "name": "val",
                                  "type": "bytes"
                                },
                                {
                                  "internalType": "bool",
                                  "name": "neg",
                                  "type": "bool"
                                },
                                {
                                  "internalType": "uint256",
                                  "name": "bitlen",
                                  "type": "uint256"
                                }
                              ],
                              "internalType": "struct BigNumber",
                              "name": "value",
                              "type": "tuple"
                            }
                          ],
                          "internalType": "struct Zp",
                          "name": "a",
                          "type": "tuple"
                        },
                        {
                          "components": [
                            {
                              "components": [
                                {
                                  "internalType": "bytes",
                                  "name": "val",
                                  "type": "bytes"
                                },
                                {
                                  "internalType": "bool",
                                  "name": "neg",
                                  "type": "bool"
                                },
                                {
                                  "internalType": "uint256",
                                  "name": "bitlen",
                                  "type": "uint256"
                                }
                              ],
                              "internalType": "struct BigNumber",
                              "name": "value",
                              "type": "tuple"
                            }
                          ],
                          "internalType": "struct Zp",
                          "name": "b",
                          "type": "tuple"
                        }
                      ],
                      "internalType": "struct Zp_2",
                      "name": "c",
                      "type": "tuple"
                    }
                  ],
                  "internalType": "struct Zp_6",
                  "name": "b",
                  "type": "tuple"
                }
              ],
              "internalType": "struct Zp_12",
              "name": "y",
              "type": "tuple"
            }
          ],
          "internalType": "struct Point_Zp_12",
          "name": "",
          "type": "tuple"
        }
      ],
      "stateMutability": "view",
      "type": "function"
    }
  ],
  "bytecode": "0x608060405273__$7db5d2dbc3ae63372df6c39d501ad0f72a$__63a48a622a60006040518263ffffffff1660e01b815260040161003c919061124f565b600060405180830381865af4158015610059573d6000803e3d6000fd5b505050506040513d6000823e3d601f19601f8201168201806040525081019061008291906114de565b600080820151816000019081610098919061173e565b5060208201518160010160006101000a81548160ff02191690831515021790555060408201518160020155505073__$7db5d2dbc3ae63372df6c39d501ad0f72a$__63a48a622a60006040518263ffffffff1660e01b81526004016100fd919061185c565b600060405180830381865af415801561011a573d6000803e3d6000fd5b505050506040513d6000823e3d601f19601f8201168201806040525081019061014391906114de565b6003600082015181600001908161015a919061173e565b5060208201518160010160006101000a81548160ff02191690831515021790555060408201518160020155505060006040516101959061114f565b61019f91906119fc565b604051809103906000f0801580156101bb573d6000803e3d6000fd5b50600660006101000a81548173ffffffffffffffffffffffffffffffffffffffff021916908373ffffffffffffffffffffffffffffffffffffffff160217905550600660009054906101000a900473ffffffffffffffffffffffffffffffffffffffff1660405161022b9061115d565b6102359190611a93565b604051809103906000f080158015610251573d6000803e3d6000fd5b50600760006101000a81548173ffffffffffffffffffffffffffffffffffffffff021916908373ffffffffffffffffffffffffffffffffffffffff160217905550600760009054906101000a900473ffffffffffffffffffffffffffffffffffffffff166040516102c19061116b565b6102cb9190611acf565b604051809103906000f0801580156102e7573d6000803e3d6000fd5b50600860006101000a81548173ffffffffffffffffffffffffffffffffffffffff021916908373ffffffffffffffffffffffffffffffffffffffff160217905550600860009054906101000a900473ffffffffffffffffffffffffffffffffffffffff1660405161035790611179565b6103619190611b0b565b604051809103906000f08015801561037d573d6000803e3d6000fd5b50600960006101000a81548173ffffffffffffffffffffffffffffffffffffffff021916908373ffffffffffffffffffffffffffffffffffffffff160217905550600660009054906101000a900473ffffffffffffffffffffffffffffffffffffffff166040516103ed90611187565b6103f79190611a93565b604051809103906000f080158015610413573d6000803e3d6000fd5b50600a60006101000a81548173ffffffffffffffffffffffffffffffffffffffff021916908373ffffffffffffffffffffffffffffffffffffffff160217905550600760009054906101000a900473ffffffffffffffffffffffffffffffffffffffff1660405161048390611195565b61048d9190611acf565b604051809103906000f0801580156104a9573d6000803e3d6000fd5b50600b60006101000a81548173ffffffffffffffffffffffffffffffffffffffff021916908373ffffffffffffffffffffffffffffffffffffffff160217905550600960009054906101000a900473ffffffffffffffffffffffffffffffffffffffff16604051610519906111a3565b6105239190611b47565b604051809103906000f08015801561053f573d6000803e3d6000fd5b50600c60006101000a81548173ffffffffffffffffffffffffffffffffffffffff021916908373ffffffffffffffffffffffffffffffffffffffff160217905550600a60009054906101000a900473ffffffffffffffffffffffffffffffffffffffff1673ffffffffffffffffffffffffffffffffffffffff16631953a9bf600660009054906101000a900473ffffffffffffffffffffffffffffffffffffffff1673ffffffffffffffffffffffffffffffffffffffff16631701474273__$7db5d2dbc3ae63372df6c39d501ad0f72a$__63a48a622a60006040518263ffffffff1660e01b81526004016106349190611bd4565b600060405180830381865af4158015610651573d6000803e3d6000fd5b505050506040513d6000823e3d601f19601f8201168201806040525081019061067a91906114de565b6040518263ffffffff1660e01b81526004016106969190611c8b565b600060405180830381865afa1580156106b3573d6000803e3d6000fd5b505050506040513d6000823e3d601f19601f820116820180604052508101906106dc9190611d05565b600660009054906101000a900473ffffffffffffffffffffffffffffffffffffffff1673ffffffffffffffffffffffffffffffffffffffff16631701474273__$7db5d2dbc3ae63372df6c39d501ad0f72a$__63a48a622a60006040518263ffffffff1660e01b81526004016107529190611dc0565b600060405180830381865af415801561076f573d6000803e3d6000fd5b505050506040513d6000823e3d601f19601f8201168201806040525081019061079891906114de565b6040518263ffffffff1660e01b81526004016107b49190611c8b565b600060405180830381865afa1580156107d1573d6000803e3d6000fd5b505050506040513d6000823e3d601f19601f820116820180604052508101906107fa9190611d05565b6040518363ffffffff1660e01b8152600401610817929190611e68565b600060405180830381865afa158015610834573d6000803e3d6000fd5b505050506040513d6000823e3d601f19601f8201168201806040525081019061085d9190611f60565b600d60008201518160000160006101000a81548160ff0219169083600181111561088a57610889611fa9565b5b021790555060208201518160010160008201518160000160008201518160000190816108b6919061173e565b5060208201518160010160006101000a81548160ff0219169083151502179055506040820151816002015550505050604082015181600401600082015181600001600082015181600001908161090c919061173e565b5060208201518160010160006101000a81548160ff02191690831515021790555060408201518160020155505050505050600b60009054906101000a900473ffffffffffffffffffffffffffffffffffffffff1673ffffffffffffffffffffffffffffffffffffffff1663bedacbae6000600760009054906101000a900473ffffffffffffffffffffffffffffffffffffffff1673ffffffffffffffffffffffffffffffffffffffff1663c700da6b600660009054906101000a900473ffffffffffffffffffffffffffffffffffffffff1673ffffffffffffffffffffffffffffffffffffffff16631701474273__$7db5d2dbc3ae63372df6c39d501ad0f72a$__63a48a622a60006040518263ffffffff1660e01b8152600401610a31919061204a565b600060405180830381865af4158015610a4e573d6000803e3d6000fd5b505050506040513d6000823e3d601f19601f82011682018060405250810190610a7791906114de565b6040518263ffffffff1660e01b8152600401610a939190611c8b565b600060405180830381865afa158015610ab0573d6000803e3d6000fd5b505050506040513d6000823e3d601f19601f82011682018060405250810190610ad99190611d05565b600660009054906101000a900473ffffffffffffffffffffffffffffffffffffffff1673ffffffffffffffffffffffffffffffffffffffff16631701474273__$7db5d2dbc3ae63372df6c39d501ad0f72a$__63a48a622a60006040518263ffffffff1660e01b8152600401610b4f91906120ea565b600060405180830381865af4158015610b6c573d6000803e3d6000fd5b505050506040513d6000823e3d601f19601f82011682018060405250810190610b9591906114de565b6040518263ffffffff1660e01b8152600401610bb19190611c8b565b600060405180830381865afa158015610bce573d6000803e3d6000fd5b505050506040513d6000823e3d601f19601f82011682018060405250810190610bf79190611d05565b6040518363ffffffff1660e01b8152600401610c14929190611e68565b600060405180830381865afa158015610c31573d6000803e3d6000fd5b505050506040513d6000823e3d601f19601f82011682018060405250810190610c5a91906121a0565b600760009054906101000a900473ffffffffffffffffffffffffffffffffffffffff1673ffffffffffffffffffffffffffffffffffffffff1663c700da6b600660009054906101000a900473ffffffffffffffffffffffffffffffffffffffff1673ffffffffffffffffffffffffffffffffffffffff16631701474273__$7db5d2dbc3ae63372df6c39d501ad0f72a$__63a48a622a60006040518263ffffffff1660e01b8152600401610d0e919061225b565b600060405180830381865af4158015610d2b573d6000803e3d6000fd5b505050506040513d6000823e3d601f19601f82011682018060405250810190610d5491906114de565b6040518263ffffffff1660e01b8152600401610d709190611c8b565b600060405180830381865afa158015610d8d573d6000803e3d6000fd5b505050506040513d6000823e3d601f19601f82011682018060405250810190610db69190611d05565b600660009054906101000a900473ffffffffffffffffffffffffffffffffffffffff1673ffffffffffffffffffffffffffffffffffffffff16631701474273__$7db5d2dbc3ae63372df6c39d501ad0f72a$__63a48a622a60006040518263ffffffff1660e01b8152600401610e2c91906122fb565b600060405180830381865af4158015610e49573d6000803e3d6000fd5b505050506040513d6000823e3d601f19601f82011682018060405250810190610e7291906114de565b6040518263ffffffff1660e01b8152600401610e8e9190611c8b565b600060405180830381865afa158015610eab573d6000803e3d6000fd5b505050506040513d6000823e3d601f19601f82011682018060405250810190610ed49190611d05565b6040518363ffffffff1660e01b8152600401610ef1929190611e68565b600060405180830381865afa158015610f0e573d6000803e3d6000fd5b505050506040513d6000823e3d601f19601f82011682018060405250810190610f3791906121a0565b6040518463ffffffff1660e01b8152600401610f55939291906123df565b600060405180830381865afa158015610f72573d6000803e3d6000fd5b505050506040513d6000823e3d601f19601f82011682018060405250810190610f9b91906124c0565b601460008201518160000160006101000a81548160ff02191690836001811115610fc857610fc7611fa9565b5b02179055506020820151816001016000820151816000016000820151816000016000820151816000019081610ffd919061173e565b5060208201518160010160006101000a81548160ff02191690831515021790555060408201518160020155505050506020820151816003016000820151816000016000820151816000019081611053919061173e565b5060208201518160010160006101000a81548160ff0219169083151502179055506040820151816002015550505050505060408201518160070160008201518160000160008201518160000160008201518160000190816110b4919061173e565b5060208201518160010160006101000a81548160ff0219169083151502179055506040820151816002015550505050602082015181600301600082015181600001600082015181600001908161110a919061173e565b5060208201518160010160006101000a81548160ff02191690831515021790555060408201518160020155505050505050505034801561114957600080fd5b50612509565b612edf80620097dc83390190565b6123a6806200c6bb83390190565b613b10806200ea6183390190565b6126e6806201257183390190565b612aca8062014c5783390190565b612e6d806201772183390190565b6131e8806201a58e83390190565b600082825260208201905092915050565b7f1a0111ea397fe69a4b1ba7b6434bacd764774b84f38512bf6730d2a0f6b0f62460008201527f1eabfffeb153ffffb9feffffffffaaab00000000000000000000000000000000602082015250565b600061121e6030836111b1565b9150611229826111c2565b604082019050919050565b60008115159050919050565b61124981611234565b82525050565b6000604082019050818103600083015261126881611211565b90506112776020830184611240565b92915050565b6000604051905090565b600080fd5b600080fd5b600080fd5b6000601f19601f8301169050919050565b7f4e487b7100000000000000000000000000000000000000000000000000000000600052604160045260246000fd5b6112df82611296565b810181811067ffffffffffffffff821117156112fe576112fd6112a7565b5b80604052505050565b600061131161127d565b905061131d82826112d6565b919050565b600080fd5b600080fd5b600080fd5b600067ffffffffffffffff82111561134c5761134b6112a7565b5b61135582611296565b9050602081019050919050565b60005b83811015611380578082015181840152602081019050611365565b60008484015250505050565b600061139f61139a84611331565b611307565b9050828152602081018484840111156113bb576113ba61132c565b5b6113c6848285611362565b509392505050565b600082601f8301126113e3576113e2611327565b5b81516113f384826020860161138c565b91505092915050565b61140581611234565b811461141057600080fd5b50565b600081519050611422816113fc565b92915050565b6000819050919050565b61143b81611428565b811461144657600080fd5b50565b60008151905061145881611432565b92915050565b60006060828403121561147457611473611291565b5b61147e6060611307565b9050600082015167ffffffffffffffff81111561149e5761149d611322565b5b6114aa848285016113ce565b60008301525060206114be84828501611413565b60208301525060406114d284828501611449565b60408301525092915050565b6000602082840312156114f4576114f3611287565b5b600082015167ffffffffffffffff8111156115125761151161128c565b5b61151e8482850161145e565b91505092915050565b600081519050919050565b7f4e487b7100000000000000000000000000000000000000000000000000000000600052602260045260246000fd5b6000600282049050600182168061157957607f821691505b60208210810361158c5761158b611532565b5b50919050565b60008190508160005260206000209050919050565b60006020601f8301049050919050565b600082821b905092915050565b6000600883026115f47fffffffffffffffffffffffffffffffffffffffffffffffffffffffffffffffff826115b7565b6115fe86836115b7565b95508019841693508086168417925050509392505050565b6000819050919050565b600061163b61163661163184611428565b611616565b611428565b9050919050565b6000819050919050565b61165583611620565b61166961166182611642565b8484546115c4565b825550505050565b600090565b61167e611671565b61168981848461164c565b505050565b5b818110156116ad576116a2600082611676565b60018101905061168f565b5050565b601f8211156116f2576116c381611592565b6116cc846115a7565b810160208510156116db578190505b6116ef6116e7856115a7565b83018261168e565b50505b505050565b600082821c905092915050565b6000611715600019846008026116f7565b1980831691505092915050565b600061172e8383611704565b9150826002028217905092915050565b61174782611527565b67ffffffffffffffff8111156117605761175f6112a7565b5b61176a8254611561565b6117758282856116b1565b600060209050601f8311600181146117a85760008415611796578287015190505b6117a08582611722565b865550611808565b601f1984166117b686611592565b60005b828110156117de578489015182556001820191506020850194506020810190506117b9565b868310156117fb57848901516117f7601f891682611704565b8355505b6001600288020188555050505b505050505050565b7f73eda753299d7d483339d80809a1d80553bda402fffe5bfeffffffff00000001600082015250565b60006118466020836111b1565b915061185182611810565b602082019050919050565b6000604082019050818103600083015261187581611839565b90506118846020830184611240565b92915050565b600082825260208201905092915050565b600081546118a881611561565b6118b2818661188a565b945060018216600081146118cd57600181146118e357611916565b60ff198316865281151560200286019350611916565b6118ec85611592565b60005b8381101561190e578154818901526001820191506020810190506118ef565b808801955050505b50505092915050565b60008160001c9050919050565b600060ff82169050919050565b600061194c6119478361191f565b61192c565b9050919050565b61195c81611234565b82525050565b6000819050919050565b600061197f61197a8361191f565b611962565b9050919050565b61198f81611428565b82525050565b600060608301600080840185830360008701526119b2838261189b565b925050600184015490506119c581611939565b6119d26020870182611953565b50600284015490506119e38161196c565b6119f06040870182611986565b50819250505092915050565b60006020820190508181036000830152611a168184611995565b905092915050565b600073ffffffffffffffffffffffffffffffffffffffff82169050919050565b6000611a59611a54611a4f84611a1e565b611616565b611a1e565b9050919050565b6000611a6b82611a3e565b9050919050565b6000611a7d82611a60565b9050919050565b611a8d81611a72565b82525050565b6000602082019050611aa86000830184611a84565b92915050565b6000611ab982611a60565b9050919050565b611ac981611aae565b82525050565b6000602082019050611ae46000830184611ac0565b92915050565b6000611af582611a60565b9050919050565b611b0581611aea565b82525050565b6000602082019050611b206000830184611afc565b92915050565b6000611b3182611a60565b9050919050565b611b4181611b26565b82525050565b6000602082019050611b5c6000830184611b38565b92915050565b7f17f1d3a73197d7942695638c4fa9ac0fc3688c4f9774b905a14e3a3f171bac5860008201527f6c55e83ff97a1aeffb3af00adb22c6bb00000000000000000000000000000000602082015250565b6000611bbe6030836111b1565b9150611bc982611b62565b604082019050919050565b60006040820190508181036000830152611bed81611bb1565b9050611bfc6020830184611240565b92915050565b6000611c0d82611527565b611c17818561188a565b9350611c27818560208601611362565b611c3081611296565b840191505092915050565b60006060830160008301518482036000860152611c588282611c02565b9150506020830151611c6d6020860182611953565b506040830151611c806040860182611986565b508091505092915050565b60006020820190508181036000830152611ca58184611c3b565b905092915050565b600060208284031215611cc357611cc2611291565b5b611ccd6020611307565b9050600082015167ffffffffffffffff811115611ced57611cec611322565b5b611cf98482850161145e565b60008301525092915050565b600060208284031215611d1b57611d1a611287565b5b600082015167ffffffffffffffff811115611d3957611d3861128c565b5b611d4584828501611cad565b91505092915050565b7f08b3f481e3aaa0f1a09e30ed741d8ae4fcf5e095d5d00af600db18cb2c04b3ed60008201527fd03cc744a2888ae40caa232946c5e7e100000000000000000000000000000000602082015250565b6000611daa6030836111b1565b9150611db582611d4e565b604082019050919050565b60006040820190508181036000830152611dd981611d9d565b9050611de86020830184611240565b92915050565b60006060830160008301518482036000860152611e0b8282611c02565b9150506020830151611e206020860182611953565b506040830151611e336040860182611986565b508091505092915050565b60006020830160008301518482036000860152611e5b8282611dee565b9150508091505092915050565b60006040820190508181036000830152611e828185611e3e565b90508181036020830152611e968184611e3e565b90509392505050565b60028110611eac57600080fd5b50565b600081519050611ebe81611e9f565b92915050565b600060608284031215611eda57611ed9611291565b5b611ee46060611307565b90506000611ef484828501611eaf565b600083015250602082015167ffffffffffffffff811115611f1857611f17611322565b5b611f2484828501611cad565b602083015250604082015167ffffffffffffffff811115611f4857611f47611322565b5b611f5484828501611cad565b60408301525092915050565b600060208284031215611f7657611f75611287565b5b600082015167ffffffffffffffff811115611f9457611f9361128c565b5b611fa084828501611ec4565b91505092915050565b7f4e487b7100000000000000000000000000000000000000000000000000000000600052602160045260246000fd5b7f13e02b6052719f607dacd3a088274f65596bd0d09920b61ab5da61bbdc7f504960008201527f334cf11213945d57e5ac7d055d042b7e00000000000000000000000000000000602082015250565b60006120346030836111b1565b915061203f82611fd8565b604082019050919050565b6000604082019050818103600083015261206381612027565b90506120726020830184611240565b92915050565b7f024aa2b2f08f0a91260805272dc51051c6e47ad4fa403b02b4510b647ae3d17760008201527f0bac0326a805bbefd48056c8c121bdb800000000000000000000000000000000602082015250565b60006120d46030836111b1565b91506120df82612078565b604082019050919050565b60006040820190508181036000830152612103816120c7565b90506121126020830184611240565b92915050565b60006040828403121561212e5761212d611291565b5b6121386040611307565b9050600082015167ffffffffffffffff81111561215857612157611322565b5b61216484828501611cad565b600083015250602082015167ffffffffffffffff81111561218857612187611322565b5b61219484828501611cad565b60208301525092915050565b6000602082840312156121b6576121b5611287565b5b600082015167ffffffffffffffff8111156121d4576121d361128c565b5b6121e084828501612118565b91505092915050565b7f0606c4a02ea734cc32acd2b02bc28b99cb3e287e85a763af267492ab572e99ab60008201527f3f370d275cec1da1aaa9075ff05f79be00000000000000000000000000000000602082015250565b60006122456030836111b1565b9150612250826121e9565b604082019050919050565b6000604082019050818103600083015261227481612238565b90506122836020830184611240565b92915050565b7f0ce5d527727d6e118cc9cdc6da2e351aadfd9baa8cbdd3a76d429a695160d12c60008201527f923ac9cc3baca289e193548608b8280100000000000000000000000000000000602082015250565b60006122e56030836111b1565b91506122f082612289565b604082019050919050565b60006040820190508181036000830152612314816122d8565b90506123236020830184611240565b92915050565b6002811061233a57612339611fa9565b5b50565b600081905061234b82612329565b919050565b600061235b8261233d565b9050919050565b61236b81612350565b82525050565b6000602083016000830151848203600086015261238e8282611dee565b9150508091505092915050565b600060408301600083015184820360008601526123b88282612371565b915050602083015184820360208601526123d28282612371565b9150508091505092915050565b60006060820190506123f46000830186612362565b8181036020830152612406818561239b565b9050818103604083015261241a818461239b565b9050949350505050565b60006060828403121561243a57612439611291565b5b6124446060611307565b9050600061245484828501611eaf565b600083015250602082015167ffffffffffffffff81111561247857612477611322565b5b61248484828501612118565b602083015250604082015167ffffffffffffffff8111156124a8576124a7611322565b5b6124b484828501612118565b60408301525092915050565b6000602082840312156124d6576124d5611287565b5b600082015167ffffffffffffffff8111156124f4576124f361128c565b5b61250084828501612424565b91505092915050565b6172c380620025196000396000f3fe608060405234801561001057600080fd5b50600436106101165760003560e01c80636b59084d116100a2578063b5e5eaaf11610071578063b5e5eaaf14610355578063c026734514610385578063f2388acb146103b5578063f4aff064146103d3578063fc3e55a21461040357610116565b80636b59084d146102a757806378c91deb146102c55780639dc5abb3146102f5578063a490fa671461032557610116565b80632651909a116100e95780632651909a146101c95780632dd380dc146101f957806336b5ae8f146102295780634c4deae31461025957806366e41cb71461028957610116565b806301f7cb4b1461011b57806314cb7ac31461014b5780631e4799e41461017b578063244167eb14610199575b600080fd5b6101356004803603810190610130919061526c565b610433565b60405161014291906152c4565b60405180910390f35b6101656004803603810190610160919061526c565b6108f0565b60405161017291906155aa565b60405180910390f35b610183611855565b6040516101909190615623565b60405180910390f35b6101b360048036038101906101ae91906156e1565b611a68565b6040516101c0919061579d565b60405180910390f35b6101e360048036038101906101de91906157bf565b611ce4565b6040516101f091906158b7565b60405180910390f35b610213600480360381019061020e9190615ab5565b612038565b60405161022091906152c4565b60405180910390f35b610243600480360381019061023e91906156e1565b612455565b604051610250919061579d565b60405180910390f35b610273600480360381019061026e9190615afe565b6124f6565b604051610280919061579d565b60405180910390f35b610291612ec6565b60405161029e9190615bcf565b60405180910390f35b6102af61315b565b6040516102bc9190615bcf565b60405180910390f35b6102df60048036038101906102da9190615bf1565b613213565b6040516102ec919061579d565b60405180910390f35b61030f600480360381019061030a9190615c69565b613b22565b60405161031c919061579d565b60405180910390f35b61033f600480360381019061033a9190615d10565b613e09565b60405161034c919061579d565b60405180910390f35b61036f600480360381019061036a9190615db7565b61420f565b60405161037c91906152c4565b60405180910390f35b61039f600480360381019061039a919061526c565b6142e5565b6040516103ac91906152c4565b60405180910390f35b6103bd6143bc565b6040516103ca9190615e50565b60405180910390f35b6103ed60048036038101906103e89190615db7565b61448d565b6040516103fa91906152c4565b60405180910390f35b61041d60048036038101906104189190615f3a565b614910565b60405161042a919061579d565b60405180910390f35b6000600180811115610448576104476152df565b5b8260000151600181111561045f5761045e6152df565b5b0361046d57600090506108eb565b6000600760009054906101000a900473ffffffffffffffffffffffffffffffffffffffff1673ffffffffffffffffffffffffffffffffffffffff166307a5ecaa846040015185604001516040518363ffffffff1660e01b81526004016104d4929190616055565b600060405180830381865afa1580156104f1573d6000803e3d6000fd5b505050506040513d6000823e3d601f19601f8201168201806040525081019061051a9190616286565b90506000600760009054906101000a900473ffffffffffffffffffffffffffffffffffffffff1673ffffffffffffffffffffffffffffffffffffffff1663fbb740a8600760009054906101000a900473ffffffffffffffffffffffffffffffffffffffff1673ffffffffffffffffffffffffffffffffffffffff166307a5ecaa600760009054906101000a900473ffffffffffffffffffffffffffffffffffffffff1673ffffffffffffffffffffffffffffffffffffffff166307a5ecaa89602001518a602001516040518363ffffffff1660e01b81526004016105ff929190616055565b600060405180830381865afa15801561061c573d6000803e3d6000fd5b505050506040513d6000823e3d601f19601f820116820180604052508101906106459190616286565b88602001516040518363ffffffff1660e01b8152600401610667929190616055565b600060405180830381865afa158015610684573d6000803e3d6000fd5b505050506040513d6000823e3d601f19601f820116820180604052508101906106ad9190616286565b600760009054906101000a900473ffffffffffffffffffffffffffffffffffffffff1673ffffffffffffffffffffffffffffffffffffffff16639d2e83f5600760009054906101000a900473ffffffffffffffffffffffffffffffffffffffff1673ffffffffffffffffffffffffffffffffffffffff1663a1fca2b66040518163ffffffff1660e01b8152600401600060405180830381865afa158015610758573d6000803e3d6000fd5b505050506040513d6000823e3d601f19601f820116820180604052508101906107819190616286565b6040518263ffffffff1660e01b815260040161079d91906162cf565b600060405180830381865afa1580156107ba573d6000803e3d6000fd5b505050506040513d6000823e3d601f19601f820116820180604052508101906107e39190616286565b6040518363ffffffff1660e01b8152600401610800929190616055565b600060405180830381865afa15801561081d573d6000803e3d6000fd5b505050506040513d6000823e3d601f19601f820116820180604052508101906108469190616286565b9050600760009054906101000a900473ffffffffffffffffffffffffffffffffffffffff1673ffffffffffffffffffffffffffffffffffffffff1663ab80cf7683836040518363ffffffff1660e01b81526004016108a5929190616055565b602060405180830381865afa1580156108c2573d6000803e3d6000fd5b505050506040513d601f19601f820116820180604052508101906108e691906162f1565b925050505b919050565b6108f8614d40565b6000600860009054906101000a900473ffffffffffffffffffffffffffffffffffffffff1673ffffffffffffffffffffffffffffffffffffffff16639faceb7e600760009054906101000a900473ffffffffffffffffffffffffffffffffffffffff1673ffffffffffffffffffffffffffffffffffffffff1663bc1b392d6040518163ffffffff1660e01b8152600401600060405180830381865afa1580156109a5573d6000803e3d6000fd5b505050506040513d6000823e3d601f19601f820116820180604052508101906109ce9190616286565b600760009054906101000a900473ffffffffffffffffffffffffffffffffffffffff1673ffffffffffffffffffffffffffffffffffffffff1663c700da6b600660009054906101000a900473ffffffffffffffffffffffffffffffffffffffff1673ffffffffffffffffffffffffffffffffffffffff1663901717d16040518163ffffffff1660e01b8152600401600060405180830381865afa158015610a79573d6000803e3d6000fd5b505050506040513d6000823e3d601f19601f82011682018060405250810190610aa2919061631e565b600660009054906101000a900473ffffffffffffffffffffffffffffffffffffffff1673ffffffffffffffffffffffffffffffffffffffff1663bc1b392d6040518163ffffffff1660e01b8152600401600060405180830381865afa158015610b0f573d6000803e3d6000fd5b505050506040513d6000823e3d601f19601f82011682018060405250810190610b38919061631e565b6040518363ffffffff1660e01b8152600401610b55929190616367565b600060405180830381865afa158015610b72573d6000803e3d6000fd5b505050506040513d6000823e3d601f19601f82011682018060405250810190610b9b9190616286565b600760009054906101000a900473ffffffffffffffffffffffffffffffffffffffff1673ffffffffffffffffffffffffffffffffffffffff1663bc1b392d6040518163ffffffff1660e01b8152600401600060405180830381865afa158015610c08573d6000803e3d6000fd5b505050506040513d6000823e3d601f19601f82011682018060405250810190610c319190616286565b6040518463ffffffff1660e01b8152600401610c4f9392919061639e565b600060405180830381865afa158015610c6c573d6000803e3d6000fd5b505050506040513d6000823e3d601f19601f82011682018060405250810190610c9591906164a2565b90506000600960009054906101000a900473ffffffffffffffffffffffffffffffffffffffff1673ffffffffffffffffffffffffffffffffffffffff1663f87386c3600860009054906101000a900473ffffffffffffffffffffffffffffffffffffffff1673ffffffffffffffffffffffffffffffffffffffff16639faceb7e8760200151600760009054906101000a900473ffffffffffffffffffffffffffffffffffffffff1673ffffffffffffffffffffffffffffffffffffffff1663bc1b392d6040518163ffffffff1660e01b8152600401600060405180830381865afa158015610d87573d6000803e3d6000fd5b505050506040513d6000823e3d601f19601f82011682018060405250810190610db09190616286565b600760009054906101000a900473ffffffffffffffffffffffffffffffffffffffff1673ffffffffffffffffffffffffffffffffffffffff1663bc1b392d6040518163ffffffff1660e01b8152600401600060405180830381865afa158015610e1d573d6000803e3d6000fd5b505050506040513d6000823e3d601f19601f82011682018060405250810190610e469190616286565b6040518463ffffffff1660e01b8152600401610e649392919061639e565b600060405180830381865afa158015610e81573d6000803e3d6000fd5b505050506040513d6000823e3d601f19601f82011682018060405250810190610eaa91906164a2565b600860009054906101000a900473ffffffffffffffffffffffffffffffffffffffff1673ffffffffffffffffffffffffffffffffffffffff1663bc1b392d6040518163ffffffff1660e01b8152600401600060405180830381865afa158015610f17573d6000803e3d6000fd5b505050506040513d6000823e3d601f19601f82011682018060405250810190610f4091906164a2565b6040518363ffffffff1660e01b8152600401610f5d929190616549565b600060405180830381865afa158015610f7a573d6000803e3d6000fd5b505050506040513d6000823e3d601f19601f82011682018060405250810190610fa39190616608565b90506000600960009054906101000a900473ffffffffffffffffffffffffffffffffffffffff1673ffffffffffffffffffffffffffffffffffffffff1663f87386c3600860009054906101000a900473ffffffffffffffffffffffffffffffffffffffff1673ffffffffffffffffffffffffffffffffffffffff16639faceb7e8860400151600760009054906101000a900473ffffffffffffffffffffffffffffffffffffffff1673ffffffffffffffffffffffffffffffffffffffff1663bc1b392d6040518163ffffffff1660e01b8152600401600060405180830381865afa158015611095573d6000803e3d6000fd5b505050506040513d6000823e3d601f19601f820116820180604052508101906110be9190616286565b600760009054906101000a900473ffffffffffffffffffffffffffffffffffffffff1673ffffffffffffffffffffffffffffffffffffffff1663bc1b392d6040518163ffffffff1660e01b8152600401600060405180830381865afa15801561112b573d6000803e3d6000fd5b505050506040513d6000823e3d601f19601f820116820180604052508101906111549190616286565b6040518463ffffffff1660e01b81526004016111729392919061639e565b600060405180830381865afa15801561118f573d6000803e3d6000fd5b505050506040513d6000823e3d601f19601f820116820180604052508101906111b891906164a2565b600860009054906101000a900473ffffffffffffffffffffffffffffffffffffffff1673ffffffffffffffffffffffffffffffffffffffff1663bc1b392d6040518163ffffffff1660e01b8152600401600060405180830381865afa158015611225573d6000803e3d6000fd5b505050506040513d6000823e3d601f19601f8201168201806040525081019061124e91906164a2565b6040518363ffffffff1660e01b815260040161126b929190616549565b600060405180830381865afa158015611288573d6000803e3d6000fd5b505050506040513d6000823e3d601f19601f820116820180604052508101906112b19190616608565b9050600c60009054906101000a900473ffffffffffffffffffffffffffffffffffffffff1673ffffffffffffffffffffffffffffffffffffffff16631d763e266000600960009054906101000a900473ffffffffffffffffffffffffffffffffffffffff1673ffffffffffffffffffffffffffffffffffffffff166377839c6986600960009054906101000a900473ffffffffffffffffffffffffffffffffffffffff1673ffffffffffffffffffffffffffffffffffffffff1663f6700795600960009054906101000a900473ffffffffffffffffffffffffffffffffffffffff1673ffffffffffffffffffffffffffffffffffffffff1663f87386c38c600860009054906101000a900473ffffffffffffffffffffffffffffffffffffffff1673ffffffffffffffffffffffffffffffffffffffff1663bc1b392d6040518163ffffffff1660e01b8152600401600060405180830381865afa15801561141c573d6000803e3d6000fd5b505050506040513d6000823e3d601f19601f8201168201806040525081019061144591906164a2565b6040518363ffffffff1660e01b8152600401611462929190616549565b600060405180830381865afa15801561147f573d6000803e3d6000fd5b505050506040513d6000823e3d601f19601f820116820180604052508101906114a89190616608565b6040518263ffffffff1660e01b81526004016114c4919061579d565b600060405180830381865afa1580156114e1573d6000803e3d6000fd5b505050506040513d6000823e3d601f19601f8201168201806040525081019061150a9190616608565b6040518363ffffffff1660e01b8152600401611527929190616651565b600060405180830381865afa158015611544573d6000803e3d6000fd5b505050506040513d6000823e3d601f19601f8201168201806040525081019061156d9190616608565b600960009054906101000a900473ffffffffffffffffffffffffffffffffffffffff1673ffffffffffffffffffffffffffffffffffffffff166377839c6986600960009054906101000a900473ffffffffffffffffffffffffffffffffffffffff1673ffffffffffffffffffffffffffffffffffffffff1663f6700795600960009054906101000a900473ffffffffffffffffffffffffffffffffffffffff1673ffffffffffffffffffffffffffffffffffffffff1663f87386c3600860009054906101000a900473ffffffffffffffffffffffffffffffffffffffff1673ffffffffffffffffffffffffffffffffffffffff1663bc1b392d6040518163ffffffff1660e01b8152600401600060405180830381865afa158015611695573d6000803e3d6000fd5b505050506040513d6000823e3d601f19601f820116820180604052508101906116be91906164a2565b8e6040518363ffffffff1660e01b81526004016116dc929190616549565b600060405180830381865afa1580156116f9573d6000803e3d6000fd5b505050506040513d6000823e3d601f19601f820116820180604052508101906117229190616608565b6040518263ffffffff1660e01b815260040161173e919061579d565b600060405180830381865afa15801561175b573d6000803e3d6000fd5b505050506040513d6000823e3d601f19601f820116820180604052508101906117849190616608565b6040518363ffffffff1660e01b81526004016117a1929190616651565b600060405180830381865afa1580156117be573d6000803e3d6000fd5b505050506040513d6000823e3d601f19601f820116820180604052508101906117e79190616608565b6040518463ffffffff1660e01b815260040161180593929190616697565b600060405180830381865afa158015611822573d6000803e3d6000fd5b505050506040513d6000823e3d601f19601f8201168201806040525081019061184b919061678d565b9350505050919050565b61185d614d7f565b600d6040518060600160405290816000820160009054906101000a900460ff16600181111561188f5761188e6152df565b5b60018111156118a1576118a06152df565b5b815260200160018201604051806020016040529081600082016040518060600160405290816000820180546118d590616805565b80601f016020809104026020016040519081016040528092919081815260200182805461190190616805565b801561194e5780601f106119235761010080835404028352916020019161194e565b820191906000526020600020905b81548152906001019060200180831161193157829003601f168201915b505050505081526020016001820160009054906101000a900460ff1615151515815260200160028201548152505081525050815260200160048201604051806020016040529081600082016040518060600160405290816000820180546119b490616805565b80601f01602080910402602001604051908101604052809291908181526020018280546119e090616805565b8015611a2d5780601f10611a0257610100808354040283529160200191611a2d565b820191906000526020600020905b815481529060010190602001808311611a1057829003601f168201915b505050505081526020016001820160009054906101000a900460ff161515151581526020016002820154815250508152505081525050905090565b611a70614dbe565b600180811115611a8357611a826152df565b5b83600001516001811115611a9a57611a996152df565b5b1480611acd5750600180811115611ab457611ab36152df565b5b82600001516001811115611acb57611aca6152df565b5b145b15611b6f57600960009054906101000a900473ffffffffffffffffffffffffffffffffffffffff1673ffffffffffffffffffffffffffffffffffffffff1663bc1b392d6040518163ffffffff1660e01b8152600401600060405180830381865afa158015611b3f573d6000803e3d6000fd5b505050506040513d6000823e3d601f19601f82011682018060405250810190611b689190616608565b9050611cde565b611b788361448d565b8015611b895750611b8882610433565b5b8015611b9a5750611b998361420f565b5b8015611bab5750611baa826142e5565b5b15611cdd57611cd6611bbd8484612455565b73__$7db5d2dbc3ae63372df6c39d501ad0f72a$__63a48a622a60006040518263ffffffff1660e01b8152600401611bf591906169fc565b600060405180830381865af4158015611c12573d6000803e3d6000fd5b505050506040513d6000823e3d601f19601f82011682018060405250810190611c3b9190616a2a565b600960009054906101000a900473ffffffffffffffffffffffffffffffffffffffff1673ffffffffffffffffffffffffffffffffffffffff1663901717d16040518163ffffffff1660e01b8152600401600060405180830381865afa158015611ca8573d6000803e3d6000fd5b505050506040513d6000823e3d601f19601f82011682018060405250810190611cd19190616608565b613e09565b9050611cde565b5b92915050565b6060600080604067ffffffffffffffff811115611d0457611d03614ea3565b5b604051908082528060200260200182016040528015611d325781602001602082028036833780820191505090505b5090505b73__$7db5d2dbc3ae63372df6c39d501ad0f72a$__63aa7312f68573__$7db5d2dbc3ae63372df6c39d501ad0f72a$__63bc1b392d6040518163ffffffff1660e01b8152600401600060405180830381865af4158015611d9a573d6000803e3d6000fd5b505050506040513d6000823e3d601f19601f82011682018060405250810190611dc39190616a2a565b6040518363ffffffff1660e01b8152600401611de0929190616b2b565b602060405180830381865af4158015611dfd573d6000803e3d6000fd5b505050506040513d601f19601f82011682018060405250810190611e2191906162f1565b15611f585773__$7db5d2dbc3ae63372df6c39d501ad0f72a$__63ee4a4e4e856040518263ffffffff1660e01b8152600401611e5d9190616b62565b602060405180830381865af4158015611e7a573d6000803e3d6000fd5b505050506040513d601f19601f82011682018060405250810190611e9e91906162f1565b818381518110611eb157611eb0616b84565b5b60200260200101901515908115158152505073__$7db5d2dbc3ae63372df6c39d501ad0f72a$__636efac6c78560016040518363ffffffff1660e01b8152600401611efd929190616bf8565b600060405180830381865af4158015611f1a573d6000803e3d6000fd5b505050506040513d6000823e3d601f19601f82011682018060405250810190611f439190616a2a565b93508180611f5090616c57565b925050611d36565b6000600183611f679190616c9f565b67ffffffffffffffff811115611f8057611f7f614ea3565b5b604051908082528060200260200182016040528015611fae5781602001602082028036833780820191505090505b50905060005b600184611fc19190616c9f565b81101561202c578260028286611fd79190616c9f565b611fe19190616c9f565b81518110611ff257611ff1616b84565b5b602002602001015182828151811061200d5761200c616b84565b5b6020026020010190151590811515815250508080600101915050611fb4565b50809350505050919050565b600060018081111561204d5761204c6152df565b5b82600001516001811115612064576120636152df565b5b036120725760009050612450565b6000600960009054906101000a900473ffffffffffffffffffffffffffffffffffffffff1673ffffffffffffffffffffffffffffffffffffffff166377839c69846040015185604001516040518363ffffffff1660e01b81526004016120d9929190616651565b600060405180830381865afa1580156120f6573d6000803e3d6000fd5b505050506040513d6000823e3d601f19601f8201168201806040525081019061211f9190616608565b90506000600960009054906101000a900473ffffffffffffffffffffffffffffffffffffffff1673ffffffffffffffffffffffffffffffffffffffff16639e0ddc50600960009054906101000a900473ffffffffffffffffffffffffffffffffffffffff1673ffffffffffffffffffffffffffffffffffffffff166377839c69600960009054906101000a900473ffffffffffffffffffffffffffffffffffffffff1673ffffffffffffffffffffffffffffffffffffffff166377839c6989602001518a602001516040518363ffffffff1660e01b8152600401612204929190616651565b600060405180830381865afa158015612221573d6000803e3d6000fd5b505050506040513d6000823e3d601f19601f8201168201806040525081019061224a9190616608565b88602001516040518363ffffffff1660e01b815260040161226c929190616651565b600060405180830381865afa158015612289573d6000803e3d6000fd5b505050506040513d6000823e3d601f19601f820116820180604052508101906122b29190616608565b600960009054906101000a900473ffffffffffffffffffffffffffffffffffffffff1673ffffffffffffffffffffffffffffffffffffffff1663a1fca2b66040518163ffffffff1660e01b8152600401600060405180830381865afa15801561231f573d6000803e3d6000fd5b505050506040513d6000823e3d601f19601f820116820180604052508101906123489190616608565b6040518363ffffffff1660e01b8152600401612365929190616651565b600060405180830381865afa158015612382573d6000803e3d6000fd5b505050506040513d6000823e3d601f19601f820116820180604052508101906123ab9190616608565b9050600960009054906101000a900473ffffffffffffffffffffffffffffffffffffffff1673ffffffffffffffffffffffffffffffffffffffff16639eea8ce883836040518363ffffffff1660e01b815260040161240a929190616651565b602060405180830381865afa158015612427573d6000803e3d6000fd5b505050506040513d601f19601f8201168201806040525081019061244b91906162f1565b925050505b919050565b61245d614dbe565b6124ee8383846124e973__$7db5d2dbc3ae63372df6c39d501ad0f72a$__63a48a622a60006040518263ffffffff1660e01b815260040161249e9190616d1f565b600060405180830381865af41580156124bb573d6000803e3d6000fd5b505050506040513d6000823e3d601f19601f820116820180604052508101906124e49190616a2a565b611ce4565b614910565b905092915050565b6124fe614dbe565b6000600960009054906101000a900473ffffffffffffffffffffffffffffffffffffffff1673ffffffffffffffffffffffffffffffffffffffff166377839c69600960009054906101000a900473ffffffffffffffffffffffffffffffffffffffff1673ffffffffffffffffffffffffffffffffffffffff16636bc90c28876040015189604001516040518363ffffffff1660e01b81526004016125a3929190616651565b600060405180830381865afa1580156125c0573d6000803e3d6000fd5b505050506040513d6000823e3d601f19601f820116820180604052508101906125e99190616608565b600960009054906101000a900473ffffffffffffffffffffffffffffffffffffffff1673ffffffffffffffffffffffffffffffffffffffff1663f6700795600960009054906101000a900473ffffffffffffffffffffffffffffffffffffffff1673ffffffffffffffffffffffffffffffffffffffff16636bc90c288a602001518c602001516040518363ffffffff1660e01b815260040161268c929190616651565b600060405180830381865afa1580156126a9573d6000803e3d6000fd5b505050506040513d6000823e3d601f19601f820116820180604052508101906126d29190616608565b6040518263ffffffff1660e01b81526004016126ee919061579d565b600060405180830381865afa15801561270b573d6000803e3d6000fd5b505050506040513d6000823e3d601f19601f820116820180604052508101906127349190616608565b6040518363ffffffff1660e01b8152600401612751929190616651565b600060405180830381865afa15801561276e573d6000803e3d6000fd5b505050506040513d6000823e3d601f19601f820116820180604052508101906127979190616608565b90506000600960009054906101000a900473ffffffffffffffffffffffffffffffffffffffff1673ffffffffffffffffffffffffffffffffffffffff166377839c69600960009054906101000a900473ffffffffffffffffffffffffffffffffffffffff1673ffffffffffffffffffffffffffffffffffffffff16636bc90c28600960009054906101000a900473ffffffffffffffffffffffffffffffffffffffff1673ffffffffffffffffffffffffffffffffffffffff166377839c698a604001518c602001516040518363ffffffff1660e01b815260040161287c929190616651565b600060405180830381865afa158015612899573d6000803e3d6000fd5b505050506040513d6000823e3d601f19601f820116820180604052508101906128c29190616608565b600960009054906101000a900473ffffffffffffffffffffffffffffffffffffffff1673ffffffffffffffffffffffffffffffffffffffff166377839c698c604001518c602001516040518363ffffffff1660e01b8152600401612927929190616651565b600060405180830381865afa158015612944573d6000803e3d6000fd5b505050506040513d6000823e3d601f19601f8201168201806040525081019061296d9190616608565b6040518363ffffffff1660e01b815260040161298a929190616651565b600060405180830381865afa1580156129a7573d6000803e3d6000fd5b505050506040513d6000823e3d601f19601f820116820180604052508101906129d09190616608565b600960009054906101000a900473ffffffffffffffffffffffffffffffffffffffff1673ffffffffffffffffffffffffffffffffffffffff1663f6700795600960009054906101000a900473ffffffffffffffffffffffffffffffffffffffff1673ffffffffffffffffffffffffffffffffffffffff16636bc90c288c602001518c602001516040518363ffffffff1660e01b8152600401612a73929190616651565b600060405180830381865afa158015612a90573d6000803e3d6000fd5b505050506040513d6000823e3d601f19601f82011682018060405250810190612ab99190616608565b6040518263ffffffff1660e01b8152600401612ad5919061579d565b600060405180830381865afa158015612af2573d6000803e3d6000fd5b505050506040513d6000823e3d601f19601f82011682018060405250810190612b1b9190616608565b6040518363ffffffff1660e01b8152600401612b38929190616651565b600060405180830381865afa158015612b55573d6000803e3d6000fd5b505050506040513d6000823e3d601f19601f82011682018060405250810190612b7e9190616608565b90506000600960009054906101000a900473ffffffffffffffffffffffffffffffffffffffff1673ffffffffffffffffffffffffffffffffffffffff166376cfdd6686604001516040518263ffffffff1660e01b8152600401612be19190615bcf565b600060405180830381865afa158015612bfe573d6000803e3d6000fd5b505050506040513d6000823e3d601f19601f82011682018060405250810190612c279190616608565b90506000600960009054906101000a900473ffffffffffffffffffffffffffffffffffffffff1673ffffffffffffffffffffffffffffffffffffffff166377839c69600960009054906101000a900473ffffffffffffffffffffffffffffffffffffffff1673ffffffffffffffffffffffffffffffffffffffff166376cfdd6689602001516040518263ffffffff1660e01b8152600401612cc89190615bcf565b600060405180830381865afa158015612ce5573d6000803e3d6000fd5b505050506040513d6000823e3d601f19601f82011682018060405250810190612d0e9190616608565b866040518363ffffffff1660e01b8152600401612d2c929190616651565b600060405180830381865afa158015612d49573d6000803e3d6000fd5b505050506040513d6000823e3d601f19601f82011682018060405250810190612d729190616608565b9050600960009054906101000a900473ffffffffffffffffffffffffffffffffffffffff1673ffffffffffffffffffffffffffffffffffffffff16636bc90c28600960009054906101000a900473ffffffffffffffffffffffffffffffffffffffff1673ffffffffffffffffffffffffffffffffffffffff16636bc90c2885856040518363ffffffff1660e01b8152600401612e0f929190616651565b600060405180830381865afa158015612e2c573d6000803e3d6000fd5b505050506040513d6000823e3d601f19601f82011682018060405250810190612e559190616608565b856040518363ffffffff1660e01b8152600401612e73929190616651565b600060405180830381865afa158015612e90573d6000803e3d6000fd5b505050506040513d6000823e3d601f19601f82011682018060405250810190612eb99190616608565b9450505050509392505050565b612ece614de4565b600660009054906101000a900473ffffffffffffffffffffffffffffffffffffffff1673ffffffffffffffffffffffffffffffffffffffff1663a9a52e7e600660009054906101000a900473ffffffffffffffffffffffffffffffffffffffff1673ffffffffffffffffffffffffffffffffffffffff1663b5e28325600660009054906101000a900473ffffffffffffffffffffffffffffffffffffffff1673ffffffffffffffffffffffffffffffffffffffff1663b5e28325600d600101600d6001016040518363ffffffff1660e01b8152600401612faf929190616ed0565b600060405180830381865afa158015612fcc573d6000803e3d6000fd5b505050506040513d6000823e3d601f19601f82011682018060405250810190612ff5919061631e565b600d6001016040518363ffffffff1660e01b8152600401613017929190616f07565b600060405180830381865afa158015613034573d6000803e3d6000fd5b505050506040513d6000823e3d601f19601f8201168201806040525081019061305d919061631e565b600660009054906101000a900473ffffffffffffffffffffffffffffffffffffffff1673ffffffffffffffffffffffffffffffffffffffff1663a1fca2b66040518163ffffffff1660e01b8152600401600060405180830381865afa1580156130ca573d6000803e3d6000fd5b505050506040513d6000823e3d601f19601f820116820180604052508101906130f3919061631e565b6040518363ffffffff1660e01b8152600401613110929190616367565b600060405180830381865afa15801561312d573d6000803e3d6000fd5b505050506040513d6000823e3d601f19601f82011682018060405250810190613156919061631e565b905090565b613163614de4565b600660009054906101000a900473ffffffffffffffffffffffffffffffffffffffff1673ffffffffffffffffffffffffffffffffffffffff1663b5e28325600d600401600d6004016040518363ffffffff1660e01b81526004016131c8929190616ed0565b600060405180830381865afa1580156131e5573d6000803e3d6000fd5b505050506040513d6000823e3d601f19601f8201168201806040525081019061320e919061631e565b905090565b61321b614dbe565b6000613226846108f0565b90506000600960009054906101000a900473ffffffffffffffffffffffffffffffffffffffff1673ffffffffffffffffffffffffffffffffffffffff166377839c69600960009054906101000a900473ffffffffffffffffffffffffffffffffffffffff1673ffffffffffffffffffffffffffffffffffffffff166377839c69600960009054906101000a900473ffffffffffffffffffffffffffffffffffffffff1673ffffffffffffffffffffffffffffffffffffffff166377839c69600960009054906101000a900473ffffffffffffffffffffffffffffffffffffffff1673ffffffffffffffffffffffffffffffffffffffff166345caa1176040518163ffffffff1660e01b8152600401600060405180830381865afa158015613351573d6000803e3d6000fd5b505050506040513d6000823e3d601f19601f8201168201806040525081019061337a9190616608565b88602001516040518363ffffffff1660e01b815260040161339c929190616651565b600060405180830381865afa1580156133b9573d6000803e3d6000fd5b505050506040513d6000823e3d601f19601f820116820180604052508101906133e29190616608565b86602001516040518363ffffffff1660e01b8152600401613404929190616651565b600060405180830381865afa158015613421573d6000803e3d6000fd5b505050506040513d6000823e3d601f19601f8201168201806040525081019061344a9190616608565b600960009054906101000a900473ffffffffffffffffffffffffffffffffffffffff1673ffffffffffffffffffffffffffffffffffffffff1663f6700795600960009054906101000a900473ffffffffffffffffffffffffffffffffffffffff1673ffffffffffffffffffffffffffffffffffffffff166377839c69600960009054906101000a900473ffffffffffffffffffffffffffffffffffffffff1673ffffffffffffffffffffffffffffffffffffffff16635fdf05d76040518163ffffffff1660e01b8152600401600060405180830381865afa158015613533573d6000803e3d6000fd5b505050506040513d6000823e3d601f19601f8201168201806040525081019061355c9190616608565b89604001516040518363ffffffff1660e01b815260040161357e929190616651565b600060405180830381865afa15801561359b573d6000803e3d6000fd5b505050506040513d6000823e3d601f19601f820116820180604052508101906135c49190616608565b6040518263ffffffff1660e01b81526004016135e0919061579d565b600060405180830381865afa1580156135fd573d6000803e3d6000fd5b505050506040513d6000823e3d601f19601f820116820180604052508101906136269190616608565b6040518363ffffffff1660e01b8152600401613643929190616651565b600060405180830381865afa158015613660573d6000803e3d6000fd5b505050506040513d6000823e3d601f19601f820116820180604052508101906136899190616608565b90506000600960009054906101000a900473ffffffffffffffffffffffffffffffffffffffff1673ffffffffffffffffffffffffffffffffffffffff16636bc90c288460400151600960009054906101000a900473ffffffffffffffffffffffffffffffffffffffff1673ffffffffffffffffffffffffffffffffffffffff166377839c698688602001516040518363ffffffff1660e01b8152600401613731929190616651565b600060405180830381865afa15801561374e573d6000803e3d6000fd5b505050506040513d6000823e3d601f19601f820116820180604052508101906137779190616608565b6040518363ffffffff1660e01b8152600401613794929190616651565b600060405180830381865afa1580156137b1573d6000803e3d6000fd5b505050506040513d6000823e3d601f19601f820116820180604052508101906137da9190616608565b90506000600960009054906101000a900473ffffffffffffffffffffffffffffffffffffffff1673ffffffffffffffffffffffffffffffffffffffff166376cfdd6687604001516040518263ffffffff1660e01b815260040161383d9190615bcf565b600060405180830381865afa15801561385a573d6000803e3d6000fd5b505050506040513d6000823e3d601f19601f820116820180604052508101906138839190616608565b90506000600960009054906101000a900473ffffffffffffffffffffffffffffffffffffffff1673ffffffffffffffffffffffffffffffffffffffff166377839c69600960009054906101000a900473ffffffffffffffffffffffffffffffffffffffff1673ffffffffffffffffffffffffffffffffffffffff166376cfdd668a602001516040518263ffffffff1660e01b81526004016139249190615bcf565b600060405180830381865afa158015613941573d6000803e3d6000fd5b505050506040513d6000823e3d601f19601f8201168201806040525081019061396a9190616608565b866040518363ffffffff1660e01b8152600401613988929190616651565b600060405180830381865afa1580156139a5573d6000803e3d6000fd5b505050506040513d6000823e3d601f19601f820116820180604052508101906139ce9190616608565b9050600960009054906101000a900473ffffffffffffffffffffffffffffffffffffffff1673ffffffffffffffffffffffffffffffffffffffff16636bc90c28600960009054906101000a900473ffffffffffffffffffffffffffffffffffffffff1673ffffffffffffffffffffffffffffffffffffffff16636bc90c2885856040518363ffffffff1660e01b8152600401613a6b929190616651565b600060405180830381865afa158015613a88573d6000803e3d6000fd5b505050506040513d6000823e3d601f19601f82011682018060405250810190613ab19190616608565b856040518363ffffffff1660e01b8152600401613acf929190616651565b600060405180830381865afa158015613aec573d6000803e3d6000fd5b505050506040513d6000823e3d601f19601f82011682018060405250810190613b159190616608565b9550505050505092915050565b613b2a614dbe565b6000613b35856108f0565b90506000613b42856108f0565b9050600960009054906101000a900473ffffffffffffffffffffffffffffffffffffffff1673ffffffffffffffffffffffffffffffffffffffff16639eea8ce8836020015183602001516040518363ffffffff1660e01b8152600401613ba9929190616651565b602060405180830381865afa158015613bc6573d6000803e3d6000fd5b505050506040513d601f19601f82011682018060405250810190613bea91906162f1565b8015613c995750600960009054906101000a900473ffffffffffffffffffffffffffffffffffffffff1673ffffffffffffffffffffffffffffffffffffffff16639eea8ce8836040015183604001516040518363ffffffff1660e01b8152600401613c56929190616651565b602060405180830381865afa158015613c73573d6000803e3d6000fd5b505050506040513d601f19601f82011682018060405250810190613c9791906162f1565b155b15613df257600960009054906101000a900473ffffffffffffffffffffffffffffffffffffffff1673ffffffffffffffffffffffffffffffffffffffff16636bc90c28600960009054906101000a900473ffffffffffffffffffffffffffffffffffffffff1673ffffffffffffffffffffffffffffffffffffffff166376cfdd6687602001516040518263ffffffff1660e01b8152600401613d3b9190615bcf565b600060405180830381865afa158015613d58573d6000803e3d6000fd5b505050506040513d6000823e3d601f19601f82011682018060405250810190613d819190616608565b84602001516040518363ffffffff1660e01b8152600401613da3929190616651565b600060405180830381865afa158015613dc0573d6000803e3d6000fd5b505050506040513d6000823e3d601f19601f82011682018060405250810190613de99190616608565b92505050613e02565b613dfd8282866124f6565b925050505b9392505050565b613e11614dbe565b73__$7db5d2dbc3ae63372df6c39d501ad0f72a$__63ecdafa1f8473__$7db5d2dbc3ae63372df6c39d501ad0f72a$__63901717d16040518163ffffffff1660e01b8152600401600060405180830381865af4158015613e75573d6000803e3d6000fd5b505050506040513d6000823e3d601f19601f82011682018060405250810190613e9e9190616a2a565b6040518363ffffffff1660e01b8152600401613ebb929190616b2b565b602060405180830381865af4158015613ed8573d6000803e3d6000fd5b505050506040513d601f19601f82011682018060405250810190613efc91906162f1565b15613f0957839050614208565b6000613f958573__$7db5d2dbc3ae63372df6c39d501ad0f72a$__636efac6c78760016040518363ffffffff1660e01b8152600401613f49929190616bf8565b600060405180830381865af4158015613f66573d6000803e3d6000fd5b505050506040513d6000823e3d601f19601f82011682018060405250810190613f8f9190616a2a565b85613e09565b905073__$7db5d2dbc3ae63372df6c39d501ad0f72a$__63ee4a4e4e856040518263ffffffff1660e01b8152600401613fce9190616b62565b602060405180830381865af4158015613feb573d6000803e3d6000fd5b505050506040513d601f19601f8201168201806040525081019061400f91906162f1565b1561416157600960009054906101000a900473ffffffffffffffffffffffffffffffffffffffff1673ffffffffffffffffffffffffffffffffffffffff166377839c69600960009054906101000a900473ffffffffffffffffffffffffffffffffffffffff1673ffffffffffffffffffffffffffffffffffffffff166377839c6984856040518363ffffffff1660e01b81526004016140af929190616651565b600060405180830381865afa1580156140cc573d6000803e3d6000fd5b505050506040513d6000823e3d601f19601f820116820180604052508101906140f59190616608565b876040518363ffffffff1660e01b8152600401614113929190616651565b600060405180830381865afa158015614130573d6000803e3d6000fd5b505050506040513d6000823e3d601f19601f820116820180604052508101906141599190616608565b915050614208565b600960009054906101000a900473ffffffffffffffffffffffffffffffffffffffff1673ffffffffffffffffffffffffffffffffffffffff166377839c6982836040518363ffffffff1660e01b81526004016141be929190616651565b600060405180830381865afa1580156141db573d6000803e3d6000fd5b505050506040513d6000823e3d601f19601f820116820180604052508101906142049190616608565b9150505b9392505050565b6000806001811115614224576142236152df565b5b600a60009054906101000a900473ffffffffffffffffffffffffffffffffffffffff1673ffffffffffffffffffffffffffffffffffffffff16627995936003856040518363ffffffff1660e01b8152600401614281929190616fa5565b600060405180830381865afa15801561429e573d6000803e3d6000fd5b505050506040513d6000823e3d601f19601f820116820180604052508101906142c79190617078565b6000015160018111156142dd576142dc6152df565b5b149050919050565b60008060018111156142fa576142f96152df565b5b600b60009054906101000a900473ffffffffffffffffffffffffffffffffffffffff1673ffffffffffffffffffffffffffffffffffffffff166355e359c86003856040518363ffffffff1660e01b8152600401614358929190617118565b600060405180830381865afa158015614375573d6000803e3d6000fd5b505050506040513d6000823e3d601f19601f8201168201806040525081019061439e91906171eb565b6000015160018111156143b4576143b36152df565b5b149050919050565b6143c4614dfd565b60006040518060600160405290816000820180546143e190616805565b80601f016020809104026020016040519081016040528092919081815260200182805461440d90616805565b801561445a5780601f1061442f5761010080835404028352916020019161445a565b820191906000526020600020905b81548152906001019060200180831161443d57829003601f168201915b505050505081526020016001820160009054906101000a900460ff16151515158152602001600282015481525050905090565b600080600660009054906101000a900473ffffffffffffffffffffffffffffffffffffffff1673ffffffffffffffffffffffffffffffffffffffff1663b5e28325846040015185604001516040518363ffffffff1660e01b81526004016144f5929190616367565b600060405180830381865afa158015614512573d6000803e3d6000fd5b505050506040513d6000823e3d601f19601f8201168201806040525081019061453b919061631e565b90506000600660009054906101000a900473ffffffffffffffffffffffffffffffffffffffff1673ffffffffffffffffffffffffffffffffffffffff1663a9a52e7e600660009054906101000a900473ffffffffffffffffffffffffffffffffffffffff1673ffffffffffffffffffffffffffffffffffffffff1663b5e28325600660009054906101000a900473ffffffffffffffffffffffffffffffffffffffff1673ffffffffffffffffffffffffffffffffffffffff1663b5e2832589602001518a602001516040518363ffffffff1660e01b8152600401614620929190616367565b600060405180830381865afa15801561463d573d6000803e3d6000fd5b505050506040513d6000823e3d601f19601f82011682018060405250810190614666919061631e565b88602001516040518363ffffffff1660e01b8152600401614688929190616367565b600060405180830381865afa1580156146a5573d6000803e3d6000fd5b505050506040513d6000823e3d601f19601f820116820180604052508101906146ce919061631e565b600660009054906101000a900473ffffffffffffffffffffffffffffffffffffffff1673ffffffffffffffffffffffffffffffffffffffff1663085eb2b9600660009054906101000a900473ffffffffffffffffffffffffffffffffffffffff1673ffffffffffffffffffffffffffffffffffffffff1663a1fca2b66040518163ffffffff1660e01b8152600401600060405180830381865afa158015614779573d6000803e3d6000fd5b505050506040513d6000823e3d601f19601f820116820180604052508101906147a2919061631e565b6040518263ffffffff1660e01b81526004016147be9190615bcf565b600060405180830381865afa1580156147db573d6000803e3d6000fd5b505050506040513d6000823e3d601f19601f82011682018060405250810190614804919061631e565b6040518363ffffffff1660e01b8152600401614821929190616367565b600060405180830381865afa15801561483e573d6000803e3d6000fd5b505050506040513d6000823e3d601f19601f82011682018060405250810190614867919061631e565b9050600660009054906101000a900473ffffffffffffffffffffffffffffffffffffffff1673ffffffffffffffffffffffffffffffffffffffff1663d4d4555483836040518363ffffffff1660e01b81526004016148c6929190616367565b602060405180830381865afa1580156148e3573d6000803e3d6000fd5b505050506040513d601f19601f8201168201806040525081019061490791906162f1565b92505050919050565b614918614dbe565b6000600960009054906101000a900473ffffffffffffffffffffffffffffffffffffffff1673ffffffffffffffffffffffffffffffffffffffff1663901717d16040518163ffffffff1660e01b8152600401600060405180830381865afa158015614987573d6000803e3d6000fd5b505050506040513d6000823e3d601f19601f820116820180604052508101906149b09190616608565b905060005b8351811015614d3357600960009054906101000a900473ffffffffffffffffffffffffffffffffffffffff1673ffffffffffffffffffffffffffffffffffffffff166377839c69600960009054906101000a900473ffffffffffffffffffffffffffffffffffffffff1673ffffffffffffffffffffffffffffffffffffffff166377839c6985866040518363ffffffff1660e01b8152600401614a59929190616651565b600060405180830381865afa158015614a76573d6000803e3d6000fd5b505050506040513d6000823e3d601f19601f82011682018060405250810190614a9f9190616608565b614aa9888b613213565b6040518363ffffffff1660e01b8152600401614ac6929190616651565b600060405180830381865afa158015614ae3573d6000803e3d6000fd5b505050506040513d6000823e3d601f19601f82011682018060405250810190614b0c9190616608565b9150600b60009054906101000a900473ffffffffffffffffffffffffffffffffffffffff1673ffffffffffffffffffffffffffffffffffffffff16639ee46fb3866040518263ffffffff1660e01b8152600401614b699190617234565b600060405180830381865afa158015614b86573d6000803e3d6000fd5b505050506040513d6000823e3d601f19601f82011682018060405250810190614baf91906171eb565b9450838181518110614bc457614bc3616b84565b5b602002602001015115614d2657600960009054906101000a900473ffffffffffffffffffffffffffffffffffffffff1673ffffffffffffffffffffffffffffffffffffffff166377839c6983614c1b888a8c613b22565b6040518363ffffffff1660e01b8152600401614c38929190616651565b600060405180830381865afa158015614c55573d6000803e3d6000fd5b505050506040513d6000823e3d601f19601f82011682018060405250810190614c7e9190616608565b9150600b60009054906101000a900473ffffffffffffffffffffffffffffffffffffffff1673ffffffffffffffffffffffffffffffffffffffff166324dca0c786886040518363ffffffff1660e01b8152600401614cdd929190617256565b600060405180830381865afa158015614cfa573d6000803e3d6000fd5b505050506040513d6000823e3d601f19601f82011682018060405250810190614d2391906171eb565b94505b80806001019150506149b5565b5080915050949350505050565b604051806060016040528060006001811115614d5f57614d5e6152df565b5b8152602001614d6c614dbe565b8152602001614d79614dbe565b81525090565b604051806060016040528060006001811115614d9e57614d9d6152df565b5b8152602001614dab614de4565b8152602001614db8614de4565b81525090565b6040518060400160405280614dd1614e20565b8152602001614dde614e20565b81525090565b6040518060200160405280614df7614dfd565b81525090565b604051806060016040528060608152602001600015158152602001600081525090565b6040518060600160405280614e33614e53565b8152602001614e40614e53565b8152602001614e4d614e53565b81525090565b6040518060400160405280614e66614de4565b8152602001614e73614de4565b81525090565b6000604051905090565b600080fd5b600080fd5b600080fd5b6000601f19601f8301169050919050565b7f4e487b7100000000000000000000000000000000000000000000000000000000600052604160045260246000fd5b614edb82614e92565b810181811067ffffffffffffffff82111715614efa57614ef9614ea3565b5b80604052505050565b6000614f0d614e79565b9050614f198282614ed2565b919050565b600080fd5b60028110614f3057600080fd5b50565b600081359050614f4281614f23565b92915050565b600080fd5b600080fd5b600067ffffffffffffffff821115614f6d57614f6c614ea3565b5b614f7682614e92565b9050602081019050919050565b82818337600083830152505050565b6000614fa5614fa084614f52565b614f03565b905082815260208101848484011115614fc157614fc0614f4d565b5b614fcc848285614f83565b509392505050565b600082601f830112614fe957614fe8614f48565b5b8135614ff9848260208601614f92565b91505092915050565b60008115159050919050565b61501781615002565b811461502257600080fd5b50565b6000813590506150348161500e565b92915050565b6000819050919050565b61504d8161503a565b811461505857600080fd5b50565b60008135905061506a81615044565b92915050565b60006060828403121561508657615085614e8d565b5b6150906060614f03565b9050600082013567ffffffffffffffff8111156150b0576150af614f1e565b5b6150bc84828501614fd4565b60008301525060206150d084828501615025565b60208301525060406150e48482850161505b565b60408301525092915050565b60006020828403121561510657615105614e8d565b5b6151106020614f03565b9050600082013567ffffffffffffffff8111156151305761512f614f1e565b5b61513c84828501615070565b60008301525092915050565b60006040828403121561515e5761515d614e8d565b5b6151686040614f03565b9050600082013567ffffffffffffffff81111561518857615187614f1e565b5b615194848285016150f0565b600083015250602082013567ffffffffffffffff8111156151b8576151b7614f1e565b5b6151c4848285016150f0565b60208301525092915050565b6000606082840312156151e6576151e5614e8d565b5b6151f06060614f03565b9050600061520084828501614f33565b600083015250602082013567ffffffffffffffff81111561522457615223614f1e565b5b61523084828501615148565b602083015250604082013567ffffffffffffffff81111561525457615253614f1e565b5b61526084828501615148565b60408301525092915050565b60006020828403121561528257615281614e83565b5b600082013567ffffffffffffffff8111156152a05761529f614e88565b5b6152ac848285016151d0565b91505092915050565b6152be81615002565b82525050565b60006020820190506152d960008301846152b5565b92915050565b7f4e487b7100000000000000000000000000000000000000000000000000000000600052602160045260246000fd5b6002811061531f5761531e6152df565b5b50565b60008190506153308261530e565b919050565b600061534082615322565b9050919050565b61535081615335565b82525050565b600081519050919050565b600082825260208201905092915050565b60005b83811015615390578082015181840152602081019050615375565b60008484015250505050565b60006153a782615356565b6153b18185615361565b93506153c1818560208601615372565b6153ca81614e92565b840191505092915050565b6153de81615002565b82525050565b6153ed8161503a565b82525050565b60006060830160008301518482036000860152615410828261539c565b915050602083015161542560208601826153d5565b50604083015161543860408601826153e4565b508091505092915050565b6000602083016000830151848203600086015261546082826153f3565b9150508091505092915050565b6000604083016000830151848203600086015261548a8282615443565b915050602083015184820360208601526154a48282615443565b9150508091505092915050565b600060608301600083015184820360008601526154ce828261546d565b915050602083015184820360208601526154e8828261546d565b91505060408301518482036040860152615502828261546d565b9150508091505092915050565b6000604083016000830151848203600086015261552c82826154b1565b9150506020830151848203602086015261554682826154b1565b9150508091505092915050565b600060608301600083015161556b6000860182615347565b5060208301518482036020860152615583828261550f565b9150506040830151848203604086015261559d828261550f565b9150508091505092915050565b600060208201905081810360008301526155c48184615553565b905092915050565b60006060830160008301516155e46000860182615347565b50602083015184820360208601526155fc8282615443565b915050604083015184820360408601526156168282615443565b9150508091505092915050565b6000602082019050818103600083015261563d81846155cc565b905092915050565b60006060828403121561565b5761565a614e8d565b5b6156656060614f03565b9050600061567584828501614f33565b600083015250602082013567ffffffffffffffff81111561569957615698614f1e565b5b6156a5848285016150f0565b602083015250604082013567ffffffffffffffff8111156156c9576156c8614f1e565b5b6156d5848285016150f0565b60408301525092915050565b600080604083850312156156f8576156f7614e83565b5b600083013567ffffffffffffffff81111561571657615715614e88565b5b61572285828601615645565b925050602083013567ffffffffffffffff81111561574357615742614e88565b5b61574f858286016151d0565b9150509250929050565b6000604083016000830151848203600086015261577682826154b1565b9150506020830151848203602086015261579082826154b1565b9150508091505092915050565b600060208201905081810360008301526157b78184615759565b905092915050565b6000602082840312156157d5576157d4614e83565b5b600082013567ffffffffffffffff8111156157f3576157f2614e88565b5b6157ff84828501615070565b91505092915050565b600081519050919050565b600082825260208201905092915050565b6000819050602082019050919050565b600061584083836153d5565b60208301905092915050565b6000602082019050919050565b600061586482615808565b61586e8185615813565b935061587983615824565b8060005b838110156158aa5781516158918882615834565b975061589c8361584c565b92505060018101905061587d565b5085935050505092915050565b600060208201905081810360008301526158d18184615859565b905092915050565b6000606082840312156158ef576158ee614e8d565b5b6158f96060614f03565b9050600082013567ffffffffffffffff81111561591957615918614f1e565b5b61592584828501615148565b600083015250602082013567ffffffffffffffff81111561594957615948614f1e565b5b61595584828501615148565b602083015250604082013567ffffffffffffffff81111561597957615978614f1e565b5b61598584828501615148565b60408301525092915050565b6000604082840312156159a7576159a6614e8d565b5b6159b16040614f03565b9050600082013567ffffffffffffffff8111156159d1576159d0614f1e565b5b6159dd848285016158d9565b600083015250602082013567ffffffffffffffff811115615a0157615a00614f1e565b5b615a0d848285016158d9565b60208301525092915050565b600060608284031215615a2f57615a2e614e8d565b5b615a396060614f03565b90506000615a4984828501614f33565b600083015250602082013567ffffffffffffffff811115615a6d57615a6c614f1e565b5b615a7984828501615991565b602083015250604082013567ffffffffffffffff811115615a9d57615a9c614f1e565b5b615aa984828501615991565b60408301525092915050565b600060208284031215615acb57615aca614e83565b5b600082013567ffffffffffffffff811115615ae957615ae8614e88565b5b615af584828501615a19565b91505092915050565b600080600060608486031215615b1757615b16614e83565b5b600084013567ffffffffffffffff811115615b3557615b34614e88565b5b615b4186828701615a19565b935050602084013567ffffffffffffffff811115615b6257615b61614e88565b5b615b6e86828701615a19565b925050604084013567ffffffffffffffff811115615b8f57615b8e614e88565b5b615b9b86828701615645565b9150509250925092565b60006020830160008301518482036000860152615bc282826153f3565b9150508091505092915050565b60006020820190508181036000830152615be98184615ba5565b905092915050565b60008060408385031215615c0857615c07614e83565b5b600083013567ffffffffffffffff811115615c2657615c25614e88565b5b615c32858286016151d0565b925050602083013567ffffffffffffffff811115615c5357615c52614e88565b5b615c5f85828601615645565b9150509250929050565b600080600060608486031215615c8257615c81614e83565b5b600084013567ffffffffffffffff811115615ca057615c9f614e88565b5b615cac868287016151d0565b935050602084013567ffffffffffffffff811115615ccd57615ccc614e88565b5b615cd9868287016151d0565b925050604084013567ffffffffffffffff811115615cfa57615cf9614e88565b5b615d0686828701615645565b9150509250925092565b600080600060608486031215615d2957615d28614e83565b5b600084013567ffffffffffffffff811115615d4757615d46614e88565b5b615d5386828701615991565b935050602084013567ffffffffffffffff811115615d7457615d73614e88565b5b615d8086828701615070565b925050604084013567ffffffffffffffff811115615da157615da0614e88565b5b615dad86828701615991565b9150509250925092565b600060208284031215615dcd57615dcc614e83565b5b600082013567ffffffffffffffff811115615deb57615dea614e88565b5b615df784828501615645565b91505092915050565b60006060830160008301518482036000860152615e1d828261539c565b9150506020830151615e3260208601826153d5565b506040830151615e4560408601826153e4565b508091505092915050565b60006020820190508181036000830152615e6a8184615e00565b905092915050565b600067ffffffffffffffff821115615e8d57615e8c614ea3565b5b602082029050602081019050919050565b600080fd5b6000615eb6615eb184615e72565b614f03565b90508083825260208201905060208402830185811115615ed957615ed8615e9e565b5b835b81811015615f025780615eee8882615025565b845260208401935050602081019050615edb565b5050509392505050565b600082601f830112615f2157615f20614f48565b5b8135615f31848260208601615ea3565b91505092915050565b60008060008060808587031215615f5457615f53614e83565b5b600085013567ffffffffffffffff811115615f7257615f71614e88565b5b615f7e87828801615645565b945050602085013567ffffffffffffffff811115615f9f57615f9e614e88565b5b615fab878288016151d0565b935050604085013567ffffffffffffffff811115615fcc57615fcb614e88565b5b615fd8878288016151d0565b925050606085013567ffffffffffffffff811115615ff957615ff8614e88565b5b61600587828801615f0c565b91505092959194509250565b6000604083016000830151848203600086015261602e8282615443565b915050602083015184820360208601526160488282615443565b9150508091505092915050565b6000604082019050818103600083015261606f8185616011565b905081810360208301526160838184616011565b90509392505050565b600061609f61609a84614f52565b614f03565b9050828152602081018484840111156160bb576160ba614f4d565b5b6160c6848285615372565b509392505050565b600082601f8301126160e3576160e2614f48565b5b81516160f384826020860161608c565b91505092915050565b60008151905061610b8161500e565b92915050565b60008151905061612081615044565b92915050565b60006060828403121561613c5761613b614e8d565b5b6161466060614f03565b9050600082015167ffffffffffffffff81111561616657616165614f1e565b5b616172848285016160ce565b6000830152506020616186848285016160fc565b602083015250604061619a84828501616111565b60408301525092915050565b6000602082840312156161bc576161bb614e8d565b5b6161c66020614f03565b9050600082015167ffffffffffffffff8111156161e6576161e5614f1e565b5b6161f284828501616126565b60008301525092915050565b60006040828403121561621457616213614e8d565b5b61621e6040614f03565b9050600082015167ffffffffffffffff81111561623e5761623d614f1e565b5b61624a848285016161a6565b600083015250602082015167ffffffffffffffff81111561626e5761626d614f1e565b5b61627a848285016161a6565b60208301525092915050565b60006020828403121561629c5761629b614e83565b5b600082015167ffffffffffffffff8111156162ba576162b9614e88565b5b6162c6848285016161fe565b91505092915050565b600060208201905081810360008301526162e98184616011565b905092915050565b60006020828403121561630757616306614e83565b5b6000616315848285016160fc565b91505092915050565b60006020828403121561633457616333614e83565b5b600082015167ffffffffffffffff81111561635257616351614e88565b5b61635e848285016161a6565b91505092915050565b600060408201905081810360008301526163818185615ba5565b905081810360208301526163958184615ba5565b90509392505050565b600060608201905081810360008301526163b88186616011565b905081810360208301526163cc8185616011565b905081810360408301526163e08184616011565b9050949350505050565b600060608284031215616400576163ff614e8d565b5b61640a6060614f03565b9050600082015167ffffffffffffffff81111561642a57616429614f1e565b5b616436848285016161fe565b600083015250602082015167ffffffffffffffff81111561645a57616459614f1e565b5b616466848285016161fe565b602083015250604082015167ffffffffffffffff81111561648a57616489614f1e565b5b616496848285016161fe565b60408301525092915050565b6000602082840312156164b8576164b7614e83565b5b600082015167ffffffffffffffff8111156164d6576164d5614e88565b5b6164e2848285016163ea565b91505092915050565b60006060830160008301518482036000860152616508828261546d565b91505060208301518482036020860152616522828261546d565b9150506040830151848203604086015261653c828261546d565b9150508091505092915050565b6000604082019050818103600083015261656381856164eb565b9050818103602083015261657781846164eb565b90509392505050565b60006040828403121561659657616595614e8d565b5b6165a06040614f03565b9050600082015167ffffffffffffffff8111156165c0576165bf614f1e565b5b6165cc848285016163ea565b600083015250602082015167ffffffffffffffff8111156165f0576165ef614f1e565b5b6165fc848285016163ea565b60208301525092915050565b60006020828403121561661e5761661d614e83565b5b600082015167ffffffffffffffff81111561663c5761663b614e88565b5b61664884828501616580565b91505092915050565b6000604082019050818103600083015261666b8185615759565b9050818103602083015261667f8184615759565b90509392505050565b61669181615335565b82525050565b60006060820190506166ac6000830186616688565b81810360208301526166be8185615759565b905081810360408301526166d28184615759565b9050949350505050565b6000815190506166eb81614f23565b92915050565b60006060828403121561670757616706614e8d565b5b6167116060614f03565b90506000616721848285016166dc565b600083015250602082015167ffffffffffffffff81111561674557616744614f1e565b5b61675184828501616580565b602083015250604082015167ffffffffffffffff81111561677557616774614f1e565b5b61678184828501616580565b60408301525092915050565b6000602082840312156167a3576167a2614e83565b5b600082015167ffffffffffffffff8111156167c1576167c0614e88565b5b6167cd848285016166f1565b91505092915050565b7f4e487b7100000000000000000000000000000000000000000000000000000000600052602260045260246000fd5b6000600282049050600182168061681d57607f821691505b6020821081036168305761682f6167d6565b5b50919050565b600082825260208201905092915050565b7f307866363836623364383037643031633062643338633331393563383939656460008201527f336364653838656562393936636133393435303636333235323864366139613260208201527f663233303036336366303831353137663638663737363463323862366638616560408201527f356137326263653864363363623966383237656361306261363231333135623260608201527f303736393935303033666337376131373938386638373631626463353164633260808201527f333738623930333930393664316237363766313766636264653738333736353960a08201527f313563393766333663366631383231326564306232383365643233376462343260c08201527f316431363061656236613165373939383337373439343039393637353463386360e08201527f37316132363239623064656132333639303563653933373333356435623638666101008201527f613939313261616532303863636631653531366333663433386533626137390061012082015250565b60006169d661013f83616836565b91506169e182616847565b61014082019050919050565b6169f681615002565b82525050565b60006040820190508181036000830152616a15816169c8565b9050616a2460208301846169ed565b92915050565b600060208284031215616a4057616a3f614e83565b5b600082015167ffffffffffffffff811115616a5e57616a5d614e88565b5b616a6a84828501616126565b91505092915050565b600082825260208201905092915050565b6000616a8f82615356565b616a998185616a73565b9350616aa9818560208601615372565b616ab281614e92565b840191505092915050565b616ac681615002565b82525050565b616ad58161503a565b82525050565b60006060830160008301518482036000860152616af88282616a84565b9150506020830151616b0d6020860182616abd565b506040830151616b206040860182616acc565b508091505092915050565b60006040820190508181036000830152616b458185616adb565b90508181036020830152616b598184616adb565b90509392505050565b60006020820190508181036000830152616b7c8184616adb565b905092915050565b7f4e487b7100000000000000000000000000000000000000000000000000000000600052603260045260246000fd5b6000819050919050565b6000819050919050565b6000616be2616bdd616bd884616bb3565b616bbd565b61503a565b9050919050565b616bf281616bc7565b82525050565b60006040820190508181036000830152616c128185616adb565b9050616c216020830184616be9565b9392505050565b7f4e487b7100000000000000000000000000000000000000000000000000000000600052601160045260246000fd5b6000616c628261503a565b91507fffffffffffffffffffffffffffffffffffffffffffffffffffffffffffffffff8203616c9457616c93616c28565b5b600182019050919050565b6000616caa8261503a565b9150616cb58361503a565b9250828203905081811115616ccd57616ccc616c28565b5b92915050565b7f3078643230313030303030303031303030300000000000000000000000000000600082015250565b6000616d09601283616836565b9150616d1482616cd3565b602082019050919050565b60006040820190508181036000830152616d3881616cfc565b9050616d4760208301846169ed565b92915050565b60008190508160005260206000209050919050565b60008154616d6f81616805565b616d798186615361565b94506001821660008114616d945760018114616daa57616ddd565b60ff198316865281151560200286019350616ddd565b616db385616d4d565b60005b83811015616dd557815481890152600182019150602081019050616db6565b808801955050505b50505092915050565b60008160001c9050919050565b600060ff82169050919050565b6000616e13616e0e83616de6565b616df3565b9050919050565b6000819050919050565b6000616e37616e3283616de6565b616e1a565b9050919050565b60006060830160008084018583036000870152616e5b8382616d62565b92505060018401549050616e6e81616e00565b616e7b60208701826153d5565b5060028401549050616e8c81616e24565b616e9960408701826153e4565b50819250505092915050565b60006020830160008084018583036000870152616ec28382616e3e565b925050819250505092915050565b60006040820190508181036000830152616eea8185616ea5565b90508181036020830152616efe8184616ea5565b90509392505050565b60006040820190508181036000830152616f218185615ba5565b90508181036020830152616f358184616ea5565b90509392505050565b60006060830160008084018583036000870152616f5b8382616d62565b92505060018401549050616f6e81616e00565b616f7b60208701826153d5565b5060028401549050616f8c81616e24565b616f9960408701826153e4565b50819250505092915050565b60006040820190508181036000830152616fbf8185616f3e565b90508181036020830152616fd381846155cc565b90509392505050565b600060608284031215616ff257616ff1614e8d565b5b616ffc6060614f03565b9050600061700c848285016166dc565b600083015250602082015167ffffffffffffffff8111156170305761702f614f1e565b5b61703c848285016161a6565b602083015250604082015167ffffffffffffffff8111156170605761705f614f1e565b5b61706c848285016161a6565b60408301525092915050565b60006020828403121561708e5761708d614e83565b5b600082015167ffffffffffffffff8111156170ac576170ab614e88565b5b6170b884828501616fdc565b91505092915050565b60006060830160008301516170d96000860182615347565b50602083015184820360208601526170f1828261546d565b9150506040830151848203604086015261710b828261546d565b9150508091505092915050565b600060408201905081810360008301526171328185616f3e565b9050818103602083015261714681846170c1565b90509392505050565b60006060828403121561716557617164614e8d565b5b61716f6060614f03565b9050600061717f848285016166dc565b600083015250602082015167ffffffffffffffff8111156171a3576171a2614f1e565b5b6171af848285016161fe565b602083015250604082015167ffffffffffffffff8111156171d3576171d2614f1e565b5b6171df848285016161fe565b60408301525092915050565b60006020828403121561720157617200614e83565b5b600082015167ffffffffffffffff81111561721f5761721e614e88565b5b61722b8482850161714f565b91505092915050565b6000602082019050818103600083015261724e81846170c1565b905092915050565b6000604082019050818103600083015261727081856170c1565b9050818103602083015261728481846170c1565b9050939250505056fea264697066735822122025d7f03b0a3ae5a4b9bf01dd32003ef99734c6470e0cb7b8379403199082c96064736f6c634300081b0033608060405234801561001057600080fd5b50604051612edf380380612edf833981810160405281019061003291906103d8565b806000808260000151905060208101519150600082036100d25773__$7db5d2dbc3ae63372df6c39d501ad0f72a$__6308d78767846040518263ffffffff1660e01b815260040161008391906104e4565b602060405180830381865af41580156100a0573d6000803e3d6000fd5b505050506040513d601f19601f820116820180604052508101906100c49190610506565b6100cd57600080fd5b61011d565b600060208460000151516100e69190610562565b148015610113575060016101006001856040015161010491906105c2565b61010e9190610562565b83901c145b61011c57600080fd5b5b836000808201518160000190816101349190610802565b5060208201518160010160006101000a81548160ff02191690831515021790555060408201518160020155905050505050506108d4565b6000604051905090565b600080fd5b600080fd5b600080fd5b6000601f19601f8301169050919050565b7f4e487b7100000000000000000000000000000000000000000000000000000000600052604160045260246000fd5b6101cd82610184565b810181811067ffffffffffffffff821117156101ec576101eb610195565b5b80604052505050565b60006101ff61016b565b905061020b82826101c4565b919050565b600080fd5b600080fd5b600080fd5b600067ffffffffffffffff82111561023a57610239610195565b5b61024382610184565b9050602081019050919050565b60005b8381101561026e578082015181840152602081019050610253565b60008484015250505050565b600061028d6102888461021f565b6101f5565b9050828152602081018484840111156102a9576102a861021a565b5b6102b4848285610250565b509392505050565b600082601f8301126102d1576102d0610215565b5b81516102e184826020860161027a565b91505092915050565b60008115159050919050565b6102ff816102ea565b811461030a57600080fd5b50565b60008151905061031c816102f6565b92915050565b6000819050919050565b61033581610322565b811461034057600080fd5b50565b6000815190506103528161032c565b92915050565b60006060828403121561036e5761036d61017f565b5b61037860606101f5565b9050600082015167ffffffffffffffff81111561039857610397610210565b5b6103a4848285016102bc565b60008301525060206103b88482850161030d565b60208301525060406103cc84828501610343565b60408301525092915050565b6000602082840312156103ee576103ed610175565b5b600082015167ffffffffffffffff81111561040c5761040b61017a565b5b61041884828501610358565b91505092915050565b600081519050919050565b600082825260208201905092915050565b600061044882610421565b610452818561042c565b9350610462818560208601610250565b61046b81610184565b840191505092915050565b61047f816102ea565b82525050565b61048e81610322565b82525050565b600060608301600083015184820360008601526104b1828261043d565b91505060208301516104c66020860182610476565b5060408301516104d96040860182610485565b508091505092915050565b600060208201905081810360008301526104fe8184610494565b905092915050565b60006020828403121561051c5761051b610175565b5b600061052a8482850161030d565b91505092915050565b7f4e487b7100000000000000000000000000000000000000000000000000000000600052601260045260246000fd5b600061056d82610322565b915061057883610322565b92508261058857610587610533565b5b828206905092915050565b7f4e487b7100000000000000000000000000000000000000000000000000000000600052601160045260246000fd5b60006105cd82610322565b91506105d883610322565b92508282039050818111156105f0576105ef610593565b5b92915050565b7f4e487b7100000000000000000000000000000000000000000000000000000000600052602260045260246000fd5b6000600282049050600182168061063d57607f821691505b6020821081036106505761064f6105f6565b5b50919050565b60008190508160005260206000209050919050565b60006020601f8301049050919050565b600082821b905092915050565b6000600883026106b87fffffffffffffffffffffffffffffffffffffffffffffffffffffffffffffffff8261067b565b6106c2868361067b565b95508019841693508086168417925050509392505050565b6000819050919050565b60006106ff6106fa6106f584610322565b6106da565b610322565b9050919050565b6000819050919050565b610719836106e4565b61072d61072582610706565b848454610688565b825550505050565b600090565b610742610735565b61074d818484610710565b505050565b5b818110156107715761076660008261073a565b600181019050610753565b5050565b601f8211156107b65761078781610656565b6107908461066b565b8101602085101561079f578190505b6107b36107ab8561066b565b830182610752565b50505b505050565b600082821c905092915050565b60006107d9600019846008026107bb565b1980831691505092915050565b60006107f283836107c8565b9150826002028217905092915050565b61080b82610421565b67ffffffffffffffff81111561082457610823610195565b5b61082e8254610625565b610839828285610775565b600060209050601f83116001811461086c576000841561085a578287015190505b61086485826107e6565b8655506108cc565b601f19841661087a86610656565b60005b828110156108a25784890151825560018201915060208501945060208101905061087d565b868310156108bf57848901516108bb601f8916826107c8565b8355505b6001600288020188555050505b505050505050565b6125fc806108e36000396000f3fe608060405234801561001057600080fd5b50600436106100ea5760003560e01c8063a672d1001161008c578063bc1b392d11610066578063bc1b392d14610287578063d4d45554146102a5578063f2388acb146102d5578063fb2bedad146102f3576100ea565b8063a672d100146101f7578063a9a52e7e14610227578063b5e2832514610257576100ea565b806345caa117116100c857806345caa1171461017f5780635fdf05d71461019d578063901717d1146101bb578063a1fca2b6146101d9576100ea565b8063085eb2b9146100ef57806312f7411b1461011f578063170147421461014f575b600080fd5b61010960048036038101906101049190611bdd565b610323565b6040516101169190611d3d565b60405180910390f35b61013960048036038101906101349190611d5f565b610425565b6040516101469190611d3d565b60405180910390f35b61016960048036038101906101649190611dd7565b61062b565b6040516101769190611d3d565b60405180910390f35b6101876107b6565b6040516101949190611d3d565b60405180910390f35b6101a5610843565b6040516101b29190611d3d565b60405180910390f35b6101c36108d0565b6040516101d09190611d3d565b60405180910390f35b6101e161095d565b6040516101ee9190611d3d565b60405180910390f35b610211600480360381019061020c9190611bdd565b6109ea565b60405161021e9190611d3d565b60405180910390f35b610241600480360381019061023c9190611d5f565b610d9d565b60405161024e9190611d3d565b60405180910390f35b610271600480360381019061026c9190611d5f565b611020565b60405161027e9190611d3d565b60405180910390f35b61028f6112a6565b60405161029c9190611d3d565b60405180910390f35b6102bf60048036038101906102ba9190611d5f565b611333565b6040516102cc9190611e2f565b60405180910390f35b6102dd6115a3565b6040516102ea9190611e9a565b60405180910390f35b61030d60048036038101906103089190611d5f565b611674565b60405161031a9190611d3d565b60405180910390f35b61032b6118f7565b81600001516000808260000151905060208101519150600082036103cf5773__$7db5d2dbc3ae63372df6c39d501ad0f72a$__6308d78767846040518263ffffffff1660e01b81526004016103809190611f74565b602060405180830381865af415801561039d573d6000803e3d6000fd5b505050506040513d601f19601f820116820180604052508101906103c19190611fab565b6103ca57600080fd5b61041a565b600060208460000151516103e39190612007565b14801561041057506001610100600185604001516104019190612067565b61040b9190612007565b83901c145b61041957600080fd5b5b849350505050919050565b61042d6118f7565b82600001516000808260000151905060208101519150600082036104d15773__$7db5d2dbc3ae63372df6c39d501ad0f72a$__6308d78767846040518263ffffffff1660e01b81526004016104829190611f74565b602060405180830381865af415801561049f573d6000803e3d6000fd5b505050506040513d601f19601f820116820180604052508101906104c39190611fab565b6104cc57600080fd5b61051c565b600060208460000151516104e59190612007565b14801561051257506001610100600185604001516105039190612067565b61050d9190612007565b83901c145b61051b57600080fd5b5b84600001516000808260000151905060208101519150600082036105c05773__$7db5d2dbc3ae63372df6c39d501ad0f72a$__6308d78767846040518263ffffffff1660e01b81526004016105719190611f74565b602060405180830381865af415801561058e573d6000803e3d6000fd5b505050506040513d601f19601f820116820180604052508101906105b29190611fab565b6105bb57600080fd5b61060b565b600060208460000151516105d49190612007565b14801561060157506001610100600185604001516105f29190612067565b6105fc9190612007565b83901c145b61060a57600080fd5b5b61061d896106188a6109ea565b611020565b965050505050505092915050565b6106336118f7565b816000808260000151905060208101519150600082036106d35773__$7db5d2dbc3ae63372df6c39d501ad0f72a$__6308d78767846040518263ffffffff1660e01b81526004016106849190611f74565b602060405180830381865af41580156106a1573d6000803e3d6000fd5b505050506040513d601f19601f820116820180604052508101906106c59190611fab565b6106ce57600080fd5b61071e565b600060208460000151516106e79190612007565b14801561071457506001610100600185604001516107059190612067565b61070f9190612007565b83901c145b61071d57600080fd5b5b604051806020016040528073__$7db5d2dbc3ae63372df6c39d501ad0f72a$__637afa85538860006040518363ffffffff1660e01b8152600401610763929190612253565b600060405180830381865af4158015610780573d6000803e3d6000fd5b505050506040513d6000823e3d601f19601f820116820180604052508101906107a9919061238f565b8152509350505050919050565b6107be6118f7565b604051806020016040528073__$7db5d2dbc3ae63372df6c39d501ad0f72a$__6345caa1176040518163ffffffff1660e01b8152600401600060405180830381865af4158015610812573d6000803e3d6000fd5b505050506040513d6000823e3d601f19601f8201168201806040525081019061083b919061238f565b815250905090565b61084b6118f7565b604051806020016040528073__$7db5d2dbc3ae63372df6c39d501ad0f72a$__635fdf05d76040518163ffffffff1660e01b8152600401600060405180830381865af415801561089f573d6000803e3d6000fd5b505050506040513d6000823e3d601f19601f820116820180604052508101906108c8919061238f565b815250905090565b6108d86118f7565b604051806020016040528073__$7db5d2dbc3ae63372df6c39d501ad0f72a$__63901717d16040518163ffffffff1660e01b8152600401600060405180830381865af415801561092c573d6000803e3d6000fd5b505050506040513d6000823e3d601f19601f82011682018060405250810190610955919061238f565b815250905090565b6109656118f7565b604051806020016040528073__$7db5d2dbc3ae63372df6c39d501ad0f72a$__63a1fca2b66040518163ffffffff1660e01b8152600401600060405180830381865af41580156109b9573d6000803e3d6000fd5b505050506040513d6000823e3d601f19601f820116820180604052508101906109e2919061238f565b815250905090565b6109f26118f7565b8160000151600080826000015190506020810151915060008203610a965773__$7db5d2dbc3ae63372df6c39d501ad0f72a$__6308d78767846040518263ffffffff1660e01b8152600401610a479190611f74565b602060405180830381865af4158015610a64573d6000803e3d6000fd5b505050506040513d601f19601f82011682018060405250810190610a889190611fab565b610a9157600080fd5b610ae1565b60006020846000015151610aaa9190612007565b148015610ad75750600161010060018560400151610ac89190612067565b610ad29190612007565b83901c145b610ae057600080fd5b5b600073__$7db5d2dbc3ae63372df6c39d501ad0f72a$__63bc39804e876000015173__$7db5d2dbc3ae63372df6c39d501ad0f72a$__63bc1b392d6040518163ffffffff1660e01b8152600401600060405180830381865af4158015610b4b573d6000803e3d6000fd5b505050506040513d6000823e3d601f19601f82011682018060405250810190610b74919061238f565b60006040518463ffffffff1660e01b8152600401610b94939291906123e7565b602060405180830381865af4158015610bb1573d6000803e3d6000fd5b505050506040513d601f19601f82011682018060405250810190610bd59190612462565b03610c15576040517f08c379a0000000000000000000000000000000000000000000000000000000008152600401610c0c906124ec565b60405180910390fd5b610d9373__$7db5d2dbc3ae63372df6c39d501ad0f72a$__630e7671f2876000015173__$7db5d2dbc3ae63372df6c39d501ad0f72a$__630a4638fd600073__$7db5d2dbc3ae63372df6c39d501ad0f72a$__635fdf05d76040518163ffffffff1660e01b8152600401600060405180830381865af4158015610c9c573d6000803e3d6000fd5b505050506040513d6000823e3d601f19601f82011682018060405250810190610cc5919061238f565b6040518363ffffffff1660e01b8152600401610ce292919061250c565b600060405180830381865af4158015610cff573d6000803e3d6000fd5b505050506040513d6000823e3d601f19601f82011682018060405250810190610d28919061238f565b60006040518463ffffffff1660e01b8152600401610d4893929190612543565b600060405180830381865af4158015610d65573d6000803e3d6000fd5b505050506040513d6000823e3d601f19601f82011682018060405250810190610d8e919061238f565b61062b565b9350505050919050565b610da56118f7565b8260000151600080826000015190506020810151915060008203610e495773__$7db5d2dbc3ae63372df6c39d501ad0f72a$__6308d78767846040518263ffffffff1660e01b8152600401610dfa9190611f74565b602060405180830381865af4158015610e17573d6000803e3d6000fd5b505050506040513d601f19601f82011682018060405250810190610e3b9190611fab565b610e4457600080fd5b610e94565b60006020846000015151610e5d9190612007565b148015610e8a5750600161010060018560400151610e7b9190612067565b610e859190612007565b83901c145b610e9357600080fd5b5b8460000151600080826000015190506020810151915060008203610f385773__$7db5d2dbc3ae63372df6c39d501ad0f72a$__6308d78767846040518263ffffffff1660e01b8152600401610ee99190611f74565b602060405180830381865af4158015610f06573d6000803e3d6000fd5b505050506040513d601f19601f82011682018060405250810190610f2a9190611fab565b610f3357600080fd5b610f83565b60006020846000015151610f4c9190612007565b148015610f795750600161010060018560400151610f6a9190612067565b610f749190612007565b83901c145b610f8257600080fd5b5b61101273__$7db5d2dbc3ae63372df6c39d501ad0f72a$__6398cdcfb28b600001518b600001516040518363ffffffff1660e01b8152600401610fc792919061258f565b600060405180830381865af4158015610fe4573d6000803e3d6000fd5b505050506040513d6000823e3d601f19601f8201168201806040525081019061100d919061238f565b61062b565b965050505050505092915050565b6110286118f7565b82600001516000808260000151905060208101519150600082036110cc5773__$7db5d2dbc3ae63372df6c39d501ad0f72a$__6308d78767846040518263ffffffff1660e01b815260040161107d9190611f74565b602060405180830381865af415801561109a573d6000803e3d6000fd5b505050506040513d601f19601f820116820180604052508101906110be9190611fab565b6110c757600080fd5b611117565b600060208460000151516110e09190612007565b14801561110d57506001610100600185604001516110fe9190612067565b6111089190612007565b83901c145b61111657600080fd5b5b84600001516000808260000151905060208101519150600082036111bb5773__$7db5d2dbc3ae63372df6c39d501ad0f72a$__6308d78767846040518263ffffffff1660e01b815260040161116c9190611f74565b602060405180830381865af4158015611189573d6000803e3d6000fd5b505050506040513d601f19601f820116820180604052508101906111ad9190611fab565b6111b657600080fd5b611206565b600060208460000151516111cf9190612007565b1480156111fc57506001610100600185604001516111ed9190612067565b6111f79190612007565b83901c145b61120557600080fd5b5b61129873__$7db5d2dbc3ae63372df6c39d501ad0f72a$__63a5d4ca5b8b600001518b6000015160006040518463ffffffff1660e01b815260040161124d93929190612543565b600060405180830381865af415801561126a573d6000803e3d6000fd5b505050506040513d6000823e3d601f19601f82011682018060405250810190611293919061238f565b61062b565b965050505050505092915050565b6112ae6118f7565b604051806020016040528073__$7db5d2dbc3ae63372df6c39d501ad0f72a$__63bc1b392d6040518163ffffffff1660e01b8152600401600060405180830381865af4158015611302573d6000803e3d6000fd5b505050506040513d6000823e3d601f19601f8201168201806040525081019061132b919061238f565b815250905090565b600082600001516000808260000151905060208101519150600082036113d95773__$7db5d2dbc3ae63372df6c39d501ad0f72a$__6308d78767846040518263ffffffff1660e01b815260040161138a9190611f74565b602060405180830381865af41580156113a7573d6000803e3d6000fd5b505050506040513d601f19601f820116820180604052508101906113cb9190611fab565b6113d457600080fd5b611424565b600060208460000151516113ed9190612007565b14801561141a575060016101006001856040015161140b9190612067565b6114159190612007565b83901c145b61142357600080fd5b5b84600001516000808260000151905060208101519150600082036114c85773__$7db5d2dbc3ae63372df6c39d501ad0f72a$__6308d78767846040518263ffffffff1660e01b81526004016114799190611f74565b602060405180830381865af4158015611496573d6000803e3d6000fd5b505050506040513d601f19601f820116820180604052508101906114ba9190611fab565b6114c357600080fd5b611513565b600060208460000151516114dc9190612007565b14801561150957506001610100600185604001516114fa9190612067565b6115049190612007565b83901c145b61151257600080fd5b5b73__$7db5d2dbc3ae63372df6c39d501ad0f72a$__63cd8e0ef78a600001518a600001516040518363ffffffff1660e01b815260040161155492919061258f565b602060405180830381865af4158015611571573d6000803e3d6000fd5b505050506040513d601f19601f820116820180604052508101906115959190611fab565b965050505050505092915050565b6115ab611910565b60006040518060600160405290816000820180546115c8906120ca565b80601f01602080910402602001604051908101604052809291908181526020018280546115f4906120ca565b80156116415780601f1061161657610100808354040283529160200191611641565b820191906000526020600020905b81548152906001019060200180831161162457829003601f168201915b505050505081526020016001820160009054906101000a900460ff16151515158152602001600282015481525050905090565b61167c6118f7565b82600001516000808260000151905060208101519150600082036117205773__$7db5d2dbc3ae63372df6c39d501ad0f72a$__6308d78767846040518263ffffffff1660e01b81526004016116d19190611f74565b602060405180830381865af41580156116ee573d6000803e3d6000fd5b505050506040513d601f19601f820116820180604052508101906117129190611fab565b61171b57600080fd5b61176b565b600060208460000151516117349190612007565b14801561176157506001610100600185604001516117529190612067565b61175c9190612007565b83901c145b61176a57600080fd5b5b846000015160008082600001519050602081015191506000820361180f5773__$7db5d2dbc3ae63372df6c39d501ad0f72a$__6308d78767846040518263ffffffff1660e01b81526004016117c09190611f74565b602060405180830381865af41580156117dd573d6000803e3d6000fd5b505050506040513d601f19601f820116820180604052508101906118019190611fab565b61180a57600080fd5b61185a565b600060208460000151516118239190612007565b14801561185057506001610100600185604001516118419190612067565b61184b9190612007565b83901c145b61185957600080fd5b5b6118e973__$7db5d2dbc3ae63372df6c39d501ad0f72a$__630a4638fd8b600001518b600001516040518363ffffffff1660e01b815260040161189e92919061258f565b600060405180830381865af41580156118bb573d6000803e3d6000fd5b505050506040513d6000823e3d601f19601f820116820180604052508101906118e4919061238f565b61062b565b965050505050505092915050565b604051806020016040528061190a611910565b81525090565b604051806060016040528060608152602001600015158152602001600081525090565b6000604051905090565b600080fd5b600080fd5b600080fd5b6000601f19601f8301169050919050565b7f4e487b7100000000000000000000000000000000000000000000000000000000600052604160045260246000fd5b6119958261194c565b810181811067ffffffffffffffff821117156119b4576119b361195d565b5b80604052505050565b60006119c7611933565b90506119d3828261198c565b919050565b600080fd5b600080fd5b600080fd5b600067ffffffffffffffff821115611a0257611a0161195d565b5b611a0b8261194c565b9050602081019050919050565b82818337600083830152505050565b6000611a3a611a35846119e7565b6119bd565b905082815260208101848484011115611a5657611a556119e2565b5b611a61848285611a18565b509392505050565b600082601f830112611a7e57611a7d6119dd565b5b8135611a8e848260208601611a27565b91505092915050565b60008115159050919050565b611aac81611a97565b8114611ab757600080fd5b50565b600081359050611ac981611aa3565b92915050565b6000819050919050565b611ae281611acf565b8114611aed57600080fd5b50565b600081359050611aff81611ad9565b92915050565b600060608284031215611b1b57611b1a611947565b5b611b2560606119bd565b9050600082013567ffffffffffffffff811115611b4557611b446119d8565b5b611b5184828501611a69565b6000830152506020611b6584828501611aba565b6020830152506040611b7984828501611af0565b60408301525092915050565b600060208284031215611b9b57611b9a611947565b5b611ba560206119bd565b9050600082013567ffffffffffffffff811115611bc557611bc46119d8565b5b611bd184828501611b05565b60008301525092915050565b600060208284031215611bf357611bf261193d565b5b600082013567ffffffffffffffff811115611c1157611c10611942565b5b611c1d84828501611b85565b91505092915050565b600081519050919050565b600082825260208201905092915050565b60005b83811015611c60578082015181840152602081019050611c45565b60008484015250505050565b6000611c7782611c26565b611c818185611c31565b9350611c91818560208601611c42565b611c9a8161194c565b840191505092915050565b611cae81611a97565b82525050565b611cbd81611acf565b82525050565b60006060830160008301518482036000860152611ce08282611c6c565b9150506020830151611cf56020860182611ca5565b506040830151611d086040860182611cb4565b508091505092915050565b60006020830160008301518482036000860152611d308282611cc3565b9150508091505092915050565b60006020820190508181036000830152611d578184611d13565b905092915050565b60008060408385031215611d7657611d7561193d565b5b600083013567ffffffffffffffff811115611d9457611d93611942565b5b611da085828601611b85565b925050602083013567ffffffffffffffff811115611dc157611dc0611942565b5b611dcd85828601611b85565b9150509250929050565b600060208284031215611ded57611dec61193d565b5b600082013567ffffffffffffffff811115611e0b57611e0a611942565b5b611e1784828501611b05565b91505092915050565b611e2981611a97565b82525050565b6000602082019050611e446000830184611e20565b92915050565b60006060830160008301518482036000860152611e678282611c6c565b9150506020830151611e7c6020860182611ca5565b506040830151611e8f6040860182611cb4565b508091505092915050565b60006020820190508181036000830152611eb48184611e4a565b905092915050565b600082825260208201905092915050565b6000611ed882611c26565b611ee28185611ebc565b9350611ef2818560208601611c42565b611efb8161194c565b840191505092915050565b611f0f81611a97565b82525050565b611f1e81611acf565b82525050565b60006060830160008301518482036000860152611f418282611ecd565b9150506020830151611f566020860182611f06565b506040830151611f696040860182611f15565b508091505092915050565b60006020820190508181036000830152611f8e8184611f24565b905092915050565b600081519050611fa581611aa3565b92915050565b600060208284031215611fc157611fc061193d565b5b6000611fcf84828501611f96565b91505092915050565b7f4e487b7100000000000000000000000000000000000000000000000000000000600052601260045260246000fd5b600061201282611acf565b915061201d83611acf565b92508261202d5761202c611fd8565b5b828206905092915050565b7f4e487b7100000000000000000000000000000000000000000000000000000000600052601160045260246000fd5b600061207282611acf565b915061207d83611acf565b925082820390508181111561209557612094612038565b5b92915050565b7f4e487b7100000000000000000000000000000000000000000000000000000000600052602260045260246000fd5b600060028204905060018216806120e257607f821691505b6020821081036120f5576120f461209b565b5b50919050565b60008190508160005260206000209050919050565b6000815461211d816120ca565b6121278186611ebc565b9450600182166000811461214257600181146121585761218b565b60ff19831686528115156020028601935061218b565b612161856120fb565b60005b8381101561218357815481890152600182019150602081019050612164565b808801955050505b50505092915050565b60008160001c9050919050565b600060ff82169050919050565b60006121c16121bc83612194565b6121a1565b9050919050565b6000819050919050565b60006121e56121e083612194565b6121c8565b9050919050565b600060608301600080840185830360008701526122098382612110565b9250506001840154905061221c816121ae565b6122296020870182611f06565b506002840154905061223a816121d2565b6122476040870182611f15565b50819250505092915050565b6000604082019050818103600083015261226d8185611f24565b9050818103602083015261228181846121ec565b90509392505050565b600061229d612298846119e7565b6119bd565b9050828152602081018484840111156122b9576122b86119e2565b5b6122c4848285611c42565b509392505050565b600082601f8301126122e1576122e06119dd565b5b81516122f184826020860161228a565b91505092915050565b60008151905061230981611ad9565b92915050565b60006060828403121561232557612324611947565b5b61232f60606119bd565b9050600082015167ffffffffffffffff81111561234f5761234e6119d8565b5b61235b848285016122cc565b600083015250602061236f84828501611f96565b6020830152506040612383848285016122fa565b60408301525092915050565b6000602082840312156123a5576123a461193d565b5b600082015167ffffffffffffffff8111156123c3576123c2611942565b5b6123cf8482850161230f565b91505092915050565b6123e181611a97565b82525050565b600060608201905081810360008301526124018186611f24565b905081810360208301526124158185611f24565b905061242460408301846123d8565b949350505050565b6000819050919050565b61243f8161242c565b811461244a57600080fd5b50565b60008151905061245c81612436565b92915050565b6000602082840312156124785761247761193d565b5b60006124868482850161244d565b91505092915050565b600082825260208201905092915050565b7f496e766572736f206469207a65726f206e6f6e20646566696e69746f2e000000600082015250565b60006124d6601d8361248f565b91506124e1826124a0565b602082019050919050565b60006020820190508181036000830152612505816124c9565b9050919050565b6000604082019050818103600083015261252681856121ec565b9050818103602083015261253a8184611f24565b90509392505050565b6000606082019050818103600083015261255d8186611f24565b905081810360208301526125718185611f24565b9050818103604083015261258581846121ec565b9050949350505050565b600060408201905081810360008301526125a98185611f24565b905081810360208301526125bd8184611f24565b9050939250505056fea2646970667358221220b8982caff5a8b9cc6d079e0e6e5fa60071925c1a15bca8e5faa38e1ac31bba0b64736f6c634300081b0033608060405234801561001057600080fd5b506040516123a63803806123a6833981810160405281019061003291906100ed565b806000806101000a81548173ffffffffffffffffffffffffffffffffffffffff021916908373ffffffffffffffffffffffffffffffffffffffff1602179055505061011a565b600080fd5b600073ffffffffffffffffffffffffffffffffffffffff82169050919050565b60006100a88261007d565b9050919050565b60006100ba8261009d565b9050919050565b6100ca816100af565b81146100d557600080fd5b50565b6000815190506100e7816100c1565b92915050565b60006020828403121561010357610102610078565b5b6000610111848285016100d8565b91505092915050565b61227d806101296000396000f3fe608060405234801561001057600080fd5b50600436106100ea5760003560e01c8063901717d11161008c578063ab80cf7611610066578063ab80cf7614610287578063bc1b392d146102b7578063c700da6b146102d5578063fbb740a814610305576100ea565b8063901717d11461021b5780639d2e83f514610239578063a1fca2b614610269576100ea565b80635f6910d4116100c85780635f6910d41461016d5780635fdf05d71461019d57806364c044fe146101bb57806376cfdd66146101eb576100ea565b806307a5ecaa146100ef578063232b9e5a1461011f57806345caa1171461014f575b600080fd5b61010960048036038101906101049190611cb3565b610335565b6040516101169190611e86565b60405180910390f35b61013960048036038101906101349190611cb3565b61072f565b6040516101469190611e86565b60405180910390f35b610157610751565b6040516101649190611e86565b60405180910390f35b61018760048036038101906101829190611cb3565b61088e565b6040516101949190611e86565b60405180910390f35b6101a56109f8565b6040516101b29190611e86565b60405180910390f35b6101d560048036038101906101d09190611ea8565b610b35565b6040516101e29190611e86565b60405180910390f35b61020560048036038101906102009190611ef1565b61105e565b6040516102129190611e86565b60405180910390f35b610223611115565b6040516102309190611e86565b60405180910390f35b610253600480360381019061024e9190611ea8565b611252565b6040516102609190611e86565b60405180910390f35b6102716113bb565b60405161027e9190611e86565b60405180910390f35b6102a1600480360381019061029c9190611cb3565b6114f8565b6040516102ae9190611f49565b60405180910390f35b6102bf611653565b6040516102cc9190611e86565b60405180910390f35b6102ef60048036038101906102ea9190611f64565b611790565b6040516102fc9190611e86565b60405180910390f35b61031f600480360381019061031a9190611cb3565b6117b5565b60405161032c9190611e86565b60405180910390f35b61033d61191f565b61072760008054906101000a900473ffffffffffffffffffffffffffffffffffffffff1673ffffffffffffffffffffffffffffffffffffffff1663fb2bedad60008054906101000a900473ffffffffffffffffffffffffffffffffffffffff1673ffffffffffffffffffffffffffffffffffffffff1663b5e28325876000015187600001516040518363ffffffff1660e01b81526004016103df929190612006565b600060405180830381865afa1580156103fc573d6000803e3d6000fd5b505050506040513d6000823e3d601f19601f8201168201806040525081019061042591906121af565b60008054906101000a900473ffffffffffffffffffffffffffffffffffffffff1673ffffffffffffffffffffffffffffffffffffffff1663b5e28325886020015188602001516040518363ffffffff1660e01b8152600401610488929190612006565b600060405180830381865afa1580156104a5573d6000803e3d6000fd5b505050506040513d6000823e3d601f19601f820116820180604052508101906104ce91906121af565b6040518363ffffffff1660e01b81526004016104eb929190612006565b600060405180830381865afa158015610508573d6000803e3d6000fd5b505050506040513d6000823e3d601f19601f8201168201806040525081019061053191906121af565b60008054906101000a900473ffffffffffffffffffffffffffffffffffffffff1673ffffffffffffffffffffffffffffffffffffffff1663a9a52e7e60008054906101000a900473ffffffffffffffffffffffffffffffffffffffff1673ffffffffffffffffffffffffffffffffffffffff1663b5e28325886000015188602001516040518363ffffffff1660e01b81526004016105d0929190612006565b600060405180830381865afa1580156105ed573d6000803e3d6000fd5b505050506040513d6000823e3d601f19601f8201168201806040525081019061061691906121af565b60008054906101000a900473ffffffffffffffffffffffffffffffffffffffff1673ffffffffffffffffffffffffffffffffffffffff1663b5e28325896020015189600001516040518363ffffffff1660e01b8152600401610679929190612006565b600060405180830381865afa158015610696573d6000803e3d6000fd5b505050506040513d6000823e3d601f19601f820116820180604052508101906106bf91906121af565b6040518363ffffffff1660e01b81526004016106dc929190612006565b600060405180830381865afa1580156106f9573d6000803e3d6000fd5b505050506040513d6000823e3d601f19601f8201168201806040525081019061072291906121af565b611790565b905092915050565b61073761191f565b6107498361074484610b35565b610335565b905092915050565b61075961191f565b61088960008054906101000a900473ffffffffffffffffffffffffffffffffffffffff1673ffffffffffffffffffffffffffffffffffffffff166345caa1176040518163ffffffff1660e01b8152600401600060405180830381865afa1580156107c7573d6000803e3d6000fd5b505050506040513d6000823e3d601f19601f820116820180604052508101906107f091906121af565b60008054906101000a900473ffffffffffffffffffffffffffffffffffffffff1673ffffffffffffffffffffffffffffffffffffffff1663bc1b392d6040518163ffffffff1660e01b8152600401600060405180830381865afa15801561085b573d6000803e3d6000fd5b505050506040513d6000823e3d601f19601f8201168201806040525081019061088491906121af565b611790565b905090565b61089661191f565b6109f060008054906101000a900473ffffffffffffffffffffffffffffffffffffffff1673ffffffffffffffffffffffffffffffffffffffff1663fb2bedad856000015185600001516040518363ffffffff1660e01b81526004016108fc929190612006565b600060405180830381865afa158015610919573d6000803e3d6000fd5b505050506040513d6000823e3d601f19601f8201168201806040525081019061094291906121af565b60008054906101000a900473ffffffffffffffffffffffffffffffffffffffff1673ffffffffffffffffffffffffffffffffffffffff1663fb2bedad866020015186602001516040518363ffffffff1660e01b81526004016109a5929190612006565b600060405180830381865afa1580156109c2573d6000803e3d6000fd5b505050506040513d6000823e3d601f19601f820116820180604052508101906109eb91906121af565b611790565b905092915050565b610a0061191f565b610b3060008054906101000a900473ffffffffffffffffffffffffffffffffffffffff1673ffffffffffffffffffffffffffffffffffffffff16635fdf05d76040518163ffffffff1660e01b8152600401600060405180830381865afa158015610a6e573d6000803e3d6000fd5b505050506040513d6000823e3d601f19601f82011682018060405250810190610a9791906121af565b60008054906101000a900473ffffffffffffffffffffffffffffffffffffffff1673ffffffffffffffffffffffffffffffffffffffff1663bc1b392d6040518163ffffffff1660e01b8152600401600060405180830381865afa158015610b02573d6000803e3d6000fd5b505050506040513d6000823e3d601f19601f82011682018060405250810190610b2b91906121af565b611790565b905090565b610b3d61191f565b60008060009054906101000a900473ffffffffffffffffffffffffffffffffffffffff1673ffffffffffffffffffffffffffffffffffffffff1663a672d10060008054906101000a900473ffffffffffffffffffffffffffffffffffffffff1673ffffffffffffffffffffffffffffffffffffffff1663a9a52e7e60008054906101000a900473ffffffffffffffffffffffffffffffffffffffff1673ffffffffffffffffffffffffffffffffffffffff1663b5e28325886000015189600001516040518363ffffffff1660e01b8152600401610c1b929190612006565b600060405180830381865afa158015610c38573d6000803e3d6000fd5b505050506040513d6000823e3d601f19601f82011682018060405250810190610c6191906121af565b60008054906101000a900473ffffffffffffffffffffffffffffffffffffffff1673ffffffffffffffffffffffffffffffffffffffff1663b5e2832589602001518a602001516040518363ffffffff1660e01b8152600401610cc4929190612006565b600060405180830381865afa158015610ce1573d6000803e3d6000fd5b505050506040513d6000823e3d601f19601f82011682018060405250810190610d0a91906121af565b6040518363ffffffff1660e01b8152600401610d27929190612006565b600060405180830381865afa158015610d44573d6000803e3d6000fd5b505050506040513d6000823e3d601f19601f82011682018060405250810190610d6d91906121af565b6040518263ffffffff1660e01b8152600401610d8991906121f8565b600060405180830381865afa158015610da6573d6000803e3d6000fd5b505050506040513d6000823e3d601f19601f82011682018060405250810190610dcf91906121af565b905061105660008054906101000a900473ffffffffffffffffffffffffffffffffffffffff1673ffffffffffffffffffffffffffffffffffffffff1663b5e283258560000151846040518363ffffffff1660e01b8152600401610e33929190612006565b600060405180830381865afa158015610e50573d6000803e3d6000fd5b505050506040513d6000823e3d601f19601f82011682018060405250810190610e7991906121af565b60008054906101000a900473ffffffffffffffffffffffffffffffffffffffff1673ffffffffffffffffffffffffffffffffffffffff1663b5e2832560008054906101000a900473ffffffffffffffffffffffffffffffffffffffff1673ffffffffffffffffffffffffffffffffffffffff1663fb2bedad60008054906101000a900473ffffffffffffffffffffffffffffffffffffffff1673ffffffffffffffffffffffffffffffffffffffff1663bc1b392d6040518163ffffffff1660e01b8152600401600060405180830381865afa158015610f5c573d6000803e3d6000fd5b505050506040513d6000823e3d601f19601f82011682018060405250810190610f8591906121af565b89602001516040518363ffffffff1660e01b8152600401610fa7929190612006565b600060405180830381865afa158015610fc4573d6000803e3d6000fd5b505050506040513d6000823e3d601f19601f82011682018060405250810190610fed91906121af565b856040518363ffffffff1660e01b815260040161100b929190612006565b600060405180830381865afa158015611028573d6000803e3d6000fd5b505050506040513d6000823e3d601f19601f8201168201806040525081019061105191906121af565b611790565b915050919050565b61106661191f565b604051806040016040528083815260200160008054906101000a900473ffffffffffffffffffffffffffffffffffffffff1673ffffffffffffffffffffffffffffffffffffffff1663bc1b392d6040518163ffffffff1660e01b8152600401600060405180830381865afa1580156110e2573d6000803e3d6000fd5b505050506040513d6000823e3d601f19601f8201168201806040525081019061110b91906121af565b8152509050919050565b61111d61191f565b61124d60008054906101000a900473ffffffffffffffffffffffffffffffffffffffff1673ffffffffffffffffffffffffffffffffffffffff1663901717d16040518163ffffffff1660e01b8152600401600060405180830381865afa15801561118b573d6000803e3d6000fd5b505050506040513d6000823e3d601f19601f820116820180604052508101906111b491906121af565b60008054906101000a900473ffffffffffffffffffffffffffffffffffffffff1673ffffffffffffffffffffffffffffffffffffffff1663bc1b392d6040518163ffffffff1660e01b8152600401600060405180830381865afa15801561121f573d6000803e3d6000fd5b505050506040513d6000823e3d601f19601f8201168201806040525081019061124891906121af565b611790565b905090565b61125a61191f565b6113b460008054906101000a900473ffffffffffffffffffffffffffffffffffffffff1673ffffffffffffffffffffffffffffffffffffffff1663a9a52e7e846000015185602001516040518363ffffffff1660e01b81526004016112c0929190612006565b600060405180830381865afa1580156112dd573d6000803e3d6000fd5b505050506040513d6000823e3d601f19601f8201168201806040525081019061130691906121af565b60008054906101000a900473ffffffffffffffffffffffffffffffffffffffff1673ffffffffffffffffffffffffffffffffffffffff1663fb2bedad856000015186602001516040518363ffffffff1660e01b8152600401611369929190612006565b600060405180830381865afa158015611386573d6000803e3d6000fd5b505050506040513d6000823e3d601f19601f820116820180604052508101906113af91906121af565b611790565b9050919050565b6113c361191f565b6114f360008054906101000a900473ffffffffffffffffffffffffffffffffffffffff1673ffffffffffffffffffffffffffffffffffffffff1663a1fca2b66040518163ffffffff1660e01b8152600401600060405180830381865afa158015611431573d6000803e3d6000fd5b505050506040513d6000823e3d601f19601f8201168201806040525081019061145a91906121af565b60008054906101000a900473ffffffffffffffffffffffffffffffffffffffff1673ffffffffffffffffffffffffffffffffffffffff1663bc1b392d6040518163ffffffff1660e01b8152600401600060405180830381865afa1580156114c5573d6000803e3d6000fd5b505050506040513d6000823e3d601f19601f820116820180604052508101906114ee91906121af565b611790565b905090565b60008060009054906101000a900473ffffffffffffffffffffffffffffffffffffffff1673ffffffffffffffffffffffffffffffffffffffff1663d4d45554846000015184600001516040518363ffffffff1660e01b815260040161155e929190612006565b602060405180830381865afa15801561157b573d6000803e3d6000fd5b505050506040513d601f19601f8201168201806040525081019061159f919061221a565b801561164b575060008054906101000a900473ffffffffffffffffffffffffffffffffffffffff1673ffffffffffffffffffffffffffffffffffffffff1663d4d45554846020015184602001516040518363ffffffff1660e01b8152600401611609929190612006565b602060405180830381865afa158015611626573d6000803e3d6000fd5b505050506040513d601f19601f8201168201806040525081019061164a919061221a565b5b905092915050565b61165b61191f565b61178b60008054906101000a900473ffffffffffffffffffffffffffffffffffffffff1673ffffffffffffffffffffffffffffffffffffffff1663bc1b392d6040518163ffffffff1660e01b8152600401600060405180830381865afa1580156116c9573d6000803e3d6000fd5b505050506040513d6000823e3d601f19601f820116820180604052508101906116f291906121af565b60008054906101000a900473ffffffffffffffffffffffffffffffffffffffff1673ffffffffffffffffffffffffffffffffffffffff1663bc1b392d6040518163ffffffff1660e01b8152600401600060405180830381865afa15801561175d573d6000803e3d6000fd5b505050506040513d6000823e3d601f19601f8201168201806040525081019061178691906121af565b611790565b905090565b61179861191f565b604051806040016040528084815260200183815250905092915050565b6117bd61191f565b61191760008054906101000a900473ffffffffffffffffffffffffffffffffffffffff1673ffffffffffffffffffffffffffffffffffffffff1663a9a52e7e856000015185600001516040518363ffffffff1660e01b8152600401611823929190612006565b600060405180830381865afa158015611840573d6000803e3d6000fd5b505050506040513d6000823e3d601f19601f8201168201806040525081019061186991906121af565b60008054906101000a900473ffffffffffffffffffffffffffffffffffffffff1673ffffffffffffffffffffffffffffffffffffffff1663a9a52e7e866020015186602001516040518363ffffffff1660e01b81526004016118cc929190612006565b600060405180830381865afa1580156118e9573d6000803e3d6000fd5b505050506040513d6000823e3d601f19601f8201168201806040525081019061191291906121af565b611790565b905092915050565b6040518060400160405280611932611945565b815260200161193f611945565b81525090565b604051806020016040528061195861195e565b81525090565b604051806060016040528060608152602001600015158152602001600081525090565b6000604051905090565b600080fd5b600080fd5b600080fd5b6000601f19601f8301169050919050565b7f4e487b7100000000000000000000000000000000000000000000000000000000600052604160045260246000fd5b6119e38261199a565b810181811067ffffffffffffffff82111715611a0257611a016119ab565b5b80604052505050565b6000611a15611981565b9050611a2182826119da565b919050565b600080fd5b600080fd5b600080fd5b600067ffffffffffffffff821115611a5057611a4f6119ab565b5b611a598261199a565b9050602081019050919050565b82818337600083830152505050565b6000611a88611a8384611a35565b611a0b565b905082815260208101848484011115611aa457611aa3611a30565b5b611aaf848285611a66565b509392505050565b600082601f830112611acc57611acb611a2b565b5b8135611adc848260208601611a75565b91505092915050565b60008115159050919050565b611afa81611ae5565b8114611b0557600080fd5b50565b600081359050611b1781611af1565b92915050565b6000819050919050565b611b3081611b1d565b8114611b3b57600080fd5b50565b600081359050611b4d81611b27565b92915050565b600060608284031215611b6957611b68611995565b5b611b736060611a0b565b9050600082013567ffffffffffffffff811115611b9357611b92611a26565b5b611b9f84828501611ab7565b6000830152506020611bb384828501611b08565b6020830152506040611bc784828501611b3e565b60408301525092915050565b600060208284031215611be957611be8611995565b5b611bf36020611a0b565b9050600082013567ffffffffffffffff811115611c1357611c12611a26565b5b611c1f84828501611b53565b60008301525092915050565b600060408284031215611c4157611c40611995565b5b611c4b6040611a0b565b9050600082013567ffffffffffffffff811115611c6b57611c6a611a26565b5b611c7784828501611bd3565b600083015250602082013567ffffffffffffffff811115611c9b57611c9a611a26565b5b611ca784828501611bd3565b60208301525092915050565b60008060408385031215611cca57611cc961198b565b5b600083013567ffffffffffffffff811115611ce857611ce7611990565b5b611cf485828601611c2b565b925050602083013567ffffffffffffffff811115611d1557611d14611990565b5b611d2185828601611c2b565b9150509250929050565b600081519050919050565b600082825260208201905092915050565b60005b83811015611d65578082015181840152602081019050611d4a565b60008484015250505050565b6000611d7c82611d2b565b611d868185611d36565b9350611d96818560208601611d47565b611d9f8161199a565b840191505092915050565b611db381611ae5565b82525050565b611dc281611b1d565b82525050565b60006060830160008301518482036000860152611de58282611d71565b9150506020830151611dfa6020860182611daa565b506040830151611e0d6040860182611db9565b508091505092915050565b60006020830160008301518482036000860152611e358282611dc8565b9150508091505092915050565b60006040830160008301518482036000860152611e5f8282611e18565b91505060208301518482036020860152611e798282611e18565b9150508091505092915050565b60006020820190508181036000830152611ea08184611e42565b905092915050565b600060208284031215611ebe57611ebd61198b565b5b600082013567ffffffffffffffff811115611edc57611edb611990565b5b611ee884828501611c2b565b91505092915050565b600060208284031215611f0757611f0661198b565b5b600082013567ffffffffffffffff811115611f2557611f24611990565b5b611f3184828501611bd3565b91505092915050565b611f4381611ae5565b82525050565b6000602082019050611f5e6000830184611f3a565b92915050565b60008060408385031215611f7b57611f7a61198b565b5b600083013567ffffffffffffffff811115611f9957611f98611990565b5b611fa585828601611bd3565b925050602083013567ffffffffffffffff811115611fc657611fc5611990565b5b611fd285828601611bd3565b9150509250929050565b60006020830160008301518482036000860152611ff98282611dc8565b9150508091505092915050565b600060408201905081810360008301526120208185611fdc565b905081810360208301526120348184611fdc565b90509392505050565b600061205061204b84611a35565b611a0b565b90508281526020810184848401111561206c5761206b611a30565b5b612077848285611d47565b509392505050565b600082601f83011261209457612093611a2b565b5b81516120a484826020860161203d565b91505092915050565b6000815190506120bc81611af1565b92915050565b6000815190506120d181611b27565b92915050565b6000606082840312156120ed576120ec611995565b5b6120f76060611a0b565b9050600082015167ffffffffffffffff81111561211757612116611a26565b5b6121238482850161207f565b6000830152506020612137848285016120ad565b602083015250604061214b848285016120c2565b60408301525092915050565b60006020828403121561216d5761216c611995565b5b6121776020611a0b565b9050600082015167ffffffffffffffff81111561219757612196611a26565b5b6121a3848285016120d7565b60008301525092915050565b6000602082840312156121c5576121c461198b565b5b600082015167ffffffffffffffff8111156121e3576121e2611990565b5b6121ef84828501612157565b91505092915050565b600060208201905081810360008301526122128184611fdc565b905092915050565b6000602082840312156122305761222f61198b565b5b600061223e848285016120ad565b9150509291505056fea2646970667358221220112bdaf484a263548f5592ac1625867099f1f07492be6873cd200d2481416aaa64736f6c634300081b0033608060405234801561001057600080fd5b50604051613b10380380613b10833981810160405281019061003291906100ed565b806000806101000a81548173ffffffffffffffffffffffffffffffffffffffff021916908373ffffffffffffffffffffffffffffffffffffffff1602179055505061011a565b600080fd5b600073ffffffffffffffffffffffffffffffffffffffff82169050919050565b60006100a88261007d565b9050919050565b60006100ba8261009d565b9050919050565b6100ca816100af565b81146100d557600080fd5b50565b6000815190506100e7816100c1565b92915050565b60006020828403121561010357610102610078565b5b6000610111848285016100d8565b91505092915050565b6139e7806101296000396000f3fe608060405234801561001057600080fd5b50600436106100ea5760003560e01c8063a03823051161008c578063ba510cc311610066578063ba510cc314610287578063bc1b392d146102b7578063d6ba3d6d146102d5578063f7052ed614610305576100ea565b8063a038230514610209578063a1fca2b614610239578063b52ab3b114610257576100ea565b806376cfdd66116100c857806376cfdd661461015b5780637e2892801461018b578063901717d1146101bb5780639faceb7e146101d9576100ea565b806345caa117146100ef5780634aa28cb51461010d5780635fdf05d71461013d575b600080fd5b6100f7610335565b6040516101049190613098565b60405180910390f35b6101276004803603810190610122919061347d565b610506565b6040516101349190613098565b60405180910390f35b610145611028565b6040516101529190613098565b60405180910390f35b610175600480360381019061017091906134f5565b6111f9565b6040516101829190613098565b60405180910390f35b6101a560048036038101906101a0919061347d565b6113e7565b6040516101b29190613098565b60405180910390f35b6101c36115fa565b6040516101d09190613098565b60405180910390f35b6101f360048036038101906101ee919061353e565b6117cb565b6040516102009190613098565b60405180910390f35b610223600480360381019061021e919061347d565b6117f7565b60405161023091906135f4565b60405180910390f35b6102416119fe565b60405161024e9190613098565b60405180910390f35b610271600480360381019061026c919061360f565b611bcf565b60405161027e9190613098565b60405180910390f35b6102a1600480360381019061029c919061347d565b611c93565b6040516102ae9190613098565b60405180910390f35b6102bf611cb5565b6040516102cc9190613098565b60405180910390f35b6102ef60048036038101906102ea919061360f565b611e86565b6040516102fc9190613098565b60405180910390f35b61031f600480360381019061031a919061347d565b612c10565b60405161032c9190613098565b60405180910390f35b61033d612e23565b61050160008054906101000a900473ffffffffffffffffffffffffffffffffffffffff1673ffffffffffffffffffffffffffffffffffffffff166345caa1176040518163ffffffff1660e01b8152600401600060405180830381865afa1580156103ab573d6000803e3d6000fd5b505050506040513d6000823e3d601f19601f820116820180604052508101906103d49190613852565b60008054906101000a900473ffffffffffffffffffffffffffffffffffffffff1673ffffffffffffffffffffffffffffffffffffffff1663bc1b392d6040518163ffffffff1660e01b8152600401600060405180830381865afa15801561043f573d6000803e3d6000fd5b505050506040513d6000823e3d601f19601f820116820180604052508101906104689190613852565b60008054906101000a900473ffffffffffffffffffffffffffffffffffffffff1673ffffffffffffffffffffffffffffffffffffffff1663bc1b392d6040518163ffffffff1660e01b8152600401600060405180830381865afa1580156104d3573d6000803e3d6000fd5b505050506040513d6000823e3d601f19601f820116820180604052508101906104fc9190613852565b6117cb565b905090565b61050e612e23565b60008060009054906101000a900473ffffffffffffffffffffffffffffffffffffffff1673ffffffffffffffffffffffffffffffffffffffff166307a5ecaa856000015185600001516040518363ffffffff1660e01b81526004016105749291906138df565b600060405180830381865afa158015610591573d6000803e3d6000fd5b505050506040513d6000823e3d601f19601f820116820180604052508101906105ba9190613852565b905060008060009054906101000a900473ffffffffffffffffffffffffffffffffffffffff1673ffffffffffffffffffffffffffffffffffffffff1663fbb740a860008054906101000a900473ffffffffffffffffffffffffffffffffffffffff1673ffffffffffffffffffffffffffffffffffffffff166307a5ecaa886000015188602001516040518363ffffffff1660e01b815260040161065e9291906138df565b600060405180830381865afa15801561067b573d6000803e3d6000fd5b505050506040513d6000823e3d601f19601f820116820180604052508101906106a49190613852565b60008054906101000a900473ffffffffffffffffffffffffffffffffffffffff1673ffffffffffffffffffffffffffffffffffffffff166307a5ecaa896020015189600001516040518363ffffffff1660e01b81526004016107079291906138df565b600060405180830381865afa158015610724573d6000803e3d6000fd5b505050506040513d6000823e3d601f19601f8201168201806040525081019061074d9190613852565b6040518363ffffffff1660e01b815260040161076a9291906138df565b600060405180830381865afa158015610787573d6000803e3d6000fd5b505050506040513d6000823e3d601f19601f820116820180604052508101906107b09190613852565b905060008060009054906101000a900473ffffffffffffffffffffffffffffffffffffffff1673ffffffffffffffffffffffffffffffffffffffff1663fbb740a860008054906101000a900473ffffffffffffffffffffffffffffffffffffffff1673ffffffffffffffffffffffffffffffffffffffff1663fbb740a860008054906101000a900473ffffffffffffffffffffffffffffffffffffffff1673ffffffffffffffffffffffffffffffffffffffff166307a5ecaa8b600001518b604001516040518363ffffffff1660e01b81526004016108909291906138df565b600060405180830381865afa1580156108ad573d6000803e3d6000fd5b505050506040513d6000823e3d601f19601f820116820180604052508101906108d69190613852565b60008054906101000a900473ffffffffffffffffffffffffffffffffffffffff1673ffffffffffffffffffffffffffffffffffffffff166307a5ecaa8c602001518c602001516040518363ffffffff1660e01b81526004016109399291906138df565b600060405180830381865afa158015610956573d6000803e3d6000fd5b505050506040513d6000823e3d601f19601f8201168201806040525081019061097f9190613852565b6040518363ffffffff1660e01b815260040161099c9291906138df565b600060405180830381865afa1580156109b9573d6000803e3d6000fd5b505050506040513d6000823e3d601f19601f820116820180604052508101906109e29190613852565b60008054906101000a900473ffffffffffffffffffffffffffffffffffffffff1673ffffffffffffffffffffffffffffffffffffffff166307a5ecaa8a604001518a600001516040518363ffffffff1660e01b8152600401610a459291906138df565b600060405180830381865afa158015610a62573d6000803e3d6000fd5b505050506040513d6000823e3d601f19601f82011682018060405250810190610a8b9190613852565b6040518363ffffffff1660e01b8152600401610aa89291906138df565b600060405180830381865afa158015610ac5573d6000803e3d6000fd5b505050506040513d6000823e3d601f19601f82011682018060405250810190610aee9190613852565b905060008060009054906101000a900473ffffffffffffffffffffffffffffffffffffffff1673ffffffffffffffffffffffffffffffffffffffff16639d2e83f560008054906101000a900473ffffffffffffffffffffffffffffffffffffffff1673ffffffffffffffffffffffffffffffffffffffff1663fbb740a860008054906101000a900473ffffffffffffffffffffffffffffffffffffffff1673ffffffffffffffffffffffffffffffffffffffff166307a5ecaa8c602001518c604001516040518363ffffffff1660e01b8152600401610bce9291906138df565b600060405180830381865afa158015610beb573d6000803e3d6000fd5b505050506040513d6000823e3d601f19601f82011682018060405250810190610c149190613852565b60008054906101000a900473ffffffffffffffffffffffffffffffffffffffff1673ffffffffffffffffffffffffffffffffffffffff166307a5ecaa8d604001518d602001516040518363ffffffff1660e01b8152600401610c779291906138df565b600060405180830381865afa158015610c94573d6000803e3d6000fd5b505050506040513d6000823e3d601f19601f82011682018060405250810190610cbd9190613852565b6040518363ffffffff1660e01b8152600401610cda9291906138df565b600060405180830381865afa158015610cf7573d6000803e3d6000fd5b505050506040513d6000823e3d601f19601f82011682018060405250810190610d209190613852565b6040518263ffffffff1660e01b8152600401610d3c9190613916565b600060405180830381865afa158015610d59573d6000803e3d6000fd5b505050506040513d6000823e3d601f19601f82011682018060405250810190610d829190613852565b905060008060009054906101000a900473ffffffffffffffffffffffffffffffffffffffff1673ffffffffffffffffffffffffffffffffffffffff16639d2e83f560008054906101000a900473ffffffffffffffffffffffffffffffffffffffff1673ffffffffffffffffffffffffffffffffffffffff166307a5ecaa8b604001518b604001516040518363ffffffff1660e01b8152600401610e269291906138df565b600060405180830381865afa158015610e43573d6000803e3d6000fd5b505050506040513d6000823e3d601f19601f82011682018060405250810190610e6c9190613852565b6040518263ffffffff1660e01b8152600401610e889190613916565b600060405180830381865afa158015610ea5573d6000803e3d6000fd5b505050506040513d6000823e3d601f19601f82011682018060405250810190610ece9190613852565b905061101b60008054906101000a900473ffffffffffffffffffffffffffffffffffffffff1673ffffffffffffffffffffffffffffffffffffffff1663fbb740a887856040518363ffffffff1660e01b8152600401610f2e9291906138df565b600060405180830381865afa158015610f4b573d6000803e3d6000fd5b505050506040513d6000823e3d601f19601f82011682018060405250810190610f749190613852565b60008054906101000a900473ffffffffffffffffffffffffffffffffffffffff1673ffffffffffffffffffffffffffffffffffffffff1663fbb740a887856040518363ffffffff1660e01b8152600401610fcf9291906138df565b600060405180830381865afa158015610fec573d6000803e3d6000fd5b505050506040513d6000823e3d601f19601f820116820180604052508101906110159190613852565b856117cb565b9550505050505092915050565b611030612e23565b6111f460008054906101000a900473ffffffffffffffffffffffffffffffffffffffff1673ffffffffffffffffffffffffffffffffffffffff16635fdf05d76040518163ffffffff1660e01b8152600401600060405180830381865afa15801561109e573d6000803e3d6000fd5b505050506040513d6000823e3d601f19601f820116820180604052508101906110c79190613852565b60008054906101000a900473ffffffffffffffffffffffffffffffffffffffff1673ffffffffffffffffffffffffffffffffffffffff1663bc1b392d6040518163ffffffff1660e01b8152600401600060405180830381865afa158015611132573d6000803e3d6000fd5b505050506040513d6000823e3d601f19601f8201168201806040525081019061115b9190613852565b60008054906101000a900473ffffffffffffffffffffffffffffffffffffffff1673ffffffffffffffffffffffffffffffffffffffff1663bc1b392d6040518163ffffffff1660e01b8152600401600060405180830381865afa1580156111c6573d6000803e3d6000fd5b505050506040513d6000823e3d601f19601f820116820180604052508101906111ef9190613852565b6117cb565b905090565b611201612e23565b604051806060016040528060008054906101000a900473ffffffffffffffffffffffffffffffffffffffff1673ffffffffffffffffffffffffffffffffffffffff166376cfdd66856040518263ffffffff1660e01b81526004016112659190613962565b600060405180830381865afa158015611282573d6000803e3d6000fd5b505050506040513d6000823e3d601f19601f820116820180604052508101906112ab9190613852565b815260200160008054906101000a900473ffffffffffffffffffffffffffffffffffffffff1673ffffffffffffffffffffffffffffffffffffffff1663bc1b392d6040518163ffffffff1660e01b8152600401600060405180830381865afa15801561131b573d6000803e3d6000fd5b505050506040513d6000823e3d601f19601f820116820180604052508101906113449190613852565b815260200160008054906101000a900473ffffffffffffffffffffffffffffffffffffffff1673ffffffffffffffffffffffffffffffffffffffff1663bc1b392d6040518163ffffffff1660e01b8152600401600060405180830381865afa1580156113b4573d6000803e3d6000fd5b505050506040513d6000823e3d601f19601f820116820180604052508101906113dd9190613852565b8152509050919050565b6113ef612e23565b6115f260008054906101000a900473ffffffffffffffffffffffffffffffffffffffff1673ffffffffffffffffffffffffffffffffffffffff1663fbb740a8856000015185600001516040518363ffffffff1660e01b81526004016114559291906138df565b600060405180830381865afa158015611472573d6000803e3d6000fd5b505050506040513d6000823e3d601f19601f8201168201806040525081019061149b9190613852565b60008054906101000a900473ffffffffffffffffffffffffffffffffffffffff1673ffffffffffffffffffffffffffffffffffffffff1663fbb740a8866020015186602001516040518363ffffffff1660e01b81526004016114fe9291906138df565b600060405180830381865afa15801561151b573d6000803e3d6000fd5b505050506040513d6000823e3d601f19601f820116820180604052508101906115449190613852565b60008054906101000a900473ffffffffffffffffffffffffffffffffffffffff1673ffffffffffffffffffffffffffffffffffffffff1663fbb740a8876040015187604001516040518363ffffffff1660e01b81526004016115a79291906138df565b600060405180830381865afa1580156115c4573d6000803e3d6000fd5b505050506040513d6000823e3d601f19601f820116820180604052508101906115ed9190613852565b6117cb565b905092915050565b611602612e23565b6117c660008054906101000a900473ffffffffffffffffffffffffffffffffffffffff1673ffffffffffffffffffffffffffffffffffffffff1663901717d16040518163ffffffff1660e01b8152600401600060405180830381865afa158015611670573d6000803e3d6000fd5b505050506040513d6000823e3d601f19601f820116820180604052508101906116999190613852565b60008054906101000a900473ffffffffffffffffffffffffffffffffffffffff1673ffffffffffffffffffffffffffffffffffffffff1663bc1b392d6040518163ffffffff1660e01b8152600401600060405180830381865afa158015611704573d6000803e3d6000fd5b505050506040513d6000823e3d601f19601f8201168201806040525081019061172d9190613852565b60008054906101000a900473ffffffffffffffffffffffffffffffffffffffff1673ffffffffffffffffffffffffffffffffffffffff1663bc1b392d6040518163ffffffff1660e01b8152600401600060405180830381865afa158015611798573d6000803e3d6000fd5b505050506040513d6000823e3d601f19601f820116820180604052508101906117c19190613852565b6117cb565b905090565b6117d3612e23565b60405180606001604052808581526020018481526020018381525090509392505050565b60008060009054906101000a900473ffffffffffffffffffffffffffffffffffffffff1673ffffffffffffffffffffffffffffffffffffffff1663ab80cf76846000015184600001516040518363ffffffff1660e01b815260040161185d9291906138df565b602060405180830381865afa15801561187a573d6000803e3d6000fd5b505050506040513d601f19601f8201168201806040525081019061189e9190613984565b801561194a575060008054906101000a900473ffffffffffffffffffffffffffffffffffffffff1673ffffffffffffffffffffffffffffffffffffffff1663ab80cf76846020015184602001516040518363ffffffff1660e01b81526004016119089291906138df565b602060405180830381865afa158015611925573d6000803e3d6000fd5b505050506040513d601f19601f820116820180604052508101906119499190613984565b5b80156119f6575060008054906101000a900473ffffffffffffffffffffffffffffffffffffffff1673ffffffffffffffffffffffffffffffffffffffff1663ab80cf76846040015184604001516040518363ffffffff1660e01b81526004016119b49291906138df565b602060405180830381865afa1580156119d1573d6000803e3d6000fd5b505050506040513d601f19601f820116820180604052508101906119f59190613984565b5b905092915050565b611a06612e23565b611bca60008054906101000a900473ffffffffffffffffffffffffffffffffffffffff1673ffffffffffffffffffffffffffffffffffffffff1663a1fca2b66040518163ffffffff1660e01b8152600401600060405180830381865afa158015611a74573d6000803e3d6000fd5b505050506040513d6000823e3d601f19601f82011682018060405250810190611a9d9190613852565b60008054906101000a900473ffffffffffffffffffffffffffffffffffffffff1673ffffffffffffffffffffffffffffffffffffffff1663bc1b392d6040518163ffffffff1660e01b8152600401600060405180830381865afa158015611b08573d6000803e3d6000fd5b505050506040513d6000823e3d601f19601f82011682018060405250810190611b319190613852565b60008054906101000a900473ffffffffffffffffffffffffffffffffffffffff1673ffffffffffffffffffffffffffffffffffffffff1663bc1b392d6040518163ffffffff1660e01b8152600401600060405180830381865afa158015611b9c573d6000803e3d6000fd5b505050506040513d6000823e3d601f19601f82011682018060405250810190611bc59190613852565b6117cb565b905090565b611bd7612e23565b611c8c60008054906101000a900473ffffffffffffffffffffffffffffffffffffffff1673ffffffffffffffffffffffffffffffffffffffff16639d2e83f584604001516040518263ffffffff1660e01b8152600401611c379190613916565b600060405180830381865afa158015611c54573d6000803e3d6000fd5b505050506040513d6000823e3d601f19601f82011682018060405250810190611c7d9190613852565b836000015184602001516117cb565b9050919050565b611c9b612e23565b611cad83611ca884611e86565b610506565b905092915050565b611cbd612e23565b611e8160008054906101000a900473ffffffffffffffffffffffffffffffffffffffff1673ffffffffffffffffffffffffffffffffffffffff1663bc1b392d6040518163ffffffff1660e01b8152600401600060405180830381865afa158015611d2b573d6000803e3d6000fd5b505050506040513d6000823e3d601f19601f82011682018060405250810190611d549190613852565b60008054906101000a900473ffffffffffffffffffffffffffffffffffffffff1673ffffffffffffffffffffffffffffffffffffffff1663bc1b392d6040518163ffffffff1660e01b8152600401600060405180830381865afa158015611dbf573d6000803e3d6000fd5b505050506040513d6000823e3d601f19601f82011682018060405250810190611de89190613852565b60008054906101000a900473ffffffffffffffffffffffffffffffffffffffff1673ffffffffffffffffffffffffffffffffffffffff1663bc1b392d6040518163ffffffff1660e01b8152600401600060405180830381865afa158015611e53573d6000803e3d6000fd5b505050506040513d6000823e3d601f19601f82011682018060405250810190611e7c9190613852565b6117cb565b905090565b611e8e612e23565b60008060009054906101000a900473ffffffffffffffffffffffffffffffffffffffff1673ffffffffffffffffffffffffffffffffffffffff16635f6910d460008054906101000a900473ffffffffffffffffffffffffffffffffffffffff1673ffffffffffffffffffffffffffffffffffffffff166307a5ecaa866000015187600001516040518363ffffffff1660e01b8152600401611f309291906138df565b600060405180830381865afa158015611f4d573d6000803e3d6000fd5b505050506040513d6000823e3d601f19601f82011682018060405250810190611f769190613852565b60008054906101000a900473ffffffffffffffffffffffffffffffffffffffff1673ffffffffffffffffffffffffffffffffffffffff16639d2e83f560008054906101000a900473ffffffffffffffffffffffffffffffffffffffff1673ffffffffffffffffffffffffffffffffffffffff166307a5ecaa89602001518a604001516040518363ffffffff1660e01b81526004016120159291906138df565b600060405180830381865afa158015612032573d6000803e3d6000fd5b505050506040513d6000823e3d601f19601f8201168201806040525081019061205b9190613852565b6040518263ffffffff1660e01b81526004016120779190613916565b600060405180830381865afa158015612094573d6000803e3d6000fd5b505050506040513d6000823e3d601f19601f820116820180604052508101906120bd9190613852565b6040518363ffffffff1660e01b81526004016120da9291906138df565b600060405180830381865afa1580156120f7573d6000803e3d6000fd5b505050506040513d6000823e3d601f19601f820116820180604052508101906121209190613852565b905060008060009054906101000a900473ffffffffffffffffffffffffffffffffffffffff1673ffffffffffffffffffffffffffffffffffffffff16635f6910d460008054906101000a900473ffffffffffffffffffffffffffffffffffffffff1673ffffffffffffffffffffffffffffffffffffffff16639d2e83f560008054906101000a900473ffffffffffffffffffffffffffffffffffffffff1673ffffffffffffffffffffffffffffffffffffffff166307a5ecaa89604001518a604001516040518363ffffffff1660e01b81526004016122009291906138df565b600060405180830381865afa15801561221d573d6000803e3d6000fd5b505050506040513d6000823e3d601f19601f820116820180604052508101906122469190613852565b6040518263ffffffff1660e01b81526004016122629190613916565b600060405180830381865afa15801561227f573d6000803e3d6000fd5b505050506040513d6000823e3d601f19601f820116820180604052508101906122a89190613852565b60008054906101000a900473ffffffffffffffffffffffffffffffffffffffff1673ffffffffffffffffffffffffffffffffffffffff166307a5ecaa886000015189602001516040518363ffffffff1660e01b815260040161230b9291906138df565b600060405180830381865afa158015612328573d6000803e3d6000fd5b505050506040513d6000823e3d601f19601f820116820180604052508101906123519190613852565b6040518363ffffffff1660e01b815260040161236e9291906138df565b600060405180830381865afa15801561238b573d6000803e3d6000fd5b505050506040513d6000823e3d601f19601f820116820180604052508101906123b49190613852565b905060008060009054906101000a900473ffffffffffffffffffffffffffffffffffffffff1673ffffffffffffffffffffffffffffffffffffffff16635f6910d460008054906101000a900473ffffffffffffffffffffffffffffffffffffffff1673ffffffffffffffffffffffffffffffffffffffff166307a5ecaa886020015189602001516040518363ffffffff1660e01b81526004016124589291906138df565b600060405180830381865afa158015612475573d6000803e3d6000fd5b505050506040513d6000823e3d601f19601f8201168201806040525081019061249e9190613852565b60008054906101000a900473ffffffffffffffffffffffffffffffffffffffff1673ffffffffffffffffffffffffffffffffffffffff166307a5ecaa89600001518a604001516040518363ffffffff1660e01b81526004016125019291906138df565b600060405180830381865afa15801561251e573d6000803e3d6000fd5b505050506040513d6000823e3d601f19601f820116820180604052508101906125479190613852565b6040518363ffffffff1660e01b81526004016125649291906138df565b600060405180830381865afa158015612581573d6000803e3d6000fd5b505050506040513d6000823e3d601f19601f820116820180604052508101906125aa9190613852565b905060008060009054906101000a900473ffffffffffffffffffffffffffffffffffffffff1673ffffffffffffffffffffffffffffffffffffffff1663fbb740a860008054906101000a900473ffffffffffffffffffffffffffffffffffffffff1673ffffffffffffffffffffffffffffffffffffffff1663fbb740a860008054906101000a900473ffffffffffffffffffffffffffffffffffffffff1673ffffffffffffffffffffffffffffffffffffffff166307a5ecaa8b600001518a6040518363ffffffff1660e01b81526004016126869291906138df565b600060405180830381865afa1580156126a3573d6000803e3d6000fd5b505050506040513d6000823e3d601f19601f820116820180604052508101906126cc9190613852565b60008054906101000a900473ffffffffffffffffffffffffffffffffffffffff1673ffffffffffffffffffffffffffffffffffffffff16639d2e83f560008054906101000a900473ffffffffffffffffffffffffffffffffffffffff1673ffffffffffffffffffffffffffffffffffffffff166307a5ecaa8e604001518c6040518363ffffffff1660e01b81526004016127679291906138df565b600060405180830381865afa158015612784573d6000803e3d6000fd5b505050506040513d6000823e3d601f19601f820116820180604052508101906127ad9190613852565b6040518263ffffffff1660e01b81526004016127c99190613916565b600060405180830381865afa1580156127e6573d6000803e3d6000fd5b505050506040513d6000823e3d601f19601f8201168201806040525081019061280f9190613852565b6040518363ffffffff1660e01b815260040161282c9291906138df565b600060405180830381865afa158015612849573d6000803e3d6000fd5b505050506040513d6000823e3d601f19601f820116820180604052508101906128729190613852565b60008054906101000a900473ffffffffffffffffffffffffffffffffffffffff1673ffffffffffffffffffffffffffffffffffffffff16639d2e83f560008054906101000a900473ffffffffffffffffffffffffffffffffffffffff1673ffffffffffffffffffffffffffffffffffffffff166307a5ecaa8c60200151896040518363ffffffff1660e01b815260040161290d9291906138df565b600060405180830381865afa15801561292a573d6000803e3d6000fd5b505050506040513d6000823e3d601f19601f820116820180604052508101906129539190613852565b6040518263ffffffff1660e01b815260040161296f9190613916565b600060405180830381865afa15801561298c573d6000803e3d6000fd5b505050506040513d6000823e3d601f19601f820116820180604052508101906129b59190613852565b6040518363ffffffff1660e01b81526004016129d29291906138df565b600060405180830381865afa1580156129ef573d6000803e3d6000fd5b505050506040513d6000823e3d601f19601f82011682018060405250810190612a189190613852565b9050612c0560008054906101000a900473ffffffffffffffffffffffffffffffffffffffff1673ffffffffffffffffffffffffffffffffffffffff1663232b9e5a86846040518363ffffffff1660e01b8152600401612a789291906138df565b600060405180830381865afa158015612a95573d6000803e3d6000fd5b505050506040513d6000823e3d601f19601f82011682018060405250810190612abe9190613852565b60008054906101000a900473ffffffffffffffffffffffffffffffffffffffff1673ffffffffffffffffffffffffffffffffffffffff1663232b9e5a86856040518363ffffffff1660e01b8152600401612b199291906138df565b600060405180830381865afa158015612b36573d6000803e3d6000fd5b505050506040513d6000823e3d601f19601f82011682018060405250810190612b5f9190613852565b60008054906101000a900473ffffffffffffffffffffffffffffffffffffffff1673ffffffffffffffffffffffffffffffffffffffff1663232b9e5a86866040518363ffffffff1660e01b8152600401612bba9291906138df565b600060405180830381865afa158015612bd7573d6000803e3d6000fd5b505050506040513d6000823e3d601f19601f82011682018060405250810190612c009190613852565b6117cb565b945050505050919050565b612c18612e23565b612e1b60008054906101000a900473ffffffffffffffffffffffffffffffffffffffff1673ffffffffffffffffffffffffffffffffffffffff16635f6910d4856000015185600001516040518363ffffffff1660e01b8152600401612c7e9291906138df565b600060405180830381865afa158015612c9b573d6000803e3d6000fd5b505050506040513d6000823e3d601f19601f82011682018060405250810190612cc49190613852565b60008054906101000a900473ffffffffffffffffffffffffffffffffffffffff1673ffffffffffffffffffffffffffffffffffffffff16635f6910d4866020015186602001516040518363ffffffff1660e01b8152600401612d279291906138df565b600060405180830381865afa158015612d44573d6000803e3d6000fd5b505050506040513d6000823e3d601f19601f82011682018060405250810190612d6d9190613852565b60008054906101000a900473ffffffffffffffffffffffffffffffffffffffff1673ffffffffffffffffffffffffffffffffffffffff16635f6910d4876040015187604001516040518363ffffffff1660e01b8152600401612dd09291906138df565b600060405180830381865afa158015612ded573d6000803e3d6000fd5b505050506040513d6000823e3d601f19601f82011682018060405250810190612e169190613852565b6117cb565b905092915050565b6040518060600160405280612e36612e56565b8152602001612e43612e56565b8152602001612e50612e56565b81525090565b6040518060400160405280612e69612e7c565b8152602001612e76612e7c565b81525090565b6040518060200160405280612e8f612e95565b81525090565b604051806060016040528060608152602001600015158152602001600081525090565b600081519050919050565b600082825260208201905092915050565b60005b83811015612ef2578082015181840152602081019050612ed7565b60008484015250505050565b6000601f19601f8301169050919050565b6000612f1a82612eb8565b612f248185612ec3565b9350612f34818560208601612ed4565b612f3d81612efe565b840191505092915050565b60008115159050919050565b612f5d81612f48565b82525050565b6000819050919050565b612f7681612f63565b82525050565b60006060830160008301518482036000860152612f998282612f0f565b9150506020830151612fae6020860182612f54565b506040830151612fc16040860182612f6d565b508091505092915050565b60006020830160008301518482036000860152612fe98282612f7c565b9150508091505092915050565b600060408301600083015184820360008601526130138282612fcc565b9150506020830151848203602086015261302d8282612fcc565b9150508091505092915050565b600060608301600083015184820360008601526130578282612ff6565b915050602083015184820360208601526130718282612ff6565b9150506040830151848203604086015261308b8282612ff6565b9150508091505092915050565b600060208201905081810360008301526130b2818461303a565b905092915050565b6000604051905090565b600080fd5b600080fd5b600080fd5b7f4e487b7100000000000000000000000000000000000000000000000000000000600052604160045260246000fd5b61310b82612efe565b810181811067ffffffffffffffff8211171561312a576131296130d3565b5b80604052505050565b600061313d6130ba565b90506131498282613102565b919050565b600080fd5b600080fd5b600080fd5b600067ffffffffffffffff821115613178576131776130d3565b5b61318182612efe565b9050602081019050919050565b82818337600083830152505050565b60006131b06131ab8461315d565b613133565b9050828152602081018484840111156131cc576131cb613158565b5b6131d784828561318e565b509392505050565b600082601f8301126131f4576131f3613153565b5b813561320484826020860161319d565b91505092915050565b61321681612f48565b811461322157600080fd5b50565b6000813590506132338161320d565b92915050565b61324281612f63565b811461324d57600080fd5b50565b60008135905061325f81613239565b92915050565b60006060828403121561327b5761327a6130ce565b5b6132856060613133565b9050600082013567ffffffffffffffff8111156132a5576132a461314e565b5b6132b1848285016131df565b60008301525060206132c584828501613224565b60208301525060406132d984828501613250565b60408301525092915050565b6000602082840312156132fb576132fa6130ce565b5b6133056020613133565b9050600082013567ffffffffffffffff8111156133255761332461314e565b5b61333184828501613265565b60008301525092915050565b600060408284031215613353576133526130ce565b5b61335d6040613133565b9050600082013567ffffffffffffffff81111561337d5761337c61314e565b5b613389848285016132e5565b600083015250602082013567ffffffffffffffff8111156133ad576133ac61314e565b5b6133b9848285016132e5565b60208301525092915050565b6000606082840312156133db576133da6130ce565b5b6133e56060613133565b9050600082013567ffffffffffffffff8111156134055761340461314e565b5b6134118482850161333d565b600083015250602082013567ffffffffffffffff8111156134355761343461314e565b5b6134418482850161333d565b602083015250604082013567ffffffffffffffff8111156134655761346461314e565b5b6134718482850161333d565b60408301525092915050565b60008060408385031215613494576134936130c4565b5b600083013567ffffffffffffffff8111156134b2576134b16130c9565b5b6134be858286016133c5565b925050602083013567ffffffffffffffff8111156134df576134de6130c9565b5b6134eb858286016133c5565b9150509250929050565b60006020828403121561350b5761350a6130c4565b5b600082013567ffffffffffffffff811115613529576135286130c9565b5b613535848285016132e5565b91505092915050565b600080600060608486031215613557576135566130c4565b5b600084013567ffffffffffffffff811115613575576135746130c9565b5b6135818682870161333d565b935050602084013567ffffffffffffffff8111156135a2576135a16130c9565b5b6135ae8682870161333d565b925050604084013567ffffffffffffffff8111156135cf576135ce6130c9565b5b6135db8682870161333d565b9150509250925092565b6135ee81612f48565b82525050565b600060208201905061360960008301846135e5565b92915050565b600060208284031215613625576136246130c4565b5b600082013567ffffffffffffffff811115613643576136426130c9565b5b61364f848285016133c5565b91505092915050565b600061366b6136668461315d565b613133565b90508281526020810184848401111561368757613686613158565b5b613692848285612ed4565b509392505050565b600082601f8301126136af576136ae613153565b5b81516136bf848260208601613658565b91505092915050565b6000815190506136d78161320d565b92915050565b6000815190506136ec81613239565b92915050565b600060608284031215613708576137076130ce565b5b6137126060613133565b9050600082015167ffffffffffffffff8111156137325761373161314e565b5b61373e8482850161369a565b6000830152506020613752848285016136c8565b6020830152506040613766848285016136dd565b60408301525092915050565b600060208284031215613788576137876130ce565b5b6137926020613133565b9050600082015167ffffffffffffffff8111156137b2576137b161314e565b5b6137be848285016136f2565b60008301525092915050565b6000604082840312156137e0576137df6130ce565b5b6137ea6040613133565b9050600082015167ffffffffffffffff81111561380a5761380961314e565b5b61381684828501613772565b600083015250602082015167ffffffffffffffff81111561383a5761383961314e565b5b61384684828501613772565b60208301525092915050565b600060208284031215613868576138676130c4565b5b600082015167ffffffffffffffff811115613886576138856130c9565b5b613892848285016137ca565b91505092915050565b600060408301600083015184820360008601526138b88282612fcc565b915050602083015184820360208601526138d28282612fcc565b9150508091505092915050565b600060408201905081810360008301526138f9818561389b565b9050818103602083015261390d818461389b565b90509392505050565b60006020820190508181036000830152613930818461389b565b905092915050565b600060208301600083015184820360008601526139558282612f7c565b9150508091505092915050565b6000602082019050818103600083015261397c8184613938565b905092915050565b60006020828403121561399a576139996130c4565b5b60006139a8848285016136c8565b9150509291505056fea26469706673582212204da8c2cff2111c11531ff1e9d5fcfbabe798bdc509c163632c20c950b27aaddc64736f6c634300081b0033608060405234801561001057600080fd5b506040516126e63803806126e6833981810160405281019061003291906100ed565b806000806101000a81548173ffffffffffffffffffffffffffffffffffffffff021916908373ffffffffffffffffffffffffffffffffffffffff1602179055505061011a565b600080fd5b600073ffffffffffffffffffffffffffffffffffffffff82169050919050565b60006100a88261007d565b9050919050565b60006100ba8261009d565b9050919050565b6100ca816100af565b81146100d557600080fd5b50565b6000815190506100e7816100c1565b92915050565b60006020828403121561010357610102610078565b5b6000610111848285016100d8565b91505092915050565b6125bd806101296000396000f3fe608060405234801561001057600080fd5b50600436106100b45760003560e01c80639e0ddc50116100715780639e0ddc50146101a35780639eea8ce8146101d3578063a1fca2b614610203578063bc1b392d14610221578063f67007951461023f578063f87386c31461026f576100b4565b806345caa117146100b95780635fdf05d7146100d75780636bc90c28146100f557806376cfdd661461012557806377839c6914610155578063901717d114610185575b600080fd5b6100c161029f565b6040516100ce9190611b43565b60405180910390f35b6100df6103dc565b6040516100ec9190611b43565b60405180910390f35b61010f600480360381019061010a9190611fb0565b610519565b60405161011c9190611b43565b60405180910390f35b61013f600480360381019061013a9190612028565b610683565b60405161014c9190611b43565b60405180910390f35b61016f600480360381019061016a9190611fb0565b6107d8565b60405161017c9190611b43565b60405180910390f35b61018d610c8c565b60405161019a9190611b43565b60405180910390f35b6101bd60048036038101906101b89190611fb0565b610dc9565b6040516101ca9190611b43565b60405180910390f35b6101ed60048036038101906101e89190611fb0565b610f33565b6040516101fa9190612080565b60405180910390f35b61020b61108e565b6040516102189190611b43565b60405180910390f35b6102296111cb565b6040516102369190611b43565b60405180910390f35b6102596004803603810190610254919061209b565b611308565b6040516102669190611b43565b60405180910390f35b610289600480360381019061028491906120e4565b61183f565b6040516102969190611b43565b60405180910390f35b6102a7611864565b6103d760008054906101000a900473ffffffffffffffffffffffffffffffffffffffff1673ffffffffffffffffffffffffffffffffffffffff166345caa1176040518163ffffffff1660e01b8152600401600060405180830381865afa158015610315573d6000803e3d6000fd5b505050506040513d6000823e3d601f19601f8201168201806040525081019061033e919061240e565b60008054906101000a900473ffffffffffffffffffffffffffffffffffffffff1673ffffffffffffffffffffffffffffffffffffffff1663bc1b392d6040518163ffffffff1660e01b8152600401600060405180830381865afa1580156103a9573d6000803e3d6000fd5b505050506040513d6000823e3d601f19601f820116820180604052508101906103d2919061240e565b61183f565b905090565b6103e4611864565b61051460008054906101000a900473ffffffffffffffffffffffffffffffffffffffff1673ffffffffffffffffffffffffffffffffffffffff16635fdf05d76040518163ffffffff1660e01b8152600401600060405180830381865afa158015610452573d6000803e3d6000fd5b505050506040513d6000823e3d601f19601f8201168201806040525081019061047b919061240e565b60008054906101000a900473ffffffffffffffffffffffffffffffffffffffff1673ffffffffffffffffffffffffffffffffffffffff1663bc1b392d6040518163ffffffff1660e01b8152600401600060405180830381865afa1580156104e6573d6000803e3d6000fd5b505050506040513d6000823e3d601f19601f8201168201806040525081019061050f919061240e565b61183f565b905090565b610521611864565b61067b60008054906101000a900473ffffffffffffffffffffffffffffffffffffffff1673ffffffffffffffffffffffffffffffffffffffff1663f7052ed6856000015185600001516040518363ffffffff1660e01b81526004016105879291906124b5565b600060405180830381865afa1580156105a4573d6000803e3d6000fd5b505050506040513d6000823e3d601f19601f820116820180604052508101906105cd919061240e565b60008054906101000a900473ffffffffffffffffffffffffffffffffffffffff1673ffffffffffffffffffffffffffffffffffffffff1663f7052ed6866020015186602001516040518363ffffffff1660e01b81526004016106309291906124b5565b600060405180830381865afa15801561064d573d6000803e3d6000fd5b505050506040513d6000823e3d601f19601f82011682018060405250810190610676919061240e565b61183f565b905092915050565b61068b611864565b604051806040016040528060008054906101000a900473ffffffffffffffffffffffffffffffffffffffff1673ffffffffffffffffffffffffffffffffffffffff166376cfdd66856040518263ffffffff1660e01b81526004016106ef9190612516565b600060405180830381865afa15801561070c573d6000803e3d6000fd5b505050506040513d6000823e3d601f19601f82011682018060405250810190610735919061240e565b815260200160008054906101000a900473ffffffffffffffffffffffffffffffffffffffff1673ffffffffffffffffffffffffffffffffffffffff1663bc1b392d6040518163ffffffff1660e01b8152600401600060405180830381865afa1580156107a5573d6000803e3d6000fd5b505050506040513d6000823e3d601f19601f820116820180604052508101906107ce919061240e565b8152509050919050565b6107e0611864565b60008060009054906101000a900473ffffffffffffffffffffffffffffffffffffffff1673ffffffffffffffffffffffffffffffffffffffff1663b52ab3b160008054906101000a900473ffffffffffffffffffffffffffffffffffffffff1673ffffffffffffffffffffffffffffffffffffffff16634aa28cb5876020015187602001516040518363ffffffff1660e01b81526004016108829291906124b5565b600060405180830381865afa15801561089f573d6000803e3d6000fd5b505050506040513d6000823e3d601f19601f820116820180604052508101906108c8919061240e565b6040518263ffffffff1660e01b81526004016108e49190612538565b600060405180830381865afa158015610901573d6000803e3d6000fd5b505050506040513d6000823e3d601f19601f8201168201806040525081019061092a919061240e565b905060008060009054906101000a900473ffffffffffffffffffffffffffffffffffffffff1673ffffffffffffffffffffffffffffffffffffffff16634aa28cb5866000015186600001516040518363ffffffff1660e01b81526004016109929291906124b5565b600060405180830381865afa1580156109af573d6000803e3d6000fd5b505050506040513d6000823e3d601f19601f820116820180604052508101906109d8919061240e565b905060008060009054906101000a900473ffffffffffffffffffffffffffffffffffffffff1673ffffffffffffffffffffffffffffffffffffffff16634aa28cb5876020015187600001516040518363ffffffff1660e01b8152600401610a409291906124b5565b600060405180830381865afa158015610a5d573d6000803e3d6000fd5b505050506040513d6000823e3d601f19601f82011682018060405250810190610a86919061240e565b905060008060009054906101000a900473ffffffffffffffffffffffffffffffffffffffff1673ffffffffffffffffffffffffffffffffffffffff16634aa28cb5886000015188602001516040518363ffffffff1660e01b8152600401610aee9291906124b5565b600060405180830381865afa158015610b0b573d6000803e3d6000fd5b505050506040513d6000823e3d601f19601f82011682018060405250810190610b34919061240e565b9050610c8060008054906101000a900473ffffffffffffffffffffffffffffffffffffffff1673ffffffffffffffffffffffffffffffffffffffff16637e28928086866040518363ffffffff1660e01b8152600401610b949291906124b5565b600060405180830381865afa158015610bb1573d6000803e3d6000fd5b505050506040513d6000823e3d601f19601f82011682018060405250810190610bda919061240e565b60008054906101000a900473ffffffffffffffffffffffffffffffffffffffff1673ffffffffffffffffffffffffffffffffffffffff16637e28928085856040518363ffffffff1660e01b8152600401610c359291906124b5565b600060405180830381865afa158015610c52573d6000803e3d6000fd5b505050506040513d6000823e3d601f19601f82011682018060405250810190610c7b919061240e565b61183f565b94505050505092915050565b610c94611864565b610dc460008054906101000a900473ffffffffffffffffffffffffffffffffffffffff1673ffffffffffffffffffffffffffffffffffffffff1663901717d16040518163ffffffff1660e01b8152600401600060405180830381865afa158015610d02573d6000803e3d6000fd5b505050506040513d6000823e3d601f19601f82011682018060405250810190610d2b919061240e565b60008054906101000a900473ffffffffffffffffffffffffffffffffffffffff1673ffffffffffffffffffffffffffffffffffffffff1663bc1b392d6040518163ffffffff1660e01b8152600401600060405180830381865afa158015610d96573d6000803e3d6000fd5b505050506040513d6000823e3d601f19601f82011682018060405250810190610dbf919061240e565b61183f565b905090565b610dd1611864565b610f2b60008054906101000a900473ffffffffffffffffffffffffffffffffffffffff1673ffffffffffffffffffffffffffffffffffffffff16637e289280856000015185600001516040518363ffffffff1660e01b8152600401610e379291906124b5565b600060405180830381865afa158015610e54573d6000803e3d6000fd5b505050506040513d6000823e3d601f19601f82011682018060405250810190610e7d919061240e565b60008054906101000a900473ffffffffffffffffffffffffffffffffffffffff1673ffffffffffffffffffffffffffffffffffffffff16637e289280866020015186602001516040518363ffffffff1660e01b8152600401610ee09291906124b5565b600060405180830381865afa158015610efd573d6000803e3d6000fd5b505050506040513d6000823e3d601f19601f82011682018060405250810190610f26919061240e565b61183f565b905092915050565b60008060009054906101000a900473ffffffffffffffffffffffffffffffffffffffff1673ffffffffffffffffffffffffffffffffffffffff1663a0382305846000015184600001516040518363ffffffff1660e01b8152600401610f999291906124b5565b602060405180830381865afa158015610fb6573d6000803e3d6000fd5b505050506040513d601f19601f82011682018060405250810190610fda919061255a565b8015611086575060008054906101000a900473ffffffffffffffffffffffffffffffffffffffff1673ffffffffffffffffffffffffffffffffffffffff1663a0382305846020015184602001516040518363ffffffff1660e01b81526004016110449291906124b5565b602060405180830381865afa158015611061573d6000803e3d6000fd5b505050506040513d601f19601f82011682018060405250810190611085919061255a565b5b905092915050565b611096611864565b6111c660008054906101000a900473ffffffffffffffffffffffffffffffffffffffff1673ffffffffffffffffffffffffffffffffffffffff1663a1fca2b66040518163ffffffff1660e01b8152600401600060405180830381865afa158015611104573d6000803e3d6000fd5b505050506040513d6000823e3d601f19601f8201168201806040525081019061112d919061240e565b60008054906101000a900473ffffffffffffffffffffffffffffffffffffffff1673ffffffffffffffffffffffffffffffffffffffff1663bc1b392d6040518163ffffffff1660e01b8152600401600060405180830381865afa158015611198573d6000803e3d6000fd5b505050506040513d6000823e3d601f19601f820116820180604052508101906111c1919061240e565b61183f565b905090565b6111d3611864565b61130360008054906101000a900473ffffffffffffffffffffffffffffffffffffffff1673ffffffffffffffffffffffffffffffffffffffff1663bc1b392d6040518163ffffffff1660e01b8152600401600060405180830381865afa158015611241573d6000803e3d6000fd5b505050506040513d6000823e3d601f19601f8201168201806040525081019061126a919061240e565b60008054906101000a900473ffffffffffffffffffffffffffffffffffffffff1673ffffffffffffffffffffffffffffffffffffffff1663bc1b392d6040518163ffffffff1660e01b8152600401600060405180830381865afa1580156112d5573d6000803e3d6000fd5b505050506040513d6000823e3d601f19601f820116820180604052508101906112fe919061240e565b61183f565b905090565b611310611864565b60008060009054906101000a900473ffffffffffffffffffffffffffffffffffffffff1673ffffffffffffffffffffffffffffffffffffffff1663b52ab3b160008054906101000a900473ffffffffffffffffffffffffffffffffffffffff1673ffffffffffffffffffffffffffffffffffffffff16634aa28cb5866020015187602001516040518363ffffffff1660e01b81526004016113b29291906124b5565b600060405180830381865afa1580156113cf573d6000803e3d6000fd5b505050506040513d6000823e3d601f19601f820116820180604052508101906113f8919061240e565b6040518263ffffffff1660e01b81526004016114149190612538565b600060405180830381865afa158015611431573d6000803e3d6000fd5b505050506040513d6000823e3d601f19601f8201168201806040525081019061145a919061240e565b905060008060009054906101000a900473ffffffffffffffffffffffffffffffffffffffff1673ffffffffffffffffffffffffffffffffffffffff16634aa28cb5856000015186600001516040518363ffffffff1660e01b81526004016114c29291906124b5565b600060405180830381865afa1580156114df573d6000803e3d6000fd5b505050506040513d6000823e3d601f19601f82011682018060405250810190611508919061240e565b905060008060009054906101000a900473ffffffffffffffffffffffffffffffffffffffff1673ffffffffffffffffffffffffffffffffffffffff1663f7052ed683856040518363ffffffff1660e01b81526004016115689291906124b5565b600060405180830381865afa158015611585573d6000803e3d6000fd5b505050506040513d6000823e3d601f19601f820116820180604052508101906115ae919061240e565b905061183560008054906101000a900473ffffffffffffffffffffffffffffffffffffffff1673ffffffffffffffffffffffffffffffffffffffff1663ba510cc38760000151846040518363ffffffff1660e01b81526004016116129291906124b5565b600060405180830381865afa15801561162f573d6000803e3d6000fd5b505050506040513d6000823e3d601f19601f82011682018060405250810190611658919061240e565b60008054906101000a900473ffffffffffffffffffffffffffffffffffffffff1673ffffffffffffffffffffffffffffffffffffffff1663ba510cc360008054906101000a900473ffffffffffffffffffffffffffffffffffffffff1673ffffffffffffffffffffffffffffffffffffffff1663f7052ed660008054906101000a900473ffffffffffffffffffffffffffffffffffffffff1673ffffffffffffffffffffffffffffffffffffffff1663bc1b392d6040518163ffffffff1660e01b8152600401600060405180830381865afa15801561173b573d6000803e3d6000fd5b505050506040513d6000823e3d601f19601f82011682018060405250810190611764919061240e565b8b602001516040518363ffffffff1660e01b81526004016117869291906124b5565b600060405180830381865afa1580156117a3573d6000803e3d6000fd5b505050506040513d6000823e3d601f19601f820116820180604052508101906117cc919061240e565b856040518363ffffffff1660e01b81526004016117ea9291906124b5565b600060405180830381865afa158015611807573d6000803e3d6000fd5b505050506040513d6000823e3d601f19601f82011682018060405250810190611830919061240e565b61183f565b9350505050919050565b611847611864565b604051806040016040528084815260200183815250905092915050565b604051806040016040528061187761188a565b815260200161188461188a565b81525090565b604051806060016040528061189d6118bd565b81526020016118aa6118bd565b81526020016118b76118bd565b81525090565b60405180604001604052806118d06118e3565b81526020016118dd6118e3565b81525090565b60405180602001604052806118f66118fc565b81525090565b604051806060016040528060608152602001600015158152602001600081525090565b600081519050919050565b600082825260208201905092915050565b60005b8381101561195957808201518184015260208101905061193e565b60008484015250505050565b6000601f19601f8301169050919050565b60006119818261191f565b61198b818561192a565b935061199b81856020860161193b565b6119a481611965565b840191505092915050565b60008115159050919050565b6119c4816119af565b82525050565b6000819050919050565b6119dd816119ca565b82525050565b60006060830160008301518482036000860152611a008282611976565b9150506020830151611a1560208601826119bb565b506040830151611a2860408601826119d4565b508091505092915050565b60006020830160008301518482036000860152611a5082826119e3565b9150508091505092915050565b60006040830160008301518482036000860152611a7a8282611a33565b91505060208301518482036020860152611a948282611a33565b9150508091505092915050565b60006060830160008301518482036000860152611abe8282611a5d565b91505060208301518482036020860152611ad88282611a5d565b91505060408301518482036040860152611af28282611a5d565b9150508091505092915050565b60006040830160008301518482036000860152611b1c8282611aa1565b91505060208301518482036020860152611b368282611aa1565b9150508091505092915050565b60006020820190508181036000830152611b5d8184611aff565b905092915050565b6000604051905090565b600080fd5b600080fd5b600080fd5b7f4e487b7100000000000000000000000000000000000000000000000000000000600052604160045260246000fd5b611bb682611965565b810181811067ffffffffffffffff82111715611bd557611bd4611b7e565b5b80604052505050565b6000611be8611b65565b9050611bf48282611bad565b919050565b600080fd5b600080fd5b600080fd5b600067ffffffffffffffff821115611c2357611c22611b7e565b5b611c2c82611965565b9050602081019050919050565b82818337600083830152505050565b6000611c5b611c5684611c08565b611bde565b905082815260208101848484011115611c7757611c76611c03565b5b611c82848285611c39565b509392505050565b600082601f830112611c9f57611c9e611bfe565b5b8135611caf848260208601611c48565b91505092915050565b611cc1816119af565b8114611ccc57600080fd5b50565b600081359050611cde81611cb8565b92915050565b611ced816119ca565b8114611cf857600080fd5b50565b600081359050611d0a81611ce4565b92915050565b600060608284031215611d2657611d25611b79565b5b611d306060611bde565b9050600082013567ffffffffffffffff811115611d5057611d4f611bf9565b5b611d5c84828501611c8a565b6000830152506020611d7084828501611ccf565b6020830152506040611d8484828501611cfb565b60408301525092915050565b600060208284031215611da657611da5611b79565b5b611db06020611bde565b9050600082013567ffffffffffffffff811115611dd057611dcf611bf9565b5b611ddc84828501611d10565b60008301525092915050565b600060408284031215611dfe57611dfd611b79565b5b611e086040611bde565b9050600082013567ffffffffffffffff811115611e2857611e27611bf9565b5b611e3484828501611d90565b600083015250602082013567ffffffffffffffff811115611e5857611e57611bf9565b5b611e6484828501611d90565b60208301525092915050565b600060608284031215611e8657611e85611b79565b5b611e906060611bde565b9050600082013567ffffffffffffffff811115611eb057611eaf611bf9565b5b611ebc84828501611de8565b600083015250602082013567ffffffffffffffff811115611ee057611edf611bf9565b5b611eec84828501611de8565b602083015250604082013567ffffffffffffffff811115611f1057611f0f611bf9565b5b611f1c84828501611de8565b60408301525092915050565b600060408284031215611f3e57611f3d611b79565b5b611f486040611bde565b9050600082013567ffffffffffffffff811115611f6857611f67611bf9565b5b611f7484828501611e70565b600083015250602082013567ffffffffffffffff811115611f9857611f97611bf9565b5b611fa484828501611e70565b60208301525092915050565b60008060408385031215611fc757611fc6611b6f565b5b600083013567ffffffffffffffff811115611fe557611fe4611b74565b5b611ff185828601611f28565b925050602083013567ffffffffffffffff81111561201257612011611b74565b5b61201e85828601611f28565b9150509250929050565b60006020828403121561203e5761203d611b6f565b5b600082013567ffffffffffffffff81111561205c5761205b611b74565b5b61206884828501611d90565b91505092915050565b61207a816119af565b82525050565b60006020820190506120956000830184612071565b92915050565b6000602082840312156120b1576120b0611b6f565b5b600082013567ffffffffffffffff8111156120cf576120ce611b74565b5b6120db84828501611f28565b91505092915050565b600080604083850312156120fb576120fa611b6f565b5b600083013567ffffffffffffffff81111561211957612118611b74565b5b61212585828601611e70565b925050602083013567ffffffffffffffff81111561214657612145611b74565b5b61215285828601611e70565b9150509250929050565b600061216f61216a84611c08565b611bde565b90508281526020810184848401111561218b5761218a611c03565b5b61219684828561193b565b509392505050565b600082601f8301126121b3576121b2611bfe565b5b81516121c384826020860161215c565b91505092915050565b6000815190506121db81611cb8565b92915050565b6000815190506121f081611ce4565b92915050565b60006060828403121561220c5761220b611b79565b5b6122166060611bde565b9050600082015167ffffffffffffffff81111561223657612235611bf9565b5b6122428482850161219e565b6000830152506020612256848285016121cc565b602083015250604061226a848285016121e1565b60408301525092915050565b60006020828403121561228c5761228b611b79565b5b6122966020611bde565b9050600082015167ffffffffffffffff8111156122b6576122b5611bf9565b5b6122c2848285016121f6565b60008301525092915050565b6000604082840312156122e4576122e3611b79565b5b6122ee6040611bde565b9050600082015167ffffffffffffffff81111561230e5761230d611bf9565b5b61231a84828501612276565b600083015250602082015167ffffffffffffffff81111561233e5761233d611bf9565b5b61234a84828501612276565b60208301525092915050565b60006060828403121561236c5761236b611b79565b5b6123766060611bde565b9050600082015167ffffffffffffffff81111561239657612395611bf9565b5b6123a2848285016122ce565b600083015250602082015167ffffffffffffffff8111156123c6576123c5611bf9565b5b6123d2848285016122ce565b602083015250604082015167ffffffffffffffff8111156123f6576123f5611bf9565b5b612402848285016122ce565b60408301525092915050565b60006020828403121561242457612423611b6f565b5b600082015167ffffffffffffffff81111561244257612441611b74565b5b61244e84828501612356565b91505092915050565b600060608301600083015184820360008601526124748282611a5d565b9150506020830151848203602086015261248e8282611a5d565b915050604083015184820360408601526124a88282611a5d565b9150508091505092915050565b600060408201905081810360008301526124cf8185612457565b905081810360208301526124e38184612457565b90509392505050565b6000602083016000830151848203600086015261250982826119e3565b9150508091505092915050565b6000602082019050818103600083015261253081846124ec565b905092915050565b600060208201905081810360008301526125528184612457565b905092915050565b6000602082840312156125705761256f611b6f565b5b600061257e848285016121cc565b9150509291505056fea2646970667358221220953def0a6a6795f63203d99e8a2d20b270fc8d33b6c009a7d999e4bdea1d614564736f6c634300081b0033608060405234801561001057600080fd5b50604051612aca380380612aca833981810160405281019061003291906100ed565b806000806101000a81548173ffffffffffffffffffffffffffffffffffffffff021916908373ffffffffffffffffffffffffffffffffffffffff1602179055505061011a565b600080fd5b600073ffffffffffffffffffffffffffffffffffffffff82169050919050565b60006100a88261007d565b9050919050565b60006100ba8261009d565b9050919050565b6100ca816100af565b81146100d557600080fd5b50565b6000815190506100e7816100c1565b92915050565b60006020828403121561010357610102610078565b5b6000610111848285016100d8565b91505092915050565b6129a1806101296000396000f3fe608060405234801561001057600080fd5b50600436106100615760003560e01c80627995931461006657806307951d69146100965780631953a9bf146100c6578063292310eb146100f65780636cee5a0b1461011457806398dc089a14610144575b600080fd5b610080600480360381019061007b919061201c565b610174565b60405161008d9190612279565b60405180910390f35b6100b060048036038101906100ab919061229b565b6102be565b6040516100bd9190612279565b60405180910390f35b6100e060048036038101906100db9190612313565b610c84565b6040516100ed9190612279565b60405180910390f35b6100fe610cc2565b60405161010b9190612279565b60405180910390f35b61012e6004803603810190610129919061238b565b610e22565b60405161013b9190612279565b60405180910390f35b61015e6004803603810190610159919061238b565b6117b8565b60405161016b9190612279565b60405180910390f35b61017c611c36565b6000610186610cc2565b905083602001516101a45761019c848483611976565b9150506102b8565b6102b473__$7db5d2dbc3ae63372df6c39d501ad0f72a$__63b1d74ee98673__$7db5d2dbc3ae63372df6c39d501ad0f72a$__6340957f726001806040518363ffffffff1660e01b81526004016101fc929190612428565b600060405180830381865af4158015610219573d6000803e3d6000fd5b505050506040513d6000823e3d601f19601f82011682018060405250810190610242919061256b565b6040518363ffffffff1660e01b815260040161025f92919061266c565b600060405180830381865af415801561027c573d6000803e3d6000fd5b505050506040513d6000823e3d601f19601f820116820180604052508101906102a5919061256b565b6102ae856117b8565b83611976565b9150505b92915050565b6102c6611c36565b6001808111156102d9576102d8612094565b5b836000015160018111156102f0576102ef612094565b5b036102fd57819050610c7e565b6001808111156103105761030f612094565b5b8260000151600181111561032757610326612094565b5b0361033457829050610c7e565b60008054906101000a900473ffffffffffffffffffffffffffffffffffffffff1673ffffffffffffffffffffffffffffffffffffffff1663d4d45554846020015184602001516040518363ffffffff1660e01b81526004016103979291906126cd565b602060405180830381865afa1580156103b4573d6000803e3d6000fd5b505050506040513d601f19601f820116820180604052508101906103d89190612704565b8015610484575060008054906101000a900473ffffffffffffffffffffffffffffffffffffffff1673ffffffffffffffffffffffffffffffffffffffff1663d4d45554846040015184604001516040518363ffffffff1660e01b81526004016104429291906126cd565b602060405180830381865afa15801561045f573d6000803e3d6000fd5b505050506040513d601f19601f820116820180604052508101906104839190612704565b5b156104995761049283610e22565b9050610c7e565b60008054906101000a900473ffffffffffffffffffffffffffffffffffffffff1673ffffffffffffffffffffffffffffffffffffffff1663d4d45554846020015184602001516040518363ffffffff1660e01b81526004016104fc9291906126cd565b602060405180830381865afa158015610519573d6000803e3d6000fd5b505050506040513d601f19601f8201168201806040525081019061053d9190612704565b80156105ea575060008054906101000a900473ffffffffffffffffffffffffffffffffffffffff1673ffffffffffffffffffffffffffffffffffffffff1663d4d45554846040015184604001516040518363ffffffff1660e01b81526004016105a79291906126cd565b602060405180830381865afa1580156105c4573d6000803e3d6000fd5b505050506040513d601f19601f820116820180604052508101906105e89190612704565b155b156105fe576105f7610cc2565b9050610c7e565b60008060009054906101000a900473ffffffffffffffffffffffffffffffffffffffff1673ffffffffffffffffffffffffffffffffffffffff1663b5e2832560008054906101000a900473ffffffffffffffffffffffffffffffffffffffff1673ffffffffffffffffffffffffffffffffffffffff1663fb2bedad866040015188604001516040518363ffffffff1660e01b81526004016106a09291906126cd565b600060405180830381865afa1580156106bd573d6000803e3d6000fd5b505050506040513d6000823e3d601f19601f820116820180604052508101906106e69190612789565b60008054906101000a900473ffffffffffffffffffffffffffffffffffffffff1673ffffffffffffffffffffffffffffffffffffffff1663a672d10060008054906101000a900473ffffffffffffffffffffffffffffffffffffffff1673ffffffffffffffffffffffffffffffffffffffff1663fb2bedad89602001518b602001516040518363ffffffff1660e01b81526004016107859291906126cd565b600060405180830381865afa1580156107a2573d6000803e3d6000fd5b505050506040513d6000823e3d601f19601f820116820180604052508101906107cb9190612789565b6040518263ffffffff1660e01b81526004016107e791906127d2565b600060405180830381865afa158015610804573d6000803e3d6000fd5b505050506040513d6000823e3d601f19601f8201168201806040525081019061082d9190612789565b6040518363ffffffff1660e01b815260040161084a9291906126cd565b600060405180830381865afa158015610867573d6000803e3d6000fd5b505050506040513d6000823e3d601f19601f820116820180604052508101906108909190612789565b905060008060009054906101000a900473ffffffffffffffffffffffffffffffffffffffff1673ffffffffffffffffffffffffffffffffffffffff1663fb2bedad60008054906101000a900473ffffffffffffffffffffffffffffffffffffffff1673ffffffffffffffffffffffffffffffffffffffff1663fb2bedad60008054906101000a900473ffffffffffffffffffffffffffffffffffffffff1673ffffffffffffffffffffffffffffffffffffffff1663b5e2832587886040518363ffffffff1660e01b81526004016109689291906126cd565b600060405180830381865afa158015610985573d6000803e3d6000fd5b505050506040513d6000823e3d601f19601f820116820180604052508101906109ae9190612789565b89602001516040518363ffffffff1660e01b81526004016109d09291906126cd565b600060405180830381865afa1580156109ed573d6000803e3d6000fd5b505050506040513d6000823e3d601f19601f82011682018060405250810190610a169190612789565b86602001516040518363ffffffff1660e01b8152600401610a389291906126cd565b600060405180830381865afa158015610a55573d6000803e3d6000fd5b505050506040513d6000823e3d601f19601f82011682018060405250810190610a7e9190612789565b905060008060009054906101000a900473ffffffffffffffffffffffffffffffffffffffff1673ffffffffffffffffffffffffffffffffffffffff1663fb2bedad60008054906101000a900473ffffffffffffffffffffffffffffffffffffffff1673ffffffffffffffffffffffffffffffffffffffff1663b5e2832560008054906101000a900473ffffffffffffffffffffffffffffffffffffffff1673ffffffffffffffffffffffffffffffffffffffff1663fb2bedad8b60200151886040518363ffffffff1660e01b8152600401610b5a9291906126cd565b600060405180830381865afa158015610b77573d6000803e3d6000fd5b505050506040513d6000823e3d601f19601f82011682018060405250810190610ba09190612789565b876040518363ffffffff1660e01b8152600401610bbe9291906126cd565b600060405180830381865afa158015610bdb573d6000803e3d6000fd5b505050506040513d6000823e3d601f19601f82011682018060405250810190610c049190612789565b88604001516040518363ffffffff1660e01b8152600401610c269291906126cd565b600060405180830381865afa158015610c43573d6000803e3d6000fd5b505050506040513d6000823e3d601f19601f82011682018060405250810190610c6c9190612789565b9050610c788282610c84565b93505050505b92915050565b610c8c611c36565b604051806060016040528060006001811115610cab57610caa612094565b5b815260200184815260200183815250905092915050565b610cca611c36565b6040518060600160405280600180811115610ce857610ce7612094565b5b815260200160008054906101000a900473ffffffffffffffffffffffffffffffffffffffff1673ffffffffffffffffffffffffffffffffffffffff1663bc1b392d6040518163ffffffff1660e01b8152600401600060405180830381865afa158015610d58573d6000803e3d6000fd5b505050506040513d6000823e3d601f19601f82011682018060405250810190610d819190612789565b815260200160008054906101000a900473ffffffffffffffffffffffffffffffffffffffff1673ffffffffffffffffffffffffffffffffffffffff1663bc1b392d6040518163ffffffff1660e01b8152600401600060405180830381865afa158015610df1573d6000803e3d6000fd5b505050506040513d6000823e3d601f19601f82011682018060405250810190610e1a9190612789565b815250905090565b610e2a611c36565b60008054906101000a900473ffffffffffffffffffffffffffffffffffffffff1673ffffffffffffffffffffffffffffffffffffffff1663d4d45554836040015160008054906101000a900473ffffffffffffffffffffffffffffffffffffffff1673ffffffffffffffffffffffffffffffffffffffff1663bc1b392d6040518163ffffffff1660e01b8152600401600060405180830381865afa158015610ed6573d6000803e3d6000fd5b505050506040513d6000823e3d601f19601f82011682018060405250810190610eff9190612789565b6040518363ffffffff1660e01b8152600401610f1c9291906126cd565b602060405180830381865afa158015610f39573d6000803e3d6000fd5b505050506040513d601f19601f82011682018060405250810190610f5d9190612704565b15610f7157610f6a610cc2565b90506117b3565b60008060009054906101000a900473ffffffffffffffffffffffffffffffffffffffff1673ffffffffffffffffffffffffffffffffffffffff1663b5e2832560008054906101000a900473ffffffffffffffffffffffffffffffffffffffff1673ffffffffffffffffffffffffffffffffffffffff1663b5e2832560008054906101000a900473ffffffffffffffffffffffffffffffffffffffff1673ffffffffffffffffffffffffffffffffffffffff166345caa1176040518163ffffffff1660e01b8152600401600060405180830381865afa158015611057573d6000803e3d6000fd5b505050506040513d6000823e3d601f19601f820116820180604052508101906110809190612789565b60008054906101000a900473ffffffffffffffffffffffffffffffffffffffff1673ffffffffffffffffffffffffffffffffffffffff1663b5e2832589602001518a602001516040518363ffffffff1660e01b81526004016110e39291906126cd565b600060405180830381865afa158015611100573d6000803e3d6000fd5b505050506040513d6000823e3d601f19601f820116820180604052508101906111299190612789565b6040518363ffffffff1660e01b81526004016111469291906126cd565b600060405180830381865afa158015611163573d6000803e3d6000fd5b505050506040513d6000823e3d601f19601f8201168201806040525081019061118c9190612789565b60008054906101000a900473ffffffffffffffffffffffffffffffffffffffff1673ffffffffffffffffffffffffffffffffffffffff1663a672d10060008054906101000a900473ffffffffffffffffffffffffffffffffffffffff1673ffffffffffffffffffffffffffffffffffffffff1663b5e2832560008054906101000a900473ffffffffffffffffffffffffffffffffffffffff1673ffffffffffffffffffffffffffffffffffffffff16635fdf05d76040518163ffffffff1660e01b8152600401600060405180830381865afa15801561126f573d6000803e3d6000fd5b505050506040513d6000823e3d601f19601f820116820180604052508101906112989190612789565b8a604001516040518363ffffffff1660e01b81526004016112ba9291906126cd565b600060405180830381865afa1580156112d7573d6000803e3d6000fd5b505050506040513d6000823e3d601f19601f820116820180604052508101906113009190612789565b6040518263ffffffff1660e01b815260040161131c91906127d2565b600060405180830381865afa158015611339573d6000803e3d6000fd5b505050506040513d6000823e3d601f19601f820116820180604052508101906113629190612789565b6040518363ffffffff1660e01b815260040161137f9291906126cd565b600060405180830381865afa15801561139c573d6000803e3d6000fd5b505050506040513d6000823e3d601f19601f820116820180604052508101906113c59190612789565b905060008060009054906101000a900473ffffffffffffffffffffffffffffffffffffffff1673ffffffffffffffffffffffffffffffffffffffff1663fb2bedad60008054906101000a900473ffffffffffffffffffffffffffffffffffffffff1673ffffffffffffffffffffffffffffffffffffffff1663fb2bedad60008054906101000a900473ffffffffffffffffffffffffffffffffffffffff1673ffffffffffffffffffffffffffffffffffffffff1663b5e2832587886040518363ffffffff1660e01b815260040161149d9291906126cd565b600060405180830381865afa1580156114ba573d6000803e3d6000fd5b505050506040513d6000823e3d601f19601f820116820180604052508101906114e39190612789565b88602001516040518363ffffffff1660e01b81526004016115059291906126cd565b600060405180830381865afa158015611522573d6000803e3d6000fd5b505050506040513d6000823e3d601f19601f8201168201806040525081019061154b9190612789565b86602001516040518363ffffffff1660e01b815260040161156d9291906126cd565b600060405180830381865afa15801561158a573d6000803e3d6000fd5b505050506040513d6000823e3d601f19601f820116820180604052508101906115b39190612789565b905060008060009054906101000a900473ffffffffffffffffffffffffffffffffffffffff1673ffffffffffffffffffffffffffffffffffffffff1663fb2bedad60008054906101000a900473ffffffffffffffffffffffffffffffffffffffff1673ffffffffffffffffffffffffffffffffffffffff1663b5e2832560008054906101000a900473ffffffffffffffffffffffffffffffffffffffff1673ffffffffffffffffffffffffffffffffffffffff1663fb2bedad8a60200151886040518363ffffffff1660e01b815260040161168f9291906126cd565b600060405180830381865afa1580156116ac573d6000803e3d6000fd5b505050506040513d6000823e3d601f19601f820116820180604052508101906116d59190612789565b876040518363ffffffff1660e01b81526004016116f39291906126cd565b600060405180830381865afa158015611710573d6000803e3d6000fd5b505050506040513d6000823e3d601f19601f820116820180604052508101906117399190612789565b87604001516040518363ffffffff1660e01b815260040161175b9291906126cd565b600060405180830381865afa158015611778573d6000803e3d6000fd5b505050506040513d6000823e3d601f19601f820116820180604052508101906117a19190612789565b90506117ad8282610c84565b93505050505b919050565b6117c0611c36565b6001808111156117d3576117d2612094565b5b826000015160018111156117ea576117e9612094565b5b0361182a576040517f08c379a000000000000000000000000000000000000000000000000000000000815260040161182190612851565b60405180910390fd5b61196f826020015160008054906101000a900473ffffffffffffffffffffffffffffffffffffffff1673ffffffffffffffffffffffffffffffffffffffff1663fb2bedad60008054906101000a900473ffffffffffffffffffffffffffffffffffffffff1673ffffffffffffffffffffffffffffffffffffffff1663bc1b392d6040518163ffffffff1660e01b8152600401600060405180830381865afa1580156118d9573d6000803e3d6000fd5b505050506040513d6000823e3d601f19601f820116820180604052508101906119029190612789565b86604001516040518363ffffffff1660e01b81526004016119249291906126cd565b600060405180830381865afa158015611941573d6000803e3d6000fd5b505050506040513d6000823e3d601f19601f8201168201806040525081019061196a9190612789565b610c84565b9050919050565b61197e611c36565b600073__$7db5d2dbc3ae63372df6c39d501ad0f72a$__63bc39804e8673__$7db5d2dbc3ae63372df6c39d501ad0f72a$__63bc1b392d6040518163ffffffff1660e01b8152600401600060405180830381865af41580156119e4573d6000803e3d6000fd5b505050506040513d6000823e3d601f19601f82011682018060405250810190611a0d919061256b565b60006040518463ffffffff1660e01b8152600401611a2d93929190612871565b602060405180830381865af4158015611a4a573d6000803e3d6000fd5b505050506040513d601f19601f82011682018060405250810190611a6e91906128ec565b03611a7b57819050611c2f565b73__$7db5d2dbc3ae63372df6c39d501ad0f72a$__63ee4a4e4e856040518263ffffffff1660e01b8152600401611ab29190612919565b602060405180830381865af4158015611acf573d6000803e3d6000fd5b505050506040513d601f19601f82011682018060405250810190611af39190612704565b15611b9a57611b9373__$7db5d2dbc3ae63372df6c39d501ad0f72a$__636efac6c78660016040518363ffffffff1660e01b8152600401611b3592919061293b565b600060405180830381865af4158015611b52573d6000803e3d6000fd5b505050506040513d6000823e3d601f19601f82011682018060405250810190611b7b919061256b565b611b8485610e22565b611b8e85876102be565b611976565b9050611c2f565b611c2c73__$7db5d2dbc3ae63372df6c39d501ad0f72a$__636efac6c78660016040518363ffffffff1660e01b8152600401611bd792919061293b565b600060405180830381865af4158015611bf4573d6000803e3d6000fd5b505050506040513d6000823e3d601f19601f82011682018060405250810190611c1d919061256b565b611c2685610e22565b84611976565b90505b9392505050565b604051806060016040528060006001811115611c5557611c54612094565b5b8152602001611c62611c75565b8152602001611c6f611c75565b81525090565b6040518060200160405280611c88611c8e565b81525090565b604051806060016040528060608152602001600015158152602001600081525090565b6000604051905090565b600080fd5b600080fd5b600080fd5b6000601f19601f8301169050919050565b7f4e487b7100000000000000000000000000000000000000000000000000000000600052604160045260246000fd5b611d1382611cca565b810181811067ffffffffffffffff82111715611d3257611d31611cdb565b5b80604052505050565b6000611d45611cb1565b9050611d518282611d0a565b919050565b600080fd5b600080fd5b600080fd5b600067ffffffffffffffff821115611d8057611d7f611cdb565b5b611d8982611cca565b9050602081019050919050565b82818337600083830152505050565b6000611db8611db384611d65565b611d3b565b905082815260208101848484011115611dd457611dd3611d60565b5b611ddf848285611d96565b509392505050565b600082601f830112611dfc57611dfb611d5b565b5b8135611e0c848260208601611da5565b91505092915050565b60008115159050919050565b611e2a81611e15565b8114611e3557600080fd5b50565b600081359050611e4781611e21565b92915050565b6000819050919050565b611e6081611e4d565b8114611e6b57600080fd5b50565b600081359050611e7d81611e57565b92915050565b600060608284031215611e9957611e98611cc5565b5b611ea36060611d3b565b9050600082013567ffffffffffffffff811115611ec357611ec2611d56565b5b611ecf84828501611de7565b6000830152506020611ee384828501611e38565b6020830152506040611ef784828501611e6e565b60408301525092915050565b60028110611f1057600080fd5b50565b600081359050611f2281611f03565b92915050565b600060208284031215611f3e57611f3d611cc5565b5b611f486020611d3b565b9050600082013567ffffffffffffffff811115611f6857611f67611d56565b5b611f7484828501611e83565b60008301525092915050565b600060608284031215611f9657611f95611cc5565b5b611fa06060611d3b565b90506000611fb084828501611f13565b600083015250602082013567ffffffffffffffff811115611fd457611fd3611d56565b5b611fe084828501611f28565b602083015250604082013567ffffffffffffffff81111561200457612003611d56565b5b61201084828501611f28565b60408301525092915050565b6000806040838503121561203357612032611cbb565b5b600083013567ffffffffffffffff81111561205157612050611cc0565b5b61205d85828601611e83565b925050602083013567ffffffffffffffff81111561207e5761207d611cc0565b5b61208a85828601611f80565b9150509250929050565b7f4e487b7100000000000000000000000000000000000000000000000000000000600052602160045260246000fd5b600281106120d4576120d3612094565b5b50565b60008190506120e5826120c3565b919050565b60006120f5826120d7565b9050919050565b612105816120ea565b82525050565b600081519050919050565b600082825260208201905092915050565b60005b8381101561214557808201518184015260208101905061212a565b60008484015250505050565b600061215c8261210b565b6121668185612116565b9350612176818560208601612127565b61217f81611cca565b840191505092915050565b61219381611e15565b82525050565b6121a281611e4d565b82525050565b600060608301600083015184820360008601526121c58282612151565b91505060208301516121da602086018261218a565b5060408301516121ed6040860182612199565b508091505092915050565b6000602083016000830151848203600086015261221582826121a8565b9150508091505092915050565b600060608301600083015161223a60008601826120fc565b506020830151848203602086015261225282826121f8565b9150506040830151848203604086015261226c82826121f8565b9150508091505092915050565b600060208201905081810360008301526122938184612222565b905092915050565b600080604083850312156122b2576122b1611cbb565b5b600083013567ffffffffffffffff8111156122d0576122cf611cc0565b5b6122dc85828601611f80565b925050602083013567ffffffffffffffff8111156122fd576122fc611cc0565b5b61230985828601611f80565b9150509250929050565b6000806040838503121561232a57612329611cbb565b5b600083013567ffffffffffffffff81111561234857612347611cc0565b5b61235485828601611f28565b925050602083013567ffffffffffffffff81111561237557612374611cc0565b5b61238185828601611f28565b9150509250929050565b6000602082840312156123a1576123a0611cbb565b5b600082013567ffffffffffffffff8111156123bf576123be611cc0565b5b6123cb84828501611f80565b91505092915050565b6000819050919050565b6000819050919050565b60006124036123fe6123f9846123d4565b6123de565b611e4d565b9050919050565b612413816123e8565b82525050565b61242281611e15565b82525050565b600060408201905061243d600083018561240a565b61244a6020830184612419565b9392505050565b600061246461245f84611d65565b611d3b565b9050828152602081018484840111156124805761247f611d60565b5b61248b848285612127565b509392505050565b600082601f8301126124a8576124a7611d5b565b5b81516124b8848260208601612451565b91505092915050565b6000815190506124d081611e21565b92915050565b6000815190506124e581611e57565b92915050565b60006060828403121561250157612500611cc5565b5b61250b6060611d3b565b9050600082015167ffffffffffffffff81111561252b5761252a611d56565b5b61253784828501612493565b600083015250602061254b848285016124c1565b602083015250604061255f848285016124d6565b60408301525092915050565b60006020828403121561258157612580611cbb565b5b600082015167ffffffffffffffff81111561259f5761259e611cc0565b5b6125ab848285016124eb565b91505092915050565b600082825260208201905092915050565b60006125d08261210b565b6125da81856125b4565b93506125ea818560208601612127565b6125f381611cca565b840191505092915050565b61260781611e15565b82525050565b61261681611e4d565b82525050565b6000606083016000830151848203600086015261263982826125c5565b915050602083015161264e60208601826125fe565b506040830151612661604086018261260d565b508091505092915050565b60006040820190508181036000830152612686818561261c565b9050818103602083015261269a818461261c565b90509392505050565b600060208301600083015184820360008601526126c082826121a8565b9150508091505092915050565b600060408201905081810360008301526126e781856126a3565b905081810360208301526126fb81846126a3565b90509392505050565b60006020828403121561271a57612719611cbb565b5b6000612728848285016124c1565b91505092915050565b60006020828403121561274757612746611cc5565b5b6127516020611d3b565b9050600082015167ffffffffffffffff81111561277157612770611d56565b5b61277d848285016124eb565b60008301525092915050565b60006020828403121561279f5761279e611cbb565b5b600082015167ffffffffffffffff8111156127bd576127bc611cc0565b5b6127c984828501612731565b91505092915050565b600060208201905081810360008301526127ec81846126a3565b905092915050565b600082825260208201905092915050565b7f63616e6e6f74206e656761746520706f696e7420617420696e66696e69747900600082015250565b600061283b601f836127f4565b915061284682612805565b602082019050919050565b6000602082019050818103600083015261286a8161282e565b9050919050565b6000606082019050818103600083015261288b818661261c565b9050818103602083015261289f818561261c565b90506128ae6040830184612419565b949350505050565b6000819050919050565b6128c9816128b6565b81146128d457600080fd5b50565b6000815190506128e6816128c0565b92915050565b60006020828403121561290257612901611cbb565b5b6000612910848285016128d7565b91505092915050565b60006020820190508181036000830152612933818461261c565b905092915050565b60006040820190508181036000830152612955818561261c565b9050612964602083018461240a565b939250505056fea264697066735822122052ba687e1e25aedaa192f3b98a7f22be41568734c11a49f4dc6f3b62bb37c53964736f6c634300081b0033608060405234801561001057600080fd5b50604051612e6d380380612e6d833981810160405281019061003291906100ed565b806000806101000a81548173ffffffffffffffffffffffffffffffffffffffff021916908373ffffffffffffffffffffffffffffffffffffffff1602179055505061011a565b600080fd5b600073ffffffffffffffffffffffffffffffffffffffff82169050919050565b60006100a88261007d565b9050919050565b60006100ba8261009d565b9050919050565b6100ca816100af565b81146100d557600080fd5b50565b6000815190506100e7816100c1565b92915050565b60006020828403121561010357610102610078565b5b6000610111848285016100d8565b91505092915050565b612d44806101296000396000f3fe608060405234801561001057600080fd5b50600436106100575760003560e01c80632106685b1461005c57806324dca0c71461008c57806355e359c8146100bc5780639ee46fb3146100ec578063bedacbae1461011c575b600080fd5b610076600480360381019061007191906122c6565b61014c565b6040516100839190612538565b60405180910390f35b6100a660048036038101906100a1919061255a565b61030c565b6040516100b39190612538565b60405180910390f35b6100d660048036038101906100d191906125d2565b610dfe565b6040516100e39190612538565b60405180910390f35b610106600480360381019061010191906122c6565b611072565b6040516101139190612538565b60405180910390f35b6101366004803603810190610131919061264a565b611b34565b6040516101439190612538565b60405180910390f35b610154611e32565b6001808111156101675761016661230f565b5b8260000151600181111561017e5761017d61230f565b5b036101be576040517f08c379a00000000000000000000000000000000000000000000000000000000081526004016101b590612732565b60405180910390fd5b6103056000836020015160008054906101000a900473ffffffffffffffffffffffffffffffffffffffff1673ffffffffffffffffffffffffffffffffffffffff16635f6910d460008054906101000a900473ffffffffffffffffffffffffffffffffffffffff1673ffffffffffffffffffffffffffffffffffffffff1663bc1b392d6040518163ffffffff1660e01b8152600401600060405180830381865afa15801561026f573d6000803e3d6000fd5b505050506040513d6000823e3d601f19601f82011682018060405250810190610298919061294c565b87604001516040518363ffffffff1660e01b81526004016102ba9291906129d9565b600060405180830381865afa1580156102d7573d6000803e3d6000fd5b505050506040513d6000823e3d601f19601f82011682018060405250810190610300919061294c565b611b34565b9050919050565b610314611e32565b6001808111156103275761032661230f565b5b8360000151600181111561033e5761033d61230f565b5b0361034b57819050610df8565b60018081111561035e5761035d61230f565b5b826000015160018111156103755761037461230f565b5b0361038257829050610df8565b60008054906101000a900473ffffffffffffffffffffffffffffffffffffffff1673ffffffffffffffffffffffffffffffffffffffff1663ab80cf76846020015184602001516040518363ffffffff1660e01b81526004016103e59291906129d9565b602060405180830381865afa158015610402573d6000803e3d6000fd5b505050506040513d601f19601f820116820180604052508101906104269190612a10565b80156104d2575060008054906101000a900473ffffffffffffffffffffffffffffffffffffffff1673ffffffffffffffffffffffffffffffffffffffff1663ab80cf76846040015184604001516040518363ffffffff1660e01b81526004016104909291906129d9565b602060405180830381865afa1580156104ad573d6000803e3d6000fd5b505050506040513d601f19601f820116820180604052508101906104d19190612a10565b5b156104e7576104e083611072565b9050610df8565b60008054906101000a900473ffffffffffffffffffffffffffffffffffffffff1673ffffffffffffffffffffffffffffffffffffffff1663ab80cf76846020015184602001516040518363ffffffff1660e01b815260040161054a9291906129d9565b602060405180830381865afa158015610567573d6000803e3d6000fd5b505050506040513d601f19601f8201168201806040525081019061058b9190612a10565b8015610638575060008054906101000a900473ffffffffffffffffffffffffffffffffffffffff1673ffffffffffffffffffffffffffffffffffffffff1663ab80cf76846040015184604001516040518363ffffffff1660e01b81526004016105f59291906129d9565b602060405180830381865afa158015610612573d6000803e3d6000fd5b505050506040513d601f19601f820116820180604052508101906106369190612a10565b155b156107765761076f600160008054906101000a900473ffffffffffffffffffffffffffffffffffffffff1673ffffffffffffffffffffffffffffffffffffffff1663bc1b392d6040518163ffffffff1660e01b8152600401600060405180830381865afa1580156106ad573d6000803e3d6000fd5b505050506040513d6000823e3d601f19601f820116820180604052508101906106d6919061294c565b60008054906101000a900473ffffffffffffffffffffffffffffffffffffffff1673ffffffffffffffffffffffffffffffffffffffff1663bc1b392d6040518163ffffffff1660e01b8152600401600060405180830381865afa158015610741573d6000803e3d6000fd5b505050506040513d6000823e3d601f19601f8201168201806040525081019061076a919061294c565b611b34565b9050610df8565b60008060009054906101000a900473ffffffffffffffffffffffffffffffffffffffff1673ffffffffffffffffffffffffffffffffffffffff166307a5ecaa60008054906101000a900473ffffffffffffffffffffffffffffffffffffffff1673ffffffffffffffffffffffffffffffffffffffff16635f6910d4866040015188604001516040518363ffffffff1660e01b81526004016108189291906129d9565b600060405180830381865afa158015610835573d6000803e3d6000fd5b505050506040513d6000823e3d601f19601f8201168201806040525081019061085e919061294c565b60008054906101000a900473ffffffffffffffffffffffffffffffffffffffff1673ffffffffffffffffffffffffffffffffffffffff166364c044fe60008054906101000a900473ffffffffffffffffffffffffffffffffffffffff1673ffffffffffffffffffffffffffffffffffffffff16635f6910d489602001518b602001516040518363ffffffff1660e01b81526004016108fd9291906129d9565b600060405180830381865afa15801561091a573d6000803e3d6000fd5b505050506040513d6000823e3d601f19601f82011682018060405250810190610943919061294c565b6040518263ffffffff1660e01b815260040161095f9190612a3d565b600060405180830381865afa15801561097c573d6000803e3d6000fd5b505050506040513d6000823e3d601f19601f820116820180604052508101906109a5919061294c565b6040518363ffffffff1660e01b81526004016109c29291906129d9565b600060405180830381865afa1580156109df573d6000803e3d6000fd5b505050506040513d6000823e3d601f19601f82011682018060405250810190610a08919061294c565b905060008060009054906101000a900473ffffffffffffffffffffffffffffffffffffffff1673ffffffffffffffffffffffffffffffffffffffff16635f6910d460008054906101000a900473ffffffffffffffffffffffffffffffffffffffff1673ffffffffffffffffffffffffffffffffffffffff16635f6910d460008054906101000a900473ffffffffffffffffffffffffffffffffffffffff1673ffffffffffffffffffffffffffffffffffffffff166307a5ecaa87886040518363ffffffff1660e01b8152600401610ae09291906129d9565b600060405180830381865afa158015610afd573d6000803e3d6000fd5b505050506040513d6000823e3d601f19601f82011682018060405250810190610b26919061294c565b89602001516040518363ffffffff1660e01b8152600401610b489291906129d9565b600060405180830381865afa158015610b65573d6000803e3d6000fd5b505050506040513d6000823e3d601f19601f82011682018060405250810190610b8e919061294c565b86602001516040518363ffffffff1660e01b8152600401610bb09291906129d9565b600060405180830381865afa158015610bcd573d6000803e3d6000fd5b505050506040513d6000823e3d601f19601f82011682018060405250810190610bf6919061294c565b905060008060009054906101000a900473ffffffffffffffffffffffffffffffffffffffff1673ffffffffffffffffffffffffffffffffffffffff16635f6910d460008054906101000a900473ffffffffffffffffffffffffffffffffffffffff1673ffffffffffffffffffffffffffffffffffffffff166307a5ecaa60008054906101000a900473ffffffffffffffffffffffffffffffffffffffff1673ffffffffffffffffffffffffffffffffffffffff16635f6910d48b60200151886040518363ffffffff1660e01b8152600401610cd29291906129d9565b600060405180830381865afa158015610cef573d6000803e3d6000fd5b505050506040513d6000823e3d601f19601f82011682018060405250810190610d18919061294c565b876040518363ffffffff1660e01b8152600401610d369291906129d9565b600060405180830381865afa158015610d53573d6000803e3d6000fd5b505050506040513d6000823e3d601f19601f82011682018060405250810190610d7c919061294c565b88604001516040518363ffffffff1660e01b8152600401610d9e9291906129d9565b600060405180830381865afa158015610dbb573d6000803e3d6000fd5b505050506040513d6000823e3d601f19601f82011682018060405250810190610de4919061294c565b9050610df260008383611b34565b93505050505b92915050565b610e06611e32565b6000610f3a600160008054906101000a900473ffffffffffffffffffffffffffffffffffffffff1673ffffffffffffffffffffffffffffffffffffffff1663bc1b392d6040518163ffffffff1660e01b8152600401600060405180830381865afa158015610e78573d6000803e3d6000fd5b505050506040513d6000823e3d601f19601f82011682018060405250810190610ea1919061294c565b60008054906101000a900473ffffffffffffffffffffffffffffffffffffffff1673ffffffffffffffffffffffffffffffffffffffff1663bc1b392d6040518163ffffffff1660e01b8152600401600060405180830381865afa158015610f0c573d6000803e3d6000fd5b505050506040513d6000823e3d601f19601f82011682018060405250810190610f35919061294c565b611b34565b90508360200151610f5857610f50848483611b72565b91505061106c565b61106873__$7db5d2dbc3ae63372df6c39d501ad0f72a$__63b1d74ee98673__$7db5d2dbc3ae63372df6c39d501ad0f72a$__6340957f726001806040518363ffffffff1660e01b8152600401610fb0929190612ab3565b600060405180830381865af4158015610fcd573d6000803e3d6000fd5b505050506040513d6000823e3d601f19601f82011682018060405250810190610ff69190612adc565b6040518363ffffffff1660e01b8152600401611013929190612bdd565b600060405180830381865af4158015611030573d6000803e3d6000fd5b505050506040513d6000823e3d601f19601f820116820180604052508101906110599190612adc565b6110628561014c565b83611b72565b9150505b92915050565b61107a611e32565b60008054906101000a900473ffffffffffffffffffffffffffffffffffffffff1673ffffffffffffffffffffffffffffffffffffffff1663ab80cf76836040015160008054906101000a900473ffffffffffffffffffffffffffffffffffffffff1673ffffffffffffffffffffffffffffffffffffffff1663bc1b392d6040518163ffffffff1660e01b8152600401600060405180830381865afa158015611126573d6000803e3d6000fd5b505050506040513d6000823e3d601f19601f8201168201806040525081019061114f919061294c565b6040518363ffffffff1660e01b815260040161116c9291906129d9565b602060405180830381865afa158015611189573d6000803e3d6000fd5b505050506040513d601f19601f820116820180604052508101906111ad9190612a10565b156112eb576112e4600160008054906101000a900473ffffffffffffffffffffffffffffffffffffffff1673ffffffffffffffffffffffffffffffffffffffff1663bc1b392d6040518163ffffffff1660e01b8152600401600060405180830381865afa158015611222573d6000803e3d6000fd5b505050506040513d6000823e3d601f19601f8201168201806040525081019061124b919061294c565b60008054906101000a900473ffffffffffffffffffffffffffffffffffffffff1673ffffffffffffffffffffffffffffffffffffffff1663bc1b392d6040518163ffffffff1660e01b8152600401600060405180830381865afa1580156112b6573d6000803e3d6000fd5b505050506040513d6000823e3d601f19601f820116820180604052508101906112df919061294c565b611b34565b9050611b2f565b60008060009054906101000a900473ffffffffffffffffffffffffffffffffffffffff1673ffffffffffffffffffffffffffffffffffffffff166307a5ecaa60008054906101000a900473ffffffffffffffffffffffffffffffffffffffff1673ffffffffffffffffffffffffffffffffffffffff166307a5ecaa60008054906101000a900473ffffffffffffffffffffffffffffffffffffffff1673ffffffffffffffffffffffffffffffffffffffff166345caa1176040518163ffffffff1660e01b8152600401600060405180830381865afa1580156113d1573d6000803e3d6000fd5b505050506040513d6000823e3d601f19601f820116820180604052508101906113fa919061294c565b60008054906101000a900473ffffffffffffffffffffffffffffffffffffffff1673ffffffffffffffffffffffffffffffffffffffff166307a5ecaa89602001518a602001516040518363ffffffff1660e01b815260040161145d9291906129d9565b600060405180830381865afa15801561147a573d6000803e3d6000fd5b505050506040513d6000823e3d601f19601f820116820180604052508101906114a3919061294c565b6040518363ffffffff1660e01b81526004016114c09291906129d9565b600060405180830381865afa1580156114dd573d6000803e3d6000fd5b505050506040513d6000823e3d601f19601f82011682018060405250810190611506919061294c565b60008054906101000a900473ffffffffffffffffffffffffffffffffffffffff1673ffffffffffffffffffffffffffffffffffffffff166364c044fe60008054906101000a900473ffffffffffffffffffffffffffffffffffffffff1673ffffffffffffffffffffffffffffffffffffffff166307a5ecaa60008054906101000a900473ffffffffffffffffffffffffffffffffffffffff1673ffffffffffffffffffffffffffffffffffffffff16635fdf05d76040518163ffffffff1660e01b8152600401600060405180830381865afa1580156115e9573d6000803e3d6000fd5b505050506040513d6000823e3d601f19601f82011682018060405250810190611612919061294c565b8a604001516040518363ffffffff1660e01b81526004016116349291906129d9565b600060405180830381865afa158015611651573d6000803e3d6000fd5b505050506040513d6000823e3d601f19601f8201168201806040525081019061167a919061294c565b6040518263ffffffff1660e01b81526004016116969190612a3d565b600060405180830381865afa1580156116b3573d6000803e3d6000fd5b505050506040513d6000823e3d601f19601f820116820180604052508101906116dc919061294c565b6040518363ffffffff1660e01b81526004016116f99291906129d9565b600060405180830381865afa158015611716573d6000803e3d6000fd5b505050506040513d6000823e3d601f19601f8201168201806040525081019061173f919061294c565b905060008060009054906101000a900473ffffffffffffffffffffffffffffffffffffffff1673ffffffffffffffffffffffffffffffffffffffff16635f6910d460008054906101000a900473ffffffffffffffffffffffffffffffffffffffff1673ffffffffffffffffffffffffffffffffffffffff16635f6910d460008054906101000a900473ffffffffffffffffffffffffffffffffffffffff1673ffffffffffffffffffffffffffffffffffffffff166307a5ecaa87886040518363ffffffff1660e01b81526004016118179291906129d9565b600060405180830381865afa158015611834573d6000803e3d6000fd5b505050506040513d6000823e3d601f19601f8201168201806040525081019061185d919061294c565b88602001516040518363ffffffff1660e01b815260040161187f9291906129d9565b600060405180830381865afa15801561189c573d6000803e3d6000fd5b505050506040513d6000823e3d601f19601f820116820180604052508101906118c5919061294c565b86602001516040518363ffffffff1660e01b81526004016118e79291906129d9565b600060405180830381865afa158015611904573d6000803e3d6000fd5b505050506040513d6000823e3d601f19601f8201168201806040525081019061192d919061294c565b905060008060009054906101000a900473ffffffffffffffffffffffffffffffffffffffff1673ffffffffffffffffffffffffffffffffffffffff16635f6910d460008054906101000a900473ffffffffffffffffffffffffffffffffffffffff1673ffffffffffffffffffffffffffffffffffffffff166307a5ecaa60008054906101000a900473ffffffffffffffffffffffffffffffffffffffff1673ffffffffffffffffffffffffffffffffffffffff16635f6910d48a60200151886040518363ffffffff1660e01b8152600401611a099291906129d9565b600060405180830381865afa158015611a26573d6000803e3d6000fd5b505050506040513d6000823e3d601f19601f82011682018060405250810190611a4f919061294c565b876040518363ffffffff1660e01b8152600401611a6d9291906129d9565b600060405180830381865afa158015611a8a573d6000803e3d6000fd5b505050506040513d6000823e3d601f19601f82011682018060405250810190611ab3919061294c565b87604001516040518363ffffffff1660e01b8152600401611ad59291906129d9565b600060405180830381865afa158015611af2573d6000803e3d6000fd5b505050506040513d6000823e3d601f19601f82011682018060405250810190611b1b919061294c565b9050611b2960008383611b34565b93505050505b919050565b611b3c611e32565b6040518060600160405280856001811115611b5a57611b5961230f565b5b81526020018481526020018381525090509392505050565b611b7a611e32565b600073__$7db5d2dbc3ae63372df6c39d501ad0f72a$__63bc39804e8673__$7db5d2dbc3ae63372df6c39d501ad0f72a$__63bc1b392d6040518163ffffffff1660e01b8152600401600060405180830381865af4158015611be0573d6000803e3d6000fd5b505050506040513d6000823e3d601f19601f82011682018060405250810190611c099190612adc565b60006040518463ffffffff1660e01b8152600401611c2993929190612c14565b602060405180830381865af4158015611c46573d6000803e3d6000fd5b505050506040513d601f19601f82011682018060405250810190611c6a9190612c8f565b03611c7757819050611e2b565b73__$7db5d2dbc3ae63372df6c39d501ad0f72a$__63ee4a4e4e856040518263ffffffff1660e01b8152600401611cae9190612cbc565b602060405180830381865af4158015611ccb573d6000803e3d6000fd5b505050506040513d601f19601f82011682018060405250810190611cef9190612a10565b15611d9657611d8f73__$7db5d2dbc3ae63372df6c39d501ad0f72a$__636efac6c78660016040518363ffffffff1660e01b8152600401611d31929190612cde565b600060405180830381865af4158015611d4e573d6000803e3d6000fd5b505050506040513d6000823e3d601f19601f82011682018060405250810190611d779190612adc565b611d8085611072565b611d8a858761030c565b611b72565b9050611e2b565b611e2873__$7db5d2dbc3ae63372df6c39d501ad0f72a$__636efac6c78660016040518363ffffffff1660e01b8152600401611dd3929190612cde565b600060405180830381865af4158015611df0573d6000803e3d6000fd5b505050506040513d6000823e3d601f19601f82011682018060405250810190611e199190612adc565b611e2285611072565b84611b72565b90505b9392505050565b604051806060016040528060006001811115611e5157611e5061230f565b5b8152602001611e5e611e71565b8152602001611e6b611e71565b81525090565b6040518060400160405280611e84611e97565b8152602001611e91611e97565b81525090565b6040518060200160405280611eaa611eb0565b81525090565b604051806060016040528060608152602001600015158152602001600081525090565b6000604051905090565b600080fd5b600080fd5b600080fd5b6000601f19601f8301169050919050565b7f4e487b7100000000000000000000000000000000000000000000000000000000600052604160045260246000fd5b611f3582611eec565b810181811067ffffffffffffffff82111715611f5457611f53611efd565b5b80604052505050565b6000611f67611ed3565b9050611f738282611f2c565b919050565b600080fd5b60028110611f8a57600080fd5b50565b600081359050611f9c81611f7d565b92915050565b600080fd5b600080fd5b600067ffffffffffffffff821115611fc757611fc6611efd565b5b611fd082611eec565b9050602081019050919050565b82818337600083830152505050565b6000611fff611ffa84611fac565b611f5d565b90508281526020810184848401111561201b5761201a611fa7565b5b612026848285611fdd565b509392505050565b600082601f83011261204357612042611fa2565b5b8135612053848260208601611fec565b91505092915050565b60008115159050919050565b6120718161205c565b811461207c57600080fd5b50565b60008135905061208e81612068565b92915050565b6000819050919050565b6120a781612094565b81146120b257600080fd5b50565b6000813590506120c48161209e565b92915050565b6000606082840312156120e0576120df611ee7565b5b6120ea6060611f5d565b9050600082013567ffffffffffffffff81111561210a57612109611f78565b5b6121168482850161202e565b600083015250602061212a8482850161207f565b602083015250604061213e848285016120b5565b60408301525092915050565b6000602082840312156121605761215f611ee7565b5b61216a6020611f5d565b9050600082013567ffffffffffffffff81111561218a57612189611f78565b5b612196848285016120ca565b60008301525092915050565b6000604082840312156121b8576121b7611ee7565b5b6121c26040611f5d565b9050600082013567ffffffffffffffff8111156121e2576121e1611f78565b5b6121ee8482850161214a565b600083015250602082013567ffffffffffffffff81111561221257612211611f78565b5b61221e8482850161214a565b60208301525092915050565b6000606082840312156122405761223f611ee7565b5b61224a6060611f5d565b9050600061225a84828501611f8d565b600083015250602082013567ffffffffffffffff81111561227e5761227d611f78565b5b61228a848285016121a2565b602083015250604082013567ffffffffffffffff8111156122ae576122ad611f78565b5b6122ba848285016121a2565b60408301525092915050565b6000602082840312156122dc576122db611edd565b5b600082013567ffffffffffffffff8111156122fa576122f9611ee2565b5b6123068482850161222a565b91505092915050565b7f4e487b7100000000000000000000000000000000000000000000000000000000600052602160045260246000fd5b6002811061234f5761234e61230f565b5b50565b60008190506123608261233e565b919050565b600061237082612352565b9050919050565b61238081612365565b82525050565b600081519050919050565b600082825260208201905092915050565b60005b838110156123c05780820151818401526020810190506123a5565b60008484015250505050565b60006123d782612386565b6123e18185612391565b93506123f18185602086016123a2565b6123fa81611eec565b840191505092915050565b61240e8161205c565b82525050565b61241d81612094565b82525050565b6000606083016000830151848203600086015261244082826123cc565b91505060208301516124556020860182612405565b5060408301516124686040860182612414565b508091505092915050565b600060208301600083015184820360008601526124908282612423565b9150508091505092915050565b600060408301600083015184820360008601526124ba8282612473565b915050602083015184820360208601526124d48282612473565b9150508091505092915050565b60006060830160008301516124f96000860182612377565b5060208301518482036020860152612511828261249d565b9150506040830151848203604086015261252b828261249d565b9150508091505092915050565b6000602082019050818103600083015261255281846124e1565b905092915050565b6000806040838503121561257157612570611edd565b5b600083013567ffffffffffffffff81111561258f5761258e611ee2565b5b61259b8582860161222a565b925050602083013567ffffffffffffffff8111156125bc576125bb611ee2565b5b6125c88582860161222a565b9150509250929050565b600080604083850312156125e9576125e8611edd565b5b600083013567ffffffffffffffff81111561260757612606611ee2565b5b612613858286016120ca565b925050602083013567ffffffffffffffff81111561263457612633611ee2565b5b6126408582860161222a565b9150509250929050565b60008060006060848603121561266357612662611edd565b5b600061267186828701611f8d565b935050602084013567ffffffffffffffff81111561269257612691611ee2565b5b61269e868287016121a2565b925050604084013567ffffffffffffffff8111156126bf576126be611ee2565b5b6126cb868287016121a2565b9150509250925092565b600082825260208201905092915050565b7f63616e6e6f74206e656761746520706f696e7420617420696e66696e69747900600082015250565b600061271c601f836126d5565b9150612727826126e6565b602082019050919050565b6000602082019050818103600083015261274b8161270f565b9050919050565b600061276561276084611fac565b611f5d565b90508281526020810184848401111561278157612780611fa7565b5b61278c8482856123a2565b509392505050565b600082601f8301126127a9576127a8611fa2565b5b81516127b9848260208601612752565b91505092915050565b6000815190506127d181612068565b92915050565b6000815190506127e68161209e565b92915050565b60006060828403121561280257612801611ee7565b5b61280c6060611f5d565b9050600082015167ffffffffffffffff81111561282c5761282b611f78565b5b61283884828501612794565b600083015250602061284c848285016127c2565b6020830152506040612860848285016127d7565b60408301525092915050565b60006020828403121561288257612881611ee7565b5b61288c6020611f5d565b9050600082015167ffffffffffffffff8111156128ac576128ab611f78565b5b6128b8848285016127ec565b60008301525092915050565b6000604082840312156128da576128d9611ee7565b5b6128e46040611f5d565b9050600082015167ffffffffffffffff81111561290457612903611f78565b5b6129108482850161286c565b600083015250602082015167ffffffffffffffff81111561293457612933611f78565b5b6129408482850161286c565b60208301525092915050565b60006020828403121561296257612961611edd565b5b600082015167ffffffffffffffff8111156129805761297f611ee2565b5b61298c848285016128c4565b91505092915050565b600060408301600083015184820360008601526129b28282612473565b915050602083015184820360208601526129cc8282612473565b9150508091505092915050565b600060408201905081810360008301526129f38185612995565b90508181036020830152612a078184612995565b90509392505050565b600060208284031215612a2657612a25611edd565b5b6000612a34848285016127c2565b91505092915050565b60006020820190508181036000830152612a578184612995565b905092915050565b6000819050919050565b6000819050919050565b6000612a8e612a89612a8484612a5f565b612a69565b612094565b9050919050565b612a9e81612a73565b82525050565b612aad8161205c565b82525050565b6000604082019050612ac86000830185612a95565b612ad56020830184612aa4565b9392505050565b600060208284031215612af257612af1611edd565b5b600082015167ffffffffffffffff811115612b1057612b0f611ee2565b5b612b1c848285016127ec565b91505092915050565b600082825260208201905092915050565b6000612b4182612386565b612b4b8185612b25565b9350612b5b8185602086016123a2565b612b6481611eec565b840191505092915050565b612b788161205c565b82525050565b612b8781612094565b82525050565b60006060830160008301518482036000860152612baa8282612b36565b9150506020830151612bbf6020860182612b6f565b506040830151612bd26040860182612b7e565b508091505092915050565b60006040820190508181036000830152612bf78185612b8d565b90508181036020830152612c0b8184612b8d565b90509392505050565b60006060820190508181036000830152612c2e8186612b8d565b90508181036020830152612c428185612b8d565b9050612c516040830184612aa4565b949350505050565b6000819050919050565b612c6c81612c59565b8114612c7757600080fd5b50565b600081519050612c8981612c63565b92915050565b600060208284031215612ca557612ca4611edd565b5b6000612cb384828501612c7a565b91505092915050565b60006020820190508181036000830152612cd68184612b8d565b905092915050565b60006040820190508181036000830152612cf88185612b8d565b9050612d076020830184612a95565b939250505056fea26469706673582212200c5d2d3f1abbb5e50ebe56c1b3d47474da5d71d57647dfe1f4a8b947d92d970564736f6c634300081b0033608060405234801561001057600080fd5b506040516131e83803806131e8833981810160405281019061003291906100ed565b806000806101000a81548173ffffffffffffffffffffffffffffffffffffffff021916908373ffffffffffffffffffffffffffffffffffffffff1602179055505061011a565b600080fd5b600073ffffffffffffffffffffffffffffffffffffffff82169050919050565b60006100a88261007d565b9050919050565b60006100ba8261009d565b9050919050565b6100ca816100af565b81146100d557600080fd5b50565b6000815190506100e7816100c1565b92915050565b60006020828403121561010357610102610078565b5b6000610111848285016100d8565b91505092915050565b6130bf806101296000396000f3fe608060405234801561001057600080fd5b50600436106100575760003560e01c80631d763e261461005c5780634156f5141461008c5780635bd69fb6146100bc578063adbe3ee3146100ec578063dec70b291461011c575b600080fd5b610076600480360381019061007191906123c3565b61014c565b6040516100839190612719565b60405180910390f35b6100a660048036038101906100a191906127d7565b61018a565b6040516100b39190612719565b60405180910390f35b6100d660048036038101906100d1919061284f565b610c7c565b6040516100e39190612719565b60405180910390f35b610106600480360381019061010191906128c7565b610ef0565b6040516101139190612719565b60405180910390f35b610136600480360381019061013191906128c7565b6119b2565b6040516101439190612719565b60405180910390f35b610154611e32565b60405180606001604052808560018111156101725761017161244e565b5b81526020018481526020018381525090509392505050565b610192611e32565b6001808111156101a5576101a461244e565b5b836000015160018111156101bc576101bb61244e565b5b036101c957819050610c76565b6001808111156101dc576101db61244e565b5b826000015160018111156101f3576101f261244e565b5b0361020057829050610c76565b60008054906101000a900473ffffffffffffffffffffffffffffffffffffffff1673ffffffffffffffffffffffffffffffffffffffff16639eea8ce8846020015184602001516040518363ffffffff1660e01b8152600401610263929190612954565b602060405180830381865afa158015610280573d6000803e3d6000fd5b505050506040513d601f19601f820116820180604052508101906102a491906129a0565b8015610350575060008054906101000a900473ffffffffffffffffffffffffffffffffffffffff1673ffffffffffffffffffffffffffffffffffffffff16639eea8ce8846040015184604001516040518363ffffffff1660e01b815260040161030e929190612954565b602060405180830381865afa15801561032b573d6000803e3d6000fd5b505050506040513d601f19601f8201168201806040525081019061034f91906129a0565b5b156103655761035e83610ef0565b9050610c76565b60008054906101000a900473ffffffffffffffffffffffffffffffffffffffff1673ffffffffffffffffffffffffffffffffffffffff16639eea8ce8846020015184602001516040518363ffffffff1660e01b81526004016103c8929190612954565b602060405180830381865afa1580156103e5573d6000803e3d6000fd5b505050506040513d601f19601f8201168201806040525081019061040991906129a0565b80156104b6575060008054906101000a900473ffffffffffffffffffffffffffffffffffffffff1673ffffffffffffffffffffffffffffffffffffffff16639eea8ce8846040015184604001516040518363ffffffff1660e01b8152600401610473929190612954565b602060405180830381865afa158015610490573d6000803e3d6000fd5b505050506040513d601f19601f820116820180604052508101906104b491906129a0565b155b156105f4576105ed600160008054906101000a900473ffffffffffffffffffffffffffffffffffffffff1673ffffffffffffffffffffffffffffffffffffffff1663bc1b392d6040518163ffffffff1660e01b8152600401600060405180830381865afa15801561052b573d6000803e3d6000fd5b505050506040513d6000823e3d601f19601f820116820180604052508101906105549190612cf2565b60008054906101000a900473ffffffffffffffffffffffffffffffffffffffff1673ffffffffffffffffffffffffffffffffffffffff1663bc1b392d6040518163ffffffff1660e01b8152600401600060405180830381865afa1580156105bf573d6000803e3d6000fd5b505050506040513d6000823e3d601f19601f820116820180604052508101906105e89190612cf2565b61014c565b9050610c76565b60008060009054906101000a900473ffffffffffffffffffffffffffffffffffffffff1673ffffffffffffffffffffffffffffffffffffffff166377839c6960008054906101000a900473ffffffffffffffffffffffffffffffffffffffff1673ffffffffffffffffffffffffffffffffffffffff16636bc90c28866040015188604001516040518363ffffffff1660e01b8152600401610696929190612954565b600060405180830381865afa1580156106b3573d6000803e3d6000fd5b505050506040513d6000823e3d601f19601f820116820180604052508101906106dc9190612cf2565b60008054906101000a900473ffffffffffffffffffffffffffffffffffffffff1673ffffffffffffffffffffffffffffffffffffffff1663f670079560008054906101000a900473ffffffffffffffffffffffffffffffffffffffff1673ffffffffffffffffffffffffffffffffffffffff16636bc90c2889602001518b602001516040518363ffffffff1660e01b815260040161077b929190612954565b600060405180830381865afa158015610798573d6000803e3d6000fd5b505050506040513d6000823e3d601f19601f820116820180604052508101906107c19190612cf2565b6040518263ffffffff1660e01b81526004016107dd9190612d3b565b600060405180830381865afa1580156107fa573d6000803e3d6000fd5b505050506040513d6000823e3d601f19601f820116820180604052508101906108239190612cf2565b6040518363ffffffff1660e01b8152600401610840929190612954565b600060405180830381865afa15801561085d573d6000803e3d6000fd5b505050506040513d6000823e3d601f19601f820116820180604052508101906108869190612cf2565b905060008060009054906101000a900473ffffffffffffffffffffffffffffffffffffffff1673ffffffffffffffffffffffffffffffffffffffff16636bc90c2860008054906101000a900473ffffffffffffffffffffffffffffffffffffffff1673ffffffffffffffffffffffffffffffffffffffff16636bc90c2860008054906101000a900473ffffffffffffffffffffffffffffffffffffffff1673ffffffffffffffffffffffffffffffffffffffff166377839c6987886040518363ffffffff1660e01b815260040161095e929190612954565b600060405180830381865afa15801561097b573d6000803e3d6000fd5b505050506040513d6000823e3d601f19601f820116820180604052508101906109a49190612cf2565b89602001516040518363ffffffff1660e01b81526004016109c6929190612954565b600060405180830381865afa1580156109e3573d6000803e3d6000fd5b505050506040513d6000823e3d601f19601f82011682018060405250810190610a0c9190612cf2565b86602001516040518363ffffffff1660e01b8152600401610a2e929190612954565b600060405180830381865afa158015610a4b573d6000803e3d6000fd5b505050506040513d6000823e3d601f19601f82011682018060405250810190610a749190612cf2565b905060008060009054906101000a900473ffffffffffffffffffffffffffffffffffffffff1673ffffffffffffffffffffffffffffffffffffffff16636bc90c2860008054906101000a900473ffffffffffffffffffffffffffffffffffffffff1673ffffffffffffffffffffffffffffffffffffffff166377839c6960008054906101000a900473ffffffffffffffffffffffffffffffffffffffff1673ffffffffffffffffffffffffffffffffffffffff16636bc90c288b60200151886040518363ffffffff1660e01b8152600401610b50929190612954565b600060405180830381865afa158015610b6d573d6000803e3d6000fd5b505050506040513d6000823e3d601f19601f82011682018060405250810190610b969190612cf2565b876040518363ffffffff1660e01b8152600401610bb4929190612954565b600060405180830381865afa158015610bd1573d6000803e3d6000fd5b505050506040513d6000823e3d601f19601f82011682018060405250810190610bfa9190612cf2565b88604001516040518363ffffffff1660e01b8152600401610c1c929190612954565b600060405180830381865afa158015610c39573d6000803e3d6000fd5b505050506040513d6000823e3d601f19601f82011682018060405250810190610c629190612cf2565b9050610c706000838361014c565b93505050505b92915050565b610c84611e32565b6000610db8600160008054906101000a900473ffffffffffffffffffffffffffffffffffffffff1673ffffffffffffffffffffffffffffffffffffffff1663bc1b392d6040518163ffffffff1660e01b8152600401600060405180830381865afa158015610cf6573d6000803e3d6000fd5b505050506040513d6000823e3d601f19601f82011682018060405250810190610d1f9190612cf2565b60008054906101000a900473ffffffffffffffffffffffffffffffffffffffff1673ffffffffffffffffffffffffffffffffffffffff1663bc1b392d6040518163ffffffff1660e01b8152600401600060405180830381865afa158015610d8a573d6000803e3d6000fd5b505050506040513d6000823e3d601f19601f82011682018060405250810190610db39190612cf2565b61014c565b90508360200151610dd657610dce848483611b72565b915050610eea565b610ee673__$7db5d2dbc3ae63372df6c39d501ad0f72a$__63b1d74ee98673__$7db5d2dbc3ae63372df6c39d501ad0f72a$__6340957f726001806040518363ffffffff1660e01b8152600401610e2e929190612db1565b600060405180830381865af4158015610e4b573d6000803e3d6000fd5b505050506040513d6000823e3d601f19601f82011682018060405250810190610e749190612dda565b6040518363ffffffff1660e01b8152600401610e91929190612edb565b600060405180830381865af4158015610eae573d6000803e3d6000fd5b505050506040513d6000823e3d601f19601f82011682018060405250810190610ed79190612dda565b610ee0856119b2565b83611b72565b9150505b92915050565b610ef8611e32565b60008054906101000a900473ffffffffffffffffffffffffffffffffffffffff1673ffffffffffffffffffffffffffffffffffffffff16639eea8ce8836040015160008054906101000a900473ffffffffffffffffffffffffffffffffffffffff1673ffffffffffffffffffffffffffffffffffffffff1663bc1b392d6040518163ffffffff1660e01b8152600401600060405180830381865afa158015610fa4573d6000803e3d6000fd5b505050506040513d6000823e3d601f19601f82011682018060405250810190610fcd9190612cf2565b6040518363ffffffff1660e01b8152600401610fea929190612954565b602060405180830381865afa158015611007573d6000803e3d6000fd5b505050506040513d601f19601f8201168201806040525081019061102b91906129a0565b1561116957611162600160008054906101000a900473ffffffffffffffffffffffffffffffffffffffff1673ffffffffffffffffffffffffffffffffffffffff1663bc1b392d6040518163ffffffff1660e01b8152600401600060405180830381865afa1580156110a0573d6000803e3d6000fd5b505050506040513d6000823e3d601f19601f820116820180604052508101906110c99190612cf2565b60008054906101000a900473ffffffffffffffffffffffffffffffffffffffff1673ffffffffffffffffffffffffffffffffffffffff1663bc1b392d6040518163ffffffff1660e01b8152600401600060405180830381865afa158015611134573d6000803e3d6000fd5b505050506040513d6000823e3d601f19601f8201168201806040525081019061115d9190612cf2565b61014c565b90506119ad565b60008060009054906101000a900473ffffffffffffffffffffffffffffffffffffffff1673ffffffffffffffffffffffffffffffffffffffff166377839c6960008054906101000a900473ffffffffffffffffffffffffffffffffffffffff1673ffffffffffffffffffffffffffffffffffffffff166377839c6960008054906101000a900473ffffffffffffffffffffffffffffffffffffffff1673ffffffffffffffffffffffffffffffffffffffff166345caa1176040518163ffffffff1660e01b8152600401600060405180830381865afa15801561124f573d6000803e3d6000fd5b505050506040513d6000823e3d601f19601f820116820180604052508101906112789190612cf2565b60008054906101000a900473ffffffffffffffffffffffffffffffffffffffff1673ffffffffffffffffffffffffffffffffffffffff166377839c6989602001518a602001516040518363ffffffff1660e01b81526004016112db929190612954565b600060405180830381865afa1580156112f8573d6000803e3d6000fd5b505050506040513d6000823e3d601f19601f820116820180604052508101906113219190612cf2565b6040518363ffffffff1660e01b815260040161133e929190612954565b600060405180830381865afa15801561135b573d6000803e3d6000fd5b505050506040513d6000823e3d601f19601f820116820180604052508101906113849190612cf2565b60008054906101000a900473ffffffffffffffffffffffffffffffffffffffff1673ffffffffffffffffffffffffffffffffffffffff1663f670079560008054906101000a900473ffffffffffffffffffffffffffffffffffffffff1673ffffffffffffffffffffffffffffffffffffffff166377839c6960008054906101000a900473ffffffffffffffffffffffffffffffffffffffff1673ffffffffffffffffffffffffffffffffffffffff16635fdf05d76040518163ffffffff1660e01b8152600401600060405180830381865afa158015611467573d6000803e3d6000fd5b505050506040513d6000823e3d601f19601f820116820180604052508101906114909190612cf2565b8a604001516040518363ffffffff1660e01b81526004016114b2929190612954565b600060405180830381865afa1580156114cf573d6000803e3d6000fd5b505050506040513d6000823e3d601f19601f820116820180604052508101906114f89190612cf2565b6040518263ffffffff1660e01b81526004016115149190612d3b565b600060405180830381865afa158015611531573d6000803e3d6000fd5b505050506040513d6000823e3d601f19601f8201168201806040525081019061155a9190612cf2565b6040518363ffffffff1660e01b8152600401611577929190612954565b600060405180830381865afa158015611594573d6000803e3d6000fd5b505050506040513d6000823e3d601f19601f820116820180604052508101906115bd9190612cf2565b905060008060009054906101000a900473ffffffffffffffffffffffffffffffffffffffff1673ffffffffffffffffffffffffffffffffffffffff16636bc90c2860008054906101000a900473ffffffffffffffffffffffffffffffffffffffff1673ffffffffffffffffffffffffffffffffffffffff16636bc90c2860008054906101000a900473ffffffffffffffffffffffffffffffffffffffff1673ffffffffffffffffffffffffffffffffffffffff166377839c6987886040518363ffffffff1660e01b8152600401611695929190612954565b600060405180830381865afa1580156116b2573d6000803e3d6000fd5b505050506040513d6000823e3d601f19601f820116820180604052508101906116db9190612cf2565b88602001516040518363ffffffff1660e01b81526004016116fd929190612954565b600060405180830381865afa15801561171a573d6000803e3d6000fd5b505050506040513d6000823e3d601f19601f820116820180604052508101906117439190612cf2565b86602001516040518363ffffffff1660e01b8152600401611765929190612954565b600060405180830381865afa158015611782573d6000803e3d6000fd5b505050506040513d6000823e3d601f19601f820116820180604052508101906117ab9190612cf2565b905060008060009054906101000a900473ffffffffffffffffffffffffffffffffffffffff1673ffffffffffffffffffffffffffffffffffffffff16636bc90c2860008054906101000a900473ffffffffffffffffffffffffffffffffffffffff1673ffffffffffffffffffffffffffffffffffffffff166377839c6960008054906101000a900473ffffffffffffffffffffffffffffffffffffffff1673ffffffffffffffffffffffffffffffffffffffff16636bc90c288a60200151886040518363ffffffff1660e01b8152600401611887929190612954565b600060405180830381865afa1580156118a4573d6000803e3d6000fd5b505050506040513d6000823e3d601f19601f820116820180604052508101906118cd9190612cf2565b876040518363ffffffff1660e01b81526004016118eb929190612954565b600060405180830381865afa158015611908573d6000803e3d6000fd5b505050506040513d6000823e3d601f19601f820116820180604052508101906119319190612cf2565b87604001516040518363ffffffff1660e01b8152600401611953929190612954565b600060405180830381865afa158015611970573d6000803e3d6000fd5b505050506040513d6000823e3d601f19601f820116820180604052508101906119999190612cf2565b90506119a76000838361014c565b93505050505b919050565b6119ba611e32565b6001808111156119cd576119cc61244e565b5b826000015160018111156119e4576119e361244e565b5b03611a24576040517f08c379a0000000000000000000000000000000000000000000000000000000008152600401611a1b90612f6f565b60405180910390fd5b611b6b6000836020015160008054906101000a900473ffffffffffffffffffffffffffffffffffffffff1673ffffffffffffffffffffffffffffffffffffffff16636bc90c2860008054906101000a900473ffffffffffffffffffffffffffffffffffffffff1673ffffffffffffffffffffffffffffffffffffffff1663bc1b392d6040518163ffffffff1660e01b8152600401600060405180830381865afa158015611ad5573d6000803e3d6000fd5b505050506040513d6000823e3d601f19601f82011682018060405250810190611afe9190612cf2565b87604001516040518363ffffffff1660e01b8152600401611b20929190612954565b600060405180830381865afa158015611b3d573d6000803e3d6000fd5b505050506040513d6000823e3d601f19601f82011682018060405250810190611b669190612cf2565b61014c565b9050919050565b611b7a611e32565b600073__$7db5d2dbc3ae63372df6c39d501ad0f72a$__63bc39804e8673__$7db5d2dbc3ae63372df6c39d501ad0f72a$__63bc1b392d6040518163ffffffff1660e01b8152600401600060405180830381865af4158015611be0573d6000803e3d6000fd5b505050506040513d6000823e3d601f19601f82011682018060405250810190611c099190612dda565b60006040518463ffffffff1660e01b8152600401611c2993929190612f8f565b602060405180830381865af4158015611c46573d6000803e3d6000fd5b505050506040513d601f19601f82011682018060405250810190611c6a919061300a565b03611c7757819050611e2b565b73__$7db5d2dbc3ae63372df6c39d501ad0f72a$__63ee4a4e4e856040518263ffffffff1660e01b8152600401611cae9190613037565b602060405180830381865af4158015611ccb573d6000803e3d6000fd5b505050506040513d601f19601f82011682018060405250810190611cef91906129a0565b15611d9657611d8f73__$7db5d2dbc3ae63372df6c39d501ad0f72a$__636efac6c78660016040518363ffffffff1660e01b8152600401611d31929190613059565b600060405180830381865af4158015611d4e573d6000803e3d6000fd5b505050506040513d6000823e3d601f19601f82011682018060405250810190611d779190612dda565b611d8085610ef0565b611d8a858761018a565b611b72565b9050611e2b565b611e2873__$7db5d2dbc3ae63372df6c39d501ad0f72a$__636efac6c78660016040518363ffffffff1660e01b8152600401611dd3929190613059565b600060405180830381865af4158015611df0573d6000803e3d6000fd5b505050506040513d6000823e3d601f19601f82011682018060405250810190611e199190612dda565b611e2285610ef0565b84611b72565b90505b9392505050565b604051806060016040528060006001811115611e5157611e5061244e565b5b8152602001611e5e611e71565b8152602001611e6b611e71565b81525090565b6040518060400160405280611e84611e97565b8152602001611e91611e97565b81525090565b6040518060600160405280611eaa611eca565b8152602001611eb7611eca565b8152602001611ec4611eca565b81525090565b6040518060400160405280611edd611ef0565b8152602001611eea611ef0565b81525090565b6040518060200160405280611f03611f09565b81525090565b604051806060016040528060608152602001600015158152602001600081525090565b6000604051905090565b600080fd5b600080fd5b60028110611f4d57600080fd5b50565b600081359050611f5f81611f40565b92915050565b600080fd5b6000601f19601f8301169050919050565b7f4e487b7100000000000000000000000000000000000000000000000000000000600052604160045260246000fd5b611fb382611f6a565b810181811067ffffffffffffffff82111715611fd257611fd1611f7b565b5b80604052505050565b6000611fe5611f2c565b9050611ff18282611faa565b919050565b600080fd5b600080fd5b600080fd5b600067ffffffffffffffff8211156120205761201f611f7b565b5b61202982611f6a565b9050602081019050919050565b82818337600083830152505050565b600061205861205384612005565b611fdb565b90508281526020810184848401111561207457612073612000565b5b61207f848285612036565b509392505050565b600082601f83011261209c5761209b611ffb565b5b81356120ac848260208601612045565b91505092915050565b60008115159050919050565b6120ca816120b5565b81146120d557600080fd5b50565b6000813590506120e7816120c1565b92915050565b6000819050919050565b612100816120ed565b811461210b57600080fd5b50565b60008135905061211d816120f7565b92915050565b60006060828403121561213957612138611f65565b5b6121436060611fdb565b9050600082013567ffffffffffffffff81111561216357612162611ff6565b5b61216f84828501612087565b6000830152506020612183848285016120d8565b60208301525060406121978482850161210e565b60408301525092915050565b6000602082840312156121b9576121b8611f65565b5b6121c36020611fdb565b9050600082013567ffffffffffffffff8111156121e3576121e2611ff6565b5b6121ef84828501612123565b60008301525092915050565b60006040828403121561221157612210611f65565b5b61221b6040611fdb565b9050600082013567ffffffffffffffff81111561223b5761223a611ff6565b5b612247848285016121a3565b600083015250602082013567ffffffffffffffff81111561226b5761226a611ff6565b5b612277848285016121a3565b60208301525092915050565b60006060828403121561229957612298611f65565b5b6122a36060611fdb565b9050600082013567ffffffffffffffff8111156122c3576122c2611ff6565b5b6122cf848285016121fb565b600083015250602082013567ffffffffffffffff8111156122f3576122f2611ff6565b5b6122ff848285016121fb565b602083015250604082013567ffffffffffffffff81111561232357612322611ff6565b5b61232f848285016121fb565b60408301525092915050565b60006040828403121561235157612350611f65565b5b61235b6040611fdb565b9050600082013567ffffffffffffffff81111561237b5761237a611ff6565b5b61238784828501612283565b600083015250602082013567ffffffffffffffff8111156123ab576123aa611ff6565b5b6123b784828501612283565b60208301525092915050565b6000806000606084860312156123dc576123db611f36565b5b60006123ea86828701611f50565b935050602084013567ffffffffffffffff81111561240b5761240a611f3b565b5b6124178682870161233b565b925050604084013567ffffffffffffffff81111561243857612437611f3b565b5b6124448682870161233b565b9150509250925092565b7f4e487b7100000000000000000000000000000000000000000000000000000000600052602160045260246000fd5b6002811061248e5761248d61244e565b5b50565b600081905061249f8261247d565b919050565b60006124af82612491565b9050919050565b6124bf816124a4565b82525050565b600081519050919050565b600082825260208201905092915050565b60005b838110156124ff5780820151818401526020810190506124e4565b60008484015250505050565b6000612516826124c5565b61252081856124d0565b93506125308185602086016124e1565b61253981611f6a565b840191505092915050565b61254d816120b5565b82525050565b61255c816120ed565b82525050565b6000606083016000830151848203600086015261257f828261250b565b91505060208301516125946020860182612544565b5060408301516125a76040860182612553565b508091505092915050565b600060208301600083015184820360008601526125cf8282612562565b9150508091505092915050565b600060408301600083015184820360008601526125f982826125b2565b9150506020830151848203602086015261261382826125b2565b9150508091505092915050565b6000606083016000830151848203600086015261263d82826125dc565b9150506020830151848203602086015261265782826125dc565b9150506040830151848203604086015261267182826125dc565b9150508091505092915050565b6000604083016000830151848203600086015261269b8282612620565b915050602083015184820360208601526126b58282612620565b9150508091505092915050565b60006060830160008301516126da60008601826124b6565b50602083015184820360208601526126f2828261267e565b9150506040830151848203604086015261270c828261267e565b9150508091505092915050565b6000602082019050818103600083015261273381846126c2565b905092915050565b60006060828403121561275157612750611f65565b5b61275b6060611fdb565b9050600061276b84828501611f50565b600083015250602082013567ffffffffffffffff81111561278f5761278e611ff6565b5b61279b8482850161233b565b602083015250604082013567ffffffffffffffff8111156127bf576127be611ff6565b5b6127cb8482850161233b565b60408301525092915050565b600080604083850312156127ee576127ed611f36565b5b600083013567ffffffffffffffff81111561280c5761280b611f3b565b5b6128188582860161273b565b925050602083013567ffffffffffffffff81111561283957612838611f3b565b5b6128458582860161273b565b9150509250929050565b6000806040838503121561286657612865611f36565b5b600083013567ffffffffffffffff81111561288457612883611f3b565b5b61289085828601612123565b925050602083013567ffffffffffffffff8111156128b1576128b0611f3b565b5b6128bd8582860161273b565b9150509250929050565b6000602082840312156128dd576128dc611f36565b5b600082013567ffffffffffffffff8111156128fb576128fa611f3b565b5b6129078482850161273b565b91505092915050565b6000604083016000830151848203600086015261292d8282612620565b915050602083015184820360208601526129478282612620565b9150508091505092915050565b6000604082019050818103600083015261296e8185612910565b905081810360208301526129828184612910565b90509392505050565b60008151905061299a816120c1565b92915050565b6000602082840312156129b6576129b5611f36565b5b60006129c48482850161298b565b91505092915050565b60006129e06129db84612005565b611fdb565b9050828152602081018484840111156129fc576129fb612000565b5b612a078482856124e1565b509392505050565b600082601f830112612a2457612a23611ffb565b5b8151612a348482602086016129cd565b91505092915050565b600081519050612a4c816120f7565b92915050565b600060608284031215612a6857612a67611f65565b5b612a726060611fdb565b9050600082015167ffffffffffffffff811115612a9257612a91611ff6565b5b612a9e84828501612a0f565b6000830152506020612ab28482850161298b565b6020830152506040612ac684828501612a3d565b60408301525092915050565b600060208284031215612ae857612ae7611f65565b5b612af26020611fdb565b9050600082015167ffffffffffffffff811115612b1257612b11611ff6565b5b612b1e84828501612a52565b60008301525092915050565b600060408284031215612b4057612b3f611f65565b5b612b4a6040611fdb565b9050600082015167ffffffffffffffff811115612b6a57612b69611ff6565b5b612b7684828501612ad2565b600083015250602082015167ffffffffffffffff811115612b9a57612b99611ff6565b5b612ba684828501612ad2565b60208301525092915050565b600060608284031215612bc857612bc7611f65565b5b612bd26060611fdb565b9050600082015167ffffffffffffffff811115612bf257612bf1611ff6565b5b612bfe84828501612b2a565b600083015250602082015167ffffffffffffffff811115612c2257612c21611ff6565b5b612c2e84828501612b2a565b602083015250604082015167ffffffffffffffff811115612c5257612c51611ff6565b5b612c5e84828501612b2a565b60408301525092915050565b600060408284031215612c8057612c7f611f65565b5b612c8a6040611fdb565b9050600082015167ffffffffffffffff811115612caa57612ca9611ff6565b5b612cb684828501612bb2565b600083015250602082015167ffffffffffffffff811115612cda57612cd9611ff6565b5b612ce684828501612bb2565b60208301525092915050565b600060208284031215612d0857612d07611f36565b5b600082015167ffffffffffffffff811115612d2657612d25611f3b565b5b612d3284828501612c6a565b91505092915050565b60006020820190508181036000830152612d558184612910565b905092915050565b6000819050919050565b6000819050919050565b6000612d8c612d87612d8284612d5d565b612d67565b6120ed565b9050919050565b612d9c81612d71565b82525050565b612dab816120b5565b82525050565b6000604082019050612dc66000830185612d93565b612dd36020830184612da2565b9392505050565b600060208284031215612df057612def611f36565b5b600082015167ffffffffffffffff811115612e0e57612e0d611f3b565b5b612e1a84828501612a52565b91505092915050565b600082825260208201905092915050565b6000612e3f826124c5565b612e498185612e23565b9350612e598185602086016124e1565b612e6281611f6a565b840191505092915050565b612e76816120b5565b82525050565b612e85816120ed565b82525050565b60006060830160008301518482036000860152612ea88282612e34565b9150506020830151612ebd6020860182612e6d565b506040830151612ed06040860182612e7c565b508091505092915050565b60006040820190508181036000830152612ef58185612e8b565b90508181036020830152612f098184612e8b565b90509392505050565b600082825260208201905092915050565b7f63616e6e6f74206e656761746520706f696e7420617420696e66696e69747900600082015250565b6000612f59601f83612f12565b9150612f6482612f23565b602082019050919050565b60006020820190508181036000830152612f8881612f4c565b9050919050565b60006060820190508181036000830152612fa98186612e8b565b90508181036020830152612fbd8185612e8b565b9050612fcc6040830184612da2565b949350505050565b6000819050919050565b612fe781612fd4565b8114612ff257600080fd5b50565b60008151905061300481612fde565b92915050565b6000602082840312156130205761301f611f36565b5b600061302e84828501612ff5565b91505092915050565b600060208201905081810360008301526130518184612e8b565b905092915050565b600060408201905081810360008301526130738185612e8b565b90506130826020830184612d93565b939250505056fea26469706673582212203c9124283b277c5d7730b776980f3eab1575c2f00b5a12453323c4fb5f2260a564736f6c634300081b0033",
  "linkReferences": {
    "contracts/BigNumber.sol": {
      "BigNumbers": [
        {
          "length": 20,
          "start": 6
        },
        {
          "length": 20,
          "start": 199
        },
        {
          "length": 20,
          "start": 1534
        },
        {
          "length": 20,
          "start": 1820
        },
        {
          "length": 20,
          "start": 2555
        },
        {
          "length": 20,
          "start": 2841
        },
        {
          "length": 20,
          "start": 3288
        },
        {
          "length": 20,
          "start": 3574
        },
        {
          "length": 20,
          "start": 16600
        },
        {
          "length": 20,
          "start": 16977
        },
        {
          "length": 20,
          "start": 17004
        },
        {
          "length": 20,
          "start": 17217
        },
        {
          "length": 20,
          "start": 17374
        },
        {
          "length": 20,
          "start": 18817
        },
        {
          "length": 20,
          "start": 25388
        },
        {
          "length": 20,
          "start": 25415
        },
        {
          "length": 20,
          "start": 25642
        },
        {
          "length": 20,
          "start": 25778
        },
        {
          "length": 20,
          "start": 38954
        },
        {
          "length": 20,
          "start": 41994
        },
        {
          "length": 20,
          "start": 42252
        },
        {
          "length": 20,
          "start": 42491
        },
        {
          "length": 20,
          "start": 42766
        },
        {
          "length": 20,
          "start": 42986
        },
        {
          "length": 20,
          "start": 43146
        },
        {
          "length": 20,
          "start": 43287
        },
        {
          "length": 20,
          "start": 43428
        },
        {
          "length": 20,
          "start": 43569
        },
        {
          "length": 20,
          "start": 43729
        },
        {
          "length": 20,
          "start": 43940
        },
        {
          "length": 20,
          "start": 43971
        },
        {
          "length": 20,
          "start": 44249
        },
        {
          "length": 20,
          "start": 44280
        },
        {
          "length": 20,
          "start": 44308
        },
        {
          "length": 20,
          "start": 44676
        },
        {
          "length": 20,
          "start": 44915
        },
        {
          "length": 20,
          "start": 45127
        },
        {
          "length": 20,
          "start": 45319
        },
        {
          "length": 20,
          "start": 45558
        },
        {
          "length": 20,
          "start": 45770
        },
        {
          "length": 20,
          "start": 45946
        },
        {
          "length": 20,
          "start": 46100
        },
        {
          "length": 20,
          "start": 46339
        },
        {
          "length": 20,
          "start": 46548
        },
        {
          "length": 20,
          "start": 46939
        },
        {
          "length": 20,
          "start": 47178
        },
        {
          "length": 20,
          "start": 47390
        },
        {
          "length": 20,
          "start": 85801
        },
        {
          "length": 20,
          "start": 85828
        },
        {
          "length": 20,
          "start": 91906
        },
        {
          "length": 20,
          "start": 91933
        },
        {
          "length": 20,
          "start": 92157
        },
        {
          "length": 20,
          "start": 92285
        },
        {
          "length": 20,
          "start": 92447
        },
        {
          "length": 20,
          "start": 100263
        },
        {
          "length": 20,
          "start": 100290
        },
        {
          "length": 20,
          "start": 103368
        },
        {
          "length": 20,
          "start": 103395
        },
        {
          "length": 20,
          "start": 103619
        },
        {
          "length": 20,
          "start": 103747
        },
        {
          "length": 20,
          "start": 103909
        },
        {
          "length": 20,
          "start": 111762
        },
        {
          "length": 20,
          "start": 111789
        },
        {
          "length": 20,
          "start": 115253
        },
        {
          "length": 20,
          "start": 115280
        },
        {
          "length": 20,
          "start": 115504
        },
        {
          "length": 20,
          "start": 115632
        },
        {
          "length": 20,
          "start": 115794
        }
      ]
    }
  },
  "deployedLinkReferences": {
    "contracts/BigNumber.sol": {
      "BigNumbers": [
        {
          "length": 20,
          "start": 7103
        },
        {
          "length": 20,
          "start": 7480
        },
        {
          "length": 20,
          "start": 7507
        },
        {
          "length": 20,
          "start": 7720
        },
        {
          "length": 20,
          "start": 7877
        },
        {
          "length": 20,
          "start": 9320
        },
        {
          "length": 20,
          "start": 15891
        },
        {
          "length": 20,
          "start": 15918
        },
        {
          "length": 20,
          "start": 16145
        },
        {
          "length": 20,
          "start": 16281
        }
      ]
    }
  }
}