{
  "_format": "hh-sol-artifact-1",
  "contractName": "Curve",
  "sourceName": "contracts/curve.sol",
  "abi": [
    {
      "inputs": [
        {
          "components": [
            {
              "internalType": "enum PointType",
              "name": "pointType",
              "type": "uint8"
            },
            {
              "components": [
                {
                  "components": [
                    {
                      "internalType": "bytes",
                      "name": "val",
                      "type": "bytes"
                    },
                    {
                      "internalType": "bool",
                      "name": "neg",
                      "type": "bool"
                    },
                    {
                      "internalType": "uint256",
                      "name": "bitlen",
                      "type": "uint256"
                    }
                  ],
                  "internalType": "struct BigNumber",
                  "name": "value",
                  "type": "tuple"
                }
              ],
              "internalType": "struct Zp",
              "name": "x",
              "type": "tuple"
            },
            {
              "components": [
                {
                  "components": [
                    {
                      "internalType": "bytes",
                      "name": "val",
                      "type": "bytes"
                    },
                    {
                      "internalType": "bool",
                      "name": "neg",
                      "type": "bool"
                    },
                    {
                      "internalType": "uint256",
                      "name": "bitlen",
                      "type": "uint256"
                    }
                  ],
                  "internalType": "struct BigNumber",
                  "name": "value",
                  "type": "tuple"
                }
              ],
              "internalType": "struct Zp",
              "name": "y",
              "type": "tuple"
            }
          ],
          "internalType": "struct Point_Zp",
          "name": "point",
          "type": "tuple"
        }
      ],
      "name": "Subgroup_0Check",
      "outputs": [
        {
          "internalType": "bool",
          "name": "",
          "type": "bool"
        }
      ],
      "stateMutability": "view",
      "type": "function"
    },
    {
      "inputs": [
        {
          "components": [
            {
              "internalType": "enum PointType",
              "name": "pointType",
              "type": "uint8"
            },
            {
              "components": [
                {
                  "components": [
                    {
                      "components": [
                        {
                          "internalType": "bytes",
                          "name": "val",
                          "type": "bytes"
                        },
                        {
                          "internalType": "bool",
                          "name": "neg",
                          "type": "bool"
                        },
                        {
                          "internalType": "uint256",
                          "name": "bitlen",
                          "type": "uint256"
                        }
                      ],
                      "internalType": "struct BigNumber",
                      "name": "value",
                      "type": "tuple"
                    }
                  ],
                  "internalType": "struct Zp",
                  "name": "a",
                  "type": "tuple"
                },
                {
                  "components": [
                    {
                      "components": [
                        {
                          "internalType": "bytes",
                          "name": "val",
                          "type": "bytes"
                        },
                        {
                          "internalType": "bool",
                          "name": "neg",
                          "type": "bool"
                        },
                        {
                          "internalType": "uint256",
                          "name": "bitlen",
                          "type": "uint256"
                        }
                      ],
                      "internalType": "struct BigNumber",
                      "name": "value",
                      "type": "tuple"
                    }
                  ],
                  "internalType": "struct Zp",
                  "name": "b",
                  "type": "tuple"
                }
              ],
              "internalType": "struct Zp_2",
              "name": "x",
              "type": "tuple"
            },
            {
              "components": [
                {
                  "components": [
                    {
                      "components": [
                        {
                          "internalType": "bytes",
                          "name": "val",
                          "type": "bytes"
                        },
                        {
                          "internalType": "bool",
                          "name": "neg",
                          "type": "bool"
                        },
                        {
                          "internalType": "uint256",
                          "name": "bitlen",
                          "type": "uint256"
                        }
                      ],
                      "internalType": "struct BigNumber",
                      "name": "value",
                      "type": "tuple"
                    }
                  ],
                  "internalType": "struct Zp",
                  "name": "a",
                  "type": "tuple"
                },
                {
                  "components": [
                    {
                      "components": [
                        {
                          "internalType": "bytes",
                          "name": "val",
                          "type": "bytes"
                        },
                        {
                          "internalType": "bool",
                          "name": "neg",
                          "type": "bool"
                        },
                        {
                          "internalType": "uint256",
                          "name": "bitlen",
                          "type": "uint256"
                        }
                      ],
                      "internalType": "struct BigNumber",
                      "name": "value",
                      "type": "tuple"
                    }
                  ],
                  "internalType": "struct Zp",
                  "name": "b",
                  "type": "tuple"
                }
              ],
              "internalType": "struct Zp_2",
              "name": "y",
              "type": "tuple"
            }
          ],
          "internalType": "struct Point_Zp_2",
          "name": "point",
          "type": "tuple"
        }
      ],
      "name": "Subgroup_1Check",
      "outputs": [
        {
          "internalType": "bool",
          "name": "",
          "type": "bool"
        }
      ],
      "stateMutability": "view",
      "type": "function"
    },
    {
      "inputs": [
        {
          "components": [
            {
              "internalType": "enum PointType",
              "name": "pointType",
              "type": "uint8"
            },
            {
              "components": [
                {
                  "components": [
                    {
                      "components": [
                        {
                          "components": [
                            {
                              "components": [
                                {
                                  "internalType": "bytes",
                                  "name": "val",
                                  "type": "bytes"
                                },
                                {
                                  "internalType": "bool",
                                  "name": "neg",
                                  "type": "bool"
                                },
                                {
                                  "internalType": "uint256",
                                  "name": "bitlen",
                                  "type": "uint256"
                                }
                              ],
                              "internalType": "struct BigNumber",
                              "name": "value",
                              "type": "tuple"
                            }
                          ],
                          "internalType": "struct Zp",
                          "name": "a",
                          "type": "tuple"
                        },
                        {
                          "components": [
                            {
                              "components": [
                                {
                                  "internalType": "bytes",
                                  "name": "val",
                                  "type": "bytes"
                                },
                                {
                                  "internalType": "bool",
                                  "name": "neg",
                                  "type": "bool"
                                },
                                {
                                  "internalType": "uint256",
                                  "name": "bitlen",
                                  "type": "uint256"
                                }
                              ],
                              "internalType": "struct BigNumber",
                              "name": "value",
                              "type": "tuple"
                            }
                          ],
                          "internalType": "struct Zp",
                          "name": "b",
                          "type": "tuple"
                        }
                      ],
                      "internalType": "struct Zp_2",
                      "name": "a",
                      "type": "tuple"
                    },
                    {
                      "components": [
                        {
                          "components": [
                            {
                              "components": [
                                {
                                  "internalType": "bytes",
                                  "name": "val",
                                  "type": "bytes"
                                },
                                {
                                  "internalType": "bool",
                                  "name": "neg",
                                  "type": "bool"
                                },
                                {
                                  "internalType": "uint256",
                                  "name": "bitlen",
                                  "type": "uint256"
                                }
                              ],
                              "internalType": "struct BigNumber",
                              "name": "value",
                              "type": "tuple"
                            }
                          ],
                          "internalType": "struct Zp",
                          "name": "a",
                          "type": "tuple"
                        },
                        {
                          "components": [
                            {
                              "components": [
                                {
                                  "internalType": "bytes",
                                  "name": "val",
                                  "type": "bytes"
                                },
                                {
                                  "internalType": "bool",
                                  "name": "neg",
                                  "type": "bool"
                                },
                                {
                                  "internalType": "uint256",
                                  "name": "bitlen",
                                  "type": "uint256"
                                }
                              ],
                              "internalType": "struct BigNumber",
                              "name": "value",
                              "type": "tuple"
                            }
                          ],
                          "internalType": "struct Zp",
                          "name": "b",
                          "type": "tuple"
                        }
                      ],
                      "internalType": "struct Zp_2",
                      "name": "b",
                      "type": "tuple"
                    },
                    {
                      "components": [
                        {
                          "components": [
                            {
                              "components": [
                                {
                                  "internalType": "bytes",
                                  "name": "val",
                                  "type": "bytes"
                                },
                                {
                                  "internalType": "bool",
                                  "name": "neg",
                                  "type": "bool"
                                },
                                {
                                  "internalType": "uint256",
                                  "name": "bitlen",
                                  "type": "uint256"
                                }
                              ],
                              "internalType": "struct BigNumber",
                              "name": "value",
                              "type": "tuple"
                            }
                          ],
                          "internalType": "struct Zp",
                          "name": "a",
                          "type": "tuple"
                        },
                        {
                          "components": [
                            {
                              "components": [
                                {
                                  "internalType": "bytes",
                                  "name": "val",
                                  "type": "bytes"
                                },
                                {
                                  "internalType": "bool",
                                  "name": "neg",
                                  "type": "bool"
                                },
                                {
                                  "internalType": "uint256",
                                  "name": "bitlen",
                                  "type": "uint256"
                                }
                              ],
                              "internalType": "struct BigNumber",
                              "name": "value",
                              "type": "tuple"
                            }
                          ],
                          "internalType": "struct Zp",
                          "name": "b",
                          "type": "tuple"
                        }
                      ],
                      "internalType": "struct Zp_2",
                      "name": "c",
                      "type": "tuple"
                    }
                  ],
                  "internalType": "struct Zp_6",
                  "name": "a",
                  "type": "tuple"
                },
                {
                  "components": [
                    {
                      "components": [
                        {
                          "components": [
                            {
                              "components": [
                                {
                                  "internalType": "bytes",
                                  "name": "val",
                                  "type": "bytes"
                                },
                                {
                                  "internalType": "bool",
                                  "name": "neg",
                                  "type": "bool"
                                },
                                {
                                  "internalType": "uint256",
                                  "name": "bitlen",
                                  "type": "uint256"
                                }
                              ],
                              "internalType": "struct BigNumber",
                              "name": "value",
                              "type": "tuple"
                            }
                          ],
                          "internalType": "struct Zp",
                          "name": "a",
                          "type": "tuple"
                        },
                        {
                          "components": [
                            {
                              "components": [
                                {
                                  "internalType": "bytes",
                                  "name": "val",
                                  "type": "bytes"
                                },
                                {
                                  "internalType": "bool",
                                  "name": "neg",
                                  "type": "bool"
                                },
                                {
                                  "internalType": "uint256",
                                  "name": "bitlen",
                                  "type": "uint256"
                                }
                              ],
                              "internalType": "struct BigNumber",
                              "name": "value",
                              "type": "tuple"
                            }
                          ],
                          "internalType": "struct Zp",
                          "name": "b",
                          "type": "tuple"
                        }
                      ],
                      "internalType": "struct Zp_2",
                      "name": "a",
                      "type": "tuple"
                    },
                    {
                      "components": [
                        {
                          "components": [
                            {
                              "components": [
                                {
                                  "internalType": "bytes",
                                  "name": "val",
                                  "type": "bytes"
                                },
                                {
                                  "internalType": "bool",
                                  "name": "neg",
                                  "type": "bool"
                                },
                                {
                                  "internalType": "uint256",
                                  "name": "bitlen",
                                  "type": "uint256"
                                }
                              ],
                              "internalType": "struct BigNumber",
                              "name": "value",
                              "type": "tuple"
                            }
                          ],
                          "internalType": "struct Zp",
                          "name": "a",
                          "type": "tuple"
                        },
                        {
                          "components": [
                            {
                              "components": [
                                {
                                  "internalType": "bytes",
                                  "name": "val",
                                  "type": "bytes"
                                },
                                {
                                  "internalType": "bool",
                                  "name": "neg",
                                  "type": "bool"
                                },
                                {
                                  "internalType": "uint256",
                                  "name": "bitlen",
                                  "type": "uint256"
                                }
                              ],
                              "internalType": "struct BigNumber",
                              "name": "value",
                              "type": "tuple"
                            }
                          ],
                          "internalType": "struct Zp",
                          "name": "b",
                          "type": "tuple"
                        }
                      ],
                      "internalType": "struct Zp_2",
                      "name": "b",
                      "type": "tuple"
                    },
                    {
                      "components": [
                        {
                          "components": [
                            {
                              "components": [
                                {
                                  "internalType": "bytes",
                                  "name": "val",
                                  "type": "bytes"
                                },
                                {
                                  "internalType": "bool",
                                  "name": "neg",
                                  "type": "bool"
                                },
                                {
                                  "internalType": "uint256",
                                  "name": "bitlen",
                                  "type": "uint256"
                                }
                              ],
                              "internalType": "struct BigNumber",
                              "name": "value",
                              "type": "tuple"
                            }
                          ],
                          "internalType": "struct Zp",
                          "name": "a",
                          "type": "tuple"
                        },
                        {
                          "components": [
                            {
                              "components": [
                                {
                                  "internalType": "bytes",
                                  "name": "val",
                                  "type": "bytes"
                                },
                                {
                                  "internalType": "bool",
                                  "name": "neg",
                                  "type": "bool"
                                },
                                {
                                  "internalType": "uint256",
                                  "name": "bitlen",
                                  "type": "uint256"
                                }
                              ],
                              "internalType": "struct BigNumber",
                              "name": "value",
                              "type": "tuple"
                            }
                          ],
                          "internalType": "struct Zp",
                          "name": "b",
                          "type": "tuple"
                        }
                      ],
                      "internalType": "struct Zp_2",
                      "name": "c",
                      "type": "tuple"
                    }
                  ],
                  "internalType": "struct Zp_6",
                  "name": "b",
                  "type": "tuple"
                }
              ],
              "internalType": "struct Zp_12",
              "name": "x",
              "type": "tuple"
            },
            {
              "components": [
                {
                  "components": [
                    {
                      "components": [
                        {
                          "components": [
                            {
                              "components": [
                                {
                                  "internalType": "bytes",
                                  "name": "val",
                                  "type": "bytes"
                                },
                                {
                                  "internalType": "bool",
                                  "name": "neg",
                                  "type": "bool"
                                },
                                {
                                  "internalType": "uint256",
                                  "name": "bitlen",
                                  "type": "uint256"
                                }
                              ],
                              "internalType": "struct BigNumber",
                              "name": "value",
                              "type": "tuple"
                            }
                          ],
                          "internalType": "struct Zp",
                          "name": "a",
                          "type": "tuple"
                        },
                        {
                          "components": [
                            {
                              "components": [
                                {
                                  "internalType": "bytes",
                                  "name": "val",
                                  "type": "bytes"
                                },
                                {
                                  "internalType": "bool",
                                  "name": "neg",
                                  "type": "bool"
                                },
                                {
                                  "internalType": "uint256",
                                  "name": "bitlen",
                                  "type": "uint256"
                                }
                              ],
                              "internalType": "struct BigNumber",
                              "name": "value",
                              "type": "tuple"
                            }
                          ],
                          "internalType": "struct Zp",
                          "name": "b",
                          "type": "tuple"
                        }
                      ],
                      "internalType": "struct Zp_2",
                      "name": "a",
                      "type": "tuple"
                    },
                    {
                      "components": [
                        {
                          "components": [
                            {
                              "components": [
                                {
                                  "internalType": "bytes",
                                  "name": "val",
                                  "type": "bytes"
                                },
                                {
                                  "internalType": "bool",
                                  "name": "neg",
                                  "type": "bool"
                                },
                                {
                                  "internalType": "uint256",
                                  "name": "bitlen",
                                  "type": "uint256"
                                }
                              ],
                              "internalType": "struct BigNumber",
                              "name": "value",
                              "type": "tuple"
                            }
                          ],
                          "internalType": "struct Zp",
                          "name": "a",
                          "type": "tuple"
                        },
                        {
                          "components": [
                            {
                              "components": [
                                {
                                  "internalType": "bytes",
                                  "name": "val",
                                  "type": "bytes"
                                },
                                {
                                  "internalType": "bool",
                                  "name": "neg",
                                  "type": "bool"
                                },
                                {
                                  "internalType": "uint256",
                                  "name": "bitlen",
                                  "type": "uint256"
                                }
                              ],
                              "internalType": "struct BigNumber",
                              "name": "value",
                              "type": "tuple"
                            }
                          ],
                          "internalType": "struct Zp",
                          "name": "b",
                          "type": "tuple"
                        }
                      ],
                      "internalType": "struct Zp_2",
                      "name": "b",
                      "type": "tuple"
                    },
                    {
                      "components": [
                        {
                          "components": [
                            {
                              "components": [
                                {
                                  "internalType": "bytes",
                                  "name": "val",
                                  "type": "bytes"
                                },
                                {
                                  "internalType": "bool",
                                  "name": "neg",
                                  "type": "bool"
                                },
                                {
                                  "internalType": "uint256",
                                  "name": "bitlen",
                                  "type": "uint256"
                                }
                              ],
                              "internalType": "struct BigNumber",
                              "name": "value",
                              "type": "tuple"
                            }
                          ],
                          "internalType": "struct Zp",
                          "name": "a",
                          "type": "tuple"
                        },
                        {
                          "components": [
                            {
                              "components": [
                                {
                                  "internalType": "bytes",
                                  "name": "val",
                                  "type": "bytes"
                                },
                                {
                                  "internalType": "bool",
                                  "name": "neg",
                                  "type": "bool"
                                },
                                {
                                  "internalType": "uint256",
                                  "name": "bitlen",
                                  "type": "uint256"
                                }
                              ],
                              "internalType": "struct BigNumber",
                              "name": "value",
                              "type": "tuple"
                            }
                          ],
                          "internalType": "struct Zp",
                          "name": "b",
                          "type": "tuple"
                        }
                      ],
                      "internalType": "struct Zp_2",
                      "name": "c",
                      "type": "tuple"
                    }
                  ],
                  "internalType": "struct Zp_6",
                  "name": "a",
                  "type": "tuple"
                },
                {
                  "components": [
                    {
                      "components": [
                        {
                          "components": [
                            {
                              "components": [
                                {
                                  "internalType": "bytes",
                                  "name": "val",
                                  "type": "bytes"
                                },
                                {
                                  "internalType": "bool",
                                  "name": "neg",
                                  "type": "bool"
                                },
                                {
                                  "internalType": "uint256",
                                  "name": "bitlen",
                                  "type": "uint256"
                                }
                              ],
                              "internalType": "struct BigNumber",
                              "name": "value",
                              "type": "tuple"
                            }
                          ],
                          "internalType": "struct Zp",
                          "name": "a",
                          "type": "tuple"
                        },
                        {
                          "components": [
                            {
                              "components": [
                                {
                                  "internalType": "bytes",
                                  "name": "val",
                                  "type": "bytes"
                                },
                                {
                                  "internalType": "bool",
                                  "name": "neg",
                                  "type": "bool"
                                },
                                {
                                  "internalType": "uint256",
                                  "name": "bitlen",
                                  "type": "uint256"
                                }
                              ],
                              "internalType": "struct BigNumber",
                              "name": "value",
                              "type": "tuple"
                            }
                          ],
                          "internalType": "struct Zp",
                          "name": "b",
                          "type": "tuple"
                        }
                      ],
                      "internalType": "struct Zp_2",
                      "name": "a",
                      "type": "tuple"
                    },
                    {
                      "components": [
                        {
                          "components": [
                            {
                              "components": [
                                {
                                  "internalType": "bytes",
                                  "name": "val",
                                  "type": "bytes"
                                },
                                {
                                  "internalType": "bool",
                                  "name": "neg",
                                  "type": "bool"
                                },
                                {
                                  "internalType": "uint256",
                                  "name": "bitlen",
                                  "type": "uint256"
                                }
                              ],
                              "internalType": "struct BigNumber",
                              "name": "value",
                              "type": "tuple"
                            }
                          ],
                          "internalType": "struct Zp",
                          "name": "a",
                          "type": "tuple"
                        },
                        {
                          "components": [
                            {
                              "components": [
                                {
                                  "internalType": "bytes",
                                  "name": "val",
                                  "type": "bytes"
                                },
                                {
                                  "internalType": "bool",
                                  "name": "neg",
                                  "type": "bool"
                                },
                                {
                                  "internalType": "uint256",
                                  "name": "bitlen",
                                  "type": "uint256"
                                }
                              ],
                              "internalType": "struct BigNumber",
                              "name": "value",
                              "type": "tuple"
                            }
                          ],
                          "internalType": "struct Zp",
                          "name": "b",
                          "type": "tuple"
                        }
                      ],
                      "internalType": "struct Zp_2",
                      "name": "b",
                      "type": "tuple"
                    },
                    {
                      "components": [
                        {
                          "components": [
                            {
                              "components": [
                                {
                                  "internalType": "bytes",
                                  "name": "val",
                                  "type": "bytes"
                                },
                                {
                                  "internalType": "bool",
                                  "name": "neg",
                                  "type": "bool"
                                },
                                {
                                  "internalType": "uint256",
                                  "name": "bitlen",
                                  "type": "uint256"
                                }
                              ],
                              "internalType": "struct BigNumber",
                              "name": "value",
                              "type": "tuple"
                            }
                          ],
                          "internalType": "struct Zp",
                          "name": "a",
                          "type": "tuple"
                        },
                        {
                          "components": [
                            {
                              "components": [
                                {
                                  "internalType": "bytes",
                                  "name": "val",
                                  "type": "bytes"
                                },
                                {
                                  "internalType": "bool",
                                  "name": "neg",
                                  "type": "bool"
                                },
                                {
                                  "internalType": "uint256",
                                  "name": "bitlen",
                                  "type": "uint256"
                                }
                              ],
                              "internalType": "struct BigNumber",
                              "name": "value",
                              "type": "tuple"
                            }
                          ],
                          "internalType": "struct Zp",
                          "name": "b",
                          "type": "tuple"
                        }
                      ],
                      "internalType": "struct Zp_2",
                      "name": "c",
                      "type": "tuple"
                    }
                  ],
                  "internalType": "struct Zp_6",
                  "name": "b",
                  "type": "tuple"
                }
              ],
              "internalType": "struct Zp_12",
              "name": "y",
              "type": "tuple"
            }
          ],
          "internalType": "struct Point_Zp_12",
          "name": "r",
          "type": "tuple"
        },
        {
          "components": [
            {
              "internalType": "enum PointType",
              "name": "pointType",
              "type": "uint8"
            },
            {
              "components": [
                {
                  "components": [
                    {
                      "components": [
                        {
                          "components": [
                            {
                              "components": [
                                {
                                  "internalType": "bytes",
                                  "name": "val",
                                  "type": "bytes"
                                },
                                {
                                  "internalType": "bool",
                                  "name": "neg",
                                  "type": "bool"
                                },
                                {
                                  "internalType": "uint256",
                                  "name": "bitlen",
                                  "type": "uint256"
                                }
                              ],
                              "internalType": "struct BigNumber",
                              "name": "value",
                              "type": "tuple"
                            }
                          ],
                          "internalType": "struct Zp",
                          "name": "a",
                          "type": "tuple"
                        },
                        {
                          "components": [
                            {
                              "components": [
                                {
                                  "internalType": "bytes",
                                  "name": "val",
                                  "type": "bytes"
                                },
                                {
                                  "internalType": "bool",
                                  "name": "neg",
                                  "type": "bool"
                                },
                                {
                                  "internalType": "uint256",
                                  "name": "bitlen",
                                  "type": "uint256"
                                }
                              ],
                              "internalType": "struct BigNumber",
                              "name": "value",
                              "type": "tuple"
                            }
                          ],
                          "internalType": "struct Zp",
                          "name": "b",
                          "type": "tuple"
                        }
                      ],
                      "internalType": "struct Zp_2",
                      "name": "a",
                      "type": "tuple"
                    },
                    {
                      "components": [
                        {
                          "components": [
                            {
                              "components": [
                                {
                                  "internalType": "bytes",
                                  "name": "val",
                                  "type": "bytes"
                                },
                                {
                                  "internalType": "bool",
                                  "name": "neg",
                                  "type": "bool"
                                },
                                {
                                  "internalType": "uint256",
                                  "name": "bitlen",
                                  "type": "uint256"
                                }
                              ],
                              "internalType": "struct BigNumber",
                              "name": "value",
                              "type": "tuple"
                            }
                          ],
                          "internalType": "struct Zp",
                          "name": "a",
                          "type": "tuple"
                        },
                        {
                          "components": [
                            {
                              "components": [
                                {
                                  "internalType": "bytes",
                                  "name": "val",
                                  "type": "bytes"
                                },
                                {
                                  "internalType": "bool",
                                  "name": "neg",
                                  "type": "bool"
                                },
                                {
                                  "internalType": "uint256",
                                  "name": "bitlen",
                                  "type": "uint256"
                                }
                              ],
                              "internalType": "struct BigNumber",
                              "name": "value",
                              "type": "tuple"
                            }
                          ],
                          "internalType": "struct Zp",
                          "name": "b",
                          "type": "tuple"
                        }
                      ],
                      "internalType": "struct Zp_2",
                      "name": "b",
                      "type": "tuple"
                    },
                    {
                      "components": [
                        {
                          "components": [
                            {
                              "components": [
                                {
                                  "internalType": "bytes",
                                  "name": "val",
                                  "type": "bytes"
                                },
                                {
                                  "internalType": "bool",
                                  "name": "neg",
                                  "type": "bool"
                                },
                                {
                                  "internalType": "uint256",
                                  "name": "bitlen",
                                  "type": "uint256"
                                }
                              ],
                              "internalType": "struct BigNumber",
                              "name": "value",
                              "type": "tuple"
                            }
                          ],
                          "internalType": "struct Zp",
                          "name": "a",
                          "type": "tuple"
                        },
                        {
                          "components": [
                            {
                              "components": [
                                {
                                  "internalType": "bytes",
                                  "name": "val",
                                  "type": "bytes"
                                },
                                {
                                  "internalType": "bool",
                                  "name": "neg",
                                  "type": "bool"
                                },
                                {
                                  "internalType": "uint256",
                                  "name": "bitlen",
                                  "type": "uint256"
                                }
                              ],
                              "internalType": "struct BigNumber",
                              "name": "value",
                              "type": "tuple"
                            }
                          ],
                          "internalType": "struct Zp",
                          "name": "b",
                          "type": "tuple"
                        }
                      ],
                      "internalType": "struct Zp_2",
                      "name": "c",
                      "type": "tuple"
                    }
                  ],
                  "internalType": "struct Zp_6",
                  "name": "a",
                  "type": "tuple"
                },
                {
                  "components": [
                    {
                      "components": [
                        {
                          "components": [
                            {
                              "components": [
                                {
                                  "internalType": "bytes",
                                  "name": "val",
                                  "type": "bytes"
                                },
                                {
                                  "internalType": "bool",
                                  "name": "neg",
                                  "type": "bool"
                                },
                                {
                                  "internalType": "uint256",
                                  "name": "bitlen",
                                  "type": "uint256"
                                }
                              ],
                              "internalType": "struct BigNumber",
                              "name": "value",
                              "type": "tuple"
                            }
                          ],
                          "internalType": "struct Zp",
                          "name": "a",
                          "type": "tuple"
                        },
                        {
                          "components": [
                            {
                              "components": [
                                {
                                  "internalType": "bytes",
                                  "name": "val",
                                  "type": "bytes"
                                },
                                {
                                  "internalType": "bool",
                                  "name": "neg",
                                  "type": "bool"
                                },
                                {
                                  "internalType": "uint256",
                                  "name": "bitlen",
                                  "type": "uint256"
                                }
                              ],
                              "internalType": "struct BigNumber",
                              "name": "value",
                              "type": "tuple"
                            }
                          ],
                          "internalType": "struct Zp",
                          "name": "b",
                          "type": "tuple"
                        }
                      ],
                      "internalType": "struct Zp_2",
                      "name": "a",
                      "type": "tuple"
                    },
                    {
                      "components": [
                        {
                          "components": [
                            {
                              "components": [
                                {
                                  "internalType": "bytes",
                                  "name": "val",
                                  "type": "bytes"
                                },
                                {
                                  "internalType": "bool",
                                  "name": "neg",
                                  "type": "bool"
                                },
                                {
                                  "internalType": "uint256",
                                  "name": "bitlen",
                                  "type": "uint256"
                                }
                              ],
                              "internalType": "struct BigNumber",
                              "name": "value",
                              "type": "tuple"
                            }
                          ],
                          "internalType": "struct Zp",
                          "name": "a",
                          "type": "tuple"
                        },
                        {
                          "components": [
                            {
                              "components": [
                                {
                                  "internalType": "bytes",
                                  "name": "val",
                                  "type": "bytes"
                                },
                                {
                                  "internalType": "bool",
                                  "name": "neg",
                                  "type": "bool"
                                },
                                {
                                  "internalType": "uint256",
                                  "name": "bitlen",
                                  "type": "uint256"
                                }
                              ],
                              "internalType": "struct BigNumber",
                              "name": "value",
                              "type": "tuple"
                            }
                          ],
                          "internalType": "struct Zp",
                          "name": "b",
                          "type": "tuple"
                        }
                      ],
                      "internalType": "struct Zp_2",
                      "name": "b",
                      "type": "tuple"
                    },
                    {
                      "components": [
                        {
                          "components": [
                            {
                              "components": [
                                {
                                  "internalType": "bytes",
                                  "name": "val",
                                  "type": "bytes"
                                },
                                {
                                  "internalType": "bool",
                                  "name": "neg",
                                  "type": "bool"
                                },
                                {
                                  "internalType": "uint256",
                                  "name": "bitlen",
                                  "type": "uint256"
                                }
                              ],
                              "internalType": "struct BigNumber",
                              "name": "value",
                              "type": "tuple"
                            }
                          ],
                          "internalType": "struct Zp",
                          "name": "a",
                          "type": "tuple"
                        },
                        {
                          "components": [
                            {
                              "components": [
                                {
                                  "internalType": "bytes",
                                  "name": "val",
                                  "type": "bytes"
                                },
                                {
                                  "internalType": "bool",
                                  "name": "neg",
                                  "type": "bool"
                                },
                                {
                                  "internalType": "uint256",
                                  "name": "bitlen",
                                  "type": "uint256"
                                }
                              ],
                              "internalType": "struct BigNumber",
                              "name": "value",
                              "type": "tuple"
                            }
                          ],
                          "internalType": "struct Zp",
                          "name": "b",
                          "type": "tuple"
                        }
                      ],
                      "internalType": "struct Zp_2",
                      "name": "c",
                      "type": "tuple"
                    }
                  ],
                  "internalType": "struct Zp_6",
                  "name": "b",
                  "type": "tuple"
                }
              ],
              "internalType": "struct Zp_12",
              "name": "x",
              "type": "tuple"
            },
            {
              "components": [
                {
                  "components": [
                    {
                      "components": [
                        {
                          "components": [
                            {
                              "components": [
                                {
                                  "internalType": "bytes",
                                  "name": "val",
                                  "type": "bytes"
                                },
                                {
                                  "internalType": "bool",
                                  "name": "neg",
                                  "type": "bool"
                                },
                                {
                                  "internalType": "uint256",
                                  "name": "bitlen",
                                  "type": "uint256"
                                }
                              ],
                              "internalType": "struct BigNumber",
                              "name": "value",
                              "type": "tuple"
                            }
                          ],
                          "internalType": "struct Zp",
                          "name": "a",
                          "type": "tuple"
                        },
                        {
                          "components": [
                            {
                              "components": [
                                {
                                  "internalType": "bytes",
                                  "name": "val",
                                  "type": "bytes"
                                },
                                {
                                  "internalType": "bool",
                                  "name": "neg",
                                  "type": "bool"
                                },
                                {
                                  "internalType": "uint256",
                                  "name": "bitlen",
                                  "type": "uint256"
                                }
                              ],
                              "internalType": "struct BigNumber",
                              "name": "value",
                              "type": "tuple"
                            }
                          ],
                          "internalType": "struct Zp",
                          "name": "b",
                          "type": "tuple"
                        }
                      ],
                      "internalType": "struct Zp_2",
                      "name": "a",
                      "type": "tuple"
                    },
                    {
                      "components": [
                        {
                          "components": [
                            {
                              "components": [
                                {
                                  "internalType": "bytes",
                                  "name": "val",
                                  "type": "bytes"
                                },
                                {
                                  "internalType": "bool",
                                  "name": "neg",
                                  "type": "bool"
                                },
                                {
                                  "internalType": "uint256",
                                  "name": "bitlen",
                                  "type": "uint256"
                                }
                              ],
                              "internalType": "struct BigNumber",
                              "name": "value",
                              "type": "tuple"
                            }
                          ],
                          "internalType": "struct Zp",
                          "name": "a",
                          "type": "tuple"
                        },
                        {
                          "components": [
                            {
                              "components": [
                                {
                                  "internalType": "bytes",
                                  "name": "val",
                                  "type": "bytes"
                                },
                                {
                                  "internalType": "bool",
                                  "name": "neg",
                                  "type": "bool"
                                },
                                {
                                  "internalType": "uint256",
                                  "name": "bitlen",
                                  "type": "uint256"
                                }
                              ],
                              "internalType": "struct BigNumber",
                              "name": "value",
                              "type": "tuple"
                            }
                          ],
                          "internalType": "struct Zp",
                          "name": "b",
                          "type": "tuple"
                        }
                      ],
                      "internalType": "struct Zp_2",
                      "name": "b",
                      "type": "tuple"
                    },
                    {
                      "components": [
                        {
                          "components": [
                            {
                              "components": [
                                {
                                  "internalType": "bytes",
                                  "name": "val",
                                  "type": "bytes"
                                },
                                {
                                  "internalType": "bool",
                                  "name": "neg",
                                  "type": "bool"
                                },
                                {
                                  "internalType": "uint256",
                                  "name": "bitlen",
                                  "type": "uint256"
                                }
                              ],
                              "internalType": "struct BigNumber",
                              "name": "value",
                              "type": "tuple"
                            }
                          ],
                          "internalType": "struct Zp",
                          "name": "a",
                          "type": "tuple"
                        },
                        {
                          "components": [
                            {
                              "components": [
                                {
                                  "internalType": "bytes",
                                  "name": "val",
                                  "type": "bytes"
                                },
                                {
                                  "internalType": "bool",
                                  "name": "neg",
                                  "type": "bool"
                                },
                                {
                                  "internalType": "uint256",
                                  "name": "bitlen",
                                  "type": "uint256"
                                }
                              ],
                              "internalType": "struct BigNumber",
                              "name": "value",
                              "type": "tuple"
                            }
                          ],
                          "internalType": "struct Zp",
                          "name": "b",
                          "type": "tuple"
                        }
                      ],
                      "internalType": "struct Zp_2",
                      "name": "c",
                      "type": "tuple"
                    }
                  ],
                  "internalType": "struct Zp_6",
                  "name": "a",
                  "type": "tuple"
                },
                {
                  "components": [
                    {
                      "components": [
                        {
                          "components": [
                            {
                              "components": [
                                {
                                  "internalType": "bytes",
                                  "name": "val",
                                  "type": "bytes"
                                },
                                {
                                  "internalType": "bool",
                                  "name": "neg",
                                  "type": "bool"
                                },
                                {
                                  "internalType": "uint256",
                                  "name": "bitlen",
                                  "type": "uint256"
                                }
                              ],
                              "internalType": "struct BigNumber",
                              "name": "value",
                              "type": "tuple"
                            }
                          ],
                          "internalType": "struct Zp",
                          "name": "a",
                          "type": "tuple"
                        },
                        {
                          "components": [
                            {
                              "components": [
                                {
                                  "internalType": "bytes",
                                  "name": "val",
                                  "type": "bytes"
                                },
                                {
                                  "internalType": "bool",
                                  "name": "neg",
                                  "type": "bool"
                                },
                                {
                                  "internalType": "uint256",
                                  "name": "bitlen",
                                  "type": "uint256"
                                }
                              ],
                              "internalType": "struct BigNumber",
                              "name": "value",
                              "type": "tuple"
                            }
                          ],
                          "internalType": "struct Zp",
                          "name": "b",
                          "type": "tuple"
                        }
                      ],
                      "internalType": "struct Zp_2",
                      "name": "a",
                      "type": "tuple"
                    },
                    {
                      "components": [
                        {
                          "components": [
                            {
                              "components": [
                                {
                                  "internalType": "bytes",
                                  "name": "val",
                                  "type": "bytes"
                                },
                                {
                                  "internalType": "bool",
                                  "name": "neg",
                                  "type": "bool"
                                },
                                {
                                  "internalType": "uint256",
                                  "name": "bitlen",
                                  "type": "uint256"
                                }
                              ],
                              "internalType": "struct BigNumber",
                              "name": "value",
                              "type": "tuple"
                            }
                          ],
                          "internalType": "struct Zp",
                          "name": "a",
                          "type": "tuple"
                        },
                        {
                          "components": [
                            {
                              "components": [
                                {
                                  "internalType": "bytes",
                                  "name": "val",
                                  "type": "bytes"
                                },
                                {
                                  "internalType": "bool",
                                  "name": "neg",
                                  "type": "bool"
                                },
                                {
                                  "internalType": "uint256",
                                  "name": "bitlen",
                                  "type": "uint256"
                                }
                              ],
                              "internalType": "struct BigNumber",
                              "name": "value",
                              "type": "tuple"
                            }
                          ],
                          "internalType": "struct Zp",
                          "name": "b",
                          "type": "tuple"
                        }
                      ],
                      "internalType": "struct Zp_2",
                      "name": "b",
                      "type": "tuple"
                    },
                    {
                      "components": [
                        {
                          "components": [
                            {
                              "components": [
                                {
                                  "internalType": "bytes",
                                  "name": "val",
                                  "type": "bytes"
                                },
                                {
                                  "internalType": "bool",
                                  "name": "neg",
                                  "type": "bool"
                                },
                                {
                                  "internalType": "uint256",
                                  "name": "bitlen",
                                  "type": "uint256"
                                }
                              ],
                              "internalType": "struct BigNumber",
                              "name": "value",
                              "type": "tuple"
                            }
                          ],
                          "internalType": "struct Zp",
                          "name": "a",
                          "type": "tuple"
                        },
                        {
                          "components": [
                            {
                              "components": [
                                {
                                  "internalType": "bytes",
                                  "name": "val",
                                  "type": "bytes"
                                },
                                {
                                  "internalType": "bool",
                                  "name": "neg",
                                  "type": "bool"
                                },
                                {
                                  "internalType": "uint256",
                                  "name": "bitlen",
                                  "type": "uint256"
                                }
                              ],
                              "internalType": "struct BigNumber",
                              "name": "value",
                              "type": "tuple"
                            }
                          ],
                          "internalType": "struct Zp",
                          "name": "b",
                          "type": "tuple"
                        }
                      ],
                      "internalType": "struct Zp_2",
                      "name": "c",
                      "type": "tuple"
                    }
                  ],
                  "internalType": "struct Zp_6",
                  "name": "b",
                  "type": "tuple"
                }
              ],
              "internalType": "struct Zp_12",
              "name": "y",
              "type": "tuple"
            }
          ],
          "internalType": "struct Point_Zp_12",
          "name": "q",
          "type": "tuple"
        },
        {
          "components": [
            {
              "internalType": "enum PointType",
              "name": "pointType",
              "type": "uint8"
            },
            {
              "components": [
                {
                  "components": [
                    {
                      "internalType": "bytes",
                      "name": "val",
                      "type": "bytes"
                    },
                    {
                      "internalType": "bool",
                      "name": "neg",
                      "type": "bool"
                    },
                    {
                      "internalType": "uint256",
                      "name": "bitlen",
                      "type": "uint256"
                    }
                  ],
                  "internalType": "struct BigNumber",
                  "name": "value",
                  "type": "tuple"
                }
              ],
              "internalType": "struct Zp",
              "name": "x",
              "type": "tuple"
            },
            {
              "components": [
                {
                  "components": [
                    {
                      "internalType": "bytes",
                      "name": "val",
                      "type": "bytes"
                    },
                    {
                      "internalType": "bool",
                      "name": "neg",
                      "type": "bool"
                    },
                    {
                      "internalType": "uint256",
                      "name": "bitlen",
                      "type": "uint256"
                    }
                  ],
                  "internalType": "struct BigNumber",
                  "name": "value",
                  "type": "tuple"
                }
              ],
              "internalType": "struct Zp",
              "name": "y",
              "type": "tuple"
            }
          ],
          "internalType": "struct Point_Zp",
          "name": "p",
          "type": "tuple"
        }
      ],
      "name": "_addEval",
      "outputs": [
        {
          "components": [
            {
              "components": [
                {
                  "components": [
                    {
                      "components": [
                        {
                          "components": [
                            {
                              "internalType": "bytes",
                              "name": "val",
                              "type": "bytes"
                            },
                            {
                              "internalType": "bool",
                              "name": "neg",
                              "type": "bool"
                            },
                            {
                              "internalType": "uint256",
                              "name": "bitlen",
                              "type": "uint256"
                            }
                          ],
                          "internalType": "struct BigNumber",
                          "name": "value",
                          "type": "tuple"
                        }
                      ],
                      "internalType": "struct Zp",
                      "name": "a",
                      "type": "tuple"
                    },
                    {
                      "components": [
                        {
                          "components": [
                            {
                              "internalType": "bytes",
                              "name": "val",
                              "type": "bytes"
                            },
                            {
                              "internalType": "bool",
                              "name": "neg",
                              "type": "bool"
                            },
                            {
                              "internalType": "uint256",
                              "name": "bitlen",
                              "type": "uint256"
                            }
                          ],
                          "internalType": "struct BigNumber",
                          "name": "value",
                          "type": "tuple"
                        }
                      ],
                      "internalType": "struct Zp",
                      "name": "b",
                      "type": "tuple"
                    }
                  ],
                  "internalType": "struct Zp_2",
                  "name": "a",
                  "type": "tuple"
                },
                {
                  "components": [
                    {
                      "components": [
                        {
                          "components": [
                            {
                              "internalType": "bytes",
                              "name": "val",
                              "type": "bytes"
                            },
                            {
                              "internalType": "bool",
                              "name": "neg",
                              "type": "bool"
                            },
                            {
                              "internalType": "uint256",
                              "name": "bitlen",
                              "type": "uint256"
                            }
                          ],
                          "internalType": "struct BigNumber",
                          "name": "value",
                          "type": "tuple"
                        }
                      ],
                      "internalType": "struct Zp",
                      "name": "a",
                      "type": "tuple"
                    },
                    {
                      "components": [
                        {
                          "components": [
                            {
                              "internalType": "bytes",
                              "name": "val",
                              "type": "bytes"
                            },
                            {
                              "internalType": "bool",
                              "name": "neg",
                              "type": "bool"
                            },
                            {
                              "internalType": "uint256",
                              "name": "bitlen",
                              "type": "uint256"
                            }
                          ],
                          "internalType": "struct BigNumber",
                          "name": "value",
                          "type": "tuple"
                        }
                      ],
                      "internalType": "struct Zp",
                      "name": "b",
                      "type": "tuple"
                    }
                  ],
                  "internalType": "struct Zp_2",
                  "name": "b",
                  "type": "tuple"
                },
                {
                  "components": [
                    {
                      "components": [
                        {
                          "components": [
                            {
                              "internalType": "bytes",
                              "name": "val",
                              "type": "bytes"
                            },
                            {
                              "internalType": "bool",
                              "name": "neg",
                              "type": "bool"
                            },
                            {
                              "internalType": "uint256",
                              "name": "bitlen",
                              "type": "uint256"
                            }
                          ],
                          "internalType": "struct BigNumber",
                          "name": "value",
                          "type": "tuple"
                        }
                      ],
                      "internalType": "struct Zp",
                      "name": "a",
                      "type": "tuple"
                    },
                    {
                      "components": [
                        {
                          "components": [
                            {
                              "internalType": "bytes",
                              "name": "val",
                              "type": "bytes"
                            },
                            {
                              "internalType": "bool",
                              "name": "neg",
                              "type": "bool"
                            },
                            {
                              "internalType": "uint256",
                              "name": "bitlen",
                              "type": "uint256"
                            }
                          ],
                          "internalType": "struct BigNumber",
                          "name": "value",
                          "type": "tuple"
                        }
                      ],
                      "internalType": "struct Zp",
                      "name": "b",
                      "type": "tuple"
                    }
                  ],
                  "internalType": "struct Zp_2",
                  "name": "c",
                  "type": "tuple"
                }
              ],
              "internalType": "struct Zp_6",
              "name": "a",
              "type": "tuple"
            },
            {
              "components": [
                {
                  "components": [
                    {
                      "components": [
                        {
                          "components": [
                            {
                              "internalType": "bytes",
                              "name": "val",
                              "type": "bytes"
                            },
                            {
                              "internalType": "bool",
                              "name": "neg",
                              "type": "bool"
                            },
                            {
                              "internalType": "uint256",
                              "name": "bitlen",
                              "type": "uint256"
                            }
                          ],
                          "internalType": "struct BigNumber",
                          "name": "value",
                          "type": "tuple"
                        }
                      ],
                      "internalType": "struct Zp",
                      "name": "a",
                      "type": "tuple"
                    },
                    {
                      "components": [
                        {
                          "components": [
                            {
                              "internalType": "bytes",
                              "name": "val",
                              "type": "bytes"
                            },
                            {
                              "internalType": "bool",
                              "name": "neg",
                              "type": "bool"
                            },
                            {
                              "internalType": "uint256",
                              "name": "bitlen",
                              "type": "uint256"
                            }
                          ],
                          "internalType": "struct BigNumber",
                          "name": "value",
                          "type": "tuple"
                        }
                      ],
                      "internalType": "struct Zp",
                      "name": "b",
                      "type": "tuple"
                    }
                  ],
                  "internalType": "struct Zp_2",
                  "name": "a",
                  "type": "tuple"
                },
                {
                  "components": [
                    {
                      "components": [
                        {
                          "components": [
                            {
                              "internalType": "bytes",
                              "name": "val",
                              "type": "bytes"
                            },
                            {
                              "internalType": "bool",
                              "name": "neg",
                              "type": "bool"
                            },
                            {
                              "internalType": "uint256",
                              "name": "bitlen",
                              "type": "uint256"
                            }
                          ],
                          "internalType": "struct BigNumber",
                          "name": "value",
                          "type": "tuple"
                        }
                      ],
                      "internalType": "struct Zp",
                      "name": "a",
                      "type": "tuple"
                    },
                    {
                      "components": [
                        {
                          "components": [
                            {
                              "internalType": "bytes",
                              "name": "val",
                              "type": "bytes"
                            },
                            {
                              "internalType": "bool",
                              "name": "neg",
                              "type": "bool"
                            },
                            {
                              "internalType": "uint256",
                              "name": "bitlen",
                              "type": "uint256"
                            }
                          ],
                          "internalType": "struct BigNumber",
                          "name": "value",
                          "type": "tuple"
                        }
                      ],
                      "internalType": "struct Zp",
                      "name": "b",
                      "type": "tuple"
                    }
                  ],
                  "internalType": "struct Zp_2",
                  "name": "b",
                  "type": "tuple"
                },
                {
                  "components": [
                    {
                      "components": [
                        {
                          "components": [
                            {
                              "internalType": "bytes",
                              "name": "val",
                              "type": "bytes"
                            },
                            {
                              "internalType": "bool",
                              "name": "neg",
                              "type": "bool"
                            },
                            {
                              "internalType": "uint256",
                              "name": "bitlen",
                              "type": "uint256"
                            }
                          ],
                          "internalType": "struct BigNumber",
                          "name": "value",
                          "type": "tuple"
                        }
                      ],
                      "internalType": "struct Zp",
                      "name": "a",
                      "type": "tuple"
                    },
                    {
                      "components": [
                        {
                          "components": [
                            {
                              "internalType": "bytes",
                              "name": "val",
                              "type": "bytes"
                            },
                            {
                              "internalType": "bool",
                              "name": "neg",
                              "type": "bool"
                            },
                            {
                              "internalType": "uint256",
                              "name": "bitlen",
                              "type": "uint256"
                            }
                          ],
                          "internalType": "struct BigNumber",
                          "name": "value",
                          "type": "tuple"
                        }
                      ],
                      "internalType": "struct Zp",
                      "name": "b",
                      "type": "tuple"
                    }
                  ],
                  "internalType": "struct Zp_2",
                  "name": "c",
                  "type": "tuple"
                }
              ],
              "internalType": "struct Zp_6",
              "name": "b",
              "type": "tuple"
            }
          ],
          "internalType": "struct Zp_12",
          "name": "",
          "type": "tuple"
        }
      ],
      "stateMutability": "view",
      "type": "function"
    },
    {
      "inputs": [
        {
          "components": [
            {
              "internalType": "enum PointType",
              "name": "pointType",
              "type": "uint8"
            },
            {
              "components": [
                {
                  "components": [
                    {
                      "components": [
                        {
                          "internalType": "bytes",
                          "name": "val",
                          "type": "bytes"
                        },
                        {
                          "internalType": "bool",
                          "name": "neg",
                          "type": "bool"
                        },
                        {
                          "internalType": "uint256",
                          "name": "bitlen",
                          "type": "uint256"
                        }
                      ],
                      "internalType": "struct BigNumber",
                      "name": "value",
                      "type": "tuple"
                    }
                  ],
                  "internalType": "struct Zp",
                  "name": "a",
                  "type": "tuple"
                },
                {
                  "components": [
                    {
                      "components": [
                        {
                          "internalType": "bytes",
                          "name": "val",
                          "type": "bytes"
                        },
                        {
                          "internalType": "bool",
                          "name": "neg",
                          "type": "bool"
                        },
                        {
                          "internalType": "uint256",
                          "name": "bitlen",
                          "type": "uint256"
                        }
                      ],
                      "internalType": "struct BigNumber",
                      "name": "value",
                      "type": "tuple"
                    }
                  ],
                  "internalType": "struct Zp",
                  "name": "b",
                  "type": "tuple"
                }
              ],
              "internalType": "struct Zp_2",
              "name": "x",
              "type": "tuple"
            },
            {
              "components": [
                {
                  "components": [
                    {
                      "components": [
                        {
                          "internalType": "bytes",
                          "name": "val",
                          "type": "bytes"
                        },
                        {
                          "internalType": "bool",
                          "name": "neg",
                          "type": "bool"
                        },
                        {
                          "internalType": "uint256",
                          "name": "bitlen",
                          "type": "uint256"
                        }
                      ],
                      "internalType": "struct BigNumber",
                      "name": "value",
                      "type": "tuple"
                    }
                  ],
                  "internalType": "struct Zp",
                  "name": "a",
                  "type": "tuple"
                },
                {
                  "components": [
                    {
                      "components": [
                        {
                          "internalType": "bytes",
                          "name": "val",
                          "type": "bytes"
                        },
                        {
                          "internalType": "bool",
                          "name": "neg",
                          "type": "bool"
                        },
                        {
                          "internalType": "uint256",
                          "name": "bitlen",
                          "type": "uint256"
                        }
                      ],
                      "internalType": "struct BigNumber",
                      "name": "value",
                      "type": "tuple"
                    }
                  ],
                  "internalType": "struct Zp",
                  "name": "b",
                  "type": "tuple"
                }
              ],
              "internalType": "struct Zp_2",
              "name": "y",
              "type": "tuple"
            }
          ],
          "internalType": "struct Point_Zp_2",
          "name": "r",
          "type": "tuple"
        },
        {
          "components": [
            {
              "internalType": "enum PointType",
              "name": "pointType",
              "type": "uint8"
            },
            {
              "components": [
                {
                  "components": [
                    {
                      "components": [
                        {
                          "internalType": "bytes",
                          "name": "val",
                          "type": "bytes"
                        },
                        {
                          "internalType": "bool",
                          "name": "neg",
                          "type": "bool"
                        },
                        {
                          "internalType": "uint256",
                          "name": "bitlen",
                          "type": "uint256"
                        }
                      ],
                      "internalType": "struct BigNumber",
                      "name": "value",
                      "type": "tuple"
                    }
                  ],
                  "internalType": "struct Zp",
                  "name": "a",
                  "type": "tuple"
                },
                {
                  "components": [
                    {
                      "components": [
                        {
                          "internalType": "bytes",
                          "name": "val",
                          "type": "bytes"
                        },
                        {
                          "internalType": "bool",
                          "name": "neg",
                          "type": "bool"
                        },
                        {
                          "internalType": "uint256",
                          "name": "bitlen",
                          "type": "uint256"
                        }
                      ],
                      "internalType": "struct BigNumber",
                      "name": "value",
                      "type": "tuple"
                    }
                  ],
                  "internalType": "struct Zp",
                  "name": "b",
                  "type": "tuple"
                }
              ],
              "internalType": "struct Zp_2",
              "name": "x",
              "type": "tuple"
            },
            {
              "components": [
                {
                  "components": [
                    {
                      "components": [
                        {
                          "internalType": "bytes",
                          "name": "val",
                          "type": "bytes"
                        },
                        {
                          "internalType": "bool",
                          "name": "neg",
                          "type": "bool"
                        },
                        {
                          "internalType": "uint256",
                          "name": "bitlen",
                          "type": "uint256"
                        }
                      ],
                      "internalType": "struct BigNumber",
                      "name": "value",
                      "type": "tuple"
                    }
                  ],
                  "internalType": "struct Zp",
                  "name": "a",
                  "type": "tuple"
                },
                {
                  "components": [
                    {
                      "components": [
                        {
                          "internalType": "bytes",
                          "name": "val",
                          "type": "bytes"
                        },
                        {
                          "internalType": "bool",
                          "name": "neg",
                          "type": "bool"
                        },
                        {
                          "internalType": "uint256",
                          "name": "bitlen",
                          "type": "uint256"
                        }
                      ],
                      "internalType": "struct BigNumber",
                      "name": "value",
                      "type": "tuple"
                    }
                  ],
                  "internalType": "struct Zp",
                  "name": "b",
                  "type": "tuple"
                }
              ],
              "internalType": "struct Zp_2",
              "name": "y",
              "type": "tuple"
            }
          ],
          "internalType": "struct Point_Zp_2",
          "name": "q",
          "type": "tuple"
        },
        {
          "components": [
            {
              "internalType": "enum PointType",
              "name": "pointType",
              "type": "uint8"
            },
            {
              "components": [
                {
                  "components": [
                    {
                      "internalType": "bytes",
                      "name": "val",
                      "type": "bytes"
                    },
                    {
                      "internalType": "bool",
                      "name": "neg",
                      "type": "bool"
                    },
                    {
                      "internalType": "uint256",
                      "name": "bitlen",
                      "type": "uint256"
                    }
                  ],
                  "internalType": "struct BigNumber",
                  "name": "value",
                  "type": "tuple"
                }
              ],
              "internalType": "struct Zp",
              "name": "x",
              "type": "tuple"
            },
            {
              "components": [
                {
                  "components": [
                    {
                      "internalType": "bytes",
                      "name": "val",
                      "type": "bytes"
                    },
                    {
                      "internalType": "bool",
                      "name": "neg",
                      "type": "bool"
                    },
                    {
                      "internalType": "uint256",
                      "name": "bitlen",
                      "type": "uint256"
                    }
                  ],
                  "internalType": "struct BigNumber",
                  "name": "value",
                  "type": "tuple"
                }
              ],
              "internalType": "struct Zp",
              "name": "y",
              "type": "tuple"
            }
          ],
          "internalType": "struct Point_Zp",
          "name": "p",
          "type": "tuple"
        }
      ],
      "name": "addEval",
      "outputs": [
        {
          "components": [
            {
              "components": [
                {
                  "components": [
                    {
                      "components": [
                        {
                          "components": [
                            {
                              "internalType": "bytes",
                              "name": "val",
                              "type": "bytes"
                            },
                            {
                              "internalType": "bool",
                              "name": "neg",
                              "type": "bool"
                            },
                            {
                              "internalType": "uint256",
                              "name": "bitlen",
                              "type": "uint256"
                            }
                          ],
                          "internalType": "struct BigNumber",
                          "name": "value",
                          "type": "tuple"
                        }
                      ],
                      "internalType": "struct Zp",
                      "name": "a",
                      "type": "tuple"
                    },
                    {
                      "components": [
                        {
                          "components": [
                            {
                              "internalType": "bytes",
                              "name": "val",
                              "type": "bytes"
                            },
                            {
                              "internalType": "bool",
                              "name": "neg",
                              "type": "bool"
                            },
                            {
                              "internalType": "uint256",
                              "name": "bitlen",
                              "type": "uint256"
                            }
                          ],
                          "internalType": "struct BigNumber",
                          "name": "value",
                          "type": "tuple"
                        }
                      ],
                      "internalType": "struct Zp",
                      "name": "b",
                      "type": "tuple"
                    }
                  ],
                  "internalType": "struct Zp_2",
                  "name": "a",
                  "type": "tuple"
                },
                {
                  "components": [
                    {
                      "components": [
                        {
                          "components": [
                            {
                              "internalType": "bytes",
                              "name": "val",
                              "type": "bytes"
                            },
                            {
                              "internalType": "bool",
                              "name": "neg",
                              "type": "bool"
                            },
                            {
                              "internalType": "uint256",
                              "name": "bitlen",
                              "type": "uint256"
                            }
                          ],
                          "internalType": "struct BigNumber",
                          "name": "value",
                          "type": "tuple"
                        }
                      ],
                      "internalType": "struct Zp",
                      "name": "a",
                      "type": "tuple"
                    },
                    {
                      "components": [
                        {
                          "components": [
                            {
                              "internalType": "bytes",
                              "name": "val",
                              "type": "bytes"
                            },
                            {
                              "internalType": "bool",
                              "name": "neg",
                              "type": "bool"
                            },
                            {
                              "internalType": "uint256",
                              "name": "bitlen",
                              "type": "uint256"
                            }
                          ],
                          "internalType": "struct BigNumber",
                          "name": "value",
                          "type": "tuple"
                        }
                      ],
                      "internalType": "struct Zp",
                      "name": "b",
                      "type": "tuple"
                    }
                  ],
                  "internalType": "struct Zp_2",
                  "name": "b",
                  "type": "tuple"
                },
                {
                  "components": [
                    {
                      "components": [
                        {
                          "components": [
                            {
                              "internalType": "bytes",
                              "name": "val",
                              "type": "bytes"
                            },
                            {
                              "internalType": "bool",
                              "name": "neg",
                              "type": "bool"
                            },
                            {
                              "internalType": "uint256",
                              "name": "bitlen",
                              "type": "uint256"
                            }
                          ],
                          "internalType": "struct BigNumber",
                          "name": "value",
                          "type": "tuple"
                        }
                      ],
                      "internalType": "struct Zp",
                      "name": "a",
                      "type": "tuple"
                    },
                    {
                      "components": [
                        {
                          "components": [
                            {
                              "internalType": "bytes",
                              "name": "val",
                              "type": "bytes"
                            },
                            {
                              "internalType": "bool",
                              "name": "neg",
                              "type": "bool"
                            },
                            {
                              "internalType": "uint256",
                              "name": "bitlen",
                              "type": "uint256"
                            }
                          ],
                          "internalType": "struct BigNumber",
                          "name": "value",
                          "type": "tuple"
                        }
                      ],
                      "internalType": "struct Zp",
                      "name": "b",
                      "type": "tuple"
                    }
                  ],
                  "internalType": "struct Zp_2",
                  "name": "c",
                  "type": "tuple"
                }
              ],
              "internalType": "struct Zp_6",
              "name": "a",
              "type": "tuple"
            },
            {
              "components": [
                {
                  "components": [
                    {
                      "components": [
                        {
                          "components": [
                            {
                              "internalType": "bytes",
                              "name": "val",
                              "type": "bytes"
                            },
                            {
                              "internalType": "bool",
                              "name": "neg",
                              "type": "bool"
                            },
                            {
                              "internalType": "uint256",
                              "name": "bitlen",
                              "type": "uint256"
                            }
                          ],
                          "internalType": "struct BigNumber",
                          "name": "value",
                          "type": "tuple"
                        }
                      ],
                      "internalType": "struct Zp",
                      "name": "a",
                      "type": "tuple"
                    },
                    {
                      "components": [
                        {
                          "components": [
                            {
                              "internalType": "bytes",
                              "name": "val",
                              "type": "bytes"
                            },
                            {
                              "internalType": "bool",
                              "name": "neg",
                              "type": "bool"
                            },
                            {
                              "internalType": "uint256",
                              "name": "bitlen",
                              "type": "uint256"
                            }
                          ],
                          "internalType": "struct BigNumber",
                          "name": "value",
                          "type": "tuple"
                        }
                      ],
                      "internalType": "struct Zp",
                      "name": "b",
                      "type": "tuple"
                    }
                  ],
                  "internalType": "struct Zp_2",
                  "name": "a",
                  "type": "tuple"
                },
                {
                  "components": [
                    {
                      "components": [
                        {
                          "components": [
                            {
                              "internalType": "bytes",
                              "name": "val",
                              "type": "bytes"
                            },
                            {
                              "internalType": "bool",
                              "name": "neg",
                              "type": "bool"
                            },
                            {
                              "internalType": "uint256",
                              "name": "bitlen",
                              "type": "uint256"
                            }
                          ],
                          "internalType": "struct BigNumber",
                          "name": "value",
                          "type": "tuple"
                        }
                      ],
                      "internalType": "struct Zp",
                      "name": "a",
                      "type": "tuple"
                    },
                    {
                      "components": [
                        {
                          "components": [
                            {
                              "internalType": "bytes",
                              "name": "val",
                              "type": "bytes"
                            },
                            {
                              "internalType": "bool",
                              "name": "neg",
                              "type": "bool"
                            },
                            {
                              "internalType": "uint256",
                              "name": "bitlen",
                              "type": "uint256"
                            }
                          ],
                          "internalType": "struct BigNumber",
                          "name": "value",
                          "type": "tuple"
                        }
                      ],
                      "internalType": "struct Zp",
                      "name": "b",
                      "type": "tuple"
                    }
                  ],
                  "internalType": "struct Zp_2",
                  "name": "b",
                  "type": "tuple"
                },
                {
                  "components": [
                    {
                      "components": [
                        {
                          "components": [
                            {
                              "internalType": "bytes",
                              "name": "val",
                              "type": "bytes"
                            },
                            {
                              "internalType": "bool",
                              "name": "neg",
                              "type": "bool"
                            },
                            {
                              "internalType": "uint256",
                              "name": "bitlen",
                              "type": "uint256"
                            }
                          ],
                          "internalType": "struct BigNumber",
                          "name": "value",
                          "type": "tuple"
                        }
                      ],
                      "internalType": "struct Zp",
                      "name": "a",
                      "type": "tuple"
                    },
                    {
                      "components": [
                        {
                          "components": [
                            {
                              "internalType": "bytes",
                              "name": "val",
                              "type": "bytes"
                            },
                            {
                              "internalType": "bool",
                              "name": "neg",
                              "type": "bool"
                            },
                            {
                              "internalType": "uint256",
                              "name": "bitlen",
                              "type": "uint256"
                            }
                          ],
                          "internalType": "struct BigNumber",
                          "name": "value",
                          "type": "tuple"
                        }
                      ],
                      "internalType": "struct Zp",
                      "name": "b",
                      "type": "tuple"
                    }
                  ],
                  "internalType": "struct Zp_2",
                  "name": "c",
                  "type": "tuple"
                }
              ],
              "internalType": "struct Zp_6",
              "name": "b",
              "type": "tuple"
            }
          ],
          "internalType": "struct Zp_12",
          "name": "",
          "type": "tuple"
        }
      ],
      "stateMutability": "view",
      "type": "function"
    },
    {
      "inputs": [
        {
          "components": [
            {
              "internalType": "enum PointType",
              "name": "pointType",
              "type": "uint8"
            },
            {
              "components": [
                {
                  "components": [
                    {
                      "components": [
                        {
                          "internalType": "bytes",
                          "name": "val",
                          "type": "bytes"
                        },
                        {
                          "internalType": "bool",
                          "name": "neg",
                          "type": "bool"
                        },
                        {
                          "internalType": "uint256",
                          "name": "bitlen",
                          "type": "uint256"
                        }
                      ],
                      "internalType": "struct BigNumber",
                      "name": "value",
                      "type": "tuple"
                    }
                  ],
                  "internalType": "struct Zp",
                  "name": "a",
                  "type": "tuple"
                },
                {
                  "components": [
                    {
                      "components": [
                        {
                          "internalType": "bytes",
                          "name": "val",
                          "type": "bytes"
                        },
                        {
                          "internalType": "bool",
                          "name": "neg",
                          "type": "bool"
                        },
                        {
                          "internalType": "uint256",
                          "name": "bitlen",
                          "type": "uint256"
                        }
                      ],
                      "internalType": "struct BigNumber",
                      "name": "value",
                      "type": "tuple"
                    }
                  ],
                  "internalType": "struct Zp",
                  "name": "b",
                  "type": "tuple"
                }
              ],
              "internalType": "struct Zp_2",
              "name": "x",
              "type": "tuple"
            },
            {
              "components": [
                {
                  "components": [
                    {
                      "components": [
                        {
                          "internalType": "bytes",
                          "name": "val",
                          "type": "bytes"
                        },
                        {
                          "internalType": "bool",
                          "name": "neg",
                          "type": "bool"
                        },
                        {
                          "internalType": "uint256",
                          "name": "bitlen",
                          "type": "uint256"
                        }
                      ],
                      "internalType": "struct BigNumber",
                      "name": "value",
                      "type": "tuple"
                    }
                  ],
                  "internalType": "struct Zp",
                  "name": "a",
                  "type": "tuple"
                },
                {
                  "components": [
                    {
                      "components": [
                        {
                          "internalType": "bytes",
                          "name": "val",
                          "type": "bytes"
                        },
                        {
                          "internalType": "bool",
                          "name": "neg",
                          "type": "bool"
                        },
                        {
                          "internalType": "uint256",
                          "name": "bitlen",
                          "type": "uint256"
                        }
                      ],
                      "internalType": "struct BigNumber",
                      "name": "value",
                      "type": "tuple"
                    }
                  ],
                  "internalType": "struct Zp",
                  "name": "b",
                  "type": "tuple"
                }
              ],
              "internalType": "struct Zp_2",
              "name": "y",
              "type": "tuple"
            }
          ],
          "internalType": "struct Point_Zp_2",
          "name": "r",
          "type": "tuple"
        },
        {
          "components": [
            {
              "internalType": "enum PointType",
              "name": "pointType",
              "type": "uint8"
            },
            {
              "components": [
                {
                  "components": [
                    {
                      "internalType": "bytes",
                      "name": "val",
                      "type": "bytes"
                    },
                    {
                      "internalType": "bool",
                      "name": "neg",
                      "type": "bool"
                    },
                    {
                      "internalType": "uint256",
                      "name": "bitlen",
                      "type": "uint256"
                    }
                  ],
                  "internalType": "struct BigNumber",
                  "name": "value",
                  "type": "tuple"
                }
              ],
              "internalType": "struct Zp",
              "name": "x",
              "type": "tuple"
            },
            {
              "components": [
                {
                  "components": [
                    {
                      "internalType": "bytes",
                      "name": "val",
                      "type": "bytes"
                    },
                    {
                      "internalType": "bool",
                      "name": "neg",
                      "type": "bool"
                    },
                    {
                      "internalType": "uint256",
                      "name": "bitlen",
                      "type": "uint256"
                    }
                  ],
                  "internalType": "struct BigNumber",
                  "name": "value",
                  "type": "tuple"
                }
              ],
              "internalType": "struct Zp",
              "name": "y",
              "type": "tuple"
            }
          ],
          "internalType": "struct Point_Zp",
          "name": "p",
          "type": "tuple"
        }
      ],
      "name": "doubleEval",
      "outputs": [
        {
          "components": [
            {
              "components": [
                {
                  "components": [
                    {
                      "components": [
                        {
                          "components": [
                            {
                              "internalType": "bytes",
                              "name": "val",
                              "type": "bytes"
                            },
                            {
                              "internalType": "bool",
                              "name": "neg",
                              "type": "bool"
                            },
                            {
                              "internalType": "uint256",
                              "name": "bitlen",
                              "type": "uint256"
                            }
                          ],
                          "internalType": "struct BigNumber",
                          "name": "value",
                          "type": "tuple"
                        }
                      ],
                      "internalType": "struct Zp",
                      "name": "a",
                      "type": "tuple"
                    },
                    {
                      "components": [
                        {
                          "components": [
                            {
                              "internalType": "bytes",
                              "name": "val",
                              "type": "bytes"
                            },
                            {
                              "internalType": "bool",
                              "name": "neg",
                              "type": "bool"
                            },
                            {
                              "internalType": "uint256",
                              "name": "bitlen",
                              "type": "uint256"
                            }
                          ],
                          "internalType": "struct BigNumber",
                          "name": "value",
                          "type": "tuple"
                        }
                      ],
                      "internalType": "struct Zp",
                      "name": "b",
                      "type": "tuple"
                    }
                  ],
                  "internalType": "struct Zp_2",
                  "name": "a",
                  "type": "tuple"
                },
                {
                  "components": [
                    {
                      "components": [
                        {
                          "components": [
                            {
                              "internalType": "bytes",
                              "name": "val",
                              "type": "bytes"
                            },
                            {
                              "internalType": "bool",
                              "name": "neg",
                              "type": "bool"
                            },
                            {
                              "internalType": "uint256",
                              "name": "bitlen",
                              "type": "uint256"
                            }
                          ],
                          "internalType": "struct BigNumber",
                          "name": "value",
                          "type": "tuple"
                        }
                      ],
                      "internalType": "struct Zp",
                      "name": "a",
                      "type": "tuple"
                    },
                    {
                      "components": [
                        {
                          "components": [
                            {
                              "internalType": "bytes",
                              "name": "val",
                              "type": "bytes"
                            },
                            {
                              "internalType": "bool",
                              "name": "neg",
                              "type": "bool"
                            },
                            {
                              "internalType": "uint256",
                              "name": "bitlen",
                              "type": "uint256"
                            }
                          ],
                          "internalType": "struct BigNumber",
                          "name": "value",
                          "type": "tuple"
                        }
                      ],
                      "internalType": "struct Zp",
                      "name": "b",
                      "type": "tuple"
                    }
                  ],
                  "internalType": "struct Zp_2",
                  "name": "b",
                  "type": "tuple"
                },
                {
                  "components": [
                    {
                      "components": [
                        {
                          "components": [
                            {
                              "internalType": "bytes",
                              "name": "val",
                              "type": "bytes"
                            },
                            {
                              "internalType": "bool",
                              "name": "neg",
                              "type": "bool"
                            },
                            {
                              "internalType": "uint256",
                              "name": "bitlen",
                              "type": "uint256"
                            }
                          ],
                          "internalType": "struct BigNumber",
                          "name": "value",
                          "type": "tuple"
                        }
                      ],
                      "internalType": "struct Zp",
                      "name": "a",
                      "type": "tuple"
                    },
                    {
                      "components": [
                        {
                          "components": [
                            {
                              "internalType": "bytes",
                              "name": "val",
                              "type": "bytes"
                            },
                            {
                              "internalType": "bool",
                              "name": "neg",
                              "type": "bool"
                            },
                            {
                              "internalType": "uint256",
                              "name": "bitlen",
                              "type": "uint256"
                            }
                          ],
                          "internalType": "struct BigNumber",
                          "name": "value",
                          "type": "tuple"
                        }
                      ],
                      "internalType": "struct Zp",
                      "name": "b",
                      "type": "tuple"
                    }
                  ],
                  "internalType": "struct Zp_2",
                  "name": "c",
                  "type": "tuple"
                }
              ],
              "internalType": "struct Zp_6",
              "name": "a",
              "type": "tuple"
            },
            {
              "components": [
                {
                  "components": [
                    {
                      "components": [
                        {
                          "components": [
                            {
                              "internalType": "bytes",
                              "name": "val",
                              "type": "bytes"
                            },
                            {
                              "internalType": "bool",
                              "name": "neg",
                              "type": "bool"
                            },
                            {
                              "internalType": "uint256",
                              "name": "bitlen",
                              "type": "uint256"
                            }
                          ],
                          "internalType": "struct BigNumber",
                          "name": "value",
                          "type": "tuple"
                        }
                      ],
                      "internalType": "struct Zp",
                      "name": "a",
                      "type": "tuple"
                    },
                    {
                      "components": [
                        {
                          "components": [
                            {
                              "internalType": "bytes",
                              "name": "val",
                              "type": "bytes"
                            },
                            {
                              "internalType": "bool",
                              "name": "neg",
                              "type": "bool"
                            },
                            {
                              "internalType": "uint256",
                              "name": "bitlen",
                              "type": "uint256"
                            }
                          ],
                          "internalType": "struct BigNumber",
                          "name": "value",
                          "type": "tuple"
                        }
                      ],
                      "internalType": "struct Zp",
                      "name": "b",
                      "type": "tuple"
                    }
                  ],
                  "internalType": "struct Zp_2",
                  "name": "a",
                  "type": "tuple"
                },
                {
                  "components": [
                    {
                      "components": [
                        {
                          "components": [
                            {
                              "internalType": "bytes",
                              "name": "val",
                              "type": "bytes"
                            },
                            {
                              "internalType": "bool",
                              "name": "neg",
                              "type": "bool"
                            },
                            {
                              "internalType": "uint256",
                              "name": "bitlen",
                              "type": "uint256"
                            }
                          ],
                          "internalType": "struct BigNumber",
                          "name": "value",
                          "type": "tuple"
                        }
                      ],
                      "internalType": "struct Zp",
                      "name": "a",
                      "type": "tuple"
                    },
                    {
                      "components": [
                        {
                          "components": [
                            {
                              "internalType": "bytes",
                              "name": "val",
                              "type": "bytes"
                            },
                            {
                              "internalType": "bool",
                              "name": "neg",
                              "type": "bool"
                            },
                            {
                              "internalType": "uint256",
                              "name": "bitlen",
                              "type": "uint256"
                            }
                          ],
                          "internalType": "struct BigNumber",
                          "name": "value",
                          "type": "tuple"
                        }
                      ],
                      "internalType": "struct Zp",
                      "name": "b",
                      "type": "tuple"
                    }
                  ],
                  "internalType": "struct Zp_2",
                  "name": "b",
                  "type": "tuple"
                },
                {
                  "components": [
                    {
                      "components": [
                        {
                          "components": [
                            {
                              "internalType": "bytes",
                              "name": "val",
                              "type": "bytes"
                            },
                            {
                              "internalType": "bool",
                              "name": "neg",
                              "type": "bool"
                            },
                            {
                              "internalType": "uint256",
                              "name": "bitlen",
                              "type": "uint256"
                            }
                          ],
                          "internalType": "struct BigNumber",
                          "name": "value",
                          "type": "tuple"
                        }
                      ],
                      "internalType": "struct Zp",
                      "name": "a",
                      "type": "tuple"
                    },
                    {
                      "components": [
                        {
                          "components": [
                            {
                              "internalType": "bytes",
                              "name": "val",
                              "type": "bytes"
                            },
                            {
                              "internalType": "bool",
                              "name": "neg",
                              "type": "bool"
                            },
                            {
                              "internalType": "uint256",
                              "name": "bitlen",
                              "type": "uint256"
                            }
                          ],
                          "internalType": "struct BigNumber",
                          "name": "value",
                          "type": "tuple"
                        }
                      ],
                      "internalType": "struct Zp",
                      "name": "b",
                      "type": "tuple"
                    }
                  ],
                  "internalType": "struct Zp_2",
                  "name": "c",
                  "type": "tuple"
                }
              ],
              "internalType": "struct Zp_6",
              "name": "b",
              "type": "tuple"
            }
          ],
          "internalType": "struct Zp_12",
          "name": "",
          "type": "tuple"
        }
      ],
      "stateMutability": "view",
      "type": "function"
    },
    {
      "inputs": [
        {
          "components": [
            {
              "components": [
                {
                  "components": [
                    {
                      "components": [
                        {
                          "components": [
                            {
                              "internalType": "bytes",
                              "name": "val",
                              "type": "bytes"
                            },
                            {
                              "internalType": "bool",
                              "name": "neg",
                              "type": "bool"
                            },
                            {
                              "internalType": "uint256",
                              "name": "bitlen",
                              "type": "uint256"
                            }
                          ],
                          "internalType": "struct BigNumber",
                          "name": "value",
                          "type": "tuple"
                        }
                      ],
                      "internalType": "struct Zp",
                      "name": "a",
                      "type": "tuple"
                    },
                    {
                      "components": [
                        {
                          "components": [
                            {
                              "internalType": "bytes",
                              "name": "val",
                              "type": "bytes"
                            },
                            {
                              "internalType": "bool",
                              "name": "neg",
                              "type": "bool"
                            },
                            {
                              "internalType": "uint256",
                              "name": "bitlen",
                              "type": "uint256"
                            }
                          ],
                          "internalType": "struct BigNumber",
                          "name": "value",
                          "type": "tuple"
                        }
                      ],
                      "internalType": "struct Zp",
                      "name": "b",
                      "type": "tuple"
                    }
                  ],
                  "internalType": "struct Zp_2",
                  "name": "a",
                  "type": "tuple"
                },
                {
                  "components": [
                    {
                      "components": [
                        {
                          "components": [
                            {
                              "internalType": "bytes",
                              "name": "val",
                              "type": "bytes"
                            },
                            {
                              "internalType": "bool",
                              "name": "neg",
                              "type": "bool"
                            },
                            {
                              "internalType": "uint256",
                              "name": "bitlen",
                              "type": "uint256"
                            }
                          ],
                          "internalType": "struct BigNumber",
                          "name": "value",
                          "type": "tuple"
                        }
                      ],
                      "internalType": "struct Zp",
                      "name": "a",
                      "type": "tuple"
                    },
                    {
                      "components": [
                        {
                          "components": [
                            {
                              "internalType": "bytes",
                              "name": "val",
                              "type": "bytes"
                            },
                            {
                              "internalType": "bool",
                              "name": "neg",
                              "type": "bool"
                            },
                            {
                              "internalType": "uint256",
                              "name": "bitlen",
                              "type": "uint256"
                            }
                          ],
                          "internalType": "struct BigNumber",
                          "name": "value",
                          "type": "tuple"
                        }
                      ],
                      "internalType": "struct Zp",
                      "name": "b",
                      "type": "tuple"
                    }
                  ],
                  "internalType": "struct Zp_2",
                  "name": "b",
                  "type": "tuple"
                },
                {
                  "components": [
                    {
                      "components": [
                        {
                          "components": [
                            {
                              "internalType": "bytes",
                              "name": "val",
                              "type": "bytes"
                            },
                            {
                              "internalType": "bool",
                              "name": "neg",
                              "type": "bool"
                            },
                            {
                              "internalType": "uint256",
                              "name": "bitlen",
                              "type": "uint256"
                            }
                          ],
                          "internalType": "struct BigNumber",
                          "name": "value",
                          "type": "tuple"
                        }
                      ],
                      "internalType": "struct Zp",
                      "name": "a",
                      "type": "tuple"
                    },
                    {
                      "components": [
                        {
                          "components": [
                            {
                              "internalType": "bytes",
                              "name": "val",
                              "type": "bytes"
                            },
                            {
                              "internalType": "bool",
                              "name": "neg",
                              "type": "bool"
                            },
                            {
                              "internalType": "uint256",
                              "name": "bitlen",
                              "type": "uint256"
                            }
                          ],
                          "internalType": "struct BigNumber",
                          "name": "value",
                          "type": "tuple"
                        }
                      ],
                      "internalType": "struct Zp",
                      "name": "b",
                      "type": "tuple"
                    }
                  ],
                  "internalType": "struct Zp_2",
                  "name": "c",
                  "type": "tuple"
                }
              ],
              "internalType": "struct Zp_6",
              "name": "a",
              "type": "tuple"
            },
            {
              "components": [
                {
                  "components": [
                    {
                      "components": [
                        {
                          "components": [
                            {
                              "internalType": "bytes",
                              "name": "val",
                              "type": "bytes"
                            },
                            {
                              "internalType": "bool",
                              "name": "neg",
                              "type": "bool"
                            },
                            {
                              "internalType": "uint256",
                              "name": "bitlen",
                              "type": "uint256"
                            }
                          ],
                          "internalType": "struct BigNumber",
                          "name": "value",
                          "type": "tuple"
                        }
                      ],
                      "internalType": "struct Zp",
                      "name": "a",
                      "type": "tuple"
                    },
                    {
                      "components": [
                        {
                          "components": [
                            {
                              "internalType": "bytes",
                              "name": "val",
                              "type": "bytes"
                            },
                            {
                              "internalType": "bool",
                              "name": "neg",
                              "type": "bool"
                            },
                            {
                              "internalType": "uint256",
                              "name": "bitlen",
                              "type": "uint256"
                            }
                          ],
                          "internalType": "struct BigNumber",
                          "name": "value",
                          "type": "tuple"
                        }
                      ],
                      "internalType": "struct Zp",
                      "name": "b",
                      "type": "tuple"
                    }
                  ],
                  "internalType": "struct Zp_2",
                  "name": "a",
                  "type": "tuple"
                },
                {
                  "components": [
                    {
                      "components": [
                        {
                          "components": [
                            {
                              "internalType": "bytes",
                              "name": "val",
                              "type": "bytes"
                            },
                            {
                              "internalType": "bool",
                              "name": "neg",
                              "type": "bool"
                            },
                            {
                              "internalType": "uint256",
                              "name": "bitlen",
                              "type": "uint256"
                            }
                          ],
                          "internalType": "struct BigNumber",
                          "name": "value",
                          "type": "tuple"
                        }
                      ],
                      "internalType": "struct Zp",
                      "name": "a",
                      "type": "tuple"
                    },
                    {
                      "components": [
                        {
                          "components": [
                            {
                              "internalType": "bytes",
                              "name": "val",
                              "type": "bytes"
                            },
                            {
                              "internalType": "bool",
                              "name": "neg",
                              "type": "bool"
                            },
                            {
                              "internalType": "uint256",
                              "name": "bitlen",
                              "type": "uint256"
                            }
                          ],
                          "internalType": "struct BigNumber",
                          "name": "value",
                          "type": "tuple"
                        }
                      ],
                      "internalType": "struct Zp",
                      "name": "b",
                      "type": "tuple"
                    }
                  ],
                  "internalType": "struct Zp_2",
                  "name": "b",
                  "type": "tuple"
                },
                {
                  "components": [
                    {
                      "components": [
                        {
                          "components": [
                            {
                              "internalType": "bytes",
                              "name": "val",
                              "type": "bytes"
                            },
                            {
                              "internalType": "bool",
                              "name": "neg",
                              "type": "bool"
                            },
                            {
                              "internalType": "uint256",
                              "name": "bitlen",
                              "type": "uint256"
                            }
                          ],
                          "internalType": "struct BigNumber",
                          "name": "value",
                          "type": "tuple"
                        }
                      ],
                      "internalType": "struct Zp",
                      "name": "a",
                      "type": "tuple"
                    },
                    {
                      "components": [
                        {
                          "components": [
                            {
                              "internalType": "bytes",
                              "name": "val",
                              "type": "bytes"
                            },
                            {
                              "internalType": "bool",
                              "name": "neg",
                              "type": "bool"
                            },
                            {
                              "internalType": "uint256",
                              "name": "bitlen",
                              "type": "uint256"
                            }
                          ],
                          "internalType": "struct BigNumber",
                          "name": "value",
                          "type": "tuple"
                        }
                      ],
                      "internalType": "struct Zp",
                      "name": "b",
                      "type": "tuple"
                    }
                  ],
                  "internalType": "struct Zp_2",
                  "name": "c",
                  "type": "tuple"
                }
              ],
              "internalType": "struct Zp_6",
              "name": "b",
              "type": "tuple"
            }
          ],
          "internalType": "struct Zp_12",
          "name": "value",
          "type": "tuple"
        },
        {
          "components": [
            {
              "internalType": "bytes",
              "name": "val",
              "type": "bytes"
            },
            {
              "internalType": "bool",
              "name": "neg",
              "type": "bool"
            },
            {
              "internalType": "uint256",
              "name": "bitlen",
              "type": "uint256"
            }
          ],
          "internalType": "struct BigNumber",
          "name": "e",
          "type": "tuple"
        },
        {
          "components": [
            {
              "components": [
                {
                  "components": [
                    {
                      "components": [
                        {
                          "components": [
                            {
                              "internalType": "bytes",
                              "name": "val",
                              "type": "bytes"
                            },
                            {
                              "internalType": "bool",
                              "name": "neg",
                              "type": "bool"
                            },
                            {
                              "internalType": "uint256",
                              "name": "bitlen",
                              "type": "uint256"
                            }
                          ],
                          "internalType": "struct BigNumber",
                          "name": "value",
                          "type": "tuple"
                        }
                      ],
                      "internalType": "struct Zp",
                      "name": "a",
                      "type": "tuple"
                    },
                    {
                      "components": [
                        {
                          "components": [
                            {
                              "internalType": "bytes",
                              "name": "val",
                              "type": "bytes"
                            },
                            {
                              "internalType": "bool",
                              "name": "neg",
                              "type": "bool"
                            },
                            {
                              "internalType": "uint256",
                              "name": "bitlen",
                              "type": "uint256"
                            }
                          ],
                          "internalType": "struct BigNumber",
                          "name": "value",
                          "type": "tuple"
                        }
                      ],
                      "internalType": "struct Zp",
                      "name": "b",
                      "type": "tuple"
                    }
                  ],
                  "internalType": "struct Zp_2",
                  "name": "a",
                  "type": "tuple"
                },
                {
                  "components": [
                    {
                      "components": [
                        {
                          "components": [
                            {
                              "internalType": "bytes",
                              "name": "val",
                              "type": "bytes"
                            },
                            {
                              "internalType": "bool",
                              "name": "neg",
                              "type": "bool"
                            },
                            {
                              "internalType": "uint256",
                              "name": "bitlen",
                              "type": "uint256"
                            }
                          ],
                          "internalType": "struct BigNumber",
                          "name": "value",
                          "type": "tuple"
                        }
                      ],
                      "internalType": "struct Zp",
                      "name": "a",
                      "type": "tuple"
                    },
                    {
                      "components": [
                        {
                          "components": [
                            {
                              "internalType": "bytes",
                              "name": "val",
                              "type": "bytes"
                            },
                            {
                              "internalType": "bool",
                              "name": "neg",
                              "type": "bool"
                            },
                            {
                              "internalType": "uint256",
                              "name": "bitlen",
                              "type": "uint256"
                            }
                          ],
                          "internalType": "struct BigNumber",
                          "name": "value",
                          "type": "tuple"
                        }
                      ],
                      "internalType": "struct Zp",
                      "name": "b",
                      "type": "tuple"
                    }
                  ],
                  "internalType": "struct Zp_2",
                  "name": "b",
                  "type": "tuple"
                },
                {
                  "components": [
                    {
                      "components": [
                        {
                          "components": [
                            {
                              "internalType": "bytes",
                              "name": "val",
                              "type": "bytes"
                            },
                            {
                              "internalType": "bool",
                              "name": "neg",
                              "type": "bool"
                            },
                            {
                              "internalType": "uint256",
                              "name": "bitlen",
                              "type": "uint256"
                            }
                          ],
                          "internalType": "struct BigNumber",
                          "name": "value",
                          "type": "tuple"
                        }
                      ],
                      "internalType": "struct Zp",
                      "name": "a",
                      "type": "tuple"
                    },
                    {
                      "components": [
                        {
                          "components": [
                            {
                              "internalType": "bytes",
                              "name": "val",
                              "type": "bytes"
                            },
                            {
                              "internalType": "bool",
                              "name": "neg",
                              "type": "bool"
                            },
                            {
                              "internalType": "uint256",
                              "name": "bitlen",
                              "type": "uint256"
                            }
                          ],
                          "internalType": "struct BigNumber",
                          "name": "value",
                          "type": "tuple"
                        }
                      ],
                      "internalType": "struct Zp",
                      "name": "b",
                      "type": "tuple"
                    }
                  ],
                  "internalType": "struct Zp_2",
                  "name": "c",
                  "type": "tuple"
                }
              ],
              "internalType": "struct Zp_6",
              "name": "a",
              "type": "tuple"
            },
            {
              "components": [
                {
                  "components": [
                    {
                      "components": [
                        {
                          "components": [
                            {
                              "internalType": "bytes",
                              "name": "val",
                              "type": "bytes"
                            },
                            {
                              "internalType": "bool",
                              "name": "neg",
                              "type": "bool"
                            },
                            {
                              "internalType": "uint256",
                              "name": "bitlen",
                              "type": "uint256"
                            }
                          ],
                          "internalType": "struct BigNumber",
                          "name": "value",
                          "type": "tuple"
                        }
                      ],
                      "internalType": "struct Zp",
                      "name": "a",
                      "type": "tuple"
                    },
                    {
                      "components": [
                        {
                          "components": [
                            {
                              "internalType": "bytes",
                              "name": "val",
                              "type": "bytes"
                            },
                            {
                              "internalType": "bool",
                              "name": "neg",
                              "type": "bool"
                            },
                            {
                              "internalType": "uint256",
                              "name": "bitlen",
                              "type": "uint256"
                            }
                          ],
                          "internalType": "struct BigNumber",
                          "name": "value",
                          "type": "tuple"
                        }
                      ],
                      "internalType": "struct Zp",
                      "name": "b",
                      "type": "tuple"
                    }
                  ],
                  "internalType": "struct Zp_2",
                  "name": "a",
                  "type": "tuple"
                },
                {
                  "components": [
                    {
                      "components": [
                        {
                          "components": [
                            {
                              "internalType": "bytes",
                              "name": "val",
                              "type": "bytes"
                            },
                            {
                              "internalType": "bool",
                              "name": "neg",
                              "type": "bool"
                            },
                            {
                              "internalType": "uint256",
                              "name": "bitlen",
                              "type": "uint256"
                            }
                          ],
                          "internalType": "struct BigNumber",
                          "name": "value",
                          "type": "tuple"
                        }
                      ],
                      "internalType": "struct Zp",
                      "name": "a",
                      "type": "tuple"
                    },
                    {
                      "components": [
                        {
                          "components": [
                            {
                              "internalType": "bytes",
                              "name": "val",
                              "type": "bytes"
                            },
                            {
                              "internalType": "bool",
                              "name": "neg",
                              "type": "bool"
                            },
                            {
                              "internalType": "uint256",
                              "name": "bitlen",
                              "type": "uint256"
                            }
                          ],
                          "internalType": "struct BigNumber",
                          "name": "value",
                          "type": "tuple"
                        }
                      ],
                      "internalType": "struct Zp",
                      "name": "b",
                      "type": "tuple"
                    }
                  ],
                  "internalType": "struct Zp_2",
                  "name": "b",
                  "type": "tuple"
                },
                {
                  "components": [
                    {
                      "components": [
                        {
                          "components": [
                            {
                              "internalType": "bytes",
                              "name": "val",
                              "type": "bytes"
                            },
                            {
                              "internalType": "bool",
                              "name": "neg",
                              "type": "bool"
                            },
                            {
                              "internalType": "uint256",
                              "name": "bitlen",
                              "type": "uint256"
                            }
                          ],
                          "internalType": "struct BigNumber",
                          "name": "value",
                          "type": "tuple"
                        }
                      ],
                      "internalType": "struct Zp",
                      "name": "a",
                      "type": "tuple"
                    },
                    {
                      "components": [
                        {
                          "components": [
                            {
                              "internalType": "bytes",
                              "name": "val",
                              "type": "bytes"
                            },
                            {
                              "internalType": "bool",
                              "name": "neg",
                              "type": "bool"
                            },
                            {
                              "internalType": "uint256",
                              "name": "bitlen",
                              "type": "uint256"
                            }
                          ],
                          "internalType": "struct BigNumber",
                          "name": "value",
                          "type": "tuple"
                        }
                      ],
                      "internalType": "struct Zp",
                      "name": "b",
                      "type": "tuple"
                    }
                  ],
                  "internalType": "struct Zp_2",
                  "name": "c",
                  "type": "tuple"
                }
              ],
              "internalType": "struct Zp_6",
              "name": "b",
              "type": "tuple"
            }
          ],
          "internalType": "struct Zp_12",
          "name": "result",
          "type": "tuple"
        }
      ],
      "name": "exp",
      "outputs": [
        {
          "components": [
            {
              "components": [
                {
                  "components": [
                    {
                      "components": [
                        {
                          "components": [
                            {
                              "internalType": "bytes",
                              "name": "val",
                              "type": "bytes"
                            },
                            {
                              "internalType": "bool",
                              "name": "neg",
                              "type": "bool"
                            },
                            {
                              "internalType": "uint256",
                              "name": "bitlen",
                              "type": "uint256"
                            }
                          ],
                          "internalType": "struct BigNumber",
                          "name": "value",
                          "type": "tuple"
                        }
                      ],
                      "internalType": "struct Zp",
                      "name": "a",
                      "type": "tuple"
                    },
                    {
                      "components": [
                        {
                          "components": [
                            {
                              "internalType": "bytes",
                              "name": "val",
                              "type": "bytes"
                            },
                            {
                              "internalType": "bool",
                              "name": "neg",
                              "type": "bool"
                            },
                            {
                              "internalType": "uint256",
                              "name": "bitlen",
                              "type": "uint256"
                            }
                          ],
                          "internalType": "struct BigNumber",
                          "name": "value",
                          "type": "tuple"
                        }
                      ],
                      "internalType": "struct Zp",
                      "name": "b",
                      "type": "tuple"
                    }
                  ],
                  "internalType": "struct Zp_2",
                  "name": "a",
                  "type": "tuple"
                },
                {
                  "components": [
                    {
                      "components": [
                        {
                          "components": [
                            {
                              "internalType": "bytes",
                              "name": "val",
                              "type": "bytes"
                            },
                            {
                              "internalType": "bool",
                              "name": "neg",
                              "type": "bool"
                            },
                            {
                              "internalType": "uint256",
                              "name": "bitlen",
                              "type": "uint256"
                            }
                          ],
                          "internalType": "struct BigNumber",
                          "name": "value",
                          "type": "tuple"
                        }
                      ],
                      "internalType": "struct Zp",
                      "name": "a",
                      "type": "tuple"
                    },
                    {
                      "components": [
                        {
                          "components": [
                            {
                              "internalType": "bytes",
                              "name": "val",
                              "type": "bytes"
                            },
                            {
                              "internalType": "bool",
                              "name": "neg",
                              "type": "bool"
                            },
                            {
                              "internalType": "uint256",
                              "name": "bitlen",
                              "type": "uint256"
                            }
                          ],
                          "internalType": "struct BigNumber",
                          "name": "value",
                          "type": "tuple"
                        }
                      ],
                      "internalType": "struct Zp",
                      "name": "b",
                      "type": "tuple"
                    }
                  ],
                  "internalType": "struct Zp_2",
                  "name": "b",
                  "type": "tuple"
                },
                {
                  "components": [
                    {
                      "components": [
                        {
                          "components": [
                            {
                              "internalType": "bytes",
                              "name": "val",
                              "type": "bytes"
                            },
                            {
                              "internalType": "bool",
                              "name": "neg",
                              "type": "bool"
                            },
                            {
                              "internalType": "uint256",
                              "name": "bitlen",
                              "type": "uint256"
                            }
                          ],
                          "internalType": "struct BigNumber",
                          "name": "value",
                          "type": "tuple"
                        }
                      ],
                      "internalType": "struct Zp",
                      "name": "a",
                      "type": "tuple"
                    },
                    {
                      "components": [
                        {
                          "components": [
                            {
                              "internalType": "bytes",
                              "name": "val",
                              "type": "bytes"
                            },
                            {
                              "internalType": "bool",
                              "name": "neg",
                              "type": "bool"
                            },
                            {
                              "internalType": "uint256",
                              "name": "bitlen",
                              "type": "uint256"
                            }
                          ],
                          "internalType": "struct BigNumber",
                          "name": "value",
                          "type": "tuple"
                        }
                      ],
                      "internalType": "struct Zp",
                      "name": "b",
                      "type": "tuple"
                    }
                  ],
                  "internalType": "struct Zp_2",
                  "name": "c",
                  "type": "tuple"
                }
              ],
              "internalType": "struct Zp_6",
              "name": "a",
              "type": "tuple"
            },
            {
              "components": [
                {
                  "components": [
                    {
                      "components": [
                        {
                          "components": [
                            {
                              "internalType": "bytes",
                              "name": "val",
                              "type": "bytes"
                            },
                            {
                              "internalType": "bool",
                              "name": "neg",
                              "type": "bool"
                            },
                            {
                              "internalType": "uint256",
                              "name": "bitlen",
                              "type": "uint256"
                            }
                          ],
                          "internalType": "struct BigNumber",
                          "name": "value",
                          "type": "tuple"
                        }
                      ],
                      "internalType": "struct Zp",
                      "name": "a",
                      "type": "tuple"
                    },
                    {
                      "components": [
                        {
                          "components": [
                            {
                              "internalType": "bytes",
                              "name": "val",
                              "type": "bytes"
                            },
                            {
                              "internalType": "bool",
                              "name": "neg",
                              "type": "bool"
                            },
                            {
                              "internalType": "uint256",
                              "name": "bitlen",
                              "type": "uint256"
                            }
                          ],
                          "internalType": "struct BigNumber",
                          "name": "value",
                          "type": "tuple"
                        }
                      ],
                      "internalType": "struct Zp",
                      "name": "b",
                      "type": "tuple"
                    }
                  ],
                  "internalType": "struct Zp_2",
                  "name": "a",
                  "type": "tuple"
                },
                {
                  "components": [
                    {
                      "components": [
                        {
                          "components": [
                            {
                              "internalType": "bytes",
                              "name": "val",
                              "type": "bytes"
                            },
                            {
                              "internalType": "bool",
                              "name": "neg",
                              "type": "bool"
                            },
                            {
                              "internalType": "uint256",
                              "name": "bitlen",
                              "type": "uint256"
                            }
                          ],
                          "internalType": "struct BigNumber",
                          "name": "value",
                          "type": "tuple"
                        }
                      ],
                      "internalType": "struct Zp",
                      "name": "a",
                      "type": "tuple"
                    },
                    {
                      "components": [
                        {
                          "components": [
                            {
                              "internalType": "bytes",
                              "name": "val",
                              "type": "bytes"
                            },
                            {
                              "internalType": "bool",
                              "name": "neg",
                              "type": "bool"
                            },
                            {
                              "internalType": "uint256",
                              "name": "bitlen",
                              "type": "uint256"
                            }
                          ],
                          "internalType": "struct BigNumber",
                          "name": "value",
                          "type": "tuple"
                        }
                      ],
                      "internalType": "struct Zp",
                      "name": "b",
                      "type": "tuple"
                    }
                  ],
                  "internalType": "struct Zp_2",
                  "name": "b",
                  "type": "tuple"
                },
                {
                  "components": [
                    {
                      "components": [
                        {
                          "components": [
                            {
                              "internalType": "bytes",
                              "name": "val",
                              "type": "bytes"
                            },
                            {
                              "internalType": "bool",
                              "name": "neg",
                              "type": "bool"
                            },
                            {
                              "internalType": "uint256",
                              "name": "bitlen",
                              "type": "uint256"
                            }
                          ],
                          "internalType": "struct BigNumber",
                          "name": "value",
                          "type": "tuple"
                        }
                      ],
                      "internalType": "struct Zp",
                      "name": "a",
                      "type": "tuple"
                    },
                    {
                      "components": [
                        {
                          "components": [
                            {
                              "internalType": "bytes",
                              "name": "val",
                              "type": "bytes"
                            },
                            {
                              "internalType": "bool",
                              "name": "neg",
                              "type": "bool"
                            },
                            {
                              "internalType": "uint256",
                              "name": "bitlen",
                              "type": "uint256"
                            }
                          ],
                          "internalType": "struct BigNumber",
                          "name": "value",
                          "type": "tuple"
                        }
                      ],
                      "internalType": "struct Zp",
                      "name": "b",
                      "type": "tuple"
                    }
                  ],
                  "internalType": "struct Zp_2",
                  "name": "c",
                  "type": "tuple"
                }
              ],
              "internalType": "struct Zp_6",
              "name": "b",
              "type": "tuple"
            }
          ],
          "internalType": "struct Zp_12",
          "name": "",
          "type": "tuple"
        }
      ],
      "stateMutability": "view",
      "type": "function"
    },
    {
      "inputs": [
        {
          "components": [
            {
              "internalType": "bytes",
              "name": "val",
              "type": "bytes"
            },
            {
              "internalType": "bool",
              "name": "neg",
              "type": "bool"
            },
            {
              "internalType": "uint256",
              "name": "bitlen",
              "type": "uint256"
            }
          ],
          "internalType": "struct BigNumber",
          "name": "value",
          "type": "tuple"
        }
      ],
      "name": "getBits",
      "outputs": [
        {
          "internalType": "bool[]",
          "name": "",
          "type": "bool[]"
        }
      ],
      "stateMutability": "view",
      "type": "function"
    },
    {
      "inputs": [],
      "name": "get_g0",
      "outputs": [
        {
          "components": [
            {
              "internalType": "enum PointType",
              "name": "pointType",
              "type": "uint8"
            },
            {
              "components": [
                {
                  "components": [
                    {
                      "internalType": "bytes",
                      "name": "val",
                      "type": "bytes"
                    },
                    {
                      "internalType": "bool",
                      "name": "neg",
                      "type": "bool"
                    },
                    {
                      "internalType": "uint256",
                      "name": "bitlen",
                      "type": "uint256"
                    }
                  ],
                  "internalType": "struct BigNumber",
                  "name": "value",
                  "type": "tuple"
                }
              ],
              "internalType": "struct Zp",
              "name": "x",
              "type": "tuple"
            },
            {
              "components": [
                {
                  "components": [
                    {
                      "internalType": "bytes",
                      "name": "val",
                      "type": "bytes"
                    },
                    {
                      "internalType": "bool",
                      "name": "neg",
                      "type": "bool"
                    },
                    {
                      "internalType": "uint256",
                      "name": "bitlen",
                      "type": "uint256"
                    }
                  ],
                  "internalType": "struct BigNumber",
                  "name": "value",
                  "type": "tuple"
                }
              ],
              "internalType": "struct Zp",
              "name": "y",
              "type": "tuple"
            }
          ],
          "internalType": "struct Point_Zp",
          "name": "",
          "type": "tuple"
        }
      ],
      "stateMutability": "view",
      "type": "function"
    },
    {
      "inputs": [],
      "name": "get_g1",
      "outputs": [
        {
          "components": [
            {
              "internalType": "enum PointType",
              "name": "pointType",
              "type": "uint8"
            },
            {
              "components": [
                {
                  "components": [
                    {
                      "components": [
                        {
                          "internalType": "bytes",
                          "name": "val",
                          "type": "bytes"
                        },
                        {
                          "internalType": "bool",
                          "name": "neg",
                          "type": "bool"
                        },
                        {
                          "internalType": "uint256",
                          "name": "bitlen",
                          "type": "uint256"
                        }
                      ],
                      "internalType": "struct BigNumber",
                      "name": "value",
                      "type": "tuple"
                    }
                  ],
                  "internalType": "struct Zp",
                  "name": "a",
                  "type": "tuple"
                },
                {
                  "components": [
                    {
                      "components": [
                        {
                          "internalType": "bytes",
                          "name": "val",
                          "type": "bytes"
                        },
                        {
                          "internalType": "bool",
                          "name": "neg",
                          "type": "bool"
                        },
                        {
                          "internalType": "uint256",
                          "name": "bitlen",
                          "type": "uint256"
                        }
                      ],
                      "internalType": "struct BigNumber",
                      "name": "value",
                      "type": "tuple"
                    }
                  ],
                  "internalType": "struct Zp",
                  "name": "b",
                  "type": "tuple"
                }
              ],
              "internalType": "struct Zp_2",
              "name": "x",
              "type": "tuple"
            },
            {
              "components": [
                {
                  "components": [
                    {
                      "components": [
                        {
                          "internalType": "bytes",
                          "name": "val",
                          "type": "bytes"
                        },
                        {
                          "internalType": "bool",
                          "name": "neg",
                          "type": "bool"
                        },
                        {
                          "internalType": "uint256",
                          "name": "bitlen",
                          "type": "uint256"
                        }
                      ],
                      "internalType": "struct BigNumber",
                      "name": "value",
                      "type": "tuple"
                    }
                  ],
                  "internalType": "struct Zp",
                  "name": "a",
                  "type": "tuple"
                },
                {
                  "components": [
                    {
                      "components": [
                        {
                          "internalType": "bytes",
                          "name": "val",
                          "type": "bytes"
                        },
                        {
                          "internalType": "bool",
                          "name": "neg",
                          "type": "bool"
                        },
                        {
                          "internalType": "uint256",
                          "name": "bitlen",
                          "type": "uint256"
                        }
                      ],
                      "internalType": "struct BigNumber",
                      "name": "value",
                      "type": "tuple"
                    }
                  ],
                  "internalType": "struct Zp",
                  "name": "b",
                  "type": "tuple"
                }
              ],
              "internalType": "struct Zp_2",
              "name": "y",
              "type": "tuple"
            }
          ],
          "internalType": "struct Point_Zp_2",
          "name": "",
          "type": "tuple"
        }
      ],
      "stateMutability": "view",
      "type": "function"
    },
    {
      "inputs": [],
      "name": "get_p",
      "outputs": [
        {
          "components": [
            {
              "internalType": "bytes",
              "name": "val",
              "type": "bytes"
            },
            {
              "internalType": "bool",
              "name": "neg",
              "type": "bool"
            },
            {
              "internalType": "uint256",
              "name": "bitlen",
              "type": "uint256"
            }
          ],
          "internalType": "struct BigNumber",
          "name": "",
          "type": "tuple"
        }
      ],
      "stateMutability": "view",
      "type": "function"
    },
    {
      "inputs": [
        {
          "components": [
            {
              "internalType": "enum PointType",
              "name": "pointType",
              "type": "uint8"
            },
            {
              "components": [
                {
                  "components": [
                    {
                      "internalType": "bytes",
                      "name": "val",
                      "type": "bytes"
                    },
                    {
                      "internalType": "bool",
                      "name": "neg",
                      "type": "bool"
                    },
                    {
                      "internalType": "uint256",
                      "name": "bitlen",
                      "type": "uint256"
                    }
                  ],
                  "internalType": "struct BigNumber",
                  "name": "value",
                  "type": "tuple"
                }
              ],
              "internalType": "struct Zp",
              "name": "x",
              "type": "tuple"
            },
            {
              "components": [
                {
                  "components": [
                    {
                      "internalType": "bytes",
                      "name": "val",
                      "type": "bytes"
                    },
                    {
                      "internalType": "bool",
                      "name": "neg",
                      "type": "bool"
                    },
                    {
                      "internalType": "uint256",
                      "name": "bitlen",
                      "type": "uint256"
                    }
                  ],
                  "internalType": "struct BigNumber",
                  "name": "value",
                  "type": "tuple"
                }
              ],
              "internalType": "struct Zp",
              "name": "y",
              "type": "tuple"
            }
          ],
          "internalType": "struct Point_Zp",
          "name": "point",
          "type": "tuple"
        }
      ],
      "name": "isOnCurve",
      "outputs": [
        {
          "internalType": "bool",
          "name": "",
          "type": "bool"
        }
      ],
      "stateMutability": "view",
      "type": "function"
    },
    {
      "inputs": [
        {
          "components": [
            {
              "internalType": "enum PointType",
              "name": "pointType",
              "type": "uint8"
            },
            {
              "components": [
                {
                  "components": [
                    {
                      "components": [
                        {
                          "internalType": "bytes",
                          "name": "val",
                          "type": "bytes"
                        },
                        {
                          "internalType": "bool",
                          "name": "neg",
                          "type": "bool"
                        },
                        {
                          "internalType": "uint256",
                          "name": "bitlen",
                          "type": "uint256"
                        }
                      ],
                      "internalType": "struct BigNumber",
                      "name": "value",
                      "type": "tuple"
                    }
                  ],
                  "internalType": "struct Zp",
                  "name": "a",
                  "type": "tuple"
                },
                {
                  "components": [
                    {
                      "components": [
                        {
                          "internalType": "bytes",
                          "name": "val",
                          "type": "bytes"
                        },
                        {
                          "internalType": "bool",
                          "name": "neg",
                          "type": "bool"
                        },
                        {
                          "internalType": "uint256",
                          "name": "bitlen",
                          "type": "uint256"
                        }
                      ],
                      "internalType": "struct BigNumber",
                      "name": "value",
                      "type": "tuple"
                    }
                  ],
                  "internalType": "struct Zp",
                  "name": "b",
                  "type": "tuple"
                }
              ],
              "internalType": "struct Zp_2",
              "name": "x",
              "type": "tuple"
            },
            {
              "components": [
                {
                  "components": [
                    {
                      "components": [
                        {
                          "internalType": "bytes",
                          "name": "val",
                          "type": "bytes"
                        },
                        {
                          "internalType": "bool",
                          "name": "neg",
                          "type": "bool"
                        },
                        {
                          "internalType": "uint256",
                          "name": "bitlen",
                          "type": "uint256"
                        }
                      ],
                      "internalType": "struct BigNumber",
                      "name": "value",
                      "type": "tuple"
                    }
                  ],
                  "internalType": "struct Zp",
                  "name": "a",
                  "type": "tuple"
                },
                {
                  "components": [
                    {
                      "components": [
                        {
                          "internalType": "bytes",
                          "name": "val",
                          "type": "bytes"
                        },
                        {
                          "internalType": "bool",
                          "name": "neg",
                          "type": "bool"
                        },
                        {
                          "internalType": "uint256",
                          "name": "bitlen",
                          "type": "uint256"
                        }
                      ],
                      "internalType": "struct BigNumber",
                      "name": "value",
                      "type": "tuple"
                    }
                  ],
                  "internalType": "struct Zp",
                  "name": "b",
                  "type": "tuple"
                }
              ],
              "internalType": "struct Zp_2",
              "name": "y",
              "type": "tuple"
            }
          ],
          "internalType": "struct Point_Zp_2",
          "name": "point",
          "type": "tuple"
        }
      ],
      "name": "isOnCurveTwist",
      "outputs": [
        {
          "internalType": "bool",
          "name": "",
          "type": "bool"
        }
      ],
      "stateMutability": "view",
      "type": "function"
    },
    {
      "inputs": [
        {
          "components": [
            {
              "internalType": "enum PointType",
              "name": "pointType",
              "type": "uint8"
            },
            {
              "components": [
                {
                  "components": [
                    {
                      "components": [
                        {
                          "components": [
                            {
                              "components": [
                                {
                                  "internalType": "bytes",
                                  "name": "val",
                                  "type": "bytes"
                                },
                                {
                                  "internalType": "bool",
                                  "name": "neg",
                                  "type": "bool"
                                },
                                {
                                  "internalType": "uint256",
                                  "name": "bitlen",
                                  "type": "uint256"
                                }
                              ],
                              "internalType": "struct BigNumber",
                              "name": "value",
                              "type": "tuple"
                            }
                          ],
                          "internalType": "struct Zp",
                          "name": "a",
                          "type": "tuple"
                        },
                        {
                          "components": [
                            {
                              "components": [
                                {
                                  "internalType": "bytes",
                                  "name": "val",
                                  "type": "bytes"
                                },
                                {
                                  "internalType": "bool",
                                  "name": "neg",
                                  "type": "bool"
                                },
                                {
                                  "internalType": "uint256",
                                  "name": "bitlen",
                                  "type": "uint256"
                                }
                              ],
                              "internalType": "struct BigNumber",
                              "name": "value",
                              "type": "tuple"
                            }
                          ],
                          "internalType": "struct Zp",
                          "name": "b",
                          "type": "tuple"
                        }
                      ],
                      "internalType": "struct Zp_2",
                      "name": "a",
                      "type": "tuple"
                    },
                    {
                      "components": [
                        {
                          "components": [
                            {
                              "components": [
                                {
                                  "internalType": "bytes",
                                  "name": "val",
                                  "type": "bytes"
                                },
                                {
                                  "internalType": "bool",
                                  "name": "neg",
                                  "type": "bool"
                                },
                                {
                                  "internalType": "uint256",
                                  "name": "bitlen",
                                  "type": "uint256"
                                }
                              ],
                              "internalType": "struct BigNumber",
                              "name": "value",
                              "type": "tuple"
                            }
                          ],
                          "internalType": "struct Zp",
                          "name": "a",
                          "type": "tuple"
                        },
                        {
                          "components": [
                            {
                              "components": [
                                {
                                  "internalType": "bytes",
                                  "name": "val",
                                  "type": "bytes"
                                },
                                {
                                  "internalType": "bool",
                                  "name": "neg",
                                  "type": "bool"
                                },
                                {
                                  "internalType": "uint256",
                                  "name": "bitlen",
                                  "type": "uint256"
                                }
                              ],
                              "internalType": "struct BigNumber",
                              "name": "value",
                              "type": "tuple"
                            }
                          ],
                          "internalType": "struct Zp",
                          "name": "b",
                          "type": "tuple"
                        }
                      ],
                      "internalType": "struct Zp_2",
                      "name": "b",
                      "type": "tuple"
                    },
                    {
                      "components": [
                        {
                          "components": [
                            {
                              "components": [
                                {
                                  "internalType": "bytes",
                                  "name": "val",
                                  "type": "bytes"
                                },
                                {
                                  "internalType": "bool",
                                  "name": "neg",
                                  "type": "bool"
                                },
                                {
                                  "internalType": "uint256",
                                  "name": "bitlen",
                                  "type": "uint256"
                                }
                              ],
                              "internalType": "struct BigNumber",
                              "name": "value",
                              "type": "tuple"
                            }
                          ],
                          "internalType": "struct Zp",
                          "name": "a",
                          "type": "tuple"
                        },
                        {
                          "components": [
                            {
                              "components": [
                                {
                                  "internalType": "bytes",
                                  "name": "val",
                                  "type": "bytes"
                                },
                                {
                                  "internalType": "bool",
                                  "name": "neg",
                                  "type": "bool"
                                },
                                {
                                  "internalType": "uint256",
                                  "name": "bitlen",
                                  "type": "uint256"
                                }
                              ],
                              "internalType": "struct BigNumber",
                              "name": "value",
                              "type": "tuple"
                            }
                          ],
                          "internalType": "struct Zp",
                          "name": "b",
                          "type": "tuple"
                        }
                      ],
                      "internalType": "struct Zp_2",
                      "name": "c",
                      "type": "tuple"
                    }
                  ],
                  "internalType": "struct Zp_6",
                  "name": "a",
                  "type": "tuple"
                },
                {
                  "components": [
                    {
                      "components": [
                        {
                          "components": [
                            {
                              "components": [
                                {
                                  "internalType": "bytes",
                                  "name": "val",
                                  "type": "bytes"
                                },
                                {
                                  "internalType": "bool",
                                  "name": "neg",
                                  "type": "bool"
                                },
                                {
                                  "internalType": "uint256",
                                  "name": "bitlen",
                                  "type": "uint256"
                                }
                              ],
                              "internalType": "struct BigNumber",
                              "name": "value",
                              "type": "tuple"
                            }
                          ],
                          "internalType": "struct Zp",
                          "name": "a",
                          "type": "tuple"
                        },
                        {
                          "components": [
                            {
                              "components": [
                                {
                                  "internalType": "bytes",
                                  "name": "val",
                                  "type": "bytes"
                                },
                                {
                                  "internalType": "bool",
                                  "name": "neg",
                                  "type": "bool"
                                },
                                {
                                  "internalType": "uint256",
                                  "name": "bitlen",
                                  "type": "uint256"
                                }
                              ],
                              "internalType": "struct BigNumber",
                              "name": "value",
                              "type": "tuple"
                            }
                          ],
                          "internalType": "struct Zp",
                          "name": "b",
                          "type": "tuple"
                        }
                      ],
                      "internalType": "struct Zp_2",
                      "name": "a",
                      "type": "tuple"
                    },
                    {
                      "components": [
                        {
                          "components": [
                            {
                              "components": [
                                {
                                  "internalType": "bytes",
                                  "name": "val",
                                  "type": "bytes"
                                },
                                {
                                  "internalType": "bool",
                                  "name": "neg",
                                  "type": "bool"
                                },
                                {
                                  "internalType": "uint256",
                                  "name": "bitlen",
                                  "type": "uint256"
                                }
                              ],
                              "internalType": "struct BigNumber",
                              "name": "value",
                              "type": "tuple"
                            }
                          ],
                          "internalType": "struct Zp",
                          "name": "a",
                          "type": "tuple"
                        },
                        {
                          "components": [
                            {
                              "components": [
                                {
                                  "internalType": "bytes",
                                  "name": "val",
                                  "type": "bytes"
                                },
                                {
                                  "internalType": "bool",
                                  "name": "neg",
                                  "type": "bool"
                                },
                                {
                                  "internalType": "uint256",
                                  "name": "bitlen",
                                  "type": "uint256"
                                }
                              ],
                              "internalType": "struct BigNumber",
                              "name": "value",
                              "type": "tuple"
                            }
                          ],
                          "internalType": "struct Zp",
                          "name": "b",
                          "type": "tuple"
                        }
                      ],
                      "internalType": "struct Zp_2",
                      "name": "b",
                      "type": "tuple"
                    },
                    {
                      "components": [
                        {
                          "components": [
                            {
                              "components": [
                                {
                                  "internalType": "bytes",
                                  "name": "val",
                                  "type": "bytes"
                                },
                                {
                                  "internalType": "bool",
                                  "name": "neg",
                                  "type": "bool"
                                },
                                {
                                  "internalType": "uint256",
                                  "name": "bitlen",
                                  "type": "uint256"
                                }
                              ],
                              "internalType": "struct BigNumber",
                              "name": "value",
                              "type": "tuple"
                            }
                          ],
                          "internalType": "struct Zp",
                          "name": "a",
                          "type": "tuple"
                        },
                        {
                          "components": [
                            {
                              "components": [
                                {
                                  "internalType": "bytes",
                                  "name": "val",
                                  "type": "bytes"
                                },
                                {
                                  "internalType": "bool",
                                  "name": "neg",
                                  "type": "bool"
                                },
                                {
                                  "internalType": "uint256",
                                  "name": "bitlen",
                                  "type": "uint256"
                                }
                              ],
                              "internalType": "struct BigNumber",
                              "name": "value",
                              "type": "tuple"
                            }
                          ],
                          "internalType": "struct Zp",
                          "name": "b",
                          "type": "tuple"
                        }
                      ],
                      "internalType": "struct Zp_2",
                      "name": "c",
                      "type": "tuple"
                    }
                  ],
                  "internalType": "struct Zp_6",
                  "name": "b",
                  "type": "tuple"
                }
              ],
              "internalType": "struct Zp_12",
              "name": "x",
              "type": "tuple"
            },
            {
              "components": [
                {
                  "components": [
                    {
                      "components": [
                        {
                          "components": [
                            {
                              "components": [
                                {
                                  "internalType": "bytes",
                                  "name": "val",
                                  "type": "bytes"
                                },
                                {
                                  "internalType": "bool",
                                  "name": "neg",
                                  "type": "bool"
                                },
                                {
                                  "internalType": "uint256",
                                  "name": "bitlen",
                                  "type": "uint256"
                                }
                              ],
                              "internalType": "struct BigNumber",
                              "name": "value",
                              "type": "tuple"
                            }
                          ],
                          "internalType": "struct Zp",
                          "name": "a",
                          "type": "tuple"
                        },
                        {
                          "components": [
                            {
                              "components": [
                                {
                                  "internalType": "bytes",
                                  "name": "val",
                                  "type": "bytes"
                                },
                                {
                                  "internalType": "bool",
                                  "name": "neg",
                                  "type": "bool"
                                },
                                {
                                  "internalType": "uint256",
                                  "name": "bitlen",
                                  "type": "uint256"
                                }
                              ],
                              "internalType": "struct BigNumber",
                              "name": "value",
                              "type": "tuple"
                            }
                          ],
                          "internalType": "struct Zp",
                          "name": "b",
                          "type": "tuple"
                        }
                      ],
                      "internalType": "struct Zp_2",
                      "name": "a",
                      "type": "tuple"
                    },
                    {
                      "components": [
                        {
                          "components": [
                            {
                              "components": [
                                {
                                  "internalType": "bytes",
                                  "name": "val",
                                  "type": "bytes"
                                },
                                {
                                  "internalType": "bool",
                                  "name": "neg",
                                  "type": "bool"
                                },
                                {
                                  "internalType": "uint256",
                                  "name": "bitlen",
                                  "type": "uint256"
                                }
                              ],
                              "internalType": "struct BigNumber",
                              "name": "value",
                              "type": "tuple"
                            }
                          ],
                          "internalType": "struct Zp",
                          "name": "a",
                          "type": "tuple"
                        },
                        {
                          "components": [
                            {
                              "components": [
                                {
                                  "internalType": "bytes",
                                  "name": "val",
                                  "type": "bytes"
                                },
                                {
                                  "internalType": "bool",
                                  "name": "neg",
                                  "type": "bool"
                                },
                                {
                                  "internalType": "uint256",
                                  "name": "bitlen",
                                  "type": "uint256"
                                }
                              ],
                              "internalType": "struct BigNumber",
                              "name": "value",
                              "type": "tuple"
                            }
                          ],
                          "internalType": "struct Zp",
                          "name": "b",
                          "type": "tuple"
                        }
                      ],
                      "internalType": "struct Zp_2",
                      "name": "b",
                      "type": "tuple"
                    },
                    {
                      "components": [
                        {
                          "components": [
                            {
                              "components": [
                                {
                                  "internalType": "bytes",
                                  "name": "val",
                                  "type": "bytes"
                                },
                                {
                                  "internalType": "bool",
                                  "name": "neg",
                                  "type": "bool"
                                },
                                {
                                  "internalType": "uint256",
                                  "name": "bitlen",
                                  "type": "uint256"
                                }
                              ],
                              "internalType": "struct BigNumber",
                              "name": "value",
                              "type": "tuple"
                            }
                          ],
                          "internalType": "struct Zp",
                          "name": "a",
                          "type": "tuple"
                        },
                        {
                          "components": [
                            {
                              "components": [
                                {
                                  "internalType": "bytes",
                                  "name": "val",
                                  "type": "bytes"
                                },
                                {
                                  "internalType": "bool",
                                  "name": "neg",
                                  "type": "bool"
                                },
                                {
                                  "internalType": "uint256",
                                  "name": "bitlen",
                                  "type": "uint256"
                                }
                              ],
                              "internalType": "struct BigNumber",
                              "name": "value",
                              "type": "tuple"
                            }
                          ],
                          "internalType": "struct Zp",
                          "name": "b",
                          "type": "tuple"
                        }
                      ],
                      "internalType": "struct Zp_2",
                      "name": "c",
                      "type": "tuple"
                    }
                  ],
                  "internalType": "struct Zp_6",
                  "name": "a",
                  "type": "tuple"
                },
                {
                  "components": [
                    {
                      "components": [
                        {
                          "components": [
                            {
                              "components": [
                                {
                                  "internalType": "bytes",
                                  "name": "val",
                                  "type": "bytes"
                                },
                                {
                                  "internalType": "bool",
                                  "name": "neg",
                                  "type": "bool"
                                },
                                {
                                  "internalType": "uint256",
                                  "name": "bitlen",
                                  "type": "uint256"
                                }
                              ],
                              "internalType": "struct BigNumber",
                              "name": "value",
                              "type": "tuple"
                            }
                          ],
                          "internalType": "struct Zp",
                          "name": "a",
                          "type": "tuple"
                        },
                        {
                          "components": [
                            {
                              "components": [
                                {
                                  "internalType": "bytes",
                                  "name": "val",
                                  "type": "bytes"
                                },
                                {
                                  "internalType": "bool",
                                  "name": "neg",
                                  "type": "bool"
                                },
                                {
                                  "internalType": "uint256",
                                  "name": "bitlen",
                                  "type": "uint256"
                                }
                              ],
                              "internalType": "struct BigNumber",
                              "name": "value",
                              "type": "tuple"
                            }
                          ],
                          "internalType": "struct Zp",
                          "name": "b",
                          "type": "tuple"
                        }
                      ],
                      "internalType": "struct Zp_2",
                      "name": "a",
                      "type": "tuple"
                    },
                    {
                      "components": [
                        {
                          "components": [
                            {
                              "components": [
                                {
                                  "internalType": "bytes",
                                  "name": "val",
                                  "type": "bytes"
                                },
                                {
                                  "internalType": "bool",
                                  "name": "neg",
                                  "type": "bool"
                                },
                                {
                                  "internalType": "uint256",
                                  "name": "bitlen",
                                  "type": "uint256"
                                }
                              ],
                              "internalType": "struct BigNumber",
                              "name": "value",
                              "type": "tuple"
                            }
                          ],
                          "internalType": "struct Zp",
                          "name": "a",
                          "type": "tuple"
                        },
                        {
                          "components": [
                            {
                              "components": [
                                {
                                  "internalType": "bytes",
                                  "name": "val",
                                  "type": "bytes"
                                },
                                {
                                  "internalType": "bool",
                                  "name": "neg",
                                  "type": "bool"
                                },
                                {
                                  "internalType": "uint256",
                                  "name": "bitlen",
                                  "type": "uint256"
                                }
                              ],
                              "internalType": "struct BigNumber",
                              "name": "value",
                              "type": "tuple"
                            }
                          ],
                          "internalType": "struct Zp",
                          "name": "b",
                          "type": "tuple"
                        }
                      ],
                      "internalType": "struct Zp_2",
                      "name": "b",
                      "type": "tuple"
                    },
                    {
                      "components": [
                        {
                          "components": [
                            {
                              "components": [
                                {
                                  "internalType": "bytes",
                                  "name": "val",
                                  "type": "bytes"
                                },
                                {
                                  "internalType": "bool",
                                  "name": "neg",
                                  "type": "bool"
                                },
                                {
                                  "internalType": "uint256",
                                  "name": "bitlen",
                                  "type": "uint256"
                                }
                              ],
                              "internalType": "struct BigNumber",
                              "name": "value",
                              "type": "tuple"
                            }
                          ],
                          "internalType": "struct Zp",
                          "name": "a",
                          "type": "tuple"
                        },
                        {
                          "components": [
                            {
                              "components": [
                                {
                                  "internalType": "bytes",
                                  "name": "val",
                                  "type": "bytes"
                                },
                                {
                                  "internalType": "bool",
                                  "name": "neg",
                                  "type": "bool"
                                },
                                {
                                  "internalType": "uint256",
                                  "name": "bitlen",
                                  "type": "uint256"
                                }
                              ],
                              "internalType": "struct BigNumber",
                              "name": "value",
                              "type": "tuple"
                            }
                          ],
                          "internalType": "struct Zp",
                          "name": "b",
                          "type": "tuple"
                        }
                      ],
                      "internalType": "struct Zp_2",
                      "name": "c",
                      "type": "tuple"
                    }
                  ],
                  "internalType": "struct Zp_6",
                  "name": "b",
                  "type": "tuple"
                }
              ],
              "internalType": "struct Zp_12",
              "name": "y",
              "type": "tuple"
            }
          ],
          "internalType": "struct Point_Zp_12",
          "name": "point",
          "type": "tuple"
        }
      ],
      "name": "isOnCurve_12",
      "outputs": [
        {
          "internalType": "bool",
          "name": "",
          "type": "bool"
        }
      ],
      "stateMutability": "view",
      "type": "function"
    },
    {
      "inputs": [
        {
          "components": [
            {
              "internalType": "enum PointType",
              "name": "pointType",
              "type": "uint8"
            },
            {
              "components": [
                {
                  "components": [
                    {
                      "internalType": "bytes",
                      "name": "val",
                      "type": "bytes"
                    },
                    {
                      "internalType": "bool",
                      "name": "neg",
                      "type": "bool"
                    },
                    {
                      "internalType": "uint256",
                      "name": "bitlen",
                      "type": "uint256"
                    }
                  ],
                  "internalType": "struct BigNumber",
                  "name": "value",
                  "type": "tuple"
                }
              ],
              "internalType": "struct Zp",
              "name": "x",
              "type": "tuple"
            },
            {
              "components": [
                {
                  "components": [
                    {
                      "internalType": "bytes",
                      "name": "val",
                      "type": "bytes"
                    },
                    {
                      "internalType": "bool",
                      "name": "neg",
                      "type": "bool"
                    },
                    {
                      "internalType": "uint256",
                      "name": "bitlen",
                      "type": "uint256"
                    }
                  ],
                  "internalType": "struct BigNumber",
                  "name": "value",
                  "type": "tuple"
                }
              ],
              "internalType": "struct Zp",
              "name": "y",
              "type": "tuple"
            }
          ],
          "internalType": "struct Point_Zp",
          "name": "p",
          "type": "tuple"
        },
        {
          "components": [
            {
              "internalType": "enum PointType",
              "name": "pointType",
              "type": "uint8"
            },
            {
              "components": [
                {
                  "components": [
                    {
                      "components": [
                        {
                          "internalType": "bytes",
                          "name": "val",
                          "type": "bytes"
                        },
                        {
                          "internalType": "bool",
                          "name": "neg",
                          "type": "bool"
                        },
                        {
                          "internalType": "uint256",
                          "name": "bitlen",
                          "type": "uint256"
                        }
                      ],
                      "internalType": "struct BigNumber",
                      "name": "value",
                      "type": "tuple"
                    }
                  ],
                  "internalType": "struct Zp",
                  "name": "a",
                  "type": "tuple"
                },
                {
                  "components": [
                    {
                      "components": [
                        {
                          "internalType": "bytes",
                          "name": "val",
                          "type": "bytes"
                        },
                        {
                          "internalType": "bool",
                          "name": "neg",
                          "type": "bool"
                        },
                        {
                          "internalType": "uint256",
                          "name": "bitlen",
                          "type": "uint256"
                        }
                      ],
                      "internalType": "struct BigNumber",
                      "name": "value",
                      "type": "tuple"
                    }
                  ],
                  "internalType": "struct Zp",
                  "name": "b",
                  "type": "tuple"
                }
              ],
              "internalType": "struct Zp_2",
              "name": "x",
              "type": "tuple"
            },
            {
              "components": [
                {
                  "components": [
                    {
                      "components": [
                        {
                          "internalType": "bytes",
                          "name": "val",
                          "type": "bytes"
                        },
                        {
                          "internalType": "bool",
                          "name": "neg",
                          "type": "bool"
                        },
                        {
                          "internalType": "uint256",
                          "name": "bitlen",
                          "type": "uint256"
                        }
                      ],
                      "internalType": "struct BigNumber",
                      "name": "value",
                      "type": "tuple"
                    }
                  ],
                  "internalType": "struct Zp",
                  "name": "a",
                  "type": "tuple"
                },
                {
                  "components": [
                    {
                      "components": [
                        {
                          "internalType": "bytes",
                          "name": "val",
                          "type": "bytes"
                        },
                        {
                          "internalType": "bool",
                          "name": "neg",
                          "type": "bool"
                        },
                        {
                          "internalType": "uint256",
                          "name": "bitlen",
                          "type": "uint256"
                        }
                      ],
                      "internalType": "struct BigNumber",
                      "name": "value",
                      "type": "tuple"
                    }
                  ],
                  "internalType": "struct Zp",
                  "name": "b",
                  "type": "tuple"
                }
              ],
              "internalType": "struct Zp_2",
              "name": "y",
              "type": "tuple"
            }
          ],
          "internalType": "struct Point_Zp_2",
          "name": "q",
          "type": "tuple"
        }
      ],
      "name": "miller",
      "outputs": [
        {
          "components": [
            {
              "components": [
                {
                  "components": [
                    {
                      "components": [
                        {
                          "components": [
                            {
                              "internalType": "bytes",
                              "name": "val",
                              "type": "bytes"
                            },
                            {
                              "internalType": "bool",
                              "name": "neg",
                              "type": "bool"
                            },
                            {
                              "internalType": "uint256",
                              "name": "bitlen",
                              "type": "uint256"
                            }
                          ],
                          "internalType": "struct BigNumber",
                          "name": "value",
                          "type": "tuple"
                        }
                      ],
                      "internalType": "struct Zp",
                      "name": "a",
                      "type": "tuple"
                    },
                    {
                      "components": [
                        {
                          "components": [
                            {
                              "internalType": "bytes",
                              "name": "val",
                              "type": "bytes"
                            },
                            {
                              "internalType": "bool",
                              "name": "neg",
                              "type": "bool"
                            },
                            {
                              "internalType": "uint256",
                              "name": "bitlen",
                              "type": "uint256"
                            }
                          ],
                          "internalType": "struct BigNumber",
                          "name": "value",
                          "type": "tuple"
                        }
                      ],
                      "internalType": "struct Zp",
                      "name": "b",
                      "type": "tuple"
                    }
                  ],
                  "internalType": "struct Zp_2",
                  "name": "a",
                  "type": "tuple"
                },
                {
                  "components": [
                    {
                      "components": [
                        {
                          "components": [
                            {
                              "internalType": "bytes",
                              "name": "val",
                              "type": "bytes"
                            },
                            {
                              "internalType": "bool",
                              "name": "neg",
                              "type": "bool"
                            },
                            {
                              "internalType": "uint256",
                              "name": "bitlen",
                              "type": "uint256"
                            }
                          ],
                          "internalType": "struct BigNumber",
                          "name": "value",
                          "type": "tuple"
                        }
                      ],
                      "internalType": "struct Zp",
                      "name": "a",
                      "type": "tuple"
                    },
                    {
                      "components": [
                        {
                          "components": [
                            {
                              "internalType": "bytes",
                              "name": "val",
                              "type": "bytes"
                            },
                            {
                              "internalType": "bool",
                              "name": "neg",
                              "type": "bool"
                            },
                            {
                              "internalType": "uint256",
                              "name": "bitlen",
                              "type": "uint256"
                            }
                          ],
                          "internalType": "struct BigNumber",
                          "name": "value",
                          "type": "tuple"
                        }
                      ],
                      "internalType": "struct Zp",
                      "name": "b",
                      "type": "tuple"
                    }
                  ],
                  "internalType": "struct Zp_2",
                  "name": "b",
                  "type": "tuple"
                },
                {
                  "components": [
                    {
                      "components": [
                        {
                          "components": [
                            {
                              "internalType": "bytes",
                              "name": "val",
                              "type": "bytes"
                            },
                            {
                              "internalType": "bool",
                              "name": "neg",
                              "type": "bool"
                            },
                            {
                              "internalType": "uint256",
                              "name": "bitlen",
                              "type": "uint256"
                            }
                          ],
                          "internalType": "struct BigNumber",
                          "name": "value",
                          "type": "tuple"
                        }
                      ],
                      "internalType": "struct Zp",
                      "name": "a",
                      "type": "tuple"
                    },
                    {
                      "components": [
                        {
                          "components": [
                            {
                              "internalType": "bytes",
                              "name": "val",
                              "type": "bytes"
                            },
                            {
                              "internalType": "bool",
                              "name": "neg",
                              "type": "bool"
                            },
                            {
                              "internalType": "uint256",
                              "name": "bitlen",
                              "type": "uint256"
                            }
                          ],
                          "internalType": "struct BigNumber",
                          "name": "value",
                          "type": "tuple"
                        }
                      ],
                      "internalType": "struct Zp",
                      "name": "b",
                      "type": "tuple"
                    }
                  ],
                  "internalType": "struct Zp_2",
                  "name": "c",
                  "type": "tuple"
                }
              ],
              "internalType": "struct Zp_6",
              "name": "a",
              "type": "tuple"
            },
            {
              "components": [
                {
                  "components": [
                    {
                      "components": [
                        {
                          "components": [
                            {
                              "internalType": "bytes",
                              "name": "val",
                              "type": "bytes"
                            },
                            {
                              "internalType": "bool",
                              "name": "neg",
                              "type": "bool"
                            },
                            {
                              "internalType": "uint256",
                              "name": "bitlen",
                              "type": "uint256"
                            }
                          ],
                          "internalType": "struct BigNumber",
                          "name": "value",
                          "type": "tuple"
                        }
                      ],
                      "internalType": "struct Zp",
                      "name": "a",
                      "type": "tuple"
                    },
                    {
                      "components": [
                        {
                          "components": [
                            {
                              "internalType": "bytes",
                              "name": "val",
                              "type": "bytes"
                            },
                            {
                              "internalType": "bool",
                              "name": "neg",
                              "type": "bool"
                            },
                            {
                              "internalType": "uint256",
                              "name": "bitlen",
                              "type": "uint256"
                            }
                          ],
                          "internalType": "struct BigNumber",
                          "name": "value",
                          "type": "tuple"
                        }
                      ],
                      "internalType": "struct Zp",
                      "name": "b",
                      "type": "tuple"
                    }
                  ],
                  "internalType": "struct Zp_2",
                  "name": "a",
                  "type": "tuple"
                },
                {
                  "components": [
                    {
                      "components": [
                        {
                          "components": [
                            {
                              "internalType": "bytes",
                              "name": "val",
                              "type": "bytes"
                            },
                            {
                              "internalType": "bool",
                              "name": "neg",
                              "type": "bool"
                            },
                            {
                              "internalType": "uint256",
                              "name": "bitlen",
                              "type": "uint256"
                            }
                          ],
                          "internalType": "struct BigNumber",
                          "name": "value",
                          "type": "tuple"
                        }
                      ],
                      "internalType": "struct Zp",
                      "name": "a",
                      "type": "tuple"
                    },
                    {
                      "components": [
                        {
                          "components": [
                            {
                              "internalType": "bytes",
                              "name": "val",
                              "type": "bytes"
                            },
                            {
                              "internalType": "bool",
                              "name": "neg",
                              "type": "bool"
                            },
                            {
                              "internalType": "uint256",
                              "name": "bitlen",
                              "type": "uint256"
                            }
                          ],
                          "internalType": "struct BigNumber",
                          "name": "value",
                          "type": "tuple"
                        }
                      ],
                      "internalType": "struct Zp",
                      "name": "b",
                      "type": "tuple"
                    }
                  ],
                  "internalType": "struct Zp_2",
                  "name": "b",
                  "type": "tuple"
                },
                {
                  "components": [
                    {
                      "components": [
                        {
                          "components": [
                            {
                              "internalType": "bytes",
                              "name": "val",
                              "type": "bytes"
                            },
                            {
                              "internalType": "bool",
                              "name": "neg",
                              "type": "bool"
                            },
                            {
                              "internalType": "uint256",
                              "name": "bitlen",
                              "type": "uint256"
                            }
                          ],
                          "internalType": "struct BigNumber",
                          "name": "value",
                          "type": "tuple"
                        }
                      ],
                      "internalType": "struct Zp",
                      "name": "a",
                      "type": "tuple"
                    },
                    {
                      "components": [
                        {
                          "components": [
                            {
                              "internalType": "bytes",
                              "name": "val",
                              "type": "bytes"
                            },
                            {
                              "internalType": "bool",
                              "name": "neg",
                              "type": "bool"
                            },
                            {
                              "internalType": "uint256",
                              "name": "bitlen",
                              "type": "uint256"
                            }
                          ],
                          "internalType": "struct BigNumber",
                          "name": "value",
                          "type": "tuple"
                        }
                      ],
                      "internalType": "struct Zp",
                      "name": "b",
                      "type": "tuple"
                    }
                  ],
                  "internalType": "struct Zp_2",
                  "name": "c",
                  "type": "tuple"
                }
              ],
              "internalType": "struct Zp_6",
              "name": "b",
              "type": "tuple"
            }
          ],
          "internalType": "struct Zp_12",
          "name": "",
          "type": "tuple"
        }
      ],
      "stateMutability": "view",
      "type": "function"
    },
    {
      "inputs": [
        {
          "components": [
            {
              "internalType": "enum PointType",
              "name": "pointType",
              "type": "uint8"
            },
            {
              "components": [
                {
                  "components": [
                    {
                      "internalType": "bytes",
                      "name": "val",
                      "type": "bytes"
                    },
                    {
                      "internalType": "bool",
                      "name": "neg",
                      "type": "bool"
                    },
                    {
                      "internalType": "uint256",
                      "name": "bitlen",
                      "type": "uint256"
                    }
                  ],
                  "internalType": "struct BigNumber",
                  "name": "value",
                  "type": "tuple"
                }
              ],
              "internalType": "struct Zp",
              "name": "x",
              "type": "tuple"
            },
            {
              "components": [
                {
                  "components": [
                    {
                      "internalType": "bytes",
                      "name": "val",
                      "type": "bytes"
                    },
                    {
                      "internalType": "bool",
                      "name": "neg",
                      "type": "bool"
                    },
                    {
                      "internalType": "uint256",
                      "name": "bitlen",
                      "type": "uint256"
                    }
                  ],
                  "internalType": "struct BigNumber",
                  "name": "value",
                  "type": "tuple"
                }
              ],
              "internalType": "struct Zp",
              "name": "y",
              "type": "tuple"
            }
          ],
          "internalType": "struct Point_Zp",
          "name": "p",
          "type": "tuple"
        },
        {
          "components": [
            {
              "internalType": "enum PointType",
              "name": "pointType",
              "type": "uint8"
            },
            {
              "components": [
                {
                  "components": [
                    {
                      "components": [
                        {
                          "internalType": "bytes",
                          "name": "val",
                          "type": "bytes"
                        },
                        {
                          "internalType": "bool",
                          "name": "neg",
                          "type": "bool"
                        },
                        {
                          "internalType": "uint256",
                          "name": "bitlen",
                          "type": "uint256"
                        }
                      ],
                      "internalType": "struct BigNumber",
                      "name": "value",
                      "type": "tuple"
                    }
                  ],
                  "internalType": "struct Zp",
                  "name": "a",
                  "type": "tuple"
                },
                {
                  "components": [
                    {
                      "components": [
                        {
                          "internalType": "bytes",
                          "name": "val",
                          "type": "bytes"
                        },
                        {
                          "internalType": "bool",
                          "name": "neg",
                          "type": "bool"
                        },
                        {
                          "internalType": "uint256",
                          "name": "bitlen",
                          "type": "uint256"
                        }
                      ],
                      "internalType": "struct BigNumber",
                      "name": "value",
                      "type": "tuple"
                    }
                  ],
                  "internalType": "struct Zp",
                  "name": "b",
                  "type": "tuple"
                }
              ],
              "internalType": "struct Zp_2",
              "name": "x",
              "type": "tuple"
            },
            {
              "components": [
                {
                  "components": [
                    {
                      "components": [
                        {
                          "internalType": "bytes",
                          "name": "val",
                          "type": "bytes"
                        },
                        {
                          "internalType": "bool",
                          "name": "neg",
                          "type": "bool"
                        },
                        {
                          "internalType": "uint256",
                          "name": "bitlen",
                          "type": "uint256"
                        }
                      ],
                      "internalType": "struct BigNumber",
                      "name": "value",
                      "type": "tuple"
                    }
                  ],
                  "internalType": "struct Zp",
                  "name": "a",
                  "type": "tuple"
                },
                {
                  "components": [
                    {
                      "components": [
                        {
                          "internalType": "bytes",
                          "name": "val",
                          "type": "bytes"
                        },
                        {
                          "internalType": "bool",
                          "name": "neg",
                          "type": "bool"
                        },
                        {
                          "internalType": "uint256",
                          "name": "bitlen",
                          "type": "uint256"
                        }
                      ],
                      "internalType": "struct BigNumber",
                      "name": "value",
                      "type": "tuple"
                    }
                  ],
                  "internalType": "struct Zp",
                  "name": "b",
                  "type": "tuple"
                }
              ],
              "internalType": "struct Zp_2",
              "name": "y",
              "type": "tuple"
            }
          ],
          "internalType": "struct Point_Zp_2",
          "name": "q",
          "type": "tuple"
        },
        {
          "components": [
            {
              "internalType": "enum PointType",
              "name": "pointType",
              "type": "uint8"
            },
            {
              "components": [
                {
                  "components": [
                    {
                      "components": [
                        {
                          "internalType": "bytes",
                          "name": "val",
                          "type": "bytes"
                        },
                        {
                          "internalType": "bool",
                          "name": "neg",
                          "type": "bool"
                        },
                        {
                          "internalType": "uint256",
                          "name": "bitlen",
                          "type": "uint256"
                        }
                      ],
                      "internalType": "struct BigNumber",
                      "name": "value",
                      "type": "tuple"
                    }
                  ],
                  "internalType": "struct Zp",
                  "name": "a",
                  "type": "tuple"
                },
                {
                  "components": [
                    {
                      "components": [
                        {
                          "internalType": "bytes",
                          "name": "val",
                          "type": "bytes"
                        },
                        {
                          "internalType": "bool",
                          "name": "neg",
                          "type": "bool"
                        },
                        {
                          "internalType": "uint256",
                          "name": "bitlen",
                          "type": "uint256"
                        }
                      ],
                      "internalType": "struct BigNumber",
                      "name": "value",
                      "type": "tuple"
                    }
                  ],
                  "internalType": "struct Zp",
                  "name": "b",
                  "type": "tuple"
                }
              ],
              "internalType": "struct Zp_2",
              "name": "x",
              "type": "tuple"
            },
            {
              "components": [
                {
                  "components": [
                    {
                      "components": [
                        {
                          "internalType": "bytes",
                          "name": "val",
                          "type": "bytes"
                        },
                        {
                          "internalType": "bool",
                          "name": "neg",
                          "type": "bool"
                        },
                        {
                          "internalType": "uint256",
                          "name": "bitlen",
                          "type": "uint256"
                        }
                      ],
                      "internalType": "struct BigNumber",
                      "name": "value",
                      "type": "tuple"
                    }
                  ],
                  "internalType": "struct Zp",
                  "name": "a",
                  "type": "tuple"
                },
                {
                  "components": [
                    {
                      "components": [
                        {
                          "internalType": "bytes",
                          "name": "val",
                          "type": "bytes"
                        },
                        {
                          "internalType": "bool",
                          "name": "neg",
                          "type": "bool"
                        },
                        {
                          "internalType": "uint256",
                          "name": "bitlen",
                          "type": "uint256"
                        }
                      ],
                      "internalType": "struct BigNumber",
                      "name": "value",
                      "type": "tuple"
                    }
                  ],
                  "internalType": "struct Zp",
                  "name": "b",
                  "type": "tuple"
                }
              ],
              "internalType": "struct Zp_2",
              "name": "y",
              "type": "tuple"
            }
          ],
          "internalType": "struct Point_Zp_2",
          "name": "r",
          "type": "tuple"
        },
        {
          "internalType": "bool[]",
          "name": "bits",
          "type": "bool[]"
        }
      ],
      "name": "miller_iterate",
      "outputs": [
        {
          "components": [
            {
              "components": [
                {
                  "components": [
                    {
                      "components": [
                        {
                          "components": [
                            {
                              "internalType": "bytes",
                              "name": "val",
                              "type": "bytes"
                            },
                            {
                              "internalType": "bool",
                              "name": "neg",
                              "type": "bool"
                            },
                            {
                              "internalType": "uint256",
                              "name": "bitlen",
                              "type": "uint256"
                            }
                          ],
                          "internalType": "struct BigNumber",
                          "name": "value",
                          "type": "tuple"
                        }
                      ],
                      "internalType": "struct Zp",
                      "name": "a",
                      "type": "tuple"
                    },
                    {
                      "components": [
                        {
                          "components": [
                            {
                              "internalType": "bytes",
                              "name": "val",
                              "type": "bytes"
                            },
                            {
                              "internalType": "bool",
                              "name": "neg",
                              "type": "bool"
                            },
                            {
                              "internalType": "uint256",
                              "name": "bitlen",
                              "type": "uint256"
                            }
                          ],
                          "internalType": "struct BigNumber",
                          "name": "value",
                          "type": "tuple"
                        }
                      ],
                      "internalType": "struct Zp",
                      "name": "b",
                      "type": "tuple"
                    }
                  ],
                  "internalType": "struct Zp_2",
                  "name": "a",
                  "type": "tuple"
                },
                {
                  "components": [
                    {
                      "components": [
                        {
                          "components": [
                            {
                              "internalType": "bytes",
                              "name": "val",
                              "type": "bytes"
                            },
                            {
                              "internalType": "bool",
                              "name": "neg",
                              "type": "bool"
                            },
                            {
                              "internalType": "uint256",
                              "name": "bitlen",
                              "type": "uint256"
                            }
                          ],
                          "internalType": "struct BigNumber",
                          "name": "value",
                          "type": "tuple"
                        }
                      ],
                      "internalType": "struct Zp",
                      "name": "a",
                      "type": "tuple"
                    },
                    {
                      "components": [
                        {
                          "components": [
                            {
                              "internalType": "bytes",
                              "name": "val",
                              "type": "bytes"
                            },
                            {
                              "internalType": "bool",
                              "name": "neg",
                              "type": "bool"
                            },
                            {
                              "internalType": "uint256",
                              "name": "bitlen",
                              "type": "uint256"
                            }
                          ],
                          "internalType": "struct BigNumber",
                          "name": "value",
                          "type": "tuple"
                        }
                      ],
                      "internalType": "struct Zp",
                      "name": "b",
                      "type": "tuple"
                    }
                  ],
                  "internalType": "struct Zp_2",
                  "name": "b",
                  "type": "tuple"
                },
                {
                  "components": [
                    {
                      "components": [
                        {
                          "components": [
                            {
                              "internalType": "bytes",
                              "name": "val",
                              "type": "bytes"
                            },
                            {
                              "internalType": "bool",
                              "name": "neg",
                              "type": "bool"
                            },
                            {
                              "internalType": "uint256",
                              "name": "bitlen",
                              "type": "uint256"
                            }
                          ],
                          "internalType": "struct BigNumber",
                          "name": "value",
                          "type": "tuple"
                        }
                      ],
                      "internalType": "struct Zp",
                      "name": "a",
                      "type": "tuple"
                    },
                    {
                      "components": [
                        {
                          "components": [
                            {
                              "internalType": "bytes",
                              "name": "val",
                              "type": "bytes"
                            },
                            {
                              "internalType": "bool",
                              "name": "neg",
                              "type": "bool"
                            },
                            {
                              "internalType": "uint256",
                              "name": "bitlen",
                              "type": "uint256"
                            }
                          ],
                          "internalType": "struct BigNumber",
                          "name": "value",
                          "type": "tuple"
                        }
                      ],
                      "internalType": "struct Zp",
                      "name": "b",
                      "type": "tuple"
                    }
                  ],
                  "internalType": "struct Zp_2",
                  "name": "c",
                  "type": "tuple"
                }
              ],
              "internalType": "struct Zp_6",
              "name": "a",
              "type": "tuple"
            },
            {
              "components": [
                {
                  "components": [
                    {
                      "components": [
                        {
                          "components": [
                            {
                              "internalType": "bytes",
                              "name": "val",
                              "type": "bytes"
                            },
                            {
                              "internalType": "bool",
                              "name": "neg",
                              "type": "bool"
                            },
                            {
                              "internalType": "uint256",
                              "name": "bitlen",
                              "type": "uint256"
                            }
                          ],
                          "internalType": "struct BigNumber",
                          "name": "value",
                          "type": "tuple"
                        }
                      ],
                      "internalType": "struct Zp",
                      "name": "a",
                      "type": "tuple"
                    },
                    {
                      "components": [
                        {
                          "components": [
                            {
                              "internalType": "bytes",
                              "name": "val",
                              "type": "bytes"
                            },
                            {
                              "internalType": "bool",
                              "name": "neg",
                              "type": "bool"
                            },
                            {
                              "internalType": "uint256",
                              "name": "bitlen",
                              "type": "uint256"
                            }
                          ],
                          "internalType": "struct BigNumber",
                          "name": "value",
                          "type": "tuple"
                        }
                      ],
                      "internalType": "struct Zp",
                      "name": "b",
                      "type": "tuple"
                    }
                  ],
                  "internalType": "struct Zp_2",
                  "name": "a",
                  "type": "tuple"
                },
                {
                  "components": [
                    {
                      "components": [
                        {
                          "components": [
                            {
                              "internalType": "bytes",
                              "name": "val",
                              "type": "bytes"
                            },
                            {
                              "internalType": "bool",
                              "name": "neg",
                              "type": "bool"
                            },
                            {
                              "internalType": "uint256",
                              "name": "bitlen",
                              "type": "uint256"
                            }
                          ],
                          "internalType": "struct BigNumber",
                          "name": "value",
                          "type": "tuple"
                        }
                      ],
                      "internalType": "struct Zp",
                      "name": "a",
                      "type": "tuple"
                    },
                    {
                      "components": [
                        {
                          "components": [
                            {
                              "internalType": "bytes",
                              "name": "val",
                              "type": "bytes"
                            },
                            {
                              "internalType": "bool",
                              "name": "neg",
                              "type": "bool"
                            },
                            {
                              "internalType": "uint256",
                              "name": "bitlen",
                              "type": "uint256"
                            }
                          ],
                          "internalType": "struct BigNumber",
                          "name": "value",
                          "type": "tuple"
                        }
                      ],
                      "internalType": "struct Zp",
                      "name": "b",
                      "type": "tuple"
                    }
                  ],
                  "internalType": "struct Zp_2",
                  "name": "b",
                  "type": "tuple"
                },
                {
                  "components": [
                    {
                      "components": [
                        {
                          "components": [
                            {
                              "internalType": "bytes",
                              "name": "val",
                              "type": "bytes"
                            },
                            {
                              "internalType": "bool",
                              "name": "neg",
                              "type": "bool"
                            },
                            {
                              "internalType": "uint256",
                              "name": "bitlen",
                              "type": "uint256"
                            }
                          ],
                          "internalType": "struct BigNumber",
                          "name": "value",
                          "type": "tuple"
                        }
                      ],
                      "internalType": "struct Zp",
                      "name": "a",
                      "type": "tuple"
                    },
                    {
                      "components": [
                        {
                          "components": [
                            {
                              "internalType": "bytes",
                              "name": "val",
                              "type": "bytes"
                            },
                            {
                              "internalType": "bool",
                              "name": "neg",
                              "type": "bool"
                            },
                            {
                              "internalType": "uint256",
                              "name": "bitlen",
                              "type": "uint256"
                            }
                          ],
                          "internalType": "struct BigNumber",
                          "name": "value",
                          "type": "tuple"
                        }
                      ],
                      "internalType": "struct Zp",
                      "name": "b",
                      "type": "tuple"
                    }
                  ],
                  "internalType": "struct Zp_2",
                  "name": "c",
                  "type": "tuple"
                }
              ],
              "internalType": "struct Zp_6",
              "name": "b",
              "type": "tuple"
            }
          ],
          "internalType": "struct Zp_12",
          "name": "",
          "type": "tuple"
        }
      ],
      "stateMutability": "view",
      "type": "function"
    },
    {
      "inputs": [
        {
          "components": [
            {
              "internalType": "enum PointType",
              "name": "pointType",
              "type": "uint8"
            },
            {
              "components": [
                {
                  "components": [
                    {
                      "internalType": "bytes",
                      "name": "val",
                      "type": "bytes"
                    },
                    {
                      "internalType": "bool",
                      "name": "neg",
                      "type": "bool"
                    },
                    {
                      "internalType": "uint256",
                      "name": "bitlen",
                      "type": "uint256"
                    }
                  ],
                  "internalType": "struct BigNumber",
                  "name": "value",
                  "type": "tuple"
                }
              ],
              "internalType": "struct Zp",
              "name": "x",
              "type": "tuple"
            },
            {
              "components": [
                {
                  "components": [
                    {
                      "internalType": "bytes",
                      "name": "val",
                      "type": "bytes"
                    },
                    {
                      "internalType": "bool",
                      "name": "neg",
                      "type": "bool"
                    },
                    {
                      "internalType": "uint256",
                      "name": "bitlen",
                      "type": "uint256"
                    }
                  ],
                  "internalType": "struct BigNumber",
                  "name": "value",
                  "type": "tuple"
                }
              ],
              "internalType": "struct Zp",
              "name": "y",
              "type": "tuple"
            }
          ],
          "internalType": "struct Point_Zp",
          "name": "p",
          "type": "tuple"
        },
        {
          "components": [
            {
              "internalType": "enum PointType",
              "name": "pointType",
              "type": "uint8"
            },
            {
              "components": [
                {
                  "components": [
                    {
                      "components": [
                        {
                          "internalType": "bytes",
                          "name": "val",
                          "type": "bytes"
                        },
                        {
                          "internalType": "bool",
                          "name": "neg",
                          "type": "bool"
                        },
                        {
                          "internalType": "uint256",
                          "name": "bitlen",
                          "type": "uint256"
                        }
                      ],
                      "internalType": "struct BigNumber",
                      "name": "value",
                      "type": "tuple"
                    }
                  ],
                  "internalType": "struct Zp",
                  "name": "a",
                  "type": "tuple"
                },
                {
                  "components": [
                    {
                      "components": [
                        {
                          "internalType": "bytes",
                          "name": "val",
                          "type": "bytes"
                        },
                        {
                          "internalType": "bool",
                          "name": "neg",
                          "type": "bool"
                        },
                        {
                          "internalType": "uint256",
                          "name": "bitlen",
                          "type": "uint256"
                        }
                      ],
                      "internalType": "struct BigNumber",
                      "name": "value",
                      "type": "tuple"
                    }
                  ],
                  "internalType": "struct Zp",
                  "name": "b",
                  "type": "tuple"
                }
              ],
              "internalType": "struct Zp_2",
              "name": "x",
              "type": "tuple"
            },
            {
              "components": [
                {
                  "components": [
                    {
                      "components": [
                        {
                          "internalType": "bytes",
                          "name": "val",
                          "type": "bytes"
                        },
                        {
                          "internalType": "bool",
                          "name": "neg",
                          "type": "bool"
                        },
                        {
                          "internalType": "uint256",
                          "name": "bitlen",
                          "type": "uint256"
                        }
                      ],
                      "internalType": "struct BigNumber",
                      "name": "value",
                      "type": "tuple"
                    }
                  ],
                  "internalType": "struct Zp",
                  "name": "a",
                  "type": "tuple"
                },
                {
                  "components": [
                    {
                      "components": [
                        {
                          "internalType": "bytes",
                          "name": "val",
                          "type": "bytes"
                        },
                        {
                          "internalType": "bool",
                          "name": "neg",
                          "type": "bool"
                        },
                        {
                          "internalType": "uint256",
                          "name": "bitlen",
                          "type": "uint256"
                        }
                      ],
                      "internalType": "struct BigNumber",
                      "name": "value",
                      "type": "tuple"
                    }
                  ],
                  "internalType": "struct Zp",
                  "name": "b",
                  "type": "tuple"
                }
              ],
              "internalType": "struct Zp_2",
              "name": "y",
              "type": "tuple"
            }
          ],
          "internalType": "struct Point_Zp_2",
          "name": "q",
          "type": "tuple"
        }
      ],
      "name": "pairing",
      "outputs": [
        {
          "components": [
            {
              "components": [
                {
                  "components": [
                    {
                      "components": [
                        {
                          "components": [
                            {
                              "internalType": "bytes",
                              "name": "val",
                              "type": "bytes"
                            },
                            {
                              "internalType": "bool",
                              "name": "neg",
                              "type": "bool"
                            },
                            {
                              "internalType": "uint256",
                              "name": "bitlen",
                              "type": "uint256"
                            }
                          ],
                          "internalType": "struct BigNumber",
                          "name": "value",
                          "type": "tuple"
                        }
                      ],
                      "internalType": "struct Zp",
                      "name": "a",
                      "type": "tuple"
                    },
                    {
                      "components": [
                        {
                          "components": [
                            {
                              "internalType": "bytes",
                              "name": "val",
                              "type": "bytes"
                            },
                            {
                              "internalType": "bool",
                              "name": "neg",
                              "type": "bool"
                            },
                            {
                              "internalType": "uint256",
                              "name": "bitlen",
                              "type": "uint256"
                            }
                          ],
                          "internalType": "struct BigNumber",
                          "name": "value",
                          "type": "tuple"
                        }
                      ],
                      "internalType": "struct Zp",
                      "name": "b",
                      "type": "tuple"
                    }
                  ],
                  "internalType": "struct Zp_2",
                  "name": "a",
                  "type": "tuple"
                },
                {
                  "components": [
                    {
                      "components": [
                        {
                          "components": [
                            {
                              "internalType": "bytes",
                              "name": "val",
                              "type": "bytes"
                            },
                            {
                              "internalType": "bool",
                              "name": "neg",
                              "type": "bool"
                            },
                            {
                              "internalType": "uint256",
                              "name": "bitlen",
                              "type": "uint256"
                            }
                          ],
                          "internalType": "struct BigNumber",
                          "name": "value",
                          "type": "tuple"
                        }
                      ],
                      "internalType": "struct Zp",
                      "name": "a",
                      "type": "tuple"
                    },
                    {
                      "components": [
                        {
                          "components": [
                            {
                              "internalType": "bytes",
                              "name": "val",
                              "type": "bytes"
                            },
                            {
                              "internalType": "bool",
                              "name": "neg",
                              "type": "bool"
                            },
                            {
                              "internalType": "uint256",
                              "name": "bitlen",
                              "type": "uint256"
                            }
                          ],
                          "internalType": "struct BigNumber",
                          "name": "value",
                          "type": "tuple"
                        }
                      ],
                      "internalType": "struct Zp",
                      "name": "b",
                      "type": "tuple"
                    }
                  ],
                  "internalType": "struct Zp_2",
                  "name": "b",
                  "type": "tuple"
                },
                {
                  "components": [
                    {
                      "components": [
                        {
                          "components": [
                            {
                              "internalType": "bytes",
                              "name": "val",
                              "type": "bytes"
                            },
                            {
                              "internalType": "bool",
                              "name": "neg",
                              "type": "bool"
                            },
                            {
                              "internalType": "uint256",
                              "name": "bitlen",
                              "type": "uint256"
                            }
                          ],
                          "internalType": "struct BigNumber",
                          "name": "value",
                          "type": "tuple"
                        }
                      ],
                      "internalType": "struct Zp",
                      "name": "a",
                      "type": "tuple"
                    },
                    {
                      "components": [
                        {
                          "components": [
                            {
                              "internalType": "bytes",
                              "name": "val",
                              "type": "bytes"
                            },
                            {
                              "internalType": "bool",
                              "name": "neg",
                              "type": "bool"
                            },
                            {
                              "internalType": "uint256",
                              "name": "bitlen",
                              "type": "uint256"
                            }
                          ],
                          "internalType": "struct BigNumber",
                          "name": "value",
                          "type": "tuple"
                        }
                      ],
                      "internalType": "struct Zp",
                      "name": "b",
                      "type": "tuple"
                    }
                  ],
                  "internalType": "struct Zp_2",
                  "name": "c",
                  "type": "tuple"
                }
              ],
              "internalType": "struct Zp_6",
              "name": "a",
              "type": "tuple"
            },
            {
              "components": [
                {
                  "components": [
                    {
                      "components": [
                        {
                          "components": [
                            {
                              "internalType": "bytes",
                              "name": "val",
                              "type": "bytes"
                            },
                            {
                              "internalType": "bool",
                              "name": "neg",
                              "type": "bool"
                            },
                            {
                              "internalType": "uint256",
                              "name": "bitlen",
                              "type": "uint256"
                            }
                          ],
                          "internalType": "struct BigNumber",
                          "name": "value",
                          "type": "tuple"
                        }
                      ],
                      "internalType": "struct Zp",
                      "name": "a",
                      "type": "tuple"
                    },
                    {
                      "components": [
                        {
                          "components": [
                            {
                              "internalType": "bytes",
                              "name": "val",
                              "type": "bytes"
                            },
                            {
                              "internalType": "bool",
                              "name": "neg",
                              "type": "bool"
                            },
                            {
                              "internalType": "uint256",
                              "name": "bitlen",
                              "type": "uint256"
                            }
                          ],
                          "internalType": "struct BigNumber",
                          "name": "value",
                          "type": "tuple"
                        }
                      ],
                      "internalType": "struct Zp",
                      "name": "b",
                      "type": "tuple"
                    }
                  ],
                  "internalType": "struct Zp_2",
                  "name": "a",
                  "type": "tuple"
                },
                {
                  "components": [
                    {
                      "components": [
                        {
                          "components": [
                            {
                              "internalType": "bytes",
                              "name": "val",
                              "type": "bytes"
                            },
                            {
                              "internalType": "bool",
                              "name": "neg",
                              "type": "bool"
                            },
                            {
                              "internalType": "uint256",
                              "name": "bitlen",
                              "type": "uint256"
                            }
                          ],
                          "internalType": "struct BigNumber",
                          "name": "value",
                          "type": "tuple"
                        }
                      ],
                      "internalType": "struct Zp",
                      "name": "a",
                      "type": "tuple"
                    },
                    {
                      "components": [
                        {
                          "components": [
                            {
                              "internalType": "bytes",
                              "name": "val",
                              "type": "bytes"
                            },
                            {
                              "internalType": "bool",
                              "name": "neg",
                              "type": "bool"
                            },
                            {
                              "internalType": "uint256",
                              "name": "bitlen",
                              "type": "uint256"
                            }
                          ],
                          "internalType": "struct BigNumber",
                          "name": "value",
                          "type": "tuple"
                        }
                      ],
                      "internalType": "struct Zp",
                      "name": "b",
                      "type": "tuple"
                    }
                  ],
                  "internalType": "struct Zp_2",
                  "name": "b",
                  "type": "tuple"
                },
                {
                  "components": [
                    {
                      "components": [
                        {
                          "components": [
                            {
                              "internalType": "bytes",
                              "name": "val",
                              "type": "bytes"
                            },
                            {
                              "internalType": "bool",
                              "name": "neg",
                              "type": "bool"
                            },
                            {
                              "internalType": "uint256",
                              "name": "bitlen",
                              "type": "uint256"
                            }
                          ],
                          "internalType": "struct BigNumber",
                          "name": "value",
                          "type": "tuple"
                        }
                      ],
                      "internalType": "struct Zp",
                      "name": "a",
                      "type": "tuple"
                    },
                    {
                      "components": [
                        {
                          "components": [
                            {
                              "internalType": "bytes",
                              "name": "val",
                              "type": "bytes"
                            },
                            {
                              "internalType": "bool",
                              "name": "neg",
                              "type": "bool"
                            },
                            {
                              "internalType": "uint256",
                              "name": "bitlen",
                              "type": "uint256"
                            }
                          ],
                          "internalType": "struct BigNumber",
                          "name": "value",
                          "type": "tuple"
                        }
                      ],
                      "internalType": "struct Zp",
                      "name": "b",
                      "type": "tuple"
                    }
                  ],
                  "internalType": "struct Zp_2",
                  "name": "c",
                  "type": "tuple"
                }
              ],
              "internalType": "struct Zp_6",
              "name": "b",
              "type": "tuple"
            }
          ],
          "internalType": "struct Zp_12",
          "name": "result",
          "type": "tuple"
        }
      ],
      "stateMutability": "view",
      "type": "function"
    },
    {
      "inputs": [
        {
          "components": [
            {
              "internalType": "enum PointType",
              "name": "pointType",
              "type": "uint8"
            },
            {
              "components": [
                {
                  "components": [
                    {
                      "components": [
                        {
                          "internalType": "bytes",
                          "name": "val",
                          "type": "bytes"
                        },
                        {
                          "internalType": "bool",
                          "name": "neg",
                          "type": "bool"
                        },
                        {
                          "internalType": "uint256",
                          "name": "bitlen",
                          "type": "uint256"
                        }
                      ],
                      "internalType": "struct BigNumber",
                      "name": "value",
                      "type": "tuple"
                    }
                  ],
                  "internalType": "struct Zp",
                  "name": "a",
                  "type": "tuple"
                },
                {
                  "components": [
                    {
                      "components": [
                        {
                          "internalType": "bytes",
                          "name": "val",
                          "type": "bytes"
                        },
                        {
                          "internalType": "bool",
                          "name": "neg",
                          "type": "bool"
                        },
                        {
                          "internalType": "uint256",
                          "name": "bitlen",
                          "type": "uint256"
                        }
                      ],
                      "internalType": "struct BigNumber",
                      "name": "value",
                      "type": "tuple"
                    }
                  ],
                  "internalType": "struct Zp",
                  "name": "b",
                  "type": "tuple"
                }
              ],
              "internalType": "struct Zp_2",
              "name": "x",
              "type": "tuple"
            },
            {
              "components": [
                {
                  "components": [
                    {
                      "components": [
                        {
                          "internalType": "bytes",
                          "name": "val",
                          "type": "bytes"
                        },
                        {
                          "internalType": "bool",
                          "name": "neg",
                          "type": "bool"
                        },
                        {
                          "internalType": "uint256",
                          "name": "bitlen",
                          "type": "uint256"
                        }
                      ],
                      "internalType": "struct BigNumber",
                      "name": "value",
                      "type": "tuple"
                    }
                  ],
                  "internalType": "struct Zp",
                  "name": "a",
                  "type": "tuple"
                },
                {
                  "components": [
                    {
                      "components": [
                        {
                          "internalType": "bytes",
                          "name": "val",
                          "type": "bytes"
                        },
                        {
                          "internalType": "bool",
                          "name": "neg",
                          "type": "bool"
                        },
                        {
                          "internalType": "uint256",
                          "name": "bitlen",
                          "type": "uint256"
                        }
                      ],
                      "internalType": "struct BigNumber",
                      "name": "value",
                      "type": "tuple"
                    }
                  ],
                  "internalType": "struct Zp",
                  "name": "b",
                  "type": "tuple"
                }
              ],
              "internalType": "struct Zp_2",
              "name": "y",
              "type": "tuple"
            }
          ],
          "internalType": "struct Point_Zp_2",
          "name": "point",
          "type": "tuple"
        }
      ],
      "name": "untwist",
      "outputs": [
        {
          "components": [
            {
              "internalType": "enum PointType",
              "name": "pointType",
              "type": "uint8"
            },
            {
              "components": [
                {
                  "components": [
                    {
                      "components": [
                        {
                          "components": [
                            {
                              "components": [
                                {
                                  "internalType": "bytes",
                                  "name": "val",
                                  "type": "bytes"
                                },
                                {
                                  "internalType": "bool",
                                  "name": "neg",
                                  "type": "bool"
                                },
                                {
                                  "internalType": "uint256",
                                  "name": "bitlen",
                                  "type": "uint256"
                                }
                              ],
                              "internalType": "struct BigNumber",
                              "name": "value",
                              "type": "tuple"
                            }
                          ],
                          "internalType": "struct Zp",
                          "name": "a",
                          "type": "tuple"
                        },
                        {
                          "components": [
                            {
                              "components": [
                                {
                                  "internalType": "bytes",
                                  "name": "val",
                                  "type": "bytes"
                                },
                                {
                                  "internalType": "bool",
                                  "name": "neg",
                                  "type": "bool"
                                },
                                {
                                  "internalType": "uint256",
                                  "name": "bitlen",
                                  "type": "uint256"
                                }
                              ],
                              "internalType": "struct BigNumber",
                              "name": "value",
                              "type": "tuple"
                            }
                          ],
                          "internalType": "struct Zp",
                          "name": "b",
                          "type": "tuple"
                        }
                      ],
                      "internalType": "struct Zp_2",
                      "name": "a",
                      "type": "tuple"
                    },
                    {
                      "components": [
                        {
                          "components": [
                            {
                              "components": [
                                {
                                  "internalType": "bytes",
                                  "name": "val",
                                  "type": "bytes"
                                },
                                {
                                  "internalType": "bool",
                                  "name": "neg",
                                  "type": "bool"
                                },
                                {
                                  "internalType": "uint256",
                                  "name": "bitlen",
                                  "type": "uint256"
                                }
                              ],
                              "internalType": "struct BigNumber",
                              "name": "value",
                              "type": "tuple"
                            }
                          ],
                          "internalType": "struct Zp",
                          "name": "a",
                          "type": "tuple"
                        },
                        {
                          "components": [
                            {
                              "components": [
                                {
                                  "internalType": "bytes",
                                  "name": "val",
                                  "type": "bytes"
                                },
                                {
                                  "internalType": "bool",
                                  "name": "neg",
                                  "type": "bool"
                                },
                                {
                                  "internalType": "uint256",
                                  "name": "bitlen",
                                  "type": "uint256"
                                }
                              ],
                              "internalType": "struct BigNumber",
                              "name": "value",
                              "type": "tuple"
                            }
                          ],
                          "internalType": "struct Zp",
                          "name": "b",
                          "type": "tuple"
                        }
                      ],
                      "internalType": "struct Zp_2",
                      "name": "b",
                      "type": "tuple"
                    },
                    {
                      "components": [
                        {
                          "components": [
                            {
                              "components": [
                                {
                                  "internalType": "bytes",
                                  "name": "val",
                                  "type": "bytes"
                                },
                                {
                                  "internalType": "bool",
                                  "name": "neg",
                                  "type": "bool"
                                },
                                {
                                  "internalType": "uint256",
                                  "name": "bitlen",
                                  "type": "uint256"
                                }
                              ],
                              "internalType": "struct BigNumber",
                              "name": "value",
                              "type": "tuple"
                            }
                          ],
                          "internalType": "struct Zp",
                          "name": "a",
                          "type": "tuple"
                        },
                        {
                          "components": [
                            {
                              "components": [
                                {
                                  "internalType": "bytes",
                                  "name": "val",
                                  "type": "bytes"
                                },
                                {
                                  "internalType": "bool",
                                  "name": "neg",
                                  "type": "bool"
                                },
                                {
                                  "internalType": "uint256",
                                  "name": "bitlen",
                                  "type": "uint256"
                                }
                              ],
                              "internalType": "struct BigNumber",
                              "name": "value",
                              "type": "tuple"
                            }
                          ],
                          "internalType": "struct Zp",
                          "name": "b",
                          "type": "tuple"
                        }
                      ],
                      "internalType": "struct Zp_2",
                      "name": "c",
                      "type": "tuple"
                    }
                  ],
                  "internalType": "struct Zp_6",
                  "name": "a",
                  "type": "tuple"
                },
                {
                  "components": [
                    {
                      "components": [
                        {
                          "components": [
                            {
                              "components": [
                                {
                                  "internalType": "bytes",
                                  "name": "val",
                                  "type": "bytes"
                                },
                                {
                                  "internalType": "bool",
                                  "name": "neg",
                                  "type": "bool"
                                },
                                {
                                  "internalType": "uint256",
                                  "name": "bitlen",
                                  "type": "uint256"
                                }
                              ],
                              "internalType": "struct BigNumber",
                              "name": "value",
                              "type": "tuple"
                            }
                          ],
                          "internalType": "struct Zp",
                          "name": "a",
                          "type": "tuple"
                        },
                        {
                          "components": [
                            {
                              "components": [
                                {
                                  "internalType": "bytes",
                                  "name": "val",
                                  "type": "bytes"
                                },
                                {
                                  "internalType": "bool",
                                  "name": "neg",
                                  "type": "bool"
                                },
                                {
                                  "internalType": "uint256",
                                  "name": "bitlen",
                                  "type": "uint256"
                                }
                              ],
                              "internalType": "struct BigNumber",
                              "name": "value",
                              "type": "tuple"
                            }
                          ],
                          "internalType": "struct Zp",
                          "name": "b",
                          "type": "tuple"
                        }
                      ],
                      "internalType": "struct Zp_2",
                      "name": "a",
                      "type": "tuple"
                    },
                    {
                      "components": [
                        {
                          "components": [
                            {
                              "components": [
                                {
                                  "internalType": "bytes",
                                  "name": "val",
                                  "type": "bytes"
                                },
                                {
                                  "internalType": "bool",
                                  "name": "neg",
                                  "type": "bool"
                                },
                                {
                                  "internalType": "uint256",
                                  "name": "bitlen",
                                  "type": "uint256"
                                }
                              ],
                              "internalType": "struct BigNumber",
                              "name": "value",
                              "type": "tuple"
                            }
                          ],
                          "internalType": "struct Zp",
                          "name": "a",
                          "type": "tuple"
                        },
                        {
                          "components": [
                            {
                              "components": [
                                {
                                  "internalType": "bytes",
                                  "name": "val",
                                  "type": "bytes"
                                },
                                {
                                  "internalType": "bool",
                                  "name": "neg",
                                  "type": "bool"
                                },
                                {
                                  "internalType": "uint256",
                                  "name": "bitlen",
                                  "type": "uint256"
                                }
                              ],
                              "internalType": "struct BigNumber",
                              "name": "value",
                              "type": "tuple"
                            }
                          ],
                          "internalType": "struct Zp",
                          "name": "b",
                          "type": "tuple"
                        }
                      ],
                      "internalType": "struct Zp_2",
                      "name": "b",
                      "type": "tuple"
                    },
                    {
                      "components": [
                        {
                          "components": [
                            {
                              "components": [
                                {
                                  "internalType": "bytes",
                                  "name": "val",
                                  "type": "bytes"
                                },
                                {
                                  "internalType": "bool",
                                  "name": "neg",
                                  "type": "bool"
                                },
                                {
                                  "internalType": "uint256",
                                  "name": "bitlen",
                                  "type": "uint256"
                                }
                              ],
                              "internalType": "struct BigNumber",
                              "name": "value",
                              "type": "tuple"
                            }
                          ],
                          "internalType": "struct Zp",
                          "name": "a",
                          "type": "tuple"
                        },
                        {
                          "components": [
                            {
                              "components": [
                                {
                                  "internalType": "bytes",
                                  "name": "val",
                                  "type": "bytes"
                                },
                                {
                                  "internalType": "bool",
                                  "name": "neg",
                                  "type": "bool"
                                },
                                {
                                  "internalType": "uint256",
                                  "name": "bitlen",
                                  "type": "uint256"
                                }
                              ],
                              "internalType": "struct BigNumber",
                              "name": "value",
                              "type": "tuple"
                            }
                          ],
                          "internalType": "struct Zp",
                          "name": "b",
                          "type": "tuple"
                        }
                      ],
                      "internalType": "struct Zp_2",
                      "name": "c",
                      "type": "tuple"
                    }
                  ],
                  "internalType": "struct Zp_6",
                  "name": "b",
                  "type": "tuple"
                }
              ],
              "internalType": "struct Zp_12",
              "name": "x",
              "type": "tuple"
            },
            {
              "components": [
                {
                  "components": [
                    {
                      "components": [
                        {
                          "components": [
                            {
                              "components": [
                                {
                                  "internalType": "bytes",
                                  "name": "val",
                                  "type": "bytes"
                                },
                                {
                                  "internalType": "bool",
                                  "name": "neg",
                                  "type": "bool"
                                },
                                {
                                  "internalType": "uint256",
                                  "name": "bitlen",
                                  "type": "uint256"
                                }
                              ],
                              "internalType": "struct BigNumber",
                              "name": "value",
                              "type": "tuple"
                            }
                          ],
                          "internalType": "struct Zp",
                          "name": "a",
                          "type": "tuple"
                        },
                        {
                          "components": [
                            {
                              "components": [
                                {
                                  "internalType": "bytes",
                                  "name": "val",
                                  "type": "bytes"
                                },
                                {
                                  "internalType": "bool",
                                  "name": "neg",
                                  "type": "bool"
                                },
                                {
                                  "internalType": "uint256",
                                  "name": "bitlen",
                                  "type": "uint256"
                                }
                              ],
                              "internalType": "struct BigNumber",
                              "name": "value",
                              "type": "tuple"
                            }
                          ],
                          "internalType": "struct Zp",
                          "name": "b",
                          "type": "tuple"
                        }
                      ],
                      "internalType": "struct Zp_2",
                      "name": "a",
                      "type": "tuple"
                    },
                    {
                      "components": [
                        {
                          "components": [
                            {
                              "components": [
                                {
                                  "internalType": "bytes",
                                  "name": "val",
                                  "type": "bytes"
                                },
                                {
                                  "internalType": "bool",
                                  "name": "neg",
                                  "type": "bool"
                                },
                                {
                                  "internalType": "uint256",
                                  "name": "bitlen",
                                  "type": "uint256"
                                }
                              ],
                              "internalType": "struct BigNumber",
                              "name": "value",
                              "type": "tuple"
                            }
                          ],
                          "internalType": "struct Zp",
                          "name": "a",
                          "type": "tuple"
                        },
                        {
                          "components": [
                            {
                              "components": [
                                {
                                  "internalType": "bytes",
                                  "name": "val",
                                  "type": "bytes"
                                },
                                {
                                  "internalType": "bool",
                                  "name": "neg",
                                  "type": "bool"
                                },
                                {
                                  "internalType": "uint256",
                                  "name": "bitlen",
                                  "type": "uint256"
                                }
                              ],
                              "internalType": "struct BigNumber",
                              "name": "value",
                              "type": "tuple"
                            }
                          ],
                          "internalType": "struct Zp",
                          "name": "b",
                          "type": "tuple"
                        }
                      ],
                      "internalType": "struct Zp_2",
                      "name": "b",
                      "type": "tuple"
                    },
                    {
                      "components": [
                        {
                          "components": [
                            {
                              "components": [
                                {
                                  "internalType": "bytes",
                                  "name": "val",
                                  "type": "bytes"
                                },
                                {
                                  "internalType": "bool",
                                  "name": "neg",
                                  "type": "bool"
                                },
                                {
                                  "internalType": "uint256",
                                  "name": "bitlen",
                                  "type": "uint256"
                                }
                              ],
                              "internalType": "struct BigNumber",
                              "name": "value",
                              "type": "tuple"
                            }
                          ],
                          "internalType": "struct Zp",
                          "name": "a",
                          "type": "tuple"
                        },
                        {
                          "components": [
                            {
                              "components": [
                                {
                                  "internalType": "bytes",
                                  "name": "val",
                                  "type": "bytes"
                                },
                                {
                                  "internalType": "bool",
                                  "name": "neg",
                                  "type": "bool"
                                },
                                {
                                  "internalType": "uint256",
                                  "name": "bitlen",
                                  "type": "uint256"
                                }
                              ],
                              "internalType": "struct BigNumber",
                              "name": "value",
                              "type": "tuple"
                            }
                          ],
                          "internalType": "struct Zp",
                          "name": "b",
                          "type": "tuple"
                        }
                      ],
                      "internalType": "struct Zp_2",
                      "name": "c",
                      "type": "tuple"
                    }
                  ],
                  "internalType": "struct Zp_6",
                  "name": "a",
                  "type": "tuple"
                },
                {
                  "components": [
                    {
                      "components": [
                        {
                          "components": [
                            {
                              "components": [
                                {
                                  "internalType": "bytes",
                                  "name": "val",
                                  "type": "bytes"
                                },
                                {
                                  "internalType": "bool",
                                  "name": "neg",
                                  "type": "bool"
                                },
                                {
                                  "internalType": "uint256",
                                  "name": "bitlen",
                                  "type": "uint256"
                                }
                              ],
                              "internalType": "struct BigNumber",
                              "name": "value",
                              "type": "tuple"
                            }
                          ],
                          "internalType": "struct Zp",
                          "name": "a",
                          "type": "tuple"
                        },
                        {
                          "components": [
                            {
                              "components": [
                                {
                                  "internalType": "bytes",
                                  "name": "val",
                                  "type": "bytes"
                                },
                                {
                                  "internalType": "bool",
                                  "name": "neg",
                                  "type": "bool"
                                },
                                {
                                  "internalType": "uint256",
                                  "name": "bitlen",
                                  "type": "uint256"
                                }
                              ],
                              "internalType": "struct BigNumber",
                              "name": "value",
                              "type": "tuple"
                            }
                          ],
                          "internalType": "struct Zp",
                          "name": "b",
                          "type": "tuple"
                        }
                      ],
                      "internalType": "struct Zp_2",
                      "name": "a",
                      "type": "tuple"
                    },
                    {
                      "components": [
                        {
                          "components": [
                            {
                              "components": [
                                {
                                  "internalType": "bytes",
                                  "name": "val",
                                  "type": "bytes"
                                },
                                {
                                  "internalType": "bool",
                                  "name": "neg",
                                  "type": "bool"
                                },
                                {
                                  "internalType": "uint256",
                                  "name": "bitlen",
                                  "type": "uint256"
                                }
                              ],
                              "internalType": "struct BigNumber",
                              "name": "value",
                              "type": "tuple"
                            }
                          ],
                          "internalType": "struct Zp",
                          "name": "a",
                          "type": "tuple"
                        },
                        {
                          "components": [
                            {
                              "components": [
                                {
                                  "internalType": "bytes",
                                  "name": "val",
                                  "type": "bytes"
                                },
                                {
                                  "internalType": "bool",
                                  "name": "neg",
                                  "type": "bool"
                                },
                                {
                                  "internalType": "uint256",
                                  "name": "bitlen",
                                  "type": "uint256"
                                }
                              ],
                              "internalType": "struct BigNumber",
                              "name": "value",
                              "type": "tuple"
                            }
                          ],
                          "internalType": "struct Zp",
                          "name": "b",
                          "type": "tuple"
                        }
                      ],
                      "internalType": "struct Zp_2",
                      "name": "b",
                      "type": "tuple"
                    },
                    {
                      "components": [
                        {
                          "components": [
                            {
                              "components": [
                                {
                                  "internalType": "bytes",
                                  "name": "val",
                                  "type": "bytes"
                                },
                                {
                                  "internalType": "bool",
                                  "name": "neg",
                                  "type": "bool"
                                },
                                {
                                  "internalType": "uint256",
                                  "name": "bitlen",
                                  "type": "uint256"
                                }
                              ],
                              "internalType": "struct BigNumber",
                              "name": "value",
                              "type": "tuple"
                            }
                          ],
                          "internalType": "struct Zp",
                          "name": "a",
                          "type": "tuple"
                        },
                        {
                          "components": [
                            {
                              "components": [
                                {
                                  "internalType": "bytes",
                                  "name": "val",
                                  "type": "bytes"
                                },
                                {
                                  "internalType": "bool",
                                  "name": "neg",
                                  "type": "bool"
                                },
                                {
                                  "internalType": "uint256",
                                  "name": "bitlen",
                                  "type": "uint256"
                                }
                              ],
                              "internalType": "struct BigNumber",
                              "name": "value",
                              "type": "tuple"
                            }
                          ],
                          "internalType": "struct Zp",
                          "name": "b",
                          "type": "tuple"
                        }
                      ],
                      "internalType": "struct Zp_2",
                      "name": "c",
                      "type": "tuple"
                    }
                  ],
                  "internalType": "struct Zp_6",
                  "name": "b",
                  "type": "tuple"
                }
              ],
              "internalType": "struct Zp_12",
              "name": "y",
              "type": "tuple"
            }
          ],
          "internalType": "struct Point_Zp_12",
          "name": "",
          "type": "tuple"
        }
      ],
      "stateMutability": "view",
      "type": "function"
    }
  ],
  "bytecode": "0x608060405273__$7db5d2dbc3ae63372df6c39d501ad0f72a$__63a48a622a60006040518263ffffffff1660e01b815260040161003c919061124f565b600060405180830381865af4158015610059573d6000803e3d6000fd5b505050506040513d6000823e3d601f19601f8201168201806040525081019061008291906114de565b600080820151816000019081610098919061173e565b5060208201518160010160006101000a81548160ff02191690831515021790555060408201518160020155505073__$7db5d2dbc3ae63372df6c39d501ad0f72a$__63a48a622a60006040518263ffffffff1660e01b81526004016100fd919061185c565b600060405180830381865af415801561011a573d6000803e3d6000fd5b505050506040513d6000823e3d601f19601f8201168201806040525081019061014391906114de565b6003600082015181600001908161015a919061173e565b5060208201518160010160006101000a81548160ff02191690831515021790555060408201518160020155505060006040516101959061114f565b61019f91906119fc565b604051809103906000f0801580156101bb573d6000803e3d6000fd5b50600660006101000a81548173ffffffffffffffffffffffffffffffffffffffff021916908373ffffffffffffffffffffffffffffffffffffffff160217905550600660009054906101000a900473ffffffffffffffffffffffffffffffffffffffff1660405161022b9061115d565b6102359190611a93565b604051809103906000f080158015610251573d6000803e3d6000fd5b50600760006101000a81548173ffffffffffffffffffffffffffffffffffffffff021916908373ffffffffffffffffffffffffffffffffffffffff160217905550600760009054906101000a900473ffffffffffffffffffffffffffffffffffffffff166040516102c19061116b565b6102cb9190611acf565b604051809103906000f0801580156102e7573d6000803e3d6000fd5b50600860006101000a81548173ffffffffffffffffffffffffffffffffffffffff021916908373ffffffffffffffffffffffffffffffffffffffff160217905550600860009054906101000a900473ffffffffffffffffffffffffffffffffffffffff1660405161035790611179565b6103619190611b0b565b604051809103906000f08015801561037d573d6000803e3d6000fd5b50600960006101000a81548173ffffffffffffffffffffffffffffffffffffffff021916908373ffffffffffffffffffffffffffffffffffffffff160217905550600660009054906101000a900473ffffffffffffffffffffffffffffffffffffffff166040516103ed90611187565b6103f79190611a93565b604051809103906000f080158015610413573d6000803e3d6000fd5b50600a60006101000a81548173ffffffffffffffffffffffffffffffffffffffff021916908373ffffffffffffffffffffffffffffffffffffffff160217905550600760009054906101000a900473ffffffffffffffffffffffffffffffffffffffff1660405161048390611195565b61048d9190611acf565b604051809103906000f0801580156104a9573d6000803e3d6000fd5b50600b60006101000a81548173ffffffffffffffffffffffffffffffffffffffff021916908373ffffffffffffffffffffffffffffffffffffffff160217905550600960009054906101000a900473ffffffffffffffffffffffffffffffffffffffff16604051610519906111a3565b6105239190611b47565b604051809103906000f08015801561053f573d6000803e3d6000fd5b50600c60006101000a81548173ffffffffffffffffffffffffffffffffffffffff021916908373ffffffffffffffffffffffffffffffffffffffff160217905550600a60009054906101000a900473ffffffffffffffffffffffffffffffffffffffff1673ffffffffffffffffffffffffffffffffffffffff16631953a9bf600660009054906101000a900473ffffffffffffffffffffffffffffffffffffffff1673ffffffffffffffffffffffffffffffffffffffff16631701474273__$7db5d2dbc3ae63372df6c39d501ad0f72a$__63a48a622a60006040518263ffffffff1660e01b81526004016106349190611bd4565b600060405180830381865af4158015610651573d6000803e3d6000fd5b505050506040513d6000823e3d601f19601f8201168201806040525081019061067a91906114de565b6040518263ffffffff1660e01b81526004016106969190611c8b565b600060405180830381865afa1580156106b3573d6000803e3d6000fd5b505050506040513d6000823e3d601f19601f820116820180604052508101906106dc9190611d05565b600660009054906101000a900473ffffffffffffffffffffffffffffffffffffffff1673ffffffffffffffffffffffffffffffffffffffff16631701474273__$7db5d2dbc3ae63372df6c39d501ad0f72a$__63a48a622a60006040518263ffffffff1660e01b81526004016107529190611dc0565b600060405180830381865af415801561076f573d6000803e3d6000fd5b505050506040513d6000823e3d601f19601f8201168201806040525081019061079891906114de565b6040518263ffffffff1660e01b81526004016107b49190611c8b565b600060405180830381865afa1580156107d1573d6000803e3d6000fd5b505050506040513d6000823e3d601f19601f820116820180604052508101906107fa9190611d05565b6040518363ffffffff1660e01b8152600401610817929190611e68565b600060405180830381865afa158015610834573d6000803e3d6000fd5b505050506040513d6000823e3d601f19601f8201168201806040525081019061085d9190611f60565b600d60008201518160000160006101000a81548160ff0219169083600181111561088a57610889611fa9565b5b021790555060208201518160010160008201518160000160008201518160000190816108b6919061173e565b5060208201518160010160006101000a81548160ff0219169083151502179055506040820151816002015550505050604082015181600401600082015181600001600082015181600001908161090c919061173e565b5060208201518160010160006101000a81548160ff02191690831515021790555060408201518160020155505050505050600b60009054906101000a900473ffffffffffffffffffffffffffffffffffffffff1673ffffffffffffffffffffffffffffffffffffffff1663bedacbae6000600760009054906101000a900473ffffffffffffffffffffffffffffffffffffffff1673ffffffffffffffffffffffffffffffffffffffff1663c700da6b600660009054906101000a900473ffffffffffffffffffffffffffffffffffffffff1673ffffffffffffffffffffffffffffffffffffffff16631701474273__$7db5d2dbc3ae63372df6c39d501ad0f72a$__63a48a622a60006040518263ffffffff1660e01b8152600401610a31919061204a565b600060405180830381865af4158015610a4e573d6000803e3d6000fd5b505050506040513d6000823e3d601f19601f82011682018060405250810190610a7791906114de565b6040518263ffffffff1660e01b8152600401610a939190611c8b565b600060405180830381865afa158015610ab0573d6000803e3d6000fd5b505050506040513d6000823e3d601f19601f82011682018060405250810190610ad99190611d05565b600660009054906101000a900473ffffffffffffffffffffffffffffffffffffffff1673ffffffffffffffffffffffffffffffffffffffff16631701474273__$7db5d2dbc3ae63372df6c39d501ad0f72a$__63a48a622a60006040518263ffffffff1660e01b8152600401610b4f91906120ea565b600060405180830381865af4158015610b6c573d6000803e3d6000fd5b505050506040513d6000823e3d601f19601f82011682018060405250810190610b9591906114de565b6040518263ffffffff1660e01b8152600401610bb19190611c8b565b600060405180830381865afa158015610bce573d6000803e3d6000fd5b505050506040513d6000823e3d601f19601f82011682018060405250810190610bf79190611d05565b6040518363ffffffff1660e01b8152600401610c14929190611e68565b600060405180830381865afa158015610c31573d6000803e3d6000fd5b505050506040513d6000823e3d601f19601f82011682018060405250810190610c5a91906121a0565b600760009054906101000a900473ffffffffffffffffffffffffffffffffffffffff1673ffffffffffffffffffffffffffffffffffffffff1663c700da6b600660009054906101000a900473ffffffffffffffffffffffffffffffffffffffff1673ffffffffffffffffffffffffffffffffffffffff16631701474273__$7db5d2dbc3ae63372df6c39d501ad0f72a$__63a48a622a60006040518263ffffffff1660e01b8152600401610d0e919061225b565b600060405180830381865af4158015610d2b573d6000803e3d6000fd5b505050506040513d6000823e3d601f19601f82011682018060405250810190610d5491906114de565b6040518263ffffffff1660e01b8152600401610d709190611c8b565b600060405180830381865afa158015610d8d573d6000803e3d6000fd5b505050506040513d6000823e3d601f19601f82011682018060405250810190610db69190611d05565b600660009054906101000a900473ffffffffffffffffffffffffffffffffffffffff1673ffffffffffffffffffffffffffffffffffffffff16631701474273__$7db5d2dbc3ae63372df6c39d501ad0f72a$__63a48a622a60006040518263ffffffff1660e01b8152600401610e2c91906122fb565b600060405180830381865af4158015610e49573d6000803e3d6000fd5b505050506040513d6000823e3d601f19601f82011682018060405250810190610e7291906114de565b6040518263ffffffff1660e01b8152600401610e8e9190611c8b565b600060405180830381865afa158015610eab573d6000803e3d6000fd5b505050506040513d6000823e3d601f19601f82011682018060405250810190610ed49190611d05565b6040518363ffffffff1660e01b8152600401610ef1929190611e68565b600060405180830381865afa158015610f0e573d6000803e3d6000fd5b505050506040513d6000823e3d601f19601f82011682018060405250810190610f3791906121a0565b6040518463ffffffff1660e01b8152600401610f55939291906123df565b600060405180830381865afa158015610f72573d6000803e3d6000fd5b505050506040513d6000823e3d601f19601f82011682018060405250810190610f9b91906124c0565b601460008201518160000160006101000a81548160ff02191690836001811115610fc857610fc7611fa9565b5b02179055506020820151816001016000820151816000016000820151816000016000820151816000019081610ffd919061173e565b5060208201518160010160006101000a81548160ff02191690831515021790555060408201518160020155505050506020820151816003016000820151816000016000820151816000019081611053919061173e565b5060208201518160010160006101000a81548160ff0219169083151502179055506040820151816002015550505050505060408201518160070160008201518160000160008201518160000160008201518160000190816110b4919061173e565b5060208201518160010160006101000a81548160ff0219169083151502179055506040820151816002015550505050602082015181600301600082015181600001600082015181600001908161110a919061173e565b5060208201518160010160006101000a81548160ff02191690831515021790555060408201518160020155505050505050505034801561114957600080fd5b50612509565b612edf806200983a83390190565b6123a6806200c71983390190565b613b10806200eabf83390190565b61276e80620125cf83390190565b612d748062014d3d83390190565b6131078062017ab183390190565b613482806201abb883390190565b600082825260208201905092915050565b7f1a0111ea397fe69a4b1ba7b6434bacd764774b84f38512bf6730d2a0f6b0f62460008201527f1eabfffeb153ffffb9feffffffffaaab00000000000000000000000000000000602082015250565b600061121e6030836111b1565b9150611229826111c2565b604082019050919050565b60008115159050919050565b61124981611234565b82525050565b6000604082019050818103600083015261126881611211565b90506112776020830184611240565b92915050565b6000604051905090565b600080fd5b600080fd5b600080fd5b6000601f19601f8301169050919050565b7f4e487b7100000000000000000000000000000000000000000000000000000000600052604160045260246000fd5b6112df82611296565b810181811067ffffffffffffffff821117156112fe576112fd6112a7565b5b80604052505050565b600061131161127d565b905061131d82826112d6565b919050565b600080fd5b600080fd5b600080fd5b600067ffffffffffffffff82111561134c5761134b6112a7565b5b61135582611296565b9050602081019050919050565b60005b83811015611380578082015181840152602081019050611365565b60008484015250505050565b600061139f61139a84611331565b611307565b9050828152602081018484840111156113bb576113ba61132c565b5b6113c6848285611362565b509392505050565b600082601f8301126113e3576113e2611327565b5b81516113f384826020860161138c565b91505092915050565b61140581611234565b811461141057600080fd5b50565b600081519050611422816113fc565b92915050565b6000819050919050565b61143b81611428565b811461144657600080fd5b50565b60008151905061145881611432565b92915050565b60006060828403121561147457611473611291565b5b61147e6060611307565b9050600082015167ffffffffffffffff81111561149e5761149d611322565b5b6114aa848285016113ce565b60008301525060206114be84828501611413565b60208301525060406114d284828501611449565b60408301525092915050565b6000602082840312156114f4576114f3611287565b5b600082015167ffffffffffffffff8111156115125761151161128c565b5b61151e8482850161145e565b91505092915050565b600081519050919050565b7f4e487b7100000000000000000000000000000000000000000000000000000000600052602260045260246000fd5b6000600282049050600182168061157957607f821691505b60208210810361158c5761158b611532565b5b50919050565b60008190508160005260206000209050919050565b60006020601f8301049050919050565b600082821b905092915050565b6000600883026115f47fffffffffffffffffffffffffffffffffffffffffffffffffffffffffffffffff826115b7565b6115fe86836115b7565b95508019841693508086168417925050509392505050565b6000819050919050565b600061163b61163661163184611428565b611616565b611428565b9050919050565b6000819050919050565b61165583611620565b61166961166182611642565b8484546115c4565b825550505050565b600090565b61167e611671565b61168981848461164c565b505050565b5b818110156116ad576116a2600082611676565b60018101905061168f565b5050565b601f8211156116f2576116c381611592565b6116cc846115a7565b810160208510156116db578190505b6116ef6116e7856115a7565b83018261168e565b50505b505050565b600082821c905092915050565b6000611715600019846008026116f7565b1980831691505092915050565b600061172e8383611704565b9150826002028217905092915050565b61174782611527565b67ffffffffffffffff8111156117605761175f6112a7565b5b61176a8254611561565b6117758282856116b1565b600060209050601f8311600181146117a85760008415611796578287015190505b6117a08582611722565b865550611808565b601f1984166117b686611592565b60005b828110156117de578489015182556001820191506020850194506020810190506117b9565b868310156117fb57848901516117f7601f891682611704565b8355505b6001600288020188555050505b505050505050565b7f73eda753299d7d483339d80809a1d80553bda402fffe5bfeffffffff00000001600082015250565b60006118466020836111b1565b915061185182611810565b602082019050919050565b6000604082019050818103600083015261187581611839565b90506118846020830184611240565b92915050565b600082825260208201905092915050565b600081546118a881611561565b6118b2818661188a565b945060018216600081146118cd57600181146118e357611916565b60ff198316865281151560200286019350611916565b6118ec85611592565b60005b8381101561190e578154818901526001820191506020810190506118ef565b808801955050505b50505092915050565b60008160001c9050919050565b600060ff82169050919050565b600061194c6119478361191f565b61192c565b9050919050565b61195c81611234565b82525050565b6000819050919050565b600061197f61197a8361191f565b611962565b9050919050565b61198f81611428565b82525050565b600060608301600080840185830360008701526119b2838261189b565b925050600184015490506119c581611939565b6119d26020870182611953565b50600284015490506119e38161196c565b6119f06040870182611986565b50819250505092915050565b60006020820190508181036000830152611a168184611995565b905092915050565b600073ffffffffffffffffffffffffffffffffffffffff82169050919050565b6000611a59611a54611a4f84611a1e565b611616565b611a1e565b9050919050565b6000611a6b82611a3e565b9050919050565b6000611a7d82611a60565b9050919050565b611a8d81611a72565b82525050565b6000602082019050611aa86000830184611a84565b92915050565b6000611ab982611a60565b9050919050565b611ac981611aae565b82525050565b6000602082019050611ae46000830184611ac0565b92915050565b6000611af582611a60565b9050919050565b611b0581611aea565b82525050565b6000602082019050611b206000830184611afc565b92915050565b6000611b3182611a60565b9050919050565b611b4181611b26565b82525050565b6000602082019050611b5c6000830184611b38565b92915050565b7f17f1d3a73197d7942695638c4fa9ac0fc3688c4f9774b905a14e3a3f171bac5860008201527f6c55e83ff97a1aeffb3af00adb22c6bb00000000000000000000000000000000602082015250565b6000611bbe6030836111b1565b9150611bc982611b62565b604082019050919050565b60006040820190508181036000830152611bed81611bb1565b9050611bfc6020830184611240565b92915050565b6000611c0d82611527565b611c17818561188a565b9350611c27818560208601611362565b611c3081611296565b840191505092915050565b60006060830160008301518482036000860152611c588282611c02565b9150506020830151611c6d6020860182611953565b506040830151611c806040860182611986565b508091505092915050565b60006020820190508181036000830152611ca58184611c3b565b905092915050565b600060208284031215611cc357611cc2611291565b5b611ccd6020611307565b9050600082015167ffffffffffffffff811115611ced57611cec611322565b5b611cf98482850161145e565b60008301525092915050565b600060208284031215611d1b57611d1a611287565b5b600082015167ffffffffffffffff811115611d3957611d3861128c565b5b611d4584828501611cad565b91505092915050565b7f08b3f481e3aaa0f1a09e30ed741d8ae4fcf5e095d5d00af600db18cb2c04b3ed60008201527fd03cc744a2888ae40caa232946c5e7e100000000000000000000000000000000602082015250565b6000611daa6030836111b1565b9150611db582611d4e565b604082019050919050565b60006040820190508181036000830152611dd981611d9d565b9050611de86020830184611240565b92915050565b60006060830160008301518482036000860152611e0b8282611c02565b9150506020830151611e206020860182611953565b506040830151611e336040860182611986565b508091505092915050565b60006020830160008301518482036000860152611e5b8282611dee565b9150508091505092915050565b60006040820190508181036000830152611e828185611e3e565b90508181036020830152611e968184611e3e565b90509392505050565b60028110611eac57600080fd5b50565b600081519050611ebe81611e9f565b92915050565b600060608284031215611eda57611ed9611291565b5b611ee46060611307565b90506000611ef484828501611eaf565b600083015250602082015167ffffffffffffffff811115611f1857611f17611322565b5b611f2484828501611cad565b602083015250604082015167ffffffffffffffff811115611f4857611f47611322565b5b611f5484828501611cad565b60408301525092915050565b600060208284031215611f7657611f75611287565b5b600082015167ffffffffffffffff811115611f9457611f9361128c565b5b611fa084828501611ec4565b91505092915050565b7f4e487b7100000000000000000000000000000000000000000000000000000000600052602160045260246000fd5b7f024aa2b2f08f0a91260805272dc51051c6e47ad4fa403b02b4510b647ae3d17760008201527f0bac0326a805bbefd48056c8c121bdb800000000000000000000000000000000602082015250565b60006120346030836111b1565b915061203f82611fd8565b604082019050919050565b6000604082019050818103600083015261206381612027565b90506120726020830184611240565b92915050565b7f13e02b6052719f607dacd3a088274f65596bd0d09920b61ab5da61bbdc7f504960008201527f334cf11213945d57e5ac7d055d042b7e00000000000000000000000000000000602082015250565b60006120d46030836111b1565b91506120df82612078565b604082019050919050565b60006040820190508181036000830152612103816120c7565b90506121126020830184611240565b92915050565b60006040828403121561212e5761212d611291565b5b6121386040611307565b9050600082015167ffffffffffffffff81111561215857612157611322565b5b61216484828501611cad565b600083015250602082015167ffffffffffffffff81111561218857612187611322565b5b61219484828501611cad565b60208301525092915050565b6000602082840312156121b6576121b5611287565b5b600082015167ffffffffffffffff8111156121d4576121d361128c565b5b6121e084828501612118565b91505092915050565b7f0ce5d527727d6e118cc9cdc6da2e351aadfd9baa8cbdd3a76d429a695160d12c60008201527f923ac9cc3baca289e193548608b8280100000000000000000000000000000000602082015250565b60006122456030836111b1565b9150612250826121e9565b604082019050919050565b6000604082019050818103600083015261227481612238565b90506122836020830184611240565b92915050565b7f0606c4a02ea734cc32acd2b02bc28b99cb3e287e85a763af267492ab572e99ab60008201527f3f370d275cec1da1aaa9075ff05f79be00000000000000000000000000000000602082015250565b60006122e56030836111b1565b91506122f082612289565b604082019050919050565b60006040820190508181036000830152612314816122d8565b90506123236020830184611240565b92915050565b6002811061233a57612339611fa9565b5b50565b600081905061234b82612329565b919050565b600061235b8261233d565b9050919050565b61236b81612350565b82525050565b6000602083016000830151848203600086015261238e8282611dee565b9150508091505092915050565b600060408301600083015184820360008601526123b88282612371565b915050602083015184820360208601526123d28282612371565b9150508091505092915050565b60006060820190506123f46000830186612362565b8181036020830152612406818561239b565b9050818103604083015261241a818461239b565b9050949350505050565b60006060828403121561243a57612439611291565b5b6124446060611307565b9050600061245484828501611eaf565b600083015250602082015167ffffffffffffffff81111561247857612477611322565b5b61248484828501612118565b602083015250604082015167ffffffffffffffff8111156124a8576124a7611322565b5b6124b484828501612118565b60408301525092915050565b6000602082840312156124d6576124d5611287565b5b600082015167ffffffffffffffff8111156124f4576124f361128c565b5b61250084828501612424565b91505092915050565b61732180620025196000396000f3fe608060405234801561001057600080fd5b506004361061010b5760003560e01c8063584eae31116100a2578063b5e5eaaf11610071578063b5e5eaaf1461032c578063c02673451461035c578063f2388acb1461038c578063f4aff064146103aa578063fc3e55a2146103da5761010b565b8063584eae311461027e57806378c91deb1461029c5780639dc5abb3146102cc578063a490fa67146102fc5761010b565b80632651909a116100de5780632651909a146101be5780632dd380dc146101ee57806336b5ae8f1461021e5780634c4deae31461024e5761010b565b806301f7cb4b1461011057806314cb7ac3146101405780631e4799e414610170578063244167eb1461018e575b600080fd5b61012a6004803603810190610125919061548d565b61040a565b60405161013791906154e5565b60405180910390f35b61015a6004803603810190610155919061548d565b6108c7565b60405161016791906157cb565b60405180910390f35b61017861182c565b6040516101859190615844565b60405180910390f35b6101a860048036038101906101a39190615902565b611a3f565b6040516101b591906159be565b60405180910390f35b6101d860048036038101906101d391906159e0565b611cbb565b6040516101e59190615ad8565b60405180910390f35b61020860048036038101906102039190615cd6565b61200f565b60405161021591906154e5565b60405180910390f35b61023860048036038101906102339190615902565b61242c565b60405161024591906159be565b60405180910390f35b61026860048036038101906102639190615d1f565b6124cd565b60405161027591906159be565b60405180910390f35b610286612e9d565b6040516102939190615e1d565b60405180910390f35b6102b660048036038101906102b19190615e3f565b613296565b6040516102c391906159be565b60405180910390f35b6102e660048036038101906102e19190615eb7565b613ba5565b6040516102f391906159be565b60405180910390f35b61031660048036038101906103119190615f5e565b613feb565b60405161032391906159be565b60405180910390f35b61034660048036038101906103419190616005565b6143f1565b60405161035391906154e5565b60405180910390f35b6103766004803603810190610371919061548d565b6144c7565b60405161038391906154e5565b60405180910390f35b61039461459e565b6040516103a1919061609e565b60405180910390f35b6103c460048036038101906103bf9190616005565b61466f565b6040516103d191906154e5565b60405180910390f35b6103f460048036038101906103ef9190616188565b614af2565b60405161040191906159be565b60405180910390f35b600060018081111561041f5761041e615500565b5b8260000151600181111561043657610435615500565b5b0361044457600090506108c2565b6000600760009054906101000a900473ffffffffffffffffffffffffffffffffffffffff1673ffffffffffffffffffffffffffffffffffffffff166307a5ecaa846040015185604001516040518363ffffffff1660e01b81526004016104ab9291906162a3565b600060405180830381865afa1580156104c8573d6000803e3d6000fd5b505050506040513d6000823e3d601f19601f820116820180604052508101906104f191906164d4565b90506000600760009054906101000a900473ffffffffffffffffffffffffffffffffffffffff1673ffffffffffffffffffffffffffffffffffffffff1663fbb740a8600760009054906101000a900473ffffffffffffffffffffffffffffffffffffffff1673ffffffffffffffffffffffffffffffffffffffff166307a5ecaa600760009054906101000a900473ffffffffffffffffffffffffffffffffffffffff1673ffffffffffffffffffffffffffffffffffffffff166307a5ecaa89602001518a602001516040518363ffffffff1660e01b81526004016105d69291906162a3565b600060405180830381865afa1580156105f3573d6000803e3d6000fd5b505050506040513d6000823e3d601f19601f8201168201806040525081019061061c91906164d4565b88602001516040518363ffffffff1660e01b815260040161063e9291906162a3565b600060405180830381865afa15801561065b573d6000803e3d6000fd5b505050506040513d6000823e3d601f19601f8201168201806040525081019061068491906164d4565b600760009054906101000a900473ffffffffffffffffffffffffffffffffffffffff1673ffffffffffffffffffffffffffffffffffffffff16639d2e83f5600760009054906101000a900473ffffffffffffffffffffffffffffffffffffffff1673ffffffffffffffffffffffffffffffffffffffff1663a1fca2b66040518163ffffffff1660e01b8152600401600060405180830381865afa15801561072f573d6000803e3d6000fd5b505050506040513d6000823e3d601f19601f8201168201806040525081019061075891906164d4565b6040518263ffffffff1660e01b8152600401610774919061651d565b600060405180830381865afa158015610791573d6000803e3d6000fd5b505050506040513d6000823e3d601f19601f820116820180604052508101906107ba91906164d4565b6040518363ffffffff1660e01b81526004016107d79291906162a3565b600060405180830381865afa1580156107f4573d6000803e3d6000fd5b505050506040513d6000823e3d601f19601f8201168201806040525081019061081d91906164d4565b9050600760009054906101000a900473ffffffffffffffffffffffffffffffffffffffff1673ffffffffffffffffffffffffffffffffffffffff1663ab80cf7683836040518363ffffffff1660e01b815260040161087c9291906162a3565b602060405180830381865afa158015610899573d6000803e3d6000fd5b505050506040513d601f19601f820116820180604052508101906108bd919061653f565b925050505b919050565b6108cf614f22565b6000600860009054906101000a900473ffffffffffffffffffffffffffffffffffffffff1673ffffffffffffffffffffffffffffffffffffffff16639faceb7e600760009054906101000a900473ffffffffffffffffffffffffffffffffffffffff1673ffffffffffffffffffffffffffffffffffffffff1663bc1b392d6040518163ffffffff1660e01b8152600401600060405180830381865afa15801561097c573d6000803e3d6000fd5b505050506040513d6000823e3d601f19601f820116820180604052508101906109a591906164d4565b600760009054906101000a900473ffffffffffffffffffffffffffffffffffffffff1673ffffffffffffffffffffffffffffffffffffffff1663c700da6b600660009054906101000a900473ffffffffffffffffffffffffffffffffffffffff1673ffffffffffffffffffffffffffffffffffffffff1663901717d16040518163ffffffff1660e01b8152600401600060405180830381865afa158015610a50573d6000803e3d6000fd5b505050506040513d6000823e3d601f19601f82011682018060405250810190610a79919061656c565b600660009054906101000a900473ffffffffffffffffffffffffffffffffffffffff1673ffffffffffffffffffffffffffffffffffffffff1663bc1b392d6040518163ffffffff1660e01b8152600401600060405180830381865afa158015610ae6573d6000803e3d6000fd5b505050506040513d6000823e3d601f19601f82011682018060405250810190610b0f919061656c565b6040518363ffffffff1660e01b8152600401610b2c9291906165df565b600060405180830381865afa158015610b49573d6000803e3d6000fd5b505050506040513d6000823e3d601f19601f82011682018060405250810190610b7291906164d4565b600760009054906101000a900473ffffffffffffffffffffffffffffffffffffffff1673ffffffffffffffffffffffffffffffffffffffff1663bc1b392d6040518163ffffffff1660e01b8152600401600060405180830381865afa158015610bdf573d6000803e3d6000fd5b505050506040513d6000823e3d601f19601f82011682018060405250810190610c0891906164d4565b6040518463ffffffff1660e01b8152600401610c2693929190616616565b600060405180830381865afa158015610c43573d6000803e3d6000fd5b505050506040513d6000823e3d601f19601f82011682018060405250810190610c6c919061671a565b90506000600960009054906101000a900473ffffffffffffffffffffffffffffffffffffffff1673ffffffffffffffffffffffffffffffffffffffff1663f87386c3600860009054906101000a900473ffffffffffffffffffffffffffffffffffffffff1673ffffffffffffffffffffffffffffffffffffffff16639faceb7e8760200151600760009054906101000a900473ffffffffffffffffffffffffffffffffffffffff1673ffffffffffffffffffffffffffffffffffffffff1663bc1b392d6040518163ffffffff1660e01b8152600401600060405180830381865afa158015610d5e573d6000803e3d6000fd5b505050506040513d6000823e3d601f19601f82011682018060405250810190610d8791906164d4565b600760009054906101000a900473ffffffffffffffffffffffffffffffffffffffff1673ffffffffffffffffffffffffffffffffffffffff1663bc1b392d6040518163ffffffff1660e01b8152600401600060405180830381865afa158015610df4573d6000803e3d6000fd5b505050506040513d6000823e3d601f19601f82011682018060405250810190610e1d91906164d4565b6040518463ffffffff1660e01b8152600401610e3b93929190616616565b600060405180830381865afa158015610e58573d6000803e3d6000fd5b505050506040513d6000823e3d601f19601f82011682018060405250810190610e81919061671a565b600860009054906101000a900473ffffffffffffffffffffffffffffffffffffffff1673ffffffffffffffffffffffffffffffffffffffff1663bc1b392d6040518163ffffffff1660e01b8152600401600060405180830381865afa158015610eee573d6000803e3d6000fd5b505050506040513d6000823e3d601f19601f82011682018060405250810190610f17919061671a565b6040518363ffffffff1660e01b8152600401610f349291906167c1565b600060405180830381865afa158015610f51573d6000803e3d6000fd5b505050506040513d6000823e3d601f19601f82011682018060405250810190610f7a9190616880565b90506000600960009054906101000a900473ffffffffffffffffffffffffffffffffffffffff1673ffffffffffffffffffffffffffffffffffffffff1663f87386c3600860009054906101000a900473ffffffffffffffffffffffffffffffffffffffff1673ffffffffffffffffffffffffffffffffffffffff16639faceb7e8860400151600760009054906101000a900473ffffffffffffffffffffffffffffffffffffffff1673ffffffffffffffffffffffffffffffffffffffff1663bc1b392d6040518163ffffffff1660e01b8152600401600060405180830381865afa15801561106c573d6000803e3d6000fd5b505050506040513d6000823e3d601f19601f8201168201806040525081019061109591906164d4565b600760009054906101000a900473ffffffffffffffffffffffffffffffffffffffff1673ffffffffffffffffffffffffffffffffffffffff1663bc1b392d6040518163ffffffff1660e01b8152600401600060405180830381865afa158015611102573d6000803e3d6000fd5b505050506040513d6000823e3d601f19601f8201168201806040525081019061112b91906164d4565b6040518463ffffffff1660e01b815260040161114993929190616616565b600060405180830381865afa158015611166573d6000803e3d6000fd5b505050506040513d6000823e3d601f19601f8201168201806040525081019061118f919061671a565b600860009054906101000a900473ffffffffffffffffffffffffffffffffffffffff1673ffffffffffffffffffffffffffffffffffffffff1663bc1b392d6040518163ffffffff1660e01b8152600401600060405180830381865afa1580156111fc573d6000803e3d6000fd5b505050506040513d6000823e3d601f19601f82011682018060405250810190611225919061671a565b6040518363ffffffff1660e01b81526004016112429291906167c1565b600060405180830381865afa15801561125f573d6000803e3d6000fd5b505050506040513d6000823e3d601f19601f820116820180604052508101906112889190616880565b9050600c60009054906101000a900473ffffffffffffffffffffffffffffffffffffffff1673ffffffffffffffffffffffffffffffffffffffff16631d763e266000600960009054906101000a900473ffffffffffffffffffffffffffffffffffffffff1673ffffffffffffffffffffffffffffffffffffffff166377839c6986600960009054906101000a900473ffffffffffffffffffffffffffffffffffffffff1673ffffffffffffffffffffffffffffffffffffffff1663f6700795600960009054906101000a900473ffffffffffffffffffffffffffffffffffffffff1673ffffffffffffffffffffffffffffffffffffffff1663f87386c38c600860009054906101000a900473ffffffffffffffffffffffffffffffffffffffff1673ffffffffffffffffffffffffffffffffffffffff1663bc1b392d6040518163ffffffff1660e01b8152600401600060405180830381865afa1580156113f3573d6000803e3d6000fd5b505050506040513d6000823e3d601f19601f8201168201806040525081019061141c919061671a565b6040518363ffffffff1660e01b81526004016114399291906167c1565b600060405180830381865afa158015611456573d6000803e3d6000fd5b505050506040513d6000823e3d601f19601f8201168201806040525081019061147f9190616880565b6040518263ffffffff1660e01b815260040161149b91906159be565b600060405180830381865afa1580156114b8573d6000803e3d6000fd5b505050506040513d6000823e3d601f19601f820116820180604052508101906114e19190616880565b6040518363ffffffff1660e01b81526004016114fe9291906168c9565b600060405180830381865afa15801561151b573d6000803e3d6000fd5b505050506040513d6000823e3d601f19601f820116820180604052508101906115449190616880565b600960009054906101000a900473ffffffffffffffffffffffffffffffffffffffff1673ffffffffffffffffffffffffffffffffffffffff166377839c6986600960009054906101000a900473ffffffffffffffffffffffffffffffffffffffff1673ffffffffffffffffffffffffffffffffffffffff1663f6700795600960009054906101000a900473ffffffffffffffffffffffffffffffffffffffff1673ffffffffffffffffffffffffffffffffffffffff1663f87386c3600860009054906101000a900473ffffffffffffffffffffffffffffffffffffffff1673ffffffffffffffffffffffffffffffffffffffff1663bc1b392d6040518163ffffffff1660e01b8152600401600060405180830381865afa15801561166c573d6000803e3d6000fd5b505050506040513d6000823e3d601f19601f82011682018060405250810190611695919061671a565b8e6040518363ffffffff1660e01b81526004016116b39291906167c1565b600060405180830381865afa1580156116d0573d6000803e3d6000fd5b505050506040513d6000823e3d601f19601f820116820180604052508101906116f99190616880565b6040518263ffffffff1660e01b815260040161171591906159be565b600060405180830381865afa158015611732573d6000803e3d6000fd5b505050506040513d6000823e3d601f19601f8201168201806040525081019061175b9190616880565b6040518363ffffffff1660e01b81526004016117789291906168c9565b600060405180830381865afa158015611795573d6000803e3d6000fd5b505050506040513d6000823e3d601f19601f820116820180604052508101906117be9190616880565b6040518463ffffffff1660e01b81526004016117dc9392919061690f565b600060405180830381865afa1580156117f9573d6000803e3d6000fd5b505050506040513d6000823e3d601f19601f820116820180604052508101906118229190616a05565b9350505050919050565b611834614f61565b600d6040518060600160405290816000820160009054906101000a900460ff16600181111561186657611865615500565b5b600181111561187857611877615500565b5b815260200160018201604051806020016040529081600082016040518060600160405290816000820180546118ac90616a7d565b80601f01602080910402602001604051908101604052809291908181526020018280546118d890616a7d565b80156119255780601f106118fa57610100808354040283529160200191611925565b820191906000526020600020905b81548152906001019060200180831161190857829003601f168201915b505050505081526020016001820160009054906101000a900460ff16151515158152602001600282015481525050815250508152602001600482016040518060200160405290816000820160405180606001604052908160008201805461198b90616a7d565b80601f01602080910402602001604051908101604052809291908181526020018280546119b790616a7d565b8015611a045780601f106119d957610100808354040283529160200191611a04565b820191906000526020600020905b8154815290600101906020018083116119e757829003601f168201915b505050505081526020016001820160009054906101000a900460ff161515151581526020016002820154815250508152505081525050905090565b611a47614fa0565b600180811115611a5a57611a59615500565b5b83600001516001811115611a7157611a70615500565b5b1480611aa45750600180811115611a8b57611a8a615500565b5b82600001516001811115611aa257611aa1615500565b5b145b15611b4657600960009054906101000a900473ffffffffffffffffffffffffffffffffffffffff1673ffffffffffffffffffffffffffffffffffffffff1663bc1b392d6040518163ffffffff1660e01b8152600401600060405180830381865afa158015611b16573d6000803e3d6000fd5b505050506040513d6000823e3d601f19601f82011682018060405250810190611b3f9190616880565b9050611cb5565b611b4f8361466f565b8015611b605750611b5f8261040a565b5b8015611b715750611b70836143f1565b5b8015611b825750611b81826144c7565b5b15611cb457611cad611b94848461242c565b73__$7db5d2dbc3ae63372df6c39d501ad0f72a$__63a48a622a60006040518263ffffffff1660e01b8152600401611bcc9190616bb1565b600060405180830381865af4158015611be9573d6000803e3d6000fd5b505050506040513d6000823e3d601f19601f82011682018060405250810190611c129190616bdf565b600960009054906101000a900473ffffffffffffffffffffffffffffffffffffffff1673ffffffffffffffffffffffffffffffffffffffff1663901717d16040518163ffffffff1660e01b8152600401600060405180830381865afa158015611c7f573d6000803e3d6000fd5b505050506040513d6000823e3d601f19601f82011682018060405250810190611ca89190616880565b613feb565b9050611cb5565b5b92915050565b6060600080604067ffffffffffffffff811115611cdb57611cda6150c4565b5b604051908082528060200260200182016040528015611d095781602001602082028036833780820191505090505b5090505b73__$7db5d2dbc3ae63372df6c39d501ad0f72a$__63aa7312f68573__$7db5d2dbc3ae63372df6c39d501ad0f72a$__63bc1b392d6040518163ffffffff1660e01b8152600401600060405180830381865af4158015611d71573d6000803e3d6000fd5b505050506040513d6000823e3d601f19601f82011682018060405250810190611d9a9190616bdf565b6040518363ffffffff1660e01b8152600401611db7929190616ce0565b602060405180830381865af4158015611dd4573d6000803e3d6000fd5b505050506040513d601f19601f82011682018060405250810190611df8919061653f565b15611f2f5773__$7db5d2dbc3ae63372df6c39d501ad0f72a$__63ee4a4e4e856040518263ffffffff1660e01b8152600401611e349190616d17565b602060405180830381865af4158015611e51573d6000803e3d6000fd5b505050506040513d601f19601f82011682018060405250810190611e75919061653f565b818381518110611e8857611e87616d39565b5b60200260200101901515908115158152505073__$7db5d2dbc3ae63372df6c39d501ad0f72a$__636efac6c78560016040518363ffffffff1660e01b8152600401611ed4929190616dad565b600060405180830381865af4158015611ef1573d6000803e3d6000fd5b505050506040513d6000823e3d601f19601f82011682018060405250810190611f1a9190616bdf565b93508180611f2790616e0c565b925050611d0d565b6000600183611f3e9190616e54565b67ffffffffffffffff811115611f5757611f566150c4565b5b604051908082528060200260200182016040528015611f855781602001602082028036833780820191505090505b50905060005b600184611f989190616e54565b811015612003578260028286611fae9190616e54565b611fb89190616e54565b81518110611fc957611fc8616d39565b5b6020026020010151828281518110611fe457611fe3616d39565b5b6020026020010190151590811515815250508080600101915050611f8b565b50809350505050919050565b600060018081111561202457612023615500565b5b8260000151600181111561203b5761203a615500565b5b036120495760009050612427565b6000600960009054906101000a900473ffffffffffffffffffffffffffffffffffffffff1673ffffffffffffffffffffffffffffffffffffffff166377839c69846040015185604001516040518363ffffffff1660e01b81526004016120b09291906168c9565b600060405180830381865afa1580156120cd573d6000803e3d6000fd5b505050506040513d6000823e3d601f19601f820116820180604052508101906120f69190616880565b90506000600960009054906101000a900473ffffffffffffffffffffffffffffffffffffffff1673ffffffffffffffffffffffffffffffffffffffff16639e0ddc50600960009054906101000a900473ffffffffffffffffffffffffffffffffffffffff1673ffffffffffffffffffffffffffffffffffffffff166377839c69600960009054906101000a900473ffffffffffffffffffffffffffffffffffffffff1673ffffffffffffffffffffffffffffffffffffffff166377839c6989602001518a602001516040518363ffffffff1660e01b81526004016121db9291906168c9565b600060405180830381865afa1580156121f8573d6000803e3d6000fd5b505050506040513d6000823e3d601f19601f820116820180604052508101906122219190616880565b88602001516040518363ffffffff1660e01b81526004016122439291906168c9565b600060405180830381865afa158015612260573d6000803e3d6000fd5b505050506040513d6000823e3d601f19601f820116820180604052508101906122899190616880565b600960009054906101000a900473ffffffffffffffffffffffffffffffffffffffff1673ffffffffffffffffffffffffffffffffffffffff1663a1fca2b66040518163ffffffff1660e01b8152600401600060405180830381865afa1580156122f6573d6000803e3d6000fd5b505050506040513d6000823e3d601f19601f8201168201806040525081019061231f9190616880565b6040518363ffffffff1660e01b815260040161233c9291906168c9565b600060405180830381865afa158015612359573d6000803e3d6000fd5b505050506040513d6000823e3d601f19601f820116820180604052508101906123829190616880565b9050600960009054906101000a900473ffffffffffffffffffffffffffffffffffffffff1673ffffffffffffffffffffffffffffffffffffffff16639eea8ce883836040518363ffffffff1660e01b81526004016123e19291906168c9565b602060405180830381865afa1580156123fe573d6000803e3d6000fd5b505050506040513d601f19601f82011682018060405250810190612422919061653f565b925050505b919050565b612434614fa0565b6124c58383846124c073__$7db5d2dbc3ae63372df6c39d501ad0f72a$__63a48a622a60006040518263ffffffff1660e01b81526004016124759190616ed4565b600060405180830381865af4158015612492573d6000803e3d6000fd5b505050506040513d6000823e3d601f19601f820116820180604052508101906124bb9190616bdf565b611cbb565b614af2565b905092915050565b6124d5614fa0565b6000600960009054906101000a900473ffffffffffffffffffffffffffffffffffffffff1673ffffffffffffffffffffffffffffffffffffffff166377839c69600960009054906101000a900473ffffffffffffffffffffffffffffffffffffffff1673ffffffffffffffffffffffffffffffffffffffff16636bc90c28876040015189604001516040518363ffffffff1660e01b815260040161257a9291906168c9565b600060405180830381865afa158015612597573d6000803e3d6000fd5b505050506040513d6000823e3d601f19601f820116820180604052508101906125c09190616880565b600960009054906101000a900473ffffffffffffffffffffffffffffffffffffffff1673ffffffffffffffffffffffffffffffffffffffff1663f6700795600960009054906101000a900473ffffffffffffffffffffffffffffffffffffffff1673ffffffffffffffffffffffffffffffffffffffff16636bc90c288a602001518c602001516040518363ffffffff1660e01b81526004016126639291906168c9565b600060405180830381865afa158015612680573d6000803e3d6000fd5b505050506040513d6000823e3d601f19601f820116820180604052508101906126a99190616880565b6040518263ffffffff1660e01b81526004016126c591906159be565b600060405180830381865afa1580156126e2573d6000803e3d6000fd5b505050506040513d6000823e3d601f19601f8201168201806040525081019061270b9190616880565b6040518363ffffffff1660e01b81526004016127289291906168c9565b600060405180830381865afa158015612745573d6000803e3d6000fd5b505050506040513d6000823e3d601f19601f8201168201806040525081019061276e9190616880565b90506000600960009054906101000a900473ffffffffffffffffffffffffffffffffffffffff1673ffffffffffffffffffffffffffffffffffffffff166377839c69600960009054906101000a900473ffffffffffffffffffffffffffffffffffffffff1673ffffffffffffffffffffffffffffffffffffffff16636bc90c28600960009054906101000a900473ffffffffffffffffffffffffffffffffffffffff1673ffffffffffffffffffffffffffffffffffffffff166377839c698a604001518c602001516040518363ffffffff1660e01b81526004016128539291906168c9565b600060405180830381865afa158015612870573d6000803e3d6000fd5b505050506040513d6000823e3d601f19601f820116820180604052508101906128999190616880565b600960009054906101000a900473ffffffffffffffffffffffffffffffffffffffff1673ffffffffffffffffffffffffffffffffffffffff166377839c698c604001518c602001516040518363ffffffff1660e01b81526004016128fe9291906168c9565b600060405180830381865afa15801561291b573d6000803e3d6000fd5b505050506040513d6000823e3d601f19601f820116820180604052508101906129449190616880565b6040518363ffffffff1660e01b81526004016129619291906168c9565b600060405180830381865afa15801561297e573d6000803e3d6000fd5b505050506040513d6000823e3d601f19601f820116820180604052508101906129a79190616880565b600960009054906101000a900473ffffffffffffffffffffffffffffffffffffffff1673ffffffffffffffffffffffffffffffffffffffff1663f6700795600960009054906101000a900473ffffffffffffffffffffffffffffffffffffffff1673ffffffffffffffffffffffffffffffffffffffff16636bc90c288c602001518c602001516040518363ffffffff1660e01b8152600401612a4a9291906168c9565b600060405180830381865afa158015612a67573d6000803e3d6000fd5b505050506040513d6000823e3d601f19601f82011682018060405250810190612a909190616880565b6040518263ffffffff1660e01b8152600401612aac91906159be565b600060405180830381865afa158015612ac9573d6000803e3d6000fd5b505050506040513d6000823e3d601f19601f82011682018060405250810190612af29190616880565b6040518363ffffffff1660e01b8152600401612b0f9291906168c9565b600060405180830381865afa158015612b2c573d6000803e3d6000fd5b505050506040513d6000823e3d601f19601f82011682018060405250810190612b559190616880565b90506000600960009054906101000a900473ffffffffffffffffffffffffffffffffffffffff1673ffffffffffffffffffffffffffffffffffffffff166376cfdd6686604001516040518263ffffffff1660e01b8152600401612bb89190616f02565b600060405180830381865afa158015612bd5573d6000803e3d6000fd5b505050506040513d6000823e3d601f19601f82011682018060405250810190612bfe9190616880565b90506000600960009054906101000a900473ffffffffffffffffffffffffffffffffffffffff1673ffffffffffffffffffffffffffffffffffffffff166377839c69600960009054906101000a900473ffffffffffffffffffffffffffffffffffffffff1673ffffffffffffffffffffffffffffffffffffffff166376cfdd6689602001516040518263ffffffff1660e01b8152600401612c9f9190616f02565b600060405180830381865afa158015612cbc573d6000803e3d6000fd5b505050506040513d6000823e3d601f19601f82011682018060405250810190612ce59190616880565b866040518363ffffffff1660e01b8152600401612d039291906168c9565b600060405180830381865afa158015612d20573d6000803e3d6000fd5b505050506040513d6000823e3d601f19601f82011682018060405250810190612d499190616880565b9050600960009054906101000a900473ffffffffffffffffffffffffffffffffffffffff1673ffffffffffffffffffffffffffffffffffffffff16636bc90c28600960009054906101000a900473ffffffffffffffffffffffffffffffffffffffff1673ffffffffffffffffffffffffffffffffffffffff16636bc90c2885856040518363ffffffff1660e01b8152600401612de69291906168c9565b600060405180830381865afa158015612e03573d6000803e3d6000fd5b505050506040513d6000823e3d601f19601f82011682018060405250810190612e2c9190616880565b856040518363ffffffff1660e01b8152600401612e4a9291906168c9565b600060405180830381865afa158015612e67573d6000803e3d6000fd5b505050506040513d6000823e3d601f19601f82011682018060405250810190612e909190616880565b9450505050509392505050565b612ea5614fc6565b60146040518060600160405290816000820160009054906101000a900460ff166001811115612ed757612ed6615500565b5b6001811115612ee957612ee8615500565b5b8152602001600182016040518060400160405290816000820160405180602001604052908160008201604051806060016040529081600082018054612f2d90616a7d565b80601f0160208091040260200160405190810160405280929190818152602001828054612f5990616a7d565b8015612fa65780601f10612f7b57610100808354040283529160200191612fa6565b820191906000526020600020905b815481529060010190602001808311612f8957829003601f168201915b505050505081526020016001820160009054906101000a900460ff16151515158152602001600282015481525050815250508152602001600382016040518060200160405290816000820160405180606001604052908160008201805461300c90616a7d565b80601f016020809104026020016040519081016040528092919081815260200182805461303890616a7d565b80156130855780601f1061305a57610100808354040283529160200191613085565b820191906000526020600020905b81548152906001019060200180831161306857829003601f168201915b505050505081526020016001820160009054906101000a900460ff16151515158152602001600282015481525050815250508152505081526020016007820160405180604001604052908160008201604051806020016040529081600082016040518060600160405290816000820180546130ff90616a7d565b80601f016020809104026020016040519081016040528092919081815260200182805461312b90616a7d565b80156131785780601f1061314d57610100808354040283529160200191613178565b820191906000526020600020905b81548152906001019060200180831161315b57829003601f168201915b505050505081526020016001820160009054906101000a900460ff1615151515815260200160028201548152505081525050815260200160038201604051806020016040529081600082016040518060600160405290816000820180546131de90616a7d565b80601f016020809104026020016040519081016040528092919081815260200182805461320a90616a7d565b80156132575780601f1061322c57610100808354040283529160200191613257565b820191906000526020600020905b81548152906001019060200180831161323a57829003601f168201915b505050505081526020016001820160009054906101000a900460ff16151515158152602001600282015481525050815250508152505081525050905090565b61329e614fa0565b60006132a9846108c7565b90506000600960009054906101000a900473ffffffffffffffffffffffffffffffffffffffff1673ffffffffffffffffffffffffffffffffffffffff166377839c69600960009054906101000a900473ffffffffffffffffffffffffffffffffffffffff1673ffffffffffffffffffffffffffffffffffffffff166377839c69600960009054906101000a900473ffffffffffffffffffffffffffffffffffffffff1673ffffffffffffffffffffffffffffffffffffffff166377839c69600960009054906101000a900473ffffffffffffffffffffffffffffffffffffffff1673ffffffffffffffffffffffffffffffffffffffff166345caa1176040518163ffffffff1660e01b8152600401600060405180830381865afa1580156133d4573d6000803e3d6000fd5b505050506040513d6000823e3d601f19601f820116820180604052508101906133fd9190616880565b88602001516040518363ffffffff1660e01b815260040161341f9291906168c9565b600060405180830381865afa15801561343c573d6000803e3d6000fd5b505050506040513d6000823e3d601f19601f820116820180604052508101906134659190616880565b86602001516040518363ffffffff1660e01b81526004016134879291906168c9565b600060405180830381865afa1580156134a4573d6000803e3d6000fd5b505050506040513d6000823e3d601f19601f820116820180604052508101906134cd9190616880565b600960009054906101000a900473ffffffffffffffffffffffffffffffffffffffff1673ffffffffffffffffffffffffffffffffffffffff1663f6700795600960009054906101000a900473ffffffffffffffffffffffffffffffffffffffff1673ffffffffffffffffffffffffffffffffffffffff166377839c69600960009054906101000a900473ffffffffffffffffffffffffffffffffffffffff1673ffffffffffffffffffffffffffffffffffffffff16635fdf05d76040518163ffffffff1660e01b8152600401600060405180830381865afa1580156135b6573d6000803e3d6000fd5b505050506040513d6000823e3d601f19601f820116820180604052508101906135df9190616880565b89604001516040518363ffffffff1660e01b81526004016136019291906168c9565b600060405180830381865afa15801561361e573d6000803e3d6000fd5b505050506040513d6000823e3d601f19601f820116820180604052508101906136479190616880565b6040518263ffffffff1660e01b815260040161366391906159be565b600060405180830381865afa158015613680573d6000803e3d6000fd5b505050506040513d6000823e3d601f19601f820116820180604052508101906136a99190616880565b6040518363ffffffff1660e01b81526004016136c69291906168c9565b600060405180830381865afa1580156136e3573d6000803e3d6000fd5b505050506040513d6000823e3d601f19601f8201168201806040525081019061370c9190616880565b90506000600960009054906101000a900473ffffffffffffffffffffffffffffffffffffffff1673ffffffffffffffffffffffffffffffffffffffff16636bc90c288460400151600960009054906101000a900473ffffffffffffffffffffffffffffffffffffffff1673ffffffffffffffffffffffffffffffffffffffff166377839c698688602001516040518363ffffffff1660e01b81526004016137b49291906168c9565b600060405180830381865afa1580156137d1573d6000803e3d6000fd5b505050506040513d6000823e3d601f19601f820116820180604052508101906137fa9190616880565b6040518363ffffffff1660e01b81526004016138179291906168c9565b600060405180830381865afa158015613834573d6000803e3d6000fd5b505050506040513d6000823e3d601f19601f8201168201806040525081019061385d9190616880565b90506000600960009054906101000a900473ffffffffffffffffffffffffffffffffffffffff1673ffffffffffffffffffffffffffffffffffffffff166376cfdd6687604001516040518263ffffffff1660e01b81526004016138c09190616f02565b600060405180830381865afa1580156138dd573d6000803e3d6000fd5b505050506040513d6000823e3d601f19601f820116820180604052508101906139069190616880565b90506000600960009054906101000a900473ffffffffffffffffffffffffffffffffffffffff1673ffffffffffffffffffffffffffffffffffffffff166377839c69600960009054906101000a900473ffffffffffffffffffffffffffffffffffffffff1673ffffffffffffffffffffffffffffffffffffffff166376cfdd668a602001516040518263ffffffff1660e01b81526004016139a79190616f02565b600060405180830381865afa1580156139c4573d6000803e3d6000fd5b505050506040513d6000823e3d601f19601f820116820180604052508101906139ed9190616880565b866040518363ffffffff1660e01b8152600401613a0b9291906168c9565b600060405180830381865afa158015613a28573d6000803e3d6000fd5b505050506040513d6000823e3d601f19601f82011682018060405250810190613a519190616880565b9050600960009054906101000a900473ffffffffffffffffffffffffffffffffffffffff1673ffffffffffffffffffffffffffffffffffffffff16636bc90c28600960009054906101000a900473ffffffffffffffffffffffffffffffffffffffff1673ffffffffffffffffffffffffffffffffffffffff16636bc90c2885856040518363ffffffff1660e01b8152600401613aee9291906168c9565b600060405180830381865afa158015613b0b573d6000803e3d6000fd5b505050506040513d6000823e3d601f19601f82011682018060405250810190613b349190616880565b856040518363ffffffff1660e01b8152600401613b529291906168c9565b600060405180830381865afa158015613b6f573d6000803e3d6000fd5b505050506040513d6000823e3d601f19601f82011682018060405250810190613b989190616880565b9550505050505092915050565b613bad614fa0565b600760009054906101000a900473ffffffffffffffffffffffffffffffffffffffff1673ffffffffffffffffffffffffffffffffffffffff1663ab80cf76856020015185602001516040518363ffffffff1660e01b8152600401613c129291906162a3565b602060405180830381865afa158015613c2f573d6000803e3d6000fd5b505050506040513d601f19601f82011682018060405250810190613c53919061653f565b158015613d035750600760009054906101000a900473ffffffffffffffffffffffffffffffffffffffff1673ffffffffffffffffffffffffffffffffffffffff1663ab80cf76856040015185604001516040518363ffffffff1660e01b8152600401613cc09291906162a3565b602060405180830381865afa158015613cdd573d6000803e3d6000fd5b505050506040513d601f19601f82011682018060405250810190613d01919061653f565b155b613d0c57600080fd5b6000613d17856108c7565b90506000613d24856108c7565b9050600960009054906101000a900473ffffffffffffffffffffffffffffffffffffffff1673ffffffffffffffffffffffffffffffffffffffff16639eea8ce8836020015183602001516040518363ffffffff1660e01b8152600401613d8b9291906168c9565b602060405180830381865afa158015613da8573d6000803e3d6000fd5b505050506040513d601f19601f82011682018060405250810190613dcc919061653f565b8015613e7b5750600960009054906101000a900473ffffffffffffffffffffffffffffffffffffffff1673ffffffffffffffffffffffffffffffffffffffff16639eea8ce8836040015183604001516040518363ffffffff1660e01b8152600401613e389291906168c9565b602060405180830381865afa158015613e55573d6000803e3d6000fd5b505050506040513d601f19601f82011682018060405250810190613e79919061653f565b155b15613fd457600960009054906101000a900473ffffffffffffffffffffffffffffffffffffffff1673ffffffffffffffffffffffffffffffffffffffff16636bc90c28600960009054906101000a900473ffffffffffffffffffffffffffffffffffffffff1673ffffffffffffffffffffffffffffffffffffffff166376cfdd6687602001516040518263ffffffff1660e01b8152600401613f1d9190616f02565b600060405180830381865afa158015613f3a573d6000803e3d6000fd5b505050506040513d6000823e3d601f19601f82011682018060405250810190613f639190616880565b84602001516040518363ffffffff1660e01b8152600401613f859291906168c9565b600060405180830381865afa158015613fa2573d6000803e3d6000fd5b505050506040513d6000823e3d601f19601f82011682018060405250810190613fcb9190616880565b92505050613fe4565b613fdf8282866124cd565b925050505b9392505050565b613ff3614fa0565b73__$7db5d2dbc3ae63372df6c39d501ad0f72a$__63ecdafa1f8473__$7db5d2dbc3ae63372df6c39d501ad0f72a$__63901717d16040518163ffffffff1660e01b8152600401600060405180830381865af4158015614057573d6000803e3d6000fd5b505050506040513d6000823e3d601f19601f820116820180604052508101906140809190616bdf565b6040518363ffffffff1660e01b815260040161409d929190616ce0565b602060405180830381865af41580156140ba573d6000803e3d6000fd5b505050506040513d601f19601f820116820180604052508101906140de919061653f565b156140eb578390506143ea565b60006141778573__$7db5d2dbc3ae63372df6c39d501ad0f72a$__636efac6c78760016040518363ffffffff1660e01b815260040161412b929190616dad565b600060405180830381865af4158015614148573d6000803e3d6000fd5b505050506040513d6000823e3d601f19601f820116820180604052508101906141719190616bdf565b85613feb565b905073__$7db5d2dbc3ae63372df6c39d501ad0f72a$__63ee4a4e4e856040518263ffffffff1660e01b81526004016141b09190616d17565b602060405180830381865af41580156141cd573d6000803e3d6000fd5b505050506040513d601f19601f820116820180604052508101906141f1919061653f565b1561434357600960009054906101000a900473ffffffffffffffffffffffffffffffffffffffff1673ffffffffffffffffffffffffffffffffffffffff166377839c69600960009054906101000a900473ffffffffffffffffffffffffffffffffffffffff1673ffffffffffffffffffffffffffffffffffffffff166377839c6984856040518363ffffffff1660e01b81526004016142919291906168c9565b600060405180830381865afa1580156142ae573d6000803e3d6000fd5b505050506040513d6000823e3d601f19601f820116820180604052508101906142d79190616880565b876040518363ffffffff1660e01b81526004016142f59291906168c9565b600060405180830381865afa158015614312573d6000803e3d6000fd5b505050506040513d6000823e3d601f19601f8201168201806040525081019061433b9190616880565b9150506143ea565b600960009054906101000a900473ffffffffffffffffffffffffffffffffffffffff1673ffffffffffffffffffffffffffffffffffffffff166377839c6982836040518363ffffffff1660e01b81526004016143a09291906168c9565b600060405180830381865afa1580156143bd573d6000803e3d6000fd5b505050506040513d6000823e3d601f19601f820116820180604052508101906143e69190616880565b9150505b9392505050565b600080600181111561440657614405615500565b5b600a60009054906101000a900473ffffffffffffffffffffffffffffffffffffffff1673ffffffffffffffffffffffffffffffffffffffff16627995936003856040518363ffffffff1660e01b815260040161446392919061707c565b600060405180830381865afa158015614480573d6000803e3d6000fd5b505050506040513d6000823e3d601f19601f820116820180604052508101906144a9919061714f565b6000015160018111156144bf576144be615500565b5b149050919050565b60008060018111156144dc576144db615500565b5b600b60009054906101000a900473ffffffffffffffffffffffffffffffffffffffff1673ffffffffffffffffffffffffffffffffffffffff166355e359c86003856040518363ffffffff1660e01b815260040161453a929190617198565b600060405180830381865afa158015614557573d6000803e3d6000fd5b505050506040513d6000823e3d601f19601f82011682018060405250810190614580919061726b565b60000151600181111561459657614595615500565b5b149050919050565b6145a6615005565b60006040518060600160405290816000820180546145c390616a7d565b80601f01602080910402602001604051908101604052809291908181526020018280546145ef90616a7d565b801561463c5780601f106146115761010080835404028352916020019161463c565b820191906000526020600020905b81548152906001019060200180831161461f57829003601f168201915b505050505081526020016001820160009054906101000a900460ff16151515158152602001600282015481525050905090565b600080600660009054906101000a900473ffffffffffffffffffffffffffffffffffffffff1673ffffffffffffffffffffffffffffffffffffffff1663b5e28325846040015185604001516040518363ffffffff1660e01b81526004016146d79291906165df565b600060405180830381865afa1580156146f4573d6000803e3d6000fd5b505050506040513d6000823e3d601f19601f8201168201806040525081019061471d919061656c565b90506000600660009054906101000a900473ffffffffffffffffffffffffffffffffffffffff1673ffffffffffffffffffffffffffffffffffffffff1663a9a52e7e600660009054906101000a900473ffffffffffffffffffffffffffffffffffffffff1673ffffffffffffffffffffffffffffffffffffffff1663b5e28325600660009054906101000a900473ffffffffffffffffffffffffffffffffffffffff1673ffffffffffffffffffffffffffffffffffffffff1663b5e2832589602001518a602001516040518363ffffffff1660e01b81526004016148029291906165df565b600060405180830381865afa15801561481f573d6000803e3d6000fd5b505050506040513d6000823e3d601f19601f82011682018060405250810190614848919061656c565b88602001516040518363ffffffff1660e01b815260040161486a9291906165df565b600060405180830381865afa158015614887573d6000803e3d6000fd5b505050506040513d6000823e3d601f19601f820116820180604052508101906148b0919061656c565b600660009054906101000a900473ffffffffffffffffffffffffffffffffffffffff1673ffffffffffffffffffffffffffffffffffffffff1663085eb2b9600660009054906101000a900473ffffffffffffffffffffffffffffffffffffffff1673ffffffffffffffffffffffffffffffffffffffff1663a1fca2b66040518163ffffffff1660e01b8152600401600060405180830381865afa15801561495b573d6000803e3d6000fd5b505050506040513d6000823e3d601f19601f82011682018060405250810190614984919061656c565b6040518263ffffffff1660e01b81526004016149a09190616f02565b600060405180830381865afa1580156149bd573d6000803e3d6000fd5b505050506040513d6000823e3d601f19601f820116820180604052508101906149e6919061656c565b6040518363ffffffff1660e01b8152600401614a039291906165df565b600060405180830381865afa158015614a20573d6000803e3d6000fd5b505050506040513d6000823e3d601f19601f82011682018060405250810190614a49919061656c565b9050600660009054906101000a900473ffffffffffffffffffffffffffffffffffffffff1673ffffffffffffffffffffffffffffffffffffffff1663d4d4555483836040518363ffffffff1660e01b8152600401614aa89291906165df565b602060405180830381865afa158015614ac5573d6000803e3d6000fd5b505050506040513d601f19601f82011682018060405250810190614ae9919061653f565b92505050919050565b614afa614fa0565b6000600960009054906101000a900473ffffffffffffffffffffffffffffffffffffffff1673ffffffffffffffffffffffffffffffffffffffff1663901717d16040518163ffffffff1660e01b8152600401600060405180830381865afa158015614b69573d6000803e3d6000fd5b505050506040513d6000823e3d601f19601f82011682018060405250810190614b929190616880565b905060005b8351811015614f1557600960009054906101000a900473ffffffffffffffffffffffffffffffffffffffff1673ffffffffffffffffffffffffffffffffffffffff166377839c69600960009054906101000a900473ffffffffffffffffffffffffffffffffffffffff1673ffffffffffffffffffffffffffffffffffffffff166377839c6985866040518363ffffffff1660e01b8152600401614c3b9291906168c9565b600060405180830381865afa158015614c58573d6000803e3d6000fd5b505050506040513d6000823e3d601f19601f82011682018060405250810190614c819190616880565b614c8b888b613296565b6040518363ffffffff1660e01b8152600401614ca89291906168c9565b600060405180830381865afa158015614cc5573d6000803e3d6000fd5b505050506040513d6000823e3d601f19601f82011682018060405250810190614cee9190616880565b9150600b60009054906101000a900473ffffffffffffffffffffffffffffffffffffffff1673ffffffffffffffffffffffffffffffffffffffff16639ee46fb3866040518263ffffffff1660e01b8152600401614d4b9190615e1d565b600060405180830381865afa158015614d68573d6000803e3d6000fd5b505050506040513d6000823e3d601f19601f82011682018060405250810190614d91919061726b565b9450838181518110614da657614da5616d39565b5b602002602001015115614f0857600960009054906101000a900473ffffffffffffffffffffffffffffffffffffffff1673ffffffffffffffffffffffffffffffffffffffff166377839c6983614dfd888a8c613ba5565b6040518363ffffffff1660e01b8152600401614e1a9291906168c9565b600060405180830381865afa158015614e37573d6000803e3d6000fd5b505050506040513d6000823e3d601f19601f82011682018060405250810190614e609190616880565b9150600b60009054906101000a900473ffffffffffffffffffffffffffffffffffffffff1673ffffffffffffffffffffffffffffffffffffffff166324dca0c786886040518363ffffffff1660e01b8152600401614ebf9291906172b4565b600060405180830381865afa158015614edc573d6000803e3d6000fd5b505050506040513d6000823e3d601f19601f82011682018060405250810190614f05919061726b565b94505b8080600101915050614b97565b5080915050949350505050565b604051806060016040528060006001811115614f4157614f40615500565b5b8152602001614f4e614fa0565b8152602001614f5b614fa0565b81525090565b604051806060016040528060006001811115614f8057614f7f615500565b5b8152602001614f8d615028565b8152602001614f9a615028565b81525090565b6040518060400160405280614fb3615041565b8152602001614fc0615041565b81525090565b604051806060016040528060006001811115614fe557614fe4615500565b5b8152602001614ff2615074565b8152602001614fff615074565b81525090565b604051806060016040528060608152602001600015158152602001600081525090565b604051806020016040528061503b615005565b81525090565b6040518060600160405280615054615074565b8152602001615061615074565b815260200161506e615074565b81525090565b6040518060400160405280615087615028565b8152602001615094615028565b81525090565b6000604051905090565b600080fd5b600080fd5b600080fd5b6000601f19601f8301169050919050565b7f4e487b7100000000000000000000000000000000000000000000000000000000600052604160045260246000fd5b6150fc826150b3565b810181811067ffffffffffffffff8211171561511b5761511a6150c4565b5b80604052505050565b600061512e61509a565b905061513a82826150f3565b919050565b600080fd5b6002811061515157600080fd5b50565b60008135905061516381615144565b92915050565b600080fd5b600080fd5b600067ffffffffffffffff82111561518e5761518d6150c4565b5b615197826150b3565b9050602081019050919050565b82818337600083830152505050565b60006151c66151c184615173565b615124565b9050828152602081018484840111156151e2576151e161516e565b5b6151ed8482856151a4565b509392505050565b600082601f83011261520a57615209615169565b5b813561521a8482602086016151b3565b91505092915050565b60008115159050919050565b61523881615223565b811461524357600080fd5b50565b6000813590506152558161522f565b92915050565b6000819050919050565b61526e8161525b565b811461527957600080fd5b50565b60008135905061528b81615265565b92915050565b6000606082840312156152a7576152a66150ae565b5b6152b16060615124565b9050600082013567ffffffffffffffff8111156152d1576152d061513f565b5b6152dd848285016151f5565b60008301525060206152f184828501615246565b60208301525060406153058482850161527c565b60408301525092915050565b600060208284031215615327576153266150ae565b5b6153316020615124565b9050600082013567ffffffffffffffff8111156153515761535061513f565b5b61535d84828501615291565b60008301525092915050565b60006040828403121561537f5761537e6150ae565b5b6153896040615124565b9050600082013567ffffffffffffffff8111156153a9576153a861513f565b5b6153b584828501615311565b600083015250602082013567ffffffffffffffff8111156153d9576153d861513f565b5b6153e584828501615311565b60208301525092915050565b600060608284031215615407576154066150ae565b5b6154116060615124565b9050600061542184828501615154565b600083015250602082013567ffffffffffffffff8111156154455761544461513f565b5b61545184828501615369565b602083015250604082013567ffffffffffffffff8111156154755761547461513f565b5b61548184828501615369565b60408301525092915050565b6000602082840312156154a3576154a26150a4565b5b600082013567ffffffffffffffff8111156154c1576154c06150a9565b5b6154cd848285016153f1565b91505092915050565b6154df81615223565b82525050565b60006020820190506154fa60008301846154d6565b92915050565b7f4e487b7100000000000000000000000000000000000000000000000000000000600052602160045260246000fd5b600281106155405761553f615500565b5b50565b60008190506155518261552f565b919050565b600061556182615543565b9050919050565b61557181615556565b82525050565b600081519050919050565b600082825260208201905092915050565b60005b838110156155b1578082015181840152602081019050615596565b60008484015250505050565b60006155c882615577565b6155d28185615582565b93506155e2818560208601615593565b6155eb816150b3565b840191505092915050565b6155ff81615223565b82525050565b61560e8161525b565b82525050565b6000606083016000830151848203600086015261563182826155bd565b915050602083015161564660208601826155f6565b5060408301516156596040860182615605565b508091505092915050565b600060208301600083015184820360008601526156818282615614565b9150508091505092915050565b600060408301600083015184820360008601526156ab8282615664565b915050602083015184820360208601526156c58282615664565b9150508091505092915050565b600060608301600083015184820360008601526156ef828261568e565b91505060208301518482036020860152615709828261568e565b91505060408301518482036040860152615723828261568e565b9150508091505092915050565b6000604083016000830151848203600086015261574d82826156d2565b9150506020830151848203602086015261576782826156d2565b9150508091505092915050565b600060608301600083015161578c6000860182615568565b50602083015184820360208601526157a48282615730565b915050604083015184820360408601526157be8282615730565b9150508091505092915050565b600060208201905081810360008301526157e58184615774565b905092915050565b60006060830160008301516158056000860182615568565b506020830151848203602086015261581d8282615664565b915050604083015184820360408601526158378282615664565b9150508091505092915050565b6000602082019050818103600083015261585e81846157ed565b905092915050565b60006060828403121561587c5761587b6150ae565b5b6158866060615124565b9050600061589684828501615154565b600083015250602082013567ffffffffffffffff8111156158ba576158b961513f565b5b6158c684828501615311565b602083015250604082013567ffffffffffffffff8111156158ea576158e961513f565b5b6158f684828501615311565b60408301525092915050565b60008060408385031215615919576159186150a4565b5b600083013567ffffffffffffffff811115615937576159366150a9565b5b61594385828601615866565b925050602083013567ffffffffffffffff811115615964576159636150a9565b5b615970858286016153f1565b9150509250929050565b6000604083016000830151848203600086015261599782826156d2565b915050602083015184820360208601526159b182826156d2565b9150508091505092915050565b600060208201905081810360008301526159d8818461597a565b905092915050565b6000602082840312156159f6576159f56150a4565b5b600082013567ffffffffffffffff811115615a1457615a136150a9565b5b615a2084828501615291565b91505092915050565b600081519050919050565b600082825260208201905092915050565b6000819050602082019050919050565b6000615a6183836155f6565b60208301905092915050565b6000602082019050919050565b6000615a8582615a29565b615a8f8185615a34565b9350615a9a83615a45565b8060005b83811015615acb578151615ab28882615a55565b9750615abd83615a6d565b925050600181019050615a9e565b5085935050505092915050565b60006020820190508181036000830152615af28184615a7a565b905092915050565b600060608284031215615b1057615b0f6150ae565b5b615b1a6060615124565b9050600082013567ffffffffffffffff811115615b3a57615b3961513f565b5b615b4684828501615369565b600083015250602082013567ffffffffffffffff811115615b6a57615b6961513f565b5b615b7684828501615369565b602083015250604082013567ffffffffffffffff811115615b9a57615b9961513f565b5b615ba684828501615369565b60408301525092915050565b600060408284031215615bc857615bc76150ae565b5b615bd26040615124565b9050600082013567ffffffffffffffff811115615bf257615bf161513f565b5b615bfe84828501615afa565b600083015250602082013567ffffffffffffffff811115615c2257615c2161513f565b5b615c2e84828501615afa565b60208301525092915050565b600060608284031215615c5057615c4f6150ae565b5b615c5a6060615124565b90506000615c6a84828501615154565b600083015250602082013567ffffffffffffffff811115615c8e57615c8d61513f565b5b615c9a84828501615bb2565b602083015250604082013567ffffffffffffffff811115615cbe57615cbd61513f565b5b615cca84828501615bb2565b60408301525092915050565b600060208284031215615cec57615ceb6150a4565b5b600082013567ffffffffffffffff811115615d0a57615d096150a9565b5b615d1684828501615c3a565b91505092915050565b600080600060608486031215615d3857615d376150a4565b5b600084013567ffffffffffffffff811115615d5657615d556150a9565b5b615d6286828701615c3a565b935050602084013567ffffffffffffffff811115615d8357615d826150a9565b5b615d8f86828701615c3a565b925050604084013567ffffffffffffffff811115615db057615daf6150a9565b5b615dbc86828701615866565b9150509250925092565b6000606083016000830151615dde6000860182615568565b5060208301518482036020860152615df6828261568e565b91505060408301518482036040860152615e10828261568e565b9150508091505092915050565b60006020820190508181036000830152615e378184615dc6565b905092915050565b60008060408385031215615e5657615e556150a4565b5b600083013567ffffffffffffffff811115615e7457615e736150a9565b5b615e80858286016153f1565b925050602083013567ffffffffffffffff811115615ea157615ea06150a9565b5b615ead85828601615866565b9150509250929050565b600080600060608486031215615ed057615ecf6150a4565b5b600084013567ffffffffffffffff811115615eee57615eed6150a9565b5b615efa868287016153f1565b935050602084013567ffffffffffffffff811115615f1b57615f1a6150a9565b5b615f27868287016153f1565b925050604084013567ffffffffffffffff811115615f4857615f476150a9565b5b615f5486828701615866565b9150509250925092565b600080600060608486031215615f7757615f766150a4565b5b600084013567ffffffffffffffff811115615f9557615f946150a9565b5b615fa186828701615bb2565b935050602084013567ffffffffffffffff811115615fc257615fc16150a9565b5b615fce86828701615291565b925050604084013567ffffffffffffffff811115615fef57615fee6150a9565b5b615ffb86828701615bb2565b9150509250925092565b60006020828403121561601b5761601a6150a4565b5b600082013567ffffffffffffffff811115616039576160386150a9565b5b61604584828501615866565b91505092915050565b6000606083016000830151848203600086015261606b82826155bd565b915050602083015161608060208601826155f6565b5060408301516160936040860182615605565b508091505092915050565b600060208201905081810360008301526160b8818461604e565b905092915050565b600067ffffffffffffffff8211156160db576160da6150c4565b5b602082029050602081019050919050565b600080fd5b60006161046160ff846160c0565b615124565b90508083825260208201905060208402830185811115616127576161266160ec565b5b835b81811015616150578061613c8882615246565b845260208401935050602081019050616129565b5050509392505050565b600082601f83011261616f5761616e615169565b5b813561617f8482602086016160f1565b91505092915050565b600080600080608085870312156161a2576161a16150a4565b5b600085013567ffffffffffffffff8111156161c0576161bf6150a9565b5b6161cc87828801615866565b945050602085013567ffffffffffffffff8111156161ed576161ec6150a9565b5b6161f9878288016153f1565b935050604085013567ffffffffffffffff81111561621a576162196150a9565b5b616226878288016153f1565b925050606085013567ffffffffffffffff811115616247576162466150a9565b5b6162538782880161615a565b91505092959194509250565b6000604083016000830151848203600086015261627c8282615664565b915050602083015184820360208601526162968282615664565b9150508091505092915050565b600060408201905081810360008301526162bd818561625f565b905081810360208301526162d1818461625f565b90509392505050565b60006162ed6162e884615173565b615124565b9050828152602081018484840111156163095761630861516e565b5b616314848285615593565b509392505050565b600082601f83011261633157616330615169565b5b81516163418482602086016162da565b91505092915050565b6000815190506163598161522f565b92915050565b60008151905061636e81615265565b92915050565b60006060828403121561638a576163896150ae565b5b6163946060615124565b9050600082015167ffffffffffffffff8111156163b4576163b361513f565b5b6163c08482850161631c565b60008301525060206163d48482850161634a565b60208301525060406163e88482850161635f565b60408301525092915050565b60006020828403121561640a576164096150ae565b5b6164146020615124565b9050600082015167ffffffffffffffff8111156164345761643361513f565b5b61644084828501616374565b60008301525092915050565b600060408284031215616462576164616150ae565b5b61646c6040615124565b9050600082015167ffffffffffffffff81111561648c5761648b61513f565b5b616498848285016163f4565b600083015250602082015167ffffffffffffffff8111156164bc576164bb61513f565b5b6164c8848285016163f4565b60208301525092915050565b6000602082840312156164ea576164e96150a4565b5b600082015167ffffffffffffffff811115616508576165076150a9565b5b6165148482850161644c565b91505092915050565b60006020820190508181036000830152616537818461625f565b905092915050565b600060208284031215616555576165546150a4565b5b60006165638482850161634a565b91505092915050565b600060208284031215616582576165816150a4565b5b600082015167ffffffffffffffff8111156165a05761659f6150a9565b5b6165ac848285016163f4565b91505092915050565b600060208301600083015184820360008601526165d28282615614565b9150508091505092915050565b600060408201905081810360008301526165f981856165b5565b9050818103602083015261660d81846165b5565b90509392505050565b60006060820190508181036000830152616630818661625f565b90508181036020830152616644818561625f565b90508181036040830152616658818461625f565b9050949350505050565b600060608284031215616678576166776150ae565b5b6166826060615124565b9050600082015167ffffffffffffffff8111156166a2576166a161513f565b5b6166ae8482850161644c565b600083015250602082015167ffffffffffffffff8111156166d2576166d161513f565b5b6166de8482850161644c565b602083015250604082015167ffffffffffffffff8111156167025761670161513f565b5b61670e8482850161644c565b60408301525092915050565b6000602082840312156167305761672f6150a4565b5b600082015167ffffffffffffffff81111561674e5761674d6150a9565b5b61675a84828501616662565b91505092915050565b60006060830160008301518482036000860152616780828261568e565b9150506020830151848203602086015261679a828261568e565b915050604083015184820360408601526167b4828261568e565b9150508091505092915050565b600060408201905081810360008301526167db8185616763565b905081810360208301526167ef8184616763565b90509392505050565b60006040828403121561680e5761680d6150ae565b5b6168186040615124565b9050600082015167ffffffffffffffff8111156168385761683761513f565b5b61684484828501616662565b600083015250602082015167ffffffffffffffff8111156168685761686761513f565b5b61687484828501616662565b60208301525092915050565b600060208284031215616896576168956150a4565b5b600082015167ffffffffffffffff8111156168b4576168b36150a9565b5b6168c0848285016167f8565b91505092915050565b600060408201905081810360008301526168e3818561597a565b905081810360208301526168f7818461597a565b90509392505050565b61690981615556565b82525050565b60006060820190506169246000830186616900565b8181036020830152616936818561597a565b9050818103604083015261694a818461597a565b9050949350505050565b60008151905061696381615144565b92915050565b60006060828403121561697f5761697e6150ae565b5b6169896060615124565b9050600061699984828501616954565b600083015250602082015167ffffffffffffffff8111156169bd576169bc61513f565b5b6169c9848285016167f8565b602083015250604082015167ffffffffffffffff8111156169ed576169ec61513f565b5b6169f9848285016167f8565b60408301525092915050565b600060208284031215616a1b57616a1a6150a4565b5b600082015167ffffffffffffffff811115616a3957616a386150a9565b5b616a4584828501616969565b91505092915050565b7f4e487b7100000000000000000000000000000000000000000000000000000000600052602260045260246000fd5b60006002820490506001821680616a9557607f821691505b602082108103616aa857616aa7616a4e565b5b50919050565b600082825260208201905092915050565b7e0f686b3d807d01c0bd38c3195c899ed3cde88eeb996ca394506632528d6a9a60008201527f2f230063cf081517f68f7764c28b6f8ae5a72bce8d63cb9f827eca0ba621315b60208201527f2076995003fc77a17988f8761bdc51dc2378b9039096d1b767f17fcbde78376560408201527f915c97f36c6f18212ed0b283ed237db421d160aeb6a1e79983774940996754c860608201527fc71a2629b0dea236905ce937335d5b68fa9912aae208ccf1e516c3f438e3ba79608082015250565b6000616b8c60a083616aae565b9150616b9782616abf565b60a082019050919050565b616bab81615223565b82525050565b60006040820190508181036000830152616bca81616b7f565b9050616bd96020830184616ba2565b92915050565b600060208284031215616bf557616bf46150a4565b5b600082015167ffffffffffffffff811115616c1357616c126150a9565b5b616c1f84828501616374565b91505092915050565b600082825260208201905092915050565b6000616c4482615577565b616c4e8185616c28565b9350616c5e818560208601615593565b616c67816150b3565b840191505092915050565b616c7b81615223565b82525050565b616c8a8161525b565b82525050565b60006060830160008301518482036000860152616cad8282616c39565b9150506020830151616cc26020860182616c72565b506040830151616cd56040860182616c81565b508091505092915050565b60006040820190508181036000830152616cfa8185616c90565b90508181036020830152616d0e8184616c90565b90509392505050565b60006020820190508181036000830152616d318184616c90565b905092915050565b7f4e487b7100000000000000000000000000000000000000000000000000000000600052603260045260246000fd5b6000819050919050565b6000819050919050565b6000616d97616d92616d8d84616d68565b616d72565b61525b565b9050919050565b616da781616d7c565b82525050565b60006040820190508181036000830152616dc78185616c90565b9050616dd66020830184616d9e565b9392505050565b7f4e487b7100000000000000000000000000000000000000000000000000000000600052601160045260246000fd5b6000616e178261525b565b91507fffffffffffffffffffffffffffffffffffffffffffffffffffffffffffffffff8203616e4957616e48616ddd565b5b600182019050919050565b6000616e5f8261525b565b9150616e6a8361525b565b9250828203905081811115616e8257616e81616ddd565b5b92915050565b7fd201000000010000000000000000000000000000000000000000000000000000600082015250565b6000616ebe600883616aae565b9150616ec982616e88565b602082019050919050565b60006040820190508181036000830152616eed81616eb1565b9050616efc6020830184616ba2565b92915050565b60006020820190508181036000830152616f1c81846165b5565b905092915050565b60008190508160005260206000209050919050565b60008154616f4681616a7d565b616f508186615582565b94506001821660008114616f6b5760018114616f8157616fb4565b60ff198316865281151560200286019350616fb4565b616f8a85616f24565b60005b83811015616fac57815481890152600182019150602081019050616f8d565b808801955050505b50505092915050565b60008160001c9050919050565b600060ff82169050919050565b6000616fea616fe583616fbd565b616fca565b9050919050565b6000819050919050565b600061700e61700983616fbd565b616ff1565b9050919050565b600060608301600080840185830360008701526170328382616f39565b9250506001840154905061704581616fd7565b61705260208701826155f6565b506002840154905061706381616ffb565b6170706040870182615605565b50819250505092915050565b600060408201905081810360008301526170968185617015565b905081810360208301526170aa81846157ed565b90509392505050565b6000606082840312156170c9576170c86150ae565b5b6170d36060615124565b905060006170e384828501616954565b600083015250602082015167ffffffffffffffff8111156171075761710661513f565b5b617113848285016163f4565b602083015250604082015167ffffffffffffffff8111156171375761713661513f565b5b617143848285016163f4565b60408301525092915050565b600060208284031215617165576171646150a4565b5b600082015167ffffffffffffffff811115617183576171826150a9565b5b61718f848285016170b3565b91505092915050565b600060408201905081810360008301526171b28185617015565b905081810360208301526171c68184615dc6565b90509392505050565b6000606082840312156171e5576171e46150ae565b5b6171ef6060615124565b905060006171ff84828501616954565b600083015250602082015167ffffffffffffffff8111156172235761722261513f565b5b61722f8482850161644c565b602083015250604082015167ffffffffffffffff8111156172535761725261513f565b5b61725f8482850161644c565b60408301525092915050565b600060208284031215617281576172806150a4565b5b600082015167ffffffffffffffff81111561729f5761729e6150a9565b5b6172ab848285016171cf565b91505092915050565b600060408201905081810360008301526172ce8185615dc6565b905081810360208301526172e28184615dc6565b9050939250505056fea2646970667358221220cab9b15704dde76013a46134e9b139fddecb30cbf03c79deea7070c86cff427f64736f6c634300081b0033608060405234801561001057600080fd5b50604051612edf380380612edf833981810160405281019061003291906103d8565b806000808260000151905060208101519150600082036100d25773__$7db5d2dbc3ae63372df6c39d501ad0f72a$__6308d78767846040518263ffffffff1660e01b815260040161008391906104e4565b602060405180830381865af41580156100a0573d6000803e3d6000fd5b505050506040513d601f19601f820116820180604052508101906100c49190610506565b6100cd57600080fd5b61011d565b600060208460000151516100e69190610562565b148015610113575060016101006001856040015161010491906105c2565b61010e9190610562565b83901c145b61011c57600080fd5b5b836000808201518160000190816101349190610802565b5060208201518160010160006101000a81548160ff02191690831515021790555060408201518160020155905050505050506108d4565b6000604051905090565b600080fd5b600080fd5b600080fd5b6000601f19601f8301169050919050565b7f4e487b7100000000000000000000000000000000000000000000000000000000600052604160045260246000fd5b6101cd82610184565b810181811067ffffffffffffffff821117156101ec576101eb610195565b5b80604052505050565b60006101ff61016b565b905061020b82826101c4565b919050565b600080fd5b600080fd5b600080fd5b600067ffffffffffffffff82111561023a57610239610195565b5b61024382610184565b9050602081019050919050565b60005b8381101561026e578082015181840152602081019050610253565b60008484015250505050565b600061028d6102888461021f565b6101f5565b9050828152602081018484840111156102a9576102a861021a565b5b6102b4848285610250565b509392505050565b600082601f8301126102d1576102d0610215565b5b81516102e184826020860161027a565b91505092915050565b60008115159050919050565b6102ff816102ea565b811461030a57600080fd5b50565b60008151905061031c816102f6565b92915050565b6000819050919050565b61033581610322565b811461034057600080fd5b50565b6000815190506103528161032c565b92915050565b60006060828403121561036e5761036d61017f565b5b61037860606101f5565b9050600082015167ffffffffffffffff81111561039857610397610210565b5b6103a4848285016102bc565b60008301525060206103b88482850161030d565b60208301525060406103cc84828501610343565b60408301525092915050565b6000602082840312156103ee576103ed610175565b5b600082015167ffffffffffffffff81111561040c5761040b61017a565b5b61041884828501610358565b91505092915050565b600081519050919050565b600082825260208201905092915050565b600061044882610421565b610452818561042c565b9350610462818560208601610250565b61046b81610184565b840191505092915050565b61047f816102ea565b82525050565b61048e81610322565b82525050565b600060608301600083015184820360008601526104b1828261043d565b91505060208301516104c66020860182610476565b5060408301516104d96040860182610485565b508091505092915050565b600060208201905081810360008301526104fe8184610494565b905092915050565b60006020828403121561051c5761051b610175565b5b600061052a8482850161030d565b91505092915050565b7f4e487b7100000000000000000000000000000000000000000000000000000000600052601260045260246000fd5b600061056d82610322565b915061057883610322565b92508261058857610587610533565b5b828206905092915050565b7f4e487b7100000000000000000000000000000000000000000000000000000000600052601160045260246000fd5b60006105cd82610322565b91506105d883610322565b92508282039050818111156105f0576105ef610593565b5b92915050565b7f4e487b7100000000000000000000000000000000000000000000000000000000600052602260045260246000fd5b6000600282049050600182168061063d57607f821691505b6020821081036106505761064f6105f6565b5b50919050565b60008190508160005260206000209050919050565b60006020601f8301049050919050565b600082821b905092915050565b6000600883026106b87fffffffffffffffffffffffffffffffffffffffffffffffffffffffffffffffff8261067b565b6106c2868361067b565b95508019841693508086168417925050509392505050565b6000819050919050565b60006106ff6106fa6106f584610322565b6106da565b610322565b9050919050565b6000819050919050565b610719836106e4565b61072d61072582610706565b848454610688565b825550505050565b600090565b610742610735565b61074d818484610710565b505050565b5b818110156107715761076660008261073a565b600181019050610753565b5050565b601f8211156107b65761078781610656565b6107908461066b565b8101602085101561079f578190505b6107b36107ab8561066b565b830182610752565b50505b505050565b600082821c905092915050565b60006107d9600019846008026107bb565b1980831691505092915050565b60006107f283836107c8565b9150826002028217905092915050565b61080b82610421565b67ffffffffffffffff81111561082457610823610195565b5b61082e8254610625565b610839828285610775565b600060209050601f83116001811461086c576000841561085a578287015190505b61086485826107e6565b8655506108cc565b601f19841661087a86610656565b60005b828110156108a25784890151825560018201915060208501945060208101905061087d565b868310156108bf57848901516108bb601f8916826107c8565b8355505b6001600288020188555050505b505050505050565b6125fc806108e36000396000f3fe608060405234801561001057600080fd5b50600436106100ea5760003560e01c8063a672d1001161008c578063bc1b392d11610066578063bc1b392d14610287578063d4d45554146102a5578063f2388acb146102d5578063fb2bedad146102f3576100ea565b8063a672d100146101f7578063a9a52e7e14610227578063b5e2832514610257576100ea565b806345caa117116100c857806345caa1171461017f5780635fdf05d71461019d578063901717d1146101bb578063a1fca2b6146101d9576100ea565b8063085eb2b9146100ef57806312f7411b1461011f578063170147421461014f575b600080fd5b61010960048036038101906101049190611bdd565b610323565b6040516101169190611d3d565b60405180910390f35b61013960048036038101906101349190611d5f565b610425565b6040516101469190611d3d565b60405180910390f35b61016960048036038101906101649190611dd7565b61062b565b6040516101769190611d3d565b60405180910390f35b6101876107b6565b6040516101949190611d3d565b60405180910390f35b6101a5610843565b6040516101b29190611d3d565b60405180910390f35b6101c36108d0565b6040516101d09190611d3d565b60405180910390f35b6101e161095d565b6040516101ee9190611d3d565b60405180910390f35b610211600480360381019061020c9190611bdd565b6109ea565b60405161021e9190611d3d565b60405180910390f35b610241600480360381019061023c9190611d5f565b610d9d565b60405161024e9190611d3d565b60405180910390f35b610271600480360381019061026c9190611d5f565b611020565b60405161027e9190611d3d565b60405180910390f35b61028f6112a6565b60405161029c9190611d3d565b60405180910390f35b6102bf60048036038101906102ba9190611d5f565b611333565b6040516102cc9190611e2f565b60405180910390f35b6102dd6115a3565b6040516102ea9190611e9a565b60405180910390f35b61030d60048036038101906103089190611d5f565b611674565b60405161031a9190611d3d565b60405180910390f35b61032b6118f7565b81600001516000808260000151905060208101519150600082036103cf5773__$7db5d2dbc3ae63372df6c39d501ad0f72a$__6308d78767846040518263ffffffff1660e01b81526004016103809190611f74565b602060405180830381865af415801561039d573d6000803e3d6000fd5b505050506040513d601f19601f820116820180604052508101906103c19190611fab565b6103ca57600080fd5b61041a565b600060208460000151516103e39190612007565b14801561041057506001610100600185604001516104019190612067565b61040b9190612007565b83901c145b61041957600080fd5b5b849350505050919050565b61042d6118f7565b82600001516000808260000151905060208101519150600082036104d15773__$7db5d2dbc3ae63372df6c39d501ad0f72a$__6308d78767846040518263ffffffff1660e01b81526004016104829190611f74565b602060405180830381865af415801561049f573d6000803e3d6000fd5b505050506040513d601f19601f820116820180604052508101906104c39190611fab565b6104cc57600080fd5b61051c565b600060208460000151516104e59190612007565b14801561051257506001610100600185604001516105039190612067565b61050d9190612007565b83901c145b61051b57600080fd5b5b84600001516000808260000151905060208101519150600082036105c05773__$7db5d2dbc3ae63372df6c39d501ad0f72a$__6308d78767846040518263ffffffff1660e01b81526004016105719190611f74565b602060405180830381865af415801561058e573d6000803e3d6000fd5b505050506040513d601f19601f820116820180604052508101906105b29190611fab565b6105bb57600080fd5b61060b565b600060208460000151516105d49190612007565b14801561060157506001610100600185604001516105f29190612067565b6105fc9190612007565b83901c145b61060a57600080fd5b5b61061d896106188a6109ea565b611020565b965050505050505092915050565b6106336118f7565b816000808260000151905060208101519150600082036106d35773__$7db5d2dbc3ae63372df6c39d501ad0f72a$__6308d78767846040518263ffffffff1660e01b81526004016106849190611f74565b602060405180830381865af41580156106a1573d6000803e3d6000fd5b505050506040513d601f19601f820116820180604052508101906106c59190611fab565b6106ce57600080fd5b61071e565b600060208460000151516106e79190612007565b14801561071457506001610100600185604001516107059190612067565b61070f9190612007565b83901c145b61071d57600080fd5b5b604051806020016040528073__$7db5d2dbc3ae63372df6c39d501ad0f72a$__637afa85538860006040518363ffffffff1660e01b8152600401610763929190612253565b600060405180830381865af4158015610780573d6000803e3d6000fd5b505050506040513d6000823e3d601f19601f820116820180604052508101906107a9919061238f565b8152509350505050919050565b6107be6118f7565b604051806020016040528073__$7db5d2dbc3ae63372df6c39d501ad0f72a$__6345caa1176040518163ffffffff1660e01b8152600401600060405180830381865af4158015610812573d6000803e3d6000fd5b505050506040513d6000823e3d601f19601f8201168201806040525081019061083b919061238f565b815250905090565b61084b6118f7565b604051806020016040528073__$7db5d2dbc3ae63372df6c39d501ad0f72a$__635fdf05d76040518163ffffffff1660e01b8152600401600060405180830381865af415801561089f573d6000803e3d6000fd5b505050506040513d6000823e3d601f19601f820116820180604052508101906108c8919061238f565b815250905090565b6108d86118f7565b604051806020016040528073__$7db5d2dbc3ae63372df6c39d501ad0f72a$__63901717d16040518163ffffffff1660e01b8152600401600060405180830381865af415801561092c573d6000803e3d6000fd5b505050506040513d6000823e3d601f19601f82011682018060405250810190610955919061238f565b815250905090565b6109656118f7565b604051806020016040528073__$7db5d2dbc3ae63372df6c39d501ad0f72a$__63a1fca2b66040518163ffffffff1660e01b8152600401600060405180830381865af41580156109b9573d6000803e3d6000fd5b505050506040513d6000823e3d601f19601f820116820180604052508101906109e2919061238f565b815250905090565b6109f26118f7565b8160000151600080826000015190506020810151915060008203610a965773__$7db5d2dbc3ae63372df6c39d501ad0f72a$__6308d78767846040518263ffffffff1660e01b8152600401610a479190611f74565b602060405180830381865af4158015610a64573d6000803e3d6000fd5b505050506040513d601f19601f82011682018060405250810190610a889190611fab565b610a9157600080fd5b610ae1565b60006020846000015151610aaa9190612007565b148015610ad75750600161010060018560400151610ac89190612067565b610ad29190612007565b83901c145b610ae057600080fd5b5b600073__$7db5d2dbc3ae63372df6c39d501ad0f72a$__63bc39804e876000015173__$7db5d2dbc3ae63372df6c39d501ad0f72a$__63bc1b392d6040518163ffffffff1660e01b8152600401600060405180830381865af4158015610b4b573d6000803e3d6000fd5b505050506040513d6000823e3d601f19601f82011682018060405250810190610b74919061238f565b60006040518463ffffffff1660e01b8152600401610b94939291906123e7565b602060405180830381865af4158015610bb1573d6000803e3d6000fd5b505050506040513d601f19601f82011682018060405250810190610bd59190612462565b03610c15576040517f08c379a0000000000000000000000000000000000000000000000000000000008152600401610c0c906124ec565b60405180910390fd5b610d9373__$7db5d2dbc3ae63372df6c39d501ad0f72a$__630e7671f2876000015173__$7db5d2dbc3ae63372df6c39d501ad0f72a$__630a4638fd600073__$7db5d2dbc3ae63372df6c39d501ad0f72a$__635fdf05d76040518163ffffffff1660e01b8152600401600060405180830381865af4158015610c9c573d6000803e3d6000fd5b505050506040513d6000823e3d601f19601f82011682018060405250810190610cc5919061238f565b6040518363ffffffff1660e01b8152600401610ce292919061250c565b600060405180830381865af4158015610cff573d6000803e3d6000fd5b505050506040513d6000823e3d601f19601f82011682018060405250810190610d28919061238f565b60006040518463ffffffff1660e01b8152600401610d4893929190612543565b600060405180830381865af4158015610d65573d6000803e3d6000fd5b505050506040513d6000823e3d601f19601f82011682018060405250810190610d8e919061238f565b61062b565b9350505050919050565b610da56118f7565b8260000151600080826000015190506020810151915060008203610e495773__$7db5d2dbc3ae63372df6c39d501ad0f72a$__6308d78767846040518263ffffffff1660e01b8152600401610dfa9190611f74565b602060405180830381865af4158015610e17573d6000803e3d6000fd5b505050506040513d601f19601f82011682018060405250810190610e3b9190611fab565b610e4457600080fd5b610e94565b60006020846000015151610e5d9190612007565b148015610e8a5750600161010060018560400151610e7b9190612067565b610e859190612007565b83901c145b610e9357600080fd5b5b8460000151600080826000015190506020810151915060008203610f385773__$7db5d2dbc3ae63372df6c39d501ad0f72a$__6308d78767846040518263ffffffff1660e01b8152600401610ee99190611f74565b602060405180830381865af4158015610f06573d6000803e3d6000fd5b505050506040513d601f19601f82011682018060405250810190610f2a9190611fab565b610f3357600080fd5b610f83565b60006020846000015151610f4c9190612007565b148015610f795750600161010060018560400151610f6a9190612067565b610f749190612007565b83901c145b610f8257600080fd5b5b61101273__$7db5d2dbc3ae63372df6c39d501ad0f72a$__6398cdcfb28b600001518b600001516040518363ffffffff1660e01b8152600401610fc792919061258f565b600060405180830381865af4158015610fe4573d6000803e3d6000fd5b505050506040513d6000823e3d601f19601f8201168201806040525081019061100d919061238f565b61062b565b965050505050505092915050565b6110286118f7565b82600001516000808260000151905060208101519150600082036110cc5773__$7db5d2dbc3ae63372df6c39d501ad0f72a$__6308d78767846040518263ffffffff1660e01b815260040161107d9190611f74565b602060405180830381865af415801561109a573d6000803e3d6000fd5b505050506040513d601f19601f820116820180604052508101906110be9190611fab565b6110c757600080fd5b611117565b600060208460000151516110e09190612007565b14801561110d57506001610100600185604001516110fe9190612067565b6111089190612007565b83901c145b61111657600080fd5b5b84600001516000808260000151905060208101519150600082036111bb5773__$7db5d2dbc3ae63372df6c39d501ad0f72a$__6308d78767846040518263ffffffff1660e01b815260040161116c9190611f74565b602060405180830381865af4158015611189573d6000803e3d6000fd5b505050506040513d601f19601f820116820180604052508101906111ad9190611fab565b6111b657600080fd5b611206565b600060208460000151516111cf9190612007565b1480156111fc57506001610100600185604001516111ed9190612067565b6111f79190612007565b83901c145b61120557600080fd5b5b61129873__$7db5d2dbc3ae63372df6c39d501ad0f72a$__63a5d4ca5b8b600001518b6000015160006040518463ffffffff1660e01b815260040161124d93929190612543565b600060405180830381865af415801561126a573d6000803e3d6000fd5b505050506040513d6000823e3d601f19601f82011682018060405250810190611293919061238f565b61062b565b965050505050505092915050565b6112ae6118f7565b604051806020016040528073__$7db5d2dbc3ae63372df6c39d501ad0f72a$__63bc1b392d6040518163ffffffff1660e01b8152600401600060405180830381865af4158015611302573d6000803e3d6000fd5b505050506040513d6000823e3d601f19601f8201168201806040525081019061132b919061238f565b815250905090565b600082600001516000808260000151905060208101519150600082036113d95773__$7db5d2dbc3ae63372df6c39d501ad0f72a$__6308d78767846040518263ffffffff1660e01b815260040161138a9190611f74565b602060405180830381865af41580156113a7573d6000803e3d6000fd5b505050506040513d601f19601f820116820180604052508101906113cb9190611fab565b6113d457600080fd5b611424565b600060208460000151516113ed9190612007565b14801561141a575060016101006001856040015161140b9190612067565b6114159190612007565b83901c145b61142357600080fd5b5b84600001516000808260000151905060208101519150600082036114c85773__$7db5d2dbc3ae63372df6c39d501ad0f72a$__6308d78767846040518263ffffffff1660e01b81526004016114799190611f74565b602060405180830381865af4158015611496573d6000803e3d6000fd5b505050506040513d601f19601f820116820180604052508101906114ba9190611fab565b6114c357600080fd5b611513565b600060208460000151516114dc9190612007565b14801561150957506001610100600185604001516114fa9190612067565b6115049190612007565b83901c145b61151257600080fd5b5b73__$7db5d2dbc3ae63372df6c39d501ad0f72a$__63cd8e0ef78a600001518a600001516040518363ffffffff1660e01b815260040161155492919061258f565b602060405180830381865af4158015611571573d6000803e3d6000fd5b505050506040513d601f19601f820116820180604052508101906115959190611fab565b965050505050505092915050565b6115ab611910565b60006040518060600160405290816000820180546115c8906120ca565b80601f01602080910402602001604051908101604052809291908181526020018280546115f4906120ca565b80156116415780601f1061161657610100808354040283529160200191611641565b820191906000526020600020905b81548152906001019060200180831161162457829003601f168201915b505050505081526020016001820160009054906101000a900460ff16151515158152602001600282015481525050905090565b61167c6118f7565b82600001516000808260000151905060208101519150600082036117205773__$7db5d2dbc3ae63372df6c39d501ad0f72a$__6308d78767846040518263ffffffff1660e01b81526004016116d19190611f74565b602060405180830381865af41580156116ee573d6000803e3d6000fd5b505050506040513d601f19601f820116820180604052508101906117129190611fab565b61171b57600080fd5b61176b565b600060208460000151516117349190612007565b14801561176157506001610100600185604001516117529190612067565b61175c9190612007565b83901c145b61176a57600080fd5b5b846000015160008082600001519050602081015191506000820361180f5773__$7db5d2dbc3ae63372df6c39d501ad0f72a$__6308d78767846040518263ffffffff1660e01b81526004016117c09190611f74565b602060405180830381865af41580156117dd573d6000803e3d6000fd5b505050506040513d601f19601f820116820180604052508101906118019190611fab565b61180a57600080fd5b61185a565b600060208460000151516118239190612007565b14801561185057506001610100600185604001516118419190612067565b61184b9190612007565b83901c145b61185957600080fd5b5b6118e973__$7db5d2dbc3ae63372df6c39d501ad0f72a$__630a4638fd8b600001518b600001516040518363ffffffff1660e01b815260040161189e92919061258f565b600060405180830381865af41580156118bb573d6000803e3d6000fd5b505050506040513d6000823e3d601f19601f820116820180604052508101906118e4919061238f565b61062b565b965050505050505092915050565b604051806020016040528061190a611910565b81525090565b604051806060016040528060608152602001600015158152602001600081525090565b6000604051905090565b600080fd5b600080fd5b600080fd5b6000601f19601f8301169050919050565b7f4e487b7100000000000000000000000000000000000000000000000000000000600052604160045260246000fd5b6119958261194c565b810181811067ffffffffffffffff821117156119b4576119b361195d565b5b80604052505050565b60006119c7611933565b90506119d3828261198c565b919050565b600080fd5b600080fd5b600080fd5b600067ffffffffffffffff821115611a0257611a0161195d565b5b611a0b8261194c565b9050602081019050919050565b82818337600083830152505050565b6000611a3a611a35846119e7565b6119bd565b905082815260208101848484011115611a5657611a556119e2565b5b611a61848285611a18565b509392505050565b600082601f830112611a7e57611a7d6119dd565b5b8135611a8e848260208601611a27565b91505092915050565b60008115159050919050565b611aac81611a97565b8114611ab757600080fd5b50565b600081359050611ac981611aa3565b92915050565b6000819050919050565b611ae281611acf565b8114611aed57600080fd5b50565b600081359050611aff81611ad9565b92915050565b600060608284031215611b1b57611b1a611947565b5b611b2560606119bd565b9050600082013567ffffffffffffffff811115611b4557611b446119d8565b5b611b5184828501611a69565b6000830152506020611b6584828501611aba565b6020830152506040611b7984828501611af0565b60408301525092915050565b600060208284031215611b9b57611b9a611947565b5b611ba560206119bd565b9050600082013567ffffffffffffffff811115611bc557611bc46119d8565b5b611bd184828501611b05565b60008301525092915050565b600060208284031215611bf357611bf261193d565b5b600082013567ffffffffffffffff811115611c1157611c10611942565b5b611c1d84828501611b85565b91505092915050565b600081519050919050565b600082825260208201905092915050565b60005b83811015611c60578082015181840152602081019050611c45565b60008484015250505050565b6000611c7782611c26565b611c818185611c31565b9350611c91818560208601611c42565b611c9a8161194c565b840191505092915050565b611cae81611a97565b82525050565b611cbd81611acf565b82525050565b60006060830160008301518482036000860152611ce08282611c6c565b9150506020830151611cf56020860182611ca5565b506040830151611d086040860182611cb4565b508091505092915050565b60006020830160008301518482036000860152611d308282611cc3565b9150508091505092915050565b60006020820190508181036000830152611d578184611d13565b905092915050565b60008060408385031215611d7657611d7561193d565b5b600083013567ffffffffffffffff811115611d9457611d93611942565b5b611da085828601611b85565b925050602083013567ffffffffffffffff811115611dc157611dc0611942565b5b611dcd85828601611b85565b9150509250929050565b600060208284031215611ded57611dec61193d565b5b600082013567ffffffffffffffff811115611e0b57611e0a611942565b5b611e1784828501611b05565b91505092915050565b611e2981611a97565b82525050565b6000602082019050611e446000830184611e20565b92915050565b60006060830160008301518482036000860152611e678282611c6c565b9150506020830151611e7c6020860182611ca5565b506040830151611e8f6040860182611cb4565b508091505092915050565b60006020820190508181036000830152611eb48184611e4a565b905092915050565b600082825260208201905092915050565b6000611ed882611c26565b611ee28185611ebc565b9350611ef2818560208601611c42565b611efb8161194c565b840191505092915050565b611f0f81611a97565b82525050565b611f1e81611acf565b82525050565b60006060830160008301518482036000860152611f418282611ecd565b9150506020830151611f566020860182611f06565b506040830151611f696040860182611f15565b508091505092915050565b60006020820190508181036000830152611f8e8184611f24565b905092915050565b600081519050611fa581611aa3565b92915050565b600060208284031215611fc157611fc061193d565b5b6000611fcf84828501611f96565b91505092915050565b7f4e487b7100000000000000000000000000000000000000000000000000000000600052601260045260246000fd5b600061201282611acf565b915061201d83611acf565b92508261202d5761202c611fd8565b5b828206905092915050565b7f4e487b7100000000000000000000000000000000000000000000000000000000600052601160045260246000fd5b600061207282611acf565b915061207d83611acf565b925082820390508181111561209557612094612038565b5b92915050565b7f4e487b7100000000000000000000000000000000000000000000000000000000600052602260045260246000fd5b600060028204905060018216806120e257607f821691505b6020821081036120f5576120f461209b565b5b50919050565b60008190508160005260206000209050919050565b6000815461211d816120ca565b6121278186611ebc565b9450600182166000811461214257600181146121585761218b565b60ff19831686528115156020028601935061218b565b612161856120fb565b60005b8381101561218357815481890152600182019150602081019050612164565b808801955050505b50505092915050565b60008160001c9050919050565b600060ff82169050919050565b60006121c16121bc83612194565b6121a1565b9050919050565b6000819050919050565b60006121e56121e083612194565b6121c8565b9050919050565b600060608301600080840185830360008701526122098382612110565b9250506001840154905061221c816121ae565b6122296020870182611f06565b506002840154905061223a816121d2565b6122476040870182611f15565b50819250505092915050565b6000604082019050818103600083015261226d8185611f24565b9050818103602083015261228181846121ec565b90509392505050565b600061229d612298846119e7565b6119bd565b9050828152602081018484840111156122b9576122b86119e2565b5b6122c4848285611c42565b509392505050565b600082601f8301126122e1576122e06119dd565b5b81516122f184826020860161228a565b91505092915050565b60008151905061230981611ad9565b92915050565b60006060828403121561232557612324611947565b5b61232f60606119bd565b9050600082015167ffffffffffffffff81111561234f5761234e6119d8565b5b61235b848285016122cc565b600083015250602061236f84828501611f96565b6020830152506040612383848285016122fa565b60408301525092915050565b6000602082840312156123a5576123a461193d565b5b600082015167ffffffffffffffff8111156123c3576123c2611942565b5b6123cf8482850161230f565b91505092915050565b6123e181611a97565b82525050565b600060608201905081810360008301526124018186611f24565b905081810360208301526124158185611f24565b905061242460408301846123d8565b949350505050565b6000819050919050565b61243f8161242c565b811461244a57600080fd5b50565b60008151905061245c81612436565b92915050565b6000602082840312156124785761247761193d565b5b60006124868482850161244d565b91505092915050565b600082825260208201905092915050565b7f496e766572736f206469207a65726f206e6f6e20646566696e69746f2e000000600082015250565b60006124d6601d8361248f565b91506124e1826124a0565b602082019050919050565b60006020820190508181036000830152612505816124c9565b9050919050565b6000604082019050818103600083015261252681856121ec565b9050818103602083015261253a8184611f24565b90509392505050565b6000606082019050818103600083015261255d8186611f24565b905081810360208301526125718185611f24565b9050818103604083015261258581846121ec565b9050949350505050565b600060408201905081810360008301526125a98185611f24565b905081810360208301526125bd8184611f24565b9050939250505056fea2646970667358221220b8982caff5a8b9cc6d079e0e6e5fa60071925c1a15bca8e5faa38e1ac31bba0b64736f6c634300081b0033608060405234801561001057600080fd5b506040516123a63803806123a6833981810160405281019061003291906100ed565b806000806101000a81548173ffffffffffffffffffffffffffffffffffffffff021916908373ffffffffffffffffffffffffffffffffffffffff1602179055505061011a565b600080fd5b600073ffffffffffffffffffffffffffffffffffffffff82169050919050565b60006100a88261007d565b9050919050565b60006100ba8261009d565b9050919050565b6100ca816100af565b81146100d557600080fd5b50565b6000815190506100e7816100c1565b92915050565b60006020828403121561010357610102610078565b5b6000610111848285016100d8565b91505092915050565b61227d806101296000396000f3fe608060405234801561001057600080fd5b50600436106100ea5760003560e01c8063901717d11161008c578063ab80cf7611610066578063ab80cf7614610287578063bc1b392d146102b7578063c700da6b146102d5578063fbb740a814610305576100ea565b8063901717d11461021b5780639d2e83f514610239578063a1fca2b614610269576100ea565b80635f6910d4116100c85780635f6910d41461016d5780635fdf05d71461019d57806364c044fe146101bb57806376cfdd66146101eb576100ea565b806307a5ecaa146100ef578063232b9e5a1461011f57806345caa1171461014f575b600080fd5b61010960048036038101906101049190611cb3565b610335565b6040516101169190611e86565b60405180910390f35b61013960048036038101906101349190611cb3565b61072f565b6040516101469190611e86565b60405180910390f35b610157610751565b6040516101649190611e86565b60405180910390f35b61018760048036038101906101829190611cb3565b61088e565b6040516101949190611e86565b60405180910390f35b6101a56109f8565b6040516101b29190611e86565b60405180910390f35b6101d560048036038101906101d09190611ea8565b610b35565b6040516101e29190611e86565b60405180910390f35b61020560048036038101906102009190611ef1565b61105e565b6040516102129190611e86565b60405180910390f35b610223611115565b6040516102309190611e86565b60405180910390f35b610253600480360381019061024e9190611ea8565b611252565b6040516102609190611e86565b60405180910390f35b6102716113bb565b60405161027e9190611e86565b60405180910390f35b6102a1600480360381019061029c9190611cb3565b6114f8565b6040516102ae9190611f49565b60405180910390f35b6102bf611653565b6040516102cc9190611e86565b60405180910390f35b6102ef60048036038101906102ea9190611f64565b611790565b6040516102fc9190611e86565b60405180910390f35b61031f600480360381019061031a9190611cb3565b6117b5565b60405161032c9190611e86565b60405180910390f35b61033d61191f565b61072760008054906101000a900473ffffffffffffffffffffffffffffffffffffffff1673ffffffffffffffffffffffffffffffffffffffff1663fb2bedad60008054906101000a900473ffffffffffffffffffffffffffffffffffffffff1673ffffffffffffffffffffffffffffffffffffffff1663b5e28325876000015187600001516040518363ffffffff1660e01b81526004016103df929190612006565b600060405180830381865afa1580156103fc573d6000803e3d6000fd5b505050506040513d6000823e3d601f19601f8201168201806040525081019061042591906121af565b60008054906101000a900473ffffffffffffffffffffffffffffffffffffffff1673ffffffffffffffffffffffffffffffffffffffff1663b5e28325886020015188602001516040518363ffffffff1660e01b8152600401610488929190612006565b600060405180830381865afa1580156104a5573d6000803e3d6000fd5b505050506040513d6000823e3d601f19601f820116820180604052508101906104ce91906121af565b6040518363ffffffff1660e01b81526004016104eb929190612006565b600060405180830381865afa158015610508573d6000803e3d6000fd5b505050506040513d6000823e3d601f19601f8201168201806040525081019061053191906121af565b60008054906101000a900473ffffffffffffffffffffffffffffffffffffffff1673ffffffffffffffffffffffffffffffffffffffff1663a9a52e7e60008054906101000a900473ffffffffffffffffffffffffffffffffffffffff1673ffffffffffffffffffffffffffffffffffffffff1663b5e28325886000015188602001516040518363ffffffff1660e01b81526004016105d0929190612006565b600060405180830381865afa1580156105ed573d6000803e3d6000fd5b505050506040513d6000823e3d601f19601f8201168201806040525081019061061691906121af565b60008054906101000a900473ffffffffffffffffffffffffffffffffffffffff1673ffffffffffffffffffffffffffffffffffffffff1663b5e28325896020015189600001516040518363ffffffff1660e01b8152600401610679929190612006565b600060405180830381865afa158015610696573d6000803e3d6000fd5b505050506040513d6000823e3d601f19601f820116820180604052508101906106bf91906121af565b6040518363ffffffff1660e01b81526004016106dc929190612006565b600060405180830381865afa1580156106f9573d6000803e3d6000fd5b505050506040513d6000823e3d601f19601f8201168201806040525081019061072291906121af565b611790565b905092915050565b61073761191f565b6107498361074484610b35565b610335565b905092915050565b61075961191f565b61088960008054906101000a900473ffffffffffffffffffffffffffffffffffffffff1673ffffffffffffffffffffffffffffffffffffffff166345caa1176040518163ffffffff1660e01b8152600401600060405180830381865afa1580156107c7573d6000803e3d6000fd5b505050506040513d6000823e3d601f19601f820116820180604052508101906107f091906121af565b60008054906101000a900473ffffffffffffffffffffffffffffffffffffffff1673ffffffffffffffffffffffffffffffffffffffff1663bc1b392d6040518163ffffffff1660e01b8152600401600060405180830381865afa15801561085b573d6000803e3d6000fd5b505050506040513d6000823e3d601f19601f8201168201806040525081019061088491906121af565b611790565b905090565b61089661191f565b6109f060008054906101000a900473ffffffffffffffffffffffffffffffffffffffff1673ffffffffffffffffffffffffffffffffffffffff1663fb2bedad856000015185600001516040518363ffffffff1660e01b81526004016108fc929190612006565b600060405180830381865afa158015610919573d6000803e3d6000fd5b505050506040513d6000823e3d601f19601f8201168201806040525081019061094291906121af565b60008054906101000a900473ffffffffffffffffffffffffffffffffffffffff1673ffffffffffffffffffffffffffffffffffffffff1663fb2bedad866020015186602001516040518363ffffffff1660e01b81526004016109a5929190612006565b600060405180830381865afa1580156109c2573d6000803e3d6000fd5b505050506040513d6000823e3d601f19601f820116820180604052508101906109eb91906121af565b611790565b905092915050565b610a0061191f565b610b3060008054906101000a900473ffffffffffffffffffffffffffffffffffffffff1673ffffffffffffffffffffffffffffffffffffffff16635fdf05d76040518163ffffffff1660e01b8152600401600060405180830381865afa158015610a6e573d6000803e3d6000fd5b505050506040513d6000823e3d601f19601f82011682018060405250810190610a9791906121af565b60008054906101000a900473ffffffffffffffffffffffffffffffffffffffff1673ffffffffffffffffffffffffffffffffffffffff1663bc1b392d6040518163ffffffff1660e01b8152600401600060405180830381865afa158015610b02573d6000803e3d6000fd5b505050506040513d6000823e3d601f19601f82011682018060405250810190610b2b91906121af565b611790565b905090565b610b3d61191f565b60008060009054906101000a900473ffffffffffffffffffffffffffffffffffffffff1673ffffffffffffffffffffffffffffffffffffffff1663a672d10060008054906101000a900473ffffffffffffffffffffffffffffffffffffffff1673ffffffffffffffffffffffffffffffffffffffff1663a9a52e7e60008054906101000a900473ffffffffffffffffffffffffffffffffffffffff1673ffffffffffffffffffffffffffffffffffffffff1663b5e28325886000015189600001516040518363ffffffff1660e01b8152600401610c1b929190612006565b600060405180830381865afa158015610c38573d6000803e3d6000fd5b505050506040513d6000823e3d601f19601f82011682018060405250810190610c6191906121af565b60008054906101000a900473ffffffffffffffffffffffffffffffffffffffff1673ffffffffffffffffffffffffffffffffffffffff1663b5e2832589602001518a602001516040518363ffffffff1660e01b8152600401610cc4929190612006565b600060405180830381865afa158015610ce1573d6000803e3d6000fd5b505050506040513d6000823e3d601f19601f82011682018060405250810190610d0a91906121af565b6040518363ffffffff1660e01b8152600401610d27929190612006565b600060405180830381865afa158015610d44573d6000803e3d6000fd5b505050506040513d6000823e3d601f19601f82011682018060405250810190610d6d91906121af565b6040518263ffffffff1660e01b8152600401610d8991906121f8565b600060405180830381865afa158015610da6573d6000803e3d6000fd5b505050506040513d6000823e3d601f19601f82011682018060405250810190610dcf91906121af565b905061105660008054906101000a900473ffffffffffffffffffffffffffffffffffffffff1673ffffffffffffffffffffffffffffffffffffffff1663b5e283258560000151846040518363ffffffff1660e01b8152600401610e33929190612006565b600060405180830381865afa158015610e50573d6000803e3d6000fd5b505050506040513d6000823e3d601f19601f82011682018060405250810190610e7991906121af565b60008054906101000a900473ffffffffffffffffffffffffffffffffffffffff1673ffffffffffffffffffffffffffffffffffffffff1663b5e2832560008054906101000a900473ffffffffffffffffffffffffffffffffffffffff1673ffffffffffffffffffffffffffffffffffffffff1663fb2bedad60008054906101000a900473ffffffffffffffffffffffffffffffffffffffff1673ffffffffffffffffffffffffffffffffffffffff1663bc1b392d6040518163ffffffff1660e01b8152600401600060405180830381865afa158015610f5c573d6000803e3d6000fd5b505050506040513d6000823e3d601f19601f82011682018060405250810190610f8591906121af565b89602001516040518363ffffffff1660e01b8152600401610fa7929190612006565b600060405180830381865afa158015610fc4573d6000803e3d6000fd5b505050506040513d6000823e3d601f19601f82011682018060405250810190610fed91906121af565b856040518363ffffffff1660e01b815260040161100b929190612006565b600060405180830381865afa158015611028573d6000803e3d6000fd5b505050506040513d6000823e3d601f19601f8201168201806040525081019061105191906121af565b611790565b915050919050565b61106661191f565b604051806040016040528083815260200160008054906101000a900473ffffffffffffffffffffffffffffffffffffffff1673ffffffffffffffffffffffffffffffffffffffff1663bc1b392d6040518163ffffffff1660e01b8152600401600060405180830381865afa1580156110e2573d6000803e3d6000fd5b505050506040513d6000823e3d601f19601f8201168201806040525081019061110b91906121af565b8152509050919050565b61111d61191f565b61124d60008054906101000a900473ffffffffffffffffffffffffffffffffffffffff1673ffffffffffffffffffffffffffffffffffffffff1663901717d16040518163ffffffff1660e01b8152600401600060405180830381865afa15801561118b573d6000803e3d6000fd5b505050506040513d6000823e3d601f19601f820116820180604052508101906111b491906121af565b60008054906101000a900473ffffffffffffffffffffffffffffffffffffffff1673ffffffffffffffffffffffffffffffffffffffff1663bc1b392d6040518163ffffffff1660e01b8152600401600060405180830381865afa15801561121f573d6000803e3d6000fd5b505050506040513d6000823e3d601f19601f8201168201806040525081019061124891906121af565b611790565b905090565b61125a61191f565b6113b460008054906101000a900473ffffffffffffffffffffffffffffffffffffffff1673ffffffffffffffffffffffffffffffffffffffff1663fb2bedad846000015185602001516040518363ffffffff1660e01b81526004016112c0929190612006565b600060405180830381865afa1580156112dd573d6000803e3d6000fd5b505050506040513d6000823e3d601f19601f8201168201806040525081019061130691906121af565b60008054906101000a900473ffffffffffffffffffffffffffffffffffffffff1673ffffffffffffffffffffffffffffffffffffffff1663a9a52e7e856000015186602001516040518363ffffffff1660e01b8152600401611369929190612006565b600060405180830381865afa158015611386573d6000803e3d6000fd5b505050506040513d6000823e3d601f19601f820116820180604052508101906113af91906121af565b611790565b9050919050565b6113c361191f565b6114f360008054906101000a900473ffffffffffffffffffffffffffffffffffffffff1673ffffffffffffffffffffffffffffffffffffffff1663a1fca2b66040518163ffffffff1660e01b8152600401600060405180830381865afa158015611431573d6000803e3d6000fd5b505050506040513d6000823e3d601f19601f8201168201806040525081019061145a91906121af565b60008054906101000a900473ffffffffffffffffffffffffffffffffffffffff1673ffffffffffffffffffffffffffffffffffffffff1663bc1b392d6040518163ffffffff1660e01b8152600401600060405180830381865afa1580156114c5573d6000803e3d6000fd5b505050506040513d6000823e3d601f19601f820116820180604052508101906114ee91906121af565b611790565b905090565b60008060009054906101000a900473ffffffffffffffffffffffffffffffffffffffff1673ffffffffffffffffffffffffffffffffffffffff1663d4d45554846000015184600001516040518363ffffffff1660e01b815260040161155e929190612006565b602060405180830381865afa15801561157b573d6000803e3d6000fd5b505050506040513d601f19601f8201168201806040525081019061159f919061221a565b801561164b575060008054906101000a900473ffffffffffffffffffffffffffffffffffffffff1673ffffffffffffffffffffffffffffffffffffffff1663d4d45554846020015184602001516040518363ffffffff1660e01b8152600401611609929190612006565b602060405180830381865afa158015611626573d6000803e3d6000fd5b505050506040513d601f19601f8201168201806040525081019061164a919061221a565b5b905092915050565b61165b61191f565b61178b60008054906101000a900473ffffffffffffffffffffffffffffffffffffffff1673ffffffffffffffffffffffffffffffffffffffff1663bc1b392d6040518163ffffffff1660e01b8152600401600060405180830381865afa1580156116c9573d6000803e3d6000fd5b505050506040513d6000823e3d601f19601f820116820180604052508101906116f291906121af565b60008054906101000a900473ffffffffffffffffffffffffffffffffffffffff1673ffffffffffffffffffffffffffffffffffffffff1663bc1b392d6040518163ffffffff1660e01b8152600401600060405180830381865afa15801561175d573d6000803e3d6000fd5b505050506040513d6000823e3d601f19601f8201168201806040525081019061178691906121af565b611790565b905090565b61179861191f565b604051806040016040528084815260200183815250905092915050565b6117bd61191f565b61191760008054906101000a900473ffffffffffffffffffffffffffffffffffffffff1673ffffffffffffffffffffffffffffffffffffffff1663a9a52e7e856000015185600001516040518363ffffffff1660e01b8152600401611823929190612006565b600060405180830381865afa158015611840573d6000803e3d6000fd5b505050506040513d6000823e3d601f19601f8201168201806040525081019061186991906121af565b60008054906101000a900473ffffffffffffffffffffffffffffffffffffffff1673ffffffffffffffffffffffffffffffffffffffff1663a9a52e7e866020015186602001516040518363ffffffff1660e01b81526004016118cc929190612006565b600060405180830381865afa1580156118e9573d6000803e3d6000fd5b505050506040513d6000823e3d601f19601f8201168201806040525081019061191291906121af565b611790565b905092915050565b6040518060400160405280611932611945565b815260200161193f611945565b81525090565b604051806020016040528061195861195e565b81525090565b604051806060016040528060608152602001600015158152602001600081525090565b6000604051905090565b600080fd5b600080fd5b600080fd5b6000601f19601f8301169050919050565b7f4e487b7100000000000000000000000000000000000000000000000000000000600052604160045260246000fd5b6119e38261199a565b810181811067ffffffffffffffff82111715611a0257611a016119ab565b5b80604052505050565b6000611a15611981565b9050611a2182826119da565b919050565b600080fd5b600080fd5b600080fd5b600067ffffffffffffffff821115611a5057611a4f6119ab565b5b611a598261199a565b9050602081019050919050565b82818337600083830152505050565b6000611a88611a8384611a35565b611a0b565b905082815260208101848484011115611aa457611aa3611a30565b5b611aaf848285611a66565b509392505050565b600082601f830112611acc57611acb611a2b565b5b8135611adc848260208601611a75565b91505092915050565b60008115159050919050565b611afa81611ae5565b8114611b0557600080fd5b50565b600081359050611b1781611af1565b92915050565b6000819050919050565b611b3081611b1d565b8114611b3b57600080fd5b50565b600081359050611b4d81611b27565b92915050565b600060608284031215611b6957611b68611995565b5b611b736060611a0b565b9050600082013567ffffffffffffffff811115611b9357611b92611a26565b5b611b9f84828501611ab7565b6000830152506020611bb384828501611b08565b6020830152506040611bc784828501611b3e565b60408301525092915050565b600060208284031215611be957611be8611995565b5b611bf36020611a0b565b9050600082013567ffffffffffffffff811115611c1357611c12611a26565b5b611c1f84828501611b53565b60008301525092915050565b600060408284031215611c4157611c40611995565b5b611c4b6040611a0b565b9050600082013567ffffffffffffffff811115611c6b57611c6a611a26565b5b611c7784828501611bd3565b600083015250602082013567ffffffffffffffff811115611c9b57611c9a611a26565b5b611ca784828501611bd3565b60208301525092915050565b60008060408385031215611cca57611cc961198b565b5b600083013567ffffffffffffffff811115611ce857611ce7611990565b5b611cf485828601611c2b565b925050602083013567ffffffffffffffff811115611d1557611d14611990565b5b611d2185828601611c2b565b9150509250929050565b600081519050919050565b600082825260208201905092915050565b60005b83811015611d65578082015181840152602081019050611d4a565b60008484015250505050565b6000611d7c82611d2b565b611d868185611d36565b9350611d96818560208601611d47565b611d9f8161199a565b840191505092915050565b611db381611ae5565b82525050565b611dc281611b1d565b82525050565b60006060830160008301518482036000860152611de58282611d71565b9150506020830151611dfa6020860182611daa565b506040830151611e0d6040860182611db9565b508091505092915050565b60006020830160008301518482036000860152611e358282611dc8565b9150508091505092915050565b60006040830160008301518482036000860152611e5f8282611e18565b91505060208301518482036020860152611e798282611e18565b9150508091505092915050565b60006020820190508181036000830152611ea08184611e42565b905092915050565b600060208284031215611ebe57611ebd61198b565b5b600082013567ffffffffffffffff811115611edc57611edb611990565b5b611ee884828501611c2b565b91505092915050565b600060208284031215611f0757611f0661198b565b5b600082013567ffffffffffffffff811115611f2557611f24611990565b5b611f3184828501611bd3565b91505092915050565b611f4381611ae5565b82525050565b6000602082019050611f5e6000830184611f3a565b92915050565b60008060408385031215611f7b57611f7a61198b565b5b600083013567ffffffffffffffff811115611f9957611f98611990565b5b611fa585828601611bd3565b925050602083013567ffffffffffffffff811115611fc657611fc5611990565b5b611fd285828601611bd3565b9150509250929050565b60006020830160008301518482036000860152611ff98282611dc8565b9150508091505092915050565b600060408201905081810360008301526120208185611fdc565b905081810360208301526120348184611fdc565b90509392505050565b600061205061204b84611a35565b611a0b565b90508281526020810184848401111561206c5761206b611a30565b5b612077848285611d47565b509392505050565b600082601f83011261209457612093611a2b565b5b81516120a484826020860161203d565b91505092915050565b6000815190506120bc81611af1565b92915050565b6000815190506120d181611b27565b92915050565b6000606082840312156120ed576120ec611995565b5b6120f76060611a0b565b9050600082015167ffffffffffffffff81111561211757612116611a26565b5b6121238482850161207f565b6000830152506020612137848285016120ad565b602083015250604061214b848285016120c2565b60408301525092915050565b60006020828403121561216d5761216c611995565b5b6121776020611a0b565b9050600082015167ffffffffffffffff81111561219757612196611a26565b5b6121a3848285016120d7565b60008301525092915050565b6000602082840312156121c5576121c461198b565b5b600082015167ffffffffffffffff8111156121e3576121e2611990565b5b6121ef84828501612157565b91505092915050565b600060208201905081810360008301526122128184611fdc565b905092915050565b6000602082840312156122305761222f61198b565b5b600061223e848285016120ad565b9150509291505056fea2646970667358221220c0b0f4174595a1542f5edabd8eb7ee4127a8368bb7d074ce4cb7f958c003441364736f6c634300081b0033608060405234801561001057600080fd5b50604051613b10380380613b10833981810160405281019061003291906100ed565b806000806101000a81548173ffffffffffffffffffffffffffffffffffffffff021916908373ffffffffffffffffffffffffffffffffffffffff1602179055505061011a565b600080fd5b600073ffffffffffffffffffffffffffffffffffffffff82169050919050565b60006100a88261007d565b9050919050565b60006100ba8261009d565b9050919050565b6100ca816100af565b81146100d557600080fd5b50565b6000815190506100e7816100c1565b92915050565b60006020828403121561010357610102610078565b5b6000610111848285016100d8565b91505092915050565b6139e7806101296000396000f3fe608060405234801561001057600080fd5b50600436106100ea5760003560e01c8063a03823051161008c578063ba510cc311610066578063ba510cc314610287578063bc1b392d146102b7578063d6ba3d6d146102d5578063f7052ed614610305576100ea565b8063a038230514610209578063a1fca2b614610239578063b52ab3b114610257576100ea565b806376cfdd66116100c857806376cfdd661461015b5780637e2892801461018b578063901717d1146101bb5780639faceb7e146101d9576100ea565b806345caa117146100ef5780634aa28cb51461010d5780635fdf05d71461013d575b600080fd5b6100f7610335565b6040516101049190613098565b60405180910390f35b6101276004803603810190610122919061347d565b610506565b6040516101349190613098565b60405180910390f35b610145611028565b6040516101529190613098565b60405180910390f35b610175600480360381019061017091906134f5565b6111f9565b6040516101829190613098565b60405180910390f35b6101a560048036038101906101a0919061347d565b6113e7565b6040516101b29190613098565b60405180910390f35b6101c36115fa565b6040516101d09190613098565b60405180910390f35b6101f360048036038101906101ee919061353e565b6117cb565b6040516102009190613098565b60405180910390f35b610223600480360381019061021e919061347d565b6117f7565b60405161023091906135f4565b60405180910390f35b6102416119fe565b60405161024e9190613098565b60405180910390f35b610271600480360381019061026c919061360f565b611bcf565b60405161027e9190613098565b60405180910390f35b6102a1600480360381019061029c919061347d565b611c93565b6040516102ae9190613098565b60405180910390f35b6102bf611cb5565b6040516102cc9190613098565b60405180910390f35b6102ef60048036038101906102ea919061360f565b611e86565b6040516102fc9190613098565b60405180910390f35b61031f600480360381019061031a919061347d565b612c10565b60405161032c9190613098565b60405180910390f35b61033d612e23565b61050160008054906101000a900473ffffffffffffffffffffffffffffffffffffffff1673ffffffffffffffffffffffffffffffffffffffff166345caa1176040518163ffffffff1660e01b8152600401600060405180830381865afa1580156103ab573d6000803e3d6000fd5b505050506040513d6000823e3d601f19601f820116820180604052508101906103d49190613852565b60008054906101000a900473ffffffffffffffffffffffffffffffffffffffff1673ffffffffffffffffffffffffffffffffffffffff1663bc1b392d6040518163ffffffff1660e01b8152600401600060405180830381865afa15801561043f573d6000803e3d6000fd5b505050506040513d6000823e3d601f19601f820116820180604052508101906104689190613852565b60008054906101000a900473ffffffffffffffffffffffffffffffffffffffff1673ffffffffffffffffffffffffffffffffffffffff1663bc1b392d6040518163ffffffff1660e01b8152600401600060405180830381865afa1580156104d3573d6000803e3d6000fd5b505050506040513d6000823e3d601f19601f820116820180604052508101906104fc9190613852565b6117cb565b905090565b61050e612e23565b60008060009054906101000a900473ffffffffffffffffffffffffffffffffffffffff1673ffffffffffffffffffffffffffffffffffffffff166307a5ecaa856000015185600001516040518363ffffffff1660e01b81526004016105749291906138df565b600060405180830381865afa158015610591573d6000803e3d6000fd5b505050506040513d6000823e3d601f19601f820116820180604052508101906105ba9190613852565b905060008060009054906101000a900473ffffffffffffffffffffffffffffffffffffffff1673ffffffffffffffffffffffffffffffffffffffff1663fbb740a860008054906101000a900473ffffffffffffffffffffffffffffffffffffffff1673ffffffffffffffffffffffffffffffffffffffff166307a5ecaa886000015188602001516040518363ffffffff1660e01b815260040161065e9291906138df565b600060405180830381865afa15801561067b573d6000803e3d6000fd5b505050506040513d6000823e3d601f19601f820116820180604052508101906106a49190613852565b60008054906101000a900473ffffffffffffffffffffffffffffffffffffffff1673ffffffffffffffffffffffffffffffffffffffff166307a5ecaa896020015189600001516040518363ffffffff1660e01b81526004016107079291906138df565b600060405180830381865afa158015610724573d6000803e3d6000fd5b505050506040513d6000823e3d601f19601f8201168201806040525081019061074d9190613852565b6040518363ffffffff1660e01b815260040161076a9291906138df565b600060405180830381865afa158015610787573d6000803e3d6000fd5b505050506040513d6000823e3d601f19601f820116820180604052508101906107b09190613852565b905060008060009054906101000a900473ffffffffffffffffffffffffffffffffffffffff1673ffffffffffffffffffffffffffffffffffffffff1663fbb740a860008054906101000a900473ffffffffffffffffffffffffffffffffffffffff1673ffffffffffffffffffffffffffffffffffffffff1663fbb740a860008054906101000a900473ffffffffffffffffffffffffffffffffffffffff1673ffffffffffffffffffffffffffffffffffffffff166307a5ecaa8b600001518b604001516040518363ffffffff1660e01b81526004016108909291906138df565b600060405180830381865afa1580156108ad573d6000803e3d6000fd5b505050506040513d6000823e3d601f19601f820116820180604052508101906108d69190613852565b60008054906101000a900473ffffffffffffffffffffffffffffffffffffffff1673ffffffffffffffffffffffffffffffffffffffff166307a5ecaa8c602001518c602001516040518363ffffffff1660e01b81526004016109399291906138df565b600060405180830381865afa158015610956573d6000803e3d6000fd5b505050506040513d6000823e3d601f19601f8201168201806040525081019061097f9190613852565b6040518363ffffffff1660e01b815260040161099c9291906138df565b600060405180830381865afa1580156109b9573d6000803e3d6000fd5b505050506040513d6000823e3d601f19601f820116820180604052508101906109e29190613852565b60008054906101000a900473ffffffffffffffffffffffffffffffffffffffff1673ffffffffffffffffffffffffffffffffffffffff166307a5ecaa8a604001518a600001516040518363ffffffff1660e01b8152600401610a459291906138df565b600060405180830381865afa158015610a62573d6000803e3d6000fd5b505050506040513d6000823e3d601f19601f82011682018060405250810190610a8b9190613852565b6040518363ffffffff1660e01b8152600401610aa89291906138df565b600060405180830381865afa158015610ac5573d6000803e3d6000fd5b505050506040513d6000823e3d601f19601f82011682018060405250810190610aee9190613852565b905060008060009054906101000a900473ffffffffffffffffffffffffffffffffffffffff1673ffffffffffffffffffffffffffffffffffffffff16639d2e83f560008054906101000a900473ffffffffffffffffffffffffffffffffffffffff1673ffffffffffffffffffffffffffffffffffffffff1663fbb740a860008054906101000a900473ffffffffffffffffffffffffffffffffffffffff1673ffffffffffffffffffffffffffffffffffffffff166307a5ecaa8c602001518c604001516040518363ffffffff1660e01b8152600401610bce9291906138df565b600060405180830381865afa158015610beb573d6000803e3d6000fd5b505050506040513d6000823e3d601f19601f82011682018060405250810190610c149190613852565b60008054906101000a900473ffffffffffffffffffffffffffffffffffffffff1673ffffffffffffffffffffffffffffffffffffffff166307a5ecaa8d604001518d602001516040518363ffffffff1660e01b8152600401610c779291906138df565b600060405180830381865afa158015610c94573d6000803e3d6000fd5b505050506040513d6000823e3d601f19601f82011682018060405250810190610cbd9190613852565b6040518363ffffffff1660e01b8152600401610cda9291906138df565b600060405180830381865afa158015610cf7573d6000803e3d6000fd5b505050506040513d6000823e3d601f19601f82011682018060405250810190610d209190613852565b6040518263ffffffff1660e01b8152600401610d3c9190613916565b600060405180830381865afa158015610d59573d6000803e3d6000fd5b505050506040513d6000823e3d601f19601f82011682018060405250810190610d829190613852565b905060008060009054906101000a900473ffffffffffffffffffffffffffffffffffffffff1673ffffffffffffffffffffffffffffffffffffffff16639d2e83f560008054906101000a900473ffffffffffffffffffffffffffffffffffffffff1673ffffffffffffffffffffffffffffffffffffffff166307a5ecaa8b604001518b604001516040518363ffffffff1660e01b8152600401610e269291906138df565b600060405180830381865afa158015610e43573d6000803e3d6000fd5b505050506040513d6000823e3d601f19601f82011682018060405250810190610e6c9190613852565b6040518263ffffffff1660e01b8152600401610e889190613916565b600060405180830381865afa158015610ea5573d6000803e3d6000fd5b505050506040513d6000823e3d601f19601f82011682018060405250810190610ece9190613852565b905061101b60008054906101000a900473ffffffffffffffffffffffffffffffffffffffff1673ffffffffffffffffffffffffffffffffffffffff1663fbb740a887856040518363ffffffff1660e01b8152600401610f2e9291906138df565b600060405180830381865afa158015610f4b573d6000803e3d6000fd5b505050506040513d6000823e3d601f19601f82011682018060405250810190610f749190613852565b60008054906101000a900473ffffffffffffffffffffffffffffffffffffffff1673ffffffffffffffffffffffffffffffffffffffff1663fbb740a887856040518363ffffffff1660e01b8152600401610fcf9291906138df565b600060405180830381865afa158015610fec573d6000803e3d6000fd5b505050506040513d6000823e3d601f19601f820116820180604052508101906110159190613852565b856117cb565b9550505050505092915050565b611030612e23565b6111f460008054906101000a900473ffffffffffffffffffffffffffffffffffffffff1673ffffffffffffffffffffffffffffffffffffffff16635fdf05d76040518163ffffffff1660e01b8152600401600060405180830381865afa15801561109e573d6000803e3d6000fd5b505050506040513d6000823e3d601f19601f820116820180604052508101906110c79190613852565b60008054906101000a900473ffffffffffffffffffffffffffffffffffffffff1673ffffffffffffffffffffffffffffffffffffffff1663bc1b392d6040518163ffffffff1660e01b8152600401600060405180830381865afa158015611132573d6000803e3d6000fd5b505050506040513d6000823e3d601f19601f8201168201806040525081019061115b9190613852565b60008054906101000a900473ffffffffffffffffffffffffffffffffffffffff1673ffffffffffffffffffffffffffffffffffffffff1663bc1b392d6040518163ffffffff1660e01b8152600401600060405180830381865afa1580156111c6573d6000803e3d6000fd5b505050506040513d6000823e3d601f19601f820116820180604052508101906111ef9190613852565b6117cb565b905090565b611201612e23565b604051806060016040528060008054906101000a900473ffffffffffffffffffffffffffffffffffffffff1673ffffffffffffffffffffffffffffffffffffffff166376cfdd66856040518263ffffffff1660e01b81526004016112659190613962565b600060405180830381865afa158015611282573d6000803e3d6000fd5b505050506040513d6000823e3d601f19601f820116820180604052508101906112ab9190613852565b815260200160008054906101000a900473ffffffffffffffffffffffffffffffffffffffff1673ffffffffffffffffffffffffffffffffffffffff1663bc1b392d6040518163ffffffff1660e01b8152600401600060405180830381865afa15801561131b573d6000803e3d6000fd5b505050506040513d6000823e3d601f19601f820116820180604052508101906113449190613852565b815260200160008054906101000a900473ffffffffffffffffffffffffffffffffffffffff1673ffffffffffffffffffffffffffffffffffffffff1663bc1b392d6040518163ffffffff1660e01b8152600401600060405180830381865afa1580156113b4573d6000803e3d6000fd5b505050506040513d6000823e3d601f19601f820116820180604052508101906113dd9190613852565b8152509050919050565b6113ef612e23565b6115f260008054906101000a900473ffffffffffffffffffffffffffffffffffffffff1673ffffffffffffffffffffffffffffffffffffffff1663fbb740a8856000015185600001516040518363ffffffff1660e01b81526004016114559291906138df565b600060405180830381865afa158015611472573d6000803e3d6000fd5b505050506040513d6000823e3d601f19601f8201168201806040525081019061149b9190613852565b60008054906101000a900473ffffffffffffffffffffffffffffffffffffffff1673ffffffffffffffffffffffffffffffffffffffff1663fbb740a8866020015186602001516040518363ffffffff1660e01b81526004016114fe9291906138df565b600060405180830381865afa15801561151b573d6000803e3d6000fd5b505050506040513d6000823e3d601f19601f820116820180604052508101906115449190613852565b60008054906101000a900473ffffffffffffffffffffffffffffffffffffffff1673ffffffffffffffffffffffffffffffffffffffff1663fbb740a8876040015187604001516040518363ffffffff1660e01b81526004016115a79291906138df565b600060405180830381865afa1580156115c4573d6000803e3d6000fd5b505050506040513d6000823e3d601f19601f820116820180604052508101906115ed9190613852565b6117cb565b905092915050565b611602612e23565b6117c660008054906101000a900473ffffffffffffffffffffffffffffffffffffffff1673ffffffffffffffffffffffffffffffffffffffff1663901717d16040518163ffffffff1660e01b8152600401600060405180830381865afa158015611670573d6000803e3d6000fd5b505050506040513d6000823e3d601f19601f820116820180604052508101906116999190613852565b60008054906101000a900473ffffffffffffffffffffffffffffffffffffffff1673ffffffffffffffffffffffffffffffffffffffff1663bc1b392d6040518163ffffffff1660e01b8152600401600060405180830381865afa158015611704573d6000803e3d6000fd5b505050506040513d6000823e3d601f19601f8201168201806040525081019061172d9190613852565b60008054906101000a900473ffffffffffffffffffffffffffffffffffffffff1673ffffffffffffffffffffffffffffffffffffffff1663bc1b392d6040518163ffffffff1660e01b8152600401600060405180830381865afa158015611798573d6000803e3d6000fd5b505050506040513d6000823e3d601f19601f820116820180604052508101906117c19190613852565b6117cb565b905090565b6117d3612e23565b60405180606001604052808581526020018481526020018381525090509392505050565b60008060009054906101000a900473ffffffffffffffffffffffffffffffffffffffff1673ffffffffffffffffffffffffffffffffffffffff1663ab80cf76846000015184600001516040518363ffffffff1660e01b815260040161185d9291906138df565b602060405180830381865afa15801561187a573d6000803e3d6000fd5b505050506040513d601f19601f8201168201806040525081019061189e9190613984565b801561194a575060008054906101000a900473ffffffffffffffffffffffffffffffffffffffff1673ffffffffffffffffffffffffffffffffffffffff1663ab80cf76846020015184602001516040518363ffffffff1660e01b81526004016119089291906138df565b602060405180830381865afa158015611925573d6000803e3d6000fd5b505050506040513d601f19601f820116820180604052508101906119499190613984565b5b80156119f6575060008054906101000a900473ffffffffffffffffffffffffffffffffffffffff1673ffffffffffffffffffffffffffffffffffffffff1663ab80cf76846040015184604001516040518363ffffffff1660e01b81526004016119b49291906138df565b602060405180830381865afa1580156119d1573d6000803e3d6000fd5b505050506040513d601f19601f820116820180604052508101906119f59190613984565b5b905092915050565b611a06612e23565b611bca60008054906101000a900473ffffffffffffffffffffffffffffffffffffffff1673ffffffffffffffffffffffffffffffffffffffff1663a1fca2b66040518163ffffffff1660e01b8152600401600060405180830381865afa158015611a74573d6000803e3d6000fd5b505050506040513d6000823e3d601f19601f82011682018060405250810190611a9d9190613852565b60008054906101000a900473ffffffffffffffffffffffffffffffffffffffff1673ffffffffffffffffffffffffffffffffffffffff1663bc1b392d6040518163ffffffff1660e01b8152600401600060405180830381865afa158015611b08573d6000803e3d6000fd5b505050506040513d6000823e3d601f19601f82011682018060405250810190611b319190613852565b60008054906101000a900473ffffffffffffffffffffffffffffffffffffffff1673ffffffffffffffffffffffffffffffffffffffff1663bc1b392d6040518163ffffffff1660e01b8152600401600060405180830381865afa158015611b9c573d6000803e3d6000fd5b505050506040513d6000823e3d601f19601f82011682018060405250810190611bc59190613852565b6117cb565b905090565b611bd7612e23565b611c8c60008054906101000a900473ffffffffffffffffffffffffffffffffffffffff1673ffffffffffffffffffffffffffffffffffffffff16639d2e83f584604001516040518263ffffffff1660e01b8152600401611c379190613916565b600060405180830381865afa158015611c54573d6000803e3d6000fd5b505050506040513d6000823e3d601f19601f82011682018060405250810190611c7d9190613852565b836000015184602001516117cb565b9050919050565b611c9b612e23565b611cad83611ca884611e86565b610506565b905092915050565b611cbd612e23565b611e8160008054906101000a900473ffffffffffffffffffffffffffffffffffffffff1673ffffffffffffffffffffffffffffffffffffffff1663bc1b392d6040518163ffffffff1660e01b8152600401600060405180830381865afa158015611d2b573d6000803e3d6000fd5b505050506040513d6000823e3d601f19601f82011682018060405250810190611d549190613852565b60008054906101000a900473ffffffffffffffffffffffffffffffffffffffff1673ffffffffffffffffffffffffffffffffffffffff1663bc1b392d6040518163ffffffff1660e01b8152600401600060405180830381865afa158015611dbf573d6000803e3d6000fd5b505050506040513d6000823e3d601f19601f82011682018060405250810190611de89190613852565b60008054906101000a900473ffffffffffffffffffffffffffffffffffffffff1673ffffffffffffffffffffffffffffffffffffffff1663bc1b392d6040518163ffffffff1660e01b8152600401600060405180830381865afa158015611e53573d6000803e3d6000fd5b505050506040513d6000823e3d601f19601f82011682018060405250810190611e7c9190613852565b6117cb565b905090565b611e8e612e23565b60008060009054906101000a900473ffffffffffffffffffffffffffffffffffffffff1673ffffffffffffffffffffffffffffffffffffffff16635f6910d460008054906101000a900473ffffffffffffffffffffffffffffffffffffffff1673ffffffffffffffffffffffffffffffffffffffff166307a5ecaa866000015187600001516040518363ffffffff1660e01b8152600401611f309291906138df565b600060405180830381865afa158015611f4d573d6000803e3d6000fd5b505050506040513d6000823e3d601f19601f82011682018060405250810190611f769190613852565b60008054906101000a900473ffffffffffffffffffffffffffffffffffffffff1673ffffffffffffffffffffffffffffffffffffffff16639d2e83f560008054906101000a900473ffffffffffffffffffffffffffffffffffffffff1673ffffffffffffffffffffffffffffffffffffffff166307a5ecaa89602001518a604001516040518363ffffffff1660e01b81526004016120159291906138df565b600060405180830381865afa158015612032573d6000803e3d6000fd5b505050506040513d6000823e3d601f19601f8201168201806040525081019061205b9190613852565b6040518263ffffffff1660e01b81526004016120779190613916565b600060405180830381865afa158015612094573d6000803e3d6000fd5b505050506040513d6000823e3d601f19601f820116820180604052508101906120bd9190613852565b6040518363ffffffff1660e01b81526004016120da9291906138df565b600060405180830381865afa1580156120f7573d6000803e3d6000fd5b505050506040513d6000823e3d601f19601f820116820180604052508101906121209190613852565b905060008060009054906101000a900473ffffffffffffffffffffffffffffffffffffffff1673ffffffffffffffffffffffffffffffffffffffff16635f6910d460008054906101000a900473ffffffffffffffffffffffffffffffffffffffff1673ffffffffffffffffffffffffffffffffffffffff16639d2e83f560008054906101000a900473ffffffffffffffffffffffffffffffffffffffff1673ffffffffffffffffffffffffffffffffffffffff166307a5ecaa89604001518a604001516040518363ffffffff1660e01b81526004016122009291906138df565b600060405180830381865afa15801561221d573d6000803e3d6000fd5b505050506040513d6000823e3d601f19601f820116820180604052508101906122469190613852565b6040518263ffffffff1660e01b81526004016122629190613916565b600060405180830381865afa15801561227f573d6000803e3d6000fd5b505050506040513d6000823e3d601f19601f820116820180604052508101906122a89190613852565b60008054906101000a900473ffffffffffffffffffffffffffffffffffffffff1673ffffffffffffffffffffffffffffffffffffffff166307a5ecaa886000015189602001516040518363ffffffff1660e01b815260040161230b9291906138df565b600060405180830381865afa158015612328573d6000803e3d6000fd5b505050506040513d6000823e3d601f19601f820116820180604052508101906123519190613852565b6040518363ffffffff1660e01b815260040161236e9291906138df565b600060405180830381865afa15801561238b573d6000803e3d6000fd5b505050506040513d6000823e3d601f19601f820116820180604052508101906123b49190613852565b905060008060009054906101000a900473ffffffffffffffffffffffffffffffffffffffff1673ffffffffffffffffffffffffffffffffffffffff16635f6910d460008054906101000a900473ffffffffffffffffffffffffffffffffffffffff1673ffffffffffffffffffffffffffffffffffffffff166307a5ecaa886020015189602001516040518363ffffffff1660e01b81526004016124589291906138df565b600060405180830381865afa158015612475573d6000803e3d6000fd5b505050506040513d6000823e3d601f19601f8201168201806040525081019061249e9190613852565b60008054906101000a900473ffffffffffffffffffffffffffffffffffffffff1673ffffffffffffffffffffffffffffffffffffffff166307a5ecaa89600001518a604001516040518363ffffffff1660e01b81526004016125019291906138df565b600060405180830381865afa15801561251e573d6000803e3d6000fd5b505050506040513d6000823e3d601f19601f820116820180604052508101906125479190613852565b6040518363ffffffff1660e01b81526004016125649291906138df565b600060405180830381865afa158015612581573d6000803e3d6000fd5b505050506040513d6000823e3d601f19601f820116820180604052508101906125aa9190613852565b905060008060009054906101000a900473ffffffffffffffffffffffffffffffffffffffff1673ffffffffffffffffffffffffffffffffffffffff1663fbb740a860008054906101000a900473ffffffffffffffffffffffffffffffffffffffff1673ffffffffffffffffffffffffffffffffffffffff1663fbb740a860008054906101000a900473ffffffffffffffffffffffffffffffffffffffff1673ffffffffffffffffffffffffffffffffffffffff166307a5ecaa8b600001518a6040518363ffffffff1660e01b81526004016126869291906138df565b600060405180830381865afa1580156126a3573d6000803e3d6000fd5b505050506040513d6000823e3d601f19601f820116820180604052508101906126cc9190613852565b60008054906101000a900473ffffffffffffffffffffffffffffffffffffffff1673ffffffffffffffffffffffffffffffffffffffff16639d2e83f560008054906101000a900473ffffffffffffffffffffffffffffffffffffffff1673ffffffffffffffffffffffffffffffffffffffff166307a5ecaa8e604001518c6040518363ffffffff1660e01b81526004016127679291906138df565b600060405180830381865afa158015612784573d6000803e3d6000fd5b505050506040513d6000823e3d601f19601f820116820180604052508101906127ad9190613852565b6040518263ffffffff1660e01b81526004016127c99190613916565b600060405180830381865afa1580156127e6573d6000803e3d6000fd5b505050506040513d6000823e3d601f19601f8201168201806040525081019061280f9190613852565b6040518363ffffffff1660e01b815260040161282c9291906138df565b600060405180830381865afa158015612849573d6000803e3d6000fd5b505050506040513d6000823e3d601f19601f820116820180604052508101906128729190613852565b60008054906101000a900473ffffffffffffffffffffffffffffffffffffffff1673ffffffffffffffffffffffffffffffffffffffff16639d2e83f560008054906101000a900473ffffffffffffffffffffffffffffffffffffffff1673ffffffffffffffffffffffffffffffffffffffff166307a5ecaa8c60200151896040518363ffffffff1660e01b815260040161290d9291906138df565b600060405180830381865afa15801561292a573d6000803e3d6000fd5b505050506040513d6000823e3d601f19601f820116820180604052508101906129539190613852565b6040518263ffffffff1660e01b815260040161296f9190613916565b600060405180830381865afa15801561298c573d6000803e3d6000fd5b505050506040513d6000823e3d601f19601f820116820180604052508101906129b59190613852565b6040518363ffffffff1660e01b81526004016129d29291906138df565b600060405180830381865afa1580156129ef573d6000803e3d6000fd5b505050506040513d6000823e3d601f19601f82011682018060405250810190612a189190613852565b9050612c0560008054906101000a900473ffffffffffffffffffffffffffffffffffffffff1673ffffffffffffffffffffffffffffffffffffffff1663232b9e5a86846040518363ffffffff1660e01b8152600401612a789291906138df565b600060405180830381865afa158015612a95573d6000803e3d6000fd5b505050506040513d6000823e3d601f19601f82011682018060405250810190612abe9190613852565b60008054906101000a900473ffffffffffffffffffffffffffffffffffffffff1673ffffffffffffffffffffffffffffffffffffffff1663232b9e5a86856040518363ffffffff1660e01b8152600401612b199291906138df565b600060405180830381865afa158015612b36573d6000803e3d6000fd5b505050506040513d6000823e3d601f19601f82011682018060405250810190612b5f9190613852565b60008054906101000a900473ffffffffffffffffffffffffffffffffffffffff1673ffffffffffffffffffffffffffffffffffffffff1663232b9e5a86866040518363ffffffff1660e01b8152600401612bba9291906138df565b600060405180830381865afa158015612bd7573d6000803e3d6000fd5b505050506040513d6000823e3d601f19601f82011682018060405250810190612c009190613852565b6117cb565b945050505050919050565b612c18612e23565b612e1b60008054906101000a900473ffffffffffffffffffffffffffffffffffffffff1673ffffffffffffffffffffffffffffffffffffffff16635f6910d4856000015185600001516040518363ffffffff1660e01b8152600401612c7e9291906138df565b600060405180830381865afa158015612c9b573d6000803e3d6000fd5b505050506040513d6000823e3d601f19601f82011682018060405250810190612cc49190613852565b60008054906101000a900473ffffffffffffffffffffffffffffffffffffffff1673ffffffffffffffffffffffffffffffffffffffff16635f6910d4866020015186602001516040518363ffffffff1660e01b8152600401612d279291906138df565b600060405180830381865afa158015612d44573d6000803e3d6000fd5b505050506040513d6000823e3d601f19601f82011682018060405250810190612d6d9190613852565b60008054906101000a900473ffffffffffffffffffffffffffffffffffffffff1673ffffffffffffffffffffffffffffffffffffffff16635f6910d4876040015187604001516040518363ffffffff1660e01b8152600401612dd09291906138df565b600060405180830381865afa158015612ded573d6000803e3d6000fd5b505050506040513d6000823e3d601f19601f82011682018060405250810190612e169190613852565b6117cb565b905092915050565b6040518060600160405280612e36612e56565b8152602001612e43612e56565b8152602001612e50612e56565b81525090565b6040518060400160405280612e69612e7c565b8152602001612e76612e7c565b81525090565b6040518060200160405280612e8f612e95565b81525090565b604051806060016040528060608152602001600015158152602001600081525090565b600081519050919050565b600082825260208201905092915050565b60005b83811015612ef2578082015181840152602081019050612ed7565b60008484015250505050565b6000601f19601f8301169050919050565b6000612f1a82612eb8565b612f248185612ec3565b9350612f34818560208601612ed4565b612f3d81612efe565b840191505092915050565b60008115159050919050565b612f5d81612f48565b82525050565b6000819050919050565b612f7681612f63565b82525050565b60006060830160008301518482036000860152612f998282612f0f565b9150506020830151612fae6020860182612f54565b506040830151612fc16040860182612f6d565b508091505092915050565b60006020830160008301518482036000860152612fe98282612f7c565b9150508091505092915050565b600060408301600083015184820360008601526130138282612fcc565b9150506020830151848203602086015261302d8282612fcc565b9150508091505092915050565b600060608301600083015184820360008601526130578282612ff6565b915050602083015184820360208601526130718282612ff6565b9150506040830151848203604086015261308b8282612ff6565b9150508091505092915050565b600060208201905081810360008301526130b2818461303a565b905092915050565b6000604051905090565b600080fd5b600080fd5b600080fd5b7f4e487b7100000000000000000000000000000000000000000000000000000000600052604160045260246000fd5b61310b82612efe565b810181811067ffffffffffffffff8211171561312a576131296130d3565b5b80604052505050565b600061313d6130ba565b90506131498282613102565b919050565b600080fd5b600080fd5b600080fd5b600067ffffffffffffffff821115613178576131776130d3565b5b61318182612efe565b9050602081019050919050565b82818337600083830152505050565b60006131b06131ab8461315d565b613133565b9050828152602081018484840111156131cc576131cb613158565b5b6131d784828561318e565b509392505050565b600082601f8301126131f4576131f3613153565b5b813561320484826020860161319d565b91505092915050565b61321681612f48565b811461322157600080fd5b50565b6000813590506132338161320d565b92915050565b61324281612f63565b811461324d57600080fd5b50565b60008135905061325f81613239565b92915050565b60006060828403121561327b5761327a6130ce565b5b6132856060613133565b9050600082013567ffffffffffffffff8111156132a5576132a461314e565b5b6132b1848285016131df565b60008301525060206132c584828501613224565b60208301525060406132d984828501613250565b60408301525092915050565b6000602082840312156132fb576132fa6130ce565b5b6133056020613133565b9050600082013567ffffffffffffffff8111156133255761332461314e565b5b61333184828501613265565b60008301525092915050565b600060408284031215613353576133526130ce565b5b61335d6040613133565b9050600082013567ffffffffffffffff81111561337d5761337c61314e565b5b613389848285016132e5565b600083015250602082013567ffffffffffffffff8111156133ad576133ac61314e565b5b6133b9848285016132e5565b60208301525092915050565b6000606082840312156133db576133da6130ce565b5b6133e56060613133565b9050600082013567ffffffffffffffff8111156134055761340461314e565b5b6134118482850161333d565b600083015250602082013567ffffffffffffffff8111156134355761343461314e565b5b6134418482850161333d565b602083015250604082013567ffffffffffffffff8111156134655761346461314e565b5b6134718482850161333d565b60408301525092915050565b60008060408385031215613494576134936130c4565b5b600083013567ffffffffffffffff8111156134b2576134b16130c9565b5b6134be858286016133c5565b925050602083013567ffffffffffffffff8111156134df576134de6130c9565b5b6134eb858286016133c5565b9150509250929050565b60006020828403121561350b5761350a6130c4565b5b600082013567ffffffffffffffff811115613529576135286130c9565b5b613535848285016132e5565b91505092915050565b600080600060608486031215613557576135566130c4565b5b600084013567ffffffffffffffff811115613575576135746130c9565b5b6135818682870161333d565b935050602084013567ffffffffffffffff8111156135a2576135a16130c9565b5b6135ae8682870161333d565b925050604084013567ffffffffffffffff8111156135cf576135ce6130c9565b5b6135db8682870161333d565b9150509250925092565b6135ee81612f48565b82525050565b600060208201905061360960008301846135e5565b92915050565b600060208284031215613625576136246130c4565b5b600082013567ffffffffffffffff811115613643576136426130c9565b5b61364f848285016133c5565b91505092915050565b600061366b6136668461315d565b613133565b90508281526020810184848401111561368757613686613158565b5b613692848285612ed4565b509392505050565b600082601f8301126136af576136ae613153565b5b81516136bf848260208601613658565b91505092915050565b6000815190506136d78161320d565b92915050565b6000815190506136ec81613239565b92915050565b600060608284031215613708576137076130ce565b5b6137126060613133565b9050600082015167ffffffffffffffff8111156137325761373161314e565b5b61373e8482850161369a565b6000830152506020613752848285016136c8565b6020830152506040613766848285016136dd565b60408301525092915050565b600060208284031215613788576137876130ce565b5b6137926020613133565b9050600082015167ffffffffffffffff8111156137b2576137b161314e565b5b6137be848285016136f2565b60008301525092915050565b6000604082840312156137e0576137df6130ce565b5b6137ea6040613133565b9050600082015167ffffffffffffffff81111561380a5761380961314e565b5b61381684828501613772565b600083015250602082015167ffffffffffffffff81111561383a5761383961314e565b5b61384684828501613772565b60208301525092915050565b600060208284031215613868576138676130c4565b5b600082015167ffffffffffffffff811115613886576138856130c9565b5b613892848285016137ca565b91505092915050565b600060408301600083015184820360008601526138b88282612fcc565b915050602083015184820360208601526138d28282612fcc565b9150508091505092915050565b600060408201905081810360008301526138f9818561389b565b9050818103602083015261390d818461389b565b90509392505050565b60006020820190508181036000830152613930818461389b565b905092915050565b600060208301600083015184820360008601526139558282612f7c565b9150508091505092915050565b6000602082019050818103600083015261397c8184613938565b905092915050565b60006020828403121561399a576139996130c4565b5b60006139a8848285016136c8565b9150509291505056fea2646970667358221220ff61f663949690b1c74747dc434a173e1a9ae11d3d0efb542000bac839a0977a64736f6c634300081b0033608060405234801561001057600080fd5b5060405161276e38038061276e833981810160405281019061003291906100ed565b806000806101000a81548173ffffffffffffffffffffffffffffffffffffffff021916908373ffffffffffffffffffffffffffffffffffffffff1602179055505061011a565b600080fd5b600073ffffffffffffffffffffffffffffffffffffffff82169050919050565b60006100a88261007d565b9050919050565b60006100ba8261009d565b9050919050565b6100ca816100af565b81146100d557600080fd5b50565b6000815190506100e7816100c1565b92915050565b60006020828403121561010357610102610078565b5b6000610111848285016100d8565b91505092915050565b612645806101296000396000f3fe608060405234801561001057600080fd5b50600436106100cf5760003560e01c80639e0ddc501161008c578063ac70f2af11610066578063ac70f2af1461023c578063bc1b392d1461026c578063f67007951461028a578063f87386c3146102ba576100cf565b80639e0ddc50146101be5780639eea8ce8146101ee578063a1fca2b61461021e576100cf565b806345caa117146100d45780635fdf05d7146100f25780636bc90c281461011057806376cfdd661461014057806377839c6914610170578063901717d1146101a0575b600080fd5b6100dc6102ea565b6040516100e99190611bcb565b60405180910390f35b6100fa610427565b6040516101079190611bcb565b60405180910390f35b61012a60048036038101906101259190612038565b610564565b6040516101379190611bcb565b60405180910390f35b61015a600480360381019061015591906120b0565b6106ce565b6040516101679190611bcb565b60405180910390f35b61018a60048036038101906101859190612038565b610823565b6040516101979190611bcb565b60405180910390f35b6101a8610cd7565b6040516101b59190611bcb565b60405180910390f35b6101d860048036038101906101d39190612038565b610e14565b6040516101e59190611bcb565b60405180910390f35b61020860048036038101906102039190612038565b610f7e565b6040516102159190612108565b60405180910390f35b6102266110d9565b6040516102339190611bcb565b60405180910390f35b61025660048036038101906102519190612038565b611216565b6040516102639190611bcb565b60405180910390f35b610274611238565b6040516102819190611bcb565b60405180910390f35b6102a4600480360381019061029f9190612123565b611375565b6040516102b19190611bcb565b60405180910390f35b6102d460048036038101906102cf919061216c565b6118c7565b6040516102e19190611bcb565b60405180910390f35b6102f26118ec565b61042260008054906101000a900473ffffffffffffffffffffffffffffffffffffffff1673ffffffffffffffffffffffffffffffffffffffff166345caa1176040518163ffffffff1660e01b8152600401600060405180830381865afa158015610360573d6000803e3d6000fd5b505050506040513d6000823e3d601f19601f820116820180604052508101906103899190612496565b60008054906101000a900473ffffffffffffffffffffffffffffffffffffffff1673ffffffffffffffffffffffffffffffffffffffff1663bc1b392d6040518163ffffffff1660e01b8152600401600060405180830381865afa1580156103f4573d6000803e3d6000fd5b505050506040513d6000823e3d601f19601f8201168201806040525081019061041d9190612496565b6118c7565b905090565b61042f6118ec565b61055f60008054906101000a900473ffffffffffffffffffffffffffffffffffffffff1673ffffffffffffffffffffffffffffffffffffffff16635fdf05d76040518163ffffffff1660e01b8152600401600060405180830381865afa15801561049d573d6000803e3d6000fd5b505050506040513d6000823e3d601f19601f820116820180604052508101906104c69190612496565b60008054906101000a900473ffffffffffffffffffffffffffffffffffffffff1673ffffffffffffffffffffffffffffffffffffffff1663bc1b392d6040518163ffffffff1660e01b8152600401600060405180830381865afa158015610531573d6000803e3d6000fd5b505050506040513d6000823e3d601f19601f8201168201806040525081019061055a9190612496565b6118c7565b905090565b61056c6118ec565b6106c660008054906101000a900473ffffffffffffffffffffffffffffffffffffffff1673ffffffffffffffffffffffffffffffffffffffff1663f7052ed6856000015185600001516040518363ffffffff1660e01b81526004016105d292919061253d565b600060405180830381865afa1580156105ef573d6000803e3d6000fd5b505050506040513d6000823e3d601f19601f820116820180604052508101906106189190612496565b60008054906101000a900473ffffffffffffffffffffffffffffffffffffffff1673ffffffffffffffffffffffffffffffffffffffff1663f7052ed6866020015186602001516040518363ffffffff1660e01b815260040161067b92919061253d565b600060405180830381865afa158015610698573d6000803e3d6000fd5b505050506040513d6000823e3d601f19601f820116820180604052508101906106c19190612496565b6118c7565b905092915050565b6106d66118ec565b604051806040016040528060008054906101000a900473ffffffffffffffffffffffffffffffffffffffff1673ffffffffffffffffffffffffffffffffffffffff166376cfdd66856040518263ffffffff1660e01b815260040161073a919061259e565b600060405180830381865afa158015610757573d6000803e3d6000fd5b505050506040513d6000823e3d601f19601f820116820180604052508101906107809190612496565b815260200160008054906101000a900473ffffffffffffffffffffffffffffffffffffffff1673ffffffffffffffffffffffffffffffffffffffff1663bc1b392d6040518163ffffffff1660e01b8152600401600060405180830381865afa1580156107f0573d6000803e3d6000fd5b505050506040513d6000823e3d601f19601f820116820180604052508101906108199190612496565b8152509050919050565b61082b6118ec565b60008060009054906101000a900473ffffffffffffffffffffffffffffffffffffffff1673ffffffffffffffffffffffffffffffffffffffff1663b52ab3b160008054906101000a900473ffffffffffffffffffffffffffffffffffffffff1673ffffffffffffffffffffffffffffffffffffffff16634aa28cb5876020015187602001516040518363ffffffff1660e01b81526004016108cd92919061253d565b600060405180830381865afa1580156108ea573d6000803e3d6000fd5b505050506040513d6000823e3d601f19601f820116820180604052508101906109139190612496565b6040518263ffffffff1660e01b815260040161092f91906125c0565b600060405180830381865afa15801561094c573d6000803e3d6000fd5b505050506040513d6000823e3d601f19601f820116820180604052508101906109759190612496565b905060008060009054906101000a900473ffffffffffffffffffffffffffffffffffffffff1673ffffffffffffffffffffffffffffffffffffffff16634aa28cb5866000015186600001516040518363ffffffff1660e01b81526004016109dd92919061253d565b600060405180830381865afa1580156109fa573d6000803e3d6000fd5b505050506040513d6000823e3d601f19601f82011682018060405250810190610a239190612496565b905060008060009054906101000a900473ffffffffffffffffffffffffffffffffffffffff1673ffffffffffffffffffffffffffffffffffffffff16634aa28cb5876020015187600001516040518363ffffffff1660e01b8152600401610a8b92919061253d565b600060405180830381865afa158015610aa8573d6000803e3d6000fd5b505050506040513d6000823e3d601f19601f82011682018060405250810190610ad19190612496565b905060008060009054906101000a900473ffffffffffffffffffffffffffffffffffffffff1673ffffffffffffffffffffffffffffffffffffffff16634aa28cb5886000015188602001516040518363ffffffff1660e01b8152600401610b3992919061253d565b600060405180830381865afa158015610b56573d6000803e3d6000fd5b505050506040513d6000823e3d601f19601f82011682018060405250810190610b7f9190612496565b9050610ccb60008054906101000a900473ffffffffffffffffffffffffffffffffffffffff1673ffffffffffffffffffffffffffffffffffffffff16637e28928086866040518363ffffffff1660e01b8152600401610bdf92919061253d565b600060405180830381865afa158015610bfc573d6000803e3d6000fd5b505050506040513d6000823e3d601f19601f82011682018060405250810190610c259190612496565b60008054906101000a900473ffffffffffffffffffffffffffffffffffffffff1673ffffffffffffffffffffffffffffffffffffffff16637e28928085856040518363ffffffff1660e01b8152600401610c8092919061253d565b600060405180830381865afa158015610c9d573d6000803e3d6000fd5b505050506040513d6000823e3d601f19601f82011682018060405250810190610cc69190612496565b6118c7565b94505050505092915050565b610cdf6118ec565b610e0f60008054906101000a900473ffffffffffffffffffffffffffffffffffffffff1673ffffffffffffffffffffffffffffffffffffffff1663901717d16040518163ffffffff1660e01b8152600401600060405180830381865afa158015610d4d573d6000803e3d6000fd5b505050506040513d6000823e3d601f19601f82011682018060405250810190610d769190612496565b60008054906101000a900473ffffffffffffffffffffffffffffffffffffffff1673ffffffffffffffffffffffffffffffffffffffff1663bc1b392d6040518163ffffffff1660e01b8152600401600060405180830381865afa158015610de1573d6000803e3d6000fd5b505050506040513d6000823e3d601f19601f82011682018060405250810190610e0a9190612496565b6118c7565b905090565b610e1c6118ec565b610f7660008054906101000a900473ffffffffffffffffffffffffffffffffffffffff1673ffffffffffffffffffffffffffffffffffffffff16637e289280856000015185600001516040518363ffffffff1660e01b8152600401610e8292919061253d565b600060405180830381865afa158015610e9f573d6000803e3d6000fd5b505050506040513d6000823e3d601f19601f82011682018060405250810190610ec89190612496565b60008054906101000a900473ffffffffffffffffffffffffffffffffffffffff1673ffffffffffffffffffffffffffffffffffffffff16637e289280866020015186602001516040518363ffffffff1660e01b8152600401610f2b92919061253d565b600060405180830381865afa158015610f48573d6000803e3d6000fd5b505050506040513d6000823e3d601f19601f82011682018060405250810190610f719190612496565b6118c7565b905092915050565b60008060009054906101000a900473ffffffffffffffffffffffffffffffffffffffff1673ffffffffffffffffffffffffffffffffffffffff1663a0382305846000015184600001516040518363ffffffff1660e01b8152600401610fe492919061253d565b602060405180830381865afa158015611001573d6000803e3d6000fd5b505050506040513d601f19601f8201168201806040525081019061102591906125e2565b80156110d1575060008054906101000a900473ffffffffffffffffffffffffffffffffffffffff1673ffffffffffffffffffffffffffffffffffffffff1663a0382305846020015184602001516040518363ffffffff1660e01b815260040161108f92919061253d565b602060405180830381865afa1580156110ac573d6000803e3d6000fd5b505050506040513d601f19601f820116820180604052508101906110d091906125e2565b5b905092915050565b6110e16118ec565b61121160008054906101000a900473ffffffffffffffffffffffffffffffffffffffff1673ffffffffffffffffffffffffffffffffffffffff1663a1fca2b66040518163ffffffff1660e01b8152600401600060405180830381865afa15801561114f573d6000803e3d6000fd5b505050506040513d6000823e3d601f19601f820116820180604052508101906111789190612496565b60008054906101000a900473ffffffffffffffffffffffffffffffffffffffff1673ffffffffffffffffffffffffffffffffffffffff1663bc1b392d6040518163ffffffff1660e01b8152600401600060405180830381865afa1580156111e3573d6000803e3d6000fd5b505050506040513d6000823e3d601f19601f8201168201806040525081019061120c9190612496565b6118c7565b905090565b61121e6118ec565b6112308361122b84611375565b610823565b905092915050565b6112406118ec565b61137060008054906101000a900473ffffffffffffffffffffffffffffffffffffffff1673ffffffffffffffffffffffffffffffffffffffff1663bc1b392d6040518163ffffffff1660e01b8152600401600060405180830381865afa1580156112ae573d6000803e3d6000fd5b505050506040513d6000823e3d601f19601f820116820180604052508101906112d79190612496565b60008054906101000a900473ffffffffffffffffffffffffffffffffffffffff1673ffffffffffffffffffffffffffffffffffffffff1663bc1b392d6040518163ffffffff1660e01b8152600401600060405180830381865afa158015611342573d6000803e3d6000fd5b505050506040513d6000823e3d601f19601f8201168201806040525081019061136b9190612496565b6118c7565b905090565b61137d6118ec565b61138e82611389611238565b610f7e565b1561139857600080fd5b60008060009054906101000a900473ffffffffffffffffffffffffffffffffffffffff1673ffffffffffffffffffffffffffffffffffffffff1663b52ab3b160008054906101000a900473ffffffffffffffffffffffffffffffffffffffff1673ffffffffffffffffffffffffffffffffffffffff16634aa28cb5866020015187602001516040518363ffffffff1660e01b815260040161143a92919061253d565b600060405180830381865afa158015611457573d6000803e3d6000fd5b505050506040513d6000823e3d601f19601f820116820180604052508101906114809190612496565b6040518263ffffffff1660e01b815260040161149c91906125c0565b600060405180830381865afa1580156114b9573d6000803e3d6000fd5b505050506040513d6000823e3d601f19601f820116820180604052508101906114e29190612496565b905060008060009054906101000a900473ffffffffffffffffffffffffffffffffffffffff1673ffffffffffffffffffffffffffffffffffffffff16634aa28cb5856000015186600001516040518363ffffffff1660e01b815260040161154a92919061253d565b600060405180830381865afa158015611567573d6000803e3d6000fd5b505050506040513d6000823e3d601f19601f820116820180604052508101906115909190612496565b905060008060009054906101000a900473ffffffffffffffffffffffffffffffffffffffff1673ffffffffffffffffffffffffffffffffffffffff1663f7052ed683856040518363ffffffff1660e01b81526004016115f092919061253d565b600060405180830381865afa15801561160d573d6000803e3d6000fd5b505050506040513d6000823e3d601f19601f820116820180604052508101906116369190612496565b90506118bd60008054906101000a900473ffffffffffffffffffffffffffffffffffffffff1673ffffffffffffffffffffffffffffffffffffffff1663ba510cc38760000151846040518363ffffffff1660e01b815260040161169a92919061253d565b600060405180830381865afa1580156116b7573d6000803e3d6000fd5b505050506040513d6000823e3d601f19601f820116820180604052508101906116e09190612496565b60008054906101000a900473ffffffffffffffffffffffffffffffffffffffff1673ffffffffffffffffffffffffffffffffffffffff1663ba510cc360008054906101000a900473ffffffffffffffffffffffffffffffffffffffff1673ffffffffffffffffffffffffffffffffffffffff1663f7052ed660008054906101000a900473ffffffffffffffffffffffffffffffffffffffff1673ffffffffffffffffffffffffffffffffffffffff1663bc1b392d6040518163ffffffff1660e01b8152600401600060405180830381865afa1580156117c3573d6000803e3d6000fd5b505050506040513d6000823e3d601f19601f820116820180604052508101906117ec9190612496565b8b602001516040518363ffffffff1660e01b815260040161180e92919061253d565b600060405180830381865afa15801561182b573d6000803e3d6000fd5b505050506040513d6000823e3d601f19601f820116820180604052508101906118549190612496565b856040518363ffffffff1660e01b815260040161187292919061253d565b600060405180830381865afa15801561188f573d6000803e3d6000fd5b505050506040513d6000823e3d601f19601f820116820180604052508101906118b89190612496565b6118c7565b9350505050919050565b6118cf6118ec565b604051806040016040528084815260200183815250905092915050565b60405180604001604052806118ff611912565b815260200161190c611912565b81525090565b6040518060600160405280611925611945565b8152602001611932611945565b815260200161193f611945565b81525090565b604051806040016040528061195861196b565b815260200161196561196b565b81525090565b604051806020016040528061197e611984565b81525090565b604051806060016040528060608152602001600015158152602001600081525090565b600081519050919050565b600082825260208201905092915050565b60005b838110156119e15780820151818401526020810190506119c6565b60008484015250505050565b6000601f19601f8301169050919050565b6000611a09826119a7565b611a1381856119b2565b9350611a238185602086016119c3565b611a2c816119ed565b840191505092915050565b60008115159050919050565b611a4c81611a37565b82525050565b6000819050919050565b611a6581611a52565b82525050565b60006060830160008301518482036000860152611a8882826119fe565b9150506020830151611a9d6020860182611a43565b506040830151611ab06040860182611a5c565b508091505092915050565b60006020830160008301518482036000860152611ad88282611a6b565b9150508091505092915050565b60006040830160008301518482036000860152611b028282611abb565b91505060208301518482036020860152611b1c8282611abb565b9150508091505092915050565b60006060830160008301518482036000860152611b468282611ae5565b91505060208301518482036020860152611b608282611ae5565b91505060408301518482036040860152611b7a8282611ae5565b9150508091505092915050565b60006040830160008301518482036000860152611ba48282611b29565b91505060208301518482036020860152611bbe8282611b29565b9150508091505092915050565b60006020820190508181036000830152611be58184611b87565b905092915050565b6000604051905090565b600080fd5b600080fd5b600080fd5b7f4e487b7100000000000000000000000000000000000000000000000000000000600052604160045260246000fd5b611c3e826119ed565b810181811067ffffffffffffffff82111715611c5d57611c5c611c06565b5b80604052505050565b6000611c70611bed565b9050611c7c8282611c35565b919050565b600080fd5b600080fd5b600080fd5b600067ffffffffffffffff821115611cab57611caa611c06565b5b611cb4826119ed565b9050602081019050919050565b82818337600083830152505050565b6000611ce3611cde84611c90565b611c66565b905082815260208101848484011115611cff57611cfe611c8b565b5b611d0a848285611cc1565b509392505050565b600082601f830112611d2757611d26611c86565b5b8135611d37848260208601611cd0565b91505092915050565b611d4981611a37565b8114611d5457600080fd5b50565b600081359050611d6681611d40565b92915050565b611d7581611a52565b8114611d8057600080fd5b50565b600081359050611d9281611d6c565b92915050565b600060608284031215611dae57611dad611c01565b5b611db86060611c66565b9050600082013567ffffffffffffffff811115611dd857611dd7611c81565b5b611de484828501611d12565b6000830152506020611df884828501611d57565b6020830152506040611e0c84828501611d83565b60408301525092915050565b600060208284031215611e2e57611e2d611c01565b5b611e386020611c66565b9050600082013567ffffffffffffffff811115611e5857611e57611c81565b5b611e6484828501611d98565b60008301525092915050565b600060408284031215611e8657611e85611c01565b5b611e906040611c66565b9050600082013567ffffffffffffffff811115611eb057611eaf611c81565b5b611ebc84828501611e18565b600083015250602082013567ffffffffffffffff811115611ee057611edf611c81565b5b611eec84828501611e18565b60208301525092915050565b600060608284031215611f0e57611f0d611c01565b5b611f186060611c66565b9050600082013567ffffffffffffffff811115611f3857611f37611c81565b5b611f4484828501611e70565b600083015250602082013567ffffffffffffffff811115611f6857611f67611c81565b5b611f7484828501611e70565b602083015250604082013567ffffffffffffffff811115611f9857611f97611c81565b5b611fa484828501611e70565b60408301525092915050565b600060408284031215611fc657611fc5611c01565b5b611fd06040611c66565b9050600082013567ffffffffffffffff811115611ff057611fef611c81565b5b611ffc84828501611ef8565b600083015250602082013567ffffffffffffffff8111156120205761201f611c81565b5b61202c84828501611ef8565b60208301525092915050565b6000806040838503121561204f5761204e611bf7565b5b600083013567ffffffffffffffff81111561206d5761206c611bfc565b5b61207985828601611fb0565b925050602083013567ffffffffffffffff81111561209a57612099611bfc565b5b6120a685828601611fb0565b9150509250929050565b6000602082840312156120c6576120c5611bf7565b5b600082013567ffffffffffffffff8111156120e4576120e3611bfc565b5b6120f084828501611e18565b91505092915050565b61210281611a37565b82525050565b600060208201905061211d60008301846120f9565b92915050565b60006020828403121561213957612138611bf7565b5b600082013567ffffffffffffffff81111561215757612156611bfc565b5b61216384828501611fb0565b91505092915050565b6000806040838503121561218357612182611bf7565b5b600083013567ffffffffffffffff8111156121a1576121a0611bfc565b5b6121ad85828601611ef8565b925050602083013567ffffffffffffffff8111156121ce576121cd611bfc565b5b6121da85828601611ef8565b9150509250929050565b60006121f76121f284611c90565b611c66565b90508281526020810184848401111561221357612212611c8b565b5b61221e8482856119c3565b509392505050565b600082601f83011261223b5761223a611c86565b5b815161224b8482602086016121e4565b91505092915050565b60008151905061226381611d40565b92915050565b60008151905061227881611d6c565b92915050565b60006060828403121561229457612293611c01565b5b61229e6060611c66565b9050600082015167ffffffffffffffff8111156122be576122bd611c81565b5b6122ca84828501612226565b60008301525060206122de84828501612254565b60208301525060406122f284828501612269565b60408301525092915050565b60006020828403121561231457612313611c01565b5b61231e6020611c66565b9050600082015167ffffffffffffffff81111561233e5761233d611c81565b5b61234a8482850161227e565b60008301525092915050565b60006040828403121561236c5761236b611c01565b5b6123766040611c66565b9050600082015167ffffffffffffffff81111561239657612395611c81565b5b6123a2848285016122fe565b600083015250602082015167ffffffffffffffff8111156123c6576123c5611c81565b5b6123d2848285016122fe565b60208301525092915050565b6000606082840312156123f4576123f3611c01565b5b6123fe6060611c66565b9050600082015167ffffffffffffffff81111561241e5761241d611c81565b5b61242a84828501612356565b600083015250602082015167ffffffffffffffff81111561244e5761244d611c81565b5b61245a84828501612356565b602083015250604082015167ffffffffffffffff81111561247e5761247d611c81565b5b61248a84828501612356565b60408301525092915050565b6000602082840312156124ac576124ab611bf7565b5b600082015167ffffffffffffffff8111156124ca576124c9611bfc565b5b6124d6848285016123de565b91505092915050565b600060608301600083015184820360008601526124fc8282611ae5565b915050602083015184820360208601526125168282611ae5565b915050604083015184820360408601526125308282611ae5565b9150508091505092915050565b6000604082019050818103600083015261255781856124df565b9050818103602083015261256b81846124df565b90509392505050565b600060208301600083015184820360008601526125918282611a6b565b9150508091505092915050565b600060208201905081810360008301526125b88184612574565b905092915050565b600060208201905081810360008301526125da81846124df565b905092915050565b6000602082840312156125f8576125f7611bf7565b5b600061260684828501612254565b9150509291505056fea2646970667358221220524cae4794212caa0471657ba60ac625463d18e6896d8f51360127e06fdd322864736f6c634300081b0033608060405234801561001057600080fd5b50604051612d74380380612d74833981810160405281019061003291906100ed565b806000806101000a81548173ffffffffffffffffffffffffffffffffffffffff021916908373ffffffffffffffffffffffffffffffffffffffff1602179055505061011a565b600080fd5b600073ffffffffffffffffffffffffffffffffffffffff82169050919050565b60006100a88261007d565b9050919050565b60006100ba8261009d565b9050919050565b6100ca816100af565b81146100d557600080fd5b50565b6000815190506100e7816100c1565b92915050565b60006020828403121561010357610102610078565b5b6000610111848285016100d8565b91505092915050565b612c4b806101296000396000f3fe608060405234801561001057600080fd5b506004361061007c5760003560e01c8063292310eb1161005b578063292310eb146101115780636cee5a0b1461012f578063899c22981461015f57806398dc089a1461018f5761007c565b80627995931461008157806307951d69146100b15780631953a9bf146100e1575b600080fd5b61009b6004803603810190610096919061229c565b6101bf565b6040516100a891906124f9565b60405180910390f35b6100cb60048036038101906100c6919061251b565b610309565b6040516100d891906124f9565b60405180910390f35b6100fb60048036038101906100f69190612593565b610ccf565b60405161010891906124f9565b60405180910390f35b610119610d0d565b60405161012691906124f9565b60405180910390f35b6101496004803603810190610144919061260b565b610e6d565b60405161015691906124f9565b60405180910390f35b6101796004803603810190610174919061251b565b611803565b6040516101869190612663565b60405180910390f35b6101a960048036038101906101a4919061260b565b611a38565b6040516101b691906124f9565b60405180910390f35b6101c7611eb6565b60006101d1610d0d565b905083602001516101ef576101e7848483611bf6565b915050610303565b6102ff73__$7db5d2dbc3ae63372df6c39d501ad0f72a$__63b1d74ee98673__$7db5d2dbc3ae63372df6c39d501ad0f72a$__6340957f726001806040518363ffffffff1660e01b81526004016102479291906126d2565b600060405180830381865af4158015610264573d6000803e3d6000fd5b505050506040513d6000823e3d601f19601f8201168201806040525081019061028d9190612815565b6040518363ffffffff1660e01b81526004016102aa929190612916565b600060405180830381865af41580156102c7573d6000803e3d6000fd5b505050506040513d6000823e3d601f19601f820116820180604052508101906102f09190612815565b6102f985611a38565b83611bf6565b9150505b92915050565b610311611eb6565b60018081111561032457610323612314565b5b8360000151600181111561033b5761033a612314565b5b0361034857819050610cc9565b60018081111561035b5761035a612314565b5b8260000151600181111561037257610371612314565b5b0361037f57829050610cc9565b60008054906101000a900473ffffffffffffffffffffffffffffffffffffffff1673ffffffffffffffffffffffffffffffffffffffff1663d4d45554846020015184602001516040518363ffffffff1660e01b81526004016103e2929190612977565b602060405180830381865afa1580156103ff573d6000803e3d6000fd5b505050506040513d601f19601f8201168201806040525081019061042391906129ae565b80156104cf575060008054906101000a900473ffffffffffffffffffffffffffffffffffffffff1673ffffffffffffffffffffffffffffffffffffffff1663d4d45554846040015184604001516040518363ffffffff1660e01b815260040161048d929190612977565b602060405180830381865afa1580156104aa573d6000803e3d6000fd5b505050506040513d601f19601f820116820180604052508101906104ce91906129ae565b5b156104e4576104dd83610e6d565b9050610cc9565b60008054906101000a900473ffffffffffffffffffffffffffffffffffffffff1673ffffffffffffffffffffffffffffffffffffffff1663d4d45554846020015184602001516040518363ffffffff1660e01b8152600401610547929190612977565b602060405180830381865afa158015610564573d6000803e3d6000fd5b505050506040513d601f19601f8201168201806040525081019061058891906129ae565b8015610635575060008054906101000a900473ffffffffffffffffffffffffffffffffffffffff1673ffffffffffffffffffffffffffffffffffffffff1663d4d45554846040015184604001516040518363ffffffff1660e01b81526004016105f2929190612977565b602060405180830381865afa15801561060f573d6000803e3d6000fd5b505050506040513d601f19601f8201168201806040525081019061063391906129ae565b155b1561064957610642610d0d565b9050610cc9565b60008060009054906101000a900473ffffffffffffffffffffffffffffffffffffffff1673ffffffffffffffffffffffffffffffffffffffff1663b5e2832560008054906101000a900473ffffffffffffffffffffffffffffffffffffffff1673ffffffffffffffffffffffffffffffffffffffff1663fb2bedad866040015188604001516040518363ffffffff1660e01b81526004016106eb929190612977565b600060405180830381865afa158015610708573d6000803e3d6000fd5b505050506040513d6000823e3d601f19601f820116820180604052508101906107319190612a33565b60008054906101000a900473ffffffffffffffffffffffffffffffffffffffff1673ffffffffffffffffffffffffffffffffffffffff1663a672d10060008054906101000a900473ffffffffffffffffffffffffffffffffffffffff1673ffffffffffffffffffffffffffffffffffffffff1663fb2bedad89602001518b602001516040518363ffffffff1660e01b81526004016107d0929190612977565b600060405180830381865afa1580156107ed573d6000803e3d6000fd5b505050506040513d6000823e3d601f19601f820116820180604052508101906108169190612a33565b6040518263ffffffff1660e01b81526004016108329190612a7c565b600060405180830381865afa15801561084f573d6000803e3d6000fd5b505050506040513d6000823e3d601f19601f820116820180604052508101906108789190612a33565b6040518363ffffffff1660e01b8152600401610895929190612977565b600060405180830381865afa1580156108b2573d6000803e3d6000fd5b505050506040513d6000823e3d601f19601f820116820180604052508101906108db9190612a33565b905060008060009054906101000a900473ffffffffffffffffffffffffffffffffffffffff1673ffffffffffffffffffffffffffffffffffffffff1663fb2bedad60008054906101000a900473ffffffffffffffffffffffffffffffffffffffff1673ffffffffffffffffffffffffffffffffffffffff1663fb2bedad60008054906101000a900473ffffffffffffffffffffffffffffffffffffffff1673ffffffffffffffffffffffffffffffffffffffff1663b5e2832587886040518363ffffffff1660e01b81526004016109b3929190612977565b600060405180830381865afa1580156109d0573d6000803e3d6000fd5b505050506040513d6000823e3d601f19601f820116820180604052508101906109f99190612a33565b89602001516040518363ffffffff1660e01b8152600401610a1b929190612977565b600060405180830381865afa158015610a38573d6000803e3d6000fd5b505050506040513d6000823e3d601f19601f82011682018060405250810190610a619190612a33565b86602001516040518363ffffffff1660e01b8152600401610a83929190612977565b600060405180830381865afa158015610aa0573d6000803e3d6000fd5b505050506040513d6000823e3d601f19601f82011682018060405250810190610ac99190612a33565b905060008060009054906101000a900473ffffffffffffffffffffffffffffffffffffffff1673ffffffffffffffffffffffffffffffffffffffff1663fb2bedad60008054906101000a900473ffffffffffffffffffffffffffffffffffffffff1673ffffffffffffffffffffffffffffffffffffffff1663b5e2832560008054906101000a900473ffffffffffffffffffffffffffffffffffffffff1673ffffffffffffffffffffffffffffffffffffffff1663fb2bedad8b60200151886040518363ffffffff1660e01b8152600401610ba5929190612977565b600060405180830381865afa158015610bc2573d6000803e3d6000fd5b505050506040513d6000823e3d601f19601f82011682018060405250810190610beb9190612a33565b876040518363ffffffff1660e01b8152600401610c09929190612977565b600060405180830381865afa158015610c26573d6000803e3d6000fd5b505050506040513d6000823e3d601f19601f82011682018060405250810190610c4f9190612a33565b88604001516040518363ffffffff1660e01b8152600401610c71929190612977565b600060405180830381865afa158015610c8e573d6000803e3d6000fd5b505050506040513d6000823e3d601f19601f82011682018060405250810190610cb79190612a33565b9050610cc38282610ccf565b93505050505b92915050565b610cd7611eb6565b604051806060016040528060006001811115610cf657610cf5612314565b5b815260200184815260200183815250905092915050565b610d15611eb6565b6040518060600160405280600180811115610d3357610d32612314565b5b815260200160008054906101000a900473ffffffffffffffffffffffffffffffffffffffff1673ffffffffffffffffffffffffffffffffffffffff1663bc1b392d6040518163ffffffff1660e01b8152600401600060405180830381865afa158015610da3573d6000803e3d6000fd5b505050506040513d6000823e3d601f19601f82011682018060405250810190610dcc9190612a33565b815260200160008054906101000a900473ffffffffffffffffffffffffffffffffffffffff1673ffffffffffffffffffffffffffffffffffffffff1663bc1b392d6040518163ffffffff1660e01b8152600401600060405180830381865afa158015610e3c573d6000803e3d6000fd5b505050506040513d6000823e3d601f19601f82011682018060405250810190610e659190612a33565b815250905090565b610e75611eb6565b60008054906101000a900473ffffffffffffffffffffffffffffffffffffffff1673ffffffffffffffffffffffffffffffffffffffff1663d4d45554836040015160008054906101000a900473ffffffffffffffffffffffffffffffffffffffff1673ffffffffffffffffffffffffffffffffffffffff1663bc1b392d6040518163ffffffff1660e01b8152600401600060405180830381865afa158015610f21573d6000803e3d6000fd5b505050506040513d6000823e3d601f19601f82011682018060405250810190610f4a9190612a33565b6040518363ffffffff1660e01b8152600401610f67929190612977565b602060405180830381865afa158015610f84573d6000803e3d6000fd5b505050506040513d601f19601f82011682018060405250810190610fa891906129ae565b15610fbc57610fb5610d0d565b90506117fe565b60008060009054906101000a900473ffffffffffffffffffffffffffffffffffffffff1673ffffffffffffffffffffffffffffffffffffffff1663b5e2832560008054906101000a900473ffffffffffffffffffffffffffffffffffffffff1673ffffffffffffffffffffffffffffffffffffffff1663b5e2832560008054906101000a900473ffffffffffffffffffffffffffffffffffffffff1673ffffffffffffffffffffffffffffffffffffffff166345caa1176040518163ffffffff1660e01b8152600401600060405180830381865afa1580156110a2573d6000803e3d6000fd5b505050506040513d6000823e3d601f19601f820116820180604052508101906110cb9190612a33565b60008054906101000a900473ffffffffffffffffffffffffffffffffffffffff1673ffffffffffffffffffffffffffffffffffffffff1663b5e2832589602001518a602001516040518363ffffffff1660e01b815260040161112e929190612977565b600060405180830381865afa15801561114b573d6000803e3d6000fd5b505050506040513d6000823e3d601f19601f820116820180604052508101906111749190612a33565b6040518363ffffffff1660e01b8152600401611191929190612977565b600060405180830381865afa1580156111ae573d6000803e3d6000fd5b505050506040513d6000823e3d601f19601f820116820180604052508101906111d79190612a33565b60008054906101000a900473ffffffffffffffffffffffffffffffffffffffff1673ffffffffffffffffffffffffffffffffffffffff1663a672d10060008054906101000a900473ffffffffffffffffffffffffffffffffffffffff1673ffffffffffffffffffffffffffffffffffffffff1663b5e2832560008054906101000a900473ffffffffffffffffffffffffffffffffffffffff1673ffffffffffffffffffffffffffffffffffffffff16635fdf05d76040518163ffffffff1660e01b8152600401600060405180830381865afa1580156112ba573d6000803e3d6000fd5b505050506040513d6000823e3d601f19601f820116820180604052508101906112e39190612a33565b8a604001516040518363ffffffff1660e01b8152600401611305929190612977565b600060405180830381865afa158015611322573d6000803e3d6000fd5b505050506040513d6000823e3d601f19601f8201168201806040525081019061134b9190612a33565b6040518263ffffffff1660e01b81526004016113679190612a7c565b600060405180830381865afa158015611384573d6000803e3d6000fd5b505050506040513d6000823e3d601f19601f820116820180604052508101906113ad9190612a33565b6040518363ffffffff1660e01b81526004016113ca929190612977565b600060405180830381865afa1580156113e7573d6000803e3d6000fd5b505050506040513d6000823e3d601f19601f820116820180604052508101906114109190612a33565b905060008060009054906101000a900473ffffffffffffffffffffffffffffffffffffffff1673ffffffffffffffffffffffffffffffffffffffff1663fb2bedad60008054906101000a900473ffffffffffffffffffffffffffffffffffffffff1673ffffffffffffffffffffffffffffffffffffffff1663fb2bedad60008054906101000a900473ffffffffffffffffffffffffffffffffffffffff1673ffffffffffffffffffffffffffffffffffffffff1663b5e2832587886040518363ffffffff1660e01b81526004016114e8929190612977565b600060405180830381865afa158015611505573d6000803e3d6000fd5b505050506040513d6000823e3d601f19601f8201168201806040525081019061152e9190612a33565b88602001516040518363ffffffff1660e01b8152600401611550929190612977565b600060405180830381865afa15801561156d573d6000803e3d6000fd5b505050506040513d6000823e3d601f19601f820116820180604052508101906115969190612a33565b86602001516040518363ffffffff1660e01b81526004016115b8929190612977565b600060405180830381865afa1580156115d5573d6000803e3d6000fd5b505050506040513d6000823e3d601f19601f820116820180604052508101906115fe9190612a33565b905060008060009054906101000a900473ffffffffffffffffffffffffffffffffffffffff1673ffffffffffffffffffffffffffffffffffffffff1663fb2bedad60008054906101000a900473ffffffffffffffffffffffffffffffffffffffff1673ffffffffffffffffffffffffffffffffffffffff1663b5e2832560008054906101000a900473ffffffffffffffffffffffffffffffffffffffff1673ffffffffffffffffffffffffffffffffffffffff1663fb2bedad8a60200151886040518363ffffffff1660e01b81526004016116da929190612977565b600060405180830381865afa1580156116f7573d6000803e3d6000fd5b505050506040513d6000823e3d601f19601f820116820180604052508101906117209190612a33565b876040518363ffffffff1660e01b815260040161173e929190612977565b600060405180830381865afa15801561175b573d6000803e3d6000fd5b505050506040513d6000823e3d601f19601f820116820180604052508101906117849190612a33565b87604001516040518363ffffffff1660e01b81526004016117a6929190612977565b600060405180830381865afa1580156117c3573d6000803e3d6000fd5b505050506040513d6000823e3d601f19601f820116820180604052508101906117ec9190612a33565b90506117f88282610ccf565b93505050505b919050565b600060018081111561181857611817612314565b5b8360000151600181111561182f5761182e612314565b5b148015611863575060018081111561184a57611849612314565b5b8260000151600181111561186157611860612314565b5b145b156118715760019050611a32565b6000600181111561188557611884612314565b5b8360000151600181111561189c5761189b612314565b5b1480156118d15750600060018111156118b8576118b7612314565b5b826000015160018111156118cf576118ce612314565b5b145b15611a2d5760008054906101000a900473ffffffffffffffffffffffffffffffffffffffff1673ffffffffffffffffffffffffffffffffffffffff1663d4d45554846020015184602001516040518363ffffffff1660e01b8152600401611939929190612977565b602060405180830381865afa158015611956573d6000803e3d6000fd5b505050506040513d601f19601f8201168201806040525081019061197a91906129ae565b8015611a26575060008054906101000a900473ffffffffffffffffffffffffffffffffffffffff1673ffffffffffffffffffffffffffffffffffffffff1663d4d45554846040015184604001516040518363ffffffff1660e01b81526004016119e4929190612977565b602060405180830381865afa158015611a01573d6000803e3d6000fd5b505050506040513d601f19601f82011682018060405250810190611a2591906129ae565b5b9050611a32565b600090505b92915050565b611a40611eb6565b600180811115611a5357611a52612314565b5b82600001516001811115611a6a57611a69612314565b5b03611aaa576040517f08c379a0000000000000000000000000000000000000000000000000000000008152600401611aa190612afb565b60405180910390fd5b611bef826020015160008054906101000a900473ffffffffffffffffffffffffffffffffffffffff1673ffffffffffffffffffffffffffffffffffffffff1663fb2bedad60008054906101000a900473ffffffffffffffffffffffffffffffffffffffff1673ffffffffffffffffffffffffffffffffffffffff1663bc1b392d6040518163ffffffff1660e01b8152600401600060405180830381865afa158015611b59573d6000803e3d6000fd5b505050506040513d6000823e3d601f19601f82011682018060405250810190611b829190612a33565b86604001516040518363ffffffff1660e01b8152600401611ba4929190612977565b600060405180830381865afa158015611bc1573d6000803e3d6000fd5b505050506040513d6000823e3d601f19601f82011682018060405250810190611bea9190612a33565b610ccf565b9050919050565b611bfe611eb6565b600073__$7db5d2dbc3ae63372df6c39d501ad0f72a$__63bc39804e8673__$7db5d2dbc3ae63372df6c39d501ad0f72a$__63bc1b392d6040518163ffffffff1660e01b8152600401600060405180830381865af4158015611c64573d6000803e3d6000fd5b505050506040513d6000823e3d601f19601f82011682018060405250810190611c8d9190612815565b60006040518463ffffffff1660e01b8152600401611cad93929190612b1b565b602060405180830381865af4158015611cca573d6000803e3d6000fd5b505050506040513d601f19601f82011682018060405250810190611cee9190612b96565b03611cfb57819050611eaf565b73__$7db5d2dbc3ae63372df6c39d501ad0f72a$__63ee4a4e4e856040518263ffffffff1660e01b8152600401611d329190612bc3565b602060405180830381865af4158015611d4f573d6000803e3d6000fd5b505050506040513d601f19601f82011682018060405250810190611d7391906129ae565b15611e1a57611e1373__$7db5d2dbc3ae63372df6c39d501ad0f72a$__636efac6c78660016040518363ffffffff1660e01b8152600401611db5929190612be5565b600060405180830381865af4158015611dd2573d6000803e3d6000fd5b505050506040513d6000823e3d601f19601f82011682018060405250810190611dfb9190612815565b611e0485610e6d565b611e0e8587610309565b611bf6565b9050611eaf565b611eac73__$7db5d2dbc3ae63372df6c39d501ad0f72a$__636efac6c78660016040518363ffffffff1660e01b8152600401611e57929190612be5565b600060405180830381865af4158015611e74573d6000803e3d6000fd5b505050506040513d6000823e3d601f19601f82011682018060405250810190611e9d9190612815565b611ea685610e6d565b84611bf6565b90505b9392505050565b604051806060016040528060006001811115611ed557611ed4612314565b5b8152602001611ee2611ef5565b8152602001611eef611ef5565b81525090565b6040518060200160405280611f08611f0e565b81525090565b604051806060016040528060608152602001600015158152602001600081525090565b6000604051905090565b600080fd5b600080fd5b600080fd5b6000601f19601f8301169050919050565b7f4e487b7100000000000000000000000000000000000000000000000000000000600052604160045260246000fd5b611f9382611f4a565b810181811067ffffffffffffffff82111715611fb257611fb1611f5b565b5b80604052505050565b6000611fc5611f31565b9050611fd18282611f8a565b919050565b600080fd5b600080fd5b600080fd5b600067ffffffffffffffff82111561200057611fff611f5b565b5b61200982611f4a565b9050602081019050919050565b82818337600083830152505050565b600061203861203384611fe5565b611fbb565b90508281526020810184848401111561205457612053611fe0565b5b61205f848285612016565b509392505050565b600082601f83011261207c5761207b611fdb565b5b813561208c848260208601612025565b91505092915050565b60008115159050919050565b6120aa81612095565b81146120b557600080fd5b50565b6000813590506120c7816120a1565b92915050565b6000819050919050565b6120e0816120cd565b81146120eb57600080fd5b50565b6000813590506120fd816120d7565b92915050565b60006060828403121561211957612118611f45565b5b6121236060611fbb565b9050600082013567ffffffffffffffff81111561214357612142611fd6565b5b61214f84828501612067565b6000830152506020612163848285016120b8565b6020830152506040612177848285016120ee565b60408301525092915050565b6002811061219057600080fd5b50565b6000813590506121a281612183565b92915050565b6000602082840312156121be576121bd611f45565b5b6121c86020611fbb565b9050600082013567ffffffffffffffff8111156121e8576121e7611fd6565b5b6121f484828501612103565b60008301525092915050565b60006060828403121561221657612215611f45565b5b6122206060611fbb565b9050600061223084828501612193565b600083015250602082013567ffffffffffffffff81111561225457612253611fd6565b5b612260848285016121a8565b602083015250604082013567ffffffffffffffff81111561228457612283611fd6565b5b612290848285016121a8565b60408301525092915050565b600080604083850312156122b3576122b2611f3b565b5b600083013567ffffffffffffffff8111156122d1576122d0611f40565b5b6122dd85828601612103565b925050602083013567ffffffffffffffff8111156122fe576122fd611f40565b5b61230a85828601612200565b9150509250929050565b7f4e487b7100000000000000000000000000000000000000000000000000000000600052602160045260246000fd5b6002811061235457612353612314565b5b50565b600081905061236582612343565b919050565b600061237582612357565b9050919050565b6123858161236a565b82525050565b600081519050919050565b600082825260208201905092915050565b60005b838110156123c55780820151818401526020810190506123aa565b60008484015250505050565b60006123dc8261238b565b6123e68185612396565b93506123f68185602086016123a7565b6123ff81611f4a565b840191505092915050565b61241381612095565b82525050565b612422816120cd565b82525050565b6000606083016000830151848203600086015261244582826123d1565b915050602083015161245a602086018261240a565b50604083015161246d6040860182612419565b508091505092915050565b600060208301600083015184820360008601526124958282612428565b9150508091505092915050565b60006060830160008301516124ba600086018261237c565b50602083015184820360208601526124d28282612478565b915050604083015184820360408601526124ec8282612478565b9150508091505092915050565b6000602082019050818103600083015261251381846124a2565b905092915050565b6000806040838503121561253257612531611f3b565b5b600083013567ffffffffffffffff8111156125505761254f611f40565b5b61255c85828601612200565b925050602083013567ffffffffffffffff81111561257d5761257c611f40565b5b61258985828601612200565b9150509250929050565b600080604083850312156125aa576125a9611f3b565b5b600083013567ffffffffffffffff8111156125c8576125c7611f40565b5b6125d4858286016121a8565b925050602083013567ffffffffffffffff8111156125f5576125f4611f40565b5b612601858286016121a8565b9150509250929050565b60006020828403121561262157612620611f3b565b5b600082013567ffffffffffffffff81111561263f5761263e611f40565b5b61264b84828501612200565b91505092915050565b61265d81612095565b82525050565b60006020820190506126786000830184612654565b92915050565b6000819050919050565b6000819050919050565b60006126ad6126a86126a38461267e565b612688565b6120cd565b9050919050565b6126bd81612692565b82525050565b6126cc81612095565b82525050565b60006040820190506126e760008301856126b4565b6126f460208301846126c3565b9392505050565b600061270e61270984611fe5565b611fbb565b90508281526020810184848401111561272a57612729611fe0565b5b6127358482856123a7565b509392505050565b600082601f83011261275257612751611fdb565b5b81516127628482602086016126fb565b91505092915050565b60008151905061277a816120a1565b92915050565b60008151905061278f816120d7565b92915050565b6000606082840312156127ab576127aa611f45565b5b6127b56060611fbb565b9050600082015167ffffffffffffffff8111156127d5576127d4611fd6565b5b6127e18482850161273d565b60008301525060206127f58482850161276b565b602083015250604061280984828501612780565b60408301525092915050565b60006020828403121561282b5761282a611f3b565b5b600082015167ffffffffffffffff81111561284957612848611f40565b5b61285584828501612795565b91505092915050565b600082825260208201905092915050565b600061287a8261238b565b612884818561285e565b93506128948185602086016123a7565b61289d81611f4a565b840191505092915050565b6128b181612095565b82525050565b6128c0816120cd565b82525050565b600060608301600083015184820360008601526128e3828261286f565b91505060208301516128f860208601826128a8565b50604083015161290b60408601826128b7565b508091505092915050565b6000604082019050818103600083015261293081856128c6565b9050818103602083015261294481846128c6565b90509392505050565b6000602083016000830151848203600086015261296a8282612428565b9150508091505092915050565b60006040820190508181036000830152612991818561294d565b905081810360208301526129a5818461294d565b90509392505050565b6000602082840312156129c4576129c3611f3b565b5b60006129d28482850161276b565b91505092915050565b6000602082840312156129f1576129f0611f45565b5b6129fb6020611fbb565b9050600082015167ffffffffffffffff811115612a1b57612a1a611fd6565b5b612a2784828501612795565b60008301525092915050565b600060208284031215612a4957612a48611f3b565b5b600082015167ffffffffffffffff811115612a6757612a66611f40565b5b612a73848285016129db565b91505092915050565b60006020820190508181036000830152612a96818461294d565b905092915050565b600082825260208201905092915050565b7f63616e6e6f74206e656761746520706f696e7420617420696e66696e69747900600082015250565b6000612ae5601f83612a9e565b9150612af082612aaf565b602082019050919050565b60006020820190508181036000830152612b1481612ad8565b9050919050565b60006060820190508181036000830152612b3581866128c6565b90508181036020830152612b4981856128c6565b9050612b5860408301846126c3565b949350505050565b6000819050919050565b612b7381612b60565b8114612b7e57600080fd5b50565b600081519050612b9081612b6a565b92915050565b600060208284031215612bac57612bab611f3b565b5b6000612bba84828501612b81565b91505092915050565b60006020820190508181036000830152612bdd81846128c6565b905092915050565b60006040820190508181036000830152612bff81856128c6565b9050612c0e60208301846126b4565b939250505056fea2646970667358221220865c61c237ebb2570d65e3962b55248bb716763aca37c81fd61e491d8e81cd7364736f6c634300081b0033608060405234801561001057600080fd5b50604051613107380380613107833981810160405281019061003291906100ed565b806000806101000a81548173ffffffffffffffffffffffffffffffffffffffff021916908373ffffffffffffffffffffffffffffffffffffffff1602179055505061011a565b600080fd5b600073ffffffffffffffffffffffffffffffffffffffff82169050919050565b60006100a88261007d565b9050919050565b60006100ba8261009d565b9050919050565b6100ca816100af565b81146100d557600080fd5b50565b6000815190506100e7816100c1565b92915050565b60006020828403121561010357610102610078565b5b6000610111848285016100d8565b91505092915050565b612fde806101296000396000f3fe608060405234801561001057600080fd5b50600436106100625760003560e01c80632106685b1461006757806324dca0c71461009757806355e359c8146100c75780639c3e8627146100f75780639ee46fb314610127578063bedacbae14610157575b600080fd5b610081600480360381019061007c9190612536565b610187565b60405161008e91906127a8565b60405180910390f35b6100b160048036038101906100ac91906127ca565b610347565b6040516100be91906127a8565b60405180910390f35b6100e160048036038101906100dc9190612842565b610e39565b6040516100ee91906127a8565b60405180910390f35b610111600480360381019061010c91906127ca565b6110ad565b60405161011e91906128c9565b60405180910390f35b610141600480360381019061013c9190612536565b6112e2565b60405161014e91906127a8565b60405180910390f35b610171600480360381019061016c91906128e4565b611da4565b60405161017e91906127a8565b60405180910390f35b61018f6120a2565b6001808111156101a2576101a161257f565b5b826000015160018111156101b9576101b861257f565b5b036101f9576040517f08c379a00000000000000000000000000000000000000000000000000000000081526004016101f0906129cc565b60405180910390fd5b6103406000836020015160008054906101000a900473ffffffffffffffffffffffffffffffffffffffff1673ffffffffffffffffffffffffffffffffffffffff16635f6910d460008054906101000a900473ffffffffffffffffffffffffffffffffffffffff1673ffffffffffffffffffffffffffffffffffffffff1663bc1b392d6040518163ffffffff1660e01b8152600401600060405180830381865afa1580156102aa573d6000803e3d6000fd5b505050506040513d6000823e3d601f19601f820116820180604052508101906102d39190612be6565b87604001516040518363ffffffff1660e01b81526004016102f5929190612c73565b600060405180830381865afa158015610312573d6000803e3d6000fd5b505050506040513d6000823e3d601f19601f8201168201806040525081019061033b9190612be6565b611da4565b9050919050565b61034f6120a2565b6001808111156103625761036161257f565b5b836000015160018111156103795761037861257f565b5b0361038657819050610e33565b6001808111156103995761039861257f565b5b826000015160018111156103b0576103af61257f565b5b036103bd57829050610e33565b60008054906101000a900473ffffffffffffffffffffffffffffffffffffffff1673ffffffffffffffffffffffffffffffffffffffff1663ab80cf76846020015184602001516040518363ffffffff1660e01b8152600401610420929190612c73565b602060405180830381865afa15801561043d573d6000803e3d6000fd5b505050506040513d601f19601f820116820180604052508101906104619190612caa565b801561050d575060008054906101000a900473ffffffffffffffffffffffffffffffffffffffff1673ffffffffffffffffffffffffffffffffffffffff1663ab80cf76846040015184604001516040518363ffffffff1660e01b81526004016104cb929190612c73565b602060405180830381865afa1580156104e8573d6000803e3d6000fd5b505050506040513d601f19601f8201168201806040525081019061050c9190612caa565b5b156105225761051b836112e2565b9050610e33565b60008054906101000a900473ffffffffffffffffffffffffffffffffffffffff1673ffffffffffffffffffffffffffffffffffffffff1663ab80cf76846020015184602001516040518363ffffffff1660e01b8152600401610585929190612c73565b602060405180830381865afa1580156105a2573d6000803e3d6000fd5b505050506040513d601f19601f820116820180604052508101906105c69190612caa565b8015610673575060008054906101000a900473ffffffffffffffffffffffffffffffffffffffff1673ffffffffffffffffffffffffffffffffffffffff1663ab80cf76846040015184604001516040518363ffffffff1660e01b8152600401610630929190612c73565b602060405180830381865afa15801561064d573d6000803e3d6000fd5b505050506040513d601f19601f820116820180604052508101906106719190612caa565b155b156107b1576107aa600160008054906101000a900473ffffffffffffffffffffffffffffffffffffffff1673ffffffffffffffffffffffffffffffffffffffff1663bc1b392d6040518163ffffffff1660e01b8152600401600060405180830381865afa1580156106e8573d6000803e3d6000fd5b505050506040513d6000823e3d601f19601f820116820180604052508101906107119190612be6565b60008054906101000a900473ffffffffffffffffffffffffffffffffffffffff1673ffffffffffffffffffffffffffffffffffffffff1663bc1b392d6040518163ffffffff1660e01b8152600401600060405180830381865afa15801561077c573d6000803e3d6000fd5b505050506040513d6000823e3d601f19601f820116820180604052508101906107a59190612be6565b611da4565b9050610e33565b60008060009054906101000a900473ffffffffffffffffffffffffffffffffffffffff1673ffffffffffffffffffffffffffffffffffffffff166307a5ecaa60008054906101000a900473ffffffffffffffffffffffffffffffffffffffff1673ffffffffffffffffffffffffffffffffffffffff16635f6910d4866040015188604001516040518363ffffffff1660e01b8152600401610853929190612c73565b600060405180830381865afa158015610870573d6000803e3d6000fd5b505050506040513d6000823e3d601f19601f820116820180604052508101906108999190612be6565b60008054906101000a900473ffffffffffffffffffffffffffffffffffffffff1673ffffffffffffffffffffffffffffffffffffffff166364c044fe60008054906101000a900473ffffffffffffffffffffffffffffffffffffffff1673ffffffffffffffffffffffffffffffffffffffff16635f6910d489602001518b602001516040518363ffffffff1660e01b8152600401610938929190612c73565b600060405180830381865afa158015610955573d6000803e3d6000fd5b505050506040513d6000823e3d601f19601f8201168201806040525081019061097e9190612be6565b6040518263ffffffff1660e01b815260040161099a9190612cd7565b600060405180830381865afa1580156109b7573d6000803e3d6000fd5b505050506040513d6000823e3d601f19601f820116820180604052508101906109e09190612be6565b6040518363ffffffff1660e01b81526004016109fd929190612c73565b600060405180830381865afa158015610a1a573d6000803e3d6000fd5b505050506040513d6000823e3d601f19601f82011682018060405250810190610a439190612be6565b905060008060009054906101000a900473ffffffffffffffffffffffffffffffffffffffff1673ffffffffffffffffffffffffffffffffffffffff16635f6910d460008054906101000a900473ffffffffffffffffffffffffffffffffffffffff1673ffffffffffffffffffffffffffffffffffffffff16635f6910d460008054906101000a900473ffffffffffffffffffffffffffffffffffffffff1673ffffffffffffffffffffffffffffffffffffffff166307a5ecaa87886040518363ffffffff1660e01b8152600401610b1b929190612c73565b600060405180830381865afa158015610b38573d6000803e3d6000fd5b505050506040513d6000823e3d601f19601f82011682018060405250810190610b619190612be6565b89602001516040518363ffffffff1660e01b8152600401610b83929190612c73565b600060405180830381865afa158015610ba0573d6000803e3d6000fd5b505050506040513d6000823e3d601f19601f82011682018060405250810190610bc99190612be6565b86602001516040518363ffffffff1660e01b8152600401610beb929190612c73565b600060405180830381865afa158015610c08573d6000803e3d6000fd5b505050506040513d6000823e3d601f19601f82011682018060405250810190610c319190612be6565b905060008060009054906101000a900473ffffffffffffffffffffffffffffffffffffffff1673ffffffffffffffffffffffffffffffffffffffff16635f6910d460008054906101000a900473ffffffffffffffffffffffffffffffffffffffff1673ffffffffffffffffffffffffffffffffffffffff166307a5ecaa60008054906101000a900473ffffffffffffffffffffffffffffffffffffffff1673ffffffffffffffffffffffffffffffffffffffff16635f6910d48b60200151886040518363ffffffff1660e01b8152600401610d0d929190612c73565b600060405180830381865afa158015610d2a573d6000803e3d6000fd5b505050506040513d6000823e3d601f19601f82011682018060405250810190610d539190612be6565b876040518363ffffffff1660e01b8152600401610d71929190612c73565b600060405180830381865afa158015610d8e573d6000803e3d6000fd5b505050506040513d6000823e3d601f19601f82011682018060405250810190610db79190612be6565b88604001516040518363ffffffff1660e01b8152600401610dd9929190612c73565b600060405180830381865afa158015610df6573d6000803e3d6000fd5b505050506040513d6000823e3d601f19601f82011682018060405250810190610e1f9190612be6565b9050610e2d60008383611da4565b93505050505b92915050565b610e416120a2565b6000610f75600160008054906101000a900473ffffffffffffffffffffffffffffffffffffffff1673ffffffffffffffffffffffffffffffffffffffff1663bc1b392d6040518163ffffffff1660e01b8152600401600060405180830381865afa158015610eb3573d6000803e3d6000fd5b505050506040513d6000823e3d601f19601f82011682018060405250810190610edc9190612be6565b60008054906101000a900473ffffffffffffffffffffffffffffffffffffffff1673ffffffffffffffffffffffffffffffffffffffff1663bc1b392d6040518163ffffffff1660e01b8152600401600060405180830381865afa158015610f47573d6000803e3d6000fd5b505050506040513d6000823e3d601f19601f82011682018060405250810190610f709190612be6565b611da4565b90508360200151610f9357610f8b848483611de2565b9150506110a7565b6110a373__$7db5d2dbc3ae63372df6c39d501ad0f72a$__63b1d74ee98673__$7db5d2dbc3ae63372df6c39d501ad0f72a$__6340957f726001806040518363ffffffff1660e01b8152600401610feb929190612d4d565b600060405180830381865af4158015611008573d6000803e3d6000fd5b505050506040513d6000823e3d601f19601f820116820180604052508101906110319190612d76565b6040518363ffffffff1660e01b815260040161104e929190612e77565b600060405180830381865af415801561106b573d6000803e3d6000fd5b505050506040513d6000823e3d601f19601f820116820180604052508101906110949190612d76565b61109d85610187565b83611de2565b9150505b92915050565b60006001808111156110c2576110c161257f565b5b836000015160018111156110d9576110d861257f565b5b14801561110d57506001808111156110f4576110f361257f565b5b8260000151600181111561110b5761110a61257f565b5b145b1561111b57600190506112dc565b6000600181111561112f5761112e61257f565b5b836000015160018111156111465761114561257f565b5b14801561117b5750600060018111156111625761116161257f565b5b826000015160018111156111795761117861257f565b5b145b156112d75760008054906101000a900473ffffffffffffffffffffffffffffffffffffffff1673ffffffffffffffffffffffffffffffffffffffff1663ab80cf76846020015185604001516040518363ffffffff1660e01b81526004016111e3929190612c73565b602060405180830381865afa158015611200573d6000803e3d6000fd5b505050506040513d601f19601f820116820180604052508101906112249190612caa565b80156112d0575060008054906101000a900473ffffffffffffffffffffffffffffffffffffffff1673ffffffffffffffffffffffffffffffffffffffff1663ab80cf76846040015184604001516040518363ffffffff1660e01b815260040161128e929190612c73565b602060405180830381865afa1580156112ab573d6000803e3d6000fd5b505050506040513d601f19601f820116820180604052508101906112cf9190612caa565b5b90506112dc565b600090505b92915050565b6112ea6120a2565b60008054906101000a900473ffffffffffffffffffffffffffffffffffffffff1673ffffffffffffffffffffffffffffffffffffffff1663ab80cf76836040015160008054906101000a900473ffffffffffffffffffffffffffffffffffffffff1673ffffffffffffffffffffffffffffffffffffffff1663bc1b392d6040518163ffffffff1660e01b8152600401600060405180830381865afa158015611396573d6000803e3d6000fd5b505050506040513d6000823e3d601f19601f820116820180604052508101906113bf9190612be6565b6040518363ffffffff1660e01b81526004016113dc929190612c73565b602060405180830381865afa1580156113f9573d6000803e3d6000fd5b505050506040513d601f19601f8201168201806040525081019061141d9190612caa565b1561155b57611554600160008054906101000a900473ffffffffffffffffffffffffffffffffffffffff1673ffffffffffffffffffffffffffffffffffffffff1663bc1b392d6040518163ffffffff1660e01b8152600401600060405180830381865afa158015611492573d6000803e3d6000fd5b505050506040513d6000823e3d601f19601f820116820180604052508101906114bb9190612be6565b60008054906101000a900473ffffffffffffffffffffffffffffffffffffffff1673ffffffffffffffffffffffffffffffffffffffff1663bc1b392d6040518163ffffffff1660e01b8152600401600060405180830381865afa158015611526573d6000803e3d6000fd5b505050506040513d6000823e3d601f19601f8201168201806040525081019061154f9190612be6565b611da4565b9050611d9f565b60008060009054906101000a900473ffffffffffffffffffffffffffffffffffffffff1673ffffffffffffffffffffffffffffffffffffffff166307a5ecaa60008054906101000a900473ffffffffffffffffffffffffffffffffffffffff1673ffffffffffffffffffffffffffffffffffffffff166307a5ecaa60008054906101000a900473ffffffffffffffffffffffffffffffffffffffff1673ffffffffffffffffffffffffffffffffffffffff166345caa1176040518163ffffffff1660e01b8152600401600060405180830381865afa158015611641573d6000803e3d6000fd5b505050506040513d6000823e3d601f19601f8201168201806040525081019061166a9190612be6565b60008054906101000a900473ffffffffffffffffffffffffffffffffffffffff1673ffffffffffffffffffffffffffffffffffffffff166307a5ecaa89602001518a602001516040518363ffffffff1660e01b81526004016116cd929190612c73565b600060405180830381865afa1580156116ea573d6000803e3d6000fd5b505050506040513d6000823e3d601f19601f820116820180604052508101906117139190612be6565b6040518363ffffffff1660e01b8152600401611730929190612c73565b600060405180830381865afa15801561174d573d6000803e3d6000fd5b505050506040513d6000823e3d601f19601f820116820180604052508101906117769190612be6565b60008054906101000a900473ffffffffffffffffffffffffffffffffffffffff1673ffffffffffffffffffffffffffffffffffffffff166364c044fe60008054906101000a900473ffffffffffffffffffffffffffffffffffffffff1673ffffffffffffffffffffffffffffffffffffffff166307a5ecaa60008054906101000a900473ffffffffffffffffffffffffffffffffffffffff1673ffffffffffffffffffffffffffffffffffffffff16635fdf05d76040518163ffffffff1660e01b8152600401600060405180830381865afa158015611859573d6000803e3d6000fd5b505050506040513d6000823e3d601f19601f820116820180604052508101906118829190612be6565b8a604001516040518363ffffffff1660e01b81526004016118a4929190612c73565b600060405180830381865afa1580156118c1573d6000803e3d6000fd5b505050506040513d6000823e3d601f19601f820116820180604052508101906118ea9190612be6565b6040518263ffffffff1660e01b81526004016119069190612cd7565b600060405180830381865afa158015611923573d6000803e3d6000fd5b505050506040513d6000823e3d601f19601f8201168201806040525081019061194c9190612be6565b6040518363ffffffff1660e01b8152600401611969929190612c73565b600060405180830381865afa158015611986573d6000803e3d6000fd5b505050506040513d6000823e3d601f19601f820116820180604052508101906119af9190612be6565b905060008060009054906101000a900473ffffffffffffffffffffffffffffffffffffffff1673ffffffffffffffffffffffffffffffffffffffff16635f6910d460008054906101000a900473ffffffffffffffffffffffffffffffffffffffff1673ffffffffffffffffffffffffffffffffffffffff16635f6910d460008054906101000a900473ffffffffffffffffffffffffffffffffffffffff1673ffffffffffffffffffffffffffffffffffffffff166307a5ecaa87886040518363ffffffff1660e01b8152600401611a87929190612c73565b600060405180830381865afa158015611aa4573d6000803e3d6000fd5b505050506040513d6000823e3d601f19601f82011682018060405250810190611acd9190612be6565b88602001516040518363ffffffff1660e01b8152600401611aef929190612c73565b600060405180830381865afa158015611b0c573d6000803e3d6000fd5b505050506040513d6000823e3d601f19601f82011682018060405250810190611b359190612be6565b86602001516040518363ffffffff1660e01b8152600401611b57929190612c73565b600060405180830381865afa158015611b74573d6000803e3d6000fd5b505050506040513d6000823e3d601f19601f82011682018060405250810190611b9d9190612be6565b905060008060009054906101000a900473ffffffffffffffffffffffffffffffffffffffff1673ffffffffffffffffffffffffffffffffffffffff16635f6910d460008054906101000a900473ffffffffffffffffffffffffffffffffffffffff1673ffffffffffffffffffffffffffffffffffffffff166307a5ecaa60008054906101000a900473ffffffffffffffffffffffffffffffffffffffff1673ffffffffffffffffffffffffffffffffffffffff16635f6910d48a60200151886040518363ffffffff1660e01b8152600401611c79929190612c73565b600060405180830381865afa158015611c96573d6000803e3d6000fd5b505050506040513d6000823e3d601f19601f82011682018060405250810190611cbf9190612be6565b876040518363ffffffff1660e01b8152600401611cdd929190612c73565b600060405180830381865afa158015611cfa573d6000803e3d6000fd5b505050506040513d6000823e3d601f19601f82011682018060405250810190611d239190612be6565b87604001516040518363ffffffff1660e01b8152600401611d45929190612c73565b600060405180830381865afa158015611d62573d6000803e3d6000fd5b505050506040513d6000823e3d601f19601f82011682018060405250810190611d8b9190612be6565b9050611d9960008383611da4565b93505050505b919050565b611dac6120a2565b6040518060600160405280856001811115611dca57611dc961257f565b5b81526020018481526020018381525090509392505050565b611dea6120a2565b600073__$7db5d2dbc3ae63372df6c39d501ad0f72a$__63bc39804e8673__$7db5d2dbc3ae63372df6c39d501ad0f72a$__63bc1b392d6040518163ffffffff1660e01b8152600401600060405180830381865af4158015611e50573d6000803e3d6000fd5b505050506040513d6000823e3d601f19601f82011682018060405250810190611e799190612d76565b60006040518463ffffffff1660e01b8152600401611e9993929190612eae565b602060405180830381865af4158015611eb6573d6000803e3d6000fd5b505050506040513d601f19601f82011682018060405250810190611eda9190612f29565b03611ee75781905061209b565b73__$7db5d2dbc3ae63372df6c39d501ad0f72a$__63ee4a4e4e856040518263ffffffff1660e01b8152600401611f1e9190612f56565b602060405180830381865af4158015611f3b573d6000803e3d6000fd5b505050506040513d601f19601f82011682018060405250810190611f5f9190612caa565b1561200657611fff73__$7db5d2dbc3ae63372df6c39d501ad0f72a$__636efac6c78660016040518363ffffffff1660e01b8152600401611fa1929190612f78565b600060405180830381865af4158015611fbe573d6000803e3d6000fd5b505050506040513d6000823e3d601f19601f82011682018060405250810190611fe79190612d76565b611ff0856112e2565b611ffa8587610347565b611de2565b905061209b565b61209873__$7db5d2dbc3ae63372df6c39d501ad0f72a$__636efac6c78660016040518363ffffffff1660e01b8152600401612043929190612f78565b600060405180830381865af4158015612060573d6000803e3d6000fd5b505050506040513d6000823e3d601f19601f820116820180604052508101906120899190612d76565b612092856112e2565b84611de2565b90505b9392505050565b6040518060600160405280600060018111156120c1576120c061257f565b5b81526020016120ce6120e1565b81526020016120db6120e1565b81525090565b60405180604001604052806120f4612107565b8152602001612101612107565b81525090565b604051806020016040528061211a612120565b81525090565b604051806060016040528060608152602001600015158152602001600081525090565b6000604051905090565b600080fd5b600080fd5b600080fd5b6000601f19601f8301169050919050565b7f4e487b7100000000000000000000000000000000000000000000000000000000600052604160045260246000fd5b6121a58261215c565b810181811067ffffffffffffffff821117156121c4576121c361216d565b5b80604052505050565b60006121d7612143565b90506121e3828261219c565b919050565b600080fd5b600281106121fa57600080fd5b50565b60008135905061220c816121ed565b92915050565b600080fd5b600080fd5b600067ffffffffffffffff8211156122375761223661216d565b5b6122408261215c565b9050602081019050919050565b82818337600083830152505050565b600061226f61226a8461221c565b6121cd565b90508281526020810184848401111561228b5761228a612217565b5b61229684828561224d565b509392505050565b600082601f8301126122b3576122b2612212565b5b81356122c384826020860161225c565b91505092915050565b60008115159050919050565b6122e1816122cc565b81146122ec57600080fd5b50565b6000813590506122fe816122d8565b92915050565b6000819050919050565b61231781612304565b811461232257600080fd5b50565b6000813590506123348161230e565b92915050565b6000606082840312156123505761234f612157565b5b61235a60606121cd565b9050600082013567ffffffffffffffff81111561237a576123796121e8565b5b6123868482850161229e565b600083015250602061239a848285016122ef565b60208301525060406123ae84828501612325565b60408301525092915050565b6000602082840312156123d0576123cf612157565b5b6123da60206121cd565b9050600082013567ffffffffffffffff8111156123fa576123f96121e8565b5b6124068482850161233a565b60008301525092915050565b60006040828403121561242857612427612157565b5b61243260406121cd565b9050600082013567ffffffffffffffff811115612452576124516121e8565b5b61245e848285016123ba565b600083015250602082013567ffffffffffffffff811115612482576124816121e8565b5b61248e848285016123ba565b60208301525092915050565b6000606082840312156124b0576124af612157565b5b6124ba60606121cd565b905060006124ca848285016121fd565b600083015250602082013567ffffffffffffffff8111156124ee576124ed6121e8565b5b6124fa84828501612412565b602083015250604082013567ffffffffffffffff81111561251e5761251d6121e8565b5b61252a84828501612412565b60408301525092915050565b60006020828403121561254c5761254b61214d565b5b600082013567ffffffffffffffff81111561256a57612569612152565b5b6125768482850161249a565b91505092915050565b7f4e487b7100000000000000000000000000000000000000000000000000000000600052602160045260246000fd5b600281106125bf576125be61257f565b5b50565b60008190506125d0826125ae565b919050565b60006125e0826125c2565b9050919050565b6125f0816125d5565b82525050565b600081519050919050565b600082825260208201905092915050565b60005b83811015612630578082015181840152602081019050612615565b60008484015250505050565b6000612647826125f6565b6126518185612601565b9350612661818560208601612612565b61266a8161215c565b840191505092915050565b61267e816122cc565b82525050565b61268d81612304565b82525050565b600060608301600083015184820360008601526126b0828261263c565b91505060208301516126c56020860182612675565b5060408301516126d86040860182612684565b508091505092915050565b600060208301600083015184820360008601526127008282612693565b9150508091505092915050565b6000604083016000830151848203600086015261272a82826126e3565b9150506020830151848203602086015261274482826126e3565b9150508091505092915050565b600060608301600083015161276960008601826125e7565b5060208301518482036020860152612781828261270d565b9150506040830151848203604086015261279b828261270d565b9150508091505092915050565b600060208201905081810360008301526127c28184612751565b905092915050565b600080604083850312156127e1576127e061214d565b5b600083013567ffffffffffffffff8111156127ff576127fe612152565b5b61280b8582860161249a565b925050602083013567ffffffffffffffff81111561282c5761282b612152565b5b6128388582860161249a565b9150509250929050565b600080604083850312156128595761285861214d565b5b600083013567ffffffffffffffff81111561287757612876612152565b5b6128838582860161233a565b925050602083013567ffffffffffffffff8111156128a4576128a3612152565b5b6128b08582860161249a565b9150509250929050565b6128c3816122cc565b82525050565b60006020820190506128de60008301846128ba565b92915050565b6000806000606084860312156128fd576128fc61214d565b5b600061290b868287016121fd565b935050602084013567ffffffffffffffff81111561292c5761292b612152565b5b61293886828701612412565b925050604084013567ffffffffffffffff81111561295957612958612152565b5b61296586828701612412565b9150509250925092565b600082825260208201905092915050565b7f63616e6e6f74206e656761746520706f696e7420617420696e66696e69747900600082015250565b60006129b6601f8361296f565b91506129c182612980565b602082019050919050565b600060208201905081810360008301526129e5816129a9565b9050919050565b60006129ff6129fa8461221c565b6121cd565b905082815260208101848484011115612a1b57612a1a612217565b5b612a26848285612612565b509392505050565b600082601f830112612a4357612a42612212565b5b8151612a538482602086016129ec565b91505092915050565b600081519050612a6b816122d8565b92915050565b600081519050612a808161230e565b92915050565b600060608284031215612a9c57612a9b612157565b5b612aa660606121cd565b9050600082015167ffffffffffffffff811115612ac657612ac56121e8565b5b612ad284828501612a2e565b6000830152506020612ae684828501612a5c565b6020830152506040612afa84828501612a71565b60408301525092915050565b600060208284031215612b1c57612b1b612157565b5b612b2660206121cd565b9050600082015167ffffffffffffffff811115612b4657612b456121e8565b5b612b5284828501612a86565b60008301525092915050565b600060408284031215612b7457612b73612157565b5b612b7e60406121cd565b9050600082015167ffffffffffffffff811115612b9e57612b9d6121e8565b5b612baa84828501612b06565b600083015250602082015167ffffffffffffffff811115612bce57612bcd6121e8565b5b612bda84828501612b06565b60208301525092915050565b600060208284031215612bfc57612bfb61214d565b5b600082015167ffffffffffffffff811115612c1a57612c19612152565b5b612c2684828501612b5e565b91505092915050565b60006040830160008301518482036000860152612c4c82826126e3565b91505060208301518482036020860152612c6682826126e3565b9150508091505092915050565b60006040820190508181036000830152612c8d8185612c2f565b90508181036020830152612ca18184612c2f565b90509392505050565b600060208284031215612cc057612cbf61214d565b5b6000612cce84828501612a5c565b91505092915050565b60006020820190508181036000830152612cf18184612c2f565b905092915050565b6000819050919050565b6000819050919050565b6000612d28612d23612d1e84612cf9565b612d03565b612304565b9050919050565b612d3881612d0d565b82525050565b612d47816122cc565b82525050565b6000604082019050612d626000830185612d2f565b612d6f6020830184612d3e565b9392505050565b600060208284031215612d8c57612d8b61214d565b5b600082015167ffffffffffffffff811115612daa57612da9612152565b5b612db684828501612a86565b91505092915050565b600082825260208201905092915050565b6000612ddb826125f6565b612de58185612dbf565b9350612df5818560208601612612565b612dfe8161215c565b840191505092915050565b612e12816122cc565b82525050565b612e2181612304565b82525050565b60006060830160008301518482036000860152612e448282612dd0565b9150506020830151612e596020860182612e09565b506040830151612e6c6040860182612e18565b508091505092915050565b60006040820190508181036000830152612e918185612e27565b90508181036020830152612ea58184612e27565b90509392505050565b60006060820190508181036000830152612ec88186612e27565b90508181036020830152612edc8185612e27565b9050612eeb6040830184612d3e565b949350505050565b6000819050919050565b612f0681612ef3565b8114612f1157600080fd5b50565b600081519050612f2381612efd565b92915050565b600060208284031215612f3f57612f3e61214d565b5b6000612f4d84828501612f14565b91505092915050565b60006020820190508181036000830152612f708184612e27565b905092915050565b60006040820190508181036000830152612f928185612e27565b9050612fa16020830184612d2f565b939250505056fea26469706673582212204f85b73da826d283df4e59a095fbb2545c68493c394e31a9c1e22eca8456af2c64736f6c634300081b0033608060405234801561001057600080fd5b50604051613482380380613482833981810160405281019061003291906100ed565b806000806101000a81548173ffffffffffffffffffffffffffffffffffffffff021916908373ffffffffffffffffffffffffffffffffffffffff1602179055505061011a565b600080fd5b600073ffffffffffffffffffffffffffffffffffffffff82169050919050565b60006100a88261007d565b9050919050565b60006100ba8261009d565b9050919050565b6100ca816100af565b81146100d557600080fd5b50565b6000815190506100e7816100c1565b92915050565b60006020828403121561010357610102610078565b5b6000610111848285016100d8565b91505092915050565b613359806101296000396000f3fe608060405234801561001057600080fd5b50600436106100625760003560e01c80631d763e26146100675780634156f514146100975780635bd69fb6146100c7578063998e9b38146100f7578063adbe3ee314610127578063dec70b2914610157575b600080fd5b610081600480360381019061007c9190612633565b610187565b60405161008e9190612989565b60405180910390f35b6100b160048036038101906100ac9190612a47565b6101c5565b6040516100be9190612989565b60405180910390f35b6100e160048036038101906100dc9190612abf565b610cb7565b6040516100ee9190612989565b60405180910390f35b610111600480360381019061010c9190612a47565b610f2b565b60405161011e9190612b46565b60405180910390f35b610141600480360381019061013c9190612b61565b611160565b60405161014e9190612989565b60405180910390f35b610171600480360381019061016c9190612b61565b611c22565b60405161017e9190612989565b60405180910390f35b61018f6120a2565b60405180606001604052808560018111156101ad576101ac6126be565b5b81526020018481526020018381525090509392505050565b6101cd6120a2565b6001808111156101e0576101df6126be565b5b836000015160018111156101f7576101f66126be565b5b0361020457819050610cb1565b600180811115610217576102166126be565b5b8260000151600181111561022e5761022d6126be565b5b0361023b57829050610cb1565b60008054906101000a900473ffffffffffffffffffffffffffffffffffffffff1673ffffffffffffffffffffffffffffffffffffffff16639eea8ce8846020015184602001516040518363ffffffff1660e01b815260040161029e929190612bee565b602060405180830381865afa1580156102bb573d6000803e3d6000fd5b505050506040513d601f19601f820116820180604052508101906102df9190612c3a565b801561038b575060008054906101000a900473ffffffffffffffffffffffffffffffffffffffff1673ffffffffffffffffffffffffffffffffffffffff16639eea8ce8846040015184604001516040518363ffffffff1660e01b8152600401610349929190612bee565b602060405180830381865afa158015610366573d6000803e3d6000fd5b505050506040513d601f19601f8201168201806040525081019061038a9190612c3a565b5b156103a05761039983611160565b9050610cb1565b60008054906101000a900473ffffffffffffffffffffffffffffffffffffffff1673ffffffffffffffffffffffffffffffffffffffff16639eea8ce8846020015184602001516040518363ffffffff1660e01b8152600401610403929190612bee565b602060405180830381865afa158015610420573d6000803e3d6000fd5b505050506040513d601f19601f820116820180604052508101906104449190612c3a565b80156104f1575060008054906101000a900473ffffffffffffffffffffffffffffffffffffffff1673ffffffffffffffffffffffffffffffffffffffff16639eea8ce8846040015184604001516040518363ffffffff1660e01b81526004016104ae929190612bee565b602060405180830381865afa1580156104cb573d6000803e3d6000fd5b505050506040513d601f19601f820116820180604052508101906104ef9190612c3a565b155b1561062f57610628600160008054906101000a900473ffffffffffffffffffffffffffffffffffffffff1673ffffffffffffffffffffffffffffffffffffffff1663bc1b392d6040518163ffffffff1660e01b8152600401600060405180830381865afa158015610566573d6000803e3d6000fd5b505050506040513d6000823e3d601f19601f8201168201806040525081019061058f9190612f8c565b60008054906101000a900473ffffffffffffffffffffffffffffffffffffffff1673ffffffffffffffffffffffffffffffffffffffff1663bc1b392d6040518163ffffffff1660e01b8152600401600060405180830381865afa1580156105fa573d6000803e3d6000fd5b505050506040513d6000823e3d601f19601f820116820180604052508101906106239190612f8c565b610187565b9050610cb1565b60008060009054906101000a900473ffffffffffffffffffffffffffffffffffffffff1673ffffffffffffffffffffffffffffffffffffffff166377839c6960008054906101000a900473ffffffffffffffffffffffffffffffffffffffff1673ffffffffffffffffffffffffffffffffffffffff16636bc90c28866040015188604001516040518363ffffffff1660e01b81526004016106d1929190612bee565b600060405180830381865afa1580156106ee573d6000803e3d6000fd5b505050506040513d6000823e3d601f19601f820116820180604052508101906107179190612f8c565b60008054906101000a900473ffffffffffffffffffffffffffffffffffffffff1673ffffffffffffffffffffffffffffffffffffffff1663f670079560008054906101000a900473ffffffffffffffffffffffffffffffffffffffff1673ffffffffffffffffffffffffffffffffffffffff16636bc90c2889602001518b602001516040518363ffffffff1660e01b81526004016107b6929190612bee565b600060405180830381865afa1580156107d3573d6000803e3d6000fd5b505050506040513d6000823e3d601f19601f820116820180604052508101906107fc9190612f8c565b6040518263ffffffff1660e01b81526004016108189190612fd5565b600060405180830381865afa158015610835573d6000803e3d6000fd5b505050506040513d6000823e3d601f19601f8201168201806040525081019061085e9190612f8c565b6040518363ffffffff1660e01b815260040161087b929190612bee565b600060405180830381865afa158015610898573d6000803e3d6000fd5b505050506040513d6000823e3d601f19601f820116820180604052508101906108c19190612f8c565b905060008060009054906101000a900473ffffffffffffffffffffffffffffffffffffffff1673ffffffffffffffffffffffffffffffffffffffff16636bc90c2860008054906101000a900473ffffffffffffffffffffffffffffffffffffffff1673ffffffffffffffffffffffffffffffffffffffff16636bc90c2860008054906101000a900473ffffffffffffffffffffffffffffffffffffffff1673ffffffffffffffffffffffffffffffffffffffff166377839c6987886040518363ffffffff1660e01b8152600401610999929190612bee565b600060405180830381865afa1580156109b6573d6000803e3d6000fd5b505050506040513d6000823e3d601f19601f820116820180604052508101906109df9190612f8c565b89602001516040518363ffffffff1660e01b8152600401610a01929190612bee565b600060405180830381865afa158015610a1e573d6000803e3d6000fd5b505050506040513d6000823e3d601f19601f82011682018060405250810190610a479190612f8c565b86602001516040518363ffffffff1660e01b8152600401610a69929190612bee565b600060405180830381865afa158015610a86573d6000803e3d6000fd5b505050506040513d6000823e3d601f19601f82011682018060405250810190610aaf9190612f8c565b905060008060009054906101000a900473ffffffffffffffffffffffffffffffffffffffff1673ffffffffffffffffffffffffffffffffffffffff16636bc90c2860008054906101000a900473ffffffffffffffffffffffffffffffffffffffff1673ffffffffffffffffffffffffffffffffffffffff166377839c6960008054906101000a900473ffffffffffffffffffffffffffffffffffffffff1673ffffffffffffffffffffffffffffffffffffffff16636bc90c288b60200151886040518363ffffffff1660e01b8152600401610b8b929190612bee565b600060405180830381865afa158015610ba8573d6000803e3d6000fd5b505050506040513d6000823e3d601f19601f82011682018060405250810190610bd19190612f8c565b876040518363ffffffff1660e01b8152600401610bef929190612bee565b600060405180830381865afa158015610c0c573d6000803e3d6000fd5b505050506040513d6000823e3d601f19601f82011682018060405250810190610c359190612f8c565b88604001516040518363ffffffff1660e01b8152600401610c57929190612bee565b600060405180830381865afa158015610c74573d6000803e3d6000fd5b505050506040513d6000823e3d601f19601f82011682018060405250810190610c9d9190612f8c565b9050610cab60008383610187565b93505050505b92915050565b610cbf6120a2565b6000610df3600160008054906101000a900473ffffffffffffffffffffffffffffffffffffffff1673ffffffffffffffffffffffffffffffffffffffff1663bc1b392d6040518163ffffffff1660e01b8152600401600060405180830381865afa158015610d31573d6000803e3d6000fd5b505050506040513d6000823e3d601f19601f82011682018060405250810190610d5a9190612f8c565b60008054906101000a900473ffffffffffffffffffffffffffffffffffffffff1673ffffffffffffffffffffffffffffffffffffffff1663bc1b392d6040518163ffffffff1660e01b8152600401600060405180830381865afa158015610dc5573d6000803e3d6000fd5b505050506040513d6000823e3d601f19601f82011682018060405250810190610dee9190612f8c565b610187565b90508360200151610e1157610e09848483611de2565b915050610f25565b610f2173__$7db5d2dbc3ae63372df6c39d501ad0f72a$__63b1d74ee98673__$7db5d2dbc3ae63372df6c39d501ad0f72a$__6340957f726001806040518363ffffffff1660e01b8152600401610e6992919061304b565b600060405180830381865af4158015610e86573d6000803e3d6000fd5b505050506040513d6000823e3d601f19601f82011682018060405250810190610eaf9190613074565b6040518363ffffffff1660e01b8152600401610ecc929190613175565b600060405180830381865af4158015610ee9573d6000803e3d6000fd5b505050506040513d6000823e3d601f19601f82011682018060405250810190610f129190613074565b610f1b85611c22565b83611de2565b9150505b92915050565b6000600180811115610f4057610f3f6126be565b5b83600001516001811115610f5757610f566126be565b5b148015610f8b5750600180811115610f7257610f716126be565b5b82600001516001811115610f8957610f886126be565b5b145b15610f99576001905061115a565b60006001811115610fad57610fac6126be565b5b83600001516001811115610fc457610fc36126be565b5b148015610ff9575060006001811115610fe057610fdf6126be565b5b82600001516001811115610ff757610ff66126be565b5b145b156111555760008054906101000a900473ffffffffffffffffffffffffffffffffffffffff1673ffffffffffffffffffffffffffffffffffffffff16639eea8ce8846020015185604001516040518363ffffffff1660e01b8152600401611061929190612bee565b602060405180830381865afa15801561107e573d6000803e3d6000fd5b505050506040513d601f19601f820116820180604052508101906110a29190612c3a565b801561114e575060008054906101000a900473ffffffffffffffffffffffffffffffffffffffff1673ffffffffffffffffffffffffffffffffffffffff16639eea8ce8846040015184604001516040518363ffffffff1660e01b815260040161110c929190612bee565b602060405180830381865afa158015611129573d6000803e3d6000fd5b505050506040513d601f19601f8201168201806040525081019061114d9190612c3a565b5b905061115a565b600090505b92915050565b6111686120a2565b60008054906101000a900473ffffffffffffffffffffffffffffffffffffffff1673ffffffffffffffffffffffffffffffffffffffff16639eea8ce8836040015160008054906101000a900473ffffffffffffffffffffffffffffffffffffffff1673ffffffffffffffffffffffffffffffffffffffff1663bc1b392d6040518163ffffffff1660e01b8152600401600060405180830381865afa158015611214573d6000803e3d6000fd5b505050506040513d6000823e3d601f19601f8201168201806040525081019061123d9190612f8c565b6040518363ffffffff1660e01b815260040161125a929190612bee565b602060405180830381865afa158015611277573d6000803e3d6000fd5b505050506040513d601f19601f8201168201806040525081019061129b9190612c3a565b156113d9576113d2600160008054906101000a900473ffffffffffffffffffffffffffffffffffffffff1673ffffffffffffffffffffffffffffffffffffffff1663bc1b392d6040518163ffffffff1660e01b8152600401600060405180830381865afa158015611310573d6000803e3d6000fd5b505050506040513d6000823e3d601f19601f820116820180604052508101906113399190612f8c565b60008054906101000a900473ffffffffffffffffffffffffffffffffffffffff1673ffffffffffffffffffffffffffffffffffffffff1663bc1b392d6040518163ffffffff1660e01b8152600401600060405180830381865afa1580156113a4573d6000803e3d6000fd5b505050506040513d6000823e3d601f19601f820116820180604052508101906113cd9190612f8c565b610187565b9050611c1d565b60008060009054906101000a900473ffffffffffffffffffffffffffffffffffffffff1673ffffffffffffffffffffffffffffffffffffffff166377839c6960008054906101000a900473ffffffffffffffffffffffffffffffffffffffff1673ffffffffffffffffffffffffffffffffffffffff166377839c6960008054906101000a900473ffffffffffffffffffffffffffffffffffffffff1673ffffffffffffffffffffffffffffffffffffffff166345caa1176040518163ffffffff1660e01b8152600401600060405180830381865afa1580156114bf573d6000803e3d6000fd5b505050506040513d6000823e3d601f19601f820116820180604052508101906114e89190612f8c565b60008054906101000a900473ffffffffffffffffffffffffffffffffffffffff1673ffffffffffffffffffffffffffffffffffffffff166377839c6989602001518a602001516040518363ffffffff1660e01b815260040161154b929190612bee565b600060405180830381865afa158015611568573d6000803e3d6000fd5b505050506040513d6000823e3d601f19601f820116820180604052508101906115919190612f8c565b6040518363ffffffff1660e01b81526004016115ae929190612bee565b600060405180830381865afa1580156115cb573d6000803e3d6000fd5b505050506040513d6000823e3d601f19601f820116820180604052508101906115f49190612f8c565b60008054906101000a900473ffffffffffffffffffffffffffffffffffffffff1673ffffffffffffffffffffffffffffffffffffffff1663f670079560008054906101000a900473ffffffffffffffffffffffffffffffffffffffff1673ffffffffffffffffffffffffffffffffffffffff166377839c6960008054906101000a900473ffffffffffffffffffffffffffffffffffffffff1673ffffffffffffffffffffffffffffffffffffffff16635fdf05d76040518163ffffffff1660e01b8152600401600060405180830381865afa1580156116d7573d6000803e3d6000fd5b505050506040513d6000823e3d601f19601f820116820180604052508101906117009190612f8c565b8a604001516040518363ffffffff1660e01b8152600401611722929190612bee565b600060405180830381865afa15801561173f573d6000803e3d6000fd5b505050506040513d6000823e3d601f19601f820116820180604052508101906117689190612f8c565b6040518263ffffffff1660e01b81526004016117849190612fd5565b600060405180830381865afa1580156117a1573d6000803e3d6000fd5b505050506040513d6000823e3d601f19601f820116820180604052508101906117ca9190612f8c565b6040518363ffffffff1660e01b81526004016117e7929190612bee565b600060405180830381865afa158015611804573d6000803e3d6000fd5b505050506040513d6000823e3d601f19601f8201168201806040525081019061182d9190612f8c565b905060008060009054906101000a900473ffffffffffffffffffffffffffffffffffffffff1673ffffffffffffffffffffffffffffffffffffffff16636bc90c2860008054906101000a900473ffffffffffffffffffffffffffffffffffffffff1673ffffffffffffffffffffffffffffffffffffffff16636bc90c2860008054906101000a900473ffffffffffffffffffffffffffffffffffffffff1673ffffffffffffffffffffffffffffffffffffffff166377839c6987886040518363ffffffff1660e01b8152600401611905929190612bee565b600060405180830381865afa158015611922573d6000803e3d6000fd5b505050506040513d6000823e3d601f19601f8201168201806040525081019061194b9190612f8c565b88602001516040518363ffffffff1660e01b815260040161196d929190612bee565b600060405180830381865afa15801561198a573d6000803e3d6000fd5b505050506040513d6000823e3d601f19601f820116820180604052508101906119b39190612f8c565b86602001516040518363ffffffff1660e01b81526004016119d5929190612bee565b600060405180830381865afa1580156119f2573d6000803e3d6000fd5b505050506040513d6000823e3d601f19601f82011682018060405250810190611a1b9190612f8c565b905060008060009054906101000a900473ffffffffffffffffffffffffffffffffffffffff1673ffffffffffffffffffffffffffffffffffffffff16636bc90c2860008054906101000a900473ffffffffffffffffffffffffffffffffffffffff1673ffffffffffffffffffffffffffffffffffffffff166377839c6960008054906101000a900473ffffffffffffffffffffffffffffffffffffffff1673ffffffffffffffffffffffffffffffffffffffff16636bc90c288a60200151886040518363ffffffff1660e01b8152600401611af7929190612bee565b600060405180830381865afa158015611b14573d6000803e3d6000fd5b505050506040513d6000823e3d601f19601f82011682018060405250810190611b3d9190612f8c565b876040518363ffffffff1660e01b8152600401611b5b929190612bee565b600060405180830381865afa158015611b78573d6000803e3d6000fd5b505050506040513d6000823e3d601f19601f82011682018060405250810190611ba19190612f8c565b87604001516040518363ffffffff1660e01b8152600401611bc3929190612bee565b600060405180830381865afa158015611be0573d6000803e3d6000fd5b505050506040513d6000823e3d601f19601f82011682018060405250810190611c099190612f8c565b9050611c1760008383610187565b93505050505b919050565b611c2a6120a2565b600180811115611c3d57611c3c6126be565b5b82600001516001811115611c5457611c536126be565b5b03611c94576040517f08c379a0000000000000000000000000000000000000000000000000000000008152600401611c8b90613209565b60405180910390fd5b611ddb6000836020015160008054906101000a900473ffffffffffffffffffffffffffffffffffffffff1673ffffffffffffffffffffffffffffffffffffffff16636bc90c2860008054906101000a900473ffffffffffffffffffffffffffffffffffffffff1673ffffffffffffffffffffffffffffffffffffffff1663bc1b392d6040518163ffffffff1660e01b8152600401600060405180830381865afa158015611d45573d6000803e3d6000fd5b505050506040513d6000823e3d601f19601f82011682018060405250810190611d6e9190612f8c565b87604001516040518363ffffffff1660e01b8152600401611d90929190612bee565b600060405180830381865afa158015611dad573d6000803e3d6000fd5b505050506040513d6000823e3d601f19601f82011682018060405250810190611dd69190612f8c565b610187565b9050919050565b611dea6120a2565b600073__$7db5d2dbc3ae63372df6c39d501ad0f72a$__63bc39804e8673__$7db5d2dbc3ae63372df6c39d501ad0f72a$__63bc1b392d6040518163ffffffff1660e01b8152600401600060405180830381865af4158015611e50573d6000803e3d6000fd5b505050506040513d6000823e3d601f19601f82011682018060405250810190611e799190613074565b60006040518463ffffffff1660e01b8152600401611e9993929190613229565b602060405180830381865af4158015611eb6573d6000803e3d6000fd5b505050506040513d601f19601f82011682018060405250810190611eda91906132a4565b03611ee75781905061209b565b73__$7db5d2dbc3ae63372df6c39d501ad0f72a$__63ee4a4e4e856040518263ffffffff1660e01b8152600401611f1e91906132d1565b602060405180830381865af4158015611f3b573d6000803e3d6000fd5b505050506040513d601f19601f82011682018060405250810190611f5f9190612c3a565b1561200657611fff73__$7db5d2dbc3ae63372df6c39d501ad0f72a$__636efac6c78660016040518363ffffffff1660e01b8152600401611fa19291906132f3565b600060405180830381865af4158015611fbe573d6000803e3d6000fd5b505050506040513d6000823e3d601f19601f82011682018060405250810190611fe79190613074565b611ff085611160565b611ffa85876101c5565b611de2565b905061209b565b61209873__$7db5d2dbc3ae63372df6c39d501ad0f72a$__636efac6c78660016040518363ffffffff1660e01b81526004016120439291906132f3565b600060405180830381865af4158015612060573d6000803e3d6000fd5b505050506040513d6000823e3d601f19601f820116820180604052508101906120899190613074565b61209285611160565b84611de2565b90505b9392505050565b6040518060600160405280600060018111156120c1576120c06126be565b5b81526020016120ce6120e1565b81526020016120db6120e1565b81525090565b60405180604001604052806120f4612107565b8152602001612101612107565b81525090565b604051806060016040528061211a61213a565b815260200161212761213a565b815260200161213461213a565b81525090565b604051806040016040528061214d612160565b815260200161215a612160565b81525090565b6040518060200160405280612173612179565b81525090565b604051806060016040528060608152602001600015158152602001600081525090565b6000604051905090565b600080fd5b600080fd5b600281106121bd57600080fd5b50565b6000813590506121cf816121b0565b92915050565b600080fd5b6000601f19601f8301169050919050565b7f4e487b7100000000000000000000000000000000000000000000000000000000600052604160045260246000fd5b612223826121da565b810181811067ffffffffffffffff82111715612242576122416121eb565b5b80604052505050565b600061225561219c565b9050612261828261221a565b919050565b600080fd5b600080fd5b600080fd5b600067ffffffffffffffff8211156122905761228f6121eb565b5b612299826121da565b9050602081019050919050565b82818337600083830152505050565b60006122c86122c384612275565b61224b565b9050828152602081018484840111156122e4576122e3612270565b5b6122ef8482856122a6565b509392505050565b600082601f83011261230c5761230b61226b565b5b813561231c8482602086016122b5565b91505092915050565b60008115159050919050565b61233a81612325565b811461234557600080fd5b50565b60008135905061235781612331565b92915050565b6000819050919050565b6123708161235d565b811461237b57600080fd5b50565b60008135905061238d81612367565b92915050565b6000606082840312156123a9576123a86121d5565b5b6123b3606061224b565b9050600082013567ffffffffffffffff8111156123d3576123d2612266565b5b6123df848285016122f7565b60008301525060206123f384828501612348565b60208301525060406124078482850161237e565b60408301525092915050565b600060208284031215612429576124286121d5565b5b612433602061224b565b9050600082013567ffffffffffffffff81111561245357612452612266565b5b61245f84828501612393565b60008301525092915050565b600060408284031215612481576124806121d5565b5b61248b604061224b565b9050600082013567ffffffffffffffff8111156124ab576124aa612266565b5b6124b784828501612413565b600083015250602082013567ffffffffffffffff8111156124db576124da612266565b5b6124e784828501612413565b60208301525092915050565b600060608284031215612509576125086121d5565b5b612513606061224b565b9050600082013567ffffffffffffffff81111561253357612532612266565b5b61253f8482850161246b565b600083015250602082013567ffffffffffffffff81111561256357612562612266565b5b61256f8482850161246b565b602083015250604082013567ffffffffffffffff81111561259357612592612266565b5b61259f8482850161246b565b60408301525092915050565b6000604082840312156125c1576125c06121d5565b5b6125cb604061224b565b9050600082013567ffffffffffffffff8111156125eb576125ea612266565b5b6125f7848285016124f3565b600083015250602082013567ffffffffffffffff81111561261b5761261a612266565b5b612627848285016124f3565b60208301525092915050565b60008060006060848603121561264c5761264b6121a6565b5b600061265a868287016121c0565b935050602084013567ffffffffffffffff81111561267b5761267a6121ab565b5b612687868287016125ab565b925050604084013567ffffffffffffffff8111156126a8576126a76121ab565b5b6126b4868287016125ab565b9150509250925092565b7f4e487b7100000000000000000000000000000000000000000000000000000000600052602160045260246000fd5b600281106126fe576126fd6126be565b5b50565b600081905061270f826126ed565b919050565b600061271f82612701565b9050919050565b61272f81612714565b82525050565b600081519050919050565b600082825260208201905092915050565b60005b8381101561276f578082015181840152602081019050612754565b60008484015250505050565b600061278682612735565b6127908185612740565b93506127a0818560208601612751565b6127a9816121da565b840191505092915050565b6127bd81612325565b82525050565b6127cc8161235d565b82525050565b600060608301600083015184820360008601526127ef828261277b565b915050602083015161280460208601826127b4565b50604083015161281760408601826127c3565b508091505092915050565b6000602083016000830151848203600086015261283f82826127d2565b9150508091505092915050565b600060408301600083015184820360008601526128698282612822565b915050602083015184820360208601526128838282612822565b9150508091505092915050565b600060608301600083015184820360008601526128ad828261284c565b915050602083015184820360208601526128c7828261284c565b915050604083015184820360408601526128e1828261284c565b9150508091505092915050565b6000604083016000830151848203600086015261290b8282612890565b915050602083015184820360208601526129258282612890565b9150508091505092915050565b600060608301600083015161294a6000860182612726565b506020830151848203602086015261296282826128ee565b9150506040830151848203604086015261297c82826128ee565b9150508091505092915050565b600060208201905081810360008301526129a38184612932565b905092915050565b6000606082840312156129c1576129c06121d5565b5b6129cb606061224b565b905060006129db848285016121c0565b600083015250602082013567ffffffffffffffff8111156129ff576129fe612266565b5b612a0b848285016125ab565b602083015250604082013567ffffffffffffffff811115612a2f57612a2e612266565b5b612a3b848285016125ab565b60408301525092915050565b60008060408385031215612a5e57612a5d6121a6565b5b600083013567ffffffffffffffff811115612a7c57612a7b6121ab565b5b612a88858286016129ab565b925050602083013567ffffffffffffffff811115612aa957612aa86121ab565b5b612ab5858286016129ab565b9150509250929050565b60008060408385031215612ad657612ad56121a6565b5b600083013567ffffffffffffffff811115612af457612af36121ab565b5b612b0085828601612393565b925050602083013567ffffffffffffffff811115612b2157612b206121ab565b5b612b2d858286016129ab565b9150509250929050565b612b4081612325565b82525050565b6000602082019050612b5b6000830184612b37565b92915050565b600060208284031215612b7757612b766121a6565b5b600082013567ffffffffffffffff811115612b9557612b946121ab565b5b612ba1848285016129ab565b91505092915050565b60006040830160008301518482036000860152612bc78282612890565b91505060208301518482036020860152612be18282612890565b9150508091505092915050565b60006040820190508181036000830152612c088185612baa565b90508181036020830152612c1c8184612baa565b90509392505050565b600081519050612c3481612331565b92915050565b600060208284031215612c5057612c4f6121a6565b5b6000612c5e84828501612c25565b91505092915050565b6000612c7a612c7584612275565b61224b565b905082815260208101848484011115612c9657612c95612270565b5b612ca1848285612751565b509392505050565b600082601f830112612cbe57612cbd61226b565b5b8151612cce848260208601612c67565b91505092915050565b600081519050612ce681612367565b92915050565b600060608284031215612d0257612d016121d5565b5b612d0c606061224b565b9050600082015167ffffffffffffffff811115612d2c57612d2b612266565b5b612d3884828501612ca9565b6000830152506020612d4c84828501612c25565b6020830152506040612d6084828501612cd7565b60408301525092915050565b600060208284031215612d8257612d816121d5565b5b612d8c602061224b565b9050600082015167ffffffffffffffff811115612dac57612dab612266565b5b612db884828501612cec565b60008301525092915050565b600060408284031215612dda57612dd96121d5565b5b612de4604061224b565b9050600082015167ffffffffffffffff811115612e0457612e03612266565b5b612e1084828501612d6c565b600083015250602082015167ffffffffffffffff811115612e3457612e33612266565b5b612e4084828501612d6c565b60208301525092915050565b600060608284031215612e6257612e616121d5565b5b612e6c606061224b565b9050600082015167ffffffffffffffff811115612e8c57612e8b612266565b5b612e9884828501612dc4565b600083015250602082015167ffffffffffffffff811115612ebc57612ebb612266565b5b612ec884828501612dc4565b602083015250604082015167ffffffffffffffff811115612eec57612eeb612266565b5b612ef884828501612dc4565b60408301525092915050565b600060408284031215612f1a57612f196121d5565b5b612f24604061224b565b9050600082015167ffffffffffffffff811115612f4457612f43612266565b5b612f5084828501612e4c565b600083015250602082015167ffffffffffffffff811115612f7457612f73612266565b5b612f8084828501612e4c565b60208301525092915050565b600060208284031215612fa257612fa16121a6565b5b600082015167ffffffffffffffff811115612fc057612fbf6121ab565b5b612fcc84828501612f04565b91505092915050565b60006020820190508181036000830152612fef8184612baa565b905092915050565b6000819050919050565b6000819050919050565b600061302661302161301c84612ff7565b613001565b61235d565b9050919050565b6130368161300b565b82525050565b61304581612325565b82525050565b6000604082019050613060600083018561302d565b61306d602083018461303c565b9392505050565b60006020828403121561308a576130896121a6565b5b600082015167ffffffffffffffff8111156130a8576130a76121ab565b5b6130b484828501612cec565b91505092915050565b600082825260208201905092915050565b60006130d982612735565b6130e381856130bd565b93506130f3818560208601612751565b6130fc816121da565b840191505092915050565b61311081612325565b82525050565b61311f8161235d565b82525050565b6000606083016000830151848203600086015261314282826130ce565b91505060208301516131576020860182613107565b50604083015161316a6040860182613116565b508091505092915050565b6000604082019050818103600083015261318f8185613125565b905081810360208301526131a38184613125565b90509392505050565b600082825260208201905092915050565b7f63616e6e6f74206e656761746520706f696e7420617420696e66696e69747900600082015250565b60006131f3601f836131ac565b91506131fe826131bd565b602082019050919050565b60006020820190508181036000830152613222816131e6565b9050919050565b600060608201905081810360008301526132438186613125565b905081810360208301526132578185613125565b9050613266604083018461303c565b949350505050565b6000819050919050565b6132818161326e565b811461328c57600080fd5b50565b60008151905061329e81613278565b92915050565b6000602082840312156132ba576132b96121a6565b5b60006132c88482850161328f565b91505092915050565b600060208201905081810360008301526132eb8184613125565b905092915050565b6000604082019050818103600083015261330d8185613125565b905061331c602083018461302d565b939250505056fea26469706673582212208cb76fcd5a8193fbd4b997ebef09a8143319f7e262d7e68a3e242ac42bea574864736f6c634300081b0033",
  "linkReferences": {
    "contracts/BigNumber.sol": {
      "BigNumbers": [
        {
          "length": 20,
          "start": 6
        },
        {
          "length": 20,
          "start": 199
        },
        {
          "length": 20,
          "start": 1534
        },
        {
          "length": 20,
          "start": 1820
        },
        {
          "length": 20,
          "start": 2555
        },
        {
          "length": 20,
          "start": 2841
        },
        {
          "length": 20,
          "start": 3288
        },
        {
          "length": 20,
          "start": 3574
        },
        {
          "length": 20,
          "start": 16559
        },
        {
          "length": 20,
          "start": 16936
        },
        {
          "length": 20,
          "start": 16963
        },
        {
          "length": 20,
          "start": 17176
        },
        {
          "length": 20,
          "start": 17333
        },
        {
          "length": 20,
          "start": 18776
        },
        {
          "length": 20,
          "start": 25870
        },
        {
          "length": 20,
          "start": 25897
        },
        {
          "length": 20,
          "start": 26124
        },
        {
          "length": 20,
          "start": 26260
        },
        {
          "length": 20,
          "start": 39048
        },
        {
          "length": 20,
          "start": 42088
        },
        {
          "length": 20,
          "start": 42346
        },
        {
          "length": 20,
          "start": 42585
        },
        {
          "length": 20,
          "start": 42860
        },
        {
          "length": 20,
          "start": 43080
        },
        {
          "length": 20,
          "start": 43240
        },
        {
          "length": 20,
          "start": 43381
        },
        {
          "length": 20,
          "start": 43522
        },
        {
          "length": 20,
          "start": 43663
        },
        {
          "length": 20,
          "start": 43823
        },
        {
          "length": 20,
          "start": 44034
        },
        {
          "length": 20,
          "start": 44065
        },
        {
          "length": 20,
          "start": 44343
        },
        {
          "length": 20,
          "start": 44374
        },
        {
          "length": 20,
          "start": 44402
        },
        {
          "length": 20,
          "start": 44770
        },
        {
          "length": 20,
          "start": 45009
        },
        {
          "length": 20,
          "start": 45221
        },
        {
          "length": 20,
          "start": 45413
        },
        {
          "length": 20,
          "start": 45652
        },
        {
          "length": 20,
          "start": 45864
        },
        {
          "length": 20,
          "start": 46040
        },
        {
          "length": 20,
          "start": 46194
        },
        {
          "length": 20,
          "start": 46433
        },
        {
          "length": 20,
          "start": 46642
        },
        {
          "length": 20,
          "start": 47033
        },
        {
          "length": 20,
          "start": 47272
        },
        {
          "length": 20,
          "start": 47484
        },
        {
          "length": 20,
          "start": 86106
        },
        {
          "length": 20,
          "start": 86133
        },
        {
          "length": 20,
          "start": 92776
        },
        {
          "length": 20,
          "start": 92803
        },
        {
          "length": 20,
          "start": 93027
        },
        {
          "length": 20,
          "start": 93155
        },
        {
          "length": 20,
          "start": 93317
        },
        {
          "length": 20,
          "start": 101234
        },
        {
          "length": 20,
          "start": 101261
        },
        {
          "length": 20,
          "start": 104904
        },
        {
          "length": 20,
          "start": 104931
        },
        {
          "length": 20,
          "start": 105155
        },
        {
          "length": 20,
          "start": 105283
        },
        {
          "length": 20,
          "start": 105445
        },
        {
          "length": 20,
          "start": 113399
        },
        {
          "length": 20,
          "start": 113426
        },
        {
          "length": 20,
          "start": 117455
        },
        {
          "length": 20,
          "start": 117482
        },
        {
          "length": 20,
          "start": 117706
        },
        {
          "length": 20,
          "start": 117834
        },
        {
          "length": 20,
          "start": 117996
        }
      ]
    }
  },
  "deployedLinkReferences": {
    "contracts/BigNumber.sol": {
      "BigNumbers": [
        {
          "length": 20,
          "start": 7062
        },
        {
          "length": 20,
          "start": 7439
        },
        {
          "length": 20,
          "start": 7466
        },
        {
          "length": 20,
          "start": 7679
        },
        {
          "length": 20,
          "start": 7836
        },
        {
          "length": 20,
          "start": 9279
        },
        {
          "length": 20,
          "start": 16373
        },
        {
          "length": 20,
          "start": 16400
        },
        {
          "length": 20,
          "start": 16627
        },
        {
          "length": 20,
          "start": 16763
        }
      ]
    }
  }
}