{
  "_format": "hh-sol-artifact-1",
  "contractName": "Curve",
  "sourceName": "contracts/curve.sol",
  "abi": [
    {
      "inputs": [
        {
          "components": [
            {
              "internalType": "enum PointType",
              "name": "pointType",
              "type": "uint8"
            },
            {
              "components": [
                {
                  "components": [
                    {
                      "internalType": "bytes",
                      "name": "val",
                      "type": "bytes"
                    },
                    {
                      "internalType": "bool",
                      "name": "neg",
                      "type": "bool"
                    },
                    {
                      "internalType": "uint256",
                      "name": "bitlen",
                      "type": "uint256"
                    }
                  ],
                  "internalType": "struct BigNumber",
                  "name": "value",
                  "type": "tuple"
                }
              ],
              "internalType": "struct Zp",
              "name": "x",
              "type": "tuple"
            },
            {
              "components": [
                {
                  "components": [
                    {
                      "internalType": "bytes",
                      "name": "val",
                      "type": "bytes"
                    },
                    {
                      "internalType": "bool",
                      "name": "neg",
                      "type": "bool"
                    },
                    {
                      "internalType": "uint256",
                      "name": "bitlen",
                      "type": "uint256"
                    }
                  ],
                  "internalType": "struct BigNumber",
                  "name": "value",
                  "type": "tuple"
                }
              ],
              "internalType": "struct Zp",
              "name": "y",
              "type": "tuple"
            }
          ],
          "internalType": "struct Point_Zp",
          "name": "point",
          "type": "tuple"
        }
      ],
      "name": "Subgroup_0Check",
      "outputs": [
        {
          "internalType": "bool",
          "name": "",
          "type": "bool"
        }
      ],
      "stateMutability": "view",
      "type": "function"
    },
    {
      "inputs": [
        {
          "components": [
            {
              "internalType": "enum PointType_2",
              "name": "pointType",
              "type": "uint8"
            },
            {
              "components": [
                {
                  "components": [
                    {
                      "components": [
                        {
                          "internalType": "bytes",
                          "name": "val",
                          "type": "bytes"
                        },
                        {
                          "internalType": "bool",
                          "name": "neg",
                          "type": "bool"
                        },
                        {
                          "internalType": "uint256",
                          "name": "bitlen",
                          "type": "uint256"
                        }
                      ],
                      "internalType": "struct BigNumber",
                      "name": "value",
                      "type": "tuple"
                    }
                  ],
                  "internalType": "struct Zp",
                  "name": "a",
                  "type": "tuple"
                },
                {
                  "components": [
                    {
                      "components": [
                        {
                          "internalType": "bytes",
                          "name": "val",
                          "type": "bytes"
                        },
                        {
                          "internalType": "bool",
                          "name": "neg",
                          "type": "bool"
                        },
                        {
                          "internalType": "uint256",
                          "name": "bitlen",
                          "type": "uint256"
                        }
                      ],
                      "internalType": "struct BigNumber",
                      "name": "value",
                      "type": "tuple"
                    }
                  ],
                  "internalType": "struct Zp",
                  "name": "b",
                  "type": "tuple"
                }
              ],
              "internalType": "struct Zp_2",
              "name": "x",
              "type": "tuple"
            },
            {
              "components": [
                {
                  "components": [
                    {
                      "components": [
                        {
                          "internalType": "bytes",
                          "name": "val",
                          "type": "bytes"
                        },
                        {
                          "internalType": "bool",
                          "name": "neg",
                          "type": "bool"
                        },
                        {
                          "internalType": "uint256",
                          "name": "bitlen",
                          "type": "uint256"
                        }
                      ],
                      "internalType": "struct BigNumber",
                      "name": "value",
                      "type": "tuple"
                    }
                  ],
                  "internalType": "struct Zp",
                  "name": "a",
                  "type": "tuple"
                },
                {
                  "components": [
                    {
                      "components": [
                        {
                          "internalType": "bytes",
                          "name": "val",
                          "type": "bytes"
                        },
                        {
                          "internalType": "bool",
                          "name": "neg",
                          "type": "bool"
                        },
                        {
                          "internalType": "uint256",
                          "name": "bitlen",
                          "type": "uint256"
                        }
                      ],
                      "internalType": "struct BigNumber",
                      "name": "value",
                      "type": "tuple"
                    }
                  ],
                  "internalType": "struct Zp",
                  "name": "b",
                  "type": "tuple"
                }
              ],
              "internalType": "struct Zp_2",
              "name": "y",
              "type": "tuple"
            }
          ],
          "internalType": "struct Point_Zp_2",
          "name": "point",
          "type": "tuple"
        }
      ],
      "name": "Subgroup_1Check",
      "outputs": [
        {
          "internalType": "bool",
          "name": "",
          "type": "bool"
        }
      ],
      "stateMutability": "view",
      "type": "function"
    },
    {
      "inputs": [
        {
          "components": [
            {
              "internalType": "enum PointType_12",
              "name": "pointType",
              "type": "uint8"
            },
            {
              "components": [
                {
                  "components": [
                    {
                      "components": [
                        {
                          "components": [
                            {
                              "components": [
                                {
                                  "internalType": "bytes",
                                  "name": "val",
                                  "type": "bytes"
                                },
                                {
                                  "internalType": "bool",
                                  "name": "neg",
                                  "type": "bool"
                                },
                                {
                                  "internalType": "uint256",
                                  "name": "bitlen",
                                  "type": "uint256"
                                }
                              ],
                              "internalType": "struct BigNumber",
                              "name": "value",
                              "type": "tuple"
                            }
                          ],
                          "internalType": "struct Zp",
                          "name": "a",
                          "type": "tuple"
                        },
                        {
                          "components": [
                            {
                              "components": [
                                {
                                  "internalType": "bytes",
                                  "name": "val",
                                  "type": "bytes"
                                },
                                {
                                  "internalType": "bool",
                                  "name": "neg",
                                  "type": "bool"
                                },
                                {
                                  "internalType": "uint256",
                                  "name": "bitlen",
                                  "type": "uint256"
                                }
                              ],
                              "internalType": "struct BigNumber",
                              "name": "value",
                              "type": "tuple"
                            }
                          ],
                          "internalType": "struct Zp",
                          "name": "b",
                          "type": "tuple"
                        }
                      ],
                      "internalType": "struct Zp_2",
                      "name": "a",
                      "type": "tuple"
                    },
                    {
                      "components": [
                        {
                          "components": [
                            {
                              "components": [
                                {
                                  "internalType": "bytes",
                                  "name": "val",
                                  "type": "bytes"
                                },
                                {
                                  "internalType": "bool",
                                  "name": "neg",
                                  "type": "bool"
                                },
                                {
                                  "internalType": "uint256",
                                  "name": "bitlen",
                                  "type": "uint256"
                                }
                              ],
                              "internalType": "struct BigNumber",
                              "name": "value",
                              "type": "tuple"
                            }
                          ],
                          "internalType": "struct Zp",
                          "name": "a",
                          "type": "tuple"
                        },
                        {
                          "components": [
                            {
                              "components": [
                                {
                                  "internalType": "bytes",
                                  "name": "val",
                                  "type": "bytes"
                                },
                                {
                                  "internalType": "bool",
                                  "name": "neg",
                                  "type": "bool"
                                },
                                {
                                  "internalType": "uint256",
                                  "name": "bitlen",
                                  "type": "uint256"
                                }
                              ],
                              "internalType": "struct BigNumber",
                              "name": "value",
                              "type": "tuple"
                            }
                          ],
                          "internalType": "struct Zp",
                          "name": "b",
                          "type": "tuple"
                        }
                      ],
                      "internalType": "struct Zp_2",
                      "name": "b",
                      "type": "tuple"
                    },
                    {
                      "components": [
                        {
                          "components": [
                            {
                              "components": [
                                {
                                  "internalType": "bytes",
                                  "name": "val",
                                  "type": "bytes"
                                },
                                {
                                  "internalType": "bool",
                                  "name": "neg",
                                  "type": "bool"
                                },
                                {
                                  "internalType": "uint256",
                                  "name": "bitlen",
                                  "type": "uint256"
                                }
                              ],
                              "internalType": "struct BigNumber",
                              "name": "value",
                              "type": "tuple"
                            }
                          ],
                          "internalType": "struct Zp",
                          "name": "a",
                          "type": "tuple"
                        },
                        {
                          "components": [
                            {
                              "components": [
                                {
                                  "internalType": "bytes",
                                  "name": "val",
                                  "type": "bytes"
                                },
                                {
                                  "internalType": "bool",
                                  "name": "neg",
                                  "type": "bool"
                                },
                                {
                                  "internalType": "uint256",
                                  "name": "bitlen",
                                  "type": "uint256"
                                }
                              ],
                              "internalType": "struct BigNumber",
                              "name": "value",
                              "type": "tuple"
                            }
                          ],
                          "internalType": "struct Zp",
                          "name": "b",
                          "type": "tuple"
                        }
                      ],
                      "internalType": "struct Zp_2",
                      "name": "c",
                      "type": "tuple"
                    }
                  ],
                  "internalType": "struct Zp_6",
                  "name": "a",
                  "type": "tuple"
                },
                {
                  "components": [
                    {
                      "components": [
                        {
                          "components": [
                            {
                              "components": [
                                {
                                  "internalType": "bytes",
                                  "name": "val",
                                  "type": "bytes"
                                },
                                {
                                  "internalType": "bool",
                                  "name": "neg",
                                  "type": "bool"
                                },
                                {
                                  "internalType": "uint256",
                                  "name": "bitlen",
                                  "type": "uint256"
                                }
                              ],
                              "internalType": "struct BigNumber",
                              "name": "value",
                              "type": "tuple"
                            }
                          ],
                          "internalType": "struct Zp",
                          "name": "a",
                          "type": "tuple"
                        },
                        {
                          "components": [
                            {
                              "components": [
                                {
                                  "internalType": "bytes",
                                  "name": "val",
                                  "type": "bytes"
                                },
                                {
                                  "internalType": "bool",
                                  "name": "neg",
                                  "type": "bool"
                                },
                                {
                                  "internalType": "uint256",
                                  "name": "bitlen",
                                  "type": "uint256"
                                }
                              ],
                              "internalType": "struct BigNumber",
                              "name": "value",
                              "type": "tuple"
                            }
                          ],
                          "internalType": "struct Zp",
                          "name": "b",
                          "type": "tuple"
                        }
                      ],
                      "internalType": "struct Zp_2",
                      "name": "a",
                      "type": "tuple"
                    },
                    {
                      "components": [
                        {
                          "components": [
                            {
                              "components": [
                                {
                                  "internalType": "bytes",
                                  "name": "val",
                                  "type": "bytes"
                                },
                                {
                                  "internalType": "bool",
                                  "name": "neg",
                                  "type": "bool"
                                },
                                {
                                  "internalType": "uint256",
                                  "name": "bitlen",
                                  "type": "uint256"
                                }
                              ],
                              "internalType": "struct BigNumber",
                              "name": "value",
                              "type": "tuple"
                            }
                          ],
                          "internalType": "struct Zp",
                          "name": "a",
                          "type": "tuple"
                        },
                        {
                          "components": [
                            {
                              "components": [
                                {
                                  "internalType": "bytes",
                                  "name": "val",
                                  "type": "bytes"
                                },
                                {
                                  "internalType": "bool",
                                  "name": "neg",
                                  "type": "bool"
                                },
                                {
                                  "internalType": "uint256",
                                  "name": "bitlen",
                                  "type": "uint256"
                                }
                              ],
                              "internalType": "struct BigNumber",
                              "name": "value",
                              "type": "tuple"
                            }
                          ],
                          "internalType": "struct Zp",
                          "name": "b",
                          "type": "tuple"
                        }
                      ],
                      "internalType": "struct Zp_2",
                      "name": "b",
                      "type": "tuple"
                    },
                    {
                      "components": [
                        {
                          "components": [
                            {
                              "components": [
                                {
                                  "internalType": "bytes",
                                  "name": "val",
                                  "type": "bytes"
                                },
                                {
                                  "internalType": "bool",
                                  "name": "neg",
                                  "type": "bool"
                                },
                                {
                                  "internalType": "uint256",
                                  "name": "bitlen",
                                  "type": "uint256"
                                }
                              ],
                              "internalType": "struct BigNumber",
                              "name": "value",
                              "type": "tuple"
                            }
                          ],
                          "internalType": "struct Zp",
                          "name": "a",
                          "type": "tuple"
                        },
                        {
                          "components": [
                            {
                              "components": [
                                {
                                  "internalType": "bytes",
                                  "name": "val",
                                  "type": "bytes"
                                },
                                {
                                  "internalType": "bool",
                                  "name": "neg",
                                  "type": "bool"
                                },
                                {
                                  "internalType": "uint256",
                                  "name": "bitlen",
                                  "type": "uint256"
                                }
                              ],
                              "internalType": "struct BigNumber",
                              "name": "value",
                              "type": "tuple"
                            }
                          ],
                          "internalType": "struct Zp",
                          "name": "b",
                          "type": "tuple"
                        }
                      ],
                      "internalType": "struct Zp_2",
                      "name": "c",
                      "type": "tuple"
                    }
                  ],
                  "internalType": "struct Zp_6",
                  "name": "b",
                  "type": "tuple"
                }
              ],
              "internalType": "struct Zp_12",
              "name": "x",
              "type": "tuple"
            },
            {
              "components": [
                {
                  "components": [
                    {
                      "components": [
                        {
                          "components": [
                            {
                              "components": [
                                {
                                  "internalType": "bytes",
                                  "name": "val",
                                  "type": "bytes"
                                },
                                {
                                  "internalType": "bool",
                                  "name": "neg",
                                  "type": "bool"
                                },
                                {
                                  "internalType": "uint256",
                                  "name": "bitlen",
                                  "type": "uint256"
                                }
                              ],
                              "internalType": "struct BigNumber",
                              "name": "value",
                              "type": "tuple"
                            }
                          ],
                          "internalType": "struct Zp",
                          "name": "a",
                          "type": "tuple"
                        },
                        {
                          "components": [
                            {
                              "components": [
                                {
                                  "internalType": "bytes",
                                  "name": "val",
                                  "type": "bytes"
                                },
                                {
                                  "internalType": "bool",
                                  "name": "neg",
                                  "type": "bool"
                                },
                                {
                                  "internalType": "uint256",
                                  "name": "bitlen",
                                  "type": "uint256"
                                }
                              ],
                              "internalType": "struct BigNumber",
                              "name": "value",
                              "type": "tuple"
                            }
                          ],
                          "internalType": "struct Zp",
                          "name": "b",
                          "type": "tuple"
                        }
                      ],
                      "internalType": "struct Zp_2",
                      "name": "a",
                      "type": "tuple"
                    },
                    {
                      "components": [
                        {
                          "components": [
                            {
                              "components": [
                                {
                                  "internalType": "bytes",
                                  "name": "val",
                                  "type": "bytes"
                                },
                                {
                                  "internalType": "bool",
                                  "name": "neg",
                                  "type": "bool"
                                },
                                {
                                  "internalType": "uint256",
                                  "name": "bitlen",
                                  "type": "uint256"
                                }
                              ],
                              "internalType": "struct BigNumber",
                              "name": "value",
                              "type": "tuple"
                            }
                          ],
                          "internalType": "struct Zp",
                          "name": "a",
                          "type": "tuple"
                        },
                        {
                          "components": [
                            {
                              "components": [
                                {
                                  "internalType": "bytes",
                                  "name": "val",
                                  "type": "bytes"
                                },
                                {
                                  "internalType": "bool",
                                  "name": "neg",
                                  "type": "bool"
                                },
                                {
                                  "internalType": "uint256",
                                  "name": "bitlen",
                                  "type": "uint256"
                                }
                              ],
                              "internalType": "struct BigNumber",
                              "name": "value",
                              "type": "tuple"
                            }
                          ],
                          "internalType": "struct Zp",
                          "name": "b",
                          "type": "tuple"
                        }
                      ],
                      "internalType": "struct Zp_2",
                      "name": "b",
                      "type": "tuple"
                    },
                    {
                      "components": [
                        {
                          "components": [
                            {
                              "components": [
                                {
                                  "internalType": "bytes",
                                  "name": "val",
                                  "type": "bytes"
                                },
                                {
                                  "internalType": "bool",
                                  "name": "neg",
                                  "type": "bool"
                                },
                                {
                                  "internalType": "uint256",
                                  "name": "bitlen",
                                  "type": "uint256"
                                }
                              ],
                              "internalType": "struct BigNumber",
                              "name": "value",
                              "type": "tuple"
                            }
                          ],
                          "internalType": "struct Zp",
                          "name": "a",
                          "type": "tuple"
                        },
                        {
                          "components": [
                            {
                              "components": [
                                {
                                  "internalType": "bytes",
                                  "name": "val",
                                  "type": "bytes"
                                },
                                {
                                  "internalType": "bool",
                                  "name": "neg",
                                  "type": "bool"
                                },
                                {
                                  "internalType": "uint256",
                                  "name": "bitlen",
                                  "type": "uint256"
                                }
                              ],
                              "internalType": "struct BigNumber",
                              "name": "value",
                              "type": "tuple"
                            }
                          ],
                          "internalType": "struct Zp",
                          "name": "b",
                          "type": "tuple"
                        }
                      ],
                      "internalType": "struct Zp_2",
                      "name": "c",
                      "type": "tuple"
                    }
                  ],
                  "internalType": "struct Zp_6",
                  "name": "a",
                  "type": "tuple"
                },
                {
                  "components": [
                    {
                      "components": [
                        {
                          "components": [
                            {
                              "components": [
                                {
                                  "internalType": "bytes",
                                  "name": "val",
                                  "type": "bytes"
                                },
                                {
                                  "internalType": "bool",
                                  "name": "neg",
                                  "type": "bool"
                                },
                                {
                                  "internalType": "uint256",
                                  "name": "bitlen",
                                  "type": "uint256"
                                }
                              ],
                              "internalType": "struct BigNumber",
                              "name": "value",
                              "type": "tuple"
                            }
                          ],
                          "internalType": "struct Zp",
                          "name": "a",
                          "type": "tuple"
                        },
                        {
                          "components": [
                            {
                              "components": [
                                {
                                  "internalType": "bytes",
                                  "name": "val",
                                  "type": "bytes"
                                },
                                {
                                  "internalType": "bool",
                                  "name": "neg",
                                  "type": "bool"
                                },
                                {
                                  "internalType": "uint256",
                                  "name": "bitlen",
                                  "type": "uint256"
                                }
                              ],
                              "internalType": "struct BigNumber",
                              "name": "value",
                              "type": "tuple"
                            }
                          ],
                          "internalType": "struct Zp",
                          "name": "b",
                          "type": "tuple"
                        }
                      ],
                      "internalType": "struct Zp_2",
                      "name": "a",
                      "type": "tuple"
                    },
                    {
                      "components": [
                        {
                          "components": [
                            {
                              "components": [
                                {
                                  "internalType": "bytes",
                                  "name": "val",
                                  "type": "bytes"
                                },
                                {
                                  "internalType": "bool",
                                  "name": "neg",
                                  "type": "bool"
                                },
                                {
                                  "internalType": "uint256",
                                  "name": "bitlen",
                                  "type": "uint256"
                                }
                              ],
                              "internalType": "struct BigNumber",
                              "name": "value",
                              "type": "tuple"
                            }
                          ],
                          "internalType": "struct Zp",
                          "name": "a",
                          "type": "tuple"
                        },
                        {
                          "components": [
                            {
                              "components": [
                                {
                                  "internalType": "bytes",
                                  "name": "val",
                                  "type": "bytes"
                                },
                                {
                                  "internalType": "bool",
                                  "name": "neg",
                                  "type": "bool"
                                },
                                {
                                  "internalType": "uint256",
                                  "name": "bitlen",
                                  "type": "uint256"
                                }
                              ],
                              "internalType": "struct BigNumber",
                              "name": "value",
                              "type": "tuple"
                            }
                          ],
                          "internalType": "struct Zp",
                          "name": "b",
                          "type": "tuple"
                        }
                      ],
                      "internalType": "struct Zp_2",
                      "name": "b",
                      "type": "tuple"
                    },
                    {
                      "components": [
                        {
                          "components": [
                            {
                              "components": [
                                {
                                  "internalType": "bytes",
                                  "name": "val",
                                  "type": "bytes"
                                },
                                {
                                  "internalType": "bool",
                                  "name": "neg",
                                  "type": "bool"
                                },
                                {
                                  "internalType": "uint256",
                                  "name": "bitlen",
                                  "type": "uint256"
                                }
                              ],
                              "internalType": "struct BigNumber",
                              "name": "value",
                              "type": "tuple"
                            }
                          ],
                          "internalType": "struct Zp",
                          "name": "a",
                          "type": "tuple"
                        },
                        {
                          "components": [
                            {
                              "components": [
                                {
                                  "internalType": "bytes",
                                  "name": "val",
                                  "type": "bytes"
                                },
                                {
                                  "internalType": "bool",
                                  "name": "neg",
                                  "type": "bool"
                                },
                                {
                                  "internalType": "uint256",
                                  "name": "bitlen",
                                  "type": "uint256"
                                }
                              ],
                              "internalType": "struct BigNumber",
                              "name": "value",
                              "type": "tuple"
                            }
                          ],
                          "internalType": "struct Zp",
                          "name": "b",
                          "type": "tuple"
                        }
                      ],
                      "internalType": "struct Zp_2",
                      "name": "c",
                      "type": "tuple"
                    }
                  ],
                  "internalType": "struct Zp_6",
                  "name": "b",
                  "type": "tuple"
                }
              ],
              "internalType": "struct Zp_12",
              "name": "y",
              "type": "tuple"
            }
          ],
          "internalType": "struct Point_Zp_12",
          "name": "r",
          "type": "tuple"
        },
        {
          "components": [
            {
              "internalType": "enum PointType_12",
              "name": "pointType",
              "type": "uint8"
            },
            {
              "components": [
                {
                  "components": [
                    {
                      "components": [
                        {
                          "components": [
                            {
                              "components": [
                                {
                                  "internalType": "bytes",
                                  "name": "val",
                                  "type": "bytes"
                                },
                                {
                                  "internalType": "bool",
                                  "name": "neg",
                                  "type": "bool"
                                },
                                {
                                  "internalType": "uint256",
                                  "name": "bitlen",
                                  "type": "uint256"
                                }
                              ],
                              "internalType": "struct BigNumber",
                              "name": "value",
                              "type": "tuple"
                            }
                          ],
                          "internalType": "struct Zp",
                          "name": "a",
                          "type": "tuple"
                        },
                        {
                          "components": [
                            {
                              "components": [
                                {
                                  "internalType": "bytes",
                                  "name": "val",
                                  "type": "bytes"
                                },
                                {
                                  "internalType": "bool",
                                  "name": "neg",
                                  "type": "bool"
                                },
                                {
                                  "internalType": "uint256",
                                  "name": "bitlen",
                                  "type": "uint256"
                                }
                              ],
                              "internalType": "struct BigNumber",
                              "name": "value",
                              "type": "tuple"
                            }
                          ],
                          "internalType": "struct Zp",
                          "name": "b",
                          "type": "tuple"
                        }
                      ],
                      "internalType": "struct Zp_2",
                      "name": "a",
                      "type": "tuple"
                    },
                    {
                      "components": [
                        {
                          "components": [
                            {
                              "components": [
                                {
                                  "internalType": "bytes",
                                  "name": "val",
                                  "type": "bytes"
                                },
                                {
                                  "internalType": "bool",
                                  "name": "neg",
                                  "type": "bool"
                                },
                                {
                                  "internalType": "uint256",
                                  "name": "bitlen",
                                  "type": "uint256"
                                }
                              ],
                              "internalType": "struct BigNumber",
                              "name": "value",
                              "type": "tuple"
                            }
                          ],
                          "internalType": "struct Zp",
                          "name": "a",
                          "type": "tuple"
                        },
                        {
                          "components": [
                            {
                              "components": [
                                {
                                  "internalType": "bytes",
                                  "name": "val",
                                  "type": "bytes"
                                },
                                {
                                  "internalType": "bool",
                                  "name": "neg",
                                  "type": "bool"
                                },
                                {
                                  "internalType": "uint256",
                                  "name": "bitlen",
                                  "type": "uint256"
                                }
                              ],
                              "internalType": "struct BigNumber",
                              "name": "value",
                              "type": "tuple"
                            }
                          ],
                          "internalType": "struct Zp",
                          "name": "b",
                          "type": "tuple"
                        }
                      ],
                      "internalType": "struct Zp_2",
                      "name": "b",
                      "type": "tuple"
                    },
                    {
                      "components": [
                        {
                          "components": [
                            {
                              "components": [
                                {
                                  "internalType": "bytes",
                                  "name": "val",
                                  "type": "bytes"
                                },
                                {
                                  "internalType": "bool",
                                  "name": "neg",
                                  "type": "bool"
                                },
                                {
                                  "internalType": "uint256",
                                  "name": "bitlen",
                                  "type": "uint256"
                                }
                              ],
                              "internalType": "struct BigNumber",
                              "name": "value",
                              "type": "tuple"
                            }
                          ],
                          "internalType": "struct Zp",
                          "name": "a",
                          "type": "tuple"
                        },
                        {
                          "components": [
                            {
                              "components": [
                                {
                                  "internalType": "bytes",
                                  "name": "val",
                                  "type": "bytes"
                                },
                                {
                                  "internalType": "bool",
                                  "name": "neg",
                                  "type": "bool"
                                },
                                {
                                  "internalType": "uint256",
                                  "name": "bitlen",
                                  "type": "uint256"
                                }
                              ],
                              "internalType": "struct BigNumber",
                              "name": "value",
                              "type": "tuple"
                            }
                          ],
                          "internalType": "struct Zp",
                          "name": "b",
                          "type": "tuple"
                        }
                      ],
                      "internalType": "struct Zp_2",
                      "name": "c",
                      "type": "tuple"
                    }
                  ],
                  "internalType": "struct Zp_6",
                  "name": "a",
                  "type": "tuple"
                },
                {
                  "components": [
                    {
                      "components": [
                        {
                          "components": [
                            {
                              "components": [
                                {
                                  "internalType": "bytes",
                                  "name": "val",
                                  "type": "bytes"
                                },
                                {
                                  "internalType": "bool",
                                  "name": "neg",
                                  "type": "bool"
                                },
                                {
                                  "internalType": "uint256",
                                  "name": "bitlen",
                                  "type": "uint256"
                                }
                              ],
                              "internalType": "struct BigNumber",
                              "name": "value",
                              "type": "tuple"
                            }
                          ],
                          "internalType": "struct Zp",
                          "name": "a",
                          "type": "tuple"
                        },
                        {
                          "components": [
                            {
                              "components": [
                                {
                                  "internalType": "bytes",
                                  "name": "val",
                                  "type": "bytes"
                                },
                                {
                                  "internalType": "bool",
                                  "name": "neg",
                                  "type": "bool"
                                },
                                {
                                  "internalType": "uint256",
                                  "name": "bitlen",
                                  "type": "uint256"
                                }
                              ],
                              "internalType": "struct BigNumber",
                              "name": "value",
                              "type": "tuple"
                            }
                          ],
                          "internalType": "struct Zp",
                          "name": "b",
                          "type": "tuple"
                        }
                      ],
                      "internalType": "struct Zp_2",
                      "name": "a",
                      "type": "tuple"
                    },
                    {
                      "components": [
                        {
                          "components": [
                            {
                              "components": [
                                {
                                  "internalType": "bytes",
                                  "name": "val",
                                  "type": "bytes"
                                },
                                {
                                  "internalType": "bool",
                                  "name": "neg",
                                  "type": "bool"
                                },
                                {
                                  "internalType": "uint256",
                                  "name": "bitlen",
                                  "type": "uint256"
                                }
                              ],
                              "internalType": "struct BigNumber",
                              "name": "value",
                              "type": "tuple"
                            }
                          ],
                          "internalType": "struct Zp",
                          "name": "a",
                          "type": "tuple"
                        },
                        {
                          "components": [
                            {
                              "components": [
                                {
                                  "internalType": "bytes",
                                  "name": "val",
                                  "type": "bytes"
                                },
                                {
                                  "internalType": "bool",
                                  "name": "neg",
                                  "type": "bool"
                                },
                                {
                                  "internalType": "uint256",
                                  "name": "bitlen",
                                  "type": "uint256"
                                }
                              ],
                              "internalType": "struct BigNumber",
                              "name": "value",
                              "type": "tuple"
                            }
                          ],
                          "internalType": "struct Zp",
                          "name": "b",
                          "type": "tuple"
                        }
                      ],
                      "internalType": "struct Zp_2",
                      "name": "b",
                      "type": "tuple"
                    },
                    {
                      "components": [
                        {
                          "components": [
                            {
                              "components": [
                                {
                                  "internalType": "bytes",
                                  "name": "val",
                                  "type": "bytes"
                                },
                                {
                                  "internalType": "bool",
                                  "name": "neg",
                                  "type": "bool"
                                },
                                {
                                  "internalType": "uint256",
                                  "name": "bitlen",
                                  "type": "uint256"
                                }
                              ],
                              "internalType": "struct BigNumber",
                              "name": "value",
                              "type": "tuple"
                            }
                          ],
                          "internalType": "struct Zp",
                          "name": "a",
                          "type": "tuple"
                        },
                        {
                          "components": [
                            {
                              "components": [
                                {
                                  "internalType": "bytes",
                                  "name": "val",
                                  "type": "bytes"
                                },
                                {
                                  "internalType": "bool",
                                  "name": "neg",
                                  "type": "bool"
                                },
                                {
                                  "internalType": "uint256",
                                  "name": "bitlen",
                                  "type": "uint256"
                                }
                              ],
                              "internalType": "struct BigNumber",
                              "name": "value",
                              "type": "tuple"
                            }
                          ],
                          "internalType": "struct Zp",
                          "name": "b",
                          "type": "tuple"
                        }
                      ],
                      "internalType": "struct Zp_2",
                      "name": "c",
                      "type": "tuple"
                    }
                  ],
                  "internalType": "struct Zp_6",
                  "name": "b",
                  "type": "tuple"
                }
              ],
              "internalType": "struct Zp_12",
              "name": "x",
              "type": "tuple"
            },
            {
              "components": [
                {
                  "components": [
                    {
                      "components": [
                        {
                          "components": [
                            {
                              "components": [
                                {
                                  "internalType": "bytes",
                                  "name": "val",
                                  "type": "bytes"
                                },
                                {
                                  "internalType": "bool",
                                  "name": "neg",
                                  "type": "bool"
                                },
                                {
                                  "internalType": "uint256",
                                  "name": "bitlen",
                                  "type": "uint256"
                                }
                              ],
                              "internalType": "struct BigNumber",
                              "name": "value",
                              "type": "tuple"
                            }
                          ],
                          "internalType": "struct Zp",
                          "name": "a",
                          "type": "tuple"
                        },
                        {
                          "components": [
                            {
                              "components": [
                                {
                                  "internalType": "bytes",
                                  "name": "val",
                                  "type": "bytes"
                                },
                                {
                                  "internalType": "bool",
                                  "name": "neg",
                                  "type": "bool"
                                },
                                {
                                  "internalType": "uint256",
                                  "name": "bitlen",
                                  "type": "uint256"
                                }
                              ],
                              "internalType": "struct BigNumber",
                              "name": "value",
                              "type": "tuple"
                            }
                          ],
                          "internalType": "struct Zp",
                          "name": "b",
                          "type": "tuple"
                        }
                      ],
                      "internalType": "struct Zp_2",
                      "name": "a",
                      "type": "tuple"
                    },
                    {
                      "components": [
                        {
                          "components": [
                            {
                              "components": [
                                {
                                  "internalType": "bytes",
                                  "name": "val",
                                  "type": "bytes"
                                },
                                {
                                  "internalType": "bool",
                                  "name": "neg",
                                  "type": "bool"
                                },
                                {
                                  "internalType": "uint256",
                                  "name": "bitlen",
                                  "type": "uint256"
                                }
                              ],
                              "internalType": "struct BigNumber",
                              "name": "value",
                              "type": "tuple"
                            }
                          ],
                          "internalType": "struct Zp",
                          "name": "a",
                          "type": "tuple"
                        },
                        {
                          "components": [
                            {
                              "components": [
                                {
                                  "internalType": "bytes",
                                  "name": "val",
                                  "type": "bytes"
                                },
                                {
                                  "internalType": "bool",
                                  "name": "neg",
                                  "type": "bool"
                                },
                                {
                                  "internalType": "uint256",
                                  "name": "bitlen",
                                  "type": "uint256"
                                }
                              ],
                              "internalType": "struct BigNumber",
                              "name": "value",
                              "type": "tuple"
                            }
                          ],
                          "internalType": "struct Zp",
                          "name": "b",
                          "type": "tuple"
                        }
                      ],
                      "internalType": "struct Zp_2",
                      "name": "b",
                      "type": "tuple"
                    },
                    {
                      "components": [
                        {
                          "components": [
                            {
                              "components": [
                                {
                                  "internalType": "bytes",
                                  "name": "val",
                                  "type": "bytes"
                                },
                                {
                                  "internalType": "bool",
                                  "name": "neg",
                                  "type": "bool"
                                },
                                {
                                  "internalType": "uint256",
                                  "name": "bitlen",
                                  "type": "uint256"
                                }
                              ],
                              "internalType": "struct BigNumber",
                              "name": "value",
                              "type": "tuple"
                            }
                          ],
                          "internalType": "struct Zp",
                          "name": "a",
                          "type": "tuple"
                        },
                        {
                          "components": [
                            {
                              "components": [
                                {
                                  "internalType": "bytes",
                                  "name": "val",
                                  "type": "bytes"
                                },
                                {
                                  "internalType": "bool",
                                  "name": "neg",
                                  "type": "bool"
                                },
                                {
                                  "internalType": "uint256",
                                  "name": "bitlen",
                                  "type": "uint256"
                                }
                              ],
                              "internalType": "struct BigNumber",
                              "name": "value",
                              "type": "tuple"
                            }
                          ],
                          "internalType": "struct Zp",
                          "name": "b",
                          "type": "tuple"
                        }
                      ],
                      "internalType": "struct Zp_2",
                      "name": "c",
                      "type": "tuple"
                    }
                  ],
                  "internalType": "struct Zp_6",
                  "name": "a",
                  "type": "tuple"
                },
                {
                  "components": [
                    {
                      "components": [
                        {
                          "components": [
                            {
                              "components": [
                                {
                                  "internalType": "bytes",
                                  "name": "val",
                                  "type": "bytes"
                                },
                                {
                                  "internalType": "bool",
                                  "name": "neg",
                                  "type": "bool"
                                },
                                {
                                  "internalType": "uint256",
                                  "name": "bitlen",
                                  "type": "uint256"
                                }
                              ],
                              "internalType": "struct BigNumber",
                              "name": "value",
                              "type": "tuple"
                            }
                          ],
                          "internalType": "struct Zp",
                          "name": "a",
                          "type": "tuple"
                        },
                        {
                          "components": [
                            {
                              "components": [
                                {
                                  "internalType": "bytes",
                                  "name": "val",
                                  "type": "bytes"
                                },
                                {
                                  "internalType": "bool",
                                  "name": "neg",
                                  "type": "bool"
                                },
                                {
                                  "internalType": "uint256",
                                  "name": "bitlen",
                                  "type": "uint256"
                                }
                              ],
                              "internalType": "struct BigNumber",
                              "name": "value",
                              "type": "tuple"
                            }
                          ],
                          "internalType": "struct Zp",
                          "name": "b",
                          "type": "tuple"
                        }
                      ],
                      "internalType": "struct Zp_2",
                      "name": "a",
                      "type": "tuple"
                    },
                    {
                      "components": [
                        {
                          "components": [
                            {
                              "components": [
                                {
                                  "internalType": "bytes",
                                  "name": "val",
                                  "type": "bytes"
                                },
                                {
                                  "internalType": "bool",
                                  "name": "neg",
                                  "type": "bool"
                                },
                                {
                                  "internalType": "uint256",
                                  "name": "bitlen",
                                  "type": "uint256"
                                }
                              ],
                              "internalType": "struct BigNumber",
                              "name": "value",
                              "type": "tuple"
                            }
                          ],
                          "internalType": "struct Zp",
                          "name": "a",
                          "type": "tuple"
                        },
                        {
                          "components": [
                            {
                              "components": [
                                {
                                  "internalType": "bytes",
                                  "name": "val",
                                  "type": "bytes"
                                },
                                {
                                  "internalType": "bool",
                                  "name": "neg",
                                  "type": "bool"
                                },
                                {
                                  "internalType": "uint256",
                                  "name": "bitlen",
                                  "type": "uint256"
                                }
                              ],
                              "internalType": "struct BigNumber",
                              "name": "value",
                              "type": "tuple"
                            }
                          ],
                          "internalType": "struct Zp",
                          "name": "b",
                          "type": "tuple"
                        }
                      ],
                      "internalType": "struct Zp_2",
                      "name": "b",
                      "type": "tuple"
                    },
                    {
                      "components": [
                        {
                          "components": [
                            {
                              "components": [
                                {
                                  "internalType": "bytes",
                                  "name": "val",
                                  "type": "bytes"
                                },
                                {
                                  "internalType": "bool",
                                  "name": "neg",
                                  "type": "bool"
                                },
                                {
                                  "internalType": "uint256",
                                  "name": "bitlen",
                                  "type": "uint256"
                                }
                              ],
                              "internalType": "struct BigNumber",
                              "name": "value",
                              "type": "tuple"
                            }
                          ],
                          "internalType": "struct Zp",
                          "name": "a",
                          "type": "tuple"
                        },
                        {
                          "components": [
                            {
                              "components": [
                                {
                                  "internalType": "bytes",
                                  "name": "val",
                                  "type": "bytes"
                                },
                                {
                                  "internalType": "bool",
                                  "name": "neg",
                                  "type": "bool"
                                },
                                {
                                  "internalType": "uint256",
                                  "name": "bitlen",
                                  "type": "uint256"
                                }
                              ],
                              "internalType": "struct BigNumber",
                              "name": "value",
                              "type": "tuple"
                            }
                          ],
                          "internalType": "struct Zp",
                          "name": "b",
                          "type": "tuple"
                        }
                      ],
                      "internalType": "struct Zp_2",
                      "name": "c",
                      "type": "tuple"
                    }
                  ],
                  "internalType": "struct Zp_6",
                  "name": "b",
                  "type": "tuple"
                }
              ],
              "internalType": "struct Zp_12",
              "name": "y",
              "type": "tuple"
            }
          ],
          "internalType": "struct Point_Zp_12",
          "name": "q",
          "type": "tuple"
        },
        {
          "components": [
            {
              "internalType": "enum PointType",
              "name": "pointType",
              "type": "uint8"
            },
            {
              "components": [
                {
                  "components": [
                    {
                      "internalType": "bytes",
                      "name": "val",
                      "type": "bytes"
                    },
                    {
                      "internalType": "bool",
                      "name": "neg",
                      "type": "bool"
                    },
                    {
                      "internalType": "uint256",
                      "name": "bitlen",
                      "type": "uint256"
                    }
                  ],
                  "internalType": "struct BigNumber",
                  "name": "value",
                  "type": "tuple"
                }
              ],
              "internalType": "struct Zp",
              "name": "x",
              "type": "tuple"
            },
            {
              "components": [
                {
                  "components": [
                    {
                      "internalType": "bytes",
                      "name": "val",
                      "type": "bytes"
                    },
                    {
                      "internalType": "bool",
                      "name": "neg",
                      "type": "bool"
                    },
                    {
                      "internalType": "uint256",
                      "name": "bitlen",
                      "type": "uint256"
                    }
                  ],
                  "internalType": "struct BigNumber",
                  "name": "value",
                  "type": "tuple"
                }
              ],
              "internalType": "struct Zp",
              "name": "y",
              "type": "tuple"
            }
          ],
          "internalType": "struct Point_Zp",
          "name": "p",
          "type": "tuple"
        }
      ],
      "name": "_addEval",
      "outputs": [
        {
          "components": [
            {
              "components": [
                {
                  "components": [
                    {
                      "components": [
                        {
                          "components": [
                            {
                              "internalType": "bytes",
                              "name": "val",
                              "type": "bytes"
                            },
                            {
                              "internalType": "bool",
                              "name": "neg",
                              "type": "bool"
                            },
                            {
                              "internalType": "uint256",
                              "name": "bitlen",
                              "type": "uint256"
                            }
                          ],
                          "internalType": "struct BigNumber",
                          "name": "value",
                          "type": "tuple"
                        }
                      ],
                      "internalType": "struct Zp",
                      "name": "a",
                      "type": "tuple"
                    },
                    {
                      "components": [
                        {
                          "components": [
                            {
                              "internalType": "bytes",
                              "name": "val",
                              "type": "bytes"
                            },
                            {
                              "internalType": "bool",
                              "name": "neg",
                              "type": "bool"
                            },
                            {
                              "internalType": "uint256",
                              "name": "bitlen",
                              "type": "uint256"
                            }
                          ],
                          "internalType": "struct BigNumber",
                          "name": "value",
                          "type": "tuple"
                        }
                      ],
                      "internalType": "struct Zp",
                      "name": "b",
                      "type": "tuple"
                    }
                  ],
                  "internalType": "struct Zp_2",
                  "name": "a",
                  "type": "tuple"
                },
                {
                  "components": [
                    {
                      "components": [
                        {
                          "components": [
                            {
                              "internalType": "bytes",
                              "name": "val",
                              "type": "bytes"
                            },
                            {
                              "internalType": "bool",
                              "name": "neg",
                              "type": "bool"
                            },
                            {
                              "internalType": "uint256",
                              "name": "bitlen",
                              "type": "uint256"
                            }
                          ],
                          "internalType": "struct BigNumber",
                          "name": "value",
                          "type": "tuple"
                        }
                      ],
                      "internalType": "struct Zp",
                      "name": "a",
                      "type": "tuple"
                    },
                    {
                      "components": [
                        {
                          "components": [
                            {
                              "internalType": "bytes",
                              "name": "val",
                              "type": "bytes"
                            },
                            {
                              "internalType": "bool",
                              "name": "neg",
                              "type": "bool"
                            },
                            {
                              "internalType": "uint256",
                              "name": "bitlen",
                              "type": "uint256"
                            }
                          ],
                          "internalType": "struct BigNumber",
                          "name": "value",
                          "type": "tuple"
                        }
                      ],
                      "internalType": "struct Zp",
                      "name": "b",
                      "type": "tuple"
                    }
                  ],
                  "internalType": "struct Zp_2",
                  "name": "b",
                  "type": "tuple"
                },
                {
                  "components": [
                    {
                      "components": [
                        {
                          "components": [
                            {
                              "internalType": "bytes",
                              "name": "val",
                              "type": "bytes"
                            },
                            {
                              "internalType": "bool",
                              "name": "neg",
                              "type": "bool"
                            },
                            {
                              "internalType": "uint256",
                              "name": "bitlen",
                              "type": "uint256"
                            }
                          ],
                          "internalType": "struct BigNumber",
                          "name": "value",
                          "type": "tuple"
                        }
                      ],
                      "internalType": "struct Zp",
                      "name": "a",
                      "type": "tuple"
                    },
                    {
                      "components": [
                        {
                          "components": [
                            {
                              "internalType": "bytes",
                              "name": "val",
                              "type": "bytes"
                            },
                            {
                              "internalType": "bool",
                              "name": "neg",
                              "type": "bool"
                            },
                            {
                              "internalType": "uint256",
                              "name": "bitlen",
                              "type": "uint256"
                            }
                          ],
                          "internalType": "struct BigNumber",
                          "name": "value",
                          "type": "tuple"
                        }
                      ],
                      "internalType": "struct Zp",
                      "name": "b",
                      "type": "tuple"
                    }
                  ],
                  "internalType": "struct Zp_2",
                  "name": "c",
                  "type": "tuple"
                }
              ],
              "internalType": "struct Zp_6",
              "name": "a",
              "type": "tuple"
            },
            {
              "components": [
                {
                  "components": [
                    {
                      "components": [
                        {
                          "components": [
                            {
                              "internalType": "bytes",
                              "name": "val",
                              "type": "bytes"
                            },
                            {
                              "internalType": "bool",
                              "name": "neg",
                              "type": "bool"
                            },
                            {
                              "internalType": "uint256",
                              "name": "bitlen",
                              "type": "uint256"
                            }
                          ],
                          "internalType": "struct BigNumber",
                          "name": "value",
                          "type": "tuple"
                        }
                      ],
                      "internalType": "struct Zp",
                      "name": "a",
                      "type": "tuple"
                    },
                    {
                      "components": [
                        {
                          "components": [
                            {
                              "internalType": "bytes",
                              "name": "val",
                              "type": "bytes"
                            },
                            {
                              "internalType": "bool",
                              "name": "neg",
                              "type": "bool"
                            },
                            {
                              "internalType": "uint256",
                              "name": "bitlen",
                              "type": "uint256"
                            }
                          ],
                          "internalType": "struct BigNumber",
                          "name": "value",
                          "type": "tuple"
                        }
                      ],
                      "internalType": "struct Zp",
                      "name": "b",
                      "type": "tuple"
                    }
                  ],
                  "internalType": "struct Zp_2",
                  "name": "a",
                  "type": "tuple"
                },
                {
                  "components": [
                    {
                      "components": [
                        {
                          "components": [
                            {
                              "internalType": "bytes",
                              "name": "val",
                              "type": "bytes"
                            },
                            {
                              "internalType": "bool",
                              "name": "neg",
                              "type": "bool"
                            },
                            {
                              "internalType": "uint256",
                              "name": "bitlen",
                              "type": "uint256"
                            }
                          ],
                          "internalType": "struct BigNumber",
                          "name": "value",
                          "type": "tuple"
                        }
                      ],
                      "internalType": "struct Zp",
                      "name": "a",
                      "type": "tuple"
                    },
                    {
                      "components": [
                        {
                          "components": [
                            {
                              "internalType": "bytes",
                              "name": "val",
                              "type": "bytes"
                            },
                            {
                              "internalType": "bool",
                              "name": "neg",
                              "type": "bool"
                            },
                            {
                              "internalType": "uint256",
                              "name": "bitlen",
                              "type": "uint256"
                            }
                          ],
                          "internalType": "struct BigNumber",
                          "name": "value",
                          "type": "tuple"
                        }
                      ],
                      "internalType": "struct Zp",
                      "name": "b",
                      "type": "tuple"
                    }
                  ],
                  "internalType": "struct Zp_2",
                  "name": "b",
                  "type": "tuple"
                },
                {
                  "components": [
                    {
                      "components": [
                        {
                          "components": [
                            {
                              "internalType": "bytes",
                              "name": "val",
                              "type": "bytes"
                            },
                            {
                              "internalType": "bool",
                              "name": "neg",
                              "type": "bool"
                            },
                            {
                              "internalType": "uint256",
                              "name": "bitlen",
                              "type": "uint256"
                            }
                          ],
                          "internalType": "struct BigNumber",
                          "name": "value",
                          "type": "tuple"
                        }
                      ],
                      "internalType": "struct Zp",
                      "name": "a",
                      "type": "tuple"
                    },
                    {
                      "components": [
                        {
                          "components": [
                            {
                              "internalType": "bytes",
                              "name": "val",
                              "type": "bytes"
                            },
                            {
                              "internalType": "bool",
                              "name": "neg",
                              "type": "bool"
                            },
                            {
                              "internalType": "uint256",
                              "name": "bitlen",
                              "type": "uint256"
                            }
                          ],
                          "internalType": "struct BigNumber",
                          "name": "value",
                          "type": "tuple"
                        }
                      ],
                      "internalType": "struct Zp",
                      "name": "b",
                      "type": "tuple"
                    }
                  ],
                  "internalType": "struct Zp_2",
                  "name": "c",
                  "type": "tuple"
                }
              ],
              "internalType": "struct Zp_6",
              "name": "b",
              "type": "tuple"
            }
          ],
          "internalType": "struct Zp_12",
          "name": "",
          "type": "tuple"
        }
      ],
      "stateMutability": "view",
      "type": "function"
    },
    {
      "inputs": [
        {
          "components": [
            {
              "internalType": "enum PointType_2",
              "name": "pointType",
              "type": "uint8"
            },
            {
              "components": [
                {
                  "components": [
                    {
                      "components": [
                        {
                          "internalType": "bytes",
                          "name": "val",
                          "type": "bytes"
                        },
                        {
                          "internalType": "bool",
                          "name": "neg",
                          "type": "bool"
                        },
                        {
                          "internalType": "uint256",
                          "name": "bitlen",
                          "type": "uint256"
                        }
                      ],
                      "internalType": "struct BigNumber",
                      "name": "value",
                      "type": "tuple"
                    }
                  ],
                  "internalType": "struct Zp",
                  "name": "a",
                  "type": "tuple"
                },
                {
                  "components": [
                    {
                      "components": [
                        {
                          "internalType": "bytes",
                          "name": "val",
                          "type": "bytes"
                        },
                        {
                          "internalType": "bool",
                          "name": "neg",
                          "type": "bool"
                        },
                        {
                          "internalType": "uint256",
                          "name": "bitlen",
                          "type": "uint256"
                        }
                      ],
                      "internalType": "struct BigNumber",
                      "name": "value",
                      "type": "tuple"
                    }
                  ],
                  "internalType": "struct Zp",
                  "name": "b",
                  "type": "tuple"
                }
              ],
              "internalType": "struct Zp_2",
              "name": "x",
              "type": "tuple"
            },
            {
              "components": [
                {
                  "components": [
                    {
                      "components": [
                        {
                          "internalType": "bytes",
                          "name": "val",
                          "type": "bytes"
                        },
                        {
                          "internalType": "bool",
                          "name": "neg",
                          "type": "bool"
                        },
                        {
                          "internalType": "uint256",
                          "name": "bitlen",
                          "type": "uint256"
                        }
                      ],
                      "internalType": "struct BigNumber",
                      "name": "value",
                      "type": "tuple"
                    }
                  ],
                  "internalType": "struct Zp",
                  "name": "a",
                  "type": "tuple"
                },
                {
                  "components": [
                    {
                      "components": [
                        {
                          "internalType": "bytes",
                          "name": "val",
                          "type": "bytes"
                        },
                        {
                          "internalType": "bool",
                          "name": "neg",
                          "type": "bool"
                        },
                        {
                          "internalType": "uint256",
                          "name": "bitlen",
                          "type": "uint256"
                        }
                      ],
                      "internalType": "struct BigNumber",
                      "name": "value",
                      "type": "tuple"
                    }
                  ],
                  "internalType": "struct Zp",
                  "name": "b",
                  "type": "tuple"
                }
              ],
              "internalType": "struct Zp_2",
              "name": "y",
              "type": "tuple"
            }
          ],
          "internalType": "struct Point_Zp_2",
          "name": "r",
          "type": "tuple"
        },
        {
          "components": [
            {
              "internalType": "enum PointType_2",
              "name": "pointType",
              "type": "uint8"
            },
            {
              "components": [
                {
                  "components": [
                    {
                      "components": [
                        {
                          "internalType": "bytes",
                          "name": "val",
                          "type": "bytes"
                        },
                        {
                          "internalType": "bool",
                          "name": "neg",
                          "type": "bool"
                        },
                        {
                          "internalType": "uint256",
                          "name": "bitlen",
                          "type": "uint256"
                        }
                      ],
                      "internalType": "struct BigNumber",
                      "name": "value",
                      "type": "tuple"
                    }
                  ],
                  "internalType": "struct Zp",
                  "name": "a",
                  "type": "tuple"
                },
                {
                  "components": [
                    {
                      "components": [
                        {
                          "internalType": "bytes",
                          "name": "val",
                          "type": "bytes"
                        },
                        {
                          "internalType": "bool",
                          "name": "neg",
                          "type": "bool"
                        },
                        {
                          "internalType": "uint256",
                          "name": "bitlen",
                          "type": "uint256"
                        }
                      ],
                      "internalType": "struct BigNumber",
                      "name": "value",
                      "type": "tuple"
                    }
                  ],
                  "internalType": "struct Zp",
                  "name": "b",
                  "type": "tuple"
                }
              ],
              "internalType": "struct Zp_2",
              "name": "x",
              "type": "tuple"
            },
            {
              "components": [
                {
                  "components": [
                    {
                      "components": [
                        {
                          "internalType": "bytes",
                          "name": "val",
                          "type": "bytes"
                        },
                        {
                          "internalType": "bool",
                          "name": "neg",
                          "type": "bool"
                        },
                        {
                          "internalType": "uint256",
                          "name": "bitlen",
                          "type": "uint256"
                        }
                      ],
                      "internalType": "struct BigNumber",
                      "name": "value",
                      "type": "tuple"
                    }
                  ],
                  "internalType": "struct Zp",
                  "name": "a",
                  "type": "tuple"
                },
                {
                  "components": [
                    {
                      "components": [
                        {
                          "internalType": "bytes",
                          "name": "val",
                          "type": "bytes"
                        },
                        {
                          "internalType": "bool",
                          "name": "neg",
                          "type": "bool"
                        },
                        {
                          "internalType": "uint256",
                          "name": "bitlen",
                          "type": "uint256"
                        }
                      ],
                      "internalType": "struct BigNumber",
                      "name": "value",
                      "type": "tuple"
                    }
                  ],
                  "internalType": "struct Zp",
                  "name": "b",
                  "type": "tuple"
                }
              ],
              "internalType": "struct Zp_2",
              "name": "y",
              "type": "tuple"
            }
          ],
          "internalType": "struct Point_Zp_2",
          "name": "q",
          "type": "tuple"
        },
        {
          "components": [
            {
              "internalType": "enum PointType",
              "name": "pointType",
              "type": "uint8"
            },
            {
              "components": [
                {
                  "components": [
                    {
                      "internalType": "bytes",
                      "name": "val",
                      "type": "bytes"
                    },
                    {
                      "internalType": "bool",
                      "name": "neg",
                      "type": "bool"
                    },
                    {
                      "internalType": "uint256",
                      "name": "bitlen",
                      "type": "uint256"
                    }
                  ],
                  "internalType": "struct BigNumber",
                  "name": "value",
                  "type": "tuple"
                }
              ],
              "internalType": "struct Zp",
              "name": "x",
              "type": "tuple"
            },
            {
              "components": [
                {
                  "components": [
                    {
                      "internalType": "bytes",
                      "name": "val",
                      "type": "bytes"
                    },
                    {
                      "internalType": "bool",
                      "name": "neg",
                      "type": "bool"
                    },
                    {
                      "internalType": "uint256",
                      "name": "bitlen",
                      "type": "uint256"
                    }
                  ],
                  "internalType": "struct BigNumber",
                  "name": "value",
                  "type": "tuple"
                }
              ],
              "internalType": "struct Zp",
              "name": "y",
              "type": "tuple"
            }
          ],
          "internalType": "struct Point_Zp",
          "name": "p",
          "type": "tuple"
        }
      ],
      "name": "addEval",
      "outputs": [
        {
          "components": [
            {
              "components": [
                {
                  "components": [
                    {
                      "components": [
                        {
                          "components": [
                            {
                              "internalType": "bytes",
                              "name": "val",
                              "type": "bytes"
                            },
                            {
                              "internalType": "bool",
                              "name": "neg",
                              "type": "bool"
                            },
                            {
                              "internalType": "uint256",
                              "name": "bitlen",
                              "type": "uint256"
                            }
                          ],
                          "internalType": "struct BigNumber",
                          "name": "value",
                          "type": "tuple"
                        }
                      ],
                      "internalType": "struct Zp",
                      "name": "a",
                      "type": "tuple"
                    },
                    {
                      "components": [
                        {
                          "components": [
                            {
                              "internalType": "bytes",
                              "name": "val",
                              "type": "bytes"
                            },
                            {
                              "internalType": "bool",
                              "name": "neg",
                              "type": "bool"
                            },
                            {
                              "internalType": "uint256",
                              "name": "bitlen",
                              "type": "uint256"
                            }
                          ],
                          "internalType": "struct BigNumber",
                          "name": "value",
                          "type": "tuple"
                        }
                      ],
                      "internalType": "struct Zp",
                      "name": "b",
                      "type": "tuple"
                    }
                  ],
                  "internalType": "struct Zp_2",
                  "name": "a",
                  "type": "tuple"
                },
                {
                  "components": [
                    {
                      "components": [
                        {
                          "components": [
                            {
                              "internalType": "bytes",
                              "name": "val",
                              "type": "bytes"
                            },
                            {
                              "internalType": "bool",
                              "name": "neg",
                              "type": "bool"
                            },
                            {
                              "internalType": "uint256",
                              "name": "bitlen",
                              "type": "uint256"
                            }
                          ],
                          "internalType": "struct BigNumber",
                          "name": "value",
                          "type": "tuple"
                        }
                      ],
                      "internalType": "struct Zp",
                      "name": "a",
                      "type": "tuple"
                    },
                    {
                      "components": [
                        {
                          "components": [
                            {
                              "internalType": "bytes",
                              "name": "val",
                              "type": "bytes"
                            },
                            {
                              "internalType": "bool",
                              "name": "neg",
                              "type": "bool"
                            },
                            {
                              "internalType": "uint256",
                              "name": "bitlen",
                              "type": "uint256"
                            }
                          ],
                          "internalType": "struct BigNumber",
                          "name": "value",
                          "type": "tuple"
                        }
                      ],
                      "internalType": "struct Zp",
                      "name": "b",
                      "type": "tuple"
                    }
                  ],
                  "internalType": "struct Zp_2",
                  "name": "b",
                  "type": "tuple"
                },
                {
                  "components": [
                    {
                      "components": [
                        {
                          "components": [
                            {
                              "internalType": "bytes",
                              "name": "val",
                              "type": "bytes"
                            },
                            {
                              "internalType": "bool",
                              "name": "neg",
                              "type": "bool"
                            },
                            {
                              "internalType": "uint256",
                              "name": "bitlen",
                              "type": "uint256"
                            }
                          ],
                          "internalType": "struct BigNumber",
                          "name": "value",
                          "type": "tuple"
                        }
                      ],
                      "internalType": "struct Zp",
                      "name": "a",
                      "type": "tuple"
                    },
                    {
                      "components": [
                        {
                          "components": [
                            {
                              "internalType": "bytes",
                              "name": "val",
                              "type": "bytes"
                            },
                            {
                              "internalType": "bool",
                              "name": "neg",
                              "type": "bool"
                            },
                            {
                              "internalType": "uint256",
                              "name": "bitlen",
                              "type": "uint256"
                            }
                          ],
                          "internalType": "struct BigNumber",
                          "name": "value",
                          "type": "tuple"
                        }
                      ],
                      "internalType": "struct Zp",
                      "name": "b",
                      "type": "tuple"
                    }
                  ],
                  "internalType": "struct Zp_2",
                  "name": "c",
                  "type": "tuple"
                }
              ],
              "internalType": "struct Zp_6",
              "name": "a",
              "type": "tuple"
            },
            {
              "components": [
                {
                  "components": [
                    {
                      "components": [
                        {
                          "components": [
                            {
                              "internalType": "bytes",
                              "name": "val",
                              "type": "bytes"
                            },
                            {
                              "internalType": "bool",
                              "name": "neg",
                              "type": "bool"
                            },
                            {
                              "internalType": "uint256",
                              "name": "bitlen",
                              "type": "uint256"
                            }
                          ],
                          "internalType": "struct BigNumber",
                          "name": "value",
                          "type": "tuple"
                        }
                      ],
                      "internalType": "struct Zp",
                      "name": "a",
                      "type": "tuple"
                    },
                    {
                      "components": [
                        {
                          "components": [
                            {
                              "internalType": "bytes",
                              "name": "val",
                              "type": "bytes"
                            },
                            {
                              "internalType": "bool",
                              "name": "neg",
                              "type": "bool"
                            },
                            {
                              "internalType": "uint256",
                              "name": "bitlen",
                              "type": "uint256"
                            }
                          ],
                          "internalType": "struct BigNumber",
                          "name": "value",
                          "type": "tuple"
                        }
                      ],
                      "internalType": "struct Zp",
                      "name": "b",
                      "type": "tuple"
                    }
                  ],
                  "internalType": "struct Zp_2",
                  "name": "a",
                  "type": "tuple"
                },
                {
                  "components": [
                    {
                      "components": [
                        {
                          "components": [
                            {
                              "internalType": "bytes",
                              "name": "val",
                              "type": "bytes"
                            },
                            {
                              "internalType": "bool",
                              "name": "neg",
                              "type": "bool"
                            },
                            {
                              "internalType": "uint256",
                              "name": "bitlen",
                              "type": "uint256"
                            }
                          ],
                          "internalType": "struct BigNumber",
                          "name": "value",
                          "type": "tuple"
                        }
                      ],
                      "internalType": "struct Zp",
                      "name": "a",
                      "type": "tuple"
                    },
                    {
                      "components": [
                        {
                          "components": [
                            {
                              "internalType": "bytes",
                              "name": "val",
                              "type": "bytes"
                            },
                            {
                              "internalType": "bool",
                              "name": "neg",
                              "type": "bool"
                            },
                            {
                              "internalType": "uint256",
                              "name": "bitlen",
                              "type": "uint256"
                            }
                          ],
                          "internalType": "struct BigNumber",
                          "name": "value",
                          "type": "tuple"
                        }
                      ],
                      "internalType": "struct Zp",
                      "name": "b",
                      "type": "tuple"
                    }
                  ],
                  "internalType": "struct Zp_2",
                  "name": "b",
                  "type": "tuple"
                },
                {
                  "components": [
                    {
                      "components": [
                        {
                          "components": [
                            {
                              "internalType": "bytes",
                              "name": "val",
                              "type": "bytes"
                            },
                            {
                              "internalType": "bool",
                              "name": "neg",
                              "type": "bool"
                            },
                            {
                              "internalType": "uint256",
                              "name": "bitlen",
                              "type": "uint256"
                            }
                          ],
                          "internalType": "struct BigNumber",
                          "name": "value",
                          "type": "tuple"
                        }
                      ],
                      "internalType": "struct Zp",
                      "name": "a",
                      "type": "tuple"
                    },
                    {
                      "components": [
                        {
                          "components": [
                            {
                              "internalType": "bytes",
                              "name": "val",
                              "type": "bytes"
                            },
                            {
                              "internalType": "bool",
                              "name": "neg",
                              "type": "bool"
                            },
                            {
                              "internalType": "uint256",
                              "name": "bitlen",
                              "type": "uint256"
                            }
                          ],
                          "internalType": "struct BigNumber",
                          "name": "value",
                          "type": "tuple"
                        }
                      ],
                      "internalType": "struct Zp",
                      "name": "b",
                      "type": "tuple"
                    }
                  ],
                  "internalType": "struct Zp_2",
                  "name": "c",
                  "type": "tuple"
                }
              ],
              "internalType": "struct Zp_6",
              "name": "b",
              "type": "tuple"
            }
          ],
          "internalType": "struct Zp_12",
          "name": "",
          "type": "tuple"
        }
      ],
      "stateMutability": "view",
      "type": "function"
    },
    {
      "inputs": [
        {
          "components": [
            {
              "internalType": "enum PointType_2",
              "name": "pointType",
              "type": "uint8"
            },
            {
              "components": [
                {
                  "components": [
                    {
                      "components": [
                        {
                          "internalType": "bytes",
                          "name": "val",
                          "type": "bytes"
                        },
                        {
                          "internalType": "bool",
                          "name": "neg",
                          "type": "bool"
                        },
                        {
                          "internalType": "uint256",
                          "name": "bitlen",
                          "type": "uint256"
                        }
                      ],
                      "internalType": "struct BigNumber",
                      "name": "value",
                      "type": "tuple"
                    }
                  ],
                  "internalType": "struct Zp",
                  "name": "a",
                  "type": "tuple"
                },
                {
                  "components": [
                    {
                      "components": [
                        {
                          "internalType": "bytes",
                          "name": "val",
                          "type": "bytes"
                        },
                        {
                          "internalType": "bool",
                          "name": "neg",
                          "type": "bool"
                        },
                        {
                          "internalType": "uint256",
                          "name": "bitlen",
                          "type": "uint256"
                        }
                      ],
                      "internalType": "struct BigNumber",
                      "name": "value",
                      "type": "tuple"
                    }
                  ],
                  "internalType": "struct Zp",
                  "name": "b",
                  "type": "tuple"
                }
              ],
              "internalType": "struct Zp_2",
              "name": "x",
              "type": "tuple"
            },
            {
              "components": [
                {
                  "components": [
                    {
                      "components": [
                        {
                          "internalType": "bytes",
                          "name": "val",
                          "type": "bytes"
                        },
                        {
                          "internalType": "bool",
                          "name": "neg",
                          "type": "bool"
                        },
                        {
                          "internalType": "uint256",
                          "name": "bitlen",
                          "type": "uint256"
                        }
                      ],
                      "internalType": "struct BigNumber",
                      "name": "value",
                      "type": "tuple"
                    }
                  ],
                  "internalType": "struct Zp",
                  "name": "a",
                  "type": "tuple"
                },
                {
                  "components": [
                    {
                      "components": [
                        {
                          "internalType": "bytes",
                          "name": "val",
                          "type": "bytes"
                        },
                        {
                          "internalType": "bool",
                          "name": "neg",
                          "type": "bool"
                        },
                        {
                          "internalType": "uint256",
                          "name": "bitlen",
                          "type": "uint256"
                        }
                      ],
                      "internalType": "struct BigNumber",
                      "name": "value",
                      "type": "tuple"
                    }
                  ],
                  "internalType": "struct Zp",
                  "name": "b",
                  "type": "tuple"
                }
              ],
              "internalType": "struct Zp_2",
              "name": "y",
              "type": "tuple"
            }
          ],
          "internalType": "struct Point_Zp_2",
          "name": "r",
          "type": "tuple"
        },
        {
          "components": [
            {
              "internalType": "enum PointType",
              "name": "pointType",
              "type": "uint8"
            },
            {
              "components": [
                {
                  "components": [
                    {
                      "internalType": "bytes",
                      "name": "val",
                      "type": "bytes"
                    },
                    {
                      "internalType": "bool",
                      "name": "neg",
                      "type": "bool"
                    },
                    {
                      "internalType": "uint256",
                      "name": "bitlen",
                      "type": "uint256"
                    }
                  ],
                  "internalType": "struct BigNumber",
                  "name": "value",
                  "type": "tuple"
                }
              ],
              "internalType": "struct Zp",
              "name": "x",
              "type": "tuple"
            },
            {
              "components": [
                {
                  "components": [
                    {
                      "internalType": "bytes",
                      "name": "val",
                      "type": "bytes"
                    },
                    {
                      "internalType": "bool",
                      "name": "neg",
                      "type": "bool"
                    },
                    {
                      "internalType": "uint256",
                      "name": "bitlen",
                      "type": "uint256"
                    }
                  ],
                  "internalType": "struct BigNumber",
                  "name": "value",
                  "type": "tuple"
                }
              ],
              "internalType": "struct Zp",
              "name": "y",
              "type": "tuple"
            }
          ],
          "internalType": "struct Point_Zp",
          "name": "p",
          "type": "tuple"
        }
      ],
      "name": "doubleEval",
      "outputs": [
        {
          "components": [
            {
              "components": [
                {
                  "components": [
                    {
                      "components": [
                        {
                          "components": [
                            {
                              "internalType": "bytes",
                              "name": "val",
                              "type": "bytes"
                            },
                            {
                              "internalType": "bool",
                              "name": "neg",
                              "type": "bool"
                            },
                            {
                              "internalType": "uint256",
                              "name": "bitlen",
                              "type": "uint256"
                            }
                          ],
                          "internalType": "struct BigNumber",
                          "name": "value",
                          "type": "tuple"
                        }
                      ],
                      "internalType": "struct Zp",
                      "name": "a",
                      "type": "tuple"
                    },
                    {
                      "components": [
                        {
                          "components": [
                            {
                              "internalType": "bytes",
                              "name": "val",
                              "type": "bytes"
                            },
                            {
                              "internalType": "bool",
                              "name": "neg",
                              "type": "bool"
                            },
                            {
                              "internalType": "uint256",
                              "name": "bitlen",
                              "type": "uint256"
                            }
                          ],
                          "internalType": "struct BigNumber",
                          "name": "value",
                          "type": "tuple"
                        }
                      ],
                      "internalType": "struct Zp",
                      "name": "b",
                      "type": "tuple"
                    }
                  ],
                  "internalType": "struct Zp_2",
                  "name": "a",
                  "type": "tuple"
                },
                {
                  "components": [
                    {
                      "components": [
                        {
                          "components": [
                            {
                              "internalType": "bytes",
                              "name": "val",
                              "type": "bytes"
                            },
                            {
                              "internalType": "bool",
                              "name": "neg",
                              "type": "bool"
                            },
                            {
                              "internalType": "uint256",
                              "name": "bitlen",
                              "type": "uint256"
                            }
                          ],
                          "internalType": "struct BigNumber",
                          "name": "value",
                          "type": "tuple"
                        }
                      ],
                      "internalType": "struct Zp",
                      "name": "a",
                      "type": "tuple"
                    },
                    {
                      "components": [
                        {
                          "components": [
                            {
                              "internalType": "bytes",
                              "name": "val",
                              "type": "bytes"
                            },
                            {
                              "internalType": "bool",
                              "name": "neg",
                              "type": "bool"
                            },
                            {
                              "internalType": "uint256",
                              "name": "bitlen",
                              "type": "uint256"
                            }
                          ],
                          "internalType": "struct BigNumber",
                          "name": "value",
                          "type": "tuple"
                        }
                      ],
                      "internalType": "struct Zp",
                      "name": "b",
                      "type": "tuple"
                    }
                  ],
                  "internalType": "struct Zp_2",
                  "name": "b",
                  "type": "tuple"
                },
                {
                  "components": [
                    {
                      "components": [
                        {
                          "components": [
                            {
                              "internalType": "bytes",
                              "name": "val",
                              "type": "bytes"
                            },
                            {
                              "internalType": "bool",
                              "name": "neg",
                              "type": "bool"
                            },
                            {
                              "internalType": "uint256",
                              "name": "bitlen",
                              "type": "uint256"
                            }
                          ],
                          "internalType": "struct BigNumber",
                          "name": "value",
                          "type": "tuple"
                        }
                      ],
                      "internalType": "struct Zp",
                      "name": "a",
                      "type": "tuple"
                    },
                    {
                      "components": [
                        {
                          "components": [
                            {
                              "internalType": "bytes",
                              "name": "val",
                              "type": "bytes"
                            },
                            {
                              "internalType": "bool",
                              "name": "neg",
                              "type": "bool"
                            },
                            {
                              "internalType": "uint256",
                              "name": "bitlen",
                              "type": "uint256"
                            }
                          ],
                          "internalType": "struct BigNumber",
                          "name": "value",
                          "type": "tuple"
                        }
                      ],
                      "internalType": "struct Zp",
                      "name": "b",
                      "type": "tuple"
                    }
                  ],
                  "internalType": "struct Zp_2",
                  "name": "c",
                  "type": "tuple"
                }
              ],
              "internalType": "struct Zp_6",
              "name": "a",
              "type": "tuple"
            },
            {
              "components": [
                {
                  "components": [
                    {
                      "components": [
                        {
                          "components": [
                            {
                              "internalType": "bytes",
                              "name": "val",
                              "type": "bytes"
                            },
                            {
                              "internalType": "bool",
                              "name": "neg",
                              "type": "bool"
                            },
                            {
                              "internalType": "uint256",
                              "name": "bitlen",
                              "type": "uint256"
                            }
                          ],
                          "internalType": "struct BigNumber",
                          "name": "value",
                          "type": "tuple"
                        }
                      ],
                      "internalType": "struct Zp",
                      "name": "a",
                      "type": "tuple"
                    },
                    {
                      "components": [
                        {
                          "components": [
                            {
                              "internalType": "bytes",
                              "name": "val",
                              "type": "bytes"
                            },
                            {
                              "internalType": "bool",
                              "name": "neg",
                              "type": "bool"
                            },
                            {
                              "internalType": "uint256",
                              "name": "bitlen",
                              "type": "uint256"
                            }
                          ],
                          "internalType": "struct BigNumber",
                          "name": "value",
                          "type": "tuple"
                        }
                      ],
                      "internalType": "struct Zp",
                      "name": "b",
                      "type": "tuple"
                    }
                  ],
                  "internalType": "struct Zp_2",
                  "name": "a",
                  "type": "tuple"
                },
                {
                  "components": [
                    {
                      "components": [
                        {
                          "components": [
                            {
                              "internalType": "bytes",
                              "name": "val",
                              "type": "bytes"
                            },
                            {
                              "internalType": "bool",
                              "name": "neg",
                              "type": "bool"
                            },
                            {
                              "internalType": "uint256",
                              "name": "bitlen",
                              "type": "uint256"
                            }
                          ],
                          "internalType": "struct BigNumber",
                          "name": "value",
                          "type": "tuple"
                        }
                      ],
                      "internalType": "struct Zp",
                      "name": "a",
                      "type": "tuple"
                    },
                    {
                      "components": [
                        {
                          "components": [
                            {
                              "internalType": "bytes",
                              "name": "val",
                              "type": "bytes"
                            },
                            {
                              "internalType": "bool",
                              "name": "neg",
                              "type": "bool"
                            },
                            {
                              "internalType": "uint256",
                              "name": "bitlen",
                              "type": "uint256"
                            }
                          ],
                          "internalType": "struct BigNumber",
                          "name": "value",
                          "type": "tuple"
                        }
                      ],
                      "internalType": "struct Zp",
                      "name": "b",
                      "type": "tuple"
                    }
                  ],
                  "internalType": "struct Zp_2",
                  "name": "b",
                  "type": "tuple"
                },
                {
                  "components": [
                    {
                      "components": [
                        {
                          "components": [
                            {
                              "internalType": "bytes",
                              "name": "val",
                              "type": "bytes"
                            },
                            {
                              "internalType": "bool",
                              "name": "neg",
                              "type": "bool"
                            },
                            {
                              "internalType": "uint256",
                              "name": "bitlen",
                              "type": "uint256"
                            }
                          ],
                          "internalType": "struct BigNumber",
                          "name": "value",
                          "type": "tuple"
                        }
                      ],
                      "internalType": "struct Zp",
                      "name": "a",
                      "type": "tuple"
                    },
                    {
                      "components": [
                        {
                          "components": [
                            {
                              "internalType": "bytes",
                              "name": "val",
                              "type": "bytes"
                            },
                            {
                              "internalType": "bool",
                              "name": "neg",
                              "type": "bool"
                            },
                            {
                              "internalType": "uint256",
                              "name": "bitlen",
                              "type": "uint256"
                            }
                          ],
                          "internalType": "struct BigNumber",
                          "name": "value",
                          "type": "tuple"
                        }
                      ],
                      "internalType": "struct Zp",
                      "name": "b",
                      "type": "tuple"
                    }
                  ],
                  "internalType": "struct Zp_2",
                  "name": "c",
                  "type": "tuple"
                }
              ],
              "internalType": "struct Zp_6",
              "name": "b",
              "type": "tuple"
            }
          ],
          "internalType": "struct Zp_12",
          "name": "",
          "type": "tuple"
        }
      ],
      "stateMutability": "view",
      "type": "function"
    },
    {
      "inputs": [],
      "name": "get_g0",
      "outputs": [
        {
          "components": [
            {
              "internalType": "enum PointType",
              "name": "pointType",
              "type": "uint8"
            },
            {
              "components": [
                {
                  "components": [
                    {
                      "internalType": "bytes",
                      "name": "val",
                      "type": "bytes"
                    },
                    {
                      "internalType": "bool",
                      "name": "neg",
                      "type": "bool"
                    },
                    {
                      "internalType": "uint256",
                      "name": "bitlen",
                      "type": "uint256"
                    }
                  ],
                  "internalType": "struct BigNumber",
                  "name": "value",
                  "type": "tuple"
                }
              ],
              "internalType": "struct Zp",
              "name": "x",
              "type": "tuple"
            },
            {
              "components": [
                {
                  "components": [
                    {
                      "internalType": "bytes",
                      "name": "val",
                      "type": "bytes"
                    },
                    {
                      "internalType": "bool",
                      "name": "neg",
                      "type": "bool"
                    },
                    {
                      "internalType": "uint256",
                      "name": "bitlen",
                      "type": "uint256"
                    }
                  ],
                  "internalType": "struct BigNumber",
                  "name": "value",
                  "type": "tuple"
                }
              ],
              "internalType": "struct Zp",
              "name": "y",
              "type": "tuple"
            }
          ],
          "internalType": "struct Point_Zp",
          "name": "",
          "type": "tuple"
        }
      ],
      "stateMutability": "view",
      "type": "function"
    },
    {
      "inputs": [],
      "name": "get_g1",
      "outputs": [
        {
          "components": [
            {
              "internalType": "enum PointType_2",
              "name": "pointType",
              "type": "uint8"
            },
            {
              "components": [
                {
                  "components": [
                    {
                      "components": [
                        {
                          "internalType": "bytes",
                          "name": "val",
                          "type": "bytes"
                        },
                        {
                          "internalType": "bool",
                          "name": "neg",
                          "type": "bool"
                        },
                        {
                          "internalType": "uint256",
                          "name": "bitlen",
                          "type": "uint256"
                        }
                      ],
                      "internalType": "struct BigNumber",
                      "name": "value",
                      "type": "tuple"
                    }
                  ],
                  "internalType": "struct Zp",
                  "name": "a",
                  "type": "tuple"
                },
                {
                  "components": [
                    {
                      "components": [
                        {
                          "internalType": "bytes",
                          "name": "val",
                          "type": "bytes"
                        },
                        {
                          "internalType": "bool",
                          "name": "neg",
                          "type": "bool"
                        },
                        {
                          "internalType": "uint256",
                          "name": "bitlen",
                          "type": "uint256"
                        }
                      ],
                      "internalType": "struct BigNumber",
                      "name": "value",
                      "type": "tuple"
                    }
                  ],
                  "internalType": "struct Zp",
                  "name": "b",
                  "type": "tuple"
                }
              ],
              "internalType": "struct Zp_2",
              "name": "x",
              "type": "tuple"
            },
            {
              "components": [
                {
                  "components": [
                    {
                      "components": [
                        {
                          "internalType": "bytes",
                          "name": "val",
                          "type": "bytes"
                        },
                        {
                          "internalType": "bool",
                          "name": "neg",
                          "type": "bool"
                        },
                        {
                          "internalType": "uint256",
                          "name": "bitlen",
                          "type": "uint256"
                        }
                      ],
                      "internalType": "struct BigNumber",
                      "name": "value",
                      "type": "tuple"
                    }
                  ],
                  "internalType": "struct Zp",
                  "name": "a",
                  "type": "tuple"
                },
                {
                  "components": [
                    {
                      "components": [
                        {
                          "internalType": "bytes",
                          "name": "val",
                          "type": "bytes"
                        },
                        {
                          "internalType": "bool",
                          "name": "neg",
                          "type": "bool"
                        },
                        {
                          "internalType": "uint256",
                          "name": "bitlen",
                          "type": "uint256"
                        }
                      ],
                      "internalType": "struct BigNumber",
                      "name": "value",
                      "type": "tuple"
                    }
                  ],
                  "internalType": "struct Zp",
                  "name": "b",
                  "type": "tuple"
                }
              ],
              "internalType": "struct Zp_2",
              "name": "y",
              "type": "tuple"
            }
          ],
          "internalType": "struct Point_Zp_2",
          "name": "",
          "type": "tuple"
        }
      ],
      "stateMutability": "view",
      "type": "function"
    },
    {
      "inputs": [],
      "name": "get_order",
      "outputs": [
        {
          "components": [
            {
              "internalType": "bytes",
              "name": "val",
              "type": "bytes"
            },
            {
              "internalType": "bool",
              "name": "neg",
              "type": "bool"
            },
            {
              "internalType": "uint256",
              "name": "bitlen",
              "type": "uint256"
            }
          ],
          "internalType": "struct BigNumber",
          "name": "",
          "type": "tuple"
        }
      ],
      "stateMutability": "view",
      "type": "function"
    },
    {
      "inputs": [],
      "name": "get_prime",
      "outputs": [
        {
          "components": [
            {
              "internalType": "bytes",
              "name": "val",
              "type": "bytes"
            },
            {
              "internalType": "bool",
              "name": "neg",
              "type": "bool"
            },
            {
              "internalType": "uint256",
              "name": "bitlen",
              "type": "uint256"
            }
          ],
          "internalType": "struct BigNumber",
          "name": "",
          "type": "tuple"
        }
      ],
      "stateMutability": "view",
      "type": "function"
    },
    {
      "inputs": [
        {
          "components": [
            {
              "internalType": "enum PointType",
              "name": "pointType",
              "type": "uint8"
            },
            {
              "components": [
                {
                  "components": [
                    {
                      "internalType": "bytes",
                      "name": "val",
                      "type": "bytes"
                    },
                    {
                      "internalType": "bool",
                      "name": "neg",
                      "type": "bool"
                    },
                    {
                      "internalType": "uint256",
                      "name": "bitlen",
                      "type": "uint256"
                    }
                  ],
                  "internalType": "struct BigNumber",
                  "name": "value",
                  "type": "tuple"
                }
              ],
              "internalType": "struct Zp",
              "name": "x",
              "type": "tuple"
            },
            {
              "components": [
                {
                  "components": [
                    {
                      "internalType": "bytes",
                      "name": "val",
                      "type": "bytes"
                    },
                    {
                      "internalType": "bool",
                      "name": "neg",
                      "type": "bool"
                    },
                    {
                      "internalType": "uint256",
                      "name": "bitlen",
                      "type": "uint256"
                    }
                  ],
                  "internalType": "struct BigNumber",
                  "name": "value",
                  "type": "tuple"
                }
              ],
              "internalType": "struct Zp",
              "name": "y",
              "type": "tuple"
            }
          ],
          "internalType": "struct Point_Zp",
          "name": "point",
          "type": "tuple"
        }
      ],
      "name": "isOnCurve",
      "outputs": [
        {
          "internalType": "bool",
          "name": "",
          "type": "bool"
        }
      ],
      "stateMutability": "view",
      "type": "function"
    },
    {
      "inputs": [
        {
          "components": [
            {
              "internalType": "enum PointType_2",
              "name": "pointType",
              "type": "uint8"
            },
            {
              "components": [
                {
                  "components": [
                    {
                      "components": [
                        {
                          "internalType": "bytes",
                          "name": "val",
                          "type": "bytes"
                        },
                        {
                          "internalType": "bool",
                          "name": "neg",
                          "type": "bool"
                        },
                        {
                          "internalType": "uint256",
                          "name": "bitlen",
                          "type": "uint256"
                        }
                      ],
                      "internalType": "struct BigNumber",
                      "name": "value",
                      "type": "tuple"
                    }
                  ],
                  "internalType": "struct Zp",
                  "name": "a",
                  "type": "tuple"
                },
                {
                  "components": [
                    {
                      "components": [
                        {
                          "internalType": "bytes",
                          "name": "val",
                          "type": "bytes"
                        },
                        {
                          "internalType": "bool",
                          "name": "neg",
                          "type": "bool"
                        },
                        {
                          "internalType": "uint256",
                          "name": "bitlen",
                          "type": "uint256"
                        }
                      ],
                      "internalType": "struct BigNumber",
                      "name": "value",
                      "type": "tuple"
                    }
                  ],
                  "internalType": "struct Zp",
                  "name": "b",
                  "type": "tuple"
                }
              ],
              "internalType": "struct Zp_2",
              "name": "x",
              "type": "tuple"
            },
            {
              "components": [
                {
                  "components": [
                    {
                      "components": [
                        {
                          "internalType": "bytes",
                          "name": "val",
                          "type": "bytes"
                        },
                        {
                          "internalType": "bool",
                          "name": "neg",
                          "type": "bool"
                        },
                        {
                          "internalType": "uint256",
                          "name": "bitlen",
                          "type": "uint256"
                        }
                      ],
                      "internalType": "struct BigNumber",
                      "name": "value",
                      "type": "tuple"
                    }
                  ],
                  "internalType": "struct Zp",
                  "name": "a",
                  "type": "tuple"
                },
                {
                  "components": [
                    {
                      "components": [
                        {
                          "internalType": "bytes",
                          "name": "val",
                          "type": "bytes"
                        },
                        {
                          "internalType": "bool",
                          "name": "neg",
                          "type": "bool"
                        },
                        {
                          "internalType": "uint256",
                          "name": "bitlen",
                          "type": "uint256"
                        }
                      ],
                      "internalType": "struct BigNumber",
                      "name": "value",
                      "type": "tuple"
                    }
                  ],
                  "internalType": "struct Zp",
                  "name": "b",
                  "type": "tuple"
                }
              ],
              "internalType": "struct Zp_2",
              "name": "y",
              "type": "tuple"
            }
          ],
          "internalType": "struct Point_Zp_2",
          "name": "point",
          "type": "tuple"
        }
      ],
      "name": "isOnCurveTwist",
      "outputs": [
        {
          "internalType": "bool",
          "name": "",
          "type": "bool"
        }
      ],
      "stateMutability": "view",
      "type": "function"
    },
    {
      "inputs": [
        {
          "components": [
            {
              "internalType": "enum PointType_12",
              "name": "pointType",
              "type": "uint8"
            },
            {
              "components": [
                {
                  "components": [
                    {
                      "components": [
                        {
                          "components": [
                            {
                              "components": [
                                {
                                  "internalType": "bytes",
                                  "name": "val",
                                  "type": "bytes"
                                },
                                {
                                  "internalType": "bool",
                                  "name": "neg",
                                  "type": "bool"
                                },
                                {
                                  "internalType": "uint256",
                                  "name": "bitlen",
                                  "type": "uint256"
                                }
                              ],
                              "internalType": "struct BigNumber",
                              "name": "value",
                              "type": "tuple"
                            }
                          ],
                          "internalType": "struct Zp",
                          "name": "a",
                          "type": "tuple"
                        },
                        {
                          "components": [
                            {
                              "components": [
                                {
                                  "internalType": "bytes",
                                  "name": "val",
                                  "type": "bytes"
                                },
                                {
                                  "internalType": "bool",
                                  "name": "neg",
                                  "type": "bool"
                                },
                                {
                                  "internalType": "uint256",
                                  "name": "bitlen",
                                  "type": "uint256"
                                }
                              ],
                              "internalType": "struct BigNumber",
                              "name": "value",
                              "type": "tuple"
                            }
                          ],
                          "internalType": "struct Zp",
                          "name": "b",
                          "type": "tuple"
                        }
                      ],
                      "internalType": "struct Zp_2",
                      "name": "a",
                      "type": "tuple"
                    },
                    {
                      "components": [
                        {
                          "components": [
                            {
                              "components": [
                                {
                                  "internalType": "bytes",
                                  "name": "val",
                                  "type": "bytes"
                                },
                                {
                                  "internalType": "bool",
                                  "name": "neg",
                                  "type": "bool"
                                },
                                {
                                  "internalType": "uint256",
                                  "name": "bitlen",
                                  "type": "uint256"
                                }
                              ],
                              "internalType": "struct BigNumber",
                              "name": "value",
                              "type": "tuple"
                            }
                          ],
                          "internalType": "struct Zp",
                          "name": "a",
                          "type": "tuple"
                        },
                        {
                          "components": [
                            {
                              "components": [
                                {
                                  "internalType": "bytes",
                                  "name": "val",
                                  "type": "bytes"
                                },
                                {
                                  "internalType": "bool",
                                  "name": "neg",
                                  "type": "bool"
                                },
                                {
                                  "internalType": "uint256",
                                  "name": "bitlen",
                                  "type": "uint256"
                                }
                              ],
                              "internalType": "struct BigNumber",
                              "name": "value",
                              "type": "tuple"
                            }
                          ],
                          "internalType": "struct Zp",
                          "name": "b",
                          "type": "tuple"
                        }
                      ],
                      "internalType": "struct Zp_2",
                      "name": "b",
                      "type": "tuple"
                    },
                    {
                      "components": [
                        {
                          "components": [
                            {
                              "components": [
                                {
                                  "internalType": "bytes",
                                  "name": "val",
                                  "type": "bytes"
                                },
                                {
                                  "internalType": "bool",
                                  "name": "neg",
                                  "type": "bool"
                                },
                                {
                                  "internalType": "uint256",
                                  "name": "bitlen",
                                  "type": "uint256"
                                }
                              ],
                              "internalType": "struct BigNumber",
                              "name": "value",
                              "type": "tuple"
                            }
                          ],
                          "internalType": "struct Zp",
                          "name": "a",
                          "type": "tuple"
                        },
                        {
                          "components": [
                            {
                              "components": [
                                {
                                  "internalType": "bytes",
                                  "name": "val",
                                  "type": "bytes"
                                },
                                {
                                  "internalType": "bool",
                                  "name": "neg",
                                  "type": "bool"
                                },
                                {
                                  "internalType": "uint256",
                                  "name": "bitlen",
                                  "type": "uint256"
                                }
                              ],
                              "internalType": "struct BigNumber",
                              "name": "value",
                              "type": "tuple"
                            }
                          ],
                          "internalType": "struct Zp",
                          "name": "b",
                          "type": "tuple"
                        }
                      ],
                      "internalType": "struct Zp_2",
                      "name": "c",
                      "type": "tuple"
                    }
                  ],
                  "internalType": "struct Zp_6",
                  "name": "a",
                  "type": "tuple"
                },
                {
                  "components": [
                    {
                      "components": [
                        {
                          "components": [
                            {
                              "components": [
                                {
                                  "internalType": "bytes",
                                  "name": "val",
                                  "type": "bytes"
                                },
                                {
                                  "internalType": "bool",
                                  "name": "neg",
                                  "type": "bool"
                                },
                                {
                                  "internalType": "uint256",
                                  "name": "bitlen",
                                  "type": "uint256"
                                }
                              ],
                              "internalType": "struct BigNumber",
                              "name": "value",
                              "type": "tuple"
                            }
                          ],
                          "internalType": "struct Zp",
                          "name": "a",
                          "type": "tuple"
                        },
                        {
                          "components": [
                            {
                              "components": [
                                {
                                  "internalType": "bytes",
                                  "name": "val",
                                  "type": "bytes"
                                },
                                {
                                  "internalType": "bool",
                                  "name": "neg",
                                  "type": "bool"
                                },
                                {
                                  "internalType": "uint256",
                                  "name": "bitlen",
                                  "type": "uint256"
                                }
                              ],
                              "internalType": "struct BigNumber",
                              "name": "value",
                              "type": "tuple"
                            }
                          ],
                          "internalType": "struct Zp",
                          "name": "b",
                          "type": "tuple"
                        }
                      ],
                      "internalType": "struct Zp_2",
                      "name": "a",
                      "type": "tuple"
                    },
                    {
                      "components": [
                        {
                          "components": [
                            {
                              "components": [
                                {
                                  "internalType": "bytes",
                                  "name": "val",
                                  "type": "bytes"
                                },
                                {
                                  "internalType": "bool",
                                  "name": "neg",
                                  "type": "bool"
                                },
                                {
                                  "internalType": "uint256",
                                  "name": "bitlen",
                                  "type": "uint256"
                                }
                              ],
                              "internalType": "struct BigNumber",
                              "name": "value",
                              "type": "tuple"
                            }
                          ],
                          "internalType": "struct Zp",
                          "name": "a",
                          "type": "tuple"
                        },
                        {
                          "components": [
                            {
                              "components": [
                                {
                                  "internalType": "bytes",
                                  "name": "val",
                                  "type": "bytes"
                                },
                                {
                                  "internalType": "bool",
                                  "name": "neg",
                                  "type": "bool"
                                },
                                {
                                  "internalType": "uint256",
                                  "name": "bitlen",
                                  "type": "uint256"
                                }
                              ],
                              "internalType": "struct BigNumber",
                              "name": "value",
                              "type": "tuple"
                            }
                          ],
                          "internalType": "struct Zp",
                          "name": "b",
                          "type": "tuple"
                        }
                      ],
                      "internalType": "struct Zp_2",
                      "name": "b",
                      "type": "tuple"
                    },
                    {
                      "components": [
                        {
                          "components": [
                            {
                              "components": [
                                {
                                  "internalType": "bytes",
                                  "name": "val",
                                  "type": "bytes"
                                },
                                {
                                  "internalType": "bool",
                                  "name": "neg",
                                  "type": "bool"
                                },
                                {
                                  "internalType": "uint256",
                                  "name": "bitlen",
                                  "type": "uint256"
                                }
                              ],
                              "internalType": "struct BigNumber",
                              "name": "value",
                              "type": "tuple"
                            }
                          ],
                          "internalType": "struct Zp",
                          "name": "a",
                          "type": "tuple"
                        },
                        {
                          "components": [
                            {
                              "components": [
                                {
                                  "internalType": "bytes",
                                  "name": "val",
                                  "type": "bytes"
                                },
                                {
                                  "internalType": "bool",
                                  "name": "neg",
                                  "type": "bool"
                                },
                                {
                                  "internalType": "uint256",
                                  "name": "bitlen",
                                  "type": "uint256"
                                }
                              ],
                              "internalType": "struct BigNumber",
                              "name": "value",
                              "type": "tuple"
                            }
                          ],
                          "internalType": "struct Zp",
                          "name": "b",
                          "type": "tuple"
                        }
                      ],
                      "internalType": "struct Zp_2",
                      "name": "c",
                      "type": "tuple"
                    }
                  ],
                  "internalType": "struct Zp_6",
                  "name": "b",
                  "type": "tuple"
                }
              ],
              "internalType": "struct Zp_12",
              "name": "x",
              "type": "tuple"
            },
            {
              "components": [
                {
                  "components": [
                    {
                      "components": [
                        {
                          "components": [
                            {
                              "components": [
                                {
                                  "internalType": "bytes",
                                  "name": "val",
                                  "type": "bytes"
                                },
                                {
                                  "internalType": "bool",
                                  "name": "neg",
                                  "type": "bool"
                                },
                                {
                                  "internalType": "uint256",
                                  "name": "bitlen",
                                  "type": "uint256"
                                }
                              ],
                              "internalType": "struct BigNumber",
                              "name": "value",
                              "type": "tuple"
                            }
                          ],
                          "internalType": "struct Zp",
                          "name": "a",
                          "type": "tuple"
                        },
                        {
                          "components": [
                            {
                              "components": [
                                {
                                  "internalType": "bytes",
                                  "name": "val",
                                  "type": "bytes"
                                },
                                {
                                  "internalType": "bool",
                                  "name": "neg",
                                  "type": "bool"
                                },
                                {
                                  "internalType": "uint256",
                                  "name": "bitlen",
                                  "type": "uint256"
                                }
                              ],
                              "internalType": "struct BigNumber",
                              "name": "value",
                              "type": "tuple"
                            }
                          ],
                          "internalType": "struct Zp",
                          "name": "b",
                          "type": "tuple"
                        }
                      ],
                      "internalType": "struct Zp_2",
                      "name": "a",
                      "type": "tuple"
                    },
                    {
                      "components": [
                        {
                          "components": [
                            {
                              "components": [
                                {
                                  "internalType": "bytes",
                                  "name": "val",
                                  "type": "bytes"
                                },
                                {
                                  "internalType": "bool",
                                  "name": "neg",
                                  "type": "bool"
                                },
                                {
                                  "internalType": "uint256",
                                  "name": "bitlen",
                                  "type": "uint256"
                                }
                              ],
                              "internalType": "struct BigNumber",
                              "name": "value",
                              "type": "tuple"
                            }
                          ],
                          "internalType": "struct Zp",
                          "name": "a",
                          "type": "tuple"
                        },
                        {
                          "components": [
                            {
                              "components": [
                                {
                                  "internalType": "bytes",
                                  "name": "val",
                                  "type": "bytes"
                                },
                                {
                                  "internalType": "bool",
                                  "name": "neg",
                                  "type": "bool"
                                },
                                {
                                  "internalType": "uint256",
                                  "name": "bitlen",
                                  "type": "uint256"
                                }
                              ],
                              "internalType": "struct BigNumber",
                              "name": "value",
                              "type": "tuple"
                            }
                          ],
                          "internalType": "struct Zp",
                          "name": "b",
                          "type": "tuple"
                        }
                      ],
                      "internalType": "struct Zp_2",
                      "name": "b",
                      "type": "tuple"
                    },
                    {
                      "components": [
                        {
                          "components": [
                            {
                              "components": [
                                {
                                  "internalType": "bytes",
                                  "name": "val",
                                  "type": "bytes"
                                },
                                {
                                  "internalType": "bool",
                                  "name": "neg",
                                  "type": "bool"
                                },
                                {
                                  "internalType": "uint256",
                                  "name": "bitlen",
                                  "type": "uint256"
                                }
                              ],
                              "internalType": "struct BigNumber",
                              "name": "value",
                              "type": "tuple"
                            }
                          ],
                          "internalType": "struct Zp",
                          "name": "a",
                          "type": "tuple"
                        },
                        {
                          "components": [
                            {
                              "components": [
                                {
                                  "internalType": "bytes",
                                  "name": "val",
                                  "type": "bytes"
                                },
                                {
                                  "internalType": "bool",
                                  "name": "neg",
                                  "type": "bool"
                                },
                                {
                                  "internalType": "uint256",
                                  "name": "bitlen",
                                  "type": "uint256"
                                }
                              ],
                              "internalType": "struct BigNumber",
                              "name": "value",
                              "type": "tuple"
                            }
                          ],
                          "internalType": "struct Zp",
                          "name": "b",
                          "type": "tuple"
                        }
                      ],
                      "internalType": "struct Zp_2",
                      "name": "c",
                      "type": "tuple"
                    }
                  ],
                  "internalType": "struct Zp_6",
                  "name": "a",
                  "type": "tuple"
                },
                {
                  "components": [
                    {
                      "components": [
                        {
                          "components": [
                            {
                              "components": [
                                {
                                  "internalType": "bytes",
                                  "name": "val",
                                  "type": "bytes"
                                },
                                {
                                  "internalType": "bool",
                                  "name": "neg",
                                  "type": "bool"
                                },
                                {
                                  "internalType": "uint256",
                                  "name": "bitlen",
                                  "type": "uint256"
                                }
                              ],
                              "internalType": "struct BigNumber",
                              "name": "value",
                              "type": "tuple"
                            }
                          ],
                          "internalType": "struct Zp",
                          "name": "a",
                          "type": "tuple"
                        },
                        {
                          "components": [
                            {
                              "components": [
                                {
                                  "internalType": "bytes",
                                  "name": "val",
                                  "type": "bytes"
                                },
                                {
                                  "internalType": "bool",
                                  "name": "neg",
                                  "type": "bool"
                                },
                                {
                                  "internalType": "uint256",
                                  "name": "bitlen",
                                  "type": "uint256"
                                }
                              ],
                              "internalType": "struct BigNumber",
                              "name": "value",
                              "type": "tuple"
                            }
                          ],
                          "internalType": "struct Zp",
                          "name": "b",
                          "type": "tuple"
                        }
                      ],
                      "internalType": "struct Zp_2",
                      "name": "a",
                      "type": "tuple"
                    },
                    {
                      "components": [
                        {
                          "components": [
                            {
                              "components": [
                                {
                                  "internalType": "bytes",
                                  "name": "val",
                                  "type": "bytes"
                                },
                                {
                                  "internalType": "bool",
                                  "name": "neg",
                                  "type": "bool"
                                },
                                {
                                  "internalType": "uint256",
                                  "name": "bitlen",
                                  "type": "uint256"
                                }
                              ],
                              "internalType": "struct BigNumber",
                              "name": "value",
                              "type": "tuple"
                            }
                          ],
                          "internalType": "struct Zp",
                          "name": "a",
                          "type": "tuple"
                        },
                        {
                          "components": [
                            {
                              "components": [
                                {
                                  "internalType": "bytes",
                                  "name": "val",
                                  "type": "bytes"
                                },
                                {
                                  "internalType": "bool",
                                  "name": "neg",
                                  "type": "bool"
                                },
                                {
                                  "internalType": "uint256",
                                  "name": "bitlen",
                                  "type": "uint256"
                                }
                              ],
                              "internalType": "struct BigNumber",
                              "name": "value",
                              "type": "tuple"
                            }
                          ],
                          "internalType": "struct Zp",
                          "name": "b",
                          "type": "tuple"
                        }
                      ],
                      "internalType": "struct Zp_2",
                      "name": "b",
                      "type": "tuple"
                    },
                    {
                      "components": [
                        {
                          "components": [
                            {
                              "components": [
                                {
                                  "internalType": "bytes",
                                  "name": "val",
                                  "type": "bytes"
                                },
                                {
                                  "internalType": "bool",
                                  "name": "neg",
                                  "type": "bool"
                                },
                                {
                                  "internalType": "uint256",
                                  "name": "bitlen",
                                  "type": "uint256"
                                }
                              ],
                              "internalType": "struct BigNumber",
                              "name": "value",
                              "type": "tuple"
                            }
                          ],
                          "internalType": "struct Zp",
                          "name": "a",
                          "type": "tuple"
                        },
                        {
                          "components": [
                            {
                              "components": [
                                {
                                  "internalType": "bytes",
                                  "name": "val",
                                  "type": "bytes"
                                },
                                {
                                  "internalType": "bool",
                                  "name": "neg",
                                  "type": "bool"
                                },
                                {
                                  "internalType": "uint256",
                                  "name": "bitlen",
                                  "type": "uint256"
                                }
                              ],
                              "internalType": "struct BigNumber",
                              "name": "value",
                              "type": "tuple"
                            }
                          ],
                          "internalType": "struct Zp",
                          "name": "b",
                          "type": "tuple"
                        }
                      ],
                      "internalType": "struct Zp_2",
                      "name": "c",
                      "type": "tuple"
                    }
                  ],
                  "internalType": "struct Zp_6",
                  "name": "b",
                  "type": "tuple"
                }
              ],
              "internalType": "struct Zp_12",
              "name": "y",
              "type": "tuple"
            }
          ],
          "internalType": "struct Point_Zp_12",
          "name": "point",
          "type": "tuple"
        }
      ],
      "name": "isOnCurve_12",
      "outputs": [
        {
          "internalType": "bool",
          "name": "",
          "type": "bool"
        }
      ],
      "stateMutability": "view",
      "type": "function"
    },
    {
      "inputs": [
        {
          "components": [
            {
              "internalType": "enum PointType",
              "name": "pointType",
              "type": "uint8"
            },
            {
              "components": [
                {
                  "components": [
                    {
                      "internalType": "bytes",
                      "name": "val",
                      "type": "bytes"
                    },
                    {
                      "internalType": "bool",
                      "name": "neg",
                      "type": "bool"
                    },
                    {
                      "internalType": "uint256",
                      "name": "bitlen",
                      "type": "uint256"
                    }
                  ],
                  "internalType": "struct BigNumber",
                  "name": "value",
                  "type": "tuple"
                }
              ],
              "internalType": "struct Zp",
              "name": "x",
              "type": "tuple"
            },
            {
              "components": [
                {
                  "components": [
                    {
                      "internalType": "bytes",
                      "name": "val",
                      "type": "bytes"
                    },
                    {
                      "internalType": "bool",
                      "name": "neg",
                      "type": "bool"
                    },
                    {
                      "internalType": "uint256",
                      "name": "bitlen",
                      "type": "uint256"
                    }
                  ],
                  "internalType": "struct BigNumber",
                  "name": "value",
                  "type": "tuple"
                }
              ],
              "internalType": "struct Zp",
              "name": "y",
              "type": "tuple"
            }
          ],
          "internalType": "struct Point_Zp",
          "name": "p",
          "type": "tuple"
        },
        {
          "components": [
            {
              "internalType": "enum PointType_2",
              "name": "pointType",
              "type": "uint8"
            },
            {
              "components": [
                {
                  "components": [
                    {
                      "components": [
                        {
                          "internalType": "bytes",
                          "name": "val",
                          "type": "bytes"
                        },
                        {
                          "internalType": "bool",
                          "name": "neg",
                          "type": "bool"
                        },
                        {
                          "internalType": "uint256",
                          "name": "bitlen",
                          "type": "uint256"
                        }
                      ],
                      "internalType": "struct BigNumber",
                      "name": "value",
                      "type": "tuple"
                    }
                  ],
                  "internalType": "struct Zp",
                  "name": "a",
                  "type": "tuple"
                },
                {
                  "components": [
                    {
                      "components": [
                        {
                          "internalType": "bytes",
                          "name": "val",
                          "type": "bytes"
                        },
                        {
                          "internalType": "bool",
                          "name": "neg",
                          "type": "bool"
                        },
                        {
                          "internalType": "uint256",
                          "name": "bitlen",
                          "type": "uint256"
                        }
                      ],
                      "internalType": "struct BigNumber",
                      "name": "value",
                      "type": "tuple"
                    }
                  ],
                  "internalType": "struct Zp",
                  "name": "b",
                  "type": "tuple"
                }
              ],
              "internalType": "struct Zp_2",
              "name": "x",
              "type": "tuple"
            },
            {
              "components": [
                {
                  "components": [
                    {
                      "components": [
                        {
                          "internalType": "bytes",
                          "name": "val",
                          "type": "bytes"
                        },
                        {
                          "internalType": "bool",
                          "name": "neg",
                          "type": "bool"
                        },
                        {
                          "internalType": "uint256",
                          "name": "bitlen",
                          "type": "uint256"
                        }
                      ],
                      "internalType": "struct BigNumber",
                      "name": "value",
                      "type": "tuple"
                    }
                  ],
                  "internalType": "struct Zp",
                  "name": "a",
                  "type": "tuple"
                },
                {
                  "components": [
                    {
                      "components": [
                        {
                          "internalType": "bytes",
                          "name": "val",
                          "type": "bytes"
                        },
                        {
                          "internalType": "bool",
                          "name": "neg",
                          "type": "bool"
                        },
                        {
                          "internalType": "uint256",
                          "name": "bitlen",
                          "type": "uint256"
                        }
                      ],
                      "internalType": "struct BigNumber",
                      "name": "value",
                      "type": "tuple"
                    }
                  ],
                  "internalType": "struct Zp",
                  "name": "b",
                  "type": "tuple"
                }
              ],
              "internalType": "struct Zp_2",
              "name": "y",
              "type": "tuple"
            }
          ],
          "internalType": "struct Point_Zp_2",
          "name": "q",
          "type": "tuple"
        }
      ],
      "name": "miller",
      "outputs": [
        {
          "components": [
            {
              "components": [
                {
                  "components": [
                    {
                      "components": [
                        {
                          "components": [
                            {
                              "internalType": "bytes",
                              "name": "val",
                              "type": "bytes"
                            },
                            {
                              "internalType": "bool",
                              "name": "neg",
                              "type": "bool"
                            },
                            {
                              "internalType": "uint256",
                              "name": "bitlen",
                              "type": "uint256"
                            }
                          ],
                          "internalType": "struct BigNumber",
                          "name": "value",
                          "type": "tuple"
                        }
                      ],
                      "internalType": "struct Zp",
                      "name": "a",
                      "type": "tuple"
                    },
                    {
                      "components": [
                        {
                          "components": [
                            {
                              "internalType": "bytes",
                              "name": "val",
                              "type": "bytes"
                            },
                            {
                              "internalType": "bool",
                              "name": "neg",
                              "type": "bool"
                            },
                            {
                              "internalType": "uint256",
                              "name": "bitlen",
                              "type": "uint256"
                            }
                          ],
                          "internalType": "struct BigNumber",
                          "name": "value",
                          "type": "tuple"
                        }
                      ],
                      "internalType": "struct Zp",
                      "name": "b",
                      "type": "tuple"
                    }
                  ],
                  "internalType": "struct Zp_2",
                  "name": "a",
                  "type": "tuple"
                },
                {
                  "components": [
                    {
                      "components": [
                        {
                          "components": [
                            {
                              "internalType": "bytes",
                              "name": "val",
                              "type": "bytes"
                            },
                            {
                              "internalType": "bool",
                              "name": "neg",
                              "type": "bool"
                            },
                            {
                              "internalType": "uint256",
                              "name": "bitlen",
                              "type": "uint256"
                            }
                          ],
                          "internalType": "struct BigNumber",
                          "name": "value",
                          "type": "tuple"
                        }
                      ],
                      "internalType": "struct Zp",
                      "name": "a",
                      "type": "tuple"
                    },
                    {
                      "components": [
                        {
                          "components": [
                            {
                              "internalType": "bytes",
                              "name": "val",
                              "type": "bytes"
                            },
                            {
                              "internalType": "bool",
                              "name": "neg",
                              "type": "bool"
                            },
                            {
                              "internalType": "uint256",
                              "name": "bitlen",
                              "type": "uint256"
                            }
                          ],
                          "internalType": "struct BigNumber",
                          "name": "value",
                          "type": "tuple"
                        }
                      ],
                      "internalType": "struct Zp",
                      "name": "b",
                      "type": "tuple"
                    }
                  ],
                  "internalType": "struct Zp_2",
                  "name": "b",
                  "type": "tuple"
                },
                {
                  "components": [
                    {
                      "components": [
                        {
                          "components": [
                            {
                              "internalType": "bytes",
                              "name": "val",
                              "type": "bytes"
                            },
                            {
                              "internalType": "bool",
                              "name": "neg",
                              "type": "bool"
                            },
                            {
                              "internalType": "uint256",
                              "name": "bitlen",
                              "type": "uint256"
                            }
                          ],
                          "internalType": "struct BigNumber",
                          "name": "value",
                          "type": "tuple"
                        }
                      ],
                      "internalType": "struct Zp",
                      "name": "a",
                      "type": "tuple"
                    },
                    {
                      "components": [
                        {
                          "components": [
                            {
                              "internalType": "bytes",
                              "name": "val",
                              "type": "bytes"
                            },
                            {
                              "internalType": "bool",
                              "name": "neg",
                              "type": "bool"
                            },
                            {
                              "internalType": "uint256",
                              "name": "bitlen",
                              "type": "uint256"
                            }
                          ],
                          "internalType": "struct BigNumber",
                          "name": "value",
                          "type": "tuple"
                        }
                      ],
                      "internalType": "struct Zp",
                      "name": "b",
                      "type": "tuple"
                    }
                  ],
                  "internalType": "struct Zp_2",
                  "name": "c",
                  "type": "tuple"
                }
              ],
              "internalType": "struct Zp_6",
              "name": "a",
              "type": "tuple"
            },
            {
              "components": [
                {
                  "components": [
                    {
                      "components": [
                        {
                          "components": [
                            {
                              "internalType": "bytes",
                              "name": "val",
                              "type": "bytes"
                            },
                            {
                              "internalType": "bool",
                              "name": "neg",
                              "type": "bool"
                            },
                            {
                              "internalType": "uint256",
                              "name": "bitlen",
                              "type": "uint256"
                            }
                          ],
                          "internalType": "struct BigNumber",
                          "name": "value",
                          "type": "tuple"
                        }
                      ],
                      "internalType": "struct Zp",
                      "name": "a",
                      "type": "tuple"
                    },
                    {
                      "components": [
                        {
                          "components": [
                            {
                              "internalType": "bytes",
                              "name": "val",
                              "type": "bytes"
                            },
                            {
                              "internalType": "bool",
                              "name": "neg",
                              "type": "bool"
                            },
                            {
                              "internalType": "uint256",
                              "name": "bitlen",
                              "type": "uint256"
                            }
                          ],
                          "internalType": "struct BigNumber",
                          "name": "value",
                          "type": "tuple"
                        }
                      ],
                      "internalType": "struct Zp",
                      "name": "b",
                      "type": "tuple"
                    }
                  ],
                  "internalType": "struct Zp_2",
                  "name": "a",
                  "type": "tuple"
                },
                {
                  "components": [
                    {
                      "components": [
                        {
                          "components": [
                            {
                              "internalType": "bytes",
                              "name": "val",
                              "type": "bytes"
                            },
                            {
                              "internalType": "bool",
                              "name": "neg",
                              "type": "bool"
                            },
                            {
                              "internalType": "uint256",
                              "name": "bitlen",
                              "type": "uint256"
                            }
                          ],
                          "internalType": "struct BigNumber",
                          "name": "value",
                          "type": "tuple"
                        }
                      ],
                      "internalType": "struct Zp",
                      "name": "a",
                      "type": "tuple"
                    },
                    {
                      "components": [
                        {
                          "components": [
                            {
                              "internalType": "bytes",
                              "name": "val",
                              "type": "bytes"
                            },
                            {
                              "internalType": "bool",
                              "name": "neg",
                              "type": "bool"
                            },
                            {
                              "internalType": "uint256",
                              "name": "bitlen",
                              "type": "uint256"
                            }
                          ],
                          "internalType": "struct BigNumber",
                          "name": "value",
                          "type": "tuple"
                        }
                      ],
                      "internalType": "struct Zp",
                      "name": "b",
                      "type": "tuple"
                    }
                  ],
                  "internalType": "struct Zp_2",
                  "name": "b",
                  "type": "tuple"
                },
                {
                  "components": [
                    {
                      "components": [
                        {
                          "components": [
                            {
                              "internalType": "bytes",
                              "name": "val",
                              "type": "bytes"
                            },
                            {
                              "internalType": "bool",
                              "name": "neg",
                              "type": "bool"
                            },
                            {
                              "internalType": "uint256",
                              "name": "bitlen",
                              "type": "uint256"
                            }
                          ],
                          "internalType": "struct BigNumber",
                          "name": "value",
                          "type": "tuple"
                        }
                      ],
                      "internalType": "struct Zp",
                      "name": "a",
                      "type": "tuple"
                    },
                    {
                      "components": [
                        {
                          "components": [
                            {
                              "internalType": "bytes",
                              "name": "val",
                              "type": "bytes"
                            },
                            {
                              "internalType": "bool",
                              "name": "neg",
                              "type": "bool"
                            },
                            {
                              "internalType": "uint256",
                              "name": "bitlen",
                              "type": "uint256"
                            }
                          ],
                          "internalType": "struct BigNumber",
                          "name": "value",
                          "type": "tuple"
                        }
                      ],
                      "internalType": "struct Zp",
                      "name": "b",
                      "type": "tuple"
                    }
                  ],
                  "internalType": "struct Zp_2",
                  "name": "c",
                  "type": "tuple"
                }
              ],
              "internalType": "struct Zp_6",
              "name": "b",
              "type": "tuple"
            }
          ],
          "internalType": "struct Zp_12",
          "name": "",
          "type": "tuple"
        }
      ],
      "stateMutability": "view",
      "type": "function"
    },
    {
      "inputs": [
        {
          "components": [
            {
              "internalType": "enum PointType",
              "name": "pointType",
              "type": "uint8"
            },
            {
              "components": [
                {
                  "components": [
                    {
                      "internalType": "bytes",
                      "name": "val",
                      "type": "bytes"
                    },
                    {
                      "internalType": "bool",
                      "name": "neg",
                      "type": "bool"
                    },
                    {
                      "internalType": "uint256",
                      "name": "bitlen",
                      "type": "uint256"
                    }
                  ],
                  "internalType": "struct BigNumber",
                  "name": "value",
                  "type": "tuple"
                }
              ],
              "internalType": "struct Zp",
              "name": "x",
              "type": "tuple"
            },
            {
              "components": [
                {
                  "components": [
                    {
                      "internalType": "bytes",
                      "name": "val",
                      "type": "bytes"
                    },
                    {
                      "internalType": "bool",
                      "name": "neg",
                      "type": "bool"
                    },
                    {
                      "internalType": "uint256",
                      "name": "bitlen",
                      "type": "uint256"
                    }
                  ],
                  "internalType": "struct BigNumber",
                  "name": "value",
                  "type": "tuple"
                }
              ],
              "internalType": "struct Zp",
              "name": "y",
              "type": "tuple"
            }
          ],
          "internalType": "struct Point_Zp",
          "name": "p",
          "type": "tuple"
        },
        {
          "components": [
            {
              "internalType": "enum PointType_2",
              "name": "pointType",
              "type": "uint8"
            },
            {
              "components": [
                {
                  "components": [
                    {
                      "components": [
                        {
                          "internalType": "bytes",
                          "name": "val",
                          "type": "bytes"
                        },
                        {
                          "internalType": "bool",
                          "name": "neg",
                          "type": "bool"
                        },
                        {
                          "internalType": "uint256",
                          "name": "bitlen",
                          "type": "uint256"
                        }
                      ],
                      "internalType": "struct BigNumber",
                      "name": "value",
                      "type": "tuple"
                    }
                  ],
                  "internalType": "struct Zp",
                  "name": "a",
                  "type": "tuple"
                },
                {
                  "components": [
                    {
                      "components": [
                        {
                          "internalType": "bytes",
                          "name": "val",
                          "type": "bytes"
                        },
                        {
                          "internalType": "bool",
                          "name": "neg",
                          "type": "bool"
                        },
                        {
                          "internalType": "uint256",
                          "name": "bitlen",
                          "type": "uint256"
                        }
                      ],
                      "internalType": "struct BigNumber",
                      "name": "value",
                      "type": "tuple"
                    }
                  ],
                  "internalType": "struct Zp",
                  "name": "b",
                  "type": "tuple"
                }
              ],
              "internalType": "struct Zp_2",
              "name": "x",
              "type": "tuple"
            },
            {
              "components": [
                {
                  "components": [
                    {
                      "components": [
                        {
                          "internalType": "bytes",
                          "name": "val",
                          "type": "bytes"
                        },
                        {
                          "internalType": "bool",
                          "name": "neg",
                          "type": "bool"
                        },
                        {
                          "internalType": "uint256",
                          "name": "bitlen",
                          "type": "uint256"
                        }
                      ],
                      "internalType": "struct BigNumber",
                      "name": "value",
                      "type": "tuple"
                    }
                  ],
                  "internalType": "struct Zp",
                  "name": "a",
                  "type": "tuple"
                },
                {
                  "components": [
                    {
                      "components": [
                        {
                          "internalType": "bytes",
                          "name": "val",
                          "type": "bytes"
                        },
                        {
                          "internalType": "bool",
                          "name": "neg",
                          "type": "bool"
                        },
                        {
                          "internalType": "uint256",
                          "name": "bitlen",
                          "type": "uint256"
                        }
                      ],
                      "internalType": "struct BigNumber",
                      "name": "value",
                      "type": "tuple"
                    }
                  ],
                  "internalType": "struct Zp",
                  "name": "b",
                  "type": "tuple"
                }
              ],
              "internalType": "struct Zp_2",
              "name": "y",
              "type": "tuple"
            }
          ],
          "internalType": "struct Point_Zp_2",
          "name": "q",
          "type": "tuple"
        },
        {
          "components": [
            {
              "internalType": "enum PointType_2",
              "name": "pointType",
              "type": "uint8"
            },
            {
              "components": [
                {
                  "components": [
                    {
                      "components": [
                        {
                          "internalType": "bytes",
                          "name": "val",
                          "type": "bytes"
                        },
                        {
                          "internalType": "bool",
                          "name": "neg",
                          "type": "bool"
                        },
                        {
                          "internalType": "uint256",
                          "name": "bitlen",
                          "type": "uint256"
                        }
                      ],
                      "internalType": "struct BigNumber",
                      "name": "value",
                      "type": "tuple"
                    }
                  ],
                  "internalType": "struct Zp",
                  "name": "a",
                  "type": "tuple"
                },
                {
                  "components": [
                    {
                      "components": [
                        {
                          "internalType": "bytes",
                          "name": "val",
                          "type": "bytes"
                        },
                        {
                          "internalType": "bool",
                          "name": "neg",
                          "type": "bool"
                        },
                        {
                          "internalType": "uint256",
                          "name": "bitlen",
                          "type": "uint256"
                        }
                      ],
                      "internalType": "struct BigNumber",
                      "name": "value",
                      "type": "tuple"
                    }
                  ],
                  "internalType": "struct Zp",
                  "name": "b",
                  "type": "tuple"
                }
              ],
              "internalType": "struct Zp_2",
              "name": "x",
              "type": "tuple"
            },
            {
              "components": [
                {
                  "components": [
                    {
                      "components": [
                        {
                          "internalType": "bytes",
                          "name": "val",
                          "type": "bytes"
                        },
                        {
                          "internalType": "bool",
                          "name": "neg",
                          "type": "bool"
                        },
                        {
                          "internalType": "uint256",
                          "name": "bitlen",
                          "type": "uint256"
                        }
                      ],
                      "internalType": "struct BigNumber",
                      "name": "value",
                      "type": "tuple"
                    }
                  ],
                  "internalType": "struct Zp",
                  "name": "a",
                  "type": "tuple"
                },
                {
                  "components": [
                    {
                      "components": [
                        {
                          "internalType": "bytes",
                          "name": "val",
                          "type": "bytes"
                        },
                        {
                          "internalType": "bool",
                          "name": "neg",
                          "type": "bool"
                        },
                        {
                          "internalType": "uint256",
                          "name": "bitlen",
                          "type": "uint256"
                        }
                      ],
                      "internalType": "struct BigNumber",
                      "name": "value",
                      "type": "tuple"
                    }
                  ],
                  "internalType": "struct Zp",
                  "name": "b",
                  "type": "tuple"
                }
              ],
              "internalType": "struct Zp_2",
              "name": "y",
              "type": "tuple"
            }
          ],
          "internalType": "struct Point_Zp_2",
          "name": "r",
          "type": "tuple"
        },
        {
          "internalType": "bool[]",
          "name": "bits",
          "type": "bool[]"
        }
      ],
      "name": "miller_iterate",
      "outputs": [
        {
          "components": [
            {
              "components": [
                {
                  "components": [
                    {
                      "components": [
                        {
                          "components": [
                            {
                              "internalType": "bytes",
                              "name": "val",
                              "type": "bytes"
                            },
                            {
                              "internalType": "bool",
                              "name": "neg",
                              "type": "bool"
                            },
                            {
                              "internalType": "uint256",
                              "name": "bitlen",
                              "type": "uint256"
                            }
                          ],
                          "internalType": "struct BigNumber",
                          "name": "value",
                          "type": "tuple"
                        }
                      ],
                      "internalType": "struct Zp",
                      "name": "a",
                      "type": "tuple"
                    },
                    {
                      "components": [
                        {
                          "components": [
                            {
                              "internalType": "bytes",
                              "name": "val",
                              "type": "bytes"
                            },
                            {
                              "internalType": "bool",
                              "name": "neg",
                              "type": "bool"
                            },
                            {
                              "internalType": "uint256",
                              "name": "bitlen",
                              "type": "uint256"
                            }
                          ],
                          "internalType": "struct BigNumber",
                          "name": "value",
                          "type": "tuple"
                        }
                      ],
                      "internalType": "struct Zp",
                      "name": "b",
                      "type": "tuple"
                    }
                  ],
                  "internalType": "struct Zp_2",
                  "name": "a",
                  "type": "tuple"
                },
                {
                  "components": [
                    {
                      "components": [
                        {
                          "components": [
                            {
                              "internalType": "bytes",
                              "name": "val",
                              "type": "bytes"
                            },
                            {
                              "internalType": "bool",
                              "name": "neg",
                              "type": "bool"
                            },
                            {
                              "internalType": "uint256",
                              "name": "bitlen",
                              "type": "uint256"
                            }
                          ],
                          "internalType": "struct BigNumber",
                          "name": "value",
                          "type": "tuple"
                        }
                      ],
                      "internalType": "struct Zp",
                      "name": "a",
                      "type": "tuple"
                    },
                    {
                      "components": [
                        {
                          "components": [
                            {
                              "internalType": "bytes",
                              "name": "val",
                              "type": "bytes"
                            },
                            {
                              "internalType": "bool",
                              "name": "neg",
                              "type": "bool"
                            },
                            {
                              "internalType": "uint256",
                              "name": "bitlen",
                              "type": "uint256"
                            }
                          ],
                          "internalType": "struct BigNumber",
                          "name": "value",
                          "type": "tuple"
                        }
                      ],
                      "internalType": "struct Zp",
                      "name": "b",
                      "type": "tuple"
                    }
                  ],
                  "internalType": "struct Zp_2",
                  "name": "b",
                  "type": "tuple"
                },
                {
                  "components": [
                    {
                      "components": [
                        {
                          "components": [
                            {
                              "internalType": "bytes",
                              "name": "val",
                              "type": "bytes"
                            },
                            {
                              "internalType": "bool",
                              "name": "neg",
                              "type": "bool"
                            },
                            {
                              "internalType": "uint256",
                              "name": "bitlen",
                              "type": "uint256"
                            }
                          ],
                          "internalType": "struct BigNumber",
                          "name": "value",
                          "type": "tuple"
                        }
                      ],
                      "internalType": "struct Zp",
                      "name": "a",
                      "type": "tuple"
                    },
                    {
                      "components": [
                        {
                          "components": [
                            {
                              "internalType": "bytes",
                              "name": "val",
                              "type": "bytes"
                            },
                            {
                              "internalType": "bool",
                              "name": "neg",
                              "type": "bool"
                            },
                            {
                              "internalType": "uint256",
                              "name": "bitlen",
                              "type": "uint256"
                            }
                          ],
                          "internalType": "struct BigNumber",
                          "name": "value",
                          "type": "tuple"
                        }
                      ],
                      "internalType": "struct Zp",
                      "name": "b",
                      "type": "tuple"
                    }
                  ],
                  "internalType": "struct Zp_2",
                  "name": "c",
                  "type": "tuple"
                }
              ],
              "internalType": "struct Zp_6",
              "name": "a",
              "type": "tuple"
            },
            {
              "components": [
                {
                  "components": [
                    {
                      "components": [
                        {
                          "components": [
                            {
                              "internalType": "bytes",
                              "name": "val",
                              "type": "bytes"
                            },
                            {
                              "internalType": "bool",
                              "name": "neg",
                              "type": "bool"
                            },
                            {
                              "internalType": "uint256",
                              "name": "bitlen",
                              "type": "uint256"
                            }
                          ],
                          "internalType": "struct BigNumber",
                          "name": "value",
                          "type": "tuple"
                        }
                      ],
                      "internalType": "struct Zp",
                      "name": "a",
                      "type": "tuple"
                    },
                    {
                      "components": [
                        {
                          "components": [
                            {
                              "internalType": "bytes",
                              "name": "val",
                              "type": "bytes"
                            },
                            {
                              "internalType": "bool",
                              "name": "neg",
                              "type": "bool"
                            },
                            {
                              "internalType": "uint256",
                              "name": "bitlen",
                              "type": "uint256"
                            }
                          ],
                          "internalType": "struct BigNumber",
                          "name": "value",
                          "type": "tuple"
                        }
                      ],
                      "internalType": "struct Zp",
                      "name": "b",
                      "type": "tuple"
                    }
                  ],
                  "internalType": "struct Zp_2",
                  "name": "a",
                  "type": "tuple"
                },
                {
                  "components": [
                    {
                      "components": [
                        {
                          "components": [
                            {
                              "internalType": "bytes",
                              "name": "val",
                              "type": "bytes"
                            },
                            {
                              "internalType": "bool",
                              "name": "neg",
                              "type": "bool"
                            },
                            {
                              "internalType": "uint256",
                              "name": "bitlen",
                              "type": "uint256"
                            }
                          ],
                          "internalType": "struct BigNumber",
                          "name": "value",
                          "type": "tuple"
                        }
                      ],
                      "internalType": "struct Zp",
                      "name": "a",
                      "type": "tuple"
                    },
                    {
                      "components": [
                        {
                          "components": [
                            {
                              "internalType": "bytes",
                              "name": "val",
                              "type": "bytes"
                            },
                            {
                              "internalType": "bool",
                              "name": "neg",
                              "type": "bool"
                            },
                            {
                              "internalType": "uint256",
                              "name": "bitlen",
                              "type": "uint256"
                            }
                          ],
                          "internalType": "struct BigNumber",
                          "name": "value",
                          "type": "tuple"
                        }
                      ],
                      "internalType": "struct Zp",
                      "name": "b",
                      "type": "tuple"
                    }
                  ],
                  "internalType": "struct Zp_2",
                  "name": "b",
                  "type": "tuple"
                },
                {
                  "components": [
                    {
                      "components": [
                        {
                          "components": [
                            {
                              "internalType": "bytes",
                              "name": "val",
                              "type": "bytes"
                            },
                            {
                              "internalType": "bool",
                              "name": "neg",
                              "type": "bool"
                            },
                            {
                              "internalType": "uint256",
                              "name": "bitlen",
                              "type": "uint256"
                            }
                          ],
                          "internalType": "struct BigNumber",
                          "name": "value",
                          "type": "tuple"
                        }
                      ],
                      "internalType": "struct Zp",
                      "name": "a",
                      "type": "tuple"
                    },
                    {
                      "components": [
                        {
                          "components": [
                            {
                              "internalType": "bytes",
                              "name": "val",
                              "type": "bytes"
                            },
                            {
                              "internalType": "bool",
                              "name": "neg",
                              "type": "bool"
                            },
                            {
                              "internalType": "uint256",
                              "name": "bitlen",
                              "type": "uint256"
                            }
                          ],
                          "internalType": "struct BigNumber",
                          "name": "value",
                          "type": "tuple"
                        }
                      ],
                      "internalType": "struct Zp",
                      "name": "b",
                      "type": "tuple"
                    }
                  ],
                  "internalType": "struct Zp_2",
                  "name": "c",
                  "type": "tuple"
                }
              ],
              "internalType": "struct Zp_6",
              "name": "b",
              "type": "tuple"
            }
          ],
          "internalType": "struct Zp_12",
          "name": "",
          "type": "tuple"
        }
      ],
      "stateMutability": "view",
      "type": "function"
    },
    {
      "inputs": [
        {
          "components": [
            {
              "internalType": "enum PointType",
              "name": "pointType",
              "type": "uint8"
            },
            {
              "components": [
                {
                  "components": [
                    {
                      "internalType": "bytes",
                      "name": "val",
                      "type": "bytes"
                    },
                    {
                      "internalType": "bool",
                      "name": "neg",
                      "type": "bool"
                    },
                    {
                      "internalType": "uint256",
                      "name": "bitlen",
                      "type": "uint256"
                    }
                  ],
                  "internalType": "struct BigNumber",
                  "name": "value",
                  "type": "tuple"
                }
              ],
              "internalType": "struct Zp",
              "name": "x",
              "type": "tuple"
            },
            {
              "components": [
                {
                  "components": [
                    {
                      "internalType": "bytes",
                      "name": "val",
                      "type": "bytes"
                    },
                    {
                      "internalType": "bool",
                      "name": "neg",
                      "type": "bool"
                    },
                    {
                      "internalType": "uint256",
                      "name": "bitlen",
                      "type": "uint256"
                    }
                  ],
                  "internalType": "struct BigNumber",
                  "name": "value",
                  "type": "tuple"
                }
              ],
              "internalType": "struct Zp",
              "name": "y",
              "type": "tuple"
            }
          ],
          "internalType": "struct Point_Zp",
          "name": "p",
          "type": "tuple"
        },
        {
          "components": [
            {
              "internalType": "enum PointType_2",
              "name": "pointType",
              "type": "uint8"
            },
            {
              "components": [
                {
                  "components": [
                    {
                      "components": [
                        {
                          "internalType": "bytes",
                          "name": "val",
                          "type": "bytes"
                        },
                        {
                          "internalType": "bool",
                          "name": "neg",
                          "type": "bool"
                        },
                        {
                          "internalType": "uint256",
                          "name": "bitlen",
                          "type": "uint256"
                        }
                      ],
                      "internalType": "struct BigNumber",
                      "name": "value",
                      "type": "tuple"
                    }
                  ],
                  "internalType": "struct Zp",
                  "name": "a",
                  "type": "tuple"
                },
                {
                  "components": [
                    {
                      "components": [
                        {
                          "internalType": "bytes",
                          "name": "val",
                          "type": "bytes"
                        },
                        {
                          "internalType": "bool",
                          "name": "neg",
                          "type": "bool"
                        },
                        {
                          "internalType": "uint256",
                          "name": "bitlen",
                          "type": "uint256"
                        }
                      ],
                      "internalType": "struct BigNumber",
                      "name": "value",
                      "type": "tuple"
                    }
                  ],
                  "internalType": "struct Zp",
                  "name": "b",
                  "type": "tuple"
                }
              ],
              "internalType": "struct Zp_2",
              "name": "x",
              "type": "tuple"
            },
            {
              "components": [
                {
                  "components": [
                    {
                      "components": [
                        {
                          "internalType": "bytes",
                          "name": "val",
                          "type": "bytes"
                        },
                        {
                          "internalType": "bool",
                          "name": "neg",
                          "type": "bool"
                        },
                        {
                          "internalType": "uint256",
                          "name": "bitlen",
                          "type": "uint256"
                        }
                      ],
                      "internalType": "struct BigNumber",
                      "name": "value",
                      "type": "tuple"
                    }
                  ],
                  "internalType": "struct Zp",
                  "name": "a",
                  "type": "tuple"
                },
                {
                  "components": [
                    {
                      "components": [
                        {
                          "internalType": "bytes",
                          "name": "val",
                          "type": "bytes"
                        },
                        {
                          "internalType": "bool",
                          "name": "neg",
                          "type": "bool"
                        },
                        {
                          "internalType": "uint256",
                          "name": "bitlen",
                          "type": "uint256"
                        }
                      ],
                      "internalType": "struct BigNumber",
                      "name": "value",
                      "type": "tuple"
                    }
                  ],
                  "internalType": "struct Zp",
                  "name": "b",
                  "type": "tuple"
                }
              ],
              "internalType": "struct Zp_2",
              "name": "y",
              "type": "tuple"
            }
          ],
          "internalType": "struct Point_Zp_2",
          "name": "q",
          "type": "tuple"
        }
      ],
      "name": "pairing",
      "outputs": [
        {
          "components": [
            {
              "components": [
                {
                  "components": [
                    {
                      "components": [
                        {
                          "components": [
                            {
                              "internalType": "bytes",
                              "name": "val",
                              "type": "bytes"
                            },
                            {
                              "internalType": "bool",
                              "name": "neg",
                              "type": "bool"
                            },
                            {
                              "internalType": "uint256",
                              "name": "bitlen",
                              "type": "uint256"
                            }
                          ],
                          "internalType": "struct BigNumber",
                          "name": "value",
                          "type": "tuple"
                        }
                      ],
                      "internalType": "struct Zp",
                      "name": "a",
                      "type": "tuple"
                    },
                    {
                      "components": [
                        {
                          "components": [
                            {
                              "internalType": "bytes",
                              "name": "val",
                              "type": "bytes"
                            },
                            {
                              "internalType": "bool",
                              "name": "neg",
                              "type": "bool"
                            },
                            {
                              "internalType": "uint256",
                              "name": "bitlen",
                              "type": "uint256"
                            }
                          ],
                          "internalType": "struct BigNumber",
                          "name": "value",
                          "type": "tuple"
                        }
                      ],
                      "internalType": "struct Zp",
                      "name": "b",
                      "type": "tuple"
                    }
                  ],
                  "internalType": "struct Zp_2",
                  "name": "a",
                  "type": "tuple"
                },
                {
                  "components": [
                    {
                      "components": [
                        {
                          "components": [
                            {
                              "internalType": "bytes",
                              "name": "val",
                              "type": "bytes"
                            },
                            {
                              "internalType": "bool",
                              "name": "neg",
                              "type": "bool"
                            },
                            {
                              "internalType": "uint256",
                              "name": "bitlen",
                              "type": "uint256"
                            }
                          ],
                          "internalType": "struct BigNumber",
                          "name": "value",
                          "type": "tuple"
                        }
                      ],
                      "internalType": "struct Zp",
                      "name": "a",
                      "type": "tuple"
                    },
                    {
                      "components": [
                        {
                          "components": [
                            {
                              "internalType": "bytes",
                              "name": "val",
                              "type": "bytes"
                            },
                            {
                              "internalType": "bool",
                              "name": "neg",
                              "type": "bool"
                            },
                            {
                              "internalType": "uint256",
                              "name": "bitlen",
                              "type": "uint256"
                            }
                          ],
                          "internalType": "struct BigNumber",
                          "name": "value",
                          "type": "tuple"
                        }
                      ],
                      "internalType": "struct Zp",
                      "name": "b",
                      "type": "tuple"
                    }
                  ],
                  "internalType": "struct Zp_2",
                  "name": "b",
                  "type": "tuple"
                },
                {
                  "components": [
                    {
                      "components": [
                        {
                          "components": [
                            {
                              "internalType": "bytes",
                              "name": "val",
                              "type": "bytes"
                            },
                            {
                              "internalType": "bool",
                              "name": "neg",
                              "type": "bool"
                            },
                            {
                              "internalType": "uint256",
                              "name": "bitlen",
                              "type": "uint256"
                            }
                          ],
                          "internalType": "struct BigNumber",
                          "name": "value",
                          "type": "tuple"
                        }
                      ],
                      "internalType": "struct Zp",
                      "name": "a",
                      "type": "tuple"
                    },
                    {
                      "components": [
                        {
                          "components": [
                            {
                              "internalType": "bytes",
                              "name": "val",
                              "type": "bytes"
                            },
                            {
                              "internalType": "bool",
                              "name": "neg",
                              "type": "bool"
                            },
                            {
                              "internalType": "uint256",
                              "name": "bitlen",
                              "type": "uint256"
                            }
                          ],
                          "internalType": "struct BigNumber",
                          "name": "value",
                          "type": "tuple"
                        }
                      ],
                      "internalType": "struct Zp",
                      "name": "b",
                      "type": "tuple"
                    }
                  ],
                  "internalType": "struct Zp_2",
                  "name": "c",
                  "type": "tuple"
                }
              ],
              "internalType": "struct Zp_6",
              "name": "a",
              "type": "tuple"
            },
            {
              "components": [
                {
                  "components": [
                    {
                      "components": [
                        {
                          "components": [
                            {
                              "internalType": "bytes",
                              "name": "val",
                              "type": "bytes"
                            },
                            {
                              "internalType": "bool",
                              "name": "neg",
                              "type": "bool"
                            },
                            {
                              "internalType": "uint256",
                              "name": "bitlen",
                              "type": "uint256"
                            }
                          ],
                          "internalType": "struct BigNumber",
                          "name": "value",
                          "type": "tuple"
                        }
                      ],
                      "internalType": "struct Zp",
                      "name": "a",
                      "type": "tuple"
                    },
                    {
                      "components": [
                        {
                          "components": [
                            {
                              "internalType": "bytes",
                              "name": "val",
                              "type": "bytes"
                            },
                            {
                              "internalType": "bool",
                              "name": "neg",
                              "type": "bool"
                            },
                            {
                              "internalType": "uint256",
                              "name": "bitlen",
                              "type": "uint256"
                            }
                          ],
                          "internalType": "struct BigNumber",
                          "name": "value",
                          "type": "tuple"
                        }
                      ],
                      "internalType": "struct Zp",
                      "name": "b",
                      "type": "tuple"
                    }
                  ],
                  "internalType": "struct Zp_2",
                  "name": "a",
                  "type": "tuple"
                },
                {
                  "components": [
                    {
                      "components": [
                        {
                          "components": [
                            {
                              "internalType": "bytes",
                              "name": "val",
                              "type": "bytes"
                            },
                            {
                              "internalType": "bool",
                              "name": "neg",
                              "type": "bool"
                            },
                            {
                              "internalType": "uint256",
                              "name": "bitlen",
                              "type": "uint256"
                            }
                          ],
                          "internalType": "struct BigNumber",
                          "name": "value",
                          "type": "tuple"
                        }
                      ],
                      "internalType": "struct Zp",
                      "name": "a",
                      "type": "tuple"
                    },
                    {
                      "components": [
                        {
                          "components": [
                            {
                              "internalType": "bytes",
                              "name": "val",
                              "type": "bytes"
                            },
                            {
                              "internalType": "bool",
                              "name": "neg",
                              "type": "bool"
                            },
                            {
                              "internalType": "uint256",
                              "name": "bitlen",
                              "type": "uint256"
                            }
                          ],
                          "internalType": "struct BigNumber",
                          "name": "value",
                          "type": "tuple"
                        }
                      ],
                      "internalType": "struct Zp",
                      "name": "b",
                      "type": "tuple"
                    }
                  ],
                  "internalType": "struct Zp_2",
                  "name": "b",
                  "type": "tuple"
                },
                {
                  "components": [
                    {
                      "components": [
                        {
                          "components": [
                            {
                              "internalType": "bytes",
                              "name": "val",
                              "type": "bytes"
                            },
                            {
                              "internalType": "bool",
                              "name": "neg",
                              "type": "bool"
                            },
                            {
                              "internalType": "uint256",
                              "name": "bitlen",
                              "type": "uint256"
                            }
                          ],
                          "internalType": "struct BigNumber",
                          "name": "value",
                          "type": "tuple"
                        }
                      ],
                      "internalType": "struct Zp",
                      "name": "a",
                      "type": "tuple"
                    },
                    {
                      "components": [
                        {
                          "components": [
                            {
                              "internalType": "bytes",
                              "name": "val",
                              "type": "bytes"
                            },
                            {
                              "internalType": "bool",
                              "name": "neg",
                              "type": "bool"
                            },
                            {
                              "internalType": "uint256",
                              "name": "bitlen",
                              "type": "uint256"
                            }
                          ],
                          "internalType": "struct BigNumber",
                          "name": "value",
                          "type": "tuple"
                        }
                      ],
                      "internalType": "struct Zp",
                      "name": "b",
                      "type": "tuple"
                    }
                  ],
                  "internalType": "struct Zp_2",
                  "name": "c",
                  "type": "tuple"
                }
              ],
              "internalType": "struct Zp_6",
              "name": "b",
              "type": "tuple"
            }
          ],
          "internalType": "struct Zp_12",
          "name": "",
          "type": "tuple"
        }
      ],
      "stateMutability": "view",
      "type": "function"
    },
    {
      "inputs": [
        {
          "components": [
            {
              "components": [
                {
                  "components": [
                    {
                      "components": [
                        {
                          "components": [
                            {
                              "internalType": "bytes",
                              "name": "val",
                              "type": "bytes"
                            },
                            {
                              "internalType": "bool",
                              "name": "neg",
                              "type": "bool"
                            },
                            {
                              "internalType": "uint256",
                              "name": "bitlen",
                              "type": "uint256"
                            }
                          ],
                          "internalType": "struct BigNumber",
                          "name": "value",
                          "type": "tuple"
                        }
                      ],
                      "internalType": "struct Zp",
                      "name": "a",
                      "type": "tuple"
                    },
                    {
                      "components": [
                        {
                          "components": [
                            {
                              "internalType": "bytes",
                              "name": "val",
                              "type": "bytes"
                            },
                            {
                              "internalType": "bool",
                              "name": "neg",
                              "type": "bool"
                            },
                            {
                              "internalType": "uint256",
                              "name": "bitlen",
                              "type": "uint256"
                            }
                          ],
                          "internalType": "struct BigNumber",
                          "name": "value",
                          "type": "tuple"
                        }
                      ],
                      "internalType": "struct Zp",
                      "name": "b",
                      "type": "tuple"
                    }
                  ],
                  "internalType": "struct Zp_2",
                  "name": "a",
                  "type": "tuple"
                },
                {
                  "components": [
                    {
                      "components": [
                        {
                          "components": [
                            {
                              "internalType": "bytes",
                              "name": "val",
                              "type": "bytes"
                            },
                            {
                              "internalType": "bool",
                              "name": "neg",
                              "type": "bool"
                            },
                            {
                              "internalType": "uint256",
                              "name": "bitlen",
                              "type": "uint256"
                            }
                          ],
                          "internalType": "struct BigNumber",
                          "name": "value",
                          "type": "tuple"
                        }
                      ],
                      "internalType": "struct Zp",
                      "name": "a",
                      "type": "tuple"
                    },
                    {
                      "components": [
                        {
                          "components": [
                            {
                              "internalType": "bytes",
                              "name": "val",
                              "type": "bytes"
                            },
                            {
                              "internalType": "bool",
                              "name": "neg",
                              "type": "bool"
                            },
                            {
                              "internalType": "uint256",
                              "name": "bitlen",
                              "type": "uint256"
                            }
                          ],
                          "internalType": "struct BigNumber",
                          "name": "value",
                          "type": "tuple"
                        }
                      ],
                      "internalType": "struct Zp",
                      "name": "b",
                      "type": "tuple"
                    }
                  ],
                  "internalType": "struct Zp_2",
                  "name": "b",
                  "type": "tuple"
                },
                {
                  "components": [
                    {
                      "components": [
                        {
                          "components": [
                            {
                              "internalType": "bytes",
                              "name": "val",
                              "type": "bytes"
                            },
                            {
                              "internalType": "bool",
                              "name": "neg",
                              "type": "bool"
                            },
                            {
                              "internalType": "uint256",
                              "name": "bitlen",
                              "type": "uint256"
                            }
                          ],
                          "internalType": "struct BigNumber",
                          "name": "value",
                          "type": "tuple"
                        }
                      ],
                      "internalType": "struct Zp",
                      "name": "a",
                      "type": "tuple"
                    },
                    {
                      "components": [
                        {
                          "components": [
                            {
                              "internalType": "bytes",
                              "name": "val",
                              "type": "bytes"
                            },
                            {
                              "internalType": "bool",
                              "name": "neg",
                              "type": "bool"
                            },
                            {
                              "internalType": "uint256",
                              "name": "bitlen",
                              "type": "uint256"
                            }
                          ],
                          "internalType": "struct BigNumber",
                          "name": "value",
                          "type": "tuple"
                        }
                      ],
                      "internalType": "struct Zp",
                      "name": "b",
                      "type": "tuple"
                    }
                  ],
                  "internalType": "struct Zp_2",
                  "name": "c",
                  "type": "tuple"
                }
              ],
              "internalType": "struct Zp_6",
              "name": "a",
              "type": "tuple"
            },
            {
              "components": [
                {
                  "components": [
                    {
                      "components": [
                        {
                          "components": [
                            {
                              "internalType": "bytes",
                              "name": "val",
                              "type": "bytes"
                            },
                            {
                              "internalType": "bool",
                              "name": "neg",
                              "type": "bool"
                            },
                            {
                              "internalType": "uint256",
                              "name": "bitlen",
                              "type": "uint256"
                            }
                          ],
                          "internalType": "struct BigNumber",
                          "name": "value",
                          "type": "tuple"
                        }
                      ],
                      "internalType": "struct Zp",
                      "name": "a",
                      "type": "tuple"
                    },
                    {
                      "components": [
                        {
                          "components": [
                            {
                              "internalType": "bytes",
                              "name": "val",
                              "type": "bytes"
                            },
                            {
                              "internalType": "bool",
                              "name": "neg",
                              "type": "bool"
                            },
                            {
                              "internalType": "uint256",
                              "name": "bitlen",
                              "type": "uint256"
                            }
                          ],
                          "internalType": "struct BigNumber",
                          "name": "value",
                          "type": "tuple"
                        }
                      ],
                      "internalType": "struct Zp",
                      "name": "b",
                      "type": "tuple"
                    }
                  ],
                  "internalType": "struct Zp_2",
                  "name": "a",
                  "type": "tuple"
                },
                {
                  "components": [
                    {
                      "components": [
                        {
                          "components": [
                            {
                              "internalType": "bytes",
                              "name": "val",
                              "type": "bytes"
                            },
                            {
                              "internalType": "bool",
                              "name": "neg",
                              "type": "bool"
                            },
                            {
                              "internalType": "uint256",
                              "name": "bitlen",
                              "type": "uint256"
                            }
                          ],
                          "internalType": "struct BigNumber",
                          "name": "value",
                          "type": "tuple"
                        }
                      ],
                      "internalType": "struct Zp",
                      "name": "a",
                      "type": "tuple"
                    },
                    {
                      "components": [
                        {
                          "components": [
                            {
                              "internalType": "bytes",
                              "name": "val",
                              "type": "bytes"
                            },
                            {
                              "internalType": "bool",
                              "name": "neg",
                              "type": "bool"
                            },
                            {
                              "internalType": "uint256",
                              "name": "bitlen",
                              "type": "uint256"
                            }
                          ],
                          "internalType": "struct BigNumber",
                          "name": "value",
                          "type": "tuple"
                        }
                      ],
                      "internalType": "struct Zp",
                      "name": "b",
                      "type": "tuple"
                    }
                  ],
                  "internalType": "struct Zp_2",
                  "name": "b",
                  "type": "tuple"
                },
                {
                  "components": [
                    {
                      "components": [
                        {
                          "components": [
                            {
                              "internalType": "bytes",
                              "name": "val",
                              "type": "bytes"
                            },
                            {
                              "internalType": "bool",
                              "name": "neg",
                              "type": "bool"
                            },
                            {
                              "internalType": "uint256",
                              "name": "bitlen",
                              "type": "uint256"
                            }
                          ],
                          "internalType": "struct BigNumber",
                          "name": "value",
                          "type": "tuple"
                        }
                      ],
                      "internalType": "struct Zp",
                      "name": "a",
                      "type": "tuple"
                    },
                    {
                      "components": [
                        {
                          "components": [
                            {
                              "internalType": "bytes",
                              "name": "val",
                              "type": "bytes"
                            },
                            {
                              "internalType": "bool",
                              "name": "neg",
                              "type": "bool"
                            },
                            {
                              "internalType": "uint256",
                              "name": "bitlen",
                              "type": "uint256"
                            }
                          ],
                          "internalType": "struct BigNumber",
                          "name": "value",
                          "type": "tuple"
                        }
                      ],
                      "internalType": "struct Zp",
                      "name": "b",
                      "type": "tuple"
                    }
                  ],
                  "internalType": "struct Zp_2",
                  "name": "c",
                  "type": "tuple"
                }
              ],
              "internalType": "struct Zp_6",
              "name": "b",
              "type": "tuple"
            }
          ],
          "internalType": "struct Zp_12",
          "name": "value",
          "type": "tuple"
        }
      ],
      "name": "try_pairing",
      "outputs": [
        {
          "components": [
            {
              "components": [
                {
                  "components": [
                    {
                      "components": [
                        {
                          "components": [
                            {
                              "internalType": "bytes",
                              "name": "val",
                              "type": "bytes"
                            },
                            {
                              "internalType": "bool",
                              "name": "neg",
                              "type": "bool"
                            },
                            {
                              "internalType": "uint256",
                              "name": "bitlen",
                              "type": "uint256"
                            }
                          ],
                          "internalType": "struct BigNumber",
                          "name": "value",
                          "type": "tuple"
                        }
                      ],
                      "internalType": "struct Zp",
                      "name": "a",
                      "type": "tuple"
                    },
                    {
                      "components": [
                        {
                          "components": [
                            {
                              "internalType": "bytes",
                              "name": "val",
                              "type": "bytes"
                            },
                            {
                              "internalType": "bool",
                              "name": "neg",
                              "type": "bool"
                            },
                            {
                              "internalType": "uint256",
                              "name": "bitlen",
                              "type": "uint256"
                            }
                          ],
                          "internalType": "struct BigNumber",
                          "name": "value",
                          "type": "tuple"
                        }
                      ],
                      "internalType": "struct Zp",
                      "name": "b",
                      "type": "tuple"
                    }
                  ],
                  "internalType": "struct Zp_2",
                  "name": "a",
                  "type": "tuple"
                },
                {
                  "components": [
                    {
                      "components": [
                        {
                          "components": [
                            {
                              "internalType": "bytes",
                              "name": "val",
                              "type": "bytes"
                            },
                            {
                              "internalType": "bool",
                              "name": "neg",
                              "type": "bool"
                            },
                            {
                              "internalType": "uint256",
                              "name": "bitlen",
                              "type": "uint256"
                            }
                          ],
                          "internalType": "struct BigNumber",
                          "name": "value",
                          "type": "tuple"
                        }
                      ],
                      "internalType": "struct Zp",
                      "name": "a",
                      "type": "tuple"
                    },
                    {
                      "components": [
                        {
                          "components": [
                            {
                              "internalType": "bytes",
                              "name": "val",
                              "type": "bytes"
                            },
                            {
                              "internalType": "bool",
                              "name": "neg",
                              "type": "bool"
                            },
                            {
                              "internalType": "uint256",
                              "name": "bitlen",
                              "type": "uint256"
                            }
                          ],
                          "internalType": "struct BigNumber",
                          "name": "value",
                          "type": "tuple"
                        }
                      ],
                      "internalType": "struct Zp",
                      "name": "b",
                      "type": "tuple"
                    }
                  ],
                  "internalType": "struct Zp_2",
                  "name": "b",
                  "type": "tuple"
                },
                {
                  "components": [
                    {
                      "components": [
                        {
                          "components": [
                            {
                              "internalType": "bytes",
                              "name": "val",
                              "type": "bytes"
                            },
                            {
                              "internalType": "bool",
                              "name": "neg",
                              "type": "bool"
                            },
                            {
                              "internalType": "uint256",
                              "name": "bitlen",
                              "type": "uint256"
                            }
                          ],
                          "internalType": "struct BigNumber",
                          "name": "value",
                          "type": "tuple"
                        }
                      ],
                      "internalType": "struct Zp",
                      "name": "a",
                      "type": "tuple"
                    },
                    {
                      "components": [
                        {
                          "components": [
                            {
                              "internalType": "bytes",
                              "name": "val",
                              "type": "bytes"
                            },
                            {
                              "internalType": "bool",
                              "name": "neg",
                              "type": "bool"
                            },
                            {
                              "internalType": "uint256",
                              "name": "bitlen",
                              "type": "uint256"
                            }
                          ],
                          "internalType": "struct BigNumber",
                          "name": "value",
                          "type": "tuple"
                        }
                      ],
                      "internalType": "struct Zp",
                      "name": "b",
                      "type": "tuple"
                    }
                  ],
                  "internalType": "struct Zp_2",
                  "name": "c",
                  "type": "tuple"
                }
              ],
              "internalType": "struct Zp_6",
              "name": "a",
              "type": "tuple"
            },
            {
              "components": [
                {
                  "components": [
                    {
                      "components": [
                        {
                          "components": [
                            {
                              "internalType": "bytes",
                              "name": "val",
                              "type": "bytes"
                            },
                            {
                              "internalType": "bool",
                              "name": "neg",
                              "type": "bool"
                            },
                            {
                              "internalType": "uint256",
                              "name": "bitlen",
                              "type": "uint256"
                            }
                          ],
                          "internalType": "struct BigNumber",
                          "name": "value",
                          "type": "tuple"
                        }
                      ],
                      "internalType": "struct Zp",
                      "name": "a",
                      "type": "tuple"
                    },
                    {
                      "components": [
                        {
                          "components": [
                            {
                              "internalType": "bytes",
                              "name": "val",
                              "type": "bytes"
                            },
                            {
                              "internalType": "bool",
                              "name": "neg",
                              "type": "bool"
                            },
                            {
                              "internalType": "uint256",
                              "name": "bitlen",
                              "type": "uint256"
                            }
                          ],
                          "internalType": "struct BigNumber",
                          "name": "value",
                          "type": "tuple"
                        }
                      ],
                      "internalType": "struct Zp",
                      "name": "b",
                      "type": "tuple"
                    }
                  ],
                  "internalType": "struct Zp_2",
                  "name": "a",
                  "type": "tuple"
                },
                {
                  "components": [
                    {
                      "components": [
                        {
                          "components": [
                            {
                              "internalType": "bytes",
                              "name": "val",
                              "type": "bytes"
                            },
                            {
                              "internalType": "bool",
                              "name": "neg",
                              "type": "bool"
                            },
                            {
                              "internalType": "uint256",
                              "name": "bitlen",
                              "type": "uint256"
                            }
                          ],
                          "internalType": "struct BigNumber",
                          "name": "value",
                          "type": "tuple"
                        }
                      ],
                      "internalType": "struct Zp",
                      "name": "a",
                      "type": "tuple"
                    },
                    {
                      "components": [
                        {
                          "components": [
                            {
                              "internalType": "bytes",
                              "name": "val",
                              "type": "bytes"
                            },
                            {
                              "internalType": "bool",
                              "name": "neg",
                              "type": "bool"
                            },
                            {
                              "internalType": "uint256",
                              "name": "bitlen",
                              "type": "uint256"
                            }
                          ],
                          "internalType": "struct BigNumber",
                          "name": "value",
                          "type": "tuple"
                        }
                      ],
                      "internalType": "struct Zp",
                      "name": "b",
                      "type": "tuple"
                    }
                  ],
                  "internalType": "struct Zp_2",
                  "name": "b",
                  "type": "tuple"
                },
                {
                  "components": [
                    {
                      "components": [
                        {
                          "components": [
                            {
                              "internalType": "bytes",
                              "name": "val",
                              "type": "bytes"
                            },
                            {
                              "internalType": "bool",
                              "name": "neg",
                              "type": "bool"
                            },
                            {
                              "internalType": "uint256",
                              "name": "bitlen",
                              "type": "uint256"
                            }
                          ],
                          "internalType": "struct BigNumber",
                          "name": "value",
                          "type": "tuple"
                        }
                      ],
                      "internalType": "struct Zp",
                      "name": "a",
                      "type": "tuple"
                    },
                    {
                      "components": [
                        {
                          "components": [
                            {
                              "internalType": "bytes",
                              "name": "val",
                              "type": "bytes"
                            },
                            {
                              "internalType": "bool",
                              "name": "neg",
                              "type": "bool"
                            },
                            {
                              "internalType": "uint256",
                              "name": "bitlen",
                              "type": "uint256"
                            }
                          ],
                          "internalType": "struct BigNumber",
                          "name": "value",
                          "type": "tuple"
                        }
                      ],
                      "internalType": "struct Zp",
                      "name": "b",
                      "type": "tuple"
                    }
                  ],
                  "internalType": "struct Zp_2",
                  "name": "c",
                  "type": "tuple"
                }
              ],
              "internalType": "struct Zp_6",
              "name": "b",
              "type": "tuple"
            }
          ],
          "internalType": "struct Zp_12",
          "name": "",
          "type": "tuple"
        }
      ],
      "stateMutability": "view",
      "type": "function"
    },
    {
      "inputs": [
        {
          "components": [
            {
              "internalType": "enum PointType_2",
              "name": "pointType",
              "type": "uint8"
            },
            {
              "components": [
                {
                  "components": [
                    {
                      "components": [
                        {
                          "internalType": "bytes",
                          "name": "val",
                          "type": "bytes"
                        },
                        {
                          "internalType": "bool",
                          "name": "neg",
                          "type": "bool"
                        },
                        {
                          "internalType": "uint256",
                          "name": "bitlen",
                          "type": "uint256"
                        }
                      ],
                      "internalType": "struct BigNumber",
                      "name": "value",
                      "type": "tuple"
                    }
                  ],
                  "internalType": "struct Zp",
                  "name": "a",
                  "type": "tuple"
                },
                {
                  "components": [
                    {
                      "components": [
                        {
                          "internalType": "bytes",
                          "name": "val",
                          "type": "bytes"
                        },
                        {
                          "internalType": "bool",
                          "name": "neg",
                          "type": "bool"
                        },
                        {
                          "internalType": "uint256",
                          "name": "bitlen",
                          "type": "uint256"
                        }
                      ],
                      "internalType": "struct BigNumber",
                      "name": "value",
                      "type": "tuple"
                    }
                  ],
                  "internalType": "struct Zp",
                  "name": "b",
                  "type": "tuple"
                }
              ],
              "internalType": "struct Zp_2",
              "name": "x",
              "type": "tuple"
            },
            {
              "components": [
                {
                  "components": [
                    {
                      "components": [
                        {
                          "internalType": "bytes",
                          "name": "val",
                          "type": "bytes"
                        },
                        {
                          "internalType": "bool",
                          "name": "neg",
                          "type": "bool"
                        },
                        {
                          "internalType": "uint256",
                          "name": "bitlen",
                          "type": "uint256"
                        }
                      ],
                      "internalType": "struct BigNumber",
                      "name": "value",
                      "type": "tuple"
                    }
                  ],
                  "internalType": "struct Zp",
                  "name": "a",
                  "type": "tuple"
                },
                {
                  "components": [
                    {
                      "components": [
                        {
                          "internalType": "bytes",
                          "name": "val",
                          "type": "bytes"
                        },
                        {
                          "internalType": "bool",
                          "name": "neg",
                          "type": "bool"
                        },
                        {
                          "internalType": "uint256",
                          "name": "bitlen",
                          "type": "uint256"
                        }
                      ],
                      "internalType": "struct BigNumber",
                      "name": "value",
                      "type": "tuple"
                    }
                  ],
                  "internalType": "struct Zp",
                  "name": "b",
                  "type": "tuple"
                }
              ],
              "internalType": "struct Zp_2",
              "name": "y",
              "type": "tuple"
            }
          ],
          "internalType": "struct Point_Zp_2",
          "name": "point",
          "type": "tuple"
        }
      ],
      "name": "untwist",
      "outputs": [
        {
          "components": [
            {
              "internalType": "enum PointType_12",
              "name": "pointType",
              "type": "uint8"
            },
            {
              "components": [
                {
                  "components": [
                    {
                      "components": [
                        {
                          "components": [
                            {
                              "components": [
                                {
                                  "internalType": "bytes",
                                  "name": "val",
                                  "type": "bytes"
                                },
                                {
                                  "internalType": "bool",
                                  "name": "neg",
                                  "type": "bool"
                                },
                                {
                                  "internalType": "uint256",
                                  "name": "bitlen",
                                  "type": "uint256"
                                }
                              ],
                              "internalType": "struct BigNumber",
                              "name": "value",
                              "type": "tuple"
                            }
                          ],
                          "internalType": "struct Zp",
                          "name": "a",
                          "type": "tuple"
                        },
                        {
                          "components": [
                            {
                              "components": [
                                {
                                  "internalType": "bytes",
                                  "name": "val",
                                  "type": "bytes"
                                },
                                {
                                  "internalType": "bool",
                                  "name": "neg",
                                  "type": "bool"
                                },
                                {
                                  "internalType": "uint256",
                                  "name": "bitlen",
                                  "type": "uint256"
                                }
                              ],
                              "internalType": "struct BigNumber",
                              "name": "value",
                              "type": "tuple"
                            }
                          ],
                          "internalType": "struct Zp",
                          "name": "b",
                          "type": "tuple"
                        }
                      ],
                      "internalType": "struct Zp_2",
                      "name": "a",
                      "type": "tuple"
                    },
                    {
                      "components": [
                        {
                          "components": [
                            {
                              "components": [
                                {
                                  "internalType": "bytes",
                                  "name": "val",
                                  "type": "bytes"
                                },
                                {
                                  "internalType": "bool",
                                  "name": "neg",
                                  "type": "bool"
                                },
                                {
                                  "internalType": "uint256",
                                  "name": "bitlen",
                                  "type": "uint256"
                                }
                              ],
                              "internalType": "struct BigNumber",
                              "name": "value",
                              "type": "tuple"
                            }
                          ],
                          "internalType": "struct Zp",
                          "name": "a",
                          "type": "tuple"
                        },
                        {
                          "components": [
                            {
                              "components": [
                                {
                                  "internalType": "bytes",
                                  "name": "val",
                                  "type": "bytes"
                                },
                                {
                                  "internalType": "bool",
                                  "name": "neg",
                                  "type": "bool"
                                },
                                {
                                  "internalType": "uint256",
                                  "name": "bitlen",
                                  "type": "uint256"
                                }
                              ],
                              "internalType": "struct BigNumber",
                              "name": "value",
                              "type": "tuple"
                            }
                          ],
                          "internalType": "struct Zp",
                          "name": "b",
                          "type": "tuple"
                        }
                      ],
                      "internalType": "struct Zp_2",
                      "name": "b",
                      "type": "tuple"
                    },
                    {
                      "components": [
                        {
                          "components": [
                            {
                              "components": [
                                {
                                  "internalType": "bytes",
                                  "name": "val",
                                  "type": "bytes"
                                },
                                {
                                  "internalType": "bool",
                                  "name": "neg",
                                  "type": "bool"
                                },
                                {
                                  "internalType": "uint256",
                                  "name": "bitlen",
                                  "type": "uint256"
                                }
                              ],
                              "internalType": "struct BigNumber",
                              "name": "value",
                              "type": "tuple"
                            }
                          ],
                          "internalType": "struct Zp",
                          "name": "a",
                          "type": "tuple"
                        },
                        {
                          "components": [
                            {
                              "components": [
                                {
                                  "internalType": "bytes",
                                  "name": "val",
                                  "type": "bytes"
                                },
                                {
                                  "internalType": "bool",
                                  "name": "neg",
                                  "type": "bool"
                                },
                                {
                                  "internalType": "uint256",
                                  "name": "bitlen",
                                  "type": "uint256"
                                }
                              ],
                              "internalType": "struct BigNumber",
                              "name": "value",
                              "type": "tuple"
                            }
                          ],
                          "internalType": "struct Zp",
                          "name": "b",
                          "type": "tuple"
                        }
                      ],
                      "internalType": "struct Zp_2",
                      "name": "c",
                      "type": "tuple"
                    }
                  ],
                  "internalType": "struct Zp_6",
                  "name": "a",
                  "type": "tuple"
                },
                {
                  "components": [
                    {
                      "components": [
                        {
                          "components": [
                            {
                              "components": [
                                {
                                  "internalType": "bytes",
                                  "name": "val",
                                  "type": "bytes"
                                },
                                {
                                  "internalType": "bool",
                                  "name": "neg",
                                  "type": "bool"
                                },
                                {
                                  "internalType": "uint256",
                                  "name": "bitlen",
                                  "type": "uint256"
                                }
                              ],
                              "internalType": "struct BigNumber",
                              "name": "value",
                              "type": "tuple"
                            }
                          ],
                          "internalType": "struct Zp",
                          "name": "a",
                          "type": "tuple"
                        },
                        {
                          "components": [
                            {
                              "components": [
                                {
                                  "internalType": "bytes",
                                  "name": "val",
                                  "type": "bytes"
                                },
                                {
                                  "internalType": "bool",
                                  "name": "neg",
                                  "type": "bool"
                                },
                                {
                                  "internalType": "uint256",
                                  "name": "bitlen",
                                  "type": "uint256"
                                }
                              ],
                              "internalType": "struct BigNumber",
                              "name": "value",
                              "type": "tuple"
                            }
                          ],
                          "internalType": "struct Zp",
                          "name": "b",
                          "type": "tuple"
                        }
                      ],
                      "internalType": "struct Zp_2",
                      "name": "a",
                      "type": "tuple"
                    },
                    {
                      "components": [
                        {
                          "components": [
                            {
                              "components": [
                                {
                                  "internalType": "bytes",
                                  "name": "val",
                                  "type": "bytes"
                                },
                                {
                                  "internalType": "bool",
                                  "name": "neg",
                                  "type": "bool"
                                },
                                {
                                  "internalType": "uint256",
                                  "name": "bitlen",
                                  "type": "uint256"
                                }
                              ],
                              "internalType": "struct BigNumber",
                              "name": "value",
                              "type": "tuple"
                            }
                          ],
                          "internalType": "struct Zp",
                          "name": "a",
                          "type": "tuple"
                        },
                        {
                          "components": [
                            {
                              "components": [
                                {
                                  "internalType": "bytes",
                                  "name": "val",
                                  "type": "bytes"
                                },
                                {
                                  "internalType": "bool",
                                  "name": "neg",
                                  "type": "bool"
                                },
                                {
                                  "internalType": "uint256",
                                  "name": "bitlen",
                                  "type": "uint256"
                                }
                              ],
                              "internalType": "struct BigNumber",
                              "name": "value",
                              "type": "tuple"
                            }
                          ],
                          "internalType": "struct Zp",
                          "name": "b",
                          "type": "tuple"
                        }
                      ],
                      "internalType": "struct Zp_2",
                      "name": "b",
                      "type": "tuple"
                    },
                    {
                      "components": [
                        {
                          "components": [
                            {
                              "components": [
                                {
                                  "internalType": "bytes",
                                  "name": "val",
                                  "type": "bytes"
                                },
                                {
                                  "internalType": "bool",
                                  "name": "neg",
                                  "type": "bool"
                                },
                                {
                                  "internalType": "uint256",
                                  "name": "bitlen",
                                  "type": "uint256"
                                }
                              ],
                              "internalType": "struct BigNumber",
                              "name": "value",
                              "type": "tuple"
                            }
                          ],
                          "internalType": "struct Zp",
                          "name": "a",
                          "type": "tuple"
                        },
                        {
                          "components": [
                            {
                              "components": [
                                {
                                  "internalType": "bytes",
                                  "name": "val",
                                  "type": "bytes"
                                },
                                {
                                  "internalType": "bool",
                                  "name": "neg",
                                  "type": "bool"
                                },
                                {
                                  "internalType": "uint256",
                                  "name": "bitlen",
                                  "type": "uint256"
                                }
                              ],
                              "internalType": "struct BigNumber",
                              "name": "value",
                              "type": "tuple"
                            }
                          ],
                          "internalType": "struct Zp",
                          "name": "b",
                          "type": "tuple"
                        }
                      ],
                      "internalType": "struct Zp_2",
                      "name": "c",
                      "type": "tuple"
                    }
                  ],
                  "internalType": "struct Zp_6",
                  "name": "b",
                  "type": "tuple"
                }
              ],
              "internalType": "struct Zp_12",
              "name": "x",
              "type": "tuple"
            },
            {
              "components": [
                {
                  "components": [
                    {
                      "components": [
                        {
                          "components": [
                            {
                              "components": [
                                {
                                  "internalType": "bytes",
                                  "name": "val",
                                  "type": "bytes"
                                },
                                {
                                  "internalType": "bool",
                                  "name": "neg",
                                  "type": "bool"
                                },
                                {
                                  "internalType": "uint256",
                                  "name": "bitlen",
                                  "type": "uint256"
                                }
                              ],
                              "internalType": "struct BigNumber",
                              "name": "value",
                              "type": "tuple"
                            }
                          ],
                          "internalType": "struct Zp",
                          "name": "a",
                          "type": "tuple"
                        },
                        {
                          "components": [
                            {
                              "components": [
                                {
                                  "internalType": "bytes",
                                  "name": "val",
                                  "type": "bytes"
                                },
                                {
                                  "internalType": "bool",
                                  "name": "neg",
                                  "type": "bool"
                                },
                                {
                                  "internalType": "uint256",
                                  "name": "bitlen",
                                  "type": "uint256"
                                }
                              ],
                              "internalType": "struct BigNumber",
                              "name": "value",
                              "type": "tuple"
                            }
                          ],
                          "internalType": "struct Zp",
                          "name": "b",
                          "type": "tuple"
                        }
                      ],
                      "internalType": "struct Zp_2",
                      "name": "a",
                      "type": "tuple"
                    },
                    {
                      "components": [
                        {
                          "components": [
                            {
                              "components": [
                                {
                                  "internalType": "bytes",
                                  "name": "val",
                                  "type": "bytes"
                                },
                                {
                                  "internalType": "bool",
                                  "name": "neg",
                                  "type": "bool"
                                },
                                {
                                  "internalType": "uint256",
                                  "name": "bitlen",
                                  "type": "uint256"
                                }
                              ],
                              "internalType": "struct BigNumber",
                              "name": "value",
                              "type": "tuple"
                            }
                          ],
                          "internalType": "struct Zp",
                          "name": "a",
                          "type": "tuple"
                        },
                        {
                          "components": [
                            {
                              "components": [
                                {
                                  "internalType": "bytes",
                                  "name": "val",
                                  "type": "bytes"
                                },
                                {
                                  "internalType": "bool",
                                  "name": "neg",
                                  "type": "bool"
                                },
                                {
                                  "internalType": "uint256",
                                  "name": "bitlen",
                                  "type": "uint256"
                                }
                              ],
                              "internalType": "struct BigNumber",
                              "name": "value",
                              "type": "tuple"
                            }
                          ],
                          "internalType": "struct Zp",
                          "name": "b",
                          "type": "tuple"
                        }
                      ],
                      "internalType": "struct Zp_2",
                      "name": "b",
                      "type": "tuple"
                    },
                    {
                      "components": [
                        {
                          "components": [
                            {
                              "components": [
                                {
                                  "internalType": "bytes",
                                  "name": "val",
                                  "type": "bytes"
                                },
                                {
                                  "internalType": "bool",
                                  "name": "neg",
                                  "type": "bool"
                                },
                                {
                                  "internalType": "uint256",
                                  "name": "bitlen",
                                  "type": "uint256"
                                }
                              ],
                              "internalType": "struct BigNumber",
                              "name": "value",
                              "type": "tuple"
                            }
                          ],
                          "internalType": "struct Zp",
                          "name": "a",
                          "type": "tuple"
                        },
                        {
                          "components": [
                            {
                              "components": [
                                {
                                  "internalType": "bytes",
                                  "name": "val",
                                  "type": "bytes"
                                },
                                {
                                  "internalType": "bool",
                                  "name": "neg",
                                  "type": "bool"
                                },
                                {
                                  "internalType": "uint256",
                                  "name": "bitlen",
                                  "type": "uint256"
                                }
                              ],
                              "internalType": "struct BigNumber",
                              "name": "value",
                              "type": "tuple"
                            }
                          ],
                          "internalType": "struct Zp",
                          "name": "b",
                          "type": "tuple"
                        }
                      ],
                      "internalType": "struct Zp_2",
                      "name": "c",
                      "type": "tuple"
                    }
                  ],
                  "internalType": "struct Zp_6",
                  "name": "a",
                  "type": "tuple"
                },
                {
                  "components": [
                    {
                      "components": [
                        {
                          "components": [
                            {
                              "components": [
                                {
                                  "internalType": "bytes",
                                  "name": "val",
                                  "type": "bytes"
                                },
                                {
                                  "internalType": "bool",
                                  "name": "neg",
                                  "type": "bool"
                                },
                                {
                                  "internalType": "uint256",
                                  "name": "bitlen",
                                  "type": "uint256"
                                }
                              ],
                              "internalType": "struct BigNumber",
                              "name": "value",
                              "type": "tuple"
                            }
                          ],
                          "internalType": "struct Zp",
                          "name": "a",
                          "type": "tuple"
                        },
                        {
                          "components": [
                            {
                              "components": [
                                {
                                  "internalType": "bytes",
                                  "name": "val",
                                  "type": "bytes"
                                },
                                {
                                  "internalType": "bool",
                                  "name": "neg",
                                  "type": "bool"
                                },
                                {
                                  "internalType": "uint256",
                                  "name": "bitlen",
                                  "type": "uint256"
                                }
                              ],
                              "internalType": "struct BigNumber",
                              "name": "value",
                              "type": "tuple"
                            }
                          ],
                          "internalType": "struct Zp",
                          "name": "b",
                          "type": "tuple"
                        }
                      ],
                      "internalType": "struct Zp_2",
                      "name": "a",
                      "type": "tuple"
                    },
                    {
                      "components": [
                        {
                          "components": [
                            {
                              "components": [
                                {
                                  "internalType": "bytes",
                                  "name": "val",
                                  "type": "bytes"
                                },
                                {
                                  "internalType": "bool",
                                  "name": "neg",
                                  "type": "bool"
                                },
                                {
                                  "internalType": "uint256",
                                  "name": "bitlen",
                                  "type": "uint256"
                                }
                              ],
                              "internalType": "struct BigNumber",
                              "name": "value",
                              "type": "tuple"
                            }
                          ],
                          "internalType": "struct Zp",
                          "name": "a",
                          "type": "tuple"
                        },
                        {
                          "components": [
                            {
                              "components": [
                                {
                                  "internalType": "bytes",
                                  "name": "val",
                                  "type": "bytes"
                                },
                                {
                                  "internalType": "bool",
                                  "name": "neg",
                                  "type": "bool"
                                },
                                {
                                  "internalType": "uint256",
                                  "name": "bitlen",
                                  "type": "uint256"
                                }
                              ],
                              "internalType": "struct BigNumber",
                              "name": "value",
                              "type": "tuple"
                            }
                          ],
                          "internalType": "struct Zp",
                          "name": "b",
                          "type": "tuple"
                        }
                      ],
                      "internalType": "struct Zp_2",
                      "name": "b",
                      "type": "tuple"
                    },
                    {
                      "components": [
                        {
                          "components": [
                            {
                              "components": [
                                {
                                  "internalType": "bytes",
                                  "name": "val",
                                  "type": "bytes"
                                },
                                {
                                  "internalType": "bool",
                                  "name": "neg",
                                  "type": "bool"
                                },
                                {
                                  "internalType": "uint256",
                                  "name": "bitlen",
                                  "type": "uint256"
                                }
                              ],
                              "internalType": "struct BigNumber",
                              "name": "value",
                              "type": "tuple"
                            }
                          ],
                          "internalType": "struct Zp",
                          "name": "a",
                          "type": "tuple"
                        },
                        {
                          "components": [
                            {
                              "components": [
                                {
                                  "internalType": "bytes",
                                  "name": "val",
                                  "type": "bytes"
                                },
                                {
                                  "internalType": "bool",
                                  "name": "neg",
                                  "type": "bool"
                                },
                                {
                                  "internalType": "uint256",
                                  "name": "bitlen",
                                  "type": "uint256"
                                }
                              ],
                              "internalType": "struct BigNumber",
                              "name": "value",
                              "type": "tuple"
                            }
                          ],
                          "internalType": "struct Zp",
                          "name": "b",
                          "type": "tuple"
                        }
                      ],
                      "internalType": "struct Zp_2",
                      "name": "c",
                      "type": "tuple"
                    }
                  ],
                  "internalType": "struct Zp_6",
                  "name": "b",
                  "type": "tuple"
                }
              ],
              "internalType": "struct Zp_12",
              "name": "y",
              "type": "tuple"
            }
          ],
          "internalType": "struct Point_Zp_12",
          "name": "",
          "type": "tuple"
        }
      ],
      "stateMutability": "view",
      "type": "function"
    },
    {
      "inputs": [
        {
          "components": [
            {
              "internalType": "enum PointType",
              "name": "pointType",
              "type": "uint8"
            },
            {
              "components": [
                {
                  "components": [
                    {
                      "internalType": "bytes",
                      "name": "val",
                      "type": "bytes"
                    },
                    {
                      "internalType": "bool",
                      "name": "neg",
                      "type": "bool"
                    },
                    {
                      "internalType": "uint256",
                      "name": "bitlen",
                      "type": "uint256"
                    }
                  ],
                  "internalType": "struct BigNumber",
                  "name": "value",
                  "type": "tuple"
                }
              ],
              "internalType": "struct Zp",
              "name": "x",
              "type": "tuple"
            },
            {
              "components": [
                {
                  "components": [
                    {
                      "internalType": "bytes",
                      "name": "val",
                      "type": "bytes"
                    },
                    {
                      "internalType": "bool",
                      "name": "neg",
                      "type": "bool"
                    },
                    {
                      "internalType": "uint256",
                      "name": "bitlen",
                      "type": "uint256"
                    }
                  ],
                  "internalType": "struct BigNumber",
                  "name": "value",
                  "type": "tuple"
                }
              ],
              "internalType": "struct Zp",
              "name": "y",
              "type": "tuple"
            }
          ],
          "internalType": "struct Point_Zp",
          "name": "pk",
          "type": "tuple"
        },
        {
          "components": [
            {
              "internalType": "enum PointType_2",
              "name": "pointType",
              "type": "uint8"
            },
            {
              "components": [
                {
                  "components": [
                    {
                      "components": [
                        {
                          "internalType": "bytes",
                          "name": "val",
                          "type": "bytes"
                        },
                        {
                          "internalType": "bool",
                          "name": "neg",
                          "type": "bool"
                        },
                        {
                          "internalType": "uint256",
                          "name": "bitlen",
                          "type": "uint256"
                        }
                      ],
                      "internalType": "struct BigNumber",
                      "name": "value",
                      "type": "tuple"
                    }
                  ],
                  "internalType": "struct Zp",
                  "name": "a",
                  "type": "tuple"
                },
                {
                  "components": [
                    {
                      "components": [
                        {
                          "internalType": "bytes",
                          "name": "val",
                          "type": "bytes"
                        },
                        {
                          "internalType": "bool",
                          "name": "neg",
                          "type": "bool"
                        },
                        {
                          "internalType": "uint256",
                          "name": "bitlen",
                          "type": "uint256"
                        }
                      ],
                      "internalType": "struct BigNumber",
                      "name": "value",
                      "type": "tuple"
                    }
                  ],
                  "internalType": "struct Zp",
                  "name": "b",
                  "type": "tuple"
                }
              ],
              "internalType": "struct Zp_2",
              "name": "x",
              "type": "tuple"
            },
            {
              "components": [
                {
                  "components": [
                    {
                      "components": [
                        {
                          "internalType": "bytes",
                          "name": "val",
                          "type": "bytes"
                        },
                        {
                          "internalType": "bool",
                          "name": "neg",
                          "type": "bool"
                        },
                        {
                          "internalType": "uint256",
                          "name": "bitlen",
                          "type": "uint256"
                        }
                      ],
                      "internalType": "struct BigNumber",
                      "name": "value",
                      "type": "tuple"
                    }
                  ],
                  "internalType": "struct Zp",
                  "name": "a",
                  "type": "tuple"
                },
                {
                  "components": [
                    {
                      "components": [
                        {
                          "internalType": "bytes",
                          "name": "val",
                          "type": "bytes"
                        },
                        {
                          "internalType": "bool",
                          "name": "neg",
                          "type": "bool"
                        },
                        {
                          "internalType": "uint256",
                          "name": "bitlen",
                          "type": "uint256"
                        }
                      ],
                      "internalType": "struct BigNumber",
                      "name": "value",
                      "type": "tuple"
                    }
                  ],
                  "internalType": "struct Zp",
                  "name": "b",
                  "type": "tuple"
                }
              ],
              "internalType": "struct Zp_2",
              "name": "y",
              "type": "tuple"
            }
          ],
          "internalType": "struct Point_Zp_2",
          "name": "hash",
          "type": "tuple"
        },
        {
          "components": [
            {
              "internalType": "enum PointType_2",
              "name": "pointType",
              "type": "uint8"
            },
            {
              "components": [
                {
                  "components": [
                    {
                      "components": [
                        {
                          "internalType": "bytes",
                          "name": "val",
                          "type": "bytes"
                        },
                        {
                          "internalType": "bool",
                          "name": "neg",
                          "type": "bool"
                        },
                        {
                          "internalType": "uint256",
                          "name": "bitlen",
                          "type": "uint256"
                        }
                      ],
                      "internalType": "struct BigNumber",
                      "name": "value",
                      "type": "tuple"
                    }
                  ],
                  "internalType": "struct Zp",
                  "name": "a",
                  "type": "tuple"
                },
                {
                  "components": [
                    {
                      "components": [
                        {
                          "internalType": "bytes",
                          "name": "val",
                          "type": "bytes"
                        },
                        {
                          "internalType": "bool",
                          "name": "neg",
                          "type": "bool"
                        },
                        {
                          "internalType": "uint256",
                          "name": "bitlen",
                          "type": "uint256"
                        }
                      ],
                      "internalType": "struct BigNumber",
                      "name": "value",
                      "type": "tuple"
                    }
                  ],
                  "internalType": "struct Zp",
                  "name": "b",
                  "type": "tuple"
                }
              ],
              "internalType": "struct Zp_2",
              "name": "x",
              "type": "tuple"
            },
            {
              "components": [
                {
                  "components": [
                    {
                      "components": [
                        {
                          "internalType": "bytes",
                          "name": "val",
                          "type": "bytes"
                        },
                        {
                          "internalType": "bool",
                          "name": "neg",
                          "type": "bool"
                        },
                        {
                          "internalType": "uint256",
                          "name": "bitlen",
                          "type": "uint256"
                        }
                      ],
                      "internalType": "struct BigNumber",
                      "name": "value",
                      "type": "tuple"
                    }
                  ],
                  "internalType": "struct Zp",
                  "name": "a",
                  "type": "tuple"
                },
                {
                  "components": [
                    {
                      "components": [
                        {
                          "internalType": "bytes",
                          "name": "val",
                          "type": "bytes"
                        },
                        {
                          "internalType": "bool",
                          "name": "neg",
                          "type": "bool"
                        },
                        {
                          "internalType": "uint256",
                          "name": "bitlen",
                          "type": "uint256"
                        }
                      ],
                      "internalType": "struct BigNumber",
                      "name": "value",
                      "type": "tuple"
                    }
                  ],
                  "internalType": "struct Zp",
                  "name": "b",
                  "type": "tuple"
                }
              ],
              "internalType": "struct Zp_2",
              "name": "y",
              "type": "tuple"
            }
          ],
          "internalType": "struct Point_Zp_2",
          "name": "sig",
          "type": "tuple"
        }
      ],
      "name": "verify",
      "outputs": [
        {
          "internalType": "bool",
          "name": "",
          "type": "bool"
        }
      ],
      "stateMutability": "view",
      "type": "function"
    }
  ],
  "bytecode": "0x608060405273__$f247edaf7ce9d2535b3fa74e71bc5a3f7a$__63a48a622a60006040518263ffffffff1660e01b815260040161003c919061124c565b600060405180830381865af4158015610059573d6000803e3d6000fd5b505050506040513d6000823e3d601f19601f8201168201806040525081019061008291906114db565b600080820151816000019081610098919061173b565b5060208201518160010160006101000a81548160ff02191690831515021790555060408201518160020155505073__$f247edaf7ce9d2535b3fa74e71bc5a3f7a$__63a48a622a60006040518263ffffffff1660e01b81526004016100fd9190611859565b600060405180830381865af415801561011a573d6000803e3d6000fd5b505050506040513d6000823e3d601f19601f8201168201806040525081019061014391906114db565b6003600082015181600001908161015a919061173b565b5060208201518160010160006101000a81548160ff02191690831515021790555060408201518160020155505060006040516101959061114c565b61019f91906119f9565b604051809103906000f0801580156101bb573d6000803e3d6000fd5b50600660006101000a81548173ffffffffffffffffffffffffffffffffffffffff021916908373ffffffffffffffffffffffffffffffffffffffff160217905550600660009054906101000a900473ffffffffffffffffffffffffffffffffffffffff1660405161022b9061115a565b6102359190611a90565b604051809103906000f080158015610251573d6000803e3d6000fd5b50600760006101000a81548173ffffffffffffffffffffffffffffffffffffffff021916908373ffffffffffffffffffffffffffffffffffffffff160217905550600760009054906101000a900473ffffffffffffffffffffffffffffffffffffffff166040516102c190611168565b6102cb9190611acc565b604051809103906000f0801580156102e7573d6000803e3d6000fd5b50600860006101000a81548173ffffffffffffffffffffffffffffffffffffffff021916908373ffffffffffffffffffffffffffffffffffffffff160217905550600860009054906101000a900473ffffffffffffffffffffffffffffffffffffffff1660405161035790611176565b6103619190611b08565b604051809103906000f08015801561037d573d6000803e3d6000fd5b50600960006101000a81548173ffffffffffffffffffffffffffffffffffffffff021916908373ffffffffffffffffffffffffffffffffffffffff160217905550600660009054906101000a900473ffffffffffffffffffffffffffffffffffffffff166040516103ed90611184565b6103f79190611a90565b604051809103906000f080158015610413573d6000803e3d6000fd5b50600a60006101000a81548173ffffffffffffffffffffffffffffffffffffffff021916908373ffffffffffffffffffffffffffffffffffffffff160217905550600760009054906101000a900473ffffffffffffffffffffffffffffffffffffffff1660405161048390611192565b61048d9190611acc565b604051809103906000f0801580156104a9573d6000803e3d6000fd5b50600b60006101000a81548173ffffffffffffffffffffffffffffffffffffffff021916908373ffffffffffffffffffffffffffffffffffffffff160217905550600960009054906101000a900473ffffffffffffffffffffffffffffffffffffffff16604051610519906111a0565b6105239190611b44565b604051809103906000f08015801561053f573d6000803e3d6000fd5b50600c60006101000a81548173ffffffffffffffffffffffffffffffffffffffff021916908373ffffffffffffffffffffffffffffffffffffffff160217905550600a60009054906101000a900473ffffffffffffffffffffffffffffffffffffffff1673ffffffffffffffffffffffffffffffffffffffff16631953a9bf600660009054906101000a900473ffffffffffffffffffffffffffffffffffffffff1673ffffffffffffffffffffffffffffffffffffffff16631701474273__$f247edaf7ce9d2535b3fa74e71bc5a3f7a$__63a48a622a60006040518263ffffffff1660e01b81526004016106349190611bd1565b600060405180830381865af4158015610651573d6000803e3d6000fd5b505050506040513d6000823e3d601f19601f8201168201806040525081019061067a91906114db565b6040518263ffffffff1660e01b81526004016106969190611c88565b600060405180830381865afa1580156106b3573d6000803e3d6000fd5b505050506040513d6000823e3d601f19601f820116820180604052508101906106dc9190611d02565b600660009054906101000a900473ffffffffffffffffffffffffffffffffffffffff1673ffffffffffffffffffffffffffffffffffffffff16631701474273__$f247edaf7ce9d2535b3fa74e71bc5a3f7a$__63a48a622a60006040518263ffffffff1660e01b81526004016107529190611dbd565b600060405180830381865af415801561076f573d6000803e3d6000fd5b505050506040513d6000823e3d601f19601f8201168201806040525081019061079891906114db565b6040518263ffffffff1660e01b81526004016107b49190611c88565b600060405180830381865afa1580156107d1573d6000803e3d6000fd5b505050506040513d6000823e3d601f19601f820116820180604052508101906107fa9190611d02565b6040518363ffffffff1660e01b8152600401610817929190611e65565b600060405180830381865afa158015610834573d6000803e3d6000fd5b505050506040513d6000823e3d601f19601f8201168201806040525081019061085d9190611f5d565b600d60008201518160000160006101000a81548160ff0219169083600181111561088a57610889611fa6565b5b021790555060208201518160010160008201518160000160008201518160000190816108b6919061173b565b5060208201518160010160006101000a81548160ff0219169083151502179055506040820151816002015550505050604082015181600401600082015181600001600082015181600001908161090c919061173b565b5060208201518160010160006101000a81548160ff02191690831515021790555060408201518160020155505050505050600b60009054906101000a900473ffffffffffffffffffffffffffffffffffffffff1673ffffffffffffffffffffffffffffffffffffffff16638c9d83c1600760009054906101000a900473ffffffffffffffffffffffffffffffffffffffff1673ffffffffffffffffffffffffffffffffffffffff1663c700da6b600660009054906101000a900473ffffffffffffffffffffffffffffffffffffffff1673ffffffffffffffffffffffffffffffffffffffff16631701474273__$f247edaf7ce9d2535b3fa74e71bc5a3f7a$__63a48a622a60006040518263ffffffff1660e01b8152600401610a2f9190612047565b600060405180830381865af4158015610a4c573d6000803e3d6000fd5b505050506040513d6000823e3d601f19601f82011682018060405250810190610a7591906114db565b6040518263ffffffff1660e01b8152600401610a919190611c88565b600060405180830381865afa158015610aae573d6000803e3d6000fd5b505050506040513d6000823e3d601f19601f82011682018060405250810190610ad79190611d02565b600660009054906101000a900473ffffffffffffffffffffffffffffffffffffffff1673ffffffffffffffffffffffffffffffffffffffff16631701474273__$f247edaf7ce9d2535b3fa74e71bc5a3f7a$__63a48a622a60006040518263ffffffff1660e01b8152600401610b4d91906120e7565b600060405180830381865af4158015610b6a573d6000803e3d6000fd5b505050506040513d6000823e3d601f19601f82011682018060405250810190610b9391906114db565b6040518263ffffffff1660e01b8152600401610baf9190611c88565b600060405180830381865afa158015610bcc573d6000803e3d6000fd5b505050506040513d6000823e3d601f19601f82011682018060405250810190610bf59190611d02565b6040518363ffffffff1660e01b8152600401610c12929190611e65565b600060405180830381865afa158015610c2f573d6000803e3d6000fd5b505050506040513d6000823e3d601f19601f82011682018060405250810190610c58919061219d565b600760009054906101000a900473ffffffffffffffffffffffffffffffffffffffff1673ffffffffffffffffffffffffffffffffffffffff1663c700da6b600660009054906101000a900473ffffffffffffffffffffffffffffffffffffffff1673ffffffffffffffffffffffffffffffffffffffff16631701474273__$f247edaf7ce9d2535b3fa74e71bc5a3f7a$__63a48a622a60006040518263ffffffff1660e01b8152600401610d0c9190612258565b600060405180830381865af4158015610d29573d6000803e3d6000fd5b505050506040513d6000823e3d601f19601f82011682018060405250810190610d5291906114db565b6040518263ffffffff1660e01b8152600401610d6e9190611c88565b600060405180830381865afa158015610d8b573d6000803e3d6000fd5b505050506040513d6000823e3d601f19601f82011682018060405250810190610db49190611d02565b600660009054906101000a900473ffffffffffffffffffffffffffffffffffffffff1673ffffffffffffffffffffffffffffffffffffffff16631701474273__$f247edaf7ce9d2535b3fa74e71bc5a3f7a$__63a48a622a60006040518263ffffffff1660e01b8152600401610e2a91906122f8565b600060405180830381865af4158015610e47573d6000803e3d6000fd5b505050506040513d6000823e3d601f19601f82011682018060405250810190610e7091906114db565b6040518263ffffffff1660e01b8152600401610e8c9190611c88565b600060405180830381865afa158015610ea9573d6000803e3d6000fd5b505050506040513d6000823e3d601f19601f82011682018060405250810190610ed29190611d02565b6040518363ffffffff1660e01b8152600401610eef929190611e65565b600060405180830381865afa158015610f0c573d6000803e3d6000fd5b505050506040513d6000823e3d601f19601f82011682018060405250810190610f35919061219d565b6040518363ffffffff1660e01b8152600401610f52929190612394565b600060405180830381865afa158015610f6f573d6000803e3d6000fd5b505050506040513d6000823e3d601f19601f82011682018060405250810190610f98919061248c565b601460008201518160000160006101000a81548160ff02191690836001811115610fc557610fc4611fa6565b5b02179055506020820151816001016000820151816000016000820151816000016000820151816000019081610ffa919061173b565b5060208201518160010160006101000a81548160ff02191690831515021790555060408201518160020155505050506020820151816003016000820151816000016000820151816000019081611050919061173b565b5060208201518160010160006101000a81548160ff0219169083151502179055506040820151816002015550505050505060408201518160070160008201518160000160008201518160000160008201518160000190816110b1919061173b565b5060208201518160010160006101000a81548160ff02191690831515021790555060408201518160020155505050506020820151816003016000820151816000016000820151816000019081611107919061173b565b5060208201518160010160006101000a81548160ff02191690831515021790555060408201518160020155505050505050505034801561114657600080fd5b506124d5565b613688806200a2a183390190565b6123a6806200d92983390190565b613b10806200fccf83390190565b612cb680620137df83390190565b612785806201649583390190565b612a428062018c1a83390190565b611454806201b65c83390190565b600082825260208201905092915050565b7f1a0111ea397fe69a4b1ba7b6434bacd764774b84f38512bf6730d2a0f6b0f62460008201527f1eabfffeb153ffffb9feffffffffaaab00000000000000000000000000000000602082015250565b600061121b6030836111ae565b9150611226826111bf565b604082019050919050565b60008115159050919050565b61124681611231565b82525050565b600060408201905081810360008301526112658161120e565b9050611274602083018461123d565b92915050565b6000604051905090565b600080fd5b600080fd5b600080fd5b6000601f19601f8301169050919050565b7f4e487b7100000000000000000000000000000000000000000000000000000000600052604160045260246000fd5b6112dc82611293565b810181811067ffffffffffffffff821117156112fb576112fa6112a4565b5b80604052505050565b600061130e61127a565b905061131a82826112d3565b919050565b600080fd5b600080fd5b600080fd5b600067ffffffffffffffff821115611349576113486112a4565b5b61135282611293565b9050602081019050919050565b60005b8381101561137d578082015181840152602081019050611362565b60008484015250505050565b600061139c6113978461132e565b611304565b9050828152602081018484840111156113b8576113b7611329565b5b6113c384828561135f565b509392505050565b600082601f8301126113e0576113df611324565b5b81516113f0848260208601611389565b91505092915050565b61140281611231565b811461140d57600080fd5b50565b60008151905061141f816113f9565b92915050565b6000819050919050565b61143881611425565b811461144357600080fd5b50565b6000815190506114558161142f565b92915050565b6000606082840312156114715761147061128e565b5b61147b6060611304565b9050600082015167ffffffffffffffff81111561149b5761149a61131f565b5b6114a7848285016113cb565b60008301525060206114bb84828501611410565b60208301525060406114cf84828501611446565b60408301525092915050565b6000602082840312156114f1576114f0611284565b5b600082015167ffffffffffffffff81111561150f5761150e611289565b5b61151b8482850161145b565b91505092915050565b600081519050919050565b7f4e487b7100000000000000000000000000000000000000000000000000000000600052602260045260246000fd5b6000600282049050600182168061157657607f821691505b6020821081036115895761158861152f565b5b50919050565b60008190508160005260206000209050919050565b60006020601f8301049050919050565b600082821b905092915050565b6000600883026115f17fffffffffffffffffffffffffffffffffffffffffffffffffffffffffffffffff826115b4565b6115fb86836115b4565b95508019841693508086168417925050509392505050565b6000819050919050565b600061163861163361162e84611425565b611613565b611425565b9050919050565b6000819050919050565b6116528361161d565b61166661165e8261163f565b8484546115c1565b825550505050565b600090565b61167b61166e565b611686818484611649565b505050565b5b818110156116aa5761169f600082611673565b60018101905061168c565b5050565b601f8211156116ef576116c08161158f565b6116c9846115a4565b810160208510156116d8578190505b6116ec6116e4856115a4565b83018261168b565b50505b505050565b600082821c905092915050565b6000611712600019846008026116f4565b1980831691505092915050565b600061172b8383611701565b9150826002028217905092915050565b61174482611524565b67ffffffffffffffff81111561175d5761175c6112a4565b5b611767825461155e565b6117728282856116ae565b600060209050601f8311600181146117a55760008415611793578287015190505b61179d858261171f565b865550611805565b601f1984166117b38661158f565b60005b828110156117db578489015182556001820191506020850194506020810190506117b6565b868310156117f857848901516117f4601f891682611701565b8355505b6001600288020188555050505b505050505050565b7f73eda753299d7d483339d80809a1d80553bda402fffe5bfeffffffff00000001600082015250565b60006118436020836111ae565b915061184e8261180d565b602082019050919050565b6000604082019050818103600083015261187281611836565b9050611881602083018461123d565b92915050565b600082825260208201905092915050565b600081546118a58161155e565b6118af8186611887565b945060018216600081146118ca57600181146118e057611913565b60ff198316865281151560200286019350611913565b6118e98561158f565b60005b8381101561190b578154818901526001820191506020810190506118ec565b808801955050505b50505092915050565b60008160001c9050919050565b600060ff82169050919050565b60006119496119448361191c565b611929565b9050919050565b61195981611231565b82525050565b6000819050919050565b600061197c6119778361191c565b61195f565b9050919050565b61198c81611425565b82525050565b600060608301600080840185830360008701526119af8382611898565b925050600184015490506119c281611936565b6119cf6020870182611950565b50600284015490506119e081611969565b6119ed6040870182611983565b50819250505092915050565b60006020820190508181036000830152611a138184611992565b905092915050565b600073ffffffffffffffffffffffffffffffffffffffff82169050919050565b6000611a56611a51611a4c84611a1b565b611613565b611a1b565b9050919050565b6000611a6882611a3b565b9050919050565b6000611a7a82611a5d565b9050919050565b611a8a81611a6f565b82525050565b6000602082019050611aa56000830184611a81565b92915050565b6000611ab682611a5d565b9050919050565b611ac681611aab565b82525050565b6000602082019050611ae16000830184611abd565b92915050565b6000611af282611a5d565b9050919050565b611b0281611ae7565b82525050565b6000602082019050611b1d6000830184611af9565b92915050565b6000611b2e82611a5d565b9050919050565b611b3e81611b23565b82525050565b6000602082019050611b596000830184611b35565b92915050565b7f17f1d3a73197d7942695638c4fa9ac0fc3688c4f9774b905a14e3a3f171bac5860008201527f6c55e83ff97a1aeffb3af00adb22c6bb00000000000000000000000000000000602082015250565b6000611bbb6030836111ae565b9150611bc682611b5f565b604082019050919050565b60006040820190508181036000830152611bea81611bae565b9050611bf9602083018461123d565b92915050565b6000611c0a82611524565b611c148185611887565b9350611c2481856020860161135f565b611c2d81611293565b840191505092915050565b60006060830160008301518482036000860152611c558282611bff565b9150506020830151611c6a6020860182611950565b506040830151611c7d6040860182611983565b508091505092915050565b60006020820190508181036000830152611ca28184611c38565b905092915050565b600060208284031215611cc057611cbf61128e565b5b611cca6020611304565b9050600082015167ffffffffffffffff811115611cea57611ce961131f565b5b611cf68482850161145b565b60008301525092915050565b600060208284031215611d1857611d17611284565b5b600082015167ffffffffffffffff811115611d3657611d35611289565b5b611d4284828501611caa565b91505092915050565b7f08b3f481e3aaa0f1a09e30ed741d8ae4fcf5e095d5d00af600db18cb2c04b3ed60008201527fd03cc744a2888ae40caa232946c5e7e100000000000000000000000000000000602082015250565b6000611da76030836111ae565b9150611db282611d4b565b604082019050919050565b60006040820190508181036000830152611dd681611d9a565b9050611de5602083018461123d565b92915050565b60006060830160008301518482036000860152611e088282611bff565b9150506020830151611e1d6020860182611950565b506040830151611e306040860182611983565b508091505092915050565b60006020830160008301518482036000860152611e588282611deb565b9150508091505092915050565b60006040820190508181036000830152611e7f8185611e3b565b90508181036020830152611e938184611e3b565b90509392505050565b60028110611ea957600080fd5b50565b600081519050611ebb81611e9c565b92915050565b600060608284031215611ed757611ed661128e565b5b611ee16060611304565b90506000611ef184828501611eac565b600083015250602082015167ffffffffffffffff811115611f1557611f1461131f565b5b611f2184828501611caa565b602083015250604082015167ffffffffffffffff811115611f4557611f4461131f565b5b611f5184828501611caa565b60408301525092915050565b600060208284031215611f7357611f72611284565b5b600082015167ffffffffffffffff811115611f9157611f90611289565b5b611f9d84828501611ec1565b91505092915050565b7f4e487b7100000000000000000000000000000000000000000000000000000000600052602160045260246000fd5b7f024aa2b2f08f0a91260805272dc51051c6e47ad4fa403b02b4510b647ae3d17760008201527f0bac0326a805bbefd48056c8c121bdb800000000000000000000000000000000602082015250565b60006120316030836111ae565b915061203c82611fd5565b604082019050919050565b6000604082019050818103600083015261206081612024565b905061206f602083018461123d565b92915050565b7f13e02b6052719f607dacd3a088274f65596bd0d09920b61ab5da61bbdc7f504960008201527f334cf11213945d57e5ac7d055d042b7e00000000000000000000000000000000602082015250565b60006120d16030836111ae565b91506120dc82612075565b604082019050919050565b60006040820190508181036000830152612100816120c4565b905061210f602083018461123d565b92915050565b60006040828403121561212b5761212a61128e565b5b6121356040611304565b9050600082015167ffffffffffffffff8111156121555761215461131f565b5b61216184828501611caa565b600083015250602082015167ffffffffffffffff8111156121855761218461131f565b5b61219184828501611caa565b60208301525092915050565b6000602082840312156121b3576121b2611284565b5b600082015167ffffffffffffffff8111156121d1576121d0611289565b5b6121dd84828501612115565b91505092915050565b7f0ce5d527727d6e118cc9cdc6da2e351aadfd9baa8cbdd3a76d429a695160d12c60008201527f923ac9cc3baca289e193548608b8280100000000000000000000000000000000602082015250565b60006122426030836111ae565b915061224d826121e6565b604082019050919050565b6000604082019050818103600083015261227181612235565b9050612280602083018461123d565b92915050565b7f0606c4a02ea734cc32acd2b02bc28b99cb3e287e85a763af267492ab572e99ab60008201527f3f370d275cec1da1aaa9075ff05f79be00000000000000000000000000000000602082015250565b60006122e26030836111ae565b91506122ed82612286565b604082019050919050565b60006040820190508181036000830152612311816122d5565b9050612320602083018461123d565b92915050565b600060208301600083015184820360008601526123438282611deb565b9150508091505092915050565b6000604083016000830151848203600086015261236d8282612326565b915050602083015184820360208601526123878282612326565b9150508091505092915050565b600060408201905081810360008301526123ae8185612350565b905081810360208301526123c28184612350565b90509392505050565b600281106123d857600080fd5b50565b6000815190506123ea816123cb565b92915050565b6000606082840312156124065761240561128e565b5b6124106060611304565b90506000612420848285016123db565b600083015250602082015167ffffffffffffffff8111156124445761244361131f565b5b61245084828501612115565b602083015250604082015167ffffffffffffffff8111156124745761247361131f565b5b61248084828501612115565b60408301525092915050565b6000602082840312156124a2576124a1611284565b5b600082015167ffffffffffffffff8111156124c0576124bf611289565b5b6124cc848285016123f0565b91505092915050565b617dbc80620024e56000396000f3fe608060405234801561001057600080fd5b50600436106101165760003560e01c80634c4deae3116100a25780639f76c142116100715780639f76c14214610355578063b5e5eaaf14610373578063c0267345146103a3578063f4aff064146103d3578063fc3e55a21461040357610116565b80634c4deae3146102a7578063584eae31146102d757806378c91deb146102f55780639dc5abb31461032557610116565b80632770076e116100e95780632770076e146101c95780632dd380dc146101f957806336b5ae8f1461022957806339a1c2b7146102595780633c94dbaf1461027757610116565b806301f7cb4b1461011b57806314cb7ac31461014b5780631e4799e41461017b578063244167eb14610199575b600080fd5b61013560048036038101906101309190615d87565b610433565b6040516101429190615ddf565b60405180910390f35b61016560048036038101906101609190615d87565b6108f0565b60405161017291906160c5565b60405180910390f35b610183611852565b6040516101909190616186565b60405180910390f35b6101b360048036038101906101ae9190616269565b611a65565b6040516101c09190616325565b60405180910390f35b6101e360048036038101906101de9190616487565b612251565b6040516101f09190616325565b60405180910390f35b610213600480360381019061020e9190616591565b61290a565b6040516102209190615ddf565b60405180910390f35b610243600480360381019061023e9190616269565b612d27565b6040516102509190616325565b60405180910390f35b610261612e3c565b60405161026e919061662a565b60405180910390f35b610291600480360381019061028c919061664c565b612f0d565b60405161029e9190615ddf565b60405180910390f35b6102c160048036038101906102bc91906166f3565b6131cd565b6040516102ce9190616325565b60405180910390f35b6102df613b9d565b6040516102ec9190616839565b60405180910390f35b61030f600480360381019061030a919061685b565b613f96565b60405161031c9190616325565b60405180910390f35b61033f600480360381019061033a91906168d3565b6148a5565b60405161034c9190616325565b60405180910390f35b61035d614ceb565b60405161036a919061662a565b60405180910390f35b61038d6004803603810190610388919061697a565b614dbc565b60405161039a9190615ddf565b60405180910390f35b6103bd60048036038101906103b89190615d87565b614e92565b6040516103ca9190615ddf565b60405180910390f35b6103ed60048036038101906103e8919061697a565b614f69565b6040516103fa9190615ddf565b60405180910390f35b61041d60048036038101906104189190616a8b565b6153ec565b60405161042a9190616325565b60405180910390f35b600060018081111561044857610447615dfa565b5b8260000151600181111561045f5761045e615dfa565b5b0361046d57600090506108eb565b6000600760009054906101000a900473ffffffffffffffffffffffffffffffffffffffff1673ffffffffffffffffffffffffffffffffffffffff166307a5ecaa846040015185604001516040518363ffffffff1660e01b81526004016104d4929190616ba6565b600060405180830381865afa1580156104f1573d6000803e3d6000fd5b505050506040513d6000823e3d601f19601f8201168201806040525081019061051a9190616dd7565b90506000600760009054906101000a900473ffffffffffffffffffffffffffffffffffffffff1673ffffffffffffffffffffffffffffffffffffffff1663fbb740a8600760009054906101000a900473ffffffffffffffffffffffffffffffffffffffff1673ffffffffffffffffffffffffffffffffffffffff166307a5ecaa600760009054906101000a900473ffffffffffffffffffffffffffffffffffffffff1673ffffffffffffffffffffffffffffffffffffffff166307a5ecaa89602001518a602001516040518363ffffffff1660e01b81526004016105ff929190616ba6565b600060405180830381865afa15801561061c573d6000803e3d6000fd5b505050506040513d6000823e3d601f19601f820116820180604052508101906106459190616dd7565b88602001516040518363ffffffff1660e01b8152600401610667929190616ba6565b600060405180830381865afa158015610684573d6000803e3d6000fd5b505050506040513d6000823e3d601f19601f820116820180604052508101906106ad9190616dd7565b600760009054906101000a900473ffffffffffffffffffffffffffffffffffffffff1673ffffffffffffffffffffffffffffffffffffffff16639d2e83f5600760009054906101000a900473ffffffffffffffffffffffffffffffffffffffff1673ffffffffffffffffffffffffffffffffffffffff1663a1fca2b66040518163ffffffff1660e01b8152600401600060405180830381865afa158015610758573d6000803e3d6000fd5b505050506040513d6000823e3d601f19601f820116820180604052508101906107819190616dd7565b6040518263ffffffff1660e01b815260040161079d9190616e20565b600060405180830381865afa1580156107ba573d6000803e3d6000fd5b505050506040513d6000823e3d601f19601f820116820180604052508101906107e39190616dd7565b6040518363ffffffff1660e01b8152600401610800929190616ba6565b600060405180830381865afa15801561081d573d6000803e3d6000fd5b505050506040513d6000823e3d601f19601f820116820180604052508101906108469190616dd7565b9050600760009054906101000a900473ffffffffffffffffffffffffffffffffffffffff1673ffffffffffffffffffffffffffffffffffffffff1663ab80cf7683836040518363ffffffff1660e01b81526004016108a5929190616ba6565b602060405180830381865afa1580156108c2573d6000803e3d6000fd5b505050506040513d601f19601f820116820180604052508101906108e69190616e42565b925050505b919050565b6108f861581c565b6000600860009054906101000a900473ffffffffffffffffffffffffffffffffffffffff1673ffffffffffffffffffffffffffffffffffffffff16639faceb7e600760009054906101000a900473ffffffffffffffffffffffffffffffffffffffff1673ffffffffffffffffffffffffffffffffffffffff1663bc1b392d6040518163ffffffff1660e01b8152600401600060405180830381865afa1580156109a5573d6000803e3d6000fd5b505050506040513d6000823e3d601f19601f820116820180604052508101906109ce9190616dd7565b600760009054906101000a900473ffffffffffffffffffffffffffffffffffffffff1673ffffffffffffffffffffffffffffffffffffffff1663c700da6b600660009054906101000a900473ffffffffffffffffffffffffffffffffffffffff1673ffffffffffffffffffffffffffffffffffffffff1663901717d16040518163ffffffff1660e01b8152600401600060405180830381865afa158015610a79573d6000803e3d6000fd5b505050506040513d6000823e3d601f19601f82011682018060405250810190610aa29190616e6f565b600660009054906101000a900473ffffffffffffffffffffffffffffffffffffffff1673ffffffffffffffffffffffffffffffffffffffff1663bc1b392d6040518163ffffffff1660e01b8152600401600060405180830381865afa158015610b0f573d6000803e3d6000fd5b505050506040513d6000823e3d601f19601f82011682018060405250810190610b389190616e6f565b6040518363ffffffff1660e01b8152600401610b55929190616ee2565b600060405180830381865afa158015610b72573d6000803e3d6000fd5b505050506040513d6000823e3d601f19601f82011682018060405250810190610b9b9190616dd7565b600760009054906101000a900473ffffffffffffffffffffffffffffffffffffffff1673ffffffffffffffffffffffffffffffffffffffff1663bc1b392d6040518163ffffffff1660e01b8152600401600060405180830381865afa158015610c08573d6000803e3d6000fd5b505050506040513d6000823e3d601f19601f82011682018060405250810190610c319190616dd7565b6040518463ffffffff1660e01b8152600401610c4f93929190616f19565b600060405180830381865afa158015610c6c573d6000803e3d6000fd5b505050506040513d6000823e3d601f19601f82011682018060405250810190610c95919061701d565b90506000600960009054906101000a900473ffffffffffffffffffffffffffffffffffffffff1673ffffffffffffffffffffffffffffffffffffffff1663f87386c3600860009054906101000a900473ffffffffffffffffffffffffffffffffffffffff1673ffffffffffffffffffffffffffffffffffffffff16639faceb7e8760200151600760009054906101000a900473ffffffffffffffffffffffffffffffffffffffff1673ffffffffffffffffffffffffffffffffffffffff1663bc1b392d6040518163ffffffff1660e01b8152600401600060405180830381865afa158015610d87573d6000803e3d6000fd5b505050506040513d6000823e3d601f19601f82011682018060405250810190610db09190616dd7565b600760009054906101000a900473ffffffffffffffffffffffffffffffffffffffff1673ffffffffffffffffffffffffffffffffffffffff1663bc1b392d6040518163ffffffff1660e01b8152600401600060405180830381865afa158015610e1d573d6000803e3d6000fd5b505050506040513d6000823e3d601f19601f82011682018060405250810190610e469190616dd7565b6040518463ffffffff1660e01b8152600401610e6493929190616f19565b600060405180830381865afa158015610e81573d6000803e3d6000fd5b505050506040513d6000823e3d601f19601f82011682018060405250810190610eaa919061701d565b600860009054906101000a900473ffffffffffffffffffffffffffffffffffffffff1673ffffffffffffffffffffffffffffffffffffffff1663bc1b392d6040518163ffffffff1660e01b8152600401600060405180830381865afa158015610f17573d6000803e3d6000fd5b505050506040513d6000823e3d601f19601f82011682018060405250810190610f40919061701d565b6040518363ffffffff1660e01b8152600401610f5d9291906170c4565b600060405180830381865afa158015610f7a573d6000803e3d6000fd5b505050506040513d6000823e3d601f19601f82011682018060405250810190610fa39190617183565b90506000600960009054906101000a900473ffffffffffffffffffffffffffffffffffffffff1673ffffffffffffffffffffffffffffffffffffffff1663f87386c3600860009054906101000a900473ffffffffffffffffffffffffffffffffffffffff1673ffffffffffffffffffffffffffffffffffffffff16639faceb7e8860400151600760009054906101000a900473ffffffffffffffffffffffffffffffffffffffff1673ffffffffffffffffffffffffffffffffffffffff1663bc1b392d6040518163ffffffff1660e01b8152600401600060405180830381865afa158015611095573d6000803e3d6000fd5b505050506040513d6000823e3d601f19601f820116820180604052508101906110be9190616dd7565b600760009054906101000a900473ffffffffffffffffffffffffffffffffffffffff1673ffffffffffffffffffffffffffffffffffffffff1663bc1b392d6040518163ffffffff1660e01b8152600401600060405180830381865afa15801561112b573d6000803e3d6000fd5b505050506040513d6000823e3d601f19601f820116820180604052508101906111549190616dd7565b6040518463ffffffff1660e01b815260040161117293929190616f19565b600060405180830381865afa15801561118f573d6000803e3d6000fd5b505050506040513d6000823e3d601f19601f820116820180604052508101906111b8919061701d565b600860009054906101000a900473ffffffffffffffffffffffffffffffffffffffff1673ffffffffffffffffffffffffffffffffffffffff1663bc1b392d6040518163ffffffff1660e01b8152600401600060405180830381865afa158015611225573d6000803e3d6000fd5b505050506040513d6000823e3d601f19601f8201168201806040525081019061124e919061701d565b6040518363ffffffff1660e01b815260040161126b9291906170c4565b600060405180830381865afa158015611288573d6000803e3d6000fd5b505050506040513d6000823e3d601f19601f820116820180604052508101906112b19190617183565b9050600c60009054906101000a900473ffffffffffffffffffffffffffffffffffffffff1673ffffffffffffffffffffffffffffffffffffffff16638a954d12600960009054906101000a900473ffffffffffffffffffffffffffffffffffffffff1673ffffffffffffffffffffffffffffffffffffffff166377839c6985600960009054906101000a900473ffffffffffffffffffffffffffffffffffffffff1673ffffffffffffffffffffffffffffffffffffffff1663f6700795600960009054906101000a900473ffffffffffffffffffffffffffffffffffffffff1673ffffffffffffffffffffffffffffffffffffffff1663f87386c38b600860009054906101000a900473ffffffffffffffffffffffffffffffffffffffff1673ffffffffffffffffffffffffffffffffffffffff1663bc1b392d6040518163ffffffff1660e01b8152600401600060405180830381865afa15801561141a573d6000803e3d6000fd5b505050506040513d6000823e3d601f19601f82011682018060405250810190611443919061701d565b6040518363ffffffff1660e01b81526004016114609291906170c4565b600060405180830381865afa15801561147d573d6000803e3d6000fd5b505050506040513d6000823e3d601f19601f820116820180604052508101906114a69190617183565b6040518263ffffffff1660e01b81526004016114c29190616325565b600060405180830381865afa1580156114df573d6000803e3d6000fd5b505050506040513d6000823e3d601f19601f820116820180604052508101906115089190617183565b6040518363ffffffff1660e01b81526004016115259291906171cc565b600060405180830381865afa158015611542573d6000803e3d6000fd5b505050506040513d6000823e3d601f19601f8201168201806040525081019061156b9190617183565b600960009054906101000a900473ffffffffffffffffffffffffffffffffffffffff1673ffffffffffffffffffffffffffffffffffffffff166377839c6985600960009054906101000a900473ffffffffffffffffffffffffffffffffffffffff1673ffffffffffffffffffffffffffffffffffffffff1663f6700795600960009054906101000a900473ffffffffffffffffffffffffffffffffffffffff1673ffffffffffffffffffffffffffffffffffffffff1663f87386c3600860009054906101000a900473ffffffffffffffffffffffffffffffffffffffff1673ffffffffffffffffffffffffffffffffffffffff1663bc1b392d6040518163ffffffff1660e01b8152600401600060405180830381865afa158015611693573d6000803e3d6000fd5b505050506040513d6000823e3d601f19601f820116820180604052508101906116bc919061701d565b8d6040518363ffffffff1660e01b81526004016116da9291906170c4565b600060405180830381865afa1580156116f7573d6000803e3d6000fd5b505050506040513d6000823e3d601f19601f820116820180604052508101906117209190617183565b6040518263ffffffff1660e01b815260040161173c9190616325565b600060405180830381865afa158015611759573d6000803e3d6000fd5b505050506040513d6000823e3d601f19601f820116820180604052508101906117829190617183565b6040518363ffffffff1660e01b815260040161179f9291906171cc565b600060405180830381865afa1580156117bc573d6000803e3d6000fd5b505050506040513d6000823e3d601f19601f820116820180604052508101906117e59190617183565b6040518363ffffffff1660e01b81526004016118029291906171cc565b600060405180830381865afa15801561181f573d6000803e3d6000fd5b505050506040513d6000823e3d601f19601f8201168201806040525081019061184891906172b4565b9350505050919050565b61185a61585b565b600d6040518060600160405290816000820160009054906101000a900460ff16600181111561188c5761188b615dfa565b5b600181111561189e5761189d615dfa565b5b815260200160018201604051806020016040529081600082016040518060600160405290816000820180546118d29061732c565b80601f01602080910402602001604051908101604052809291908181526020018280546118fe9061732c565b801561194b5780601f106119205761010080835404028352916020019161194b565b820191906000526020600020905b81548152906001019060200180831161192e57829003601f168201915b505050505081526020016001820160009054906101000a900460ff1615151515815260200160028201548152505081525050815260200160048201604051806020016040529081600082016040518060600160405290816000820180546119b19061732c565b80601f01602080910402602001604051908101604052809291908181526020018280546119dd9061732c565b8015611a2a5780601f106119ff57610100808354040283529160200191611a2a565b820191906000526020600020905b815481529060010190602001808311611a0d57829003601f168201915b505050505081526020016001820160009054906101000a900460ff161515151581526020016002820154815250508152505081525050905090565b611a6d61589a565b600180811115611a8057611a7f615dfa565b5b83600001516001811115611a9757611a96615dfa565b5b1480611aca5750600180811115611ab157611ab0615dfa565b5b82600001516001811115611ac857611ac7615dfa565b5b145b15611b6c57600960009054906101000a900473ffffffffffffffffffffffffffffffffffffffff1673ffffffffffffffffffffffffffffffffffffffff1663bc1b392d6040518163ffffffff1660e01b8152600401600060405180830381865afa158015611b3c573d6000803e3d6000fd5b505050506040513d6000823e3d601f19601f82011682018060405250810190611b659190617183565b905061224b565b611b7583614f69565b8015611b865750611b8582610433565b5b611b8f57600080fd5b6000611b9b8484612d27565b9050600073__$f247edaf7ce9d2535b3fa74e71bc5a3f7a$__6398cdcfb273__$f247edaf7ce9d2535b3fa74e71bc5a3f7a$__6375a01da5600060026040518363ffffffff1660e01b8152600401611bf4929190617529565b600060405180830381865af4158015611c11573d6000803e3d6000fd5b505050506040513d6000823e3d601f19601f82011682018060405250810190611c3a9190617559565b73__$f247edaf7ce9d2535b3fa74e71bc5a3f7a$__63901717d16040518163ffffffff1660e01b8152600401600060405180830381865af4158015611c83573d6000803e3d6000fd5b505050506040513d6000823e3d601f19601f82011682018060405250810190611cac9190617559565b6040518363ffffffff1660e01b8152600401611cc992919061762b565b600060405180830381865af4158015611ce6573d6000803e3d6000fd5b505050506040513d6000823e3d601f19601f82011682018060405250810190611d0f9190617559565b9050600073__$f247edaf7ce9d2535b3fa74e71bc5a3f7a$__630a4638fd73__$f247edaf7ce9d2535b3fa74e71bc5a3f7a$__6375a01da5600060066040518363ffffffff1660e01b8152600401611d6892919061769d565b600060405180830381865af4158015611d85573d6000803e3d6000fd5b505050506040513d6000823e3d601f19601f82011682018060405250810190611dae9190617559565b73__$f247edaf7ce9d2535b3fa74e71bc5a3f7a$__63901717d16040518163ffffffff1660e01b8152600401600060405180830381865af4158015611df7573d6000803e3d6000fd5b505050506040513d6000823e3d601f19601f82011682018060405250810190611e209190617559565b6040518363ffffffff1660e01b8152600401611e3d92919061762b565b600060405180830381865af4158015611e5a573d6000803e3d6000fd5b505050506040513d6000823e3d601f19601f82011682018060405250810190611e839190617559565b9050600073__$f247edaf7ce9d2535b3fa74e71bc5a3f7a$__63a48a622a60006040518263ffffffff1660e01b8152600401611ebf91906177d0565b600060405180830381865af4158015611edc573d6000803e3d6000fd5b505050506040513d6000823e3d601f19601f82011682018060405250810190611f059190617559565b90506000600960009054906101000a900473ffffffffffffffffffffffffffffffffffffffff1673ffffffffffffffffffffffffffffffffffffffff166347a9ddd786866040518363ffffffff1660e01b8152600401611f669291906177fe565b600060405180830381865afa158015611f83573d6000803e3d6000fd5b505050506040513d6000823e3d601f19601f82011682018060405250810190611fac9190617183565b90506000600960009054906101000a900473ffffffffffffffffffffffffffffffffffffffff1673ffffffffffffffffffffffffffffffffffffffff166347a9ddd787866040518363ffffffff1660e01b815260040161200d9291906177fe565b600060405180830381865afa15801561202a573d6000803e3d6000fd5b505050506040513d6000823e3d601f19601f820116820180604052508101906120539190617183565b90506000600960009054906101000a900473ffffffffffffffffffffffffffffffffffffffff1673ffffffffffffffffffffffffffffffffffffffff166347a9ddd788866040518363ffffffff1660e01b81526004016120b49291906177fe565b600060405180830381865afa1580156120d1573d6000803e3d6000fd5b505050506040513d6000823e3d601f19601f820116820180604052508101906120fa9190617183565b9050600960009054906101000a900473ffffffffffffffffffffffffffffffffffffffff1673ffffffffffffffffffffffffffffffffffffffff166377839c69600960009054906101000a900473ffffffffffffffffffffffffffffffffffffffff1673ffffffffffffffffffffffffffffffffffffffff166377839c6986866040518363ffffffff1660e01b81526004016121979291906171cc565b600060405180830381865afa1580156121b4573d6000803e3d6000fd5b505050506040513d6000823e3d601f19601f820116820180604052508101906121dd9190617183565b836040518363ffffffff1660e01b81526004016121fb9291906171cc565b600060405180830381865afa158015612218573d6000803e3d6000fd5b505050506040513d6000823e3d601f19601f820116820180604052508101906122419190617183565b9750505050505050505b92915050565b61225961589a565b600073__$f247edaf7ce9d2535b3fa74e71bc5a3f7a$__6398cdcfb273__$f247edaf7ce9d2535b3fa74e71bc5a3f7a$__6375a01da5600060026040518363ffffffff1660e01b81526004016122b0929190617529565b600060405180830381865af41580156122cd573d6000803e3d6000fd5b505050506040513d6000823e3d601f19601f820116820180604052508101906122f69190617559565b73__$f247edaf7ce9d2535b3fa74e71bc5a3f7a$__63901717d16040518163ffffffff1660e01b8152600401600060405180830381865af415801561233f573d6000803e3d6000fd5b505050506040513d6000823e3d601f19601f820116820180604052508101906123689190617559565b6040518363ffffffff1660e01b815260040161238592919061762b565b600060405180830381865af41580156123a2573d6000803e3d6000fd5b505050506040513d6000823e3d601f19601f820116820180604052508101906123cb9190617559565b9050600073__$f247edaf7ce9d2535b3fa74e71bc5a3f7a$__630a4638fd73__$f247edaf7ce9d2535b3fa74e71bc5a3f7a$__6375a01da5600060066040518363ffffffff1660e01b815260040161242492919061769d565b600060405180830381865af4158015612441573d6000803e3d6000fd5b505050506040513d6000823e3d601f19601f8201168201806040525081019061246a9190617559565b73__$f247edaf7ce9d2535b3fa74e71bc5a3f7a$__63901717d16040518163ffffffff1660e01b8152600401600060405180830381865af41580156124b3573d6000803e3d6000fd5b505050506040513d6000823e3d601f19601f820116820180604052508101906124dc9190617559565b6040518363ffffffff1660e01b81526004016124f992919061762b565b600060405180830381865af4158015612516573d6000803e3d6000fd5b505050506040513d6000823e3d601f19601f8201168201806040525081019061253f9190617559565b9050600073__$f247edaf7ce9d2535b3fa74e71bc5a3f7a$__63a48a622a60006040518263ffffffff1660e01b815260040161257b91906177d0565b600060405180830381865af4158015612598573d6000803e3d6000fd5b505050506040513d6000823e3d601f19601f820116820180604052508101906125c19190617559565b90506000600960009054906101000a900473ffffffffffffffffffffffffffffffffffffffff1673ffffffffffffffffffffffffffffffffffffffff166347a9ddd787866040518363ffffffff1660e01b81526004016126229291906177fe565b600060405180830381865afa15801561263f573d6000803e3d6000fd5b505050506040513d6000823e3d601f19601f820116820180604052508101906126689190617183565b90506000600960009054906101000a900473ffffffffffffffffffffffffffffffffffffffff1673ffffffffffffffffffffffffffffffffffffffff166347a9ddd788866040518363ffffffff1660e01b81526004016126c99291906177fe565b600060405180830381865afa1580156126e6573d6000803e3d6000fd5b505050506040513d6000823e3d601f19601f8201168201806040525081019061270f9190617183565b90506000600960009054906101000a900473ffffffffffffffffffffffffffffffffffffffff1673ffffffffffffffffffffffffffffffffffffffff166347a9ddd789866040518363ffffffff1660e01b81526004016127709291906177fe565b600060405180830381865afa15801561278d573d6000803e3d6000fd5b505050506040513d6000823e3d601f19601f820116820180604052508101906127b69190617183565b9050600960009054906101000a900473ffffffffffffffffffffffffffffffffffffffff1673ffffffffffffffffffffffffffffffffffffffff166377839c69600960009054906101000a900473ffffffffffffffffffffffffffffffffffffffff1673ffffffffffffffffffffffffffffffffffffffff166377839c6986866040518363ffffffff1660e01b81526004016128539291906171cc565b600060405180830381865afa158015612870573d6000803e3d6000fd5b505050506040513d6000823e3d601f19601f820116820180604052508101906128999190617183565b836040518363ffffffff1660e01b81526004016128b79291906171cc565b600060405180830381865afa1580156128d4573d6000803e3d6000fd5b505050506040513d6000823e3d601f19601f820116820180604052508101906128fd9190617183565b9650505050505050919050565b600060018081111561291f5761291e615dfa565b5b8260000151600181111561293657612935615dfa565b5b036129445760009050612d22565b6000600960009054906101000a900473ffffffffffffffffffffffffffffffffffffffff1673ffffffffffffffffffffffffffffffffffffffff166377839c69846040015185604001516040518363ffffffff1660e01b81526004016129ab9291906171cc565b600060405180830381865afa1580156129c8573d6000803e3d6000fd5b505050506040513d6000823e3d601f19601f820116820180604052508101906129f19190617183565b90506000600960009054906101000a900473ffffffffffffffffffffffffffffffffffffffff1673ffffffffffffffffffffffffffffffffffffffff16639e0ddc50600960009054906101000a900473ffffffffffffffffffffffffffffffffffffffff1673ffffffffffffffffffffffffffffffffffffffff166377839c69600960009054906101000a900473ffffffffffffffffffffffffffffffffffffffff1673ffffffffffffffffffffffffffffffffffffffff166377839c6989602001518a602001516040518363ffffffff1660e01b8152600401612ad69291906171cc565b600060405180830381865afa158015612af3573d6000803e3d6000fd5b505050506040513d6000823e3d601f19601f82011682018060405250810190612b1c9190617183565b88602001516040518363ffffffff1660e01b8152600401612b3e9291906171cc565b600060405180830381865afa158015612b5b573d6000803e3d6000fd5b505050506040513d6000823e3d601f19601f82011682018060405250810190612b849190617183565b600960009054906101000a900473ffffffffffffffffffffffffffffffffffffffff1673ffffffffffffffffffffffffffffffffffffffff1663a1fca2b66040518163ffffffff1660e01b8152600401600060405180830381865afa158015612bf1573d6000803e3d6000fd5b505050506040513d6000823e3d601f19601f82011682018060405250810190612c1a9190617183565b6040518363ffffffff1660e01b8152600401612c379291906171cc565b600060405180830381865afa158015612c54573d6000803e3d6000fd5b505050506040513d6000823e3d601f19601f82011682018060405250810190612c7d9190617183565b9050600960009054906101000a900473ffffffffffffffffffffffffffffffffffffffff1673ffffffffffffffffffffffffffffffffffffffff16639eea8ce883836040518363ffffffff1660e01b8152600401612cdc9291906171cc565b602060405180830381865afa158015612cf9573d6000803e3d6000fd5b505050506040513d601f19601f82011682018060405250810190612d1d9190616e42565b925050505b919050565b612d2f61589a565b612e3483838473__$861e165b3789503b1dee5f6def1855c9ef$__63f730f54473__$f247edaf7ce9d2535b3fa74e71bc5a3f7a$__63a48a622a60006040518263ffffffff1660e01b8152600401612d879190617881565b600060405180830381865af4158015612da4573d6000803e3d6000fd5b505050506040513d6000823e3d601f19601f82011682018060405250810190612dcd9190617559565b6040518263ffffffff1660e01b8152600401612de991906178af565b600060405180830381865af4158015612e06573d6000803e3d6000fd5b505050506040513d6000823e3d601f19601f82011682018060405250810190612e2f9190617968565b6153ec565b905092915050565b612e446158c0565b6003604051806060016040529081600082018054612e619061732c565b80601f0160208091040260200160405190810160405280929190818152602001828054612e8d9061732c565b8015612eda5780601f10612eaf57610100808354040283529160200191612eda565b820191906000526020600020905b815481529060010190602001808311612ebd57829003601f168201915b505050505081526020016001820160009054906101000a900460ff16151515158152602001600282015481525050905090565b6000600960009054906101000a900473ffffffffffffffffffffffffffffffffffffffff1673ffffffffffffffffffffffffffffffffffffffff16639eea8ce861315c600d6040518060600160405290816000820160009054906101000a900460ff166001811115612f8257612f81615dfa565b5b6001811115612f9457612f93615dfa565b5b81526020016001820160405180602001604052908160008201604051806060016040529081600082018054612fc89061732c565b80601f0160208091040260200160405190810160405280929190818152602001828054612ff49061732c565b80156130415780601f1061301657610100808354040283529160200191613041565b820191906000526020600020905b81548152906001019060200180831161302457829003601f168201915b505050505081526020016001820160009054906101000a900460ff1615151515815260200160028201548152505081525050815260200160048201604051806020016040529081600082016040518060600160405290816000820180546130a79061732c565b80601f01602080910402602001604051908101604052809291908181526020018280546130d39061732c565b80156131205780601f106130f557610100808354040283529160200191613120565b820191906000526020600020905b81548152906001019060200180831161310357829003601f168201915b505050505081526020016001820160009054906101000a900460ff16151515158152602001600282015481525050815250508152505085611a65565b6131668787611a65565b6040518363ffffffff1660e01b81526004016131839291906171cc565b602060405180830381865afa1580156131a0573d6000803e3d6000fd5b505050506040513d601f19601f820116820180604052508101906131c49190616e42565b90509392505050565b6131d561589a565b6000600960009054906101000a900473ffffffffffffffffffffffffffffffffffffffff1673ffffffffffffffffffffffffffffffffffffffff166377839c69600960009054906101000a900473ffffffffffffffffffffffffffffffffffffffff1673ffffffffffffffffffffffffffffffffffffffff16636bc90c28876040015189604001516040518363ffffffff1660e01b815260040161327a9291906171cc565b600060405180830381865afa158015613297573d6000803e3d6000fd5b505050506040513d6000823e3d601f19601f820116820180604052508101906132c09190617183565b600960009054906101000a900473ffffffffffffffffffffffffffffffffffffffff1673ffffffffffffffffffffffffffffffffffffffff1663f6700795600960009054906101000a900473ffffffffffffffffffffffffffffffffffffffff1673ffffffffffffffffffffffffffffffffffffffff16636bc90c288a602001518c602001516040518363ffffffff1660e01b81526004016133639291906171cc565b600060405180830381865afa158015613380573d6000803e3d6000fd5b505050506040513d6000823e3d601f19601f820116820180604052508101906133a99190617183565b6040518263ffffffff1660e01b81526004016133c59190616325565b600060405180830381865afa1580156133e2573d6000803e3d6000fd5b505050506040513d6000823e3d601f19601f8201168201806040525081019061340b9190617183565b6040518363ffffffff1660e01b81526004016134289291906171cc565b600060405180830381865afa158015613445573d6000803e3d6000fd5b505050506040513d6000823e3d601f19601f8201168201806040525081019061346e9190617183565b90506000600960009054906101000a900473ffffffffffffffffffffffffffffffffffffffff1673ffffffffffffffffffffffffffffffffffffffff166377839c69600960009054906101000a900473ffffffffffffffffffffffffffffffffffffffff1673ffffffffffffffffffffffffffffffffffffffff16636bc90c28600960009054906101000a900473ffffffffffffffffffffffffffffffffffffffff1673ffffffffffffffffffffffffffffffffffffffff166377839c698a604001518c602001516040518363ffffffff1660e01b81526004016135539291906171cc565b600060405180830381865afa158015613570573d6000803e3d6000fd5b505050506040513d6000823e3d601f19601f820116820180604052508101906135999190617183565b600960009054906101000a900473ffffffffffffffffffffffffffffffffffffffff1673ffffffffffffffffffffffffffffffffffffffff166377839c698c604001518c602001516040518363ffffffff1660e01b81526004016135fe9291906171cc565b600060405180830381865afa15801561361b573d6000803e3d6000fd5b505050506040513d6000823e3d601f19601f820116820180604052508101906136449190617183565b6040518363ffffffff1660e01b81526004016136619291906171cc565b600060405180830381865afa15801561367e573d6000803e3d6000fd5b505050506040513d6000823e3d601f19601f820116820180604052508101906136a79190617183565b600960009054906101000a900473ffffffffffffffffffffffffffffffffffffffff1673ffffffffffffffffffffffffffffffffffffffff1663f6700795600960009054906101000a900473ffffffffffffffffffffffffffffffffffffffff1673ffffffffffffffffffffffffffffffffffffffff16636bc90c288c602001518c602001516040518363ffffffff1660e01b815260040161374a9291906171cc565b600060405180830381865afa158015613767573d6000803e3d6000fd5b505050506040513d6000823e3d601f19601f820116820180604052508101906137909190617183565b6040518263ffffffff1660e01b81526004016137ac9190616325565b600060405180830381865afa1580156137c9573d6000803e3d6000fd5b505050506040513d6000823e3d601f19601f820116820180604052508101906137f29190617183565b6040518363ffffffff1660e01b815260040161380f9291906171cc565b600060405180830381865afa15801561382c573d6000803e3d6000fd5b505050506040513d6000823e3d601f19601f820116820180604052508101906138559190617183565b90506000600960009054906101000a900473ffffffffffffffffffffffffffffffffffffffff1673ffffffffffffffffffffffffffffffffffffffff166376cfdd6686604001516040518263ffffffff1660e01b81526004016138b891906179b1565b600060405180830381865afa1580156138d5573d6000803e3d6000fd5b505050506040513d6000823e3d601f19601f820116820180604052508101906138fe9190617183565b90506000600960009054906101000a900473ffffffffffffffffffffffffffffffffffffffff1673ffffffffffffffffffffffffffffffffffffffff166377839c69600960009054906101000a900473ffffffffffffffffffffffffffffffffffffffff1673ffffffffffffffffffffffffffffffffffffffff166376cfdd6689602001516040518263ffffffff1660e01b815260040161399f91906179b1565b600060405180830381865afa1580156139bc573d6000803e3d6000fd5b505050506040513d6000823e3d601f19601f820116820180604052508101906139e59190617183565b866040518363ffffffff1660e01b8152600401613a039291906171cc565b600060405180830381865afa158015613a20573d6000803e3d6000fd5b505050506040513d6000823e3d601f19601f82011682018060405250810190613a499190617183565b9050600960009054906101000a900473ffffffffffffffffffffffffffffffffffffffff1673ffffffffffffffffffffffffffffffffffffffff16636bc90c28600960009054906101000a900473ffffffffffffffffffffffffffffffffffffffff1673ffffffffffffffffffffffffffffffffffffffff16636bc90c2885856040518363ffffffff1660e01b8152600401613ae69291906171cc565b600060405180830381865afa158015613b03573d6000803e3d6000fd5b505050506040513d6000823e3d601f19601f82011682018060405250810190613b2c9190617183565b856040518363ffffffff1660e01b8152600401613b4a9291906171cc565b600060405180830381865afa158015613b67573d6000803e3d6000fd5b505050506040513d6000823e3d601f19601f82011682018060405250810190613b909190617183565b9450505050509392505050565b613ba56158e3565b60146040518060600160405290816000820160009054906101000a900460ff166001811115613bd757613bd6615dfa565b5b6001811115613be957613be8615dfa565b5b8152602001600182016040518060400160405290816000820160405180602001604052908160008201604051806060016040529081600082018054613c2d9061732c565b80601f0160208091040260200160405190810160405280929190818152602001828054613c599061732c565b8015613ca65780601f10613c7b57610100808354040283529160200191613ca6565b820191906000526020600020905b815481529060010190602001808311613c8957829003601f168201915b505050505081526020016001820160009054906101000a900460ff161515151581526020016002820154815250508152505081526020016003820160405180602001604052908160008201604051806060016040529081600082018054613d0c9061732c565b80601f0160208091040260200160405190810160405280929190818152602001828054613d389061732c565b8015613d855780601f10613d5a57610100808354040283529160200191613d85565b820191906000526020600020905b815481529060010190602001808311613d6857829003601f168201915b505050505081526020016001820160009054906101000a900460ff1615151515815260200160028201548152505081525050815250508152602001600782016040518060400160405290816000820160405180602001604052908160008201604051806060016040529081600082018054613dff9061732c565b80601f0160208091040260200160405190810160405280929190818152602001828054613e2b9061732c565b8015613e785780601f10613e4d57610100808354040283529160200191613e78565b820191906000526020600020905b815481529060010190602001808311613e5b57829003601f168201915b505050505081526020016001820160009054906101000a900460ff161515151581526020016002820154815250508152505081526020016003820160405180602001604052908160008201604051806060016040529081600082018054613ede9061732c565b80601f0160208091040260200160405190810160405280929190818152602001828054613f0a9061732c565b8015613f575780601f10613f2c57610100808354040283529160200191613f57565b820191906000526020600020905b815481529060010190602001808311613f3a57829003601f168201915b505050505081526020016001820160009054906101000a900460ff16151515158152602001600282015481525050815250508152505081525050905090565b613f9e61589a565b6000613fa9846108f0565b90506000600960009054906101000a900473ffffffffffffffffffffffffffffffffffffffff1673ffffffffffffffffffffffffffffffffffffffff166377839c69600960009054906101000a900473ffffffffffffffffffffffffffffffffffffffff1673ffffffffffffffffffffffffffffffffffffffff166377839c69600960009054906101000a900473ffffffffffffffffffffffffffffffffffffffff1673ffffffffffffffffffffffffffffffffffffffff166377839c69600960009054906101000a900473ffffffffffffffffffffffffffffffffffffffff1673ffffffffffffffffffffffffffffffffffffffff166345caa1176040518163ffffffff1660e01b8152600401600060405180830381865afa1580156140d4573d6000803e3d6000fd5b505050506040513d6000823e3d601f19601f820116820180604052508101906140fd9190617183565b88602001516040518363ffffffff1660e01b815260040161411f9291906171cc565b600060405180830381865afa15801561413c573d6000803e3d6000fd5b505050506040513d6000823e3d601f19601f820116820180604052508101906141659190617183565b86602001516040518363ffffffff1660e01b81526004016141879291906171cc565b600060405180830381865afa1580156141a4573d6000803e3d6000fd5b505050506040513d6000823e3d601f19601f820116820180604052508101906141cd9190617183565b600960009054906101000a900473ffffffffffffffffffffffffffffffffffffffff1673ffffffffffffffffffffffffffffffffffffffff1663f6700795600960009054906101000a900473ffffffffffffffffffffffffffffffffffffffff1673ffffffffffffffffffffffffffffffffffffffff166377839c69600960009054906101000a900473ffffffffffffffffffffffffffffffffffffffff1673ffffffffffffffffffffffffffffffffffffffff16635fdf05d76040518163ffffffff1660e01b8152600401600060405180830381865afa1580156142b6573d6000803e3d6000fd5b505050506040513d6000823e3d601f19601f820116820180604052508101906142df9190617183565b89604001516040518363ffffffff1660e01b81526004016143019291906171cc565b600060405180830381865afa15801561431e573d6000803e3d6000fd5b505050506040513d6000823e3d601f19601f820116820180604052508101906143479190617183565b6040518263ffffffff1660e01b81526004016143639190616325565b600060405180830381865afa158015614380573d6000803e3d6000fd5b505050506040513d6000823e3d601f19601f820116820180604052508101906143a99190617183565b6040518363ffffffff1660e01b81526004016143c69291906171cc565b600060405180830381865afa1580156143e3573d6000803e3d6000fd5b505050506040513d6000823e3d601f19601f8201168201806040525081019061440c9190617183565b90506000600960009054906101000a900473ffffffffffffffffffffffffffffffffffffffff1673ffffffffffffffffffffffffffffffffffffffff16636bc90c288460400151600960009054906101000a900473ffffffffffffffffffffffffffffffffffffffff1673ffffffffffffffffffffffffffffffffffffffff166377839c698688602001516040518363ffffffff1660e01b81526004016144b49291906171cc565b600060405180830381865afa1580156144d1573d6000803e3d6000fd5b505050506040513d6000823e3d601f19601f820116820180604052508101906144fa9190617183565b6040518363ffffffff1660e01b81526004016145179291906171cc565b600060405180830381865afa158015614534573d6000803e3d6000fd5b505050506040513d6000823e3d601f19601f8201168201806040525081019061455d9190617183565b90506000600960009054906101000a900473ffffffffffffffffffffffffffffffffffffffff1673ffffffffffffffffffffffffffffffffffffffff166376cfdd6687604001516040518263ffffffff1660e01b81526004016145c091906179b1565b600060405180830381865afa1580156145dd573d6000803e3d6000fd5b505050506040513d6000823e3d601f19601f820116820180604052508101906146069190617183565b90506000600960009054906101000a900473ffffffffffffffffffffffffffffffffffffffff1673ffffffffffffffffffffffffffffffffffffffff166377839c69600960009054906101000a900473ffffffffffffffffffffffffffffffffffffffff1673ffffffffffffffffffffffffffffffffffffffff166376cfdd668a602001516040518263ffffffff1660e01b81526004016146a791906179b1565b600060405180830381865afa1580156146c4573d6000803e3d6000fd5b505050506040513d6000823e3d601f19601f820116820180604052508101906146ed9190617183565b866040518363ffffffff1660e01b815260040161470b9291906171cc565b600060405180830381865afa158015614728573d6000803e3d6000fd5b505050506040513d6000823e3d601f19601f820116820180604052508101906147519190617183565b9050600960009054906101000a900473ffffffffffffffffffffffffffffffffffffffff1673ffffffffffffffffffffffffffffffffffffffff16636bc90c28600960009054906101000a900473ffffffffffffffffffffffffffffffffffffffff1673ffffffffffffffffffffffffffffffffffffffff16636bc90c2885856040518363ffffffff1660e01b81526004016147ee9291906171cc565b600060405180830381865afa15801561480b573d6000803e3d6000fd5b505050506040513d6000823e3d601f19601f820116820180604052508101906148349190617183565b856040518363ffffffff1660e01b81526004016148529291906171cc565b600060405180830381865afa15801561486f573d6000803e3d6000fd5b505050506040513d6000823e3d601f19601f820116820180604052508101906148989190617183565b9550505050505092915050565b6148ad61589a565b600760009054906101000a900473ffffffffffffffffffffffffffffffffffffffff1673ffffffffffffffffffffffffffffffffffffffff1663ab80cf76856020015185602001516040518363ffffffff1660e01b8152600401614912929190616ba6565b602060405180830381865afa15801561492f573d6000803e3d6000fd5b505050506040513d601f19601f820116820180604052508101906149539190616e42565b158015614a035750600760009054906101000a900473ffffffffffffffffffffffffffffffffffffffff1673ffffffffffffffffffffffffffffffffffffffff1663ab80cf76856040015185604001516040518363ffffffff1660e01b81526004016149c0929190616ba6565b602060405180830381865afa1580156149dd573d6000803e3d6000fd5b505050506040513d601f19601f82011682018060405250810190614a019190616e42565b155b614a0c57600080fd5b6000614a17856108f0565b90506000614a24856108f0565b9050600960009054906101000a900473ffffffffffffffffffffffffffffffffffffffff1673ffffffffffffffffffffffffffffffffffffffff16639eea8ce8836020015183602001516040518363ffffffff1660e01b8152600401614a8b9291906171cc565b602060405180830381865afa158015614aa8573d6000803e3d6000fd5b505050506040513d601f19601f82011682018060405250810190614acc9190616e42565b8015614b7b5750600960009054906101000a900473ffffffffffffffffffffffffffffffffffffffff1673ffffffffffffffffffffffffffffffffffffffff16639eea8ce8836040015183604001516040518363ffffffff1660e01b8152600401614b389291906171cc565b602060405180830381865afa158015614b55573d6000803e3d6000fd5b505050506040513d601f19601f82011682018060405250810190614b799190616e42565b155b15614cd457600960009054906101000a900473ffffffffffffffffffffffffffffffffffffffff1673ffffffffffffffffffffffffffffffffffffffff16636bc90c28600960009054906101000a900473ffffffffffffffffffffffffffffffffffffffff1673ffffffffffffffffffffffffffffffffffffffff166376cfdd6687602001516040518263ffffffff1660e01b8152600401614c1d91906179b1565b600060405180830381865afa158015614c3a573d6000803e3d6000fd5b505050506040513d6000823e3d601f19601f82011682018060405250810190614c639190617183565b84602001516040518363ffffffff1660e01b8152600401614c859291906171cc565b600060405180830381865afa158015614ca2573d6000803e3d6000fd5b505050506040513d6000823e3d601f19601f82011682018060405250810190614ccb9190617183565b92505050614ce4565b614cdf8282866131cd565b925050505b9392505050565b614cf36158c0565b6000604051806060016040529081600082018054614d109061732c565b80601f0160208091040260200160405190810160405280929190818152602001828054614d3c9061732c565b8015614d895780601f10614d5e57610100808354040283529160200191614d89565b820191906000526020600020905b815481529060010190602001808311614d6c57829003601f168201915b505050505081526020016001820160009054906101000a900460ff16151515158152602001600282015481525050905090565b6000806001811115614dd157614dd0615dfa565b5b600a60009054906101000a900473ffffffffffffffffffffffffffffffffffffffff1673ffffffffffffffffffffffffffffffffffffffff16627995936003856040518363ffffffff1660e01b8152600401614e2e929190617abe565b600060405180830381865afa158015614e4b573d6000803e3d6000fd5b505050506040513d6000823e3d601f19601f82011682018060405250810190614e749190617ba6565b600001516001811115614e8a57614e89615dfa565b5b149050919050565b6000806001811115614ea757614ea6615dfa565b5b600b60009054906101000a900473ffffffffffffffffffffffffffffffffffffffff1673ffffffffffffffffffffffffffffffffffffffff166355e359c86003856040518363ffffffff1660e01b8152600401614f05929190617bef565b600060405180830381865afa158015614f22573d6000803e3d6000fd5b505050506040513d6000823e3d601f19601f82011682018060405250810190614f4b9190617cd7565b600001516001811115614f6157614f60615dfa565b5b149050919050565b600080600660009054906101000a900473ffffffffffffffffffffffffffffffffffffffff1673ffffffffffffffffffffffffffffffffffffffff1663b5e28325846040015185604001516040518363ffffffff1660e01b8152600401614fd1929190616ee2565b600060405180830381865afa158015614fee573d6000803e3d6000fd5b505050506040513d6000823e3d601f19601f820116820180604052508101906150179190616e6f565b90506000600660009054906101000a900473ffffffffffffffffffffffffffffffffffffffff1673ffffffffffffffffffffffffffffffffffffffff1663a9a52e7e600660009054906101000a900473ffffffffffffffffffffffffffffffffffffffff1673ffffffffffffffffffffffffffffffffffffffff1663b5e28325600660009054906101000a900473ffffffffffffffffffffffffffffffffffffffff1673ffffffffffffffffffffffffffffffffffffffff1663b5e2832589602001518a602001516040518363ffffffff1660e01b81526004016150fc929190616ee2565b600060405180830381865afa158015615119573d6000803e3d6000fd5b505050506040513d6000823e3d601f19601f820116820180604052508101906151429190616e6f565b88602001516040518363ffffffff1660e01b8152600401615164929190616ee2565b600060405180830381865afa158015615181573d6000803e3d6000fd5b505050506040513d6000823e3d601f19601f820116820180604052508101906151aa9190616e6f565b600660009054906101000a900473ffffffffffffffffffffffffffffffffffffffff1673ffffffffffffffffffffffffffffffffffffffff1663085eb2b9600660009054906101000a900473ffffffffffffffffffffffffffffffffffffffff1673ffffffffffffffffffffffffffffffffffffffff1663a1fca2b66040518163ffffffff1660e01b8152600401600060405180830381865afa158015615255573d6000803e3d6000fd5b505050506040513d6000823e3d601f19601f8201168201806040525081019061527e9190616e6f565b6040518263ffffffff1660e01b815260040161529a91906179b1565b600060405180830381865afa1580156152b7573d6000803e3d6000fd5b505050506040513d6000823e3d601f19601f820116820180604052508101906152e09190616e6f565b6040518363ffffffff1660e01b81526004016152fd929190616ee2565b600060405180830381865afa15801561531a573d6000803e3d6000fd5b505050506040513d6000823e3d601f19601f820116820180604052508101906153439190616e6f565b9050600660009054906101000a900473ffffffffffffffffffffffffffffffffffffffff1673ffffffffffffffffffffffffffffffffffffffff1663d4d4555483836040518363ffffffff1660e01b81526004016153a2929190616ee2565b602060405180830381865afa1580156153bf573d6000803e3d6000fd5b505050506040513d601f19601f820116820180604052508101906153e39190616e42565b92505050919050565b6153f461589a565b6000600960009054906101000a900473ffffffffffffffffffffffffffffffffffffffff1673ffffffffffffffffffffffffffffffffffffffff1663901717d16040518163ffffffff1660e01b8152600401600060405180830381865afa158015615463573d6000803e3d6000fd5b505050506040513d6000823e3d601f19601f8201168201806040525081019061548c9190617183565b905060005b835181101561580f57600960009054906101000a900473ffffffffffffffffffffffffffffffffffffffff1673ffffffffffffffffffffffffffffffffffffffff166377839c6983846040518363ffffffff1660e01b81526004016154f79291906171cc565b600060405180830381865afa158015615514573d6000803e3d6000fd5b505050506040513d6000823e3d601f19601f8201168201806040525081019061553d9190617183565b50600960009054906101000a900473ffffffffffffffffffffffffffffffffffffffff1673ffffffffffffffffffffffffffffffffffffffff166377839c6983615587888b613f96565b6040518363ffffffff1660e01b81526004016155a49291906171cc565b600060405180830381865afa1580156155c1573d6000803e3d6000fd5b505050506040513d6000823e3d601f19601f820116820180604052508101906155ea9190617183565b50600b60009054906101000a900473ffffffffffffffffffffffffffffffffffffffff1673ffffffffffffffffffffffffffffffffffffffff16639ee46fb3866040518263ffffffff1660e01b81526004016156469190616839565b600060405180830381865afa158015615663573d6000803e3d6000fd5b505050506040513d6000823e3d601f19601f8201168201806040525081019061568c9190617cd7565b94508381815181106156a1576156a0617d20565b5b60200260200101511561580257600960009054906101000a900473ffffffffffffffffffffffffffffffffffffffff1673ffffffffffffffffffffffffffffffffffffffff166377839c69836156f8888a8c6148a5565b6040518363ffffffff1660e01b81526004016157159291906171cc565b600060405180830381865afa158015615732573d6000803e3d6000fd5b505050506040513d6000823e3d601f19601f8201168201806040525081019061575b9190617183565b50600b60009054906101000a900473ffffffffffffffffffffffffffffffffffffffff1673ffffffffffffffffffffffffffffffffffffffff166324dca0c786886040518363ffffffff1660e01b81526004016157b9929190617d4f565b600060405180830381865afa1580156157d6573d6000803e3d6000fd5b505050506040513d6000823e3d601f19601f820116820180604052508101906157ff9190617cd7565b94505b8080600101915050615491565b5080915050949350505050565b60405180606001604052806000600181111561583b5761583a615dfa565b5b815260200161584861589a565b815260200161585561589a565b81525090565b60405180606001604052806000600181111561587a57615879615dfa565b5b8152602001615887615922565b8152602001615894615922565b81525090565b60405180604001604052806158ad61593b565b81526020016158ba61593b565b81525090565b604051806060016040528060608152602001600015158152602001600081525090565b60405180606001604052806000600181111561590257615901615dfa565b5b815260200161590f61596e565b815260200161591c61596e565b81525090565b60405180602001604052806159356158c0565b81525090565b604051806060016040528061594e61596e565b815260200161595b61596e565b815260200161596861596e565b81525090565b6040518060400160405280615981615922565b815260200161598e615922565b81525090565b6000604051905090565b600080fd5b600080fd5b600080fd5b6000601f19601f8301169050919050565b7f4e487b7100000000000000000000000000000000000000000000000000000000600052604160045260246000fd5b6159f6826159ad565b810181811067ffffffffffffffff82111715615a1557615a146159be565b5b80604052505050565b6000615a28615994565b9050615a3482826159ed565b919050565b600080fd5b60028110615a4b57600080fd5b50565b600081359050615a5d81615a3e565b92915050565b600080fd5b600080fd5b600067ffffffffffffffff821115615a8857615a876159be565b5b615a91826159ad565b9050602081019050919050565b82818337600083830152505050565b6000615ac0615abb84615a6d565b615a1e565b905082815260208101848484011115615adc57615adb615a68565b5b615ae7848285615a9e565b509392505050565b600082601f830112615b0457615b03615a63565b5b8135615b14848260208601615aad565b91505092915050565b60008115159050919050565b615b3281615b1d565b8114615b3d57600080fd5b50565b600081359050615b4f81615b29565b92915050565b6000819050919050565b615b6881615b55565b8114615b7357600080fd5b50565b600081359050615b8581615b5f565b92915050565b600060608284031215615ba157615ba06159a8565b5b615bab6060615a1e565b9050600082013567ffffffffffffffff811115615bcb57615bca615a39565b5b615bd784828501615aef565b6000830152506020615beb84828501615b40565b6020830152506040615bff84828501615b76565b60408301525092915050565b600060208284031215615c2157615c206159a8565b5b615c2b6020615a1e565b9050600082013567ffffffffffffffff811115615c4b57615c4a615a39565b5b615c5784828501615b8b565b60008301525092915050565b600060408284031215615c7957615c786159a8565b5b615c836040615a1e565b9050600082013567ffffffffffffffff811115615ca357615ca2615a39565b5b615caf84828501615c0b565b600083015250602082013567ffffffffffffffff811115615cd357615cd2615a39565b5b615cdf84828501615c0b565b60208301525092915050565b600060608284031215615d0157615d006159a8565b5b615d0b6060615a1e565b90506000615d1b84828501615a4e565b600083015250602082013567ffffffffffffffff811115615d3f57615d3e615a39565b5b615d4b84828501615c63565b602083015250604082013567ffffffffffffffff811115615d6f57615d6e615a39565b5b615d7b84828501615c63565b60408301525092915050565b600060208284031215615d9d57615d9c61599e565b5b600082013567ffffffffffffffff811115615dbb57615dba6159a3565b5b615dc784828501615ceb565b91505092915050565b615dd981615b1d565b82525050565b6000602082019050615df46000830184615dd0565b92915050565b7f4e487b7100000000000000000000000000000000000000000000000000000000600052602160045260246000fd5b60028110615e3a57615e39615dfa565b5b50565b6000819050615e4b82615e29565b919050565b6000615e5b82615e3d565b9050919050565b615e6b81615e50565b82525050565b600081519050919050565b600082825260208201905092915050565b60005b83811015615eab578082015181840152602081019050615e90565b60008484015250505050565b6000615ec282615e71565b615ecc8185615e7c565b9350615edc818560208601615e8d565b615ee5816159ad565b840191505092915050565b615ef981615b1d565b82525050565b615f0881615b55565b82525050565b60006060830160008301518482036000860152615f2b8282615eb7565b9150506020830151615f406020860182615ef0565b506040830151615f536040860182615eff565b508091505092915050565b60006020830160008301518482036000860152615f7b8282615f0e565b9150508091505092915050565b60006040830160008301518482036000860152615fa58282615f5e565b91505060208301518482036020860152615fbf8282615f5e565b9150508091505092915050565b60006060830160008301518482036000860152615fe98282615f88565b915050602083015184820360208601526160038282615f88565b9150506040830151848203604086015261601d8282615f88565b9150508091505092915050565b600060408301600083015184820360008601526160478282615fcc565b915050602083015184820360208601526160618282615fcc565b9150508091505092915050565b60006060830160008301516160866000860182615e62565b506020830151848203602086015261609e828261602a565b915050604083015184820360408601526160b8828261602a565b9150508091505092915050565b600060208201905081810360008301526160df818461606e565b905092915050565b600281106160f8576160f7615dfa565b5b50565b6000819050616109826160e7565b919050565b6000616119826160fb565b9050919050565b6161298161610e565b82525050565b60006060830160008301516161476000860182616120565b506020830151848203602086015261615f8282615f5e565b915050604083015184820360408601526161798282615f5e565b9150508091505092915050565b600060208201905081810360008301526161a0818461612f565b905092915050565b600281106161b557600080fd5b50565b6000813590506161c7816161a8565b92915050565b6000606082840312156161e3576161e26159a8565b5b6161ed6060615a1e565b905060006161fd848285016161b8565b600083015250602082013567ffffffffffffffff81111561622157616220615a39565b5b61622d84828501615c0b565b602083015250604082013567ffffffffffffffff81111561625157616250615a39565b5b61625d84828501615c0b565b60408301525092915050565b600080604083850312156162805761627f61599e565b5b600083013567ffffffffffffffff81111561629e5761629d6159a3565b5b6162aa858286016161cd565b925050602083013567ffffffffffffffff8111156162cb576162ca6159a3565b5b6162d785828601615ceb565b9150509250929050565b600060408301600083015184820360008601526162fe8282615fcc565b915050602083015184820360208601526163188282615fcc565b9150508091505092915050565b6000602082019050818103600083015261633f81846162e1565b905092915050565b60006060828403121561635d5761635c6159a8565b5b6163676060615a1e565b9050600082013567ffffffffffffffff81111561638757616386615a39565b5b61639384828501615c63565b600083015250602082013567ffffffffffffffff8111156163b7576163b6615a39565b5b6163c384828501615c63565b602083015250604082013567ffffffffffffffff8111156163e7576163e6615a39565b5b6163f384828501615c63565b60408301525092915050565b600060408284031215616415576164146159a8565b5b61641f6040615a1e565b9050600082013567ffffffffffffffff81111561643f5761643e615a39565b5b61644b84828501616347565b600083015250602082013567ffffffffffffffff81111561646f5761646e615a39565b5b61647b84828501616347565b60208301525092915050565b60006020828403121561649d5761649c61599e565b5b600082013567ffffffffffffffff8111156164bb576164ba6159a3565b5b6164c7848285016163ff565b91505092915050565b600281106164dd57600080fd5b50565b6000813590506164ef816164d0565b92915050565b60006060828403121561650b5761650a6159a8565b5b6165156060615a1e565b90506000616525848285016164e0565b600083015250602082013567ffffffffffffffff81111561654957616548615a39565b5b616555848285016163ff565b602083015250604082013567ffffffffffffffff81111561657957616578615a39565b5b616585848285016163ff565b60408301525092915050565b6000602082840312156165a7576165a661599e565b5b600082013567ffffffffffffffff8111156165c5576165c46159a3565b5b6165d1848285016164f5565b91505092915050565b600060608301600083015184820360008601526165f78282615eb7565b915050602083015161660c6020860182615ef0565b50604083015161661f6040860182615eff565b508091505092915050565b6000602082019050818103600083015261664481846165da565b905092915050565b6000806000606084860312156166655761666461599e565b5b600084013567ffffffffffffffff811115616683576166826159a3565b5b61668f868287016161cd565b935050602084013567ffffffffffffffff8111156166b0576166af6159a3565b5b6166bc86828701615ceb565b925050604084013567ffffffffffffffff8111156166dd576166dc6159a3565b5b6166e986828701615ceb565b9150509250925092565b60008060006060848603121561670c5761670b61599e565b5b600084013567ffffffffffffffff81111561672a576167296159a3565b5b616736868287016164f5565b935050602084013567ffffffffffffffff811115616757576167566159a3565b5b616763868287016164f5565b925050604084013567ffffffffffffffff811115616784576167836159a3565b5b616790868287016161cd565b9150509250925092565b600281106167ab576167aa615dfa565b5b50565b60008190506167bc8261679a565b919050565b60006167cc826167ae565b9050919050565b6167dc816167c1565b82525050565b60006060830160008301516167fa60008601826167d3565b50602083015184820360208601526168128282615f88565b9150506040830151848203604086015261682c8282615f88565b9150508091505092915050565b6000602082019050818103600083015261685381846167e2565b905092915050565b600080604083850312156168725761687161599e565b5b600083013567ffffffffffffffff8111156168905761688f6159a3565b5b61689c85828601615ceb565b925050602083013567ffffffffffffffff8111156168bd576168bc6159a3565b5b6168c9858286016161cd565b9150509250929050565b6000806000606084860312156168ec576168eb61599e565b5b600084013567ffffffffffffffff81111561690a576169096159a3565b5b61691686828701615ceb565b935050602084013567ffffffffffffffff811115616937576169366159a3565b5b61694386828701615ceb565b925050604084013567ffffffffffffffff811115616964576169636159a3565b5b616970868287016161cd565b9150509250925092565b6000602082840312156169905761698f61599e565b5b600082013567ffffffffffffffff8111156169ae576169ad6159a3565b5b6169ba848285016161cd565b91505092915050565b600067ffffffffffffffff8211156169de576169dd6159be565b5b602082029050602081019050919050565b600080fd5b6000616a07616a02846169c3565b615a1e565b90508083825260208201905060208402830185811115616a2a57616a296169ef565b5b835b81811015616a535780616a3f8882615b40565b845260208401935050602081019050616a2c565b5050509392505050565b600082601f830112616a7257616a71615a63565b5b8135616a828482602086016169f4565b91505092915050565b60008060008060808587031215616aa557616aa461599e565b5b600085013567ffffffffffffffff811115616ac357616ac26159a3565b5b616acf878288016161cd565b945050602085013567ffffffffffffffff811115616af057616aef6159a3565b5b616afc87828801615ceb565b935050604085013567ffffffffffffffff811115616b1d57616b1c6159a3565b5b616b2987828801615ceb565b925050606085013567ffffffffffffffff811115616b4a57616b496159a3565b5b616b5687828801616a5d565b91505092959194509250565b60006040830160008301518482036000860152616b7f8282615f5e565b91505060208301518482036020860152616b998282615f5e565b9150508091505092915050565b60006040820190508181036000830152616bc08185616b62565b90508181036020830152616bd48184616b62565b90509392505050565b6000616bf0616beb84615a6d565b615a1e565b905082815260208101848484011115616c0c57616c0b615a68565b5b616c17848285615e8d565b509392505050565b600082601f830112616c3457616c33615a63565b5b8151616c44848260208601616bdd565b91505092915050565b600081519050616c5c81615b29565b92915050565b600081519050616c7181615b5f565b92915050565b600060608284031215616c8d57616c8c6159a8565b5b616c976060615a1e565b9050600082015167ffffffffffffffff811115616cb757616cb6615a39565b5b616cc384828501616c1f565b6000830152506020616cd784828501616c4d565b6020830152506040616ceb84828501616c62565b60408301525092915050565b600060208284031215616d0d57616d0c6159a8565b5b616d176020615a1e565b9050600082015167ffffffffffffffff811115616d3757616d36615a39565b5b616d4384828501616c77565b60008301525092915050565b600060408284031215616d6557616d646159a8565b5b616d6f6040615a1e565b9050600082015167ffffffffffffffff811115616d8f57616d8e615a39565b5b616d9b84828501616cf7565b600083015250602082015167ffffffffffffffff811115616dbf57616dbe615a39565b5b616dcb84828501616cf7565b60208301525092915050565b600060208284031215616ded57616dec61599e565b5b600082015167ffffffffffffffff811115616e0b57616e0a6159a3565b5b616e1784828501616d4f565b91505092915050565b60006020820190508181036000830152616e3a8184616b62565b905092915050565b600060208284031215616e5857616e5761599e565b5b6000616e6684828501616c4d565b91505092915050565b600060208284031215616e8557616e8461599e565b5b600082015167ffffffffffffffff811115616ea357616ea26159a3565b5b616eaf84828501616cf7565b91505092915050565b60006020830160008301518482036000860152616ed58282615f0e565b9150508091505092915050565b60006040820190508181036000830152616efc8185616eb8565b90508181036020830152616f108184616eb8565b90509392505050565b60006060820190508181036000830152616f338186616b62565b90508181036020830152616f478185616b62565b90508181036040830152616f5b8184616b62565b9050949350505050565b600060608284031215616f7b57616f7a6159a8565b5b616f856060615a1e565b9050600082015167ffffffffffffffff811115616fa557616fa4615a39565b5b616fb184828501616d4f565b600083015250602082015167ffffffffffffffff811115616fd557616fd4615a39565b5b616fe184828501616d4f565b602083015250604082015167ffffffffffffffff81111561700557617004615a39565b5b61701184828501616d4f565b60408301525092915050565b6000602082840312156170335761703261599e565b5b600082015167ffffffffffffffff811115617051576170506159a3565b5b61705d84828501616f65565b91505092915050565b600060608301600083015184820360008601526170838282615f88565b9150506020830151848203602086015261709d8282615f88565b915050604083015184820360408601526170b78282615f88565b9150508091505092915050565b600060408201905081810360008301526170de8185617066565b905081810360208301526170f28184617066565b90509392505050565b600060408284031215617111576171106159a8565b5b61711b6040615a1e565b9050600082015167ffffffffffffffff81111561713b5761713a615a39565b5b61714784828501616f65565b600083015250602082015167ffffffffffffffff81111561716b5761716a615a39565b5b61717784828501616f65565b60208301525092915050565b6000602082840312156171995761719861599e565b5b600082015167ffffffffffffffff8111156171b7576171b66159a3565b5b6171c3848285016170fb565b91505092915050565b600060408201905081810360008301526171e681856162e1565b905081810360208301526171fa81846162e1565b90509392505050565b600081519050617212816164d0565b92915050565b60006060828403121561722e5761722d6159a8565b5b6172386060615a1e565b9050600061724884828501617203565b600083015250602082015167ffffffffffffffff81111561726c5761726b615a39565b5b617278848285016170fb565b602083015250604082015167ffffffffffffffff81111561729c5761729b615a39565b5b6172a8848285016170fb565b60408301525092915050565b6000602082840312156172ca576172c961599e565b5b600082015167ffffffffffffffff8111156172e8576172e76159a3565b5b6172f484828501617218565b91505092915050565b7f4e487b7100000000000000000000000000000000000000000000000000000000600052602260045260246000fd5b6000600282049050600182168061734457607f821691505b602082108103617357576173566172fd565b5b50919050565b600082825260208201905092915050565b60008190508160005260206000209050919050565b600081546173908161732c565b61739a818661735d565b945060018216600081146173b557600181146173cb576173fe565b60ff1983168652811515602002860193506173fe565b6173d48561736e565b60005b838110156173f6578154818901526001820191506020810190506173d7565b808801955050505b50505092915050565b60008160001c9050919050565b600060ff82169050919050565b600061743461742f83617407565b617414565b9050919050565b61744481615b1d565b82525050565b6000819050919050565b600061746761746283617407565b61744a565b9050919050565b61747781615b55565b82525050565b6000606083016000808401858303600087015261749a8382617383565b925050600184015490506174ad81617421565b6174ba602087018261743b565b50600284015490506174cb81617454565b6174d8604087018261746e565b50819250505092915050565b6000819050919050565b6000819050919050565b600061751361750e617509846174e4565b6174ee565b615b55565b9050919050565b617523816174f8565b82525050565b60006040820190508181036000830152617543818561747d565b9050617552602083018461751a565b9392505050565b60006020828403121561756f5761756e61599e565b5b600082015167ffffffffffffffff81111561758d5761758c6159a3565b5b61759984828501616c77565b91505092915050565b60006175ad82615e71565b6175b7818561735d565b93506175c7818560208601615e8d565b6175d0816159ad565b840191505092915050565b600060608301600083015184820360008601526175f882826175a2565b915050602083015161760d602086018261743b565b506040830151617620604086018261746e565b508091505092915050565b6000604082019050818103600083015261764581856175db565b9050818103602083015261765981846175db565b90509392505050565b6000819050919050565b600061768761768261767d84617662565b6174ee565b615b55565b9050919050565b6176978161766c565b82525050565b600060408201905081810360008301526176b7818561747d565b90506176c6602083018461768e565b9392505050565b600082825260208201905092915050565b7e0f686b3d807d01c0bd38c3195c899ed3cde88eeb996ca394506632528d6a9a60008201527f2f230063cf081517f68f7764c28b6f8ae5a72bce8d63cb9f827eca0ba621315b60208201527f2076995003fc77a17988f8761bdc51dc2378b9039096d1b767f17fcbde78376560408201527f915c97f36c6f18212ed0b283ed237db421d160aeb6a1e79983774940996754c860608201527fc71a2629b0dea236905ce937335d5b68fa9912aae208ccf1e516c3f438e3ba79608082015250565b60006177ab60a0836176cd565b91506177b6826176de565b60a082019050919050565b6177ca81615b1d565b82525050565b600060408201905081810360008301526177e98161779e565b90506177f860208301846177c1565b92915050565b6000604082019050818103600083015261781881856162e1565b9050818103602083015261782c81846165da565b90509392505050565b7fd201000000010000000000000000000000000000000000000000000000000000600082015250565b600061786b6008836176cd565b915061787682617835565b602082019050919050565b6000604082019050818103600083015261789a8161785e565b90506178a960208301846177c1565b92915050565b600060208201905081810360008301526178c981846175db565b905092915050565b60006178e46178df846169c3565b615a1e565b90508083825260208201905060208402830185811115617907576179066169ef565b5b835b81811015617930578061791c8882616c4d565b845260208401935050602081019050617909565b5050509392505050565b600082601f83011261794f5761794e615a63565b5b815161795f8482602086016178d1565b91505092915050565b60006020828403121561797e5761797d61599e565b5b600082015167ffffffffffffffff81111561799c5761799b6159a3565b5b6179a88482850161793a565b91505092915050565b600060208201905081810360008301526179cb8184616eb8565b905092915050565b600081546179e08161732c565b6179ea8186615e7c565b94506001821660008114617a055760018114617a1b57617a4e565b60ff198316865281151560200286019350617a4e565b617a248561736e565b60005b83811015617a4657815481890152600182019150602081019050617a27565b808801955050505b50505092915050565b60006060830160008084018583036000870152617a7483826179d3565b92505060018401549050617a8781617421565b617a946020870182615ef0565b5060028401549050617aa581617454565b617ab26040870182615eff565b50819250505092915050565b60006040820190508181036000830152617ad88185617a57565b90508181036020830152617aec818461612f565b90509392505050565b600081519050617b04816161a8565b92915050565b600060608284031215617b2057617b1f6159a8565b5b617b2a6060615a1e565b90506000617b3a84828501617af5565b600083015250602082015167ffffffffffffffff811115617b5e57617b5d615a39565b5b617b6a84828501616cf7565b602083015250604082015167ffffffffffffffff811115617b8e57617b8d615a39565b5b617b9a84828501616cf7565b60408301525092915050565b600060208284031215617bbc57617bbb61599e565b5b600082015167ffffffffffffffff811115617bda57617bd96159a3565b5b617be684828501617b0a565b91505092915050565b60006040820190508181036000830152617c098185617a57565b90508181036020830152617c1d81846167e2565b90509392505050565b600081519050617c3581615a3e565b92915050565b600060608284031215617c5157617c506159a8565b5b617c5b6060615a1e565b90506000617c6b84828501617c26565b600083015250602082015167ffffffffffffffff811115617c8f57617c8e615a39565b5b617c9b84828501616d4f565b602083015250604082015167ffffffffffffffff811115617cbf57617cbe615a39565b5b617ccb84828501616d4f565b60408301525092915050565b600060208284031215617ced57617cec61599e565b5b600082015167ffffffffffffffff811115617d0b57617d0a6159a3565b5b617d1784828501617c3b565b91505092915050565b7f4e487b7100000000000000000000000000000000000000000000000000000000600052603260045260246000fd5b60006040820190508181036000830152617d6981856167e2565b90508181036020830152617d7d81846167e2565b9050939250505056fea264697066735822122012f4e2a7a72dc6bbba1edb2cc1e0cc000f043019b58ba921c609a039b8c19bb464736f6c634300081b0033608060405234801561001057600080fd5b5060405161368838038061368883398181016040528101906100329190610444565b806000808260000151905060208101519150600082036101085773__$f247edaf7ce9d2535b3fa74e71bc5a3f7a$__6308d78767846040518263ffffffff1660e01b81526004016100839190610550565b602060405180830381865af41580156100a0573d6000803e3d6000fd5b505050506040513d601f19601f820116820180604052508101906100c49190610572565b610103576040517f08c379a00000000000000000000000000000000000000000000000000000000081526004016100fa906105fc565b60405180910390fd5b610189565b6000602084600001515161011c919061064b565b148015610149575060016101006001856040015161013a91906106ab565b610144919061064b565b83901c145b610188576040517f08c379a000000000000000000000000000000000000000000000000000000000815260040161017f9061072b565b60405180910390fd5b5b836000808201518160000190816101a09190610957565b5060208201518160010160006101000a81548160ff0219169083151502179055506040820151816002015590505050505050610a29565b6000604051905090565b600080fd5b600080fd5b600080fd5b6000601f19601f8301169050919050565b7f4e487b7100000000000000000000000000000000000000000000000000000000600052604160045260246000fd5b610239826101f0565b810181811067ffffffffffffffff8211171561025857610257610201565b5b80604052505050565b600061026b6101d7565b90506102778282610230565b919050565b600080fd5b600080fd5b600080fd5b600067ffffffffffffffff8211156102a6576102a5610201565b5b6102af826101f0565b9050602081019050919050565b60005b838110156102da5780820151818401526020810190506102bf565b60008484015250505050565b60006102f96102f48461028b565b610261565b90508281526020810184848401111561031557610314610286565b5b6103208482856102bc565b509392505050565b600082601f83011261033d5761033c610281565b5b815161034d8482602086016102e6565b91505092915050565b60008115159050919050565b61036b81610356565b811461037657600080fd5b50565b60008151905061038881610362565b92915050565b6000819050919050565b6103a18161038e565b81146103ac57600080fd5b50565b6000815190506103be81610398565b92915050565b6000606082840312156103da576103d96101eb565b5b6103e46060610261565b9050600082015167ffffffffffffffff8111156104045761040361027c565b5b61041084828501610328565b600083015250602061042484828501610379565b6020830152506040610438848285016103af565b60408301525092915050565b60006020828403121561045a576104596101e1565b5b600082015167ffffffffffffffff811115610478576104776101e6565b5b610484848285016103c4565b91505092915050565b600081519050919050565b600082825260208201905092915050565b60006104b48261048d565b6104be8185610498565b93506104ce8185602086016102bc565b6104d7816101f0565b840191505092915050565b6104eb81610356565b82525050565b6104fa8161038e565b82525050565b6000606083016000830151848203600086015261051d82826104a9565b915050602083015161053260208601826104e2565b50604083015161054560408601826104f1565b508091505092915050565b6000602082019050818103600083015261056a8184610500565b905092915050565b600060208284031215610588576105876101e1565b5b600061059684828501610379565b91505092915050565b600082825260208201905092915050565b7f4269674e756d626572206e6f6e206e756c6c6f2e000000000000000000000000600082015250565b60006105e660148361059f565b91506105f1826105b0565b602082019050919050565b60006020820190508181036000830152610615816105d9565b9050919050565b7f4e487b7100000000000000000000000000000000000000000000000000000000600052601260045260246000fd5b60006106568261038e565b91506106618361038e565b9250826106715761067061061c565b5b828206905092915050565b7f4e487b7100000000000000000000000000000000000000000000000000000000600052601160045260246000fd5b60006106b68261038e565b91506106c18361038e565b92508282039050818111156106d9576106d861067c565b5b92915050565b7f4269674e756d626572206e6f6e2076616c69646f2e0000000000000000000000600082015250565b600061071560158361059f565b9150610720826106df565b602082019050919050565b6000602082019050818103600083015261074481610708565b9050919050565b7f4e487b7100000000000000000000000000000000000000000000000000000000600052602260045260246000fd5b6000600282049050600182168061079257607f821691505b6020821081036107a5576107a461074b565b5b50919050565b60008190508160005260206000209050919050565b60006020601f8301049050919050565b600082821b905092915050565b60006008830261080d7fffffffffffffffffffffffffffffffffffffffffffffffffffffffffffffffff826107d0565b61081786836107d0565b95508019841693508086168417925050509392505050565b6000819050919050565b600061085461084f61084a8461038e565b61082f565b61038e565b9050919050565b6000819050919050565b61086e83610839565b61088261087a8261085b565b8484546107dd565b825550505050565b600090565b61089761088a565b6108a2818484610865565b505050565b5b818110156108c6576108bb60008261088f565b6001810190506108a8565b5050565b601f82111561090b576108dc816107ab565b6108e5846107c0565b810160208510156108f4578190505b610908610900856107c0565b8301826108a7565b50505b505050565b600082821c905092915050565b600061092e60001984600802610910565b1980831691505092915050565b6000610947838361091d565b9150826002028217905092915050565b6109608261048d565b67ffffffffffffffff81111561097957610978610201565b5b610983825461077a565b61098e8282856108ca565b600060209050601f8311600181146109c157600084156109af578287015190505b6109b9858261093b565b865550610a21565b601f1984166109cf866107ab565b60005b828110156109f7578489015182556001820191506020850194506020810190506109d2565b86831015610a145784890151610a10601f89168261091d565b8355505b6001600288020188555050505b505050505050565b612c5080610a386000396000f3fe608060405234801561001057600080fd5b50600436106100ea5760003560e01c8063a672d1001161008c578063bc1b392d11610066578063bc1b392d14610287578063d4d45554146102a5578063f2388acb146102d5578063fb2bedad146102f3576100ea565b8063a672d100146101f7578063a9a52e7e14610227578063b5e2832514610257576100ea565b806345caa117116100c857806345caa1171461017f5780635fdf05d71461019d578063901717d1146101bb578063a1fca2b6146101d9576100ea565b8063085eb2b9146100ef57806312f7411b1461011f578063170147421461014f575b600080fd5b61010960048036038101906101049190612159565b610323565b60405161011691906122b9565b60405180910390f35b610139600480360381019061013491906122db565b610491565b60405161014691906122b9565b60405180910390f35b61016960048036038101906101649190612353565b61076f565b60405161017691906122b9565b60405180910390f35b610187610966565b60405161019491906122b9565b60405180910390f35b6101a56109f3565b6040516101b291906122b9565b60405180910390f35b6101c3610a80565b6040516101d091906122b9565b60405180910390f35b6101e1610b0d565b6040516101ee91906122b9565b60405180910390f35b610211600480360381019061020c9190612159565b610b9a565b60405161021e91906122b9565b60405180910390f35b610241600480360381019061023c91906122db565b610fb9565b60405161024e91906122b9565b60405180910390f35b610271600480360381019061026c91906122db565b611314565b60405161027e91906122b9565b60405180910390f35b61028f611672565b60405161029c91906122b9565b60405180910390f35b6102bf60048036038101906102ba91906122db565b6116ff565b6040516102cc91906123ab565b60405180910390f35b6102dd611a47565b6040516102ea9190612416565b60405180910390f35b61030d600480360381019061030891906122db565b611b18565b60405161031a91906122b9565b60405180910390f35b61032b611e73565b81600001516000808260000151905060208101519150600082036104055773__$f247edaf7ce9d2535b3fa74e71bc5a3f7a$__6308d78767846040518263ffffffff1660e01b815260040161038091906124f0565b602060405180830381865af415801561039d573d6000803e3d6000fd5b505050506040513d601f19601f820116820180604052508101906103c19190612527565b610400576040517f08c379a00000000000000000000000000000000000000000000000000000000081526004016103f7906125b1565b60405180910390fd5b610486565b600060208460000151516104199190612600565b14801561044657506001610100600185604001516104379190612660565b6104419190612600565b83901c145b610485576040517f08c379a000000000000000000000000000000000000000000000000000000000815260040161047c906126e0565b60405180910390fd5b5b849350505050919050565b610499611e73565b82600001516000808260000151905060208101519150600082036105735773__$f247edaf7ce9d2535b3fa74e71bc5a3f7a$__6308d78767846040518263ffffffff1660e01b81526004016104ee91906124f0565b602060405180830381865af415801561050b573d6000803e3d6000fd5b505050506040513d601f19601f8201168201806040525081019061052f9190612527565b61056e576040517f08c379a0000000000000000000000000000000000000000000000000000000008152600401610565906125b1565b60405180910390fd5b6105f4565b600060208460000151516105879190612600565b1480156105b457506001610100600185604001516105a59190612660565b6105af9190612600565b83901c145b6105f3576040517f08c379a00000000000000000000000000000000000000000000000000000000081526004016105ea906126e0565b60405180910390fd5b5b84600001516000808260000151905060208101519150600082036106ce5773__$f247edaf7ce9d2535b3fa74e71bc5a3f7a$__6308d78767846040518263ffffffff1660e01b815260040161064991906124f0565b602060405180830381865af4158015610666573d6000803e3d6000fd5b505050506040513d601f19601f8201168201806040525081019061068a9190612527565b6106c9576040517f08c379a00000000000000000000000000000000000000000000000000000000081526004016106c0906125b1565b60405180910390fd5b61074f565b600060208460000151516106e29190612600565b14801561070f57506001610100600185604001516107009190612660565b61070a9190612600565b83901c145b61074e576040517f08c379a0000000000000000000000000000000000000000000000000000000008152600401610745906126e0565b60405180910390fd5b5b6107618961075c8a610b9a565b611314565b965050505050505092915050565b610777611e73565b8160008082600001519050602081015191506000820361084d5773__$f247edaf7ce9d2535b3fa74e71bc5a3f7a$__6308d78767846040518263ffffffff1660e01b81526004016107c891906124f0565b602060405180830381865af41580156107e5573d6000803e3d6000fd5b505050506040513d601f19601f820116820180604052508101906108099190612527565b610848576040517f08c379a000000000000000000000000000000000000000000000000000000000815260040161083f906125b1565b60405180910390fd5b6108ce565b600060208460000151516108619190612600565b14801561088e575060016101006001856040015161087f9190612660565b6108899190612600565b83901c145b6108cd576040517f08c379a00000000000000000000000000000000000000000000000000000000081526004016108c4906126e0565b60405180910390fd5b5b604051806020016040528073__$f247edaf7ce9d2535b3fa74e71bc5a3f7a$__637afa85538860006040518363ffffffff1660e01b81526004016109139291906128b8565b600060405180830381865af4158015610930573d6000803e3d6000fd5b505050506040513d6000823e3d601f19601f8201168201806040525081019061095991906129f4565b8152509350505050919050565b61096e611e73565b604051806020016040528073__$f247edaf7ce9d2535b3fa74e71bc5a3f7a$__6345caa1176040518163ffffffff1660e01b8152600401600060405180830381865af41580156109c2573d6000803e3d6000fd5b505050506040513d6000823e3d601f19601f820116820180604052508101906109eb91906129f4565b815250905090565b6109fb611e73565b604051806020016040528073__$f247edaf7ce9d2535b3fa74e71bc5a3f7a$__635fdf05d76040518163ffffffff1660e01b8152600401600060405180830381865af4158015610a4f573d6000803e3d6000fd5b505050506040513d6000823e3d601f19601f82011682018060405250810190610a7891906129f4565b815250905090565b610a88611e73565b604051806020016040528073__$f247edaf7ce9d2535b3fa74e71bc5a3f7a$__63901717d16040518163ffffffff1660e01b8152600401600060405180830381865af4158015610adc573d6000803e3d6000fd5b505050506040513d6000823e3d601f19601f82011682018060405250810190610b0591906129f4565b815250905090565b610b15611e73565b604051806020016040528073__$f247edaf7ce9d2535b3fa74e71bc5a3f7a$__63a1fca2b66040518163ffffffff1660e01b8152600401600060405180830381865af4158015610b69573d6000803e3d6000fd5b505050506040513d6000823e3d601f19601f82011682018060405250810190610b9291906129f4565b815250905090565b610ba2611e73565b8160000151600080826000015190506020810151915060008203610c7c5773__$f247edaf7ce9d2535b3fa74e71bc5a3f7a$__6308d78767846040518263ffffffff1660e01b8152600401610bf791906124f0565b602060405180830381865af4158015610c14573d6000803e3d6000fd5b505050506040513d601f19601f82011682018060405250810190610c389190612527565b610c77576040517f08c379a0000000000000000000000000000000000000000000000000000000008152600401610c6e906125b1565b60405180910390fd5b610cfd565b60006020846000015151610c909190612600565b148015610cbd5750600161010060018560400151610cae9190612660565b610cb89190612600565b83901c145b610cfc576040517f08c379a0000000000000000000000000000000000000000000000000000000008152600401610cf3906126e0565b60405180910390fd5b5b600073__$f247edaf7ce9d2535b3fa74e71bc5a3f7a$__63bc39804e876000015173__$f247edaf7ce9d2535b3fa74e71bc5a3f7a$__63bc1b392d6040518163ffffffff1660e01b8152600401600060405180830381865af4158015610d67573d6000803e3d6000fd5b505050506040513d6000823e3d601f19601f82011682018060405250810190610d9091906129f4565b60006040518463ffffffff1660e01b8152600401610db093929190612a4c565b602060405180830381865af4158015610dcd573d6000803e3d6000fd5b505050506040513d601f19601f82011682018060405250810190610df19190612ac7565b03610e31576040517f08c379a0000000000000000000000000000000000000000000000000000000008152600401610e2890612b40565b60405180910390fd5b610faf73__$f247edaf7ce9d2535b3fa74e71bc5a3f7a$__630e7671f2876000015173__$f247edaf7ce9d2535b3fa74e71bc5a3f7a$__630a4638fd600073__$f247edaf7ce9d2535b3fa74e71bc5a3f7a$__635fdf05d76040518163ffffffff1660e01b8152600401600060405180830381865af4158015610eb8573d6000803e3d6000fd5b505050506040513d6000823e3d601f19601f82011682018060405250810190610ee191906129f4565b6040518363ffffffff1660e01b8152600401610efe929190612b60565b600060405180830381865af4158015610f1b573d6000803e3d6000fd5b505050506040513d6000823e3d601f19601f82011682018060405250810190610f4491906129f4565b60006040518463ffffffff1660e01b8152600401610f6493929190612b97565b600060405180830381865af4158015610f81573d6000803e3d6000fd5b505050506040513d6000823e3d601f19601f82011682018060405250810190610faa91906129f4565b61076f565b9350505050919050565b610fc1611e73565b826000015160008082600001519050602081015191506000820361109b5773__$f247edaf7ce9d2535b3fa74e71bc5a3f7a$__6308d78767846040518263ffffffff1660e01b815260040161101691906124f0565b602060405180830381865af4158015611033573d6000803e3d6000fd5b505050506040513d601f19601f820116820180604052508101906110579190612527565b611096576040517f08c379a000000000000000000000000000000000000000000000000000000000815260040161108d906125b1565b60405180910390fd5b61111c565b600060208460000151516110af9190612600565b1480156110dc57506001610100600185604001516110cd9190612660565b6110d79190612600565b83901c145b61111b576040517f08c379a0000000000000000000000000000000000000000000000000000000008152600401611112906126e0565b60405180910390fd5b5b84600001516000808260000151905060208101519150600082036111f65773__$f247edaf7ce9d2535b3fa74e71bc5a3f7a$__6308d78767846040518263ffffffff1660e01b815260040161117191906124f0565b602060405180830381865af415801561118e573d6000803e3d6000fd5b505050506040513d601f19601f820116820180604052508101906111b29190612527565b6111f1576040517f08c379a00000000000000000000000000000000000000000000000000000000081526004016111e8906125b1565b60405180910390fd5b611277565b6000602084600001515161120a9190612600565b14801561123757506001610100600185604001516112289190612660565b6112329190612600565b83901c145b611276576040517f08c379a000000000000000000000000000000000000000000000000000000000815260040161126d906126e0565b60405180910390fd5b5b61130673__$f247edaf7ce9d2535b3fa74e71bc5a3f7a$__6398cdcfb28b600001518b600001516040518363ffffffff1660e01b81526004016112bb929190612be3565b600060405180830381865af41580156112d8573d6000803e3d6000fd5b505050506040513d6000823e3d601f19601f8201168201806040525081019061130191906129f4565b61076f565b965050505050505092915050565b61131c611e73565b82600001516000808260000151905060208101519150600082036113f65773__$f247edaf7ce9d2535b3fa74e71bc5a3f7a$__6308d78767846040518263ffffffff1660e01b815260040161137191906124f0565b602060405180830381865af415801561138e573d6000803e3d6000fd5b505050506040513d601f19601f820116820180604052508101906113b29190612527565b6113f1576040517f08c379a00000000000000000000000000000000000000000000000000000000081526004016113e8906125b1565b60405180910390fd5b611477565b6000602084600001515161140a9190612600565b14801561143757506001610100600185604001516114289190612660565b6114329190612600565b83901c145b611476576040517f08c379a000000000000000000000000000000000000000000000000000000000815260040161146d906126e0565b60405180910390fd5b5b84600001516000808260000151905060208101519150600082036115515773__$f247edaf7ce9d2535b3fa74e71bc5a3f7a$__6308d78767846040518263ffffffff1660e01b81526004016114cc91906124f0565b602060405180830381865af41580156114e9573d6000803e3d6000fd5b505050506040513d601f19601f8201168201806040525081019061150d9190612527565b61154c576040517f08c379a0000000000000000000000000000000000000000000000000000000008152600401611543906125b1565b60405180910390fd5b6115d2565b600060208460000151516115659190612600565b14801561159257506001610100600185604001516115839190612660565b61158d9190612600565b83901c145b6115d1576040517f08c379a00000000000000000000000000000000000000000000000000000000081526004016115c8906126e0565b60405180910390fd5b5b61166473__$f247edaf7ce9d2535b3fa74e71bc5a3f7a$__63a5d4ca5b8b600001518b6000015160006040518463ffffffff1660e01b815260040161161993929190612b97565b600060405180830381865af4158015611636573d6000803e3d6000fd5b505050506040513d6000823e3d601f19601f8201168201806040525081019061165f91906129f4565b61076f565b965050505050505092915050565b61167a611e73565b604051806020016040528073__$f247edaf7ce9d2535b3fa74e71bc5a3f7a$__63bc1b392d6040518163ffffffff1660e01b8152600401600060405180830381865af41580156116ce573d6000803e3d6000fd5b505050506040513d6000823e3d601f19601f820116820180604052508101906116f791906129f4565b815250905090565b600082600001516000808260000151905060208101519150600082036117db5773__$f247edaf7ce9d2535b3fa74e71bc5a3f7a$__6308d78767846040518263ffffffff1660e01b815260040161175691906124f0565b602060405180830381865af4158015611773573d6000803e3d6000fd5b505050506040513d601f19601f820116820180604052508101906117979190612527565b6117d6576040517f08c379a00000000000000000000000000000000000000000000000000000000081526004016117cd906125b1565b60405180910390fd5b61185c565b600060208460000151516117ef9190612600565b14801561181c575060016101006001856040015161180d9190612660565b6118179190612600565b83901c145b61185b576040517f08c379a0000000000000000000000000000000000000000000000000000000008152600401611852906126e0565b60405180910390fd5b5b84600001516000808260000151905060208101519150600082036119365773__$f247edaf7ce9d2535b3fa74e71bc5a3f7a$__6308d78767846040518263ffffffff1660e01b81526004016118b191906124f0565b602060405180830381865af41580156118ce573d6000803e3d6000fd5b505050506040513d601f19601f820116820180604052508101906118f29190612527565b611931576040517f08c379a0000000000000000000000000000000000000000000000000000000008152600401611928906125b1565b60405180910390fd5b6119b7565b6000602084600001515161194a9190612600565b14801561197757506001610100600185604001516119689190612660565b6119729190612600565b83901c145b6119b6576040517f08c379a00000000000000000000000000000000000000000000000000000000081526004016119ad906126e0565b60405180910390fd5b5b73__$f247edaf7ce9d2535b3fa74e71bc5a3f7a$__63cd8e0ef78a600001518a600001516040518363ffffffff1660e01b81526004016119f8929190612be3565b602060405180830381865af4158015611a15573d6000803e3d6000fd5b505050506040513d601f19601f82011682018060405250810190611a399190612527565b965050505050505092915050565b611a4f611e8c565b6000604051806060016040529081600082018054611a6c9061272f565b80601f0160208091040260200160405190810160405280929190818152602001828054611a989061272f565b8015611ae55780601f10611aba57610100808354040283529160200191611ae5565b820191906000526020600020905b815481529060010190602001808311611ac857829003601f168201915b505050505081526020016001820160009054906101000a900460ff16151515158152602001600282015481525050905090565b611b20611e73565b8260000151600080826000015190506020810151915060008203611bfa5773__$f247edaf7ce9d2535b3fa74e71bc5a3f7a$__6308d78767846040518263ffffffff1660e01b8152600401611b7591906124f0565b602060405180830381865af4158015611b92573d6000803e3d6000fd5b505050506040513d601f19601f82011682018060405250810190611bb69190612527565b611bf5576040517f08c379a0000000000000000000000000000000000000000000000000000000008152600401611bec906125b1565b60405180910390fd5b611c7b565b60006020846000015151611c0e9190612600565b148015611c3b5750600161010060018560400151611c2c9190612660565b611c369190612600565b83901c145b611c7a576040517f08c379a0000000000000000000000000000000000000000000000000000000008152600401611c71906126e0565b60405180910390fd5b5b8460000151600080826000015190506020810151915060008203611d555773__$f247edaf7ce9d2535b3fa74e71bc5a3f7a$__6308d78767846040518263ffffffff1660e01b8152600401611cd091906124f0565b602060405180830381865af4158015611ced573d6000803e3d6000fd5b505050506040513d601f19601f82011682018060405250810190611d119190612527565b611d50576040517f08c379a0000000000000000000000000000000000000000000000000000000008152600401611d47906125b1565b60405180910390fd5b611dd6565b60006020846000015151611d699190612600565b148015611d965750600161010060018560400151611d879190612660565b611d919190612600565b83901c145b611dd5576040517f08c379a0000000000000000000000000000000000000000000000000000000008152600401611dcc906126e0565b60405180910390fd5b5b611e6573__$f247edaf7ce9d2535b3fa74e71bc5a3f7a$__630a4638fd8b600001518b600001516040518363ffffffff1660e01b8152600401611e1a929190612be3565b600060405180830381865af4158015611e37573d6000803e3d6000fd5b505050506040513d6000823e3d601f19601f82011682018060405250810190611e6091906129f4565b61076f565b965050505050505092915050565b6040518060200160405280611e86611e8c565b81525090565b604051806060016040528060608152602001600015158152602001600081525090565b6000604051905090565b600080fd5b600080fd5b600080fd5b6000601f19601f8301169050919050565b7f4e487b7100000000000000000000000000000000000000000000000000000000600052604160045260246000fd5b611f1182611ec8565b810181811067ffffffffffffffff82111715611f3057611f2f611ed9565b5b80604052505050565b6000611f43611eaf565b9050611f4f8282611f08565b919050565b600080fd5b600080fd5b600080fd5b600067ffffffffffffffff821115611f7e57611f7d611ed9565b5b611f8782611ec8565b9050602081019050919050565b82818337600083830152505050565b6000611fb6611fb184611f63565b611f39565b905082815260208101848484011115611fd257611fd1611f5e565b5b611fdd848285611f94565b509392505050565b600082601f830112611ffa57611ff9611f59565b5b813561200a848260208601611fa3565b91505092915050565b60008115159050919050565b61202881612013565b811461203357600080fd5b50565b6000813590506120458161201f565b92915050565b6000819050919050565b61205e8161204b565b811461206957600080fd5b50565b60008135905061207b81612055565b92915050565b60006060828403121561209757612096611ec3565b5b6120a16060611f39565b9050600082013567ffffffffffffffff8111156120c1576120c0611f54565b5b6120cd84828501611fe5565b60008301525060206120e184828501612036565b60208301525060406120f58482850161206c565b60408301525092915050565b60006020828403121561211757612116611ec3565b5b6121216020611f39565b9050600082013567ffffffffffffffff81111561214157612140611f54565b5b61214d84828501612081565b60008301525092915050565b60006020828403121561216f5761216e611eb9565b5b600082013567ffffffffffffffff81111561218d5761218c611ebe565b5b61219984828501612101565b91505092915050565b600081519050919050565b600082825260208201905092915050565b60005b838110156121dc5780820151818401526020810190506121c1565b60008484015250505050565b60006121f3826121a2565b6121fd81856121ad565b935061220d8185602086016121be565b61221681611ec8565b840191505092915050565b61222a81612013565b82525050565b6122398161204b565b82525050565b6000606083016000830151848203600086015261225c82826121e8565b91505060208301516122716020860182612221565b5060408301516122846040860182612230565b508091505092915050565b600060208301600083015184820360008601526122ac828261223f565b9150508091505092915050565b600060208201905081810360008301526122d3818461228f565b905092915050565b600080604083850312156122f2576122f1611eb9565b5b600083013567ffffffffffffffff8111156123105761230f611ebe565b5b61231c85828601612101565b925050602083013567ffffffffffffffff81111561233d5761233c611ebe565b5b61234985828601612101565b9150509250929050565b60006020828403121561236957612368611eb9565b5b600082013567ffffffffffffffff81111561238757612386611ebe565b5b61239384828501612081565b91505092915050565b6123a581612013565b82525050565b60006020820190506123c0600083018461239c565b92915050565b600060608301600083015184820360008601526123e382826121e8565b91505060208301516123f86020860182612221565b50604083015161240b6040860182612230565b508091505092915050565b6000602082019050818103600083015261243081846123c6565b905092915050565b600082825260208201905092915050565b6000612454826121a2565b61245e8185612438565b935061246e8185602086016121be565b61247781611ec8565b840191505092915050565b61248b81612013565b82525050565b61249a8161204b565b82525050565b600060608301600083015184820360008601526124bd8282612449565b91505060208301516124d26020860182612482565b5060408301516124e56040860182612491565b508091505092915050565b6000602082019050818103600083015261250a81846124a0565b905092915050565b6000815190506125218161201f565b92915050565b60006020828403121561253d5761253c611eb9565b5b600061254b84828501612512565b91505092915050565b600082825260208201905092915050565b7f4269674e756d626572206e6f6e206e756c6c6f2e000000000000000000000000600082015250565b600061259b601483612554565b91506125a682612565565b602082019050919050565b600060208201905081810360008301526125ca8161258e565b9050919050565b7f4e487b7100000000000000000000000000000000000000000000000000000000600052601260045260246000fd5b600061260b8261204b565b91506126168361204b565b925082612626576126256125d1565b5b828206905092915050565b7f4e487b7100000000000000000000000000000000000000000000000000000000600052601160045260246000fd5b600061266b8261204b565b91506126768361204b565b925082820390508181111561268e5761268d612631565b5b92915050565b7f4269674e756d626572206e6f6e2076616c69646f2e0000000000000000000000600082015250565b60006126ca601583612554565b91506126d582612694565b602082019050919050565b600060208201905081810360008301526126f9816126bd565b9050919050565b7f4e487b7100000000000000000000000000000000000000000000000000000000600052602260045260246000fd5b6000600282049050600182168061274757607f821691505b60208210810361275a57612759612700565b5b50919050565b60008190508160005260206000209050919050565b600081546127828161272f565b61278c8186612438565b945060018216600081146127a757600181146127bd576127f0565b60ff1983168652811515602002860193506127f0565b6127c685612760565b60005b838110156127e8578154818901526001820191506020810190506127c9565b808801955050505b50505092915050565b60008160001c9050919050565b600060ff82169050919050565b6000612826612821836127f9565b612806565b9050919050565b6000819050919050565b600061284a612845836127f9565b61282d565b9050919050565b6000606083016000808401858303600087015261286e8382612775565b9250506001840154905061288181612813565b61288e6020870182612482565b506002840154905061289f81612837565b6128ac6040870182612491565b50819250505092915050565b600060408201905081810360008301526128d281856124a0565b905081810360208301526128e68184612851565b90509392505050565b60006129026128fd84611f63565b611f39565b90508281526020810184848401111561291e5761291d611f5e565b5b6129298482856121be565b509392505050565b600082601f83011261294657612945611f59565b5b81516129568482602086016128ef565b91505092915050565b60008151905061296e81612055565b92915050565b60006060828403121561298a57612989611ec3565b5b6129946060611f39565b9050600082015167ffffffffffffffff8111156129b4576129b3611f54565b5b6129c084828501612931565b60008301525060206129d484828501612512565b60208301525060406129e88482850161295f565b60408301525092915050565b600060208284031215612a0a57612a09611eb9565b5b600082015167ffffffffffffffff811115612a2857612a27611ebe565b5b612a3484828501612974565b91505092915050565b612a4681612013565b82525050565b60006060820190508181036000830152612a6681866124a0565b90508181036020830152612a7a81856124a0565b9050612a896040830184612a3d565b949350505050565b6000819050919050565b612aa481612a91565b8114612aaf57600080fd5b50565b600081519050612ac181612a9b565b92915050565b600060208284031215612add57612adc611eb9565b5b6000612aeb84828501612ab2565b91505092915050565b7f496e766572736f206469207a65726f206e6f6e20646566696e69746f2e000000600082015250565b6000612b2a601d83612554565b9150612b3582612af4565b602082019050919050565b60006020820190508181036000830152612b5981612b1d565b9050919050565b60006040820190508181036000830152612b7a8185612851565b90508181036020830152612b8e81846124a0565b90509392505050565b60006060820190508181036000830152612bb181866124a0565b90508181036020830152612bc581856124a0565b90508181036040830152612bd98184612851565b9050949350505050565b60006040820190508181036000830152612bfd81856124a0565b90508181036020830152612c1181846124a0565b9050939250505056fea2646970667358221220766112c2808dfee12a8859e7708eaf34362b8c8cb07f3be99096cab5e747827264736f6c634300081b0033608060405234801561001057600080fd5b506040516123a63803806123a6833981810160405281019061003291906100ed565b806000806101000a81548173ffffffffffffffffffffffffffffffffffffffff021916908373ffffffffffffffffffffffffffffffffffffffff1602179055505061011a565b600080fd5b600073ffffffffffffffffffffffffffffffffffffffff82169050919050565b60006100a88261007d565b9050919050565b60006100ba8261009d565b9050919050565b6100ca816100af565b81146100d557600080fd5b50565b6000815190506100e7816100c1565b92915050565b60006020828403121561010357610102610078565b5b6000610111848285016100d8565b91505092915050565b61227d806101296000396000f3fe608060405234801561001057600080fd5b50600436106100ea5760003560e01c8063901717d11161008c578063ab80cf7611610066578063ab80cf7614610287578063bc1b392d146102b7578063c700da6b146102d5578063fbb740a814610305576100ea565b8063901717d11461021b5780639d2e83f514610239578063a1fca2b614610269576100ea565b80635f6910d4116100c85780635f6910d41461016d5780635fdf05d71461019d57806364c044fe146101bb57806376cfdd66146101eb576100ea565b806307a5ecaa146100ef578063232b9e5a1461011f57806345caa1171461014f575b600080fd5b61010960048036038101906101049190611cb3565b610335565b6040516101169190611e86565b60405180910390f35b61013960048036038101906101349190611cb3565b61072f565b6040516101469190611e86565b60405180910390f35b610157610751565b6040516101649190611e86565b60405180910390f35b61018760048036038101906101829190611cb3565b61088e565b6040516101949190611e86565b60405180910390f35b6101a56109f8565b6040516101b29190611e86565b60405180910390f35b6101d560048036038101906101d09190611ea8565b610b35565b6040516101e29190611e86565b60405180910390f35b61020560048036038101906102009190611ef1565b61105e565b6040516102129190611e86565b60405180910390f35b610223611115565b6040516102309190611e86565b60405180910390f35b610253600480360381019061024e9190611ea8565b611252565b6040516102609190611e86565b60405180910390f35b6102716113bb565b60405161027e9190611e86565b60405180910390f35b6102a1600480360381019061029c9190611cb3565b6114f8565b6040516102ae9190611f49565b60405180910390f35b6102bf611653565b6040516102cc9190611e86565b60405180910390f35b6102ef60048036038101906102ea9190611f64565b611790565b6040516102fc9190611e86565b60405180910390f35b61031f600480360381019061031a9190611cb3565b6117b5565b60405161032c9190611e86565b60405180910390f35b61033d61191f565b61072760008054906101000a900473ffffffffffffffffffffffffffffffffffffffff1673ffffffffffffffffffffffffffffffffffffffff1663fb2bedad60008054906101000a900473ffffffffffffffffffffffffffffffffffffffff1673ffffffffffffffffffffffffffffffffffffffff1663b5e28325876000015187600001516040518363ffffffff1660e01b81526004016103df929190612006565b600060405180830381865afa1580156103fc573d6000803e3d6000fd5b505050506040513d6000823e3d601f19601f8201168201806040525081019061042591906121af565b60008054906101000a900473ffffffffffffffffffffffffffffffffffffffff1673ffffffffffffffffffffffffffffffffffffffff1663b5e28325886020015188602001516040518363ffffffff1660e01b8152600401610488929190612006565b600060405180830381865afa1580156104a5573d6000803e3d6000fd5b505050506040513d6000823e3d601f19601f820116820180604052508101906104ce91906121af565b6040518363ffffffff1660e01b81526004016104eb929190612006565b600060405180830381865afa158015610508573d6000803e3d6000fd5b505050506040513d6000823e3d601f19601f8201168201806040525081019061053191906121af565b60008054906101000a900473ffffffffffffffffffffffffffffffffffffffff1673ffffffffffffffffffffffffffffffffffffffff1663a9a52e7e60008054906101000a900473ffffffffffffffffffffffffffffffffffffffff1673ffffffffffffffffffffffffffffffffffffffff1663b5e28325886000015188602001516040518363ffffffff1660e01b81526004016105d0929190612006565b600060405180830381865afa1580156105ed573d6000803e3d6000fd5b505050506040513d6000823e3d601f19601f8201168201806040525081019061061691906121af565b60008054906101000a900473ffffffffffffffffffffffffffffffffffffffff1673ffffffffffffffffffffffffffffffffffffffff1663b5e28325896020015189600001516040518363ffffffff1660e01b8152600401610679929190612006565b600060405180830381865afa158015610696573d6000803e3d6000fd5b505050506040513d6000823e3d601f19601f820116820180604052508101906106bf91906121af565b6040518363ffffffff1660e01b81526004016106dc929190612006565b600060405180830381865afa1580156106f9573d6000803e3d6000fd5b505050506040513d6000823e3d601f19601f8201168201806040525081019061072291906121af565b611790565b905092915050565b61073761191f565b6107498361074484610b35565b610335565b905092915050565b61075961191f565b61088960008054906101000a900473ffffffffffffffffffffffffffffffffffffffff1673ffffffffffffffffffffffffffffffffffffffff166345caa1176040518163ffffffff1660e01b8152600401600060405180830381865afa1580156107c7573d6000803e3d6000fd5b505050506040513d6000823e3d601f19601f820116820180604052508101906107f091906121af565b60008054906101000a900473ffffffffffffffffffffffffffffffffffffffff1673ffffffffffffffffffffffffffffffffffffffff1663bc1b392d6040518163ffffffff1660e01b8152600401600060405180830381865afa15801561085b573d6000803e3d6000fd5b505050506040513d6000823e3d601f19601f8201168201806040525081019061088491906121af565b611790565b905090565b61089661191f565b6109f060008054906101000a900473ffffffffffffffffffffffffffffffffffffffff1673ffffffffffffffffffffffffffffffffffffffff1663fb2bedad856000015185600001516040518363ffffffff1660e01b81526004016108fc929190612006565b600060405180830381865afa158015610919573d6000803e3d6000fd5b505050506040513d6000823e3d601f19601f8201168201806040525081019061094291906121af565b60008054906101000a900473ffffffffffffffffffffffffffffffffffffffff1673ffffffffffffffffffffffffffffffffffffffff1663fb2bedad866020015186602001516040518363ffffffff1660e01b81526004016109a5929190612006565b600060405180830381865afa1580156109c2573d6000803e3d6000fd5b505050506040513d6000823e3d601f19601f820116820180604052508101906109eb91906121af565b611790565b905092915050565b610a0061191f565b610b3060008054906101000a900473ffffffffffffffffffffffffffffffffffffffff1673ffffffffffffffffffffffffffffffffffffffff16635fdf05d76040518163ffffffff1660e01b8152600401600060405180830381865afa158015610a6e573d6000803e3d6000fd5b505050506040513d6000823e3d601f19601f82011682018060405250810190610a9791906121af565b60008054906101000a900473ffffffffffffffffffffffffffffffffffffffff1673ffffffffffffffffffffffffffffffffffffffff1663bc1b392d6040518163ffffffff1660e01b8152600401600060405180830381865afa158015610b02573d6000803e3d6000fd5b505050506040513d6000823e3d601f19601f82011682018060405250810190610b2b91906121af565b611790565b905090565b610b3d61191f565b60008060009054906101000a900473ffffffffffffffffffffffffffffffffffffffff1673ffffffffffffffffffffffffffffffffffffffff1663a672d10060008054906101000a900473ffffffffffffffffffffffffffffffffffffffff1673ffffffffffffffffffffffffffffffffffffffff1663a9a52e7e60008054906101000a900473ffffffffffffffffffffffffffffffffffffffff1673ffffffffffffffffffffffffffffffffffffffff1663b5e28325886000015189600001516040518363ffffffff1660e01b8152600401610c1b929190612006565b600060405180830381865afa158015610c38573d6000803e3d6000fd5b505050506040513d6000823e3d601f19601f82011682018060405250810190610c6191906121af565b60008054906101000a900473ffffffffffffffffffffffffffffffffffffffff1673ffffffffffffffffffffffffffffffffffffffff1663b5e2832589602001518a602001516040518363ffffffff1660e01b8152600401610cc4929190612006565b600060405180830381865afa158015610ce1573d6000803e3d6000fd5b505050506040513d6000823e3d601f19601f82011682018060405250810190610d0a91906121af565b6040518363ffffffff1660e01b8152600401610d27929190612006565b600060405180830381865afa158015610d44573d6000803e3d6000fd5b505050506040513d6000823e3d601f19601f82011682018060405250810190610d6d91906121af565b6040518263ffffffff1660e01b8152600401610d8991906121f8565b600060405180830381865afa158015610da6573d6000803e3d6000fd5b505050506040513d6000823e3d601f19601f82011682018060405250810190610dcf91906121af565b905061105660008054906101000a900473ffffffffffffffffffffffffffffffffffffffff1673ffffffffffffffffffffffffffffffffffffffff1663b5e283258560000151846040518363ffffffff1660e01b8152600401610e33929190612006565b600060405180830381865afa158015610e50573d6000803e3d6000fd5b505050506040513d6000823e3d601f19601f82011682018060405250810190610e7991906121af565b60008054906101000a900473ffffffffffffffffffffffffffffffffffffffff1673ffffffffffffffffffffffffffffffffffffffff1663b5e2832560008054906101000a900473ffffffffffffffffffffffffffffffffffffffff1673ffffffffffffffffffffffffffffffffffffffff1663fb2bedad60008054906101000a900473ffffffffffffffffffffffffffffffffffffffff1673ffffffffffffffffffffffffffffffffffffffff1663bc1b392d6040518163ffffffff1660e01b8152600401600060405180830381865afa158015610f5c573d6000803e3d6000fd5b505050506040513d6000823e3d601f19601f82011682018060405250810190610f8591906121af565b89602001516040518363ffffffff1660e01b8152600401610fa7929190612006565b600060405180830381865afa158015610fc4573d6000803e3d6000fd5b505050506040513d6000823e3d601f19601f82011682018060405250810190610fed91906121af565b856040518363ffffffff1660e01b815260040161100b929190612006565b600060405180830381865afa158015611028573d6000803e3d6000fd5b505050506040513d6000823e3d601f19601f8201168201806040525081019061105191906121af565b611790565b915050919050565b61106661191f565b604051806040016040528083815260200160008054906101000a900473ffffffffffffffffffffffffffffffffffffffff1673ffffffffffffffffffffffffffffffffffffffff1663bc1b392d6040518163ffffffff1660e01b8152600401600060405180830381865afa1580156110e2573d6000803e3d6000fd5b505050506040513d6000823e3d601f19601f8201168201806040525081019061110b91906121af565b8152509050919050565b61111d61191f565b61124d60008054906101000a900473ffffffffffffffffffffffffffffffffffffffff1673ffffffffffffffffffffffffffffffffffffffff1663901717d16040518163ffffffff1660e01b8152600401600060405180830381865afa15801561118b573d6000803e3d6000fd5b505050506040513d6000823e3d601f19601f820116820180604052508101906111b491906121af565b60008054906101000a900473ffffffffffffffffffffffffffffffffffffffff1673ffffffffffffffffffffffffffffffffffffffff1663bc1b392d6040518163ffffffff1660e01b8152600401600060405180830381865afa15801561121f573d6000803e3d6000fd5b505050506040513d6000823e3d601f19601f8201168201806040525081019061124891906121af565b611790565b905090565b61125a61191f565b6113b460008054906101000a900473ffffffffffffffffffffffffffffffffffffffff1673ffffffffffffffffffffffffffffffffffffffff1663fb2bedad846000015185602001516040518363ffffffff1660e01b81526004016112c0929190612006565b600060405180830381865afa1580156112dd573d6000803e3d6000fd5b505050506040513d6000823e3d601f19601f8201168201806040525081019061130691906121af565b60008054906101000a900473ffffffffffffffffffffffffffffffffffffffff1673ffffffffffffffffffffffffffffffffffffffff1663a9a52e7e856000015186602001516040518363ffffffff1660e01b8152600401611369929190612006565b600060405180830381865afa158015611386573d6000803e3d6000fd5b505050506040513d6000823e3d601f19601f820116820180604052508101906113af91906121af565b611790565b9050919050565b6113c361191f565b6114f360008054906101000a900473ffffffffffffffffffffffffffffffffffffffff1673ffffffffffffffffffffffffffffffffffffffff1663a1fca2b66040518163ffffffff1660e01b8152600401600060405180830381865afa158015611431573d6000803e3d6000fd5b505050506040513d6000823e3d601f19601f8201168201806040525081019061145a91906121af565b60008054906101000a900473ffffffffffffffffffffffffffffffffffffffff1673ffffffffffffffffffffffffffffffffffffffff1663bc1b392d6040518163ffffffff1660e01b8152600401600060405180830381865afa1580156114c5573d6000803e3d6000fd5b505050506040513d6000823e3d601f19601f820116820180604052508101906114ee91906121af565b611790565b905090565b60008060009054906101000a900473ffffffffffffffffffffffffffffffffffffffff1673ffffffffffffffffffffffffffffffffffffffff1663d4d45554846000015184600001516040518363ffffffff1660e01b815260040161155e929190612006565b602060405180830381865afa15801561157b573d6000803e3d6000fd5b505050506040513d601f19601f8201168201806040525081019061159f919061221a565b801561164b575060008054906101000a900473ffffffffffffffffffffffffffffffffffffffff1673ffffffffffffffffffffffffffffffffffffffff1663d4d45554846020015184602001516040518363ffffffff1660e01b8152600401611609929190612006565b602060405180830381865afa158015611626573d6000803e3d6000fd5b505050506040513d601f19601f8201168201806040525081019061164a919061221a565b5b905092915050565b61165b61191f565b61178b60008054906101000a900473ffffffffffffffffffffffffffffffffffffffff1673ffffffffffffffffffffffffffffffffffffffff1663bc1b392d6040518163ffffffff1660e01b8152600401600060405180830381865afa1580156116c9573d6000803e3d6000fd5b505050506040513d6000823e3d601f19601f820116820180604052508101906116f291906121af565b60008054906101000a900473ffffffffffffffffffffffffffffffffffffffff1673ffffffffffffffffffffffffffffffffffffffff1663bc1b392d6040518163ffffffff1660e01b8152600401600060405180830381865afa15801561175d573d6000803e3d6000fd5b505050506040513d6000823e3d601f19601f8201168201806040525081019061178691906121af565b611790565b905090565b61179861191f565b604051806040016040528084815260200183815250905092915050565b6117bd61191f565b61191760008054906101000a900473ffffffffffffffffffffffffffffffffffffffff1673ffffffffffffffffffffffffffffffffffffffff1663a9a52e7e856000015185600001516040518363ffffffff1660e01b8152600401611823929190612006565b600060405180830381865afa158015611840573d6000803e3d6000fd5b505050506040513d6000823e3d601f19601f8201168201806040525081019061186991906121af565b60008054906101000a900473ffffffffffffffffffffffffffffffffffffffff1673ffffffffffffffffffffffffffffffffffffffff1663a9a52e7e866020015186602001516040518363ffffffff1660e01b81526004016118cc929190612006565b600060405180830381865afa1580156118e9573d6000803e3d6000fd5b505050506040513d6000823e3d601f19601f8201168201806040525081019061191291906121af565b611790565b905092915050565b6040518060400160405280611932611945565b815260200161193f611945565b81525090565b604051806020016040528061195861195e565b81525090565b604051806060016040528060608152602001600015158152602001600081525090565b6000604051905090565b600080fd5b600080fd5b600080fd5b6000601f19601f8301169050919050565b7f4e487b7100000000000000000000000000000000000000000000000000000000600052604160045260246000fd5b6119e38261199a565b810181811067ffffffffffffffff82111715611a0257611a016119ab565b5b80604052505050565b6000611a15611981565b9050611a2182826119da565b919050565b600080fd5b600080fd5b600080fd5b600067ffffffffffffffff821115611a5057611a4f6119ab565b5b611a598261199a565b9050602081019050919050565b82818337600083830152505050565b6000611a88611a8384611a35565b611a0b565b905082815260208101848484011115611aa457611aa3611a30565b5b611aaf848285611a66565b509392505050565b600082601f830112611acc57611acb611a2b565b5b8135611adc848260208601611a75565b91505092915050565b60008115159050919050565b611afa81611ae5565b8114611b0557600080fd5b50565b600081359050611b1781611af1565b92915050565b6000819050919050565b611b3081611b1d565b8114611b3b57600080fd5b50565b600081359050611b4d81611b27565b92915050565b600060608284031215611b6957611b68611995565b5b611b736060611a0b565b9050600082013567ffffffffffffffff811115611b9357611b92611a26565b5b611b9f84828501611ab7565b6000830152506020611bb384828501611b08565b6020830152506040611bc784828501611b3e565b60408301525092915050565b600060208284031215611be957611be8611995565b5b611bf36020611a0b565b9050600082013567ffffffffffffffff811115611c1357611c12611a26565b5b611c1f84828501611b53565b60008301525092915050565b600060408284031215611c4157611c40611995565b5b611c4b6040611a0b565b9050600082013567ffffffffffffffff811115611c6b57611c6a611a26565b5b611c7784828501611bd3565b600083015250602082013567ffffffffffffffff811115611c9b57611c9a611a26565b5b611ca784828501611bd3565b60208301525092915050565b60008060408385031215611cca57611cc961198b565b5b600083013567ffffffffffffffff811115611ce857611ce7611990565b5b611cf485828601611c2b565b925050602083013567ffffffffffffffff811115611d1557611d14611990565b5b611d2185828601611c2b565b9150509250929050565b600081519050919050565b600082825260208201905092915050565b60005b83811015611d65578082015181840152602081019050611d4a565b60008484015250505050565b6000611d7c82611d2b565b611d868185611d36565b9350611d96818560208601611d47565b611d9f8161199a565b840191505092915050565b611db381611ae5565b82525050565b611dc281611b1d565b82525050565b60006060830160008301518482036000860152611de58282611d71565b9150506020830151611dfa6020860182611daa565b506040830151611e0d6040860182611db9565b508091505092915050565b60006020830160008301518482036000860152611e358282611dc8565b9150508091505092915050565b60006040830160008301518482036000860152611e5f8282611e18565b91505060208301518482036020860152611e798282611e18565b9150508091505092915050565b60006020820190508181036000830152611ea08184611e42565b905092915050565b600060208284031215611ebe57611ebd61198b565b5b600082013567ffffffffffffffff811115611edc57611edb611990565b5b611ee884828501611c2b565b91505092915050565b600060208284031215611f0757611f0661198b565b5b600082013567ffffffffffffffff811115611f2557611f24611990565b5b611f3184828501611bd3565b91505092915050565b611f4381611ae5565b82525050565b6000602082019050611f5e6000830184611f3a565b92915050565b60008060408385031215611f7b57611f7a61198b565b5b600083013567ffffffffffffffff811115611f9957611f98611990565b5b611fa585828601611bd3565b925050602083013567ffffffffffffffff811115611fc657611fc5611990565b5b611fd285828601611bd3565b9150509250929050565b60006020830160008301518482036000860152611ff98282611dc8565b9150508091505092915050565b600060408201905081810360008301526120208185611fdc565b905081810360208301526120348184611fdc565b90509392505050565b600061205061204b84611a35565b611a0b565b90508281526020810184848401111561206c5761206b611a30565b5b612077848285611d47565b509392505050565b600082601f83011261209457612093611a2b565b5b81516120a484826020860161203d565b91505092915050565b6000815190506120bc81611af1565b92915050565b6000815190506120d181611b27565b92915050565b6000606082840312156120ed576120ec611995565b5b6120f76060611a0b565b9050600082015167ffffffffffffffff81111561211757612116611a26565b5b6121238482850161207f565b6000830152506020612137848285016120ad565b602083015250604061214b848285016120c2565b60408301525092915050565b60006020828403121561216d5761216c611995565b5b6121776020611a0b565b9050600082015167ffffffffffffffff81111561219757612196611a26565b5b6121a3848285016120d7565b60008301525092915050565b6000602082840312156121c5576121c461198b565b5b600082015167ffffffffffffffff8111156121e3576121e2611990565b5b6121ef84828501612157565b91505092915050565b600060208201905081810360008301526122128184611fdc565b905092915050565b6000602082840312156122305761222f61198b565b5b600061223e848285016120ad565b9150509291505056fea2646970667358221220fcbef9cc3abcf023b91222750e3e21f90c58262df40dabc7ea629eb08120596064736f6c634300081b0033608060405234801561001057600080fd5b50604051613b10380380613b10833981810160405281019061003291906100ed565b806000806101000a81548173ffffffffffffffffffffffffffffffffffffffff021916908373ffffffffffffffffffffffffffffffffffffffff1602179055505061011a565b600080fd5b600073ffffffffffffffffffffffffffffffffffffffff82169050919050565b60006100a88261007d565b9050919050565b60006100ba8261009d565b9050919050565b6100ca816100af565b81146100d557600080fd5b50565b6000815190506100e7816100c1565b92915050565b60006020828403121561010357610102610078565b5b6000610111848285016100d8565b91505092915050565b6139e7806101296000396000f3fe608060405234801561001057600080fd5b50600436106100ea5760003560e01c8063a03823051161008c578063ba510cc311610066578063ba510cc314610287578063bc1b392d146102b7578063d6ba3d6d146102d5578063f7052ed614610305576100ea565b8063a038230514610209578063a1fca2b614610239578063b52ab3b114610257576100ea565b806376cfdd66116100c857806376cfdd661461015b5780637e2892801461018b578063901717d1146101bb5780639faceb7e146101d9576100ea565b806345caa117146100ef5780634aa28cb51461010d5780635fdf05d71461013d575b600080fd5b6100f7610335565b6040516101049190613098565b60405180910390f35b6101276004803603810190610122919061347d565b610506565b6040516101349190613098565b60405180910390f35b610145611028565b6040516101529190613098565b60405180910390f35b610175600480360381019061017091906134f5565b6111f9565b6040516101829190613098565b60405180910390f35b6101a560048036038101906101a0919061347d565b6113e7565b6040516101b29190613098565b60405180910390f35b6101c36115fa565b6040516101d09190613098565b60405180910390f35b6101f360048036038101906101ee919061353e565b6117cb565b6040516102009190613098565b60405180910390f35b610223600480360381019061021e919061347d565b6117f7565b60405161023091906135f4565b60405180910390f35b6102416119fe565b60405161024e9190613098565b60405180910390f35b610271600480360381019061026c919061360f565b611bcf565b60405161027e9190613098565b60405180910390f35b6102a1600480360381019061029c919061347d565b611c93565b6040516102ae9190613098565b60405180910390f35b6102bf611cb5565b6040516102cc9190613098565b60405180910390f35b6102ef60048036038101906102ea919061360f565b611e86565b6040516102fc9190613098565b60405180910390f35b61031f600480360381019061031a919061347d565b612c10565b60405161032c9190613098565b60405180910390f35b61033d612e23565b61050160008054906101000a900473ffffffffffffffffffffffffffffffffffffffff1673ffffffffffffffffffffffffffffffffffffffff166345caa1176040518163ffffffff1660e01b8152600401600060405180830381865afa1580156103ab573d6000803e3d6000fd5b505050506040513d6000823e3d601f19601f820116820180604052508101906103d49190613852565b60008054906101000a900473ffffffffffffffffffffffffffffffffffffffff1673ffffffffffffffffffffffffffffffffffffffff1663bc1b392d6040518163ffffffff1660e01b8152600401600060405180830381865afa15801561043f573d6000803e3d6000fd5b505050506040513d6000823e3d601f19601f820116820180604052508101906104689190613852565b60008054906101000a900473ffffffffffffffffffffffffffffffffffffffff1673ffffffffffffffffffffffffffffffffffffffff1663bc1b392d6040518163ffffffff1660e01b8152600401600060405180830381865afa1580156104d3573d6000803e3d6000fd5b505050506040513d6000823e3d601f19601f820116820180604052508101906104fc9190613852565b6117cb565b905090565b61050e612e23565b60008060009054906101000a900473ffffffffffffffffffffffffffffffffffffffff1673ffffffffffffffffffffffffffffffffffffffff166307a5ecaa856000015185600001516040518363ffffffff1660e01b81526004016105749291906138df565b600060405180830381865afa158015610591573d6000803e3d6000fd5b505050506040513d6000823e3d601f19601f820116820180604052508101906105ba9190613852565b905060008060009054906101000a900473ffffffffffffffffffffffffffffffffffffffff1673ffffffffffffffffffffffffffffffffffffffff1663fbb740a860008054906101000a900473ffffffffffffffffffffffffffffffffffffffff1673ffffffffffffffffffffffffffffffffffffffff166307a5ecaa886000015188602001516040518363ffffffff1660e01b815260040161065e9291906138df565b600060405180830381865afa15801561067b573d6000803e3d6000fd5b505050506040513d6000823e3d601f19601f820116820180604052508101906106a49190613852565b60008054906101000a900473ffffffffffffffffffffffffffffffffffffffff1673ffffffffffffffffffffffffffffffffffffffff166307a5ecaa896020015189600001516040518363ffffffff1660e01b81526004016107079291906138df565b600060405180830381865afa158015610724573d6000803e3d6000fd5b505050506040513d6000823e3d601f19601f8201168201806040525081019061074d9190613852565b6040518363ffffffff1660e01b815260040161076a9291906138df565b600060405180830381865afa158015610787573d6000803e3d6000fd5b505050506040513d6000823e3d601f19601f820116820180604052508101906107b09190613852565b905060008060009054906101000a900473ffffffffffffffffffffffffffffffffffffffff1673ffffffffffffffffffffffffffffffffffffffff1663fbb740a860008054906101000a900473ffffffffffffffffffffffffffffffffffffffff1673ffffffffffffffffffffffffffffffffffffffff1663fbb740a860008054906101000a900473ffffffffffffffffffffffffffffffffffffffff1673ffffffffffffffffffffffffffffffffffffffff166307a5ecaa8b600001518b604001516040518363ffffffff1660e01b81526004016108909291906138df565b600060405180830381865afa1580156108ad573d6000803e3d6000fd5b505050506040513d6000823e3d601f19601f820116820180604052508101906108d69190613852565b60008054906101000a900473ffffffffffffffffffffffffffffffffffffffff1673ffffffffffffffffffffffffffffffffffffffff166307a5ecaa8c602001518c602001516040518363ffffffff1660e01b81526004016109399291906138df565b600060405180830381865afa158015610956573d6000803e3d6000fd5b505050506040513d6000823e3d601f19601f8201168201806040525081019061097f9190613852565b6040518363ffffffff1660e01b815260040161099c9291906138df565b600060405180830381865afa1580156109b9573d6000803e3d6000fd5b505050506040513d6000823e3d601f19601f820116820180604052508101906109e29190613852565b60008054906101000a900473ffffffffffffffffffffffffffffffffffffffff1673ffffffffffffffffffffffffffffffffffffffff166307a5ecaa8a604001518a600001516040518363ffffffff1660e01b8152600401610a459291906138df565b600060405180830381865afa158015610a62573d6000803e3d6000fd5b505050506040513d6000823e3d601f19601f82011682018060405250810190610a8b9190613852565b6040518363ffffffff1660e01b8152600401610aa89291906138df565b600060405180830381865afa158015610ac5573d6000803e3d6000fd5b505050506040513d6000823e3d601f19601f82011682018060405250810190610aee9190613852565b905060008060009054906101000a900473ffffffffffffffffffffffffffffffffffffffff1673ffffffffffffffffffffffffffffffffffffffff16639d2e83f560008054906101000a900473ffffffffffffffffffffffffffffffffffffffff1673ffffffffffffffffffffffffffffffffffffffff1663fbb740a860008054906101000a900473ffffffffffffffffffffffffffffffffffffffff1673ffffffffffffffffffffffffffffffffffffffff166307a5ecaa8c602001518c604001516040518363ffffffff1660e01b8152600401610bce9291906138df565b600060405180830381865afa158015610beb573d6000803e3d6000fd5b505050506040513d6000823e3d601f19601f82011682018060405250810190610c149190613852565b60008054906101000a900473ffffffffffffffffffffffffffffffffffffffff1673ffffffffffffffffffffffffffffffffffffffff166307a5ecaa8d604001518d602001516040518363ffffffff1660e01b8152600401610c779291906138df565b600060405180830381865afa158015610c94573d6000803e3d6000fd5b505050506040513d6000823e3d601f19601f82011682018060405250810190610cbd9190613852565b6040518363ffffffff1660e01b8152600401610cda9291906138df565b600060405180830381865afa158015610cf7573d6000803e3d6000fd5b505050506040513d6000823e3d601f19601f82011682018060405250810190610d209190613852565b6040518263ffffffff1660e01b8152600401610d3c9190613916565b600060405180830381865afa158015610d59573d6000803e3d6000fd5b505050506040513d6000823e3d601f19601f82011682018060405250810190610d829190613852565b905060008060009054906101000a900473ffffffffffffffffffffffffffffffffffffffff1673ffffffffffffffffffffffffffffffffffffffff16639d2e83f560008054906101000a900473ffffffffffffffffffffffffffffffffffffffff1673ffffffffffffffffffffffffffffffffffffffff166307a5ecaa8b604001518b604001516040518363ffffffff1660e01b8152600401610e269291906138df565b600060405180830381865afa158015610e43573d6000803e3d6000fd5b505050506040513d6000823e3d601f19601f82011682018060405250810190610e6c9190613852565b6040518263ffffffff1660e01b8152600401610e889190613916565b600060405180830381865afa158015610ea5573d6000803e3d6000fd5b505050506040513d6000823e3d601f19601f82011682018060405250810190610ece9190613852565b905061101b60008054906101000a900473ffffffffffffffffffffffffffffffffffffffff1673ffffffffffffffffffffffffffffffffffffffff1663fbb740a887856040518363ffffffff1660e01b8152600401610f2e9291906138df565b600060405180830381865afa158015610f4b573d6000803e3d6000fd5b505050506040513d6000823e3d601f19601f82011682018060405250810190610f749190613852565b60008054906101000a900473ffffffffffffffffffffffffffffffffffffffff1673ffffffffffffffffffffffffffffffffffffffff1663fbb740a887856040518363ffffffff1660e01b8152600401610fcf9291906138df565b600060405180830381865afa158015610fec573d6000803e3d6000fd5b505050506040513d6000823e3d601f19601f820116820180604052508101906110159190613852565b856117cb565b9550505050505092915050565b611030612e23565b6111f460008054906101000a900473ffffffffffffffffffffffffffffffffffffffff1673ffffffffffffffffffffffffffffffffffffffff16635fdf05d76040518163ffffffff1660e01b8152600401600060405180830381865afa15801561109e573d6000803e3d6000fd5b505050506040513d6000823e3d601f19601f820116820180604052508101906110c79190613852565b60008054906101000a900473ffffffffffffffffffffffffffffffffffffffff1673ffffffffffffffffffffffffffffffffffffffff1663bc1b392d6040518163ffffffff1660e01b8152600401600060405180830381865afa158015611132573d6000803e3d6000fd5b505050506040513d6000823e3d601f19601f8201168201806040525081019061115b9190613852565b60008054906101000a900473ffffffffffffffffffffffffffffffffffffffff1673ffffffffffffffffffffffffffffffffffffffff1663bc1b392d6040518163ffffffff1660e01b8152600401600060405180830381865afa1580156111c6573d6000803e3d6000fd5b505050506040513d6000823e3d601f19601f820116820180604052508101906111ef9190613852565b6117cb565b905090565b611201612e23565b604051806060016040528060008054906101000a900473ffffffffffffffffffffffffffffffffffffffff1673ffffffffffffffffffffffffffffffffffffffff166376cfdd66856040518263ffffffff1660e01b81526004016112659190613962565b600060405180830381865afa158015611282573d6000803e3d6000fd5b505050506040513d6000823e3d601f19601f820116820180604052508101906112ab9190613852565b815260200160008054906101000a900473ffffffffffffffffffffffffffffffffffffffff1673ffffffffffffffffffffffffffffffffffffffff1663bc1b392d6040518163ffffffff1660e01b8152600401600060405180830381865afa15801561131b573d6000803e3d6000fd5b505050506040513d6000823e3d601f19601f820116820180604052508101906113449190613852565b815260200160008054906101000a900473ffffffffffffffffffffffffffffffffffffffff1673ffffffffffffffffffffffffffffffffffffffff1663bc1b392d6040518163ffffffff1660e01b8152600401600060405180830381865afa1580156113b4573d6000803e3d6000fd5b505050506040513d6000823e3d601f19601f820116820180604052508101906113dd9190613852565b8152509050919050565b6113ef612e23565b6115f260008054906101000a900473ffffffffffffffffffffffffffffffffffffffff1673ffffffffffffffffffffffffffffffffffffffff1663fbb740a8856000015185600001516040518363ffffffff1660e01b81526004016114559291906138df565b600060405180830381865afa158015611472573d6000803e3d6000fd5b505050506040513d6000823e3d601f19601f8201168201806040525081019061149b9190613852565b60008054906101000a900473ffffffffffffffffffffffffffffffffffffffff1673ffffffffffffffffffffffffffffffffffffffff1663fbb740a8866020015186602001516040518363ffffffff1660e01b81526004016114fe9291906138df565b600060405180830381865afa15801561151b573d6000803e3d6000fd5b505050506040513d6000823e3d601f19601f820116820180604052508101906115449190613852565b60008054906101000a900473ffffffffffffffffffffffffffffffffffffffff1673ffffffffffffffffffffffffffffffffffffffff1663fbb740a8876040015187604001516040518363ffffffff1660e01b81526004016115a79291906138df565b600060405180830381865afa1580156115c4573d6000803e3d6000fd5b505050506040513d6000823e3d601f19601f820116820180604052508101906115ed9190613852565b6117cb565b905092915050565b611602612e23565b6117c660008054906101000a900473ffffffffffffffffffffffffffffffffffffffff1673ffffffffffffffffffffffffffffffffffffffff1663901717d16040518163ffffffff1660e01b8152600401600060405180830381865afa158015611670573d6000803e3d6000fd5b505050506040513d6000823e3d601f19601f820116820180604052508101906116999190613852565b60008054906101000a900473ffffffffffffffffffffffffffffffffffffffff1673ffffffffffffffffffffffffffffffffffffffff1663bc1b392d6040518163ffffffff1660e01b8152600401600060405180830381865afa158015611704573d6000803e3d6000fd5b505050506040513d6000823e3d601f19601f8201168201806040525081019061172d9190613852565b60008054906101000a900473ffffffffffffffffffffffffffffffffffffffff1673ffffffffffffffffffffffffffffffffffffffff1663bc1b392d6040518163ffffffff1660e01b8152600401600060405180830381865afa158015611798573d6000803e3d6000fd5b505050506040513d6000823e3d601f19601f820116820180604052508101906117c19190613852565b6117cb565b905090565b6117d3612e23565b60405180606001604052808581526020018481526020018381525090509392505050565b60008060009054906101000a900473ffffffffffffffffffffffffffffffffffffffff1673ffffffffffffffffffffffffffffffffffffffff1663ab80cf76846000015184600001516040518363ffffffff1660e01b815260040161185d9291906138df565b602060405180830381865afa15801561187a573d6000803e3d6000fd5b505050506040513d601f19601f8201168201806040525081019061189e9190613984565b801561194a575060008054906101000a900473ffffffffffffffffffffffffffffffffffffffff1673ffffffffffffffffffffffffffffffffffffffff1663ab80cf76846020015184602001516040518363ffffffff1660e01b81526004016119089291906138df565b602060405180830381865afa158015611925573d6000803e3d6000fd5b505050506040513d601f19601f820116820180604052508101906119499190613984565b5b80156119f6575060008054906101000a900473ffffffffffffffffffffffffffffffffffffffff1673ffffffffffffffffffffffffffffffffffffffff1663ab80cf76846040015184604001516040518363ffffffff1660e01b81526004016119b49291906138df565b602060405180830381865afa1580156119d1573d6000803e3d6000fd5b505050506040513d601f19601f820116820180604052508101906119f59190613984565b5b905092915050565b611a06612e23565b611bca60008054906101000a900473ffffffffffffffffffffffffffffffffffffffff1673ffffffffffffffffffffffffffffffffffffffff1663a1fca2b66040518163ffffffff1660e01b8152600401600060405180830381865afa158015611a74573d6000803e3d6000fd5b505050506040513d6000823e3d601f19601f82011682018060405250810190611a9d9190613852565b60008054906101000a900473ffffffffffffffffffffffffffffffffffffffff1673ffffffffffffffffffffffffffffffffffffffff1663bc1b392d6040518163ffffffff1660e01b8152600401600060405180830381865afa158015611b08573d6000803e3d6000fd5b505050506040513d6000823e3d601f19601f82011682018060405250810190611b319190613852565b60008054906101000a900473ffffffffffffffffffffffffffffffffffffffff1673ffffffffffffffffffffffffffffffffffffffff1663bc1b392d6040518163ffffffff1660e01b8152600401600060405180830381865afa158015611b9c573d6000803e3d6000fd5b505050506040513d6000823e3d601f19601f82011682018060405250810190611bc59190613852565b6117cb565b905090565b611bd7612e23565b611c8c60008054906101000a900473ffffffffffffffffffffffffffffffffffffffff1673ffffffffffffffffffffffffffffffffffffffff16639d2e83f584604001516040518263ffffffff1660e01b8152600401611c379190613916565b600060405180830381865afa158015611c54573d6000803e3d6000fd5b505050506040513d6000823e3d601f19601f82011682018060405250810190611c7d9190613852565b836000015184602001516117cb565b9050919050565b611c9b612e23565b611cad83611ca884611e86565b610506565b905092915050565b611cbd612e23565b611e8160008054906101000a900473ffffffffffffffffffffffffffffffffffffffff1673ffffffffffffffffffffffffffffffffffffffff1663bc1b392d6040518163ffffffff1660e01b8152600401600060405180830381865afa158015611d2b573d6000803e3d6000fd5b505050506040513d6000823e3d601f19601f82011682018060405250810190611d549190613852565b60008054906101000a900473ffffffffffffffffffffffffffffffffffffffff1673ffffffffffffffffffffffffffffffffffffffff1663bc1b392d6040518163ffffffff1660e01b8152600401600060405180830381865afa158015611dbf573d6000803e3d6000fd5b505050506040513d6000823e3d601f19601f82011682018060405250810190611de89190613852565b60008054906101000a900473ffffffffffffffffffffffffffffffffffffffff1673ffffffffffffffffffffffffffffffffffffffff1663bc1b392d6040518163ffffffff1660e01b8152600401600060405180830381865afa158015611e53573d6000803e3d6000fd5b505050506040513d6000823e3d601f19601f82011682018060405250810190611e7c9190613852565b6117cb565b905090565b611e8e612e23565b60008060009054906101000a900473ffffffffffffffffffffffffffffffffffffffff1673ffffffffffffffffffffffffffffffffffffffff16635f6910d460008054906101000a900473ffffffffffffffffffffffffffffffffffffffff1673ffffffffffffffffffffffffffffffffffffffff166307a5ecaa866000015187600001516040518363ffffffff1660e01b8152600401611f309291906138df565b600060405180830381865afa158015611f4d573d6000803e3d6000fd5b505050506040513d6000823e3d601f19601f82011682018060405250810190611f769190613852565b60008054906101000a900473ffffffffffffffffffffffffffffffffffffffff1673ffffffffffffffffffffffffffffffffffffffff16639d2e83f560008054906101000a900473ffffffffffffffffffffffffffffffffffffffff1673ffffffffffffffffffffffffffffffffffffffff166307a5ecaa89602001518a604001516040518363ffffffff1660e01b81526004016120159291906138df565b600060405180830381865afa158015612032573d6000803e3d6000fd5b505050506040513d6000823e3d601f19601f8201168201806040525081019061205b9190613852565b6040518263ffffffff1660e01b81526004016120779190613916565b600060405180830381865afa158015612094573d6000803e3d6000fd5b505050506040513d6000823e3d601f19601f820116820180604052508101906120bd9190613852565b6040518363ffffffff1660e01b81526004016120da9291906138df565b600060405180830381865afa1580156120f7573d6000803e3d6000fd5b505050506040513d6000823e3d601f19601f820116820180604052508101906121209190613852565b905060008060009054906101000a900473ffffffffffffffffffffffffffffffffffffffff1673ffffffffffffffffffffffffffffffffffffffff16635f6910d460008054906101000a900473ffffffffffffffffffffffffffffffffffffffff1673ffffffffffffffffffffffffffffffffffffffff16639d2e83f560008054906101000a900473ffffffffffffffffffffffffffffffffffffffff1673ffffffffffffffffffffffffffffffffffffffff166307a5ecaa89604001518a604001516040518363ffffffff1660e01b81526004016122009291906138df565b600060405180830381865afa15801561221d573d6000803e3d6000fd5b505050506040513d6000823e3d601f19601f820116820180604052508101906122469190613852565b6040518263ffffffff1660e01b81526004016122629190613916565b600060405180830381865afa15801561227f573d6000803e3d6000fd5b505050506040513d6000823e3d601f19601f820116820180604052508101906122a89190613852565b60008054906101000a900473ffffffffffffffffffffffffffffffffffffffff1673ffffffffffffffffffffffffffffffffffffffff166307a5ecaa886000015189602001516040518363ffffffff1660e01b815260040161230b9291906138df565b600060405180830381865afa158015612328573d6000803e3d6000fd5b505050506040513d6000823e3d601f19601f820116820180604052508101906123519190613852565b6040518363ffffffff1660e01b815260040161236e9291906138df565b600060405180830381865afa15801561238b573d6000803e3d6000fd5b505050506040513d6000823e3d601f19601f820116820180604052508101906123b49190613852565b905060008060009054906101000a900473ffffffffffffffffffffffffffffffffffffffff1673ffffffffffffffffffffffffffffffffffffffff16635f6910d460008054906101000a900473ffffffffffffffffffffffffffffffffffffffff1673ffffffffffffffffffffffffffffffffffffffff166307a5ecaa886020015189602001516040518363ffffffff1660e01b81526004016124589291906138df565b600060405180830381865afa158015612475573d6000803e3d6000fd5b505050506040513d6000823e3d601f19601f8201168201806040525081019061249e9190613852565b60008054906101000a900473ffffffffffffffffffffffffffffffffffffffff1673ffffffffffffffffffffffffffffffffffffffff166307a5ecaa89600001518a604001516040518363ffffffff1660e01b81526004016125019291906138df565b600060405180830381865afa15801561251e573d6000803e3d6000fd5b505050506040513d6000823e3d601f19601f820116820180604052508101906125479190613852565b6040518363ffffffff1660e01b81526004016125649291906138df565b600060405180830381865afa158015612581573d6000803e3d6000fd5b505050506040513d6000823e3d601f19601f820116820180604052508101906125aa9190613852565b905060008060009054906101000a900473ffffffffffffffffffffffffffffffffffffffff1673ffffffffffffffffffffffffffffffffffffffff1663fbb740a860008054906101000a900473ffffffffffffffffffffffffffffffffffffffff1673ffffffffffffffffffffffffffffffffffffffff1663fbb740a860008054906101000a900473ffffffffffffffffffffffffffffffffffffffff1673ffffffffffffffffffffffffffffffffffffffff166307a5ecaa8b600001518a6040518363ffffffff1660e01b81526004016126869291906138df565b600060405180830381865afa1580156126a3573d6000803e3d6000fd5b505050506040513d6000823e3d601f19601f820116820180604052508101906126cc9190613852565b60008054906101000a900473ffffffffffffffffffffffffffffffffffffffff1673ffffffffffffffffffffffffffffffffffffffff16639d2e83f560008054906101000a900473ffffffffffffffffffffffffffffffffffffffff1673ffffffffffffffffffffffffffffffffffffffff166307a5ecaa8e604001518c6040518363ffffffff1660e01b81526004016127679291906138df565b600060405180830381865afa158015612784573d6000803e3d6000fd5b505050506040513d6000823e3d601f19601f820116820180604052508101906127ad9190613852565b6040518263ffffffff1660e01b81526004016127c99190613916565b600060405180830381865afa1580156127e6573d6000803e3d6000fd5b505050506040513d6000823e3d601f19601f8201168201806040525081019061280f9190613852565b6040518363ffffffff1660e01b815260040161282c9291906138df565b600060405180830381865afa158015612849573d6000803e3d6000fd5b505050506040513d6000823e3d601f19601f820116820180604052508101906128729190613852565b60008054906101000a900473ffffffffffffffffffffffffffffffffffffffff1673ffffffffffffffffffffffffffffffffffffffff16639d2e83f560008054906101000a900473ffffffffffffffffffffffffffffffffffffffff1673ffffffffffffffffffffffffffffffffffffffff166307a5ecaa8c60200151896040518363ffffffff1660e01b815260040161290d9291906138df565b600060405180830381865afa15801561292a573d6000803e3d6000fd5b505050506040513d6000823e3d601f19601f820116820180604052508101906129539190613852565b6040518263ffffffff1660e01b815260040161296f9190613916565b600060405180830381865afa15801561298c573d6000803e3d6000fd5b505050506040513d6000823e3d601f19601f820116820180604052508101906129b59190613852565b6040518363ffffffff1660e01b81526004016129d29291906138df565b600060405180830381865afa1580156129ef573d6000803e3d6000fd5b505050506040513d6000823e3d601f19601f82011682018060405250810190612a189190613852565b9050612c0560008054906101000a900473ffffffffffffffffffffffffffffffffffffffff1673ffffffffffffffffffffffffffffffffffffffff1663232b9e5a86846040518363ffffffff1660e01b8152600401612a789291906138df565b600060405180830381865afa158015612a95573d6000803e3d6000fd5b505050506040513d6000823e3d601f19601f82011682018060405250810190612abe9190613852565b60008054906101000a900473ffffffffffffffffffffffffffffffffffffffff1673ffffffffffffffffffffffffffffffffffffffff1663232b9e5a86856040518363ffffffff1660e01b8152600401612b199291906138df565b600060405180830381865afa158015612b36573d6000803e3d6000fd5b505050506040513d6000823e3d601f19601f82011682018060405250810190612b5f9190613852565b60008054906101000a900473ffffffffffffffffffffffffffffffffffffffff1673ffffffffffffffffffffffffffffffffffffffff1663232b9e5a86866040518363ffffffff1660e01b8152600401612bba9291906138df565b600060405180830381865afa158015612bd7573d6000803e3d6000fd5b505050506040513d6000823e3d601f19601f82011682018060405250810190612c009190613852565b6117cb565b945050505050919050565b612c18612e23565b612e1b60008054906101000a900473ffffffffffffffffffffffffffffffffffffffff1673ffffffffffffffffffffffffffffffffffffffff16635f6910d4856000015185600001516040518363ffffffff1660e01b8152600401612c7e9291906138df565b600060405180830381865afa158015612c9b573d6000803e3d6000fd5b505050506040513d6000823e3d601f19601f82011682018060405250810190612cc49190613852565b60008054906101000a900473ffffffffffffffffffffffffffffffffffffffff1673ffffffffffffffffffffffffffffffffffffffff16635f6910d4866020015186602001516040518363ffffffff1660e01b8152600401612d279291906138df565b600060405180830381865afa158015612d44573d6000803e3d6000fd5b505050506040513d6000823e3d601f19601f82011682018060405250810190612d6d9190613852565b60008054906101000a900473ffffffffffffffffffffffffffffffffffffffff1673ffffffffffffffffffffffffffffffffffffffff16635f6910d4876040015187604001516040518363ffffffff1660e01b8152600401612dd09291906138df565b600060405180830381865afa158015612ded573d6000803e3d6000fd5b505050506040513d6000823e3d601f19601f82011682018060405250810190612e169190613852565b6117cb565b905092915050565b6040518060600160405280612e36612e56565b8152602001612e43612e56565b8152602001612e50612e56565b81525090565b6040518060400160405280612e69612e7c565b8152602001612e76612e7c565b81525090565b6040518060200160405280612e8f612e95565b81525090565b604051806060016040528060608152602001600015158152602001600081525090565b600081519050919050565b600082825260208201905092915050565b60005b83811015612ef2578082015181840152602081019050612ed7565b60008484015250505050565b6000601f19601f8301169050919050565b6000612f1a82612eb8565b612f248185612ec3565b9350612f34818560208601612ed4565b612f3d81612efe565b840191505092915050565b60008115159050919050565b612f5d81612f48565b82525050565b6000819050919050565b612f7681612f63565b82525050565b60006060830160008301518482036000860152612f998282612f0f565b9150506020830151612fae6020860182612f54565b506040830151612fc16040860182612f6d565b508091505092915050565b60006020830160008301518482036000860152612fe98282612f7c565b9150508091505092915050565b600060408301600083015184820360008601526130138282612fcc565b9150506020830151848203602086015261302d8282612fcc565b9150508091505092915050565b600060608301600083015184820360008601526130578282612ff6565b915050602083015184820360208601526130718282612ff6565b9150506040830151848203604086015261308b8282612ff6565b9150508091505092915050565b600060208201905081810360008301526130b2818461303a565b905092915050565b6000604051905090565b600080fd5b600080fd5b600080fd5b7f4e487b7100000000000000000000000000000000000000000000000000000000600052604160045260246000fd5b61310b82612efe565b810181811067ffffffffffffffff8211171561312a576131296130d3565b5b80604052505050565b600061313d6130ba565b90506131498282613102565b919050565b600080fd5b600080fd5b600080fd5b600067ffffffffffffffff821115613178576131776130d3565b5b61318182612efe565b9050602081019050919050565b82818337600083830152505050565b60006131b06131ab8461315d565b613133565b9050828152602081018484840111156131cc576131cb613158565b5b6131d784828561318e565b509392505050565b600082601f8301126131f4576131f3613153565b5b813561320484826020860161319d565b91505092915050565b61321681612f48565b811461322157600080fd5b50565b6000813590506132338161320d565b92915050565b61324281612f63565b811461324d57600080fd5b50565b60008135905061325f81613239565b92915050565b60006060828403121561327b5761327a6130ce565b5b6132856060613133565b9050600082013567ffffffffffffffff8111156132a5576132a461314e565b5b6132b1848285016131df565b60008301525060206132c584828501613224565b60208301525060406132d984828501613250565b60408301525092915050565b6000602082840312156132fb576132fa6130ce565b5b6133056020613133565b9050600082013567ffffffffffffffff8111156133255761332461314e565b5b61333184828501613265565b60008301525092915050565b600060408284031215613353576133526130ce565b5b61335d6040613133565b9050600082013567ffffffffffffffff81111561337d5761337c61314e565b5b613389848285016132e5565b600083015250602082013567ffffffffffffffff8111156133ad576133ac61314e565b5b6133b9848285016132e5565b60208301525092915050565b6000606082840312156133db576133da6130ce565b5b6133e56060613133565b9050600082013567ffffffffffffffff8111156134055761340461314e565b5b6134118482850161333d565b600083015250602082013567ffffffffffffffff8111156134355761343461314e565b5b6134418482850161333d565b602083015250604082013567ffffffffffffffff8111156134655761346461314e565b5b6134718482850161333d565b60408301525092915050565b60008060408385031215613494576134936130c4565b5b600083013567ffffffffffffffff8111156134b2576134b16130c9565b5b6134be858286016133c5565b925050602083013567ffffffffffffffff8111156134df576134de6130c9565b5b6134eb858286016133c5565b9150509250929050565b60006020828403121561350b5761350a6130c4565b5b600082013567ffffffffffffffff811115613529576135286130c9565b5b613535848285016132e5565b91505092915050565b600080600060608486031215613557576135566130c4565b5b600084013567ffffffffffffffff811115613575576135746130c9565b5b6135818682870161333d565b935050602084013567ffffffffffffffff8111156135a2576135a16130c9565b5b6135ae8682870161333d565b925050604084013567ffffffffffffffff8111156135cf576135ce6130c9565b5b6135db8682870161333d565b9150509250925092565b6135ee81612f48565b82525050565b600060208201905061360960008301846135e5565b92915050565b600060208284031215613625576136246130c4565b5b600082013567ffffffffffffffff811115613643576136426130c9565b5b61364f848285016133c5565b91505092915050565b600061366b6136668461315d565b613133565b90508281526020810184848401111561368757613686613158565b5b613692848285612ed4565b509392505050565b600082601f8301126136af576136ae613153565b5b81516136bf848260208601613658565b91505092915050565b6000815190506136d78161320d565b92915050565b6000815190506136ec81613239565b92915050565b600060608284031215613708576137076130ce565b5b6137126060613133565b9050600082015167ffffffffffffffff8111156137325761373161314e565b5b61373e8482850161369a565b6000830152506020613752848285016136c8565b6020830152506040613766848285016136dd565b60408301525092915050565b600060208284031215613788576137876130ce565b5b6137926020613133565b9050600082015167ffffffffffffffff8111156137b2576137b161314e565b5b6137be848285016136f2565b60008301525092915050565b6000604082840312156137e0576137df6130ce565b5b6137ea6040613133565b9050600082015167ffffffffffffffff81111561380a5761380961314e565b5b61381684828501613772565b600083015250602082015167ffffffffffffffff81111561383a5761383961314e565b5b61384684828501613772565b60208301525092915050565b600060208284031215613868576138676130c4565b5b600082015167ffffffffffffffff811115613886576138856130c9565b5b613892848285016137ca565b91505092915050565b600060408301600083015184820360008601526138b88282612fcc565b915050602083015184820360208601526138d28282612fcc565b9150508091505092915050565b600060408201905081810360008301526138f9818561389b565b9050818103602083015261390d818461389b565b90509392505050565b60006020820190508181036000830152613930818461389b565b905092915050565b600060208301600083015184820360008601526139558282612f7c565b9150508091505092915050565b6000602082019050818103600083015261397c8184613938565b905092915050565b60006020828403121561399a576139996130c4565b5b60006139a8848285016136c8565b9150509291505056fea2646970667358221220520794d1f0e75f62f417331dff5cdf7f405455e33e64993fa308c001b44fce6d64736f6c634300081b0033608060405234801561001057600080fd5b50604051612cb6380380612cb6833981810160405281019061003291906100ed565b806000806101000a81548173ffffffffffffffffffffffffffffffffffffffff021916908373ffffffffffffffffffffffffffffffffffffffff1602179055505061011a565b600080fd5b600073ffffffffffffffffffffffffffffffffffffffff82169050919050565b60006100a88261007d565b9050919050565b60006100ba8261009d565b9050919050565b6100ca816100af565b81146100d557600080fd5b50565b6000815190506100e7816100c1565b92915050565b60006020828403121561010357610102610078565b5b6000610111848285016100d8565b91505092915050565b612b8d806101296000396000f3fe608060405234801561001057600080fd5b50600436106100ea5760003560e01c80639e0ddc501161008c578063ac70f2af11610066578063ac70f2af14610287578063bc1b392d146102b7578063f6700795146102d5578063f87386c314610305576100ea565b80639e0ddc50146102095780639eea8ce814610239578063a1fca2b614610269576100ea565b80636bc90c28116100c85780636bc90c281461015b57806376cfdd661461018b57806377839c69146101bb578063901717d1146101eb576100ea565b806345caa117146100ef57806347a9ddd71461010d5780635fdf05d71461013d575b600080fd5b6100f7610335565b6040516101049190611e04565b60405180910390f35b61012760048036038101906101229190612271565b610472565b6040516101349190611e04565b60405180910390f35b61014561062a565b6040516101529190611e04565b60405180910390f35b610175600480360381019061017091906122e9565b610767565b6040516101829190611e04565b60405180910390f35b6101a560048036038101906101a09190612361565b6108d1565b6040516101b29190611e04565b60405180910390f35b6101d560048036038101906101d091906122e9565b610a26565b6040516101e29190611e04565b60405180910390f35b6101f3610eda565b6040516102009190611e04565b60405180910390f35b610223600480360381019061021e91906122e9565b611017565b6040516102309190611e04565b60405180910390f35b610253600480360381019061024e91906122e9565b611181565b60405161026091906123b9565b60405180910390f35b6102716112dc565b60405161027e9190611e04565b60405180910390f35b6102a1600480360381019061029c91906122e9565b611419565b6040516102ae9190611e04565b60405180910390f35b6102bf61143b565b6040516102cc9190611e04565b60405180910390f35b6102ef60048036038101906102ea91906123d4565b611578565b6040516102fc9190611e04565b60405180910390f35b61031f600480360381019061031a919061241d565b611b00565b60405161032c9190611e04565b60405180910390f35b61033d611b25565b61046d60008054906101000a900473ffffffffffffffffffffffffffffffffffffffff1673ffffffffffffffffffffffffffffffffffffffff166345caa1176040518163ffffffff1660e01b8152600401600060405180830381865afa1580156103ab573d6000803e3d6000fd5b505050506040513d6000823e3d601f19601f820116820180604052508101906103d49190612747565b60008054906101000a900473ffffffffffffffffffffffffffffffffffffffff1673ffffffffffffffffffffffffffffffffffffffff1663bc1b392d6040518163ffffffff1660e01b8152600401600060405180830381865afa15801561043f573d6000803e3d6000fd5b505050506040513d6000823e3d601f19601f820116820180604052508101906104689190612747565b611b00565b905090565b61047a611b25565b73__$f247edaf7ce9d2535b3fa74e71bc5a3f7a$__6308d78767836040518263ffffffff1660e01b81526004016104b19190612848565b602060405180830381865af41580156104ce573d6000803e3d6000fd5b505050506040513d601f19601f820116820180604052508101906104f2919061286a565b15610506576104ff610eda565b9050610624565b6000610510610eda565b90506000849050600073__$861e165b3789503b1dee5f6def1855c9ef$__63d57f6fe7866040518263ffffffff1660e01b81526004016105509190612848565b600060405180830381865af415801561056d573d6000803e3d6000fd5b505050506040513d6000823e3d601f19601f82011682018060405250810190610596919061295f565b9050806000815181106105ac576105ab6129a8565b5b6020026020010151156105c6576105c38383610a26565b92505b6000600190505b815181101561061c576105e08384610a26565b92508181815181106105f5576105f46129a8565b5b60200260200101511561060f5761060c8484610a26565b93505b80806001019150506105cd565b508293505050505b92915050565b610632611b25565b61076260008054906101000a900473ffffffffffffffffffffffffffffffffffffffff1673ffffffffffffffffffffffffffffffffffffffff16635fdf05d76040518163ffffffff1660e01b8152600401600060405180830381865afa1580156106a0573d6000803e3d6000fd5b505050506040513d6000823e3d601f19601f820116820180604052508101906106c99190612747565b60008054906101000a900473ffffffffffffffffffffffffffffffffffffffff1673ffffffffffffffffffffffffffffffffffffffff1663bc1b392d6040518163ffffffff1660e01b8152600401600060405180830381865afa158015610734573d6000803e3d6000fd5b505050506040513d6000823e3d601f19601f8201168201806040525081019061075d9190612747565b611b00565b905090565b61076f611b25565b6108c960008054906101000a900473ffffffffffffffffffffffffffffffffffffffff1673ffffffffffffffffffffffffffffffffffffffff1663f7052ed6856000015185600001516040518363ffffffff1660e01b81526004016107d5929190612a35565b600060405180830381865afa1580156107f2573d6000803e3d6000fd5b505050506040513d6000823e3d601f19601f8201168201806040525081019061081b9190612747565b60008054906101000a900473ffffffffffffffffffffffffffffffffffffffff1673ffffffffffffffffffffffffffffffffffffffff1663f7052ed6866020015186602001516040518363ffffffff1660e01b815260040161087e929190612a35565b600060405180830381865afa15801561089b573d6000803e3d6000fd5b505050506040513d6000823e3d601f19601f820116820180604052508101906108c49190612747565b611b00565b905092915050565b6108d9611b25565b604051806040016040528060008054906101000a900473ffffffffffffffffffffffffffffffffffffffff1673ffffffffffffffffffffffffffffffffffffffff166376cfdd66856040518263ffffffff1660e01b815260040161093d9190612a96565b600060405180830381865afa15801561095a573d6000803e3d6000fd5b505050506040513d6000823e3d601f19601f820116820180604052508101906109839190612747565b815260200160008054906101000a900473ffffffffffffffffffffffffffffffffffffffff1673ffffffffffffffffffffffffffffffffffffffff1663bc1b392d6040518163ffffffff1660e01b8152600401600060405180830381865afa1580156109f3573d6000803e3d6000fd5b505050506040513d6000823e3d601f19601f82011682018060405250810190610a1c9190612747565b8152509050919050565b610a2e611b25565b60008060009054906101000a900473ffffffffffffffffffffffffffffffffffffffff1673ffffffffffffffffffffffffffffffffffffffff1663b52ab3b160008054906101000a900473ffffffffffffffffffffffffffffffffffffffff1673ffffffffffffffffffffffffffffffffffffffff16634aa28cb5876020015187602001516040518363ffffffff1660e01b8152600401610ad0929190612a35565b600060405180830381865afa158015610aed573d6000803e3d6000fd5b505050506040513d6000823e3d601f19601f82011682018060405250810190610b169190612747565b6040518263ffffffff1660e01b8152600401610b329190612ab8565b600060405180830381865afa158015610b4f573d6000803e3d6000fd5b505050506040513d6000823e3d601f19601f82011682018060405250810190610b789190612747565b905060008060009054906101000a900473ffffffffffffffffffffffffffffffffffffffff1673ffffffffffffffffffffffffffffffffffffffff16634aa28cb5866000015186600001516040518363ffffffff1660e01b8152600401610be0929190612a35565b600060405180830381865afa158015610bfd573d6000803e3d6000fd5b505050506040513d6000823e3d601f19601f82011682018060405250810190610c269190612747565b905060008060009054906101000a900473ffffffffffffffffffffffffffffffffffffffff1673ffffffffffffffffffffffffffffffffffffffff16634aa28cb5876020015187600001516040518363ffffffff1660e01b8152600401610c8e929190612a35565b600060405180830381865afa158015610cab573d6000803e3d6000fd5b505050506040513d6000823e3d601f19601f82011682018060405250810190610cd49190612747565b905060008060009054906101000a900473ffffffffffffffffffffffffffffffffffffffff1673ffffffffffffffffffffffffffffffffffffffff16634aa28cb5886000015188602001516040518363ffffffff1660e01b8152600401610d3c929190612a35565b600060405180830381865afa158015610d59573d6000803e3d6000fd5b505050506040513d6000823e3d601f19601f82011682018060405250810190610d829190612747565b9050610ece60008054906101000a900473ffffffffffffffffffffffffffffffffffffffff1673ffffffffffffffffffffffffffffffffffffffff16637e28928086866040518363ffffffff1660e01b8152600401610de2929190612a35565b600060405180830381865afa158015610dff573d6000803e3d6000fd5b505050506040513d6000823e3d601f19601f82011682018060405250810190610e289190612747565b60008054906101000a900473ffffffffffffffffffffffffffffffffffffffff1673ffffffffffffffffffffffffffffffffffffffff16637e28928085856040518363ffffffff1660e01b8152600401610e83929190612a35565b600060405180830381865afa158015610ea0573d6000803e3d6000fd5b505050506040513d6000823e3d601f19601f82011682018060405250810190610ec99190612747565b611b00565b94505050505092915050565b610ee2611b25565b61101260008054906101000a900473ffffffffffffffffffffffffffffffffffffffff1673ffffffffffffffffffffffffffffffffffffffff1663901717d16040518163ffffffff1660e01b8152600401600060405180830381865afa158015610f50573d6000803e3d6000fd5b505050506040513d6000823e3d601f19601f82011682018060405250810190610f799190612747565b60008054906101000a900473ffffffffffffffffffffffffffffffffffffffff1673ffffffffffffffffffffffffffffffffffffffff1663bc1b392d6040518163ffffffff1660e01b8152600401600060405180830381865afa158015610fe4573d6000803e3d6000fd5b505050506040513d6000823e3d601f19601f8201168201806040525081019061100d9190612747565b611b00565b905090565b61101f611b25565b61117960008054906101000a900473ffffffffffffffffffffffffffffffffffffffff1673ffffffffffffffffffffffffffffffffffffffff16637e289280856000015185600001516040518363ffffffff1660e01b8152600401611085929190612a35565b600060405180830381865afa1580156110a2573d6000803e3d6000fd5b505050506040513d6000823e3d601f19601f820116820180604052508101906110cb9190612747565b60008054906101000a900473ffffffffffffffffffffffffffffffffffffffff1673ffffffffffffffffffffffffffffffffffffffff16637e289280866020015186602001516040518363ffffffff1660e01b815260040161112e929190612a35565b600060405180830381865afa15801561114b573d6000803e3d6000fd5b505050506040513d6000823e3d601f19601f820116820180604052508101906111749190612747565b611b00565b905092915050565b60008060009054906101000a900473ffffffffffffffffffffffffffffffffffffffff1673ffffffffffffffffffffffffffffffffffffffff1663a0382305846000015184600001516040518363ffffffff1660e01b81526004016111e7929190612a35565b602060405180830381865afa158015611204573d6000803e3d6000fd5b505050506040513d601f19601f82011682018060405250810190611228919061286a565b80156112d4575060008054906101000a900473ffffffffffffffffffffffffffffffffffffffff1673ffffffffffffffffffffffffffffffffffffffff1663a0382305846020015184602001516040518363ffffffff1660e01b8152600401611292929190612a35565b602060405180830381865afa1580156112af573d6000803e3d6000fd5b505050506040513d601f19601f820116820180604052508101906112d3919061286a565b5b905092915050565b6112e4611b25565b61141460008054906101000a900473ffffffffffffffffffffffffffffffffffffffff1673ffffffffffffffffffffffffffffffffffffffff1663a1fca2b66040518163ffffffff1660e01b8152600401600060405180830381865afa158015611352573d6000803e3d6000fd5b505050506040513d6000823e3d601f19601f8201168201806040525081019061137b9190612747565b60008054906101000a900473ffffffffffffffffffffffffffffffffffffffff1673ffffffffffffffffffffffffffffffffffffffff1663bc1b392d6040518163ffffffff1660e01b8152600401600060405180830381865afa1580156113e6573d6000803e3d6000fd5b505050506040513d6000823e3d601f19601f8201168201806040525081019061140f9190612747565b611b00565b905090565b611421611b25565b6114338361142e84611578565b610a26565b905092915050565b611443611b25565b61157360008054906101000a900473ffffffffffffffffffffffffffffffffffffffff1673ffffffffffffffffffffffffffffffffffffffff1663bc1b392d6040518163ffffffff1660e01b8152600401600060405180830381865afa1580156114b1573d6000803e3d6000fd5b505050506040513d6000823e3d601f19601f820116820180604052508101906114da9190612747565b60008054906101000a900473ffffffffffffffffffffffffffffffffffffffff1673ffffffffffffffffffffffffffffffffffffffff1663bc1b392d6040518163ffffffff1660e01b8152600401600060405180830381865afa158015611545573d6000803e3d6000fd5b505050506040513d6000823e3d601f19601f8201168201806040525081019061156e9190612747565b611b00565b905090565b611580611b25565b6115918261158c61143b565b611181565b156115d1576040517f08c379a00000000000000000000000000000000000000000000000000000000081526004016115c890612b37565b60405180910390fd5b60008060009054906101000a900473ffffffffffffffffffffffffffffffffffffffff1673ffffffffffffffffffffffffffffffffffffffff1663b52ab3b160008054906101000a900473ffffffffffffffffffffffffffffffffffffffff1673ffffffffffffffffffffffffffffffffffffffff16634aa28cb5866020015187602001516040518363ffffffff1660e01b8152600401611673929190612a35565b600060405180830381865afa158015611690573d6000803e3d6000fd5b505050506040513d6000823e3d601f19601f820116820180604052508101906116b99190612747565b6040518263ffffffff1660e01b81526004016116d59190612ab8565b600060405180830381865afa1580156116f2573d6000803e3d6000fd5b505050506040513d6000823e3d601f19601f8201168201806040525081019061171b9190612747565b905060008060009054906101000a900473ffffffffffffffffffffffffffffffffffffffff1673ffffffffffffffffffffffffffffffffffffffff16634aa28cb5856000015186600001516040518363ffffffff1660e01b8152600401611783929190612a35565b600060405180830381865afa1580156117a0573d6000803e3d6000fd5b505050506040513d6000823e3d601f19601f820116820180604052508101906117c99190612747565b905060008060009054906101000a900473ffffffffffffffffffffffffffffffffffffffff1673ffffffffffffffffffffffffffffffffffffffff1663f7052ed683856040518363ffffffff1660e01b8152600401611829929190612a35565b600060405180830381865afa158015611846573d6000803e3d6000fd5b505050506040513d6000823e3d601f19601f8201168201806040525081019061186f9190612747565b9050611af660008054906101000a900473ffffffffffffffffffffffffffffffffffffffff1673ffffffffffffffffffffffffffffffffffffffff1663ba510cc38760000151846040518363ffffffff1660e01b81526004016118d3929190612a35565b600060405180830381865afa1580156118f0573d6000803e3d6000fd5b505050506040513d6000823e3d601f19601f820116820180604052508101906119199190612747565b60008054906101000a900473ffffffffffffffffffffffffffffffffffffffff1673ffffffffffffffffffffffffffffffffffffffff1663ba510cc360008054906101000a900473ffffffffffffffffffffffffffffffffffffffff1673ffffffffffffffffffffffffffffffffffffffff1663f7052ed660008054906101000a900473ffffffffffffffffffffffffffffffffffffffff1673ffffffffffffffffffffffffffffffffffffffff1663bc1b392d6040518163ffffffff1660e01b8152600401600060405180830381865afa1580156119fc573d6000803e3d6000fd5b505050506040513d6000823e3d601f19601f82011682018060405250810190611a259190612747565b8b602001516040518363ffffffff1660e01b8152600401611a47929190612a35565b600060405180830381865afa158015611a64573d6000803e3d6000fd5b505050506040513d6000823e3d601f19601f82011682018060405250810190611a8d9190612747565b856040518363ffffffff1660e01b8152600401611aab929190612a35565b600060405180830381865afa158015611ac8573d6000803e3d6000fd5b505050506040513d6000823e3d601f19601f82011682018060405250810190611af19190612747565b611b00565b9350505050919050565b611b08611b25565b604051806040016040528084815260200183815250905092915050565b6040518060400160405280611b38611b4b565b8152602001611b45611b4b565b81525090565b6040518060600160405280611b5e611b7e565b8152602001611b6b611b7e565b8152602001611b78611b7e565b81525090565b6040518060400160405280611b91611ba4565b8152602001611b9e611ba4565b81525090565b6040518060200160405280611bb7611bbd565b81525090565b604051806060016040528060608152602001600015158152602001600081525090565b600081519050919050565b600082825260208201905092915050565b60005b83811015611c1a578082015181840152602081019050611bff565b60008484015250505050565b6000601f19601f8301169050919050565b6000611c4282611be0565b611c4c8185611beb565b9350611c5c818560208601611bfc565b611c6581611c26565b840191505092915050565b60008115159050919050565b611c8581611c70565b82525050565b6000819050919050565b611c9e81611c8b565b82525050565b60006060830160008301518482036000860152611cc18282611c37565b9150506020830151611cd66020860182611c7c565b506040830151611ce96040860182611c95565b508091505092915050565b60006020830160008301518482036000860152611d118282611ca4565b9150508091505092915050565b60006040830160008301518482036000860152611d3b8282611cf4565b91505060208301518482036020860152611d558282611cf4565b9150508091505092915050565b60006060830160008301518482036000860152611d7f8282611d1e565b91505060208301518482036020860152611d998282611d1e565b91505060408301518482036040860152611db38282611d1e565b9150508091505092915050565b60006040830160008301518482036000860152611ddd8282611d62565b91505060208301518482036020860152611df78282611d62565b9150508091505092915050565b60006020820190508181036000830152611e1e8184611dc0565b905092915050565b6000604051905090565b600080fd5b600080fd5b600080fd5b7f4e487b7100000000000000000000000000000000000000000000000000000000600052604160045260246000fd5b611e7782611c26565b810181811067ffffffffffffffff82111715611e9657611e95611e3f565b5b80604052505050565b6000611ea9611e26565b9050611eb58282611e6e565b919050565b600080fd5b600080fd5b600080fd5b600067ffffffffffffffff821115611ee457611ee3611e3f565b5b611eed82611c26565b9050602081019050919050565b82818337600083830152505050565b6000611f1c611f1784611ec9565b611e9f565b905082815260208101848484011115611f3857611f37611ec4565b5b611f43848285611efa565b509392505050565b600082601f830112611f6057611f5f611ebf565b5b8135611f70848260208601611f09565b91505092915050565b611f8281611c70565b8114611f8d57600080fd5b50565b600081359050611f9f81611f79565b92915050565b611fae81611c8b565b8114611fb957600080fd5b50565b600081359050611fcb81611fa5565b92915050565b600060608284031215611fe757611fe6611e3a565b5b611ff16060611e9f565b9050600082013567ffffffffffffffff81111561201157612010611eba565b5b61201d84828501611f4b565b600083015250602061203184828501611f90565b602083015250604061204584828501611fbc565b60408301525092915050565b60006020828403121561206757612066611e3a565b5b6120716020611e9f565b9050600082013567ffffffffffffffff81111561209157612090611eba565b5b61209d84828501611fd1565b60008301525092915050565b6000604082840312156120bf576120be611e3a565b5b6120c96040611e9f565b9050600082013567ffffffffffffffff8111156120e9576120e8611eba565b5b6120f584828501612051565b600083015250602082013567ffffffffffffffff81111561211957612118611eba565b5b61212584828501612051565b60208301525092915050565b60006060828403121561214757612146611e3a565b5b6121516060611e9f565b9050600082013567ffffffffffffffff81111561217157612170611eba565b5b61217d848285016120a9565b600083015250602082013567ffffffffffffffff8111156121a1576121a0611eba565b5b6121ad848285016120a9565b602083015250604082013567ffffffffffffffff8111156121d1576121d0611eba565b5b6121dd848285016120a9565b60408301525092915050565b6000604082840312156121ff576121fe611e3a565b5b6122096040611e9f565b9050600082013567ffffffffffffffff81111561222957612228611eba565b5b61223584828501612131565b600083015250602082013567ffffffffffffffff81111561225957612258611eba565b5b61226584828501612131565b60208301525092915050565b6000806040838503121561228857612287611e30565b5b600083013567ffffffffffffffff8111156122a6576122a5611e35565b5b6122b2858286016121e9565b925050602083013567ffffffffffffffff8111156122d3576122d2611e35565b5b6122df85828601611fd1565b9150509250929050565b60008060408385031215612300576122ff611e30565b5b600083013567ffffffffffffffff81111561231e5761231d611e35565b5b61232a858286016121e9565b925050602083013567ffffffffffffffff81111561234b5761234a611e35565b5b612357858286016121e9565b9150509250929050565b60006020828403121561237757612376611e30565b5b600082013567ffffffffffffffff81111561239557612394611e35565b5b6123a184828501612051565b91505092915050565b6123b381611c70565b82525050565b60006020820190506123ce60008301846123aa565b92915050565b6000602082840312156123ea576123e9611e30565b5b600082013567ffffffffffffffff81111561240857612407611e35565b5b612414848285016121e9565b91505092915050565b6000806040838503121561243457612433611e30565b5b600083013567ffffffffffffffff81111561245257612451611e35565b5b61245e85828601612131565b925050602083013567ffffffffffffffff81111561247f5761247e611e35565b5b61248b85828601612131565b9150509250929050565b60006124a86124a384611ec9565b611e9f565b9050828152602081018484840111156124c4576124c3611ec4565b5b6124cf848285611bfc565b509392505050565b600082601f8301126124ec576124eb611ebf565b5b81516124fc848260208601612495565b91505092915050565b60008151905061251481611f79565b92915050565b60008151905061252981611fa5565b92915050565b60006060828403121561254557612544611e3a565b5b61254f6060611e9f565b9050600082015167ffffffffffffffff81111561256f5761256e611eba565b5b61257b848285016124d7565b600083015250602061258f84828501612505565b60208301525060406125a38482850161251a565b60408301525092915050565b6000602082840312156125c5576125c4611e3a565b5b6125cf6020611e9f565b9050600082015167ffffffffffffffff8111156125ef576125ee611eba565b5b6125fb8482850161252f565b60008301525092915050565b60006040828403121561261d5761261c611e3a565b5b6126276040611e9f565b9050600082015167ffffffffffffffff81111561264757612646611eba565b5b612653848285016125af565b600083015250602082015167ffffffffffffffff81111561267757612676611eba565b5b612683848285016125af565b60208301525092915050565b6000606082840312156126a5576126a4611e3a565b5b6126af6060611e9f565b9050600082015167ffffffffffffffff8111156126cf576126ce611eba565b5b6126db84828501612607565b600083015250602082015167ffffffffffffffff8111156126ff576126fe611eba565b5b61270b84828501612607565b602083015250604082015167ffffffffffffffff81111561272f5761272e611eba565b5b61273b84828501612607565b60408301525092915050565b60006020828403121561275d5761275c611e30565b5b600082015167ffffffffffffffff81111561277b5761277a611e35565b5b6127878482850161268f565b91505092915050565b600082825260208201905092915050565b60006127ac82611be0565b6127b68185612790565b93506127c6818560208601611bfc565b6127cf81611c26565b840191505092915050565b6127e381611c70565b82525050565b6127f281611c8b565b82525050565b6000606083016000830151848203600086015261281582826127a1565b915050602083015161282a60208601826127da565b50604083015161283d60408601826127e9565b508091505092915050565b6000602082019050818103600083015261286281846127f8565b905092915050565b6000602082840312156128805761287f611e30565b5b600061288e84828501612505565b91505092915050565b600067ffffffffffffffff8211156128b2576128b1611e3f565b5b602082029050602081019050919050565b600080fd5b60006128db6128d684612897565b611e9f565b905080838252602082019050602084028301858111156128fe576128fd6128c3565b5b835b8181101561292757806129138882612505565b845260208401935050602081019050612900565b5050509392505050565b600082601f83011261294657612945611ebf565b5b81516129568482602086016128c8565b91505092915050565b60006020828403121561297557612974611e30565b5b600082015167ffffffffffffffff81111561299357612992611e35565b5b61299f84828501612931565b91505092915050565b7f4e487b7100000000000000000000000000000000000000000000000000000000600052603260045260246000fd5b600060608301600083015184820360008601526129f48282611d1e565b91505060208301518482036020860152612a0e8282611d1e565b91505060408301518482036040860152612a288282611d1e565b9150508091505092915050565b60006040820190508181036000830152612a4f81856129d7565b90508181036020830152612a6381846129d7565b90509392505050565b60006020830160008301518482036000860152612a898282611ca4565b9150508091505092915050565b60006020820190508181036000830152612ab08184612a6c565b905092915050565b60006020820190508181036000830152612ad281846129d7565b905092915050565b600082825260208201905092915050565b7f43616e6e6f7420696e76657274207a65726f20656c656d656e74000000000000600082015250565b6000612b21601a83612ada565b9150612b2c82612aeb565b602082019050919050565b60006020820190508181036000830152612b5081612b14565b905091905056fea264697066735822122035366e2c6603a1d237fc4200ff2e1f6d4530ef87a3fc805ec9738e5d64268ff764736f6c634300081b0033608060405234801561001057600080fd5b50604051612785380380612785833981810160405281019061003291906100ed565b806000806101000a81548173ffffffffffffffffffffffffffffffffffffffff021916908373ffffffffffffffffffffffffffffffffffffffff1602179055505061011a565b600080fd5b600073ffffffffffffffffffffffffffffffffffffffff82169050919050565b60006100a88261007d565b9050919050565b60006100ba8261009d565b9050919050565b6100ca816100af565b81146100d557600080fd5b50565b6000815190506100e7816100c1565b92915050565b60006020828403121561010357610102610078565b5b6000610111848285016100d8565b91505092915050565b61265c806101296000396000f3fe608060405234801561001057600080fd5b50600436106100615760003560e01c80627995931461006657806307951d69146100965780631953a9bf146100c6578063292310eb146100f65780636cee5a0b14610114578063899c229814610144575b600080fd5b610080600480360381019061007b9190611dbf565b610174565b60405161008d919061201c565b60405180910390f35b6100b060048036038101906100ab919061203e565b6102aa565b6040516100bd919061201c565b60405180910390f35b6100e060048036038101906100db91906120b6565b610c70565b6040516100ed919061201c565b60405180910390f35b6100fe610cae565b60405161010b919061201c565b60405180910390f35b61012e6004803603810190610129919061212e565b610e0e565b60405161013b919061201c565b60405180910390f35b61015e6004803603810190610159919061203e565b6117a4565b60405161016b9190612186565b60405180910390f35b61017c6119d9565b60001515836020015115151461019157600080fd5b600061019b610cae565b90506000839050600073__$861e165b3789503b1dee5f6def1855c9ef$__63d57f6fe7876040518263ffffffff1660e01b81526004016101db9190612259565b600060405180830381865af41580156101f8573d6000803e3d6000fd5b505050506040513d6000823e3d601f19601f820116820180604052508101906102219190612358565b905080600081518110610237576102366123a1565b5b602002602001015115610248578192505b6000600190505b815181101561029d5761026183610e0e565b9250818181518110610276576102756123a1565b5b6020026020010151156102905761028d84846102aa565b93505b808060010191505061024f565b5082935050505092915050565b6102b26119d9565b6001808111156102c5576102c4611e37565b5b836000015160018111156102dc576102db611e37565b5b036102e957819050610c6a565b6001808111156102fc576102fb611e37565b5b8260000151600181111561031357610312611e37565b5b0361032057829050610c6a565b60008054906101000a900473ffffffffffffffffffffffffffffffffffffffff1673ffffffffffffffffffffffffffffffffffffffff1663d4d45554846020015184602001516040518363ffffffff1660e01b81526004016103839291906123fa565b602060405180830381865afa1580156103a0573d6000803e3d6000fd5b505050506040513d601f19601f820116820180604052508101906103c49190612431565b8015610470575060008054906101000a900473ffffffffffffffffffffffffffffffffffffffff1673ffffffffffffffffffffffffffffffffffffffff1663d4d45554846040015184604001516040518363ffffffff1660e01b815260040161042e9291906123fa565b602060405180830381865afa15801561044b573d6000803e3d6000fd5b505050506040513d601f19601f8201168201806040525081019061046f9190612431565b5b156104855761047e83610e0e565b9050610c6a565b60008054906101000a900473ffffffffffffffffffffffffffffffffffffffff1673ffffffffffffffffffffffffffffffffffffffff1663d4d45554846020015184602001516040518363ffffffff1660e01b81526004016104e89291906123fa565b602060405180830381865afa158015610505573d6000803e3d6000fd5b505050506040513d601f19601f820116820180604052508101906105299190612431565b80156105d6575060008054906101000a900473ffffffffffffffffffffffffffffffffffffffff1673ffffffffffffffffffffffffffffffffffffffff1663d4d45554846040015184604001516040518363ffffffff1660e01b81526004016105939291906123fa565b602060405180830381865afa1580156105b0573d6000803e3d6000fd5b505050506040513d601f19601f820116820180604052508101906105d49190612431565b155b156105ea576105e3610cae565b9050610c6a565b60008060009054906101000a900473ffffffffffffffffffffffffffffffffffffffff1673ffffffffffffffffffffffffffffffffffffffff1663b5e2832560008054906101000a900473ffffffffffffffffffffffffffffffffffffffff1673ffffffffffffffffffffffffffffffffffffffff1663fb2bedad866040015188604001516040518363ffffffff1660e01b815260040161068c9291906123fa565b600060405180830381865afa1580156106a9573d6000803e3d6000fd5b505050506040513d6000823e3d601f19601f820116820180604052508101906106d291906125bb565b60008054906101000a900473ffffffffffffffffffffffffffffffffffffffff1673ffffffffffffffffffffffffffffffffffffffff1663a672d10060008054906101000a900473ffffffffffffffffffffffffffffffffffffffff1673ffffffffffffffffffffffffffffffffffffffff1663fb2bedad89602001518b602001516040518363ffffffff1660e01b81526004016107719291906123fa565b600060405180830381865afa15801561078e573d6000803e3d6000fd5b505050506040513d6000823e3d601f19601f820116820180604052508101906107b791906125bb565b6040518263ffffffff1660e01b81526004016107d39190612604565b600060405180830381865afa1580156107f0573d6000803e3d6000fd5b505050506040513d6000823e3d601f19601f8201168201806040525081019061081991906125bb565b6040518363ffffffff1660e01b81526004016108369291906123fa565b600060405180830381865afa158015610853573d6000803e3d6000fd5b505050506040513d6000823e3d601f19601f8201168201806040525081019061087c91906125bb565b905060008060009054906101000a900473ffffffffffffffffffffffffffffffffffffffff1673ffffffffffffffffffffffffffffffffffffffff1663fb2bedad60008054906101000a900473ffffffffffffffffffffffffffffffffffffffff1673ffffffffffffffffffffffffffffffffffffffff1663fb2bedad60008054906101000a900473ffffffffffffffffffffffffffffffffffffffff1673ffffffffffffffffffffffffffffffffffffffff1663b5e2832587886040518363ffffffff1660e01b81526004016109549291906123fa565b600060405180830381865afa158015610971573d6000803e3d6000fd5b505050506040513d6000823e3d601f19601f8201168201806040525081019061099a91906125bb565b89602001516040518363ffffffff1660e01b81526004016109bc9291906123fa565b600060405180830381865afa1580156109d9573d6000803e3d6000fd5b505050506040513d6000823e3d601f19601f82011682018060405250810190610a0291906125bb565b86602001516040518363ffffffff1660e01b8152600401610a249291906123fa565b600060405180830381865afa158015610a41573d6000803e3d6000fd5b505050506040513d6000823e3d601f19601f82011682018060405250810190610a6a91906125bb565b905060008060009054906101000a900473ffffffffffffffffffffffffffffffffffffffff1673ffffffffffffffffffffffffffffffffffffffff1663fb2bedad60008054906101000a900473ffffffffffffffffffffffffffffffffffffffff1673ffffffffffffffffffffffffffffffffffffffff1663b5e2832560008054906101000a900473ffffffffffffffffffffffffffffffffffffffff1673ffffffffffffffffffffffffffffffffffffffff1663fb2bedad8b60200151886040518363ffffffff1660e01b8152600401610b469291906123fa565b600060405180830381865afa158015610b63573d6000803e3d6000fd5b505050506040513d6000823e3d601f19601f82011682018060405250810190610b8c91906125bb565b876040518363ffffffff1660e01b8152600401610baa9291906123fa565b600060405180830381865afa158015610bc7573d6000803e3d6000fd5b505050506040513d6000823e3d601f19601f82011682018060405250810190610bf091906125bb565b88604001516040518363ffffffff1660e01b8152600401610c129291906123fa565b600060405180830381865afa158015610c2f573d6000803e3d6000fd5b505050506040513d6000823e3d601f19601f82011682018060405250810190610c5891906125bb565b9050610c648282610c70565b93505050505b92915050565b610c786119d9565b604051806060016040528060006001811115610c9757610c96611e37565b5b815260200184815260200183815250905092915050565b610cb66119d9565b6040518060600160405280600180811115610cd457610cd3611e37565b5b815260200160008054906101000a900473ffffffffffffffffffffffffffffffffffffffff1673ffffffffffffffffffffffffffffffffffffffff1663bc1b392d6040518163ffffffff1660e01b8152600401600060405180830381865afa158015610d44573d6000803e3d6000fd5b505050506040513d6000823e3d601f19601f82011682018060405250810190610d6d91906125bb565b815260200160008054906101000a900473ffffffffffffffffffffffffffffffffffffffff1673ffffffffffffffffffffffffffffffffffffffff1663bc1b392d6040518163ffffffff1660e01b8152600401600060405180830381865afa158015610ddd573d6000803e3d6000fd5b505050506040513d6000823e3d601f19601f82011682018060405250810190610e0691906125bb565b815250905090565b610e166119d9565b60008054906101000a900473ffffffffffffffffffffffffffffffffffffffff1673ffffffffffffffffffffffffffffffffffffffff1663d4d45554836040015160008054906101000a900473ffffffffffffffffffffffffffffffffffffffff1673ffffffffffffffffffffffffffffffffffffffff1663bc1b392d6040518163ffffffff1660e01b8152600401600060405180830381865afa158015610ec2573d6000803e3d6000fd5b505050506040513d6000823e3d601f19601f82011682018060405250810190610eeb91906125bb565b6040518363ffffffff1660e01b8152600401610f089291906123fa565b602060405180830381865afa158015610f25573d6000803e3d6000fd5b505050506040513d601f19601f82011682018060405250810190610f499190612431565b15610f5d57610f56610cae565b905061179f565b60008060009054906101000a900473ffffffffffffffffffffffffffffffffffffffff1673ffffffffffffffffffffffffffffffffffffffff1663b5e2832560008054906101000a900473ffffffffffffffffffffffffffffffffffffffff1673ffffffffffffffffffffffffffffffffffffffff1663b5e2832560008054906101000a900473ffffffffffffffffffffffffffffffffffffffff1673ffffffffffffffffffffffffffffffffffffffff166345caa1176040518163ffffffff1660e01b8152600401600060405180830381865afa158015611043573d6000803e3d6000fd5b505050506040513d6000823e3d601f19601f8201168201806040525081019061106c91906125bb565b60008054906101000a900473ffffffffffffffffffffffffffffffffffffffff1673ffffffffffffffffffffffffffffffffffffffff1663b5e2832589602001518a602001516040518363ffffffff1660e01b81526004016110cf9291906123fa565b600060405180830381865afa1580156110ec573d6000803e3d6000fd5b505050506040513d6000823e3d601f19601f8201168201806040525081019061111591906125bb565b6040518363ffffffff1660e01b81526004016111329291906123fa565b600060405180830381865afa15801561114f573d6000803e3d6000fd5b505050506040513d6000823e3d601f19601f8201168201806040525081019061117891906125bb565b60008054906101000a900473ffffffffffffffffffffffffffffffffffffffff1673ffffffffffffffffffffffffffffffffffffffff1663a672d10060008054906101000a900473ffffffffffffffffffffffffffffffffffffffff1673ffffffffffffffffffffffffffffffffffffffff1663b5e2832560008054906101000a900473ffffffffffffffffffffffffffffffffffffffff1673ffffffffffffffffffffffffffffffffffffffff16635fdf05d76040518163ffffffff1660e01b8152600401600060405180830381865afa15801561125b573d6000803e3d6000fd5b505050506040513d6000823e3d601f19601f8201168201806040525081019061128491906125bb565b8a604001516040518363ffffffff1660e01b81526004016112a69291906123fa565b600060405180830381865afa1580156112c3573d6000803e3d6000fd5b505050506040513d6000823e3d601f19601f820116820180604052508101906112ec91906125bb565b6040518263ffffffff1660e01b81526004016113089190612604565b600060405180830381865afa158015611325573d6000803e3d6000fd5b505050506040513d6000823e3d601f19601f8201168201806040525081019061134e91906125bb565b6040518363ffffffff1660e01b815260040161136b9291906123fa565b600060405180830381865afa158015611388573d6000803e3d6000fd5b505050506040513d6000823e3d601f19601f820116820180604052508101906113b191906125bb565b905060008060009054906101000a900473ffffffffffffffffffffffffffffffffffffffff1673ffffffffffffffffffffffffffffffffffffffff1663fb2bedad60008054906101000a900473ffffffffffffffffffffffffffffffffffffffff1673ffffffffffffffffffffffffffffffffffffffff1663fb2bedad60008054906101000a900473ffffffffffffffffffffffffffffffffffffffff1673ffffffffffffffffffffffffffffffffffffffff1663b5e2832587886040518363ffffffff1660e01b81526004016114899291906123fa565b600060405180830381865afa1580156114a6573d6000803e3d6000fd5b505050506040513d6000823e3d601f19601f820116820180604052508101906114cf91906125bb565b88602001516040518363ffffffff1660e01b81526004016114f19291906123fa565b600060405180830381865afa15801561150e573d6000803e3d6000fd5b505050506040513d6000823e3d601f19601f8201168201806040525081019061153791906125bb565b86602001516040518363ffffffff1660e01b81526004016115599291906123fa565b600060405180830381865afa158015611576573d6000803e3d6000fd5b505050506040513d6000823e3d601f19601f8201168201806040525081019061159f91906125bb565b905060008060009054906101000a900473ffffffffffffffffffffffffffffffffffffffff1673ffffffffffffffffffffffffffffffffffffffff1663fb2bedad60008054906101000a900473ffffffffffffffffffffffffffffffffffffffff1673ffffffffffffffffffffffffffffffffffffffff1663b5e2832560008054906101000a900473ffffffffffffffffffffffffffffffffffffffff1673ffffffffffffffffffffffffffffffffffffffff1663fb2bedad8a60200151886040518363ffffffff1660e01b815260040161167b9291906123fa565b600060405180830381865afa158015611698573d6000803e3d6000fd5b505050506040513d6000823e3d601f19601f820116820180604052508101906116c191906125bb565b876040518363ffffffff1660e01b81526004016116df9291906123fa565b600060405180830381865afa1580156116fc573d6000803e3d6000fd5b505050506040513d6000823e3d601f19601f8201168201806040525081019061172591906125bb565b87604001516040518363ffffffff1660e01b81526004016117479291906123fa565b600060405180830381865afa158015611764573d6000803e3d6000fd5b505050506040513d6000823e3d601f19601f8201168201806040525081019061178d91906125bb565b90506117998282610c70565b93505050505b919050565b60006001808111156117b9576117b8611e37565b5b836000015160018111156117d0576117cf611e37565b5b14801561180457506001808111156117eb576117ea611e37565b5b8260000151600181111561180257611801611e37565b5b145b1561181257600190506119d3565b6000600181111561182657611825611e37565b5b8360000151600181111561183d5761183c611e37565b5b14801561187257506000600181111561185957611858611e37565b5b826000015160018111156118705761186f611e37565b5b145b156119ce5760008054906101000a900473ffffffffffffffffffffffffffffffffffffffff1673ffffffffffffffffffffffffffffffffffffffff1663d4d45554846020015184602001516040518363ffffffff1660e01b81526004016118da9291906123fa565b602060405180830381865afa1580156118f7573d6000803e3d6000fd5b505050506040513d601f19601f8201168201806040525081019061191b9190612431565b80156119c7575060008054906101000a900473ffffffffffffffffffffffffffffffffffffffff1673ffffffffffffffffffffffffffffffffffffffff1663d4d45554846040015184604001516040518363ffffffff1660e01b81526004016119859291906123fa565b602060405180830381865afa1580156119a2573d6000803e3d6000fd5b505050506040513d601f19601f820116820180604052508101906119c69190612431565b5b90506119d3565b600090505b92915050565b6040518060600160405280600060018111156119f8576119f7611e37565b5b8152602001611a05611a18565b8152602001611a12611a18565b81525090565b6040518060200160405280611a2b611a31565b81525090565b604051806060016040528060608152602001600015158152602001600081525090565b6000604051905090565b600080fd5b600080fd5b600080fd5b6000601f19601f8301169050919050565b7f4e487b7100000000000000000000000000000000000000000000000000000000600052604160045260246000fd5b611ab682611a6d565b810181811067ffffffffffffffff82111715611ad557611ad4611a7e565b5b80604052505050565b6000611ae8611a54565b9050611af48282611aad565b919050565b600080fd5b600080fd5b600080fd5b600067ffffffffffffffff821115611b2357611b22611a7e565b5b611b2c82611a6d565b9050602081019050919050565b82818337600083830152505050565b6000611b5b611b5684611b08565b611ade565b905082815260208101848484011115611b7757611b76611b03565b5b611b82848285611b39565b509392505050565b600082601f830112611b9f57611b9e611afe565b5b8135611baf848260208601611b48565b91505092915050565b60008115159050919050565b611bcd81611bb8565b8114611bd857600080fd5b50565b600081359050611bea81611bc4565b92915050565b6000819050919050565b611c0381611bf0565b8114611c0e57600080fd5b50565b600081359050611c2081611bfa565b92915050565b600060608284031215611c3c57611c3b611a68565b5b611c466060611ade565b9050600082013567ffffffffffffffff811115611c6657611c65611af9565b5b611c7284828501611b8a565b6000830152506020611c8684828501611bdb565b6020830152506040611c9a84828501611c11565b60408301525092915050565b60028110611cb357600080fd5b50565b600081359050611cc581611ca6565b92915050565b600060208284031215611ce157611ce0611a68565b5b611ceb6020611ade565b9050600082013567ffffffffffffffff811115611d0b57611d0a611af9565b5b611d1784828501611c26565b60008301525092915050565b600060608284031215611d3957611d38611a68565b5b611d436060611ade565b90506000611d5384828501611cb6565b600083015250602082013567ffffffffffffffff811115611d7757611d76611af9565b5b611d8384828501611ccb565b602083015250604082013567ffffffffffffffff811115611da757611da6611af9565b5b611db384828501611ccb565b60408301525092915050565b60008060408385031215611dd657611dd5611a5e565b5b600083013567ffffffffffffffff811115611df457611df3611a63565b5b611e0085828601611c26565b925050602083013567ffffffffffffffff811115611e2157611e20611a63565b5b611e2d85828601611d23565b9150509250929050565b7f4e487b7100000000000000000000000000000000000000000000000000000000600052602160045260246000fd5b60028110611e7757611e76611e37565b5b50565b6000819050611e8882611e66565b919050565b6000611e9882611e7a565b9050919050565b611ea881611e8d565b82525050565b600081519050919050565b600082825260208201905092915050565b60005b83811015611ee8578082015181840152602081019050611ecd565b60008484015250505050565b6000611eff82611eae565b611f098185611eb9565b9350611f19818560208601611eca565b611f2281611a6d565b840191505092915050565b611f3681611bb8565b82525050565b611f4581611bf0565b82525050565b60006060830160008301518482036000860152611f688282611ef4565b9150506020830151611f7d6020860182611f2d565b506040830151611f906040860182611f3c565b508091505092915050565b60006020830160008301518482036000860152611fb88282611f4b565b9150508091505092915050565b6000606083016000830151611fdd6000860182611e9f565b5060208301518482036020860152611ff58282611f9b565b9150506040830151848203604086015261200f8282611f9b565b9150508091505092915050565b600060208201905081810360008301526120368184611fc5565b905092915050565b6000806040838503121561205557612054611a5e565b5b600083013567ffffffffffffffff81111561207357612072611a63565b5b61207f85828601611d23565b925050602083013567ffffffffffffffff8111156120a05761209f611a63565b5b6120ac85828601611d23565b9150509250929050565b600080604083850312156120cd576120cc611a5e565b5b600083013567ffffffffffffffff8111156120eb576120ea611a63565b5b6120f785828601611ccb565b925050602083013567ffffffffffffffff81111561211857612117611a63565b5b61212485828601611ccb565b9150509250929050565b60006020828403121561214457612143611a5e565b5b600082013567ffffffffffffffff81111561216257612161611a63565b5b61216e84828501611d23565b91505092915050565b61218081611bb8565b82525050565b600060208201905061219b6000830184612177565b92915050565b600082825260208201905092915050565b60006121bd82611eae565b6121c781856121a1565b93506121d7818560208601611eca565b6121e081611a6d565b840191505092915050565b6121f481611bb8565b82525050565b61220381611bf0565b82525050565b6000606083016000830151848203600086015261222682826121b2565b915050602083015161223b60208601826121eb565b50604083015161224e60408601826121fa565b508091505092915050565b600060208201905081810360008301526122738184612209565b905092915050565b600067ffffffffffffffff82111561229657612295611a7e565b5b602082029050602081019050919050565b600080fd5b6000815190506122bb81611bc4565b92915050565b60006122d46122cf8461227b565b611ade565b905080838252602082019050602084028301858111156122f7576122f66122a7565b5b835b81811015612320578061230c88826122ac565b8452602084019350506020810190506122f9565b5050509392505050565b600082601f83011261233f5761233e611afe565b5b815161234f8482602086016122c1565b91505092915050565b60006020828403121561236e5761236d611a5e565b5b600082015167ffffffffffffffff81111561238c5761238b611a63565b5b6123988482850161232a565b91505092915050565b7f4e487b7100000000000000000000000000000000000000000000000000000000600052603260045260246000fd5b600060208301600083015184820360008601526123ed8282611f4b565b9150508091505092915050565b6000604082019050818103600083015261241481856123d0565b9050818103602083015261242881846123d0565b90509392505050565b60006020828403121561244757612446611a5e565b5b6000612455848285016122ac565b91505092915050565b600061247161246c84611b08565b611ade565b90508281526020810184848401111561248d5761248c611b03565b5b612498848285611eca565b509392505050565b600082601f8301126124b5576124b4611afe565b5b81516124c584826020860161245e565b91505092915050565b6000815190506124dd81611bfa565b92915050565b6000606082840312156124f9576124f8611a68565b5b6125036060611ade565b9050600082015167ffffffffffffffff81111561252357612522611af9565b5b61252f848285016124a0565b6000830152506020612543848285016122ac565b6020830152506040612557848285016124ce565b60408301525092915050565b60006020828403121561257957612578611a68565b5b6125836020611ade565b9050600082015167ffffffffffffffff8111156125a3576125a2611af9565b5b6125af848285016124e3565b60008301525092915050565b6000602082840312156125d1576125d0611a5e565b5b600082015167ffffffffffffffff8111156125ef576125ee611a63565b5b6125fb84828501612563565b91505092915050565b6000602082019050818103600083015261261e81846123d0565b90509291505056fea2646970667358221220fbc15d8b48b02e5dd6559b0247a2429f512ed72a63bf38d1c2e1b17e4193024d64736f6c634300081b0033608060405234801561001057600080fd5b50604051612a42380380612a42833981810160405281019061003291906100ed565b806000806101000a81548173ffffffffffffffffffffffffffffffffffffffff021916908373ffffffffffffffffffffffffffffffffffffffff1602179055505061011a565b600080fd5b600073ffffffffffffffffffffffffffffffffffffffff82169050919050565b60006100a88261007d565b9050919050565b60006100ba8261009d565b9050919050565b6100ca816100af565b81146100d557600080fd5b50565b6000815190506100e7816100c1565b92915050565b60006020828403121561010357610102610078565b5b6000610111848285016100d8565b91505092915050565b612919806101296000396000f3fe608060405234801561001057600080fd5b50600436106100625760003560e01c806324dca0c714610067578063292310eb1461009757806355e359c8146100b55780638c9d83c1146100e55780639c3e8627146101155780639ee46fb314610145575b600080fd5b610081600480360381019061007c9190611f96565b610175565b60405161008e9190612237565b60405180910390f35b61009f610c63565b6040516100ac9190612237565b60405180910390f35b6100cf60048036038101906100ca9190612259565b610dc3565b6040516100dc9190612237565b60405180910390f35b6100ff60048036038101906100fa91906122d1565b610ef9565b60405161010c9190612237565b60405180910390f35b61012f600480360381019061012a9190611f96565b610f37565b60405161013c9190612358565b60405180910390f35b61015f600480360381019061015a9190612373565b61116c565b60405161016c9190612237565b60405180910390f35b61017d611b02565b6001808111156101905761018f61200e565b5b836000015160018111156101a7576101a661200e565b5b036101b457819050610c5d565b6001808111156101c7576101c661200e565b5b826000015160018111156101de576101dd61200e565b5b036101eb57829050610c5d565b60008054906101000a900473ffffffffffffffffffffffffffffffffffffffff1673ffffffffffffffffffffffffffffffffffffffff1663ab80cf76846020015184602001516040518363ffffffff1660e01b815260040161024e929190612400565b602060405180830381865afa15801561026b573d6000803e3d6000fd5b505050506040513d601f19601f8201168201806040525081019061028f919061244c565b801561033b575060008054906101000a900473ffffffffffffffffffffffffffffffffffffffff1673ffffffffffffffffffffffffffffffffffffffff1663ab80cf76846040015184604001516040518363ffffffff1660e01b81526004016102f9929190612400565b602060405180830381865afa158015610316573d6000803e3d6000fd5b505050506040513d601f19601f8201168201806040525081019061033a919061244c565b5b15610350576103498361116c565b9050610c5d565b60008054906101000a900473ffffffffffffffffffffffffffffffffffffffff1673ffffffffffffffffffffffffffffffffffffffff1663ab80cf76846020015184602001516040518363ffffffff1660e01b81526004016103b3929190612400565b602060405180830381865afa1580156103d0573d6000803e3d6000fd5b505050506040513d601f19601f820116820180604052508101906103f4919061244c565b80156104a1575060008054906101000a900473ffffffffffffffffffffffffffffffffffffffff1673ffffffffffffffffffffffffffffffffffffffff1663ab80cf76846040015184604001516040518363ffffffff1660e01b815260040161045e929190612400565b602060405180830381865afa15801561047b573d6000803e3d6000fd5b505050506040513d601f19601f8201168201806040525081019061049f919061244c565b155b156105dd576105d660008054906101000a900473ffffffffffffffffffffffffffffffffffffffff1673ffffffffffffffffffffffffffffffffffffffff1663bc1b392d6040518163ffffffff1660e01b8152600401600060405180830381865afa158015610514573d6000803e3d6000fd5b505050506040513d6000823e3d601f19601f8201168201806040525081019061053d919061265e565b60008054906101000a900473ffffffffffffffffffffffffffffffffffffffff1673ffffffffffffffffffffffffffffffffffffffff1663bc1b392d6040518163ffffffff1660e01b8152600401600060405180830381865afa1580156105a8573d6000803e3d6000fd5b505050506040513d6000823e3d601f19601f820116820180604052508101906105d1919061265e565b610ef9565b9050610c5d565b60008060009054906101000a900473ffffffffffffffffffffffffffffffffffffffff1673ffffffffffffffffffffffffffffffffffffffff166307a5ecaa60008054906101000a900473ffffffffffffffffffffffffffffffffffffffff1673ffffffffffffffffffffffffffffffffffffffff16635f6910d4866040015188604001516040518363ffffffff1660e01b815260040161067f929190612400565b600060405180830381865afa15801561069c573d6000803e3d6000fd5b505050506040513d6000823e3d601f19601f820116820180604052508101906106c5919061265e565b60008054906101000a900473ffffffffffffffffffffffffffffffffffffffff1673ffffffffffffffffffffffffffffffffffffffff166364c044fe60008054906101000a900473ffffffffffffffffffffffffffffffffffffffff1673ffffffffffffffffffffffffffffffffffffffff16635f6910d489602001518b602001516040518363ffffffff1660e01b8152600401610764929190612400565b600060405180830381865afa158015610781573d6000803e3d6000fd5b505050506040513d6000823e3d601f19601f820116820180604052508101906107aa919061265e565b6040518263ffffffff1660e01b81526004016107c691906126a7565b600060405180830381865afa1580156107e3573d6000803e3d6000fd5b505050506040513d6000823e3d601f19601f8201168201806040525081019061080c919061265e565b6040518363ffffffff1660e01b8152600401610829929190612400565b600060405180830381865afa158015610846573d6000803e3d6000fd5b505050506040513d6000823e3d601f19601f8201168201806040525081019061086f919061265e565b905060008060009054906101000a900473ffffffffffffffffffffffffffffffffffffffff1673ffffffffffffffffffffffffffffffffffffffff16635f6910d460008054906101000a900473ffffffffffffffffffffffffffffffffffffffff1673ffffffffffffffffffffffffffffffffffffffff16635f6910d460008054906101000a900473ffffffffffffffffffffffffffffffffffffffff1673ffffffffffffffffffffffffffffffffffffffff166307a5ecaa87886040518363ffffffff1660e01b8152600401610947929190612400565b600060405180830381865afa158015610964573d6000803e3d6000fd5b505050506040513d6000823e3d601f19601f8201168201806040525081019061098d919061265e565b89602001516040518363ffffffff1660e01b81526004016109af929190612400565b600060405180830381865afa1580156109cc573d6000803e3d6000fd5b505050506040513d6000823e3d601f19601f820116820180604052508101906109f5919061265e565b86602001516040518363ffffffff1660e01b8152600401610a17929190612400565b600060405180830381865afa158015610a34573d6000803e3d6000fd5b505050506040513d6000823e3d601f19601f82011682018060405250810190610a5d919061265e565b905060008060009054906101000a900473ffffffffffffffffffffffffffffffffffffffff1673ffffffffffffffffffffffffffffffffffffffff16635f6910d460008054906101000a900473ffffffffffffffffffffffffffffffffffffffff1673ffffffffffffffffffffffffffffffffffffffff166307a5ecaa60008054906101000a900473ffffffffffffffffffffffffffffffffffffffff1673ffffffffffffffffffffffffffffffffffffffff16635f6910d48b60200151886040518363ffffffff1660e01b8152600401610b39929190612400565b600060405180830381865afa158015610b56573d6000803e3d6000fd5b505050506040513d6000823e3d601f19601f82011682018060405250810190610b7f919061265e565b876040518363ffffffff1660e01b8152600401610b9d929190612400565b600060405180830381865afa158015610bba573d6000803e3d6000fd5b505050506040513d6000823e3d601f19601f82011682018060405250810190610be3919061265e565b88604001516040518363ffffffff1660e01b8152600401610c05929190612400565b600060405180830381865afa158015610c22573d6000803e3d6000fd5b505050506040513d6000823e3d601f19601f82011682018060405250810190610c4b919061265e565b9050610c578282610ef9565b93505050505b92915050565b610c6b611b02565b6040518060600160405280600180811115610c8957610c8861200e565b5b815260200160008054906101000a900473ffffffffffffffffffffffffffffffffffffffff1673ffffffffffffffffffffffffffffffffffffffff1663bc1b392d6040518163ffffffff1660e01b8152600401600060405180830381865afa158015610cf9573d6000803e3d6000fd5b505050506040513d6000823e3d601f19601f82011682018060405250810190610d22919061265e565b815260200160008054906101000a900473ffffffffffffffffffffffffffffffffffffffff1673ffffffffffffffffffffffffffffffffffffffff1663bc1b392d6040518163ffffffff1660e01b8152600401600060405180830381865afa158015610d92573d6000803e3d6000fd5b505050506040513d6000823e3d601f19601f82011682018060405250810190610dbb919061265e565b815250905090565b610dcb611b02565b600015158360200151151514610de057600080fd5b6000610dea610c63565b90506000839050600073__$861e165b3789503b1dee5f6def1855c9ef$__63d57f6fe7876040518263ffffffff1660e01b8152600401610e2a9190612781565b600060405180830381865af4158015610e47573d6000803e3d6000fd5b505050506040513d6000823e3d601f19601f82011682018060405250810190610e70919061286b565b905080600081518110610e8657610e856128b4565b5b602002602001015115610e97578192505b6000600190505b8151811015610eec57610eb08361116c565b9250818181518110610ec557610ec46128b4565b5b602002602001015115610edf57610edc8484610175565b93505b8080600101915050610e9e565b5082935050505092915050565b610f01611b02565b604051806060016040528060006001811115610f2057610f1f61200e565b5b815260200184815260200183815250905092915050565b6000600180811115610f4c57610f4b61200e565b5b83600001516001811115610f6357610f6261200e565b5b148015610f975750600180811115610f7e57610f7d61200e565b5b82600001516001811115610f9557610f9461200e565b5b145b15610fa55760019050611166565b60006001811115610fb957610fb861200e565b5b83600001516001811115610fd057610fcf61200e565b5b148015611005575060006001811115610fec57610feb61200e565b5b826000015160018111156110035761100261200e565b5b145b156111615760008054906101000a900473ffffffffffffffffffffffffffffffffffffffff1673ffffffffffffffffffffffffffffffffffffffff1663ab80cf76846020015184602001516040518363ffffffff1660e01b815260040161106d929190612400565b602060405180830381865afa15801561108a573d6000803e3d6000fd5b505050506040513d601f19601f820116820180604052508101906110ae919061244c565b801561115a575060008054906101000a900473ffffffffffffffffffffffffffffffffffffffff1673ffffffffffffffffffffffffffffffffffffffff1663ab80cf76846040015184604001516040518363ffffffff1660e01b8152600401611118929190612400565b602060405180830381865afa158015611135573d6000803e3d6000fd5b505050506040513d601f19601f82011682018060405250810190611159919061244c565b5b9050611166565b600090505b92915050565b611174611b02565b60008054906101000a900473ffffffffffffffffffffffffffffffffffffffff1673ffffffffffffffffffffffffffffffffffffffff1663ab80cf76836040015160008054906101000a900473ffffffffffffffffffffffffffffffffffffffff1673ffffffffffffffffffffffffffffffffffffffff1663bc1b392d6040518163ffffffff1660e01b8152600401600060405180830381865afa158015611220573d6000803e3d6000fd5b505050506040513d6000823e3d601f19601f82011682018060405250810190611249919061265e565b6040518363ffffffff1660e01b8152600401611266929190612400565b602060405180830381865afa158015611283573d6000803e3d6000fd5b505050506040513d601f19601f820116820180604052508101906112a7919061244c565b156112bb576112b4610c63565b9050611afd565b60008060009054906101000a900473ffffffffffffffffffffffffffffffffffffffff1673ffffffffffffffffffffffffffffffffffffffff166307a5ecaa60008054906101000a900473ffffffffffffffffffffffffffffffffffffffff1673ffffffffffffffffffffffffffffffffffffffff166307a5ecaa60008054906101000a900473ffffffffffffffffffffffffffffffffffffffff1673ffffffffffffffffffffffffffffffffffffffff166345caa1176040518163ffffffff1660e01b8152600401600060405180830381865afa1580156113a1573d6000803e3d6000fd5b505050506040513d6000823e3d601f19601f820116820180604052508101906113ca919061265e565b60008054906101000a900473ffffffffffffffffffffffffffffffffffffffff1673ffffffffffffffffffffffffffffffffffffffff166307a5ecaa89602001518a602001516040518363ffffffff1660e01b815260040161142d929190612400565b600060405180830381865afa15801561144a573d6000803e3d6000fd5b505050506040513d6000823e3d601f19601f82011682018060405250810190611473919061265e565b6040518363ffffffff1660e01b8152600401611490929190612400565b600060405180830381865afa1580156114ad573d6000803e3d6000fd5b505050506040513d6000823e3d601f19601f820116820180604052508101906114d6919061265e565b60008054906101000a900473ffffffffffffffffffffffffffffffffffffffff1673ffffffffffffffffffffffffffffffffffffffff166364c044fe60008054906101000a900473ffffffffffffffffffffffffffffffffffffffff1673ffffffffffffffffffffffffffffffffffffffff166307a5ecaa60008054906101000a900473ffffffffffffffffffffffffffffffffffffffff1673ffffffffffffffffffffffffffffffffffffffff16635fdf05d76040518163ffffffff1660e01b8152600401600060405180830381865afa1580156115b9573d6000803e3d6000fd5b505050506040513d6000823e3d601f19601f820116820180604052508101906115e2919061265e565b8a604001516040518363ffffffff1660e01b8152600401611604929190612400565b600060405180830381865afa158015611621573d6000803e3d6000fd5b505050506040513d6000823e3d601f19601f8201168201806040525081019061164a919061265e565b6040518263ffffffff1660e01b815260040161166691906126a7565b600060405180830381865afa158015611683573d6000803e3d6000fd5b505050506040513d6000823e3d601f19601f820116820180604052508101906116ac919061265e565b6040518363ffffffff1660e01b81526004016116c9929190612400565b600060405180830381865afa1580156116e6573d6000803e3d6000fd5b505050506040513d6000823e3d601f19601f8201168201806040525081019061170f919061265e565b905060008060009054906101000a900473ffffffffffffffffffffffffffffffffffffffff1673ffffffffffffffffffffffffffffffffffffffff16635f6910d460008054906101000a900473ffffffffffffffffffffffffffffffffffffffff1673ffffffffffffffffffffffffffffffffffffffff16635f6910d460008054906101000a900473ffffffffffffffffffffffffffffffffffffffff1673ffffffffffffffffffffffffffffffffffffffff166307a5ecaa87886040518363ffffffff1660e01b81526004016117e7929190612400565b600060405180830381865afa158015611804573d6000803e3d6000fd5b505050506040513d6000823e3d601f19601f8201168201806040525081019061182d919061265e565b88602001516040518363ffffffff1660e01b815260040161184f929190612400565b600060405180830381865afa15801561186c573d6000803e3d6000fd5b505050506040513d6000823e3d601f19601f82011682018060405250810190611895919061265e565b86602001516040518363ffffffff1660e01b81526004016118b7929190612400565b600060405180830381865afa1580156118d4573d6000803e3d6000fd5b505050506040513d6000823e3d601f19601f820116820180604052508101906118fd919061265e565b905060008060009054906101000a900473ffffffffffffffffffffffffffffffffffffffff1673ffffffffffffffffffffffffffffffffffffffff16635f6910d460008054906101000a900473ffffffffffffffffffffffffffffffffffffffff1673ffffffffffffffffffffffffffffffffffffffff166307a5ecaa60008054906101000a900473ffffffffffffffffffffffffffffffffffffffff1673ffffffffffffffffffffffffffffffffffffffff16635f6910d48a60200151886040518363ffffffff1660e01b81526004016119d9929190612400565b600060405180830381865afa1580156119f6573d6000803e3d6000fd5b505050506040513d6000823e3d601f19601f82011682018060405250810190611a1f919061265e565b876040518363ffffffff1660e01b8152600401611a3d929190612400565b600060405180830381865afa158015611a5a573d6000803e3d6000fd5b505050506040513d6000823e3d601f19601f82011682018060405250810190611a83919061265e565b87604001516040518363ffffffff1660e01b8152600401611aa5929190612400565b600060405180830381865afa158015611ac2573d6000803e3d6000fd5b505050506040513d6000823e3d601f19601f82011682018060405250810190611aeb919061265e565b9050611af78282610ef9565b93505050505b919050565b604051806060016040528060006001811115611b2157611b2061200e565b5b8152602001611b2e611b41565b8152602001611b3b611b41565b81525090565b6040518060400160405280611b54611b67565b8152602001611b61611b67565b81525090565b6040518060200160405280611b7a611b80565b81525090565b604051806060016040528060608152602001600015158152602001600081525090565b6000604051905090565b600080fd5b600080fd5b600080fd5b6000601f19601f8301169050919050565b7f4e487b7100000000000000000000000000000000000000000000000000000000600052604160045260246000fd5b611c0582611bbc565b810181811067ffffffffffffffff82111715611c2457611c23611bcd565b5b80604052505050565b6000611c37611ba3565b9050611c438282611bfc565b919050565b600080fd5b60028110611c5a57600080fd5b50565b600081359050611c6c81611c4d565b92915050565b600080fd5b600080fd5b600067ffffffffffffffff821115611c9757611c96611bcd565b5b611ca082611bbc565b9050602081019050919050565b82818337600083830152505050565b6000611ccf611cca84611c7c565b611c2d565b905082815260208101848484011115611ceb57611cea611c77565b5b611cf6848285611cad565b509392505050565b600082601f830112611d1357611d12611c72565b5b8135611d23848260208601611cbc565b91505092915050565b60008115159050919050565b611d4181611d2c565b8114611d4c57600080fd5b50565b600081359050611d5e81611d38565b92915050565b6000819050919050565b611d7781611d64565b8114611d8257600080fd5b50565b600081359050611d9481611d6e565b92915050565b600060608284031215611db057611daf611bb7565b5b611dba6060611c2d565b9050600082013567ffffffffffffffff811115611dda57611dd9611c48565b5b611de684828501611cfe565b6000830152506020611dfa84828501611d4f565b6020830152506040611e0e84828501611d85565b60408301525092915050565b600060208284031215611e3057611e2f611bb7565b5b611e3a6020611c2d565b9050600082013567ffffffffffffffff811115611e5a57611e59611c48565b5b611e6684828501611d9a565b60008301525092915050565b600060408284031215611e8857611e87611bb7565b5b611e926040611c2d565b9050600082013567ffffffffffffffff811115611eb257611eb1611c48565b5b611ebe84828501611e1a565b600083015250602082013567ffffffffffffffff811115611ee257611ee1611c48565b5b611eee84828501611e1a565b60208301525092915050565b600060608284031215611f1057611f0f611bb7565b5b611f1a6060611c2d565b90506000611f2a84828501611c5d565b600083015250602082013567ffffffffffffffff811115611f4e57611f4d611c48565b5b611f5a84828501611e72565b602083015250604082013567ffffffffffffffff811115611f7e57611f7d611c48565b5b611f8a84828501611e72565b60408301525092915050565b60008060408385031215611fad57611fac611bad565b5b600083013567ffffffffffffffff811115611fcb57611fca611bb2565b5b611fd785828601611efa565b925050602083013567ffffffffffffffff811115611ff857611ff7611bb2565b5b61200485828601611efa565b9150509250929050565b7f4e487b7100000000000000000000000000000000000000000000000000000000600052602160045260246000fd5b6002811061204e5761204d61200e565b5b50565b600081905061205f8261203d565b919050565b600061206f82612051565b9050919050565b61207f81612064565b82525050565b600081519050919050565b600082825260208201905092915050565b60005b838110156120bf5780820151818401526020810190506120a4565b60008484015250505050565b60006120d682612085565b6120e08185612090565b93506120f08185602086016120a1565b6120f981611bbc565b840191505092915050565b61210d81611d2c565b82525050565b61211c81611d64565b82525050565b6000606083016000830151848203600086015261213f82826120cb565b91505060208301516121546020860182612104565b5060408301516121676040860182612113565b508091505092915050565b6000602083016000830151848203600086015261218f8282612122565b9150508091505092915050565b600060408301600083015184820360008601526121b98282612172565b915050602083015184820360208601526121d38282612172565b9150508091505092915050565b60006060830160008301516121f86000860182612076565b5060208301518482036020860152612210828261219c565b9150506040830151848203604086015261222a828261219c565b9150508091505092915050565b6000602082019050818103600083015261225181846121e0565b905092915050565b600080604083850312156122705761226f611bad565b5b600083013567ffffffffffffffff81111561228e5761228d611bb2565b5b61229a85828601611d9a565b925050602083013567ffffffffffffffff8111156122bb576122ba611bb2565b5b6122c785828601611efa565b9150509250929050565b600080604083850312156122e8576122e7611bad565b5b600083013567ffffffffffffffff81111561230657612305611bb2565b5b61231285828601611e72565b925050602083013567ffffffffffffffff81111561233357612332611bb2565b5b61233f85828601611e72565b9150509250929050565b61235281611d2c565b82525050565b600060208201905061236d6000830184612349565b92915050565b60006020828403121561238957612388611bad565b5b600082013567ffffffffffffffff8111156123a7576123a6611bb2565b5b6123b384828501611efa565b91505092915050565b600060408301600083015184820360008601526123d98282612172565b915050602083015184820360208601526123f38282612172565b9150508091505092915050565b6000604082019050818103600083015261241a81856123bc565b9050818103602083015261242e81846123bc565b90509392505050565b60008151905061244681611d38565b92915050565b60006020828403121561246257612461611bad565b5b600061247084828501612437565b91505092915050565b600061248c61248784611c7c565b611c2d565b9050828152602081018484840111156124a8576124a7611c77565b5b6124b38482856120a1565b509392505050565b600082601f8301126124d0576124cf611c72565b5b81516124e0848260208601612479565b91505092915050565b6000815190506124f881611d6e565b92915050565b60006060828403121561251457612513611bb7565b5b61251e6060611c2d565b9050600082015167ffffffffffffffff81111561253e5761253d611c48565b5b61254a848285016124bb565b600083015250602061255e84828501612437565b6020830152506040612572848285016124e9565b60408301525092915050565b60006020828403121561259457612593611bb7565b5b61259e6020611c2d565b9050600082015167ffffffffffffffff8111156125be576125bd611c48565b5b6125ca848285016124fe565b60008301525092915050565b6000604082840312156125ec576125eb611bb7565b5b6125f66040611c2d565b9050600082015167ffffffffffffffff81111561261657612615611c48565b5b6126228482850161257e565b600083015250602082015167ffffffffffffffff81111561264657612645611c48565b5b6126528482850161257e565b60208301525092915050565b60006020828403121561267457612673611bad565b5b600082015167ffffffffffffffff81111561269257612691611bb2565b5b61269e848285016125d6565b91505092915050565b600060208201905081810360008301526126c181846123bc565b905092915050565b600082825260208201905092915050565b60006126e582612085565b6126ef81856126c9565b93506126ff8185602086016120a1565b61270881611bbc565b840191505092915050565b61271c81611d2c565b82525050565b61272b81611d64565b82525050565b6000606083016000830151848203600086015261274e82826126da565b91505060208301516127636020860182612713565b5060408301516127766040860182612722565b508091505092915050565b6000602082019050818103600083015261279b8184612731565b905092915050565b600067ffffffffffffffff8211156127be576127bd611bcd565b5b602082029050602081019050919050565b600080fd5b60006127e76127e2846127a3565b611c2d565b9050808382526020820190506020840283018581111561280a576128096127cf565b5b835b81811015612833578061281f8882612437565b84526020840193505060208101905061280c565b5050509392505050565b600082601f83011261285257612851611c72565b5b81516128628482602086016127d4565b91505092915050565b60006020828403121561288157612880611bad565b5b600082015167ffffffffffffffff81111561289f5761289e611bb2565b5b6128ab8482850161283d565b91505092915050565b7f4e487b7100000000000000000000000000000000000000000000000000000000600052603260045260246000fdfea26469706673582212203373c478603be784a7ae3d6fe8ad657f30a1430c8f5db99e67c3512f5e71093c64736f6c634300081b0033608060405234801561001057600080fd5b50604051611454380380611454833981810160405281019061003291906100ed565b806000806101000a81548173ffffffffffffffffffffffffffffffffffffffff021916908373ffffffffffffffffffffffffffffffffffffffff1602179055505061011a565b600080fd5b600073ffffffffffffffffffffffffffffffffffffffff82169050919050565b60006100a88261007d565b9050919050565b60006100ba8261009d565b9050919050565b6100ca816100af565b81146100d557600080fd5b50565b6000815190506100e7816100c1565b92915050565b60006020828403121561010357610102610078565b5b6000610111848285016100d8565b91505092915050565b61132b806101296000396000f3fe608060405234801561001057600080fd5b50600436106100415760003560e01c8063292310eb146100465780638a954d1214610064578063998e9b3814610094575b600080fd5b61004e6100c4565b60405161005b9190610882565b60405180910390f35b61007e60048036038101906100799190610cef565b610224565b60405161008b9190610882565b60405180910390f35b6100ae60048036038101906100a99190610e28565b610261565b6040516100bb9190610eaf565b60405180910390f35b6100cc610496565b60405180606001604052806001808111156100ea576100e9610590565b5b815260200160008054906101000a900473ffffffffffffffffffffffffffffffffffffffff1673ffffffffffffffffffffffffffffffffffffffff1663bc1b392d6040518163ffffffff1660e01b8152600401600060405180830381865afa15801561015a573d6000803e3d6000fd5b505050506040513d6000823e3d601f19601f820116820180604052508101906101839190611204565b815260200160008054906101000a900473ffffffffffffffffffffffffffffffffffffffff1673ffffffffffffffffffffffffffffffffffffffff1663bc1b392d6040518163ffffffff1660e01b8152600401600060405180830381865afa1580156101f3573d6000803e3d6000fd5b505050506040513d6000823e3d601f19601f8201168201806040525081019061021c9190611204565b815250905090565b61022c610496565b604051806060016040528060018081111561024a57610249610590565b5b815260200184815260200183815250905092915050565b600060018081111561027657610275610590565b5b8360000151600181111561028d5761028c610590565b5b1480156102c157506001808111156102a8576102a7610590565b5b826000015160018111156102bf576102be610590565b5b145b156102cf5760019050610490565b600060018111156102e3576102e2610590565b5b836000015160018111156102fa576102f9610590565b5b14801561032f57506000600181111561031657610315610590565b5b8260000151600181111561032d5761032c610590565b5b145b1561048b5760008054906101000a900473ffffffffffffffffffffffffffffffffffffffff1673ffffffffffffffffffffffffffffffffffffffff16639eea8ce8846020015184602001516040518363ffffffff1660e01b8152600401610397929190611291565b602060405180830381865afa1580156103b4573d6000803e3d6000fd5b505050506040513d601f19601f820116820180604052508101906103d891906112c8565b8015610484575060008054906101000a900473ffffffffffffffffffffffffffffffffffffffff1673ffffffffffffffffffffffffffffffffffffffff16639eea8ce8846040015184604001516040518363ffffffff1660e01b8152600401610442929190611291565b602060405180830381865afa15801561045f573d6000803e3d6000fd5b505050506040513d601f19601f8201168201806040525081019061048391906112c8565b5b9050610490565b600090505b92915050565b6040518060600160405280600060018111156104b5576104b4610590565b5b81526020016104c26104d5565b81526020016104cf6104d5565b81525090565b60405180604001604052806104e86104fb565b81526020016104f56104fb565b81525090565b604051806060016040528061050e61052e565b815260200161051b61052e565b815260200161052861052e565b81525090565b6040518060400160405280610541610554565b815260200161054e610554565b81525090565b604051806020016040528061056761056d565b81525090565b604051806060016040528060608152602001600015158152602001600081525090565b7f4e487b7100000000000000000000000000000000000000000000000000000000600052602160045260246000fd5b600281106105d0576105cf610590565b5b50565b60008190506105e1826105bf565b919050565b60006105f1826105d3565b9050919050565b610601816105e6565b82525050565b600081519050919050565b600082825260208201905092915050565b60005b83811015610641578082015181840152602081019050610626565b60008484015250505050565b6000601f19601f8301169050919050565b600061066982610607565b6106738185610612565b9350610683818560208601610623565b61068c8161064d565b840191505092915050565b60008115159050919050565b6106ac81610697565b82525050565b6000819050919050565b6106c5816106b2565b82525050565b600060608301600083015184820360008601526106e8828261065e565b91505060208301516106fd60208601826106a3565b50604083015161071060408601826106bc565b508091505092915050565b6000602083016000830151848203600086015261073882826106cb565b9150508091505092915050565b60006040830160008301518482036000860152610762828261071b565b9150506020830151848203602086015261077c828261071b565b9150508091505092915050565b600060608301600083015184820360008601526107a68282610745565b915050602083015184820360208601526107c08282610745565b915050604083015184820360408601526107da8282610745565b9150508091505092915050565b600060408301600083015184820360008601526108048282610789565b9150506020830151848203602086015261081e8282610789565b9150508091505092915050565b600060608301600083015161084360008601826105f8565b506020830151848203602086015261085b82826107e7565b9150506040830151848203604086015261087582826107e7565b9150508091505092915050565b6000602082019050818103600083015261089c818461082b565b905092915050565b6000604051905090565b600080fd5b600080fd5b600080fd5b7f4e487b7100000000000000000000000000000000000000000000000000000000600052604160045260246000fd5b6108f58261064d565b810181811067ffffffffffffffff82111715610914576109136108bd565b5b80604052505050565b60006109276108a4565b905061093382826108ec565b919050565b600080fd5b600080fd5b600080fd5b600067ffffffffffffffff821115610962576109616108bd565b5b61096b8261064d565b9050602081019050919050565b82818337600083830152505050565b600061099a61099584610947565b61091d565b9050828152602081018484840111156109b6576109b5610942565b5b6109c1848285610978565b509392505050565b600082601f8301126109de576109dd61093d565b5b81356109ee848260208601610987565b91505092915050565b610a0081610697565b8114610a0b57600080fd5b50565b600081359050610a1d816109f7565b92915050565b610a2c816106b2565b8114610a3757600080fd5b50565b600081359050610a4981610a23565b92915050565b600060608284031215610a6557610a646108b8565b5b610a6f606061091d565b9050600082013567ffffffffffffffff811115610a8f57610a8e610938565b5b610a9b848285016109c9565b6000830152506020610aaf84828501610a0e565b6020830152506040610ac384828501610a3a565b60408301525092915050565b600060208284031215610ae557610ae46108b8565b5b610aef602061091d565b9050600082013567ffffffffffffffff811115610b0f57610b0e610938565b5b610b1b84828501610a4f565b60008301525092915050565b600060408284031215610b3d57610b3c6108b8565b5b610b47604061091d565b9050600082013567ffffffffffffffff811115610b6757610b66610938565b5b610b7384828501610acf565b600083015250602082013567ffffffffffffffff811115610b9757610b96610938565b5b610ba384828501610acf565b60208301525092915050565b600060608284031215610bc557610bc46108b8565b5b610bcf606061091d565b9050600082013567ffffffffffffffff811115610bef57610bee610938565b5b610bfb84828501610b27565b600083015250602082013567ffffffffffffffff811115610c1f57610c1e610938565b5b610c2b84828501610b27565b602083015250604082013567ffffffffffffffff811115610c4f57610c4e610938565b5b610c5b84828501610b27565b60408301525092915050565b600060408284031215610c7d57610c7c6108b8565b5b610c87604061091d565b9050600082013567ffffffffffffffff811115610ca757610ca6610938565b5b610cb384828501610baf565b600083015250602082013567ffffffffffffffff811115610cd757610cd6610938565b5b610ce384828501610baf565b60208301525092915050565b60008060408385031215610d0657610d056108ae565b5b600083013567ffffffffffffffff811115610d2457610d236108b3565b5b610d3085828601610c67565b925050602083013567ffffffffffffffff811115610d5157610d506108b3565b5b610d5d85828601610c67565b9150509250929050565b60028110610d7457600080fd5b50565b600081359050610d8681610d67565b92915050565b600060608284031215610da257610da16108b8565b5b610dac606061091d565b90506000610dbc84828501610d77565b600083015250602082013567ffffffffffffffff811115610de057610ddf610938565b5b610dec84828501610c67565b602083015250604082013567ffffffffffffffff811115610e1057610e0f610938565b5b610e1c84828501610c67565b60408301525092915050565b60008060408385031215610e3f57610e3e6108ae565b5b600083013567ffffffffffffffff811115610e5d57610e5c6108b3565b5b610e6985828601610d8c565b925050602083013567ffffffffffffffff811115610e8a57610e896108b3565b5b610e9685828601610d8c565b9150509250929050565b610ea981610697565b82525050565b6000602082019050610ec46000830184610ea0565b92915050565b6000610edd610ed884610947565b61091d565b905082815260208101848484011115610ef957610ef8610942565b5b610f04848285610623565b509392505050565b600082601f830112610f2157610f2061093d565b5b8151610f31848260208601610eca565b91505092915050565b600081519050610f49816109f7565b92915050565b600081519050610f5e81610a23565b92915050565b600060608284031215610f7a57610f796108b8565b5b610f84606061091d565b9050600082015167ffffffffffffffff811115610fa457610fa3610938565b5b610fb084828501610f0c565b6000830152506020610fc484828501610f3a565b6020830152506040610fd884828501610f4f565b60408301525092915050565b600060208284031215610ffa57610ff96108b8565b5b611004602061091d565b9050600082015167ffffffffffffffff81111561102457611023610938565b5b61103084828501610f64565b60008301525092915050565b600060408284031215611052576110516108b8565b5b61105c604061091d565b9050600082015167ffffffffffffffff81111561107c5761107b610938565b5b61108884828501610fe4565b600083015250602082015167ffffffffffffffff8111156110ac576110ab610938565b5b6110b884828501610fe4565b60208301525092915050565b6000606082840312156110da576110d96108b8565b5b6110e4606061091d565b9050600082015167ffffffffffffffff81111561110457611103610938565b5b6111108482850161103c565b600083015250602082015167ffffffffffffffff81111561113457611133610938565b5b6111408482850161103c565b602083015250604082015167ffffffffffffffff81111561116457611163610938565b5b6111708482850161103c565b60408301525092915050565b600060408284031215611192576111916108b8565b5b61119c604061091d565b9050600082015167ffffffffffffffff8111156111bc576111bb610938565b5b6111c8848285016110c4565b600083015250602082015167ffffffffffffffff8111156111ec576111eb610938565b5b6111f8848285016110c4565b60208301525092915050565b60006020828403121561121a576112196108ae565b5b600082015167ffffffffffffffff811115611238576112376108b3565b5b6112448482850161117c565b91505092915050565b6000604083016000830151848203600086015261126a8282610789565b915050602083015184820360208601526112848282610789565b9150508091505092915050565b600060408201905081810360008301526112ab818561124d565b905081810360208301526112bf818461124d565b90509392505050565b6000602082840312156112de576112dd6108ae565b5b60006112ec84828501610f3a565b9150509291505056fea2646970667358221220ac51442558951daae04490a3bb356b667c2d2b36129bd716a851d80f80e9522264736f6c634300081b0033",
  "linkReferences": {
    "contracts/lib/BigNumber.sol": {
      "BigNumbers": [
        {
          "length": 20,
          "start": 6
        },
        {
          "length": 20,
          "start": 199
        },
        {
          "length": 20,
          "start": 1534
        },
        {
          "length": 20,
          "start": 1820
        },
        {
          "length": 20,
          "start": 2553
        },
        {
          "length": 20,
          "start": 2839
        },
        {
          "length": 20,
          "start": 3286
        },
        {
          "length": 20,
          "start": 3572
        },
        {
          "length": 20,
          "start": 16518
        },
        {
          "length": 20,
          "start": 16544
        },
        {
          "length": 20,
          "start": 16673
        },
        {
          "length": 20,
          "start": 16890
        },
        {
          "length": 20,
          "start": 16916
        },
        {
          "length": 20,
          "start": 17045
        },
        {
          "length": 20,
          "start": 17262
        },
        {
          "length": 20,
          "start": 18242
        },
        {
          "length": 20,
          "start": 18268
        },
        {
          "length": 20,
          "start": 18397
        },
        {
          "length": 20,
          "start": 18614
        },
        {
          "length": 20,
          "start": 18640
        },
        {
          "length": 20,
          "start": 18769
        },
        {
          "length": 20,
          "start": 18986
        },
        {
          "length": 20,
          "start": 21046
        },
        {
          "length": 20,
          "start": 41711
        },
        {
          "length": 20,
          "start": 45092
        },
        {
          "length": 20,
          "start": 45458
        },
        {
          "length": 20,
          "start": 45805
        },
        {
          "length": 20,
          "start": 46188
        },
        {
          "length": 20,
          "start": 46516
        },
        {
          "length": 20,
          "start": 46676
        },
        {
          "length": 20,
          "start": 46817
        },
        {
          "length": 20,
          "start": 46958
        },
        {
          "length": 20,
          "start": 47099
        },
        {
          "length": 20,
          "start": 47259
        },
        {
          "length": 20,
          "start": 47578
        },
        {
          "length": 20,
          "start": 47609
        },
        {
          "length": 20,
          "start": 47887
        },
        {
          "length": 20,
          "start": 47918
        },
        {
          "length": 20,
          "start": 47946
        },
        {
          "length": 20,
          "start": 48314
        },
        {
          "length": 20,
          "start": 48661
        },
        {
          "length": 20,
          "start": 48981
        },
        {
          "length": 20,
          "start": 49173
        },
        {
          "length": 20,
          "start": 49520
        },
        {
          "length": 20,
          "start": 49840
        },
        {
          "length": 20,
          "start": 50016
        },
        {
          "length": 20,
          "start": 50170
        },
        {
          "length": 20,
          "start": 50517
        },
        {
          "length": 20,
          "start": 50834
        },
        {
          "length": 20,
          "start": 51225
        },
        {
          "length": 20,
          "start": 51572
        },
        {
          "length": 20,
          "start": 51892
        },
        {
          "length": 20,
          "start": 81284
        }
      ]
    },
    "contracts/lib/GetBits.sol": {
      "GetBits": [
        {
          "length": 20,
          "start": 21020
        },
        {
          "length": 20,
          "start": 81443
        },
        {
          "length": 20,
          "start": 92004
        },
        {
          "length": 20,
          "start": 105272
        }
      ]
    }
  },
  "deployedLinkReferences": {
    "contracts/lib/BigNumber.sol": {
      "BigNumbers": [
        {
          "length": 20,
          "start": 7073
        },
        {
          "length": 20,
          "start": 7099
        },
        {
          "length": 20,
          "start": 7228
        },
        {
          "length": 20,
          "start": 7445
        },
        {
          "length": 20,
          "start": 7471
        },
        {
          "length": 20,
          "start": 7600
        },
        {
          "length": 20,
          "start": 7817
        },
        {
          "length": 20,
          "start": 8797
        },
        {
          "length": 20,
          "start": 8823
        },
        {
          "length": 20,
          "start": 8952
        },
        {
          "length": 20,
          "start": 9169
        },
        {
          "length": 20,
          "start": 9195
        },
        {
          "length": 20,
          "start": 9324
        },
        {
          "length": 20,
          "start": 9541
        },
        {
          "length": 20,
          "start": 11601
        }
      ]
    },
    "contracts/lib/GetBits.sol": {
      "GetBits": [
        {
          "length": 20,
          "start": 11575
        }
      ]
    }
  }
}