{
  "_format": "hh-sol-artifact-1",
  "contractName": "PointZp",
  "sourceName": "contracts/point/pointZp.sol",
  "abi": [
    {
      "inputs": [
        {
          "internalType": "contract BigFiniteField",
          "name": "field",
          "type": "address"
        }
      ],
      "stateMutability": "nonpayable",
      "type": "constructor"
    },
    {
      "inputs": [
        {
          "components": [
            {
              "internalType": "enum PointType",
              "name": "pointType",
              "type": "uint8"
            },
            {
              "components": [
                {
                  "components": [
                    {
                      "internalType": "bytes",
                      "name": "val",
                      "type": "bytes"
                    },
                    {
                      "internalType": "bool",
                      "name": "neg",
                      "type": "bool"
                    },
                    {
                      "internalType": "uint256",
                      "name": "bitlen",
                      "type": "uint256"
                    }
                  ],
                  "internalType": "struct BigNumber",
                  "name": "value",
                  "type": "tuple"
                }
              ],
              "internalType": "struct Zp",
              "name": "x",
              "type": "tuple"
            },
            {
              "components": [
                {
                  "components": [
                    {
                      "internalType": "bytes",
                      "name": "val",
                      "type": "bytes"
                    },
                    {
                      "internalType": "bool",
                      "name": "neg",
                      "type": "bool"
                    },
                    {
                      "internalType": "uint256",
                      "name": "bitlen",
                      "type": "uint256"
                    }
                  ],
                  "internalType": "struct BigNumber",
                  "name": "value",
                  "type": "tuple"
                }
              ],
              "internalType": "struct Zp",
              "name": "y",
              "type": "tuple"
            }
          ],
          "internalType": "struct Point_Zp",
          "name": "self",
          "type": "tuple"
        },
        {
          "components": [
            {
              "internalType": "enum PointType",
              "name": "pointType",
              "type": "uint8"
            },
            {
              "components": [
                {
                  "components": [
                    {
                      "internalType": "bytes",
                      "name": "val",
                      "type": "bytes"
                    },
                    {
                      "internalType": "bool",
                      "name": "neg",
                      "type": "bool"
                    },
                    {
                      "internalType": "uint256",
                      "name": "bitlen",
                      "type": "uint256"
                    }
                  ],
                  "internalType": "struct BigNumber",
                  "name": "value",
                  "type": "tuple"
                }
              ],
              "internalType": "struct Zp",
              "name": "x",
              "type": "tuple"
            },
            {
              "components": [
                {
                  "components": [
                    {
                      "internalType": "bytes",
                      "name": "val",
                      "type": "bytes"
                    },
                    {
                      "internalType": "bool",
                      "name": "neg",
                      "type": "bool"
                    },
                    {
                      "internalType": "uint256",
                      "name": "bitlen",
                      "type": "uint256"
                    }
                  ],
                  "internalType": "struct BigNumber",
                  "name": "value",
                  "type": "tuple"
                }
              ],
              "internalType": "struct Zp",
              "name": "y",
              "type": "tuple"
            }
          ],
          "internalType": "struct Point_Zp",
          "name": "other",
          "type": "tuple"
        }
      ],
      "name": "add",
      "outputs": [
        {
          "components": [
            {
              "internalType": "enum PointType",
              "name": "pointType",
              "type": "uint8"
            },
            {
              "components": [
                {
                  "components": [
                    {
                      "internalType": "bytes",
                      "name": "val",
                      "type": "bytes"
                    },
                    {
                      "internalType": "bool",
                      "name": "neg",
                      "type": "bool"
                    },
                    {
                      "internalType": "uint256",
                      "name": "bitlen",
                      "type": "uint256"
                    }
                  ],
                  "internalType": "struct BigNumber",
                  "name": "value",
                  "type": "tuple"
                }
              ],
              "internalType": "struct Zp",
              "name": "x",
              "type": "tuple"
            },
            {
              "components": [
                {
                  "components": [
                    {
                      "internalType": "bytes",
                      "name": "val",
                      "type": "bytes"
                    },
                    {
                      "internalType": "bool",
                      "name": "neg",
                      "type": "bool"
                    },
                    {
                      "internalType": "uint256",
                      "name": "bitlen",
                      "type": "uint256"
                    }
                  ],
                  "internalType": "struct BigNumber",
                  "name": "value",
                  "type": "tuple"
                }
              ],
              "internalType": "struct Zp",
              "name": "y",
              "type": "tuple"
            }
          ],
          "internalType": "struct Point_Zp",
          "name": "",
          "type": "tuple"
        }
      ],
      "stateMutability": "view",
      "type": "function"
    },
    {
      "inputs": [
        {
          "components": [
            {
              "internalType": "enum PointType",
              "name": "pointType",
              "type": "uint8"
            },
            {
              "components": [
                {
                  "components": [
                    {
                      "internalType": "bytes",
                      "name": "val",
                      "type": "bytes"
                    },
                    {
                      "internalType": "bool",
                      "name": "neg",
                      "type": "bool"
                    },
                    {
                      "internalType": "uint256",
                      "name": "bitlen",
                      "type": "uint256"
                    }
                  ],
                  "internalType": "struct BigNumber",
                  "name": "value",
                  "type": "tuple"
                }
              ],
              "internalType": "struct Zp",
              "name": "x",
              "type": "tuple"
            },
            {
              "components": [
                {
                  "components": [
                    {
                      "internalType": "bytes",
                      "name": "val",
                      "type": "bytes"
                    },
                    {
                      "internalType": "bool",
                      "name": "neg",
                      "type": "bool"
                    },
                    {
                      "internalType": "uint256",
                      "name": "bitlen",
                      "type": "uint256"
                    }
                  ],
                  "internalType": "struct BigNumber",
                  "name": "value",
                  "type": "tuple"
                }
              ],
              "internalType": "struct Zp",
              "name": "y",
              "type": "tuple"
            }
          ],
          "internalType": "struct Point_Zp",
          "name": "self",
          "type": "tuple"
        }
      ],
      "name": "double",
      "outputs": [
        {
          "components": [
            {
              "internalType": "enum PointType",
              "name": "pointType",
              "type": "uint8"
            },
            {
              "components": [
                {
                  "components": [
                    {
                      "internalType": "bytes",
                      "name": "val",
                      "type": "bytes"
                    },
                    {
                      "internalType": "bool",
                      "name": "neg",
                      "type": "bool"
                    },
                    {
                      "internalType": "uint256",
                      "name": "bitlen",
                      "type": "uint256"
                    }
                  ],
                  "internalType": "struct BigNumber",
                  "name": "value",
                  "type": "tuple"
                }
              ],
              "internalType": "struct Zp",
              "name": "x",
              "type": "tuple"
            },
            {
              "components": [
                {
                  "components": [
                    {
                      "internalType": "bytes",
                      "name": "val",
                      "type": "bytes"
                    },
                    {
                      "internalType": "bool",
                      "name": "neg",
                      "type": "bool"
                    },
                    {
                      "internalType": "uint256",
                      "name": "bitlen",
                      "type": "uint256"
                    }
                  ],
                  "internalType": "struct BigNumber",
                  "name": "value",
                  "type": "tuple"
                }
              ],
              "internalType": "struct Zp",
              "name": "y",
              "type": "tuple"
            }
          ],
          "internalType": "struct Point_Zp",
          "name": "",
          "type": "tuple"
        }
      ],
      "stateMutability": "view",
      "type": "function"
    },
    {
      "inputs": [
        {
          "components": [
            {
              "internalType": "bytes",
              "name": "val",
              "type": "bytes"
            },
            {
              "internalType": "bool",
              "name": "neg",
              "type": "bool"
            },
            {
              "internalType": "uint256",
              "name": "bitlen",
              "type": "uint256"
            }
          ],
          "internalType": "struct BigNumber",
          "name": "k",
          "type": "tuple"
        },
        {
          "components": [
            {
              "internalType": "enum PointType",
              "name": "pointType",
              "type": "uint8"
            },
            {
              "components": [
                {
                  "components": [
                    {
                      "internalType": "bytes",
                      "name": "val",
                      "type": "bytes"
                    },
                    {
                      "internalType": "bool",
                      "name": "neg",
                      "type": "bool"
                    },
                    {
                      "internalType": "uint256",
                      "name": "bitlen",
                      "type": "uint256"
                    }
                  ],
                  "internalType": "struct BigNumber",
                  "name": "value",
                  "type": "tuple"
                }
              ],
              "internalType": "struct Zp",
              "name": "x",
              "type": "tuple"
            },
            {
              "components": [
                {
                  "components": [
                    {
                      "internalType": "bytes",
                      "name": "val",
                      "type": "bytes"
                    },
                    {
                      "internalType": "bool",
                      "name": "neg",
                      "type": "bool"
                    },
                    {
                      "internalType": "uint256",
                      "name": "bitlen",
                      "type": "uint256"
                    }
                  ],
                  "internalType": "struct BigNumber",
                  "name": "value",
                  "type": "tuple"
                }
              ],
              "internalType": "struct Zp",
              "name": "y",
              "type": "tuple"
            }
          ],
          "internalType": "struct Point_Zp",
          "name": "self",
          "type": "tuple"
        }
      ],
      "name": "multiply",
      "outputs": [
        {
          "components": [
            {
              "internalType": "enum PointType",
              "name": "pointType",
              "type": "uint8"
            },
            {
              "components": [
                {
                  "components": [
                    {
                      "internalType": "bytes",
                      "name": "val",
                      "type": "bytes"
                    },
                    {
                      "internalType": "bool",
                      "name": "neg",
                      "type": "bool"
                    },
                    {
                      "internalType": "uint256",
                      "name": "bitlen",
                      "type": "uint256"
                    }
                  ],
                  "internalType": "struct BigNumber",
                  "name": "value",
                  "type": "tuple"
                }
              ],
              "internalType": "struct Zp",
              "name": "x",
              "type": "tuple"
            },
            {
              "components": [
                {
                  "components": [
                    {
                      "internalType": "bytes",
                      "name": "val",
                      "type": "bytes"
                    },
                    {
                      "internalType": "bool",
                      "name": "neg",
                      "type": "bool"
                    },
                    {
                      "internalType": "uint256",
                      "name": "bitlen",
                      "type": "uint256"
                    }
                  ],
                  "internalType": "struct BigNumber",
                  "name": "value",
                  "type": "tuple"
                }
              ],
              "internalType": "struct Zp",
              "name": "y",
              "type": "tuple"
            }
          ],
          "internalType": "struct Point_Zp",
          "name": "",
          "type": "tuple"
        }
      ],
      "stateMutability": "view",
      "type": "function"
    },
    {
      "inputs": [
        {
          "components": [
            {
              "internalType": "enum PointType",
              "name": "pointType",
              "type": "uint8"
            },
            {
              "components": [
                {
                  "components": [
                    {
                      "internalType": "bytes",
                      "name": "val",
                      "type": "bytes"
                    },
                    {
                      "internalType": "bool",
                      "name": "neg",
                      "type": "bool"
                    },
                    {
                      "internalType": "uint256",
                      "name": "bitlen",
                      "type": "uint256"
                    }
                  ],
                  "internalType": "struct BigNumber",
                  "name": "value",
                  "type": "tuple"
                }
              ],
              "internalType": "struct Zp",
              "name": "x",
              "type": "tuple"
            },
            {
              "components": [
                {
                  "components": [
                    {
                      "internalType": "bytes",
                      "name": "val",
                      "type": "bytes"
                    },
                    {
                      "internalType": "bool",
                      "name": "neg",
                      "type": "bool"
                    },
                    {
                      "internalType": "uint256",
                      "name": "bitlen",
                      "type": "uint256"
                    }
                  ],
                  "internalType": "struct BigNumber",
                  "name": "value",
                  "type": "tuple"
                }
              ],
              "internalType": "struct Zp",
              "name": "y",
              "type": "tuple"
            }
          ],
          "internalType": "struct Point_Zp",
          "name": "self",
          "type": "tuple"
        }
      ],
      "name": "negate",
      "outputs": [
        {
          "components": [
            {
              "internalType": "enum PointType",
              "name": "pointType",
              "type": "uint8"
            },
            {
              "components": [
                {
                  "components": [
                    {
                      "internalType": "bytes",
                      "name": "val",
                      "type": "bytes"
                    },
                    {
                      "internalType": "bool",
                      "name": "neg",
                      "type": "bool"
                    },
                    {
                      "internalType": "uint256",
                      "name": "bitlen",
                      "type": "uint256"
                    }
                  ],
                  "internalType": "struct BigNumber",
                  "name": "value",
                  "type": "tuple"
                }
              ],
              "internalType": "struct Zp",
              "name": "x",
              "type": "tuple"
            },
            {
              "components": [
                {
                  "components": [
                    {
                      "internalType": "bytes",
                      "name": "val",
                      "type": "bytes"
                    },
                    {
                      "internalType": "bool",
                      "name": "neg",
                      "type": "bool"
                    },
                    {
                      "internalType": "uint256",
                      "name": "bitlen",
                      "type": "uint256"
                    }
                  ],
                  "internalType": "struct BigNumber",
                  "name": "value",
                  "type": "tuple"
                }
              ],
              "internalType": "struct Zp",
              "name": "y",
              "type": "tuple"
            }
          ],
          "internalType": "struct Point_Zp",
          "name": "",
          "type": "tuple"
        }
      ],
      "stateMutability": "view",
      "type": "function"
    },
    {
      "inputs": [
        {
          "components": [
            {
              "components": [
                {
                  "internalType": "bytes",
                  "name": "val",
                  "type": "bytes"
                },
                {
                  "internalType": "bool",
                  "name": "neg",
                  "type": "bool"
                },
                {
                  "internalType": "uint256",
                  "name": "bitlen",
                  "type": "uint256"
                }
              ],
              "internalType": "struct BigNumber",
              "name": "value",
              "type": "tuple"
            }
          ],
          "internalType": "struct Zp",
          "name": "x",
          "type": "tuple"
        },
        {
          "components": [
            {
              "components": [
                {
                  "internalType": "bytes",
                  "name": "val",
                  "type": "bytes"
                },
                {
                  "internalType": "bool",
                  "name": "neg",
                  "type": "bool"
                },
                {
                  "internalType": "uint256",
                  "name": "bitlen",
                  "type": "uint256"
                }
              ],
              "internalType": "struct BigNumber",
              "name": "value",
              "type": "tuple"
            }
          ],
          "internalType": "struct Zp",
          "name": "y",
          "type": "tuple"
        }
      ],
      "name": "newPoint",
      "outputs": [
        {
          "components": [
            {
              "internalType": "enum PointType",
              "name": "pointType",
              "type": "uint8"
            },
            {
              "components": [
                {
                  "components": [
                    {
                      "internalType": "bytes",
                      "name": "val",
                      "type": "bytes"
                    },
                    {
                      "internalType": "bool",
                      "name": "neg",
                      "type": "bool"
                    },
                    {
                      "internalType": "uint256",
                      "name": "bitlen",
                      "type": "uint256"
                    }
                  ],
                  "internalType": "struct BigNumber",
                  "name": "value",
                  "type": "tuple"
                }
              ],
              "internalType": "struct Zp",
              "name": "x",
              "type": "tuple"
            },
            {
              "components": [
                {
                  "components": [
                    {
                      "internalType": "bytes",
                      "name": "val",
                      "type": "bytes"
                    },
                    {
                      "internalType": "bool",
                      "name": "neg",
                      "type": "bool"
                    },
                    {
                      "internalType": "uint256",
                      "name": "bitlen",
                      "type": "uint256"
                    }
                  ],
                  "internalType": "struct BigNumber",
                  "name": "value",
                  "type": "tuple"
                }
              ],
              "internalType": "struct Zp",
              "name": "y",
              "type": "tuple"
            }
          ],
          "internalType": "struct Point_Zp",
          "name": "",
          "type": "tuple"
        }
      ],
      "stateMutability": "pure",
      "type": "function"
    },
    {
      "inputs": [],
      "name": "point_at_infinity",
      "outputs": [
        {
          "components": [
            {
              "internalType": "enum PointType",
              "name": "pointType",
              "type": "uint8"
            },
            {
              "components": [
                {
                  "components": [
                    {
                      "internalType": "bytes",
                      "name": "val",
                      "type": "bytes"
                    },
                    {
                      "internalType": "bool",
                      "name": "neg",
                      "type": "bool"
                    },
                    {
                      "internalType": "uint256",
                      "name": "bitlen",
                      "type": "uint256"
                    }
                  ],
                  "internalType": "struct BigNumber",
                  "name": "value",
                  "type": "tuple"
                }
              ],
              "internalType": "struct Zp",
              "name": "x",
              "type": "tuple"
            },
            {
              "components": [
                {
                  "components": [
                    {
                      "internalType": "bytes",
                      "name": "val",
                      "type": "bytes"
                    },
                    {
                      "internalType": "bool",
                      "name": "neg",
                      "type": "bool"
                    },
                    {
                      "internalType": "uint256",
                      "name": "bitlen",
                      "type": "uint256"
                    }
                  ],
                  "internalType": "struct BigNumber",
                  "name": "value",
                  "type": "tuple"
                }
              ],
              "internalType": "struct Zp",
              "name": "y",
              "type": "tuple"
            }
          ],
          "internalType": "struct Point_Zp",
          "name": "",
          "type": "tuple"
        }
      ],
      "stateMutability": "view",
      "type": "function"
    }
  ],
  "bytecode": "0x608060405234801561001057600080fd5b50604051612aca380380612aca833981810160405281019061003291906100ed565b806000806101000a81548173ffffffffffffffffffffffffffffffffffffffff021916908373ffffffffffffffffffffffffffffffffffffffff1602179055505061011a565b600080fd5b600073ffffffffffffffffffffffffffffffffffffffff82169050919050565b60006100a88261007d565b9050919050565b60006100ba8261009d565b9050919050565b6100ca816100af565b81146100d557600080fd5b50565b6000815190506100e7816100c1565b92915050565b60006020828403121561010357610102610078565b5b6000610111848285016100d8565b91505092915050565b6129a1806101296000396000f3fe608060405234801561001057600080fd5b50600436106100615760003560e01c80627995931461006657806307951d69146100965780631953a9bf146100c6578063292310eb146100f65780636cee5a0b1461011457806398dc089a14610144575b600080fd5b610080600480360381019061007b919061201c565b610174565b60405161008d9190612279565b60405180910390f35b6100b060048036038101906100ab919061229b565b6102be565b6040516100bd9190612279565b60405180910390f35b6100e060048036038101906100db9190612313565b610c84565b6040516100ed9190612279565b60405180910390f35b6100fe610cc2565b60405161010b9190612279565b60405180910390f35b61012e6004803603810190610129919061238b565b610e22565b60405161013b9190612279565b60405180910390f35b61015e6004803603810190610159919061238b565b6117b8565b60405161016b9190612279565b60405180910390f35b61017c611c36565b6000610186610cc2565b905083602001516101a45761019c848483611976565b9150506102b8565b6102b473__$7db5d2dbc3ae63372df6c39d501ad0f72a$__63b1d74ee98673__$7db5d2dbc3ae63372df6c39d501ad0f72a$__6340957f726001806040518363ffffffff1660e01b81526004016101fc929190612428565b600060405180830381865af4158015610219573d6000803e3d6000fd5b505050506040513d6000823e3d601f19601f82011682018060405250810190610242919061256b565b6040518363ffffffff1660e01b815260040161025f92919061266c565b600060405180830381865af415801561027c573d6000803e3d6000fd5b505050506040513d6000823e3d601f19601f820116820180604052508101906102a5919061256b565b6102ae856117b8565b83611976565b9150505b92915050565b6102c6611c36565b6001808111156102d9576102d8612094565b5b836000015160018111156102f0576102ef612094565b5b036102fd57819050610c7e565b6001808111156103105761030f612094565b5b8260000151600181111561032757610326612094565b5b0361033457829050610c7e565b60008054906101000a900473ffffffffffffffffffffffffffffffffffffffff1673ffffffffffffffffffffffffffffffffffffffff1663d4d45554846020015184602001516040518363ffffffff1660e01b81526004016103979291906126cd565b602060405180830381865afa1580156103b4573d6000803e3d6000fd5b505050506040513d601f19601f820116820180604052508101906103d89190612704565b8015610484575060008054906101000a900473ffffffffffffffffffffffffffffffffffffffff1673ffffffffffffffffffffffffffffffffffffffff1663d4d45554846040015184604001516040518363ffffffff1660e01b81526004016104429291906126cd565b602060405180830381865afa15801561045f573d6000803e3d6000fd5b505050506040513d601f19601f820116820180604052508101906104839190612704565b5b156104995761049283610e22565b9050610c7e565b60008054906101000a900473ffffffffffffffffffffffffffffffffffffffff1673ffffffffffffffffffffffffffffffffffffffff1663d4d45554846020015184602001516040518363ffffffff1660e01b81526004016104fc9291906126cd565b602060405180830381865afa158015610519573d6000803e3d6000fd5b505050506040513d601f19601f8201168201806040525081019061053d9190612704565b80156105ea575060008054906101000a900473ffffffffffffffffffffffffffffffffffffffff1673ffffffffffffffffffffffffffffffffffffffff1663d4d45554846040015184604001516040518363ffffffff1660e01b81526004016105a79291906126cd565b602060405180830381865afa1580156105c4573d6000803e3d6000fd5b505050506040513d601f19601f820116820180604052508101906105e89190612704565b155b156105fe576105f7610cc2565b9050610c7e565b60008060009054906101000a900473ffffffffffffffffffffffffffffffffffffffff1673ffffffffffffffffffffffffffffffffffffffff1663b5e2832560008054906101000a900473ffffffffffffffffffffffffffffffffffffffff1673ffffffffffffffffffffffffffffffffffffffff1663fb2bedad866040015188604001516040518363ffffffff1660e01b81526004016106a09291906126cd565b600060405180830381865afa1580156106bd573d6000803e3d6000fd5b505050506040513d6000823e3d601f19601f820116820180604052508101906106e69190612789565b60008054906101000a900473ffffffffffffffffffffffffffffffffffffffff1673ffffffffffffffffffffffffffffffffffffffff1663a672d10060008054906101000a900473ffffffffffffffffffffffffffffffffffffffff1673ffffffffffffffffffffffffffffffffffffffff1663fb2bedad89602001518b602001516040518363ffffffff1660e01b81526004016107859291906126cd565b600060405180830381865afa1580156107a2573d6000803e3d6000fd5b505050506040513d6000823e3d601f19601f820116820180604052508101906107cb9190612789565b6040518263ffffffff1660e01b81526004016107e791906127d2565b600060405180830381865afa158015610804573d6000803e3d6000fd5b505050506040513d6000823e3d601f19601f8201168201806040525081019061082d9190612789565b6040518363ffffffff1660e01b815260040161084a9291906126cd565b600060405180830381865afa158015610867573d6000803e3d6000fd5b505050506040513d6000823e3d601f19601f820116820180604052508101906108909190612789565b905060008060009054906101000a900473ffffffffffffffffffffffffffffffffffffffff1673ffffffffffffffffffffffffffffffffffffffff1663fb2bedad60008054906101000a900473ffffffffffffffffffffffffffffffffffffffff1673ffffffffffffffffffffffffffffffffffffffff1663fb2bedad60008054906101000a900473ffffffffffffffffffffffffffffffffffffffff1673ffffffffffffffffffffffffffffffffffffffff1663b5e2832587886040518363ffffffff1660e01b81526004016109689291906126cd565b600060405180830381865afa158015610985573d6000803e3d6000fd5b505050506040513d6000823e3d601f19601f820116820180604052508101906109ae9190612789565b89602001516040518363ffffffff1660e01b81526004016109d09291906126cd565b600060405180830381865afa1580156109ed573d6000803e3d6000fd5b505050506040513d6000823e3d601f19601f82011682018060405250810190610a169190612789565b86602001516040518363ffffffff1660e01b8152600401610a389291906126cd565b600060405180830381865afa158015610a55573d6000803e3d6000fd5b505050506040513d6000823e3d601f19601f82011682018060405250810190610a7e9190612789565b905060008060009054906101000a900473ffffffffffffffffffffffffffffffffffffffff1673ffffffffffffffffffffffffffffffffffffffff1663fb2bedad60008054906101000a900473ffffffffffffffffffffffffffffffffffffffff1673ffffffffffffffffffffffffffffffffffffffff1663b5e2832560008054906101000a900473ffffffffffffffffffffffffffffffffffffffff1673ffffffffffffffffffffffffffffffffffffffff1663fb2bedad8b60200151886040518363ffffffff1660e01b8152600401610b5a9291906126cd565b600060405180830381865afa158015610b77573d6000803e3d6000fd5b505050506040513d6000823e3d601f19601f82011682018060405250810190610ba09190612789565b876040518363ffffffff1660e01b8152600401610bbe9291906126cd565b600060405180830381865afa158015610bdb573d6000803e3d6000fd5b505050506040513d6000823e3d601f19601f82011682018060405250810190610c049190612789565b88604001516040518363ffffffff1660e01b8152600401610c269291906126cd565b600060405180830381865afa158015610c43573d6000803e3d6000fd5b505050506040513d6000823e3d601f19601f82011682018060405250810190610c6c9190612789565b9050610c788282610c84565b93505050505b92915050565b610c8c611c36565b604051806060016040528060006001811115610cab57610caa612094565b5b815260200184815260200183815250905092915050565b610cca611c36565b6040518060600160405280600180811115610ce857610ce7612094565b5b815260200160008054906101000a900473ffffffffffffffffffffffffffffffffffffffff1673ffffffffffffffffffffffffffffffffffffffff1663bc1b392d6040518163ffffffff1660e01b8152600401600060405180830381865afa158015610d58573d6000803e3d6000fd5b505050506040513d6000823e3d601f19601f82011682018060405250810190610d819190612789565b815260200160008054906101000a900473ffffffffffffffffffffffffffffffffffffffff1673ffffffffffffffffffffffffffffffffffffffff1663bc1b392d6040518163ffffffff1660e01b8152600401600060405180830381865afa158015610df1573d6000803e3d6000fd5b505050506040513d6000823e3d601f19601f82011682018060405250810190610e1a9190612789565b815250905090565b610e2a611c36565b60008054906101000a900473ffffffffffffffffffffffffffffffffffffffff1673ffffffffffffffffffffffffffffffffffffffff1663d4d45554836040015160008054906101000a900473ffffffffffffffffffffffffffffffffffffffff1673ffffffffffffffffffffffffffffffffffffffff1663bc1b392d6040518163ffffffff1660e01b8152600401600060405180830381865afa158015610ed6573d6000803e3d6000fd5b505050506040513d6000823e3d601f19601f82011682018060405250810190610eff9190612789565b6040518363ffffffff1660e01b8152600401610f1c9291906126cd565b602060405180830381865afa158015610f39573d6000803e3d6000fd5b505050506040513d601f19601f82011682018060405250810190610f5d9190612704565b15610f7157610f6a610cc2565b90506117b3565b60008060009054906101000a900473ffffffffffffffffffffffffffffffffffffffff1673ffffffffffffffffffffffffffffffffffffffff1663b5e2832560008054906101000a900473ffffffffffffffffffffffffffffffffffffffff1673ffffffffffffffffffffffffffffffffffffffff1663b5e2832560008054906101000a900473ffffffffffffffffffffffffffffffffffffffff1673ffffffffffffffffffffffffffffffffffffffff166345caa1176040518163ffffffff1660e01b8152600401600060405180830381865afa158015611057573d6000803e3d6000fd5b505050506040513d6000823e3d601f19601f820116820180604052508101906110809190612789565b60008054906101000a900473ffffffffffffffffffffffffffffffffffffffff1673ffffffffffffffffffffffffffffffffffffffff1663b5e2832589602001518a602001516040518363ffffffff1660e01b81526004016110e39291906126cd565b600060405180830381865afa158015611100573d6000803e3d6000fd5b505050506040513d6000823e3d601f19601f820116820180604052508101906111299190612789565b6040518363ffffffff1660e01b81526004016111469291906126cd565b600060405180830381865afa158015611163573d6000803e3d6000fd5b505050506040513d6000823e3d601f19601f8201168201806040525081019061118c9190612789565b60008054906101000a900473ffffffffffffffffffffffffffffffffffffffff1673ffffffffffffffffffffffffffffffffffffffff1663a672d10060008054906101000a900473ffffffffffffffffffffffffffffffffffffffff1673ffffffffffffffffffffffffffffffffffffffff1663b5e2832560008054906101000a900473ffffffffffffffffffffffffffffffffffffffff1673ffffffffffffffffffffffffffffffffffffffff16635fdf05d76040518163ffffffff1660e01b8152600401600060405180830381865afa15801561126f573d6000803e3d6000fd5b505050506040513d6000823e3d601f19601f820116820180604052508101906112989190612789565b8a604001516040518363ffffffff1660e01b81526004016112ba9291906126cd565b600060405180830381865afa1580156112d7573d6000803e3d6000fd5b505050506040513d6000823e3d601f19601f820116820180604052508101906113009190612789565b6040518263ffffffff1660e01b815260040161131c91906127d2565b600060405180830381865afa158015611339573d6000803e3d6000fd5b505050506040513d6000823e3d601f19601f820116820180604052508101906113629190612789565b6040518363ffffffff1660e01b815260040161137f9291906126cd565b600060405180830381865afa15801561139c573d6000803e3d6000fd5b505050506040513d6000823e3d601f19601f820116820180604052508101906113c59190612789565b905060008060009054906101000a900473ffffffffffffffffffffffffffffffffffffffff1673ffffffffffffffffffffffffffffffffffffffff1663fb2bedad60008054906101000a900473ffffffffffffffffffffffffffffffffffffffff1673ffffffffffffffffffffffffffffffffffffffff1663fb2bedad60008054906101000a900473ffffffffffffffffffffffffffffffffffffffff1673ffffffffffffffffffffffffffffffffffffffff1663b5e2832587886040518363ffffffff1660e01b815260040161149d9291906126cd565b600060405180830381865afa1580156114ba573d6000803e3d6000fd5b505050506040513d6000823e3d601f19601f820116820180604052508101906114e39190612789565b88602001516040518363ffffffff1660e01b81526004016115059291906126cd565b600060405180830381865afa158015611522573d6000803e3d6000fd5b505050506040513d6000823e3d601f19601f8201168201806040525081019061154b9190612789565b86602001516040518363ffffffff1660e01b815260040161156d9291906126cd565b600060405180830381865afa15801561158a573d6000803e3d6000fd5b505050506040513d6000823e3d601f19601f820116820180604052508101906115b39190612789565b905060008060009054906101000a900473ffffffffffffffffffffffffffffffffffffffff1673ffffffffffffffffffffffffffffffffffffffff1663fb2bedad60008054906101000a900473ffffffffffffffffffffffffffffffffffffffff1673ffffffffffffffffffffffffffffffffffffffff1663b5e2832560008054906101000a900473ffffffffffffffffffffffffffffffffffffffff1673ffffffffffffffffffffffffffffffffffffffff1663fb2bedad8a60200151886040518363ffffffff1660e01b815260040161168f9291906126cd565b600060405180830381865afa1580156116ac573d6000803e3d6000fd5b505050506040513d6000823e3d601f19601f820116820180604052508101906116d59190612789565b876040518363ffffffff1660e01b81526004016116f39291906126cd565b600060405180830381865afa158015611710573d6000803e3d6000fd5b505050506040513d6000823e3d601f19601f820116820180604052508101906117399190612789565b87604001516040518363ffffffff1660e01b815260040161175b9291906126cd565b600060405180830381865afa158015611778573d6000803e3d6000fd5b505050506040513d6000823e3d601f19601f820116820180604052508101906117a19190612789565b90506117ad8282610c84565b93505050505b919050565b6117c0611c36565b6001808111156117d3576117d2612094565b5b826000015160018111156117ea576117e9612094565b5b0361182a576040517f08c379a000000000000000000000000000000000000000000000000000000000815260040161182190612851565b60405180910390fd5b61196f826020015160008054906101000a900473ffffffffffffffffffffffffffffffffffffffff1673ffffffffffffffffffffffffffffffffffffffff1663fb2bedad60008054906101000a900473ffffffffffffffffffffffffffffffffffffffff1673ffffffffffffffffffffffffffffffffffffffff1663bc1b392d6040518163ffffffff1660e01b8152600401600060405180830381865afa1580156118d9573d6000803e3d6000fd5b505050506040513d6000823e3d601f19601f820116820180604052508101906119029190612789565b86604001516040518363ffffffff1660e01b81526004016119249291906126cd565b600060405180830381865afa158015611941573d6000803e3d6000fd5b505050506040513d6000823e3d601f19601f8201168201806040525081019061196a9190612789565b610c84565b9050919050565b61197e611c36565b600073__$7db5d2dbc3ae63372df6c39d501ad0f72a$__63bc39804e8673__$7db5d2dbc3ae63372df6c39d501ad0f72a$__63bc1b392d6040518163ffffffff1660e01b8152600401600060405180830381865af41580156119e4573d6000803e3d6000fd5b505050506040513d6000823e3d601f19601f82011682018060405250810190611a0d919061256b565b60006040518463ffffffff1660e01b8152600401611a2d93929190612871565b602060405180830381865af4158015611a4a573d6000803e3d6000fd5b505050506040513d601f19601f82011682018060405250810190611a6e91906128ec565b03611a7b57819050611c2f565b73__$7db5d2dbc3ae63372df6c39d501ad0f72a$__63ee4a4e4e856040518263ffffffff1660e01b8152600401611ab29190612919565b602060405180830381865af4158015611acf573d6000803e3d6000fd5b505050506040513d601f19601f82011682018060405250810190611af39190612704565b15611b9a57611b9373__$7db5d2dbc3ae63372df6c39d501ad0f72a$__636efac6c78660016040518363ffffffff1660e01b8152600401611b3592919061293b565b600060405180830381865af4158015611b52573d6000803e3d6000fd5b505050506040513d6000823e3d601f19601f82011682018060405250810190611b7b919061256b565b611b8485610e22565b611b8e85876102be565b611976565b9050611c2f565b611c2c73__$7db5d2dbc3ae63372df6c39d501ad0f72a$__636efac6c78660016040518363ffffffff1660e01b8152600401611bd792919061293b565b600060405180830381865af4158015611bf4573d6000803e3d6000fd5b505050506040513d6000823e3d601f19601f82011682018060405250810190611c1d919061256b565b611c2685610e22565b84611976565b90505b9392505050565b604051806060016040528060006001811115611c5557611c54612094565b5b8152602001611c62611c75565b8152602001611c6f611c75565b81525090565b6040518060200160405280611c88611c8e565b81525090565b604051806060016040528060608152602001600015158152602001600081525090565b6000604051905090565b600080fd5b600080fd5b600080fd5b6000601f19601f8301169050919050565b7f4e487b7100000000000000000000000000000000000000000000000000000000600052604160045260246000fd5b611d1382611cca565b810181811067ffffffffffffffff82111715611d3257611d31611cdb565b5b80604052505050565b6000611d45611cb1565b9050611d518282611d0a565b919050565b600080fd5b600080fd5b600080fd5b600067ffffffffffffffff821115611d8057611d7f611cdb565b5b611d8982611cca565b9050602081019050919050565b82818337600083830152505050565b6000611db8611db384611d65565b611d3b565b905082815260208101848484011115611dd457611dd3611d60565b5b611ddf848285611d96565b509392505050565b600082601f830112611dfc57611dfb611d5b565b5b8135611e0c848260208601611da5565b91505092915050565b60008115159050919050565b611e2a81611e15565b8114611e3557600080fd5b50565b600081359050611e4781611e21565b92915050565b6000819050919050565b611e6081611e4d565b8114611e6b57600080fd5b50565b600081359050611e7d81611e57565b92915050565b600060608284031215611e9957611e98611cc5565b5b611ea36060611d3b565b9050600082013567ffffffffffffffff811115611ec357611ec2611d56565b5b611ecf84828501611de7565b6000830152506020611ee384828501611e38565b6020830152506040611ef784828501611e6e565b60408301525092915050565b60028110611f1057600080fd5b50565b600081359050611f2281611f03565b92915050565b600060208284031215611f3e57611f3d611cc5565b5b611f486020611d3b565b9050600082013567ffffffffffffffff811115611f6857611f67611d56565b5b611f7484828501611e83565b60008301525092915050565b600060608284031215611f9657611f95611cc5565b5b611fa06060611d3b565b90506000611fb084828501611f13565b600083015250602082013567ffffffffffffffff811115611fd457611fd3611d56565b5b611fe084828501611f28565b602083015250604082013567ffffffffffffffff81111561200457612003611d56565b5b61201084828501611f28565b60408301525092915050565b6000806040838503121561203357612032611cbb565b5b600083013567ffffffffffffffff81111561205157612050611cc0565b5b61205d85828601611e83565b925050602083013567ffffffffffffffff81111561207e5761207d611cc0565b5b61208a85828601611f80565b9150509250929050565b7f4e487b7100000000000000000000000000000000000000000000000000000000600052602160045260246000fd5b600281106120d4576120d3612094565b5b50565b60008190506120e5826120c3565b919050565b60006120f5826120d7565b9050919050565b612105816120ea565b82525050565b600081519050919050565b600082825260208201905092915050565b60005b8381101561214557808201518184015260208101905061212a565b60008484015250505050565b600061215c8261210b565b6121668185612116565b9350612176818560208601612127565b61217f81611cca565b840191505092915050565b61219381611e15565b82525050565b6121a281611e4d565b82525050565b600060608301600083015184820360008601526121c58282612151565b91505060208301516121da602086018261218a565b5060408301516121ed6040860182612199565b508091505092915050565b6000602083016000830151848203600086015261221582826121a8565b9150508091505092915050565b600060608301600083015161223a60008601826120fc565b506020830151848203602086015261225282826121f8565b9150506040830151848203604086015261226c82826121f8565b9150508091505092915050565b600060208201905081810360008301526122938184612222565b905092915050565b600080604083850312156122b2576122b1611cbb565b5b600083013567ffffffffffffffff8111156122d0576122cf611cc0565b5b6122dc85828601611f80565b925050602083013567ffffffffffffffff8111156122fd576122fc611cc0565b5b61230985828601611f80565b9150509250929050565b6000806040838503121561232a57612329611cbb565b5b600083013567ffffffffffffffff81111561234857612347611cc0565b5b61235485828601611f28565b925050602083013567ffffffffffffffff81111561237557612374611cc0565b5b61238185828601611f28565b9150509250929050565b6000602082840312156123a1576123a0611cbb565b5b600082013567ffffffffffffffff8111156123bf576123be611cc0565b5b6123cb84828501611f80565b91505092915050565b6000819050919050565b6000819050919050565b60006124036123fe6123f9846123d4565b6123de565b611e4d565b9050919050565b612413816123e8565b82525050565b61242281611e15565b82525050565b600060408201905061243d600083018561240a565b61244a6020830184612419565b9392505050565b600061246461245f84611d65565b611d3b565b9050828152602081018484840111156124805761247f611d60565b5b61248b848285612127565b509392505050565b600082601f8301126124a8576124a7611d5b565b5b81516124b8848260208601612451565b91505092915050565b6000815190506124d081611e21565b92915050565b6000815190506124e581611e57565b92915050565b60006060828403121561250157612500611cc5565b5b61250b6060611d3b565b9050600082015167ffffffffffffffff81111561252b5761252a611d56565b5b61253784828501612493565b600083015250602061254b848285016124c1565b602083015250604061255f848285016124d6565b60408301525092915050565b60006020828403121561258157612580611cbb565b5b600082015167ffffffffffffffff81111561259f5761259e611cc0565b5b6125ab848285016124eb565b91505092915050565b600082825260208201905092915050565b60006125d08261210b565b6125da81856125b4565b93506125ea818560208601612127565b6125f381611cca565b840191505092915050565b61260781611e15565b82525050565b61261681611e4d565b82525050565b6000606083016000830151848203600086015261263982826125c5565b915050602083015161264e60208601826125fe565b506040830151612661604086018261260d565b508091505092915050565b60006040820190508181036000830152612686818561261c565b9050818103602083015261269a818461261c565b90509392505050565b600060208301600083015184820360008601526126c082826121a8565b9150508091505092915050565b600060408201905081810360008301526126e781856126a3565b905081810360208301526126fb81846126a3565b90509392505050565b60006020828403121561271a57612719611cbb565b5b6000612728848285016124c1565b91505092915050565b60006020828403121561274757612746611cc5565b5b6127516020611d3b565b9050600082015167ffffffffffffffff81111561277157612770611d56565b5b61277d848285016124eb565b60008301525092915050565b60006020828403121561279f5761279e611cbb565b5b600082015167ffffffffffffffff8111156127bd576127bc611cc0565b5b6127c984828501612731565b91505092915050565b600060208201905081810360008301526127ec81846126a3565b905092915050565b600082825260208201905092915050565b7f63616e6e6f74206e656761746520706f696e7420617420696e66696e69747900600082015250565b600061283b601f836127f4565b915061284682612805565b602082019050919050565b6000602082019050818103600083015261286a8161282e565b9050919050565b6000606082019050818103600083015261288b818661261c565b9050818103602083015261289f818561261c565b90506128ae6040830184612419565b949350505050565b6000819050919050565b6128c9816128b6565b81146128d457600080fd5b50565b6000815190506128e6816128c0565b92915050565b60006020828403121561290257612901611cbb565b5b6000612910848285016128d7565b91505092915050565b60006020820190508181036000830152612933818461261c565b905092915050565b60006040820190508181036000830152612955818561261c565b9050612964602083018461240a565b939250505056fea264697066735822122052ba687e1e25aedaa192f3b98a7f22be41568734c11a49f4dc6f3b62bb37c53964736f6c634300081b0033",
  "linkReferences": {
    "contracts/BigNumber.sol": {
      "BigNumbers": [
        {
          "length": 20,
          "start": 722
        },
        {
          "length": 20,
          "start": 749
        },
        {
          "length": 20,
          "start": 6827
        },
        {
          "length": 20,
          "start": 6854
        },
        {
          "length": 20,
          "start": 7078
        },
        {
          "length": 20,
          "start": 7206
        },
        {
          "length": 20,
          "start": 7368
        }
      ]
    }
  },
  "deployedLinkReferences": {
    "contracts/BigNumber.sol": {
      "BigNumbers": [
        {
          "length": 20,
          "start": 425
        },
        {
          "length": 20,
          "start": 452
        },
        {
          "length": 20,
          "start": 6530
        },
        {
          "length": 20,
          "start": 6557
        },
        {
          "length": 20,
          "start": 6781
        },
        {
          "length": 20,
          "start": 6909
        },
        {
          "length": 20,
          "start": 7071
        }
      ]
    }
  }
}