{
  "_format": "hh-sol-artifact-1",
  "contractName": "PointZp",
  "sourceName": "contracts/point/pointZp.sol",
  "abi": [
    {
      "inputs": [
        {
          "internalType": "contract BigFiniteField",
          "name": "field",
          "type": "address"
        }
      ],
      "stateMutability": "nonpayable",
      "type": "constructor"
    },
    {
      "inputs": [
        {
          "components": [
            {
              "internalType": "enum PointType",
              "name": "pointType",
              "type": "uint8"
            },
            {
              "components": [
                {
                  "components": [
                    {
                      "internalType": "bytes",
                      "name": "val",
                      "type": "bytes"
                    },
                    {
                      "internalType": "bool",
                      "name": "neg",
                      "type": "bool"
                    },
                    {
                      "internalType": "uint256",
                      "name": "bitlen",
                      "type": "uint256"
                    }
                  ],
                  "internalType": "struct BigNumber",
                  "name": "value",
                  "type": "tuple"
                }
              ],
              "internalType": "struct Zp",
              "name": "x",
              "type": "tuple"
            },
            {
              "components": [
                {
                  "components": [
                    {
                      "internalType": "bytes",
                      "name": "val",
                      "type": "bytes"
                    },
                    {
                      "internalType": "bool",
                      "name": "neg",
                      "type": "bool"
                    },
                    {
                      "internalType": "uint256",
                      "name": "bitlen",
                      "type": "uint256"
                    }
                  ],
                  "internalType": "struct BigNumber",
                  "name": "value",
                  "type": "tuple"
                }
              ],
              "internalType": "struct Zp",
              "name": "y",
              "type": "tuple"
            }
          ],
          "internalType": "struct Point_Zp",
          "name": "self",
          "type": "tuple"
        },
        {
          "components": [
            {
              "internalType": "enum PointType",
              "name": "pointType",
              "type": "uint8"
            },
            {
              "components": [
                {
                  "components": [
                    {
                      "internalType": "bytes",
                      "name": "val",
                      "type": "bytes"
                    },
                    {
                      "internalType": "bool",
                      "name": "neg",
                      "type": "bool"
                    },
                    {
                      "internalType": "uint256",
                      "name": "bitlen",
                      "type": "uint256"
                    }
                  ],
                  "internalType": "struct BigNumber",
                  "name": "value",
                  "type": "tuple"
                }
              ],
              "internalType": "struct Zp",
              "name": "x",
              "type": "tuple"
            },
            {
              "components": [
                {
                  "components": [
                    {
                      "internalType": "bytes",
                      "name": "val",
                      "type": "bytes"
                    },
                    {
                      "internalType": "bool",
                      "name": "neg",
                      "type": "bool"
                    },
                    {
                      "internalType": "uint256",
                      "name": "bitlen",
                      "type": "uint256"
                    }
                  ],
                  "internalType": "struct BigNumber",
                  "name": "value",
                  "type": "tuple"
                }
              ],
              "internalType": "struct Zp",
              "name": "y",
              "type": "tuple"
            }
          ],
          "internalType": "struct Point_Zp",
          "name": "other",
          "type": "tuple"
        }
      ],
      "name": "add",
      "outputs": [
        {
          "components": [
            {
              "internalType": "enum PointType",
              "name": "pointType",
              "type": "uint8"
            },
            {
              "components": [
                {
                  "components": [
                    {
                      "internalType": "bytes",
                      "name": "val",
                      "type": "bytes"
                    },
                    {
                      "internalType": "bool",
                      "name": "neg",
                      "type": "bool"
                    },
                    {
                      "internalType": "uint256",
                      "name": "bitlen",
                      "type": "uint256"
                    }
                  ],
                  "internalType": "struct BigNumber",
                  "name": "value",
                  "type": "tuple"
                }
              ],
              "internalType": "struct Zp",
              "name": "x",
              "type": "tuple"
            },
            {
              "components": [
                {
                  "components": [
                    {
                      "internalType": "bytes",
                      "name": "val",
                      "type": "bytes"
                    },
                    {
                      "internalType": "bool",
                      "name": "neg",
                      "type": "bool"
                    },
                    {
                      "internalType": "uint256",
                      "name": "bitlen",
                      "type": "uint256"
                    }
                  ],
                  "internalType": "struct BigNumber",
                  "name": "value",
                  "type": "tuple"
                }
              ],
              "internalType": "struct Zp",
              "name": "y",
              "type": "tuple"
            }
          ],
          "internalType": "struct Point_Zp",
          "name": "",
          "type": "tuple"
        }
      ],
      "stateMutability": "view",
      "type": "function"
    },
    {
      "inputs": [
        {
          "components": [
            {
              "internalType": "enum PointType",
              "name": "pointType",
              "type": "uint8"
            },
            {
              "components": [
                {
                  "components": [
                    {
                      "internalType": "bytes",
                      "name": "val",
                      "type": "bytes"
                    },
                    {
                      "internalType": "bool",
                      "name": "neg",
                      "type": "bool"
                    },
                    {
                      "internalType": "uint256",
                      "name": "bitlen",
                      "type": "uint256"
                    }
                  ],
                  "internalType": "struct BigNumber",
                  "name": "value",
                  "type": "tuple"
                }
              ],
              "internalType": "struct Zp",
              "name": "x",
              "type": "tuple"
            },
            {
              "components": [
                {
                  "components": [
                    {
                      "internalType": "bytes",
                      "name": "val",
                      "type": "bytes"
                    },
                    {
                      "internalType": "bool",
                      "name": "neg",
                      "type": "bool"
                    },
                    {
                      "internalType": "uint256",
                      "name": "bitlen",
                      "type": "uint256"
                    }
                  ],
                  "internalType": "struct BigNumber",
                  "name": "value",
                  "type": "tuple"
                }
              ],
              "internalType": "struct Zp",
              "name": "y",
              "type": "tuple"
            }
          ],
          "internalType": "struct Point_Zp",
          "name": "a",
          "type": "tuple"
        },
        {
          "components": [
            {
              "internalType": "enum PointType",
              "name": "pointType",
              "type": "uint8"
            },
            {
              "components": [
                {
                  "components": [
                    {
                      "internalType": "bytes",
                      "name": "val",
                      "type": "bytes"
                    },
                    {
                      "internalType": "bool",
                      "name": "neg",
                      "type": "bool"
                    },
                    {
                      "internalType": "uint256",
                      "name": "bitlen",
                      "type": "uint256"
                    }
                  ],
                  "internalType": "struct BigNumber",
                  "name": "value",
                  "type": "tuple"
                }
              ],
              "internalType": "struct Zp",
              "name": "x",
              "type": "tuple"
            },
            {
              "components": [
                {
                  "components": [
                    {
                      "internalType": "bytes",
                      "name": "val",
                      "type": "bytes"
                    },
                    {
                      "internalType": "bool",
                      "name": "neg",
                      "type": "bool"
                    },
                    {
                      "internalType": "uint256",
                      "name": "bitlen",
                      "type": "uint256"
                    }
                  ],
                  "internalType": "struct BigNumber",
                  "name": "value",
                  "type": "tuple"
                }
              ],
              "internalType": "struct Zp",
              "name": "y",
              "type": "tuple"
            }
          ],
          "internalType": "struct Point_Zp",
          "name": "b",
          "type": "tuple"
        }
      ],
      "name": "compare",
      "outputs": [
        {
          "internalType": "bool",
          "name": "",
          "type": "bool"
        }
      ],
      "stateMutability": "view",
      "type": "function"
    },
    {
      "inputs": [
        {
          "components": [
            {
              "internalType": "enum PointType",
              "name": "pointType",
              "type": "uint8"
            },
            {
              "components": [
                {
                  "components": [
                    {
                      "internalType": "bytes",
                      "name": "val",
                      "type": "bytes"
                    },
                    {
                      "internalType": "bool",
                      "name": "neg",
                      "type": "bool"
                    },
                    {
                      "internalType": "uint256",
                      "name": "bitlen",
                      "type": "uint256"
                    }
                  ],
                  "internalType": "struct BigNumber",
                  "name": "value",
                  "type": "tuple"
                }
              ],
              "internalType": "struct Zp",
              "name": "x",
              "type": "tuple"
            },
            {
              "components": [
                {
                  "components": [
                    {
                      "internalType": "bytes",
                      "name": "val",
                      "type": "bytes"
                    },
                    {
                      "internalType": "bool",
                      "name": "neg",
                      "type": "bool"
                    },
                    {
                      "internalType": "uint256",
                      "name": "bitlen",
                      "type": "uint256"
                    }
                  ],
                  "internalType": "struct BigNumber",
                  "name": "value",
                  "type": "tuple"
                }
              ],
              "internalType": "struct Zp",
              "name": "y",
              "type": "tuple"
            }
          ],
          "internalType": "struct Point_Zp",
          "name": "self",
          "type": "tuple"
        }
      ],
      "name": "double",
      "outputs": [
        {
          "components": [
            {
              "internalType": "enum PointType",
              "name": "pointType",
              "type": "uint8"
            },
            {
              "components": [
                {
                  "components": [
                    {
                      "internalType": "bytes",
                      "name": "val",
                      "type": "bytes"
                    },
                    {
                      "internalType": "bool",
                      "name": "neg",
                      "type": "bool"
                    },
                    {
                      "internalType": "uint256",
                      "name": "bitlen",
                      "type": "uint256"
                    }
                  ],
                  "internalType": "struct BigNumber",
                  "name": "value",
                  "type": "tuple"
                }
              ],
              "internalType": "struct Zp",
              "name": "x",
              "type": "tuple"
            },
            {
              "components": [
                {
                  "components": [
                    {
                      "internalType": "bytes",
                      "name": "val",
                      "type": "bytes"
                    },
                    {
                      "internalType": "bool",
                      "name": "neg",
                      "type": "bool"
                    },
                    {
                      "internalType": "uint256",
                      "name": "bitlen",
                      "type": "uint256"
                    }
                  ],
                  "internalType": "struct BigNumber",
                  "name": "value",
                  "type": "tuple"
                }
              ],
              "internalType": "struct Zp",
              "name": "y",
              "type": "tuple"
            }
          ],
          "internalType": "struct Point_Zp",
          "name": "",
          "type": "tuple"
        }
      ],
      "stateMutability": "view",
      "type": "function"
    },
    {
      "inputs": [
        {
          "components": [
            {
              "internalType": "bytes",
              "name": "val",
              "type": "bytes"
            },
            {
              "internalType": "bool",
              "name": "neg",
              "type": "bool"
            },
            {
              "internalType": "uint256",
              "name": "bitlen",
              "type": "uint256"
            }
          ],
          "internalType": "struct BigNumber",
          "name": "k",
          "type": "tuple"
        },
        {
          "components": [
            {
              "internalType": "enum PointType",
              "name": "pointType",
              "type": "uint8"
            },
            {
              "components": [
                {
                  "components": [
                    {
                      "internalType": "bytes",
                      "name": "val",
                      "type": "bytes"
                    },
                    {
                      "internalType": "bool",
                      "name": "neg",
                      "type": "bool"
                    },
                    {
                      "internalType": "uint256",
                      "name": "bitlen",
                      "type": "uint256"
                    }
                  ],
                  "internalType": "struct BigNumber",
                  "name": "value",
                  "type": "tuple"
                }
              ],
              "internalType": "struct Zp",
              "name": "x",
              "type": "tuple"
            },
            {
              "components": [
                {
                  "components": [
                    {
                      "internalType": "bytes",
                      "name": "val",
                      "type": "bytes"
                    },
                    {
                      "internalType": "bool",
                      "name": "neg",
                      "type": "bool"
                    },
                    {
                      "internalType": "uint256",
                      "name": "bitlen",
                      "type": "uint256"
                    }
                  ],
                  "internalType": "struct BigNumber",
                  "name": "value",
                  "type": "tuple"
                }
              ],
              "internalType": "struct Zp",
              "name": "y",
              "type": "tuple"
            }
          ],
          "internalType": "struct Point_Zp",
          "name": "self",
          "type": "tuple"
        }
      ],
      "name": "multiply",
      "outputs": [
        {
          "components": [
            {
              "internalType": "enum PointType",
              "name": "pointType",
              "type": "uint8"
            },
            {
              "components": [
                {
                  "components": [
                    {
                      "internalType": "bytes",
                      "name": "val",
                      "type": "bytes"
                    },
                    {
                      "internalType": "bool",
                      "name": "neg",
                      "type": "bool"
                    },
                    {
                      "internalType": "uint256",
                      "name": "bitlen",
                      "type": "uint256"
                    }
                  ],
                  "internalType": "struct BigNumber",
                  "name": "value",
                  "type": "tuple"
                }
              ],
              "internalType": "struct Zp",
              "name": "x",
              "type": "tuple"
            },
            {
              "components": [
                {
                  "components": [
                    {
                      "internalType": "bytes",
                      "name": "val",
                      "type": "bytes"
                    },
                    {
                      "internalType": "bool",
                      "name": "neg",
                      "type": "bool"
                    },
                    {
                      "internalType": "uint256",
                      "name": "bitlen",
                      "type": "uint256"
                    }
                  ],
                  "internalType": "struct BigNumber",
                  "name": "value",
                  "type": "tuple"
                }
              ],
              "internalType": "struct Zp",
              "name": "y",
              "type": "tuple"
            }
          ],
          "internalType": "struct Point_Zp",
          "name": "",
          "type": "tuple"
        }
      ],
      "stateMutability": "view",
      "type": "function"
    },
    {
      "inputs": [
        {
          "components": [
            {
              "internalType": "enum PointType",
              "name": "pointType",
              "type": "uint8"
            },
            {
              "components": [
                {
                  "components": [
                    {
                      "internalType": "bytes",
                      "name": "val",
                      "type": "bytes"
                    },
                    {
                      "internalType": "bool",
                      "name": "neg",
                      "type": "bool"
                    },
                    {
                      "internalType": "uint256",
                      "name": "bitlen",
                      "type": "uint256"
                    }
                  ],
                  "internalType": "struct BigNumber",
                  "name": "value",
                  "type": "tuple"
                }
              ],
              "internalType": "struct Zp",
              "name": "x",
              "type": "tuple"
            },
            {
              "components": [
                {
                  "components": [
                    {
                      "internalType": "bytes",
                      "name": "val",
                      "type": "bytes"
                    },
                    {
                      "internalType": "bool",
                      "name": "neg",
                      "type": "bool"
                    },
                    {
                      "internalType": "uint256",
                      "name": "bitlen",
                      "type": "uint256"
                    }
                  ],
                  "internalType": "struct BigNumber",
                  "name": "value",
                  "type": "tuple"
                }
              ],
              "internalType": "struct Zp",
              "name": "y",
              "type": "tuple"
            }
          ],
          "internalType": "struct Point_Zp",
          "name": "self",
          "type": "tuple"
        }
      ],
      "name": "negate",
      "outputs": [
        {
          "components": [
            {
              "internalType": "enum PointType",
              "name": "pointType",
              "type": "uint8"
            },
            {
              "components": [
                {
                  "components": [
                    {
                      "internalType": "bytes",
                      "name": "val",
                      "type": "bytes"
                    },
                    {
                      "internalType": "bool",
                      "name": "neg",
                      "type": "bool"
                    },
                    {
                      "internalType": "uint256",
                      "name": "bitlen",
                      "type": "uint256"
                    }
                  ],
                  "internalType": "struct BigNumber",
                  "name": "value",
                  "type": "tuple"
                }
              ],
              "internalType": "struct Zp",
              "name": "x",
              "type": "tuple"
            },
            {
              "components": [
                {
                  "components": [
                    {
                      "internalType": "bytes",
                      "name": "val",
                      "type": "bytes"
                    },
                    {
                      "internalType": "bool",
                      "name": "neg",
                      "type": "bool"
                    },
                    {
                      "internalType": "uint256",
                      "name": "bitlen",
                      "type": "uint256"
                    }
                  ],
                  "internalType": "struct BigNumber",
                  "name": "value",
                  "type": "tuple"
                }
              ],
              "internalType": "struct Zp",
              "name": "y",
              "type": "tuple"
            }
          ],
          "internalType": "struct Point_Zp",
          "name": "",
          "type": "tuple"
        }
      ],
      "stateMutability": "view",
      "type": "function"
    },
    {
      "inputs": [
        {
          "components": [
            {
              "components": [
                {
                  "internalType": "bytes",
                  "name": "val",
                  "type": "bytes"
                },
                {
                  "internalType": "bool",
                  "name": "neg",
                  "type": "bool"
                },
                {
                  "internalType": "uint256",
                  "name": "bitlen",
                  "type": "uint256"
                }
              ],
              "internalType": "struct BigNumber",
              "name": "value",
              "type": "tuple"
            }
          ],
          "internalType": "struct Zp",
          "name": "x",
          "type": "tuple"
        },
        {
          "components": [
            {
              "components": [
                {
                  "internalType": "bytes",
                  "name": "val",
                  "type": "bytes"
                },
                {
                  "internalType": "bool",
                  "name": "neg",
                  "type": "bool"
                },
                {
                  "internalType": "uint256",
                  "name": "bitlen",
                  "type": "uint256"
                }
              ],
              "internalType": "struct BigNumber",
              "name": "value",
              "type": "tuple"
            }
          ],
          "internalType": "struct Zp",
          "name": "y",
          "type": "tuple"
        }
      ],
      "name": "newPoint",
      "outputs": [
        {
          "components": [
            {
              "internalType": "enum PointType",
              "name": "pointType",
              "type": "uint8"
            },
            {
              "components": [
                {
                  "components": [
                    {
                      "internalType": "bytes",
                      "name": "val",
                      "type": "bytes"
                    },
                    {
                      "internalType": "bool",
                      "name": "neg",
                      "type": "bool"
                    },
                    {
                      "internalType": "uint256",
                      "name": "bitlen",
                      "type": "uint256"
                    }
                  ],
                  "internalType": "struct BigNumber",
                  "name": "value",
                  "type": "tuple"
                }
              ],
              "internalType": "struct Zp",
              "name": "x",
              "type": "tuple"
            },
            {
              "components": [
                {
                  "components": [
                    {
                      "internalType": "bytes",
                      "name": "val",
                      "type": "bytes"
                    },
                    {
                      "internalType": "bool",
                      "name": "neg",
                      "type": "bool"
                    },
                    {
                      "internalType": "uint256",
                      "name": "bitlen",
                      "type": "uint256"
                    }
                  ],
                  "internalType": "struct BigNumber",
                  "name": "value",
                  "type": "tuple"
                }
              ],
              "internalType": "struct Zp",
              "name": "y",
              "type": "tuple"
            }
          ],
          "internalType": "struct Point_Zp",
          "name": "",
          "type": "tuple"
        }
      ],
      "stateMutability": "pure",
      "type": "function"
    },
    {
      "inputs": [],
      "name": "point_at_infinity",
      "outputs": [
        {
          "components": [
            {
              "internalType": "enum PointType",
              "name": "pointType",
              "type": "uint8"
            },
            {
              "components": [
                {
                  "components": [
                    {
                      "internalType": "bytes",
                      "name": "val",
                      "type": "bytes"
                    },
                    {
                      "internalType": "bool",
                      "name": "neg",
                      "type": "bool"
                    },
                    {
                      "internalType": "uint256",
                      "name": "bitlen",
                      "type": "uint256"
                    }
                  ],
                  "internalType": "struct BigNumber",
                  "name": "value",
                  "type": "tuple"
                }
              ],
              "internalType": "struct Zp",
              "name": "x",
              "type": "tuple"
            },
            {
              "components": [
                {
                  "components": [
                    {
                      "internalType": "bytes",
                      "name": "val",
                      "type": "bytes"
                    },
                    {
                      "internalType": "bool",
                      "name": "neg",
                      "type": "bool"
                    },
                    {
                      "internalType": "uint256",
                      "name": "bitlen",
                      "type": "uint256"
                    }
                  ],
                  "internalType": "struct BigNumber",
                  "name": "value",
                  "type": "tuple"
                }
              ],
              "internalType": "struct Zp",
              "name": "y",
              "type": "tuple"
            }
          ],
          "internalType": "struct Point_Zp",
          "name": "",
          "type": "tuple"
        }
      ],
      "stateMutability": "view",
      "type": "function"
    }
  ],
  "bytecode": "0x608060405234801561001057600080fd5b50604051612d74380380612d74833981810160405281019061003291906100ed565b806000806101000a81548173ffffffffffffffffffffffffffffffffffffffff021916908373ffffffffffffffffffffffffffffffffffffffff1602179055505061011a565b600080fd5b600073ffffffffffffffffffffffffffffffffffffffff82169050919050565b60006100a88261007d565b9050919050565b60006100ba8261009d565b9050919050565b6100ca816100af565b81146100d557600080fd5b50565b6000815190506100e7816100c1565b92915050565b60006020828403121561010357610102610078565b5b6000610111848285016100d8565b91505092915050565b612c4b806101296000396000f3fe608060405234801561001057600080fd5b506004361061007c5760003560e01c8063292310eb1161005b578063292310eb146101115780636cee5a0b1461012f578063899c22981461015f57806398dc089a1461018f5761007c565b80627995931461008157806307951d69146100b15780631953a9bf146100e1575b600080fd5b61009b6004803603810190610096919061229c565b6101bf565b6040516100a891906124f9565b60405180910390f35b6100cb60048036038101906100c6919061251b565b610309565b6040516100d891906124f9565b60405180910390f35b6100fb60048036038101906100f69190612593565b610ccf565b60405161010891906124f9565b60405180910390f35b610119610d0d565b60405161012691906124f9565b60405180910390f35b6101496004803603810190610144919061260b565b610e6d565b60405161015691906124f9565b60405180910390f35b6101796004803603810190610174919061251b565b611803565b6040516101869190612663565b60405180910390f35b6101a960048036038101906101a4919061260b565b611a38565b6040516101b691906124f9565b60405180910390f35b6101c7611eb6565b60006101d1610d0d565b905083602001516101ef576101e7848483611bf6565b915050610303565b6102ff73__$7db5d2dbc3ae63372df6c39d501ad0f72a$__63b1d74ee98673__$7db5d2dbc3ae63372df6c39d501ad0f72a$__6340957f726001806040518363ffffffff1660e01b81526004016102479291906126d2565b600060405180830381865af4158015610264573d6000803e3d6000fd5b505050506040513d6000823e3d601f19601f8201168201806040525081019061028d9190612815565b6040518363ffffffff1660e01b81526004016102aa929190612916565b600060405180830381865af41580156102c7573d6000803e3d6000fd5b505050506040513d6000823e3d601f19601f820116820180604052508101906102f09190612815565b6102f985611a38565b83611bf6565b9150505b92915050565b610311611eb6565b60018081111561032457610323612314565b5b8360000151600181111561033b5761033a612314565b5b0361034857819050610cc9565b60018081111561035b5761035a612314565b5b8260000151600181111561037257610371612314565b5b0361037f57829050610cc9565b60008054906101000a900473ffffffffffffffffffffffffffffffffffffffff1673ffffffffffffffffffffffffffffffffffffffff1663d4d45554846020015184602001516040518363ffffffff1660e01b81526004016103e2929190612977565b602060405180830381865afa1580156103ff573d6000803e3d6000fd5b505050506040513d601f19601f8201168201806040525081019061042391906129ae565b80156104cf575060008054906101000a900473ffffffffffffffffffffffffffffffffffffffff1673ffffffffffffffffffffffffffffffffffffffff1663d4d45554846040015184604001516040518363ffffffff1660e01b815260040161048d929190612977565b602060405180830381865afa1580156104aa573d6000803e3d6000fd5b505050506040513d601f19601f820116820180604052508101906104ce91906129ae565b5b156104e4576104dd83610e6d565b9050610cc9565b60008054906101000a900473ffffffffffffffffffffffffffffffffffffffff1673ffffffffffffffffffffffffffffffffffffffff1663d4d45554846020015184602001516040518363ffffffff1660e01b8152600401610547929190612977565b602060405180830381865afa158015610564573d6000803e3d6000fd5b505050506040513d601f19601f8201168201806040525081019061058891906129ae565b8015610635575060008054906101000a900473ffffffffffffffffffffffffffffffffffffffff1673ffffffffffffffffffffffffffffffffffffffff1663d4d45554846040015184604001516040518363ffffffff1660e01b81526004016105f2929190612977565b602060405180830381865afa15801561060f573d6000803e3d6000fd5b505050506040513d601f19601f8201168201806040525081019061063391906129ae565b155b1561064957610642610d0d565b9050610cc9565b60008060009054906101000a900473ffffffffffffffffffffffffffffffffffffffff1673ffffffffffffffffffffffffffffffffffffffff1663b5e2832560008054906101000a900473ffffffffffffffffffffffffffffffffffffffff1673ffffffffffffffffffffffffffffffffffffffff1663fb2bedad866040015188604001516040518363ffffffff1660e01b81526004016106eb929190612977565b600060405180830381865afa158015610708573d6000803e3d6000fd5b505050506040513d6000823e3d601f19601f820116820180604052508101906107319190612a33565b60008054906101000a900473ffffffffffffffffffffffffffffffffffffffff1673ffffffffffffffffffffffffffffffffffffffff1663a672d10060008054906101000a900473ffffffffffffffffffffffffffffffffffffffff1673ffffffffffffffffffffffffffffffffffffffff1663fb2bedad89602001518b602001516040518363ffffffff1660e01b81526004016107d0929190612977565b600060405180830381865afa1580156107ed573d6000803e3d6000fd5b505050506040513d6000823e3d601f19601f820116820180604052508101906108169190612a33565b6040518263ffffffff1660e01b81526004016108329190612a7c565b600060405180830381865afa15801561084f573d6000803e3d6000fd5b505050506040513d6000823e3d601f19601f820116820180604052508101906108789190612a33565b6040518363ffffffff1660e01b8152600401610895929190612977565b600060405180830381865afa1580156108b2573d6000803e3d6000fd5b505050506040513d6000823e3d601f19601f820116820180604052508101906108db9190612a33565b905060008060009054906101000a900473ffffffffffffffffffffffffffffffffffffffff1673ffffffffffffffffffffffffffffffffffffffff1663fb2bedad60008054906101000a900473ffffffffffffffffffffffffffffffffffffffff1673ffffffffffffffffffffffffffffffffffffffff1663fb2bedad60008054906101000a900473ffffffffffffffffffffffffffffffffffffffff1673ffffffffffffffffffffffffffffffffffffffff1663b5e2832587886040518363ffffffff1660e01b81526004016109b3929190612977565b600060405180830381865afa1580156109d0573d6000803e3d6000fd5b505050506040513d6000823e3d601f19601f820116820180604052508101906109f99190612a33565b89602001516040518363ffffffff1660e01b8152600401610a1b929190612977565b600060405180830381865afa158015610a38573d6000803e3d6000fd5b505050506040513d6000823e3d601f19601f82011682018060405250810190610a619190612a33565b86602001516040518363ffffffff1660e01b8152600401610a83929190612977565b600060405180830381865afa158015610aa0573d6000803e3d6000fd5b505050506040513d6000823e3d601f19601f82011682018060405250810190610ac99190612a33565b905060008060009054906101000a900473ffffffffffffffffffffffffffffffffffffffff1673ffffffffffffffffffffffffffffffffffffffff1663fb2bedad60008054906101000a900473ffffffffffffffffffffffffffffffffffffffff1673ffffffffffffffffffffffffffffffffffffffff1663b5e2832560008054906101000a900473ffffffffffffffffffffffffffffffffffffffff1673ffffffffffffffffffffffffffffffffffffffff1663fb2bedad8b60200151886040518363ffffffff1660e01b8152600401610ba5929190612977565b600060405180830381865afa158015610bc2573d6000803e3d6000fd5b505050506040513d6000823e3d601f19601f82011682018060405250810190610beb9190612a33565b876040518363ffffffff1660e01b8152600401610c09929190612977565b600060405180830381865afa158015610c26573d6000803e3d6000fd5b505050506040513d6000823e3d601f19601f82011682018060405250810190610c4f9190612a33565b88604001516040518363ffffffff1660e01b8152600401610c71929190612977565b600060405180830381865afa158015610c8e573d6000803e3d6000fd5b505050506040513d6000823e3d601f19601f82011682018060405250810190610cb79190612a33565b9050610cc38282610ccf565b93505050505b92915050565b610cd7611eb6565b604051806060016040528060006001811115610cf657610cf5612314565b5b815260200184815260200183815250905092915050565b610d15611eb6565b6040518060600160405280600180811115610d3357610d32612314565b5b815260200160008054906101000a900473ffffffffffffffffffffffffffffffffffffffff1673ffffffffffffffffffffffffffffffffffffffff1663bc1b392d6040518163ffffffff1660e01b8152600401600060405180830381865afa158015610da3573d6000803e3d6000fd5b505050506040513d6000823e3d601f19601f82011682018060405250810190610dcc9190612a33565b815260200160008054906101000a900473ffffffffffffffffffffffffffffffffffffffff1673ffffffffffffffffffffffffffffffffffffffff1663bc1b392d6040518163ffffffff1660e01b8152600401600060405180830381865afa158015610e3c573d6000803e3d6000fd5b505050506040513d6000823e3d601f19601f82011682018060405250810190610e659190612a33565b815250905090565b610e75611eb6565b60008054906101000a900473ffffffffffffffffffffffffffffffffffffffff1673ffffffffffffffffffffffffffffffffffffffff1663d4d45554836040015160008054906101000a900473ffffffffffffffffffffffffffffffffffffffff1673ffffffffffffffffffffffffffffffffffffffff1663bc1b392d6040518163ffffffff1660e01b8152600401600060405180830381865afa158015610f21573d6000803e3d6000fd5b505050506040513d6000823e3d601f19601f82011682018060405250810190610f4a9190612a33565b6040518363ffffffff1660e01b8152600401610f67929190612977565b602060405180830381865afa158015610f84573d6000803e3d6000fd5b505050506040513d601f19601f82011682018060405250810190610fa891906129ae565b15610fbc57610fb5610d0d565b90506117fe565b60008060009054906101000a900473ffffffffffffffffffffffffffffffffffffffff1673ffffffffffffffffffffffffffffffffffffffff1663b5e2832560008054906101000a900473ffffffffffffffffffffffffffffffffffffffff1673ffffffffffffffffffffffffffffffffffffffff1663b5e2832560008054906101000a900473ffffffffffffffffffffffffffffffffffffffff1673ffffffffffffffffffffffffffffffffffffffff166345caa1176040518163ffffffff1660e01b8152600401600060405180830381865afa1580156110a2573d6000803e3d6000fd5b505050506040513d6000823e3d601f19601f820116820180604052508101906110cb9190612a33565b60008054906101000a900473ffffffffffffffffffffffffffffffffffffffff1673ffffffffffffffffffffffffffffffffffffffff1663b5e2832589602001518a602001516040518363ffffffff1660e01b815260040161112e929190612977565b600060405180830381865afa15801561114b573d6000803e3d6000fd5b505050506040513d6000823e3d601f19601f820116820180604052508101906111749190612a33565b6040518363ffffffff1660e01b8152600401611191929190612977565b600060405180830381865afa1580156111ae573d6000803e3d6000fd5b505050506040513d6000823e3d601f19601f820116820180604052508101906111d79190612a33565b60008054906101000a900473ffffffffffffffffffffffffffffffffffffffff1673ffffffffffffffffffffffffffffffffffffffff1663a672d10060008054906101000a900473ffffffffffffffffffffffffffffffffffffffff1673ffffffffffffffffffffffffffffffffffffffff1663b5e2832560008054906101000a900473ffffffffffffffffffffffffffffffffffffffff1673ffffffffffffffffffffffffffffffffffffffff16635fdf05d76040518163ffffffff1660e01b8152600401600060405180830381865afa1580156112ba573d6000803e3d6000fd5b505050506040513d6000823e3d601f19601f820116820180604052508101906112e39190612a33565b8a604001516040518363ffffffff1660e01b8152600401611305929190612977565b600060405180830381865afa158015611322573d6000803e3d6000fd5b505050506040513d6000823e3d601f19601f8201168201806040525081019061134b9190612a33565b6040518263ffffffff1660e01b81526004016113679190612a7c565b600060405180830381865afa158015611384573d6000803e3d6000fd5b505050506040513d6000823e3d601f19601f820116820180604052508101906113ad9190612a33565b6040518363ffffffff1660e01b81526004016113ca929190612977565b600060405180830381865afa1580156113e7573d6000803e3d6000fd5b505050506040513d6000823e3d601f19601f820116820180604052508101906114109190612a33565b905060008060009054906101000a900473ffffffffffffffffffffffffffffffffffffffff1673ffffffffffffffffffffffffffffffffffffffff1663fb2bedad60008054906101000a900473ffffffffffffffffffffffffffffffffffffffff1673ffffffffffffffffffffffffffffffffffffffff1663fb2bedad60008054906101000a900473ffffffffffffffffffffffffffffffffffffffff1673ffffffffffffffffffffffffffffffffffffffff1663b5e2832587886040518363ffffffff1660e01b81526004016114e8929190612977565b600060405180830381865afa158015611505573d6000803e3d6000fd5b505050506040513d6000823e3d601f19601f8201168201806040525081019061152e9190612a33565b88602001516040518363ffffffff1660e01b8152600401611550929190612977565b600060405180830381865afa15801561156d573d6000803e3d6000fd5b505050506040513d6000823e3d601f19601f820116820180604052508101906115969190612a33565b86602001516040518363ffffffff1660e01b81526004016115b8929190612977565b600060405180830381865afa1580156115d5573d6000803e3d6000fd5b505050506040513d6000823e3d601f19601f820116820180604052508101906115fe9190612a33565b905060008060009054906101000a900473ffffffffffffffffffffffffffffffffffffffff1673ffffffffffffffffffffffffffffffffffffffff1663fb2bedad60008054906101000a900473ffffffffffffffffffffffffffffffffffffffff1673ffffffffffffffffffffffffffffffffffffffff1663b5e2832560008054906101000a900473ffffffffffffffffffffffffffffffffffffffff1673ffffffffffffffffffffffffffffffffffffffff1663fb2bedad8a60200151886040518363ffffffff1660e01b81526004016116da929190612977565b600060405180830381865afa1580156116f7573d6000803e3d6000fd5b505050506040513d6000823e3d601f19601f820116820180604052508101906117209190612a33565b876040518363ffffffff1660e01b815260040161173e929190612977565b600060405180830381865afa15801561175b573d6000803e3d6000fd5b505050506040513d6000823e3d601f19601f820116820180604052508101906117849190612a33565b87604001516040518363ffffffff1660e01b81526004016117a6929190612977565b600060405180830381865afa1580156117c3573d6000803e3d6000fd5b505050506040513d6000823e3d601f19601f820116820180604052508101906117ec9190612a33565b90506117f88282610ccf565b93505050505b919050565b600060018081111561181857611817612314565b5b8360000151600181111561182f5761182e612314565b5b148015611863575060018081111561184a57611849612314565b5b8260000151600181111561186157611860612314565b5b145b156118715760019050611a32565b6000600181111561188557611884612314565b5b8360000151600181111561189c5761189b612314565b5b1480156118d15750600060018111156118b8576118b7612314565b5b826000015160018111156118cf576118ce612314565b5b145b15611a2d5760008054906101000a900473ffffffffffffffffffffffffffffffffffffffff1673ffffffffffffffffffffffffffffffffffffffff1663d4d45554846020015184602001516040518363ffffffff1660e01b8152600401611939929190612977565b602060405180830381865afa158015611956573d6000803e3d6000fd5b505050506040513d601f19601f8201168201806040525081019061197a91906129ae565b8015611a26575060008054906101000a900473ffffffffffffffffffffffffffffffffffffffff1673ffffffffffffffffffffffffffffffffffffffff1663d4d45554846040015184604001516040518363ffffffff1660e01b81526004016119e4929190612977565b602060405180830381865afa158015611a01573d6000803e3d6000fd5b505050506040513d601f19601f82011682018060405250810190611a2591906129ae565b5b9050611a32565b600090505b92915050565b611a40611eb6565b600180811115611a5357611a52612314565b5b82600001516001811115611a6a57611a69612314565b5b03611aaa576040517f08c379a0000000000000000000000000000000000000000000000000000000008152600401611aa190612afb565b60405180910390fd5b611bef826020015160008054906101000a900473ffffffffffffffffffffffffffffffffffffffff1673ffffffffffffffffffffffffffffffffffffffff1663fb2bedad60008054906101000a900473ffffffffffffffffffffffffffffffffffffffff1673ffffffffffffffffffffffffffffffffffffffff1663bc1b392d6040518163ffffffff1660e01b8152600401600060405180830381865afa158015611b59573d6000803e3d6000fd5b505050506040513d6000823e3d601f19601f82011682018060405250810190611b829190612a33565b86604001516040518363ffffffff1660e01b8152600401611ba4929190612977565b600060405180830381865afa158015611bc1573d6000803e3d6000fd5b505050506040513d6000823e3d601f19601f82011682018060405250810190611bea9190612a33565b610ccf565b9050919050565b611bfe611eb6565b600073__$7db5d2dbc3ae63372df6c39d501ad0f72a$__63bc39804e8673__$7db5d2dbc3ae63372df6c39d501ad0f72a$__63bc1b392d6040518163ffffffff1660e01b8152600401600060405180830381865af4158015611c64573d6000803e3d6000fd5b505050506040513d6000823e3d601f19601f82011682018060405250810190611c8d9190612815565b60006040518463ffffffff1660e01b8152600401611cad93929190612b1b565b602060405180830381865af4158015611cca573d6000803e3d6000fd5b505050506040513d601f19601f82011682018060405250810190611cee9190612b96565b03611cfb57819050611eaf565b73__$7db5d2dbc3ae63372df6c39d501ad0f72a$__63ee4a4e4e856040518263ffffffff1660e01b8152600401611d329190612bc3565b602060405180830381865af4158015611d4f573d6000803e3d6000fd5b505050506040513d601f19601f82011682018060405250810190611d7391906129ae565b15611e1a57611e1373__$7db5d2dbc3ae63372df6c39d501ad0f72a$__636efac6c78660016040518363ffffffff1660e01b8152600401611db5929190612be5565b600060405180830381865af4158015611dd2573d6000803e3d6000fd5b505050506040513d6000823e3d601f19601f82011682018060405250810190611dfb9190612815565b611e0485610e6d565b611e0e8587610309565b611bf6565b9050611eaf565b611eac73__$7db5d2dbc3ae63372df6c39d501ad0f72a$__636efac6c78660016040518363ffffffff1660e01b8152600401611e57929190612be5565b600060405180830381865af4158015611e74573d6000803e3d6000fd5b505050506040513d6000823e3d601f19601f82011682018060405250810190611e9d9190612815565b611ea685610e6d565b84611bf6565b90505b9392505050565b604051806060016040528060006001811115611ed557611ed4612314565b5b8152602001611ee2611ef5565b8152602001611eef611ef5565b81525090565b6040518060200160405280611f08611f0e565b81525090565b604051806060016040528060608152602001600015158152602001600081525090565b6000604051905090565b600080fd5b600080fd5b600080fd5b6000601f19601f8301169050919050565b7f4e487b7100000000000000000000000000000000000000000000000000000000600052604160045260246000fd5b611f9382611f4a565b810181811067ffffffffffffffff82111715611fb257611fb1611f5b565b5b80604052505050565b6000611fc5611f31565b9050611fd18282611f8a565b919050565b600080fd5b600080fd5b600080fd5b600067ffffffffffffffff82111561200057611fff611f5b565b5b61200982611f4a565b9050602081019050919050565b82818337600083830152505050565b600061203861203384611fe5565b611fbb565b90508281526020810184848401111561205457612053611fe0565b5b61205f848285612016565b509392505050565b600082601f83011261207c5761207b611fdb565b5b813561208c848260208601612025565b91505092915050565b60008115159050919050565b6120aa81612095565b81146120b557600080fd5b50565b6000813590506120c7816120a1565b92915050565b6000819050919050565b6120e0816120cd565b81146120eb57600080fd5b50565b6000813590506120fd816120d7565b92915050565b60006060828403121561211957612118611f45565b5b6121236060611fbb565b9050600082013567ffffffffffffffff81111561214357612142611fd6565b5b61214f84828501612067565b6000830152506020612163848285016120b8565b6020830152506040612177848285016120ee565b60408301525092915050565b6002811061219057600080fd5b50565b6000813590506121a281612183565b92915050565b6000602082840312156121be576121bd611f45565b5b6121c86020611fbb565b9050600082013567ffffffffffffffff8111156121e8576121e7611fd6565b5b6121f484828501612103565b60008301525092915050565b60006060828403121561221657612215611f45565b5b6122206060611fbb565b9050600061223084828501612193565b600083015250602082013567ffffffffffffffff81111561225457612253611fd6565b5b612260848285016121a8565b602083015250604082013567ffffffffffffffff81111561228457612283611fd6565b5b612290848285016121a8565b60408301525092915050565b600080604083850312156122b3576122b2611f3b565b5b600083013567ffffffffffffffff8111156122d1576122d0611f40565b5b6122dd85828601612103565b925050602083013567ffffffffffffffff8111156122fe576122fd611f40565b5b61230a85828601612200565b9150509250929050565b7f4e487b7100000000000000000000000000000000000000000000000000000000600052602160045260246000fd5b6002811061235457612353612314565b5b50565b600081905061236582612343565b919050565b600061237582612357565b9050919050565b6123858161236a565b82525050565b600081519050919050565b600082825260208201905092915050565b60005b838110156123c55780820151818401526020810190506123aa565b60008484015250505050565b60006123dc8261238b565b6123e68185612396565b93506123f68185602086016123a7565b6123ff81611f4a565b840191505092915050565b61241381612095565b82525050565b612422816120cd565b82525050565b6000606083016000830151848203600086015261244582826123d1565b915050602083015161245a602086018261240a565b50604083015161246d6040860182612419565b508091505092915050565b600060208301600083015184820360008601526124958282612428565b9150508091505092915050565b60006060830160008301516124ba600086018261237c565b50602083015184820360208601526124d28282612478565b915050604083015184820360408601526124ec8282612478565b9150508091505092915050565b6000602082019050818103600083015261251381846124a2565b905092915050565b6000806040838503121561253257612531611f3b565b5b600083013567ffffffffffffffff8111156125505761254f611f40565b5b61255c85828601612200565b925050602083013567ffffffffffffffff81111561257d5761257c611f40565b5b61258985828601612200565b9150509250929050565b600080604083850312156125aa576125a9611f3b565b5b600083013567ffffffffffffffff8111156125c8576125c7611f40565b5b6125d4858286016121a8565b925050602083013567ffffffffffffffff8111156125f5576125f4611f40565b5b612601858286016121a8565b9150509250929050565b60006020828403121561262157612620611f3b565b5b600082013567ffffffffffffffff81111561263f5761263e611f40565b5b61264b84828501612200565b91505092915050565b61265d81612095565b82525050565b60006020820190506126786000830184612654565b92915050565b6000819050919050565b6000819050919050565b60006126ad6126a86126a38461267e565b612688565b6120cd565b9050919050565b6126bd81612692565b82525050565b6126cc81612095565b82525050565b60006040820190506126e760008301856126b4565b6126f460208301846126c3565b9392505050565b600061270e61270984611fe5565b611fbb565b90508281526020810184848401111561272a57612729611fe0565b5b6127358482856123a7565b509392505050565b600082601f83011261275257612751611fdb565b5b81516127628482602086016126fb565b91505092915050565b60008151905061277a816120a1565b92915050565b60008151905061278f816120d7565b92915050565b6000606082840312156127ab576127aa611f45565b5b6127b56060611fbb565b9050600082015167ffffffffffffffff8111156127d5576127d4611fd6565b5b6127e18482850161273d565b60008301525060206127f58482850161276b565b602083015250604061280984828501612780565b60408301525092915050565b60006020828403121561282b5761282a611f3b565b5b600082015167ffffffffffffffff81111561284957612848611f40565b5b61285584828501612795565b91505092915050565b600082825260208201905092915050565b600061287a8261238b565b612884818561285e565b93506128948185602086016123a7565b61289d81611f4a565b840191505092915050565b6128b181612095565b82525050565b6128c0816120cd565b82525050565b600060608301600083015184820360008601526128e3828261286f565b91505060208301516128f860208601826128a8565b50604083015161290b60408601826128b7565b508091505092915050565b6000604082019050818103600083015261293081856128c6565b9050818103602083015261294481846128c6565b90509392505050565b6000602083016000830151848203600086015261296a8282612428565b9150508091505092915050565b60006040820190508181036000830152612991818561294d565b905081810360208301526129a5818461294d565b90509392505050565b6000602082840312156129c4576129c3611f3b565b5b60006129d28482850161276b565b91505092915050565b6000602082840312156129f1576129f0611f45565b5b6129fb6020611fbb565b9050600082015167ffffffffffffffff811115612a1b57612a1a611fd6565b5b612a2784828501612795565b60008301525092915050565b600060208284031215612a4957612a48611f3b565b5b600082015167ffffffffffffffff811115612a6757612a66611f40565b5b612a73848285016129db565b91505092915050565b60006020820190508181036000830152612a96818461294d565b905092915050565b600082825260208201905092915050565b7f63616e6e6f74206e656761746520706f696e7420617420696e66696e69747900600082015250565b6000612ae5601f83612a9e565b9150612af082612aaf565b602082019050919050565b60006020820190508181036000830152612b1481612ad8565b9050919050565b60006060820190508181036000830152612b3581866128c6565b90508181036020830152612b4981856128c6565b9050612b5860408301846126c3565b949350505050565b6000819050919050565b612b7381612b60565b8114612b7e57600080fd5b50565b600081519050612b9081612b6a565b92915050565b600060208284031215612bac57612bab611f3b565b5b6000612bba84828501612b81565b91505092915050565b60006020820190508181036000830152612bdd81846128c6565b905092915050565b60006040820190508181036000830152612bff81856128c6565b9050612c0e60208301846126b4565b939250505056fea2646970667358221220566f184882f4c6b926c7545d9777f9073716f7d73eab19c2c4e28594cb6fab8664736f6c634300081b0033",
  "linkReferences": {
    "contracts/BigNumber.sol": {
      "BigNumbers": [
        {
          "length": 20,
          "start": 797
        },
        {
          "length": 20,
          "start": 824
        },
        {
          "length": 20,
          "start": 7467
        },
        {
          "length": 20,
          "start": 7494
        },
        {
          "length": 20,
          "start": 7718
        },
        {
          "length": 20,
          "start": 7846
        },
        {
          "length": 20,
          "start": 8008
        }
      ]
    }
  },
  "deployedLinkReferences": {
    "contracts/BigNumber.sol": {
      "BigNumbers": [
        {
          "length": 20,
          "start": 500
        },
        {
          "length": 20,
          "start": 527
        },
        {
          "length": 20,
          "start": 7170
        },
        {
          "length": 20,
          "start": 7197
        },
        {
          "length": 20,
          "start": 7421
        },
        {
          "length": 20,
          "start": 7549
        },
        {
          "length": 20,
          "start": 7711
        }
      ]
    }
  }
}